{
	"StarForgeUnitNFT.sol": {
		"StarForgeUnitNFT": {
			"abi": [
				{
					"inputs": [],
					"stateMutability": "nonpayable",
					"type": "constructor"
				},
				{
					"anonymous": false,
					"inputs": [
						{
							"indexed": true,
							"internalType": "address",
							"name": "owner",
							"type": "address"
						},
						{
							"indexed": true,
							"internalType": "address",
							"name": "approved",
							"type": "address"
						},
						{
							"indexed": true,
							"internalType": "uint256",
							"name": "tokenId",
							"type": "uint256"
						}
					],
					"name": "Approval",
					"type": "event"
				},
				{
					"anonymous": false,
					"inputs": [
						{
							"indexed": true,
							"internalType": "address",
							"name": "owner",
							"type": "address"
						},
						{
							"indexed": true,
							"internalType": "address",
							"name": "operator",
							"type": "address"
						},
						{
							"indexed": false,
							"internalType": "bool",
							"name": "approved",
							"type": "bool"
						}
					],
					"name": "ApprovalForAll",
					"type": "event"
				},
				{
					"anonymous": false,
					"inputs": [
						{
							"indexed": true,
							"internalType": "address",
							"name": "previousOwner",
							"type": "address"
						},
						{
							"indexed": true,
							"internalType": "address",
							"name": "newOwner",
							"type": "address"
						}
					],
					"name": "OwnershipTransferred",
					"type": "event"
				},
				{
					"anonymous": false,
					"inputs": [
						{
							"indexed": true,
							"internalType": "address",
							"name": "from",
							"type": "address"
						},
						{
							"indexed": true,
							"internalType": "address",
							"name": "to",
							"type": "address"
						},
						{
							"indexed": true,
							"internalType": "uint256",
							"name": "tokenId",
							"type": "uint256"
						}
					],
					"name": "Transfer",
					"type": "event"
				},
				{
					"anonymous": false,
					"inputs": [
						{
							"indexed": false,
							"internalType": "address",
							"name": "to",
							"type": "address"
						},
						{
							"indexed": false,
							"internalType": "uint256",
							"name": "tokenId",
							"type": "uint256"
						},
						{
							"indexed": false,
							"internalType": "enum StarForgeUnitNFT.Faction",
							"name": "faction",
							"type": "uint8"
						},
						{
							"indexed": false,
							"internalType": "enum StarForgeUnitNFT.Rarity",
							"name": "rarity",
							"type": "uint8"
						},
						{
							"indexed": false,
							"internalType": "enum StarForgeUnitNFT.UnitClass",
							"name": "unitClass",
							"type": "uint8"
						}
					],
					"name": "UnitMinted",
					"type": "event"
				},
				{
					"inputs": [
						{
							"internalType": "address",
							"name": "",
							"type": "address"
						},
						{
							"internalType": "uint256",
							"name": "",
							"type": "uint256"
						}
					],
					"name": "approve",
					"outputs": [],
					"stateMutability": "pure",
					"type": "function"
				},
				{
					"inputs": [
						{
							"internalType": "address",
							"name": "owner",
							"type": "address"
						}
					],
					"name": "balanceOf",
					"outputs": [
						{
							"internalType": "uint256",
							"name": "",
							"type": "uint256"
						}
					],
					"stateMutability": "view",
					"type": "function"
				},
				{
					"inputs": [],
					"name": "gameContract",
					"outputs": [
						{
							"internalType": "address",
							"name": "",
							"type": "address"
						}
					],
					"stateMutability": "view",
					"type": "function"
				},
				{
					"inputs": [
						{
							"internalType": "uint256",
							"name": "tokenId",
							"type": "uint256"
						}
					],
					"name": "getApproved",
					"outputs": [
						{
							"internalType": "address",
							"name": "",
							"type": "address"
						}
					],
					"stateMutability": "view",
					"type": "function"
				},
				{
					"inputs": [
						{
							"internalType": "uint256",
							"name": "tokenId",
							"type": "uint256"
						}
					],
					"name": "getUnit",
					"outputs": [
						{
							"components": [
								{
									"internalType": "enum StarForgeUnitNFT.Faction",
									"name": "faction",
									"type": "uint8"
								},
								{
									"internalType": "enum StarForgeUnitNFT.Rarity",
									"name": "rarity",
									"type": "uint8"
								},
								{
									"internalType": "enum StarForgeUnitNFT.UnitClass",
									"name": "unitClass",
									"type": "uint8"
								},
								{
									"internalType": "uint8",
									"name": "attack",
									"type": "uint8"
								},
								{
									"internalType": "uint8",
									"name": "defense",
									"type": "uint8"
								},
								{
									"internalType": "uint8",
									"name": "speed",
									"type": "uint8"
								}
							],
							"internalType": "struct StarForgeUnitNFT.Unit",
							"name": "",
							"type": "tuple"
						}
					],
					"stateMutability": "view",
					"type": "function"
				},
				{
					"inputs": [
						{
							"internalType": "address",
							"name": "owner",
							"type": "address"
						},
						{
							"internalType": "address",
							"name": "operator",
							"type": "address"
						}
					],
					"name": "isApprovedForAll",
					"outputs": [
						{
							"internalType": "bool",
							"name": "",
							"type": "bool"
						}
					],
					"stateMutability": "view",
					"type": "function"
				},
				{
					"inputs": [
						{
							"internalType": "address",
							"name": "to",
							"type": "address"
						},
						{
							"internalType": "enum StarForgeUnitNFT.Faction",
							"name": "faction",
							"type": "uint8"
						},
						{
							"internalType": "enum StarForgeUnitNFT.Rarity",
							"name": "rarity",
							"type": "uint8"
						},
						{
							"internalType": "enum StarForgeUnitNFT.UnitClass",
							"name": "unitClass",
							"type": "uint8"
						},
						{
							"internalType": "uint8",
							"name": "atk",
							"type": "uint8"
						},
						{
							"internalType": "uint8",
							"name": "def",
							"type": "uint8"
						},
						{
							"internalType": "uint8",
							"name": "spd",
							"type": "uint8"
						}
					],
					"name": "mintUnit",
					"outputs": [
						{
							"internalType": "uint256",
							"name": "",
							"type": "uint256"
						}
					],
					"stateMutability": "nonpayable",
					"type": "function"
				},
				{
					"inputs": [],
					"name": "name",
					"outputs": [
						{
							"internalType": "string",
							"name": "",
							"type": "string"
						}
					],
					"stateMutability": "view",
					"type": "function"
				},
				{
					"inputs": [],
					"name": "owner",
					"outputs": [
						{
							"internalType": "address",
							"name": "",
							"type": "address"
						}
					],
					"stateMutability": "view",
					"type": "function"
				},
				{
					"inputs": [
						{
							"internalType": "address",
							"name": "to",
							"type": "address"
						},
						{
							"internalType": "enum StarForgeUnitNFT.Faction",
							"name": "faction",
							"type": "uint8"
						},
						{
							"internalType": "enum StarForgeUnitNFT.Rarity",
							"name": "rarity",
							"type": "uint8"
						},
						{
							"internalType": "enum StarForgeUnitNFT.UnitClass",
							"name": "unitClass",
							"type": "uint8"
						},
						{
							"internalType": "uint8",
							"name": "atk",
							"type": "uint8"
						},
						{
							"internalType": "uint8",
							"name": "def",
							"type": "uint8"
						},
						{
							"internalType": "uint8",
							"name": "spd",
							"type": "uint8"
						}
					],
					"name": "ownerMint",
					"outputs": [],
					"stateMutability": "nonpayable",
					"type": "function"
				},
				{
					"inputs": [
						{
							"internalType": "uint256",
							"name": "tokenId",
							"type": "uint256"
						}
					],
					"name": "ownerOf",
					"outputs": [
						{
							"internalType": "address",
							"name": "",
							"type": "address"
						}
					],
					"stateMutability": "view",
					"type": "function"
				},
				{
					"inputs": [],
					"name": "renounceOwnership",
					"outputs": [],
					"stateMutability": "nonpayable",
					"type": "function"
				},
				{
					"inputs": [
						{
							"internalType": "address",
							"name": "",
							"type": "address"
						},
						{
							"internalType": "address",
							"name": "",
							"type": "address"
						},
						{
							"internalType": "uint256",
							"name": "",
							"type": "uint256"
						}
					],
					"name": "safeTransferFrom",
					"outputs": [],
					"stateMutability": "pure",
					"type": "function"
				},
				{
					"inputs": [
						{
							"internalType": "address",
							"name": "",
							"type": "address"
						},
						{
							"internalType": "address",
							"name": "",
							"type": "address"
						},
						{
							"internalType": "uint256",
							"name": "",
							"type": "uint256"
						},
						{
							"internalType": "bytes",
							"name": "",
							"type": "bytes"
						}
					],
					"name": "safeTransferFrom",
					"outputs": [],
					"stateMutability": "pure",
					"type": "function"
				},
				{
					"inputs": [
						{
							"internalType": "address",
							"name": "",
							"type": "address"
						},
						{
							"internalType": "bool",
							"name": "",
							"type": "bool"
						}
					],
					"name": "setApprovalForAll",
					"outputs": [],
					"stateMutability": "pure",
					"type": "function"
				},
				{
					"inputs": [
						{
							"internalType": "address",
							"name": "_gameContract",
							"type": "address"
						}
					],
					"name": "setGameContract",
					"outputs": [],
					"stateMutability": "nonpayable",
					"type": "function"
				},
				{
					"inputs": [
						{
							"internalType": "bytes4",
							"name": "interfaceId",
							"type": "bytes4"
						}
					],
					"name": "supportsInterface",
					"outputs": [
						{
							"internalType": "bool",
							"name": "",
							"type": "bool"
						}
					],
					"stateMutability": "view",
					"type": "function"
				},
				{
					"inputs": [],
					"name": "symbol",
					"outputs": [
						{
							"internalType": "string",
							"name": "",
							"type": "string"
						}
					],
					"stateMutability": "view",
					"type": "function"
				},
				{
					"inputs": [
						{
							"internalType": "uint256",
							"name": "tokenId",
							"type": "uint256"
						}
					],
					"name": "tokenURI",
					"outputs": [
						{
							"internalType": "string",
							"name": "",
							"type": "string"
						}
					],
					"stateMutability": "view",
					"type": "function"
				},
				{
					"inputs": [],
					"name": "totalSupply",
					"outputs": [
						{
							"internalType": "uint256",
							"name": "",
							"type": "uint256"
						}
					],
					"stateMutability": "view",
					"type": "function"
				},
				{
					"inputs": [
						{
							"internalType": "address",
							"name": "",
							"type": "address"
						},
						{
							"internalType": "address",
							"name": "",
							"type": "address"
						},
						{
							"internalType": "uint256",
							"name": "",
							"type": "uint256"
						}
					],
					"name": "transferFrom",
					"outputs": [],
					"stateMutability": "pure",
					"type": "function"
				},
				{
					"inputs": [
						{
							"internalType": "address",
							"name": "newOwner",
							"type": "address"
						}
					],
					"name": "transferOwnership",
					"outputs": [],
					"stateMutability": "nonpayable",
					"type": "function"
				},
				{
					"inputs": [
						{
							"internalType": "uint256",
							"name": "",
							"type": "uint256"
						}
					],
					"name": "units",
					"outputs": [
						{
							"internalType": "enum StarForgeUnitNFT.Faction",
							"name": "faction",
							"type": "uint8"
						},
						{
							"internalType": "enum StarForgeUnitNFT.Rarity",
							"name": "rarity",
							"type": "uint8"
						},
						{
							"internalType": "enum StarForgeUnitNFT.UnitClass",
							"name": "unitClass",
							"type": "uint8"
						},
						{
							"internalType": "uint8",
							"name": "attack",
							"type": "uint8"
						},
						{
							"internalType": "uint8",
							"name": "defense",
							"type": "uint8"
						},
						{
							"internalType": "uint8",
							"name": "speed",
							"type": "uint8"
						}
					],
					"stateMutability": "view",
					"type": "function"
				}
			],
			"devdoc": {
				"events": {
					"Approval(address,address,uint256)": {
						"details": "Emitted when `owner` enables `approved` to manage the `tokenId` token."
					},
					"ApprovalForAll(address,address,bool)": {
						"details": "Emitted when `owner` enables or disables (`approved`) `operator` to manage all of its assets."
					},
					"Transfer(address,address,uint256)": {
						"details": "Emitted when `tokenId` token is transferred from `from` to `to`."
					}
				},
				"kind": "dev",
				"methods": {
					"balanceOf(address)": {
						"details": "See {IERC721-balanceOf}."
					},
					"getApproved(uint256)": {
						"details": "See {IERC721-getApproved}."
					},
					"isApprovedForAll(address,address)": {
						"details": "See {IERC721-isApprovedForAll}."
					},
					"name()": {
						"details": "See {IERC721Metadata-name}."
					},
					"owner()": {
						"details": "Returns the address of the current owner."
					},
					"ownerOf(uint256)": {
						"details": "See {IERC721-ownerOf}."
					},
					"renounceOwnership()": {
						"details": "Leaves the contract without owner. It will not be possible to call `onlyOwner` functions. Can only be called by the current owner. NOTE: Renouncing ownership will leave the contract without an owner, thereby disabling any functionality that is only available to the owner."
					},
					"supportsInterface(bytes4)": {
						"details": "See {IERC165-supportsInterface}."
					},
					"symbol()": {
						"details": "See {IERC721Metadata-symbol}."
					},
					"tokenURI(uint256)": {
						"details": "See {IERC721Metadata-tokenURI}."
					},
					"transferOwnership(address)": {
						"details": "Transfers ownership of the contract to a new account (`newOwner`). Can only be called by the current owner."
					}
				},
				"version": 1
			},
			"evm": {
				"assembly": "    /* \"StarForgeUnitNFT.sol\":305:5442  contract StarForgeUnitNFT is ERC721, Ownable {... */\n  mstore(0x40, 0x80)\n  jumpi(tag_1, callvalue)\n  0x40\n  dup1\n  mload\n  swap1\n  dup2\n  add\n  sub(shl(0x40, 0x01), 0x01)\n  dup2\n  gt\n  dup3\n  dup3\n  lt\n  or\n  tag_20\n  jumpi\n  0x40\n  swap1\n  dup2\n  mstore\n  0x15\n  dup3\n  mstore\n  0x536f6d6e69612053746172466f72676520556e69740000000000000000000000\n  0x20\n  dup4\n  add\n  mstore\n  dup1\n  mload\n  swap1\n  dup2\n  add\n  sub(shl(0x40, 0x01), 0x01)\n  dup2\n  gt\n  dup3\n  dup3\n  lt\n  or\n  tag_20\n  jumpi\n  0x40\n  mstore\n  0x06\n  dup2\n  mstore\n  shl(0xd2, 0x14d195539255)\n  0x20\n  dup3\n  add\n  mstore\n  dup2\n  mload\n  sub(shl(0x40, 0x01), 0x01)\n  dup2\n  gt\n  tag_20\n  jumpi\n  sload(0x00)\n  0x01\n  dup2\n  dup2\n  shr\n  swap2\n  and\n  dup1\n  iszero\n  tag_9\n  jumpi\ntag_10:\n  0x20\n  dup3\n  lt\n  eq\n  tag_24\n  jumpi\n  0x1f\n  dup2\n  gt\n  tag_13\n  jumpi\ntag_14:\n  pop\n  0x20\n  swap3\n  0x1f\n  dup3\n  gt\n  0x01\n  eq\n  tag_15\n  jumpi\n  swap3\n  dup2\n  swap3\n  swap4\n  0x00\n  swap3\n  tag_17\n  jumpi\ntag_18:\n  pop\n  pop\n  dup2\n  0x01\n  shl\n  swap2\n  not(0x00)\n  swap1\n  0x03\n  shl\n  shr\n  not\n  and\n  or\n  0x00\n  sstore\ntag_19:\n  dup1\n  mload\n  sub(shl(0x40, 0x01), 0x01)\n  dup2\n  gt\n  tag_20\n  jumpi\n  sload(0x01)\n  0x01\n  dup2\n  dup2\n  shr\n  swap2\n  and\n  dup1\n  iszero\n  tag_22\n  jumpi\ntag_23:\n  0x20\n  dup3\n  lt\n  eq\n  tag_24\n  jumpi\n  0x1f\n  dup2\n  gt\n  tag_26\n  jumpi\ntag_27:\n  pop\n  0x20\n  swap2\n  0x1f\n  dup3\n  gt\n  0x01\n  eq\n  tag_28\n  jumpi\n  swap2\n  dup2\n  swap3\n  0x00\n  swap3\n  tag_30\n  jumpi\ntag_31:\n  pop\n  pop\n  dup2\n  0x01\n  shl\n  swap2\n  not(0x00)\n  swap1\n  0x03\n  shl\n  shr\n  not\n  and\n  or\n  0x01\n  sstore\ntag_32:\n  0x06\n  dup1\n  sload\n    /* \"@openzeppelin/contracts@4.9.3/utils/Context.sol\":719:729  msg.sender */\n  caller\n  not(sub(shl(0xa0, 0x01), 0x01))\n    /* \"StarForgeUnitNFT.sol\":305:5442  contract StarForgeUnitNFT is ERC721, Ownable {... */\n  dup3\n  and\n  dup2\n  or\n  swap1\n  swap3\n  sstore\n  mload(0x40)\n  swap2\n    /* \"@openzeppelin/contracts@4.9.3/utils/Context.sol\":719:729  msg.sender */\n  swap1\n  sub(shl(0xa0, 0x01), 0x01)\n    /* \"StarForgeUnitNFT.sol\":305:5442  contract StarForgeUnitNFT is ERC721, Ownable {... */\n  and\n    /* \"@openzeppelin/contracts@4.9.3/access/Ownable.sol\":2566:2606  OwnershipTransferred(oldOwner, newOwner) */\n  0x8be0079c531659141344cd1fd0a4f28419497f9722a3daafe3b4186f6b6457e0\n  0x00\n  dup1\n  log3\n    /* \"StarForgeUnitNFT.sol\":305:5442  contract StarForgeUnitNFT is ERC721, Ownable {... */\n  dataSize(sub_0)\n  swap1\n  dup2\n  dataOffset(sub_0)\n  dup3\n  codecopy\n  return\ntag_30:\n  add\n  mload\n  swap1\n  pop\n  0x00\n  dup1\n  jump(tag_31)\ntag_28:\n  not(0x1f)\n  dup3\n  and\n  swap3\n  mstore(0x00, 0x01)\n  dup1\n  0x00\n  keccak256\n  swap2\n  0x00\ntag_33:\n  dup6\n  dup2\n  lt\n  tag_34\n  jumpi\n  pop\n  dup4\n  0x01\n  swap6\n  lt\n  tag_36\n  jumpi\ntag_37:\n  pop\n  pop\n  pop\n  dup2\n  shl\n  add\n  0x01\n  sstore\n  jump(tag_32)\ntag_36:\n  add\n  mload\n  not(0x00)\n  0xf8\n  dup5\n  0x03\n  shl\n  and\n  shr\n  not\n  and\n  swap1\n  sstore\n  0x00\n  dup1\n  dup1\n  jump(tag_37)\ntag_34:\n  swap2\n  swap3\n  0x20\n  0x01\n  dup2\n  swap3\n  dup7\n  dup6\n  add\n  mload\n  dup2\n  sstore\n  add\n  swap5\n  add\n  swap3\n  add\n  jump(tag_33)\ntag_26:\n  mstore(0x00, 0x01)\n  0xb10e2d527612073b26eecdfd717e6a320cf44b4afac2b0732d9fcbe2b7fa0cf6\n  0x1f\n  dup4\n  add\n  0x05\n  shr\n  dup2\n  add\n  swap2\n  0x20\n  dup5\n  lt\n  tag_38\n  jumpi\ntag_39:\n  0x1f\n  add\n  0x05\n  shr\n  add\n  swap1\ntag_40:\n  dup2\n  dup2\n  lt\n  tag_41\n  jumpi\n  pop\n  jump(tag_27)\ntag_41:\n  0x00\n  dup2\n  sstore\n  0x01\n  add\n  jump(tag_40)\ntag_38:\n  swap1\n  swap2\n  pop\n  dup2\n  swap1\n  jump(tag_39)\ntag_24:\n  mstore(0x00, shl(0xe0, 0x4e487b71))\n  mstore(0x04, 0x22)\n  revert(0x00, 0x24)\ntag_22:\n  swap1\n  0x7f\n  and\n  swap1\n  jump(tag_23)\ntag_20:\n  mstore(0x00, shl(0xe0, 0x4e487b71))\n  mstore(0x04, 0x41)\n  revert(0x00, 0x24)\ntag_17:\n  add\n  mload\n  swap1\n  pop\n  0x00\n  dup1\n  jump(tag_18)\ntag_15:\n  not(0x1f)\n  dup3\n  and\n  swap4\n  0x00\n  dup1\n  mstore\n  dup1\n  0x00\n  keccak256\n  swap2\n  0x00\ntag_43:\n  dup7\n  dup2\n  lt\n  tag_44\n  jumpi\n  pop\n  dup4\n  0x01\n  swap6\n  swap7\n  lt\n  tag_46\n  jumpi\ntag_47:\n  pop\n  pop\n  pop\n  dup2\n  shl\n  add\n  0x00\n  sstore\n  jump(tag_19)\ntag_46:\n  add\n  mload\n  not(0x00)\n  0xf8\n  dup5\n  0x03\n  shl\n  and\n  shr\n  not\n  and\n  swap1\n  sstore\n  0x00\n  dup1\n  dup1\n  jump(tag_47)\ntag_44:\n  swap2\n  swap3\n  0x20\n  0x01\n  dup2\n  swap3\n  dup7\n  dup6\n  add\n  mload\n  dup2\n  sstore\n  add\n  swap5\n  add\n  swap3\n  add\n  jump(tag_43)\ntag_13:\n  0x00\n  dup1\n  mstore\n  0x290decd9548b62a8d60345a988386fc84ba6bc95484008f6362f93160ef3e563\n  0x1f\n  dup4\n  add\n  0x05\n  shr\n  dup2\n  add\n  swap2\n  0x20\n  dup5\n  lt\n  tag_48\n  jumpi\ntag_49:\n  0x1f\n  add\n  0x05\n  shr\n  add\n  swap1\ntag_50:\n  dup2\n  dup2\n  lt\n  tag_51\n  jumpi\n  pop\n  jump(tag_14)\ntag_51:\n  0x00\n  dup2\n  sstore\n  0x01\n  add\n  jump(tag_50)\ntag_48:\n  swap1\n  swap2\n  pop\n  dup2\n  swap1\n  jump(tag_49)\ntag_9:\n  swap1\n  0x7f\n  and\n  swap1\n  jump(tag_10)\ntag_1:\n  0x00\n  dup1\n  revert\nstop\n\nsub_0: assembly {\n        /* \"StarForgeUnitNFT.sol\":305:5442  contract StarForgeUnitNFT is ERC721, Ownable {... */\n      0x80\n      dup1\n      0x40\n      mstore\n      jumpi(tag_27, iszero(lt(calldatasize, 0x04)))\n      0x00\n      dup1\n      revert\n    tag_27:\n      shr(0xe0, calldataload(0x00))\n      swap1\n      dup2\n      0x01ffc9a7\n      eq\n      tag_29\n      jumpi\n      pop\n      dup1\n      0x06fdde03\n      eq\n      tag_31\n      jumpi\n      dup1\n      0x081812fc\n      eq\n      tag_33\n      jumpi\n      dup1\n      0x095ea7b3\n      eq\n      tag_35\n      jumpi\n        /* \"StarForgeUnitNFT.sol\":5255:5298  revert(\"Soulbound: approvals are disabled\") */\n      dup1\n        /* \"StarForgeUnitNFT.sol\":305:5442  contract StarForgeUnitNFT is ERC721, Ownable {... */\n      0x1655bfbe\n        /* \"StarForgeUnitNFT.sol\":5255:5298  revert(\"Soulbound: approvals are disabled\") */\n      eq\n      tag_37\n      jumpi\n        /* \"StarForgeUnitNFT.sol\":305:5442  contract StarForgeUnitNFT is ERC721, Ownable {... */\n      dup1\n      0x18160ddd\n      eq\n      tag_39\n      jumpi\n      dup1\n      0x23b872dd\n      eq\n      tag_45\n      jumpi\n      dup1\n      0x405ebd4d\n      eq\n      tag_43\n      jumpi\n      dup1\n      0x42842e0e\n      eq\n      tag_45\n      jumpi\n      dup1\n      0x6352211e\n      eq\n      tag_47\n      jumpi\n      dup1\n      0x70a08231\n      eq\n      tag_49\n      jumpi\n      dup1\n      0x715018a6\n      eq\n      tag_51\n      jumpi\n      dup1\n      0x71dec088\n      eq\n      tag_53\n      jumpi\n        /* \"StarForgeUnitNFT.sol\":1625:1815  Unit({... */\n      dup1\n        /* \"StarForgeUnitNFT.sol\":305:5442  contract StarForgeUnitNFT is ERC721, Ownable {... */\n      0x7f84a5a3\n        /* \"StarForgeUnitNFT.sol\":1625:1815  Unit({... */\n      eq\n      tag_55\n      jumpi\n        /* \"StarForgeUnitNFT.sol\":305:5442  contract StarForgeUnitNFT is ERC721, Ownable {... */\n      dup1\n      0x8da5cb5b\n      eq\n      tag_57\n      jumpi\n      dup1\n      0x95d89b41\n      eq\n      tag_59\n      jumpi\n      dup1\n      0xa22cb465\n      eq\n      tag_61\n      jumpi\n        /* \"StarForgeUnitNFT.sol\":5255:5298  revert(\"Soulbound: approvals are disabled\") */\n      dup1\n        /* \"StarForgeUnitNFT.sol\":305:5442  contract StarForgeUnitNFT is ERC721, Ownable {... */\n      0xb88d4fde\n        /* \"StarForgeUnitNFT.sol\":5255:5298  revert(\"Soulbound: approvals are disabled\") */\n      eq\n      tag_63\n      jumpi\n        /* \"StarForgeUnitNFT.sol\":305:5442  contract StarForgeUnitNFT is ERC721, Ownable {... */\n      dup1\n      0xc87b56dd\n      eq\n      tag_65\n      jumpi\n      dup1\n      0xd3f33009\n      eq\n      tag_67\n      jumpi\n      dup1\n      0xe5fba6cc\n      eq\n      tag_69\n      jumpi\n      dup1\n      0xe985e9c5\n      eq\n      tag_71\n      jumpi\n      0xf2fde38b\n      eq\n      tag_73\n      jumpi\n      0x00\n      dup1\n      revert\n    tag_73:\n      jumpi(tag_77, callvalue)\n      jumpi(tag_77, slt(add(not(0x03), calldatasize), 0x20))\n      tag_79\n      tag_2\n      jump\t// in\n    tag_79:\n        /* \"@openzeppelin/contracts@4.9.3/access/Ownable.sol\":1063:1125  modifier onlyOwner() {... */\n      tag_80\n      tag_15\n      jump\t// in\n    tag_80:\n      sub(shl(0xa0, 0x01), 0x01)\n        /* \"StarForgeUnitNFT.sol\":305:5442  contract StarForgeUnitNFT is ERC721, Ownable {... */\n      and\n        /* \"@openzeppelin/contracts@4.9.3/access/Ownable.sol\":2162:2184  newOwner != address(0) */\n      dup1\n      iszero\n        /* \"StarForgeUnitNFT.sol\":305:5442  contract StarForgeUnitNFT is ERC721, Ownable {... */\n      tag_81\n      jumpi\n        /* \"@openzeppelin/contracts@4.9.3/access/Ownable.sol\":2518:2524  _owner */\n      0x06\n        /* \"StarForgeUnitNFT.sol\":305:5442  contract StarForgeUnitNFT is ERC721, Ownable {... */\n      dup1\n      sload\n      not(sub(shl(0xa0, 0x01), 0x01))\n      dup2\n      and\n      dup4\n      or\n      swap1\n      swap2\n      sstore\n      sub(shl(0xa0, 0x01), 0x01)\n      and\n        /* \"@openzeppelin/contracts@4.9.3/access/Ownable.sol\":2566:2606  OwnershipTransferred(oldOwner, newOwner) */\n      0x8be0079c531659141344cd1fd0a4f28419497f9722a3daafe3b4186f6b6457e0\n      0x00\n      dup1\n      log3\n        /* \"StarForgeUnitNFT.sol\":305:5442  contract StarForgeUnitNFT is ERC721, Ownable {... */\n      stop\n    tag_81:\n      mload(0x40)\n      shl(0xe5, 0x461bcd)\n      dup2\n      mstore\n      0x20\n      0x04\n      dup3\n      add\n      mstore\n      0x26\n      0x24\n      dup3\n      add\n      mstore\n      0x4f776e61626c653a206e6577206f776e657220697320746865207a65726f2061\n      0x44\n      dup3\n      add\n      mstore\n      shl(0xd0, 0x646472657373)\n      0x64\n      dup3\n      add\n      mstore\n      0x84\n      swap1\n      revert\n    tag_77:\n      0x00\n      dup1\n      revert\n    tag_71:\n      jumpi(tag_77, callvalue)\n      jumpi(tag_77, slt(add(not(0x03), calldatasize), 0x40))\n      tag_87\n      tag_2\n      jump\t// in\n    tag_87:\n      tag_88\n      tag_3\n      jump\t// in\n    tag_88:\n      swap1\n      0x01\n      dup1\n      0xa0\n      shl\n      sub\n      and\n      0x00\n      mstore\n        /* \"@openzeppelin/contracts@4.9.3/token/ERC721/ERC721.sol\":4508:4526  _operatorApprovals */\n      0x05\n        /* \"StarForgeUnitNFT.sol\":305:5442  contract StarForgeUnitNFT is ERC721, Ownable {... */\n      0x20\n      mstore\n      keccak256(0x00, 0x40)\n        /* \"@openzeppelin/contracts@4.9.3/token/ERC721/ERC721.sol\":4508:4543  _operatorApprovals[owner][operator] */\n      swap1\n        /* \"StarForgeUnitNFT.sol\":305:5442  contract StarForgeUnitNFT is ERC721, Ownable {... */\n      0x01\n      dup1\n      0xa0\n      shl\n      sub\n      and\n      0x00\n      mstore\n      0x20\n      mstore\n      0x20\n      and(sload(keccak256(0x00, 0x40)), 0xff)\n      mload(0x40)\n      swap1\n      iszero\n      iszero\n      dup2\n      mstore\n      return\n    tag_69:\n      jumpi(tag_77, callvalue)\n      jumpi(tag_77, slt(add(not(0x03), calldatasize), 0x20))\n      mstore(0x00, calldataload(0x04))\n        /* \"StarForgeUnitNFT.sol\":769:806  mapping(uint256 => Unit) public units */\n      0x08\n        /* \"StarForgeUnitNFT.sol\":305:5442  contract StarForgeUnitNFT is ERC721, Ownable {... */\n      0x20\n      mstore\n      0xc0\n      sload(keccak256(0x00, 0x40))\n      0xff\n      dup1\n      dup3\n      and\n      swap2\n      dup2\n      dup2\n        /* \"StarForgeUnitNFT.sol\":769:806  mapping(uint256 => Unit) public units */\n      0x08\n        /* \"StarForgeUnitNFT.sol\":305:5442  contract StarForgeUnitNFT is ERC721, Ownable {... */\n      shr\n      and\n      mload(0x40)\n      swap4\n      tag_93\n      dup2\n      tag_4\n      jump\t// in\n    tag_93:\n      dup5\n      mstore\n      tag_94\n      dup2\n      tag_4\n      jump\t// in\n    tag_94:\n      0x20\n      dup5\n      add\n      mstore\n      tag_95\n      0x40\n      dup5\n      add\n      dup4\n      dup4\n      0x10\n      shr\n      and\n      tag_5\n      jump\t// in\n    tag_95:\n      dup2\n      dup2\n      0x18\n      shr\n      and\n      0x60\n      dup5\n      add\n      mstore\n      dup2\n      dup2\n      0x20\n      shr\n      and\n      0x80\n      dup5\n      add\n      mstore\n      0x28\n      shr\n      and\n      0xa0\n      dup3\n      add\n      mstore\n      return\n    tag_67:\n      jumpi(tag_77, callvalue)\n      jumpi(tag_77, slt(add(not(0x03), calldatasize), 0x00))\n        /* \"StarForgeUnitNFT.sol\":815:842  address public gameContract */\n      0x09\n        /* \"StarForgeUnitNFT.sol\":305:5442  contract StarForgeUnitNFT is ERC721, Ownable {... */\n      sload\n      mload(0x40)\n      sub(shl(0xa0, 0x01), 0x01)\n      swap1\n      swap2\n      and\n      dup2\n      mstore\n      0x20\n      swap1\n      return\n    tag_65:\n      jumpi(tag_77, callvalue)\n      jumpi(tag_77, slt(add(not(0x03), calldatasize), 0x20))\n      calldataload(0x04)\n      0x00\n      dup2\n      dup2\n      mstore\n        /* \"@openzeppelin/contracts@4.9.3/token/ERC721/ERC721.sol\":6794:6801  _owners */\n      0x02\n        /* \"StarForgeUnitNFT.sol\":305:5442  contract StarForgeUnitNFT is ERC721, Ownable {... */\n      0x20\n      mstore\n      0x40\n      swap1\n      keccak256\n      sload\n      sub(shl(0xa0, 0x01), 0x01)\n      and\n        /* \"StarForgeUnitNFT.sol\":2217:2248  _ownerOf(tokenId) != address(0) */\n      iszero\n        /* \"StarForgeUnitNFT.sol\":305:5442  contract StarForgeUnitNFT is ERC721, Ownable {... */\n      tag_104\n      jumpi\n      dup1\n      0x00\n      mstore\n        /* \"StarForgeUnitNFT.sol\":2311:2316  units */\n      0x08\n        /* \"StarForgeUnitNFT.sol\":305:5442  contract StarForgeUnitNFT is ERC721, Ownable {... */\n      0x20\n      mstore\n      keccak256(0x00, 0x40)\n      swap1\n      mload(0x40)\n      swap2\n      tag_106\n      dup4\n      tag_8\n      jump\t// in\n    tag_106:\n      sload\n      swap2\n      0xff\n      dup4\n      and\n      tag_107\n      dup2\n      tag_4\n      jump\t// in\n    tag_107:\n      dup2\n      mstore\n      0xff\n      dup4\n        /* \"StarForgeUnitNFT.sol\":2311:2316  units */\n      0x08\n        /* \"StarForgeUnitNFT.sol\":305:5442  contract StarForgeUnitNFT is ERC721, Ownable {... */\n      shr\n      and\n      swap3\n      0x20\n      dup3\n      add\n      swap4\n      tag_108\n      dup2\n      tag_4\n      jump\t// in\n    tag_108:\n      dup5\n      mstore\n      0x40\n      dup3\n      add\n      swap3\n      tag_109\n      0xff\n      dup4\n      0x10\n      shr\n      and\n      dup6\n      tag_11\n      jump\t// in\n    tag_109:\n      0x60\n      dup4\n      add\n      0xff\n      dup4\n      0x18\n      shr\n      and\n      dup2\n      mstore\n        /* \"StarForgeUnitNFT.sol\":2426:2444  tokenId.toString() */\n      tag_110\n        /* \"StarForgeUnitNFT.sol\":305:5442  contract StarForgeUnitNFT is ERC721, Ownable {... */\n      0x80\n      dup6\n      add\n      swap3\n      0xff\n      dup6\n      0x20\n      shr\n      and\n      dup5\n      mstore\n      0xff\n      0xa0\n      dup8\n      add\n      swap6\n      0x28\n      shr\n      and\n      dup6\n      mstore\n        /* \"StarForgeUnitNFT.sol\":2426:2444  tokenId.toString() */\n      tag_18\n      jump\t// in\n    tag_110:\n        /* \"StarForgeUnitNFT.sol\":305:5442  contract StarForgeUnitNFT is ERC721, Ownable {... */\n      swap5\n      dup1\n      mload\n      0x04\n      dup2\n      lt\n      iszero\n      tag_122\n      jumpi\n        /* \"StarForgeUnitNFT.sol\":2609:2635  _getClassName(u.unitClass) */\n      tag_113\n      swap1\n      tag_19\n      jump\t// in\n    tag_113:\n        /* \"StarForgeUnitNFT.sol\":305:5442  contract StarForgeUnitNFT is ERC721, Ownable {... */\n      swap7\n        /* \"StarForgeUnitNFT.sol\":2660:2686  _getFactionName(u.faction) */\n      tag_114\n        /* \"StarForgeUnitNFT.sol\":305:5442  contract StarForgeUnitNFT is ERC721, Ownable {... */\n      dup7\n      mload\n      tag_115\n      dup2\n      tag_4\n      jump\t// in\n    tag_115:\n        /* \"StarForgeUnitNFT.sol\":2660:2686  _getFactionName(u.faction) */\n      tag_20\n      jump\t// in\n    tag_114:\n        /* \"StarForgeUnitNFT.sol\":305:5442  contract StarForgeUnitNFT is ERC721, Ownable {... */\n      swap6\n        /* \"StarForgeUnitNFT.sol\":2920:2944  _getRarityName(u.rarity) */\n      tag_116\n        /* \"StarForgeUnitNFT.sol\":2832:2858  _getFactionName(u.faction) */\n      tag_117\n        /* \"StarForgeUnitNFT.sol\":2711:2735  _getRarityName(u.rarity) */\n      tag_118\n        /* \"StarForgeUnitNFT.sol\":305:5442  contract StarForgeUnitNFT is ERC721, Ownable {... */\n      dup5\n      mload\n      tag_119\n      dup2\n      tag_4\n      jump\t// in\n    tag_119:\n        /* \"StarForgeUnitNFT.sol\":2711:2735  _getRarityName(u.rarity) */\n      tag_21\n      jump\t// in\n    tag_118:\n        /* \"StarForgeUnitNFT.sol\":305:5442  contract StarForgeUnitNFT is ERC721, Ownable {... */\n      swap3\n      mload\n      tag_115\n      dup2\n      tag_4\n      jump\t// in\n        /* \"StarForgeUnitNFT.sol\":2832:2858  _getFactionName(u.faction) */\n    tag_117:\n        /* \"StarForgeUnitNFT.sol\":305:5442  contract StarForgeUnitNFT is ERC721, Ownable {... */\n      swap3\n      mload\n      tag_119\n      dup2\n      tag_4\n      jump\t// in\n        /* \"StarForgeUnitNFT.sol\":2920:2944  _getRarityName(u.rarity) */\n    tag_116:\n        /* \"StarForgeUnitNFT.sol\":305:5442  contract StarForgeUnitNFT is ERC721, Ownable {... */\n      swap3\n      mload\n      0x04\n      dup2\n      lt\n      iszero\n      tag_122\n      jumpi\n        /* \"StarForgeUnitNFT.sol\":3005:3031  _getClassName(u.unitClass) */\n      tag_124\n      swap1\n      tag_19\n      jump\t// in\n    tag_124:\n        /* \"StarForgeUnitNFT.sol\":305:5442  contract StarForgeUnitNFT is ERC721, Ownable {... */\n      swap4\n      mload\n      0xff\n      and\n        /* \"StarForgeUnitNFT.sol\":3092:3120  uint256(u.attack).toString() */\n      tag_125\n      swap1\n      tag_18\n      jump\t// in\n    tag_125:\n        /* \"StarForgeUnitNFT.sol\":305:5442  contract StarForgeUnitNFT is ERC721, Ownable {... */\n      swap5\n      mload\n      0xff\n      and\n        /* \"StarForgeUnitNFT.sol\":3181:3210  uint256(u.defense).toString() */\n      tag_126\n      swap1\n      tag_18\n      jump\t// in\n    tag_126:\n        /* \"StarForgeUnitNFT.sol\":305:5442  contract StarForgeUnitNFT is ERC721, Ownable {... */\n      swap6\n      mload\n      0xff\n      and\n        /* \"StarForgeUnitNFT.sol\":3269:3296  uint256(u.speed).toString() */\n      tag_127\n      swap1\n      tag_18\n      jump\t// in\n    tag_127:\n        /* \"StarForgeUnitNFT.sol\":305:5442  contract StarForgeUnitNFT is ERC721, Ownable {... */\n      swap7\n      mload(0x40)\n        /* \"StarForgeUnitNFT.sol\":2366:3331  abi.encodePacked(... */\n      swap10\n      dup11\n      swap10\n        /* \"StarForgeUnitNFT.sol\":305:5442  contract StarForgeUnitNFT is ERC721, Ownable {... */\n      0x20\n        /* \"StarForgeUnitNFT.sol\":2366:3331  abi.encodePacked(... */\n      dup12\n      add\n        /* \"StarForgeUnitNFT.sol\":305:5442  contract StarForgeUnitNFT is ERC721, Ownable {... */\n      0x7b226e616d65223a2253746172466f72676520556e6974202300000000000000\n      swap1\n      mstore\n      dup1\n      mload\n      0x20\n      dup2\n      swap3\n      add\n      0x39\n      dup14\n      add\n      mcopy\n      shl(0xf2, 0x088b)\n      0x39\n      swap2\n      dup13\n      add\n      swap2\n      dup3\n      add\n      mstore\n      0x226465736372697074696f6e223a224f6e2d636861696e20756e69742066726f\n      0x3b\n      dup3\n      add\n      mstore\n      0x6d20536f6d6e69612053746172466f726765202d204563686f206f6620447265\n      0x5b\n      dup3\n      add\n      mstore\n      shl(0xda, 0x185b5cc88b)\n      0x7b\n      dup3\n      add\n      mstore\n      0x22696d616765223a2268747470733a2f2f796f75722d63646e2e636f6d2f756e\n      0x80\n      dup3\n      add\n      mstore\n      shl(0xe0, 0x6974732f)\n      0xa0\n      dup3\n      add\n      mstore\n      dup2\n      mload\n      swap2\n      dup3\n      swap1\n      0x20\n      add\n      0xa4\n      dup4\n      add\n      mcopy\n      add\n      0x39\n      add\n      0x6b\n      dup2\n      add\n      shl(0xf8, 0x5f)\n      swap1\n      mstore\n      dup2\n      mload\n      0x20\n      dup2\n      swap4\n      add\n      0x6c\n      dup4\n      add\n      mcopy\n      add\n      0x6b\n      add\n      0x01\n      dup2\n      add\n      shl(0xf8, 0x5f)\n      swap1\n      mstore\n      dup2\n      mload\n      0x20\n      dup2\n      swap4\n      add\n        /* \"@openzeppelin/contracts@4.9.3/token/ERC721/ERC721.sol\":6794:6801  _owners */\n      0x02\n        /* \"StarForgeUnitNFT.sol\":305:5442  contract StarForgeUnitNFT is ERC721, Ownable {... */\n      dup4\n      add\n      mcopy\n      add\n      0x01\n      add\n      shl(0xd2, 0x0b9c1b99c88b)\n      0x01\n      dup3\n      add\n      mstore\n      shl(0x90, 0x2261747472696275746573223a5b)\n      0x07\n      dup3\n      add\n      mstore\n      0x15\n      dup2\n      add\n      0x7b2274726169745f74797065223a2246616374696f6e222c2276616c7565223a\n      swap1\n      mstore\n      shl(0xf9, 0x11)\n      0x35\n      dup3\n      add\n      mstore\n      dup2\n      mload\n      0x20\n      dup2\n      swap4\n      add\n      0x36\n      dup4\n      add\n      mcopy\n      add\n      0x01\n      add\n      shl(0xea, 0x089f4b)\n      0x35\n      dup3\n      add\n      mstore\n      0x38\n      dup2\n      add\n      0x7b2274726169745f74797065223a22526172697479222c2276616c7565223a22\n      swap1\n      mstore\n      dup2\n      mload\n      0x20\n      dup2\n      swap4\n      add\n      0x58\n      dup4\n      add\n      mcopy\n      add\n      0x35\n      add\n      shl(0xea, 0x089f4b)\n      0x23\n      dup3\n      add\n      mstore\n      0x26\n      dup2\n      add\n      0x7b2274726169745f74797065223a22436c617373222c2276616c7565223a2200\n      swap1\n      mstore\n      dup2\n      mload\n      0x20\n      dup2\n      swap4\n      add\n      0x45\n      dup4\n      add\n      mcopy\n      add\n      0x23\n      add\n      shl(0xea, 0x089f4b)\n      0x22\n      dup3\n      add\n      mstore\n      0x25\n      dup2\n      add\n      0x7b2274726169745f74797065223a2241747461636b222c2276616c7565223a00\n      swap1\n      mstore\n      dup2\n      mload\n      0x20\n      dup2\n      swap4\n      add\n      0x44\n      dup4\n      add\n      mcopy\n      add\n      0x22\n      add\n      0x22\n      dup2\n      add\n      shl(0xf2, 0x1f4b)\n      swap1\n      mstore\n      0x24\n      dup2\n      add\n      0x7b2274726169745f74797065223a22446566656e7365222c2276616c7565223a\n      swap1\n      mstore\n      dup2\n      mload\n      0x20\n      dup2\n      swap4\n      add\n      0x44\n      dup4\n      add\n      mcopy\n      add\n      0x22\n      add\n      0x22\n      dup2\n      add\n      shl(0xf2, 0x1f4b)\n      swap1\n      mstore\n      0x24\n      dup2\n      add\n      0x7b2274726169745f74797065223a225370656564222c2276616c7565223a0000\n      swap1\n      mstore\n      dup2\n      mload\n      0x20\n      dup2\n      swap4\n      add\n      0x42\n      dup4\n      add\n      mcopy\n      add\n      0x22\n      add\n      0x20\n      dup2\n      add\n      shl(0xf8, 0x7d)\n      swap1\n      mstore\n      0x21\n      dup2\n      add\n      shl(0xf0, 0x5d7d)\n      swap1\n      mstore\n        /* \"StarForgeUnitNFT.sol\":2366:3331  abi.encodePacked(... */\n      sub\n        /* \"StarForgeUnitNFT.sol\":305:5442  contract StarForgeUnitNFT is ERC721, Ownable {... */\n      0x20\n        /* \"StarForgeUnitNFT.sol\":2366:3331  abi.encodePacked(... */\n      add\n      not(0x1c)\n      dup2\n      add\n      dup3\n      mstore\n        /* \"StarForgeUnitNFT.sol\":305:5442  contract StarForgeUnitNFT is ERC721, Ownable {... */\n      0x03\n        /* \"StarForgeUnitNFT.sol\":2366:3331  abi.encodePacked(... */\n      add\n      tag_128\n      swap1\n      dup3\n      tag_9\n      jump\t// in\n    tag_128:\n        /* \"StarForgeUnitNFT.sol\":3409:3435  Base64.encode(bytes(json)) */\n      tag_129\n      swap1\n      tag_22\n      jump\t// in\n    tag_129:\n        /* \"StarForgeUnitNFT.sol\":305:5442  contract StarForgeUnitNFT is ERC721, Ownable {... */\n      mload(0x40)\n        /* \"StarForgeUnitNFT.sol\":3359:3436  abi.encodePacked(\"data:application/json;base64,\", Base64.encode(bytes(json))) */\n      dup1\n      swap2\n        /* \"StarForgeUnitNFT.sol\":305:5442  contract StarForgeUnitNFT is ERC721, Ownable {... */\n      0x20\n        /* \"StarForgeUnitNFT.sol\":3359:3436  abi.encodePacked(\"data:application/json;base64,\", Base64.encode(bytes(json))) */\n      dup3\n      add\n        /* \"StarForgeUnitNFT.sol\":305:5442  contract StarForgeUnitNFT is ERC721, Ownable {... */\n      0x646174613a6170706c69636174696f6e2f6a736f6e3b6261736536342c000000\n      swap1\n      mstore\n      dup1\n      mload\n      0x20\n      dup2\n      swap3\n      add\n      0x3d\n      dup5\n      add\n      mcopy\n      dup2\n      add\n      0x3d\n      dup2\n      add\n      0x00\n      swap1\n      mstore\n        /* \"StarForgeUnitNFT.sol\":3359:3436  abi.encodePacked(\"data:application/json;base64,\", Base64.encode(bytes(json))) */\n      sub\n        /* \"StarForgeUnitNFT.sol\":305:5442  contract StarForgeUnitNFT is ERC721, Ownable {... */\n      0x3d\n        /* \"StarForgeUnitNFT.sol\":3359:3436  abi.encodePacked(\"data:application/json;base64,\", Base64.encode(bytes(json))) */\n      add\n        /* \"StarForgeUnitNFT.sol\":2366:3331  abi.encodePacked(... */\n      not(0x1f)\n        /* \"StarForgeUnitNFT.sol\":3359:3436  abi.encodePacked(\"data:application/json;base64,\", Base64.encode(bytes(json))) */\n      dup2\n      add\n      dup3\n      mstore\n      tag_130\n      swap1\n      dup3\n      tag_9\n      jump\t// in\n    tag_130:\n        /* \"StarForgeUnitNFT.sol\":305:5442  contract StarForgeUnitNFT is ERC721, Ownable {... */\n      mload(0x40)\n      dup1\n      swap2\n      0x20\n      dup3\n      mstore\n      0x20\n      dup3\n      add\n      tag_131\n      swap2\n      tag_1\n      jump\t// in\n    tag_131:\n      sub\n      swap1\n      return\n    tag_122:\n      mstore(0x00, shl(0xe0, 0x4e487b71))\n      mstore(0x04, 0x21)\n      revert(0x00, 0x24)\n    tag_104:\n      mload(0x40)\n      shl(0xe5, 0x461bcd)\n      dup2\n      mstore\n      0x20\n      0x04\n      dup3\n      add\n      mstore\n      0x1f\n      0x24\n      dup3\n      add\n      mstore\n      0x55524920717565727920666f72206e6f6e6578697374656e7420746f6b656e00\n      0x44\n      dup3\n      add\n      mstore\n      0x64\n      swap1\n      revert\n    tag_63:\n      jumpi(tag_77, callvalue)\n      jumpi(tag_77, slt(add(not(0x03), calldatasize), 0x80))\n      tag_136\n      tag_2\n      jump\t// in\n    tag_136:\n      pop\n      tag_137\n      tag_3\n      jump\t// in\n    tag_137:\n      pop\n      calldataload(0x64)\n      0xffffffffffffffff\n      dup2\n      gt\n      tag_77\n      jumpi\n      calldatasize\n      0x23\n      dup3\n      add\n      slt\n      iszero\n      tag_77\n      jumpi\n      dup1\n      0x04\n      add\n      calldataload\n      swap1\n      tag_142\n      dup3\n      tag_10\n      jump\t// in\n    tag_142:\n      swap2\n      tag_143\n      mload(0x40)\n      swap4\n      dup5\n      tag_9\n      jump\t// in\n    tag_143:\n      dup1\n      dup4\n      mstore\n      calldatasize\n      0x24\n      dup3\n      dup5\n      add\n      add\n      gt\n      tag_77\n      jumpi\n      0x00\n      swap3\n      dup2\n      0x24\n      0x20\n      swap5\n      add\n      dup5\n      dup4\n      add\n      calldatacopy\n      add\n      add\n      mstore\n      tag_12\n      jump\t// in\n    tag_61:\n      jumpi(tag_77, callvalue)\n      jumpi(tag_77, slt(add(not(0x03), calldatasize), 0x40))\n      tag_150\n      tag_2\n      jump\t// in\n    tag_150:\n      pop\n      calldataload(0x24)\n      dup1\n      iszero\n      iszero\n      sub\n      tag_77\n      jumpi\n      mload(0x40)\n      shl(0xe5, 0x461bcd)\n        /* \"StarForgeUnitNFT.sol\":5255:5298  revert(\"Soulbound: approvals are disabled\") */\n      dup2\n      mstore\n        /* \"StarForgeUnitNFT.sol\":305:5442  contract StarForgeUnitNFT is ERC721, Ownable {... */\n      0x20\n      0x04\n        /* \"StarForgeUnitNFT.sol\":5255:5298  revert(\"Soulbound: approvals are disabled\") */\n      dup3\n      add\n        /* \"StarForgeUnitNFT.sol\":305:5442  contract StarForgeUnitNFT is ERC721, Ownable {... */\n      mstore\n      0x21\n      0x24\n      dup3\n      add\n      mstore\n      0x536f756c626f756e643a20617070726f76616c73206172652064697361626c65\n      0x44\n      dup3\n      add\n      mstore\n      shl(0xfa, 0x19)\n      0x64\n      dup3\n      add\n      mstore\n        /* \"StarForgeUnitNFT.sol\":5255:5298  revert(\"Soulbound: approvals are disabled\") */\n      0x84\n      swap1\n      revert\n        /* \"StarForgeUnitNFT.sol\":305:5442  contract StarForgeUnitNFT is ERC721, Ownable {... */\n    tag_59:\n      jumpi(tag_77, callvalue)\n      jumpi(tag_77, slt(add(not(0x03), calldatasize), 0x00))\n      mload(0x40)\n      0x00\n        /* \"@openzeppelin/contracts@4.9.3/token/ERC721/ERC721.sol\":2721:2728  _symbol */\n      0x01\n        /* \"StarForgeUnitNFT.sol\":305:5442  contract StarForgeUnitNFT is ERC721, Ownable {... */\n      sload\n      dup1\n        /* \"@openzeppelin/contracts@4.9.3/token/ERC721/ERC721.sol\":2721:2728  _symbol */\n      0x01\n        /* \"StarForgeUnitNFT.sol\":305:5442  contract StarForgeUnitNFT is ERC721, Ownable {... */\n      shr\n      swap1\n        /* \"@openzeppelin/contracts@4.9.3/token/ERC721/ERC721.sol\":2721:2728  _symbol */\n      0x01\n        /* \"StarForgeUnitNFT.sol\":305:5442  contract StarForgeUnitNFT is ERC721, Ownable {... */\n      dup2\n      and\n      dup1\n      iszero\n      tag_157\n      jumpi\n    tag_158:\n      0x20\n      dup4\n      lt\n      dup2\n      eq\n      tag_159\n      jumpi\n      dup3\n      dup6\n      mstore\n      swap1\n      dup2\n      iszero\n      tag_161\n      jumpi\n      pop\n      0x01\n      eq\n      tag_163\n      jumpi\n    tag_164:\n      tag_131\n      dup4\n      tag_166\n      dup2\n      dup6\n      sub\n      dup3\n      tag_9\n      jump\t// in\n    tag_166:\n      mload(0x40)\n      swap2\n      dup3\n      swap2\n      0x20\n      dup4\n      mstore\n      0x20\n      dup4\n      add\n      swap1\n      tag_1\n      jump\t// in\n    tag_163:\n      swap2\n      swap1\n      pop\n        /* \"@openzeppelin/contracts@4.9.3/token/ERC721/ERC721.sol\":2721:2728  _symbol */\n      0x01\n        /* \"StarForgeUnitNFT.sol\":305:5442  contract StarForgeUnitNFT is ERC721, Ownable {... */\n      0x00\n      mstore\n      0xb10e2d527612073b26eecdfd717e6a320cf44b4afac2b0732d9fcbe2b7fa0cf6\n      swap2\n      0x00\n      swap1\n    tag_167:\n      dup1\n      dup3\n      lt\n      tag_168\n      jumpi\n      pop\n      swap1\n      swap2\n      pop\n      dup2\n      add\n      0x20\n      add\n      tag_166\n      jump(tag_164)\n    tag_168:\n      swap2\n      swap3\n        /* \"@openzeppelin/contracts@4.9.3/token/ERC721/ERC721.sol\":2721:2728  _symbol */\n      0x01\n        /* \"StarForgeUnitNFT.sol\":305:5442  contract StarForgeUnitNFT is ERC721, Ownable {... */\n      dup2\n      0x20\n      swap3\n      sload\n      dup4\n      dup6\n      dup9\n      add\n      add\n      mstore\n      add\n      swap2\n      add\n      swap1\n      swap3\n      swap2\n      jump(tag_167)\n    tag_161:\n      not(0xff)\n      and\n      0x20\n      dup1\n      dup7\n      add\n      swap2\n      swap1\n      swap2\n      mstore\n      swap2\n      iszero\n      iszero\n      0x05\n      shl\n      dup5\n      add\n      swap1\n      swap2\n      add\n      swap2\n      pop\n      tag_166\n      swap1\n      pop\n      jump(tag_164)\n    tag_159:\n      mstore(0x00, shl(0xe0, 0x4e487b71))\n      mstore(0x04, 0x22)\n      revert(0x00, 0x24)\n    tag_157:\n      swap2\n      0x7f\n      and\n      swap2\n      jump(tag_158)\n    tag_57:\n      jumpi(tag_77, callvalue)\n      jumpi(tag_77, slt(add(not(0x03), calldatasize), 0x00))\n        /* \"@openzeppelin/contracts@4.9.3/access/Ownable.sol\":1273:1279  _owner */\n      0x06\n        /* \"StarForgeUnitNFT.sol\":305:5442  contract StarForgeUnitNFT is ERC721, Ownable {... */\n      sload\n      mload(0x40)\n      sub(shl(0xa0, 0x01), 0x01)\n      swap1\n      swap2\n      and\n      dup2\n      mstore\n      0x20\n      swap1\n      return\n    tag_55:\n      jumpi(tag_77, callvalue)\n      tag_176\n      calldatasize\n      tag_7\n      jump\t// in\n    tag_176:\n        /* \"@openzeppelin/contracts@4.9.3/access/Ownable.sol\":1063:1125  modifier onlyOwner() {... */\n      swap4\n      swap1\n      swap3\n      swap5\n      swap6\n      tag_177\n      tag_15\n      jump\t// in\n    tag_177:\n        /* \"StarForgeUnitNFT.sol\":4566:4573  tokenId */\n      tag_178\n        /* \"StarForgeUnitNFT.sol\":4527:4541  _nextTokenId++ */\n      0x07\n        /* \"StarForgeUnitNFT.sol\":305:5442  contract StarForgeUnitNFT is ERC721, Ownable {... */\n      sload\n        /* \"StarForgeUnitNFT.sol\":4527:4541  _nextTokenId++ */\n      dup1\n      swap3\n      tag_179\n      dup3\n      tag_14\n      jump\t// in\n    tag_179:\n      0x07\n        /* \"StarForgeUnitNFT.sol\":305:5442  contract StarForgeUnitNFT is ERC721, Ownable {... */\n      sstore\n        /* \"StarForgeUnitNFT.sol\":4566:4573  tokenId */\n      tag_16\n      jump\t// in\n    tag_178:\n        /* \"StarForgeUnitNFT.sol\":305:5442  contract StarForgeUnitNFT is ERC721, Ownable {... */\n      mload(0x40)\n      swap7\n      tag_180\n      dup9\n      tag_8\n      jump\t// in\n    tag_180:\n      tag_181\n      dup2\n      tag_4\n      jump\t// in\n    tag_181:\n      dup8\n      mstore\n        /* \"StarForgeUnitNFT.sol\":4602:4649  Unit(faction, rarity, unitClass, atk, def, spd) */\n      0x20\n      dup8\n      add\n        /* \"StarForgeUnitNFT.sol\":305:5442  contract StarForgeUnitNFT is ERC721, Ownable {... */\n      swap2\n      tag_182\n      dup2\n      tag_4\n      jump\t// in\n    tag_182:\n      dup3\n      mstore\n        /* \"StarForgeUnitNFT.sol\":4602:4649  Unit(faction, rarity, unitClass, atk, def, spd) */\n      tag_183\n        /* \"StarForgeUnitNFT.sol\":305:5442  contract StarForgeUnitNFT is ERC721, Ownable {... */\n      0x40\n        /* \"StarForgeUnitNFT.sol\":4602:4649  Unit(faction, rarity, unitClass, atk, def, spd) */\n      dup9\n      add\n      swap7\n      dup8\n      tag_11\n      jump\t// in\n    tag_183:\n        /* \"StarForgeUnitNFT.sol\":305:5442  contract StarForgeUnitNFT is ERC721, Ownable {... */\n      0xff\n        /* \"StarForgeUnitNFT.sol\":4602:4649  Unit(faction, rarity, unitClass, atk, def, spd) */\n      0x60\n      dup9\n      add\n        /* \"StarForgeUnitNFT.sol\":305:5442  contract StarForgeUnitNFT is ERC721, Ownable {... */\n      swap4\n      and\n      dup4\n      mstore\n      0xff\n        /* \"StarForgeUnitNFT.sol\":4602:4649  Unit(faction, rarity, unitClass, atk, def, spd) */\n      0x80\n      dup9\n      add\n        /* \"StarForgeUnitNFT.sol\":305:5442  contract StarForgeUnitNFT is ERC721, Ownable {... */\n      swap5\n      and\n      dup5\n      mstore\n      0xff\n        /* \"StarForgeUnitNFT.sol\":4602:4649  Unit(faction, rarity, unitClass, atk, def, spd) */\n      0xa0\n      dup9\n      add\n        /* \"StarForgeUnitNFT.sol\":305:5442  contract StarForgeUnitNFT is ERC721, Ownable {... */\n      swap6\n      and\n      dup6\n      mstore\n      0x00\n      mstore\n        /* \"StarForgeUnitNFT.sol\":4585:4590  units */\n      0x08\n        /* \"StarForgeUnitNFT.sol\":4602:4649  Unit(faction, rarity, unitClass, atk, def, spd) */\n      0x20\n        /* \"StarForgeUnitNFT.sol\":305:5442  contract StarForgeUnitNFT is ERC721, Ownable {... */\n      mstore\n      keccak256(0x00, 0x40)\n      swap6\n      mload\n      swap2\n      tag_184\n      dup4\n      tag_4\n      jump\t// in\n    tag_184:\n      tag_185\n      dup4\n      tag_4\n      jump\t// in\n    tag_185:\n      dup7\n      sload\n      swap2\n      mload\n      swap6\n      tag_186\n      dup8\n      tag_4\n      jump\t// in\n    tag_186:\n      tag_187\n      dup8\n      tag_4\n      jump\t// in\n    tag_187:\n      mload\n      swap2\n      0x04\n      dup4\n      lt\n      iszero\n      tag_122\n      jumpi\n      shl(0x28, 0xff)\n      0xff00000000\n      0xff000000\n      0xff0000\n      swap5\n      mload\n      0x18\n      shl\n      and\n      swap7\n      mload\n        /* \"StarForgeUnitNFT.sol\":4602:4649  Unit(faction, rarity, unitClass, atk, def, spd) */\n      0x20\n        /* \"StarForgeUnitNFT.sol\":305:5442  contract StarForgeUnitNFT is ERC721, Ownable {... */\n      shl\n      and\n      swap7\n      mload\n      0x28\n      shl\n      and\n      swap7\n      0xff00\n      not(shl(0x28, 0xff))\n      swap6\n      not(0xff00000000)\n      swap4\n      0xff\n      not(0xff000000)\n      swap3\n      and\n      swap1\n      not(0xffffff)\n      and\n      or\n      and\n      swap2\n        /* \"StarForgeUnitNFT.sol\":4585:4590  units */\n      0x08\n        /* \"StarForgeUnitNFT.sol\":305:5442  contract StarForgeUnitNFT is ERC721, Ownable {... */\n      shl\n      and\n      or\n      and\n      swap2\n      0x10\n      shl\n      and\n      or\n      and\n      or\n      or\n      or\n      swap1\n      sstore\n      0x00\n      dup1\n      return\n    tag_53:\n      jumpi(tag_77, callvalue)\n      tag_192\n      calldatasize\n      tag_7\n      jump\t// in\n    tag_192:\n        /* \"StarForgeUnitNFT.sol\":1019:1031  gameContract */\n      0x09\n        /* \"StarForgeUnitNFT.sol\":305:5442  contract StarForgeUnitNFT is ERC721, Ownable {... */\n      sload\n      swap1\n      swap7\n      swap5\n      swap6\n      swap2\n      swap5\n      swap3\n      swap4\n      swap1\n      sub(shl(0xa0, 0x01), 0x01)\n      and\n        /* \"StarForgeUnitNFT.sol\":1005:1015  msg.sender */\n      caller\n        /* \"StarForgeUnitNFT.sol\":1005:1031  msg.sender == gameContract */\n      sub\n        /* \"StarForgeUnitNFT.sol\":305:5442  contract StarForgeUnitNFT is ERC721, Ownable {... */\n      tag_193\n      jumpi\n        /* \"StarForgeUnitNFT.sol\":1548:1562  _nextTokenId++ */\n      0x07\n        /* \"StarForgeUnitNFT.sol\":305:5442  contract StarForgeUnitNFT is ERC721, Ownable {... */\n      sload\n        /* \"StarForgeUnitNFT.sol\":1548:1562  _nextTokenId++ */\n      swap6\n      tag_195\n      dup8\n      tag_14\n      jump\t// in\n    tag_195:\n      0x07\n        /* \"StarForgeUnitNFT.sol\":305:5442  contract StarForgeUnitNFT is ERC721, Ownable {... */\n      sstore\n        /* \"StarForgeUnitNFT.sol\":1587:1594  tokenId */\n      tag_196\n      dup8\n      dup6\n      tag_16\n      jump\t// in\n    tag_196:\n        /* \"StarForgeUnitNFT.sol\":305:5442  contract StarForgeUnitNFT is ERC721, Ownable {... */\n      mload(0x40)\n      swap3\n      tag_197\n      dup5\n      tag_8\n      jump\t// in\n    tag_197:\n      tag_198\n      dup2\n      tag_4\n      jump\t// in\n    tag_198:\n      dup1\n      dup5\n      mstore\n        /* \"StarForgeUnitNFT.sol\":1625:1815  Unit({... */\n      0x20\n      dup5\n      add\n        /* \"StarForgeUnitNFT.sol\":305:5442  contract StarForgeUnitNFT is ERC721, Ownable {... */\n      swap4\n      tag_199\n      dup4\n      tag_4\n      jump\t// in\n    tag_199:\n      dup3\n      dup6\n      mstore\n      0x40\n        /* \"StarForgeUnitNFT.sol\":1625:1815  Unit({... */\n      dup2\n      add\n      tag_200\n      dup6\n      dup3\n      tag_11\n      jump\t// in\n    tag_200:\n        /* \"StarForgeUnitNFT.sol\":305:5442  contract StarForgeUnitNFT is ERC721, Ownable {... */\n      0xff\n        /* \"StarForgeUnitNFT.sol\":1625:1815  Unit({... */\n      0x60\n      dup4\n      add\n        /* \"StarForgeUnitNFT.sol\":305:5442  contract StarForgeUnitNFT is ERC721, Ownable {... */\n      swap9\n      and\n      dup9\n      mstore\n      0xff\n        /* \"StarForgeUnitNFT.sol\":1625:1815  Unit({... */\n      0x80\n      dup4\n      add\n        /* \"StarForgeUnitNFT.sol\":305:5442  contract StarForgeUnitNFT is ERC721, Ownable {... */\n      swap10\n      and\n      dup10\n      mstore\n      0xff\n        /* \"StarForgeUnitNFT.sol\":1625:1815  Unit({... */\n      0xa0\n      dup4\n      add\n        /* \"StarForgeUnitNFT.sol\":305:5442  contract StarForgeUnitNFT is ERC721, Ownable {... */\n      swap12\n      and\n      dup12\n      mstore\n      dup10\n      0x00\n      mstore\n        /* \"StarForgeUnitNFT.sol\":1608:1613  units */\n      0x08\n        /* \"StarForgeUnitNFT.sol\":1625:1815  Unit({... */\n      0x20\n        /* \"StarForgeUnitNFT.sol\":305:5442  contract StarForgeUnitNFT is ERC721, Ownable {... */\n      mstore\n      keccak256(0x00, 0x40)\n      swap2\n      mload\n      swap11\n      tag_201\n      dup13\n      tag_4\n      jump\t// in\n    tag_201:\n      tag_202\n      dup13\n      tag_4\n      jump\t// in\n    tag_202:\n      dup3\n      sload\n      swap7\n      mload\n      swap2\n      tag_203\n      dup4\n      tag_4\n      jump\t// in\n    tag_203:\n      tag_204\n      dup4\n      tag_4\n      jump\t// in\n    tag_204:\n      mload\n      swap10\n      0x04\n      dup12\n      lt\n      iszero\n      tag_122\n      jumpi\n        /* \"StarForgeUnitNFT.sol\":1625:1815  Unit({... */\n      0x20\n        /* \"StarForgeUnitNFT.sol\":305:5442  contract StarForgeUnitNFT is ERC721, Ownable {... */\n      swap13\n        /* \"StarForgeUnitNFT.sol\":1833:1884  UnitMinted(to, tokenId, faction, rarity, unitClass) */\n      0xb982bc3626c07206fe59e1efec7a6f7dab33900852303a596c52f6ad1c86aa80\n        /* \"StarForgeUnitNFT.sol\":305:5442  contract StarForgeUnitNFT is ERC721, Ownable {... */\n      swap12\n      0xff0000\n      tag_207\n      swap11\n      shl(0x28, 0xff)\n      0xff00000000\n        /* \"StarForgeUnitNFT.sol\":1625:1815  Unit({... */\n      0xa0\n        /* \"StarForgeUnitNFT.sol\":305:5442  contract StarForgeUnitNFT is ERC721, Ownable {... */\n      swap16\n      0xff000000\n      swap1\n      mload\n      0x18\n      shl\n      and\n      swap7\n      mload\n        /* \"StarForgeUnitNFT.sol\":1625:1815  Unit({... */\n      0x20\n        /* \"StarForgeUnitNFT.sol\":305:5442  contract StarForgeUnitNFT is ERC721, Ownable {... */\n      shl\n      and\n      swap7\n      mload\n      0x28\n      shl\n      and\n      swap7\n      0xff00\n      not(shl(0x28, 0xff))\n      swap6\n      not(0xff00000000)\n      swap4\n      0xff\n      not(0xff000000)\n      swap3\n      and\n      swap1\n      not(0xffffff)\n      and\n      or\n      and\n      swap2\n        /* \"StarForgeUnitNFT.sol\":1608:1613  units */\n      0x08\n        /* \"StarForgeUnitNFT.sol\":305:5442  contract StarForgeUnitNFT is ERC721, Ownable {... */\n      shl\n      and\n      or\n      and\n      swap2\n      0x10\n      shl\n      and\n      or\n      and\n      or\n      or\n      or\n      swap1\n      sstore\n      mload(0x40)\n      swap5\n      0x01\n      dup1\n      dup9\n      shl\n      sub\n      and\n      dup6\n      mstore\n      dup8\n      dup10\n      dup7\n      add\n      mstore\n      tag_208\n      dup2\n      tag_4\n      jump\t// in\n    tag_208:\n      0x40\n      dup6\n      add\n      mstore\n      tag_209\n      dup2\n      tag_4\n      jump\t// in\n    tag_209:\n        /* \"StarForgeUnitNFT.sol\":1625:1815  Unit({... */\n      0x60\n        /* \"StarForgeUnitNFT.sol\":305:5442  contract StarForgeUnitNFT is ERC721, Ownable {... */\n      dup5\n      add\n      mstore\n        /* \"StarForgeUnitNFT.sol\":1625:1815  Unit({... */\n      0x80\n        /* \"StarForgeUnitNFT.sol\":305:5442  contract StarForgeUnitNFT is ERC721, Ownable {... */\n      dup4\n      add\n      swap1\n      tag_5\n      jump\t// in\n    tag_207:\n        /* \"StarForgeUnitNFT.sol\":1833:1884  UnitMinted(to, tokenId, faction, rarity, unitClass) */\n      log1\n        /* \"StarForgeUnitNFT.sol\":305:5442  contract StarForgeUnitNFT is ERC721, Ownable {... */\n      mload(0x40)\n      swap1\n      dup2\n      mstore\n      return\n    tag_193:\n      mload(0x40)\n      shl(0xe5, 0x461bcd)\n      dup2\n      mstore\n      0x20\n      0x04\n      dup3\n      add\n      mstore\n      0x1b\n      0x24\n      dup3\n      add\n      mstore\n      0x4f6e6c792047616d6520636f6e74726163742063616e206d696e740000000000\n      0x44\n      dup3\n      add\n      mstore\n      0x64\n      swap1\n      revert\n    tag_51:\n      jumpi(tag_77, callvalue)\n      jumpi(tag_77, slt(add(not(0x03), calldatasize), 0x00))\n        /* \"@openzeppelin/contracts@4.9.3/access/Ownable.sol\":1063:1125  modifier onlyOwner() {... */\n      tag_214\n      tag_15\n      jump\t// in\n    tag_214:\n        /* \"@openzeppelin/contracts@4.9.3/access/Ownable.sol\":2518:2524  _owner */\n      0x06\n        /* \"StarForgeUnitNFT.sol\":305:5442  contract StarForgeUnitNFT is ERC721, Ownable {... */\n      dup1\n      sload\n      not(sub(shl(0xa0, 0x01), 0x01))\n      dup2\n      and\n      swap1\n      swap2\n      sstore\n      0x00\n      swap1\n      sub(shl(0xa0, 0x01), 0x01)\n      and\n        /* \"@openzeppelin/contracts@4.9.3/access/Ownable.sol\":2566:2606  OwnershipTransferred(oldOwner, newOwner) */\n      0x8be0079c531659141344cd1fd0a4f28419497f9722a3daafe3b4186f6b6457e0\n        /* \"StarForgeUnitNFT.sol\":305:5442  contract StarForgeUnitNFT is ERC721, Ownable {... */\n      dup3\n      dup1\n        /* \"@openzeppelin/contracts@4.9.3/access/Ownable.sol\":2566:2606  OwnershipTransferred(oldOwner, newOwner) */\n      log3\n        /* \"StarForgeUnitNFT.sol\":305:5442  contract StarForgeUnitNFT is ERC721, Ownable {... */\n      stop\n    tag_49:\n      jumpi(tag_77, callvalue)\n      jumpi(tag_77, slt(add(not(0x03), calldatasize), 0x20))\n      sub(shl(0xa0, 0x01), 0x01)\n      tag_219\n      tag_2\n      jump\t// in\n    tag_219:\n      and\n        /* \"@openzeppelin/contracts@4.9.3/token/ERC721/ERC721.sol\":2028:2047  owner != address(0) */\n      dup1\n      iszero\n        /* \"StarForgeUnitNFT.sol\":305:5442  contract StarForgeUnitNFT is ERC721, Ownable {... */\n      tag_220\n      jumpi\n      0x00\n      mstore\n        /* \"@openzeppelin/contracts@4.9.3/token/ERC721/ERC721.sol\":2110:2119  _balances */\n      0x03\n        /* \"StarForgeUnitNFT.sol\":305:5442  contract StarForgeUnitNFT is ERC721, Ownable {... */\n      0x20\n      mstore\n      0x20\n      sload(keccak256(0x00, 0x40))\n      mload(0x40)\n      swap1\n      dup2\n      mstore\n      return\n    tag_220:\n      mload(0x40)\n      shl(0xe5, 0x461bcd)\n      dup2\n      mstore\n      0x20\n      0x04\n      dup3\n      add\n      mstore\n      0x29\n      0x24\n      dup3\n      add\n      mstore\n      0x4552433732313a2061646472657373207a65726f206973206e6f742061207661\n      0x44\n      dup3\n      add\n      mstore\n      shl(0xb9, 0x3634b21037bbb732b9)\n      0x64\n      dup3\n      add\n      mstore\n      0x84\n      swap1\n      revert\n    tag_47:\n      jumpi(tag_77, callvalue)\n      jumpi(tag_77, slt(add(not(0x03), calldatasize), 0x20))\n      mstore(0x00, calldataload(0x04))\n        /* \"@openzeppelin/contracts@4.9.3/token/ERC721/ERC721.sol\":6794:6801  _owners */\n      0x02\n        /* \"StarForgeUnitNFT.sol\":305:5442  contract StarForgeUnitNFT is ERC721, Ownable {... */\n      0x20\n      mstore\n      0x20\n      0x01\n      dup1\n      0xa0\n      shl\n      sub\n      sload(keccak256(0x00, 0x40))\n      and\n        /* \"@openzeppelin/contracts@4.9.3/token/ERC721/ERC721.sol\":2324:2380  require(owner != address(0), \"ERC721: invalid token ID\") */\n      tag_226\n        /* \"@openzeppelin/contracts@4.9.3/token/ERC721/ERC721.sol\":2332:2351  owner != address(0) */\n      dup2\n      iszero\n      iszero\n        /* \"@openzeppelin/contracts@4.9.3/token/ERC721/ERC721.sol\":2324:2380  require(owner != address(0), \"ERC721: invalid token ID\") */\n      tag_13\n      jump\t// in\n    tag_226:\n        /* \"StarForgeUnitNFT.sol\":305:5442  contract StarForgeUnitNFT is ERC721, Ownable {... */\n      mload(0x40)\n      swap1\n      dup2\n      mstore\n      return\n    tag_45:\n      tag_6\n      jump\t// in\n    tag_43:\n      jumpi(tag_77, callvalue)\n      jumpi(tag_77, slt(add(not(0x03), calldatasize), 0x20))\n      tag_231\n      tag_2\n      jump\t// in\n    tag_231:\n        /* \"@openzeppelin/contracts@4.9.3/access/Ownable.sol\":1063:1125  modifier onlyOwner() {... */\n      tag_232\n      tag_15\n      jump\t// in\n    tag_232:\n        /* \"StarForgeUnitNFT.sol\":1245:1273  gameContract = _gameContract */\n      0x09\n        /* \"StarForgeUnitNFT.sol\":305:5442  contract StarForgeUnitNFT is ERC721, Ownable {... */\n      dup1\n      sload\n      not(sub(shl(0xa0, 0x01), 0x01))\n      and\n      sub(shl(0xa0, 0x01), 0x01)\n      swap3\n      swap1\n      swap3\n      and\n      swap2\n      swap1\n      swap2\n      or\n      swap1\n      sstore\n      stop\n    tag_39:\n      jumpi(tag_77, callvalue)\n      jumpi(tag_77, slt(add(not(0x03), calldatasize), 0x00))\n      0x20\n        /* \"StarForgeUnitNFT.sol\":4258:4270  _nextTokenId */\n      0x07\n        /* \"StarForgeUnitNFT.sol\":305:5442  contract StarForgeUnitNFT is ERC721, Ownable {... */\n      sload\n      mload(0x40)\n      swap1\n      dup2\n      mstore\n      return\n    tag_37:\n      jumpi(tag_77, callvalue)\n      jumpi(tag_77, slt(add(not(0x03), calldatasize), 0x20))\n      calldataload(0x04)\n      0x00\n      0xa0\n      mload(0x40)\n      tag_241\n      dup2\n      tag_8\n      jump\t// in\n    tag_241:\n      dup3\n      dup2\n      mstore\n      dup3\n      0x20\n      dup3\n      add\n      mstore\n      dup3\n      0x40\n      dup3\n      add\n      mstore\n      dup3\n      0x60\n      dup3\n      add\n      mstore\n      dup3\n      0x80\n      dup3\n      add\n      mstore\n      add\n      mstore\n      dup1\n      0x00\n      mstore\n        /* \"@openzeppelin/contracts@4.9.3/token/ERC721/ERC721.sol\":6794:6801  _owners */\n      0x02\n        /* \"StarForgeUnitNFT.sol\":305:5442  contract StarForgeUnitNFT is ERC721, Ownable {... */\n      0x20\n      mstore\n      0x01\n      dup1\n      0xa0\n      shl\n      sub\n      sload(keccak256(0x00, 0x40))\n      and\n        /* \"StarForgeUnitNFT.sol\":2014:2045  _ownerOf(tokenId) != address(0) */\n      iszero\n        /* \"StarForgeUnitNFT.sol\":305:5442  contract StarForgeUnitNFT is ERC721, Ownable {... */\n      tag_242\n      jumpi\n      0x00\n      mstore\n        /* \"StarForgeUnitNFT.sol\":2088:2093  units */\n      0x08\n        /* \"StarForgeUnitNFT.sol\":305:5442  contract StarForgeUnitNFT is ERC721, Ownable {... */\n      0x20\n      mstore\n      0xc0\n      keccak256(0x00, 0x40)\n      0xff\n      mload(0x40)\n      swap2\n      tag_244\n      dup4\n      tag_8\n      jump\t// in\n    tag_244:\n      sload\n      dup2\n      dup2\n      and\n      tag_245\n      dup2\n      tag_4\n      jump\t// in\n    tag_245:\n      dup4\n      mstore\n      dup2\n      dup1\n      dup3\n        /* \"StarForgeUnitNFT.sol\":2088:2093  units */\n      0x08\n        /* \"StarForgeUnitNFT.sol\":305:5442  contract StarForgeUnitNFT is ERC721, Ownable {... */\n      shr\n      and\n      0x20\n      dup6\n      add\n      swap1\n      tag_246\n      dup2\n      tag_4\n      jump\t// in\n    tag_246:\n      dup2\n      mstore\n      dup2\n      0x40\n      dup7\n      add\n      tag_247\n      dup3\n      dup7\n      0x10\n      shr\n      and\n      dup3\n      tag_11\n      jump\t// in\n    tag_247:\n      tag_248\n      0x60\n      dup9\n      add\n      swap2\n      dup4\n      dup8\n      0x18\n      shr\n      and\n      dup4\n      mstore\n      0x80\n      dup10\n      add\n      swap5\n      dup5\n      dup9\n      0x20\n      shr\n      and\n      dup7\n      mstore\n      dup5\n      0xa0\n      dup12\n      add\n      swap9\n      0x28\n      shr\n      and\n      dup9\n      mstore\n      mload(0x40)\n      swap10\n      mload\n      tag_249\n      dup2\n      tag_4\n      jump\t// in\n    tag_249:\n      dup11\n      mstore\n      mload\n      tag_250\n      dup2\n      tag_4\n      jump\t// in\n    tag_250:\n      0x20\n      dup11\n      add\n      mstore\n      mload\n      0x40\n      dup10\n      add\n      swap1\n      tag_5\n      jump\t// in\n    tag_248:\n      mload\n      and\n      0x60\n      dup7\n      add\n      mstore\n      mload\n      and\n      0x80\n      dup5\n      add\n      mstore\n      mload\n      and\n      0xa0\n      dup3\n      add\n      mstore\n      return\n    tag_242:\n      mload(0x40)\n      shl(0xe5, 0x461bcd)\n      dup2\n      mstore\n      0x20\n      0x04\n      dup3\n      add\n      mstore\n      0x14\n      0x24\n      dup3\n      add\n      mstore\n      shl(0x62, 0x151bdad95b88191bd95cc81b9bdd08195e1a5cdd)\n      0x44\n      dup3\n      add\n      mstore\n      0x64\n      swap1\n      revert\n    tag_35:\n      jumpi(tag_77, callvalue)\n      jumpi(tag_77, slt(add(not(0x03), calldatasize), 0x40))\n      tag_255\n      tag_2\n      jump\t// in\n    tag_255:\n      pop\n      mload(0x40)\n      shl(0xe5, 0x461bcd)\n        /* \"StarForgeUnitNFT.sol\":5255:5298  revert(\"Soulbound: approvals are disabled\") */\n      dup2\n      mstore\n        /* \"StarForgeUnitNFT.sol\":305:5442  contract StarForgeUnitNFT is ERC721, Ownable {... */\n      0x20\n      0x04\n        /* \"StarForgeUnitNFT.sol\":5255:5298  revert(\"Soulbound: approvals are disabled\") */\n      dup3\n      add\n        /* \"StarForgeUnitNFT.sol\":305:5442  contract StarForgeUnitNFT is ERC721, Ownable {... */\n      mstore\n      0x21\n      0x24\n      dup3\n      add\n      mstore\n      0x536f756c626f756e643a20617070726f76616c73206172652064697361626c65\n      0x44\n      dup3\n      add\n      mstore\n      shl(0xfa, 0x19)\n      0x64\n      dup3\n      add\n      mstore\n        /* \"StarForgeUnitNFT.sol\":5255:5298  revert(\"Soulbound: approvals are disabled\") */\n      0x84\n      swap1\n      revert\n        /* \"StarForgeUnitNFT.sol\":305:5442  contract StarForgeUnitNFT is ERC721, Ownable {... */\n    tag_33:\n      jumpi(tag_77, callvalue)\n      jumpi(tag_77, slt(add(not(0x03), calldatasize), 0x20))\n      calldataload(0x04)\n      0x00\n      dup2\n      dup2\n      mstore\n        /* \"@openzeppelin/contracts@4.9.3/token/ERC721/ERC721.sol\":6794:6801  _owners */\n      0x02\n        /* \"StarForgeUnitNFT.sol\":305:5442  contract StarForgeUnitNFT is ERC721, Ownable {... */\n      0x20\n      mstore\n      0x40\n      swap1\n      keccak256\n      sload\n        /* \"@openzeppelin/contracts@4.9.3/token/ERC721/ERC721.sol\":13313:13366  require(_exists(tokenId), \"ERC721: invalid token ID\") */\n      tag_260\n      swap1\n      sub(shl(0xa0, 0x01), 0x01)\n        /* \"StarForgeUnitNFT.sol\":305:5442  contract StarForgeUnitNFT is ERC721, Ownable {... */\n      and\n        /* \"@openzeppelin/contracts@4.9.3/token/ERC721/ERC721.sol\":7208:7239  _ownerOf(tokenId) != address(0) */\n      iszero\n      iszero\n        /* \"@openzeppelin/contracts@4.9.3/token/ERC721/ERC721.sol\":13313:13366  require(_exists(tokenId), \"ERC721: invalid token ID\") */\n      tag_13\n      jump\t// in\n    tag_260:\n        /* \"StarForgeUnitNFT.sol\":305:5442  contract StarForgeUnitNFT is ERC721, Ownable {... */\n      0x00\n      mstore\n      mstore(0x20, 0x04)\n      0x20\n      0x01\n      dup1\n      0xa0\n      shl\n      sub\n      sload(keccak256(0x00, 0x40))\n      and\n      mload(0x40)\n      swap1\n      dup2\n      mstore\n      return\n    tag_31:\n      jumpi(tag_77, callvalue)\n      jumpi(tag_77, slt(add(not(0x03), calldatasize), 0x00))\n      mload(0x40)\n      0x00\n      sload(0x00)\n      dup1\n      0x01\n      shr\n      swap1\n      0x01\n      dup2\n      and\n      dup1\n      iszero\n      tag_266\n      jumpi\n    tag_267:\n      0x20\n      dup4\n      lt\n      dup2\n      eq\n      tag_159\n      jumpi\n      dup3\n      dup6\n      mstore\n      swap1\n      dup2\n      iszero\n      tag_161\n      jumpi\n      pop\n      0x01\n      eq\n      tag_272\n      jumpi\n      tag_131\n      dup4\n      tag_166\n      dup2\n      dup6\n      sub\n      dup3\n      tag_9\n      jump\t// in\n    tag_272:\n      0x00\n      dup1\n      dup1\n      mstore\n      0x290decd9548b62a8d60345a988386fc84ba6bc95484008f6362f93160ef3e563\n      swap4\n      swap3\n      pop\n      swap1\n    tag_276:\n      dup1\n      dup3\n      lt\n      tag_277\n      jumpi\n      pop\n      swap1\n      swap2\n      pop\n      dup2\n      add\n      0x20\n      add\n      tag_166\n      jump(tag_164)\n    tag_277:\n      swap2\n      swap3\n      0x01\n      dup2\n      0x20\n      swap3\n      sload\n      dup4\n      dup6\n      dup9\n      add\n      add\n      mstore\n      add\n      swap2\n      add\n      swap1\n      swap3\n      swap2\n      jump(tag_276)\n    tag_266:\n      swap2\n      0x7f\n      and\n      swap2\n      jump(tag_267)\n    tag_29:\n      jumpi(tag_77, callvalue)\n      jumpi(tag_77, slt(add(not(0x03), calldatasize), 0x20))\n      calldataload(0x04)\n      swap1\n      shl(0xe0, 0xffffffff)\n      dup3\n      and\n      dup1\n      swap3\n      sub\n      tag_77\n      jumpi\n      0x20\n      swap2\n      shl(0xe0, 0x80ac58cd)\n        /* \"@openzeppelin/contracts@4.9.3/token/ERC721/ERC721.sol\":1707:1747  interfaceId == type(IERC721).interfaceId */\n      dup2\n      eq\n      swap1\n        /* \"@openzeppelin/contracts@4.9.3/token/ERC721/ERC721.sol\":1707:1811  interfaceId == type(IERC721).interfaceId ||... */\n      dup2\n      iszero\n      tag_285\n      jumpi\n        /* \"StarForgeUnitNFT.sol\":305:5442  contract StarForgeUnitNFT is ERC721, Ownable {... */\n    tag_286:\n        /* \"@openzeppelin/contracts@4.9.3/token/ERC721/ERC721.sol\":1707:1863  interfaceId == type(IERC721).interfaceId ||... */\n      dup2\n      iszero\n      tag_287\n      jumpi\n        /* \"StarForgeUnitNFT.sol\":305:5442  contract StarForgeUnitNFT is ERC721, Ownable {... */\n    tag_288:\n      pop\n      iszero\n      iszero\n      dup2\n      mstore\n      return\n        /* \"@openzeppelin/contracts@4.9.3/token/ERC721/ERC721.sol\":1707:1863  interfaceId == type(IERC721).interfaceId ||... */\n    tag_287:\n      shl(0xe0, 0x01ffc9a7)\n        /* \"@openzeppelin/contracts@4.9.3/utils/introspection/ERC165.sol\":937:977  interfaceId == type(IERC165).interfaceId */\n      eq\n      swap1\n      pop\n        /* \"@openzeppelin/contracts@4.9.3/token/ERC721/ERC721.sol\":1707:1863  interfaceId == type(IERC721).interfaceId ||... */\n      dup4\n      jump(tag_288)\n        /* \"@openzeppelin/contracts@4.9.3/token/ERC721/ERC721.sol\":1707:1811  interfaceId == type(IERC721).interfaceId ||... */\n    tag_285:\n      shl(0xe0, 0x5b5e139f)\n        /* \"@openzeppelin/contracts@4.9.3/token/ERC721/ERC721.sol\":1763:1811  interfaceId == type(IERC721Metadata).interfaceId */\n      dup2\n      eq\n      swap2\n      pop\n        /* \"@openzeppelin/contracts@4.9.3/token/ERC721/ERC721.sol\":1707:1811  interfaceId == type(IERC721).interfaceId ||... */\n      jump(tag_286)\n        /* \"StarForgeUnitNFT.sol\":305:5442  contract StarForgeUnitNFT is ERC721, Ownable {... */\n    tag_1:\n      dup1\n      mload\n      dup1\n      dup4\n      mstore\n      0x20\n      swap3\n      swap2\n      dup2\n      swap1\n      dup5\n      add\n      dup5\n      dup5\n      add\n      mcopy\n      0x00\n      dup3\n      dup3\n      add\n      dup5\n      add\n      mstore\n      0x1f\n      add\n      not(0x1f)\n      and\n      add\n      add\n      swap1\n      jump\t// out\n    tag_2:\n      calldataload(0x04)\n      swap1\n      sub(shl(0xa0, 0x01), 0x01)\n      dup3\n      and\n      dup3\n      sub\n      tag_77\n      jumpi\n      jump\t// out\n    tag_3:\n      calldataload(0x24)\n      swap1\n      sub(shl(0xa0, 0x01), 0x01)\n      dup3\n      and\n      dup3\n      sub\n      tag_77\n      jumpi\n      jump\t// out\n    tag_4:\n      0x03\n      gt\n      iszero\n      tag_122\n      jumpi\n      jump\t// out\n    tag_5:\n      swap1\n      0x04\n      dup3\n      lt\n      iszero\n      tag_122\n      jumpi\n      mstore\n      jump\t// out\n    tag_6:\n      jumpi(tag_77, callvalue)\n      jumpi(tag_77, slt(add(not(0x03), calldatasize), 0x60))\n      calldataload(0x04)\n      sub(shl(0xa0, 0x01), 0x01)\n      dup2\n      and\n      dup2\n      sub\n      tag_77\n      jumpi\n      pop\n      calldataload(0x24)\n      sub(shl(0xa0, 0x01), 0x01)\n      dup2\n      and\n      dup2\n      sub\n      tag_77\n      jumpi\n      pop\n      tag_12\n      jump\t// in\n    tag_7:\n      0xe0\n      swap1\n      not(0x03)\n      add\n      slt\n      tag_77\n      jumpi\n      calldataload(0x04)\n      sub(shl(0xa0, 0x01), 0x01)\n      dup2\n      and\n      dup2\n      sub\n      tag_77\n      jumpi\n      swap1\n      calldataload(0x24)\n      0x03\n      dup2\n      lt\n      iszero\n      tag_77\n      jumpi\n      swap1\n      calldataload(0x44)\n      0x03\n      dup2\n      lt\n      iszero\n      tag_77\n      jumpi\n      swap1\n      calldataload(0x64)\n      0x04\n      dup2\n      lt\n      iszero\n      tag_77\n      jumpi\n      swap1\n      calldataload(0x84)\n      0xff\n      dup2\n      and\n      dup2\n      sub\n      tag_77\n      jumpi\n      swap1\n      calldataload(0xa4)\n      0xff\n      dup2\n      and\n      dup2\n      sub\n      tag_77\n      jumpi\n      swap1\n      calldataload(0xc4)\n      0xff\n      dup2\n      and\n      dup2\n      sub\n      tag_77\n      jumpi\n      swap1\n      jump\t// out\n    tag_8:\n      0xc0\n      dup2\n      add\n      swap1\n      dup2\n      lt\n      0xffffffffffffffff\n      dup3\n      gt\n      or\n      tag_321\n      jumpi\n      0x40\n      mstore\n      jump\t// out\n    tag_321:\n      mstore(0x00, shl(0xe0, 0x4e487b71))\n      mstore(0x04, 0x41)\n      revert(0x00, 0x24)\n    tag_9:\n      swap1\n      0x1f\n        /* \"StarForgeUnitNFT.sol\":2366:3331  abi.encodePacked(... */\n      dup1\n      not\n        /* \"StarForgeUnitNFT.sol\":305:5442  contract StarForgeUnitNFT is ERC721, Ownable {... */\n      swap2\n      add\n      and\n      dup2\n      add\n      swap1\n      dup2\n      lt\n      0xffffffffffffffff\n      dup3\n      gt\n      or\n      tag_321\n      jumpi\n      0x40\n      mstore\n      jump\t// out\n    tag_10:\n      0xffffffffffffffff\n      dup2\n      gt\n      tag_321\n      jumpi\n      0x1f\n      add\n      not(0x1f)\n      and\n      0x20\n      add\n      swap1\n      jump\t// out\n    tag_11:\n      0x04\n      dup3\n      lt\n      iszero\n      tag_122\n      jumpi\n      mstore\n      jump\t// out\n        /* \"StarForgeUnitNFT.sol\":4746:4878  function transferFrom(address, address, uint256) public pure override {... */\n    tag_12:\n        /* \"StarForgeUnitNFT.sol\":305:5442  contract StarForgeUnitNFT is ERC721, Ownable {... */\n      mload(0x40)\n      shl(0xe5, 0x461bcd)\n        /* \"StarForgeUnitNFT.sol\":4827:4870  revert(\"Soulbound: transfers are disabled\") */\n      dup2\n      mstore\n        /* \"StarForgeUnitNFT.sol\":305:5442  contract StarForgeUnitNFT is ERC721, Ownable {... */\n      0x20\n        /* \"StarForgeUnitNFT.sol\":4827:4870  revert(\"Soulbound: transfers are disabled\") */\n      0x04\n      dup3\n      add\n        /* \"StarForgeUnitNFT.sol\":305:5442  contract StarForgeUnitNFT is ERC721, Ownable {... */\n      mstore\n      0x21\n      0x24\n      dup3\n      add\n      mstore\n      0x536f756c626f756e643a207472616e7366657273206172652064697361626c65\n      0x44\n      dup3\n      add\n      mstore\n      shl(0xfa, 0x19)\n      0x64\n      dup3\n      add\n      mstore\n        /* \"StarForgeUnitNFT.sol\":4827:4870  revert(\"Soulbound: transfers are disabled\") */\n      0x84\n      swap1\n      revert\n        /* \"StarForgeUnitNFT.sol\":305:5442  contract StarForgeUnitNFT is ERC721, Ownable {... */\n    tag_13:\n      iszero\n      tag_329\n      jumpi\n      jump\t// out\n    tag_329:\n      mload(0x40)\n      shl(0xe5, 0x461bcd)\n      dup2\n      mstore\n      0x20\n      0x04\n      dup3\n      add\n      mstore\n      0x18\n      0x24\n      dup3\n      add\n      mstore\n      0x4552433732313a20696e76616c696420746f6b656e2049440000000000000000\n      0x44\n      dup3\n      add\n      mstore\n      0x64\n      swap1\n      revert\n    tag_14:\n      not(0x00)\n      dup2\n      eq\n      tag_331\n      jumpi\n      0x01\n      add\n      swap1\n      jump\t// out\n    tag_331:\n      mstore(0x00, shl(0xe0, 0x4e487b71))\n      mstore(0x04, 0x11)\n      revert(0x00, 0x24)\n        /* \"@openzeppelin/contracts@4.9.3/access/Ownable.sol\":1359:1489  function _checkOwner() internal view virtual {... */\n    tag_15:\n        /* \"@openzeppelin/contracts@4.9.3/access/Ownable.sol\":1273:1279  _owner */\n      0x06\n        /* \"StarForgeUnitNFT.sol\":305:5442  contract StarForgeUnitNFT is ERC721, Ownable {... */\n      sload\n      sub(shl(0xa0, 0x01), 0x01)\n      and\n        /* \"@openzeppelin/contracts@4.9.3/utils/Context.sol\":719:729  msg.sender */\n      caller\n        /* \"@openzeppelin/contracts@4.9.3/access/Ownable.sol\":1422:1445  owner() == _msgSender() */\n      sub\n        /* \"StarForgeUnitNFT.sol\":305:5442  contract StarForgeUnitNFT is ERC721, Ownable {... */\n      tag_333\n      jumpi\n        /* \"@openzeppelin/contracts@4.9.3/access/Ownable.sol\":1359:1489  function _checkOwner() internal view virtual {... */\n      jump\t// out\n        /* \"StarForgeUnitNFT.sol\":305:5442  contract StarForgeUnitNFT is ERC721, Ownable {... */\n    tag_333:\n      0x64\n      mload(0x40)\n        /* \"StarForgeUnitNFT.sol\":5255:5298  revert(\"Soulbound: approvals are disabled\") */\n      shl(0xe5, 0x461bcd)\n        /* \"StarForgeUnitNFT.sol\":305:5442  contract StarForgeUnitNFT is ERC721, Ownable {... */\n      dup2\n      mstore\n      0x20\n      0x04\n      dup3\n      add\n      mstore\n      0x20\n      0x24\n      dup3\n      add\n      mstore\n      0x4f776e61626c653a2063616c6c6572206973206e6f7420746865206f776e6572\n      0x44\n      dup3\n      add\n      mstore\n      revert\n        /* \"@openzeppelin/contracts@4.9.3/token/ERC721/ERC721.sol\":7995:8103  function _safeMint(address to, uint256 tokenId) internal virtual {... */\n    tag_16:\n        /* \"StarForgeUnitNFT.sol\":305:5442  contract StarForgeUnitNFT is ERC721, Ownable {... */\n      mload(0x40)\n      0x20\n      swap4\n        /* \"@openzeppelin/contracts@4.9.3/token/ERC721/ERC721.sol\":7995:8103  function _safeMint(address to, uint256 tokenId) internal virtual {... */\n      swap3\n        /* \"StarForgeUnitNFT.sol\":305:5442  contract StarForgeUnitNFT is ERC721, Ownable {... */\n      swap1\n      swap2\n      tag_335\n      dup6\n      dup5\n      tag_9\n      jump\t// in\n    tag_335:\n      0x00\n      dup4\n      mstore\n      sub(shl(0xa0, 0x01), 0x01)\n      dup2\n      and\n        /* \"@openzeppelin/contracts@4.9.3/token/ERC721/ERC721.sol\":9004:9020  to != address(0) */\n      dup1\n      iszero\n        /* \"StarForgeUnitNFT.sol\":305:5442  contract StarForgeUnitNFT is ERC721, Ownable {... */\n      tag_336\n      jumpi\n        /* \"@openzeppelin/contracts@4.9.3/token/ERC721/ERC721.sol\":9076:9092  _exists(tokenId) */\n      dup3\n      swap1\n        /* \"@openzeppelin/contracts@4.9.3/token/ERC721/ERC721.sol\":9710:9717  _owners */\n      0x02\n        /* \"@openzeppelin/contracts@4.9.3/token/ERC721/ERC721.sol\":8467:8520  _checkOnERC721Received(address(0), to, tokenId, data) */\n      tag_338\n        /* \"@openzeppelin/contracts@4.9.3/token/ERC721/ERC721.sol\":9076:9092  _exists(tokenId) */\n      swap7\n      swap8\n        /* \"@openzeppelin/contracts@4.9.3/token/ERC721/ERC721.sol\":9067:9125  require(!_exists(tokenId), \"ERC721: token already minted\") */\n      tag_339\n        /* \"@openzeppelin/contracts@4.9.3/token/ERC721/ERC721.sol\":9076:9092  _exists(tokenId) */\n      tag_340\n      dup6\n      0x00\n        /* \"StarForgeUnitNFT.sol\":305:5442  contract StarForgeUnitNFT is ERC721, Ownable {... */\n      mstore\n        /* \"@openzeppelin/contracts@4.9.3/token/ERC721/ERC721.sol\":6794:6801  _owners */\n      0x02\n        /* \"StarForgeUnitNFT.sol\":305:5442  contract StarForgeUnitNFT is ERC721, Ownable {... */\n      0x20\n      mstore\n      0x01\n      dup1\n      0xa0\n      shl\n      sub\n      sload(keccak256(0x00, 0x40))\n      and\n        /* \"@openzeppelin/contracts@4.9.3/token/ERC721/ERC721.sol\":7208:7239  _ownerOf(tokenId) != address(0) */\n      iszero\n      iszero\n        /* \"@openzeppelin/contracts@4.9.3/token/ERC721/ERC721.sol\":7120:7246  function _exists(uint256 tokenId) internal view virtual returns (bool) {... */\n      swap1\n      jump\n        /* \"@openzeppelin/contracts@4.9.3/token/ERC721/ERC721.sol\":9076:9092  _exists(tokenId) */\n    tag_340:\n        /* \"@openzeppelin/contracts@4.9.3/token/ERC721/ERC721.sol\":9075:9092  !_exists(tokenId) */\n      iszero\n        /* \"@openzeppelin/contracts@4.9.3/token/ERC721/ERC721.sol\":9067:9125  require(!_exists(tokenId), \"ERC721: token already minted\") */\n      tag_25\n      jump\t// in\n    tag_339:\n      0x00\n        /* \"StarForgeUnitNFT.sol\":305:5442  contract StarForgeUnitNFT is ERC721, Ownable {... */\n      dup5\n      dup2\n      mstore\n        /* \"@openzeppelin/contracts@4.9.3/token/ERC721/ERC721.sol\":6794:6801  _owners */\n      0x02\n        /* \"StarForgeUnitNFT.sol\":305:5442  contract StarForgeUnitNFT is ERC721, Ownable {... */\n      0x20\n      mstore\n      0x40\n      swap1\n      keccak256\n      sload\n        /* \"@openzeppelin/contracts@4.9.3/token/ERC721/ERC721.sol\":9271:9329  require(!_exists(tokenId), \"ERC721: token already minted\") */\n      tag_341\n      swap1\n      sub(shl(0xa0, 0x01), 0x01)\n        /* \"StarForgeUnitNFT.sol\":305:5442  contract StarForgeUnitNFT is ERC721, Ownable {... */\n      and\n        /* \"@openzeppelin/contracts@4.9.3/token/ERC721/ERC721.sol\":7208:7239  _ownerOf(tokenId) != address(0) */\n      iszero\n      iszero\n        /* \"@openzeppelin/contracts@4.9.3/token/ERC721/ERC721.sol\":9280:9296  _exists(tokenId) */\n      tag_340\n        /* \"@openzeppelin/contracts@4.9.3/token/ERC721/ERC721.sol\":7120:7246  function _exists(uint256 tokenId) internal view virtual returns (bool) {... */\n      jump\n        /* \"@openzeppelin/contracts@4.9.3/token/ERC721/ERC721.sol\":9271:9329  require(!_exists(tokenId), \"ERC721: token already minted\") */\n    tag_341:\n        /* \"StarForgeUnitNFT.sol\":305:5442  contract StarForgeUnitNFT is ERC721, Ownable {... */\n      dup3\n      0x00\n      mstore\n        /* \"@openzeppelin/contracts@4.9.3/token/ERC721/ERC721.sol\":9671:9680  _balances */\n      0x03\n        /* \"StarForgeUnitNFT.sol\":305:5442  contract StarForgeUnitNFT is ERC721, Ownable {... */\n      dup2\n      mstore\n      keccak256(0x00, 0x40)\n        /* \"@openzeppelin/contracts@4.9.3/token/ERC721/ERC721.sol\":9688:9689  1 */\n      0x01\n        /* \"StarForgeUnitNFT.sol\":305:5442  contract StarForgeUnitNFT is ERC721, Ownable {... */\n      dup2\n      sload\n      add\n      swap1\n      sstore\n      dup4\n      0x00\n      mstore\n      mstore\n      keccak256(0x00, 0x40)\n      dup2\n      shl(0xa0, 0xffffffffffffffffffffffff)\n      dup3\n      sload\n      and\n      or\n      swap1\n      sstore\n      0x00\n        /* \"@openzeppelin/contracts@4.9.3/token/ERC721/ERC721.sol\":9747:9780  Transfer(address(0), to, tokenId) */\n      0xddf252ad1be2c89b69c2b068fc378daa952ba7f163c4a11628f55a4df523b3ef\n      dup2\n      dup1\n      log4\n        /* \"@openzeppelin/contracts@4.9.3/token/ERC721/ERC721.sol\":8467:8520  _checkOnERC721Received(address(0), to, tokenId, data) */\n      tag_26\n      jump\t// in\n    tag_338:\n        /* \"StarForgeUnitNFT.sol\":305:5442  contract StarForgeUnitNFT is ERC721, Ownable {... */\n      iszero\n      tag_343\n      jumpi\n        /* \"@openzeppelin/contracts@4.9.3/token/ERC721/ERC721.sol\":7995:8103  function _safeMint(address to, uint256 tokenId) internal virtual {... */\n      jump\t// out\n        /* \"StarForgeUnitNFT.sol\":305:5442  contract StarForgeUnitNFT is ERC721, Ownable {... */\n    tag_343:\n      mload(0x40)\n      shl(0xe5, 0x461bcd)\n      dup2\n      mstore\n      dup1\n      tag_345\n      0x04\n      dup3\n      add\n      tag_24\n      jump\t// in\n    tag_345:\n      sub\n      swap1\n      revert\n    tag_336:\n      0x64\n      dup7\n      mload(0x40)\n        /* \"StarForgeUnitNFT.sol\":5255:5298  revert(\"Soulbound: approvals are disabled\") */\n      swap1\n      shl(0xe5, 0x461bcd)\n        /* \"StarForgeUnitNFT.sol\":305:5442  contract StarForgeUnitNFT is ERC721, Ownable {... */\n      dup3\n      mstore\n      dup1\n      0x04\n      dup4\n      add\n      mstore\n      0x24\n      dup3\n      add\n      mstore\n      0x4552433732313a206d696e7420746f20746865207a65726f2061646472657373\n      0x44\n      dup3\n      add\n      mstore\n      revert\n    tag_17:\n      swap1\n      tag_346\n      dup3\n      tag_10\n      jump\t// in\n    tag_346:\n      tag_347\n      mload(0x40)\n      swap2\n      dup3\n      tag_9\n      jump\t// in\n    tag_347:\n      dup3\n      dup2\n      mstore\n      dup1\n        /* \"StarForgeUnitNFT.sol\":2366:3331  abi.encodePacked(... */\n      swap3\n        /* \"StarForgeUnitNFT.sol\":305:5442  contract StarForgeUnitNFT is ERC721, Ownable {... */\n      tag_348\n        /* \"StarForgeUnitNFT.sol\":2366:3331  abi.encodePacked(... */\n      not(0x1f)\n        /* \"StarForgeUnitNFT.sol\":305:5442  contract StarForgeUnitNFT is ERC721, Ownable {... */\n      swap2\n      tag_10\n      jump\t// in\n    tag_348:\n      add\n      swap1\n      0x20\n      calldatasize\n      swap2\n      add\n      calldatacopy\n      jump\t// out\n        /* \"@openzeppelin/contracts@4.9.3/utils/Strings.sol\":447:1143  function toString(uint256 value) internal pure returns (string memory) {... */\n    tag_18:\n        /* \"@openzeppelin/contracts@4.9.3/utils/Strings.sol\":569:586  Math.log10(value) */\n      dup1\n      0x00\n        /* \"@openzeppelin/contracts@4.9.3/utils/math/Math.sol\":10267:10284  value >= 10 ** 64 */\n      swap2\n      shl(0x40, 0x184f03e93ff9f4daa797ed6e38ed64bf6a1f01)\n      dup3\n      lt\n      iszero\n        /* \"@openzeppelin/contracts@4.9.3/utils/math/Math.sol\":10263:10366  if (value >= 10 ** 64) {... */\n      tag_349\n      jumpi\n        /* \"@openzeppelin/contracts@4.9.3/utils/Strings.sol\":447:1143  function toString(uint256 value) internal pure returns (string memory) {... */\n    tag_350:\n        /* \"@openzeppelin/contracts@4.9.3/utils/math/Math.sol\":10383:10400  value >= 10 ** 32 */\n      dup1\n        /* \"@openzeppelin/contracts@4.9.3/utils/math/Math.sol\":10392:10400  10 ** 32 */\n      0x04ee2d6d415b85acef8100000000\n        /* \"@openzeppelin/contracts@4.9.3/utils/math/Math.sol\":10963:10970  10 ** 1 */\n      0x0a\n        /* \"@openzeppelin/contracts@4.9.3/utils/math/Math.sol\":10383:10400  value >= 10 ** 32 */\n      swap3\n      lt\n      iszero\n        /* \"@openzeppelin/contracts@4.9.3/utils/math/Math.sol\":10379:10482  if (value >= 10 ** 32) {... */\n      tag_351\n      jumpi\n        /* \"@openzeppelin/contracts@4.9.3/utils/Strings.sol\":447:1143  function toString(uint256 value) internal pure returns (string memory) {... */\n    tag_352:\n        /* \"@openzeppelin/contracts@4.9.3/utils/math/Math.sol\":10508:10516  10 ** 16 */\n      0x2386f26fc10000\n        /* \"@openzeppelin/contracts@4.9.3/utils/math/Math.sol\":10499:10516  value >= 10 ** 16 */\n      dup2\n      lt\n      iszero\n        /* \"@openzeppelin/contracts@4.9.3/utils/math/Math.sol\":10495:10598  if (value >= 10 ** 16) {... */\n      tag_353\n      jumpi\n        /* \"@openzeppelin/contracts@4.9.3/utils/Strings.sol\":447:1143  function toString(uint256 value) internal pure returns (string memory) {... */\n    tag_354:\n        /* \"@openzeppelin/contracts@4.9.3/utils/math/Math.sol\":10624:10631  10 ** 8 */\n      0x05f5e100\n        /* \"@openzeppelin/contracts@4.9.3/utils/math/Math.sol\":10615:10631  value >= 10 ** 8 */\n      dup2\n      lt\n      iszero\n        /* \"@openzeppelin/contracts@4.9.3/utils/math/Math.sol\":10611:10711  if (value >= 10 ** 8) {... */\n      tag_355\n      jumpi\n        /* \"@openzeppelin/contracts@4.9.3/utils/Strings.sol\":447:1143  function toString(uint256 value) internal pure returns (string memory) {... */\n    tag_356:\n        /* \"@openzeppelin/contracts@4.9.3/utils/math/Math.sol\":10737:10744  10 ** 4 */\n      0x2710\n        /* \"@openzeppelin/contracts@4.9.3/utils/math/Math.sol\":10728:10744  value >= 10 ** 4 */\n      dup2\n      lt\n      iszero\n        /* \"@openzeppelin/contracts@4.9.3/utils/math/Math.sol\":10724:10824  if (value >= 10 ** 4) {... */\n      tag_357\n      jumpi\n        /* \"@openzeppelin/contracts@4.9.3/utils/Strings.sol\":447:1143  function toString(uint256 value) internal pure returns (string memory) {... */\n    tag_358:\n        /* \"@openzeppelin/contracts@4.9.3/utils/math/Math.sol\":10850:10857  10 ** 2 */\n      0x64\n        /* \"@openzeppelin/contracts@4.9.3/utils/math/Math.sol\":10841:10857  value >= 10 ** 2 */\n      dup2\n      lt\n      iszero\n        /* \"@openzeppelin/contracts@4.9.3/utils/math/Math.sol\":10837:10937  if (value >= 10 ** 2) {... */\n      tag_359\n      jumpi\n        /* \"@openzeppelin/contracts@4.9.3/utils/Strings.sol\":447:1143  function toString(uint256 value) internal pure returns (string memory) {... */\n    tag_360:\n        /* \"@openzeppelin/contracts@4.9.3/utils/math/Math.sol\":10954:10970  value >= 10 ** 1 */\n      lt\n      iszero\n        /* \"@openzeppelin/contracts@4.9.3/utils/math/Math.sol\":10950:11016  if (value >= 10 ** 1) {... */\n      tag_361\n      jumpi\n        /* \"@openzeppelin/contracts@4.9.3/utils/Strings.sol\":447:1143  function toString(uint256 value) internal pure returns (string memory) {... */\n    tag_362:\n        /* \"@openzeppelin/contracts@4.9.3/utils/math/Math.sol\":10963:10970  10 ** 1 */\n      0x0a\n        /* \"@openzeppelin/contracts@4.9.3/utils/Strings.sol\":731:807  assembly {... */\n      0x21\n        /* \"@openzeppelin/contracts@4.9.3/utils/Strings.sol\":627:645  new string(length) */\n      tag_363\n        /* \"@openzeppelin/contracts@4.9.3/utils/Strings.sol\":589:590  1 */\n      0x01\n        /* \"StarForgeUnitNFT.sol\":305:5442  contract StarForgeUnitNFT is ERC721, Ownable {... */\n      dup6\n      add\n        /* \"@openzeppelin/contracts@4.9.3/utils/Strings.sol\":627:645  new string(length) */\n      tag_17\n      jump\t// in\n    tag_363:\n        /* \"@openzeppelin/contracts@4.9.3/utils/Strings.sol\":659:670  uint256 ptr */\n      swap4\n        /* \"@openzeppelin/contracts@4.9.3/utils/Strings.sol\":731:807  assembly {... */\n      dup5\n      add\n      add\n        /* \"@openzeppelin/contracts@4.9.3/utils/Strings.sol\":820:1100  while (true) {... */\n    tag_364:\n      not(0x00)\n        /* \"StarForgeUnitNFT.sol\":305:5442  contract StarForgeUnitNFT is ERC721, Ownable {... */\n      add\n      swap2\n      shl(0x81, 0x181899199a1a9b1b9c1cb0b131b232b3)\n        /* \"@openzeppelin/contracts@4.9.3/utils/Strings.sol\":925:1018  assembly {... */\n      dup3\n      dup3\n      mod\n      byte\n        /* \"StarForgeUnitNFT.sol\":305:5442  contract StarForgeUnitNFT is ERC721, Ownable {... */\n      dup4\n        /* \"@openzeppelin/contracts@4.9.3/utils/Strings.sol\":925:1018  assembly {... */\n      mstore8\n        /* \"StarForgeUnitNFT.sol\":305:5442  contract StarForgeUnitNFT is ERC721, Ownable {... */\n      div\n        /* \"@openzeppelin/contracts@4.9.3/utils/Strings.sol\":1068:1078  value == 0 */\n      dup1\n      iszero\n        /* \"@openzeppelin/contracts@4.9.3/utils/Strings.sol\":1064:1085  if (value == 0) break */\n      tag_365\n      jumpi\n        /* \"@openzeppelin/contracts@4.9.3/utils/math/Math.sol\":10963:10970  10 ** 1 */\n      0x0a\n        /* \"@openzeppelin/contracts@4.9.3/utils/Strings.sol\":820:1100  while (true) {... */\n      swap1\n      swap2\n      jump(tag_364)\n        /* \"@openzeppelin/contracts@4.9.3/utils/Strings.sol\":1064:1085  if (value == 0) break */\n    tag_365:\n        /* \"@openzeppelin/contracts@4.9.3/utils/Strings.sol\":1080:1085  break */\n      pop\n      pop\n        /* \"@openzeppelin/contracts@4.9.3/utils/Strings.sol\":447:1143  function toString(uint256 value) internal pure returns (string memory) {... */\n      swap1\n      jump\t// out\n        /* \"@openzeppelin/contracts@4.9.3/utils/math/Math.sol\":10950:11016  if (value >= 10 ** 1) {... */\n    tag_361:\n        /* \"@openzeppelin/contracts@4.9.3/utils/math/Math.sol\":11000:11001  1 */\n      0x01\n        /* \"StarForgeUnitNFT.sol\":305:5442  contract StarForgeUnitNFT is ERC721, Ownable {... */\n      swap1\n      swap2\n      add\n      swap1\n        /* \"@openzeppelin/contracts@4.9.3/utils/math/Math.sol\":10950:11016  if (value >= 10 ** 1) {... */\n      jump(tag_362)\n        /* \"@openzeppelin/contracts@4.9.3/utils/math/Math.sol\":10837:10937  if (value >= 10 ** 2) {... */\n    tag_359:\n        /* \"@openzeppelin/contracts@4.9.3/utils/math/Math.sol\":10850:10857  10 ** 2 */\n      0x64\n        /* \"@openzeppelin/contracts@4.9.3/utils/math/Math.sol\":10921:10922  2 */\n      0x02\n        /* \"StarForgeUnitNFT.sol\":305:5442  contract StarForgeUnitNFT is ERC721, Ownable {... */\n      swap2\n      div\n      swap4\n      add\n        /* \"@openzeppelin/contracts@4.9.3/utils/math/Math.sol\":10837:10937  if (value >= 10 ** 2) {... */\n      swap3\n      jump(tag_360)\n        /* \"@openzeppelin/contracts@4.9.3/utils/math/Math.sol\":10724:10824  if (value >= 10 ** 4) {... */\n    tag_357:\n        /* \"@openzeppelin/contracts@4.9.3/utils/math/Math.sol\":10737:10744  10 ** 4 */\n      0x2710\n        /* \"@openzeppelin/contracts@4.9.3/utils/math/Math.sol\":10808:10809  4 */\n      0x04\n        /* \"StarForgeUnitNFT.sol\":305:5442  contract StarForgeUnitNFT is ERC721, Ownable {... */\n      swap2\n      div\n      swap4\n      add\n        /* \"@openzeppelin/contracts@4.9.3/utils/math/Math.sol\":10724:10824  if (value >= 10 ** 4) {... */\n      swap3\n      jump(tag_358)\n        /* \"@openzeppelin/contracts@4.9.3/utils/math/Math.sol\":10611:10711  if (value >= 10 ** 8) {... */\n    tag_355:\n        /* \"@openzeppelin/contracts@4.9.3/utils/math/Math.sol\":10624:10631  10 ** 8 */\n      0x05f5e100\n        /* \"@openzeppelin/contracts@4.9.3/utils/math/Math.sol\":10695:10696  8 */\n      0x08\n        /* \"StarForgeUnitNFT.sol\":305:5442  contract StarForgeUnitNFT is ERC721, Ownable {... */\n      swap2\n      div\n      swap4\n      add\n        /* \"@openzeppelin/contracts@4.9.3/utils/math/Math.sol\":10611:10711  if (value >= 10 ** 8) {... */\n      swap3\n      jump(tag_356)\n        /* \"@openzeppelin/contracts@4.9.3/utils/math/Math.sol\":10495:10598  if (value >= 10 ** 16) {... */\n    tag_353:\n        /* \"@openzeppelin/contracts@4.9.3/utils/math/Math.sol\":10508:10516  10 ** 16 */\n      0x2386f26fc10000\n        /* \"@openzeppelin/contracts@4.9.3/utils/math/Math.sol\":10581:10583  16 */\n      0x10\n        /* \"StarForgeUnitNFT.sol\":305:5442  contract StarForgeUnitNFT is ERC721, Ownable {... */\n      swap2\n      div\n      swap4\n      add\n        /* \"@openzeppelin/contracts@4.9.3/utils/math/Math.sol\":10495:10598  if (value >= 10 ** 16) {... */\n      swap3\n      jump(tag_354)\n        /* \"@openzeppelin/contracts@4.9.3/utils/math/Math.sol\":10379:10482  if (value >= 10 ** 32) {... */\n    tag_351:\n        /* \"@openzeppelin/contracts@4.9.3/utils/math/Math.sol\":10392:10400  10 ** 32 */\n      0x04ee2d6d415b85acef8100000000\n        /* \"@openzeppelin/contracts@4.9.3/utils/math/Math.sol\":10465:10467  32 */\n      0x20\n        /* \"StarForgeUnitNFT.sol\":305:5442  contract StarForgeUnitNFT is ERC721, Ownable {... */\n      swap2\n      div\n      swap4\n      add\n        /* \"@openzeppelin/contracts@4.9.3/utils/math/Math.sol\":10379:10482  if (value >= 10 ** 32) {... */\n      swap3\n      jump(tag_352)\n        /* \"@openzeppelin/contracts@4.9.3/utils/math/Math.sol\":10263:10366  if (value >= 10 ** 64) {... */\n    tag_349:\n      pop\n        /* \"@openzeppelin/contracts@4.9.3/utils/math/Math.sol\":10349:10351  64 */\n      0x40\n      swap2\n      pop\n      shl(0x40, 0x184f03e93ff9f4daa797ed6e38ed64bf6a1f01)\n        /* \"StarForgeUnitNFT.sol\":305:5442  contract StarForgeUnitNFT is ERC721, Ownable {... */\n      dup2\n      div\n        /* \"@openzeppelin/contracts@4.9.3/utils/math/Math.sol\":10263:10366  if (value >= 10 ** 64) {... */\n      jump(tag_350)\n        /* \"StarForgeUnitNFT.sol\":3892:4177  function _getClassName(UnitClass c) internal pure returns (string memory) {... */\n    tag_19:\n        /* \"StarForgeUnitNFT.sol\":305:5442  contract StarForgeUnitNFT is ERC721, Ownable {... */\n      0x04\n      dup2\n      lt\n      iszero\n      tag_122\n      jumpi\n        /* \"StarForgeUnitNFT.sol\":3981:4003  c == UnitClass.Fighter */\n      dup1\n      iszero\n        /* \"StarForgeUnitNFT.sol\":3977:4021  if (c == UnitClass.Fighter) return \"Fighter\" */\n      tag_369\n      jumpi\n        /* \"StarForgeUnitNFT.sol\":305:5442  contract StarForgeUnitNFT is ERC721, Ownable {... */\n      0x01\n        /* \"StarForgeUnitNFT.sol\":4036:4058  c == UnitClass.Cruiser */\n      dup2\n      eq\n        /* \"StarForgeUnitNFT.sol\":4032:4076  if (c == UnitClass.Cruiser) return \"Cruiser\" */\n      tag_371\n      jumpi\n        /* \"StarForgeUnitNFT.sol\":4096:4117  UnitClass.Dreadnought */\n      0x02\n        /* \"StarForgeUnitNFT.sol\":4091:4117  c == UnitClass.Dreadnought */\n      eq\n        /* \"StarForgeUnitNFT.sol\":4087:4139  if (c == UnitClass.Dreadnought) return \"Dreadnought\" */\n      tag_373\n      jumpi\n        /* \"StarForgeUnitNFT.sol\":305:5442  contract StarForgeUnitNFT is ERC721, Ownable {... */\n      mload(0x40)\n      tag_375\n      0x40\n      dup3\n      tag_9\n      jump\t// in\n    tag_375:\n      0x0a\n      dup2\n      mstore\n      shl(0xb0, 0x44726f6e65537761726d)\n      0x20\n      dup3\n      add\n      mstore\n        /* \"StarForgeUnitNFT.sol\":3892:4177  function _getClassName(UnitClass c) internal pure returns (string memory) {... */\n      swap1\n      jump\t// out\n        /* \"StarForgeUnitNFT.sol\":4087:4139  if (c == UnitClass.Dreadnought) return \"Dreadnought\" */\n    tag_373:\n        /* \"StarForgeUnitNFT.sol\":305:5442  contract StarForgeUnitNFT is ERC721, Ownable {... */\n      mload(0x40)\n      tag_376\n      0x40\n      dup3\n      tag_9\n      jump\t// in\n    tag_376:\n      0x0b\n      dup2\n      mstore\n      shl(0xaa, 0x111c9958591b9bdd59da1d)\n      0x20\n      dup3\n      add\n      mstore\n        /* \"StarForgeUnitNFT.sol\":4119:4139  return \"Dreadnought\" */\n      swap1\n      jump\t// out\n        /* \"StarForgeUnitNFT.sol\":4032:4076  if (c == UnitClass.Cruiser) return \"Cruiser\" */\n    tag_371:\n        /* \"StarForgeUnitNFT.sol\":305:5442  contract StarForgeUnitNFT is ERC721, Ownable {... */\n      pop\n      mload(0x40)\n      tag_377\n      0x40\n      dup3\n      tag_9\n      jump\t// in\n    tag_377:\n      0x07\n      dup2\n      mstore\n      shl(0xc9, 0x21b93ab4b9b2b9)\n      0x20\n      dup3\n      add\n      mstore\n        /* \"StarForgeUnitNFT.sol\":4060:4076  return \"Cruiser\" */\n      swap1\n      jump\t// out\n        /* \"StarForgeUnitNFT.sol\":3977:4021  if (c == UnitClass.Fighter) return \"Fighter\" */\n    tag_369:\n        /* \"StarForgeUnitNFT.sol\":305:5442  contract StarForgeUnitNFT is ERC721, Ownable {... */\n      pop\n      mload(0x40)\n      tag_378\n      0x40\n      dup3\n      tag_9\n      jump\t// in\n    tag_378:\n      0x07\n      dup2\n      mstore\n      shl(0xc9, 0x2334b3b43a32b9)\n      0x20\n      dup3\n      add\n      mstore\n        /* \"StarForgeUnitNFT.sol\":4005:4021  return \"Fighter\" */\n      swap1\n      jump\t// out\n        /* \"StarForgeUnitNFT.sol\":3453:3671  function _getFactionName(Faction f) internal pure returns (string memory) {... */\n    tag_20:\n        /* \"StarForgeUnitNFT.sol\":305:5442  contract StarForgeUnitNFT is ERC721, Ownable {... */\n      tag_379\n      dup2\n      tag_4\n      jump\t// in\n    tag_379:\n        /* \"StarForgeUnitNFT.sol\":3542:3561  f == Faction.Empire */\n      dup1\n      iszero\n        /* \"StarForgeUnitNFT.sol\":3538:3578  if (f == Faction.Empire) return \"Empire\" */\n      tag_380\n      jumpi\n        /* \"StarForgeUnitNFT.sol\":305:5442  contract StarForgeUnitNFT is ERC721, Ownable {... */\n      0x01\n      swap1\n      tag_382\n      dup2\n      tag_4\n      jump\t// in\n    tag_382:\n        /* \"StarForgeUnitNFT.sol\":3593:3614  f == Faction.Voidborn */\n      eq\n        /* \"StarForgeUnitNFT.sol\":3589:3633  if (f == Faction.Voidborn) return \"Voidborn\" */\n      tag_383\n      jumpi\n        /* \"StarForgeUnitNFT.sol\":305:5442  contract StarForgeUnitNFT is ERC721, Ownable {... */\n      mload(0x40)\n      tag_385\n      0x40\n      dup3\n      tag_9\n      jump\t// in\n    tag_385:\n      0x0a\n      dup2\n      mstore\n      shl(0xb0, 0x4d656368616e6f696473)\n      0x20\n      dup3\n      add\n      mstore\n        /* \"StarForgeUnitNFT.sol\":3453:3671  function _getFactionName(Faction f) internal pure returns (string memory) {... */\n      swap1\n      jump\t// out\n        /* \"StarForgeUnitNFT.sol\":3589:3633  if (f == Faction.Voidborn) return \"Voidborn\" */\n    tag_383:\n        /* \"StarForgeUnitNFT.sol\":305:5442  contract StarForgeUnitNFT is ERC721, Ownable {... */\n      mload(0x40)\n      tag_386\n      0x40\n      dup3\n      tag_9\n      jump\t// in\n    tag_386:\n      0x08\n      dup2\n      mstore\n      shl(0xc1, 0x2b37b4b23137b937)\n      0x20\n      dup3\n      add\n      mstore\n        /* \"StarForgeUnitNFT.sol\":3616:3633  return \"Voidborn\" */\n      swap1\n      jump\t// out\n        /* \"StarForgeUnitNFT.sol\":3538:3578  if (f == Faction.Empire) return \"Empire\" */\n    tag_380:\n        /* \"StarForgeUnitNFT.sol\":305:5442  contract StarForgeUnitNFT is ERC721, Ownable {... */\n      pop\n      mload(0x40)\n      tag_387\n      0x40\n      dup3\n      tag_9\n      jump\t// in\n    tag_387:\n      0x06\n      dup2\n      mstore\n      shl(0xd0, 0x456d70697265)\n      0x20\n      dup3\n      add\n      mstore\n        /* \"StarForgeUnitNFT.sol\":3563:3578  return \"Empire\" */\n      swap1\n      jump\t// out\n        /* \"StarForgeUnitNFT.sol\":3679:3884  function _getRarityName(Rarity r) internal pure returns (string memory) {... */\n    tag_21:\n        /* \"StarForgeUnitNFT.sol\":305:5442  contract StarForgeUnitNFT is ERC721, Ownable {... */\n      tag_388\n      dup2\n      tag_4\n      jump\t// in\n    tag_388:\n        /* \"StarForgeUnitNFT.sol\":3766:3784  r == Rarity.Common */\n      dup1\n      iszero\n        /* \"StarForgeUnitNFT.sol\":3762:3801  if (r == Rarity.Common) return \"Common\" */\n      tag_389\n      jumpi\n        /* \"StarForgeUnitNFT.sol\":305:5442  contract StarForgeUnitNFT is ERC721, Ownable {... */\n      0x01\n      swap1\n      tag_391\n      dup2\n      tag_4\n      jump\t// in\n    tag_391:\n        /* \"StarForgeUnitNFT.sol\":3816:3832  r == Rarity.Rare */\n      eq\n        /* \"StarForgeUnitNFT.sol\":3812:3847  if (r == Rarity.Rare) return \"Rare\" */\n      tag_392\n      jumpi\n        /* \"StarForgeUnitNFT.sol\":305:5442  contract StarForgeUnitNFT is ERC721, Ownable {... */\n      mload(0x40)\n      tag_394\n      0x40\n      dup3\n      tag_9\n      jump\t// in\n    tag_394:\n      0x09\n      dup2\n      mstore\n      shl(0xb8, 0x4c6567656e64617279)\n      0x20\n      dup3\n      add\n      mstore\n        /* \"StarForgeUnitNFT.sol\":3679:3884  function _getRarityName(Rarity r) internal pure returns (string memory) {... */\n      swap1\n      jump\t// out\n        /* \"StarForgeUnitNFT.sol\":3812:3847  if (r == Rarity.Rare) return \"Rare\" */\n    tag_392:\n        /* \"StarForgeUnitNFT.sol\":305:5442  contract StarForgeUnitNFT is ERC721, Ownable {... */\n      mload(0x40)\n      tag_395\n      0x40\n      dup3\n      tag_9\n      jump\t// in\n    tag_395:\n      0x04\n      dup2\n      mstore\n      shl(0xe0, 0x52617265)\n      0x20\n      dup3\n      add\n      mstore\n        /* \"StarForgeUnitNFT.sol\":3834:3847  return \"Rare\" */\n      swap1\n      jump\t// out\n        /* \"StarForgeUnitNFT.sol\":3762:3801  if (r == Rarity.Common) return \"Common\" */\n    tag_389:\n        /* \"StarForgeUnitNFT.sol\":305:5442  contract StarForgeUnitNFT is ERC721, Ownable {... */\n      pop\n      mload(0x40)\n      tag_396\n      0x40\n      dup3\n      tag_9\n      jump\t// in\n    tag_396:\n      0x06\n      dup2\n      mstore\n      shl(0xd1, 0x21b7b6b6b7b7)\n      0x20\n      dup3\n      add\n      mstore\n        /* \"StarForgeUnitNFT.sol\":3786:3801  return \"Common\" */\n      swap1\n      jump\t// out\n        /* \"@openzeppelin/contracts@4.9.3/utils/Base64.sol\":505:3531  function encode(bytes memory data) internal pure returns (string memory) {... */\n    tag_22:\n        /* \"StarForgeUnitNFT.sol\":305:5442  contract StarForgeUnitNFT is ERC721, Ownable {... */\n      dup1\n      mload\n        /* \"@openzeppelin/contracts@4.9.3/utils/Base64.sol\":795:811  data.length == 0 */\n      iszero\n        /* \"@openzeppelin/contracts@4.9.3/utils/Base64.sol\":791:822  if (data.length == 0) return \"\" */\n      tag_397\n      jumpi\n        /* \"StarForgeUnitNFT.sol\":305:5442  contract StarForgeUnitNFT is ERC721, Ownable {... */\n      mload(0x40)\n      tag_399\n      0x60\n      dup3\n      tag_9\n      jump\t// in\n    tag_399:\n      0x40\n      dup2\n      mstore\n      0x4142434445464748494a4b4c4d4e4f505152535455565758595a616263646566\n      0x20\n      dup3\n      add\n      mstore\n      0x6768696a6b6c6d6e6f707172737475767778797a303132333435363738392b2f\n      0x40\n      dup3\n      add\n      mstore\n      dup2\n      mload\n        /* \"@openzeppelin/contracts@4.9.3/utils/Base64.sol\":1357:1358  2 */\n      0x02\n        /* \"@openzeppelin/contracts@4.9.3/utils/Base64.sol\":345:411  \"ABCDEFGHIJKLMNOPQRSTUVWXYZabcdefghijklmnopqrstuvwxyz0123456789+/\" */\n      dup2\n      add\n      dup1\n      swap2\n      gt\n      tag_331\n      jumpi\n        /* \"@openzeppelin/contracts@4.9.3/utils/Base64.sol\":1362:1363  3 */\n      0x03\n        /* \"StarForgeUnitNFT.sol\":305:5442  contract StarForgeUnitNFT is ERC721, Ownable {... */\n      swap1\n      div\n      sub(shl(0xfe, 0x01), 0x01)\n        /* \"@openzeppelin/contracts@4.9.3/utils/Base64.sol\":345:411  \"ABCDEFGHIJKLMNOPQRSTUVWXYZabcdefghijklmnopqrstuvwxyz0123456789+/\" */\n      dup2\n      and\n      dup2\n      sub\n      tag_331\n      jumpi\n        /* \"@openzeppelin/contracts@4.9.3/utils/Base64.sol\":1326:1365  new string(4 * ((data.length + 2) / 3)) */\n      tag_404\n        /* \"@openzeppelin/contracts@4.9.3/utils/Base64.sol\":345:411  \"ABCDEFGHIJKLMNOPQRSTUVWXYZabcdefghijklmnopqrstuvwxyz0123456789+/\" */\n      swap1\n        /* \"@openzeppelin/contracts@4.9.3/utils/Base64.sol\":1357:1358  2 */\n      0x02\n        /* \"@openzeppelin/contracts@4.9.3/utils/Base64.sol\":345:411  \"ABCDEFGHIJKLMNOPQRSTUVWXYZabcdefghijklmnopqrstuvwxyz0123456789+/\" */\n      shl\n        /* \"@openzeppelin/contracts@4.9.3/utils/Base64.sol\":1326:1365  new string(4 * ((data.length + 2) / 3)) */\n      tag_17\n      jump\t// in\n    tag_404:\n        /* \"@openzeppelin/contracts@4.9.3/utils/Base64.sol\":1419:3501  assembly {... */\n      swap2\n        /* \"StarForgeUnitNFT.sol\":305:5442  contract StarForgeUnitNFT is ERC721, Ownable {... */\n      0x20\n        /* \"@openzeppelin/contracts@4.9.3/utils/Base64.sol\":1419:3501  assembly {... */\n      dup4\n      add\n      swap2\n      dup2\n      swap1\n      dup3\n      mload\n      dup4\n      add\n      swap2\n    tag_405:\n      dup3\n      dup2\n      lt\n      tag_406\n      jumpi\n      pop\n      pop\n      pop\n        /* \"@openzeppelin/contracts@4.9.3/utils/Base64.sol\":1362:1363  3 */\n      0x03\n        /* \"@openzeppelin/contracts@4.9.3/utils/Base64.sol\":1419:3501  assembly {... */\n      swap1\n      mload\n      mod\n        /* \"@openzeppelin/contracts@4.9.3/utils/Base64.sol\":1362:1363  3 */\n      dup1\n        /* \"@openzeppelin/contracts@4.9.3/utils/Base64.sol\":1419:3501  assembly {... */\n      0x01\n        /* \"@openzeppelin/contracts@4.9.3/utils/Base64.sol\":1362:1363  3 */\n      eq\n      tag_408\n      jumpi\n        /* \"@openzeppelin/contracts@4.9.3/utils/Base64.sol\":1419:3501  assembly {... */\n      0x02\n      eq\n      tag_410\n      jumpi\n        /* \"@openzeppelin/contracts@4.9.3/utils/Base64.sol\":3511:3524  return result */\n      pop\n        /* \"@openzeppelin/contracts@4.9.3/utils/Base64.sol\":505:3531  function encode(bytes memory data) internal pure returns (string memory) {... */\n      swap1\n      jump\t// out\n        /* \"@openzeppelin/contracts@4.9.3/utils/Base64.sol\":1419:3501  assembly {... */\n    tag_410:\n      0x3d\n      swap1\n      not(0x00)\n      add\n      mstore8\n        /* \"@openzeppelin/contracts@4.9.3/utils/Base64.sol\":505:3531  function encode(bytes memory data) internal pure returns (string memory) {... */\n      swap1\n      jump\t// out\n        /* \"@openzeppelin/contracts@4.9.3/utils/Base64.sol\":1419:3501  assembly {... */\n    tag_408:\n      pop\n      0x3d\n      swap1\n      dup2\n      not(0x00)\n      dup3\n      add\n      mstore8\n      not(0x01)\n      add\n      mstore8\n        /* \"@openzeppelin/contracts@4.9.3/utils/Base64.sol\":505:3531  function encode(bytes memory data) internal pure returns (string memory) {... */\n      swap1\n      jump\t// out\n        /* \"@openzeppelin/contracts@4.9.3/utils/Base64.sol\":1419:3501  assembly {... */\n    tag_406:\n        /* \"@openzeppelin/contracts@4.9.3/utils/Base64.sol\":1362:1363  3 */\n      0x03\n        /* \"@openzeppelin/contracts@4.9.3/utils/Base64.sol\":1337:1338  4 */\n      0x04\n        /* \"@openzeppelin/contracts@4.9.3/utils/Base64.sol\":1419:3501  assembly {... */\n      swap2\n      swap6\n      swap3\n      swap4\n      swap6\n      add\n      swap2\n      0x01\n      0x3f\n      dup5\n      mload\n      dup3\n      dup3\n      dup3\n      0x12\n      shr\n      and\n      dup9\n      add\n      add\n      mload\n      dup5\n      mstore8\n      dup3\n      dup3\n      dup3\n      0x0c\n      shr\n      and\n      dup9\n      add\n      add\n      mload\n      dup4\n      dup6\n      add\n      mstore8\n      dup3\n      dup3\n      dup3\n      0x06\n      shr\n      and\n      dup9\n      add\n      add\n      mload\n        /* \"@openzeppelin/contracts@4.9.3/utils/Base64.sol\":1357:1358  2 */\n      0x02\n        /* \"@openzeppelin/contracts@4.9.3/utils/Base64.sol\":1419:3501  assembly {... */\n      dup6\n      add\n      mstore8\n      and\n      dup6\n      add\n      add\n      mload\n        /* \"@openzeppelin/contracts@4.9.3/utils/Base64.sol\":1362:1363  3 */\n      0x03\n        /* \"@openzeppelin/contracts@4.9.3/utils/Base64.sol\":1419:3501  assembly {... */\n      dup3\n      add\n      mstore8\n      add\n      swap4\n      swap2\n      swap1\n      jump(tag_405)\n        /* \"@openzeppelin/contracts@4.9.3/utils/Base64.sol\":791:822  if (data.length == 0) return \"\" */\n    tag_397:\n        /* \"StarForgeUnitNFT.sol\":305:5442  contract StarForgeUnitNFT is ERC721, Ownable {... */\n      pop\n      mload(0x40)\n      tag_412\n      0x20\n      dup3\n      tag_9\n      jump\t// in\n    tag_412:\n        /* \"@openzeppelin/contracts@4.9.3/utils/Base64.sol\":810:811  0 */\n      0x00\n        /* \"StarForgeUnitNFT.sol\":305:5442  contract StarForgeUnitNFT is ERC721, Ownable {... */\n      dup2\n      mstore\n        /* \"@openzeppelin/contracts@4.9.3/utils/Base64.sol\":813:822  return \"\" */\n      swap1\n      jump\t// out\n        /* \"StarForgeUnitNFT.sol\":305:5442  contract StarForgeUnitNFT is ERC721, Ownable {... */\n    tag_24:\n      0x80\n      swap1\n      0x20\n      dup2\n      mstore\n      0x32\n      0x20\n      dup3\n      add\n      mstore\n      0x4552433732313a207472616e7366657220746f206e6f6e204552433732315265\n      0x40\n      dup3\n      add\n      mstore\n      shl(0x71, 0x31b2b4bb32b91034b6b83632b6b2b73a32b9)\n      0x60\n      dup3\n      add\n      mstore\n      add\n      swap1\n      jump\t// out\n    tag_25:\n      iszero\n      tag_413\n      jumpi\n      jump\t// out\n    tag_413:\n      mload(0x40)\n      shl(0xe5, 0x461bcd)\n      dup2\n      mstore\n      0x20\n      0x04\n      dup3\n      add\n      mstore\n      0x1c\n      0x24\n      dup3\n      add\n      mstore\n      0x4552433732313a20746f6b656e20616c7265616479206d696e74656400000000\n      0x44\n      dup3\n      add\n      mstore\n      0x64\n      swap1\n      revert\n        /* \"@openzeppelin/contracts@4.9.3/token/ERC721/ERC721.sol\":13925:14756  function _checkOnERC721Received(... */\n    tag_26:\n      swap2\n        /* \"@openzeppelin/contracts@4.9.3/utils/Address.sol\":1702:1721  account.code.length */\n      dup3\n      extcodesize\n        /* \"@openzeppelin/contracts@4.9.3/utils/Address.sol\":1702:1725  account.code.length > 0 */\n      iszero\n        /* \"@openzeppelin/contracts@4.9.3/utils/Address.sol\":1702:1721  account.code.length */\n      tag_415\n      jumpi\n        /* \"StarForgeUnitNFT.sol\":305:5442  contract StarForgeUnitNFT is ERC721, Ownable {... */\n      tag_417\n      swap3\n      0x20\n      swap3\n      0x00\n      mload(0x40)\n      dup1\n      swap7\n      dup2\n      swap6\n      dup3\n      swap5\n      shl(0xe1, 0x0a85bd01)\n        /* \"@openzeppelin/contracts@4.9.3/token/ERC721/ERC721.sol\":14129:14200  IERC721Receiver(to).onERC721Received(_msgSender(), from, tokenId, data) */\n      dup5\n      mstore\n        /* \"@openzeppelin/contracts@4.9.3/utils/Context.sol\":719:729  msg.sender */\n      caller\n        /* \"@openzeppelin/contracts@4.9.3/token/ERC721/ERC721.sol\":14129:14200  IERC721Receiver(to).onERC721Received(_msgSender(), from, tokenId, data) */\n      0x04\n      dup6\n      add\n        /* \"StarForgeUnitNFT.sol\":305:5442  contract StarForgeUnitNFT is ERC721, Ownable {... */\n      mstore\n      dup5\n      0x24\n      dup6\n      add\n      mstore\n      0x44\n      dup5\n      add\n      mstore\n      0x80\n      0x64\n      dup5\n      add\n      mstore\n      0x84\n      dup4\n      add\n      swap1\n      tag_1\n      jump\t// in\n    tag_417:\n        /* \"@openzeppelin/contracts@4.9.3/token/ERC721/ERC721.sol\":14129:14200  IERC721Receiver(to).onERC721Received(_msgSender(), from, tokenId, data) */\n      sub\n      swap3\n      sub(shl(0xa0, 0x01), 0x01)\n        /* \"StarForgeUnitNFT.sol\":305:5442  contract StarForgeUnitNFT is ERC721, Ownable {... */\n      and\n        /* \"@openzeppelin/contracts@4.9.3/token/ERC721/ERC721.sol\":14129:14200  IERC721Receiver(to).onERC721Received(_msgSender(), from, tokenId, data) */\n      gas\n      call\n        /* \"StarForgeUnitNFT.sol\":305:5442  contract StarForgeUnitNFT is ERC721, Ownable {... */\n      0x00\n      swap2\n        /* \"@openzeppelin/contracts@4.9.3/token/ERC721/ERC721.sol\":14129:14200  IERC721Receiver(to).onERC721Received(_msgSender(), from, tokenId, data) */\n      dup2\n      tag_418\n      jumpi\n        /* \"@openzeppelin/contracts@4.9.3/token/ERC721/ERC721.sol\":14090:14750  if (to.isContract()) {... */\n    tag_419:\n      pop\n        /* \"@openzeppelin/contracts@4.9.3/token/ERC721/ERC721.sol\":14125:14698  try IERC721Receiver(to).onERC721Received(_msgSender(), from, tokenId, data) returns (bytes4 retval) {... */\n      tag_420\n      jumpi\n        /* \"StarForgeUnitNFT.sol\":305:5442  contract StarForgeUnitNFT is ERC721, Ownable {... */\n      jumpi(tag_422, iszero(returndatasize))\n      returndatasize\n      tag_424\n      dup2\n      tag_10\n      jump\t// in\n    tag_424:\n      swap1\n      tag_425\n      mload(0x40)\n      swap3\n      dup4\n      tag_9\n      jump\t// in\n    tag_425:\n      dup2\n      mstore\n      returndatasize\n      0x00\n      0x20\n      dup4\n      add\n      returndatacopy\n    tag_426:\n      dup1\n      mload\n      swap1\n        /* \"@openzeppelin/contracts@4.9.3/token/ERC721/ERC721.sol\":14367:14385  reason.length == 0 */\n      dup2\n      tag_427\n      jumpi\n        /* \"StarForgeUnitNFT.sol\":305:5442  contract StarForgeUnitNFT is ERC721, Ownable {... */\n      mload(0x40)\n      shl(0xe5, 0x461bcd)\n        /* \"@openzeppelin/contracts@4.9.3/token/ERC721/ERC721.sol\":14409:14469  revert(\"ERC721: transfer to non ERC721Receiver implementer\") */\n      dup2\n      mstore\n        /* \"StarForgeUnitNFT.sol\":305:5442  contract StarForgeUnitNFT is ERC721, Ownable {... */\n      dup1\n        /* \"@openzeppelin/contracts@4.9.3/token/ERC721/ERC721.sol\":14409:14469  revert(\"ERC721: transfer to non ERC721Receiver implementer\") */\n      tag_345\n        /* \"@openzeppelin/contracts@4.9.3/token/ERC721/ERC721.sol\":14129:14200  IERC721Receiver(to).onERC721Received(_msgSender(), from, tokenId, data) */\n      0x04\n        /* \"@openzeppelin/contracts@4.9.3/token/ERC721/ERC721.sol\":14409:14469  revert(\"ERC721: transfer to non ERC721Receiver implementer\") */\n      dup3\n      add\n      tag_24\n      jump\t// in\n        /* \"@openzeppelin/contracts@4.9.3/token/ERC721/ERC721.sol\":14363:14684  if (reason.length == 0) {... */\n    tag_427:\n        /* \"StarForgeUnitNFT.sol\":305:5442  contract StarForgeUnitNFT is ERC721, Ownable {... */\n      0x20\n        /* \"@openzeppelin/contracts@4.9.3/token/ERC721/ERC721.sol\":14571:14666  assembly {... */\n      add\n      revert\n        /* \"StarForgeUnitNFT.sol\":305:5442  contract StarForgeUnitNFT is ERC721, Ownable {... */\n    tag_422:\n      0x60\n      jump(tag_426)\n        /* \"@openzeppelin/contracts@4.9.3/token/ERC721/ERC721.sol\":14125:14698  try IERC721Receiver(to).onERC721Received(_msgSender(), from, tokenId, data) returns (bytes4 retval) {... */\n    tag_420:\n      not(sub(shl(0xe0, 0x01), 0x01))\n        /* \"StarForgeUnitNFT.sol\":305:5442  contract StarForgeUnitNFT is ERC721, Ownable {... */\n      and\n      shl(0xe1, 0x0a85bd01)\n        /* \"@openzeppelin/contracts@4.9.3/token/ERC721/ERC721.sol\":14250:14301  retval == IERC721Receiver.onERC721Received.selector */\n      eq\n      swap1\n        /* \"@openzeppelin/contracts@4.9.3/token/ERC721/ERC721.sol\":14243:14301  return retval == IERC721Receiver.onERC721Received.selector */\n      jump\t// out\n        /* \"@openzeppelin/contracts@4.9.3/token/ERC721/ERC721.sol\":14129:14200  IERC721Receiver(to).onERC721Received(_msgSender(), from, tokenId, data) */\n    tag_418:\n      swap1\n      swap2\n      pop\n        /* \"StarForgeUnitNFT.sol\":305:5442  contract StarForgeUnitNFT is ERC721, Ownable {... */\n      0x20\n        /* \"@openzeppelin/contracts@4.9.3/token/ERC721/ERC721.sol\":14129:14200  IERC721Receiver(to).onERC721Received(_msgSender(), from, tokenId, data) */\n      dup2\n      returndatasize\n        /* \"StarForgeUnitNFT.sol\":305:5442  contract StarForgeUnitNFT is ERC721, Ownable {... */\n      0x20\n        /* \"@openzeppelin/contracts@4.9.3/token/ERC721/ERC721.sol\":14129:14200  IERC721Receiver(to).onERC721Received(_msgSender(), from, tokenId, data) */\n      gt\n      tag_430\n      jumpi\n    tag_431:\n      dup2\n      tag_432\n        /* \"StarForgeUnitNFT.sol\":305:5442  contract StarForgeUnitNFT is ERC721, Ownable {... */\n      0x20\n        /* \"@openzeppelin/contracts@4.9.3/token/ERC721/ERC721.sol\":14129:14200  IERC721Receiver(to).onERC721Received(_msgSender(), from, tokenId, data) */\n      swap4\n      dup4\n      tag_9\n      jump\t// in\n    tag_432:\n      dup2\n      add\n        /* \"StarForgeUnitNFT.sol\":305:5442  contract StarForgeUnitNFT is ERC721, Ownable {... */\n      sub\n      slt\n      tag_77\n      jumpi\n      mload\n      not(sub(shl(0xe0, 0x01), 0x01))\n      dup2\n      and\n      dup2\n      sub\n      tag_77\n      jumpi\n        /* \"@openzeppelin/contracts@4.9.3/token/ERC721/ERC721.sol\":14129:14200  IERC721Receiver(to).onERC721Received(_msgSender(), from, tokenId, data) */\n      swap1\n      0x00\n      jump(tag_419)\n    tag_430:\n      returndatasize\n      swap2\n      pop\n      jump(tag_431)\n        /* \"@openzeppelin/contracts@4.9.3/token/ERC721/ERC721.sol\":14090:14750  if (to.isContract()) {... */\n    tag_415:\n        /* \"@openzeppelin/contracts@4.9.3/token/ERC721/ERC721.sol\":14728:14739  return true */\n      pop\n      pop\n      pop\n        /* \"@openzeppelin/contracts@4.9.3/token/ERC721/ERC721.sol\":14735:14739  true */\n      0x01\n        /* \"@openzeppelin/contracts@4.9.3/token/ERC721/ERC721.sol\":14728:14739  return true */\n      swap1\n      jump\t// out\n\n    auxdata: 0xa2646970667358221220e9ee49969bd99a33864432c23164e6eb36bfd2bfb6c0d7372354d0ef18e22eb764736f6c634300081e0033\n}\n",
				"bytecode": {
					"linkReferences": {},
					"object": "60806040523461036857604080519081016001600160401b0381118282101761027e576040908152601582527f536f6d6e69612053746172466f72676520556e69740000000000000000000000602083015280519081016001600160401b0381118282101761027e57604052600681526514d19553925560d21b602082015281516001600160401b03811161027e575f54600181811c9116801561035e575b602082101461026057601f81116102fc575b50602092601f821160011461029d57928192935f92610292575b50508160011b915f199060031b1c1916175f555b80516001600160401b03811161027e57600154600181811c91168015610274575b602082101461026057601f81116101fd575b50602091601f821160011461019d579181925f92610192575b50508160011b915f199060031b1c1916176001555b60068054336001600160a01b03198216811790925560405191906001600160a01b03167f8be0079c531659141344cd1fd0a4f28419497f9722a3daafe3b4186f6b6457e05f80a3611c70908161036d8239f35b015190505f8061012a565b601f1982169260015f52805f20915f5b8581106101e5575083600195106101cd575b505050811b0160015561013f565b01515f1960f88460031b161c191690555f80806101bf565b919260206001819286850151815501940192016101ad565b60015f527fb10e2d527612073b26eecdfd717e6a320cf44b4afac2b0732d9fcbe2b7fa0cf6601f830160051c81019160208410610256575b601f0160051c01905b81811061024b5750610111565b5f815560010161023e565b9091508190610235565b634e487b7160e01b5f52602260045260245ffd5b90607f16906100ff565b634e487b7160e01b5f52604160045260245ffd5b015190505f806100ca565b601f198216935f8052805f20915f5b8681106102e457508360019596106102cc575b505050811b015f556100de565b01515f1960f88460031b161c191690555f80806102bf565b919260206001819286850151815501940192016102ac565b5f80527f290decd9548b62a8d60345a988386fc84ba6bc95484008f6362f93160ef3e563601f830160051c81019160208410610354575b601f0160051c01905b81811061034957506100b0565b5f815560010161033c565b9091508190610333565b90607f169061009e565b5f80fdfe6080806040526004361015610012575f80fd5b5f3560e01c90816301ffc9a7146111a05750806306fdde03146110e8578063081812fc14611094578063095ea7b31461102b5780631655bfbe14610ed557806318160ddd14610eb857806323b872dd14610e70578063405ebd4d14610e7557806342842e0e14610e705780636352211e14610e3357806370a0823114610d9e578063715018a614610d4357806371dec08814610b565780637f84a5a314610a295780638da5cb5b14610a0157806395d89b41146108f9578063a22cb46514610885578063b88d4fde14610804578063c87b56dd146102e1578063d3f33009146102b9578063e5fba6cc1461023b578063e985e9c5146101e45763f2fde38b14610119575f80fd5b346101e05760203660031901126101e05761013261122f565b61013a61145a565b6001600160a01b0316801561018c57600680546001600160a01b0319811683179091556001600160a01b03167f8be0079c531659141344cd1fd0a4f28419497f9722a3daafe3b4186f6b6457e05f80a3005b60405162461bcd60e51b815260206004820152602660248201527f4f776e61626c653a206e6577206f776e657220697320746865207a65726f206160448201526564647265737360d01b6064820152608490fd5b5f80fd5b346101e05760403660031901126101e0576101fd61122f565b610205611245565b9060018060a01b03165f52600560205260405f209060018060a01b03165f52602052602060ff60405f2054166040519015158152f35b346101e05760203660031901126101e0576004355f52600860205260c060405f205460ff80821691818160081c16604051936102768161125b565b84526102818161125b565b602084015261029860408401838360101c16611265565b818160181c166060840152818160201c16608084015260281c1660a0820152f35b346101e0575f3660031901126101e0576009546040516001600160a01b039091168152602090f35b346101e05760203660031901126101e0576004355f818152600260205260409020546001600160a01b0316156107bf57805f52600860205260405f20906040519161032b83611323565b549160ff831661033a8161125b565b815260ff8360081c169260208201936103528161125b565b8452604082019261036960ff8360101c1685611391565b6060830160ff8360181c168152610399608085019260ff8560201c16845260ff60a087019560281c16855261161d565b94805160048110156107ab576103ae90611765565b966103c286516103bd8161125b565b611820565b956103f26103e76103dc84516103d78161125b565b6118b3565b92516103bd8161125b565b92516103d78161125b565b925160048110156107ab5761040690611765565b935160ff166104149061161d565b945160ff166104229061161d565b955160ff166104309061161d565b96604051998a9960208b017f7b226e616d65223a2253746172466f72676520556e697420230000000000000090528051602081920160398d015e61088b60f21b6039918c01918201527f226465736372697074696f6e223a224f6e2d636861696e20756e69742066726f603b8201527f6d20536f6d6e69612053746172466f726765202d204563686f206f6620447265605b82015264185b5cc88b60da1b607b8201527f22696d616765223a2268747470733a2f2f796f75722d63646e2e636f6d2f756e6080820152636974732f60e01b60a0820152815191829060200160a483015e01603901606b8101605f60f81b905281516020819301606c83015e01606b0160018101605f60f81b905281516020819301600283015e01600101650b9c1b99c88b60d21b60018201526d2261747472696275746573223a5b60901b6007820152601581017f7b2274726169745f74797065223a2246616374696f6e222c2276616c7565223a9052601160f91b603582015281516020819301603683015e0160010162089f4b60ea1b6035820152603881017f7b2274726169745f74797065223a22526172697479222c2276616c7565223a22905281516020819301605883015e0160350162089f4b60ea1b6023820152602681017f7b2274726169745f74797065223a22436c617373222c2276616c7565223a2200905281516020819301604583015e0160230162089f4b60ea1b6022820152602581017f7b2274726169745f74797065223a2241747461636b222c2276616c7565223a00905281516020819301604483015e0160220160228101611f4b60f21b9052602481017f7b2274726169745f74797065223a22446566656e7365222c2276616c7565223a905281516020819301604483015e0160220160228101611f4b60f21b9052602481017f7b2274726169745f74797065223a225370656564222c2276616c7565223a0000905281516020819301604283015e0160220160208101607d60f81b905260218101615d7d60f01b905203602001601c19810182526003016107329082611353565b61073b90611941565b6040518091602082017f646174613a6170706c69636174696f6e2f6a736f6e3b6261736536342c000000905280516020819201603d84015e8101603d81015f905203603d01601f19810182526107919082611353565b604051809160208252602082016107a79161120b565b0390f35b634e487b7160e01b5f52602160045260245ffd5b60405162461bcd60e51b815260206004820152601f60248201527f55524920717565727920666f72206e6f6e6578697374656e7420746f6b656e006044820152606490fd5b346101e05760803660031901126101e05761081d61122f565b50610826611245565b5060643567ffffffffffffffff81116101e057366023820112156101e05780600401359061085382611375565b916108616040519384611353565b80835236602482840101116101e0575f92816024602094018483013701015261139d565b346101e05760403660031901126101e05761089e61122f565b50602435801515036101e05760405162461bcd60e51b815260206004820152602160248201527f536f756c626f756e643a20617070726f76616c73206172652064697361626c656044820152601960fa1b6064820152608490fd5b346101e0575f3660031901126101e0576040515f6001548060011c906001811680156109f7575b6020831081146109e3578285529081156109bf5750600114610961575b6107a78361094d81850382611353565b60405191829160208352602083019061120b565b91905060015f527fb10e2d527612073b26eecdfd717e6a320cf44b4afac2b0732d9fcbe2b7fa0cf6915f905b8082106109a55750909150810160200161094d61093d565b91926001816020925483858801015201910190929161098d565b60ff191660208086019190915291151560051b8401909101915061094d905061093d565b634e487b7160e01b5f52602260045260245ffd5b91607f1691610920565b346101e0575f3660031901126101e0576006546040516001600160a01b039091168152602090f35b346101e057610a37366112b0565b9390929495610a4461145a565b610a5d6007548092610a5582611438565b6007556114b2565b60405196610a6a88611323565b610a738161125b565b87526020870191610a838161125b565b8252610a93604088019687611391565b60ff606088019316835260ff608088019416845260ff60a08801951685525f52600860205260405f20955191610ac88361125b565b610ad18361125b565b8654915195610adf8761125b565b610ae88761125b565b519160048310156107ab5760ff60281b64ff0000000063ff00000062ff0000945160181b16965160201b16965160281b169661ff0060ff60281b199564ff00000000199360ff63ff0000001992169062ffffff191617169160081b1617169160101b16171617171790555f80f35b346101e057610b64366112b0565b6009549096949591949293906001600160a01b03163303610cfe5760075495610b8c87611438565b600755610b9987856114b2565b60405192610ba684611323565b610baf8161125b565b8084526020840193610bc08361125b565b82855260408101610bd18582611391565b60ff606083019816885260ff608083019916895260ff60a083019b168b52895f52600860205260405f2091519a610c078c61125b565b610c108c61125b565b8254965191610c1e8361125b565b610c278361125b565b519960048b10156107ab5760209c7fb982bc3626c07206fe59e1efec7a6f7dab33900852303a596c52f6ad1c86aa809b62ff0000610cf59a60ff60281b64ff0000000060a09f63ff000000905160181b16965160201b16965160281b169661ff0060ff60281b199564ff00000000199360ff63ff0000001992169062ffffff191617169160081b1617169160101b161716171717905560405194600180881b031685528789860152610cd88161125b565b6040850152610ce68161125b565b60608401526080830190611265565ba1604051908152f35b60405162461bcd60e51b815260206004820152601b60248201527f4f6e6c792047616d6520636f6e74726163742063616e206d696e7400000000006044820152606490fd5b346101e0575f3660031901126101e057610d5b61145a565b600680546001600160a01b031981169091555f906001600160a01b03167f8be0079c531659141344cd1fd0a4f28419497f9722a3daafe3b4186f6b6457e08280a3005b346101e05760203660031901126101e0576001600160a01b03610dbf61122f565b168015610ddc575f526003602052602060405f2054604051908152f35b60405162461bcd60e51b815260206004820152602960248201527f4552433732313a2061646472657373207a65726f206973206e6f7420612076616044820152683634b21037bbb732b960b91b6064820152608490fd5b346101e05760203660031901126101e0576004355f526002602052602060018060a01b0360405f205416610e688115156113ec565b604051908152f35b611272565b346101e05760203660031901126101e057610e8e61122f565b610e9661145a565b600980546001600160a01b0319166001600160a01b0392909216919091179055005b346101e0575f3660031901126101e0576020600754604051908152f35b346101e05760203660031901126101e0576004355f60a0604051610ef881611323565b8281528260208201528260408201528260608201528260808201520152805f52600260205260018060a01b0360405f20541615610fef575f52600860205260c060405f2060ff60405191610f4b83611323565b54818116610f588161125b565b835281808260081c166020850190610f6f8161125b565b81528160408601610f85828660101c1682611391565b610fd86060880191838760181c1683526080890194848860201c1686528460a08b019860281c1688526040519951610fbc8161125b565b8a5251610fc88161125b565b60208a0152516040890190611265565b5116606086015251166080840152511660a0820152f35b60405162461bcd60e51b8152602060048201526014602482015273151bdad95b88191bd95cc81b9bdd08195e1a5cdd60621b6044820152606490fd5b346101e05760403660031901126101e05761104461122f565b5060405162461bcd60e51b815260206004820152602160248201527f536f756c626f756e643a20617070726f76616c73206172652064697361626c656044820152601960fa1b6064820152608490fd5b346101e05760203660031901126101e0576004355f818152600260205260409020546110ca906001600160a01b031615156113ec565b5f526004602052602060018060a01b0360405f205416604051908152f35b346101e0575f3660031901126101e0576040515f5f548060011c90600181168015611196575b6020831081146109e3578285529081156109bf575060011461113a576107a78361094d81850382611353565b5f8080527f290decd9548b62a8d60345a988386fc84ba6bc95484008f6362f93160ef3e563939250905b80821061117c5750909150810160200161094d61093d565b919260018160209254838588010152019101909291611164565b91607f169161110e565b346101e05760203660031901126101e0576004359063ffffffff60e01b82168092036101e0576020916380ac58cd60e01b81149081156111fa575b81156111e9575b5015158152f35b6301ffc9a760e01b149050836111e2565b635b5e139f60e01b811491506111db565b805180835260209291819084018484015e5f828201840152601f01601f1916010190565b600435906001600160a01b03821682036101e057565b602435906001600160a01b03821682036101e057565b600311156107ab57565b9060048210156107ab5752565b346101e05760603660031901126101e0576004356001600160a01b03811681036101e057506024356001600160a01b03811681036101e0575061139d565b60e09060031901126101e0576004356001600160a01b03811681036101e0579060243560038110156101e0579060443560038110156101e0579060643560048110156101e0579060843560ff811681036101e0579060a43560ff811681036101e0579060c43560ff811681036101e05790565b60c0810190811067ffffffffffffffff82111761133f57604052565b634e487b7160e01b5f52604160045260245ffd5b90601f8019910116810190811067ffffffffffffffff82111761133f57604052565b67ffffffffffffffff811161133f57601f01601f191660200190565b60048210156107ab5752565b60405162461bcd60e51b815260206004820152602160248201527f536f756c626f756e643a207472616e7366657273206172652064697361626c656044820152601960fa1b6064820152608490fd5b156113f357565b60405162461bcd60e51b815260206004820152601860248201527f4552433732313a20696e76616c696420746f6b656e20494400000000000000006044820152606490fd5b5f1981146114465760010190565b634e487b7160e01b5f52601160045260245ffd5b6006546001600160a01b0316330361146e57565b606460405162461bcd60e51b815260206004820152602060248201527f4f776e61626c653a2063616c6c6572206973206e6f7420746865206f776e65726044820152fd5b6040516020939290916114c58584611353565b5f83526001600160a01b03811680156115a857829060026115849697611507611501855f52600260205260018060a01b0360405f205416151590565b15611ad7565b5f84815260026020526040902054611529906001600160a01b03161515611501565b825f526003815260405f2060018154019055835f525260405f20816bffffffffffffffffffffffff60a01b8254161790555f7fddf252ad1be2c89b69c2b068fc378daa952ba7f163c4a11628f55a4df523b3ef8180a4611b23565b1561158b57565b60405162461bcd60e51b8152806115a460048201611a84565b0390fd5b6064866040519062461bcd60e51b825280600483015260248201527f4552433732313a206d696e7420746f20746865207a65726f20616464726573736044820152fd5b906115f582611375565b6116026040519182611353565b8281528092611613601f1991611375565b0190602036910137565b805f9172184f03e93ff9f4daa797ed6e38ed64bf6a1f0160401b821015611742575b806d04ee2d6d415b85acef8100000000600a921015611727575b662386f26fc10000811015611713575b6305f5e100811015611702575b6127108110156116f3575b60648110156116e5575b10156116da575b600a60216116a2600185016115eb565b938401015b5f1901916f181899199a1a9b1b9c1cb0b131b232b360811b8282061a83530480156116d557600a90916116a7565b505090565b600190910190611692565b60646002910493019261168b565b61271060049104930192611681565b6305f5e10060089104930192611676565b662386f26fc1000060109104930192611669565b6d04ee2d6d415b85acef810000000060209104930192611659565b506040915072184f03e93ff9f4daa797ed6e38ed64bf6a1f0160401b810461163f565b60048110156107ab5780156117fa57600181146117d4576002146117ab57604051611791604082611353565b600a81526944726f6e65537761726d60b01b602082015290565b6040516117b9604082611353565b600b81526a111c9958591b9bdd59da1d60aa1b602082015290565b506040516117e3604082611353565b600781526621b93ab4b9b2b960c91b602082015290565b50604051611809604082611353565b60078152662334b3b43a32b960c91b602082015290565b6118298161125b565b801561188e5760019061183b8161125b565b146118685760405161184e604082611353565b600a8152694d656368616e6f69647360b01b602082015290565b604051611876604082611353565b60088152672b37b4b23137b93760c11b602082015290565b5060405161189d604082611353565b6006815265456d7069726560d01b602082015290565b6118bc8161125b565b801561191c576001906118ce8161125b565b146118fa576040516118e1604082611353565b60098152684c6567656e6461727960b81b602082015290565b604051611908604082611353565b60048152635261726560e01b602082015290565b5060405161192b604082611353565b600681526521b7b6b6b7b760d11b602082015290565b805115611a6f57604051611956606082611353565b604081527f4142434445464748494a4b4c4d4e4f505152535455565758595a61626364656660208201527f6768696a6b6c6d6e6f707172737475767778797a303132333435363738392b2f604082015281516002810180911161144657600390046001600160fe1b0381168103611446576119d39060021b6115eb565b916020830191819082518301915b828110611a1f57505050600390510680600114611a0d57600214611a03575090565b603d905f19015390565b50603d90815f19820153600119015390565b60036004919592939501916001603f845182828260121c16880101518453828282600c1c16880101518385015382828260061c1688010151600285015316850101516003820153019391906119e1565b50604051611a7e602082611353565b5f815290565b60809060208152603260208201527f4552433732313a207472616e7366657220746f206e6f6e20455243373231526560408201527131b2b4bb32b91034b6b83632b6b2b73a32b960711b60608201520190565b15611ade57565b60405162461bcd60e51b815260206004820152601c60248201527f4552433732313a20746f6b656e20616c7265616479206d696e746564000000006044820152606490fd5b91823b15611c3257611b68926020925f604051809681958294630a85bd0160e11b8452336004850152846024850152604484015260806064840152608483019061120b565b03926001600160a01b03165af15f9181611bed575b50611bd7573d15611bd0573d611b9281611375565b90611ba06040519283611353565b81523d5f602083013e5b80519081611bcb5760405162461bcd60e51b8152806115a460048201611a84565b602001fd5b6060611baa565b6001600160e01b031916630a85bd0160e11b1490565b9091506020813d602011611c2a575b81611c0960209383611353565b810103126101e057516001600160e01b0319811681036101e057905f611b7d565b3d9150611bfc565b50505060019056fea2646970667358221220e9ee49969bd99a33864432c23164e6eb36bfd2bfb6c0d7372354d0ef18e22eb764736f6c634300081e0033",
					"opcodes": "PUSH1 0x80 PUSH1 0x40 MSTORE CALLVALUE PUSH2 0x368 JUMPI PUSH1 0x40 DUP1 MLOAD SWAP1 DUP2 ADD PUSH1 0x1 PUSH1 0x1 PUSH1 0x40 SHL SUB DUP2 GT DUP3 DUP3 LT OR PUSH2 0x27E JUMPI PUSH1 0x40 SWAP1 DUP2 MSTORE PUSH1 0x15 DUP3 MSTORE PUSH32 0x536F6D6E69612053746172466F72676520556E69740000000000000000000000 PUSH1 0x20 DUP4 ADD MSTORE DUP1 MLOAD SWAP1 DUP2 ADD PUSH1 0x1 PUSH1 0x1 PUSH1 0x40 SHL SUB DUP2 GT DUP3 DUP3 LT OR PUSH2 0x27E JUMPI PUSH1 0x40 MSTORE PUSH1 0x6 DUP2 MSTORE PUSH6 0x14D195539255 PUSH1 0xD2 SHL PUSH1 0x20 DUP3 ADD MSTORE DUP2 MLOAD PUSH1 0x1 PUSH1 0x1 PUSH1 0x40 SHL SUB DUP2 GT PUSH2 0x27E JUMPI PUSH0 SLOAD PUSH1 0x1 DUP2 DUP2 SHR SWAP2 AND DUP1 ISZERO PUSH2 0x35E JUMPI JUMPDEST PUSH1 0x20 DUP3 LT EQ PUSH2 0x260 JUMPI PUSH1 0x1F DUP2 GT PUSH2 0x2FC JUMPI JUMPDEST POP PUSH1 0x20 SWAP3 PUSH1 0x1F DUP3 GT PUSH1 0x1 EQ PUSH2 0x29D JUMPI SWAP3 DUP2 SWAP3 SWAP4 PUSH0 SWAP3 PUSH2 0x292 JUMPI JUMPDEST POP POP DUP2 PUSH1 0x1 SHL SWAP2 PUSH0 NOT SWAP1 PUSH1 0x3 SHL SHR NOT AND OR PUSH0 SSTORE JUMPDEST DUP1 MLOAD PUSH1 0x1 PUSH1 0x1 PUSH1 0x40 SHL SUB DUP2 GT PUSH2 0x27E JUMPI PUSH1 0x1 SLOAD PUSH1 0x1 DUP2 DUP2 SHR SWAP2 AND DUP1 ISZERO PUSH2 0x274 JUMPI JUMPDEST PUSH1 0x20 DUP3 LT EQ PUSH2 0x260 JUMPI PUSH1 0x1F DUP2 GT PUSH2 0x1FD JUMPI JUMPDEST POP PUSH1 0x20 SWAP2 PUSH1 0x1F DUP3 GT PUSH1 0x1 EQ PUSH2 0x19D JUMPI SWAP2 DUP2 SWAP3 PUSH0 SWAP3 PUSH2 0x192 JUMPI JUMPDEST POP POP DUP2 PUSH1 0x1 SHL SWAP2 PUSH0 NOT SWAP1 PUSH1 0x3 SHL SHR NOT AND OR PUSH1 0x1 SSTORE JUMPDEST PUSH1 0x6 DUP1 SLOAD CALLER PUSH1 0x1 PUSH1 0x1 PUSH1 0xA0 SHL SUB NOT DUP3 AND DUP2 OR SWAP1 SWAP3 SSTORE PUSH1 0x40 MLOAD SWAP2 SWAP1 PUSH1 0x1 PUSH1 0x1 PUSH1 0xA0 SHL SUB AND PUSH32 0x8BE0079C531659141344CD1FD0A4F28419497F9722A3DAAFE3B4186F6B6457E0 PUSH0 DUP1 LOG3 PUSH2 0x1C70 SWAP1 DUP2 PUSH2 0x36D DUP3 CODECOPY RETURN JUMPDEST ADD MLOAD SWAP1 POP PUSH0 DUP1 PUSH2 0x12A JUMP JUMPDEST PUSH1 0x1F NOT DUP3 AND SWAP3 PUSH1 0x1 PUSH0 MSTORE DUP1 PUSH0 KECCAK256 SWAP2 PUSH0 JUMPDEST DUP6 DUP2 LT PUSH2 0x1E5 JUMPI POP DUP4 PUSH1 0x1 SWAP6 LT PUSH2 0x1CD JUMPI JUMPDEST POP POP POP DUP2 SHL ADD PUSH1 0x1 SSTORE PUSH2 0x13F JUMP JUMPDEST ADD MLOAD PUSH0 NOT PUSH1 0xF8 DUP5 PUSH1 0x3 SHL AND SHR NOT AND SWAP1 SSTORE PUSH0 DUP1 DUP1 PUSH2 0x1BF JUMP JUMPDEST SWAP2 SWAP3 PUSH1 0x20 PUSH1 0x1 DUP2 SWAP3 DUP7 DUP6 ADD MLOAD DUP2 SSTORE ADD SWAP5 ADD SWAP3 ADD PUSH2 0x1AD JUMP JUMPDEST PUSH1 0x1 PUSH0 MSTORE PUSH32 0xB10E2D527612073B26EECDFD717E6A320CF44B4AFAC2B0732D9FCBE2B7FA0CF6 PUSH1 0x1F DUP4 ADD PUSH1 0x5 SHR DUP2 ADD SWAP2 PUSH1 0x20 DUP5 LT PUSH2 0x256 JUMPI JUMPDEST PUSH1 0x1F ADD PUSH1 0x5 SHR ADD SWAP1 JUMPDEST DUP2 DUP2 LT PUSH2 0x24B JUMPI POP PUSH2 0x111 JUMP JUMPDEST PUSH0 DUP2 SSTORE PUSH1 0x1 ADD PUSH2 0x23E JUMP JUMPDEST SWAP1 SWAP2 POP DUP2 SWAP1 PUSH2 0x235 JUMP JUMPDEST PUSH4 0x4E487B71 PUSH1 0xE0 SHL PUSH0 MSTORE PUSH1 0x22 PUSH1 0x4 MSTORE PUSH1 0x24 PUSH0 REVERT JUMPDEST SWAP1 PUSH1 0x7F AND SWAP1 PUSH2 0xFF JUMP JUMPDEST PUSH4 0x4E487B71 PUSH1 0xE0 SHL PUSH0 MSTORE PUSH1 0x41 PUSH1 0x4 MSTORE PUSH1 0x24 PUSH0 REVERT JUMPDEST ADD MLOAD SWAP1 POP PUSH0 DUP1 PUSH2 0xCA JUMP JUMPDEST PUSH1 0x1F NOT DUP3 AND SWAP4 PUSH0 DUP1 MSTORE DUP1 PUSH0 KECCAK256 SWAP2 PUSH0 JUMPDEST DUP7 DUP2 LT PUSH2 0x2E4 JUMPI POP DUP4 PUSH1 0x1 SWAP6 SWAP7 LT PUSH2 0x2CC JUMPI JUMPDEST POP POP POP DUP2 SHL ADD PUSH0 SSTORE PUSH2 0xDE JUMP JUMPDEST ADD MLOAD PUSH0 NOT PUSH1 0xF8 DUP5 PUSH1 0x3 SHL AND SHR NOT AND SWAP1 SSTORE PUSH0 DUP1 DUP1 PUSH2 0x2BF JUMP JUMPDEST SWAP2 SWAP3 PUSH1 0x20 PUSH1 0x1 DUP2 SWAP3 DUP7 DUP6 ADD MLOAD DUP2 SSTORE ADD SWAP5 ADD SWAP3 ADD PUSH2 0x2AC JUMP JUMPDEST PUSH0 DUP1 MSTORE PUSH32 0x290DECD9548B62A8D60345A988386FC84BA6BC95484008F6362F93160EF3E563 PUSH1 0x1F DUP4 ADD PUSH1 0x5 SHR DUP2 ADD SWAP2 PUSH1 0x20 DUP5 LT PUSH2 0x354 JUMPI JUMPDEST PUSH1 0x1F ADD PUSH1 0x5 SHR ADD SWAP1 JUMPDEST DUP2 DUP2 LT PUSH2 0x349 JUMPI POP PUSH2 0xB0 JUMP JUMPDEST PUSH0 DUP2 SSTORE PUSH1 0x1 ADD PUSH2 0x33C JUMP JUMPDEST SWAP1 SWAP2 POP DUP2 SWAP1 PUSH2 0x333 JUMP JUMPDEST SWAP1 PUSH1 0x7F AND SWAP1 PUSH2 0x9E JUMP JUMPDEST PUSH0 DUP1 REVERT INVALID PUSH1 0x80 DUP1 PUSH1 0x40 MSTORE PUSH1 0x4 CALLDATASIZE LT ISZERO PUSH2 0x12 JUMPI PUSH0 DUP1 REVERT JUMPDEST PUSH0 CALLDATALOAD PUSH1 0xE0 SHR SWAP1 DUP2 PUSH4 0x1FFC9A7 EQ PUSH2 0x11A0 JUMPI POP DUP1 PUSH4 0x6FDDE03 EQ PUSH2 0x10E8 JUMPI DUP1 PUSH4 0x81812FC EQ PUSH2 0x1094 JUMPI DUP1 PUSH4 0x95EA7B3 EQ PUSH2 0x102B JUMPI DUP1 PUSH4 0x1655BFBE EQ PUSH2 0xED5 JUMPI DUP1 PUSH4 0x18160DDD EQ PUSH2 0xEB8 JUMPI DUP1 PUSH4 0x23B872DD EQ PUSH2 0xE70 JUMPI DUP1 PUSH4 0x405EBD4D EQ PUSH2 0xE75 JUMPI DUP1 PUSH4 0x42842E0E EQ PUSH2 0xE70 JUMPI DUP1 PUSH4 0x6352211E EQ PUSH2 0xE33 JUMPI DUP1 PUSH4 0x70A08231 EQ PUSH2 0xD9E JUMPI DUP1 PUSH4 0x715018A6 EQ PUSH2 0xD43 JUMPI DUP1 PUSH4 0x71DEC088 EQ PUSH2 0xB56 JUMPI DUP1 PUSH4 0x7F84A5A3 EQ PUSH2 0xA29 JUMPI DUP1 PUSH4 0x8DA5CB5B EQ PUSH2 0xA01 JUMPI DUP1 PUSH4 0x95D89B41 EQ PUSH2 0x8F9 JUMPI DUP1 PUSH4 0xA22CB465 EQ PUSH2 0x885 JUMPI DUP1 PUSH4 0xB88D4FDE EQ PUSH2 0x804 JUMPI DUP1 PUSH4 0xC87B56DD EQ PUSH2 0x2E1 JUMPI DUP1 PUSH4 0xD3F33009 EQ PUSH2 0x2B9 JUMPI DUP1 PUSH4 0xE5FBA6CC EQ PUSH2 0x23B JUMPI DUP1 PUSH4 0xE985E9C5 EQ PUSH2 0x1E4 JUMPI PUSH4 0xF2FDE38B EQ PUSH2 0x119 JUMPI PUSH0 DUP1 REVERT JUMPDEST CALLVALUE PUSH2 0x1E0 JUMPI PUSH1 0x20 CALLDATASIZE PUSH1 0x3 NOT ADD SLT PUSH2 0x1E0 JUMPI PUSH2 0x132 PUSH2 0x122F JUMP JUMPDEST PUSH2 0x13A PUSH2 0x145A JUMP JUMPDEST PUSH1 0x1 PUSH1 0x1 PUSH1 0xA0 SHL SUB AND DUP1 ISZERO PUSH2 0x18C JUMPI PUSH1 0x6 DUP1 SLOAD PUSH1 0x1 PUSH1 0x1 PUSH1 0xA0 SHL SUB NOT DUP2 AND DUP4 OR SWAP1 SWAP2 SSTORE PUSH1 0x1 PUSH1 0x1 PUSH1 0xA0 SHL SUB AND PUSH32 0x8BE0079C531659141344CD1FD0A4F28419497F9722A3DAAFE3B4186F6B6457E0 PUSH0 DUP1 LOG3 STOP JUMPDEST PUSH1 0x40 MLOAD PUSH3 0x461BCD PUSH1 0xE5 SHL DUP2 MSTORE PUSH1 0x20 PUSH1 0x4 DUP3 ADD MSTORE PUSH1 0x26 PUSH1 0x24 DUP3 ADD MSTORE PUSH32 0x4F776E61626C653A206E6577206F776E657220697320746865207A65726F2061 PUSH1 0x44 DUP3 ADD MSTORE PUSH6 0x646472657373 PUSH1 0xD0 SHL PUSH1 0x64 DUP3 ADD MSTORE PUSH1 0x84 SWAP1 REVERT JUMPDEST PUSH0 DUP1 REVERT JUMPDEST CALLVALUE PUSH2 0x1E0 JUMPI PUSH1 0x40 CALLDATASIZE PUSH1 0x3 NOT ADD SLT PUSH2 0x1E0 JUMPI PUSH2 0x1FD PUSH2 0x122F JUMP JUMPDEST PUSH2 0x205 PUSH2 0x1245 JUMP JUMPDEST SWAP1 PUSH1 0x1 DUP1 PUSH1 0xA0 SHL SUB AND PUSH0 MSTORE PUSH1 0x5 PUSH1 0x20 MSTORE PUSH1 0x40 PUSH0 KECCAK256 SWAP1 PUSH1 0x1 DUP1 PUSH1 0xA0 SHL SUB AND PUSH0 MSTORE PUSH1 0x20 MSTORE PUSH1 0x20 PUSH1 0xFF PUSH1 0x40 PUSH0 KECCAK256 SLOAD AND PUSH1 0x40 MLOAD SWAP1 ISZERO ISZERO DUP2 MSTORE RETURN JUMPDEST CALLVALUE PUSH2 0x1E0 JUMPI PUSH1 0x20 CALLDATASIZE PUSH1 0x3 NOT ADD SLT PUSH2 0x1E0 JUMPI PUSH1 0x4 CALLDATALOAD PUSH0 MSTORE PUSH1 0x8 PUSH1 0x20 MSTORE PUSH1 0xC0 PUSH1 0x40 PUSH0 KECCAK256 SLOAD PUSH1 0xFF DUP1 DUP3 AND SWAP2 DUP2 DUP2 PUSH1 0x8 SHR AND PUSH1 0x40 MLOAD SWAP4 PUSH2 0x276 DUP2 PUSH2 0x125B JUMP JUMPDEST DUP5 MSTORE PUSH2 0x281 DUP2 PUSH2 0x125B JUMP JUMPDEST PUSH1 0x20 DUP5 ADD MSTORE PUSH2 0x298 PUSH1 0x40 DUP5 ADD DUP4 DUP4 PUSH1 0x10 SHR AND PUSH2 0x1265 JUMP JUMPDEST DUP2 DUP2 PUSH1 0x18 SHR AND PUSH1 0x60 DUP5 ADD MSTORE DUP2 DUP2 PUSH1 0x20 SHR AND PUSH1 0x80 DUP5 ADD MSTORE PUSH1 0x28 SHR AND PUSH1 0xA0 DUP3 ADD MSTORE RETURN JUMPDEST CALLVALUE PUSH2 0x1E0 JUMPI PUSH0 CALLDATASIZE PUSH1 0x3 NOT ADD SLT PUSH2 0x1E0 JUMPI PUSH1 0x9 SLOAD PUSH1 0x40 MLOAD PUSH1 0x1 PUSH1 0x1 PUSH1 0xA0 SHL SUB SWAP1 SWAP2 AND DUP2 MSTORE PUSH1 0x20 SWAP1 RETURN JUMPDEST CALLVALUE PUSH2 0x1E0 JUMPI PUSH1 0x20 CALLDATASIZE PUSH1 0x3 NOT ADD SLT PUSH2 0x1E0 JUMPI PUSH1 0x4 CALLDATALOAD PUSH0 DUP2 DUP2 MSTORE PUSH1 0x2 PUSH1 0x20 MSTORE PUSH1 0x40 SWAP1 KECCAK256 SLOAD PUSH1 0x1 PUSH1 0x1 PUSH1 0xA0 SHL SUB AND ISZERO PUSH2 0x7BF JUMPI DUP1 PUSH0 MSTORE PUSH1 0x8 PUSH1 0x20 MSTORE PUSH1 0x40 PUSH0 KECCAK256 SWAP1 PUSH1 0x40 MLOAD SWAP2 PUSH2 0x32B DUP4 PUSH2 0x1323 JUMP JUMPDEST SLOAD SWAP2 PUSH1 0xFF DUP4 AND PUSH2 0x33A DUP2 PUSH2 0x125B JUMP JUMPDEST DUP2 MSTORE PUSH1 0xFF DUP4 PUSH1 0x8 SHR AND SWAP3 PUSH1 0x20 DUP3 ADD SWAP4 PUSH2 0x352 DUP2 PUSH2 0x125B JUMP JUMPDEST DUP5 MSTORE PUSH1 0x40 DUP3 ADD SWAP3 PUSH2 0x369 PUSH1 0xFF DUP4 PUSH1 0x10 SHR AND DUP6 PUSH2 0x1391 JUMP JUMPDEST PUSH1 0x60 DUP4 ADD PUSH1 0xFF DUP4 PUSH1 0x18 SHR AND DUP2 MSTORE PUSH2 0x399 PUSH1 0x80 DUP6 ADD SWAP3 PUSH1 0xFF DUP6 PUSH1 0x20 SHR AND DUP5 MSTORE PUSH1 0xFF PUSH1 0xA0 DUP8 ADD SWAP6 PUSH1 0x28 SHR AND DUP6 MSTORE PUSH2 0x161D JUMP JUMPDEST SWAP5 DUP1 MLOAD PUSH1 0x4 DUP2 LT ISZERO PUSH2 0x7AB JUMPI PUSH2 0x3AE SWAP1 PUSH2 0x1765 JUMP JUMPDEST SWAP7 PUSH2 0x3C2 DUP7 MLOAD PUSH2 0x3BD DUP2 PUSH2 0x125B JUMP JUMPDEST PUSH2 0x1820 JUMP JUMPDEST SWAP6 PUSH2 0x3F2 PUSH2 0x3E7 PUSH2 0x3DC DUP5 MLOAD PUSH2 0x3D7 DUP2 PUSH2 0x125B JUMP JUMPDEST PUSH2 0x18B3 JUMP JUMPDEST SWAP3 MLOAD PUSH2 0x3BD DUP2 PUSH2 0x125B JUMP JUMPDEST SWAP3 MLOAD PUSH2 0x3D7 DUP2 PUSH2 0x125B JUMP JUMPDEST SWAP3 MLOAD PUSH1 0x4 DUP2 LT ISZERO PUSH2 0x7AB JUMPI PUSH2 0x406 SWAP1 PUSH2 0x1765 JUMP JUMPDEST SWAP4 MLOAD PUSH1 0xFF AND PUSH2 0x414 SWAP1 PUSH2 0x161D JUMP JUMPDEST SWAP5 MLOAD PUSH1 0xFF AND PUSH2 0x422 SWAP1 PUSH2 0x161D JUMP JUMPDEST SWAP6 MLOAD PUSH1 0xFF AND PUSH2 0x430 SWAP1 PUSH2 0x161D JUMP JUMPDEST SWAP7 PUSH1 0x40 MLOAD SWAP10 DUP11 SWAP10 PUSH1 0x20 DUP12 ADD PUSH32 0x7B226E616D65223A2253746172466F72676520556E6974202300000000000000 SWAP1 MSTORE DUP1 MLOAD PUSH1 0x20 DUP2 SWAP3 ADD PUSH1 0x39 DUP14 ADD MCOPY PUSH2 0x88B PUSH1 0xF2 SHL PUSH1 0x39 SWAP2 DUP13 ADD SWAP2 DUP3 ADD MSTORE PUSH32 0x226465736372697074696F6E223A224F6E2D636861696E20756E69742066726F PUSH1 0x3B DUP3 ADD MSTORE PUSH32 0x6D20536F6D6E69612053746172466F726765202D204563686F206F6620447265 PUSH1 0x5B DUP3 ADD MSTORE PUSH5 0x185B5CC88B PUSH1 0xDA SHL PUSH1 0x7B DUP3 ADD MSTORE PUSH32 0x22696D616765223A2268747470733A2F2F796F75722D63646E2E636F6D2F756E PUSH1 0x80 DUP3 ADD MSTORE PUSH4 0x6974732F PUSH1 0xE0 SHL PUSH1 0xA0 DUP3 ADD MSTORE DUP2 MLOAD SWAP2 DUP3 SWAP1 PUSH1 0x20 ADD PUSH1 0xA4 DUP4 ADD MCOPY ADD PUSH1 0x39 ADD PUSH1 0x6B DUP2 ADD PUSH1 0x5F PUSH1 0xF8 SHL SWAP1 MSTORE DUP2 MLOAD PUSH1 0x20 DUP2 SWAP4 ADD PUSH1 0x6C DUP4 ADD MCOPY ADD PUSH1 0x6B ADD PUSH1 0x1 DUP2 ADD PUSH1 0x5F PUSH1 0xF8 SHL SWAP1 MSTORE DUP2 MLOAD PUSH1 0x20 DUP2 SWAP4 ADD PUSH1 0x2 DUP4 ADD MCOPY ADD PUSH1 0x1 ADD PUSH6 0xB9C1B99C88B PUSH1 0xD2 SHL PUSH1 0x1 DUP3 ADD MSTORE PUSH14 0x2261747472696275746573223A5B PUSH1 0x90 SHL PUSH1 0x7 DUP3 ADD MSTORE PUSH1 0x15 DUP2 ADD PUSH32 0x7B2274726169745F74797065223A2246616374696F6E222C2276616C7565223A SWAP1 MSTORE PUSH1 0x11 PUSH1 0xF9 SHL PUSH1 0x35 DUP3 ADD MSTORE DUP2 MLOAD PUSH1 0x20 DUP2 SWAP4 ADD PUSH1 0x36 DUP4 ADD MCOPY ADD PUSH1 0x1 ADD PUSH3 0x89F4B PUSH1 0xEA SHL PUSH1 0x35 DUP3 ADD MSTORE PUSH1 0x38 DUP2 ADD PUSH32 0x7B2274726169745F74797065223A22526172697479222C2276616C7565223A22 SWAP1 MSTORE DUP2 MLOAD PUSH1 0x20 DUP2 SWAP4 ADD PUSH1 0x58 DUP4 ADD MCOPY ADD PUSH1 0x35 ADD PUSH3 0x89F4B PUSH1 0xEA SHL PUSH1 0x23 DUP3 ADD MSTORE PUSH1 0x26 DUP2 ADD PUSH32 0x7B2274726169745F74797065223A22436C617373222C2276616C7565223A2200 SWAP1 MSTORE DUP2 MLOAD PUSH1 0x20 DUP2 SWAP4 ADD PUSH1 0x45 DUP4 ADD MCOPY ADD PUSH1 0x23 ADD PUSH3 0x89F4B PUSH1 0xEA SHL PUSH1 0x22 DUP3 ADD MSTORE PUSH1 0x25 DUP2 ADD PUSH32 0x7B2274726169745F74797065223A2241747461636B222C2276616C7565223A00 SWAP1 MSTORE DUP2 MLOAD PUSH1 0x20 DUP2 SWAP4 ADD PUSH1 0x44 DUP4 ADD MCOPY ADD PUSH1 0x22 ADD PUSH1 0x22 DUP2 ADD PUSH2 0x1F4B PUSH1 0xF2 SHL SWAP1 MSTORE PUSH1 0x24 DUP2 ADD PUSH32 0x7B2274726169745F74797065223A22446566656E7365222C2276616C7565223A SWAP1 MSTORE DUP2 MLOAD PUSH1 0x20 DUP2 SWAP4 ADD PUSH1 0x44 DUP4 ADD MCOPY ADD PUSH1 0x22 ADD PUSH1 0x22 DUP2 ADD PUSH2 0x1F4B PUSH1 0xF2 SHL SWAP1 MSTORE PUSH1 0x24 DUP2 ADD PUSH32 0x7B2274726169745F74797065223A225370656564222C2276616C7565223A0000 SWAP1 MSTORE DUP2 MLOAD PUSH1 0x20 DUP2 SWAP4 ADD PUSH1 0x42 DUP4 ADD MCOPY ADD PUSH1 0x22 ADD PUSH1 0x20 DUP2 ADD PUSH1 0x7D PUSH1 0xF8 SHL SWAP1 MSTORE PUSH1 0x21 DUP2 ADD PUSH2 0x5D7D PUSH1 0xF0 SHL SWAP1 MSTORE SUB PUSH1 0x20 ADD PUSH1 0x1C NOT DUP2 ADD DUP3 MSTORE PUSH1 0x3 ADD PUSH2 0x732 SWAP1 DUP3 PUSH2 0x1353 JUMP JUMPDEST PUSH2 0x73B SWAP1 PUSH2 0x1941 JUMP JUMPDEST PUSH1 0x40 MLOAD DUP1 SWAP2 PUSH1 0x20 DUP3 ADD PUSH32 0x646174613A6170706C69636174696F6E2F6A736F6E3B6261736536342C000000 SWAP1 MSTORE DUP1 MLOAD PUSH1 0x20 DUP2 SWAP3 ADD PUSH1 0x3D DUP5 ADD MCOPY DUP2 ADD PUSH1 0x3D DUP2 ADD PUSH0 SWAP1 MSTORE SUB PUSH1 0x3D ADD PUSH1 0x1F NOT DUP2 ADD DUP3 MSTORE PUSH2 0x791 SWAP1 DUP3 PUSH2 0x1353 JUMP JUMPDEST PUSH1 0x40 MLOAD DUP1 SWAP2 PUSH1 0x20 DUP3 MSTORE PUSH1 0x20 DUP3 ADD PUSH2 0x7A7 SWAP2 PUSH2 0x120B JUMP JUMPDEST SUB SWAP1 RETURN JUMPDEST PUSH4 0x4E487B71 PUSH1 0xE0 SHL PUSH0 MSTORE PUSH1 0x21 PUSH1 0x4 MSTORE PUSH1 0x24 PUSH0 REVERT JUMPDEST PUSH1 0x40 MLOAD PUSH3 0x461BCD PUSH1 0xE5 SHL DUP2 MSTORE PUSH1 0x20 PUSH1 0x4 DUP3 ADD MSTORE PUSH1 0x1F PUSH1 0x24 DUP3 ADD MSTORE PUSH32 0x55524920717565727920666F72206E6F6E6578697374656E7420746F6B656E00 PUSH1 0x44 DUP3 ADD MSTORE PUSH1 0x64 SWAP1 REVERT JUMPDEST CALLVALUE PUSH2 0x1E0 JUMPI PUSH1 0x80 CALLDATASIZE PUSH1 0x3 NOT ADD SLT PUSH2 0x1E0 JUMPI PUSH2 0x81D PUSH2 0x122F JUMP JUMPDEST POP PUSH2 0x826 PUSH2 0x1245 JUMP JUMPDEST POP PUSH1 0x64 CALLDATALOAD PUSH8 0xFFFFFFFFFFFFFFFF DUP2 GT PUSH2 0x1E0 JUMPI CALLDATASIZE PUSH1 0x23 DUP3 ADD SLT ISZERO PUSH2 0x1E0 JUMPI DUP1 PUSH1 0x4 ADD CALLDATALOAD SWAP1 PUSH2 0x853 DUP3 PUSH2 0x1375 JUMP JUMPDEST SWAP2 PUSH2 0x861 PUSH1 0x40 MLOAD SWAP4 DUP5 PUSH2 0x1353 JUMP JUMPDEST DUP1 DUP4 MSTORE CALLDATASIZE PUSH1 0x24 DUP3 DUP5 ADD ADD GT PUSH2 0x1E0 JUMPI PUSH0 SWAP3 DUP2 PUSH1 0x24 PUSH1 0x20 SWAP5 ADD DUP5 DUP4 ADD CALLDATACOPY ADD ADD MSTORE PUSH2 0x139D JUMP JUMPDEST CALLVALUE PUSH2 0x1E0 JUMPI PUSH1 0x40 CALLDATASIZE PUSH1 0x3 NOT ADD SLT PUSH2 0x1E0 JUMPI PUSH2 0x89E PUSH2 0x122F JUMP JUMPDEST POP PUSH1 0x24 CALLDATALOAD DUP1 ISZERO ISZERO SUB PUSH2 0x1E0 JUMPI PUSH1 0x40 MLOAD PUSH3 0x461BCD PUSH1 0xE5 SHL DUP2 MSTORE PUSH1 0x20 PUSH1 0x4 DUP3 ADD MSTORE PUSH1 0x21 PUSH1 0x24 DUP3 ADD MSTORE PUSH32 0x536F756C626F756E643A20617070726F76616C73206172652064697361626C65 PUSH1 0x44 DUP3 ADD MSTORE PUSH1 0x19 PUSH1 0xFA SHL PUSH1 0x64 DUP3 ADD MSTORE PUSH1 0x84 SWAP1 REVERT JUMPDEST CALLVALUE PUSH2 0x1E0 JUMPI PUSH0 CALLDATASIZE PUSH1 0x3 NOT ADD SLT PUSH2 0x1E0 JUMPI PUSH1 0x40 MLOAD PUSH0 PUSH1 0x1 SLOAD DUP1 PUSH1 0x1 SHR SWAP1 PUSH1 0x1 DUP2 AND DUP1 ISZERO PUSH2 0x9F7 JUMPI JUMPDEST PUSH1 0x20 DUP4 LT DUP2 EQ PUSH2 0x9E3 JUMPI DUP3 DUP6 MSTORE SWAP1 DUP2 ISZERO PUSH2 0x9BF JUMPI POP PUSH1 0x1 EQ PUSH2 0x961 JUMPI JUMPDEST PUSH2 0x7A7 DUP4 PUSH2 0x94D DUP2 DUP6 SUB DUP3 PUSH2 0x1353 JUMP JUMPDEST PUSH1 0x40 MLOAD SWAP2 DUP3 SWAP2 PUSH1 0x20 DUP4 MSTORE PUSH1 0x20 DUP4 ADD SWAP1 PUSH2 0x120B JUMP JUMPDEST SWAP2 SWAP1 POP PUSH1 0x1 PUSH0 MSTORE PUSH32 0xB10E2D527612073B26EECDFD717E6A320CF44B4AFAC2B0732D9FCBE2B7FA0CF6 SWAP2 PUSH0 SWAP1 JUMPDEST DUP1 DUP3 LT PUSH2 0x9A5 JUMPI POP SWAP1 SWAP2 POP DUP2 ADD PUSH1 0x20 ADD PUSH2 0x94D PUSH2 0x93D JUMP JUMPDEST SWAP2 SWAP3 PUSH1 0x1 DUP2 PUSH1 0x20 SWAP3 SLOAD DUP4 DUP6 DUP9 ADD ADD MSTORE ADD SWAP2 ADD SWAP1 SWAP3 SWAP2 PUSH2 0x98D JUMP JUMPDEST PUSH1 0xFF NOT AND PUSH1 0x20 DUP1 DUP7 ADD SWAP2 SWAP1 SWAP2 MSTORE SWAP2 ISZERO ISZERO PUSH1 0x5 SHL DUP5 ADD SWAP1 SWAP2 ADD SWAP2 POP PUSH2 0x94D SWAP1 POP PUSH2 0x93D JUMP JUMPDEST PUSH4 0x4E487B71 PUSH1 0xE0 SHL PUSH0 MSTORE PUSH1 0x22 PUSH1 0x4 MSTORE PUSH1 0x24 PUSH0 REVERT JUMPDEST SWAP2 PUSH1 0x7F AND SWAP2 PUSH2 0x920 JUMP JUMPDEST CALLVALUE PUSH2 0x1E0 JUMPI PUSH0 CALLDATASIZE PUSH1 0x3 NOT ADD SLT PUSH2 0x1E0 JUMPI PUSH1 0x6 SLOAD PUSH1 0x40 MLOAD PUSH1 0x1 PUSH1 0x1 PUSH1 0xA0 SHL SUB SWAP1 SWAP2 AND DUP2 MSTORE PUSH1 0x20 SWAP1 RETURN JUMPDEST CALLVALUE PUSH2 0x1E0 JUMPI PUSH2 0xA37 CALLDATASIZE PUSH2 0x12B0 JUMP JUMPDEST SWAP4 SWAP1 SWAP3 SWAP5 SWAP6 PUSH2 0xA44 PUSH2 0x145A JUMP JUMPDEST PUSH2 0xA5D PUSH1 0x7 SLOAD DUP1 SWAP3 PUSH2 0xA55 DUP3 PUSH2 0x1438 JUMP JUMPDEST PUSH1 0x7 SSTORE PUSH2 0x14B2 JUMP JUMPDEST PUSH1 0x40 MLOAD SWAP7 PUSH2 0xA6A DUP9 PUSH2 0x1323 JUMP JUMPDEST PUSH2 0xA73 DUP2 PUSH2 0x125B JUMP JUMPDEST DUP8 MSTORE PUSH1 0x20 DUP8 ADD SWAP2 PUSH2 0xA83 DUP2 PUSH2 0x125B JUMP JUMPDEST DUP3 MSTORE PUSH2 0xA93 PUSH1 0x40 DUP9 ADD SWAP7 DUP8 PUSH2 0x1391 JUMP JUMPDEST PUSH1 0xFF PUSH1 0x60 DUP9 ADD SWAP4 AND DUP4 MSTORE PUSH1 0xFF PUSH1 0x80 DUP9 ADD SWAP5 AND DUP5 MSTORE PUSH1 0xFF PUSH1 0xA0 DUP9 ADD SWAP6 AND DUP6 MSTORE PUSH0 MSTORE PUSH1 0x8 PUSH1 0x20 MSTORE PUSH1 0x40 PUSH0 KECCAK256 SWAP6 MLOAD SWAP2 PUSH2 0xAC8 DUP4 PUSH2 0x125B JUMP JUMPDEST PUSH2 0xAD1 DUP4 PUSH2 0x125B JUMP JUMPDEST DUP7 SLOAD SWAP2 MLOAD SWAP6 PUSH2 0xADF DUP8 PUSH2 0x125B JUMP JUMPDEST PUSH2 0xAE8 DUP8 PUSH2 0x125B JUMP JUMPDEST MLOAD SWAP2 PUSH1 0x4 DUP4 LT ISZERO PUSH2 0x7AB JUMPI PUSH1 0xFF PUSH1 0x28 SHL PUSH5 0xFF00000000 PUSH4 0xFF000000 PUSH3 0xFF0000 SWAP5 MLOAD PUSH1 0x18 SHL AND SWAP7 MLOAD PUSH1 0x20 SHL AND SWAP7 MLOAD PUSH1 0x28 SHL AND SWAP7 PUSH2 0xFF00 PUSH1 0xFF PUSH1 0x28 SHL NOT SWAP6 PUSH5 0xFF00000000 NOT SWAP4 PUSH1 0xFF PUSH4 0xFF000000 NOT SWAP3 AND SWAP1 PUSH3 0xFFFFFF NOT AND OR AND SWAP2 PUSH1 0x8 SHL AND OR AND SWAP2 PUSH1 0x10 SHL AND OR AND OR OR OR SWAP1 SSTORE PUSH0 DUP1 RETURN JUMPDEST CALLVALUE PUSH2 0x1E0 JUMPI PUSH2 0xB64 CALLDATASIZE PUSH2 0x12B0 JUMP JUMPDEST PUSH1 0x9 SLOAD SWAP1 SWAP7 SWAP5 SWAP6 SWAP2 SWAP5 SWAP3 SWAP4 SWAP1 PUSH1 0x1 PUSH1 0x1 PUSH1 0xA0 SHL SUB AND CALLER SUB PUSH2 0xCFE JUMPI PUSH1 0x7 SLOAD SWAP6 PUSH2 0xB8C DUP8 PUSH2 0x1438 JUMP JUMPDEST PUSH1 0x7 SSTORE PUSH2 0xB99 DUP8 DUP6 PUSH2 0x14B2 JUMP JUMPDEST PUSH1 0x40 MLOAD SWAP3 PUSH2 0xBA6 DUP5 PUSH2 0x1323 JUMP JUMPDEST PUSH2 0xBAF DUP2 PUSH2 0x125B JUMP JUMPDEST DUP1 DUP5 MSTORE PUSH1 0x20 DUP5 ADD SWAP4 PUSH2 0xBC0 DUP4 PUSH2 0x125B JUMP JUMPDEST DUP3 DUP6 MSTORE PUSH1 0x40 DUP2 ADD PUSH2 0xBD1 DUP6 DUP3 PUSH2 0x1391 JUMP JUMPDEST PUSH1 0xFF PUSH1 0x60 DUP4 ADD SWAP9 AND DUP9 MSTORE PUSH1 0xFF PUSH1 0x80 DUP4 ADD SWAP10 AND DUP10 MSTORE PUSH1 0xFF PUSH1 0xA0 DUP4 ADD SWAP12 AND DUP12 MSTORE DUP10 PUSH0 MSTORE PUSH1 0x8 PUSH1 0x20 MSTORE PUSH1 0x40 PUSH0 KECCAK256 SWAP2 MLOAD SWAP11 PUSH2 0xC07 DUP13 PUSH2 0x125B JUMP JUMPDEST PUSH2 0xC10 DUP13 PUSH2 0x125B JUMP JUMPDEST DUP3 SLOAD SWAP7 MLOAD SWAP2 PUSH2 0xC1E DUP4 PUSH2 0x125B JUMP JUMPDEST PUSH2 0xC27 DUP4 PUSH2 0x125B JUMP JUMPDEST MLOAD SWAP10 PUSH1 0x4 DUP12 LT ISZERO PUSH2 0x7AB JUMPI PUSH1 0x20 SWAP13 PUSH32 0xB982BC3626C07206FE59E1EFEC7A6F7DAB33900852303A596C52F6AD1C86AA80 SWAP12 PUSH3 0xFF0000 PUSH2 0xCF5 SWAP11 PUSH1 0xFF PUSH1 0x28 SHL PUSH5 0xFF00000000 PUSH1 0xA0 SWAP16 PUSH4 0xFF000000 SWAP1 MLOAD PUSH1 0x18 SHL AND SWAP7 MLOAD PUSH1 0x20 SHL AND SWAP7 MLOAD PUSH1 0x28 SHL AND SWAP7 PUSH2 0xFF00 PUSH1 0xFF PUSH1 0x28 SHL NOT SWAP6 PUSH5 0xFF00000000 NOT SWAP4 PUSH1 0xFF PUSH4 0xFF000000 NOT SWAP3 AND SWAP1 PUSH3 0xFFFFFF NOT AND OR AND SWAP2 PUSH1 0x8 SHL AND OR AND SWAP2 PUSH1 0x10 SHL AND OR AND OR OR OR SWAP1 SSTORE PUSH1 0x40 MLOAD SWAP5 PUSH1 0x1 DUP1 DUP9 SHL SUB AND DUP6 MSTORE DUP8 DUP10 DUP7 ADD MSTORE PUSH2 0xCD8 DUP2 PUSH2 0x125B JUMP JUMPDEST PUSH1 0x40 DUP6 ADD MSTORE PUSH2 0xCE6 DUP2 PUSH2 0x125B JUMP JUMPDEST PUSH1 0x60 DUP5 ADD MSTORE PUSH1 0x80 DUP4 ADD SWAP1 PUSH2 0x1265 JUMP JUMPDEST LOG1 PUSH1 0x40 MLOAD SWAP1 DUP2 MSTORE RETURN JUMPDEST PUSH1 0x40 MLOAD PUSH3 0x461BCD PUSH1 0xE5 SHL DUP2 MSTORE PUSH1 0x20 PUSH1 0x4 DUP3 ADD MSTORE PUSH1 0x1B PUSH1 0x24 DUP3 ADD MSTORE PUSH32 0x4F6E6C792047616D6520636F6E74726163742063616E206D696E740000000000 PUSH1 0x44 DUP3 ADD MSTORE PUSH1 0x64 SWAP1 REVERT JUMPDEST CALLVALUE PUSH2 0x1E0 JUMPI PUSH0 CALLDATASIZE PUSH1 0x3 NOT ADD SLT PUSH2 0x1E0 JUMPI PUSH2 0xD5B PUSH2 0x145A JUMP JUMPDEST PUSH1 0x6 DUP1 SLOAD PUSH1 0x1 PUSH1 0x1 PUSH1 0xA0 SHL SUB NOT DUP2 AND SWAP1 SWAP2 SSTORE PUSH0 SWAP1 PUSH1 0x1 PUSH1 0x1 PUSH1 0xA0 SHL SUB AND PUSH32 0x8BE0079C531659141344CD1FD0A4F28419497F9722A3DAAFE3B4186F6B6457E0 DUP3 DUP1 LOG3 STOP JUMPDEST CALLVALUE PUSH2 0x1E0 JUMPI PUSH1 0x20 CALLDATASIZE PUSH1 0x3 NOT ADD SLT PUSH2 0x1E0 JUMPI PUSH1 0x1 PUSH1 0x1 PUSH1 0xA0 SHL SUB PUSH2 0xDBF PUSH2 0x122F JUMP JUMPDEST AND DUP1 ISZERO PUSH2 0xDDC JUMPI PUSH0 MSTORE PUSH1 0x3 PUSH1 0x20 MSTORE PUSH1 0x20 PUSH1 0x40 PUSH0 KECCAK256 SLOAD PUSH1 0x40 MLOAD SWAP1 DUP2 MSTORE RETURN JUMPDEST PUSH1 0x40 MLOAD PUSH3 0x461BCD PUSH1 0xE5 SHL DUP2 MSTORE PUSH1 0x20 PUSH1 0x4 DUP3 ADD MSTORE PUSH1 0x29 PUSH1 0x24 DUP3 ADD MSTORE PUSH32 0x4552433732313A2061646472657373207A65726F206973206E6F742061207661 PUSH1 0x44 DUP3 ADD MSTORE PUSH9 0x3634B21037BBB732B9 PUSH1 0xB9 SHL PUSH1 0x64 DUP3 ADD MSTORE PUSH1 0x84 SWAP1 REVERT JUMPDEST CALLVALUE PUSH2 0x1E0 JUMPI PUSH1 0x20 CALLDATASIZE PUSH1 0x3 NOT ADD SLT PUSH2 0x1E0 JUMPI PUSH1 0x4 CALLDATALOAD PUSH0 MSTORE PUSH1 0x2 PUSH1 0x20 MSTORE PUSH1 0x20 PUSH1 0x1 DUP1 PUSH1 0xA0 SHL SUB PUSH1 0x40 PUSH0 KECCAK256 SLOAD AND PUSH2 0xE68 DUP2 ISZERO ISZERO PUSH2 0x13EC JUMP JUMPDEST PUSH1 0x40 MLOAD SWAP1 DUP2 MSTORE RETURN JUMPDEST PUSH2 0x1272 JUMP JUMPDEST CALLVALUE PUSH2 0x1E0 JUMPI PUSH1 0x20 CALLDATASIZE PUSH1 0x3 NOT ADD SLT PUSH2 0x1E0 JUMPI PUSH2 0xE8E PUSH2 0x122F JUMP JUMPDEST PUSH2 0xE96 PUSH2 0x145A JUMP JUMPDEST PUSH1 0x9 DUP1 SLOAD PUSH1 0x1 PUSH1 0x1 PUSH1 0xA0 SHL SUB NOT AND PUSH1 0x1 PUSH1 0x1 PUSH1 0xA0 SHL SUB SWAP3 SWAP1 SWAP3 AND SWAP2 SWAP1 SWAP2 OR SWAP1 SSTORE STOP JUMPDEST CALLVALUE PUSH2 0x1E0 JUMPI PUSH0 CALLDATASIZE PUSH1 0x3 NOT ADD SLT PUSH2 0x1E0 JUMPI PUSH1 0x20 PUSH1 0x7 SLOAD PUSH1 0x40 MLOAD SWAP1 DUP2 MSTORE RETURN JUMPDEST CALLVALUE PUSH2 0x1E0 JUMPI PUSH1 0x20 CALLDATASIZE PUSH1 0x3 NOT ADD SLT PUSH2 0x1E0 JUMPI PUSH1 0x4 CALLDATALOAD PUSH0 PUSH1 0xA0 PUSH1 0x40 MLOAD PUSH2 0xEF8 DUP2 PUSH2 0x1323 JUMP JUMPDEST DUP3 DUP2 MSTORE DUP3 PUSH1 0x20 DUP3 ADD MSTORE DUP3 PUSH1 0x40 DUP3 ADD MSTORE DUP3 PUSH1 0x60 DUP3 ADD MSTORE DUP3 PUSH1 0x80 DUP3 ADD MSTORE ADD MSTORE DUP1 PUSH0 MSTORE PUSH1 0x2 PUSH1 0x20 MSTORE PUSH1 0x1 DUP1 PUSH1 0xA0 SHL SUB PUSH1 0x40 PUSH0 KECCAK256 SLOAD AND ISZERO PUSH2 0xFEF JUMPI PUSH0 MSTORE PUSH1 0x8 PUSH1 0x20 MSTORE PUSH1 0xC0 PUSH1 0x40 PUSH0 KECCAK256 PUSH1 0xFF PUSH1 0x40 MLOAD SWAP2 PUSH2 0xF4B DUP4 PUSH2 0x1323 JUMP JUMPDEST SLOAD DUP2 DUP2 AND PUSH2 0xF58 DUP2 PUSH2 0x125B JUMP JUMPDEST DUP4 MSTORE DUP2 DUP1 DUP3 PUSH1 0x8 SHR AND PUSH1 0x20 DUP6 ADD SWAP1 PUSH2 0xF6F DUP2 PUSH2 0x125B JUMP JUMPDEST DUP2 MSTORE DUP2 PUSH1 0x40 DUP7 ADD PUSH2 0xF85 DUP3 DUP7 PUSH1 0x10 SHR AND DUP3 PUSH2 0x1391 JUMP JUMPDEST PUSH2 0xFD8 PUSH1 0x60 DUP9 ADD SWAP2 DUP4 DUP8 PUSH1 0x18 SHR AND DUP4 MSTORE PUSH1 0x80 DUP10 ADD SWAP5 DUP5 DUP9 PUSH1 0x20 SHR AND DUP7 MSTORE DUP5 PUSH1 0xA0 DUP12 ADD SWAP9 PUSH1 0x28 SHR AND DUP9 MSTORE PUSH1 0x40 MLOAD SWAP10 MLOAD PUSH2 0xFBC DUP2 PUSH2 0x125B JUMP JUMPDEST DUP11 MSTORE MLOAD PUSH2 0xFC8 DUP2 PUSH2 0x125B JUMP JUMPDEST PUSH1 0x20 DUP11 ADD MSTORE MLOAD PUSH1 0x40 DUP10 ADD SWAP1 PUSH2 0x1265 JUMP JUMPDEST MLOAD AND PUSH1 0x60 DUP7 ADD MSTORE MLOAD AND PUSH1 0x80 DUP5 ADD MSTORE MLOAD AND PUSH1 0xA0 DUP3 ADD MSTORE RETURN JUMPDEST PUSH1 0x40 MLOAD PUSH3 0x461BCD PUSH1 0xE5 SHL DUP2 MSTORE PUSH1 0x20 PUSH1 0x4 DUP3 ADD MSTORE PUSH1 0x14 PUSH1 0x24 DUP3 ADD MSTORE PUSH20 0x151BDAD95B88191BD95CC81B9BDD08195E1A5CDD PUSH1 0x62 SHL PUSH1 0x44 DUP3 ADD MSTORE PUSH1 0x64 SWAP1 REVERT JUMPDEST CALLVALUE PUSH2 0x1E0 JUMPI PUSH1 0x40 CALLDATASIZE PUSH1 0x3 NOT ADD SLT PUSH2 0x1E0 JUMPI PUSH2 0x1044 PUSH2 0x122F JUMP JUMPDEST POP PUSH1 0x40 MLOAD PUSH3 0x461BCD PUSH1 0xE5 SHL DUP2 MSTORE PUSH1 0x20 PUSH1 0x4 DUP3 ADD MSTORE PUSH1 0x21 PUSH1 0x24 DUP3 ADD MSTORE PUSH32 0x536F756C626F756E643A20617070726F76616C73206172652064697361626C65 PUSH1 0x44 DUP3 ADD MSTORE PUSH1 0x19 PUSH1 0xFA SHL PUSH1 0x64 DUP3 ADD MSTORE PUSH1 0x84 SWAP1 REVERT JUMPDEST CALLVALUE PUSH2 0x1E0 JUMPI PUSH1 0x20 CALLDATASIZE PUSH1 0x3 NOT ADD SLT PUSH2 0x1E0 JUMPI PUSH1 0x4 CALLDATALOAD PUSH0 DUP2 DUP2 MSTORE PUSH1 0x2 PUSH1 0x20 MSTORE PUSH1 0x40 SWAP1 KECCAK256 SLOAD PUSH2 0x10CA SWAP1 PUSH1 0x1 PUSH1 0x1 PUSH1 0xA0 SHL SUB AND ISZERO ISZERO PUSH2 0x13EC JUMP JUMPDEST PUSH0 MSTORE PUSH1 0x4 PUSH1 0x20 MSTORE PUSH1 0x20 PUSH1 0x1 DUP1 PUSH1 0xA0 SHL SUB PUSH1 0x40 PUSH0 KECCAK256 SLOAD AND PUSH1 0x40 MLOAD SWAP1 DUP2 MSTORE RETURN JUMPDEST CALLVALUE PUSH2 0x1E0 JUMPI PUSH0 CALLDATASIZE PUSH1 0x3 NOT ADD SLT PUSH2 0x1E0 JUMPI PUSH1 0x40 MLOAD PUSH0 PUSH0 SLOAD DUP1 PUSH1 0x1 SHR SWAP1 PUSH1 0x1 DUP2 AND DUP1 ISZERO PUSH2 0x1196 JUMPI JUMPDEST PUSH1 0x20 DUP4 LT DUP2 EQ PUSH2 0x9E3 JUMPI DUP3 DUP6 MSTORE SWAP1 DUP2 ISZERO PUSH2 0x9BF JUMPI POP PUSH1 0x1 EQ PUSH2 0x113A JUMPI PUSH2 0x7A7 DUP4 PUSH2 0x94D DUP2 DUP6 SUB DUP3 PUSH2 0x1353 JUMP JUMPDEST PUSH0 DUP1 DUP1 MSTORE PUSH32 0x290DECD9548B62A8D60345A988386FC84BA6BC95484008F6362F93160EF3E563 SWAP4 SWAP3 POP SWAP1 JUMPDEST DUP1 DUP3 LT PUSH2 0x117C JUMPI POP SWAP1 SWAP2 POP DUP2 ADD PUSH1 0x20 ADD PUSH2 0x94D PUSH2 0x93D JUMP JUMPDEST SWAP2 SWAP3 PUSH1 0x1 DUP2 PUSH1 0x20 SWAP3 SLOAD DUP4 DUP6 DUP9 ADD ADD MSTORE ADD SWAP2 ADD SWAP1 SWAP3 SWAP2 PUSH2 0x1164 JUMP JUMPDEST SWAP2 PUSH1 0x7F AND SWAP2 PUSH2 0x110E JUMP JUMPDEST CALLVALUE PUSH2 0x1E0 JUMPI PUSH1 0x20 CALLDATASIZE PUSH1 0x3 NOT ADD SLT PUSH2 0x1E0 JUMPI PUSH1 0x4 CALLDATALOAD SWAP1 PUSH4 0xFFFFFFFF PUSH1 0xE0 SHL DUP3 AND DUP1 SWAP3 SUB PUSH2 0x1E0 JUMPI PUSH1 0x20 SWAP2 PUSH4 0x80AC58CD PUSH1 0xE0 SHL DUP2 EQ SWAP1 DUP2 ISZERO PUSH2 0x11FA JUMPI JUMPDEST DUP2 ISZERO PUSH2 0x11E9 JUMPI JUMPDEST POP ISZERO ISZERO DUP2 MSTORE RETURN JUMPDEST PUSH4 0x1FFC9A7 PUSH1 0xE0 SHL EQ SWAP1 POP DUP4 PUSH2 0x11E2 JUMP JUMPDEST PUSH4 0x5B5E139F PUSH1 0xE0 SHL DUP2 EQ SWAP2 POP PUSH2 0x11DB JUMP JUMPDEST DUP1 MLOAD DUP1 DUP4 MSTORE PUSH1 0x20 SWAP3 SWAP2 DUP2 SWAP1 DUP5 ADD DUP5 DUP5 ADD MCOPY PUSH0 DUP3 DUP3 ADD DUP5 ADD MSTORE PUSH1 0x1F ADD PUSH1 0x1F NOT AND ADD ADD SWAP1 JUMP JUMPDEST PUSH1 0x4 CALLDATALOAD SWAP1 PUSH1 0x1 PUSH1 0x1 PUSH1 0xA0 SHL SUB DUP3 AND DUP3 SUB PUSH2 0x1E0 JUMPI JUMP JUMPDEST PUSH1 0x24 CALLDATALOAD SWAP1 PUSH1 0x1 PUSH1 0x1 PUSH1 0xA0 SHL SUB DUP3 AND DUP3 SUB PUSH2 0x1E0 JUMPI JUMP JUMPDEST PUSH1 0x3 GT ISZERO PUSH2 0x7AB JUMPI JUMP JUMPDEST SWAP1 PUSH1 0x4 DUP3 LT ISZERO PUSH2 0x7AB JUMPI MSTORE JUMP JUMPDEST CALLVALUE PUSH2 0x1E0 JUMPI PUSH1 0x60 CALLDATASIZE PUSH1 0x3 NOT ADD SLT PUSH2 0x1E0 JUMPI PUSH1 0x4 CALLDATALOAD PUSH1 0x1 PUSH1 0x1 PUSH1 0xA0 SHL SUB DUP2 AND DUP2 SUB PUSH2 0x1E0 JUMPI POP PUSH1 0x24 CALLDATALOAD PUSH1 0x1 PUSH1 0x1 PUSH1 0xA0 SHL SUB DUP2 AND DUP2 SUB PUSH2 0x1E0 JUMPI POP PUSH2 0x139D JUMP JUMPDEST PUSH1 0xE0 SWAP1 PUSH1 0x3 NOT ADD SLT PUSH2 0x1E0 JUMPI PUSH1 0x4 CALLDATALOAD PUSH1 0x1 PUSH1 0x1 PUSH1 0xA0 SHL SUB DUP2 AND DUP2 SUB PUSH2 0x1E0 JUMPI SWAP1 PUSH1 0x24 CALLDATALOAD PUSH1 0x3 DUP2 LT ISZERO PUSH2 0x1E0 JUMPI SWAP1 PUSH1 0x44 CALLDATALOAD PUSH1 0x3 DUP2 LT ISZERO PUSH2 0x1E0 JUMPI SWAP1 PUSH1 0x64 CALLDATALOAD PUSH1 0x4 DUP2 LT ISZERO PUSH2 0x1E0 JUMPI SWAP1 PUSH1 0x84 CALLDATALOAD PUSH1 0xFF DUP2 AND DUP2 SUB PUSH2 0x1E0 JUMPI SWAP1 PUSH1 0xA4 CALLDATALOAD PUSH1 0xFF DUP2 AND DUP2 SUB PUSH2 0x1E0 JUMPI SWAP1 PUSH1 0xC4 CALLDATALOAD PUSH1 0xFF DUP2 AND DUP2 SUB PUSH2 0x1E0 JUMPI SWAP1 JUMP JUMPDEST PUSH1 0xC0 DUP2 ADD SWAP1 DUP2 LT PUSH8 0xFFFFFFFFFFFFFFFF DUP3 GT OR PUSH2 0x133F JUMPI PUSH1 0x40 MSTORE JUMP JUMPDEST PUSH4 0x4E487B71 PUSH1 0xE0 SHL PUSH0 MSTORE PUSH1 0x41 PUSH1 0x4 MSTORE PUSH1 0x24 PUSH0 REVERT JUMPDEST SWAP1 PUSH1 0x1F DUP1 NOT SWAP2 ADD AND DUP2 ADD SWAP1 DUP2 LT PUSH8 0xFFFFFFFFFFFFFFFF DUP3 GT OR PUSH2 0x133F JUMPI PUSH1 0x40 MSTORE JUMP JUMPDEST PUSH8 0xFFFFFFFFFFFFFFFF DUP2 GT PUSH2 0x133F JUMPI PUSH1 0x1F ADD PUSH1 0x1F NOT AND PUSH1 0x20 ADD SWAP1 JUMP JUMPDEST PUSH1 0x4 DUP3 LT ISZERO PUSH2 0x7AB JUMPI MSTORE JUMP JUMPDEST PUSH1 0x40 MLOAD PUSH3 0x461BCD PUSH1 0xE5 SHL DUP2 MSTORE PUSH1 0x20 PUSH1 0x4 DUP3 ADD MSTORE PUSH1 0x21 PUSH1 0x24 DUP3 ADD MSTORE PUSH32 0x536F756C626F756E643A207472616E7366657273206172652064697361626C65 PUSH1 0x44 DUP3 ADD MSTORE PUSH1 0x19 PUSH1 0xFA SHL PUSH1 0x64 DUP3 ADD MSTORE PUSH1 0x84 SWAP1 REVERT JUMPDEST ISZERO PUSH2 0x13F3 JUMPI JUMP JUMPDEST PUSH1 0x40 MLOAD PUSH3 0x461BCD PUSH1 0xE5 SHL DUP2 MSTORE PUSH1 0x20 PUSH1 0x4 DUP3 ADD MSTORE PUSH1 0x18 PUSH1 0x24 DUP3 ADD MSTORE PUSH32 0x4552433732313A20696E76616C696420746F6B656E2049440000000000000000 PUSH1 0x44 DUP3 ADD MSTORE PUSH1 0x64 SWAP1 REVERT JUMPDEST PUSH0 NOT DUP2 EQ PUSH2 0x1446 JUMPI PUSH1 0x1 ADD SWAP1 JUMP JUMPDEST PUSH4 0x4E487B71 PUSH1 0xE0 SHL PUSH0 MSTORE PUSH1 0x11 PUSH1 0x4 MSTORE PUSH1 0x24 PUSH0 REVERT JUMPDEST PUSH1 0x6 SLOAD PUSH1 0x1 PUSH1 0x1 PUSH1 0xA0 SHL SUB AND CALLER SUB PUSH2 0x146E JUMPI JUMP JUMPDEST PUSH1 0x64 PUSH1 0x40 MLOAD PUSH3 0x461BCD PUSH1 0xE5 SHL DUP2 MSTORE PUSH1 0x20 PUSH1 0x4 DUP3 ADD MSTORE PUSH1 0x20 PUSH1 0x24 DUP3 ADD MSTORE PUSH32 0x4F776E61626C653A2063616C6C6572206973206E6F7420746865206F776E6572 PUSH1 0x44 DUP3 ADD MSTORE REVERT JUMPDEST PUSH1 0x40 MLOAD PUSH1 0x20 SWAP4 SWAP3 SWAP1 SWAP2 PUSH2 0x14C5 DUP6 DUP5 PUSH2 0x1353 JUMP JUMPDEST PUSH0 DUP4 MSTORE PUSH1 0x1 PUSH1 0x1 PUSH1 0xA0 SHL SUB DUP2 AND DUP1 ISZERO PUSH2 0x15A8 JUMPI DUP3 SWAP1 PUSH1 0x2 PUSH2 0x1584 SWAP7 SWAP8 PUSH2 0x1507 PUSH2 0x1501 DUP6 PUSH0 MSTORE PUSH1 0x2 PUSH1 0x20 MSTORE PUSH1 0x1 DUP1 PUSH1 0xA0 SHL SUB PUSH1 0x40 PUSH0 KECCAK256 SLOAD AND ISZERO ISZERO SWAP1 JUMP JUMPDEST ISZERO PUSH2 0x1AD7 JUMP JUMPDEST PUSH0 DUP5 DUP2 MSTORE PUSH1 0x2 PUSH1 0x20 MSTORE PUSH1 0x40 SWAP1 KECCAK256 SLOAD PUSH2 0x1529 SWAP1 PUSH1 0x1 PUSH1 0x1 PUSH1 0xA0 SHL SUB AND ISZERO ISZERO PUSH2 0x1501 JUMP JUMPDEST DUP3 PUSH0 MSTORE PUSH1 0x3 DUP2 MSTORE PUSH1 0x40 PUSH0 KECCAK256 PUSH1 0x1 DUP2 SLOAD ADD SWAP1 SSTORE DUP4 PUSH0 MSTORE MSTORE PUSH1 0x40 PUSH0 KECCAK256 DUP2 PUSH12 0xFFFFFFFFFFFFFFFFFFFFFFFF PUSH1 0xA0 SHL DUP3 SLOAD AND OR SWAP1 SSTORE PUSH0 PUSH32 0xDDF252AD1BE2C89B69C2B068FC378DAA952BA7F163C4A11628F55A4DF523B3EF DUP2 DUP1 LOG4 PUSH2 0x1B23 JUMP JUMPDEST ISZERO PUSH2 0x158B JUMPI JUMP JUMPDEST PUSH1 0x40 MLOAD PUSH3 0x461BCD PUSH1 0xE5 SHL DUP2 MSTORE DUP1 PUSH2 0x15A4 PUSH1 0x4 DUP3 ADD PUSH2 0x1A84 JUMP JUMPDEST SUB SWAP1 REVERT JUMPDEST PUSH1 0x64 DUP7 PUSH1 0x40 MLOAD SWAP1 PUSH3 0x461BCD PUSH1 0xE5 SHL DUP3 MSTORE DUP1 PUSH1 0x4 DUP4 ADD MSTORE PUSH1 0x24 DUP3 ADD MSTORE PUSH32 0x4552433732313A206D696E7420746F20746865207A65726F2061646472657373 PUSH1 0x44 DUP3 ADD MSTORE REVERT JUMPDEST SWAP1 PUSH2 0x15F5 DUP3 PUSH2 0x1375 JUMP JUMPDEST PUSH2 0x1602 PUSH1 0x40 MLOAD SWAP2 DUP3 PUSH2 0x1353 JUMP JUMPDEST DUP3 DUP2 MSTORE DUP1 SWAP3 PUSH2 0x1613 PUSH1 0x1F NOT SWAP2 PUSH2 0x1375 JUMP JUMPDEST ADD SWAP1 PUSH1 0x20 CALLDATASIZE SWAP2 ADD CALLDATACOPY JUMP JUMPDEST DUP1 PUSH0 SWAP2 PUSH19 0x184F03E93FF9F4DAA797ED6E38ED64BF6A1F01 PUSH1 0x40 SHL DUP3 LT ISZERO PUSH2 0x1742 JUMPI JUMPDEST DUP1 PUSH14 0x4EE2D6D415B85ACEF8100000000 PUSH1 0xA SWAP3 LT ISZERO PUSH2 0x1727 JUMPI JUMPDEST PUSH7 0x2386F26FC10000 DUP2 LT ISZERO PUSH2 0x1713 JUMPI JUMPDEST PUSH4 0x5F5E100 DUP2 LT ISZERO PUSH2 0x1702 JUMPI JUMPDEST PUSH2 0x2710 DUP2 LT ISZERO PUSH2 0x16F3 JUMPI JUMPDEST PUSH1 0x64 DUP2 LT ISZERO PUSH2 0x16E5 JUMPI JUMPDEST LT ISZERO PUSH2 0x16DA JUMPI JUMPDEST PUSH1 0xA PUSH1 0x21 PUSH2 0x16A2 PUSH1 0x1 DUP6 ADD PUSH2 0x15EB JUMP JUMPDEST SWAP4 DUP5 ADD ADD JUMPDEST PUSH0 NOT ADD SWAP2 PUSH16 0x181899199A1A9B1B9C1CB0B131B232B3 PUSH1 0x81 SHL DUP3 DUP3 MOD BYTE DUP4 MSTORE8 DIV DUP1 ISZERO PUSH2 0x16D5 JUMPI PUSH1 0xA SWAP1 SWAP2 PUSH2 0x16A7 JUMP JUMPDEST POP POP SWAP1 JUMP JUMPDEST PUSH1 0x1 SWAP1 SWAP2 ADD SWAP1 PUSH2 0x1692 JUMP JUMPDEST PUSH1 0x64 PUSH1 0x2 SWAP2 DIV SWAP4 ADD SWAP3 PUSH2 0x168B JUMP JUMPDEST PUSH2 0x2710 PUSH1 0x4 SWAP2 DIV SWAP4 ADD SWAP3 PUSH2 0x1681 JUMP JUMPDEST PUSH4 0x5F5E100 PUSH1 0x8 SWAP2 DIV SWAP4 ADD SWAP3 PUSH2 0x1676 JUMP JUMPDEST PUSH7 0x2386F26FC10000 PUSH1 0x10 SWAP2 DIV SWAP4 ADD SWAP3 PUSH2 0x1669 JUMP JUMPDEST PUSH14 0x4EE2D6D415B85ACEF8100000000 PUSH1 0x20 SWAP2 DIV SWAP4 ADD SWAP3 PUSH2 0x1659 JUMP JUMPDEST POP PUSH1 0x40 SWAP2 POP PUSH19 0x184F03E93FF9F4DAA797ED6E38ED64BF6A1F01 PUSH1 0x40 SHL DUP2 DIV PUSH2 0x163F JUMP JUMPDEST PUSH1 0x4 DUP2 LT ISZERO PUSH2 0x7AB JUMPI DUP1 ISZERO PUSH2 0x17FA JUMPI PUSH1 0x1 DUP2 EQ PUSH2 0x17D4 JUMPI PUSH1 0x2 EQ PUSH2 0x17AB JUMPI PUSH1 0x40 MLOAD PUSH2 0x1791 PUSH1 0x40 DUP3 PUSH2 0x1353 JUMP JUMPDEST PUSH1 0xA DUP2 MSTORE PUSH10 0x44726F6E65537761726D PUSH1 0xB0 SHL PUSH1 0x20 DUP3 ADD MSTORE SWAP1 JUMP JUMPDEST PUSH1 0x40 MLOAD PUSH2 0x17B9 PUSH1 0x40 DUP3 PUSH2 0x1353 JUMP JUMPDEST PUSH1 0xB DUP2 MSTORE PUSH11 0x111C9958591B9BDD59DA1D PUSH1 0xAA SHL PUSH1 0x20 DUP3 ADD MSTORE SWAP1 JUMP JUMPDEST POP PUSH1 0x40 MLOAD PUSH2 0x17E3 PUSH1 0x40 DUP3 PUSH2 0x1353 JUMP JUMPDEST PUSH1 0x7 DUP2 MSTORE PUSH7 0x21B93AB4B9B2B9 PUSH1 0xC9 SHL PUSH1 0x20 DUP3 ADD MSTORE SWAP1 JUMP JUMPDEST POP PUSH1 0x40 MLOAD PUSH2 0x1809 PUSH1 0x40 DUP3 PUSH2 0x1353 JUMP JUMPDEST PUSH1 0x7 DUP2 MSTORE PUSH7 0x2334B3B43A32B9 PUSH1 0xC9 SHL PUSH1 0x20 DUP3 ADD MSTORE SWAP1 JUMP JUMPDEST PUSH2 0x1829 DUP2 PUSH2 0x125B JUMP JUMPDEST DUP1 ISZERO PUSH2 0x188E JUMPI PUSH1 0x1 SWAP1 PUSH2 0x183B DUP2 PUSH2 0x125B JUMP JUMPDEST EQ PUSH2 0x1868 JUMPI PUSH1 0x40 MLOAD PUSH2 0x184E PUSH1 0x40 DUP3 PUSH2 0x1353 JUMP JUMPDEST PUSH1 0xA DUP2 MSTORE PUSH10 0x4D656368616E6F696473 PUSH1 0xB0 SHL PUSH1 0x20 DUP3 ADD MSTORE SWAP1 JUMP JUMPDEST PUSH1 0x40 MLOAD PUSH2 0x1876 PUSH1 0x40 DUP3 PUSH2 0x1353 JUMP JUMPDEST PUSH1 0x8 DUP2 MSTORE PUSH8 0x2B37B4B23137B937 PUSH1 0xC1 SHL PUSH1 0x20 DUP3 ADD MSTORE SWAP1 JUMP JUMPDEST POP PUSH1 0x40 MLOAD PUSH2 0x189D PUSH1 0x40 DUP3 PUSH2 0x1353 JUMP JUMPDEST PUSH1 0x6 DUP2 MSTORE PUSH6 0x456D70697265 PUSH1 0xD0 SHL PUSH1 0x20 DUP3 ADD MSTORE SWAP1 JUMP JUMPDEST PUSH2 0x18BC DUP2 PUSH2 0x125B JUMP JUMPDEST DUP1 ISZERO PUSH2 0x191C JUMPI PUSH1 0x1 SWAP1 PUSH2 0x18CE DUP2 PUSH2 0x125B JUMP JUMPDEST EQ PUSH2 0x18FA JUMPI PUSH1 0x40 MLOAD PUSH2 0x18E1 PUSH1 0x40 DUP3 PUSH2 0x1353 JUMP JUMPDEST PUSH1 0x9 DUP2 MSTORE PUSH9 0x4C6567656E64617279 PUSH1 0xB8 SHL PUSH1 0x20 DUP3 ADD MSTORE SWAP1 JUMP JUMPDEST PUSH1 0x40 MLOAD PUSH2 0x1908 PUSH1 0x40 DUP3 PUSH2 0x1353 JUMP JUMPDEST PUSH1 0x4 DUP2 MSTORE PUSH4 0x52617265 PUSH1 0xE0 SHL PUSH1 0x20 DUP3 ADD MSTORE SWAP1 JUMP JUMPDEST POP PUSH1 0x40 MLOAD PUSH2 0x192B PUSH1 0x40 DUP3 PUSH2 0x1353 JUMP JUMPDEST PUSH1 0x6 DUP2 MSTORE PUSH6 0x21B7B6B6B7B7 PUSH1 0xD1 SHL PUSH1 0x20 DUP3 ADD MSTORE SWAP1 JUMP JUMPDEST DUP1 MLOAD ISZERO PUSH2 0x1A6F JUMPI PUSH1 0x40 MLOAD PUSH2 0x1956 PUSH1 0x60 DUP3 PUSH2 0x1353 JUMP JUMPDEST PUSH1 0x40 DUP2 MSTORE PUSH32 0x4142434445464748494A4B4C4D4E4F505152535455565758595A616263646566 PUSH1 0x20 DUP3 ADD MSTORE PUSH32 0x6768696A6B6C6D6E6F707172737475767778797A303132333435363738392B2F PUSH1 0x40 DUP3 ADD MSTORE DUP2 MLOAD PUSH1 0x2 DUP2 ADD DUP1 SWAP2 GT PUSH2 0x1446 JUMPI PUSH1 0x3 SWAP1 DIV PUSH1 0x1 PUSH1 0x1 PUSH1 0xFE SHL SUB DUP2 AND DUP2 SUB PUSH2 0x1446 JUMPI PUSH2 0x19D3 SWAP1 PUSH1 0x2 SHL PUSH2 0x15EB JUMP JUMPDEST SWAP2 PUSH1 0x20 DUP4 ADD SWAP2 DUP2 SWAP1 DUP3 MLOAD DUP4 ADD SWAP2 JUMPDEST DUP3 DUP2 LT PUSH2 0x1A1F JUMPI POP POP POP PUSH1 0x3 SWAP1 MLOAD MOD DUP1 PUSH1 0x1 EQ PUSH2 0x1A0D JUMPI PUSH1 0x2 EQ PUSH2 0x1A03 JUMPI POP SWAP1 JUMP JUMPDEST PUSH1 0x3D SWAP1 PUSH0 NOT ADD MSTORE8 SWAP1 JUMP JUMPDEST POP PUSH1 0x3D SWAP1 DUP2 PUSH0 NOT DUP3 ADD MSTORE8 PUSH1 0x1 NOT ADD MSTORE8 SWAP1 JUMP JUMPDEST PUSH1 0x3 PUSH1 0x4 SWAP2 SWAP6 SWAP3 SWAP4 SWAP6 ADD SWAP2 PUSH1 0x1 PUSH1 0x3F DUP5 MLOAD DUP3 DUP3 DUP3 PUSH1 0x12 SHR AND DUP9 ADD ADD MLOAD DUP5 MSTORE8 DUP3 DUP3 DUP3 PUSH1 0xC SHR AND DUP9 ADD ADD MLOAD DUP4 DUP6 ADD MSTORE8 DUP3 DUP3 DUP3 PUSH1 0x6 SHR AND DUP9 ADD ADD MLOAD PUSH1 0x2 DUP6 ADD MSTORE8 AND DUP6 ADD ADD MLOAD PUSH1 0x3 DUP3 ADD MSTORE8 ADD SWAP4 SWAP2 SWAP1 PUSH2 0x19E1 JUMP JUMPDEST POP PUSH1 0x40 MLOAD PUSH2 0x1A7E PUSH1 0x20 DUP3 PUSH2 0x1353 JUMP JUMPDEST PUSH0 DUP2 MSTORE SWAP1 JUMP JUMPDEST PUSH1 0x80 SWAP1 PUSH1 0x20 DUP2 MSTORE PUSH1 0x32 PUSH1 0x20 DUP3 ADD MSTORE PUSH32 0x4552433732313A207472616E7366657220746F206E6F6E204552433732315265 PUSH1 0x40 DUP3 ADD MSTORE PUSH18 0x31B2B4BB32B91034B6B83632B6B2B73A32B9 PUSH1 0x71 SHL PUSH1 0x60 DUP3 ADD MSTORE ADD SWAP1 JUMP JUMPDEST ISZERO PUSH2 0x1ADE JUMPI JUMP JUMPDEST PUSH1 0x40 MLOAD PUSH3 0x461BCD PUSH1 0xE5 SHL DUP2 MSTORE PUSH1 0x20 PUSH1 0x4 DUP3 ADD MSTORE PUSH1 0x1C PUSH1 0x24 DUP3 ADD MSTORE PUSH32 0x4552433732313A20746F6B656E20616C7265616479206D696E74656400000000 PUSH1 0x44 DUP3 ADD MSTORE PUSH1 0x64 SWAP1 REVERT JUMPDEST SWAP2 DUP3 EXTCODESIZE ISZERO PUSH2 0x1C32 JUMPI PUSH2 0x1B68 SWAP3 PUSH1 0x20 SWAP3 PUSH0 PUSH1 0x40 MLOAD DUP1 SWAP7 DUP2 SWAP6 DUP3 SWAP5 PUSH4 0xA85BD01 PUSH1 0xE1 SHL DUP5 MSTORE CALLER PUSH1 0x4 DUP6 ADD MSTORE DUP5 PUSH1 0x24 DUP6 ADD MSTORE PUSH1 0x44 DUP5 ADD MSTORE PUSH1 0x80 PUSH1 0x64 DUP5 ADD MSTORE PUSH1 0x84 DUP4 ADD SWAP1 PUSH2 0x120B JUMP JUMPDEST SUB SWAP3 PUSH1 0x1 PUSH1 0x1 PUSH1 0xA0 SHL SUB AND GAS CALL PUSH0 SWAP2 DUP2 PUSH2 0x1BED JUMPI JUMPDEST POP PUSH2 0x1BD7 JUMPI RETURNDATASIZE ISZERO PUSH2 0x1BD0 JUMPI RETURNDATASIZE PUSH2 0x1B92 DUP2 PUSH2 0x1375 JUMP JUMPDEST SWAP1 PUSH2 0x1BA0 PUSH1 0x40 MLOAD SWAP3 DUP4 PUSH2 0x1353 JUMP JUMPDEST DUP2 MSTORE RETURNDATASIZE PUSH0 PUSH1 0x20 DUP4 ADD RETURNDATACOPY JUMPDEST DUP1 MLOAD SWAP1 DUP2 PUSH2 0x1BCB JUMPI PUSH1 0x40 MLOAD PUSH3 0x461BCD PUSH1 0xE5 SHL DUP2 MSTORE DUP1 PUSH2 0x15A4 PUSH1 0x4 DUP3 ADD PUSH2 0x1A84 JUMP JUMPDEST PUSH1 0x20 ADD REVERT JUMPDEST PUSH1 0x60 PUSH2 0x1BAA JUMP JUMPDEST PUSH1 0x1 PUSH1 0x1 PUSH1 0xE0 SHL SUB NOT AND PUSH4 0xA85BD01 PUSH1 0xE1 SHL EQ SWAP1 JUMP JUMPDEST SWAP1 SWAP2 POP PUSH1 0x20 DUP2 RETURNDATASIZE PUSH1 0x20 GT PUSH2 0x1C2A JUMPI JUMPDEST DUP2 PUSH2 0x1C09 PUSH1 0x20 SWAP4 DUP4 PUSH2 0x1353 JUMP JUMPDEST DUP2 ADD SUB SLT PUSH2 0x1E0 JUMPI MLOAD PUSH1 0x1 PUSH1 0x1 PUSH1 0xE0 SHL SUB NOT DUP2 AND DUP2 SUB PUSH2 0x1E0 JUMPI SWAP1 PUSH0 PUSH2 0x1B7D JUMP JUMPDEST RETURNDATASIZE SWAP2 POP PUSH2 0x1BFC JUMP JUMPDEST POP POP POP PUSH1 0x1 SWAP1 JUMP INVALID LOG2 PUSH5 0x6970667358 0x22 SLT KECCAK256 0xE9 RETURNCONTRACT 0x49 SWAP7 SWAP12 0xD9 SWAP11 CALLER DUP7 PREVRANDAO ORIGIN 0xC2 BALANCE PUSH5 0xE6EB36BFD2 0xBF 0xB6 0xC0 0xD7 CALLDATACOPY 0x23 SLOAD 0xD0 0xEF XOR 0xE2 0x2E 0xB7 PUSH5 0x736F6C6343 STOP ADDMOD 0x1E STOP CALLER "
				},
				"gasEstimates": {
					"creation": {
						"codeDepositCost": "1456000",
						"executionCost": "infinite",
						"totalCost": "infinite"
					},
					"external": {
						"approve(address,uint256)": "382",
						"balanceOf(address)": "2645",
						"gameContract()": "2698",
						"getApproved(uint256)": "4618",
						"getUnit(uint256)": "infinite",
						"isApprovedForAll(address,address)": "3035",
						"mintUnit(address,uint8,uint8,uint8,uint8,uint8,uint8)": "infinite",
						"name()": "infinite",
						"owner()": "2588",
						"ownerMint(address,uint8,uint8,uint8,uint8,uint8,uint8)": "infinite",
						"ownerOf(uint256)": "2644",
						"renounceOwnership()": "28302",
						"safeTransferFrom(address,address,uint256)": "537",
						"safeTransferFrom(address,address,uint256,bytes)": "infinite",
						"setApprovalForAll(address,bool)": "699",
						"setGameContract(address)": "26789",
						"supportsInterface(bytes4)": "322",
						"symbol()": "infinite",
						"tokenURI(uint256)": "infinite",
						"totalSupply()": "2366",
						"transferFrom(address,address,uint256)": "493",
						"transferOwnership(address)": "28652",
						"units(uint256)": "infinite"
					},
					"internal": {
						"_getClassName(enum StarForgeUnitNFT.UnitClass)": "infinite",
						"_getFactionName(enum StarForgeUnitNFT.Faction)": "infinite",
						"_getRarityName(enum StarForgeUnitNFT.Rarity)": "infinite"
					}
				},
				"methodIdentifiers": {
					"approve(address,uint256)": "095ea7b3",
					"balanceOf(address)": "70a08231",
					"gameContract()": "d3f33009",
					"getApproved(uint256)": "081812fc",
					"getUnit(uint256)": "1655bfbe",
					"isApprovedForAll(address,address)": "e985e9c5",
					"mintUnit(address,uint8,uint8,uint8,uint8,uint8,uint8)": "71dec088",
					"name()": "06fdde03",
					"owner()": "8da5cb5b",
					"ownerMint(address,uint8,uint8,uint8,uint8,uint8,uint8)": "7f84a5a3",
					"ownerOf(uint256)": "6352211e",
					"renounceOwnership()": "715018a6",
					"safeTransferFrom(address,address,uint256)": "42842e0e",
					"safeTransferFrom(address,address,uint256,bytes)": "b88d4fde",
					"setApprovalForAll(address,bool)": "a22cb465",
					"setGameContract(address)": "405ebd4d",
					"supportsInterface(bytes4)": "01ffc9a7",
					"symbol()": "95d89b41",
					"tokenURI(uint256)": "c87b56dd",
					"totalSupply()": "18160ddd",
					"transferFrom(address,address,uint256)": "23b872dd",
					"transferOwnership(address)": "f2fde38b",
					"units(uint256)": "e5fba6cc"
				}
			},
			"storageLayout": {
				"storage": [
					{
						"astId": 138,
						"contract": "StarForgeUnitNFT.sol:StarForgeUnitNFT",
						"label": "_name",
						"offset": 0,
						"slot": "0",
						"type": "t_string_storage"
					},
					{
						"astId": 140,
						"contract": "StarForgeUnitNFT.sol:StarForgeUnitNFT",
						"label": "_symbol",
						"offset": 0,
						"slot": "1",
						"type": "t_string_storage"
					},
					{
						"astId": 144,
						"contract": "StarForgeUnitNFT.sol:StarForgeUnitNFT",
						"label": "_owners",
						"offset": 0,
						"slot": "2",
						"type": "t_mapping(t_uint256,t_address)"
					},
					{
						"astId": 148,
						"contract": "StarForgeUnitNFT.sol:StarForgeUnitNFT",
						"label": "_balances",
						"offset": 0,
						"slot": "3",
						"type": "t_mapping(t_address,t_uint256)"
					},
					{
						"astId": 152,
						"contract": "StarForgeUnitNFT.sol:StarForgeUnitNFT",
						"label": "_tokenApprovals",
						"offset": 0,
						"slot": "4",
						"type": "t_mapping(t_uint256,t_address)"
					},
					{
						"astId": 158,
						"contract": "StarForgeUnitNFT.sol:StarForgeUnitNFT",
						"label": "_operatorApprovals",
						"offset": 0,
						"slot": "5",
						"type": "t_mapping(t_address,t_mapping(t_address,t_bool))"
					},
					{
						"astId": 7,
						"contract": "StarForgeUnitNFT.sol:StarForgeUnitNFT",
						"label": "_owner",
						"offset": 0,
						"slot": "6",
						"type": "t_address"
					},
					{
						"astId": 2850,
						"contract": "StarForgeUnitNFT.sol:StarForgeUnitNFT",
						"label": "_nextTokenId",
						"offset": 0,
						"slot": "7",
						"type": "t_uint256"
					},
					{
						"astId": 2884,
						"contract": "StarForgeUnitNFT.sol:StarForgeUnitNFT",
						"label": "units",
						"offset": 0,
						"slot": "8",
						"type": "t_mapping(t_uint256,t_struct(Unit)2879_storage)"
					},
					{
						"astId": 2886,
						"contract": "StarForgeUnitNFT.sol:StarForgeUnitNFT",
						"label": "gameContract",
						"offset": 0,
						"slot": "9",
						"type": "t_address"
					}
				],
				"types": {
					"t_address": {
						"encoding": "inplace",
						"label": "address",
						"numberOfBytes": "20"
					},
					"t_bool": {
						"encoding": "inplace",
						"label": "bool",
						"numberOfBytes": "1"
					},
					"t_enum(Faction)2854": {
						"encoding": "inplace",
						"label": "enum StarForgeUnitNFT.Faction",
						"numberOfBytes": "1"
					},
					"t_enum(Rarity)2858": {
						"encoding": "inplace",
						"label": "enum StarForgeUnitNFT.Rarity",
						"numberOfBytes": "1"
					},
					"t_enum(UnitClass)2863": {
						"encoding": "inplace",
						"label": "enum StarForgeUnitNFT.UnitClass",
						"numberOfBytes": "1"
					},
					"t_mapping(t_address,t_bool)": {
						"encoding": "mapping",
						"key": "t_address",
						"label": "mapping(address => bool)",
						"numberOfBytes": "32",
						"value": "t_bool"
					},
					"t_mapping(t_address,t_mapping(t_address,t_bool))": {
						"encoding": "mapping",
						"key": "t_address",
						"label": "mapping(address => mapping(address => bool))",
						"numberOfBytes": "32",
						"value": "t_mapping(t_address,t_bool)"
					},
					"t_mapping(t_address,t_uint256)": {
						"encoding": "mapping",
						"key": "t_address",
						"label": "mapping(address => uint256)",
						"numberOfBytes": "32",
						"value": "t_uint256"
					},
					"t_mapping(t_uint256,t_address)": {
						"encoding": "mapping",
						"key": "t_uint256",
						"label": "mapping(uint256 => address)",
						"numberOfBytes": "32",
						"value": "t_address"
					},
					"t_mapping(t_uint256,t_struct(Unit)2879_storage)": {
						"encoding": "mapping",
						"key": "t_uint256",
						"label": "mapping(uint256 => struct StarForgeUnitNFT.Unit)",
						"numberOfBytes": "32",
						"value": "t_struct(Unit)2879_storage"
					},
					"t_string_storage": {
						"encoding": "bytes",
						"label": "string",
						"numberOfBytes": "32"
					},
					"t_struct(Unit)2879_storage": {
						"encoding": "inplace",
						"label": "struct StarForgeUnitNFT.Unit",
						"members": [
							{
								"astId": 2866,
								"contract": "StarForgeUnitNFT.sol:StarForgeUnitNFT",
								"label": "faction",
								"offset": 0,
								"slot": "0",
								"type": "t_enum(Faction)2854"
							},
							{
								"astId": 2869,
								"contract": "StarForgeUnitNFT.sol:StarForgeUnitNFT",
								"label": "rarity",
								"offset": 1,
								"slot": "0",
								"type": "t_enum(Rarity)2858"
							},
							{
								"astId": 2872,
								"contract": "StarForgeUnitNFT.sol:StarForgeUnitNFT",
								"label": "unitClass",
								"offset": 2,
								"slot": "0",
								"type": "t_enum(UnitClass)2863"
							},
							{
								"astId": 2874,
								"contract": "StarForgeUnitNFT.sol:StarForgeUnitNFT",
								"label": "attack",
								"offset": 3,
								"slot": "0",
								"type": "t_uint8"
							},
							{
								"astId": 2876,
								"contract": "StarForgeUnitNFT.sol:StarForgeUnitNFT",
								"label": "defense",
								"offset": 4,
								"slot": "0",
								"type": "t_uint8"
							},
							{
								"astId": 2878,
								"contract": "StarForgeUnitNFT.sol:StarForgeUnitNFT",
								"label": "speed",
								"offset": 5,
								"slot": "0",
								"type": "t_uint8"
							}
						],
						"numberOfBytes": "32"
					},
					"t_uint256": {
						"encoding": "inplace",
						"label": "uint256",
						"numberOfBytes": "32"
					},
					"t_uint8": {
						"encoding": "inplace",
						"label": "uint8",
						"numberOfBytes": "1"
					}
				}
			},
			"userdoc": {
				"kind": "user",
				"methods": {},
				"version": 1
			}
		}
	}
}