{
	"StarForgeRelic.sol": {
		"StarForgeRelic": {
			"abi": [
				{
					"inputs": [],
					"stateMutability": "nonpayable",
					"type": "constructor"
				},
				{
					"anonymous": false,
					"inputs": [
						{
							"indexed": true,
							"internalType": "address",
							"name": "account",
							"type": "address"
						},
						{
							"indexed": true,
							"internalType": "address",
							"name": "operator",
							"type": "address"
						},
						{
							"indexed": false,
							"internalType": "bool",
							"name": "approved",
							"type": "bool"
						}
					],
					"name": "ApprovalForAll",
					"type": "event"
				},
				{
					"anonymous": false,
					"inputs": [
						{
							"indexed": true,
							"internalType": "address",
							"name": "previousOwner",
							"type": "address"
						},
						{
							"indexed": true,
							"internalType": "address",
							"name": "newOwner",
							"type": "address"
						}
					],
					"name": "OwnershipTransferred",
					"type": "event"
				},
				{
					"anonymous": false,
					"inputs": [
						{
							"indexed": true,
							"internalType": "address",
							"name": "to",
							"type": "address"
						},
						{
							"indexed": false,
							"internalType": "uint256",
							"name": "id",
							"type": "uint256"
						},
						{
							"indexed": false,
							"internalType": "enum StarForgeRelic.RelicType",
							"name": "relicType",
							"type": "uint8"
						},
						{
							"indexed": false,
							"internalType": "uint8",
							"name": "value",
							"type": "uint8"
						},
						{
							"indexed": false,
							"internalType": "string",
							"name": "name",
							"type": "string"
						}
					],
					"name": "RelicMinted",
					"type": "event"
				},
				{
					"anonymous": false,
					"inputs": [
						{
							"indexed": true,
							"internalType": "address",
							"name": "operator",
							"type": "address"
						},
						{
							"indexed": true,
							"internalType": "address",
							"name": "from",
							"type": "address"
						},
						{
							"indexed": true,
							"internalType": "address",
							"name": "to",
							"type": "address"
						},
						{
							"indexed": false,
							"internalType": "uint256[]",
							"name": "ids",
							"type": "uint256[]"
						},
						{
							"indexed": false,
							"internalType": "uint256[]",
							"name": "values",
							"type": "uint256[]"
						}
					],
					"name": "TransferBatch",
					"type": "event"
				},
				{
					"anonymous": false,
					"inputs": [
						{
							"indexed": true,
							"internalType": "address",
							"name": "operator",
							"type": "address"
						},
						{
							"indexed": true,
							"internalType": "address",
							"name": "from",
							"type": "address"
						},
						{
							"indexed": true,
							"internalType": "address",
							"name": "to",
							"type": "address"
						},
						{
							"indexed": false,
							"internalType": "uint256",
							"name": "id",
							"type": "uint256"
						},
						{
							"indexed": false,
							"internalType": "uint256",
							"name": "value",
							"type": "uint256"
						}
					],
					"name": "TransferSingle",
					"type": "event"
				},
				{
					"anonymous": false,
					"inputs": [
						{
							"indexed": false,
							"internalType": "string",
							"name": "value",
							"type": "string"
						},
						{
							"indexed": true,
							"internalType": "uint256",
							"name": "id",
							"type": "uint256"
						}
					],
					"name": "URI",
					"type": "event"
				},
				{
					"inputs": [
						{
							"internalType": "address",
							"name": "account",
							"type": "address"
						},
						{
							"internalType": "uint256",
							"name": "id",
							"type": "uint256"
						}
					],
					"name": "balanceOf",
					"outputs": [
						{
							"internalType": "uint256",
							"name": "",
							"type": "uint256"
						}
					],
					"stateMutability": "view",
					"type": "function"
				},
				{
					"inputs": [
						{
							"internalType": "address[]",
							"name": "accounts",
							"type": "address[]"
						},
						{
							"internalType": "uint256[]",
							"name": "ids",
							"type": "uint256[]"
						}
					],
					"name": "balanceOfBatch",
					"outputs": [
						{
							"internalType": "uint256[]",
							"name": "",
							"type": "uint256[]"
						}
					],
					"stateMutability": "view",
					"type": "function"
				},
				{
					"inputs": [],
					"name": "gameContract",
					"outputs": [
						{
							"internalType": "address",
							"name": "",
							"type": "address"
						}
					],
					"stateMutability": "view",
					"type": "function"
				},
				{
					"inputs": [
						{
							"internalType": "uint256",
							"name": "id",
							"type": "uint256"
						}
					],
					"name": "getRelic",
					"outputs": [
						{
							"components": [
								{
									"internalType": "enum StarForgeRelic.RelicType",
									"name": "relicType",
									"type": "uint8"
								},
								{
									"internalType": "uint8",
									"name": "value",
									"type": "uint8"
								},
								{
									"internalType": "string",
									"name": "name",
									"type": "string"
								}
							],
							"internalType": "struct StarForgeRelic.RelicData",
							"name": "",
							"type": "tuple"
						}
					],
					"stateMutability": "view",
					"type": "function"
				},
				{
					"inputs": [
						{
							"internalType": "address",
							"name": "account",
							"type": "address"
						},
						{
							"internalType": "address",
							"name": "operator",
							"type": "address"
						}
					],
					"name": "isApprovedForAll",
					"outputs": [
						{
							"internalType": "bool",
							"name": "",
							"type": "bool"
						}
					],
					"stateMutability": "view",
					"type": "function"
				},
				{
					"inputs": [
						{
							"internalType": "address",
							"name": "to",
							"type": "address"
						},
						{
							"internalType": "enum StarForgeRelic.RelicType",
							"name": "relicType",
							"type": "uint8"
						},
						{
							"internalType": "uint8",
							"name": "value",
							"type": "uint8"
						}
					],
					"name": "mintRelic",
					"outputs": [
						{
							"internalType": "uint256",
							"name": "",
							"type": "uint256"
						}
					],
					"stateMutability": "nonpayable",
					"type": "function"
				},
				{
					"inputs": [],
					"name": "owner",
					"outputs": [
						{
							"internalType": "address",
							"name": "",
							"type": "address"
						}
					],
					"stateMutability": "view",
					"type": "function"
				},
				{
					"inputs": [
						{
							"internalType": "uint256",
							"name": "",
							"type": "uint256"
						}
					],
					"name": "relics",
					"outputs": [
						{
							"internalType": "enum StarForgeRelic.RelicType",
							"name": "relicType",
							"type": "uint8"
						},
						{
							"internalType": "uint8",
							"name": "value",
							"type": "uint8"
						},
						{
							"internalType": "string",
							"name": "name",
							"type": "string"
						}
					],
					"stateMutability": "view",
					"type": "function"
				},
				{
					"inputs": [],
					"name": "renounceOwnership",
					"outputs": [],
					"stateMutability": "nonpayable",
					"type": "function"
				},
				{
					"inputs": [
						{
							"internalType": "address",
							"name": "",
							"type": "address"
						},
						{
							"internalType": "address",
							"name": "",
							"type": "address"
						},
						{
							"internalType": "uint256[]",
							"name": "",
							"type": "uint256[]"
						},
						{
							"internalType": "uint256[]",
							"name": "",
							"type": "uint256[]"
						},
						{
							"internalType": "bytes",
							"name": "",
							"type": "bytes"
						}
					],
					"name": "safeBatchTransferFrom",
					"outputs": [],
					"stateMutability": "pure",
					"type": "function"
				},
				{
					"inputs": [
						{
							"internalType": "address",
							"name": "",
							"type": "address"
						},
						{
							"internalType": "address",
							"name": "",
							"type": "address"
						},
						{
							"internalType": "uint256",
							"name": "",
							"type": "uint256"
						},
						{
							"internalType": "uint256",
							"name": "",
							"type": "uint256"
						},
						{
							"internalType": "bytes",
							"name": "",
							"type": "bytes"
						}
					],
					"name": "safeTransferFrom",
					"outputs": [],
					"stateMutability": "pure",
					"type": "function"
				},
				{
					"inputs": [
						{
							"internalType": "address",
							"name": "operator",
							"type": "address"
						},
						{
							"internalType": "bool",
							"name": "approved",
							"type": "bool"
						}
					],
					"name": "setApprovalForAll",
					"outputs": [],
					"stateMutability": "nonpayable",
					"type": "function"
				},
				{
					"inputs": [
						{
							"internalType": "address",
							"name": "_gameContract",
							"type": "address"
						}
					],
					"name": "setGameContract",
					"outputs": [],
					"stateMutability": "nonpayable",
					"type": "function"
				},
				{
					"inputs": [
						{
							"internalType": "bytes4",
							"name": "interfaceId",
							"type": "bytes4"
						}
					],
					"name": "supportsInterface",
					"outputs": [
						{
							"internalType": "bool",
							"name": "",
							"type": "bool"
						}
					],
					"stateMutability": "view",
					"type": "function"
				},
				{
					"inputs": [],
					"name": "totalSupply",
					"outputs": [
						{
							"internalType": "uint256",
							"name": "",
							"type": "uint256"
						}
					],
					"stateMutability": "view",
					"type": "function"
				},
				{
					"inputs": [
						{
							"internalType": "address",
							"name": "newOwner",
							"type": "address"
						}
					],
					"name": "transferOwnership",
					"outputs": [],
					"stateMutability": "nonpayable",
					"type": "function"
				},
				{
					"inputs": [
						{
							"internalType": "uint256",
							"name": "id",
							"type": "uint256"
						}
					],
					"name": "uri",
					"outputs": [
						{
							"internalType": "string",
							"name": "",
							"type": "string"
						}
					],
					"stateMutability": "view",
					"type": "function"
				}
			],
			"devdoc": {
				"events": {
					"ApprovalForAll(address,address,bool)": {
						"details": "Emitted when `account` grants or revokes permission to `operator` to transfer their tokens, according to `approved`."
					},
					"TransferBatch(address,address,address,uint256[],uint256[])": {
						"details": "Equivalent to multiple {TransferSingle} events, where `operator`, `from` and `to` are the same for all transfers."
					},
					"TransferSingle(address,address,address,uint256,uint256)": {
						"details": "Emitted when `value` tokens of token type `id` are transferred from `from` to `to` by `operator`."
					},
					"URI(string,uint256)": {
						"details": "Emitted when the URI for token type `id` changes to `value`, if it is a non-programmatic URI. If an {URI} event was emitted for `id`, the standard https://eips.ethereum.org/EIPS/eip-1155#metadata-extensions[guarantees] that `value` will equal the value returned by {IERC1155MetadataURI-uri}."
					}
				},
				"kind": "dev",
				"methods": {
					"balanceOf(address,uint256)": {
						"details": "See {IERC1155-balanceOf}. Requirements: - `account` cannot be the zero address."
					},
					"balanceOfBatch(address[],uint256[])": {
						"details": "See {IERC1155-balanceOfBatch}. Requirements: - `accounts` and `ids` must have the same length."
					},
					"isApprovedForAll(address,address)": {
						"details": "See {IERC1155-isApprovedForAll}."
					},
					"owner()": {
						"details": "Returns the address of the current owner."
					},
					"renounceOwnership()": {
						"details": "Leaves the contract without owner. It will not be possible to call `onlyOwner` functions. Can only be called by the current owner. NOTE: Renouncing ownership will leave the contract without an owner, thereby disabling any functionality that is only available to the owner."
					},
					"setApprovalForAll(address,bool)": {
						"details": "See {IERC1155-setApprovalForAll}."
					},
					"supportsInterface(bytes4)": {
						"details": "See {IERC165-supportsInterface}."
					},
					"transferOwnership(address)": {
						"details": "Transfers ownership of the contract to a new account (`newOwner`). Can only be called by the current owner."
					}
				},
				"version": 1
			},
			"evm": {
				"assembly": "    /* \"StarForgeRelic.sol\":249:3421  contract StarForgeRelic is ERC1155, Ownable {... */\n  0x80\n  jumpi(tag_1, callvalue)\n  0x20\n  dup2\n  add\n  swap1\n  sub(shl(0x40, 0x01), 0x01)\n  dup3\n  gt\n  dup2\n  dup4\n  lt\n  or\n  tag_3\n  jumpi\n  0x00\n  swap2\n  0x40\n  mstore\n  mstore\n    /* \"@openzeppelin/contracts@4.9.3/token/ERC1155/ERC1155.sol\":8215:8228  _uri = newuri */\n  0x02\n    /* \"StarForgeRelic.sol\":249:3421  contract StarForgeRelic is ERC1155, Ownable {... */\n  sload\n  0x01\n  dup2\n  dup2\n  shr\n  swap2\n  and\n  dup1\n  iszero\n  tag_5\n  jumpi\ntag_6:\n  0x20\n  dup3\n  lt\n  eq\n  tag_7\n  jumpi\n  0x1f\n  dup2\n  gt\n  tag_9\n  jumpi\ntag_10:\n  0x00\n    /* \"@openzeppelin/contracts@4.9.3/token/ERC1155/ERC1155.sol\":8215:8228  _uri = newuri */\n  0x02\n    /* \"StarForgeRelic.sol\":249:3421  contract StarForgeRelic is ERC1155, Ownable {... */\n  dup2\n  swap1\n  sstore\n  0x03\n  dup1\n  sload\n    /* \"@openzeppelin/contracts@4.9.3/utils/Context.sol\":719:729  msg.sender */\n  caller\n  not(sub(shl(0xa0, 0x01), 0x01))\n    /* \"StarForgeRelic.sol\":249:3421  contract StarForgeRelic is ERC1155, Ownable {... */\n  dup3\n  and\n  dup2\n  or\n  swap1\n  swap3\n  sstore\n  mload(0x40)\n  swap3\n  sub(shl(0xa0, 0x01), 0x01)\n  swap1\n  swap2\n  and\n  swap1\n    /* \"@openzeppelin/contracts@4.9.3/access/Ownable.sol\":2566:2606  OwnershipTransferred(oldOwner, newOwner) */\n  0x8be0079c531659141344cd1fd0a4f28419497f9722a3daafe3b4186f6b6457e0\n  swap1\n  dup1\n  log3\n    /* \"StarForgeRelic.sol\":249:3421  contract StarForgeRelic is ERC1155, Ownable {... */\n  dataSize(sub_0)\n  swap1\n  dup2\n  dataOffset(sub_0)\n  dup3\n  codecopy\n  return\ntag_9:\n    /* \"@openzeppelin/contracts@4.9.3/token/ERC1155/ERC1155.sol\":8215:8228  _uri = newuri */\n  0x02\n  0x00\n    /* \"StarForgeRelic.sol\":249:3421  contract StarForgeRelic is ERC1155, Ownable {... */\n  mstore\n  0x1f\n  add\n  0x05\n  shr\n  0x405787fa12a823e0f2b7631cc41b3ba8828b3321ca811111fa75cd3aa3bb5ace\n  swap1\n  dup2\n  add\n  swap1\ntag_11:\n  dup2\n  dup2\n  lt\n  tag_12\n  jumpi\n  pop\n  jump(tag_10)\ntag_12:\n  0x00\n  dup2\n  sstore\n  0x01\n  add\n  jump(tag_11)\ntag_7:\n  mstore(0x00, shl(0xe0, 0x4e487b71))\n  mstore(0x04, 0x22)\n  revert(0x00, 0x24)\ntag_5:\n  swap1\n  0x7f\n  and\n  swap1\n  jump(tag_6)\ntag_3:\n  mstore(0x00, shl(0xe0, 0x4e487b71))\n  mstore(0x04, 0x41)\n  revert(0x00, 0x24)\ntag_1:\n  0x00\n  dup1\n  revert\nstop\n\nsub_0: assembly {\n        /* \"StarForgeRelic.sol\":249:3421  contract StarForgeRelic is ERC1155, Ownable {... */\n      mstore(0x40, 0x80)\n      jumpi(tag_24, iszero(lt(calldatasize, 0x04)))\n      0x00\n      dup1\n      revert\n    tag_24:\n      shr(0xe0, calldataload(0x00))\n      dup1\n      0xfdd58e\n      eq\n      tag_26\n      jumpi\n      dup1\n      0x01ffc9a7\n      eq\n      tag_28\n      jumpi\n      dup1\n      0x0e89341c\n      eq\n      tag_30\n      jumpi\n      dup1\n      0x18160ddd\n      eq\n      tag_32\n      jumpi\n      dup1\n      0x2eb2c2d6\n      eq\n      tag_34\n      jumpi\n      dup1\n      0x405ebd4d\n      eq\n      tag_36\n      jumpi\n      dup1\n      0x4e1273f4\n      eq\n      tag_38\n      jumpi\n      dup1\n      0x68972d59\n      eq\n      tag_40\n      jumpi\n      dup1\n      0x715018a6\n      eq\n      tag_42\n      jumpi\n      dup1\n      0x8da5cb5b\n      eq\n      tag_44\n      jumpi\n      dup1\n      0xa22cb465\n      eq\n      tag_46\n      jumpi\n      dup1\n      0xb496da8b\n      eq\n      tag_48\n      jumpi\n      dup1\n      0xd3f33009\n      eq\n      tag_50\n      jumpi\n      dup1\n      0xe985e9c5\n      eq\n      tag_52\n      jumpi\n      dup1\n      0xf242432a\n      eq\n      tag_54\n      jumpi\n      dup1\n      0xf2fde38b\n      eq\n      tag_56\n      jumpi\n      0xf925b741\n      eq\n      tag_58\n      jumpi\n      0x00\n      dup1\n      revert\n    tag_58:\n      jumpi(tag_129, callvalue)\n      jumpi(tag_129, slt(add(not(0x03), calldatasize), 0x60))\n      tag_64\n      tag_1\n      jump\t// in\n    tag_64:\n      calldataload(0x24)\n      swap1\n      0x06\n      dup3\n      lt\n      iszero\n      tag_129\n      jumpi\n      calldataload(0x44)\n      swap1\n      0xff\n      dup3\n      and\n      swap3\n      dup4\n      dup4\n      sub\n      tag_129\n      jumpi\n      and(sub(shl(0xa0, 0x01), 0x01), sload(0x04))\n        /* \"StarForgeRelic.sol\":879:889  msg.sender */\n      caller\n        /* \"StarForgeRelic.sol\":879:905  msg.sender == gameContract */\n      sub\n        /* \"StarForgeRelic.sol\":249:3421  contract StarForgeRelic is ERC1155, Ownable {... */\n      tag_69\n      jumpi\n        /* \"StarForgeRelic.sol\":1316:1330  _nextRelicId++ */\n      0x05\n        /* \"StarForgeRelic.sol\":249:3421  contract StarForgeRelic is ERC1155, Ownable {... */\n      sload\n      swap3\n      not(0x00)\n      dup5\n      eq\n      tag_79\n      jumpi\n        /* \"StarForgeRelic.sol\":1362:1398  _generateRelicName(relicType, value) */\n      tag_73\n        /* \"StarForgeRelic.sol\":249:3421  contract StarForgeRelic is ERC1155, Ownable {... */\n      swap1\n      0x01\n      dup6\n      add\n        /* \"StarForgeRelic.sol\":1316:1330  _nextRelicId++ */\n      0x05\n        /* \"StarForgeRelic.sol\":249:3421  contract StarForgeRelic is ERC1155, Ownable {... */\n      sstore\n        /* \"StarForgeRelic.sol\":1362:1398  _generateRelicName(relicType, value) */\n      dup3\n      tag_19\n      jump\t// in\n    tag_73:\n        /* \"StarForgeRelic.sol\":249:3421  contract StarForgeRelic is ERC1155, Ownable {... */\n      0x20\n      swap5\n      mload(0x40)\n      tag_74\n      dup8\n      dup3\n      tag_5\n      jump\t// in\n    tag_74:\n      0x00\n      dup2\n      mstore\n      sub(shl(0xa0, 0x01), 0x01)\n      dup6\n      and\n      swap5\n        /* \"@openzeppelin/contracts@4.9.3/token/ERC1155/ERC1155.sol\":8717:8733  to != address(0) */\n      dup6\n      iszero\n        /* \"StarForgeRelic.sol\":249:3421  contract StarForgeRelic is ERC1155, Ownable {... */\n      tag_75\n      jumpi\n        /* \"@openzeppelin/contracts@4.9.3/token/ERC1155/ERC1155.sol\":8846:8867  _asSingletonArray(id) */\n      tag_77\n      dup8\n      tag_22\n      jump\t// in\n    tag_77:\n      pop\n        /* \"@openzeppelin/contracts@4.9.3/token/ERC1155/ERC1155.sol\":8904:8929  _asSingletonArray(amount) */\n      tag_78\n      tag_21\n      jump\t// in\n    tag_78:\n      pop\n        /* \"StarForgeRelic.sol\":249:3421  contract StarForgeRelic is ERC1155, Ownable {... */\n      dup7\n      0x00\n      mstore\n      0x00\n      dup9\n      mstore\n      keccak256(0x00, 0x40)\n      dup7\n      0x00\n      mstore\n      dup9\n      mstore\n      keccak256(0x00, 0x40)\n      swap1\n      dup2\n      sload\n      0x01\n      dup2\n      add\n      dup1\n      swap2\n      gt\n      tag_79\n      jumpi\n      dup10\n      swap3\n      sstore\n      dup7\n      0x00\n      mload(0x40)\n      dup11\n      dup2\n      mstore\n      0x01\n      dup6\n      dup3\n      add\n      mstore\n        /* \"@openzeppelin/contracts@4.9.3/token/ERC1155/ERC1155.sol\":9059:9111  TransferSingle(operator, address(0), to, id, amount) */\n      0xc3d58168c5ae7397731d063d5bbf3d657854427343f4c083240f7aacaa2d0f62\n        /* \"StarForgeRelic.sol\":249:3421  contract StarForgeRelic is ERC1155, Ownable {... */\n      0x40\n        /* \"StarForgeRelic.sol\":879:889  msg.sender */\n      caller\n        /* \"@openzeppelin/contracts@4.9.3/token/ERC1155/ERC1155.sol\":9059:9111  TransferSingle(operator, address(0), to, id, amount) */\n      swap3\n      log4\n        /* \"@openzeppelin/contracts@4.9.3/utils/Address.sol\":1702:1721  account.code.length */\n      extcodesize\n        /* \"@openzeppelin/contracts@4.9.3/token/ERC1155/ERC1155.sol\":15588:16104  if (to.isContract()) {... */\n      tag_81\n      jumpi\n        /* \"StarForgeRelic.sol\":249:3421  contract StarForgeRelic is ERC1155, Ownable {... */\n    tag_82:\n      pop\n      pop\n      mload(0x40)\n      tag_83\n      dup2\n      tag_4\n      jump\t// in\n    tag_83:\n        /* \"StarForgeRelic.sol\":1457:1566  RelicData({... */\n      tag_84\n      dup5\n      dup3\n      tag_14\n      jump\t// in\n    tag_84:\n      dup7\n      dup2\n      add\n        /* \"StarForgeRelic.sol\":249:3421  contract StarForgeRelic is ERC1155, Ownable {... */\n      dup3\n      dup2\n      mstore\n      0x40\n        /* \"StarForgeRelic.sol\":1457:1566  RelicData({... */\n      dup3\n      add\n        /* \"StarForgeRelic.sol\":249:3421  contract StarForgeRelic is ERC1155, Ownable {... */\n      swap2\n      dup5\n      dup4\n      mstore\n      dup8\n      0x00\n      mstore\n      0x06\n      dup10\n      mstore\n      keccak256(0x00, 0x40)\n      swap1\n      mload\n      0x06\n      dup2\n      lt\n      iszero\n      tag_85\n      jumpi\n      0x01\n      swap3\n      0xff\n      0xff00\n      dup5\n      sload\n      swap3\n      mload\n      0x08\n      shl\n      and\n      swap3\n      and\n      swap1\n      not(0xffff)\n      and\n      or\n      or\n      dup2\n      sstore\n      add\n      swap1\n      mload\n      dup1\n      mload\n      swap1\n      0xffffffffffffffff\n      dup3\n      gt\n      tag_87\n      jumpi\n      tag_89\n      dup4\n      sload\n      tag_11\n      jump\t// in\n    tag_89:\n      0x1f\n      dup2\n      gt\n      tag_90\n      jumpi\n    tag_91:\n      pop\n      dup9\n      swap1\n      0x1f\n      dup4\n      gt\n      0x01\n      eq\n      tag_92\n      jumpi\n      swap3\n      dup3\n      tag_94\n      swap7\n      swap4\n        /* \"StarForgeRelic.sol\":1584:1627  RelicMinted(to, id, relicType, value, name) */\n      0x446a347ed71074962a8b80451720d6d4fe570bbdd0e70c4ce13db1ff80c0ee57\n        /* \"StarForgeRelic.sol\":249:3421  contract StarForgeRelic is ERC1155, Ownable {... */\n      swap9\n      swap7\n      swap4\n      tag_95\n      swap7\n      0x00\n      swap3\n      tag_96\n      jumpi\n    tag_97:\n      pop\n      pop\n      dup2\n      0x01\n      shl\n      swap2\n      not(0x00)\n      swap1\n      0x03\n      shl\n      shr\n      not\n      and\n      or\n      swap1\n      sstore\n    tag_98:\n      mload(0x40)\n      swap5\n      dup6\n      swap5\n      dup10\n      dup7\n      mstore\n      dup11\n      dup7\n      add\n      swap1\n      tag_10\n      jump\t// in\n    tag_94:\n      0x40\n      dup5\n      add\n      mstore\n      0x80\n      0x60\n      dup5\n      add\n      mstore\n      0x80\n      dup4\n      add\n      swap1\n      tag_3\n      jump\t// in\n    tag_95:\n        /* \"StarForgeRelic.sol\":1584:1627  RelicMinted(to, id, relicType, value, name) */\n      sub\n      swap1\n      log2\n        /* \"StarForgeRelic.sol\":249:3421  contract StarForgeRelic is ERC1155, Ownable {... */\n      mload(0x40)\n      swap1\n      dup2\n      mstore\n      return\n    tag_96:\n      add\n      mload\n      swap1\n      pop\n      0x00\n      dup1\n      jump(tag_97)\n    tag_92:\n      swap1\n      not(0x1f)\n      dup4\n      and\n      swap2\n      dup5\n      0x00\n      mstore\n      dup11\n      0x00\n      keccak256\n      swap3\n      0x00\n    tag_99:\n      dup13\n      dup3\n      dup3\n      lt\n      tag_100\n      jumpi\n      pop\n      pop\n      swap4\n        /* \"StarForgeRelic.sol\":1584:1627  RelicMinted(to, id, relicType, value, name) */\n      0x446a347ed71074962a8b80451720d6d4fe570bbdd0e70c4ce13db1ff80c0ee57\n        /* \"StarForgeRelic.sol\":249:3421  contract StarForgeRelic is ERC1155, Ownable {... */\n      swap9\n      swap7\n      swap4\n      tag_95\n      swap7\n      swap4\n      0x01\n      swap4\n      dup4\n      tag_94\n      swap12\n      swap9\n      lt\n      tag_102\n      jumpi\n    tag_103:\n      pop\n      pop\n      pop\n      dup2\n      shl\n      add\n      swap1\n      sstore\n      jump(tag_98)\n    tag_102:\n      add\n      mload\n      not(0x00)\n      0xf8\n      dup5\n      0x03\n      shl\n      and\n      shr\n      not\n      and\n      swap1\n      sstore\n      0x00\n      dup1\n      dup1\n      jump(tag_103)\n    tag_100:\n      0x01\n      dup6\n      swap7\n      dup3\n      swap4\n      swap7\n      dup7\n      add\n      mload\n      dup2\n      sstore\n      add\n      swap6\n      add\n      swap4\n      add\n      jump(tag_99)\n    tag_90:\n      dup4\n      0x00\n      mstore\n      dup10\n      0x00\n      keccak256\n      0x1f\n      dup5\n      add\n        /* \"StarForgeRelic.sol\":1316:1330  _nextRelicId++ */\n      0x05\n        /* \"StarForgeRelic.sol\":249:3421  contract StarForgeRelic is ERC1155, Ownable {... */\n      shr\n      dup2\n      add\n      swap2\n      dup12\n      dup6\n      lt\n      tag_104\n      jumpi\n    tag_105:\n      0x1f\n      add\n        /* \"StarForgeRelic.sol\":1316:1330  _nextRelicId++ */\n      0x05\n        /* \"StarForgeRelic.sol\":249:3421  contract StarForgeRelic is ERC1155, Ownable {... */\n      shr\n      add\n      swap1\n    tag_106:\n      dup2\n      dup2\n      lt\n      tag_107\n      jumpi\n      pop\n      jump(tag_91)\n    tag_107:\n      0x00\n      dup2\n      sstore\n      0x01\n      add\n      jump(tag_106)\n    tag_104:\n      swap1\n      swap2\n      pop\n      dup2\n      swap1\n      jump(tag_105)\n    tag_87:\n      mstore(0x00, shl(0xe0, 0x4e487b71))\n      mstore(0x04, 0x41)\n      revert(0x00, 0x24)\n    tag_85:\n      mstore(0x00, shl(0xe0, 0x4e487b71))\n      mstore(0x04, 0x21)\n      revert(0x00, 0x24)\n        /* \"@openzeppelin/contracts@4.9.3/token/ERC1155/ERC1155.sol\":15588:16104  if (to.isContract()) {... */\n    tag_81:\n        /* \"StarForgeRelic.sol\":249:3421  contract StarForgeRelic is ERC1155, Ownable {... */\n      tag_109\n      swap2\n      mload(0x40)\n      dup1\n      swap4\n      dup2\n      swap3\n      shl(0xe0, 0xf23a6e61)\n        /* \"@openzeppelin/contracts@4.9.3/token/ERC1155/ERC1155.sol\":15627:15699  IERC1155Receiver(to).onERC1155Received(operator, from, id, amount, data) */\n      dup4\n      mstore\n        /* \"StarForgeRelic.sol\":879:889  msg.sender */\n      caller\n        /* \"StarForgeRelic.sol\":249:3421  contract StarForgeRelic is ERC1155, Ownable {... */\n      0x04\n        /* \"@openzeppelin/contracts@4.9.3/token/ERC1155/ERC1155.sol\":15627:15699  IERC1155Receiver(to).onERC1155Received(operator, from, id, amount, data) */\n      dup5\n      add\n        /* \"StarForgeRelic.sol\":249:3421  contract StarForgeRelic is ERC1155, Ownable {... */\n      mstore\n      0x00\n      0x24\n      dup5\n      add\n      mstore\n      dup11\n      0x44\n      dup5\n      add\n      mstore\n      0x01\n      0x64\n      dup5\n      add\n      mstore\n      0xa0\n      0x84\n      dup5\n      add\n      mstore\n      0xa4\n      dup4\n      add\n      swap1\n      tag_3\n      jump\t// in\n    tag_109:\n        /* \"@openzeppelin/contracts@4.9.3/token/ERC1155/ERC1155.sol\":15627:15699  IERC1155Receiver(to).onERC1155Received(operator, from, id, amount, data) */\n      sub\n      dup2\n        /* \"StarForgeRelic.sol\":249:3421  contract StarForgeRelic is ERC1155, Ownable {... */\n      0x00\n        /* \"@openzeppelin/contracts@4.9.3/token/ERC1155/ERC1155.sol\":15627:15699  IERC1155Receiver(to).onERC1155Received(operator, from, id, amount, data) */\n      dup10\n      gas\n      call\n        /* \"StarForgeRelic.sol\":249:3421  contract StarForgeRelic is ERC1155, Ownable {... */\n      0x00\n      swap2\n        /* \"@openzeppelin/contracts@4.9.3/token/ERC1155/ERC1155.sol\":15627:15699  IERC1155Receiver(to).onERC1155Received(operator, from, id, amount, data) */\n      dup2\n      tag_110\n      jumpi\n        /* \"@openzeppelin/contracts@4.9.3/token/ERC1155/ERC1155.sol\":15588:16104  if (to.isContract()) {... */\n    tag_111:\n      pop\n        /* \"@openzeppelin/contracts@4.9.3/token/ERC1155/ERC1155.sol\":15623:16094  try IERC1155Receiver(to).onERC1155Received(operator, from, id, amount, data) returns (bytes4 response) {... */\n      tag_112\n      jumpi\n      dup7\n        /* \"StarForgeRelic.sol\":249:3421  contract StarForgeRelic is ERC1155, Ownable {... */\n      0x00\n      jumpi(tag_114, gt(returndatasize, 0x03))\n        /* \"@openzeppelin/contracts@4.9.3/token/ERC1155/ERC1155.sol\":15623:16094  try IERC1155Receiver(to).onERC1155Received(operator, from, id, amount, data) returns (bytes4 response) {... */\n    tag_115:\n      0x08c379a0\n      eq\n      tag_116\n      jumpi\n    tag_117:\n        /* \"StarForgeRelic.sol\":249:3421  contract StarForgeRelic is ERC1155, Ownable {... */\n      0x84\n      swap1\n      mload(0x40)\n        /* \"StarForgeRelic.sol\":3367:3410  revert(\"Soulbound: transfers are disabled\") */\n      swap1\n      shl(0xe5, 0x461bcd)\n        /* \"@openzeppelin/contracts@4.9.3/token/ERC1155/ERC1155.sol\":16017:16079  revert(\"ERC1155: transfer to non-ERC1155Receiver implementer\") */\n      dup3\n      mstore\n        /* \"StarForgeRelic.sol\":249:3421  contract StarForgeRelic is ERC1155, Ownable {... */\n      0x04\n        /* \"@openzeppelin/contracts@4.9.3/token/ERC1155/ERC1155.sol\":16017:16079  revert(\"ERC1155: transfer to non-ERC1155Receiver implementer\") */\n      dup3\n      add\n        /* \"StarForgeRelic.sol\":249:3421  contract StarForgeRelic is ERC1155, Ownable {... */\n      mstore\n      0x34\n      0x24\n      dup3\n      add\n      mstore\n      0x455243313135353a207472616e7366657220746f206e6f6e2d45524331313535\n      0x44\n      dup3\n      add\n      mstore\n      shl(0x61, 0x2932b1b2b4bb32b91034b6b83632b6b2b73a32b9)\n      0x64\n      dup3\n      add\n      mstore\n        /* \"@openzeppelin/contracts@4.9.3/token/ERC1155/ERC1155.sol\":16017:16079  revert(\"ERC1155: transfer to non-ERC1155Receiver implementer\") */\n      revert\n        /* \"@openzeppelin/contracts@4.9.3/token/ERC1155/ERC1155.sol\":15623:16094  try IERC1155Receiver(to).onERC1155Received(operator, from, id, amount, data) returns (bytes4 response) {... */\n    tag_116:\n        /* \"@openzeppelin/contracts@4.9.3/token/ERC1155/ERC1155.sol\":15911:15992  catch Error(string memory reason) {... */\n      tag_118\n      tag_23\n      jump\t// in\n    tag_118:\n      swap1\n      dup2\n      tag_119\n      jumpi\n        /* \"@openzeppelin/contracts@4.9.3/token/ERC1155/ERC1155.sol\":15623:16094  try IERC1155Receiver(to).onERC1155Received(operator, from, id, amount, data) returns (bytes4 response) {... */\n      swap1\n      pop\n      jump(tag_117)\n        /* \"@openzeppelin/contracts@4.9.3/token/ERC1155/ERC1155.sol\":15911:15992  catch Error(string memory reason) {... */\n    tag_119:\n        /* \"StarForgeRelic.sol\":249:3421  contract StarForgeRelic is ERC1155, Ownable {... */\n      tag_121\n      mload(0x40)\n        /* \"StarForgeRelic.sol\":3367:3410  revert(\"Soulbound: transfers are disabled\") */\n      swap3\n      dup4\n      swap3\n      shl(0xe5, 0x461bcd)\n        /* \"@openzeppelin/contracts@4.9.3/token/ERC1155/ERC1155.sol\":15963:15977  revert(reason) */\n      dup5\n      mstore\n        /* \"StarForgeRelic.sol\":249:3421  contract StarForgeRelic is ERC1155, Ownable {... */\n      0x04\n        /* \"@openzeppelin/contracts@4.9.3/token/ERC1155/ERC1155.sol\":15963:15977  revert(reason) */\n      dup5\n      add\n        /* \"StarForgeRelic.sol\":249:3421  contract StarForgeRelic is ERC1155, Ownable {... */\n      mstore\n      0x24\n      dup4\n      add\n      swap1\n      tag_3\n      jump\t// in\n    tag_121:\n        /* \"@openzeppelin/contracts@4.9.3/token/ERC1155/ERC1155.sol\":15963:15977  revert(reason) */\n      sub\n      swap1\n      revert\n        /* \"StarForgeRelic.sol\":249:3421  contract StarForgeRelic is ERC1155, Ownable {... */\n    tag_114:\n      pop\n      0x04\n      0x00\n      dup1\n      returndatacopy\n      shr(0xe0, mload(0x00))\n      jump(tag_115)\n        /* \"@openzeppelin/contracts@4.9.3/token/ERC1155/ERC1155.sol\":15623:16094  try IERC1155Receiver(to).onERC1155Received(operator, from, id, amount, data) returns (bytes4 response) {... */\n    tag_112:\n      not(sub(shl(0xe0, 0x01), 0x01))\n        /* \"StarForgeRelic.sol\":249:3421  contract StarForgeRelic is ERC1155, Ownable {... */\n      and\n      shl(0xe0, 0x0dc5919f)\n        /* \"@openzeppelin/contracts@4.9.3/token/ERC1155/ERC1155.sol\":15748:15803  response != IERC1155Receiver.onERC1155Received.selector */\n      add\n        /* \"@openzeppelin/contracts@4.9.3/token/ERC1155/ERC1155.sol\":15744:15896  if (response != IERC1155Receiver.onERC1155Received.selector) {... */\n      tag_122\n      jumpi\n        /* \"@openzeppelin/contracts@4.9.3/token/ERC1155/ERC1155.sol\":15588:16104  if (to.isContract()) {... */\n      0x00\n      dup7\n      jump(tag_82)\n        /* \"@openzeppelin/contracts@4.9.3/token/ERC1155/ERC1155.sol\":15744:15896  if (response != IERC1155Receiver.onERC1155Received.selector) {... */\n    tag_122:\n        /* \"StarForgeRelic.sol\":249:3421  contract StarForgeRelic is ERC1155, Ownable {... */\n      mload(0x40)\n      shl(0xe5, 0x461bcd)\n        /* \"@openzeppelin/contracts@4.9.3/token/ERC1155/ERC1155.sol\":15827:15877  revert(\"ERC1155: ERC1155Receiver rejected tokens\") */\n      dup2\n      mstore\n        /* \"StarForgeRelic.sol\":249:3421  contract StarForgeRelic is ERC1155, Ownable {... */\n      0x04\n        /* \"@openzeppelin/contracts@4.9.3/token/ERC1155/ERC1155.sol\":15827:15877  revert(\"ERC1155: ERC1155Receiver rejected tokens\") */\n      dup2\n      add\n        /* \"StarForgeRelic.sol\":249:3421  contract StarForgeRelic is ERC1155, Ownable {... */\n      dup8\n      swap1\n      mstore\n      0x28\n      0x24\n      dup3\n      add\n      mstore\n      0x455243313135353a204552433131353552656365697665722072656a65637465\n      0x44\n      dup3\n      add\n      mstore\n      shl(0xc0, 0x6420746f6b656e73)\n      0x64\n      dup3\n      add\n      mstore\n      0x84\n      swap1\n        /* \"@openzeppelin/contracts@4.9.3/token/ERC1155/ERC1155.sol\":15827:15877  revert(\"ERC1155: ERC1155Receiver rejected tokens\") */\n      revert\n        /* \"@openzeppelin/contracts@4.9.3/token/ERC1155/ERC1155.sol\":15627:15699  IERC1155Receiver(to).onERC1155Received(operator, from, id, amount, data) */\n    tag_110:\n      swap1\n      swap2\n      pop\n      dup8\n      dup2\n      dup2\n      returndatasize\n      dup4\n      gt\n      tag_124\n      jumpi\n    tag_125:\n      tag_126\n      dup2\n      dup4\n      tag_5\n      jump\t// in\n    tag_126:\n      dup2\n      add\n        /* \"StarForgeRelic.sol\":249:3421  contract StarForgeRelic is ERC1155, Ownable {... */\n      sub\n      slt\n      tag_129\n      jumpi\n      mload\n      not(sub(shl(0xe0, 0x01), 0x01))\n      dup2\n      and\n      dup2\n      sub\n      tag_129\n      jumpi\n        /* \"@openzeppelin/contracts@4.9.3/token/ERC1155/ERC1155.sol\":15627:15699  IERC1155Receiver(to).onERC1155Received(operator, from, id, amount, data) */\n      swap1\n      0x00\n      jump(tag_111)\n        /* \"StarForgeRelic.sol\":249:3421  contract StarForgeRelic is ERC1155, Ownable {... */\n    tag_129:\n      0x00\n      dup1\n      revert\n        /* \"@openzeppelin/contracts@4.9.3/token/ERC1155/ERC1155.sol\":15627:15699  IERC1155Receiver(to).onERC1155Received(operator, from, id, amount, data) */\n    tag_124:\n      pop\n      returndatasize\n      jump(tag_125)\n        /* \"StarForgeRelic.sol\":249:3421  contract StarForgeRelic is ERC1155, Ownable {... */\n    tag_79:\n      mstore(0x00, shl(0xe0, 0x4e487b71))\n      mstore(0x04, 0x11)\n      revert(0x00, 0x24)\n    tag_75:\n      mload(0x40)\n      shl(0xe5, 0x461bcd)\n      dup2\n      mstore\n      0x04\n      dup2\n      add\n      dup10\n      swap1\n      mstore\n      0x21\n      0x24\n      dup3\n      add\n      mstore\n      0x455243313135353a206d696e7420746f20746865207a65726f20616464726573\n      0x44\n      dup3\n      add\n      mstore\n      shl(0xf8, 0x73)\n      0x64\n      dup3\n      add\n      mstore\n      0x84\n      swap1\n      revert\n    tag_69:\n      mload(0x40)\n      shl(0xe5, 0x461bcd)\n      dup2\n      mstore\n      0x20\n      0x04\n      dup3\n      add\n      mstore\n      0x2b\n      0x24\n      dup3\n      add\n      mstore\n      0x4f6e6c792053746172466f72676547616d6520636f6e74726163742063616e20\n      0x44\n      dup3\n      add\n      mstore\n      shl(0xa8, 0x6d696e742072656c696373)\n      0x64\n      dup3\n      add\n      mstore\n      0x84\n      swap1\n      revert\n    tag_56:\n      jumpi(tag_129, callvalue)\n      jumpi(tag_129, slt(add(not(0x03), calldatasize), 0x20))\n      tag_135\n      tag_1\n      jump\t// in\n    tag_135:\n        /* \"@openzeppelin/contracts@4.9.3/access/Ownable.sol\":1063:1125  modifier onlyOwner() {... */\n      tag_136\n      tag_18\n      jump\t// in\n    tag_136:\n      sub(shl(0xa0, 0x01), 0x01)\n        /* \"StarForgeRelic.sol\":249:3421  contract StarForgeRelic is ERC1155, Ownable {... */\n      and\n        /* \"@openzeppelin/contracts@4.9.3/access/Ownable.sol\":2162:2184  newOwner != address(0) */\n      dup1\n      iszero\n        /* \"StarForgeRelic.sol\":249:3421  contract StarForgeRelic is ERC1155, Ownable {... */\n      tag_137\n      jumpi\n        /* \"@openzeppelin/contracts@4.9.3/access/Ownable.sol\":2518:2524  _owner */\n      0x03\n        /* \"StarForgeRelic.sol\":249:3421  contract StarForgeRelic is ERC1155, Ownable {... */\n      dup1\n      sload\n      not(sub(shl(0xa0, 0x01), 0x01))\n      dup2\n      and\n      dup4\n      or\n      swap1\n      swap2\n      sstore\n      sub(shl(0xa0, 0x01), 0x01)\n      and\n        /* \"@openzeppelin/contracts@4.9.3/access/Ownable.sol\":2566:2606  OwnershipTransferred(oldOwner, newOwner) */\n      0x8be0079c531659141344cd1fd0a4f28419497f9722a3daafe3b4186f6b6457e0\n      0x00\n      dup1\n      log3\n        /* \"StarForgeRelic.sol\":249:3421  contract StarForgeRelic is ERC1155, Ownable {... */\n      stop\n    tag_137:\n      mload(0x40)\n      shl(0xe5, 0x461bcd)\n      dup2\n      mstore\n      0x20\n      0x04\n      dup3\n      add\n      mstore\n      0x26\n      0x24\n      dup3\n      add\n      mstore\n      0x4f776e61626c653a206e6577206f776e657220697320746865207a65726f2061\n      0x44\n      dup3\n      add\n      mstore\n      shl(0xd0, 0x646472657373)\n      0x64\n      dup3\n      add\n      mstore\n      0x84\n      swap1\n      revert\n    tag_54:\n      jumpi(tag_129, callvalue)\n      jumpi(tag_129, slt(add(not(0x03), calldatasize), 0xa0))\n      tag_143\n      tag_1\n      jump\t// in\n    tag_143:\n      pop\n      tag_144\n      tag_2\n      jump\t// in\n    tag_144:\n      pop\n      calldataload(0x84)\n      0xffffffffffffffff\n      dup2\n      gt\n      tag_129\n      jumpi\n      tag_147\n      swap1\n      calldatasize\n      swap1\n      0x04\n      add\n      tag_9\n      jump\t// in\n    tag_147:\n      pop\n      mload(0x40)\n      shl(0xe5, 0x461bcd)\n        /* \"StarForgeRelic.sol\":3367:3410  revert(\"Soulbound: transfers are disabled\") */\n      dup2\n      mstore\n        /* \"StarForgeRelic.sol\":249:3421  contract StarForgeRelic is ERC1155, Ownable {... */\n      0x20\n      0x04\n        /* \"StarForgeRelic.sol\":3367:3410  revert(\"Soulbound: transfers are disabled\") */\n      dup3\n      add\n        /* \"StarForgeRelic.sol\":249:3421  contract StarForgeRelic is ERC1155, Ownable {... */\n      mstore\n      0x21\n      0x24\n      dup3\n      add\n      mstore\n      0x536f756c626f756e643a207472616e7366657273206172652064697361626c65\n      0x44\n      dup3\n      add\n      mstore\n      shl(0xfa, 0x19)\n      0x64\n      dup3\n      add\n      mstore\n      0x84\n      swap1\n        /* \"StarForgeRelic.sol\":3367:3410  revert(\"Soulbound: transfers are disabled\") */\n      revert\n        /* \"StarForgeRelic.sol\":249:3421  contract StarForgeRelic is ERC1155, Ownable {... */\n    tag_52:\n      jumpi(tag_129, callvalue)\n      jumpi(tag_129, slt(add(not(0x03), calldatasize), 0x40))\n      tag_152\n      tag_1\n      jump\t// in\n    tag_152:\n      tag_153\n      tag_2\n      jump\t// in\n    tag_153:\n      swap1\n      0x01\n      dup1\n      0xa0\n      shl\n      sub\n      and\n      0x00\n      mstore\n        /* \"@openzeppelin/contracts@4.9.3/token/ERC1155/ERC1155.sol\":3465:3483  _operatorApprovals */\n      0x01\n        /* \"StarForgeRelic.sol\":249:3421  contract StarForgeRelic is ERC1155, Ownable {... */\n      0x20\n      mstore\n      keccak256(0x00, 0x40)\n        /* \"@openzeppelin/contracts@4.9.3/token/ERC1155/ERC1155.sol\":3465:3502  _operatorApprovals[account][operator] */\n      swap1\n        /* \"StarForgeRelic.sol\":249:3421  contract StarForgeRelic is ERC1155, Ownable {... */\n      0x01\n      dup1\n      0xa0\n      shl\n      sub\n      and\n      0x00\n      mstore\n      0x20\n      mstore\n      0x20\n      and(sload(keccak256(0x00, 0x40)), 0xff)\n      mload(0x40)\n      swap1\n      iszero\n      iszero\n      dup2\n      mstore\n      return\n    tag_50:\n      jumpi(tag_129, callvalue)\n      jumpi(tag_129, slt(add(not(0x03), calldatasize), 0x00))\n      sload(0x04)\n      mload(0x40)\n      sub(shl(0xa0, 0x01), 0x01)\n      swap1\n      swap2\n      and\n      dup2\n      mstore\n      0x20\n      swap1\n      return\n    tag_48:\n      jumpi(tag_129, callvalue)\n      jumpi(tag_129, slt(add(not(0x03), calldatasize), 0x20))\n      mstore(0x00, calldataload(0x04))\n        /* \"StarForgeRelic.sol\":675:718  mapping(uint256 => RelicData) public relics */\n      0x06\n        /* \"StarForgeRelic.sol\":249:3421  contract StarForgeRelic is ERC1155, Ownable {... */\n      0x20\n      mstore\n      0xff\n      keccak256(0x00, 0x40)\n      tag_162\n        /* \"StarForgeRelic.sol\":675:718  mapping(uint256 => RelicData) public relics */\n      tag_163\n        /* \"StarForgeRelic.sol\":249:3421  contract StarForgeRelic is ERC1155, Ownable {... */\n      0x01\n      dup4\n      sload\n        /* \"StarForgeRelic.sol\":675:718  mapping(uint256 => RelicData) public relics */\n      swap4\n      add\n      tag_12\n      jump\t// in\n    tag_163:\n        /* \"StarForgeRelic.sol\":249:3421  contract StarForgeRelic is ERC1155, Ownable {... */\n      mload(0x40)\n      swap4\n      dup4\n      tag_164\n      dup7\n      dup4\n      dup2\n      swap8\n      and\n      tag_10\n      jump\t// in\n    tag_164:\n      0x08\n      shr\n      and\n      0x20\n      dup5\n      add\n      mstore\n      0x60\n      0x40\n      dup5\n      add\n      mstore\n      0x60\n      dup4\n      add\n      swap1\n      tag_3\n      jump\t// in\n    tag_162:\n      sub\n      swap1\n      return\n    tag_46:\n      jumpi(tag_129, callvalue)\n      jumpi(tag_129, slt(add(not(0x03), calldatasize), 0x40))\n      tag_169\n      tag_1\n      jump\t// in\n    tag_169:\n      calldataload(0x24)\n      swap1\n      dup2\n      iszero\n      iszero\n      dup1\n      swap3\n      sub\n      tag_129\n      jumpi\n      sub(shl(0xa0, 0x01), 0x01)\n      and\n      swap1\n        /* \"@openzeppelin/contracts@4.9.3/utils/Context.sol\":719:729  msg.sender */\n      caller\n        /* \"@openzeppelin/contracts@4.9.3/token/ERC1155/ERC1155.sol\":12901:12918  owner != operator */\n      dup3\n      eq\n        /* \"StarForgeRelic.sol\":249:3421  contract StarForgeRelic is ERC1155, Ownable {... */\n      tag_172\n      jumpi\n        /* \"@openzeppelin/contracts@4.9.3/utils/Context.sol\":719:729  msg.sender */\n      caller\n        /* \"StarForgeRelic.sol\":249:3421  contract StarForgeRelic is ERC1155, Ownable {... */\n      0x00\n      mstore\n        /* \"@openzeppelin/contracts@4.9.3/token/ERC1155/ERC1155.sol\":12974:12992  _operatorApprovals */\n      0x01\n        /* \"StarForgeRelic.sol\":249:3421  contract StarForgeRelic is ERC1155, Ownable {... */\n      0x20\n      mstore\n      keccak256(0x00, 0x40)\n      dup3\n      0x00\n      mstore\n      0x20\n      mstore\n      keccak256(0x00, 0x40)\n      not(0xff)\n      dup2\n      sload\n      and\n      0xff\n      dup4\n      and\n      or\n      swap1\n      sstore\n      mload(0x40)\n      swap1\n      dup2\n      mstore\n        /* \"@openzeppelin/contracts@4.9.3/token/ERC1155/ERC1155.sol\":13035:13076  ApprovalForAll(owner, operator, approved) */\n      0x17307eab39ab6107e8899845ad3d59bd9653f200f220920489ca2b5937696c31\n        /* \"StarForgeRelic.sol\":249:3421  contract StarForgeRelic is ERC1155, Ownable {... */\n      0x20\n        /* \"@openzeppelin/contracts@4.9.3/utils/Context.sol\":719:729  msg.sender */\n      caller\n        /* \"@openzeppelin/contracts@4.9.3/token/ERC1155/ERC1155.sol\":13035:13076  ApprovalForAll(owner, operator, approved) */\n      swap3\n      log3\n        /* \"StarForgeRelic.sol\":249:3421  contract StarForgeRelic is ERC1155, Ownable {... */\n      stop\n    tag_172:\n      mload(0x40)\n      shl(0xe5, 0x461bcd)\n      dup2\n      mstore\n      0x20\n      0x04\n      dup3\n      add\n      mstore\n      0x29\n      0x24\n      dup3\n      add\n      mstore\n      0x455243313135353a2073657474696e6720617070726f76616c20737461747573\n      0x44\n      dup3\n      add\n      mstore\n      shl(0xb9, 0x103337b91039b2b633)\n      0x64\n      dup3\n      add\n      mstore\n      0x84\n      swap1\n      revert\n    tag_44:\n      jumpi(tag_129, callvalue)\n      jumpi(tag_129, slt(add(not(0x03), calldatasize), 0x00))\n        /* \"@openzeppelin/contracts@4.9.3/access/Ownable.sol\":1273:1279  _owner */\n      0x03\n        /* \"StarForgeRelic.sol\":249:3421  contract StarForgeRelic is ERC1155, Ownable {... */\n      sload\n      mload(0x40)\n      sub(shl(0xa0, 0x01), 0x01)\n      swap1\n      swap2\n      and\n      dup2\n      mstore\n      0x20\n      swap1\n      return\n    tag_42:\n      jumpi(tag_129, callvalue)\n      jumpi(tag_129, slt(add(not(0x03), calldatasize), 0x00))\n        /* \"@openzeppelin/contracts@4.9.3/access/Ownable.sol\":1063:1125  modifier onlyOwner() {... */\n      tag_182\n      tag_18\n      jump\t// in\n    tag_182:\n        /* \"@openzeppelin/contracts@4.9.3/access/Ownable.sol\":2518:2524  _owner */\n      0x03\n        /* \"StarForgeRelic.sol\":249:3421  contract StarForgeRelic is ERC1155, Ownable {... */\n      dup1\n      sload\n      not(sub(shl(0xa0, 0x01), 0x01))\n      dup2\n      and\n      swap1\n      swap2\n      sstore\n      0x00\n      swap1\n      sub(shl(0xa0, 0x01), 0x01)\n      and\n        /* \"@openzeppelin/contracts@4.9.3/access/Ownable.sol\":2566:2606  OwnershipTransferred(oldOwner, newOwner) */\n      0x8be0079c531659141344cd1fd0a4f28419497f9722a3daafe3b4186f6b6457e0\n        /* \"StarForgeRelic.sol\":249:3421  contract StarForgeRelic is ERC1155, Ownable {... */\n      dup3\n      dup1\n        /* \"@openzeppelin/contracts@4.9.3/access/Ownable.sol\":2566:2606  OwnershipTransferred(oldOwner, newOwner) */\n      log3\n        /* \"StarForgeRelic.sol\":249:3421  contract StarForgeRelic is ERC1155, Ownable {... */\n      stop\n    tag_40:\n      jumpi(tag_129, callvalue)\n      jumpi(tag_129, slt(add(not(0x03), calldatasize), 0x20))\n      calldataload(0x04)\n      0x60\n      0x40\n      dup1\n      mload\n      tag_187\n      dup2\n      tag_4\n      jump\t// in\n    tag_187:\n      0x00\n      dup2\n      mstore\n      0x00\n      0x20\n      dup3\n      add\n      mstore\n      add\n      mstore\n      dup1\n      0x00\n      mstore\n        /* \"StarForgeRelic.sol\":1753:1759  relics */\n      0x06\n        /* \"StarForgeRelic.sol\":249:3421  contract StarForgeRelic is ERC1155, Ownable {... */\n      0x20\n      mstore\n      and(shr(0x08, sload(keccak256(0x00, 0x40))), 0xff)\n        /* \"StarForgeRelic.sol\":1753:1773  relics[id].value > 0 */\n      iszero\n        /* \"StarForgeRelic.sol\":249:3421  contract StarForgeRelic is ERC1155, Ownable {... */\n      tag_188\n      jumpi\n      0x00\n      mstore\n        /* \"StarForgeRelic.sol\":1753:1759  relics */\n      0x06\n        /* \"StarForgeRelic.sol\":249:3421  contract StarForgeRelic is ERC1155, Ownable {... */\n      0x20\n      mstore\n      tag_190\n      keccak256(0x00, 0x40)\n      tag_162\n      mload(0x40)\n      swap2\n      tag_192\n      dup4\n      tag_4\n      jump\t// in\n    tag_192:\n      0xff\n      tag_193\n      0x01\n      dup4\n      sload\n      swap4\n      tag_194\n      dup5\n      dup7\n      and\n      dup9\n      tag_14\n      jump\t// in\n    tag_194:\n      dup4\n      0x20\n      dup9\n      add\n      swap6\n      0x08\n      shr\n      and\n      dup6\n      mstore\n      add\n      tag_12\n      jump\t// in\n    tag_193:\n      swap2\n      0x40\n      dup6\n      add\n      swap3\n      dup4\n      mstore\n      mload(0x40)\n      swap6\n      dup7\n      swap6\n      0x20\n      dup8\n      mstore\n      0x20\n      dup8\n      add\n      swap1\n      mload\n      tag_10\n      jump\t// in\n    tag_190:\n      mload\n      and\n      0x40\n      dup5\n      add\n      mstore\n      mload\n      0x60\n      dup1\n      dup5\n      add\n      mstore\n      0x80\n      dup4\n      add\n      swap1\n      tag_3\n      jump\t// in\n    tag_188:\n      mload(0x40)\n      shl(0xe5, 0x461bcd)\n      dup2\n      mstore\n      0x20\n      0x04\n      dup3\n      add\n      mstore\n      0x14\n      0x24\n      dup3\n      add\n      mstore\n      shl(0x62, 0x14995b1a58c8191bd95cc81b9bdd08195e1a5cdd)\n      0x44\n      dup3\n      add\n      mstore\n      0x64\n      swap1\n      revert\n    tag_38:\n      jumpi(tag_129, callvalue)\n      jumpi(tag_129, slt(add(not(0x03), calldatasize), 0x40))\n      calldataload(0x04)\n      0xffffffffffffffff\n      dup2\n      gt\n      tag_129\n      jumpi\n      calldatasize\n      0x23\n      dup3\n      add\n      slt\n      iszero\n      tag_129\n      jumpi\n      dup1\n      0x04\n      add\n      calldataload\n      tag_203\n      dup2\n      tag_6\n      jump\t// in\n    tag_203:\n      swap2\n      tag_204\n      mload(0x40)\n      swap4\n      dup5\n      tag_5\n      jump\t// in\n    tag_204:\n      dup2\n      dup4\n      mstore\n      0x24\n      0x20\n      dup5\n      add\n      swap3\n      0x05\n      shl\n      dup3\n      add\n      add\n      swap1\n      calldatasize\n      dup3\n      gt\n      tag_129\n      jumpi\n      0x24\n      add\n      swap2\n    tag_207:\n      dup2\n      dup4\n      lt\n      tag_208\n      jumpi\n      dup4\n      calldataload(0x24)\n      0xffffffffffffffff\n      dup2\n      gt\n      tag_129\n      jumpi\n      tag_212\n      swap1\n      calldatasize\n      swap1\n      0x04\n      add\n      tag_7\n      jump\t// in\n    tag_212:\n      swap1\n      dup1\n      mload\n      dup3\n      mload\n        /* \"@openzeppelin/contracts@4.9.3/token/ERC1155/ERC1155.sol\":2738:2767  accounts.length == ids.length */\n      sub\n        /* \"StarForgeRelic.sol\":249:3421  contract StarForgeRelic is ERC1155, Ownable {... */\n      tag_213\n      jumpi\n      dup1\n      mload\n        /* \"@openzeppelin/contracts@4.9.3/token/ERC1155/ERC1155.sol\":2857:2887  new uint256[](accounts.length) */\n      swap2\n        /* \"StarForgeRelic.sol\":249:3421  contract StarForgeRelic is ERC1155, Ownable {... */\n      tag_215\n      tag_216\n      dup5\n      tag_6\n      jump\t// in\n    tag_216:\n      swap4\n      tag_217\n      mload(0x40)\n      swap6\n      dup7\n      tag_5\n      jump\t// in\n    tag_217:\n      dup1\n      dup6\n      mstore\n      tag_6\n      jump\t// in\n    tag_215:\n      0x20\n      dup5\n      add\n      swap3\n      swap1\n      not(0x1f)\n      add\n      calldatasize\n      dup5\n      calldatacopy\n      0x00\n        /* \"@openzeppelin/contracts@4.9.3/token/ERC1155/ERC1155.sol\":2939:2942  ++i */\n    tag_218:\n        /* \"StarForgeRelic.sol\":249:3421  contract StarForgeRelic is ERC1155, Ownable {... */\n      dup2\n      mload\n        /* \"@openzeppelin/contracts@4.9.3/token/ERC1155/ERC1155.sol\":2918:2937  i < accounts.length */\n      dup2\n      lt\n      iszero\n      tag_219\n      jumpi\n        /* \"StarForgeRelic.sol\":249:3421  contract StarForgeRelic is ERC1155, Ownable {... */\n      0x01\n      swap1\n        /* \"@openzeppelin/contracts@4.9.3/token/ERC1155/ERC1155.sol\":2977:3007  balanceOf(accounts[i], ids[i]) */\n      tag_221\n      sub(shl(0xa0, 0x01), 0x01)\n        /* \"@openzeppelin/contracts@4.9.3/token/ERC1155/ERC1155.sol\":2987:2998  accounts[i] */\n      tag_222\n        /* \"StarForgeRelic.sol\":249:3421  contract StarForgeRelic is ERC1155, Ownable {... */\n      dup4\n        /* \"@openzeppelin/contracts@4.9.3/token/ERC1155/ERC1155.sol\":2987:2998  accounts[i] */\n      dup7\n      tag_17\n      jump\t// in\n    tag_222:\n        /* \"StarForgeRelic.sol\":249:3421  contract StarForgeRelic is ERC1155, Ownable {... */\n      mload\n      and\n        /* \"@openzeppelin/contracts@4.9.3/token/ERC1155/ERC1155.sol\":3000:3006  ids[i] */\n      tag_223\n      dup4\n      dup8\n      tag_17\n      jump\t// in\n    tag_223:\n        /* \"StarForgeRelic.sol\":249:3421  contract StarForgeRelic is ERC1155, Ownable {... */\n      mload\n        /* \"@openzeppelin/contracts@4.9.3/token/ERC1155/ERC1155.sol\":2977:3007  balanceOf(accounts[i], ids[i]) */\n      swap1\n      tag_13\n      jump\t// in\n    tag_221:\n        /* \"@openzeppelin/contracts@4.9.3/token/ERC1155/ERC1155.sol\":2958:3007  batchBalances[i] = balanceOf(accounts[i], ids[i]) */\n      tag_224\n      dup3\n      dup9\n      tag_17\n      jump\t// in\n    tag_224:\n        /* \"StarForgeRelic.sol\":249:3421  contract StarForgeRelic is ERC1155, Ownable {... */\n      mstore\n      add\n        /* \"@openzeppelin/contracts@4.9.3/token/ERC1155/ERC1155.sol\":2903:2916  uint256 i = 0 */\n      jump(tag_218)\n        /* \"@openzeppelin/contracts@4.9.3/token/ERC1155/ERC1155.sol\":2918:2937  i < accounts.length */\n    tag_219:\n      pop\n      pop\n      pop\n      swap1\n        /* \"StarForgeRelic.sol\":249:3421  contract StarForgeRelic is ERC1155, Ownable {... */\n      mload(0x40)\n      swap2\n      dup3\n      swap2\n      0x20\n      dup4\n      add\n      swap1\n      0x20\n      dup5\n      mstore\n      mload\n      dup1\n      swap2\n      mstore\n      0x40\n      dup4\n      add\n      swap2\n      swap1\n      0x00\n    tag_225:\n      dup2\n      dup2\n      lt\n      tag_226\n      jumpi\n      pop\n      pop\n      pop\n      sub\n      swap1\n      return\n    tag_226:\n      dup3\n      mload\n      dup5\n      mstore\n      dup6\n      swap5\n      pop\n      0x20\n      swap4\n      dup5\n      add\n      swap4\n      swap1\n      swap3\n      add\n      swap2\n      0x01\n      add\n      jump(tag_225)\n    tag_213:\n      mload(0x40)\n      shl(0xe5, 0x461bcd)\n      dup2\n      mstore\n      0x20\n      0x04\n      dup3\n      add\n      mstore\n      0x29\n      0x24\n      dup3\n      add\n      mstore\n      0x455243313135353a206163636f756e747320616e6420696473206c656e677468\n      0x44\n      dup3\n      add\n      mstore\n      shl(0xbb, 0x040dad2e6dac2e8c6d)\n      0x64\n      dup3\n      add\n      mstore\n      0x84\n      swap1\n      revert\n    tag_208:\n      dup3\n      calldataload\n      sub(shl(0xa0, 0x01), 0x01)\n      dup2\n      and\n      dup2\n      sub\n      tag_129\n      jumpi\n      dup2\n      mstore\n      0x20\n      swap3\n      dup4\n      add\n      swap3\n      add\n      jump(tag_207)\n    tag_36:\n      jumpi(tag_129, callvalue)\n      jumpi(tag_129, slt(add(not(0x03), calldatasize), 0x20))\n      tag_234\n      tag_1\n      jump\t// in\n    tag_234:\n        /* \"@openzeppelin/contracts@4.9.3/access/Ownable.sol\":1063:1125  modifier onlyOwner() {... */\n      tag_235\n      tag_18\n      jump\t// in\n    tag_235:\n        /* \"StarForgeRelic.sol\":249:3421  contract StarForgeRelic is ERC1155, Ownable {... */\n      0x04\n      dup1\n      sload\n      not(sub(shl(0xa0, 0x01), 0x01))\n      and\n      sub(shl(0xa0, 0x01), 0x01)\n      swap3\n      swap1\n      swap3\n      and\n      swap2\n      swap1\n      swap2\n      or\n      swap1\n      sstore\n      stop\n    tag_34:\n      jumpi(tag_129, callvalue)\n      jumpi(tag_129, slt(add(not(0x03), calldatasize), 0xa0))\n      tag_240\n      tag_1\n      jump\t// in\n    tag_240:\n      pop\n      tag_241\n      tag_2\n      jump\t// in\n    tag_241:\n      pop\n      calldataload(0x44)\n      0xffffffffffffffff\n      dup2\n      gt\n      tag_129\n      jumpi\n      tag_244\n      swap1\n      calldatasize\n      swap1\n      0x04\n      add\n      tag_7\n      jump\t// in\n    tag_244:\n      pop\n      calldataload(0x64)\n      0xffffffffffffffff\n      dup2\n      gt\n      tag_129\n      jumpi\n      tag_144\n      swap1\n      calldatasize\n      swap1\n      0x04\n      add\n      tag_7\n      jump\t// in\n    tag_32:\n      jumpi(tag_129, callvalue)\n      jumpi(tag_129, slt(add(not(0x03), calldatasize), 0x00))\n      0x20\n        /* \"StarForgeRelic.sol\":2960:2972  _nextRelicId */\n      0x05\n        /* \"StarForgeRelic.sol\":249:3421  contract StarForgeRelic is ERC1155, Ownable {... */\n      sload\n      mload(0x40)\n      swap1\n      dup2\n      mstore\n      return\n    tag_30:\n      jumpi(tag_129, callvalue)\n      jumpi(tag_129, slt(add(not(0x03), calldatasize), 0x20))\n      tag_162\n      tag_260\n      calldataload(0x04)\n      tag_15\n      jump\t// in\n    tag_260:\n      mload(0x40)\n      swap2\n      dup3\n      swap2\n      0x20\n      dup4\n      mstore\n      0x20\n      dup4\n      add\n      swap1\n      tag_3\n      jump\t// in\n    tag_28:\n      jumpi(tag_129, callvalue)\n      jumpi(tag_129, slt(add(not(0x03), calldatasize), 0x20))\n      calldataload(0x04)\n      shl(0xe0, 0xffffffff)\n      dup2\n      and\n      dup1\n      swap2\n      sub\n      tag_129\n      jumpi\n      0x20\n      swap1\n      shl(0xe1, 0x6cdb3d13)\n        /* \"@openzeppelin/contracts@4.9.3/token/ERC1155/ERC1155.sol\":1373:1414  interfaceId == type(IERC1155).interfaceId */\n      dup2\n      eq\n      swap1\n        /* \"@openzeppelin/contracts@4.9.3/token/ERC1155/ERC1155.sol\":1373:1482  interfaceId == type(IERC1155).interfaceId ||... */\n      dup2\n      iszero\n      tag_267\n      jumpi\n        /* \"StarForgeRelic.sol\":249:3421  contract StarForgeRelic is ERC1155, Ownable {... */\n    tag_268:\n        /* \"@openzeppelin/contracts@4.9.3/token/ERC1155/ERC1155.sol\":1373:1534  interfaceId == type(IERC1155).interfaceId ||... */\n      dup2\n      iszero\n      tag_269\n      jumpi\n        /* \"StarForgeRelic.sol\":249:3421  contract StarForgeRelic is ERC1155, Ownable {... */\n    tag_270:\n      pop\n      mload(0x40)\n      swap1\n      iszero\n      iszero\n      dup2\n      mstore\n      return\n        /* \"@openzeppelin/contracts@4.9.3/token/ERC1155/ERC1155.sol\":1373:1534  interfaceId == type(IERC1155).interfaceId ||... */\n    tag_269:\n      shl(0xe0, 0x01ffc9a7)\n        /* \"@openzeppelin/contracts@4.9.3/utils/introspection/ERC165.sol\":937:977  interfaceId == type(IERC165).interfaceId */\n      eq\n      swap1\n      pop\n        /* \"@openzeppelin/contracts@4.9.3/token/ERC1155/ERC1155.sol\":1373:1534  interfaceId == type(IERC1155).interfaceId ||... */\n      dup3\n      jump(tag_270)\n        /* \"@openzeppelin/contracts@4.9.3/token/ERC1155/ERC1155.sol\":1373:1482  interfaceId == type(IERC1155).interfaceId ||... */\n    tag_267:\n      shl(0xe2, 0x03a24d07)\n        /* \"@openzeppelin/contracts@4.9.3/token/ERC1155/ERC1155.sol\":1430:1482  interfaceId == type(IERC1155MetadataURI).interfaceId */\n      dup2\n      eq\n      swap2\n      pop\n        /* \"@openzeppelin/contracts@4.9.3/token/ERC1155/ERC1155.sol\":1373:1482  interfaceId == type(IERC1155).interfaceId ||... */\n      jump(tag_268)\n        /* \"StarForgeRelic.sol\":249:3421  contract StarForgeRelic is ERC1155, Ownable {... */\n    tag_26:\n      jumpi(tag_129, callvalue)\n      jumpi(tag_129, slt(add(not(0x03), calldatasize), 0x40))\n      0x20\n      tag_275\n      tag_276\n      tag_1\n      jump\t// in\n    tag_276:\n      calldataload(0x24)\n      swap1\n      tag_13\n      jump\t// in\n    tag_275:\n      mload(0x40)\n      swap1\n      dup2\n      mstore\n      return\n    tag_1:\n      calldataload(0x04)\n      swap1\n      sub(shl(0xa0, 0x01), 0x01)\n      dup3\n      and\n      dup3\n      sub\n      tag_129\n      jumpi\n      jump\t// out\n    tag_2:\n      calldataload(0x24)\n      swap1\n      sub(shl(0xa0, 0x01), 0x01)\n      dup3\n      and\n      dup3\n      sub\n      tag_129\n      jumpi\n      jump\t// out\n    tag_3:\n      dup1\n      mload\n      dup1\n      dup4\n      mstore\n      0x20\n      swap3\n      swap2\n      dup2\n      swap1\n      dup5\n      add\n      dup5\n      dup5\n      add\n      mcopy\n      0x00\n      dup3\n      dup3\n      add\n      dup5\n      add\n      mstore\n      0x1f\n      add\n      not(0x1f)\n      and\n      add\n      add\n      swap1\n      jump\t// out\n    tag_4:\n      0x60\n      dup2\n      add\n      swap1\n      dup2\n      lt\n      0xffffffffffffffff\n      dup3\n      gt\n      or\n      tag_87\n      jumpi\n      0x40\n      mstore\n      jump\t// out\n    tag_5:\n      swap1\n      0x1f\n      dup1\n      not\n      swap2\n      add\n      and\n      dup2\n      add\n      swap1\n      dup2\n      lt\n      0xffffffffffffffff\n      dup3\n      gt\n      or\n      tag_87\n      jumpi\n      0x40\n      mstore\n      jump\t// out\n    tag_6:\n      0xffffffffffffffff\n      dup2\n      gt\n      tag_87\n      jumpi\n      0x05\n      shl\n      0x20\n      add\n      swap1\n      jump\t// out\n    tag_7:\n      swap1\n      dup1\n      0x1f\n      dup4\n      add\n      slt\n      iszero\n      tag_129\n      jumpi\n      dup2\n      calldataload\n      tag_289\n      dup2\n      tag_6\n      jump\t// in\n    tag_289:\n      swap3\n      tag_290\n      mload(0x40)\n      swap5\n      dup6\n      tag_5\n      jump\t// in\n    tag_290:\n      dup2\n      dup5\n      mstore\n      0x20\n      dup1\n      dup6\n      add\n      swap3\n      0x05\n      shl\n      dup3\n      add\n      add\n      swap3\n      dup4\n      gt\n      tag_129\n      jumpi\n      0x20\n      add\n      swap1\n    tag_293:\n      dup3\n      dup3\n      lt\n      tag_294\n      jumpi\n      pop\n      pop\n      pop\n      swap1\n      jump\t// out\n    tag_294:\n      dup2\n      calldataload\n      dup2\n      mstore\n      0x20\n      swap2\n      dup3\n      add\n      swap2\n      add\n      jump(tag_293)\n    tag_8:\n      0xffffffffffffffff\n      dup2\n      gt\n      tag_87\n      jumpi\n      0x1f\n      add\n      not(0x1f)\n      and\n      0x20\n      add\n      swap1\n      jump\t// out\n    tag_9:\n      dup2\n      0x1f\n      dup3\n      add\n      slt\n      iszero\n      tag_129\n      jumpi\n      dup1\n      calldataload\n      swap1\n      tag_300\n      dup3\n      tag_8\n      jump\t// in\n    tag_300:\n      swap3\n      tag_301\n      mload(0x40)\n      swap5\n      dup6\n      tag_5\n      jump\t// in\n    tag_301:\n      dup3\n      dup5\n      mstore\n      0x20\n      dup4\n      dup4\n      add\n      add\n      gt\n      tag_129\n      jumpi\n      dup2\n      0x00\n      swap3\n      0x20\n      dup1\n      swap4\n      add\n      dup4\n      dup7\n      add\n      calldatacopy\n      dup4\n      add\n      add\n      mstore\n      swap1\n      jump\t// out\n    tag_10:\n      swap1\n      0x06\n      dup3\n      lt\n      iszero\n      tag_85\n      jumpi\n      mstore\n      jump\t// out\n    tag_11:\n      swap1\n      0x01\n      dup3\n      dup2\n      shr\n      swap3\n      and\n      dup1\n      iszero\n      tag_306\n      jumpi\n    tag_307:\n      0x20\n      dup4\n      lt\n      eq\n      tag_308\n      jumpi\n      jump\t// out\n    tag_308:\n      mstore(0x00, shl(0xe0, 0x4e487b71))\n      mstore(0x04, 0x22)\n      revert(0x00, 0x24)\n    tag_306:\n      swap2\n      0x7f\n      and\n      swap2\n      jump(tag_307)\n    tag_12:\n      swap1\n      mload(0x40)\n      swap2\n      dup3\n      0x00\n      dup3\n      sload\n      swap3\n      tag_310\n      dup5\n      tag_11\n      jump\t// in\n    tag_310:\n      dup1\n      dup5\n      mstore\n      swap4\n      0x01\n      dup2\n      and\n      swap1\n      dup2\n      iszero\n      tag_311\n      jumpi\n      pop\n      0x01\n      eq\n      tag_313\n      jumpi\n    tag_314:\n      pop\n      tag_315\n      swap3\n      pop\n      sub\n      dup4\n      tag_5\n      jump\t// in\n    tag_315:\n      jump\t// out\n    tag_313:\n      swap1\n      pop\n      0x00\n      swap3\n      swap2\n      swap3\n      mstore\n      keccak256(0x00, 0x20)\n      swap1\n      0x00\n      swap2\n    tag_316:\n      dup2\n      dup4\n      lt\n      tag_317\n      jumpi\n      pop\n      pop\n      swap1\n      0x20\n      tag_315\n      swap3\n      dup3\n      add\n      add\n      0x00\n      jump(tag_314)\n    tag_317:\n      0x20\n      swap2\n      swap4\n      pop\n      dup1\n      0x01\n      swap2\n      sload\n      dup4\n      dup6\n      dup10\n      add\n      add\n      mstore\n      add\n      swap2\n      add\n      swap1\n      swap2\n      dup5\n      swap3\n      jump(tag_316)\n    tag_311:\n      swap1\n      pop\n      0x20\n      swap3\n      pop\n      tag_315\n      swap5\n      swap2\n      pop\n      not(0xff)\n      and\n      dup3\n      dup5\n      add\n      mstore\n      iszero\n      iszero\n      0x05\n      shl\n      dup3\n      add\n      add\n      0x00\n      jump(tag_314)\n        /* \"@openzeppelin/contracts@4.9.3/token/ERC1155/ERC1155.sol\":2185:2412  function balanceOf(address account, uint256 id) public view virtual override returns (uint256) {... */\n    tag_13:\n      swap1\n      sub(shl(0xa0, 0x01), 0x01)\n        /* \"StarForgeRelic.sol\":249:3421  contract StarForgeRelic is ERC1155, Ownable {... */\n      dup3\n      and\n        /* \"@openzeppelin/contracts@4.9.3/token/ERC1155/ERC1155.sol\":2298:2319  account != address(0) */\n      iszero\n        /* \"StarForgeRelic.sol\":249:3421  contract StarForgeRelic is ERC1155, Ownable {... */\n      tag_319\n      jumpi\n        /* \"@openzeppelin/contracts@4.9.3/token/ERC1155/ERC1155.sol\":2317:2318  0 */\n      0x00\n        /* \"StarForgeRelic.sol\":249:3421  contract StarForgeRelic is ERC1155, Ownable {... */\n      mstore\n        /* \"@openzeppelin/contracts@4.9.3/token/ERC1155/ERC1155.sol\":2317:2318  0 */\n      0x00\n        /* \"StarForgeRelic.sol\":249:3421  contract StarForgeRelic is ERC1155, Ownable {... */\n      0x20\n      mstore\n      0x40\n        /* \"@openzeppelin/contracts@4.9.3/token/ERC1155/ERC1155.sol\":2317:2318  0 */\n      0x00\n        /* \"StarForgeRelic.sol\":249:3421  contract StarForgeRelic is ERC1155, Ownable {... */\n      keccak256\n        /* \"@openzeppelin/contracts@4.9.3/token/ERC1155/ERC1155.sol\":2383:2405  _balances[id][account] */\n      swap1\n        /* \"StarForgeRelic.sol\":249:3421  contract StarForgeRelic is ERC1155, Ownable {... */\n      0x01\n      dup1\n      0xa0\n      shl\n      sub\n      and\n      0x00\n      mstore\n      0x20\n      mstore\n      sload(keccak256(0x00, 0x40))\n        /* \"@openzeppelin/contracts@4.9.3/token/ERC1155/ERC1155.sol\":2185:2412  function balanceOf(address account, uint256 id) public view virtual override returns (uint256) {... */\n      swap1\n      jump\t// out\n        /* \"StarForgeRelic.sol\":249:3421  contract StarForgeRelic is ERC1155, Ownable {... */\n    tag_319:\n      mload(0x40)\n      shl(0xe5, 0x461bcd)\n      dup2\n      mstore\n      0x20\n      0x04\n      dup3\n      add\n      mstore\n      0x2a\n      0x24\n      dup3\n      add\n      mstore\n      0x455243313135353a2061646472657373207a65726f206973206e6f7420612076\n      0x44\n      dup3\n      add\n      mstore\n      shl(0xb1, 0x30b634b21037bbb732b9)\n      0x64\n      dup3\n      add\n      mstore\n      0x84\n      swap1\n      revert\n    tag_14:\n      0x06\n      dup3\n      lt\n      iszero\n      tag_85\n      jumpi\n      mstore\n      jump\t// out\n        /* \"StarForgeRelic.sol\":2690:2879  function uri(uint256 id) public view override returns (string memory) {... */\n    tag_15:\n      0x00\n        /* \"StarForgeRelic.sol\":249:3421  contract StarForgeRelic is ERC1155, Ownable {... */\n      mstore\n        /* \"StarForgeRelic.sol\":2792:2798  relics */\n      0x06\n        /* \"StarForgeRelic.sol\":249:3421  contract StarForgeRelic is ERC1155, Ownable {... */\n      0x20\n      mstore\n      0xff\n      keccak256(0x00, 0x40)\n      mload(0x40)\n      tag_323\n      dup2\n      tag_4\n      jump\t// in\n    tag_323:\n      0x40\n      tag_324\n      0x01\n      dup5\n      sload\n      swap5\n      tag_325\n      dup8\n      dup8\n      and\n      dup7\n      tag_14\n      jump\t// in\n    tag_325:\n      dup7\n      0x20\n      dup7\n      add\n      swap7\n      0x08\n      shr\n      and\n      dup7\n      mstore\n      add\n      tag_12\n      jump\t// in\n    tag_324:\n      swap2\n      add\n      mstore\n      mload\n      and\n        /* \"StarForgeRelic.sol\":2817:2829  r.value == 0 */\n      iszero\n        /* \"StarForgeRelic.sol\":2813:2840  if (r.value == 0) return \"\" */\n      tag_326\n      jumpi\n        /* \"StarForgeRelic.sol\":249:3421  contract StarForgeRelic is ERC1155, Ownable {... */\n      mload(0x40)\n        /* \"@openzeppelin/contracts@4.9.3/token/ERC1155/ERC1155.sol\":2032:2036  _uri */\n      0x02\n        /* \"StarForgeRelic.sol\":249:3421  contract StarForgeRelic is ERC1155, Ownable {... */\n      sload\n      dup2\n      0x00\n      tag_328\n      dup4\n      tag_11\n      jump\t// in\n    tag_328:\n      dup1\n      dup4\n      mstore\n      swap3\n      0x01\n      dup2\n      and\n      swap1\n      dup2\n      iszero\n      tag_329\n      jumpi\n      pop\n      0x01\n      eq\n      tag_331\n      jumpi\n    tag_332:\n      tag_333\n      swap3\n      pop\n      sub\n      dup3\n      tag_5\n      jump\t// in\n    tag_333:\n        /* \"StarForgeRelic.sol\":2690:2879  function uri(uint256 id) public view override returns (string memory) {... */\n      swap1\n      jump\t// out\n        /* \"StarForgeRelic.sol\":249:3421  contract StarForgeRelic is ERC1155, Ownable {... */\n    tag_331:\n      pop\n        /* \"@openzeppelin/contracts@4.9.3/token/ERC1155/ERC1155.sol\":2032:2036  _uri */\n      0x02\n      0x00\n        /* \"StarForgeRelic.sol\":249:3421  contract StarForgeRelic is ERC1155, Ownable {... */\n      swap1\n      dup2\n      mstore\n      swap1\n      swap2\n      0x405787fa12a823e0f2b7631cc41b3ba8828b3321ca811111fa75cd3aa3bb5ace\n    tag_334:\n      dup2\n      dup4\n      lt\n      tag_335\n      jumpi\n      pop\n      pop\n      swap1\n      0x20\n      tag_333\n      swap3\n      dup3\n      add\n      add\n      jump(tag_332)\n    tag_335:\n      0x20\n      swap2\n      swap4\n      pop\n      dup1\n      0x01\n      swap2\n      sload\n      dup4\n      dup6\n      dup9\n      add\n      add\n      mstore\n      add\n      swap2\n      add\n      swap1\n      swap2\n      dup4\n      swap3\n      jump(tag_334)\n    tag_329:\n      0x20\n      swap3\n      pop\n      tag_333\n      swap5\n      swap2\n      pop\n      not(0xff)\n      and\n      dup3\n      dup5\n      add\n      mstore\n      iszero\n      iszero\n      0x05\n      shl\n      dup3\n      add\n      add\n      jump(tag_332)\n        /* \"StarForgeRelic.sol\":2813:2840  if (r.value == 0) return \"\" */\n    tag_326:\n        /* \"StarForgeRelic.sol\":249:3421  contract StarForgeRelic is ERC1155, Ownable {... */\n      mload(0x40)\n      tag_337\n      0x20\n      dup3\n      tag_5\n      jump\t// in\n    tag_337:\n      0x00\n      dup2\n      mstore\n        /* \"StarForgeRelic.sol\":2831:2840  return \"\" */\n      swap1\n      jump\t// out\n        /* \"StarForgeRelic.sol\":249:3421  contract StarForgeRelic is ERC1155, Ownable {... */\n    tag_16:\n      dup1\n      mload\n      iszero\n      tag_338\n      jumpi\n      0x20\n      add\n      swap1\n      jump\t// out\n    tag_338:\n      shl(0xe0, 0x4e487b71)\n        /* \"@openzeppelin/contracts@4.9.3/token/ERC1155/ERC1155.sol\":17065:17066  0 */\n      0x00\n        /* \"StarForgeRelic.sol\":249:3421  contract StarForgeRelic is ERC1155, Ownable {... */\n      mstore\n      mstore(0x04, 0x32)\n      0x24\n        /* \"@openzeppelin/contracts@4.9.3/token/ERC1155/ERC1155.sol\":17065:17066  0 */\n      0x00\n        /* \"StarForgeRelic.sol\":249:3421  contract StarForgeRelic is ERC1155, Ownable {... */\n      revert\n    tag_17:\n      dup1\n      mload\n      dup3\n      lt\n      iszero\n      tag_338\n      jumpi\n      0x20\n      swap2\n      0x05\n      shl\n      add\n      add\n      swap1\n      jump\t// out\n        /* \"@openzeppelin/contracts@4.9.3/access/Ownable.sol\":1359:1489  function _checkOwner() internal view virtual {... */\n    tag_18:\n        /* \"@openzeppelin/contracts@4.9.3/access/Ownable.sol\":1273:1279  _owner */\n      0x03\n        /* \"StarForgeRelic.sol\":249:3421  contract StarForgeRelic is ERC1155, Ownable {... */\n      sload\n      sub(shl(0xa0, 0x01), 0x01)\n      and\n        /* \"@openzeppelin/contracts@4.9.3/utils/Context.sol\":719:729  msg.sender */\n      caller\n        /* \"@openzeppelin/contracts@4.9.3/access/Ownable.sol\":1422:1445  owner() == _msgSender() */\n      sub\n        /* \"StarForgeRelic.sol\":249:3421  contract StarForgeRelic is ERC1155, Ownable {... */\n      tag_342\n      jumpi\n        /* \"@openzeppelin/contracts@4.9.3/access/Ownable.sol\":1359:1489  function _checkOwner() internal view virtual {... */\n      jump\t// out\n        /* \"StarForgeRelic.sol\":249:3421  contract StarForgeRelic is ERC1155, Ownable {... */\n    tag_342:\n      0x64\n      mload(0x40)\n        /* \"StarForgeRelic.sol\":3367:3410  revert(\"Soulbound: transfers are disabled\") */\n      shl(0xe5, 0x461bcd)\n        /* \"StarForgeRelic.sol\":249:3421  contract StarForgeRelic is ERC1155, Ownable {... */\n      dup2\n      mstore\n      0x20\n      0x04\n      dup3\n      add\n      mstore\n      0x20\n      0x24\n      dup3\n      add\n      mstore\n      0x4f776e61626c653a2063616c6c6572206973206e6f7420746865206f776e6572\n      0x44\n      dup3\n      add\n      mstore\n      revert\n        /* \"StarForgeRelic.sol\":1842:2682  function _generateRelicName(RelicType t, uint8 value) internal pure returns (string memory) {... */\n    tag_19:\n      swap1\n        /* \"StarForgeRelic.sol\":249:3421  contract StarForgeRelic is ERC1155, Ownable {... */\n      0x06\n      dup3\n      lt\n      iszero\n      tag_85\n      jumpi\n        /* \"StarForgeRelic.sol\":1949:1976  t == RelicType.ATTACK_BOOST */\n      dup2\n        /* \"StarForgeRelic.sol\":2607:2673  abi.encodePacked(\"Last Stand +\", Strings.toString(uint256(value))) */\n      0x20\n        /* \"StarForgeRelic.sol\":1949:1976  t == RelicType.ATTACK_BOOST */\n      swap3\n      iszero\n        /* \"StarForgeRelic.sol\":1945:2066  if (t == RelicType.ATTACK_BOOST)    return string(abi.encodePacked(\"Quantum Strike +\", Strings.toString(uint256(value)))) */\n      tag_346\n      jumpi\n        /* \"StarForgeRelic.sol\":249:3421  contract StarForgeRelic is ERC1155, Ownable {... */\n      0x01\n        /* \"StarForgeRelic.sol\":2081:2109  t == RelicType.DEFENSE_BOOST */\n      dup2\n      eq\n        /* \"StarForgeRelic.sol\":2077:2195  if (t == RelicType.DEFENSE_BOOST)   return string(abi.encodePacked(\"Void Shield +\", Strings.toString(uint256(value)))) */\n      tag_348\n      jumpi\n        /* \"StarForgeRelic.sol\":2215:2236  RelicType.SPEED_BOOST */\n      0x02\n        /* \"StarForgeRelic.sol\":2210:2236  t == RelicType.SPEED_BOOST */\n      dup2\n      eq\n        /* \"StarForgeRelic.sol\":2206:2324  if (t == RelicType.SPEED_BOOST)     return string(abi.encodePacked(\"Nebula Dash +\", Strings.toString(uint256(value)))) */\n      tag_350\n      jumpi\n        /* \"StarForgeRelic.sol\":2344:2362  RelicType.HP_BOOST */\n      0x03\n        /* \"StarForgeRelic.sol\":2339:2362  t == RelicType.HP_BOOST */\n      dup2\n      eq\n        /* \"StarForgeRelic.sol\":2335:2451  if (t == RelicType.HP_BOOST)        return string(abi.encodePacked(\"Echo Core +\", Strings.toString(uint256(value)))) */\n      tag_352\n      jumpi\n        /* \"StarForgeRelic.sol\":2471:2492  RelicType.CRIT_CHANCE */\n      0x04\n        /* \"StarForgeRelic.sol\":2466:2492  t == RelicType.CRIT_CHANCE */\n      eq\n        /* \"StarForgeRelic.sol\":2462:2582  if (t == RelicType.CRIT_CHANCE)     return string(abi.encodePacked(\"Flux Overload +\", Strings.toString(uint256(value)))) */\n      tag_354\n      jumpi\n        /* \"StarForgeRelic.sol\":249:3421  contract StarForgeRelic is ERC1155, Ownable {... */\n      0x2c\n        /* \"StarForgeRelic.sol\":2640:2672  Strings.toString(uint256(value)) */\n      tag_356\n        /* \"StarForgeRelic.sol\":249:3421  contract StarForgeRelic is ERC1155, Ownable {... */\n      0xff\n        /* \"StarForgeRelic.sol\":2607:2673  abi.encodePacked(\"Last Stand +\", Strings.toString(uint256(value))) */\n      tag_333\n        /* \"StarForgeRelic.sol\":249:3421  contract StarForgeRelic is ERC1155, Ownable {... */\n      swap4\n      and\n        /* \"StarForgeRelic.sol\":2640:2672  Strings.toString(uint256(value)) */\n      tag_20\n      jump\t// in\n    tag_356:\n        /* \"StarForgeRelic.sol\":249:3421  contract StarForgeRelic is ERC1155, Ownable {... */\n      mload(0x40)\n        /* \"StarForgeRelic.sol\":2607:2673  abi.encodePacked(\"Last Stand +\", Strings.toString(uint256(value))) */\n      swap4\n      dup5\n      swap2\n      shl(0xa0, 0x4c617374205374616e64202b)\n      dup3\n      dup5\n      add\n        /* \"StarForgeRelic.sol\":249:3421  contract StarForgeRelic is ERC1155, Ownable {... */\n      mstore\n      dup1\n      mload\n      swap2\n      dup3\n      swap2\n      add\n      dup5\n      dup5\n      add\n      mcopy\n      dup2\n      add\n        /* \"StarForgeRelic.sol\":1954:1976  RelicType.ATTACK_BOOST */\n      0x00\n        /* \"StarForgeRelic.sol\":249:3421  contract StarForgeRelic is ERC1155, Ownable {... */\n      dup4\n      dup3\n      add\n      mstore\n        /* \"StarForgeRelic.sol\":2607:2673  abi.encodePacked(\"Last Stand +\", Strings.toString(uint256(value))) */\n      sub\n      add\n        /* \"StarForgeRelic.sol\":249:3421  contract StarForgeRelic is ERC1155, Ownable {... */\n      not(0x1f)\n        /* \"StarForgeRelic.sol\":2607:2673  abi.encodePacked(\"Last Stand +\", Strings.toString(uint256(value))) */\n      dup2\n      add\n      dup4\n      mstore\n      dup3\n      tag_5\n      jump\t// in\n        /* \"StarForgeRelic.sol\":2462:2582  if (t == RelicType.CRIT_CHANCE)     return string(abi.encodePacked(\"Flux Overload +\", Strings.toString(uint256(value)))) */\n    tag_354:\n        /* \"StarForgeRelic.sol\":249:3421  contract StarForgeRelic is ERC1155, Ownable {... */\n      0x2f\n        /* \"StarForgeRelic.sol\":2548:2580  Strings.toString(uint256(value)) */\n      tag_358\n        /* \"StarForgeRelic.sol\":249:3421  contract StarForgeRelic is ERC1155, Ownable {... */\n      0xff\n        /* \"StarForgeRelic.sol\":2512:2581  abi.encodePacked(\"Flux Overload +\", Strings.toString(uint256(value))) */\n      tag_333\n        /* \"StarForgeRelic.sol\":249:3421  contract StarForgeRelic is ERC1155, Ownable {... */\n      swap4\n      and\n        /* \"StarForgeRelic.sol\":2548:2580  Strings.toString(uint256(value)) */\n      tag_20\n      jump\t// in\n    tag_358:\n        /* \"StarForgeRelic.sol\":249:3421  contract StarForgeRelic is ERC1155, Ownable {... */\n      mload(0x40)\n        /* \"StarForgeRelic.sol\":2512:2581  abi.encodePacked(\"Flux Overload +\", Strings.toString(uint256(value))) */\n      swap4\n      dup5\n      swap2\n      shl(0x88, 0x466c7578204f7665726c6f6164202b)\n      dup3\n      dup5\n      add\n        /* \"StarForgeRelic.sol\":249:3421  contract StarForgeRelic is ERC1155, Ownable {... */\n      mstore\n      dup1\n      mload\n      swap2\n      dup3\n      swap2\n      add\n      dup5\n      dup5\n      add\n      mcopy\n      dup2\n      add\n        /* \"StarForgeRelic.sol\":1954:1976  RelicType.ATTACK_BOOST */\n      0x00\n        /* \"StarForgeRelic.sol\":249:3421  contract StarForgeRelic is ERC1155, Ownable {... */\n      dup4\n      dup3\n      add\n      mstore\n        /* \"StarForgeRelic.sol\":2512:2581  abi.encodePacked(\"Flux Overload +\", Strings.toString(uint256(value))) */\n      sub\n      add\n        /* \"StarForgeRelic.sol\":249:3421  contract StarForgeRelic is ERC1155, Ownable {... */\n      not(0x1f)\n        /* \"StarForgeRelic.sol\":2512:2581  abi.encodePacked(\"Flux Overload +\", Strings.toString(uint256(value))) */\n      dup2\n      add\n      dup4\n      mstore\n      dup3\n      tag_5\n      jump\t// in\n        /* \"StarForgeRelic.sol\":2335:2451  if (t == RelicType.HP_BOOST)        return string(abi.encodePacked(\"Echo Core +\", Strings.toString(uint256(value)))) */\n    tag_352:\n        /* \"StarForgeRelic.sol\":249:3421  contract StarForgeRelic is ERC1155, Ownable {... */\n      pop\n      0x2b\n        /* \"StarForgeRelic.sol\":2417:2449  Strings.toString(uint256(value)) */\n      tag_360\n        /* \"StarForgeRelic.sol\":249:3421  contract StarForgeRelic is ERC1155, Ownable {... */\n      0xff\n        /* \"StarForgeRelic.sol\":2385:2450  abi.encodePacked(\"Echo Core +\", Strings.toString(uint256(value))) */\n      tag_333\n        /* \"StarForgeRelic.sol\":249:3421  contract StarForgeRelic is ERC1155, Ownable {... */\n      swap4\n      and\n        /* \"StarForgeRelic.sol\":2417:2449  Strings.toString(uint256(value)) */\n      tag_20\n      jump\t// in\n    tag_360:\n        /* \"StarForgeRelic.sol\":249:3421  contract StarForgeRelic is ERC1155, Ownable {... */\n      mload(0x40)\n        /* \"StarForgeRelic.sol\":2385:2450  abi.encodePacked(\"Echo Core +\", Strings.toString(uint256(value))) */\n      swap4\n      dup5\n      swap2\n      shl(0xa8, 0x4563686f20436f7265202b)\n      dup3\n      dup5\n      add\n        /* \"StarForgeRelic.sol\":249:3421  contract StarForgeRelic is ERC1155, Ownable {... */\n      mstore\n      dup1\n      mload\n      swap2\n      dup3\n      swap2\n      add\n      dup5\n      dup5\n      add\n      mcopy\n      dup2\n      add\n        /* \"StarForgeRelic.sol\":1954:1976  RelicType.ATTACK_BOOST */\n      0x00\n        /* \"StarForgeRelic.sol\":249:3421  contract StarForgeRelic is ERC1155, Ownable {... */\n      dup4\n      dup3\n      add\n      mstore\n        /* \"StarForgeRelic.sol\":2385:2450  abi.encodePacked(\"Echo Core +\", Strings.toString(uint256(value))) */\n      sub\n      add\n        /* \"StarForgeRelic.sol\":249:3421  contract StarForgeRelic is ERC1155, Ownable {... */\n      not(0x1f)\n        /* \"StarForgeRelic.sol\":2385:2450  abi.encodePacked(\"Echo Core +\", Strings.toString(uint256(value))) */\n      dup2\n      add\n      dup4\n      mstore\n      dup3\n      tag_5\n      jump\t// in\n        /* \"StarForgeRelic.sol\":2206:2324  if (t == RelicType.SPEED_BOOST)     return string(abi.encodePacked(\"Nebula Dash +\", Strings.toString(uint256(value)))) */\n    tag_350:\n        /* \"StarForgeRelic.sol\":249:3421  contract StarForgeRelic is ERC1155, Ownable {... */\n      pop\n      0x2d\n        /* \"StarForgeRelic.sol\":2290:2322  Strings.toString(uint256(value)) */\n      tag_362\n        /* \"StarForgeRelic.sol\":249:3421  contract StarForgeRelic is ERC1155, Ownable {... */\n      0xff\n        /* \"StarForgeRelic.sol\":2256:2323  abi.encodePacked(\"Nebula Dash +\", Strings.toString(uint256(value))) */\n      tag_333\n        /* \"StarForgeRelic.sol\":249:3421  contract StarForgeRelic is ERC1155, Ownable {... */\n      swap4\n      and\n        /* \"StarForgeRelic.sol\":2290:2322  Strings.toString(uint256(value)) */\n      tag_20\n      jump\t// in\n    tag_362:\n        /* \"StarForgeRelic.sol\":249:3421  contract StarForgeRelic is ERC1155, Ownable {... */\n      mload(0x40)\n        /* \"StarForgeRelic.sol\":2256:2323  abi.encodePacked(\"Nebula Dash +\", Strings.toString(uint256(value))) */\n      swap4\n      dup5\n      swap2\n      shl(0x98, 0x4e6562756c612044617368202b)\n      dup3\n      dup5\n      add\n        /* \"StarForgeRelic.sol\":249:3421  contract StarForgeRelic is ERC1155, Ownable {... */\n      mstore\n      dup1\n      mload\n      swap2\n      dup3\n      swap2\n      add\n      dup5\n      dup5\n      add\n      mcopy\n      dup2\n      add\n        /* \"StarForgeRelic.sol\":1954:1976  RelicType.ATTACK_BOOST */\n      0x00\n        /* \"StarForgeRelic.sol\":249:3421  contract StarForgeRelic is ERC1155, Ownable {... */\n      dup4\n      dup3\n      add\n      mstore\n        /* \"StarForgeRelic.sol\":2256:2323  abi.encodePacked(\"Nebula Dash +\", Strings.toString(uint256(value))) */\n      sub\n      add\n        /* \"StarForgeRelic.sol\":249:3421  contract StarForgeRelic is ERC1155, Ownable {... */\n      not(0x1f)\n        /* \"StarForgeRelic.sol\":2256:2323  abi.encodePacked(\"Nebula Dash +\", Strings.toString(uint256(value))) */\n      dup2\n      add\n      dup4\n      mstore\n      dup3\n      tag_5\n      jump\t// in\n        /* \"StarForgeRelic.sol\":2077:2195  if (t == RelicType.DEFENSE_BOOST)   return string(abi.encodePacked(\"Void Shield +\", Strings.toString(uint256(value)))) */\n    tag_348:\n        /* \"StarForgeRelic.sol\":249:3421  contract StarForgeRelic is ERC1155, Ownable {... */\n      pop\n      0x2d\n        /* \"StarForgeRelic.sol\":2161:2193  Strings.toString(uint256(value)) */\n      tag_364\n        /* \"StarForgeRelic.sol\":249:3421  contract StarForgeRelic is ERC1155, Ownable {... */\n      0xff\n        /* \"StarForgeRelic.sol\":2127:2194  abi.encodePacked(\"Void Shield +\", Strings.toString(uint256(value))) */\n      tag_333\n        /* \"StarForgeRelic.sol\":249:3421  contract StarForgeRelic is ERC1155, Ownable {... */\n      swap4\n      and\n        /* \"StarForgeRelic.sol\":2161:2193  Strings.toString(uint256(value)) */\n      tag_20\n      jump\t// in\n    tag_364:\n        /* \"StarForgeRelic.sol\":249:3421  contract StarForgeRelic is ERC1155, Ownable {... */\n      mload(0x40)\n        /* \"StarForgeRelic.sol\":2127:2194  abi.encodePacked(\"Void Shield +\", Strings.toString(uint256(value))) */\n      swap4\n      dup5\n      swap2\n      shl(0x98, 0x566f696420536869656c64202b)\n      dup3\n      dup5\n      add\n        /* \"StarForgeRelic.sol\":249:3421  contract StarForgeRelic is ERC1155, Ownable {... */\n      mstore\n      dup1\n      mload\n      swap2\n      dup3\n      swap2\n      add\n      dup5\n      dup5\n      add\n      mcopy\n      dup2\n      add\n        /* \"StarForgeRelic.sol\":1954:1976  RelicType.ATTACK_BOOST */\n      0x00\n        /* \"StarForgeRelic.sol\":249:3421  contract StarForgeRelic is ERC1155, Ownable {... */\n      dup4\n      dup3\n      add\n      mstore\n        /* \"StarForgeRelic.sol\":2127:2194  abi.encodePacked(\"Void Shield +\", Strings.toString(uint256(value))) */\n      sub\n      add\n        /* \"StarForgeRelic.sol\":249:3421  contract StarForgeRelic is ERC1155, Ownable {... */\n      not(0x1f)\n        /* \"StarForgeRelic.sol\":2127:2194  abi.encodePacked(\"Void Shield +\", Strings.toString(uint256(value))) */\n      dup2\n      add\n      dup4\n      mstore\n      dup3\n      tag_5\n      jump\t// in\n        /* \"StarForgeRelic.sol\":1945:2066  if (t == RelicType.ATTACK_BOOST)    return string(abi.encodePacked(\"Quantum Strike +\", Strings.toString(uint256(value)))) */\n    tag_346:\n        /* \"StarForgeRelic.sol\":249:3421  contract StarForgeRelic is ERC1155, Ownable {... */\n      pop\n      0x30\n        /* \"StarForgeRelic.sol\":2032:2064  Strings.toString(uint256(value)) */\n      tag_366\n        /* \"StarForgeRelic.sol\":249:3421  contract StarForgeRelic is ERC1155, Ownable {... */\n      0xff\n        /* \"StarForgeRelic.sol\":1995:2065  abi.encodePacked(\"Quantum Strike +\", Strings.toString(uint256(value))) */\n      tag_333\n        /* \"StarForgeRelic.sol\":249:3421  contract StarForgeRelic is ERC1155, Ownable {... */\n      swap4\n      and\n        /* \"StarForgeRelic.sol\":2032:2064  Strings.toString(uint256(value)) */\n      tag_20\n      jump\t// in\n    tag_366:\n        /* \"StarForgeRelic.sol\":249:3421  contract StarForgeRelic is ERC1155, Ownable {... */\n      mload(0x40)\n        /* \"StarForgeRelic.sol\":1995:2065  abi.encodePacked(\"Quantum Strike +\", Strings.toString(uint256(value))) */\n      swap4\n      dup5\n      swap2\n      shl(0x80, 0x5175616e74756d20537472696b65202b)\n      dup3\n      dup5\n      add\n        /* \"StarForgeRelic.sol\":249:3421  contract StarForgeRelic is ERC1155, Ownable {... */\n      mstore\n      dup1\n      mload\n      swap2\n      dup3\n      swap2\n      add\n      dup5\n      dup5\n      add\n      mcopy\n      dup2\n      add\n        /* \"StarForgeRelic.sol\":1954:1976  RelicType.ATTACK_BOOST */\n      0x00\n        /* \"StarForgeRelic.sol\":249:3421  contract StarForgeRelic is ERC1155, Ownable {... */\n      dup4\n      dup3\n      add\n      mstore\n        /* \"StarForgeRelic.sol\":1995:2065  abi.encodePacked(\"Quantum Strike +\", Strings.toString(uint256(value))) */\n      sub\n      add\n        /* \"StarForgeRelic.sol\":249:3421  contract StarForgeRelic is ERC1155, Ownable {... */\n      not(0x1f)\n        /* \"StarForgeRelic.sol\":1995:2065  abi.encodePacked(\"Quantum Strike +\", Strings.toString(uint256(value))) */\n      dup2\n      add\n      dup4\n      mstore\n      dup3\n      tag_5\n      jump\t// in\n        /* \"@openzeppelin/contracts@4.9.3/utils/Strings.sol\":447:1143  function toString(uint256 value) internal pure returns (string memory) {... */\n    tag_20:\n        /* \"@openzeppelin/contracts@4.9.3/utils/Strings.sol\":569:586  Math.log10(value) */\n      dup1\n      0x00\n        /* \"@openzeppelin/contracts@4.9.3/utils/math/Math.sol\":10267:10284  value >= 10 ** 64 */\n      swap2\n      shl(0x40, 0x184f03e93ff9f4daa797ed6e38ed64bf6a1f01)\n      dup3\n      lt\n      iszero\n        /* \"@openzeppelin/contracts@4.9.3/utils/math/Math.sol\":10263:10366  if (value >= 10 ** 64) {... */\n      tag_368\n      jumpi\n        /* \"@openzeppelin/contracts@4.9.3/utils/Strings.sol\":447:1143  function toString(uint256 value) internal pure returns (string memory) {... */\n    tag_369:\n        /* \"@openzeppelin/contracts@4.9.3/utils/math/Math.sol\":10383:10400  value >= 10 ** 32 */\n      dup1\n        /* \"@openzeppelin/contracts@4.9.3/utils/math/Math.sol\":10392:10400  10 ** 32 */\n      0x04ee2d6d415b85acef8100000000\n        /* \"@openzeppelin/contracts@4.9.3/utils/math/Math.sol\":10963:10970  10 ** 1 */\n      0x0a\n        /* \"@openzeppelin/contracts@4.9.3/utils/math/Math.sol\":10383:10400  value >= 10 ** 32 */\n      swap3\n      lt\n      iszero\n        /* \"@openzeppelin/contracts@4.9.3/utils/math/Math.sol\":10379:10482  if (value >= 10 ** 32) {... */\n      tag_370\n      jumpi\n        /* \"@openzeppelin/contracts@4.9.3/utils/Strings.sol\":447:1143  function toString(uint256 value) internal pure returns (string memory) {... */\n    tag_371:\n        /* \"@openzeppelin/contracts@4.9.3/utils/math/Math.sol\":10508:10516  10 ** 16 */\n      0x2386f26fc10000\n        /* \"@openzeppelin/contracts@4.9.3/utils/math/Math.sol\":10499:10516  value >= 10 ** 16 */\n      dup2\n      lt\n      iszero\n        /* \"@openzeppelin/contracts@4.9.3/utils/math/Math.sol\":10495:10598  if (value >= 10 ** 16) {... */\n      tag_372\n      jumpi\n        /* \"@openzeppelin/contracts@4.9.3/utils/Strings.sol\":447:1143  function toString(uint256 value) internal pure returns (string memory) {... */\n    tag_373:\n        /* \"@openzeppelin/contracts@4.9.3/utils/math/Math.sol\":10624:10631  10 ** 8 */\n      0x05f5e100\n        /* \"@openzeppelin/contracts@4.9.3/utils/math/Math.sol\":10615:10631  value >= 10 ** 8 */\n      dup2\n      lt\n      iszero\n        /* \"@openzeppelin/contracts@4.9.3/utils/math/Math.sol\":10611:10711  if (value >= 10 ** 8) {... */\n      tag_374\n      jumpi\n        /* \"@openzeppelin/contracts@4.9.3/utils/Strings.sol\":447:1143  function toString(uint256 value) internal pure returns (string memory) {... */\n    tag_375:\n        /* \"@openzeppelin/contracts@4.9.3/utils/math/Math.sol\":10737:10744  10 ** 4 */\n      0x2710\n        /* \"@openzeppelin/contracts@4.9.3/utils/math/Math.sol\":10728:10744  value >= 10 ** 4 */\n      dup2\n      lt\n      iszero\n        /* \"@openzeppelin/contracts@4.9.3/utils/math/Math.sol\":10724:10824  if (value >= 10 ** 4) {... */\n      tag_376\n      jumpi\n        /* \"@openzeppelin/contracts@4.9.3/utils/Strings.sol\":447:1143  function toString(uint256 value) internal pure returns (string memory) {... */\n    tag_377:\n        /* \"@openzeppelin/contracts@4.9.3/utils/math/Math.sol\":10850:10857  10 ** 2 */\n      0x64\n        /* \"@openzeppelin/contracts@4.9.3/utils/math/Math.sol\":10841:10857  value >= 10 ** 2 */\n      dup2\n      lt\n      iszero\n        /* \"@openzeppelin/contracts@4.9.3/utils/math/Math.sol\":10837:10937  if (value >= 10 ** 2) {... */\n      tag_378\n      jumpi\n        /* \"@openzeppelin/contracts@4.9.3/utils/Strings.sol\":447:1143  function toString(uint256 value) internal pure returns (string memory) {... */\n    tag_379:\n        /* \"@openzeppelin/contracts@4.9.3/utils/math/Math.sol\":10954:10970  value >= 10 ** 1 */\n      lt\n      iszero\n        /* \"@openzeppelin/contracts@4.9.3/utils/math/Math.sol\":10950:11016  if (value >= 10 ** 1) {... */\n      tag_380\n      jumpi\n        /* \"@openzeppelin/contracts@4.9.3/utils/Strings.sol\":447:1143  function toString(uint256 value) internal pure returns (string memory) {... */\n    tag_381:\n        /* \"@openzeppelin/contracts@4.9.3/utils/math/Math.sol\":10963:10970  10 ** 1 */\n      0x0a\n        /* \"@openzeppelin/contracts@4.9.3/utils/Strings.sol\":731:807  assembly {... */\n      0x21\n        /* \"@openzeppelin/contracts@4.9.3/utils/Strings.sol\":589:590  1 */\n      0x01\n        /* \"StarForgeRelic.sol\":249:3421  contract StarForgeRelic is ERC1155, Ownable {... */\n      dup5\n      add\n      swap4\n      tag_382\n      dup6\n      tag_8\n      jump\t// in\n    tag_382:\n      swap5\n      tag_383\n      mload(0x40)\n      swap7\n      dup8\n      tag_5\n      jump\t// in\n    tag_383:\n      dup1\n      dup7\n      mstore\n      tag_384\n      not(0x1f)\n      swap2\n      tag_8\n      jump\t// in\n    tag_384:\n      add\n      calldatasize\n      0x20\n      dup8\n      add\n      calldatacopy\n        /* \"@openzeppelin/contracts@4.9.3/utils/Strings.sol\":731:807  assembly {... */\n      dup5\n      add\n      add\n        /* \"@openzeppelin/contracts@4.9.3/utils/Strings.sol\":820:1100  while (true) {... */\n    tag_385:\n      not(0x00)\n        /* \"StarForgeRelic.sol\":249:3421  contract StarForgeRelic is ERC1155, Ownable {... */\n      add\n      swap2\n      shl(0x81, 0x181899199a1a9b1b9c1cb0b131b232b3)\n        /* \"@openzeppelin/contracts@4.9.3/utils/Strings.sol\":925:1018  assembly {... */\n      dup3\n      dup3\n      mod\n      byte\n        /* \"StarForgeRelic.sol\":249:3421  contract StarForgeRelic is ERC1155, Ownable {... */\n      dup4\n        /* \"@openzeppelin/contracts@4.9.3/utils/Strings.sol\":925:1018  assembly {... */\n      mstore8\n        /* \"StarForgeRelic.sol\":249:3421  contract StarForgeRelic is ERC1155, Ownable {... */\n      div\n        /* \"@openzeppelin/contracts@4.9.3/utils/Strings.sol\":1068:1078  value == 0 */\n      dup1\n      iszero\n        /* \"@openzeppelin/contracts@4.9.3/utils/Strings.sol\":1064:1085  if (value == 0) break */\n      tag_386\n      jumpi\n        /* \"@openzeppelin/contracts@4.9.3/utils/math/Math.sol\":10963:10970  10 ** 1 */\n      0x0a\n        /* \"@openzeppelin/contracts@4.9.3/utils/Strings.sol\":820:1100  while (true) {... */\n      swap1\n      swap2\n      jump(tag_385)\n        /* \"@openzeppelin/contracts@4.9.3/utils/Strings.sol\":1064:1085  if (value == 0) break */\n    tag_386:\n        /* \"@openzeppelin/contracts@4.9.3/utils/Strings.sol\":1080:1085  break */\n      pop\n      pop\n        /* \"@openzeppelin/contracts@4.9.3/utils/Strings.sol\":447:1143  function toString(uint256 value) internal pure returns (string memory) {... */\n      swap1\n      jump\t// out\n        /* \"@openzeppelin/contracts@4.9.3/utils/math/Math.sol\":10950:11016  if (value >= 10 ** 1) {... */\n    tag_380:\n        /* \"@openzeppelin/contracts@4.9.3/utils/math/Math.sol\":11000:11001  1 */\n      0x01\n        /* \"StarForgeRelic.sol\":249:3421  contract StarForgeRelic is ERC1155, Ownable {... */\n      swap1\n      swap2\n      add\n      swap1\n        /* \"@openzeppelin/contracts@4.9.3/utils/math/Math.sol\":10950:11016  if (value >= 10 ** 1) {... */\n      jump(tag_381)\n        /* \"@openzeppelin/contracts@4.9.3/utils/math/Math.sol\":10837:10937  if (value >= 10 ** 2) {... */\n    tag_378:\n        /* \"@openzeppelin/contracts@4.9.3/utils/math/Math.sol\":10850:10857  10 ** 2 */\n      0x64\n        /* \"@openzeppelin/contracts@4.9.3/utils/math/Math.sol\":10921:10922  2 */\n      0x02\n        /* \"StarForgeRelic.sol\":249:3421  contract StarForgeRelic is ERC1155, Ownable {... */\n      swap2\n      div\n      swap4\n      add\n        /* \"@openzeppelin/contracts@4.9.3/utils/math/Math.sol\":10837:10937  if (value >= 10 ** 2) {... */\n      swap3\n      jump(tag_379)\n        /* \"@openzeppelin/contracts@4.9.3/utils/math/Math.sol\":10724:10824  if (value >= 10 ** 4) {... */\n    tag_376:\n        /* \"@openzeppelin/contracts@4.9.3/utils/math/Math.sol\":10737:10744  10 ** 4 */\n      0x2710\n        /* \"@openzeppelin/contracts@4.9.3/utils/math/Math.sol\":10808:10809  4 */\n      0x04\n        /* \"StarForgeRelic.sol\":249:3421  contract StarForgeRelic is ERC1155, Ownable {... */\n      swap2\n      div\n      swap4\n      add\n        /* \"@openzeppelin/contracts@4.9.3/utils/math/Math.sol\":10724:10824  if (value >= 10 ** 4) {... */\n      swap3\n      jump(tag_377)\n        /* \"@openzeppelin/contracts@4.9.3/utils/math/Math.sol\":10611:10711  if (value >= 10 ** 8) {... */\n    tag_374:\n        /* \"@openzeppelin/contracts@4.9.3/utils/math/Math.sol\":10624:10631  10 ** 8 */\n      0x05f5e100\n        /* \"@openzeppelin/contracts@4.9.3/utils/math/Math.sol\":10695:10696  8 */\n      0x08\n        /* \"StarForgeRelic.sol\":249:3421  contract StarForgeRelic is ERC1155, Ownable {... */\n      swap2\n      div\n      swap4\n      add\n        /* \"@openzeppelin/contracts@4.9.3/utils/math/Math.sol\":10611:10711  if (value >= 10 ** 8) {... */\n      swap3\n      jump(tag_375)\n        /* \"@openzeppelin/contracts@4.9.3/utils/math/Math.sol\":10495:10598  if (value >= 10 ** 16) {... */\n    tag_372:\n        /* \"@openzeppelin/contracts@4.9.3/utils/math/Math.sol\":10508:10516  10 ** 16 */\n      0x2386f26fc10000\n        /* \"@openzeppelin/contracts@4.9.3/utils/math/Math.sol\":10581:10583  16 */\n      0x10\n        /* \"StarForgeRelic.sol\":249:3421  contract StarForgeRelic is ERC1155, Ownable {... */\n      swap2\n      div\n      swap4\n      add\n        /* \"@openzeppelin/contracts@4.9.3/utils/math/Math.sol\":10495:10598  if (value >= 10 ** 16) {... */\n      swap3\n      jump(tag_373)\n        /* \"@openzeppelin/contracts@4.9.3/utils/math/Math.sol\":10379:10482  if (value >= 10 ** 32) {... */\n    tag_370:\n        /* \"@openzeppelin/contracts@4.9.3/utils/math/Math.sol\":10392:10400  10 ** 32 */\n      0x04ee2d6d415b85acef8100000000\n        /* \"@openzeppelin/contracts@4.9.3/utils/math/Math.sol\":10465:10467  32 */\n      0x20\n        /* \"StarForgeRelic.sol\":249:3421  contract StarForgeRelic is ERC1155, Ownable {... */\n      swap2\n      div\n      swap4\n      add\n        /* \"@openzeppelin/contracts@4.9.3/utils/math/Math.sol\":10379:10482  if (value >= 10 ** 32) {... */\n      swap3\n      jump(tag_371)\n        /* \"@openzeppelin/contracts@4.9.3/utils/math/Math.sol\":10263:10366  if (value >= 10 ** 64) {... */\n    tag_368:\n      pop\n        /* \"@openzeppelin/contracts@4.9.3/utils/math/Math.sol\":10349:10351  64 */\n      0x40\n      swap2\n      pop\n      shl(0x40, 0x184f03e93ff9f4daa797ed6e38ed64bf6a1f01)\n        /* \"StarForgeRelic.sol\":249:3421  contract StarForgeRelic is ERC1155, Ownable {... */\n      dup2\n      div\n        /* \"@openzeppelin/contracts@4.9.3/utils/math/Math.sol\":10263:10366  if (value >= 10 ** 64) {... */\n      jump(tag_369)\n        /* \"@openzeppelin/contracts@4.9.3/token/ERC1155/ERC1155.sol\":16914:17107  function _asSingletonArray(uint256 element) private pure returns (uint256[] memory) {... */\n    tag_21:\n        /* \"StarForgeRelic.sol\":249:3421  contract StarForgeRelic is ERC1155, Ownable {... */\n      mload(0x40)\n      tag_388\n      0x40\n      dup3\n      tag_5\n      jump\t// in\n    tag_388:\n      0x01\n      dup2\n      mstore\n      0x20\n      calldatasize\n      dup2\n      dup4\n      add\n      calldatacopy\n      0x01\n        /* \"@openzeppelin/contracts@4.9.3/token/ERC1155/ERC1155.sol\":17059:17077  array[0] = element */\n      tag_389\n      dup3\n      tag_16\n      jump\t// in\n    tag_389:\n        /* \"StarForgeRelic.sol\":249:3421  contract StarForgeRelic is ERC1155, Ownable {... */\n      mstore\n        /* \"@openzeppelin/contracts@4.9.3/token/ERC1155/ERC1155.sol\":16914:17107  function _asSingletonArray(uint256 element) private pure returns (uint256[] memory) {... */\n      swap1\n      jump\t// out\n    tag_22:\n        /* \"StarForgeRelic.sol\":249:3421  contract StarForgeRelic is ERC1155, Ownable {... */\n      mload(0x40)\n      swap1\n      tag_390\n      0x40\n      dup4\n      tag_5\n      jump\t// in\n    tag_390:\n        /* \"@openzeppelin/contracts@4.9.3/token/ERC1155/ERC1155.sol\":17047:17048  1 */\n      0x01\n        /* \"StarForgeRelic.sol\":249:3421  contract StarForgeRelic is ERC1155, Ownable {... */\n      dup3\n      mstore\n      0x20\n      calldatasize\n      dup2\n      dup5\n      add\n      calldatacopy\n        /* \"@openzeppelin/contracts@4.9.3/token/ERC1155/ERC1155.sol\":17059:17077  array[0] = element */\n      tag_389\n      dup3\n      tag_16\n      jump\t// in\n        /* \"StarForgeRelic.sol\":249:3421  contract StarForgeRelic is ERC1155, Ownable {... */\n    tag_23:\n      0x00\n      jumpi(tag_333, lt(returndatasize, 0x44))\n      mload(0x40)\n      add(not(0x03), returndatasize)\n      0x04\n      dup3\n      returndatacopy\n      dup1\n      mload\n      swap2\n      returndatasize\n      0x24\n      dup5\n      add\n      gt\n      0xffffffffffffffff\n      dup5\n      gt\n      or\n      tag_394\n      jumpi\n      dup3\n      dup3\n      add\n      swap3\n      dup4\n      mload\n      swap2\n      0xffffffffffffffff\n      dup4\n      gt\n      tag_398\n      jumpi\n      returndatasize\n      dup5\n      add\n      not(0x03)\n      add\n      dup6\n      dup5\n      add\n      0x20\n      add\n      gt\n      tag_398\n      jumpi\n      pop\n      tag_333\n      swap3\n      swap2\n      add\n      0x20\n      add\n      swap1\n      tag_5\n      jump\t// in\n    tag_398:\n      swap5\n      swap4\n      pop\n      pop\n      pop\n      pop\n      jump\t// out\n    tag_394:\n      swap3\n      swap2\n      pop\n      pop\n      jump\t// out\n\n    auxdata: 0xa26469706673582212201643ca0ee06b315c74354e5190ea6c7007e28ffe2399ccc35e247c80fc8b7bf964736f6c634300081e0033\n}\n",
				"bytecode": {
					"linkReferences": {},
					"object": "60803461011b5760208101906001600160401b03821181831017610107575f9160405252600254600181811c911680156100fd575b60208210146100e957601f81116100a1575b5f600281905560038054336001600160a01b031982168117909255604051926001600160a01b03909116907f8be0079c531659141344cd1fd0a4f28419497f9722a3daafe3b4186f6b6457e09080a361174390816101208239f35b60025f52601f0160051c7f405787fa12a823e0f2b7631cc41b3ba8828b3321ca811111fa75cd3aa3bb5ace908101905b8181106100de5750610046565b5f81556001016100d1565b634e487b7160e01b5f52602260045260245ffd5b90607f1690610034565b634e487b7160e01b5f52604160045260245ffd5b5f80fdfe60806040526004361015610011575f80fd5b5f3560e01c8062fdd58e14610e3257806301ffc9a714610dc45780630e89341c14610d9157806318160ddd14610d745780632eb2c2d614610d10578063405ebd4d14610ccd5780634e1273f414610afe57806368972d5914610a01578063715018a6146109a65780638da5cb5b1461097e578063a22cb4651461089e578063b496da8b1461083c578063d3f3300914610814578063e985e9c5146107bd578063f242432a1461072a578063f2fde38b146106635763f925b741146100d3575f80fd5b3461059c57606036600319011261059c576100ec610e61565b60243590600682101561059c576044359060ff82169283830361059c576004546001600160a01b0316330361060a57600554925f1984146105a7576101389060018501600555826112e1565b6020946040516101488782610ecd565b5f81526001600160a01b0385169485156105bb5761016587611676565b5061016e61164e565b50865f525f885260405f20865f52885260405f20908154600181018091116105a757899255865f6040518a81526001858201527fc3d58168c5ae7397731d063d5bbf3d657854427343f4c083240f7aacaa2d0f6260403392a43b6103dc575b50506040516101db81610eb1565b6101e58482611133565b8681018281526040820191848352875f526006895260405f20905160068110156103c85760019260ff61ff008454925160081b1692169061ffff19161717815501905180519067ffffffffffffffff82116103b4576102448354610fd3565b601f8111610371575b508890601f83116001146102e35792826102b796937f446a347ed71074962a8b80451720d6d4fe570bbdd0e70c4ce13db1ff80c0ee579896936102cd965f926102d8575b50508160011b915f199060031b1c19161790555b6040519485948986528a860190610fc6565b6040840152608060608401526080830190610e8d565b0390a2604051908152f35b015190505f80610291565b90601f19831691845f528a5f20925f5b8c82821061035b575050937f446a347ed71074962a8b80451720d6d4fe570bbdd0e70c4ce13db1ff80c0ee579896936102cd9693600193836102b79b9810610343575b505050811b0190556102a5565b01515f1960f88460031b161c191690555f8080610336565b60018596829396860151815501950193016102f3565b835f52895f20601f840160051c8101918b85106103aa575b601f0160051c01905b81811061039f575061024d565b5f8155600101610392565b9091508190610389565b634e487b7160e01b5f52604160045260245ffd5b634e487b7160e01b5f52602160045260245ffd5b61041b916040518093819263f23a6e6160e01b83523360048401525f60248401528a60448401526001606484015260a0608484015260a4830190610e8d565b03815f895af15f9181610563575b506104ef57865f60033d116104df575b6308c379a0146104a5575b6084906040519062461bcd60e51b82526004820152603460248201527f455243313135353a207472616e7366657220746f206e6f6e2d455243313135356044820152732932b1b2b4bb32b91034b6b83632b6b2b73a32b960611b6064820152fd5b6104ad611699565b90816104ba579050610444565b6104db60405192839262461bcd60e51b845260048401526024830190610e8d565b0390fd5b5060045f803e5f5160e01c610439565b6001600160e01b031916630dc5919f60e01b0161050d575f866101cd565b60405162461bcd60e51b815260048101879052602860248201527f455243313135353a204552433131353552656365697665722072656a656374656044820152676420746f6b656e7360c01b6064820152608490fd5b9091508781813d83116105a0575b61057b8183610ecd565b8101031261059c57516001600160e01b03198116810361059c57905f610429565b5f80fd5b503d610571565b634e487b7160e01b5f52601160045260245ffd5b60405162461bcd60e51b815260048101899052602160248201527f455243313135353a206d696e7420746f20746865207a65726f206164647265736044820152607360f81b6064820152608490fd5b60405162461bcd60e51b815260206004820152602b60248201527f4f6e6c792053746172466f72676547616d6520636f6e74726163742063616e2060448201526a6d696e742072656c69637360a81b6064820152608490fd5b3461059c57602036600319011261059c5761067c610e61565b610684611289565b6001600160a01b031680156106d657600380546001600160a01b0319811683179091556001600160a01b03167f8be0079c531659141344cd1fd0a4f28419497f9722a3daafe3b4186f6b6457e05f80a3005b60405162461bcd60e51b815260206004820152602660248201527f4f776e61626c653a206e6577206f776e657220697320746865207a65726f206160448201526564647265737360d01b6064820152608490fd5b3461059c5760a036600319011261059c57610743610e61565b5061074c610e77565b5060843567ffffffffffffffff811161059c5761076d903690600401610f80565b5060405162461bcd60e51b815260206004820152602160248201527f536f756c626f756e643a207472616e7366657273206172652064697361626c656044820152601960fa1b6064820152608490fd5b3461059c57604036600319011261059c576107d6610e61565b6107de610e77565b9060018060a01b03165f52600160205260405f209060018060a01b03165f52602052602060ff60405f2054166040519015158152f35b3461059c575f36600319011261059c576004546040516001600160a01b039091168152602090f35b3461059c57602036600319011261059c576004355f52600660205260ff60405f2061089a61086e60018354930161100b565b60405193836108808683819716610fc6565b60081c166020840152606060408401526060830190610e8d565b0390f35b3461059c57604036600319011261059c576108b7610e61565b6024359081151580920361059c576001600160a01b03169033821461092757335f52600160205260405f20825f5260205260405f2060ff1981541660ff83161790556040519081527f17307eab39ab6107e8899845ad3d59bd9653f200f220920489ca2b5937696c3160203392a3005b60405162461bcd60e51b815260206004820152602960248201527f455243313135353a2073657474696e6720617070726f76616c20737461747573604482015268103337b91039b2b63360b91b6064820152608490fd5b3461059c575f36600319011261059c576003546040516001600160a01b039091168152602090f35b3461059c575f36600319011261059c576109be611289565b600380546001600160a01b031981169091555f906001600160a01b03167f8be0079c531659141344cd1fd0a4f28419497f9722a3daafe3b4186f6b6457e08280a3005b3461059c57602036600319011261059c57600435606060408051610a2481610eb1565b5f81525f60208201520152805f52600660205260ff60405f205460081c1615610ac2575f526006602052610aaa60405f2061089a60405191610a6583610eb1565b60ff610a8d6001835493610a7b84861688611133565b83602088019560081c1685520161100b565b916040850192835260405195869560208752602087019051610fc6565b51166040840152516060808401526080830190610e8d565b60405162461bcd60e51b815260206004820152601460248201527314995b1a58c8191bd95cc81b9bdd08195e1a5cdd60621b6044820152606490fd5b3461059c57604036600319011261059c5760043567ffffffffffffffff811161059c573660238201121561059c578060040135610b3a81610eef565b91610b486040519384610ecd565b8183526024602084019260051b8201019036821161059c57602401915b818310610cad578360243567ffffffffffffffff811161059c57610b8d903690600401610f07565b908051825103610c5657805191610bbc610ba684610eef565b93610bb46040519586610ecd565b808552610eef565b602084019290601f19013684375f5b8151811015610c1057600190610bff6001600160a01b03610bec8386611275565b5116610bf88387611275565b51906110ab565b610c098288611275565b5201610bcb565b50505090604051918291602083019060208452518091526040830191905f5b818110610c3d575050500390f35b8251845285945060209384019390920191600101610c2f565b60405162461bcd60e51b815260206004820152602960248201527f455243313135353a206163636f756e747320616e6420696473206c656e677468604482015268040dad2e6dac2e8c6d60bb1b6064820152608490fd5b82356001600160a01b038116810361059c57815260209283019201610b65565b3461059c57602036600319011261059c57610ce6610e61565b610cee611289565b600480546001600160a01b0319166001600160a01b0392909216919091179055005b3461059c5760a036600319011261059c57610d29610e61565b50610d32610e77565b5060443567ffffffffffffffff811161059c57610d53903690600401610f07565b5060643567ffffffffffffffff811161059c5761074c903690600401610f07565b3461059c575f36600319011261059c576020600554604051908152f35b3461059c57602036600319011261059c5761089a610db060043561113f565b604051918291602083526020830190610e8d565b3461059c57602036600319011261059c5760043563ffffffff60e01b811680910361059c57602090636cdb3d1360e11b8114908115610e21575b8115610e10575b506040519015158152f35b6301ffc9a760e01b14905082610e05565b6303a24d0760e21b81149150610dfe565b3461059c57604036600319011261059c576020610e59610e50610e61565b602435906110ab565b604051908152f35b600435906001600160a01b038216820361059c57565b602435906001600160a01b038216820361059c57565b805180835260209291819084018484015e5f828201840152601f01601f1916010190565b6060810190811067ffffffffffffffff8211176103b457604052565b90601f8019910116810190811067ffffffffffffffff8211176103b457604052565b67ffffffffffffffff81116103b45760051b60200190565b9080601f8301121561059c578135610f1e81610eef565b92610f2c6040519485610ecd565b81845260208085019260051b82010192831161059c57602001905b828210610f545750505090565b8135815260209182019101610f47565b67ffffffffffffffff81116103b457601f01601f191660200190565b81601f8201121561059c57803590610f9782610f64565b92610fa56040519485610ecd565b8284526020838301011161059c57815f926020809301838601378301015290565b9060068210156103c85752565b90600182811c92168015611001575b6020831014610fed57565b634e487b7160e01b5f52602260045260245ffd5b91607f1691610fe2565b9060405191825f82549261101e84610fd3565b80845293600181169081156110895750600114611045575b5061104392500383610ecd565b565b90505f9291925260205f20905f915b81831061106d575050906020611043928201015f611036565b6020919350806001915483858901015201910190918492611054565b90506020925061104394915060ff191682840152151560051b8201015f611036565b906001600160a01b038216156110db575f525f60205260405f209060018060a01b03165f5260205260405f205490565b60405162461bcd60e51b815260206004820152602a60248201527f455243313135353a2061646472657373207a65726f206973206e6f742061207660448201526930b634b21037bbb732b960b11b6064820152608490fd5b60068210156103c85752565b5f52600660205260ff60405f2060405161115881610eb1565b6040611180600184549461116e87871686611133565b86602086019660081c1686520161100b565b91015251161561124057604051600254815f61119b83610fd3565b808352926001811690811561122157506001146111c2575b6111bf92500382610ecd565b90565b5060025f90815290917f405787fa12a823e0f2b7631cc41b3ba8828b3321ca811111fa75cd3aa3bb5ace5b8183106112055750509060206111bf928201016111b3565b60209193508060019154838588010152019101909183926111ed565b602092506111bf94915060ff191682840152151560051b8201016111b3565b60405161124e602082610ecd565b5f815290565b8051156112615760200190565b634e487b7160e01b5f52603260045260245ffd5b80518210156112615760209160051b010190565b6003546001600160a01b0316330361129d57565b606460405162461bcd60e51b815260206004820152602060248201527f4f776e61626c653a2063616c6c6572206973206e6f7420746865206f776e65726044820152fd5b9060068210156103c8578160209215611491576001811461144457600281146113f757600381146113ac5760041461135e57602c61132460ff6111bf93166114e1565b6040519384916b4c617374205374616e64202b60a01b828401528051918291018484015e81015f838201520301601f198101835282610ecd565b602f61136f60ff6111bf93166114e1565b6040519384916e466c7578204f7665726c6f6164202b60881b828401528051918291018484015e81015f838201520301601f198101835282610ecd565b50602b6113be60ff6111bf93166114e1565b6040519384916a4563686f20436f7265202b60a81b828401528051918291018484015e81015f838201520301601f198101835282610ecd565b50602d61140960ff6111bf93166114e1565b6040519384916c4e6562756c612044617368202b60981b828401528051918291018484015e81015f838201520301601f198101835282610ecd565b50602d61145660ff6111bf93166114e1565b6040519384916c566f696420536869656c64202b60981b828401528051918291018484015e81015f838201520301601f198101835282610ecd565b5060306114a360ff6111bf93166114e1565b6040519384916f5175616e74756d20537472696b65202b60801b828401528051918291018484015e81015f838201520301601f198101835282610ecd565b805f9172184f03e93ff9f4daa797ed6e38ed64bf6a1f0160401b82101561162b575b806d04ee2d6d415b85acef8100000000600a921015611610575b662386f26fc100008110156115fc575b6305f5e1008110156115eb575b6127108110156115dc575b60648110156115ce575b10156115c3575b600a6021600184019361156885610f64565b946115766040519687610ecd565b808652611585601f1991610f64565b013660208701378401015b5f1901916f181899199a1a9b1b9c1cb0b131b232b360811b8282061a83530480156115be57600a9091611590565b505090565b600190910190611556565b60646002910493019261154f565b61271060049104930192611545565b6305f5e1006008910493019261153a565b662386f26fc100006010910493019261152d565b6d04ee2d6d415b85acef81000000006020910493019261151d565b506040915072184f03e93ff9f4daa797ed6e38ed64bf6a1f0160401b8104611503565b60405161165c604082610ecd565b6001815260203681830137600161167282611254565b5290565b60405190611685604083610ecd565b600182526020368184013761167282611254565b5f60443d106111bf576040513d600319016004823e8051913d602484011167ffffffffffffffff841117611707578282019283519167ffffffffffffffff83116116ff573d840160031901858401602001116116ff57506111bf92910160200190610ecd565b949350505050565b9291505056fea26469706673582212201643ca0ee06b315c74354e5190ea6c7007e28ffe2399ccc35e247c80fc8b7bf964736f6c634300081e0033",
					"opcodes": "PUSH1 0x80 CALLVALUE PUSH2 0x11B JUMPI PUSH1 0x20 DUP2 ADD SWAP1 PUSH1 0x1 PUSH1 0x1 PUSH1 0x40 SHL SUB DUP3 GT DUP2 DUP4 LT OR PUSH2 0x107 JUMPI PUSH0 SWAP2 PUSH1 0x40 MSTORE MSTORE PUSH1 0x2 SLOAD PUSH1 0x1 DUP2 DUP2 SHR SWAP2 AND DUP1 ISZERO PUSH2 0xFD JUMPI JUMPDEST PUSH1 0x20 DUP3 LT EQ PUSH2 0xE9 JUMPI PUSH1 0x1F DUP2 GT PUSH2 0xA1 JUMPI JUMPDEST PUSH0 PUSH1 0x2 DUP2 SWAP1 SSTORE PUSH1 0x3 DUP1 SLOAD CALLER PUSH1 0x1 PUSH1 0x1 PUSH1 0xA0 SHL SUB NOT DUP3 AND DUP2 OR SWAP1 SWAP3 SSTORE PUSH1 0x40 MLOAD SWAP3 PUSH1 0x1 PUSH1 0x1 PUSH1 0xA0 SHL SUB SWAP1 SWAP2 AND SWAP1 PUSH32 0x8BE0079C531659141344CD1FD0A4F28419497F9722A3DAAFE3B4186F6B6457E0 SWAP1 DUP1 LOG3 PUSH2 0x1743 SWAP1 DUP2 PUSH2 0x120 DUP3 CODECOPY RETURN JUMPDEST PUSH1 0x2 PUSH0 MSTORE PUSH1 0x1F ADD PUSH1 0x5 SHR PUSH32 0x405787FA12A823E0F2B7631CC41B3BA8828B3321CA811111FA75CD3AA3BB5ACE SWAP1 DUP2 ADD SWAP1 JUMPDEST DUP2 DUP2 LT PUSH2 0xDE JUMPI POP PUSH2 0x46 JUMP JUMPDEST PUSH0 DUP2 SSTORE PUSH1 0x1 ADD PUSH2 0xD1 JUMP JUMPDEST PUSH4 0x4E487B71 PUSH1 0xE0 SHL PUSH0 MSTORE PUSH1 0x22 PUSH1 0x4 MSTORE PUSH1 0x24 PUSH0 REVERT JUMPDEST SWAP1 PUSH1 0x7F AND SWAP1 PUSH2 0x34 JUMP JUMPDEST PUSH4 0x4E487B71 PUSH1 0xE0 SHL PUSH0 MSTORE PUSH1 0x41 PUSH1 0x4 MSTORE PUSH1 0x24 PUSH0 REVERT JUMPDEST PUSH0 DUP1 REVERT INVALID PUSH1 0x80 PUSH1 0x40 MSTORE PUSH1 0x4 CALLDATASIZE LT ISZERO PUSH2 0x11 JUMPI PUSH0 DUP1 REVERT JUMPDEST PUSH0 CALLDATALOAD PUSH1 0xE0 SHR DUP1 PUSH3 0xFDD58E EQ PUSH2 0xE32 JUMPI DUP1 PUSH4 0x1FFC9A7 EQ PUSH2 0xDC4 JUMPI DUP1 PUSH4 0xE89341C EQ PUSH2 0xD91 JUMPI DUP1 PUSH4 0x18160DDD EQ PUSH2 0xD74 JUMPI DUP1 PUSH4 0x2EB2C2D6 EQ PUSH2 0xD10 JUMPI DUP1 PUSH4 0x405EBD4D EQ PUSH2 0xCCD JUMPI DUP1 PUSH4 0x4E1273F4 EQ PUSH2 0xAFE JUMPI DUP1 PUSH4 0x68972D59 EQ PUSH2 0xA01 JUMPI DUP1 PUSH4 0x715018A6 EQ PUSH2 0x9A6 JUMPI DUP1 PUSH4 0x8DA5CB5B EQ PUSH2 0x97E JUMPI DUP1 PUSH4 0xA22CB465 EQ PUSH2 0x89E JUMPI DUP1 PUSH4 0xB496DA8B EQ PUSH2 0x83C JUMPI DUP1 PUSH4 0xD3F33009 EQ PUSH2 0x814 JUMPI DUP1 PUSH4 0xE985E9C5 EQ PUSH2 0x7BD JUMPI DUP1 PUSH4 0xF242432A EQ PUSH2 0x72A JUMPI DUP1 PUSH4 0xF2FDE38B EQ PUSH2 0x663 JUMPI PUSH4 0xF925B741 EQ PUSH2 0xD3 JUMPI PUSH0 DUP1 REVERT JUMPDEST CALLVALUE PUSH2 0x59C JUMPI PUSH1 0x60 CALLDATASIZE PUSH1 0x3 NOT ADD SLT PUSH2 0x59C JUMPI PUSH2 0xEC PUSH2 0xE61 JUMP JUMPDEST PUSH1 0x24 CALLDATALOAD SWAP1 PUSH1 0x6 DUP3 LT ISZERO PUSH2 0x59C JUMPI PUSH1 0x44 CALLDATALOAD SWAP1 PUSH1 0xFF DUP3 AND SWAP3 DUP4 DUP4 SUB PUSH2 0x59C JUMPI PUSH1 0x4 SLOAD PUSH1 0x1 PUSH1 0x1 PUSH1 0xA0 SHL SUB AND CALLER SUB PUSH2 0x60A JUMPI PUSH1 0x5 SLOAD SWAP3 PUSH0 NOT DUP5 EQ PUSH2 0x5A7 JUMPI PUSH2 0x138 SWAP1 PUSH1 0x1 DUP6 ADD PUSH1 0x5 SSTORE DUP3 PUSH2 0x12E1 JUMP JUMPDEST PUSH1 0x20 SWAP5 PUSH1 0x40 MLOAD PUSH2 0x148 DUP8 DUP3 PUSH2 0xECD JUMP JUMPDEST PUSH0 DUP2 MSTORE PUSH1 0x1 PUSH1 0x1 PUSH1 0xA0 SHL SUB DUP6 AND SWAP5 DUP6 ISZERO PUSH2 0x5BB JUMPI PUSH2 0x165 DUP8 PUSH2 0x1676 JUMP JUMPDEST POP PUSH2 0x16E PUSH2 0x164E JUMP JUMPDEST POP DUP7 PUSH0 MSTORE PUSH0 DUP9 MSTORE PUSH1 0x40 PUSH0 KECCAK256 DUP7 PUSH0 MSTORE DUP9 MSTORE PUSH1 0x40 PUSH0 KECCAK256 SWAP1 DUP2 SLOAD PUSH1 0x1 DUP2 ADD DUP1 SWAP2 GT PUSH2 0x5A7 JUMPI DUP10 SWAP3 SSTORE DUP7 PUSH0 PUSH1 0x40 MLOAD DUP11 DUP2 MSTORE PUSH1 0x1 DUP6 DUP3 ADD MSTORE PUSH32 0xC3D58168C5AE7397731D063D5BBF3D657854427343F4C083240F7AACAA2D0F62 PUSH1 0x40 CALLER SWAP3 LOG4 EXTCODESIZE PUSH2 0x3DC JUMPI JUMPDEST POP POP PUSH1 0x40 MLOAD PUSH2 0x1DB DUP2 PUSH2 0xEB1 JUMP JUMPDEST PUSH2 0x1E5 DUP5 DUP3 PUSH2 0x1133 JUMP JUMPDEST DUP7 DUP2 ADD DUP3 DUP2 MSTORE PUSH1 0x40 DUP3 ADD SWAP2 DUP5 DUP4 MSTORE DUP8 PUSH0 MSTORE PUSH1 0x6 DUP10 MSTORE PUSH1 0x40 PUSH0 KECCAK256 SWAP1 MLOAD PUSH1 0x6 DUP2 LT ISZERO PUSH2 0x3C8 JUMPI PUSH1 0x1 SWAP3 PUSH1 0xFF PUSH2 0xFF00 DUP5 SLOAD SWAP3 MLOAD PUSH1 0x8 SHL AND SWAP3 AND SWAP1 PUSH2 0xFFFF NOT AND OR OR DUP2 SSTORE ADD SWAP1 MLOAD DUP1 MLOAD SWAP1 PUSH8 0xFFFFFFFFFFFFFFFF DUP3 GT PUSH2 0x3B4 JUMPI PUSH2 0x244 DUP4 SLOAD PUSH2 0xFD3 JUMP JUMPDEST PUSH1 0x1F DUP2 GT PUSH2 0x371 JUMPI JUMPDEST POP DUP9 SWAP1 PUSH1 0x1F DUP4 GT PUSH1 0x1 EQ PUSH2 0x2E3 JUMPI SWAP3 DUP3 PUSH2 0x2B7 SWAP7 SWAP4 PUSH32 0x446A347ED71074962A8B80451720D6D4FE570BBDD0E70C4CE13DB1FF80C0EE57 SWAP9 SWAP7 SWAP4 PUSH2 0x2CD SWAP7 PUSH0 SWAP3 PUSH2 0x2D8 JUMPI JUMPDEST POP POP DUP2 PUSH1 0x1 SHL SWAP2 PUSH0 NOT SWAP1 PUSH1 0x3 SHL SHR NOT AND OR SWAP1 SSTORE JUMPDEST PUSH1 0x40 MLOAD SWAP5 DUP6 SWAP5 DUP10 DUP7 MSTORE DUP11 DUP7 ADD SWAP1 PUSH2 0xFC6 JUMP JUMPDEST PUSH1 0x40 DUP5 ADD MSTORE PUSH1 0x80 PUSH1 0x60 DUP5 ADD MSTORE PUSH1 0x80 DUP4 ADD SWAP1 PUSH2 0xE8D JUMP JUMPDEST SUB SWAP1 LOG2 PUSH1 0x40 MLOAD SWAP1 DUP2 MSTORE RETURN JUMPDEST ADD MLOAD SWAP1 POP PUSH0 DUP1 PUSH2 0x291 JUMP JUMPDEST SWAP1 PUSH1 0x1F NOT DUP4 AND SWAP2 DUP5 PUSH0 MSTORE DUP11 PUSH0 KECCAK256 SWAP3 PUSH0 JUMPDEST DUP13 DUP3 DUP3 LT PUSH2 0x35B JUMPI POP POP SWAP4 PUSH32 0x446A347ED71074962A8B80451720D6D4FE570BBDD0E70C4CE13DB1FF80C0EE57 SWAP9 SWAP7 SWAP4 PUSH2 0x2CD SWAP7 SWAP4 PUSH1 0x1 SWAP4 DUP4 PUSH2 0x2B7 SWAP12 SWAP9 LT PUSH2 0x343 JUMPI JUMPDEST POP POP POP DUP2 SHL ADD SWAP1 SSTORE PUSH2 0x2A5 JUMP JUMPDEST ADD MLOAD PUSH0 NOT PUSH1 0xF8 DUP5 PUSH1 0x3 SHL AND SHR NOT AND SWAP1 SSTORE PUSH0 DUP1 DUP1 PUSH2 0x336 JUMP JUMPDEST PUSH1 0x1 DUP6 SWAP7 DUP3 SWAP4 SWAP7 DUP7 ADD MLOAD DUP2 SSTORE ADD SWAP6 ADD SWAP4 ADD PUSH2 0x2F3 JUMP JUMPDEST DUP4 PUSH0 MSTORE DUP10 PUSH0 KECCAK256 PUSH1 0x1F DUP5 ADD PUSH1 0x5 SHR DUP2 ADD SWAP2 DUP12 DUP6 LT PUSH2 0x3AA JUMPI JUMPDEST PUSH1 0x1F ADD PUSH1 0x5 SHR ADD SWAP1 JUMPDEST DUP2 DUP2 LT PUSH2 0x39F JUMPI POP PUSH2 0x24D JUMP JUMPDEST PUSH0 DUP2 SSTORE PUSH1 0x1 ADD PUSH2 0x392 JUMP JUMPDEST SWAP1 SWAP2 POP DUP2 SWAP1 PUSH2 0x389 JUMP JUMPDEST PUSH4 0x4E487B71 PUSH1 0xE0 SHL PUSH0 MSTORE PUSH1 0x41 PUSH1 0x4 MSTORE PUSH1 0x24 PUSH0 REVERT JUMPDEST PUSH4 0x4E487B71 PUSH1 0xE0 SHL PUSH0 MSTORE PUSH1 0x21 PUSH1 0x4 MSTORE PUSH1 0x24 PUSH0 REVERT JUMPDEST PUSH2 0x41B SWAP2 PUSH1 0x40 MLOAD DUP1 SWAP4 DUP2 SWAP3 PUSH4 0xF23A6E61 PUSH1 0xE0 SHL DUP4 MSTORE CALLER PUSH1 0x4 DUP5 ADD MSTORE PUSH0 PUSH1 0x24 DUP5 ADD MSTORE DUP11 PUSH1 0x44 DUP5 ADD MSTORE PUSH1 0x1 PUSH1 0x64 DUP5 ADD MSTORE PUSH1 0xA0 PUSH1 0x84 DUP5 ADD MSTORE PUSH1 0xA4 DUP4 ADD SWAP1 PUSH2 0xE8D JUMP JUMPDEST SUB DUP2 PUSH0 DUP10 GAS CALL PUSH0 SWAP2 DUP2 PUSH2 0x563 JUMPI JUMPDEST POP PUSH2 0x4EF JUMPI DUP7 PUSH0 PUSH1 0x3 RETURNDATASIZE GT PUSH2 0x4DF JUMPI JUMPDEST PUSH4 0x8C379A0 EQ PUSH2 0x4A5 JUMPI JUMPDEST PUSH1 0x84 SWAP1 PUSH1 0x40 MLOAD SWAP1 PUSH3 0x461BCD PUSH1 0xE5 SHL DUP3 MSTORE PUSH1 0x4 DUP3 ADD MSTORE PUSH1 0x34 PUSH1 0x24 DUP3 ADD MSTORE PUSH32 0x455243313135353A207472616E7366657220746F206E6F6E2D45524331313535 PUSH1 0x44 DUP3 ADD MSTORE PUSH20 0x2932B1B2B4BB32B91034B6B83632B6B2B73A32B9 PUSH1 0x61 SHL PUSH1 0x64 DUP3 ADD MSTORE REVERT JUMPDEST PUSH2 0x4AD PUSH2 0x1699 JUMP JUMPDEST SWAP1 DUP2 PUSH2 0x4BA JUMPI SWAP1 POP PUSH2 0x444 JUMP JUMPDEST PUSH2 0x4DB PUSH1 0x40 MLOAD SWAP3 DUP4 SWAP3 PUSH3 0x461BCD PUSH1 0xE5 SHL DUP5 MSTORE PUSH1 0x4 DUP5 ADD MSTORE PUSH1 0x24 DUP4 ADD SWAP1 PUSH2 0xE8D JUMP JUMPDEST SUB SWAP1 REVERT JUMPDEST POP PUSH1 0x4 PUSH0 DUP1 RETURNDATACOPY PUSH0 MLOAD PUSH1 0xE0 SHR PUSH2 0x439 JUMP JUMPDEST PUSH1 0x1 PUSH1 0x1 PUSH1 0xE0 SHL SUB NOT AND PUSH4 0xDC5919F PUSH1 0xE0 SHL ADD PUSH2 0x50D JUMPI PUSH0 DUP7 PUSH2 0x1CD JUMP JUMPDEST PUSH1 0x40 MLOAD PUSH3 0x461BCD PUSH1 0xE5 SHL DUP2 MSTORE PUSH1 0x4 DUP2 ADD DUP8 SWAP1 MSTORE PUSH1 0x28 PUSH1 0x24 DUP3 ADD MSTORE PUSH32 0x455243313135353A204552433131353552656365697665722072656A65637465 PUSH1 0x44 DUP3 ADD MSTORE PUSH8 0x6420746F6B656E73 PUSH1 0xC0 SHL PUSH1 0x64 DUP3 ADD MSTORE PUSH1 0x84 SWAP1 REVERT JUMPDEST SWAP1 SWAP2 POP DUP8 DUP2 DUP2 RETURNDATASIZE DUP4 GT PUSH2 0x5A0 JUMPI JUMPDEST PUSH2 0x57B DUP2 DUP4 PUSH2 0xECD JUMP JUMPDEST DUP2 ADD SUB SLT PUSH2 0x59C JUMPI MLOAD PUSH1 0x1 PUSH1 0x1 PUSH1 0xE0 SHL SUB NOT DUP2 AND DUP2 SUB PUSH2 0x59C JUMPI SWAP1 PUSH0 PUSH2 0x429 JUMP JUMPDEST PUSH0 DUP1 REVERT JUMPDEST POP RETURNDATASIZE PUSH2 0x571 JUMP JUMPDEST PUSH4 0x4E487B71 PUSH1 0xE0 SHL PUSH0 MSTORE PUSH1 0x11 PUSH1 0x4 MSTORE PUSH1 0x24 PUSH0 REVERT JUMPDEST PUSH1 0x40 MLOAD PUSH3 0x461BCD PUSH1 0xE5 SHL DUP2 MSTORE PUSH1 0x4 DUP2 ADD DUP10 SWAP1 MSTORE PUSH1 0x21 PUSH1 0x24 DUP3 ADD MSTORE PUSH32 0x455243313135353A206D696E7420746F20746865207A65726F20616464726573 PUSH1 0x44 DUP3 ADD MSTORE PUSH1 0x73 PUSH1 0xF8 SHL PUSH1 0x64 DUP3 ADD MSTORE PUSH1 0x84 SWAP1 REVERT JUMPDEST PUSH1 0x40 MLOAD PUSH3 0x461BCD PUSH1 0xE5 SHL DUP2 MSTORE PUSH1 0x20 PUSH1 0x4 DUP3 ADD MSTORE PUSH1 0x2B PUSH1 0x24 DUP3 ADD MSTORE PUSH32 0x4F6E6C792053746172466F72676547616D6520636F6E74726163742063616E20 PUSH1 0x44 DUP3 ADD MSTORE PUSH11 0x6D696E742072656C696373 PUSH1 0xA8 SHL PUSH1 0x64 DUP3 ADD MSTORE PUSH1 0x84 SWAP1 REVERT JUMPDEST CALLVALUE PUSH2 0x59C JUMPI PUSH1 0x20 CALLDATASIZE PUSH1 0x3 NOT ADD SLT PUSH2 0x59C JUMPI PUSH2 0x67C PUSH2 0xE61 JUMP JUMPDEST PUSH2 0x684 PUSH2 0x1289 JUMP JUMPDEST PUSH1 0x1 PUSH1 0x1 PUSH1 0xA0 SHL SUB AND DUP1 ISZERO PUSH2 0x6D6 JUMPI PUSH1 0x3 DUP1 SLOAD PUSH1 0x1 PUSH1 0x1 PUSH1 0xA0 SHL SUB NOT DUP2 AND DUP4 OR SWAP1 SWAP2 SSTORE PUSH1 0x1 PUSH1 0x1 PUSH1 0xA0 SHL SUB AND PUSH32 0x8BE0079C531659141344CD1FD0A4F28419497F9722A3DAAFE3B4186F6B6457E0 PUSH0 DUP1 LOG3 STOP JUMPDEST PUSH1 0x40 MLOAD PUSH3 0x461BCD PUSH1 0xE5 SHL DUP2 MSTORE PUSH1 0x20 PUSH1 0x4 DUP3 ADD MSTORE PUSH1 0x26 PUSH1 0x24 DUP3 ADD MSTORE PUSH32 0x4F776E61626C653A206E6577206F776E657220697320746865207A65726F2061 PUSH1 0x44 DUP3 ADD MSTORE PUSH6 0x646472657373 PUSH1 0xD0 SHL PUSH1 0x64 DUP3 ADD MSTORE PUSH1 0x84 SWAP1 REVERT JUMPDEST CALLVALUE PUSH2 0x59C JUMPI PUSH1 0xA0 CALLDATASIZE PUSH1 0x3 NOT ADD SLT PUSH2 0x59C JUMPI PUSH2 0x743 PUSH2 0xE61 JUMP JUMPDEST POP PUSH2 0x74C PUSH2 0xE77 JUMP JUMPDEST POP PUSH1 0x84 CALLDATALOAD PUSH8 0xFFFFFFFFFFFFFFFF DUP2 GT PUSH2 0x59C JUMPI PUSH2 0x76D SWAP1 CALLDATASIZE SWAP1 PUSH1 0x4 ADD PUSH2 0xF80 JUMP JUMPDEST POP PUSH1 0x40 MLOAD PUSH3 0x461BCD PUSH1 0xE5 SHL DUP2 MSTORE PUSH1 0x20 PUSH1 0x4 DUP3 ADD MSTORE PUSH1 0x21 PUSH1 0x24 DUP3 ADD MSTORE PUSH32 0x536F756C626F756E643A207472616E7366657273206172652064697361626C65 PUSH1 0x44 DUP3 ADD MSTORE PUSH1 0x19 PUSH1 0xFA SHL PUSH1 0x64 DUP3 ADD MSTORE PUSH1 0x84 SWAP1 REVERT JUMPDEST CALLVALUE PUSH2 0x59C JUMPI PUSH1 0x40 CALLDATASIZE PUSH1 0x3 NOT ADD SLT PUSH2 0x59C JUMPI PUSH2 0x7D6 PUSH2 0xE61 JUMP JUMPDEST PUSH2 0x7DE PUSH2 0xE77 JUMP JUMPDEST SWAP1 PUSH1 0x1 DUP1 PUSH1 0xA0 SHL SUB AND PUSH0 MSTORE PUSH1 0x1 PUSH1 0x20 MSTORE PUSH1 0x40 PUSH0 KECCAK256 SWAP1 PUSH1 0x1 DUP1 PUSH1 0xA0 SHL SUB AND PUSH0 MSTORE PUSH1 0x20 MSTORE PUSH1 0x20 PUSH1 0xFF PUSH1 0x40 PUSH0 KECCAK256 SLOAD AND PUSH1 0x40 MLOAD SWAP1 ISZERO ISZERO DUP2 MSTORE RETURN JUMPDEST CALLVALUE PUSH2 0x59C JUMPI PUSH0 CALLDATASIZE PUSH1 0x3 NOT ADD SLT PUSH2 0x59C JUMPI PUSH1 0x4 SLOAD PUSH1 0x40 MLOAD PUSH1 0x1 PUSH1 0x1 PUSH1 0xA0 SHL SUB SWAP1 SWAP2 AND DUP2 MSTORE PUSH1 0x20 SWAP1 RETURN JUMPDEST CALLVALUE PUSH2 0x59C JUMPI PUSH1 0x20 CALLDATASIZE PUSH1 0x3 NOT ADD SLT PUSH2 0x59C JUMPI PUSH1 0x4 CALLDATALOAD PUSH0 MSTORE PUSH1 0x6 PUSH1 0x20 MSTORE PUSH1 0xFF PUSH1 0x40 PUSH0 KECCAK256 PUSH2 0x89A PUSH2 0x86E PUSH1 0x1 DUP4 SLOAD SWAP4 ADD PUSH2 0x100B JUMP JUMPDEST PUSH1 0x40 MLOAD SWAP4 DUP4 PUSH2 0x880 DUP7 DUP4 DUP2 SWAP8 AND PUSH2 0xFC6 JUMP JUMPDEST PUSH1 0x8 SHR AND PUSH1 0x20 DUP5 ADD MSTORE PUSH1 0x60 PUSH1 0x40 DUP5 ADD MSTORE PUSH1 0x60 DUP4 ADD SWAP1 PUSH2 0xE8D JUMP JUMPDEST SUB SWAP1 RETURN JUMPDEST CALLVALUE PUSH2 0x59C JUMPI PUSH1 0x40 CALLDATASIZE PUSH1 0x3 NOT ADD SLT PUSH2 0x59C JUMPI PUSH2 0x8B7 PUSH2 0xE61 JUMP JUMPDEST PUSH1 0x24 CALLDATALOAD SWAP1 DUP2 ISZERO ISZERO DUP1 SWAP3 SUB PUSH2 0x59C JUMPI PUSH1 0x1 PUSH1 0x1 PUSH1 0xA0 SHL SUB AND SWAP1 CALLER DUP3 EQ PUSH2 0x927 JUMPI CALLER PUSH0 MSTORE PUSH1 0x1 PUSH1 0x20 MSTORE PUSH1 0x40 PUSH0 KECCAK256 DUP3 PUSH0 MSTORE PUSH1 0x20 MSTORE PUSH1 0x40 PUSH0 KECCAK256 PUSH1 0xFF NOT DUP2 SLOAD AND PUSH1 0xFF DUP4 AND OR SWAP1 SSTORE PUSH1 0x40 MLOAD SWAP1 DUP2 MSTORE PUSH32 0x17307EAB39AB6107E8899845AD3D59BD9653F200F220920489CA2B5937696C31 PUSH1 0x20 CALLER SWAP3 LOG3 STOP JUMPDEST PUSH1 0x40 MLOAD PUSH3 0x461BCD PUSH1 0xE5 SHL DUP2 MSTORE PUSH1 0x20 PUSH1 0x4 DUP3 ADD MSTORE PUSH1 0x29 PUSH1 0x24 DUP3 ADD MSTORE PUSH32 0x455243313135353A2073657474696E6720617070726F76616C20737461747573 PUSH1 0x44 DUP3 ADD MSTORE PUSH9 0x103337B91039B2B633 PUSH1 0xB9 SHL PUSH1 0x64 DUP3 ADD MSTORE PUSH1 0x84 SWAP1 REVERT JUMPDEST CALLVALUE PUSH2 0x59C JUMPI PUSH0 CALLDATASIZE PUSH1 0x3 NOT ADD SLT PUSH2 0x59C JUMPI PUSH1 0x3 SLOAD PUSH1 0x40 MLOAD PUSH1 0x1 PUSH1 0x1 PUSH1 0xA0 SHL SUB SWAP1 SWAP2 AND DUP2 MSTORE PUSH1 0x20 SWAP1 RETURN JUMPDEST CALLVALUE PUSH2 0x59C JUMPI PUSH0 CALLDATASIZE PUSH1 0x3 NOT ADD SLT PUSH2 0x59C JUMPI PUSH2 0x9BE PUSH2 0x1289 JUMP JUMPDEST PUSH1 0x3 DUP1 SLOAD PUSH1 0x1 PUSH1 0x1 PUSH1 0xA0 SHL SUB NOT DUP2 AND SWAP1 SWAP2 SSTORE PUSH0 SWAP1 PUSH1 0x1 PUSH1 0x1 PUSH1 0xA0 SHL SUB AND PUSH32 0x8BE0079C531659141344CD1FD0A4F28419497F9722A3DAAFE3B4186F6B6457E0 DUP3 DUP1 LOG3 STOP JUMPDEST CALLVALUE PUSH2 0x59C JUMPI PUSH1 0x20 CALLDATASIZE PUSH1 0x3 NOT ADD SLT PUSH2 0x59C JUMPI PUSH1 0x4 CALLDATALOAD PUSH1 0x60 PUSH1 0x40 DUP1 MLOAD PUSH2 0xA24 DUP2 PUSH2 0xEB1 JUMP JUMPDEST PUSH0 DUP2 MSTORE PUSH0 PUSH1 0x20 DUP3 ADD MSTORE ADD MSTORE DUP1 PUSH0 MSTORE PUSH1 0x6 PUSH1 0x20 MSTORE PUSH1 0xFF PUSH1 0x40 PUSH0 KECCAK256 SLOAD PUSH1 0x8 SHR AND ISZERO PUSH2 0xAC2 JUMPI PUSH0 MSTORE PUSH1 0x6 PUSH1 0x20 MSTORE PUSH2 0xAAA PUSH1 0x40 PUSH0 KECCAK256 PUSH2 0x89A PUSH1 0x40 MLOAD SWAP2 PUSH2 0xA65 DUP4 PUSH2 0xEB1 JUMP JUMPDEST PUSH1 0xFF PUSH2 0xA8D PUSH1 0x1 DUP4 SLOAD SWAP4 PUSH2 0xA7B DUP5 DUP7 AND DUP9 PUSH2 0x1133 JUMP JUMPDEST DUP4 PUSH1 0x20 DUP9 ADD SWAP6 PUSH1 0x8 SHR AND DUP6 MSTORE ADD PUSH2 0x100B JUMP JUMPDEST SWAP2 PUSH1 0x40 DUP6 ADD SWAP3 DUP4 MSTORE PUSH1 0x40 MLOAD SWAP6 DUP7 SWAP6 PUSH1 0x20 DUP8 MSTORE PUSH1 0x20 DUP8 ADD SWAP1 MLOAD PUSH2 0xFC6 JUMP JUMPDEST MLOAD AND PUSH1 0x40 DUP5 ADD MSTORE MLOAD PUSH1 0x60 DUP1 DUP5 ADD MSTORE PUSH1 0x80 DUP4 ADD SWAP1 PUSH2 0xE8D JUMP JUMPDEST PUSH1 0x40 MLOAD PUSH3 0x461BCD PUSH1 0xE5 SHL DUP2 MSTORE PUSH1 0x20 PUSH1 0x4 DUP3 ADD MSTORE PUSH1 0x14 PUSH1 0x24 DUP3 ADD MSTORE PUSH20 0x14995B1A58C8191BD95CC81B9BDD08195E1A5CDD PUSH1 0x62 SHL PUSH1 0x44 DUP3 ADD MSTORE PUSH1 0x64 SWAP1 REVERT JUMPDEST CALLVALUE PUSH2 0x59C JUMPI PUSH1 0x40 CALLDATASIZE PUSH1 0x3 NOT ADD SLT PUSH2 0x59C JUMPI PUSH1 0x4 CALLDATALOAD PUSH8 0xFFFFFFFFFFFFFFFF DUP2 GT PUSH2 0x59C JUMPI CALLDATASIZE PUSH1 0x23 DUP3 ADD SLT ISZERO PUSH2 0x59C JUMPI DUP1 PUSH1 0x4 ADD CALLDATALOAD PUSH2 0xB3A DUP2 PUSH2 0xEEF JUMP JUMPDEST SWAP2 PUSH2 0xB48 PUSH1 0x40 MLOAD SWAP4 DUP5 PUSH2 0xECD JUMP JUMPDEST DUP2 DUP4 MSTORE PUSH1 0x24 PUSH1 0x20 DUP5 ADD SWAP3 PUSH1 0x5 SHL DUP3 ADD ADD SWAP1 CALLDATASIZE DUP3 GT PUSH2 0x59C JUMPI PUSH1 0x24 ADD SWAP2 JUMPDEST DUP2 DUP4 LT PUSH2 0xCAD JUMPI DUP4 PUSH1 0x24 CALLDATALOAD PUSH8 0xFFFFFFFFFFFFFFFF DUP2 GT PUSH2 0x59C JUMPI PUSH2 0xB8D SWAP1 CALLDATASIZE SWAP1 PUSH1 0x4 ADD PUSH2 0xF07 JUMP JUMPDEST SWAP1 DUP1 MLOAD DUP3 MLOAD SUB PUSH2 0xC56 JUMPI DUP1 MLOAD SWAP2 PUSH2 0xBBC PUSH2 0xBA6 DUP5 PUSH2 0xEEF JUMP JUMPDEST SWAP4 PUSH2 0xBB4 PUSH1 0x40 MLOAD SWAP6 DUP7 PUSH2 0xECD JUMP JUMPDEST DUP1 DUP6 MSTORE PUSH2 0xEEF JUMP JUMPDEST PUSH1 0x20 DUP5 ADD SWAP3 SWAP1 PUSH1 0x1F NOT ADD CALLDATASIZE DUP5 CALLDATACOPY PUSH0 JUMPDEST DUP2 MLOAD DUP2 LT ISZERO PUSH2 0xC10 JUMPI PUSH1 0x1 SWAP1 PUSH2 0xBFF PUSH1 0x1 PUSH1 0x1 PUSH1 0xA0 SHL SUB PUSH2 0xBEC DUP4 DUP7 PUSH2 0x1275 JUMP JUMPDEST MLOAD AND PUSH2 0xBF8 DUP4 DUP8 PUSH2 0x1275 JUMP JUMPDEST MLOAD SWAP1 PUSH2 0x10AB JUMP JUMPDEST PUSH2 0xC09 DUP3 DUP9 PUSH2 0x1275 JUMP JUMPDEST MSTORE ADD PUSH2 0xBCB JUMP JUMPDEST POP POP POP SWAP1 PUSH1 0x40 MLOAD SWAP2 DUP3 SWAP2 PUSH1 0x20 DUP4 ADD SWAP1 PUSH1 0x20 DUP5 MSTORE MLOAD DUP1 SWAP2 MSTORE PUSH1 0x40 DUP4 ADD SWAP2 SWAP1 PUSH0 JUMPDEST DUP2 DUP2 LT PUSH2 0xC3D JUMPI POP POP POP SUB SWAP1 RETURN JUMPDEST DUP3 MLOAD DUP5 MSTORE DUP6 SWAP5 POP PUSH1 0x20 SWAP4 DUP5 ADD SWAP4 SWAP1 SWAP3 ADD SWAP2 PUSH1 0x1 ADD PUSH2 0xC2F JUMP JUMPDEST PUSH1 0x40 MLOAD PUSH3 0x461BCD PUSH1 0xE5 SHL DUP2 MSTORE PUSH1 0x20 PUSH1 0x4 DUP3 ADD MSTORE PUSH1 0x29 PUSH1 0x24 DUP3 ADD MSTORE PUSH32 0x455243313135353A206163636F756E747320616E6420696473206C656E677468 PUSH1 0x44 DUP3 ADD MSTORE PUSH9 0x40DAD2E6DAC2E8C6D PUSH1 0xBB SHL PUSH1 0x64 DUP3 ADD MSTORE PUSH1 0x84 SWAP1 REVERT JUMPDEST DUP3 CALLDATALOAD PUSH1 0x1 PUSH1 0x1 PUSH1 0xA0 SHL SUB DUP2 AND DUP2 SUB PUSH2 0x59C JUMPI DUP2 MSTORE PUSH1 0x20 SWAP3 DUP4 ADD SWAP3 ADD PUSH2 0xB65 JUMP JUMPDEST CALLVALUE PUSH2 0x59C JUMPI PUSH1 0x20 CALLDATASIZE PUSH1 0x3 NOT ADD SLT PUSH2 0x59C JUMPI PUSH2 0xCE6 PUSH2 0xE61 JUMP JUMPDEST PUSH2 0xCEE PUSH2 0x1289 JUMP JUMPDEST PUSH1 0x4 DUP1 SLOAD PUSH1 0x1 PUSH1 0x1 PUSH1 0xA0 SHL SUB NOT AND PUSH1 0x1 PUSH1 0x1 PUSH1 0xA0 SHL SUB SWAP3 SWAP1 SWAP3 AND SWAP2 SWAP1 SWAP2 OR SWAP1 SSTORE STOP JUMPDEST CALLVALUE PUSH2 0x59C JUMPI PUSH1 0xA0 CALLDATASIZE PUSH1 0x3 NOT ADD SLT PUSH2 0x59C JUMPI PUSH2 0xD29 PUSH2 0xE61 JUMP JUMPDEST POP PUSH2 0xD32 PUSH2 0xE77 JUMP JUMPDEST POP PUSH1 0x44 CALLDATALOAD PUSH8 0xFFFFFFFFFFFFFFFF DUP2 GT PUSH2 0x59C JUMPI PUSH2 0xD53 SWAP1 CALLDATASIZE SWAP1 PUSH1 0x4 ADD PUSH2 0xF07 JUMP JUMPDEST POP PUSH1 0x64 CALLDATALOAD PUSH8 0xFFFFFFFFFFFFFFFF DUP2 GT PUSH2 0x59C JUMPI PUSH2 0x74C SWAP1 CALLDATASIZE SWAP1 PUSH1 0x4 ADD PUSH2 0xF07 JUMP JUMPDEST CALLVALUE PUSH2 0x59C JUMPI PUSH0 CALLDATASIZE PUSH1 0x3 NOT ADD SLT PUSH2 0x59C JUMPI PUSH1 0x20 PUSH1 0x5 SLOAD PUSH1 0x40 MLOAD SWAP1 DUP2 MSTORE RETURN JUMPDEST CALLVALUE PUSH2 0x59C JUMPI PUSH1 0x20 CALLDATASIZE PUSH1 0x3 NOT ADD SLT PUSH2 0x59C JUMPI PUSH2 0x89A PUSH2 0xDB0 PUSH1 0x4 CALLDATALOAD PUSH2 0x113F JUMP JUMPDEST PUSH1 0x40 MLOAD SWAP2 DUP3 SWAP2 PUSH1 0x20 DUP4 MSTORE PUSH1 0x20 DUP4 ADD SWAP1 PUSH2 0xE8D JUMP JUMPDEST CALLVALUE PUSH2 0x59C JUMPI PUSH1 0x20 CALLDATASIZE PUSH1 0x3 NOT ADD SLT PUSH2 0x59C JUMPI PUSH1 0x4 CALLDATALOAD PUSH4 0xFFFFFFFF PUSH1 0xE0 SHL DUP2 AND DUP1 SWAP2 SUB PUSH2 0x59C JUMPI PUSH1 0x20 SWAP1 PUSH4 0x6CDB3D13 PUSH1 0xE1 SHL DUP2 EQ SWAP1 DUP2 ISZERO PUSH2 0xE21 JUMPI JUMPDEST DUP2 ISZERO PUSH2 0xE10 JUMPI JUMPDEST POP PUSH1 0x40 MLOAD SWAP1 ISZERO ISZERO DUP2 MSTORE RETURN JUMPDEST PUSH4 0x1FFC9A7 PUSH1 0xE0 SHL EQ SWAP1 POP DUP3 PUSH2 0xE05 JUMP JUMPDEST PUSH4 0x3A24D07 PUSH1 0xE2 SHL DUP2 EQ SWAP2 POP PUSH2 0xDFE JUMP JUMPDEST CALLVALUE PUSH2 0x59C JUMPI PUSH1 0x40 CALLDATASIZE PUSH1 0x3 NOT ADD SLT PUSH2 0x59C JUMPI PUSH1 0x20 PUSH2 0xE59 PUSH2 0xE50 PUSH2 0xE61 JUMP JUMPDEST PUSH1 0x24 CALLDATALOAD SWAP1 PUSH2 0x10AB JUMP JUMPDEST PUSH1 0x40 MLOAD SWAP1 DUP2 MSTORE RETURN JUMPDEST PUSH1 0x4 CALLDATALOAD SWAP1 PUSH1 0x1 PUSH1 0x1 PUSH1 0xA0 SHL SUB DUP3 AND DUP3 SUB PUSH2 0x59C JUMPI JUMP JUMPDEST PUSH1 0x24 CALLDATALOAD SWAP1 PUSH1 0x1 PUSH1 0x1 PUSH1 0xA0 SHL SUB DUP3 AND DUP3 SUB PUSH2 0x59C JUMPI JUMP JUMPDEST DUP1 MLOAD DUP1 DUP4 MSTORE PUSH1 0x20 SWAP3 SWAP2 DUP2 SWAP1 DUP5 ADD DUP5 DUP5 ADD MCOPY PUSH0 DUP3 DUP3 ADD DUP5 ADD MSTORE PUSH1 0x1F ADD PUSH1 0x1F NOT AND ADD ADD SWAP1 JUMP JUMPDEST PUSH1 0x60 DUP2 ADD SWAP1 DUP2 LT PUSH8 0xFFFFFFFFFFFFFFFF DUP3 GT OR PUSH2 0x3B4 JUMPI PUSH1 0x40 MSTORE JUMP JUMPDEST SWAP1 PUSH1 0x1F DUP1 NOT SWAP2 ADD AND DUP2 ADD SWAP1 DUP2 LT PUSH8 0xFFFFFFFFFFFFFFFF DUP3 GT OR PUSH2 0x3B4 JUMPI PUSH1 0x40 MSTORE JUMP JUMPDEST PUSH8 0xFFFFFFFFFFFFFFFF DUP2 GT PUSH2 0x3B4 JUMPI PUSH1 0x5 SHL PUSH1 0x20 ADD SWAP1 JUMP JUMPDEST SWAP1 DUP1 PUSH1 0x1F DUP4 ADD SLT ISZERO PUSH2 0x59C JUMPI DUP2 CALLDATALOAD PUSH2 0xF1E DUP2 PUSH2 0xEEF JUMP JUMPDEST SWAP3 PUSH2 0xF2C PUSH1 0x40 MLOAD SWAP5 DUP6 PUSH2 0xECD JUMP JUMPDEST DUP2 DUP5 MSTORE PUSH1 0x20 DUP1 DUP6 ADD SWAP3 PUSH1 0x5 SHL DUP3 ADD ADD SWAP3 DUP4 GT PUSH2 0x59C JUMPI PUSH1 0x20 ADD SWAP1 JUMPDEST DUP3 DUP3 LT PUSH2 0xF54 JUMPI POP POP POP SWAP1 JUMP JUMPDEST DUP2 CALLDATALOAD DUP2 MSTORE PUSH1 0x20 SWAP2 DUP3 ADD SWAP2 ADD PUSH2 0xF47 JUMP JUMPDEST PUSH8 0xFFFFFFFFFFFFFFFF DUP2 GT PUSH2 0x3B4 JUMPI PUSH1 0x1F ADD PUSH1 0x1F NOT AND PUSH1 0x20 ADD SWAP1 JUMP JUMPDEST DUP2 PUSH1 0x1F DUP3 ADD SLT ISZERO PUSH2 0x59C JUMPI DUP1 CALLDATALOAD SWAP1 PUSH2 0xF97 DUP3 PUSH2 0xF64 JUMP JUMPDEST SWAP3 PUSH2 0xFA5 PUSH1 0x40 MLOAD SWAP5 DUP6 PUSH2 0xECD JUMP JUMPDEST DUP3 DUP5 MSTORE PUSH1 0x20 DUP4 DUP4 ADD ADD GT PUSH2 0x59C JUMPI DUP2 PUSH0 SWAP3 PUSH1 0x20 DUP1 SWAP4 ADD DUP4 DUP7 ADD CALLDATACOPY DUP4 ADD ADD MSTORE SWAP1 JUMP JUMPDEST SWAP1 PUSH1 0x6 DUP3 LT ISZERO PUSH2 0x3C8 JUMPI MSTORE JUMP JUMPDEST SWAP1 PUSH1 0x1 DUP3 DUP2 SHR SWAP3 AND DUP1 ISZERO PUSH2 0x1001 JUMPI JUMPDEST PUSH1 0x20 DUP4 LT EQ PUSH2 0xFED JUMPI JUMP JUMPDEST PUSH4 0x4E487B71 PUSH1 0xE0 SHL PUSH0 MSTORE PUSH1 0x22 PUSH1 0x4 MSTORE PUSH1 0x24 PUSH0 REVERT JUMPDEST SWAP2 PUSH1 0x7F AND SWAP2 PUSH2 0xFE2 JUMP JUMPDEST SWAP1 PUSH1 0x40 MLOAD SWAP2 DUP3 PUSH0 DUP3 SLOAD SWAP3 PUSH2 0x101E DUP5 PUSH2 0xFD3 JUMP JUMPDEST DUP1 DUP5 MSTORE SWAP4 PUSH1 0x1 DUP2 AND SWAP1 DUP2 ISZERO PUSH2 0x1089 JUMPI POP PUSH1 0x1 EQ PUSH2 0x1045 JUMPI JUMPDEST POP PUSH2 0x1043 SWAP3 POP SUB DUP4 PUSH2 0xECD JUMP JUMPDEST JUMP JUMPDEST SWAP1 POP PUSH0 SWAP3 SWAP2 SWAP3 MSTORE PUSH1 0x20 PUSH0 KECCAK256 SWAP1 PUSH0 SWAP2 JUMPDEST DUP2 DUP4 LT PUSH2 0x106D JUMPI POP POP SWAP1 PUSH1 0x20 PUSH2 0x1043 SWAP3 DUP3 ADD ADD PUSH0 PUSH2 0x1036 JUMP JUMPDEST PUSH1 0x20 SWAP2 SWAP4 POP DUP1 PUSH1 0x1 SWAP2 SLOAD DUP4 DUP6 DUP10 ADD ADD MSTORE ADD SWAP2 ADD SWAP1 SWAP2 DUP5 SWAP3 PUSH2 0x1054 JUMP JUMPDEST SWAP1 POP PUSH1 0x20 SWAP3 POP PUSH2 0x1043 SWAP5 SWAP2 POP PUSH1 0xFF NOT AND DUP3 DUP5 ADD MSTORE ISZERO ISZERO PUSH1 0x5 SHL DUP3 ADD ADD PUSH0 PUSH2 0x1036 JUMP JUMPDEST SWAP1 PUSH1 0x1 PUSH1 0x1 PUSH1 0xA0 SHL SUB DUP3 AND ISZERO PUSH2 0x10DB JUMPI PUSH0 MSTORE PUSH0 PUSH1 0x20 MSTORE PUSH1 0x40 PUSH0 KECCAK256 SWAP1 PUSH1 0x1 DUP1 PUSH1 0xA0 SHL SUB AND PUSH0 MSTORE PUSH1 0x20 MSTORE PUSH1 0x40 PUSH0 KECCAK256 SLOAD SWAP1 JUMP JUMPDEST PUSH1 0x40 MLOAD PUSH3 0x461BCD PUSH1 0xE5 SHL DUP2 MSTORE PUSH1 0x20 PUSH1 0x4 DUP3 ADD MSTORE PUSH1 0x2A PUSH1 0x24 DUP3 ADD MSTORE PUSH32 0x455243313135353A2061646472657373207A65726F206973206E6F7420612076 PUSH1 0x44 DUP3 ADD MSTORE PUSH10 0x30B634B21037BBB732B9 PUSH1 0xB1 SHL PUSH1 0x64 DUP3 ADD MSTORE PUSH1 0x84 SWAP1 REVERT JUMPDEST PUSH1 0x6 DUP3 LT ISZERO PUSH2 0x3C8 JUMPI MSTORE JUMP JUMPDEST PUSH0 MSTORE PUSH1 0x6 PUSH1 0x20 MSTORE PUSH1 0xFF PUSH1 0x40 PUSH0 KECCAK256 PUSH1 0x40 MLOAD PUSH2 0x1158 DUP2 PUSH2 0xEB1 JUMP JUMPDEST PUSH1 0x40 PUSH2 0x1180 PUSH1 0x1 DUP5 SLOAD SWAP5 PUSH2 0x116E DUP8 DUP8 AND DUP7 PUSH2 0x1133 JUMP JUMPDEST DUP7 PUSH1 0x20 DUP7 ADD SWAP7 PUSH1 0x8 SHR AND DUP7 MSTORE ADD PUSH2 0x100B JUMP JUMPDEST SWAP2 ADD MSTORE MLOAD AND ISZERO PUSH2 0x1240 JUMPI PUSH1 0x40 MLOAD PUSH1 0x2 SLOAD DUP2 PUSH0 PUSH2 0x119B DUP4 PUSH2 0xFD3 JUMP JUMPDEST DUP1 DUP4 MSTORE SWAP3 PUSH1 0x1 DUP2 AND SWAP1 DUP2 ISZERO PUSH2 0x1221 JUMPI POP PUSH1 0x1 EQ PUSH2 0x11C2 JUMPI JUMPDEST PUSH2 0x11BF SWAP3 POP SUB DUP3 PUSH2 0xECD JUMP JUMPDEST SWAP1 JUMP JUMPDEST POP PUSH1 0x2 PUSH0 SWAP1 DUP2 MSTORE SWAP1 SWAP2 PUSH32 0x405787FA12A823E0F2B7631CC41B3BA8828B3321CA811111FA75CD3AA3BB5ACE JUMPDEST DUP2 DUP4 LT PUSH2 0x1205 JUMPI POP POP SWAP1 PUSH1 0x20 PUSH2 0x11BF SWAP3 DUP3 ADD ADD PUSH2 0x11B3 JUMP JUMPDEST PUSH1 0x20 SWAP2 SWAP4 POP DUP1 PUSH1 0x1 SWAP2 SLOAD DUP4 DUP6 DUP9 ADD ADD MSTORE ADD SWAP2 ADD SWAP1 SWAP2 DUP4 SWAP3 PUSH2 0x11ED JUMP JUMPDEST PUSH1 0x20 SWAP3 POP PUSH2 0x11BF SWAP5 SWAP2 POP PUSH1 0xFF NOT AND DUP3 DUP5 ADD MSTORE ISZERO ISZERO PUSH1 0x5 SHL DUP3 ADD ADD PUSH2 0x11B3 JUMP JUMPDEST PUSH1 0x40 MLOAD PUSH2 0x124E PUSH1 0x20 DUP3 PUSH2 0xECD JUMP JUMPDEST PUSH0 DUP2 MSTORE SWAP1 JUMP JUMPDEST DUP1 MLOAD ISZERO PUSH2 0x1261 JUMPI PUSH1 0x20 ADD SWAP1 JUMP JUMPDEST PUSH4 0x4E487B71 PUSH1 0xE0 SHL PUSH0 MSTORE PUSH1 0x32 PUSH1 0x4 MSTORE PUSH1 0x24 PUSH0 REVERT JUMPDEST DUP1 MLOAD DUP3 LT ISZERO PUSH2 0x1261 JUMPI PUSH1 0x20 SWAP2 PUSH1 0x5 SHL ADD ADD SWAP1 JUMP JUMPDEST PUSH1 0x3 SLOAD PUSH1 0x1 PUSH1 0x1 PUSH1 0xA0 SHL SUB AND CALLER SUB PUSH2 0x129D JUMPI JUMP JUMPDEST PUSH1 0x64 PUSH1 0x40 MLOAD PUSH3 0x461BCD PUSH1 0xE5 SHL DUP2 MSTORE PUSH1 0x20 PUSH1 0x4 DUP3 ADD MSTORE PUSH1 0x20 PUSH1 0x24 DUP3 ADD MSTORE PUSH32 0x4F776E61626C653A2063616C6C6572206973206E6F7420746865206F776E6572 PUSH1 0x44 DUP3 ADD MSTORE REVERT JUMPDEST SWAP1 PUSH1 0x6 DUP3 LT ISZERO PUSH2 0x3C8 JUMPI DUP2 PUSH1 0x20 SWAP3 ISZERO PUSH2 0x1491 JUMPI PUSH1 0x1 DUP2 EQ PUSH2 0x1444 JUMPI PUSH1 0x2 DUP2 EQ PUSH2 0x13F7 JUMPI PUSH1 0x3 DUP2 EQ PUSH2 0x13AC JUMPI PUSH1 0x4 EQ PUSH2 0x135E JUMPI PUSH1 0x2C PUSH2 0x1324 PUSH1 0xFF PUSH2 0x11BF SWAP4 AND PUSH2 0x14E1 JUMP JUMPDEST PUSH1 0x40 MLOAD SWAP4 DUP5 SWAP2 PUSH12 0x4C617374205374616E64202B PUSH1 0xA0 SHL DUP3 DUP5 ADD MSTORE DUP1 MLOAD SWAP2 DUP3 SWAP2 ADD DUP5 DUP5 ADD MCOPY DUP2 ADD PUSH0 DUP4 DUP3 ADD MSTORE SUB ADD PUSH1 0x1F NOT DUP2 ADD DUP4 MSTORE DUP3 PUSH2 0xECD JUMP JUMPDEST PUSH1 0x2F PUSH2 0x136F PUSH1 0xFF PUSH2 0x11BF SWAP4 AND PUSH2 0x14E1 JUMP JUMPDEST PUSH1 0x40 MLOAD SWAP4 DUP5 SWAP2 PUSH15 0x466C7578204F7665726C6F6164202B PUSH1 0x88 SHL DUP3 DUP5 ADD MSTORE DUP1 MLOAD SWAP2 DUP3 SWAP2 ADD DUP5 DUP5 ADD MCOPY DUP2 ADD PUSH0 DUP4 DUP3 ADD MSTORE SUB ADD PUSH1 0x1F NOT DUP2 ADD DUP4 MSTORE DUP3 PUSH2 0xECD JUMP JUMPDEST POP PUSH1 0x2B PUSH2 0x13BE PUSH1 0xFF PUSH2 0x11BF SWAP4 AND PUSH2 0x14E1 JUMP JUMPDEST PUSH1 0x40 MLOAD SWAP4 DUP5 SWAP2 PUSH11 0x4563686F20436F7265202B PUSH1 0xA8 SHL DUP3 DUP5 ADD MSTORE DUP1 MLOAD SWAP2 DUP3 SWAP2 ADD DUP5 DUP5 ADD MCOPY DUP2 ADD PUSH0 DUP4 DUP3 ADD MSTORE SUB ADD PUSH1 0x1F NOT DUP2 ADD DUP4 MSTORE DUP3 PUSH2 0xECD JUMP JUMPDEST POP PUSH1 0x2D PUSH2 0x1409 PUSH1 0xFF PUSH2 0x11BF SWAP4 AND PUSH2 0x14E1 JUMP JUMPDEST PUSH1 0x40 MLOAD SWAP4 DUP5 SWAP2 PUSH13 0x4E6562756C612044617368202B PUSH1 0x98 SHL DUP3 DUP5 ADD MSTORE DUP1 MLOAD SWAP2 DUP3 SWAP2 ADD DUP5 DUP5 ADD MCOPY DUP2 ADD PUSH0 DUP4 DUP3 ADD MSTORE SUB ADD PUSH1 0x1F NOT DUP2 ADD DUP4 MSTORE DUP3 PUSH2 0xECD JUMP JUMPDEST POP PUSH1 0x2D PUSH2 0x1456 PUSH1 0xFF PUSH2 0x11BF SWAP4 AND PUSH2 0x14E1 JUMP JUMPDEST PUSH1 0x40 MLOAD SWAP4 DUP5 SWAP2 PUSH13 0x566F696420536869656C64202B PUSH1 0x98 SHL DUP3 DUP5 ADD MSTORE DUP1 MLOAD SWAP2 DUP3 SWAP2 ADD DUP5 DUP5 ADD MCOPY DUP2 ADD PUSH0 DUP4 DUP3 ADD MSTORE SUB ADD PUSH1 0x1F NOT DUP2 ADD DUP4 MSTORE DUP3 PUSH2 0xECD JUMP JUMPDEST POP PUSH1 0x30 PUSH2 0x14A3 PUSH1 0xFF PUSH2 0x11BF SWAP4 AND PUSH2 0x14E1 JUMP JUMPDEST PUSH1 0x40 MLOAD SWAP4 DUP5 SWAP2 PUSH16 0x5175616E74756D20537472696B65202B PUSH1 0x80 SHL DUP3 DUP5 ADD MSTORE DUP1 MLOAD SWAP2 DUP3 SWAP2 ADD DUP5 DUP5 ADD MCOPY DUP2 ADD PUSH0 DUP4 DUP3 ADD MSTORE SUB ADD PUSH1 0x1F NOT DUP2 ADD DUP4 MSTORE DUP3 PUSH2 0xECD JUMP JUMPDEST DUP1 PUSH0 SWAP2 PUSH19 0x184F03E93FF9F4DAA797ED6E38ED64BF6A1F01 PUSH1 0x40 SHL DUP3 LT ISZERO PUSH2 0x162B JUMPI JUMPDEST DUP1 PUSH14 0x4EE2D6D415B85ACEF8100000000 PUSH1 0xA SWAP3 LT ISZERO PUSH2 0x1610 JUMPI JUMPDEST PUSH7 0x2386F26FC10000 DUP2 LT ISZERO PUSH2 0x15FC JUMPI JUMPDEST PUSH4 0x5F5E100 DUP2 LT ISZERO PUSH2 0x15EB JUMPI JUMPDEST PUSH2 0x2710 DUP2 LT ISZERO PUSH2 0x15DC JUMPI JUMPDEST PUSH1 0x64 DUP2 LT ISZERO PUSH2 0x15CE JUMPI JUMPDEST LT ISZERO PUSH2 0x15C3 JUMPI JUMPDEST PUSH1 0xA PUSH1 0x21 PUSH1 0x1 DUP5 ADD SWAP4 PUSH2 0x1568 DUP6 PUSH2 0xF64 JUMP JUMPDEST SWAP5 PUSH2 0x1576 PUSH1 0x40 MLOAD SWAP7 DUP8 PUSH2 0xECD JUMP JUMPDEST DUP1 DUP7 MSTORE PUSH2 0x1585 PUSH1 0x1F NOT SWAP2 PUSH2 0xF64 JUMP JUMPDEST ADD CALLDATASIZE PUSH1 0x20 DUP8 ADD CALLDATACOPY DUP5 ADD ADD JUMPDEST PUSH0 NOT ADD SWAP2 PUSH16 0x181899199A1A9B1B9C1CB0B131B232B3 PUSH1 0x81 SHL DUP3 DUP3 MOD BYTE DUP4 MSTORE8 DIV DUP1 ISZERO PUSH2 0x15BE JUMPI PUSH1 0xA SWAP1 SWAP2 PUSH2 0x1590 JUMP JUMPDEST POP POP SWAP1 JUMP JUMPDEST PUSH1 0x1 SWAP1 SWAP2 ADD SWAP1 PUSH2 0x1556 JUMP JUMPDEST PUSH1 0x64 PUSH1 0x2 SWAP2 DIV SWAP4 ADD SWAP3 PUSH2 0x154F JUMP JUMPDEST PUSH2 0x2710 PUSH1 0x4 SWAP2 DIV SWAP4 ADD SWAP3 PUSH2 0x1545 JUMP JUMPDEST PUSH4 0x5F5E100 PUSH1 0x8 SWAP2 DIV SWAP4 ADD SWAP3 PUSH2 0x153A JUMP JUMPDEST PUSH7 0x2386F26FC10000 PUSH1 0x10 SWAP2 DIV SWAP4 ADD SWAP3 PUSH2 0x152D JUMP JUMPDEST PUSH14 0x4EE2D6D415B85ACEF8100000000 PUSH1 0x20 SWAP2 DIV SWAP4 ADD SWAP3 PUSH2 0x151D JUMP JUMPDEST POP PUSH1 0x40 SWAP2 POP PUSH19 0x184F03E93FF9F4DAA797ED6E38ED64BF6A1F01 PUSH1 0x40 SHL DUP2 DIV PUSH2 0x1503 JUMP JUMPDEST PUSH1 0x40 MLOAD PUSH2 0x165C PUSH1 0x40 DUP3 PUSH2 0xECD JUMP JUMPDEST PUSH1 0x1 DUP2 MSTORE PUSH1 0x20 CALLDATASIZE DUP2 DUP4 ADD CALLDATACOPY PUSH1 0x1 PUSH2 0x1672 DUP3 PUSH2 0x1254 JUMP JUMPDEST MSTORE SWAP1 JUMP JUMPDEST PUSH1 0x40 MLOAD SWAP1 PUSH2 0x1685 PUSH1 0x40 DUP4 PUSH2 0xECD JUMP JUMPDEST PUSH1 0x1 DUP3 MSTORE PUSH1 0x20 CALLDATASIZE DUP2 DUP5 ADD CALLDATACOPY PUSH2 0x1672 DUP3 PUSH2 0x1254 JUMP JUMPDEST PUSH0 PUSH1 0x44 RETURNDATASIZE LT PUSH2 0x11BF JUMPI PUSH1 0x40 MLOAD RETURNDATASIZE PUSH1 0x3 NOT ADD PUSH1 0x4 DUP3 RETURNDATACOPY DUP1 MLOAD SWAP2 RETURNDATASIZE PUSH1 0x24 DUP5 ADD GT PUSH8 0xFFFFFFFFFFFFFFFF DUP5 GT OR PUSH2 0x1707 JUMPI DUP3 DUP3 ADD SWAP3 DUP4 MLOAD SWAP2 PUSH8 0xFFFFFFFFFFFFFFFF DUP4 GT PUSH2 0x16FF JUMPI RETURNDATASIZE DUP5 ADD PUSH1 0x3 NOT ADD DUP6 DUP5 ADD PUSH1 0x20 ADD GT PUSH2 0x16FF JUMPI POP PUSH2 0x11BF SWAP3 SWAP2 ADD PUSH1 0x20 ADD SWAP1 PUSH2 0xECD JUMP JUMPDEST SWAP5 SWAP4 POP POP POP POP JUMP JUMPDEST SWAP3 SWAP2 POP POP JUMP INVALID LOG2 PUSH5 0x6970667358 0x22 SLT KECCAK256 AND NUMBER 0xCA 0xE RJUMP 0x6B31 TLOAD PUSH21 0x354E5190EA6C7007E28FFE2399CCC35E247C80FC8B PUSH28 0xF964736F6C634300081E003300000000000000000000000000000000 "
				},
				"gasEstimates": {
					"creation": {
						"codeDepositCost": "1191000",
						"executionCost": "infinite",
						"totalCost": "infinite"
					},
					"external": {
						"balanceOf(address,uint256)": "2534",
						"balanceOfBatch(address[],uint256[])": "infinite",
						"gameContract()": "2536",
						"getRelic(uint256)": "infinite",
						"isApprovedForAll(address,address)": "2851",
						"mintRelic(address,uint8,uint8)": "infinite",
						"owner()": "2470",
						"relics(uint256)": "infinite",
						"renounceOwnership()": "28228",
						"safeBatchTransferFrom(address,address,uint256[],uint256[],bytes)": "infinite",
						"safeTransferFrom(address,address,uint256,uint256,bytes)": "infinite",
						"setApprovalForAll(address,bool)": "26636",
						"setGameContract(address)": "26737",
						"supportsInterface(bytes4)": "344",
						"totalSupply()": "2314",
						"transferOwnership(address)": "28493",
						"uri(uint256)": "infinite"
					},
					"internal": {
						"_generateRelicName(enum StarForgeRelic.RelicType,uint8)": "infinite"
					}
				},
				"methodIdentifiers": {
					"balanceOf(address,uint256)": "00fdd58e",
					"balanceOfBatch(address[],uint256[])": "4e1273f4",
					"gameContract()": "d3f33009",
					"getRelic(uint256)": "68972d59",
					"isApprovedForAll(address,address)": "e985e9c5",
					"mintRelic(address,uint8,uint8)": "f925b741",
					"owner()": "8da5cb5b",
					"relics(uint256)": "b496da8b",
					"renounceOwnership()": "715018a6",
					"safeBatchTransferFrom(address,address,uint256[],uint256[],bytes)": "2eb2c2d6",
					"safeTransferFrom(address,address,uint256,uint256,bytes)": "f242432a",
					"setApprovalForAll(address,bool)": "a22cb465",
					"setGameContract(address)": "405ebd4d",
					"supportsInterface(bytes4)": "01ffc9a7",
					"totalSupply()": "18160ddd",
					"transferOwnership(address)": "f2fde38b",
					"uri(uint256)": "0e89341c"
				}
			},
			"storageLayout": {
				"storage": [
					{
						"astId": 138,
						"contract": "StarForgeRelic.sol:StarForgeRelic",
						"label": "_balances",
						"offset": 0,
						"slot": "0",
						"type": "t_mapping(t_uint256,t_mapping(t_address,t_uint256))"
					},
					{
						"astId": 144,
						"contract": "StarForgeRelic.sol:StarForgeRelic",
						"label": "_operatorApprovals",
						"offset": 0,
						"slot": "1",
						"type": "t_mapping(t_address,t_mapping(t_address,t_bool))"
					},
					{
						"astId": 146,
						"contract": "StarForgeRelic.sol:StarForgeRelic",
						"label": "_uri",
						"offset": 0,
						"slot": "2",
						"type": "t_string_storage"
					},
					{
						"astId": 7,
						"contract": "StarForgeRelic.sol:StarForgeRelic",
						"label": "_owner",
						"offset": 0,
						"slot": "3",
						"type": "t_address"
					},
					{
						"astId": 3115,
						"contract": "StarForgeRelic.sol:StarForgeRelic",
						"label": "gameContract",
						"offset": 0,
						"slot": "4",
						"type": "t_address"
					},
					{
						"astId": 3117,
						"contract": "StarForgeRelic.sol:StarForgeRelic",
						"label": "_nextRelicId",
						"offset": 0,
						"slot": "5",
						"type": "t_uint256"
					},
					{
						"astId": 3137,
						"contract": "StarForgeRelic.sol:StarForgeRelic",
						"label": "relics",
						"offset": 0,
						"slot": "6",
						"type": "t_mapping(t_uint256,t_struct(RelicData)3125_storage)"
					}
				],
				"types": {
					"t_address": {
						"encoding": "inplace",
						"label": "address",
						"numberOfBytes": "20"
					},
					"t_bool": {
						"encoding": "inplace",
						"label": "bool",
						"numberOfBytes": "1"
					},
					"t_enum(RelicType)3132": {
						"encoding": "inplace",
						"label": "enum StarForgeRelic.RelicType",
						"numberOfBytes": "1"
					},
					"t_mapping(t_address,t_bool)": {
						"encoding": "mapping",
						"key": "t_address",
						"label": "mapping(address => bool)",
						"numberOfBytes": "32",
						"value": "t_bool"
					},
					"t_mapping(t_address,t_mapping(t_address,t_bool))": {
						"encoding": "mapping",
						"key": "t_address",
						"label": "mapping(address => mapping(address => bool))",
						"numberOfBytes": "32",
						"value": "t_mapping(t_address,t_bool)"
					},
					"t_mapping(t_address,t_uint256)": {
						"encoding": "mapping",
						"key": "t_address",
						"label": "mapping(address => uint256)",
						"numberOfBytes": "32",
						"value": "t_uint256"
					},
					"t_mapping(t_uint256,t_mapping(t_address,t_uint256))": {
						"encoding": "mapping",
						"key": "t_uint256",
						"label": "mapping(uint256 => mapping(address => uint256))",
						"numberOfBytes": "32",
						"value": "t_mapping(t_address,t_uint256)"
					},
					"t_mapping(t_uint256,t_struct(RelicData)3125_storage)": {
						"encoding": "mapping",
						"key": "t_uint256",
						"label": "mapping(uint256 => struct StarForgeRelic.RelicData)",
						"numberOfBytes": "32",
						"value": "t_struct(RelicData)3125_storage"
					},
					"t_string_storage": {
						"encoding": "bytes",
						"label": "string",
						"numberOfBytes": "32"
					},
					"t_struct(RelicData)3125_storage": {
						"encoding": "inplace",
						"label": "struct StarForgeRelic.RelicData",
						"members": [
							{
								"astId": 3120,
								"contract": "StarForgeRelic.sol:StarForgeRelic",
								"label": "relicType",
								"offset": 0,
								"slot": "0",
								"type": "t_enum(RelicType)3132"
							},
							{
								"astId": 3122,
								"contract": "StarForgeRelic.sol:StarForgeRelic",
								"label": "value",
								"offset": 1,
								"slot": "0",
								"type": "t_uint8"
							},
							{
								"astId": 3124,
								"contract": "StarForgeRelic.sol:StarForgeRelic",
								"label": "name",
								"offset": 0,
								"slot": "1",
								"type": "t_string_storage"
							}
						],
						"numberOfBytes": "64"
					},
					"t_uint256": {
						"encoding": "inplace",
						"label": "uint256",
						"numberOfBytes": "32"
					},
					"t_uint8": {
						"encoding": "inplace",
						"label": "uint8",
						"numberOfBytes": "1"
					}
				}
			},
			"userdoc": {
				"kind": "user",
				"methods": {},
				"version": 1
			}
		}
	}
}