{
	"data": {
		"bytecode": {
			"linkReferences": {},
			"object": "608060405234801561000f575f5ffd5b50604051613e5d380380613e5d8339818101604052810190610031919061026d565b335f73ffffffffffffffffffffffffffffffffffffffff168173ffffffffffffffffffffffffffffffffffffffff16036100a2575f6040517f1e4fbdf700000000000000000000000000000000000000000000000000000000815260040161009991906102a7565b60405180910390fd5b6100b18161011c60201b60201c565b5060016100d06100c56101dd60201b60201c565b61020660201b60201c565b5f01819055508060015f6101000a81548173ffffffffffffffffffffffffffffffffffffffff021916908373ffffffffffffffffffffffffffffffffffffffff160217905550506102c0565b5f5f5f9054906101000a900473ffffffffffffffffffffffffffffffffffffffff169050815f5f6101000a81548173ffffffffffffffffffffffffffffffffffffffff021916908373ffffffffffffffffffffffffffffffffffffffff1602179055508173ffffffffffffffffffffffffffffffffffffffff168173ffffffffffffffffffffffffffffffffffffffff167f8be0079c531659141344cd1fd0a4f28419497f9722a3daafe3b4186f6b6457e060405160405180910390a35050565b5f7f9b779b17422d0df92223018b32b4d1fa46e071723d6817e2486d003becc55f005f1b905090565b5f819050919050565b5f5ffd5b5f73ffffffffffffffffffffffffffffffffffffffff82169050919050565b5f61023c82610213565b9050919050565b61024c81610232565b8114610256575f5ffd5b50565b5f8151905061026781610243565b92915050565b5f602082840312156102825761028161020f565b5b5f61028f84828501610259565b91505092915050565b6102a181610232565b82525050565b5f6020820190506102ba5f830184610298565b92915050565b613b90806102cd5f395ff3fe60806040526004361061011e575f3560e01c80637e5c4f8b1161009f5780639f51758e116100635780639f51758e14610351578063b654823e1461037b578063b92a40ad14610397578063bbe15627146103c1578063f2fde38b146104005761011e565b80637e5c4f8b146102805780637f570e2b146102a85780638456cb59146102d057806384d38fdc146102e65780638da5cb5b146103275761011e565b80634ef2d6c1116100e65780634ef2d6c11461019e5780635c975abb146101da5780636154ee9714610204578063705fe4be14610240578063715018a61461026a5761011e565b8063201738e21461012257806329de58d11461012c5780633ccfd60b146101365780633f4ba83a1461014c57806349c7c24a14610162575b5f5ffd5b61012a610428565b005b610134610811565b005b348015610141575f5ffd5b5061014a6108b4565b005b348015610157575f5ffd5b50610160610909565b005b34801561016d575f5ffd5b50610188600480360381019061018391906128c7565b61091b565b6040516101959190612b1b565b60405180910390f35b3480156101a9575f5ffd5b506101c460048036038101906101bf9190612b68565b610aa7565b6040516101d19190612bb5565b60405180910390f35b3480156101e5575f5ffd5b506101ee610ad2565b6040516101fb9190612be8565b60405180910390f35b34801561020f575f5ffd5b5061022a600480360381019061022591906128c7565b610ae7565b6040516102379190612cb8565b60405180910390f35b34801561024b575f5ffd5b50610254610b7a565b6040516102619190612bb5565b60405180910390f35b348015610275575f5ffd5b5061027e610b85565b005b34801561028b575f5ffd5b506102a660048036038101906102a191906128c7565b610b98565b005b3480156102b3575f5ffd5b506102ce60048036038101906102c99190612d39565b610be3565b005b3480156102db575f5ffd5b506102e46112e2565b005b3480156102f1575f5ffd5b5061030c60048036038101906103079190612b68565b6112f4565b60405161031e96959493929190612dc0565b60405180910390f35b348015610332575f5ffd5b5061033b611383565b6040516103489190612e2e565b60405180910390f35b34801561035c575f5ffd5b506103656113aa565b6040516103729190612bb5565b60405180910390f35b61039560048036038101906103909190612e47565b6113b5565b005b3480156103a2575f5ffd5b506103ab61182d565b6040516103b89190612ecd565b60405180910390f35b3480156103cc575f5ffd5b506103e760048036038101906103e291906128c7565b611852565b6040516103f79493929190612f20565b60405180910390f35b34801561040b575f5ffd5b50610426600480360381019061042191906128c7565b61189a565b005b61043061191e565b61043861195f565b66038d7ea4c680003414610481576040517f08c379a000000000000000000000000000000000000000000000000000000000815260040161047890612fbd565b60405180910390fd5b5f423360015f9054906101000a900473ffffffffffffffffffffffffffffffffffffffff1673ffffffffffffffffffffffffffffffffffffffff166318160ddd6040518163ffffffff1660e01b8152600401602060405180830381865afa1580156104ee573d5f5f3e3d5ffd5b505050506040513d601f19601f820116820180604052508101906105129190612fef565b6040516020016105249392919061307f565b604051602081830303815290604052805190602001205f1c90505f60038261054c91906130e8565b60ff1660028111156105615761056061290f565b5b90505f610570836103e7611981565b90505f6004600885901c61058491906130e8565b60ff1660038111156105995761059861290f565b5b90505f6006601086901c6105ad91906130e8565b60056105b99190613145565b90505f6006601887901c6105cd91906130e8565b60046105d99190613145565b90505f6006602088901c6105ed91906130e8565b60056105f99190613145565b90506001600281111561060f5761060e61290f565b5b8560028111156106225761062161290f565b5b03610659576002836106349190613145565b92506002826106439190613145565b91506001816106529190613145565b90506106b3565b60028081111561066c5761066b61290f565b5b85600281111561067f5761067e61290f565b5b036106b2576004836106919190613145565b92506003826106a09190613145565b91506003816106af9190613145565b90505b5b5f60015f9054906101000a900473ffffffffffffffffffffffffffffffffffffffff1673ffffffffffffffffffffffffffffffffffffffff166371dec088338989898989896040518863ffffffff1660e01b815260040161071a9796959493929190613179565b6020604051808303815f875af1158015610736573d5f5f3e3d5ffd5b505050506040513d601f19601f8201168201806040525081019061075a9190612fef565b905060045f3373ffffffffffffffffffffffffffffffffffffffff1673ffffffffffffffffffffffffffffffffffffffff1681526020019081526020015f2081908060018154018082558091505060019003905f5260205f20015f90919091909150556107c6336119ed565b7fdded256c7e86a19d1be0f3168d1ec8d5cfc9c713c96bdc10defadd014692cf9233826040516107f79291906131e6565b60405180910390a1505050505050505061080f611b50565b565b61081961191e565b61082161195f565b6601c6bf52634000341461086a576040517f08c379a000000000000000000000000000000000000000000000000000000000815260040161086190613257565b60405180910390fd5b61087333611b6a565b7fb1b757afec988e099a59bc127abea15824bf7acc7137103e4197ef22a9afad11336040516108a29190612e2e565b60405180910390a16108b2611b50565b565b6108bc611fb3565b6108c4611383565b73ffffffffffffffffffffffffffffffffffffffff166108fc4790811502906040515f60405180830381858888f19350505050158015610906573d5f5f3e3d5ffd5b50565b610911611fb3565b61091961203a565b565b61092361279e565b60035f8373ffffffffffffffffffffffffffffffffffffffff1673ffffffffffffffffffffffffffffffffffffffff1681526020019081526020015f20600580602002604051908101604052809291905f905b82821015610a9c578382016040518060c00160405290815f82015f9054906101000a900460ff1660028111156109af576109ae61290f565b5b60028111156109c1576109c061290f565b5b81526020015f820160019054906101000a900460ff1660028111156109e9576109e861290f565b5b60028111156109fb576109fa61290f565b5b81526020015f820160029054906101000a900460ff166003811115610a2357610a2261290f565b5b6003811115610a3557610a3461290f565b5b81526020015f820160039054906101000a900460ff1660ff1660ff1681526020015f820160049054906101000a900460ff1660ff1660ff1681526020015f820160059054906101000a900460ff1660ff1660ff168152505081526020019060010190610976565b505050509050919050565b6004602052815f5260405f208181548110610ac0575f80fd5b905f5260205f20015f91509150505481565b5f5f60149054906101000a900460ff16905090565b606060045f8373ffffffffffffffffffffffffffffffffffffffff1673ffffffffffffffffffffffffffffffffffffffff1681526020019081526020015f20805480602002602001604051908101604052809291908181526020018280548015610b6e57602002820191905f5260205f20905b815481526020019060010190808311610b5a575b50505050509050919050565b66038d7ea4c6800081565b610b8d611fb3565b610b965f61209b565b565b610ba0611fb3565b8060015f6101000a81548173ffffffffffffffffffffffffffffffffffffffff021916908373ffffffffffffffffffffffffffffffffffffffff16021790555050565b610beb61191e565b610bf361195f565b60048282905010158015610c0b575060088282905011155b610c4a576040517f08c379a0000000000000000000000000000000000000000000000000000000008152600401610c41906132bf565b60405180910390fd5b5f5f90505b82829050811015610d86573373ffffffffffffffffffffffffffffffffffffffff1660015f9054906101000a900473ffffffffffffffffffffffffffffffffffffffff1673ffffffffffffffffffffffffffffffffffffffff16636352211e858585818110610cc157610cc06132dd565b5b905060200201356040518263ffffffff1660e01b8152600401610ce49190612bb5565b602060405180830381865afa158015610cff573d5f5f3e3d5ffd5b505050506040513d601f19601f82011682018060405250810190610d23919061331e565b73ffffffffffffffffffffffffffffffffffffffff1614610d79576040517f08c379a0000000000000000000000000000000000000000000000000000000008152600401610d7090613393565b60405180910390fd5b8080600101915050610c4f565b505f5f610d93848461215c565b91509150610da433604684116124bd565b5f600367ffffffffffffffff811115610dc057610dbf6133b1565b5b604051908082528060200260200182016040528015610dee5781602001602082028036833780820191505090505b5090505f5f905060015f9054906101000a900473ffffffffffffffffffffffffffffffffffffffff1673ffffffffffffffffffffffffffffffffffffffff166371dec0883360034233604051602001610e489291906133de565b604051602081830303815290604052805190602001205f1c610e6a91906130e8565b60ff166002811115610e7f57610e7e61290f565b5b5f5f60058060066040518863ffffffff1660e01b8152600401610ea8979695949392919061347b565b6020604051808303815f875af1158015610ec4573d5f5f3e3d5ffd5b505050506040513d601f19601f82011682018060405250810190610ee89190612fef565b828280610ef4906134e8565b935081518110610f0757610f066132dd565b5b6020026020010181815250506046841061103e5760015f9054906101000a900473ffffffffffffffffffffffffffffffffffffffff1673ffffffffffffffffffffffffffffffffffffffff166371dec08833600342336001604051602001610f719392919061307f565b604051602081830303815290604052805190602001205f1c610f9391906130e8565b60ff166002811115610fa857610fa761290f565b5b60018060078060076040518863ffffffff1660e01b8152600401610fd29796959493929190613568565b6020604051808303815f875af1158015610fee573d5f5f3e3d5ffd5b505050506040513d601f19601f820116820180604052508101906110129190612fef565b82828061101e906134e8565b935081518110611031576110306132dd565b5b6020026020010181815250505b606484101580611052575060028360ff1610155b1561117a5760015f9054906101000a900473ffffffffffffffffffffffffffffffffffffffff1673ffffffffffffffffffffffffffffffffffffffff166371dec088336003423360026040516020016110ad9392919061307f565b604051602081830303815290604052805190602001205f1c6110cf91906130e8565b60ff1660028111156110e4576110e361290f565b5b60028060098060086040518863ffffffff1660e01b815260040161110e9796959493929190613647565b6020604051808303815f875af115801561112a573d5f5f3e3d5ffd5b505050506040513d601f19601f8201168201806040525081019061114e9190612fef565b82828061115a906134e8565b93508151811061116d5761116c6132dd565b5b6020026020010181815250505b5f8167ffffffffffffffff811115611195576111946133b1565b5b6040519080825280602002602001820160405280156111c35781602001602082028036833780820191505090505b5090505f5f90505b82811015611295578381815181106111e6576111e56132dd565b5b6020026020010151828281518110611201576112006132dd565b5b60200260200101818152505060045f3373ffffffffffffffffffffffffffffffffffffffff1673ffffffffffffffffffffffffffffffffffffffff1681526020019081526020015f2084828151811061125d5761125c6132dd565b5b6020026020010151908060018154018082558091505060019003905f5260205f20015f909190919091505580806001019150506111cb565b507f463bf1b4b40fc1e2506ab2f4d126dada70253d0e2e328de4ed0cf06b913522623386836040516112c9939291906136b4565b60405180910390a150505050506112de611b50565b5050565b6112ea611fb3565b6112f2612666565b565b6003602052815f5260405f20816005811061130d575f80fd5b015f9150915050805f015f9054906101000a900460ff1690805f0160019054906101000a900460ff1690805f0160029054906101000a900460ff1690805f0160039054906101000a900460ff1690805f0160049054906101000a900460ff1690805f0160059054906101000a900460ff16905086565b5f5f5f9054906101000a900473ffffffffffffffffffffffffffffffffffffffff16905090565b6601c6bf5263400081565b6113bd61191e565b6113c561195f565b66038d7ea4c68000341461140e576040517f08c379a000000000000000000000000000000000000000000000000000000000815260040161140590612fbd565b60405180910390fd5b60058110611451576040517f08c379a00000000000000000000000000000000000000000000000000000000081526004016114489061373a565b60405180910390fd5b5f60035f3373ffffffffffffffffffffffffffffffffffffffff1673ffffffffffffffffffffffffffffffffffffffff1681526020019081526020015f2082600581106114a1576114a06132dd565b5b016040518060c00160405290815f82015f9054906101000a900460ff1660028111156114d0576114cf61290f565b5b60028111156114e2576114e161290f565b5b81526020015f820160019054906101000a900460ff16600281111561150a5761150961290f565b5b600281111561151c5761151b61290f565b5b81526020015f820160029054906101000a900460ff1660038111156115445761154361290f565b5b60038111156115565761155561290f565b5b81526020015f820160039054906101000a900460ff1660ff1660ff1681526020015f820160049054906101000a900460ff1660ff1660ff1681526020015f820160059054906101000a900460ff1660ff1660ff168152505090505f816060015160ff16116115f9576040517f08c379a00000000000000000000000000000000000000000000000000000000081526004016115f0906137a2565b60405180910390fd5b5f60015f9054906101000a900473ffffffffffffffffffffffffffffffffffffffff1673ffffffffffffffffffffffffffffffffffffffff166371dec08833845f015185602001518660400151876060015188608001518960a001516040518863ffffffff1660e01b81526004016116779796959493929190613179565b6020604051808303815f875af1158015611693573d5f5f3e3d5ffd5b505050506040513d601f19601f820116820180604052508101906116b79190612fef565b905060045f3373ffffffffffffffffffffffffffffffffffffffff1673ffffffffffffffffffffffffffffffffffffffff1681526020019081526020015f2081908060018154018082558091505060019003905f5260205f20015f909190919091505560035f3373ffffffffffffffffffffffffffffffffffffffff1673ffffffffffffffffffffffffffffffffffffffff1681526020019081526020015f208360058110611769576117686132dd565b5b015f5f82015f6101000a81549060ff02191690555f820160016101000a81549060ff02191690555f820160026101000a81549060ff02191690555f820160036101000a81549060ff02191690555f820160046101000a81549060ff02191690555f820160056101000a81549060ff021916905550506117e7336119ed565b7fdded256c7e86a19d1be0f3168d1ec8d5cfc9c713c96bdc10defadd014692cf9233826040516118189291906131e6565b60405180910390a1505061182a611b50565b50565b60015f9054906101000a900473ffffffffffffffffffffffffffffffffffffffff1681565b6002602052805f5260405f205f91509050805f015f9054906101000a900461ffff1690805f0160029054906101000a900463ffffffff16908060010154908060020154905084565b6118a2611fb3565b5f73ffffffffffffffffffffffffffffffffffffffff168173ffffffffffffffffffffffffffffffffffffffff1603611912575f6040517f1e4fbdf70000000000000000000000000000000000000000000000000000000081526004016119099190612e2e565b60405180910390fd5b61191b8161209b565b50565b611926610ad2565b1561195d576040517fd93c066500000000000000000000000000000000000000000000000000000000815260040160405180910390fd5b565b6119676126c8565b6002611979611974612709565b612732565b5f0181905550565b5f5f606484846040516020016119989291906137c0565b604051602081830303815290604052805190602001205f1c6119ba91906130e8565b905060418110156119ce575f9150506119e7565b605a8110156119e15760019150506119e7565b60029150505b92915050565b5f60025f8373ffffffffffffffffffffffffffffffffffffffff1673ffffffffffffffffffffffffffffffffffffffff1681526020019081526020015f2090505f815f015f9054906101000a900461ffff1661ffff1603611a67576001815f015f6101000a81548161ffff021916908361ffff1602179055505b600a815f0160028282829054906101000a900463ffffffff16611a8a91906137eb565b92506101000a81548163ffffffff021916908363ffffffff1602179055506064815f015f9054906101000a900461ffff1661ffff16611ac99190613822565b63ffffffff16815f0160029054906101000a900463ffffffff1663ffffffff1610611b4c57805f015f81819054906101000a900461ffff1680929190611b0e9061385e565b91906101000a81548161ffff021916908361ffff160217905550505f815f0160026101000a81548163ffffffff021916908363ffffffff1602179055505b5050565b6001611b62611b5d612709565b612732565b5f0181905550565b5f428260015f9054906101000a900473ffffffffffffffffffffffffffffffffffffffff1673ffffffffffffffffffffffffffffffffffffffff166318160ddd6040518163ffffffff1660e01b8152600401602060405180830381865afa158015611bd7573d5f5f3e3d5ffd5b505050506040513d601f19601f82011682018060405250810190611bfb9190612fef565b44604051602001611c0f9493929190613887565b604051602081830303815290604052805190602001205f1c90505f5f90505b6005811015611fae575f6003600883611c4791906138d4565b84901c611c5491906130e8565b60ff166002811115611c6957611c6861290f565b5b90505f611c768484611981565b90505f60046008601086611c8a91906138d4565b611c949190613915565b86901c611ca191906130e8565b60ff166003811115611cb657611cb561290f565b5b90505f6005601886611cc891906138d4565b87901c611cd591906130e8565b6004611ce19190613145565b90505f6005602087611cf391906138d4565b88901c611d0091906130e8565b6004611d0c9190613145565b90505f6005602888611d1e91906138d4565b89901c611d2b91906130e8565b6004611d379190613145565b905060016002811115611d4d57611d4c61290f565b5b856002811115611d6057611d5f61290f565b5b03611d9757600283611d729190613145565b9250600182611d819190613145565b9150600181611d909190613145565b9050611df1565b600280811115611daa57611da961290f565b5b856002811115611dbd57611dbc61290f565b5b03611df057600383611dcf9190613145565b9250600382611dde9190613145565b9150600281611ded9190613145565b90505b5b6040518060c00160405280876002811115611e0f57611e0e61290f565b5b8152602001866002811115611e2757611e2661290f565b5b8152602001856003811115611e3f57611e3e61290f565b5b81526020018460ff1681526020018360ff1681526020018260ff1681525060035f8b73ffffffffffffffffffffffffffffffffffffffff1673ffffffffffffffffffffffffffffffffffffffff1681526020019081526020015f208860058110611eac57611eab6132dd565b5b015f820151815f015f6101000a81548160ff02191690836002811115611ed557611ed461290f565b5b02179055506020820151815f0160016101000a81548160ff02191690836002811115611f0457611f0361290f565b5b02179055506040820151815f0160026101000a81548160ff02191690836003811115611f3357611f3261290f565b5b02179055506060820151815f0160036101000a81548160ff021916908360ff1602179055506080820151815f0160046101000a81548160ff021916908360ff16021790555060a0820151815f0160056101000a81548160ff021916908360ff1602179055509050505050505050508080600101915050611c2e565b505050565b611fbb61273b565b73ffffffffffffffffffffffffffffffffffffffff16611fd9611383565b73ffffffffffffffffffffffffffffffffffffffff161461203857611ffc61273b565b6040517f118cdaa700000000000000000000000000000000000000000000000000000000815260040161202f9190612e2e565b60405180910390fd5b565b612042612742565b5f5f60146101000a81548160ff0219169083151502179055507f5db9ee0a495bf2e6ff9c91a7834c1ba4fdd244a5e8aa4e537bd38aeae4b073aa61208461273b565b6040516120919190612e2e565b60405180910390a1565b5f5f5f9054906101000a900473ffffffffffffffffffffffffffffffffffffffff169050815f5f6101000a81548173ffffffffffffffffffffffffffffffffffffffff021916908373ffffffffffffffffffffffffffffffffffffffff1602179055508173ffffffffffffffffffffffffffffffffffffffff168173ffffffffffffffffffffffffffffffffffffffff167f8be0079c531659141344cd1fd0a4f28419497f9722a3daafe3b4186f6b6457e060405160405180910390a35050565b5f5f5f5f90505f5f90505f5f90506121726127cb565b5f5f90505b888890508110156122cb575f60015f9054906101000a900473ffffffffffffffffffffffffffffffffffffffff1673ffffffffffffffffffffffffffffffffffffffff16631655bfbe8b8b858181106121d3576121d26132dd565b5b905060200201356040518263ffffffff1660e01b81526004016121f69190612bb5565b60c060405180830381865afa158015612211573d5f5f3e3d5ffd5b505050506040513d601f19601f820116820180604052508101906122359190613ad7565b9050806060015160ff168661224a9190613915565b9550806080015160ff168561225f9190613915565b94508060a0015160ff16846122749190613915565b935082815f0151600281111561228d5761228c61290f565b5b60ff16600381106122a1576122a06132dd565b5b6020020180518091906122b390613b02565b60ff1660ff1681525050508080600101915050612177565b505f94506003815f60028111156122e5576122e461290f565b5b60ff16600381106122f9576122f86132dd565b5b602002015160ff161061233057606460828461231591906138d4565b61231f9190613b2a565b9250848061232c90613b02565b9550505b600381600160028111156123475761234661290f565b5b60ff166003811061235b5761235a6132dd565b5b602002015160ff161061239257606460918561237791906138d4565b6123819190613b2a565b9350848061238e90613b02565b9550505b6003816002808111156123a8576123a761290f565b5b60ff16600381106123bc576123bb6132dd565b5b602002015160ff161061240e576064607d856123d891906138d4565b6123e29190613b2a565b93506064607d846123f391906138d4565b6123fd9190613b2a565b9250848061240a90613b02565b9550505b5f60028361241c91906138d4565b84866124289190613915565b6124329190613915565b90505f42338360405160200161244a9392919061307f565b604051602081830303815290604052805190602001205f1c9050600f8760ff1661247491906138d4565b601e8261248191906130e8565b603260508561249091906130e8565b61249a9190613915565b6124a49190613915565b6124ae9190613915565b97505050505050509250929050565b5f60025f8473ffffffffffffffffffffffffffffffffffffffff1673ffffffffffffffffffffffffffffffffffffffff1681526020019081526020015f209050811561256257806001015f815480929190612517906134e8565b91905055506032815f0160028282829054906101000a900463ffffffff1661253f91906137eb565b92506101000a81548163ffffffff021916908363ffffffff1602179055506125bd565b806002015f815480929190612576906134e8565b91905055506019815f0160028282829054906101000a900463ffffffff1661259e91906137eb565b92506101000a81548163ffffffff021916908363ffffffff1602179055505b6064815f015f9054906101000a900461ffff1661ffff166125de9190613822565b63ffffffff16815f0160029054906101000a900463ffffffff1663ffffffff161061266157805f015f81819054906101000a900461ffff16809291906126239061385e565b91906101000a81548161ffff021916908361ffff160217905550505f815f0160026101000a81548163ffffffff021916908363ffffffff1602179055505b505050565b61266e61191e565b60015f60146101000a81548160ff0219169083151502179055507f62e78cea01bee320cd4e420270b5ea74000d11b0c9f74754ebdbfc544b05a2586126b161273b565b6040516126be9190612e2e565b60405180910390a1565b6126d0612782565b15612707576040517f3ee5aeb500000000000000000000000000000000000000000000000000000000815260040160405180910390fd5b565b5f7f9b779b17422d0df92223018b32b4d1fa46e071723d6817e2486d003becc55f005f1b905090565b5f819050919050565b5f33905090565b61274a610ad2565b612780576040517f8dfc202b00000000000000000000000000000000000000000000000000000000815260040160405180910390fd5b565b5f6002612795612790612709565b612732565b5f015414905090565b6040518060a001604052806005905b6127b56127ed565b8152602001906001900390816127ad5790505090565b6040518060600160405280600390602082028036833780820191505090505090565b6040518060c001604052805f600281111561280b5761280a61290f565b5b81526020015f60028111156128235761282261290f565b5b81526020015f600381111561283b5761283a61290f565b5b81526020015f60ff1681526020015f60ff1681526020015f60ff1681525090565b5f604051905090565b5f5ffd5b5f5ffd5b5f73ffffffffffffffffffffffffffffffffffffffff82169050919050565b5f6128968261286d565b9050919050565b6128a68161288c565b81146128b0575f5ffd5b50565b5f813590506128c18161289d565b92915050565b5f602082840312156128dc576128db612865565b5b5f6128e9848285016128b3565b91505092915050565b5f60059050919050565b5f81905092915050565b5f819050919050565b7f4e487b71000000000000000000000000000000000000000000000000000000005f52602160045260245ffd5b6003811061294d5761294c61290f565b5b50565b5f81905061295d8261293c565b919050565b5f61296c82612950565b9050919050565b61297c81612962565b82525050565b600381106129935761299261290f565b5b50565b5f8190506129a382612982565b919050565b5f6129b282612996565b9050919050565b6129c2816129a8565b82525050565b600481106129d9576129d861290f565b5b50565b5f8190506129e9826129c8565b919050565b5f6129f8826129dc565b9050919050565b612a08816129ee565b82525050565b5f60ff82169050919050565b612a2381612a0e565b82525050565b60c082015f820151612a3d5f850182612973565b506020820151612a5060208501826129b9565b506040820151612a6360408501826129ff565b506060820151612a766060850182612a1a565b506080820151612a896080850182612a1a565b5060a0820151612a9c60a0850182612a1a565b50505050565b5f612aad8383612a29565b60c08301905092915050565b5f602082019050919050565b612ace816128f2565b612ad881846128fc565b9250612ae382612906565b805f5b83811015612b13578151612afa8782612aa2565b9650612b0583612ab9565b925050600181019050612ae6565b505050505050565b5f6103c082019050612b2f5f830184612ac5565b92915050565b5f819050919050565b612b4781612b35565b8114612b51575f5ffd5b50565b5f81359050612b6281612b3e565b92915050565b5f5f60408385031215612b7e57612b7d612865565b5b5f612b8b858286016128b3565b9250506020612b9c85828601612b54565b9150509250929050565b612baf81612b35565b82525050565b5f602082019050612bc85f830184612ba6565b92915050565b5f8115159050919050565b612be281612bce565b82525050565b5f602082019050612bfb5f830184612bd9565b92915050565b5f81519050919050565b5f82825260208201905092915050565b5f819050602082019050919050565b612c3381612b35565b82525050565b5f612c448383612c2a565b60208301905092915050565b5f602082019050919050565b5f612c6682612c01565b612c708185612c0b565b9350612c7b83612c1b565b805f5b83811015612cab578151612c928882612c39565b9750612c9d83612c50565b925050600181019050612c7e565b5085935050505092915050565b5f6020820190508181035f830152612cd08184612c5c565b905092915050565b5f5ffd5b5f5ffd5b5f5ffd5b5f5f83601f840112612cf957612cf8612cd8565b5b8235905067ffffffffffffffff811115612d1657612d15612cdc565b5b602083019150836020820283011115612d3257612d31612ce0565b5b9250929050565b5f5f60208385031215612d4f57612d4e612865565b5b5f83013567ffffffffffffffff811115612d6c57612d6b612869565b5b612d7885828601612ce4565b92509250509250929050565b612d8d81612962565b82525050565b612d9c816129a8565b82525050565b612dab816129ee565b82525050565b612dba81612a0e565b82525050565b5f60c082019050612dd35f830189612d84565b612de06020830188612d93565b612ded6040830187612da2565b612dfa6060830186612db1565b612e076080830185612db1565b612e1460a0830184612db1565b979650505050505050565b612e288161288c565b82525050565b5f602082019050612e415f830184612e1f565b92915050565b5f60208284031215612e5c57612e5b612865565b5b5f612e6984828501612b54565b91505092915050565b5f819050919050565b5f612e95612e90612e8b8461286d565b612e72565b61286d565b9050919050565b5f612ea682612e7b565b9050919050565b5f612eb782612e9c565b9050919050565b612ec781612ead565b82525050565b5f602082019050612ee05f830184612ebe565b92915050565b5f61ffff82169050919050565b612efc81612ee6565b82525050565b5f63ffffffff82169050919050565b612f1a81612f02565b82525050565b5f608082019050612f335f830187612ef3565b612f406020830186612f11565b612f4d6040830185612ba6565b612f5a6060830184612ba6565b95945050505050565b5f82825260208201905092915050565b7f496e636f7272656374207061796d656e740000000000000000000000000000005f82015250565b5f612fa7601183612f63565b9150612fb282612f73565b602082019050919050565b5f6020820190508181035f830152612fd481612f9b565b9050919050565b5f81519050612fe981612b3e565b92915050565b5f6020828403121561300457613003612865565b5b5f61301184828501612fdb565b91505092915050565b5f819050919050565b61303461302f82612b35565b61301a565b82525050565b5f8160601b9050919050565b5f6130508261303a565b9050919050565b5f61306182613046565b9050919050565b6130796130748261288c565b613057565b82525050565b5f61308a8286613023565b60208201915061309a8285613068565b6014820191506130aa8284613023565b602082019150819050949350505050565b7f4e487b71000000000000000000000000000000000000000000000000000000005f52601260045260245ffd5b5f6130f282612b35565b91506130fd83612b35565b92508261310d5761310c6130bb565b5b828206905092915050565b7f4e487b71000000000000000000000000000000000000000000000000000000005f52601160045260245ffd5b5f61314f82612a0e565b915061315a83612a0e565b9250828201905060ff81111561317357613172613118565b5b92915050565b5f60e08201905061318c5f83018a612e1f565b6131996020830189612d84565b6131a66040830188612d93565b6131b36060830187612da2565b6131c06080830186612db1565b6131cd60a0830185612db1565b6131da60c0830184612db1565b98975050505050505050565b5f6040820190506131f95f830185612e1f565b6132066020830184612ba6565b9392505050565b7f496e636f7272656374207061796d656e7420666f72207265726f6c6c000000005f82015250565b5f613241601c83612f63565b915061324c8261320d565b602082019050919050565b5f6020820190508181035f83015261326e81613235565b9050919050565b7f5465616d2073697a6520342d38206f6e6c7900000000000000000000000000005f82015250565b5f6132a9601283612f63565b91506132b482613275565b602082019050919050565b5f6020820190508181035f8301526132d68161329d565b9050919050565b7f4e487b71000000000000000000000000000000000000000000000000000000005f52603260045260245ffd5b5f815190506133188161289d565b92915050565b5f6020828403121561333357613332612865565b5b5f6133408482850161330a565b91505092915050565b7f4e6f7420796f757220756e6974000000000000000000000000000000000000005f82015250565b5f61337d600d83612f63565b915061338882613349565b602082019050919050565b5f6020820190508181035f8301526133aa81613371565b9050919050565b7f4e487b71000000000000000000000000000000000000000000000000000000005f52604160045260245ffd5b5f6133e98285613023565b6020820191506133f98284613068565b6014820191508190509392505050565b5f819050919050565b5f61342c61342761342284613409565b612e72565b612a0e565b9050919050565b61343c81613412565b82525050565b5f819050919050565b5f61346561346061345b84613442565b612e72565b612a0e565b9050919050565b6134758161344b565b82525050565b5f60e08201905061348e5f83018a612e1f565b61349b6020830189612d84565b6134a86040830188612d93565b6134b56060830187612da2565b6134c26080830186613433565b6134cf60a0830185613433565b6134dc60c083018461346c565b98975050505050505050565b5f6134f282612b35565b91507fffffffffffffffffffffffffffffffffffffffffffffffffffffffffffffffff820361352457613523613118565b5b600182019050919050565b5f819050919050565b5f61355261354d6135488461352f565b612e72565b612a0e565b9050919050565b61356281613538565b82525050565b5f60e08201905061357b5f83018a612e1f565b6135886020830189612d84565b6135956040830188612d93565b6135a26060830187612da2565b6135af6080830186613559565b6135bc60a0830185613559565b6135c960c0830184613559565b98975050505050505050565b5f819050919050565b5f6135f86135f36135ee846135d5565b612e72565b612a0e565b9050919050565b613608816135de565b82525050565b5f819050919050565b5f61363161362c6136278461360e565b612e72565b612a0e565b9050919050565b61364181613617565b82525050565b5f60e08201905061365a5f83018a612e1f565b6136676020830189612d84565b6136746040830188612d93565b6136816060830187612da2565b61368e60808301866135ff565b61369b60a08301856135ff565b6136a860c0830184613638565b98975050505050505050565b5f6060820190506136c75f830186612e1f565b6136d46020830185612ba6565b81810360408301526136e68184612c5c565b9050949350505050565b7f496e76616c696420736c6f7400000000000000000000000000000000000000005f82015250565b5f613724600c83612f63565b915061372f826136f0565b602082019050919050565b5f6020820190508181035f83015261375181613718565b9050919050565b7f536c6f7420656d707479000000000000000000000000000000000000000000005f82015250565b5f61378c600a83612f63565b915061379782613758565b602082019050919050565b5f6020820190508181035f8301526137b981613780565b9050919050565b5f6137cb8285613023565b6020820191506137db8284613023565b6020820191508190509392505050565b5f6137f582612f02565b915061380083612f02565b9250828201905063ffffffff81111561381c5761381b613118565b5b92915050565b5f61382c82612f02565b915061383783612f02565b925082820261384581612f02565b915080821461385757613856613118565b5b5092915050565b5f61386882612ee6565b915061ffff820361387c5761387b613118565b5b600182019050919050565b5f6138928287613023565b6020820191506138a28286613068565b6014820191506138b28285613023565b6020820191506138c28284613023565b60208201915081905095945050505050565b5f6138de82612b35565b91506138e983612b35565b92508282026138f781612b35565b9150828204841483151761390e5761390d613118565b5b5092915050565b5f61391f82612b35565b915061392a83612b35565b925082820190508082111561394257613941613118565b5b92915050565b5f5ffd5b5f601f19601f8301169050919050565b6139658261394c565b810181811067ffffffffffffffff82111715613984576139836133b1565b5b80604052505050565b5f61399661285c565b90506139a2828261395c565b919050565b600381106139b3575f5ffd5b50565b5f815190506139c4816139a7565b92915050565b600381106139d6575f5ffd5b50565b5f815190506139e7816139ca565b92915050565b600481106139f9575f5ffd5b50565b5f81519050613a0a816139ed565b92915050565b613a1981612a0e565b8114613a23575f5ffd5b50565b5f81519050613a3481613a10565b92915050565b5f60c08284031215613a4f57613a4e613948565b5b613a5960c061398d565b90505f613a68848285016139b6565b5f830152506020613a7b848285016139d9565b6020830152506040613a8f848285016139fc565b6040830152506060613aa384828501613a26565b6060830152506080613ab784828501613a26565b60808301525060a0613acb84828501613a26565b60a08301525092915050565b5f60c08284031215613aec57613aeb612865565b5b5f613af984828501613a3a565b91505092915050565b5f613b0c82612a0e565b915060ff8203613b1f57613b1e613118565b5b600182019050919050565b5f613b3482612b35565b9150613b3f83612b35565b925082613b4f57613b4e6130bb565b5b82820490509291505056fea264697066735822122015ba78951355d07e37dc1ddaa3a03e60e8abaf6ba006f175cae3f0135b49ff2c64736f6c634300081e0033",
			"opcodes": "PUSH1 0x80 PUSH1 0x40 MSTORE CALLVALUE DUP1 ISZERO PUSH2 0xF JUMPI PUSH0 PUSH0 REVERT JUMPDEST POP PUSH1 0x40 MLOAD PUSH2 0x3E5D CODESIZE SUB DUP1 PUSH2 0x3E5D DUP4 CODECOPY DUP2 DUP2 ADD PUSH1 0x40 MSTORE DUP2 ADD SWAP1 PUSH2 0x31 SWAP2 SWAP1 PUSH2 0x26D JUMP JUMPDEST CALLER PUSH0 PUSH20 0xFFFFFFFFFFFFFFFFFFFFFFFFFFFFFFFFFFFFFFFF AND DUP2 PUSH20 0xFFFFFFFFFFFFFFFFFFFFFFFFFFFFFFFFFFFFFFFF AND SUB PUSH2 0xA2 JUMPI PUSH0 PUSH1 0x40 MLOAD PUSH32 0x1E4FBDF700000000000000000000000000000000000000000000000000000000 DUP2 MSTORE PUSH1 0x4 ADD PUSH2 0x99 SWAP2 SWAP1 PUSH2 0x2A7 JUMP JUMPDEST PUSH1 0x40 MLOAD DUP1 SWAP2 SUB SWAP1 REVERT JUMPDEST PUSH2 0xB1 DUP2 PUSH2 0x11C PUSH1 0x20 SHL PUSH1 0x20 SHR JUMP JUMPDEST POP PUSH1 0x1 PUSH2 0xD0 PUSH2 0xC5 PUSH2 0x1DD PUSH1 0x20 SHL PUSH1 0x20 SHR JUMP JUMPDEST PUSH2 0x206 PUSH1 0x20 SHL PUSH1 0x20 SHR JUMP JUMPDEST PUSH0 ADD DUP2 SWAP1 SSTORE POP DUP1 PUSH1 0x1 PUSH0 PUSH2 0x100 EXP DUP2 SLOAD DUP2 PUSH20 0xFFFFFFFFFFFFFFFFFFFFFFFFFFFFFFFFFFFFFFFF MUL NOT AND SWAP1 DUP4 PUSH20 0xFFFFFFFFFFFFFFFFFFFFFFFFFFFFFFFFFFFFFFFF AND MUL OR SWAP1 SSTORE POP POP PUSH2 0x2C0 JUMP JUMPDEST PUSH0 PUSH0 PUSH0 SWAP1 SLOAD SWAP1 PUSH2 0x100 EXP SWAP1 DIV PUSH20 0xFFFFFFFFFFFFFFFFFFFFFFFFFFFFFFFFFFFFFFFF AND SWAP1 POP DUP2 PUSH0 PUSH0 PUSH2 0x100 EXP DUP2 SLOAD DUP2 PUSH20 0xFFFFFFFFFFFFFFFFFFFFFFFFFFFFFFFFFFFFFFFF MUL NOT AND SWAP1 DUP4 PUSH20 0xFFFFFFFFFFFFFFFFFFFFFFFFFFFFFFFFFFFFFFFF AND MUL OR SWAP1 SSTORE POP DUP2 PUSH20 0xFFFFFFFFFFFFFFFFFFFFFFFFFFFFFFFFFFFFFFFF AND DUP2 PUSH20 0xFFFFFFFFFFFFFFFFFFFFFFFFFFFFFFFFFFFFFFFF AND PUSH32 0x8BE0079C531659141344CD1FD0A4F28419497F9722A3DAAFE3B4186F6B6457E0 PUSH1 0x40 MLOAD PUSH1 0x40 MLOAD DUP1 SWAP2 SUB SWAP1 LOG3 POP POP JUMP JUMPDEST PUSH0 PUSH32 0x9B779B17422D0DF92223018B32B4D1FA46E071723D6817E2486D003BECC55F00 PUSH0 SHL SWAP1 POP SWAP1 JUMP JUMPDEST PUSH0 DUP2 SWAP1 POP SWAP2 SWAP1 POP JUMP JUMPDEST PUSH0 PUSH0 REVERT JUMPDEST PUSH0 PUSH20 0xFFFFFFFFFFFFFFFFFFFFFFFFFFFFFFFFFFFFFFFF DUP3 AND SWAP1 POP SWAP2 SWAP1 POP JUMP JUMPDEST PUSH0 PUSH2 0x23C DUP3 PUSH2 0x213 JUMP JUMPDEST SWAP1 POP SWAP2 SWAP1 POP JUMP JUMPDEST PUSH2 0x24C DUP2 PUSH2 0x232 JUMP JUMPDEST DUP2 EQ PUSH2 0x256 JUMPI PUSH0 PUSH0 REVERT JUMPDEST POP JUMP JUMPDEST PUSH0 DUP2 MLOAD SWAP1 POP PUSH2 0x267 DUP2 PUSH2 0x243 JUMP JUMPDEST SWAP3 SWAP2 POP POP JUMP JUMPDEST PUSH0 PUSH1 0x20 DUP3 DUP5 SUB SLT ISZERO PUSH2 0x282 JUMPI PUSH2 0x281 PUSH2 0x20F JUMP JUMPDEST JUMPDEST PUSH0 PUSH2 0x28F DUP5 DUP3 DUP6 ADD PUSH2 0x259 JUMP JUMPDEST SWAP2 POP POP SWAP3 SWAP2 POP POP JUMP JUMPDEST PUSH2 0x2A1 DUP2 PUSH2 0x232 JUMP JUMPDEST DUP3 MSTORE POP POP JUMP JUMPDEST PUSH0 PUSH1 0x20 DUP3 ADD SWAP1 POP PUSH2 0x2BA PUSH0 DUP4 ADD DUP5 PUSH2 0x298 JUMP JUMPDEST SWAP3 SWAP2 POP POP JUMP JUMPDEST PUSH2 0x3B90 DUP1 PUSH2 0x2CD PUSH0 CODECOPY PUSH0 RETURN INVALID PUSH1 0x80 PUSH1 0x40 MSTORE PUSH1 0x4 CALLDATASIZE LT PUSH2 0x11E JUMPI PUSH0 CALLDATALOAD PUSH1 0xE0 SHR DUP1 PUSH4 0x7E5C4F8B GT PUSH2 0x9F JUMPI DUP1 PUSH4 0x9F51758E GT PUSH2 0x63 JUMPI DUP1 PUSH4 0x9F51758E EQ PUSH2 0x351 JUMPI DUP1 PUSH4 0xB654823E EQ PUSH2 0x37B JUMPI DUP1 PUSH4 0xB92A40AD EQ PUSH2 0x397 JUMPI DUP1 PUSH4 0xBBE15627 EQ PUSH2 0x3C1 JUMPI DUP1 PUSH4 0xF2FDE38B EQ PUSH2 0x400 JUMPI PUSH2 0x11E JUMP JUMPDEST DUP1 PUSH4 0x7E5C4F8B EQ PUSH2 0x280 JUMPI DUP1 PUSH4 0x7F570E2B EQ PUSH2 0x2A8 JUMPI DUP1 PUSH4 0x8456CB59 EQ PUSH2 0x2D0 JUMPI DUP1 PUSH4 0x84D38FDC EQ PUSH2 0x2E6 JUMPI DUP1 PUSH4 0x8DA5CB5B EQ PUSH2 0x327 JUMPI PUSH2 0x11E JUMP JUMPDEST DUP1 PUSH4 0x4EF2D6C1 GT PUSH2 0xE6 JUMPI DUP1 PUSH4 0x4EF2D6C1 EQ PUSH2 0x19E JUMPI DUP1 PUSH4 0x5C975ABB EQ PUSH2 0x1DA JUMPI DUP1 PUSH4 0x6154EE97 EQ PUSH2 0x204 JUMPI DUP1 PUSH4 0x705FE4BE EQ PUSH2 0x240 JUMPI DUP1 PUSH4 0x715018A6 EQ PUSH2 0x26A JUMPI PUSH2 0x11E JUMP JUMPDEST DUP1 PUSH4 0x201738E2 EQ PUSH2 0x122 JUMPI DUP1 PUSH4 0x29DE58D1 EQ PUSH2 0x12C JUMPI DUP1 PUSH4 0x3CCFD60B EQ PUSH2 0x136 JUMPI DUP1 PUSH4 0x3F4BA83A EQ PUSH2 0x14C JUMPI DUP1 PUSH4 0x49C7C24A EQ PUSH2 0x162 JUMPI JUMPDEST PUSH0 PUSH0 REVERT JUMPDEST PUSH2 0x12A PUSH2 0x428 JUMP JUMPDEST STOP JUMPDEST PUSH2 0x134 PUSH2 0x811 JUMP JUMPDEST STOP JUMPDEST CALLVALUE DUP1 ISZERO PUSH2 0x141 JUMPI PUSH0 PUSH0 REVERT JUMPDEST POP PUSH2 0x14A PUSH2 0x8B4 JUMP JUMPDEST STOP JUMPDEST CALLVALUE DUP1 ISZERO PUSH2 0x157 JUMPI PUSH0 PUSH0 REVERT JUMPDEST POP PUSH2 0x160 PUSH2 0x909 JUMP JUMPDEST STOP JUMPDEST CALLVALUE DUP1 ISZERO PUSH2 0x16D JUMPI PUSH0 PUSH0 REVERT JUMPDEST POP PUSH2 0x188 PUSH1 0x4 DUP1 CALLDATASIZE SUB DUP2 ADD SWAP1 PUSH2 0x183 SWAP2 SWAP1 PUSH2 0x28C7 JUMP JUMPDEST PUSH2 0x91B JUMP JUMPDEST PUSH1 0x40 MLOAD PUSH2 0x195 SWAP2 SWAP1 PUSH2 0x2B1B JUMP JUMPDEST PUSH1 0x40 MLOAD DUP1 SWAP2 SUB SWAP1 RETURN JUMPDEST CALLVALUE DUP1 ISZERO PUSH2 0x1A9 JUMPI PUSH0 PUSH0 REVERT JUMPDEST POP PUSH2 0x1C4 PUSH1 0x4 DUP1 CALLDATASIZE SUB DUP2 ADD SWAP1 PUSH2 0x1BF SWAP2 SWAP1 PUSH2 0x2B68 JUMP JUMPDEST PUSH2 0xAA7 JUMP JUMPDEST PUSH1 0x40 MLOAD PUSH2 0x1D1 SWAP2 SWAP1 PUSH2 0x2BB5 JUMP JUMPDEST PUSH1 0x40 MLOAD DUP1 SWAP2 SUB SWAP1 RETURN JUMPDEST CALLVALUE DUP1 ISZERO PUSH2 0x1E5 JUMPI PUSH0 PUSH0 REVERT JUMPDEST POP PUSH2 0x1EE PUSH2 0xAD2 JUMP JUMPDEST PUSH1 0x40 MLOAD PUSH2 0x1FB SWAP2 SWAP1 PUSH2 0x2BE8 JUMP JUMPDEST PUSH1 0x40 MLOAD DUP1 SWAP2 SUB SWAP1 RETURN JUMPDEST CALLVALUE DUP1 ISZERO PUSH2 0x20F JUMPI PUSH0 PUSH0 REVERT JUMPDEST POP PUSH2 0x22A PUSH1 0x4 DUP1 CALLDATASIZE SUB DUP2 ADD SWAP1 PUSH2 0x225 SWAP2 SWAP1 PUSH2 0x28C7 JUMP JUMPDEST PUSH2 0xAE7 JUMP JUMPDEST PUSH1 0x40 MLOAD PUSH2 0x237 SWAP2 SWAP1 PUSH2 0x2CB8 JUMP JUMPDEST PUSH1 0x40 MLOAD DUP1 SWAP2 SUB SWAP1 RETURN JUMPDEST CALLVALUE DUP1 ISZERO PUSH2 0x24B JUMPI PUSH0 PUSH0 REVERT JUMPDEST POP PUSH2 0x254 PUSH2 0xB7A JUMP JUMPDEST PUSH1 0x40 MLOAD PUSH2 0x261 SWAP2 SWAP1 PUSH2 0x2BB5 JUMP JUMPDEST PUSH1 0x40 MLOAD DUP1 SWAP2 SUB SWAP1 RETURN JUMPDEST CALLVALUE DUP1 ISZERO PUSH2 0x275 JUMPI PUSH0 PUSH0 REVERT JUMPDEST POP PUSH2 0x27E PUSH2 0xB85 JUMP JUMPDEST STOP JUMPDEST CALLVALUE DUP1 ISZERO PUSH2 0x28B JUMPI PUSH0 PUSH0 REVERT JUMPDEST POP PUSH2 0x2A6 PUSH1 0x4 DUP1 CALLDATASIZE SUB DUP2 ADD SWAP1 PUSH2 0x2A1 SWAP2 SWAP1 PUSH2 0x28C7 JUMP JUMPDEST PUSH2 0xB98 JUMP JUMPDEST STOP JUMPDEST CALLVALUE DUP1 ISZERO PUSH2 0x2B3 JUMPI PUSH0 PUSH0 REVERT JUMPDEST POP PUSH2 0x2CE PUSH1 0x4 DUP1 CALLDATASIZE SUB DUP2 ADD SWAP1 PUSH2 0x2C9 SWAP2 SWAP1 PUSH2 0x2D39 JUMP JUMPDEST PUSH2 0xBE3 JUMP JUMPDEST STOP JUMPDEST CALLVALUE DUP1 ISZERO PUSH2 0x2DB JUMPI PUSH0 PUSH0 REVERT JUMPDEST POP PUSH2 0x2E4 PUSH2 0x12E2 JUMP JUMPDEST STOP JUMPDEST CALLVALUE DUP1 ISZERO PUSH2 0x2F1 JUMPI PUSH0 PUSH0 REVERT JUMPDEST POP PUSH2 0x30C PUSH1 0x4 DUP1 CALLDATASIZE SUB DUP2 ADD SWAP1 PUSH2 0x307 SWAP2 SWAP1 PUSH2 0x2B68 JUMP JUMPDEST PUSH2 0x12F4 JUMP JUMPDEST PUSH1 0x40 MLOAD PUSH2 0x31E SWAP7 SWAP6 SWAP5 SWAP4 SWAP3 SWAP2 SWAP1 PUSH2 0x2DC0 JUMP JUMPDEST PUSH1 0x40 MLOAD DUP1 SWAP2 SUB SWAP1 RETURN JUMPDEST CALLVALUE DUP1 ISZERO PUSH2 0x332 JUMPI PUSH0 PUSH0 REVERT JUMPDEST POP PUSH2 0x33B PUSH2 0x1383 JUMP JUMPDEST PUSH1 0x40 MLOAD PUSH2 0x348 SWAP2 SWAP1 PUSH2 0x2E2E JUMP JUMPDEST PUSH1 0x40 MLOAD DUP1 SWAP2 SUB SWAP1 RETURN JUMPDEST CALLVALUE DUP1 ISZERO PUSH2 0x35C JUMPI PUSH0 PUSH0 REVERT JUMPDEST POP PUSH2 0x365 PUSH2 0x13AA JUMP JUMPDEST PUSH1 0x40 MLOAD PUSH2 0x372 SWAP2 SWAP1 PUSH2 0x2BB5 JUMP JUMPDEST PUSH1 0x40 MLOAD DUP1 SWAP2 SUB SWAP1 RETURN JUMPDEST PUSH2 0x395 PUSH1 0x4 DUP1 CALLDATASIZE SUB DUP2 ADD SWAP1 PUSH2 0x390 SWAP2 SWAP1 PUSH2 0x2E47 JUMP JUMPDEST PUSH2 0x13B5 JUMP JUMPDEST STOP JUMPDEST CALLVALUE DUP1 ISZERO PUSH2 0x3A2 JUMPI PUSH0 PUSH0 REVERT JUMPDEST POP PUSH2 0x3AB PUSH2 0x182D JUMP JUMPDEST PUSH1 0x40 MLOAD PUSH2 0x3B8 SWAP2 SWAP1 PUSH2 0x2ECD JUMP JUMPDEST PUSH1 0x40 MLOAD DUP1 SWAP2 SUB SWAP1 RETURN JUMPDEST CALLVALUE DUP1 ISZERO PUSH2 0x3CC JUMPI PUSH0 PUSH0 REVERT JUMPDEST POP PUSH2 0x3E7 PUSH1 0x4 DUP1 CALLDATASIZE SUB DUP2 ADD SWAP1 PUSH2 0x3E2 SWAP2 SWAP1 PUSH2 0x28C7 JUMP JUMPDEST PUSH2 0x1852 JUMP JUMPDEST PUSH1 0x40 MLOAD PUSH2 0x3F7 SWAP5 SWAP4 SWAP3 SWAP2 SWAP1 PUSH2 0x2F20 JUMP JUMPDEST PUSH1 0x40 MLOAD DUP1 SWAP2 SUB SWAP1 RETURN JUMPDEST CALLVALUE DUP1 ISZERO PUSH2 0x40B JUMPI PUSH0 PUSH0 REVERT JUMPDEST POP PUSH2 0x426 PUSH1 0x4 DUP1 CALLDATASIZE SUB DUP2 ADD SWAP1 PUSH2 0x421 SWAP2 SWAP1 PUSH2 0x28C7 JUMP JUMPDEST PUSH2 0x189A JUMP JUMPDEST STOP JUMPDEST PUSH2 0x430 PUSH2 0x191E JUMP JUMPDEST PUSH2 0x438 PUSH2 0x195F JUMP JUMPDEST PUSH7 0x38D7EA4C68000 CALLVALUE EQ PUSH2 0x481 JUMPI PUSH1 0x40 MLOAD PUSH32 0x8C379A000000000000000000000000000000000000000000000000000000000 DUP2 MSTORE PUSH1 0x4 ADD PUSH2 0x478 SWAP1 PUSH2 0x2FBD JUMP JUMPDEST PUSH1 0x40 MLOAD DUP1 SWAP2 SUB SWAP1 REVERT JUMPDEST PUSH0 TIMESTAMP CALLER PUSH1 0x1 PUSH0 SWAP1 SLOAD SWAP1 PUSH2 0x100 EXP SWAP1 DIV PUSH20 0xFFFFFFFFFFFFFFFFFFFFFFFFFFFFFFFFFFFFFFFF AND PUSH20 0xFFFFFFFFFFFFFFFFFFFFFFFFFFFFFFFFFFFFFFFF AND PUSH4 0x18160DDD PUSH1 0x40 MLOAD DUP2 PUSH4 0xFFFFFFFF AND PUSH1 0xE0 SHL DUP2 MSTORE PUSH1 0x4 ADD PUSH1 0x20 PUSH1 0x40 MLOAD DUP1 DUP4 SUB DUP2 DUP7 GAS STATICCALL ISZERO DUP1 ISZERO PUSH2 0x4EE JUMPI RETURNDATASIZE PUSH0 PUSH0 RETURNDATACOPY RETURNDATASIZE PUSH0 REVERT JUMPDEST POP POP POP POP PUSH1 0x40 MLOAD RETURNDATASIZE PUSH1 0x1F NOT PUSH1 0x1F DUP3 ADD AND DUP3 ADD DUP1 PUSH1 0x40 MSTORE POP DUP2 ADD SWAP1 PUSH2 0x512 SWAP2 SWAP1 PUSH2 0x2FEF JUMP JUMPDEST PUSH1 0x40 MLOAD PUSH1 0x20 ADD PUSH2 0x524 SWAP4 SWAP3 SWAP2 SWAP1 PUSH2 0x307F JUMP JUMPDEST PUSH1 0x40 MLOAD PUSH1 0x20 DUP2 DUP4 SUB SUB DUP2 MSTORE SWAP1 PUSH1 0x40 MSTORE DUP1 MLOAD SWAP1 PUSH1 0x20 ADD KECCAK256 PUSH0 SHR SWAP1 POP PUSH0 PUSH1 0x3 DUP3 PUSH2 0x54C SWAP2 SWAP1 PUSH2 0x30E8 JUMP JUMPDEST PUSH1 0xFF AND PUSH1 0x2 DUP2 GT ISZERO PUSH2 0x561 JUMPI PUSH2 0x560 PUSH2 0x290F JUMP JUMPDEST JUMPDEST SWAP1 POP PUSH0 PUSH2 0x570 DUP4 PUSH2 0x3E7 PUSH2 0x1981 JUMP JUMPDEST SWAP1 POP PUSH0 PUSH1 0x4 PUSH1 0x8 DUP6 SWAP1 SHR PUSH2 0x584 SWAP2 SWAP1 PUSH2 0x30E8 JUMP JUMPDEST PUSH1 0xFF AND PUSH1 0x3 DUP2 GT ISZERO PUSH2 0x599 JUMPI PUSH2 0x598 PUSH2 0x290F JUMP JUMPDEST JUMPDEST SWAP1 POP PUSH0 PUSH1 0x6 PUSH1 0x10 DUP7 SWAP1 SHR PUSH2 0x5AD SWAP2 SWAP1 PUSH2 0x30E8 JUMP JUMPDEST PUSH1 0x5 PUSH2 0x5B9 SWAP2 SWAP1 PUSH2 0x3145 JUMP JUMPDEST SWAP1 POP PUSH0 PUSH1 0x6 PUSH1 0x18 DUP8 SWAP1 SHR PUSH2 0x5CD SWAP2 SWAP1 PUSH2 0x30E8 JUMP JUMPDEST PUSH1 0x4 PUSH2 0x5D9 SWAP2 SWAP1 PUSH2 0x3145 JUMP JUMPDEST SWAP1 POP PUSH0 PUSH1 0x6 PUSH1 0x20 DUP9 SWAP1 SHR PUSH2 0x5ED SWAP2 SWAP1 PUSH2 0x30E8 JUMP JUMPDEST PUSH1 0x5 PUSH2 0x5F9 SWAP2 SWAP1 PUSH2 0x3145 JUMP JUMPDEST SWAP1 POP PUSH1 0x1 PUSH1 0x2 DUP2 GT ISZERO PUSH2 0x60F JUMPI PUSH2 0x60E PUSH2 0x290F JUMP JUMPDEST JUMPDEST DUP6 PUSH1 0x2 DUP2 GT ISZERO PUSH2 0x622 JUMPI PUSH2 0x621 PUSH2 0x290F JUMP JUMPDEST JUMPDEST SUB PUSH2 0x659 JUMPI PUSH1 0x2 DUP4 PUSH2 0x634 SWAP2 SWAP1 PUSH2 0x3145 JUMP JUMPDEST SWAP3 POP PUSH1 0x2 DUP3 PUSH2 0x643 SWAP2 SWAP1 PUSH2 0x3145 JUMP JUMPDEST SWAP2 POP PUSH1 0x1 DUP2 PUSH2 0x652 SWAP2 SWAP1 PUSH2 0x3145 JUMP JUMPDEST SWAP1 POP PUSH2 0x6B3 JUMP JUMPDEST PUSH1 0x2 DUP1 DUP2 GT ISZERO PUSH2 0x66C JUMPI PUSH2 0x66B PUSH2 0x290F JUMP JUMPDEST JUMPDEST DUP6 PUSH1 0x2 DUP2 GT ISZERO PUSH2 0x67F JUMPI PUSH2 0x67E PUSH2 0x290F JUMP JUMPDEST JUMPDEST SUB PUSH2 0x6B2 JUMPI PUSH1 0x4 DUP4 PUSH2 0x691 SWAP2 SWAP1 PUSH2 0x3145 JUMP JUMPDEST SWAP3 POP PUSH1 0x3 DUP3 PUSH2 0x6A0 SWAP2 SWAP1 PUSH2 0x3145 JUMP JUMPDEST SWAP2 POP PUSH1 0x3 DUP2 PUSH2 0x6AF SWAP2 SWAP1 PUSH2 0x3145 JUMP JUMPDEST SWAP1 POP JUMPDEST JUMPDEST PUSH0 PUSH1 0x1 PUSH0 SWAP1 SLOAD SWAP1 PUSH2 0x100 EXP SWAP1 DIV PUSH20 0xFFFFFFFFFFFFFFFFFFFFFFFFFFFFFFFFFFFFFFFF AND PUSH20 0xFFFFFFFFFFFFFFFFFFFFFFFFFFFFFFFFFFFFFFFF AND PUSH4 0x71DEC088 CALLER DUP10 DUP10 DUP10 DUP10 DUP10 DUP10 PUSH1 0x40 MLOAD DUP9 PUSH4 0xFFFFFFFF AND PUSH1 0xE0 SHL DUP2 MSTORE PUSH1 0x4 ADD PUSH2 0x71A SWAP8 SWAP7 SWAP6 SWAP5 SWAP4 SWAP3 SWAP2 SWAP1 PUSH2 0x3179 JUMP JUMPDEST PUSH1 0x20 PUSH1 0x40 MLOAD DUP1 DUP4 SUB DUP2 PUSH0 DUP8 GAS CALL ISZERO DUP1 ISZERO PUSH2 0x736 JUMPI RETURNDATASIZE PUSH0 PUSH0 RETURNDATACOPY RETURNDATASIZE PUSH0 REVERT JUMPDEST POP POP POP POP PUSH1 0x40 MLOAD RETURNDATASIZE PUSH1 0x1F NOT PUSH1 0x1F DUP3 ADD AND DUP3 ADD DUP1 PUSH1 0x40 MSTORE POP DUP2 ADD SWAP1 PUSH2 0x75A SWAP2 SWAP1 PUSH2 0x2FEF JUMP JUMPDEST SWAP1 POP PUSH1 0x4 PUSH0 CALLER PUSH20 0xFFFFFFFFFFFFFFFFFFFFFFFFFFFFFFFFFFFFFFFF AND PUSH20 0xFFFFFFFFFFFFFFFFFFFFFFFFFFFFFFFFFFFFFFFF AND DUP2 MSTORE PUSH1 0x20 ADD SWAP1 DUP2 MSTORE PUSH1 0x20 ADD PUSH0 KECCAK256 DUP2 SWAP1 DUP1 PUSH1 0x1 DUP2 SLOAD ADD DUP1 DUP3 SSTORE DUP1 SWAP2 POP POP PUSH1 0x1 SWAP1 SUB SWAP1 PUSH0 MSTORE PUSH1 0x20 PUSH0 KECCAK256 ADD PUSH0 SWAP1 SWAP2 SWAP1 SWAP2 SWAP1 SWAP2 POP SSTORE PUSH2 0x7C6 CALLER PUSH2 0x19ED JUMP JUMPDEST PUSH32 0xDDED256C7E86A19D1BE0F3168D1EC8D5CFC9C713C96BDC10DEFADD014692CF92 CALLER DUP3 PUSH1 0x40 MLOAD PUSH2 0x7F7 SWAP3 SWAP2 SWAP1 PUSH2 0x31E6 JUMP JUMPDEST PUSH1 0x40 MLOAD DUP1 SWAP2 SUB SWAP1 LOG1 POP POP POP POP POP POP POP POP PUSH2 0x80F PUSH2 0x1B50 JUMP JUMPDEST JUMP JUMPDEST PUSH2 0x819 PUSH2 0x191E JUMP JUMPDEST PUSH2 0x821 PUSH2 0x195F JUMP JUMPDEST PUSH7 0x1C6BF52634000 CALLVALUE EQ PUSH2 0x86A JUMPI PUSH1 0x40 MLOAD PUSH32 0x8C379A000000000000000000000000000000000000000000000000000000000 DUP2 MSTORE PUSH1 0x4 ADD PUSH2 0x861 SWAP1 PUSH2 0x3257 JUMP JUMPDEST PUSH1 0x40 MLOAD DUP1 SWAP2 SUB SWAP1 REVERT JUMPDEST PUSH2 0x873 CALLER PUSH2 0x1B6A JUMP JUMPDEST PUSH32 0xB1B757AFEC988E099A59BC127ABEA15824BF7ACC7137103E4197EF22A9AFAD11 CALLER PUSH1 0x40 MLOAD PUSH2 0x8A2 SWAP2 SWAP1 PUSH2 0x2E2E JUMP JUMPDEST PUSH1 0x40 MLOAD DUP1 SWAP2 SUB SWAP1 LOG1 PUSH2 0x8B2 PUSH2 0x1B50 JUMP JUMPDEST JUMP JUMPDEST PUSH2 0x8BC PUSH2 0x1FB3 JUMP JUMPDEST PUSH2 0x8C4 PUSH2 0x1383 JUMP JUMPDEST PUSH20 0xFFFFFFFFFFFFFFFFFFFFFFFFFFFFFFFFFFFFFFFF AND PUSH2 0x8FC SELFBALANCE SWAP1 DUP2 ISZERO MUL SWAP1 PUSH1 0x40 MLOAD PUSH0 PUSH1 0x40 MLOAD DUP1 DUP4 SUB DUP2 DUP6 DUP9 DUP9 CALL SWAP4 POP POP POP POP ISZERO DUP1 ISZERO PUSH2 0x906 JUMPI RETURNDATASIZE PUSH0 PUSH0 RETURNDATACOPY RETURNDATASIZE PUSH0 REVERT JUMPDEST POP JUMP JUMPDEST PUSH2 0x911 PUSH2 0x1FB3 JUMP JUMPDEST PUSH2 0x919 PUSH2 0x203A JUMP JUMPDEST JUMP JUMPDEST PUSH2 0x923 PUSH2 0x279E JUMP JUMPDEST PUSH1 0x3 PUSH0 DUP4 PUSH20 0xFFFFFFFFFFFFFFFFFFFFFFFFFFFFFFFFFFFFFFFF AND PUSH20 0xFFFFFFFFFFFFFFFFFFFFFFFFFFFFFFFFFFFFFFFF AND DUP2 MSTORE PUSH1 0x20 ADD SWAP1 DUP2 MSTORE PUSH1 0x20 ADD PUSH0 KECCAK256 PUSH1 0x5 DUP1 PUSH1 0x20 MUL PUSH1 0x40 MLOAD SWAP1 DUP2 ADD PUSH1 0x40 MSTORE DUP1 SWAP3 SWAP2 SWAP1 PUSH0 SWAP1 JUMPDEST DUP3 DUP3 LT ISZERO PUSH2 0xA9C JUMPI DUP4 DUP3 ADD PUSH1 0x40 MLOAD DUP1 PUSH1 0xC0 ADD PUSH1 0x40 MSTORE SWAP1 DUP2 PUSH0 DUP3 ADD PUSH0 SWAP1 SLOAD SWAP1 PUSH2 0x100 EXP SWAP1 DIV PUSH1 0xFF AND PUSH1 0x2 DUP2 GT ISZERO PUSH2 0x9AF JUMPI PUSH2 0x9AE PUSH2 0x290F JUMP JUMPDEST JUMPDEST PUSH1 0x2 DUP2 GT ISZERO PUSH2 0x9C1 JUMPI PUSH2 0x9C0 PUSH2 0x290F JUMP JUMPDEST JUMPDEST DUP2 MSTORE PUSH1 0x20 ADD PUSH0 DUP3 ADD PUSH1 0x1 SWAP1 SLOAD SWAP1 PUSH2 0x100 EXP SWAP1 DIV PUSH1 0xFF AND PUSH1 0x2 DUP2 GT ISZERO PUSH2 0x9E9 JUMPI PUSH2 0x9E8 PUSH2 0x290F JUMP JUMPDEST JUMPDEST PUSH1 0x2 DUP2 GT ISZERO PUSH2 0x9FB JUMPI PUSH2 0x9FA PUSH2 0x290F JUMP JUMPDEST JUMPDEST DUP2 MSTORE PUSH1 0x20 ADD PUSH0 DUP3 ADD PUSH1 0x2 SWAP1 SLOAD SWAP1 PUSH2 0x100 EXP SWAP1 DIV PUSH1 0xFF AND PUSH1 0x3 DUP2 GT ISZERO PUSH2 0xA23 JUMPI PUSH2 0xA22 PUSH2 0x290F JUMP JUMPDEST JUMPDEST PUSH1 0x3 DUP2 GT ISZERO PUSH2 0xA35 JUMPI PUSH2 0xA34 PUSH2 0x290F JUMP JUMPDEST JUMPDEST DUP2 MSTORE PUSH1 0x20 ADD PUSH0 DUP3 ADD PUSH1 0x3 SWAP1 SLOAD SWAP1 PUSH2 0x100 EXP SWAP1 DIV PUSH1 0xFF AND PUSH1 0xFF AND PUSH1 0xFF AND DUP2 MSTORE PUSH1 0x20 ADD PUSH0 DUP3 ADD PUSH1 0x4 SWAP1 SLOAD SWAP1 PUSH2 0x100 EXP SWAP1 DIV PUSH1 0xFF AND PUSH1 0xFF AND PUSH1 0xFF AND DUP2 MSTORE PUSH1 0x20 ADD PUSH0 DUP3 ADD PUSH1 0x5 SWAP1 SLOAD SWAP1 PUSH2 0x100 EXP SWAP1 DIV PUSH1 0xFF AND PUSH1 0xFF AND PUSH1 0xFF AND DUP2 MSTORE POP POP DUP2 MSTORE PUSH1 0x20 ADD SWAP1 PUSH1 0x1 ADD SWAP1 PUSH2 0x976 JUMP JUMPDEST POP POP POP POP SWAP1 POP SWAP2 SWAP1 POP JUMP JUMPDEST PUSH1 0x4 PUSH1 0x20 MSTORE DUP2 PUSH0 MSTORE PUSH1 0x40 PUSH0 KECCAK256 DUP2 DUP2 SLOAD DUP2 LT PUSH2 0xAC0 JUMPI PUSH0 DUP1 REVERT JUMPDEST SWAP1 PUSH0 MSTORE PUSH1 0x20 PUSH0 KECCAK256 ADD PUSH0 SWAP2 POP SWAP2 POP POP SLOAD DUP2 JUMP JUMPDEST PUSH0 PUSH0 PUSH1 0x14 SWAP1 SLOAD SWAP1 PUSH2 0x100 EXP SWAP1 DIV PUSH1 0xFF AND SWAP1 POP SWAP1 JUMP JUMPDEST PUSH1 0x60 PUSH1 0x4 PUSH0 DUP4 PUSH20 0xFFFFFFFFFFFFFFFFFFFFFFFFFFFFFFFFFFFFFFFF AND PUSH20 0xFFFFFFFFFFFFFFFFFFFFFFFFFFFFFFFFFFFFFFFF AND DUP2 MSTORE PUSH1 0x20 ADD SWAP1 DUP2 MSTORE PUSH1 0x20 ADD PUSH0 KECCAK256 DUP1 SLOAD DUP1 PUSH1 0x20 MUL PUSH1 0x20 ADD PUSH1 0x40 MLOAD SWAP1 DUP2 ADD PUSH1 0x40 MSTORE DUP1 SWAP3 SWAP2 SWAP1 DUP2 DUP2 MSTORE PUSH1 0x20 ADD DUP3 DUP1 SLOAD DUP1 ISZERO PUSH2 0xB6E JUMPI PUSH1 0x20 MUL DUP3 ADD SWAP2 SWAP1 PUSH0 MSTORE PUSH1 0x20 PUSH0 KECCAK256 SWAP1 JUMPDEST DUP2 SLOAD DUP2 MSTORE PUSH1 0x20 ADD SWAP1 PUSH1 0x1 ADD SWAP1 DUP1 DUP4 GT PUSH2 0xB5A JUMPI JUMPDEST POP POP POP POP POP SWAP1 POP SWAP2 SWAP1 POP JUMP JUMPDEST PUSH7 0x38D7EA4C68000 DUP2 JUMP JUMPDEST PUSH2 0xB8D PUSH2 0x1FB3 JUMP JUMPDEST PUSH2 0xB96 PUSH0 PUSH2 0x209B JUMP JUMPDEST JUMP JUMPDEST PUSH2 0xBA0 PUSH2 0x1FB3 JUMP JUMPDEST DUP1 PUSH1 0x1 PUSH0 PUSH2 0x100 EXP DUP2 SLOAD DUP2 PUSH20 0xFFFFFFFFFFFFFFFFFFFFFFFFFFFFFFFFFFFFFFFF MUL NOT AND SWAP1 DUP4 PUSH20 0xFFFFFFFFFFFFFFFFFFFFFFFFFFFFFFFFFFFFFFFF AND MUL OR SWAP1 SSTORE POP POP JUMP JUMPDEST PUSH2 0xBEB PUSH2 0x191E JUMP JUMPDEST PUSH2 0xBF3 PUSH2 0x195F JUMP JUMPDEST PUSH1 0x4 DUP3 DUP3 SWAP1 POP LT ISZERO DUP1 ISZERO PUSH2 0xC0B JUMPI POP PUSH1 0x8 DUP3 DUP3 SWAP1 POP GT ISZERO JUMPDEST PUSH2 0xC4A JUMPI PUSH1 0x40 MLOAD PUSH32 0x8C379A000000000000000000000000000000000000000000000000000000000 DUP2 MSTORE PUSH1 0x4 ADD PUSH2 0xC41 SWAP1 PUSH2 0x32BF JUMP JUMPDEST PUSH1 0x40 MLOAD DUP1 SWAP2 SUB SWAP1 REVERT JUMPDEST PUSH0 PUSH0 SWAP1 POP JUMPDEST DUP3 DUP3 SWAP1 POP DUP2 LT ISZERO PUSH2 0xD86 JUMPI CALLER PUSH20 0xFFFFFFFFFFFFFFFFFFFFFFFFFFFFFFFFFFFFFFFF AND PUSH1 0x1 PUSH0 SWAP1 SLOAD SWAP1 PUSH2 0x100 EXP SWAP1 DIV PUSH20 0xFFFFFFFFFFFFFFFFFFFFFFFFFFFFFFFFFFFFFFFF AND PUSH20 0xFFFFFFFFFFFFFFFFFFFFFFFFFFFFFFFFFFFFFFFF AND PUSH4 0x6352211E DUP6 DUP6 DUP6 DUP2 DUP2 LT PUSH2 0xCC1 JUMPI PUSH2 0xCC0 PUSH2 0x32DD JUMP JUMPDEST JUMPDEST SWAP1 POP PUSH1 0x20 MUL ADD CALLDATALOAD PUSH1 0x40 MLOAD DUP3 PUSH4 0xFFFFFFFF AND PUSH1 0xE0 SHL DUP2 MSTORE PUSH1 0x4 ADD PUSH2 0xCE4 SWAP2 SWAP1 PUSH2 0x2BB5 JUMP JUMPDEST PUSH1 0x20 PUSH1 0x40 MLOAD DUP1 DUP4 SUB DUP2 DUP7 GAS STATICCALL ISZERO DUP1 ISZERO PUSH2 0xCFF JUMPI RETURNDATASIZE PUSH0 PUSH0 RETURNDATACOPY RETURNDATASIZE PUSH0 REVERT JUMPDEST POP POP POP POP PUSH1 0x40 MLOAD RETURNDATASIZE PUSH1 0x1F NOT PUSH1 0x1F DUP3 ADD AND DUP3 ADD DUP1 PUSH1 0x40 MSTORE POP DUP2 ADD SWAP1 PUSH2 0xD23 SWAP2 SWAP1 PUSH2 0x331E JUMP JUMPDEST PUSH20 0xFFFFFFFFFFFFFFFFFFFFFFFFFFFFFFFFFFFFFFFF AND EQ PUSH2 0xD79 JUMPI PUSH1 0x40 MLOAD PUSH32 0x8C379A000000000000000000000000000000000000000000000000000000000 DUP2 MSTORE PUSH1 0x4 ADD PUSH2 0xD70 SWAP1 PUSH2 0x3393 JUMP JUMPDEST PUSH1 0x40 MLOAD DUP1 SWAP2 SUB SWAP1 REVERT JUMPDEST DUP1 DUP1 PUSH1 0x1 ADD SWAP2 POP POP PUSH2 0xC4F JUMP JUMPDEST POP PUSH0 PUSH0 PUSH2 0xD93 DUP5 DUP5 PUSH2 0x215C JUMP JUMPDEST SWAP2 POP SWAP2 POP PUSH2 0xDA4 CALLER PUSH1 0x46 DUP5 GT PUSH2 0x24BD JUMP JUMPDEST PUSH0 PUSH1 0x3 PUSH8 0xFFFFFFFFFFFFFFFF DUP2 GT ISZERO PUSH2 0xDC0 JUMPI PUSH2 0xDBF PUSH2 0x33B1 JUMP JUMPDEST JUMPDEST PUSH1 0x40 MLOAD SWAP1 DUP1 DUP3 MSTORE DUP1 PUSH1 0x20 MUL PUSH1 0x20 ADD DUP3 ADD PUSH1 0x40 MSTORE DUP1 ISZERO PUSH2 0xDEE JUMPI DUP2 PUSH1 0x20 ADD PUSH1 0x20 DUP3 MUL DUP1 CALLDATASIZE DUP4 CALLDATACOPY DUP1 DUP3 ADD SWAP2 POP POP SWAP1 POP JUMPDEST POP SWAP1 POP PUSH0 PUSH0 SWAP1 POP PUSH1 0x1 PUSH0 SWAP1 SLOAD SWAP1 PUSH2 0x100 EXP SWAP1 DIV PUSH20 0xFFFFFFFFFFFFFFFFFFFFFFFFFFFFFFFFFFFFFFFF AND PUSH20 0xFFFFFFFFFFFFFFFFFFFFFFFFFFFFFFFFFFFFFFFF AND PUSH4 0x71DEC088 CALLER PUSH1 0x3 TIMESTAMP CALLER PUSH1 0x40 MLOAD PUSH1 0x20 ADD PUSH2 0xE48 SWAP3 SWAP2 SWAP1 PUSH2 0x33DE JUMP JUMPDEST PUSH1 0x40 MLOAD PUSH1 0x20 DUP2 DUP4 SUB SUB DUP2 MSTORE SWAP1 PUSH1 0x40 MSTORE DUP1 MLOAD SWAP1 PUSH1 0x20 ADD KECCAK256 PUSH0 SHR PUSH2 0xE6A SWAP2 SWAP1 PUSH2 0x30E8 JUMP JUMPDEST PUSH1 0xFF AND PUSH1 0x2 DUP2 GT ISZERO PUSH2 0xE7F JUMPI PUSH2 0xE7E PUSH2 0x290F JUMP JUMPDEST JUMPDEST PUSH0 PUSH0 PUSH1 0x5 DUP1 PUSH1 0x6 PUSH1 0x40 MLOAD DUP9 PUSH4 0xFFFFFFFF AND PUSH1 0xE0 SHL DUP2 MSTORE PUSH1 0x4 ADD PUSH2 0xEA8 SWAP8 SWAP7 SWAP6 SWAP5 SWAP4 SWAP3 SWAP2 SWAP1 PUSH2 0x347B JUMP JUMPDEST PUSH1 0x20 PUSH1 0x40 MLOAD DUP1 DUP4 SUB DUP2 PUSH0 DUP8 GAS CALL ISZERO DUP1 ISZERO PUSH2 0xEC4 JUMPI RETURNDATASIZE PUSH0 PUSH0 RETURNDATACOPY RETURNDATASIZE PUSH0 REVERT JUMPDEST POP POP POP POP PUSH1 0x40 MLOAD RETURNDATASIZE PUSH1 0x1F NOT PUSH1 0x1F DUP3 ADD AND DUP3 ADD DUP1 PUSH1 0x40 MSTORE POP DUP2 ADD SWAP1 PUSH2 0xEE8 SWAP2 SWAP1 PUSH2 0x2FEF JUMP JUMPDEST DUP3 DUP3 DUP1 PUSH2 0xEF4 SWAP1 PUSH2 0x34E8 JUMP JUMPDEST SWAP4 POP DUP2 MLOAD DUP2 LT PUSH2 0xF07 JUMPI PUSH2 0xF06 PUSH2 0x32DD JUMP JUMPDEST JUMPDEST PUSH1 0x20 MUL PUSH1 0x20 ADD ADD DUP2 DUP2 MSTORE POP POP PUSH1 0x46 DUP5 LT PUSH2 0x103E JUMPI PUSH1 0x1 PUSH0 SWAP1 SLOAD SWAP1 PUSH2 0x100 EXP SWAP1 DIV PUSH20 0xFFFFFFFFFFFFFFFFFFFFFFFFFFFFFFFFFFFFFFFF AND PUSH20 0xFFFFFFFFFFFFFFFFFFFFFFFFFFFFFFFFFFFFFFFF AND PUSH4 0x71DEC088 CALLER PUSH1 0x3 TIMESTAMP CALLER PUSH1 0x1 PUSH1 0x40 MLOAD PUSH1 0x20 ADD PUSH2 0xF71 SWAP4 SWAP3 SWAP2 SWAP1 PUSH2 0x307F JUMP JUMPDEST PUSH1 0x40 MLOAD PUSH1 0x20 DUP2 DUP4 SUB SUB DUP2 MSTORE SWAP1 PUSH1 0x40 MSTORE DUP1 MLOAD SWAP1 PUSH1 0x20 ADD KECCAK256 PUSH0 SHR PUSH2 0xF93 SWAP2 SWAP1 PUSH2 0x30E8 JUMP JUMPDEST PUSH1 0xFF AND PUSH1 0x2 DUP2 GT ISZERO PUSH2 0xFA8 JUMPI PUSH2 0xFA7 PUSH2 0x290F JUMP JUMPDEST JUMPDEST PUSH1 0x1 DUP1 PUSH1 0x7 DUP1 PUSH1 0x7 PUSH1 0x40 MLOAD DUP9 PUSH4 0xFFFFFFFF AND PUSH1 0xE0 SHL DUP2 MSTORE PUSH1 0x4 ADD PUSH2 0xFD2 SWAP8 SWAP7 SWAP6 SWAP5 SWAP4 SWAP3 SWAP2 SWAP1 PUSH2 0x3568 JUMP JUMPDEST PUSH1 0x20 PUSH1 0x40 MLOAD DUP1 DUP4 SUB DUP2 PUSH0 DUP8 GAS CALL ISZERO DUP1 ISZERO PUSH2 0xFEE JUMPI RETURNDATASIZE PUSH0 PUSH0 RETURNDATACOPY RETURNDATASIZE PUSH0 REVERT JUMPDEST POP POP POP POP PUSH1 0x40 MLOAD RETURNDATASIZE PUSH1 0x1F NOT PUSH1 0x1F DUP3 ADD AND DUP3 ADD DUP1 PUSH1 0x40 MSTORE POP DUP2 ADD SWAP1 PUSH2 0x1012 SWAP2 SWAP1 PUSH2 0x2FEF JUMP JUMPDEST DUP3 DUP3 DUP1 PUSH2 0x101E SWAP1 PUSH2 0x34E8 JUMP JUMPDEST SWAP4 POP DUP2 MLOAD DUP2 LT PUSH2 0x1031 JUMPI PUSH2 0x1030 PUSH2 0x32DD JUMP JUMPDEST JUMPDEST PUSH1 0x20 MUL PUSH1 0x20 ADD ADD DUP2 DUP2 MSTORE POP POP JUMPDEST PUSH1 0x64 DUP5 LT ISZERO DUP1 PUSH2 0x1052 JUMPI POP PUSH1 0x2 DUP4 PUSH1 0xFF AND LT ISZERO JUMPDEST ISZERO PUSH2 0x117A JUMPI PUSH1 0x1 PUSH0 SWAP1 SLOAD SWAP1 PUSH2 0x100 EXP SWAP1 DIV PUSH20 0xFFFFFFFFFFFFFFFFFFFFFFFFFFFFFFFFFFFFFFFF AND PUSH20 0xFFFFFFFFFFFFFFFFFFFFFFFFFFFFFFFFFFFFFFFF AND PUSH4 0x71DEC088 CALLER PUSH1 0x3 TIMESTAMP CALLER PUSH1 0x2 PUSH1 0x40 MLOAD PUSH1 0x20 ADD PUSH2 0x10AD SWAP4 SWAP3 SWAP2 SWAP1 PUSH2 0x307F JUMP JUMPDEST PUSH1 0x40 MLOAD PUSH1 0x20 DUP2 DUP4 SUB SUB DUP2 MSTORE SWAP1 PUSH1 0x40 MSTORE DUP1 MLOAD SWAP1 PUSH1 0x20 ADD KECCAK256 PUSH0 SHR PUSH2 0x10CF SWAP2 SWAP1 PUSH2 0x30E8 JUMP JUMPDEST PUSH1 0xFF AND PUSH1 0x2 DUP2 GT ISZERO PUSH2 0x10E4 JUMPI PUSH2 0x10E3 PUSH2 0x290F JUMP JUMPDEST JUMPDEST PUSH1 0x2 DUP1 PUSH1 0x9 DUP1 PUSH1 0x8 PUSH1 0x40 MLOAD DUP9 PUSH4 0xFFFFFFFF AND PUSH1 0xE0 SHL DUP2 MSTORE PUSH1 0x4 ADD PUSH2 0x110E SWAP8 SWAP7 SWAP6 SWAP5 SWAP4 SWAP3 SWAP2 SWAP1 PUSH2 0x3647 JUMP JUMPDEST PUSH1 0x20 PUSH1 0x40 MLOAD DUP1 DUP4 SUB DUP2 PUSH0 DUP8 GAS CALL ISZERO DUP1 ISZERO PUSH2 0x112A JUMPI RETURNDATASIZE PUSH0 PUSH0 RETURNDATACOPY RETURNDATASIZE PUSH0 REVERT JUMPDEST POP POP POP POP PUSH1 0x40 MLOAD RETURNDATASIZE PUSH1 0x1F NOT PUSH1 0x1F DUP3 ADD AND DUP3 ADD DUP1 PUSH1 0x40 MSTORE POP DUP2 ADD SWAP1 PUSH2 0x114E SWAP2 SWAP1 PUSH2 0x2FEF JUMP JUMPDEST DUP3 DUP3 DUP1 PUSH2 0x115A SWAP1 PUSH2 0x34E8 JUMP JUMPDEST SWAP4 POP DUP2 MLOAD DUP2 LT PUSH2 0x116D JUMPI PUSH2 0x116C PUSH2 0x32DD JUMP JUMPDEST JUMPDEST PUSH1 0x20 MUL PUSH1 0x20 ADD ADD DUP2 DUP2 MSTORE POP POP JUMPDEST PUSH0 DUP2 PUSH8 0xFFFFFFFFFFFFFFFF DUP2 GT ISZERO PUSH2 0x1195 JUMPI PUSH2 0x1194 PUSH2 0x33B1 JUMP JUMPDEST JUMPDEST PUSH1 0x40 MLOAD SWAP1 DUP1 DUP3 MSTORE DUP1 PUSH1 0x20 MUL PUSH1 0x20 ADD DUP3 ADD PUSH1 0x40 MSTORE DUP1 ISZERO PUSH2 0x11C3 JUMPI DUP2 PUSH1 0x20 ADD PUSH1 0x20 DUP3 MUL DUP1 CALLDATASIZE DUP4 CALLDATACOPY DUP1 DUP3 ADD SWAP2 POP POP SWAP1 POP JUMPDEST POP SWAP1 POP PUSH0 PUSH0 SWAP1 POP JUMPDEST DUP3 DUP2 LT ISZERO PUSH2 0x1295 JUMPI DUP4 DUP2 DUP2 MLOAD DUP2 LT PUSH2 0x11E6 JUMPI PUSH2 0x11E5 PUSH2 0x32DD JUMP JUMPDEST JUMPDEST PUSH1 0x20 MUL PUSH1 0x20 ADD ADD MLOAD DUP3 DUP3 DUP2 MLOAD DUP2 LT PUSH2 0x1201 JUMPI PUSH2 0x1200 PUSH2 0x32DD JUMP JUMPDEST JUMPDEST PUSH1 0x20 MUL PUSH1 0x20 ADD ADD DUP2 DUP2 MSTORE POP POP PUSH1 0x4 PUSH0 CALLER PUSH20 0xFFFFFFFFFFFFFFFFFFFFFFFFFFFFFFFFFFFFFFFF AND PUSH20 0xFFFFFFFFFFFFFFFFFFFFFFFFFFFFFFFFFFFFFFFF AND DUP2 MSTORE PUSH1 0x20 ADD SWAP1 DUP2 MSTORE PUSH1 0x20 ADD PUSH0 KECCAK256 DUP5 DUP3 DUP2 MLOAD DUP2 LT PUSH2 0x125D JUMPI PUSH2 0x125C PUSH2 0x32DD JUMP JUMPDEST JUMPDEST PUSH1 0x20 MUL PUSH1 0x20 ADD ADD MLOAD SWAP1 DUP1 PUSH1 0x1 DUP2 SLOAD ADD DUP1 DUP3 SSTORE DUP1 SWAP2 POP POP PUSH1 0x1 SWAP1 SUB SWAP1 PUSH0 MSTORE PUSH1 0x20 PUSH0 KECCAK256 ADD PUSH0 SWAP1 SWAP2 SWAP1 SWAP2 SWAP1 SWAP2 POP SSTORE DUP1 DUP1 PUSH1 0x1 ADD SWAP2 POP POP PUSH2 0x11CB JUMP JUMPDEST POP PUSH32 0x463BF1B4B40FC1E2506AB2F4D126DADA70253D0E2E328DE4ED0CF06B91352262 CALLER DUP7 DUP4 PUSH1 0x40 MLOAD PUSH2 0x12C9 SWAP4 SWAP3 SWAP2 SWAP1 PUSH2 0x36B4 JUMP JUMPDEST PUSH1 0x40 MLOAD DUP1 SWAP2 SUB SWAP1 LOG1 POP POP POP POP POP PUSH2 0x12DE PUSH2 0x1B50 JUMP JUMPDEST POP POP JUMP JUMPDEST PUSH2 0x12EA PUSH2 0x1FB3 JUMP JUMPDEST PUSH2 0x12F2 PUSH2 0x2666 JUMP JUMPDEST JUMP JUMPDEST PUSH1 0x3 PUSH1 0x20 MSTORE DUP2 PUSH0 MSTORE PUSH1 0x40 PUSH0 KECCAK256 DUP2 PUSH1 0x5 DUP2 LT PUSH2 0x130D JUMPI PUSH0 DUP1 REVERT JUMPDEST ADD PUSH0 SWAP2 POP SWAP2 POP POP DUP1 PUSH0 ADD PUSH0 SWAP1 SLOAD SWAP1 PUSH2 0x100 EXP SWAP1 DIV PUSH1 0xFF AND SWAP1 DUP1 PUSH0 ADD PUSH1 0x1 SWAP1 SLOAD SWAP1 PUSH2 0x100 EXP SWAP1 DIV PUSH1 0xFF AND SWAP1 DUP1 PUSH0 ADD PUSH1 0x2 SWAP1 SLOAD SWAP1 PUSH2 0x100 EXP SWAP1 DIV PUSH1 0xFF AND SWAP1 DUP1 PUSH0 ADD PUSH1 0x3 SWAP1 SLOAD SWAP1 PUSH2 0x100 EXP SWAP1 DIV PUSH1 0xFF AND SWAP1 DUP1 PUSH0 ADD PUSH1 0x4 SWAP1 SLOAD SWAP1 PUSH2 0x100 EXP SWAP1 DIV PUSH1 0xFF AND SWAP1 DUP1 PUSH0 ADD PUSH1 0x5 SWAP1 SLOAD SWAP1 PUSH2 0x100 EXP SWAP1 DIV PUSH1 0xFF AND SWAP1 POP DUP7 JUMP JUMPDEST PUSH0 PUSH0 PUSH0 SWAP1 SLOAD SWAP1 PUSH2 0x100 EXP SWAP1 DIV PUSH20 0xFFFFFFFFFFFFFFFFFFFFFFFFFFFFFFFFFFFFFFFF AND SWAP1 POP SWAP1 JUMP JUMPDEST PUSH7 0x1C6BF52634000 DUP2 JUMP JUMPDEST PUSH2 0x13BD PUSH2 0x191E JUMP JUMPDEST PUSH2 0x13C5 PUSH2 0x195F JUMP JUMPDEST PUSH7 0x38D7EA4C68000 CALLVALUE EQ PUSH2 0x140E JUMPI PUSH1 0x40 MLOAD PUSH32 0x8C379A000000000000000000000000000000000000000000000000000000000 DUP2 MSTORE PUSH1 0x4 ADD PUSH2 0x1405 SWAP1 PUSH2 0x2FBD JUMP JUMPDEST PUSH1 0x40 MLOAD DUP1 SWAP2 SUB SWAP1 REVERT JUMPDEST PUSH1 0x5 DUP2 LT PUSH2 0x1451 JUMPI PUSH1 0x40 MLOAD PUSH32 0x8C379A000000000000000000000000000000000000000000000000000000000 DUP2 MSTORE PUSH1 0x4 ADD PUSH2 0x1448 SWAP1 PUSH2 0x373A JUMP JUMPDEST PUSH1 0x40 MLOAD DUP1 SWAP2 SUB SWAP1 REVERT JUMPDEST PUSH0 PUSH1 0x3 PUSH0 CALLER PUSH20 0xFFFFFFFFFFFFFFFFFFFFFFFFFFFFFFFFFFFFFFFF AND PUSH20 0xFFFFFFFFFFFFFFFFFFFFFFFFFFFFFFFFFFFFFFFF AND DUP2 MSTORE PUSH1 0x20 ADD SWAP1 DUP2 MSTORE PUSH1 0x20 ADD PUSH0 KECCAK256 DUP3 PUSH1 0x5 DUP2 LT PUSH2 0x14A1 JUMPI PUSH2 0x14A0 PUSH2 0x32DD JUMP JUMPDEST JUMPDEST ADD PUSH1 0x40 MLOAD DUP1 PUSH1 0xC0 ADD PUSH1 0x40 MSTORE SWAP1 DUP2 PUSH0 DUP3 ADD PUSH0 SWAP1 SLOAD SWAP1 PUSH2 0x100 EXP SWAP1 DIV PUSH1 0xFF AND PUSH1 0x2 DUP2 GT ISZERO PUSH2 0x14D0 JUMPI PUSH2 0x14CF PUSH2 0x290F JUMP JUMPDEST JUMPDEST PUSH1 0x2 DUP2 GT ISZERO PUSH2 0x14E2 JUMPI PUSH2 0x14E1 PUSH2 0x290F JUMP JUMPDEST JUMPDEST DUP2 MSTORE PUSH1 0x20 ADD PUSH0 DUP3 ADD PUSH1 0x1 SWAP1 SLOAD SWAP1 PUSH2 0x100 EXP SWAP1 DIV PUSH1 0xFF AND PUSH1 0x2 DUP2 GT ISZERO PUSH2 0x150A JUMPI PUSH2 0x1509 PUSH2 0x290F JUMP JUMPDEST JUMPDEST PUSH1 0x2 DUP2 GT ISZERO PUSH2 0x151C JUMPI PUSH2 0x151B PUSH2 0x290F JUMP JUMPDEST JUMPDEST DUP2 MSTORE PUSH1 0x20 ADD PUSH0 DUP3 ADD PUSH1 0x2 SWAP1 SLOAD SWAP1 PUSH2 0x100 EXP SWAP1 DIV PUSH1 0xFF AND PUSH1 0x3 DUP2 GT ISZERO PUSH2 0x1544 JUMPI PUSH2 0x1543 PUSH2 0x290F JUMP JUMPDEST JUMPDEST PUSH1 0x3 DUP2 GT ISZERO PUSH2 0x1556 JUMPI PUSH2 0x1555 PUSH2 0x290F JUMP JUMPDEST JUMPDEST DUP2 MSTORE PUSH1 0x20 ADD PUSH0 DUP3 ADD PUSH1 0x3 SWAP1 SLOAD SWAP1 PUSH2 0x100 EXP SWAP1 DIV PUSH1 0xFF AND PUSH1 0xFF AND PUSH1 0xFF AND DUP2 MSTORE PUSH1 0x20 ADD PUSH0 DUP3 ADD PUSH1 0x4 SWAP1 SLOAD SWAP1 PUSH2 0x100 EXP SWAP1 DIV PUSH1 0xFF AND PUSH1 0xFF AND PUSH1 0xFF AND DUP2 MSTORE PUSH1 0x20 ADD PUSH0 DUP3 ADD PUSH1 0x5 SWAP1 SLOAD SWAP1 PUSH2 0x100 EXP SWAP1 DIV PUSH1 0xFF AND PUSH1 0xFF AND PUSH1 0xFF AND DUP2 MSTORE POP POP SWAP1 POP PUSH0 DUP2 PUSH1 0x60 ADD MLOAD PUSH1 0xFF AND GT PUSH2 0x15F9 JUMPI PUSH1 0x40 MLOAD PUSH32 0x8C379A000000000000000000000000000000000000000000000000000000000 DUP2 MSTORE PUSH1 0x4 ADD PUSH2 0x15F0 SWAP1 PUSH2 0x37A2 JUMP JUMPDEST PUSH1 0x40 MLOAD DUP1 SWAP2 SUB SWAP1 REVERT JUMPDEST PUSH0 PUSH1 0x1 PUSH0 SWAP1 SLOAD SWAP1 PUSH2 0x100 EXP SWAP1 DIV PUSH20 0xFFFFFFFFFFFFFFFFFFFFFFFFFFFFFFFFFFFFFFFF AND PUSH20 0xFFFFFFFFFFFFFFFFFFFFFFFFFFFFFFFFFFFFFFFF AND PUSH4 0x71DEC088 CALLER DUP5 PUSH0 ADD MLOAD DUP6 PUSH1 0x20 ADD MLOAD DUP7 PUSH1 0x40 ADD MLOAD DUP8 PUSH1 0x60 ADD MLOAD DUP9 PUSH1 0x80 ADD MLOAD DUP10 PUSH1 0xA0 ADD MLOAD PUSH1 0x40 MLOAD DUP9 PUSH4 0xFFFFFFFF AND PUSH1 0xE0 SHL DUP2 MSTORE PUSH1 0x4 ADD PUSH2 0x1677 SWAP8 SWAP7 SWAP6 SWAP5 SWAP4 SWAP3 SWAP2 SWAP1 PUSH2 0x3179 JUMP JUMPDEST PUSH1 0x20 PUSH1 0x40 MLOAD DUP1 DUP4 SUB DUP2 PUSH0 DUP8 GAS CALL ISZERO DUP1 ISZERO PUSH2 0x1693 JUMPI RETURNDATASIZE PUSH0 PUSH0 RETURNDATACOPY RETURNDATASIZE PUSH0 REVERT JUMPDEST POP POP POP POP PUSH1 0x40 MLOAD RETURNDATASIZE PUSH1 0x1F NOT PUSH1 0x1F DUP3 ADD AND DUP3 ADD DUP1 PUSH1 0x40 MSTORE POP DUP2 ADD SWAP1 PUSH2 0x16B7 SWAP2 SWAP1 PUSH2 0x2FEF JUMP JUMPDEST SWAP1 POP PUSH1 0x4 PUSH0 CALLER PUSH20 0xFFFFFFFFFFFFFFFFFFFFFFFFFFFFFFFFFFFFFFFF AND PUSH20 0xFFFFFFFFFFFFFFFFFFFFFFFFFFFFFFFFFFFFFFFF AND DUP2 MSTORE PUSH1 0x20 ADD SWAP1 DUP2 MSTORE PUSH1 0x20 ADD PUSH0 KECCAK256 DUP2 SWAP1 DUP1 PUSH1 0x1 DUP2 SLOAD ADD DUP1 DUP3 SSTORE DUP1 SWAP2 POP POP PUSH1 0x1 SWAP1 SUB SWAP1 PUSH0 MSTORE PUSH1 0x20 PUSH0 KECCAK256 ADD PUSH0 SWAP1 SWAP2 SWAP1 SWAP2 SWAP1 SWAP2 POP SSTORE PUSH1 0x3 PUSH0 CALLER PUSH20 0xFFFFFFFFFFFFFFFFFFFFFFFFFFFFFFFFFFFFFFFF AND PUSH20 0xFFFFFFFFFFFFFFFFFFFFFFFFFFFFFFFFFFFFFFFF AND DUP2 MSTORE PUSH1 0x20 ADD SWAP1 DUP2 MSTORE PUSH1 0x20 ADD PUSH0 KECCAK256 DUP4 PUSH1 0x5 DUP2 LT PUSH2 0x1769 JUMPI PUSH2 0x1768 PUSH2 0x32DD JUMP JUMPDEST JUMPDEST ADD PUSH0 PUSH0 DUP3 ADD PUSH0 PUSH2 0x100 EXP DUP2 SLOAD SWAP1 PUSH1 0xFF MUL NOT AND SWAP1 SSTORE PUSH0 DUP3 ADD PUSH1 0x1 PUSH2 0x100 EXP DUP2 SLOAD SWAP1 PUSH1 0xFF MUL NOT AND SWAP1 SSTORE PUSH0 DUP3 ADD PUSH1 0x2 PUSH2 0x100 EXP DUP2 SLOAD SWAP1 PUSH1 0xFF MUL NOT AND SWAP1 SSTORE PUSH0 DUP3 ADD PUSH1 0x3 PUSH2 0x100 EXP DUP2 SLOAD SWAP1 PUSH1 0xFF MUL NOT AND SWAP1 SSTORE PUSH0 DUP3 ADD PUSH1 0x4 PUSH2 0x100 EXP DUP2 SLOAD SWAP1 PUSH1 0xFF MUL NOT AND SWAP1 SSTORE PUSH0 DUP3 ADD PUSH1 0x5 PUSH2 0x100 EXP DUP2 SLOAD SWAP1 PUSH1 0xFF MUL NOT AND SWAP1 SSTORE POP POP PUSH2 0x17E7 CALLER PUSH2 0x19ED JUMP JUMPDEST PUSH32 0xDDED256C7E86A19D1BE0F3168D1EC8D5CFC9C713C96BDC10DEFADD014692CF92 CALLER DUP3 PUSH1 0x40 MLOAD PUSH2 0x1818 SWAP3 SWAP2 SWAP1 PUSH2 0x31E6 JUMP JUMPDEST PUSH1 0x40 MLOAD DUP1 SWAP2 SUB SWAP1 LOG1 POP POP PUSH2 0x182A PUSH2 0x1B50 JUMP JUMPDEST POP JUMP JUMPDEST PUSH1 0x1 PUSH0 SWAP1 SLOAD SWAP1 PUSH2 0x100 EXP SWAP1 DIV PUSH20 0xFFFFFFFFFFFFFFFFFFFFFFFFFFFFFFFFFFFFFFFF AND DUP2 JUMP JUMPDEST PUSH1 0x2 PUSH1 0x20 MSTORE DUP1 PUSH0 MSTORE PUSH1 0x40 PUSH0 KECCAK256 PUSH0 SWAP2 POP SWAP1 POP DUP1 PUSH0 ADD PUSH0 SWAP1 SLOAD SWAP1 PUSH2 0x100 EXP SWAP1 DIV PUSH2 0xFFFF AND SWAP1 DUP1 PUSH0 ADD PUSH1 0x2 SWAP1 SLOAD SWAP1 PUSH2 0x100 EXP SWAP1 DIV PUSH4 0xFFFFFFFF AND SWAP1 DUP1 PUSH1 0x1 ADD SLOAD SWAP1 DUP1 PUSH1 0x2 ADD SLOAD SWAP1 POP DUP5 JUMP JUMPDEST PUSH2 0x18A2 PUSH2 0x1FB3 JUMP JUMPDEST PUSH0 PUSH20 0xFFFFFFFFFFFFFFFFFFFFFFFFFFFFFFFFFFFFFFFF AND DUP2 PUSH20 0xFFFFFFFFFFFFFFFFFFFFFFFFFFFFFFFFFFFFFFFF AND SUB PUSH2 0x1912 JUMPI PUSH0 PUSH1 0x40 MLOAD PUSH32 0x1E4FBDF700000000000000000000000000000000000000000000000000000000 DUP2 MSTORE PUSH1 0x4 ADD PUSH2 0x1909 SWAP2 SWAP1 PUSH2 0x2E2E JUMP JUMPDEST PUSH1 0x40 MLOAD DUP1 SWAP2 SUB SWAP1 REVERT JUMPDEST PUSH2 0x191B DUP2 PUSH2 0x209B JUMP JUMPDEST POP JUMP JUMPDEST PUSH2 0x1926 PUSH2 0xAD2 JUMP JUMPDEST ISZERO PUSH2 0x195D JUMPI PUSH1 0x40 MLOAD PUSH32 0xD93C066500000000000000000000000000000000000000000000000000000000 DUP2 MSTORE PUSH1 0x4 ADD PUSH1 0x40 MLOAD DUP1 SWAP2 SUB SWAP1 REVERT JUMPDEST JUMP JUMPDEST PUSH2 0x1967 PUSH2 0x26C8 JUMP JUMPDEST PUSH1 0x2 PUSH2 0x1979 PUSH2 0x1974 PUSH2 0x2709 JUMP JUMPDEST PUSH2 0x2732 JUMP JUMPDEST PUSH0 ADD DUP2 SWAP1 SSTORE POP JUMP JUMPDEST PUSH0 PUSH0 PUSH1 0x64 DUP5 DUP5 PUSH1 0x40 MLOAD PUSH1 0x20 ADD PUSH2 0x1998 SWAP3 SWAP2 SWAP1 PUSH2 0x37C0 JUMP JUMPDEST PUSH1 0x40 MLOAD PUSH1 0x20 DUP2 DUP4 SUB SUB DUP2 MSTORE SWAP1 PUSH1 0x40 MSTORE DUP1 MLOAD SWAP1 PUSH1 0x20 ADD KECCAK256 PUSH0 SHR PUSH2 0x19BA SWAP2 SWAP1 PUSH2 0x30E8 JUMP JUMPDEST SWAP1 POP PUSH1 0x41 DUP2 LT ISZERO PUSH2 0x19CE JUMPI PUSH0 SWAP2 POP POP PUSH2 0x19E7 JUMP JUMPDEST PUSH1 0x5A DUP2 LT ISZERO PUSH2 0x19E1 JUMPI PUSH1 0x1 SWAP2 POP POP PUSH2 0x19E7 JUMP JUMPDEST PUSH1 0x2 SWAP2 POP POP JUMPDEST SWAP3 SWAP2 POP POP JUMP JUMPDEST PUSH0 PUSH1 0x2 PUSH0 DUP4 PUSH20 0xFFFFFFFFFFFFFFFFFFFFFFFFFFFFFFFFFFFFFFFF AND PUSH20 0xFFFFFFFFFFFFFFFFFFFFFFFFFFFFFFFFFFFFFFFF AND DUP2 MSTORE PUSH1 0x20 ADD SWAP1 DUP2 MSTORE PUSH1 0x20 ADD PUSH0 KECCAK256 SWAP1 POP PUSH0 DUP2 PUSH0 ADD PUSH0 SWAP1 SLOAD SWAP1 PUSH2 0x100 EXP SWAP1 DIV PUSH2 0xFFFF AND PUSH2 0xFFFF AND SUB PUSH2 0x1A67 JUMPI PUSH1 0x1 DUP2 PUSH0 ADD PUSH0 PUSH2 0x100 EXP DUP2 SLOAD DUP2 PUSH2 0xFFFF MUL NOT AND SWAP1 DUP4 PUSH2 0xFFFF AND MUL OR SWAP1 SSTORE POP JUMPDEST PUSH1 0xA DUP2 PUSH0 ADD PUSH1 0x2 DUP3 DUP3 DUP3 SWAP1 SLOAD SWAP1 PUSH2 0x100 EXP SWAP1 DIV PUSH4 0xFFFFFFFF AND PUSH2 0x1A8A SWAP2 SWAP1 PUSH2 0x37EB JUMP JUMPDEST SWAP3 POP PUSH2 0x100 EXP DUP2 SLOAD DUP2 PUSH4 0xFFFFFFFF MUL NOT AND SWAP1 DUP4 PUSH4 0xFFFFFFFF AND MUL OR SWAP1 SSTORE POP PUSH1 0x64 DUP2 PUSH0 ADD PUSH0 SWAP1 SLOAD SWAP1 PUSH2 0x100 EXP SWAP1 DIV PUSH2 0xFFFF AND PUSH2 0xFFFF AND PUSH2 0x1AC9 SWAP2 SWAP1 PUSH2 0x3822 JUMP JUMPDEST PUSH4 0xFFFFFFFF AND DUP2 PUSH0 ADD PUSH1 0x2 SWAP1 SLOAD SWAP1 PUSH2 0x100 EXP SWAP1 DIV PUSH4 0xFFFFFFFF AND PUSH4 0xFFFFFFFF AND LT PUSH2 0x1B4C JUMPI DUP1 PUSH0 ADD PUSH0 DUP2 DUP2 SWAP1 SLOAD SWAP1 PUSH2 0x100 EXP SWAP1 DIV PUSH2 0xFFFF AND DUP1 SWAP3 SWAP2 SWAP1 PUSH2 0x1B0E SWAP1 PUSH2 0x385E JUMP JUMPDEST SWAP2 SWAP1 PUSH2 0x100 EXP DUP2 SLOAD DUP2 PUSH2 0xFFFF MUL NOT AND SWAP1 DUP4 PUSH2 0xFFFF AND MUL OR SWAP1 SSTORE POP POP PUSH0 DUP2 PUSH0 ADD PUSH1 0x2 PUSH2 0x100 EXP DUP2 SLOAD DUP2 PUSH4 0xFFFFFFFF MUL NOT AND SWAP1 DUP4 PUSH4 0xFFFFFFFF AND MUL OR SWAP1 SSTORE POP JUMPDEST POP POP JUMP JUMPDEST PUSH1 0x1 PUSH2 0x1B62 PUSH2 0x1B5D PUSH2 0x2709 JUMP JUMPDEST PUSH2 0x2732 JUMP JUMPDEST PUSH0 ADD DUP2 SWAP1 SSTORE POP JUMP JUMPDEST PUSH0 TIMESTAMP DUP3 PUSH1 0x1 PUSH0 SWAP1 SLOAD SWAP1 PUSH2 0x100 EXP SWAP1 DIV PUSH20 0xFFFFFFFFFFFFFFFFFFFFFFFFFFFFFFFFFFFFFFFF AND PUSH20 0xFFFFFFFFFFFFFFFFFFFFFFFFFFFFFFFFFFFFFFFF AND PUSH4 0x18160DDD PUSH1 0x40 MLOAD DUP2 PUSH4 0xFFFFFFFF AND PUSH1 0xE0 SHL DUP2 MSTORE PUSH1 0x4 ADD PUSH1 0x20 PUSH1 0x40 MLOAD DUP1 DUP4 SUB DUP2 DUP7 GAS STATICCALL ISZERO DUP1 ISZERO PUSH2 0x1BD7 JUMPI RETURNDATASIZE PUSH0 PUSH0 RETURNDATACOPY RETURNDATASIZE PUSH0 REVERT JUMPDEST POP POP POP POP PUSH1 0x40 MLOAD RETURNDATASIZE PUSH1 0x1F NOT PUSH1 0x1F DUP3 ADD AND DUP3 ADD DUP1 PUSH1 0x40 MSTORE POP DUP2 ADD SWAP1 PUSH2 0x1BFB SWAP2 SWAP1 PUSH2 0x2FEF JUMP JUMPDEST PREVRANDAO PUSH1 0x40 MLOAD PUSH1 0x20 ADD PUSH2 0x1C0F SWAP5 SWAP4 SWAP3 SWAP2 SWAP1 PUSH2 0x3887 JUMP JUMPDEST PUSH1 0x40 MLOAD PUSH1 0x20 DUP2 DUP4 SUB SUB DUP2 MSTORE SWAP1 PUSH1 0x40 MSTORE DUP1 MLOAD SWAP1 PUSH1 0x20 ADD KECCAK256 PUSH0 SHR SWAP1 POP PUSH0 PUSH0 SWAP1 POP JUMPDEST PUSH1 0x5 DUP2 LT ISZERO PUSH2 0x1FAE JUMPI PUSH0 PUSH1 0x3 PUSH1 0x8 DUP4 PUSH2 0x1C47 SWAP2 SWAP1 PUSH2 0x38D4 JUMP JUMPDEST DUP5 SWAP1 SHR PUSH2 0x1C54 SWAP2 SWAP1 PUSH2 0x30E8 JUMP JUMPDEST PUSH1 0xFF AND PUSH1 0x2 DUP2 GT ISZERO PUSH2 0x1C69 JUMPI PUSH2 0x1C68 PUSH2 0x290F JUMP JUMPDEST JUMPDEST SWAP1 POP PUSH0 PUSH2 0x1C76 DUP5 DUP5 PUSH2 0x1981 JUMP JUMPDEST SWAP1 POP PUSH0 PUSH1 0x4 PUSH1 0x8 PUSH1 0x10 DUP7 PUSH2 0x1C8A SWAP2 SWAP1 PUSH2 0x38D4 JUMP JUMPDEST PUSH2 0x1C94 SWAP2 SWAP1 PUSH2 0x3915 JUMP JUMPDEST DUP7 SWAP1 SHR PUSH2 0x1CA1 SWAP2 SWAP1 PUSH2 0x30E8 JUMP JUMPDEST PUSH1 0xFF AND PUSH1 0x3 DUP2 GT ISZERO PUSH2 0x1CB6 JUMPI PUSH2 0x1CB5 PUSH2 0x290F JUMP JUMPDEST JUMPDEST SWAP1 POP PUSH0 PUSH1 0x5 PUSH1 0x18 DUP7 PUSH2 0x1CC8 SWAP2 SWAP1 PUSH2 0x38D4 JUMP JUMPDEST DUP8 SWAP1 SHR PUSH2 0x1CD5 SWAP2 SWAP1 PUSH2 0x30E8 JUMP JUMPDEST PUSH1 0x4 PUSH2 0x1CE1 SWAP2 SWAP1 PUSH2 0x3145 JUMP JUMPDEST SWAP1 POP PUSH0 PUSH1 0x5 PUSH1 0x20 DUP8 PUSH2 0x1CF3 SWAP2 SWAP1 PUSH2 0x38D4 JUMP JUMPDEST DUP9 SWAP1 SHR PUSH2 0x1D00 SWAP2 SWAP1 PUSH2 0x30E8 JUMP JUMPDEST PUSH1 0x4 PUSH2 0x1D0C SWAP2 SWAP1 PUSH2 0x3145 JUMP JUMPDEST SWAP1 POP PUSH0 PUSH1 0x5 PUSH1 0x28 DUP9 PUSH2 0x1D1E SWAP2 SWAP1 PUSH2 0x38D4 JUMP JUMPDEST DUP10 SWAP1 SHR PUSH2 0x1D2B SWAP2 SWAP1 PUSH2 0x30E8 JUMP JUMPDEST PUSH1 0x4 PUSH2 0x1D37 SWAP2 SWAP1 PUSH2 0x3145 JUMP JUMPDEST SWAP1 POP PUSH1 0x1 PUSH1 0x2 DUP2 GT ISZERO PUSH2 0x1D4D JUMPI PUSH2 0x1D4C PUSH2 0x290F JUMP JUMPDEST JUMPDEST DUP6 PUSH1 0x2 DUP2 GT ISZERO PUSH2 0x1D60 JUMPI PUSH2 0x1D5F PUSH2 0x290F JUMP JUMPDEST JUMPDEST SUB PUSH2 0x1D97 JUMPI PUSH1 0x2 DUP4 PUSH2 0x1D72 SWAP2 SWAP1 PUSH2 0x3145 JUMP JUMPDEST SWAP3 POP PUSH1 0x1 DUP3 PUSH2 0x1D81 SWAP2 SWAP1 PUSH2 0x3145 JUMP JUMPDEST SWAP2 POP PUSH1 0x1 DUP2 PUSH2 0x1D90 SWAP2 SWAP1 PUSH2 0x3145 JUMP JUMPDEST SWAP1 POP PUSH2 0x1DF1 JUMP JUMPDEST PUSH1 0x2 DUP1 DUP2 GT ISZERO PUSH2 0x1DAA JUMPI PUSH2 0x1DA9 PUSH2 0x290F JUMP JUMPDEST JUMPDEST DUP6 PUSH1 0x2 DUP2 GT ISZERO PUSH2 0x1DBD JUMPI PUSH2 0x1DBC PUSH2 0x290F JUMP JUMPDEST JUMPDEST SUB PUSH2 0x1DF0 JUMPI PUSH1 0x3 DUP4 PUSH2 0x1DCF SWAP2 SWAP1 PUSH2 0x3145 JUMP JUMPDEST SWAP3 POP PUSH1 0x3 DUP3 PUSH2 0x1DDE SWAP2 SWAP1 PUSH2 0x3145 JUMP JUMPDEST SWAP2 POP PUSH1 0x2 DUP2 PUSH2 0x1DED SWAP2 SWAP1 PUSH2 0x3145 JUMP JUMPDEST SWAP1 POP JUMPDEST JUMPDEST PUSH1 0x40 MLOAD DUP1 PUSH1 0xC0 ADD PUSH1 0x40 MSTORE DUP1 DUP8 PUSH1 0x2 DUP2 GT ISZERO PUSH2 0x1E0F JUMPI PUSH2 0x1E0E PUSH2 0x290F JUMP JUMPDEST JUMPDEST DUP2 MSTORE PUSH1 0x20 ADD DUP7 PUSH1 0x2 DUP2 GT ISZERO PUSH2 0x1E27 JUMPI PUSH2 0x1E26 PUSH2 0x290F JUMP JUMPDEST JUMPDEST DUP2 MSTORE PUSH1 0x20 ADD DUP6 PUSH1 0x3 DUP2 GT ISZERO PUSH2 0x1E3F JUMPI PUSH2 0x1E3E PUSH2 0x290F JUMP JUMPDEST JUMPDEST DUP2 MSTORE PUSH1 0x20 ADD DUP5 PUSH1 0xFF AND DUP2 MSTORE PUSH1 0x20 ADD DUP4 PUSH1 0xFF AND DUP2 MSTORE PUSH1 0x20 ADD DUP3 PUSH1 0xFF AND DUP2 MSTORE POP PUSH1 0x3 PUSH0 DUP12 PUSH20 0xFFFFFFFFFFFFFFFFFFFFFFFFFFFFFFFFFFFFFFFF AND PUSH20 0xFFFFFFFFFFFFFFFFFFFFFFFFFFFFFFFFFFFFFFFF AND DUP2 MSTORE PUSH1 0x20 ADD SWAP1 DUP2 MSTORE PUSH1 0x20 ADD PUSH0 KECCAK256 DUP9 PUSH1 0x5 DUP2 LT PUSH2 0x1EAC JUMPI PUSH2 0x1EAB PUSH2 0x32DD JUMP JUMPDEST JUMPDEST ADD PUSH0 DUP3 ADD MLOAD DUP2 PUSH0 ADD PUSH0 PUSH2 0x100 EXP DUP2 SLOAD DUP2 PUSH1 0xFF MUL NOT AND SWAP1 DUP4 PUSH1 0x2 DUP2 GT ISZERO PUSH2 0x1ED5 JUMPI PUSH2 0x1ED4 PUSH2 0x290F JUMP JUMPDEST JUMPDEST MUL OR SWAP1 SSTORE POP PUSH1 0x20 DUP3 ADD MLOAD DUP2 PUSH0 ADD PUSH1 0x1 PUSH2 0x100 EXP DUP2 SLOAD DUP2 PUSH1 0xFF MUL NOT AND SWAP1 DUP4 PUSH1 0x2 DUP2 GT ISZERO PUSH2 0x1F04 JUMPI PUSH2 0x1F03 PUSH2 0x290F JUMP JUMPDEST JUMPDEST MUL OR SWAP1 SSTORE POP PUSH1 0x40 DUP3 ADD MLOAD DUP2 PUSH0 ADD PUSH1 0x2 PUSH2 0x100 EXP DUP2 SLOAD DUP2 PUSH1 0xFF MUL NOT AND SWAP1 DUP4 PUSH1 0x3 DUP2 GT ISZERO PUSH2 0x1F33 JUMPI PUSH2 0x1F32 PUSH2 0x290F JUMP JUMPDEST JUMPDEST MUL OR SWAP1 SSTORE POP PUSH1 0x60 DUP3 ADD MLOAD DUP2 PUSH0 ADD PUSH1 0x3 PUSH2 0x100 EXP DUP2 SLOAD DUP2 PUSH1 0xFF MUL NOT AND SWAP1 DUP4 PUSH1 0xFF AND MUL OR SWAP1 SSTORE POP PUSH1 0x80 DUP3 ADD MLOAD DUP2 PUSH0 ADD PUSH1 0x4 PUSH2 0x100 EXP DUP2 SLOAD DUP2 PUSH1 0xFF MUL NOT AND SWAP1 DUP4 PUSH1 0xFF AND MUL OR SWAP1 SSTORE POP PUSH1 0xA0 DUP3 ADD MLOAD DUP2 PUSH0 ADD PUSH1 0x5 PUSH2 0x100 EXP DUP2 SLOAD DUP2 PUSH1 0xFF MUL NOT AND SWAP1 DUP4 PUSH1 0xFF AND MUL OR SWAP1 SSTORE POP SWAP1 POP POP POP POP POP POP POP POP DUP1 DUP1 PUSH1 0x1 ADD SWAP2 POP POP PUSH2 0x1C2E JUMP JUMPDEST POP POP POP JUMP JUMPDEST PUSH2 0x1FBB PUSH2 0x273B JUMP JUMPDEST PUSH20 0xFFFFFFFFFFFFFFFFFFFFFFFFFFFFFFFFFFFFFFFF AND PUSH2 0x1FD9 PUSH2 0x1383 JUMP JUMPDEST PUSH20 0xFFFFFFFFFFFFFFFFFFFFFFFFFFFFFFFFFFFFFFFF AND EQ PUSH2 0x2038 JUMPI PUSH2 0x1FFC PUSH2 0x273B JUMP JUMPDEST PUSH1 0x40 MLOAD PUSH32 0x118CDAA700000000000000000000000000000000000000000000000000000000 DUP2 MSTORE PUSH1 0x4 ADD PUSH2 0x202F SWAP2 SWAP1 PUSH2 0x2E2E JUMP JUMPDEST PUSH1 0x40 MLOAD DUP1 SWAP2 SUB SWAP1 REVERT JUMPDEST JUMP JUMPDEST PUSH2 0x2042 PUSH2 0x2742 JUMP JUMPDEST PUSH0 PUSH0 PUSH1 0x14 PUSH2 0x100 EXP DUP2 SLOAD DUP2 PUSH1 0xFF MUL NOT AND SWAP1 DUP4 ISZERO ISZERO MUL OR SWAP1 SSTORE POP PUSH32 0x5DB9EE0A495BF2E6FF9C91A7834C1BA4FDD244A5E8AA4E537BD38AEAE4B073AA PUSH2 0x2084 PUSH2 0x273B JUMP JUMPDEST PUSH1 0x40 MLOAD PUSH2 0x2091 SWAP2 SWAP1 PUSH2 0x2E2E JUMP JUMPDEST PUSH1 0x40 MLOAD DUP1 SWAP2 SUB SWAP1 LOG1 JUMP JUMPDEST PUSH0 PUSH0 PUSH0 SWAP1 SLOAD SWAP1 PUSH2 0x100 EXP SWAP1 DIV PUSH20 0xFFFFFFFFFFFFFFFFFFFFFFFFFFFFFFFFFFFFFFFF AND SWAP1 POP DUP2 PUSH0 PUSH0 PUSH2 0x100 EXP DUP2 SLOAD DUP2 PUSH20 0xFFFFFFFFFFFFFFFFFFFFFFFFFFFFFFFFFFFFFFFF MUL NOT AND SWAP1 DUP4 PUSH20 0xFFFFFFFFFFFFFFFFFFFFFFFFFFFFFFFFFFFFFFFF AND MUL OR SWAP1 SSTORE POP DUP2 PUSH20 0xFFFFFFFFFFFFFFFFFFFFFFFFFFFFFFFFFFFFFFFF AND DUP2 PUSH20 0xFFFFFFFFFFFFFFFFFFFFFFFFFFFFFFFFFFFFFFFF AND PUSH32 0x8BE0079C531659141344CD1FD0A4F28419497F9722A3DAAFE3B4186F6B6457E0 PUSH1 0x40 MLOAD PUSH1 0x40 MLOAD DUP1 SWAP2 SUB SWAP1 LOG3 POP POP JUMP JUMPDEST PUSH0 PUSH0 PUSH0 PUSH0 SWAP1 POP PUSH0 PUSH0 SWAP1 POP PUSH0 PUSH0 SWAP1 POP PUSH2 0x2172 PUSH2 0x27CB JUMP JUMPDEST PUSH0 PUSH0 SWAP1 POP JUMPDEST DUP9 DUP9 SWAP1 POP DUP2 LT ISZERO PUSH2 0x22CB JUMPI PUSH0 PUSH1 0x1 PUSH0 SWAP1 SLOAD SWAP1 PUSH2 0x100 EXP SWAP1 DIV PUSH20 0xFFFFFFFFFFFFFFFFFFFFFFFFFFFFFFFFFFFFFFFF AND PUSH20 0xFFFFFFFFFFFFFFFFFFFFFFFFFFFFFFFFFFFFFFFF AND PUSH4 0x1655BFBE DUP12 DUP12 DUP6 DUP2 DUP2 LT PUSH2 0x21D3 JUMPI PUSH2 0x21D2 PUSH2 0x32DD JUMP JUMPDEST JUMPDEST SWAP1 POP PUSH1 0x20 MUL ADD CALLDATALOAD PUSH1 0x40 MLOAD DUP3 PUSH4 0xFFFFFFFF AND PUSH1 0xE0 SHL DUP2 MSTORE PUSH1 0x4 ADD PUSH2 0x21F6 SWAP2 SWAP1 PUSH2 0x2BB5 JUMP JUMPDEST PUSH1 0xC0 PUSH1 0x40 MLOAD DUP1 DUP4 SUB DUP2 DUP7 GAS STATICCALL ISZERO DUP1 ISZERO PUSH2 0x2211 JUMPI RETURNDATASIZE PUSH0 PUSH0 RETURNDATACOPY RETURNDATASIZE PUSH0 REVERT JUMPDEST POP POP POP POP PUSH1 0x40 MLOAD RETURNDATASIZE PUSH1 0x1F NOT PUSH1 0x1F DUP3 ADD AND DUP3 ADD DUP1 PUSH1 0x40 MSTORE POP DUP2 ADD SWAP1 PUSH2 0x2235 SWAP2 SWAP1 PUSH2 0x3AD7 JUMP JUMPDEST SWAP1 POP DUP1 PUSH1 0x60 ADD MLOAD PUSH1 0xFF AND DUP7 PUSH2 0x224A SWAP2 SWAP1 PUSH2 0x3915 JUMP JUMPDEST SWAP6 POP DUP1 PUSH1 0x80 ADD MLOAD PUSH1 0xFF AND DUP6 PUSH2 0x225F SWAP2 SWAP1 PUSH2 0x3915 JUMP JUMPDEST SWAP5 POP DUP1 PUSH1 0xA0 ADD MLOAD PUSH1 0xFF AND DUP5 PUSH2 0x2274 SWAP2 SWAP1 PUSH2 0x3915 JUMP JUMPDEST SWAP4 POP DUP3 DUP2 PUSH0 ADD MLOAD PUSH1 0x2 DUP2 GT ISZERO PUSH2 0x228D JUMPI PUSH2 0x228C PUSH2 0x290F JUMP JUMPDEST JUMPDEST PUSH1 0xFF AND PUSH1 0x3 DUP2 LT PUSH2 0x22A1 JUMPI PUSH2 0x22A0 PUSH2 0x32DD JUMP JUMPDEST JUMPDEST PUSH1 0x20 MUL ADD DUP1 MLOAD DUP1 SWAP2 SWAP1 PUSH2 0x22B3 SWAP1 PUSH2 0x3B02 JUMP JUMPDEST PUSH1 0xFF AND PUSH1 0xFF AND DUP2 MSTORE POP POP POP DUP1 DUP1 PUSH1 0x1 ADD SWAP2 POP POP PUSH2 0x2177 JUMP JUMPDEST POP PUSH0 SWAP5 POP PUSH1 0x3 DUP2 PUSH0 PUSH1 0x2 DUP2 GT ISZERO PUSH2 0x22E5 JUMPI PUSH2 0x22E4 PUSH2 0x290F JUMP JUMPDEST JUMPDEST PUSH1 0xFF AND PUSH1 0x3 DUP2 LT PUSH2 0x22F9 JUMPI PUSH2 0x22F8 PUSH2 0x32DD JUMP JUMPDEST JUMPDEST PUSH1 0x20 MUL ADD MLOAD PUSH1 0xFF AND LT PUSH2 0x2330 JUMPI PUSH1 0x64 PUSH1 0x82 DUP5 PUSH2 0x2315 SWAP2 SWAP1 PUSH2 0x38D4 JUMP JUMPDEST PUSH2 0x231F SWAP2 SWAP1 PUSH2 0x3B2A JUMP JUMPDEST SWAP3 POP DUP5 DUP1 PUSH2 0x232C SWAP1 PUSH2 0x3B02 JUMP JUMPDEST SWAP6 POP POP JUMPDEST PUSH1 0x3 DUP2 PUSH1 0x1 PUSH1 0x2 DUP2 GT ISZERO PUSH2 0x2347 JUMPI PUSH2 0x2346 PUSH2 0x290F JUMP JUMPDEST JUMPDEST PUSH1 0xFF AND PUSH1 0x3 DUP2 LT PUSH2 0x235B JUMPI PUSH2 0x235A PUSH2 0x32DD JUMP JUMPDEST JUMPDEST PUSH1 0x20 MUL ADD MLOAD PUSH1 0xFF AND LT PUSH2 0x2392 JUMPI PUSH1 0x64 PUSH1 0x91 DUP6 PUSH2 0x2377 SWAP2 SWAP1 PUSH2 0x38D4 JUMP JUMPDEST PUSH2 0x2381 SWAP2 SWAP1 PUSH2 0x3B2A JUMP JUMPDEST SWAP4 POP DUP5 DUP1 PUSH2 0x238E SWAP1 PUSH2 0x3B02 JUMP JUMPDEST SWAP6 POP POP JUMPDEST PUSH1 0x3 DUP2 PUSH1 0x2 DUP1 DUP2 GT ISZERO PUSH2 0x23A8 JUMPI PUSH2 0x23A7 PUSH2 0x290F JUMP JUMPDEST JUMPDEST PUSH1 0xFF AND PUSH1 0x3 DUP2 LT PUSH2 0x23BC JUMPI PUSH2 0x23BB PUSH2 0x32DD JUMP JUMPDEST JUMPDEST PUSH1 0x20 MUL ADD MLOAD PUSH1 0xFF AND LT PUSH2 0x240E JUMPI PUSH1 0x64 PUSH1 0x7D DUP6 PUSH2 0x23D8 SWAP2 SWAP1 PUSH2 0x38D4 JUMP JUMPDEST PUSH2 0x23E2 SWAP2 SWAP1 PUSH2 0x3B2A JUMP JUMPDEST SWAP4 POP PUSH1 0x64 PUSH1 0x7D DUP5 PUSH2 0x23F3 SWAP2 SWAP1 PUSH2 0x38D4 JUMP JUMPDEST PUSH2 0x23FD SWAP2 SWAP1 PUSH2 0x3B2A JUMP JUMPDEST SWAP3 POP DUP5 DUP1 PUSH2 0x240A SWAP1 PUSH2 0x3B02 JUMP JUMPDEST SWAP6 POP POP JUMPDEST PUSH0 PUSH1 0x2 DUP4 PUSH2 0x241C SWAP2 SWAP1 PUSH2 0x38D4 JUMP JUMPDEST DUP5 DUP7 PUSH2 0x2428 SWAP2 SWAP1 PUSH2 0x3915 JUMP JUMPDEST PUSH2 0x2432 SWAP2 SWAP1 PUSH2 0x3915 JUMP JUMPDEST SWAP1 POP PUSH0 TIMESTAMP CALLER DUP4 PUSH1 0x40 MLOAD PUSH1 0x20 ADD PUSH2 0x244A SWAP4 SWAP3 SWAP2 SWAP1 PUSH2 0x307F JUMP JUMPDEST PUSH1 0x40 MLOAD PUSH1 0x20 DUP2 DUP4 SUB SUB DUP2 MSTORE SWAP1 PUSH1 0x40 MSTORE DUP1 MLOAD SWAP1 PUSH1 0x20 ADD KECCAK256 PUSH0 SHR SWAP1 POP PUSH1 0xF DUP8 PUSH1 0xFF AND PUSH2 0x2474 SWAP2 SWAP1 PUSH2 0x38D4 JUMP JUMPDEST PUSH1 0x1E DUP3 PUSH2 0x2481 SWAP2 SWAP1 PUSH2 0x30E8 JUMP JUMPDEST PUSH1 0x32 PUSH1 0x50 DUP6 PUSH2 0x2490 SWAP2 SWAP1 PUSH2 0x30E8 JUMP JUMPDEST PUSH2 0x249A SWAP2 SWAP1 PUSH2 0x3915 JUMP JUMPDEST PUSH2 0x24A4 SWAP2 SWAP1 PUSH2 0x3915 JUMP JUMPDEST PUSH2 0x24AE SWAP2 SWAP1 PUSH2 0x3915 JUMP JUMPDEST SWAP8 POP POP POP POP POP POP POP SWAP3 POP SWAP3 SWAP1 POP JUMP JUMPDEST PUSH0 PUSH1 0x2 PUSH0 DUP5 PUSH20 0xFFFFFFFFFFFFFFFFFFFFFFFFFFFFFFFFFFFFFFFF AND PUSH20 0xFFFFFFFFFFFFFFFFFFFFFFFFFFFFFFFFFFFFFFFF AND DUP2 MSTORE PUSH1 0x20 ADD SWAP1 DUP2 MSTORE PUSH1 0x20 ADD PUSH0 KECCAK256 SWAP1 POP DUP2 ISZERO PUSH2 0x2562 JUMPI DUP1 PUSH1 0x1 ADD PUSH0 DUP2 SLOAD DUP1 SWAP3 SWAP2 SWAP1 PUSH2 0x2517 SWAP1 PUSH2 0x34E8 JUMP JUMPDEST SWAP2 SWAP1 POP SSTORE POP PUSH1 0x32 DUP2 PUSH0 ADD PUSH1 0x2 DUP3 DUP3 DUP3 SWAP1 SLOAD SWAP1 PUSH2 0x100 EXP SWAP1 DIV PUSH4 0xFFFFFFFF AND PUSH2 0x253F SWAP2 SWAP1 PUSH2 0x37EB JUMP JUMPDEST SWAP3 POP PUSH2 0x100 EXP DUP2 SLOAD DUP2 PUSH4 0xFFFFFFFF MUL NOT AND SWAP1 DUP4 PUSH4 0xFFFFFFFF AND MUL OR SWAP1 SSTORE POP PUSH2 0x25BD JUMP JUMPDEST DUP1 PUSH1 0x2 ADD PUSH0 DUP2 SLOAD DUP1 SWAP3 SWAP2 SWAP1 PUSH2 0x2576 SWAP1 PUSH2 0x34E8 JUMP JUMPDEST SWAP2 SWAP1 POP SSTORE POP PUSH1 0x19 DUP2 PUSH0 ADD PUSH1 0x2 DUP3 DUP3 DUP3 SWAP1 SLOAD SWAP1 PUSH2 0x100 EXP SWAP1 DIV PUSH4 0xFFFFFFFF AND PUSH2 0x259E SWAP2 SWAP1 PUSH2 0x37EB JUMP JUMPDEST SWAP3 POP PUSH2 0x100 EXP DUP2 SLOAD DUP2 PUSH4 0xFFFFFFFF MUL NOT AND SWAP1 DUP4 PUSH4 0xFFFFFFFF AND MUL OR SWAP1 SSTORE POP JUMPDEST PUSH1 0x64 DUP2 PUSH0 ADD PUSH0 SWAP1 SLOAD SWAP1 PUSH2 0x100 EXP SWAP1 DIV PUSH2 0xFFFF AND PUSH2 0xFFFF AND PUSH2 0x25DE SWAP2 SWAP1 PUSH2 0x3822 JUMP JUMPDEST PUSH4 0xFFFFFFFF AND DUP2 PUSH0 ADD PUSH1 0x2 SWAP1 SLOAD SWAP1 PUSH2 0x100 EXP SWAP1 DIV PUSH4 0xFFFFFFFF AND PUSH4 0xFFFFFFFF AND LT PUSH2 0x2661 JUMPI DUP1 PUSH0 ADD PUSH0 DUP2 DUP2 SWAP1 SLOAD SWAP1 PUSH2 0x100 EXP SWAP1 DIV PUSH2 0xFFFF AND DUP1 SWAP3 SWAP2 SWAP1 PUSH2 0x2623 SWAP1 PUSH2 0x385E JUMP JUMPDEST SWAP2 SWAP1 PUSH2 0x100 EXP DUP2 SLOAD DUP2 PUSH2 0xFFFF MUL NOT AND SWAP1 DUP4 PUSH2 0xFFFF AND MUL OR SWAP1 SSTORE POP POP PUSH0 DUP2 PUSH0 ADD PUSH1 0x2 PUSH2 0x100 EXP DUP2 SLOAD DUP2 PUSH4 0xFFFFFFFF MUL NOT AND SWAP1 DUP4 PUSH4 0xFFFFFFFF AND MUL OR SWAP1 SSTORE POP JUMPDEST POP POP POP JUMP JUMPDEST PUSH2 0x266E PUSH2 0x191E JUMP JUMPDEST PUSH1 0x1 PUSH0 PUSH1 0x14 PUSH2 0x100 EXP DUP2 SLOAD DUP2 PUSH1 0xFF MUL NOT AND SWAP1 DUP4 ISZERO ISZERO MUL OR SWAP1 SSTORE POP PUSH32 0x62E78CEA01BEE320CD4E420270B5EA74000D11B0C9F74754EBDBFC544B05A258 PUSH2 0x26B1 PUSH2 0x273B JUMP JUMPDEST PUSH1 0x40 MLOAD PUSH2 0x26BE SWAP2 SWAP1 PUSH2 0x2E2E JUMP JUMPDEST PUSH1 0x40 MLOAD DUP1 SWAP2 SUB SWAP1 LOG1 JUMP JUMPDEST PUSH2 0x26D0 PUSH2 0x2782 JUMP JUMPDEST ISZERO PUSH2 0x2707 JUMPI PUSH1 0x40 MLOAD PUSH32 0x3EE5AEB500000000000000000000000000000000000000000000000000000000 DUP2 MSTORE PUSH1 0x4 ADD PUSH1 0x40 MLOAD DUP1 SWAP2 SUB SWAP1 REVERT JUMPDEST JUMP JUMPDEST PUSH0 PUSH32 0x9B779B17422D0DF92223018B32B4D1FA46E071723D6817E2486D003BECC55F00 PUSH0 SHL SWAP1 POP SWAP1 JUMP JUMPDEST PUSH0 DUP2 SWAP1 POP SWAP2 SWAP1 POP JUMP JUMPDEST PUSH0 CALLER SWAP1 POP SWAP1 JUMP JUMPDEST PUSH2 0x274A PUSH2 0xAD2 JUMP JUMPDEST PUSH2 0x2780 JUMPI PUSH1 0x40 MLOAD PUSH32 0x8DFC202B00000000000000000000000000000000000000000000000000000000 DUP2 MSTORE PUSH1 0x4 ADD PUSH1 0x40 MLOAD DUP1 SWAP2 SUB SWAP1 REVERT JUMPDEST JUMP JUMPDEST PUSH0 PUSH1 0x2 PUSH2 0x2795 PUSH2 0x2790 PUSH2 0x2709 JUMP JUMPDEST PUSH2 0x2732 JUMP JUMPDEST PUSH0 ADD SLOAD EQ SWAP1 POP SWAP1 JUMP JUMPDEST PUSH1 0x40 MLOAD DUP1 PUSH1 0xA0 ADD PUSH1 0x40 MSTORE DUP1 PUSH1 0x5 SWAP1 JUMPDEST PUSH2 0x27B5 PUSH2 0x27ED JUMP JUMPDEST DUP2 MSTORE PUSH1 0x20 ADD SWAP1 PUSH1 0x1 SWAP1 SUB SWAP1 DUP2 PUSH2 0x27AD JUMPI SWAP1 POP POP SWAP1 JUMP JUMPDEST PUSH1 0x40 MLOAD DUP1 PUSH1 0x60 ADD PUSH1 0x40 MSTORE DUP1 PUSH1 0x3 SWAP1 PUSH1 0x20 DUP3 MUL DUP1 CALLDATASIZE DUP4 CALLDATACOPY DUP1 DUP3 ADD SWAP2 POP POP SWAP1 POP POP SWAP1 JUMP JUMPDEST PUSH1 0x40 MLOAD DUP1 PUSH1 0xC0 ADD PUSH1 0x40 MSTORE DUP1 PUSH0 PUSH1 0x2 DUP2 GT ISZERO PUSH2 0x280B JUMPI PUSH2 0x280A PUSH2 0x290F JUMP JUMPDEST JUMPDEST DUP2 MSTORE PUSH1 0x20 ADD PUSH0 PUSH1 0x2 DUP2 GT ISZERO PUSH2 0x2823 JUMPI PUSH2 0x2822 PUSH2 0x290F JUMP JUMPDEST JUMPDEST DUP2 MSTORE PUSH1 0x20 ADD PUSH0 PUSH1 0x3 DUP2 GT ISZERO PUSH2 0x283B JUMPI PUSH2 0x283A PUSH2 0x290F JUMP JUMPDEST JUMPDEST DUP2 MSTORE PUSH1 0x20 ADD PUSH0 PUSH1 0xFF AND DUP2 MSTORE PUSH1 0x20 ADD PUSH0 PUSH1 0xFF AND DUP2 MSTORE PUSH1 0x20 ADD PUSH0 PUSH1 0xFF AND DUP2 MSTORE POP SWAP1 JUMP JUMPDEST PUSH0 PUSH1 0x40 MLOAD SWAP1 POP SWAP1 JUMP JUMPDEST PUSH0 PUSH0 REVERT JUMPDEST PUSH0 PUSH0 REVERT JUMPDEST PUSH0 PUSH20 0xFFFFFFFFFFFFFFFFFFFFFFFFFFFFFFFFFFFFFFFF DUP3 AND SWAP1 POP SWAP2 SWAP1 POP JUMP JUMPDEST PUSH0 PUSH2 0x2896 DUP3 PUSH2 0x286D JUMP JUMPDEST SWAP1 POP SWAP2 SWAP1 POP JUMP JUMPDEST PUSH2 0x28A6 DUP2 PUSH2 0x288C JUMP JUMPDEST DUP2 EQ PUSH2 0x28B0 JUMPI PUSH0 PUSH0 REVERT JUMPDEST POP JUMP JUMPDEST PUSH0 DUP2 CALLDATALOAD SWAP1 POP PUSH2 0x28C1 DUP2 PUSH2 0x289D JUMP JUMPDEST SWAP3 SWAP2 POP POP JUMP JUMPDEST PUSH0 PUSH1 0x20 DUP3 DUP5 SUB SLT ISZERO PUSH2 0x28DC JUMPI PUSH2 0x28DB PUSH2 0x2865 JUMP JUMPDEST JUMPDEST PUSH0 PUSH2 0x28E9 DUP5 DUP3 DUP6 ADD PUSH2 0x28B3 JUMP JUMPDEST SWAP2 POP POP SWAP3 SWAP2 POP POP JUMP JUMPDEST PUSH0 PUSH1 0x5 SWAP1 POP SWAP2 SWAP1 POP JUMP JUMPDEST PUSH0 DUP2 SWAP1 POP SWAP3 SWAP2 POP POP JUMP JUMPDEST PUSH0 DUP2 SWAP1 POP SWAP2 SWAP1 POP JUMP JUMPDEST PUSH32 0x4E487B7100000000000000000000000000000000000000000000000000000000 PUSH0 MSTORE PUSH1 0x21 PUSH1 0x4 MSTORE PUSH1 0x24 PUSH0 REVERT JUMPDEST PUSH1 0x3 DUP2 LT PUSH2 0x294D JUMPI PUSH2 0x294C PUSH2 0x290F JUMP JUMPDEST JUMPDEST POP JUMP JUMPDEST PUSH0 DUP2 SWAP1 POP PUSH2 0x295D DUP3 PUSH2 0x293C JUMP JUMPDEST SWAP2 SWAP1 POP JUMP JUMPDEST PUSH0 PUSH2 0x296C DUP3 PUSH2 0x2950 JUMP JUMPDEST SWAP1 POP SWAP2 SWAP1 POP JUMP JUMPDEST PUSH2 0x297C DUP2 PUSH2 0x2962 JUMP JUMPDEST DUP3 MSTORE POP POP JUMP JUMPDEST PUSH1 0x3 DUP2 LT PUSH2 0x2993 JUMPI PUSH2 0x2992 PUSH2 0x290F JUMP JUMPDEST JUMPDEST POP JUMP JUMPDEST PUSH0 DUP2 SWAP1 POP PUSH2 0x29A3 DUP3 PUSH2 0x2982 JUMP JUMPDEST SWAP2 SWAP1 POP JUMP JUMPDEST PUSH0 PUSH2 0x29B2 DUP3 PUSH2 0x2996 JUMP JUMPDEST SWAP1 POP SWAP2 SWAP1 POP JUMP JUMPDEST PUSH2 0x29C2 DUP2 PUSH2 0x29A8 JUMP JUMPDEST DUP3 MSTORE POP POP JUMP JUMPDEST PUSH1 0x4 DUP2 LT PUSH2 0x29D9 JUMPI PUSH2 0x29D8 PUSH2 0x290F JUMP JUMPDEST JUMPDEST POP JUMP JUMPDEST PUSH0 DUP2 SWAP1 POP PUSH2 0x29E9 DUP3 PUSH2 0x29C8 JUMP JUMPDEST SWAP2 SWAP1 POP JUMP JUMPDEST PUSH0 PUSH2 0x29F8 DUP3 PUSH2 0x29DC JUMP JUMPDEST SWAP1 POP SWAP2 SWAP1 POP JUMP JUMPDEST PUSH2 0x2A08 DUP2 PUSH2 0x29EE JUMP JUMPDEST DUP3 MSTORE POP POP JUMP JUMPDEST PUSH0 PUSH1 0xFF DUP3 AND SWAP1 POP SWAP2 SWAP1 POP JUMP JUMPDEST PUSH2 0x2A23 DUP2 PUSH2 0x2A0E JUMP JUMPDEST DUP3 MSTORE POP POP JUMP JUMPDEST PUSH1 0xC0 DUP3 ADD PUSH0 DUP3 ADD MLOAD PUSH2 0x2A3D PUSH0 DUP6 ADD DUP3 PUSH2 0x2973 JUMP JUMPDEST POP PUSH1 0x20 DUP3 ADD MLOAD PUSH2 0x2A50 PUSH1 0x20 DUP6 ADD DUP3 PUSH2 0x29B9 JUMP JUMPDEST POP PUSH1 0x40 DUP3 ADD MLOAD PUSH2 0x2A63 PUSH1 0x40 DUP6 ADD DUP3 PUSH2 0x29FF JUMP JUMPDEST POP PUSH1 0x60 DUP3 ADD MLOAD PUSH2 0x2A76 PUSH1 0x60 DUP6 ADD DUP3 PUSH2 0x2A1A JUMP JUMPDEST POP PUSH1 0x80 DUP3 ADD MLOAD PUSH2 0x2A89 PUSH1 0x80 DUP6 ADD DUP3 PUSH2 0x2A1A JUMP JUMPDEST POP PUSH1 0xA0 DUP3 ADD MLOAD PUSH2 0x2A9C PUSH1 0xA0 DUP6 ADD DUP3 PUSH2 0x2A1A JUMP JUMPDEST POP POP POP POP JUMP JUMPDEST PUSH0 PUSH2 0x2AAD DUP4 DUP4 PUSH2 0x2A29 JUMP JUMPDEST PUSH1 0xC0 DUP4 ADD SWAP1 POP SWAP3 SWAP2 POP POP JUMP JUMPDEST PUSH0 PUSH1 0x20 DUP3 ADD SWAP1 POP SWAP2 SWAP1 POP JUMP JUMPDEST PUSH2 0x2ACE DUP2 PUSH2 0x28F2 JUMP JUMPDEST PUSH2 0x2AD8 DUP2 DUP5 PUSH2 0x28FC JUMP JUMPDEST SWAP3 POP PUSH2 0x2AE3 DUP3 PUSH2 0x2906 JUMP JUMPDEST DUP1 PUSH0 JUMPDEST DUP4 DUP2 LT ISZERO PUSH2 0x2B13 JUMPI DUP2 MLOAD PUSH2 0x2AFA DUP8 DUP3 PUSH2 0x2AA2 JUMP JUMPDEST SWAP7 POP PUSH2 0x2B05 DUP4 PUSH2 0x2AB9 JUMP JUMPDEST SWAP3 POP POP PUSH1 0x1 DUP2 ADD SWAP1 POP PUSH2 0x2AE6 JUMP JUMPDEST POP POP POP POP POP POP JUMP JUMPDEST PUSH0 PUSH2 0x3C0 DUP3 ADD SWAP1 POP PUSH2 0x2B2F PUSH0 DUP4 ADD DUP5 PUSH2 0x2AC5 JUMP JUMPDEST SWAP3 SWAP2 POP POP JUMP JUMPDEST PUSH0 DUP2 SWAP1 POP SWAP2 SWAP1 POP JUMP JUMPDEST PUSH2 0x2B47 DUP2 PUSH2 0x2B35 JUMP JUMPDEST DUP2 EQ PUSH2 0x2B51 JUMPI PUSH0 PUSH0 REVERT JUMPDEST POP JUMP JUMPDEST PUSH0 DUP2 CALLDATALOAD SWAP1 POP PUSH2 0x2B62 DUP2 PUSH2 0x2B3E JUMP JUMPDEST SWAP3 SWAP2 POP POP JUMP JUMPDEST PUSH0 PUSH0 PUSH1 0x40 DUP4 DUP6 SUB SLT ISZERO PUSH2 0x2B7E JUMPI PUSH2 0x2B7D PUSH2 0x2865 JUMP JUMPDEST JUMPDEST PUSH0 PUSH2 0x2B8B DUP6 DUP3 DUP7 ADD PUSH2 0x28B3 JUMP JUMPDEST SWAP3 POP POP PUSH1 0x20 PUSH2 0x2B9C DUP6 DUP3 DUP7 ADD PUSH2 0x2B54 JUMP JUMPDEST SWAP2 POP POP SWAP3 POP SWAP3 SWAP1 POP JUMP JUMPDEST PUSH2 0x2BAF DUP2 PUSH2 0x2B35 JUMP JUMPDEST DUP3 MSTORE POP POP JUMP JUMPDEST PUSH0 PUSH1 0x20 DUP3 ADD SWAP1 POP PUSH2 0x2BC8 PUSH0 DUP4 ADD DUP5 PUSH2 0x2BA6 JUMP JUMPDEST SWAP3 SWAP2 POP POP JUMP JUMPDEST PUSH0 DUP2 ISZERO ISZERO SWAP1 POP SWAP2 SWAP1 POP JUMP JUMPDEST PUSH2 0x2BE2 DUP2 PUSH2 0x2BCE JUMP JUMPDEST DUP3 MSTORE POP POP JUMP JUMPDEST PUSH0 PUSH1 0x20 DUP3 ADD SWAP1 POP PUSH2 0x2BFB PUSH0 DUP4 ADD DUP5 PUSH2 0x2BD9 JUMP JUMPDEST SWAP3 SWAP2 POP POP JUMP JUMPDEST PUSH0 DUP2 MLOAD SWAP1 POP SWAP2 SWAP1 POP JUMP JUMPDEST PUSH0 DUP3 DUP3 MSTORE PUSH1 0x20 DUP3 ADD SWAP1 POP SWAP3 SWAP2 POP POP JUMP JUMPDEST PUSH0 DUP2 SWAP1 POP PUSH1 0x20 DUP3 ADD SWAP1 POP SWAP2 SWAP1 POP JUMP JUMPDEST PUSH2 0x2C33 DUP2 PUSH2 0x2B35 JUMP JUMPDEST DUP3 MSTORE POP POP JUMP JUMPDEST PUSH0 PUSH2 0x2C44 DUP4 DUP4 PUSH2 0x2C2A JUMP JUMPDEST PUSH1 0x20 DUP4 ADD SWAP1 POP SWAP3 SWAP2 POP POP JUMP JUMPDEST PUSH0 PUSH1 0x20 DUP3 ADD SWAP1 POP SWAP2 SWAP1 POP JUMP JUMPDEST PUSH0 PUSH2 0x2C66 DUP3 PUSH2 0x2C01 JUMP JUMPDEST PUSH2 0x2C70 DUP2 DUP6 PUSH2 0x2C0B JUMP JUMPDEST SWAP4 POP PUSH2 0x2C7B DUP4 PUSH2 0x2C1B JUMP JUMPDEST DUP1 PUSH0 JUMPDEST DUP4 DUP2 LT ISZERO PUSH2 0x2CAB JUMPI DUP2 MLOAD PUSH2 0x2C92 DUP9 DUP3 PUSH2 0x2C39 JUMP JUMPDEST SWAP8 POP PUSH2 0x2C9D DUP4 PUSH2 0x2C50 JUMP JUMPDEST SWAP3 POP POP PUSH1 0x1 DUP2 ADD SWAP1 POP PUSH2 0x2C7E JUMP JUMPDEST POP DUP6 SWAP4 POP POP POP POP SWAP3 SWAP2 POP POP JUMP JUMPDEST PUSH0 PUSH1 0x20 DUP3 ADD SWAP1 POP DUP2 DUP2 SUB PUSH0 DUP4 ADD MSTORE PUSH2 0x2CD0 DUP2 DUP5 PUSH2 0x2C5C JUMP JUMPDEST SWAP1 POP SWAP3 SWAP2 POP POP JUMP JUMPDEST PUSH0 PUSH0 REVERT JUMPDEST PUSH0 PUSH0 REVERT JUMPDEST PUSH0 PUSH0 REVERT JUMPDEST PUSH0 PUSH0 DUP4 PUSH1 0x1F DUP5 ADD SLT PUSH2 0x2CF9 JUMPI PUSH2 0x2CF8 PUSH2 0x2CD8 JUMP JUMPDEST JUMPDEST DUP3 CALLDATALOAD SWAP1 POP PUSH8 0xFFFFFFFFFFFFFFFF DUP2 GT ISZERO PUSH2 0x2D16 JUMPI PUSH2 0x2D15 PUSH2 0x2CDC JUMP JUMPDEST JUMPDEST PUSH1 0x20 DUP4 ADD SWAP2 POP DUP4 PUSH1 0x20 DUP3 MUL DUP4 ADD GT ISZERO PUSH2 0x2D32 JUMPI PUSH2 0x2D31 PUSH2 0x2CE0 JUMP JUMPDEST JUMPDEST SWAP3 POP SWAP3 SWAP1 POP JUMP JUMPDEST PUSH0 PUSH0 PUSH1 0x20 DUP4 DUP6 SUB SLT ISZERO PUSH2 0x2D4F JUMPI PUSH2 0x2D4E PUSH2 0x2865 JUMP JUMPDEST JUMPDEST PUSH0 DUP4 ADD CALLDATALOAD PUSH8 0xFFFFFFFFFFFFFFFF DUP2 GT ISZERO PUSH2 0x2D6C JUMPI PUSH2 0x2D6B PUSH2 0x2869 JUMP JUMPDEST JUMPDEST PUSH2 0x2D78 DUP6 DUP3 DUP7 ADD PUSH2 0x2CE4 JUMP JUMPDEST SWAP3 POP SWAP3 POP POP SWAP3 POP SWAP3 SWAP1 POP JUMP JUMPDEST PUSH2 0x2D8D DUP2 PUSH2 0x2962 JUMP JUMPDEST DUP3 MSTORE POP POP JUMP JUMPDEST PUSH2 0x2D9C DUP2 PUSH2 0x29A8 JUMP JUMPDEST DUP3 MSTORE POP POP JUMP JUMPDEST PUSH2 0x2DAB DUP2 PUSH2 0x29EE JUMP JUMPDEST DUP3 MSTORE POP POP JUMP JUMPDEST PUSH2 0x2DBA DUP2 PUSH2 0x2A0E JUMP JUMPDEST DUP3 MSTORE POP POP JUMP JUMPDEST PUSH0 PUSH1 0xC0 DUP3 ADD SWAP1 POP PUSH2 0x2DD3 PUSH0 DUP4 ADD DUP10 PUSH2 0x2D84 JUMP JUMPDEST PUSH2 0x2DE0 PUSH1 0x20 DUP4 ADD DUP9 PUSH2 0x2D93 JUMP JUMPDEST PUSH2 0x2DED PUSH1 0x40 DUP4 ADD DUP8 PUSH2 0x2DA2 JUMP JUMPDEST PUSH2 0x2DFA PUSH1 0x60 DUP4 ADD DUP7 PUSH2 0x2DB1 JUMP JUMPDEST PUSH2 0x2E07 PUSH1 0x80 DUP4 ADD DUP6 PUSH2 0x2DB1 JUMP JUMPDEST PUSH2 0x2E14 PUSH1 0xA0 DUP4 ADD DUP5 PUSH2 0x2DB1 JUMP JUMPDEST SWAP8 SWAP7 POP POP POP POP POP POP POP JUMP JUMPDEST PUSH2 0x2E28 DUP2 PUSH2 0x288C JUMP JUMPDEST DUP3 MSTORE POP POP JUMP JUMPDEST PUSH0 PUSH1 0x20 DUP3 ADD SWAP1 POP PUSH2 0x2E41 PUSH0 DUP4 ADD DUP5 PUSH2 0x2E1F JUMP JUMPDEST SWAP3 SWAP2 POP POP JUMP JUMPDEST PUSH0 PUSH1 0x20 DUP3 DUP5 SUB SLT ISZERO PUSH2 0x2E5C JUMPI PUSH2 0x2E5B PUSH2 0x2865 JUMP JUMPDEST JUMPDEST PUSH0 PUSH2 0x2E69 DUP5 DUP3 DUP6 ADD PUSH2 0x2B54 JUMP JUMPDEST SWAP2 POP POP SWAP3 SWAP2 POP POP JUMP JUMPDEST PUSH0 DUP2 SWAP1 POP SWAP2 SWAP1 POP JUMP JUMPDEST PUSH0 PUSH2 0x2E95 PUSH2 0x2E90 PUSH2 0x2E8B DUP5 PUSH2 0x286D JUMP JUMPDEST PUSH2 0x2E72 JUMP JUMPDEST PUSH2 0x286D JUMP JUMPDEST SWAP1 POP SWAP2 SWAP1 POP JUMP JUMPDEST PUSH0 PUSH2 0x2EA6 DUP3 PUSH2 0x2E7B JUMP JUMPDEST SWAP1 POP SWAP2 SWAP1 POP JUMP JUMPDEST PUSH0 PUSH2 0x2EB7 DUP3 PUSH2 0x2E9C JUMP JUMPDEST SWAP1 POP SWAP2 SWAP1 POP JUMP JUMPDEST PUSH2 0x2EC7 DUP2 PUSH2 0x2EAD JUMP JUMPDEST DUP3 MSTORE POP POP JUMP JUMPDEST PUSH0 PUSH1 0x20 DUP3 ADD SWAP1 POP PUSH2 0x2EE0 PUSH0 DUP4 ADD DUP5 PUSH2 0x2EBE JUMP JUMPDEST SWAP3 SWAP2 POP POP JUMP JUMPDEST PUSH0 PUSH2 0xFFFF DUP3 AND SWAP1 POP SWAP2 SWAP1 POP JUMP JUMPDEST PUSH2 0x2EFC DUP2 PUSH2 0x2EE6 JUMP JUMPDEST DUP3 MSTORE POP POP JUMP JUMPDEST PUSH0 PUSH4 0xFFFFFFFF DUP3 AND SWAP1 POP SWAP2 SWAP1 POP JUMP JUMPDEST PUSH2 0x2F1A DUP2 PUSH2 0x2F02 JUMP JUMPDEST DUP3 MSTORE POP POP JUMP JUMPDEST PUSH0 PUSH1 0x80 DUP3 ADD SWAP1 POP PUSH2 0x2F33 PUSH0 DUP4 ADD DUP8 PUSH2 0x2EF3 JUMP JUMPDEST PUSH2 0x2F40 PUSH1 0x20 DUP4 ADD DUP7 PUSH2 0x2F11 JUMP JUMPDEST PUSH2 0x2F4D PUSH1 0x40 DUP4 ADD DUP6 PUSH2 0x2BA6 JUMP JUMPDEST PUSH2 0x2F5A PUSH1 0x60 DUP4 ADD DUP5 PUSH2 0x2BA6 JUMP JUMPDEST SWAP6 SWAP5 POP POP POP POP POP JUMP JUMPDEST PUSH0 DUP3 DUP3 MSTORE PUSH1 0x20 DUP3 ADD SWAP1 POP SWAP3 SWAP2 POP POP JUMP JUMPDEST PUSH32 0x496E636F7272656374207061796D656E74000000000000000000000000000000 PUSH0 DUP3 ADD MSTORE POP JUMP JUMPDEST PUSH0 PUSH2 0x2FA7 PUSH1 0x11 DUP4 PUSH2 0x2F63 JUMP JUMPDEST SWAP2 POP PUSH2 0x2FB2 DUP3 PUSH2 0x2F73 JUMP JUMPDEST PUSH1 0x20 DUP3 ADD SWAP1 POP SWAP2 SWAP1 POP JUMP JUMPDEST PUSH0 PUSH1 0x20 DUP3 ADD SWAP1 POP DUP2 DUP2 SUB PUSH0 DUP4 ADD MSTORE PUSH2 0x2FD4 DUP2 PUSH2 0x2F9B JUMP JUMPDEST SWAP1 POP SWAP2 SWAP1 POP JUMP JUMPDEST PUSH0 DUP2 MLOAD SWAP1 POP PUSH2 0x2FE9 DUP2 PUSH2 0x2B3E JUMP JUMPDEST SWAP3 SWAP2 POP POP JUMP JUMPDEST PUSH0 PUSH1 0x20 DUP3 DUP5 SUB SLT ISZERO PUSH2 0x3004 JUMPI PUSH2 0x3003 PUSH2 0x2865 JUMP JUMPDEST JUMPDEST PUSH0 PUSH2 0x3011 DUP5 DUP3 DUP6 ADD PUSH2 0x2FDB JUMP JUMPDEST SWAP2 POP POP SWAP3 SWAP2 POP POP JUMP JUMPDEST PUSH0 DUP2 SWAP1 POP SWAP2 SWAP1 POP JUMP JUMPDEST PUSH2 0x3034 PUSH2 0x302F DUP3 PUSH2 0x2B35 JUMP JUMPDEST PUSH2 0x301A JUMP JUMPDEST DUP3 MSTORE POP POP JUMP JUMPDEST PUSH0 DUP2 PUSH1 0x60 SHL SWAP1 POP SWAP2 SWAP1 POP JUMP JUMPDEST PUSH0 PUSH2 0x3050 DUP3 PUSH2 0x303A JUMP JUMPDEST SWAP1 POP SWAP2 SWAP1 POP JUMP JUMPDEST PUSH0 PUSH2 0x3061 DUP3 PUSH2 0x3046 JUMP JUMPDEST SWAP1 POP SWAP2 SWAP1 POP JUMP JUMPDEST PUSH2 0x3079 PUSH2 0x3074 DUP3 PUSH2 0x288C JUMP JUMPDEST PUSH2 0x3057 JUMP JUMPDEST DUP3 MSTORE POP POP JUMP JUMPDEST PUSH0 PUSH2 0x308A DUP3 DUP7 PUSH2 0x3023 JUMP JUMPDEST PUSH1 0x20 DUP3 ADD SWAP2 POP PUSH2 0x309A DUP3 DUP6 PUSH2 0x3068 JUMP JUMPDEST PUSH1 0x14 DUP3 ADD SWAP2 POP PUSH2 0x30AA DUP3 DUP5 PUSH2 0x3023 JUMP JUMPDEST PUSH1 0x20 DUP3 ADD SWAP2 POP DUP2 SWAP1 POP SWAP5 SWAP4 POP POP POP POP JUMP JUMPDEST PUSH32 0x4E487B7100000000000000000000000000000000000000000000000000000000 PUSH0 MSTORE PUSH1 0x12 PUSH1 0x4 MSTORE PUSH1 0x24 PUSH0 REVERT JUMPDEST PUSH0 PUSH2 0x30F2 DUP3 PUSH2 0x2B35 JUMP JUMPDEST SWAP2 POP PUSH2 0x30FD DUP4 PUSH2 0x2B35 JUMP JUMPDEST SWAP3 POP DUP3 PUSH2 0x310D JUMPI PUSH2 0x310C PUSH2 0x30BB JUMP JUMPDEST JUMPDEST DUP3 DUP3 MOD SWAP1 POP SWAP3 SWAP2 POP POP JUMP JUMPDEST PUSH32 0x4E487B7100000000000000000000000000000000000000000000000000000000 PUSH0 MSTORE PUSH1 0x11 PUSH1 0x4 MSTORE PUSH1 0x24 PUSH0 REVERT JUMPDEST PUSH0 PUSH2 0x314F DUP3 PUSH2 0x2A0E JUMP JUMPDEST SWAP2 POP PUSH2 0x315A DUP4 PUSH2 0x2A0E JUMP JUMPDEST SWAP3 POP DUP3 DUP3 ADD SWAP1 POP PUSH1 0xFF DUP2 GT ISZERO PUSH2 0x3173 JUMPI PUSH2 0x3172 PUSH2 0x3118 JUMP JUMPDEST JUMPDEST SWAP3 SWAP2 POP POP JUMP JUMPDEST PUSH0 PUSH1 0xE0 DUP3 ADD SWAP1 POP PUSH2 0x318C PUSH0 DUP4 ADD DUP11 PUSH2 0x2E1F JUMP JUMPDEST PUSH2 0x3199 PUSH1 0x20 DUP4 ADD DUP10 PUSH2 0x2D84 JUMP JUMPDEST PUSH2 0x31A6 PUSH1 0x40 DUP4 ADD DUP9 PUSH2 0x2D93 JUMP JUMPDEST PUSH2 0x31B3 PUSH1 0x60 DUP4 ADD DUP8 PUSH2 0x2DA2 JUMP JUMPDEST PUSH2 0x31C0 PUSH1 0x80 DUP4 ADD DUP7 PUSH2 0x2DB1 JUMP JUMPDEST PUSH2 0x31CD PUSH1 0xA0 DUP4 ADD DUP6 PUSH2 0x2DB1 JUMP JUMPDEST PUSH2 0x31DA PUSH1 0xC0 DUP4 ADD DUP5 PUSH2 0x2DB1 JUMP JUMPDEST SWAP9 SWAP8 POP POP POP POP POP POP POP POP JUMP JUMPDEST PUSH0 PUSH1 0x40 DUP3 ADD SWAP1 POP PUSH2 0x31F9 PUSH0 DUP4 ADD DUP6 PUSH2 0x2E1F JUMP JUMPDEST PUSH2 0x3206 PUSH1 0x20 DUP4 ADD DUP5 PUSH2 0x2BA6 JUMP JUMPDEST SWAP4 SWAP3 POP POP POP JUMP JUMPDEST PUSH32 0x496E636F7272656374207061796D656E7420666F72207265726F6C6C00000000 PUSH0 DUP3 ADD MSTORE POP JUMP JUMPDEST PUSH0 PUSH2 0x3241 PUSH1 0x1C DUP4 PUSH2 0x2F63 JUMP JUMPDEST SWAP2 POP PUSH2 0x324C DUP3 PUSH2 0x320D JUMP JUMPDEST PUSH1 0x20 DUP3 ADD SWAP1 POP SWAP2 SWAP1 POP JUMP JUMPDEST PUSH0 PUSH1 0x20 DUP3 ADD SWAP1 POP DUP2 DUP2 SUB PUSH0 DUP4 ADD MSTORE PUSH2 0x326E DUP2 PUSH2 0x3235 JUMP JUMPDEST SWAP1 POP SWAP2 SWAP1 POP JUMP JUMPDEST PUSH32 0x5465616D2073697A6520342D38206F6E6C790000000000000000000000000000 PUSH0 DUP3 ADD MSTORE POP JUMP JUMPDEST PUSH0 PUSH2 0x32A9 PUSH1 0x12 DUP4 PUSH2 0x2F63 JUMP JUMPDEST SWAP2 POP PUSH2 0x32B4 DUP3 PUSH2 0x3275 JUMP JUMPDEST PUSH1 0x20 DUP3 ADD SWAP1 POP SWAP2 SWAP1 POP JUMP JUMPDEST PUSH0 PUSH1 0x20 DUP3 ADD SWAP1 POP DUP2 DUP2 SUB PUSH0 DUP4 ADD MSTORE PUSH2 0x32D6 DUP2 PUSH2 0x329D JUMP JUMPDEST SWAP1 POP SWAP2 SWAP1 POP JUMP JUMPDEST PUSH32 0x4E487B7100000000000000000000000000000000000000000000000000000000 PUSH0 MSTORE PUSH1 0x32 PUSH1 0x4 MSTORE PUSH1 0x24 PUSH0 REVERT JUMPDEST PUSH0 DUP2 MLOAD SWAP1 POP PUSH2 0x3318 DUP2 PUSH2 0x289D JUMP JUMPDEST SWAP3 SWAP2 POP POP JUMP JUMPDEST PUSH0 PUSH1 0x20 DUP3 DUP5 SUB SLT ISZERO PUSH2 0x3333 JUMPI PUSH2 0x3332 PUSH2 0x2865 JUMP JUMPDEST JUMPDEST PUSH0 PUSH2 0x3340 DUP5 DUP3 DUP6 ADD PUSH2 0x330A JUMP JUMPDEST SWAP2 POP POP SWAP3 SWAP2 POP POP JUMP JUMPDEST PUSH32 0x4E6F7420796F757220756E697400000000000000000000000000000000000000 PUSH0 DUP3 ADD MSTORE POP JUMP JUMPDEST PUSH0 PUSH2 0x337D PUSH1 0xD DUP4 PUSH2 0x2F63 JUMP JUMPDEST SWAP2 POP PUSH2 0x3388 DUP3 PUSH2 0x3349 JUMP JUMPDEST PUSH1 0x20 DUP3 ADD SWAP1 POP SWAP2 SWAP1 POP JUMP JUMPDEST PUSH0 PUSH1 0x20 DUP3 ADD SWAP1 POP DUP2 DUP2 SUB PUSH0 DUP4 ADD MSTORE PUSH2 0x33AA DUP2 PUSH2 0x3371 JUMP JUMPDEST SWAP1 POP SWAP2 SWAP1 POP JUMP JUMPDEST PUSH32 0x4E487B7100000000000000000000000000000000000000000000000000000000 PUSH0 MSTORE PUSH1 0x41 PUSH1 0x4 MSTORE PUSH1 0x24 PUSH0 REVERT JUMPDEST PUSH0 PUSH2 0x33E9 DUP3 DUP6 PUSH2 0x3023 JUMP JUMPDEST PUSH1 0x20 DUP3 ADD SWAP2 POP PUSH2 0x33F9 DUP3 DUP5 PUSH2 0x3068 JUMP JUMPDEST PUSH1 0x14 DUP3 ADD SWAP2 POP DUP2 SWAP1 POP SWAP4 SWAP3 POP POP POP JUMP JUMPDEST PUSH0 DUP2 SWAP1 POP SWAP2 SWAP1 POP JUMP JUMPDEST PUSH0 PUSH2 0x342C PUSH2 0x3427 PUSH2 0x3422 DUP5 PUSH2 0x3409 JUMP JUMPDEST PUSH2 0x2E72 JUMP JUMPDEST PUSH2 0x2A0E JUMP JUMPDEST SWAP1 POP SWAP2 SWAP1 POP JUMP JUMPDEST PUSH2 0x343C DUP2 PUSH2 0x3412 JUMP JUMPDEST DUP3 MSTORE POP POP JUMP JUMPDEST PUSH0 DUP2 SWAP1 POP SWAP2 SWAP1 POP JUMP JUMPDEST PUSH0 PUSH2 0x3465 PUSH2 0x3460 PUSH2 0x345B DUP5 PUSH2 0x3442 JUMP JUMPDEST PUSH2 0x2E72 JUMP JUMPDEST PUSH2 0x2A0E JUMP JUMPDEST SWAP1 POP SWAP2 SWAP1 POP JUMP JUMPDEST PUSH2 0x3475 DUP2 PUSH2 0x344B JUMP JUMPDEST DUP3 MSTORE POP POP JUMP JUMPDEST PUSH0 PUSH1 0xE0 DUP3 ADD SWAP1 POP PUSH2 0x348E PUSH0 DUP4 ADD DUP11 PUSH2 0x2E1F JUMP JUMPDEST PUSH2 0x349B PUSH1 0x20 DUP4 ADD DUP10 PUSH2 0x2D84 JUMP JUMPDEST PUSH2 0x34A8 PUSH1 0x40 DUP4 ADD DUP9 PUSH2 0x2D93 JUMP JUMPDEST PUSH2 0x34B5 PUSH1 0x60 DUP4 ADD DUP8 PUSH2 0x2DA2 JUMP JUMPDEST PUSH2 0x34C2 PUSH1 0x80 DUP4 ADD DUP7 PUSH2 0x3433 JUMP JUMPDEST PUSH2 0x34CF PUSH1 0xA0 DUP4 ADD DUP6 PUSH2 0x3433 JUMP JUMPDEST PUSH2 0x34DC PUSH1 0xC0 DUP4 ADD DUP5 PUSH2 0x346C JUMP JUMPDEST SWAP9 SWAP8 POP POP POP POP POP POP POP POP JUMP JUMPDEST PUSH0 PUSH2 0x34F2 DUP3 PUSH2 0x2B35 JUMP JUMPDEST SWAP2 POP PUSH32 0xFFFFFFFFFFFFFFFFFFFFFFFFFFFFFFFFFFFFFFFFFFFFFFFFFFFFFFFFFFFFFFFF DUP3 SUB PUSH2 0x3524 JUMPI PUSH2 0x3523 PUSH2 0x3118 JUMP JUMPDEST JUMPDEST PUSH1 0x1 DUP3 ADD SWAP1 POP SWAP2 SWAP1 POP JUMP JUMPDEST PUSH0 DUP2 SWAP1 POP SWAP2 SWAP1 POP JUMP JUMPDEST PUSH0 PUSH2 0x3552 PUSH2 0x354D PUSH2 0x3548 DUP5 PUSH2 0x352F JUMP JUMPDEST PUSH2 0x2E72 JUMP JUMPDEST PUSH2 0x2A0E JUMP JUMPDEST SWAP1 POP SWAP2 SWAP1 POP JUMP JUMPDEST PUSH2 0x3562 DUP2 PUSH2 0x3538 JUMP JUMPDEST DUP3 MSTORE POP POP JUMP JUMPDEST PUSH0 PUSH1 0xE0 DUP3 ADD SWAP1 POP PUSH2 0x357B PUSH0 DUP4 ADD DUP11 PUSH2 0x2E1F JUMP JUMPDEST PUSH2 0x3588 PUSH1 0x20 DUP4 ADD DUP10 PUSH2 0x2D84 JUMP JUMPDEST PUSH2 0x3595 PUSH1 0x40 DUP4 ADD DUP9 PUSH2 0x2D93 JUMP JUMPDEST PUSH2 0x35A2 PUSH1 0x60 DUP4 ADD DUP8 PUSH2 0x2DA2 JUMP JUMPDEST PUSH2 0x35AF PUSH1 0x80 DUP4 ADD DUP7 PUSH2 0x3559 JUMP JUMPDEST PUSH2 0x35BC PUSH1 0xA0 DUP4 ADD DUP6 PUSH2 0x3559 JUMP JUMPDEST PUSH2 0x35C9 PUSH1 0xC0 DUP4 ADD DUP5 PUSH2 0x3559 JUMP JUMPDEST SWAP9 SWAP8 POP POP POP POP POP POP POP POP JUMP JUMPDEST PUSH0 DUP2 SWAP1 POP SWAP2 SWAP1 POP JUMP JUMPDEST PUSH0 PUSH2 0x35F8 PUSH2 0x35F3 PUSH2 0x35EE DUP5 PUSH2 0x35D5 JUMP JUMPDEST PUSH2 0x2E72 JUMP JUMPDEST PUSH2 0x2A0E JUMP JUMPDEST SWAP1 POP SWAP2 SWAP1 POP JUMP JUMPDEST PUSH2 0x3608 DUP2 PUSH2 0x35DE JUMP JUMPDEST DUP3 MSTORE POP POP JUMP JUMPDEST PUSH0 DUP2 SWAP1 POP SWAP2 SWAP1 POP JUMP JUMPDEST PUSH0 PUSH2 0x3631 PUSH2 0x362C PUSH2 0x3627 DUP5 PUSH2 0x360E JUMP JUMPDEST PUSH2 0x2E72 JUMP JUMPDEST PUSH2 0x2A0E JUMP JUMPDEST SWAP1 POP SWAP2 SWAP1 POP JUMP JUMPDEST PUSH2 0x3641 DUP2 PUSH2 0x3617 JUMP JUMPDEST DUP3 MSTORE POP POP JUMP JUMPDEST PUSH0 PUSH1 0xE0 DUP3 ADD SWAP1 POP PUSH2 0x365A PUSH0 DUP4 ADD DUP11 PUSH2 0x2E1F JUMP JUMPDEST PUSH2 0x3667 PUSH1 0x20 DUP4 ADD DUP10 PUSH2 0x2D84 JUMP JUMPDEST PUSH2 0x3674 PUSH1 0x40 DUP4 ADD DUP9 PUSH2 0x2D93 JUMP JUMPDEST PUSH2 0x3681 PUSH1 0x60 DUP4 ADD DUP8 PUSH2 0x2DA2 JUMP JUMPDEST PUSH2 0x368E PUSH1 0x80 DUP4 ADD DUP7 PUSH2 0x35FF JUMP JUMPDEST PUSH2 0x369B PUSH1 0xA0 DUP4 ADD DUP6 PUSH2 0x35FF JUMP JUMPDEST PUSH2 0x36A8 PUSH1 0xC0 DUP4 ADD DUP5 PUSH2 0x3638 JUMP JUMPDEST SWAP9 SWAP8 POP POP POP POP POP POP POP POP JUMP JUMPDEST PUSH0 PUSH1 0x60 DUP3 ADD SWAP1 POP PUSH2 0x36C7 PUSH0 DUP4 ADD DUP7 PUSH2 0x2E1F JUMP JUMPDEST PUSH2 0x36D4 PUSH1 0x20 DUP4 ADD DUP6 PUSH2 0x2BA6 JUMP JUMPDEST DUP2 DUP2 SUB PUSH1 0x40 DUP4 ADD MSTORE PUSH2 0x36E6 DUP2 DUP5 PUSH2 0x2C5C JUMP JUMPDEST SWAP1 POP SWAP5 SWAP4 POP POP POP POP JUMP JUMPDEST PUSH32 0x496E76616C696420736C6F740000000000000000000000000000000000000000 PUSH0 DUP3 ADD MSTORE POP JUMP JUMPDEST PUSH0 PUSH2 0x3724 PUSH1 0xC DUP4 PUSH2 0x2F63 JUMP JUMPDEST SWAP2 POP PUSH2 0x372F DUP3 PUSH2 0x36F0 JUMP JUMPDEST PUSH1 0x20 DUP3 ADD SWAP1 POP SWAP2 SWAP1 POP JUMP JUMPDEST PUSH0 PUSH1 0x20 DUP3 ADD SWAP1 POP DUP2 DUP2 SUB PUSH0 DUP4 ADD MSTORE PUSH2 0x3751 DUP2 PUSH2 0x3718 JUMP JUMPDEST SWAP1 POP SWAP2 SWAP1 POP JUMP JUMPDEST PUSH32 0x536C6F7420656D70747900000000000000000000000000000000000000000000 PUSH0 DUP3 ADD MSTORE POP JUMP JUMPDEST PUSH0 PUSH2 0x378C PUSH1 0xA DUP4 PUSH2 0x2F63 JUMP JUMPDEST SWAP2 POP PUSH2 0x3797 DUP3 PUSH2 0x3758 JUMP JUMPDEST PUSH1 0x20 DUP3 ADD SWAP1 POP SWAP2 SWAP1 POP JUMP JUMPDEST PUSH0 PUSH1 0x20 DUP3 ADD SWAP1 POP DUP2 DUP2 SUB PUSH0 DUP4 ADD MSTORE PUSH2 0x37B9 DUP2 PUSH2 0x3780 JUMP JUMPDEST SWAP1 POP SWAP2 SWAP1 POP JUMP JUMPDEST PUSH0 PUSH2 0x37CB DUP3 DUP6 PUSH2 0x3023 JUMP JUMPDEST PUSH1 0x20 DUP3 ADD SWAP2 POP PUSH2 0x37DB DUP3 DUP5 PUSH2 0x3023 JUMP JUMPDEST PUSH1 0x20 DUP3 ADD SWAP2 POP DUP2 SWAP1 POP SWAP4 SWAP3 POP POP POP JUMP JUMPDEST PUSH0 PUSH2 0x37F5 DUP3 PUSH2 0x2F02 JUMP JUMPDEST SWAP2 POP PUSH2 0x3800 DUP4 PUSH2 0x2F02 JUMP JUMPDEST SWAP3 POP DUP3 DUP3 ADD SWAP1 POP PUSH4 0xFFFFFFFF DUP2 GT ISZERO PUSH2 0x381C JUMPI PUSH2 0x381B PUSH2 0x3118 JUMP JUMPDEST JUMPDEST SWAP3 SWAP2 POP POP JUMP JUMPDEST PUSH0 PUSH2 0x382C DUP3 PUSH2 0x2F02 JUMP JUMPDEST SWAP2 POP PUSH2 0x3837 DUP4 PUSH2 0x2F02 JUMP JUMPDEST SWAP3 POP DUP3 DUP3 MUL PUSH2 0x3845 DUP2 PUSH2 0x2F02 JUMP JUMPDEST SWAP2 POP DUP1 DUP3 EQ PUSH2 0x3857 JUMPI PUSH2 0x3856 PUSH2 0x3118 JUMP JUMPDEST JUMPDEST POP SWAP3 SWAP2 POP POP JUMP JUMPDEST PUSH0 PUSH2 0x3868 DUP3 PUSH2 0x2EE6 JUMP JUMPDEST SWAP2 POP PUSH2 0xFFFF DUP3 SUB PUSH2 0x387C JUMPI PUSH2 0x387B PUSH2 0x3118 JUMP JUMPDEST JUMPDEST PUSH1 0x1 DUP3 ADD SWAP1 POP SWAP2 SWAP1 POP JUMP JUMPDEST PUSH0 PUSH2 0x3892 DUP3 DUP8 PUSH2 0x3023 JUMP JUMPDEST PUSH1 0x20 DUP3 ADD SWAP2 POP PUSH2 0x38A2 DUP3 DUP7 PUSH2 0x3068 JUMP JUMPDEST PUSH1 0x14 DUP3 ADD SWAP2 POP PUSH2 0x38B2 DUP3 DUP6 PUSH2 0x3023 JUMP JUMPDEST PUSH1 0x20 DUP3 ADD SWAP2 POP PUSH2 0x38C2 DUP3 DUP5 PUSH2 0x3023 JUMP JUMPDEST PUSH1 0x20 DUP3 ADD SWAP2 POP DUP2 SWAP1 POP SWAP6 SWAP5 POP POP POP POP POP JUMP JUMPDEST PUSH0 PUSH2 0x38DE DUP3 PUSH2 0x2B35 JUMP JUMPDEST SWAP2 POP PUSH2 0x38E9 DUP4 PUSH2 0x2B35 JUMP JUMPDEST SWAP3 POP DUP3 DUP3 MUL PUSH2 0x38F7 DUP2 PUSH2 0x2B35 JUMP JUMPDEST SWAP2 POP DUP3 DUP3 DIV DUP5 EQ DUP4 ISZERO OR PUSH2 0x390E JUMPI PUSH2 0x390D PUSH2 0x3118 JUMP JUMPDEST JUMPDEST POP SWAP3 SWAP2 POP POP JUMP JUMPDEST PUSH0 PUSH2 0x391F DUP3 PUSH2 0x2B35 JUMP JUMPDEST SWAP2 POP PUSH2 0x392A DUP4 PUSH2 0x2B35 JUMP JUMPDEST SWAP3 POP DUP3 DUP3 ADD SWAP1 POP DUP1 DUP3 GT ISZERO PUSH2 0x3942 JUMPI PUSH2 0x3941 PUSH2 0x3118 JUMP JUMPDEST JUMPDEST SWAP3 SWAP2 POP POP JUMP JUMPDEST PUSH0 PUSH0 REVERT JUMPDEST PUSH0 PUSH1 0x1F NOT PUSH1 0x1F DUP4 ADD AND SWAP1 POP SWAP2 SWAP1 POP JUMP JUMPDEST PUSH2 0x3965 DUP3 PUSH2 0x394C JUMP JUMPDEST DUP2 ADD DUP2 DUP2 LT PUSH8 0xFFFFFFFFFFFFFFFF DUP3 GT OR ISZERO PUSH2 0x3984 JUMPI PUSH2 0x3983 PUSH2 0x33B1 JUMP JUMPDEST JUMPDEST DUP1 PUSH1 0x40 MSTORE POP POP POP JUMP JUMPDEST PUSH0 PUSH2 0x3996 PUSH2 0x285C JUMP JUMPDEST SWAP1 POP PUSH2 0x39A2 DUP3 DUP3 PUSH2 0x395C JUMP JUMPDEST SWAP2 SWAP1 POP JUMP JUMPDEST PUSH1 0x3 DUP2 LT PUSH2 0x39B3 JUMPI PUSH0 PUSH0 REVERT JUMPDEST POP JUMP JUMPDEST PUSH0 DUP2 MLOAD SWAP1 POP PUSH2 0x39C4 DUP2 PUSH2 0x39A7 JUMP JUMPDEST SWAP3 SWAP2 POP POP JUMP JUMPDEST PUSH1 0x3 DUP2 LT PUSH2 0x39D6 JUMPI PUSH0 PUSH0 REVERT JUMPDEST POP JUMP JUMPDEST PUSH0 DUP2 MLOAD SWAP1 POP PUSH2 0x39E7 DUP2 PUSH2 0x39CA JUMP JUMPDEST SWAP3 SWAP2 POP POP JUMP JUMPDEST PUSH1 0x4 DUP2 LT PUSH2 0x39F9 JUMPI PUSH0 PUSH0 REVERT JUMPDEST POP JUMP JUMPDEST PUSH0 DUP2 MLOAD SWAP1 POP PUSH2 0x3A0A DUP2 PUSH2 0x39ED JUMP JUMPDEST SWAP3 SWAP2 POP POP JUMP JUMPDEST PUSH2 0x3A19 DUP2 PUSH2 0x2A0E JUMP JUMPDEST DUP2 EQ PUSH2 0x3A23 JUMPI PUSH0 PUSH0 REVERT JUMPDEST POP JUMP JUMPDEST PUSH0 DUP2 MLOAD SWAP1 POP PUSH2 0x3A34 DUP2 PUSH2 0x3A10 JUMP JUMPDEST SWAP3 SWAP2 POP POP JUMP JUMPDEST PUSH0 PUSH1 0xC0 DUP3 DUP5 SUB SLT ISZERO PUSH2 0x3A4F JUMPI PUSH2 0x3A4E PUSH2 0x3948 JUMP JUMPDEST JUMPDEST PUSH2 0x3A59 PUSH1 0xC0 PUSH2 0x398D JUMP JUMPDEST SWAP1 POP PUSH0 PUSH2 0x3A68 DUP5 DUP3 DUP6 ADD PUSH2 0x39B6 JUMP JUMPDEST PUSH0 DUP4 ADD MSTORE POP PUSH1 0x20 PUSH2 0x3A7B DUP5 DUP3 DUP6 ADD PUSH2 0x39D9 JUMP JUMPDEST PUSH1 0x20 DUP4 ADD MSTORE POP PUSH1 0x40 PUSH2 0x3A8F DUP5 DUP3 DUP6 ADD PUSH2 0x39FC JUMP JUMPDEST PUSH1 0x40 DUP4 ADD MSTORE POP PUSH1 0x60 PUSH2 0x3AA3 DUP5 DUP3 DUP6 ADD PUSH2 0x3A26 JUMP JUMPDEST PUSH1 0x60 DUP4 ADD MSTORE POP PUSH1 0x80 PUSH2 0x3AB7 DUP5 DUP3 DUP6 ADD PUSH2 0x3A26 JUMP JUMPDEST PUSH1 0x80 DUP4 ADD MSTORE POP PUSH1 0xA0 PUSH2 0x3ACB DUP5 DUP3 DUP6 ADD PUSH2 0x3A26 JUMP JUMPDEST PUSH1 0xA0 DUP4 ADD MSTORE POP SWAP3 SWAP2 POP POP JUMP JUMPDEST PUSH0 PUSH1 0xC0 DUP3 DUP5 SUB SLT ISZERO PUSH2 0x3AEC JUMPI PUSH2 0x3AEB PUSH2 0x2865 JUMP JUMPDEST JUMPDEST PUSH0 PUSH2 0x3AF9 DUP5 DUP3 DUP6 ADD PUSH2 0x3A3A JUMP JUMPDEST SWAP2 POP POP SWAP3 SWAP2 POP POP JUMP JUMPDEST PUSH0 PUSH2 0x3B0C DUP3 PUSH2 0x2A0E JUMP JUMPDEST SWAP2 POP PUSH1 0xFF DUP3 SUB PUSH2 0x3B1F JUMPI PUSH2 0x3B1E PUSH2 0x3118 JUMP JUMPDEST JUMPDEST PUSH1 0x1 DUP3 ADD SWAP1 POP SWAP2 SWAP1 POP JUMP JUMPDEST PUSH0 PUSH2 0x3B34 DUP3 PUSH2 0x2B35 JUMP JUMPDEST SWAP2 POP PUSH2 0x3B3F DUP4 PUSH2 0x2B35 JUMP JUMPDEST SWAP3 POP DUP3 PUSH2 0x3B4F JUMPI PUSH2 0x3B4E PUSH2 0x30BB JUMP JUMPDEST JUMPDEST DUP3 DUP3 DIV SWAP1 POP SWAP3 SWAP2 POP POP JUMP INVALID LOG2 PUSH5 0x6970667358 0x22 SLT KECCAK256 ISZERO 0xBA PUSH25 0x951355D07E37DC1DDAA3A03E60E8ABAF6BA006F175CAE3F013 JUMPDEST BLOBHASH SELFDESTRUCT 0x2C PUSH5 0x736F6C6343 STOP ADDMOD 0x1E STOP CALLER "
		},
		"gasEstimates": {
			"creation": {
				"codeDepositCost": "3049600",
				"executionCost": "infinite",
				"totalCost": "infinite"
			},
			"external": {
				"BUY_PRICE()": "414",
				"REROLL_PRICE()": "347",
				"buyFromShop(uint256)": "infinite",
				"buyUnit()": "infinite",
				"getPlayerShop(address)": "infinite",
				"getPlayerUnits(address)": "infinite",
				"owner()": "2625",
				"pause()": "infinite",
				"paused()": "2568",
				"playerShopPreview(address,uint256)": "infinite",
				"playerUnits(address,uint256)": "infinite",
				"profiles(address)": "infinite",
				"renounceOwnership()": "infinite",
				"rerollShop()": "infinite",
				"setUnitNFT(address)": "infinite",
				"startMatch(uint256[])": "infinite",
				"transferOwnership(address)": "infinite",
				"unitNFT()": "infinite",
				"unpause()": "infinite",
				"withdraw()": "infinite"
			},
			"internal": {
				"_generateRandomRarity(uint256,uint256)": "infinite",
				"_generateShopPreview(address)": "infinite",
				"_simulateBattle(uint256[] calldata)": "infinite",
				"_updateProfileBuy(address)": "infinite",
				"_updateProfileMatch(address,bool)": "infinite"
			}
		},
		"methodIdentifiers": {
			"BUY_PRICE()": "705fe4be",
			"REROLL_PRICE()": "9f51758e",
			"buyFromShop(uint256)": "b654823e",
			"buyUnit()": "201738e2",
			"getPlayerShop(address)": "49c7c24a",
			"getPlayerUnits(address)": "6154ee97",
			"owner()": "8da5cb5b",
			"pause()": "8456cb59",
			"paused()": "5c975abb",
			"playerShopPreview(address,uint256)": "84d38fdc",
			"playerUnits(address,uint256)": "4ef2d6c1",
			"profiles(address)": "bbe15627",
			"renounceOwnership()": "715018a6",
			"rerollShop()": "29de58d1",
			"setUnitNFT(address)": "7e5c4f8b",
			"startMatch(uint256[])": "7f570e2b",
			"transferOwnership(address)": "f2fde38b",
			"unitNFT()": "b92a40ad",
			"unpause()": "3f4ba83a",
			"withdraw()": "3ccfd60b"
		}
	},
	"abi": [
		{
			"inputs": [
				{
					"internalType": "address",
					"name": "_unitNFT",
					"type": "address"
				}
			],
			"stateMutability": "nonpayable",
			"type": "constructor"
		},
		{
			"inputs": [],
			"name": "EnforcedPause",
			"type": "error"
		},
		{
			"inputs": [],
			"name": "ExpectedPause",
			"type": "error"
		},
		{
			"inputs": [
				{
					"internalType": "address",
					"name": "owner",
					"type": "address"
				}
			],
			"name": "OwnableInvalidOwner",
			"type": "error"
		},
		{
			"inputs": [
				{
					"internalType": "address",
					"name": "account",
					"type": "address"
				}
			],
			"name": "OwnableUnauthorizedAccount",
			"type": "error"
		},
		{
			"inputs": [],
			"name": "ReentrancyGuardReentrantCall",
			"type": "error"
		},
		{
			"anonymous": false,
			"inputs": [
				{
					"indexed": false,
					"internalType": "address",
					"name": "player",
					"type": "address"
				},
				{
					"indexed": false,
					"internalType": "uint256",
					"name": "score",
					"type": "uint256"
				},
				{
					"indexed": false,
					"internalType": "uint256[]",
					"name": "rewards",
					"type": "uint256[]"
				}
			],
			"name": "MatchPlayed",
			"type": "event"
		},
		{
			"anonymous": false,
			"inputs": [
				{
					"indexed": true,
					"internalType": "address",
					"name": "previousOwner",
					"type": "address"
				},
				{
					"indexed": true,
					"internalType": "address",
					"name": "newOwner",
					"type": "address"
				}
			],
			"name": "OwnershipTransferred",
			"type": "event"
		},
		{
			"anonymous": false,
			"inputs": [
				{
					"indexed": false,
					"internalType": "address",
					"name": "account",
					"type": "address"
				}
			],
			"name": "Paused",
			"type": "event"
		},
		{
			"anonymous": false,
			"inputs": [
				{
					"indexed": false,
					"internalType": "address",
					"name": "player",
					"type": "address"
				}
			],
			"name": "ShopRerolled",
			"type": "event"
		},
		{
			"anonymous": false,
			"inputs": [
				{
					"indexed": false,
					"internalType": "address",
					"name": "player",
					"type": "address"
				},
				{
					"indexed": false,
					"internalType": "uint256",
					"name": "tokenId",
					"type": "uint256"
				}
			],
			"name": "UnitBought",
			"type": "event"
		},
		{
			"anonymous": false,
			"inputs": [
				{
					"indexed": false,
					"internalType": "address",
					"name": "account",
					"type": "address"
				}
			],
			"name": "Unpaused",
			"type": "event"
		},
		{
			"inputs": [],
			"name": "BUY_PRICE",
			"outputs": [
				{
					"internalType": "uint256",
					"name": "",
					"type": "uint256"
				}
			],
			"stateMutability": "view",
			"type": "function"
		},
		{
			"inputs": [],
			"name": "REROLL_PRICE",
			"outputs": [
				{
					"internalType": "uint256",
					"name": "",
					"type": "uint256"
				}
			],
			"stateMutability": "view",
			"type": "function"
		},
		{
			"inputs": [
				{
					"internalType": "uint256",
					"name": "slot",
					"type": "uint256"
				}
			],
			"name": "buyFromShop",
			"outputs": [],
			"stateMutability": "payable",
			"type": "function"
		},
		{
			"inputs": [],
			"name": "buyUnit",
			"outputs": [],
			"stateMutability": "payable",
			"type": "function"
		},
		{
			"inputs": [
				{
					"internalType": "address",
					"name": "player",
					"type": "address"
				}
			],
			"name": "getPlayerShop",
			"outputs": [
				{
					"components": [
						{
							"internalType": "enum StarForgeUnitNFT.Faction",
							"name": "faction",
							"type": "uint8"
						},
						{
							"internalType": "enum StarForgeUnitNFT.Rarity",
							"name": "rarity",
							"type": "uint8"
						},
						{
							"internalType": "enum StarForgeUnitNFT.UnitClass",
							"name": "unitClass",
							"type": "uint8"
						},
						{
							"internalType": "uint8",
							"name": "attack",
							"type": "uint8"
						},
						{
							"internalType": "uint8",
							"name": "defense",
							"type": "uint8"
						},
						{
							"internalType": "uint8",
							"name": "speed",
							"type": "uint8"
						}
					],
					"internalType": "struct StarForgeGame.ShopUnit[5]",
					"name": "",
					"type": "tuple[5]"
				}
			],
			"stateMutability": "view",
			"type": "function"
		},
		{
			"inputs": [
				{
					"internalType": "address",
					"name": "player",
					"type": "address"
				}
			],
			"name": "getPlayerUnits",
			"outputs": [
				{
					"internalType": "uint256[]",
					"name": "",
					"type": "uint256[]"
				}
			],
			"stateMutability": "view",
			"type": "function"
		},
		{
			"inputs": [],
			"name": "owner",
			"outputs": [
				{
					"internalType": "address",
					"name": "",
					"type": "address"
				}
			],
			"stateMutability": "view",
			"type": "function"
		},
		{
			"inputs": [],
			"name": "pause",
			"outputs": [],
			"stateMutability": "nonpayable",
			"type": "function"
		},
		{
			"inputs": [],
			"name": "paused",
			"outputs": [
				{
					"internalType": "bool",
					"name": "",
					"type": "bool"
				}
			],
			"stateMutability": "view",
			"type": "function"
		},
		{
			"inputs": [
				{
					"internalType": "address",
					"name": "",
					"type": "address"
				},
				{
					"internalType": "uint256",
					"name": "",
					"type": "uint256"
				}
			],
			"name": "playerShopPreview",
			"outputs": [
				{
					"internalType": "enum StarForgeUnitNFT.Faction",
					"name": "faction",
					"type": "uint8"
				},
				{
					"internalType": "enum StarForgeUnitNFT.Rarity",
					"name": "rarity",
					"type": "uint8"
				},
				{
					"internalType": "enum StarForgeUnitNFT.UnitClass",
					"name": "unitClass",
					"type": "uint8"
				},
				{
					"internalType": "uint8",
					"name": "attack",
					"type": "uint8"
				},
				{
					"internalType": "uint8",
					"name": "defense",
					"type": "uint8"
				},
				{
					"internalType": "uint8",
					"name": "speed",
					"type": "uint8"
				}
			],
			"stateMutability": "view",
			"type": "function"
		},
		{
			"inputs": [
				{
					"internalType": "address",
					"name": "",
					"type": "address"
				},
				{
					"internalType": "uint256",
					"name": "",
					"type": "uint256"
				}
			],
			"name": "playerUnits",
			"outputs": [
				{
					"internalType": "uint256",
					"name": "",
					"type": "uint256"
				}
			],
			"stateMutability": "view",
			"type": "function"
		},
		{
			"inputs": [
				{
					"internalType": "address",
					"name": "",
					"type": "address"
				}
			],
			"name": "profiles",
			"outputs": [
				{
					"internalType": "uint16",
					"name": "level",
					"type": "uint16"
				},
				{
					"internalType": "uint32",
					"name": "xp",
					"type": "uint32"
				},
				{
					"internalType": "uint256",
					"name": "wins",
					"type": "uint256"
				},
				{
					"internalType": "uint256",
					"name": "losses",
					"type": "uint256"
				}
			],
			"stateMutability": "view",
			"type": "function"
		},
		{
			"inputs": [],
			"name": "renounceOwnership",
			"outputs": [],
			"stateMutability": "nonpayable",
			"type": "function"
		},
		{
			"inputs": [],
			"name": "rerollShop",
			"outputs": [],
			"stateMutability": "payable",
			"type": "function"
		},
		{
			"inputs": [
				{
					"internalType": "address",
					"name": "_unitNFT",
					"type": "address"
				}
			],
			"name": "setUnitNFT",
			"outputs": [],
			"stateMutability": "nonpayable",
			"type": "function"
		},
		{
			"inputs": [
				{
					"internalType": "uint256[]",
					"name": "team",
					"type": "uint256[]"
				}
			],
			"name": "startMatch",
			"outputs": [],
			"stateMutability": "nonpayable",
			"type": "function"
		},
		{
			"inputs": [
				{
					"internalType": "address",
					"name": "newOwner",
					"type": "address"
				}
			],
			"name": "transferOwnership",
			"outputs": [],
			"stateMutability": "nonpayable",
			"type": "function"
		},
		{
			"inputs": [],
			"name": "unitNFT",
			"outputs": [
				{
					"internalType": "contract StarForgeUnitNFT",
					"name": "",
					"type": "address"
				}
			],
			"stateMutability": "view",
			"type": "function"
		},
		{
			"inputs": [],
			"name": "unpause",
			"outputs": [],
			"stateMutability": "nonpayable",
			"type": "function"
		},
		{
			"inputs": [],
			"name": "withdraw",
			"outputs": [],
			"stateMutability": "nonpayable",
			"type": "function"
		}
	]
}