{
	"data": {
		"bytecode": {
			"linkReferences": {},
			"object": "608060405234801561000f575f5ffd5b506040516150583803806150588339818101604052810190610031919061026d565b335f73ffffffffffffffffffffffffffffffffffffffff168173ffffffffffffffffffffffffffffffffffffffff16036100a2575f6040517f1e4fbdf700000000000000000000000000000000000000000000000000000000815260040161009991906102a7565b60405180910390fd5b6100b18161011c60201b60201c565b5060016100d06100c56101dd60201b60201c565b61020660201b60201c565b5f01819055508060015f6101000a81548173ffffffffffffffffffffffffffffffffffffffff021916908373ffffffffffffffffffffffffffffffffffffffff160217905550506102c0565b5f5f5f9054906101000a900473ffffffffffffffffffffffffffffffffffffffff169050815f5f6101000a81548173ffffffffffffffffffffffffffffffffffffffff021916908373ffffffffffffffffffffffffffffffffffffffff1602179055508173ffffffffffffffffffffffffffffffffffffffff168173ffffffffffffffffffffffffffffffffffffffff167f8be0079c531659141344cd1fd0a4f28419497f9722a3daafe3b4186f6b6457e060405160405180910390a35050565b5f7f9b779b17422d0df92223018b32b4d1fa46e071723d6817e2486d003becc55f005f1b905090565b5f819050919050565b5f5ffd5b5f73ffffffffffffffffffffffffffffffffffffffff82169050919050565b5f61023c82610213565b9050919050565b61024c81610232565b8114610256575f5ffd5b50565b5f8151905061026781610243565b92915050565b5f602082840312156102825761028161020f565b5b5f61028f84828501610259565b91505092915050565b6102a181610232565b82525050565b5f6020820190506102ba5f830184610298565b92915050565b614d8b806102cd5f395ff3fe60806040526004361061014a575f3560e01c80638456cb59116100b5578063bbe156271161006e578063bbe15627146103ed578063c99ae45f1461042c578063d6691c2714610468578063e155776b146104a9578063f01640a0146104bf578063f2fde38b146104d55761014a565b80638456cb59146102fc57806384d38fdc146103125780638da5cb5b146103535780639f51758e1461037d578063b654823e146103a7578063b92a40ad146103c35761014a565b80635c975abb116101075780635c975abb146102065780636154ee9714610230578063705fe4be1461026c578063715018a6146102965780637e5c4f8b146102ac5780637f570e2b146102d45761014a565b8063201738e21461014e57806329de58d1146101585780633ccfd60b146101625780633f4ba83a1461017857806349c7c24a1461018e5780634ef2d6c1146101ca575b5f5ffd5b6101566104fd565b005b6101606108df565b005b34801561016d575f5ffd5b5061017661097b565b005b348015610183575f5ffd5b5061018c6109d0565b005b348015610199575f5ffd5b506101b460048036038101906101af919061390c565b6109e2565b6040516101c19190613b60565b60405180910390f35b3480156101d5575f5ffd5b506101f060048036038101906101eb9190613bad565b610b6e565b6040516101fd9190613bfa565b60405180910390f35b348015610211575f5ffd5b5061021a610b99565b6040516102279190613c2d565b60405180910390f35b34801561023b575f5ffd5b506102566004803603810190610251919061390c565b610bae565b6040516102639190613cfd565b60405180910390f35b348015610277575f5ffd5b50610280610c41565b60405161028d9190613bfa565b60405180910390f35b3480156102a1575f5ffd5b506102aa610c45565b005b3480156102b7575f5ffd5b506102d260048036038101906102cd919061390c565b610c58565b005b3480156102df575f5ffd5b506102fa60048036038101906102f59190613d7e565b610ca3565b005b348015610307575f5ffd5b506103106117c5565b005b34801561031d575f5ffd5b5061033860048036038101906103339190613bad565b6117d7565b60405161034a96959493929190613e05565b60405180910390f35b34801561035e575f5ffd5b50610367611866565b6040516103749190613e73565b60405180910390f35b348015610388575f5ffd5b5061039161188d565b60405161039e9190613bfa565b60405180910390f35b6103c160048036038101906103bc9190613e8c565b611891565b005b3480156103ce575f5ffd5b506103d7611d02565b6040516103e49190613f12565b60405180910390f35b3480156103f8575f5ffd5b50610413600480360381019061040e919061390c565b611d27565b6040516104239493929190613f65565b60405180910390f35b348015610437575f5ffd5b50610452600480360381019061044d919061390c565b611d6f565b60405161045f9190614039565b60405180910390f35b348015610473575f5ffd5b5061048e60048036038101906104899190613bad565b611f05565b6040516104a096959493929190613e05565b60405180910390f35b3480156104b4575f5ffd5b506104bd611f9b565b005b3480156104ca575f5ffd5b506104d3612006565b005b3480156104e0575f5ffd5b506104fb60048036038101906104f6919061390c565b612093565b005b610505612117565b61050d612158565b5f341461054f576040517f08c379a0000000000000000000000000000000000000000000000000000000008152600401610546906140b3565b60405180910390fd5b5f423360015f9054906101000a900473ffffffffffffffffffffffffffffffffffffffff1673ffffffffffffffffffffffffffffffffffffffff166318160ddd6040518163ffffffff1660e01b8152600401602060405180830381865afa1580156105bc573d5f5f3e3d5ffd5b505050506040513d601f19601f820116820180604052508101906105e091906140e5565b6040516020016105f293929190614175565b604051602081830303815290604052805190602001205f1c90505f60038261061a91906141de565b60ff16600281111561062f5761062e613954565b5b90505f61063e836103e761217a565b90505f6004600885901c61065291906141de565b60ff16600381111561066757610666613954565b5b90505f6006601086901c61067b91906141de565b6005610687919061423b565b90505f6006601887901c61069b91906141de565b60046106a7919061423b565b90505f6006602088901c6106bb91906141de565b60056106c7919061423b565b9050600160028111156106dd576106dc613954565b5b8560028111156106f0576106ef613954565b5b0361072757600283610702919061423b565b9250600282610711919061423b565b9150600181610720919061423b565b9050610781565b60028081111561073a57610739613954565b5b85600281111561074d5761074c613954565b5b036107805760048361075f919061423b565b925060038261076e919061423b565b915060038161077d919061423b565b90505b5b5f60015f9054906101000a900473ffffffffffffffffffffffffffffffffffffffff1673ffffffffffffffffffffffffffffffffffffffff166371dec088338989898989896040518863ffffffff1660e01b81526004016107e8979695949392919061426f565b6020604051808303815f875af1158015610804573d5f5f3e3d5ffd5b505050506040513d601f19601f8201168201806040525081019061082891906140e5565b905060055f3373ffffffffffffffffffffffffffffffffffffffff1673ffffffffffffffffffffffffffffffffffffffff1681526020019081526020015f2081908060018154018082558091505060019003905f5260205f20015f9091909190915055610894336121e6565b7fdded256c7e86a19d1be0f3168d1ec8d5cfc9c713c96bdc10defadd014692cf9233826040516108c59291906142dc565b60405180910390a150505050505050506108dd612349565b565b6108e7612117565b6108ef612158565b5f3414610931576040517f08c379a00000000000000000000000000000000000000000000000000000000081526004016109289061434d565b60405180910390fd5b61093a33612363565b7fb1b757afec988e099a59bc127abea15824bf7acc7137103e4197ef22a9afad11336040516109699190613e73565b60405180910390a1610979612349565b565b6109836127ac565b61098b611866565b73ffffffffffffffffffffffffffffffffffffffff166108fc4790811502906040515f60405180830381858888f193505050501580156109cd573d5f5f3e3d5ffd5b50565b6109d86127ac565b6109e0612833565b565b6109ea61373d565b60035f8373ffffffffffffffffffffffffffffffffffffffff1673ffffffffffffffffffffffffffffffffffffffff1681526020019081526020015f20600580602002604051908101604052809291905f905b82821015610b63578382016040518060c00160405290815f82015f9054906101000a900460ff166002811115610a7657610a75613954565b5b6002811115610a8857610a87613954565b5b81526020015f820160019054906101000a900460ff166002811115610ab057610aaf613954565b5b6002811115610ac257610ac1613954565b5b81526020015f820160029054906101000a900460ff166003811115610aea57610ae9613954565b5b6003811115610afc57610afb613954565b5b81526020015f820160039054906101000a900460ff1660ff1660ff1681526020015f820160049054906101000a900460ff1660ff1660ff1681526020015f820160059054906101000a900460ff1660ff1660ff168152505081526020019060010190610a3d565b505050509050919050565b6005602052815f5260405f208181548110610b87575f80fd5b905f5260205f20015f91509150505481565b5f5f60149054906101000a900460ff16905090565b606060055f8373ffffffffffffffffffffffffffffffffffffffff1673ffffffffffffffffffffffffffffffffffffffff1681526020019081526020015f20805480602002602001604051908101604052809291908181526020018280548015610c3557602002820191905f5260205f20905b815481526020019060010190808311610c21575b50505050509050919050565b5f81565b610c4d6127ac565b610c565f612894565b565b610c606127ac565b8060015f6101000a81548173ffffffffffffffffffffffffffffffffffffffff021916908373ffffffffffffffffffffffffffffffffffffffff16021790555050565b610cab612117565b610cb3612158565b60048282905010158015610ccb575060088282905011155b610d0a576040517f08c379a0000000000000000000000000000000000000000000000000000000008152600401610d01906143b5565b60405180910390fd5b5f5f90505b82829050811015610e46573373ffffffffffffffffffffffffffffffffffffffff1660015f9054906101000a900473ffffffffffffffffffffffffffffffffffffffff1673ffffffffffffffffffffffffffffffffffffffff16636352211e858585818110610d8157610d806143d3565b5b905060200201356040518263ffffffff1660e01b8152600401610da49190613bfa565b602060405180830381865afa158015610dbf573d5f5f3e3d5ffd5b505050506040513d601f19601f82011682018060405250810190610de39190614414565b73ffffffffffffffffffffffffffffffffffffffff1614610e39576040517f08c379a0000000000000000000000000000000000000000000000000000000008152600401610e3090614489565b60405180910390fd5b8080600101915050610d0f565b505f60045f3373ffffffffffffffffffffffffffffffffffffffff1673ffffffffffffffffffffffffffffffffffffffff1681526020019081526020015f20805480602002602001604051908101604052809291908181526020015f905b82821015610fd1578382905f5260205f20016040518060c00160405290815f82015f9054906101000a900460ff166002811115610ee457610ee3613954565b5b6002811115610ef657610ef5613954565b5b81526020015f820160019054906101000a900460ff166002811115610f1e57610f1d613954565b5b6002811115610f3057610f2f613954565b5b81526020015f820160029054906101000a900460ff166003811115610f5857610f57613954565b5b6003811115610f6a57610f69613954565b5b81526020015f820160039054906101000a900460ff1660ff1660ff1681526020015f820160049054906101000a900460ff1660ff1660ff1681526020015f820160059054906101000a900460ff1660ff1660ff168152505081526020019060010190610ea4565b5050505090505f81510361117857610fe833612955565b60045f3373ffffffffffffffffffffffffffffffffffffffff1673ffffffffffffffffffffffffffffffffffffffff1681526020019081526020015f20805480602002602001604051908101604052809291908181526020015f905b82821015611171578382905f5260205f20016040518060c00160405290815f82015f9054906101000a900460ff16600281111561108457611083613954565b5b600281111561109657611095613954565b5b81526020015f820160019054906101000a900460ff1660028111156110be576110bd613954565b5b60028111156110d0576110cf613954565b5b81526020015f820160029054906101000a900460ff1660038111156110f8576110f7613954565b5b600381111561110a57611109613954565b5b81526020015f820160039054906101000a900460ff1660ff1660ff1681526020015f820160049054906101000a900460ff1660ff1660ff1681526020015f820160059054906101000a900460ff1660ff1660ff168152505081526020019060010190611044565b5050505090505b5f5f6111848585612f33565b915091505f61119284613215565b5090505f4233446040516020016111ab93929190614175565b604051602081830303815290604052805190602001205f1c90505f60198460ff166111d691906144a7565b6032836111e391906141de565b866111ee91906144e8565b6111f891906144e8565b90505f602d604084901c61120c91906141de565b8461121791906144e8565b90505f8183119050611229338261345c565b5f81611236576001611239565b60035b60ff1690505f8167ffffffffffffffff8111156112595761125861451b565b5b6040519080825280602002602001820160405280156112875781602001602082028036833780820191505090505b5090505f5f905060015f9054906101000a900473ffffffffffffffffffffffffffffffffffffffff1673ffffffffffffffffffffffffffffffffffffffff166371dec08833600342336040516020016112e1929190614548565b604051602081830303815290604052805190602001205f1c61130391906141de565b60ff16600281111561131857611317613954565b5b5f5f60058060066040518863ffffffff1660e01b815260040161134197969594939291906145e5565b6020604051808303815f875af115801561135d573d5f5f3e3d5ffd5b505050506040513d601f19601f8201168201806040525081019061138191906140e5565b82828061138d90614652565b9350815181106113a05761139f6143d3565b5b60200260200101818152505083156116035760015f9054906101000a900473ffffffffffffffffffffffffffffffffffffffff1673ffffffffffffffffffffffffffffffffffffffff166371dec0883360034233600160405160200161140893929190614175565b604051602081830303815290604052805190602001205f1c61142a91906141de565b60ff16600281111561143f5761143e613954565b5b60018060078060076040518863ffffffff1660e01b815260040161146997969594939291906146d2565b6020604051808303815f875af1158015611485573d5f5f3e3d5ffd5b505050506040513d601f19601f820116820180604052508101906114a991906140e5565b8282806114b590614652565b9350815181106114c8576114c76143d3565b5b60200260200101818152505060028960ff16106116025760015f9054906101000a900473ffffffffffffffffffffffffffffffffffffffff1673ffffffffffffffffffffffffffffffffffffffff166371dec0883360034233600260405160200161153593929190614175565b604051602081830303815290604052805190602001205f1c61155791906141de565b60ff16600281111561156c5761156b613954565b5b60028060098060086040518863ffffffff1660e01b815260040161159697969594939291906147b1565b6020604051808303815f875af11580156115b2573d5f5f3e3d5ffd5b505050506040513d601f19601f820116820180604052508101906115d691906140e5565b8282806115e290614652565b9350815181106115f5576115f46143d3565b5b6020026020010181815250505b5b5f8367ffffffffffffffff81111561161e5761161d61451b565b5b60405190808252806020026020018201604052801561164c5781602001602082028036833780820191505090505b5090505f5f90505b8481101561171e5783818151811061166f5761166e6143d3565b5b602002602001015182828151811061168a576116896143d3565b5b60200260200101818152505060055f3373ffffffffffffffffffffffffffffffffffffffff1673ffffffffffffffffffffffffffffffffffffffff1681526020019081526020015f208482815181106116e6576116e56143d3565b5b6020026020010151908060018154018082558091505060019003905f5260205f20015f90919091909150558080600101915050611654565b50841561176e5760045f3373ffffffffffffffffffffffffffffffffffffffff1673ffffffffffffffffffffffffffffffffffffffff1681526020019081526020015f205f61176d919061376a565b5b7fe5ea426f1b256fa31597cf9f5e138dd78d805a5518b5a5b9045b30bbd778360a33868989856040516117a595949392919061481e565b60405180910390a15050505050505050505050506117c1612349565b5050565b6117cd6127ac565b6117d5613605565b565b6003602052815f5260405f2081600581106117f0575f80fd5b015f9150915050805f015f9054906101000a900460ff1690805f0160019054906101000a900460ff1690805f0160029054906101000a900460ff1690805f0160039054906101000a900460ff1690805f0160049054906101000a900460ff1690805f0160059054906101000a900460ff16905086565b5f5f5f9054906101000a900473ffffffffffffffffffffffffffffffffffffffff16905090565b5f81565b611899612117565b6118a1612158565b5f34146118e3576040517f08c379a00000000000000000000000000000000000000000000000000000000081526004016118da906140b3565b60405180910390fd5b60058110611926576040517f08c379a000000000000000000000000000000000000000000000000000000000815260040161191d906148c0565b60405180910390fd5b5f60035f3373ffffffffffffffffffffffffffffffffffffffff1673ffffffffffffffffffffffffffffffffffffffff1681526020019081526020015f208260058110611976576119756143d3565b5b016040518060c00160405290815f82015f9054906101000a900460ff1660028111156119a5576119a4613954565b5b60028111156119b7576119b6613954565b5b81526020015f820160019054906101000a900460ff1660028111156119df576119de613954565b5b60028111156119f1576119f0613954565b5b81526020015f820160029054906101000a900460ff166003811115611a1957611a18613954565b5b6003811115611a2b57611a2a613954565b5b81526020015f820160039054906101000a900460ff1660ff1660ff1681526020015f820160049054906101000a900460ff1660ff1660ff1681526020015f820160059054906101000a900460ff1660ff1660ff168152505090505f816060015160ff1611611ace576040517f08c379a0000000000000000000000000000000000000000000000000000000008152600401611ac590614928565b60405180910390fd5b5f60015f9054906101000a900473ffffffffffffffffffffffffffffffffffffffff1673ffffffffffffffffffffffffffffffffffffffff166371dec08833845f015185602001518660400151876060015188608001518960a001516040518863ffffffff1660e01b8152600401611b4c979695949392919061426f565b6020604051808303815f875af1158015611b68573d5f5f3e3d5ffd5b505050506040513d601f19601f82011682018060405250810190611b8c91906140e5565b905060055f3373ffffffffffffffffffffffffffffffffffffffff1673ffffffffffffffffffffffffffffffffffffffff1681526020019081526020015f2081908060018154018082558091505060019003905f5260205f20015f909190919091505560035f3373ffffffffffffffffffffffffffffffffffffffff1673ffffffffffffffffffffffffffffffffffffffff1681526020019081526020015f208360058110611c3e57611c3d6143d3565b5b015f5f82015f6101000a81549060ff02191690555f820160016101000a81549060ff02191690555f820160026101000a81549060ff02191690555f820160036101000a81549060ff02191690555f820160046101000a81549060ff02191690555f820160056101000a81549060ff02191690555050611cbc336121e6565b7fdded256c7e86a19d1be0f3168d1ec8d5cfc9c713c96bdc10defadd014692cf923382604051611ced9291906142dc565b60405180910390a15050611cff612349565b50565b60015f9054906101000a900473ffffffffffffffffffffffffffffffffffffffff1681565b6002602052805f5260405f205f91509050805f015f9054906101000a900461ffff1690805f0160029054906101000a900463ffffffff16908060010154908060020154905084565b606060045f8373ffffffffffffffffffffffffffffffffffffffff1673ffffffffffffffffffffffffffffffffffffffff1681526020019081526020015f20805480602002602001604051908101604052809291908181526020015f905b82821015611efa578382905f5260205f20016040518060c00160405290815f82015f9054906101000a900460ff166002811115611e0d57611e0c613954565b5b6002811115611e1f57611e1e613954565b5b81526020015f820160019054906101000a900460ff166002811115611e4757611e46613954565b5b6002811115611e5957611e58613954565b5b81526020015f820160029054906101000a900460ff166003811115611e8157611e80613954565b5b6003811115611e9357611e92613954565b5b81526020015f820160039054906101000a900460ff1660ff1660ff1681526020015f820160049054906101000a900460ff1660ff1660ff1681526020015f820160059054906101000a900460ff1660ff1660ff168152505081526020019060010190611dcd565b505050509050919050565b6004602052815f5260405f208181548110611f1e575f80fd5b905f5260205f20015f9150915050805f015f9054906101000a900460ff1690805f0160019054906101000a900460ff1690805f0160029054906101000a900460ff1690805f0160039054906101000a900460ff1690805f0160049054906101000a900460ff1690805f0160059054906101000a900460ff16905086565b611fa3612117565b611fab612158565b5f60045f3373ffffffffffffffffffffffffffffffffffffffff1673ffffffffffffffffffffffffffffffffffffffff1681526020019081526020015f208054905003611ffc57611ffb33612955565b5b612004612349565b565b61200e612117565b612016612158565b5f60035f3373ffffffffffffffffffffffffffffffffffffffff1673ffffffffffffffffffffffffffffffffffffffff1681526020019081526020015f205f60058110612066576120656143d3565b5b015f0160039054906101000a900460ff1660ff16036120895761208833612363565b5b612091612349565b565b61209b6127ac565b5f73ffffffffffffffffffffffffffffffffffffffff168173ffffffffffffffffffffffffffffffffffffffff160361210b575f6040517f1e4fbdf70000000000000000000000000000000000000000000000000000000081526004016121029190613e73565b60405180910390fd5b61211481612894565b50565b61211f610b99565b15612156576040517fd93c066500000000000000000000000000000000000000000000000000000000815260040160405180910390fd5b565b612160613667565b600261217261216d6136a8565b6136d1565b5f0181905550565b5f5f60648484604051602001612191929190614946565b604051602081830303815290604052805190602001205f1c6121b391906141de565b905060418110156121c7575f9150506121e0565b605a8110156121da5760019150506121e0565b60029150505b92915050565b5f60025f8373ffffffffffffffffffffffffffffffffffffffff1673ffffffffffffffffffffffffffffffffffffffff1681526020019081526020015f2090505f815f015f9054906101000a900461ffff1661ffff1603612260576001815f015f6101000a81548161ffff021916908361ffff1602179055505b600a815f0160028282829054906101000a900463ffffffff166122839190614971565b92506101000a81548163ffffffff021916908363ffffffff1602179055506064815f015f9054906101000a900461ffff1661ffff166122c291906149a8565b63ffffffff16815f0160029054906101000a900463ffffffff1663ffffffff161061234557805f015f81819054906101000a900461ffff1680929190612307906149e4565b91906101000a81548161ffff021916908361ffff160217905550505f815f0160026101000a81548163ffffffff021916908363ffffffff1602179055505b5050565b600161235b6123566136a8565b6136d1565b5f0181905550565b5f428260015f9054906101000a900473ffffffffffffffffffffffffffffffffffffffff1673ffffffffffffffffffffffffffffffffffffffff166318160ddd6040518163ffffffff1660e01b8152600401602060405180830381865afa1580156123d0573d5f5f3e3d5ffd5b505050506040513d601f19601f820116820180604052508101906123f491906140e5565b446040516020016124089493929190614a0d565b604051602081830303815290604052805190602001205f1c90505f5f90505b60058110156127a7575f600360088361244091906144a7565b84901c61244d91906141de565b60ff16600281111561246257612461613954565b5b90505f61246f848461217a565b90505f6004600860108661248391906144a7565b61248d91906144e8565b86901c61249a91906141de565b60ff1660038111156124af576124ae613954565b5b90505f60056018866124c191906144a7565b87901c6124ce91906141de565b60046124da919061423b565b90505f60056020876124ec91906144a7565b88901c6124f991906141de565b6004612505919061423b565b90505f600560288861251791906144a7565b89901c61252491906141de565b6004612530919061423b565b90506001600281111561254657612545613954565b5b85600281111561255957612558613954565b5b036125905760028361256b919061423b565b925060018261257a919061423b565b9150600181612589919061423b565b90506125ea565b6002808111156125a3576125a2613954565b5b8560028111156125b6576125b5613954565b5b036125e9576003836125c8919061423b565b92506003826125d7919061423b565b91506002816125e6919061423b565b90505b5b6040518060c0016040528087600281111561260857612607613954565b5b81526020018660028111156126205761261f613954565b5b815260200185600381111561263857612637613954565b5b81526020018460ff1681526020018360ff1681526020018260ff1681525060035f8b73ffffffffffffffffffffffffffffffffffffffff1673ffffffffffffffffffffffffffffffffffffffff1681526020019081526020015f2088600581106126a5576126a46143d3565b5b015f820151815f015f6101000a81548160ff021916908360028111156126ce576126cd613954565b5b02179055506020820151815f0160016101000a81548160ff021916908360028111156126fd576126fc613954565b5b02179055506040820151815f0160026101000a81548160ff0219169083600381111561272c5761272b613954565b5b02179055506060820151815f0160036101000a81548160ff021916908360ff1602179055506080820151815f0160046101000a81548160ff021916908360ff16021790555060a0820151815f0160056101000a81548160ff021916908360ff1602179055509050505050505050508080600101915050612427565b505050565b6127b46136da565b73ffffffffffffffffffffffffffffffffffffffff166127d2611866565b73ffffffffffffffffffffffffffffffffffffffff1614612831576127f56136da565b6040517f118cdaa70000000000000000000000000000000000000000000000000000000081526004016128289190613e73565b60405180910390fd5b565b61283b6136e1565b5f5f60146101000a81548160ff0219169083151502179055507f5db9ee0a495bf2e6ff9c91a7834c1ba4fdd244a5e8aa4e537bd38aeae4b073aa61287d6136da565b60405161288a9190613e73565b60405180910390a1565b5f5f5f9054906101000a900473ffffffffffffffffffffffffffffffffffffffff169050815f5f6101000a81548173ffffffffffffffffffffffffffffffffffffffff021916908373ffffffffffffffffffffffffffffffffffffffff1602179055508173ffffffffffffffffffffffffffffffffffffffff168173ffffffffffffffffffffffffffffffffffffffff167f8be0079c531659141344cd1fd0a4f28419497f9722a3daafe3b4186f6b6457e060405160405180910390a35050565b5f60025f8373ffffffffffffffffffffffffffffffffffffffff1673ffffffffffffffffffffffffffffffffffffffff1681526020019081526020015f206040518060800160405290815f82015f9054906101000a900461ffff1661ffff1661ffff1681526020015f820160029054906101000a900463ffffffff1663ffffffff1663ffffffff1681526020016001820154815260200160028201548152505090505f5f825f015161ffff1611612a0d576001612a12565b815f01515b90505f42848360015f9054906101000a900473ffffffffffffffffffffffffffffffffffffffff1673ffffffffffffffffffffffffffffffffffffffff166318160ddd6040518163ffffffff1660e01b8152600401602060405180830381865afa158015612a82573d5f5f3e3d5ffd5b505050506040513d601f19601f82011682018060405250810190612aa691906140e5565b44604051602001612abb959493929190614a8e565b604051602081830303815290604052805190602001205f1c90505f6004905060045f8673ffffffffffffffffffffffffffffffffffffffff1673ffffffffffffffffffffffffffffffffffffffff1681526020019081526020015f205f612b22919061376a565b5f5f90505b8160ff16811015612ef257612b3a613788565b6003600883612b4991906144a7565b85901c612b5691906141de565b60ff166002811115612b6b57612b6a613954565b5b815f01906002811115612b8157612b80613954565b5b90816002811115612b9557612b94613954565b5b815250505f81602001906002811115612bb157612bb0613954565b5b90816002811115612bc557612bc4613954565b5b815250506004601083612bd891906144a7565b85901c612be591906141de565b60ff166003811115612bfa57612bf9613954565b5b81604001906003811115612c1157612c10613954565b5b90816003811115612c2557612c24613954565b5b815250505f600486612c379190614aec565b6003612c43919061423b565b905060066008602085612c5691906144a7565b612c6091906144e8565b86901c612c6d91906141de565b81612c78919061423b565b826060019060ff16908160ff16815250506006602884612c9891906144a7565b86901c612ca591906141de565b81612cb0919061423b565b826080019060ff16908160ff16815250506006603084612cd091906144a7565b86901c612cdd91906141de565b81612ce8919061423b565b8260a0019060ff16908160ff1681525050600f6064603885612d0a91906144a7565b87901c612d1791906141de565b60ff161015612d9657600182602001906002811115612d3957612d38613954565b5b90816002811115612d4d57612d4c613954565b5b81525050600282606001818151612d64919061423b565b91509060ff16908160ff1681525050600182608001818151612d86919061423b565b91509060ff16908160ff16815250505b60045f8973ffffffffffffffffffffffffffffffffffffffff1673ffffffffffffffffffffffffffffffffffffffff1681526020019081526020015f2082908060018154018082558091505060019003905f5260205f20015f909190919091505f820151815f015f6101000a81548160ff02191690836002811115612e1e57612e1d613954565b5b02179055506020820151815f0160016101000a81548160ff02191690836002811115612e4d57612e4c613954565b5b02179055506040820151815f0160026101000a81548160ff02191690836003811115612e7c57612e7b613954565b5b02179055506060820151815f0160036101000a81548160ff021916908360ff1602179055506080820151815f0160046101000a81548160ff021916908360ff16021790555060a0820151815f0160056101000a81548160ff021916908360ff160217905550505050508080600101915050612b27565b507fe21ebbecd481bd92987e725a0057707f7154c465084ebcc68cd42ff028da5e6b8584604051612f24929190614b1c565b60405180910390a15050505050565b5f5f5f5f90505f5f90505f5f9050612f496137f7565b5f5f90505b888890508110156130a2575f60015f9054906101000a900473ffffffffffffffffffffffffffffffffffffffff1673ffffffffffffffffffffffffffffffffffffffff16631655bfbe8b8b85818110612faa57612fa96143d3565b5b905060200201356040518263ffffffff1660e01b8152600401612fcd9190613bfa565b60c060405180830381865afa158015612fe8573d5f5f3e3d5ffd5b505050506040513d601f19601f8201168201806040525081019061300c9190614cd2565b9050806060015160ff168661302191906144e8565b9550806080015160ff168561303691906144e8565b94508060a0015160ff168461304b91906144e8565b935082815f0151600281111561306457613063613954565b5b60ff1660038110613078576130776143d3565b5b60200201805180919061308a90614cfd565b60ff1660ff1681525050508080600101915050612f4e565b505f94506003815f60028111156130bc576130bb613954565b5b60ff16600381106130d0576130cf6143d3565b5b602002015160ff16106131075760646082846130ec91906144a7565b6130f69190614d25565b9250848061310390614cfd565b9550505b6003816001600281111561311e5761311d613954565b5b60ff1660038110613132576131316143d3565b5b602002015160ff161061316957606460918561314e91906144a7565b6131589190614d25565b9350848061316590614cfd565b9550505b60038160028081111561317f5761317e613954565b5b60ff1660038110613193576131926143d3565b5b602002015160ff16106131e5576064607d856131af91906144a7565b6131b99190614d25565b93506064607d846131ca91906144a7565b6131d49190614d25565b925084806131e190614cfd565b9550505b6002826131f291906144a7565b83856131fe91906144e8565b61320891906144e8565b9550505050509250929050565b5f5f5f5f90505f5f90505f5f905061322b6137f7565b5f5f90505b87518110156132eb575f88828151811061324d5761324c6143d3565b5b60200260200101519050806060015160ff168661326a91906144e8565b9550806080015160ff168561327f91906144e8565b94508060a0015160ff168461329491906144e8565b935082815f015160028111156132ad576132ac613954565b5b60ff16600381106132c1576132c06143d3565b5b6020020180518091906132d390614cfd565b60ff1660ff1681525050508080600101915050613230565b505f94506003815f600281111561330557613304613954565b5b60ff1660038110613319576133186143d3565b5b602002015160ff161061335057606460828461333591906144a7565b61333f9190614d25565b9250848061334c90614cfd565b9550505b6003816001600281111561336757613366613954565b5b60ff166003811061337b5761337a6143d3565b5b602002015160ff16106133b257606460918561339791906144a7565b6133a19190614d25565b935084806133ae90614cfd565b9550505b6003816002808111156133c8576133c7613954565b5b60ff16600381106133dc576133db6143d3565b5b602002015160ff161061342e576064607d856133f891906144a7565b6134029190614d25565b93506064607d8461341391906144a7565b61341d9190614d25565b9250848061342a90614cfd565b9550505b60028261343b91906144a7565b838561344791906144e8565b61345191906144e8565b955050505050915091565b5f60025f8473ffffffffffffffffffffffffffffffffffffffff1673ffffffffffffffffffffffffffffffffffffffff1681526020019081526020015f209050811561350157806001015f8154809291906134b690614652565b91905055506032815f0160028282829054906101000a900463ffffffff166134de9190614971565b92506101000a81548163ffffffff021916908363ffffffff16021790555061355c565b806002015f81548092919061351590614652565b91905055506019815f0160028282829054906101000a900463ffffffff1661353d9190614971565b92506101000a81548163ffffffff021916908363ffffffff1602179055505b6064815f015f9054906101000a900461ffff1661ffff1661357d91906149a8565b63ffffffff16815f0160029054906101000a900463ffffffff1663ffffffff161061360057805f015f81819054906101000a900461ffff16809291906135c2906149e4565b91906101000a81548161ffff021916908361ffff160217905550505f815f0160026101000a81548163ffffffff021916908363ffffffff1602179055505b505050565b61360d612117565b60015f60146101000a81548160ff0219169083151502179055507f62e78cea01bee320cd4e420270b5ea74000d11b0c9f74754ebdbfc544b05a2586136506136da565b60405161365d9190613e73565b60405180910390a1565b61366f613721565b156136a6576040517f3ee5aeb500000000000000000000000000000000000000000000000000000000815260040160405180910390fd5b565b5f7f9b779b17422d0df92223018b32b4d1fa46e071723d6817e2486d003becc55f005f1b905090565b5f819050919050565b5f33905090565b6136e9610b99565b61371f576040517f8dfc202b00000000000000000000000000000000000000000000000000000000815260040160405180910390fd5b565b5f600261373461372f6136a8565b6136d1565b5f015414905090565b6040518060a001604052806005905b613754613788565b81526020019060019003908161374c5790505090565b5080545f8255905f5260205f20908101906137859190613819565b50565b6040518060c001604052805f60028111156137a6576137a5613954565b5b81526020015f60028111156137be576137bd613954565b5b81526020015f60038111156137d6576137d5613954565b5b81526020015f60ff1681526020015f60ff1681526020015f60ff1681525090565b6040518060600160405280600390602082028036833780820191505090505090565b5b8082111561389d575f5f82015f6101000a81549060ff02191690555f820160016101000a81549060ff02191690555f820160026101000a81549060ff02191690555f820160036101000a81549060ff02191690555f820160046101000a81549060ff02191690555f820160056101000a81549060ff02191690555060010161381a565b5090565b5f604051905090565b5f5ffd5b5f5ffd5b5f73ffffffffffffffffffffffffffffffffffffffff82169050919050565b5f6138db826138b2565b9050919050565b6138eb816138d1565b81146138f5575f5ffd5b50565b5f81359050613906816138e2565b92915050565b5f60208284031215613921576139206138aa565b5b5f61392e848285016138f8565b91505092915050565b5f60059050919050565b5f81905092915050565b5f819050919050565b7f4e487b71000000000000000000000000000000000000000000000000000000005f52602160045260245ffd5b6003811061399257613991613954565b5b50565b5f8190506139a282613981565b919050565b5f6139b182613995565b9050919050565b6139c1816139a7565b82525050565b600381106139d8576139d7613954565b5b50565b5f8190506139e8826139c7565b919050565b5f6139f7826139db565b9050919050565b613a07816139ed565b82525050565b60048110613a1e57613a1d613954565b5b50565b5f819050613a2e82613a0d565b919050565b5f613a3d82613a21565b9050919050565b613a4d81613a33565b82525050565b5f60ff82169050919050565b613a6881613a53565b82525050565b60c082015f820151613a825f8501826139b8565b506020820151613a9560208501826139fe565b506040820151613aa86040850182613a44565b506060820151613abb6060850182613a5f565b506080820151613ace6080850182613a5f565b5060a0820151613ae160a0850182613a5f565b50505050565b5f613af28383613a6e565b60c08301905092915050565b5f602082019050919050565b613b1381613937565b613b1d8184613941565b9250613b288261394b565b805f5b83811015613b58578151613b3f8782613ae7565b9650613b4a83613afe565b925050600181019050613b2b565b505050505050565b5f6103c082019050613b745f830184613b0a565b92915050565b5f819050919050565b613b8c81613b7a565b8114613b96575f5ffd5b50565b5f81359050613ba781613b83565b92915050565b5f5f60408385031215613bc357613bc26138aa565b5b5f613bd0858286016138f8565b9250506020613be185828601613b99565b9150509250929050565b613bf481613b7a565b82525050565b5f602082019050613c0d5f830184613beb565b92915050565b5f8115159050919050565b613c2781613c13565b82525050565b5f602082019050613c405f830184613c1e565b92915050565b5f81519050919050565b5f82825260208201905092915050565b5f819050602082019050919050565b613c7881613b7a565b82525050565b5f613c898383613c6f565b60208301905092915050565b5f602082019050919050565b5f613cab82613c46565b613cb58185613c50565b9350613cc083613c60565b805f5b83811015613cf0578151613cd78882613c7e565b9750613ce283613c95565b925050600181019050613cc3565b5085935050505092915050565b5f6020820190508181035f830152613d158184613ca1565b905092915050565b5f5ffd5b5f5ffd5b5f5ffd5b5f5f83601f840112613d3e57613d3d613d1d565b5b8235905067ffffffffffffffff811115613d5b57613d5a613d21565b5b602083019150836020820283011115613d7757613d76613d25565b5b9250929050565b5f5f60208385031215613d9457613d936138aa565b5b5f83013567ffffffffffffffff811115613db157613db06138ae565b5b613dbd85828601613d29565b92509250509250929050565b613dd2816139a7565b82525050565b613de1816139ed565b82525050565b613df081613a33565b82525050565b613dff81613a53565b82525050565b5f60c082019050613e185f830189613dc9565b613e256020830188613dd8565b613e326040830187613de7565b613e3f6060830186613df6565b613e4c6080830185613df6565b613e5960a0830184613df6565b979650505050505050565b613e6d816138d1565b82525050565b5f602082019050613e865f830184613e64565b92915050565b5f60208284031215613ea157613ea06138aa565b5b5f613eae84828501613b99565b91505092915050565b5f819050919050565b5f613eda613ed5613ed0846138b2565b613eb7565b6138b2565b9050919050565b5f613eeb82613ec0565b9050919050565b5f613efc82613ee1565b9050919050565b613f0c81613ef2565b82525050565b5f602082019050613f255f830184613f03565b92915050565b5f61ffff82169050919050565b613f4181613f2b565b82525050565b5f63ffffffff82169050919050565b613f5f81613f47565b82525050565b5f608082019050613f785f830187613f38565b613f856020830186613f56565b613f926040830185613beb565b613f9f6060830184613beb565b95945050505050565b5f81519050919050565b5f82825260208201905092915050565b5f819050602082019050919050565b5f602082019050919050565b5f613fe782613fa8565b613ff18185613fb2565b9350613ffc83613fc2565b805f5b8381101561402c5781516140138882613ae7565b975061401e83613fd1565b925050600181019050613fff565b5085935050505092915050565b5f6020820190508181035f8301526140518184613fdd565b905092915050565b5f82825260208201905092915050565b7f496e636f7272656374207061796d656e740000000000000000000000000000005f82015250565b5f61409d601183614059565b91506140a882614069565b602082019050919050565b5f6020820190508181035f8301526140ca81614091565b9050919050565b5f815190506140df81613b83565b92915050565b5f602082840312156140fa576140f96138aa565b5b5f614107848285016140d1565b91505092915050565b5f819050919050565b61412a61412582613b7a565b614110565b82525050565b5f8160601b9050919050565b5f61414682614130565b9050919050565b5f6141578261413c565b9050919050565b61416f61416a826138d1565b61414d565b82525050565b5f6141808286614119565b602082019150614190828561415e565b6014820191506141a08284614119565b602082019150819050949350505050565b7f4e487b71000000000000000000000000000000000000000000000000000000005f52601260045260245ffd5b5f6141e882613b7a565b91506141f383613b7a565b925082614203576142026141b1565b5b828206905092915050565b7f4e487b71000000000000000000000000000000000000000000000000000000005f52601160045260245ffd5b5f61424582613a53565b915061425083613a53565b9250828201905060ff8111156142695761426861420e565b5b92915050565b5f60e0820190506142825f83018a613e64565b61428f6020830189613dc9565b61429c6040830188613dd8565b6142a96060830187613de7565b6142b66080830186613df6565b6142c360a0830185613df6565b6142d060c0830184613df6565b98975050505050505050565b5f6040820190506142ef5f830185613e64565b6142fc6020830184613beb565b9392505050565b7f496e636f7272656374207061796d656e7420666f72207265726f6c6c000000005f82015250565b5f614337601c83614059565b915061434282614303565b602082019050919050565b5f6020820190508181035f8301526143648161432b565b9050919050565b7f5465616d2073697a6520342d38206f6e6c7900000000000000000000000000005f82015250565b5f61439f601283614059565b91506143aa8261436b565b602082019050919050565b5f6020820190508181035f8301526143cc81614393565b9050919050565b7f4e487b71000000000000000000000000000000000000000000000000000000005f52603260045260245ffd5b5f8151905061440e816138e2565b92915050565b5f60208284031215614429576144286138aa565b5b5f61443684828501614400565b91505092915050565b7f4e6f7420796f757220756e6974000000000000000000000000000000000000005f82015250565b5f614473600d83614059565b915061447e8261443f565b602082019050919050565b5f6020820190508181035f8301526144a081614467565b9050919050565b5f6144b182613b7a565b91506144bc83613b7a565b92508282026144ca81613b7a565b915082820484148315176144e1576144e061420e565b5b5092915050565b5f6144f282613b7a565b91506144fd83613b7a565b92508282019050808211156145155761451461420e565b5b92915050565b7f4e487b71000000000000000000000000000000000000000000000000000000005f52604160045260245ffd5b5f6145538285614119565b602082019150614563828461415e565b6014820191508190509392505050565b5f819050919050565b5f61459661459161458c84614573565b613eb7565b613a53565b9050919050565b6145a68161457c565b82525050565b5f819050919050565b5f6145cf6145ca6145c5846145ac565b613eb7565b613a53565b9050919050565b6145df816145b5565b82525050565b5f60e0820190506145f85f83018a613e64565b6146056020830189613dc9565b6146126040830188613dd8565b61461f6060830187613de7565b61462c608083018661459d565b61463960a083018561459d565b61464660c08301846145d6565b98975050505050505050565b5f61465c82613b7a565b91507fffffffffffffffffffffffffffffffffffffffffffffffffffffffffffffffff820361468e5761468d61420e565b5b600182019050919050565b5f819050919050565b5f6146bc6146b76146b284614699565b613eb7565b613a53565b9050919050565b6146cc816146a2565b82525050565b5f60e0820190506146e55f83018a613e64565b6146f26020830189613dc9565b6146ff6040830188613dd8565b61470c6060830187613de7565b61471960808301866146c3565b61472660a08301856146c3565b61473360c08301846146c3565b98975050505050505050565b5f819050919050565b5f61476261475d6147588461473f565b613eb7565b613a53565b9050919050565b61477281614748565b82525050565b5f819050919050565b5f61479b61479661479184614778565b613eb7565b613a53565b9050919050565b6147ab81614781565b82525050565b5f60e0820190506147c45f83018a613e64565b6147d16020830189613dc9565b6147de6040830188613dd8565b6147eb6060830187613de7565b6147f86080830186614769565b61480560a0830185614769565b61481260c08301846147a2565b98975050505050505050565b5f60a0820190506148315f830188613e64565b61483e6020830187613c1e565b61484b6040830186613beb565b6148586060830185613beb565b818103608083015261486a8184613ca1565b90509695505050505050565b7f496e76616c696420736c6f7400000000000000000000000000000000000000005f82015250565b5f6148aa600c83614059565b91506148b582614876565b602082019050919050565b5f6020820190508181035f8301526148d78161489e565b9050919050565b7f536c6f7420656d707479000000000000000000000000000000000000000000005f82015250565b5f614912600a83614059565b915061491d826148de565b602082019050919050565b5f6020820190508181035f83015261493f81614906565b9050919050565b5f6149518285614119565b6020820191506149618284614119565b6020820191508190509392505050565b5f61497b82613f47565b915061498683613f47565b9250828201905063ffffffff8111156149a2576149a161420e565b5b92915050565b5f6149b282613f47565b91506149bd83613f47565b92508282026149cb81613f47565b91508082146149dd576149dc61420e565b5b5092915050565b5f6149ee82613f2b565b915061ffff8203614a0257614a0161420e565b5b600182019050919050565b5f614a188287614119565b602082019150614a28828661415e565b601482019150614a388285614119565b602082019150614a488284614119565b60208201915081905095945050505050565b5f8160f01b9050919050565b5f614a7082614a5a565b9050919050565b614a88614a8382613f2b565b614a66565b82525050565b5f614a998288614119565b602082019150614aa9828761415e565b601482019150614ab98286614a77565b600282019150614ac98285614119565b602082019150614ad98284614119565b6020820191508190509695505050505050565b5f614af682613f2b565b9150614b0183613f2b565b925082614b1157614b106141b1565b5b828204905092915050565b5f604082019050614b2f5f830185613e64565b614b3c6020830184613f38565b9392505050565b5f5ffd5b5f601f19601f8301169050919050565b614b6082614b47565b810181811067ffffffffffffffff82111715614b7f57614b7e61451b565b5b80604052505050565b5f614b916138a1565b9050614b9d8282614b57565b919050565b60038110614bae575f5ffd5b50565b5f81519050614bbf81614ba2565b92915050565b60038110614bd1575f5ffd5b50565b5f81519050614be281614bc5565b92915050565b60048110614bf4575f5ffd5b50565b5f81519050614c0581614be8565b92915050565b614c1481613a53565b8114614c1e575f5ffd5b50565b5f81519050614c2f81614c0b565b92915050565b5f60c08284031215614c4a57614c49614b43565b5b614c5460c0614b88565b90505f614c6384828501614bb1565b5f830152506020614c7684828501614bd4565b6020830152506040614c8a84828501614bf7565b6040830152506060614c9e84828501614c21565b6060830152506080614cb284828501614c21565b60808301525060a0614cc684828501614c21565b60a08301525092915050565b5f60c08284031215614ce757614ce66138aa565b5b5f614cf484828501614c35565b91505092915050565b5f614d0782613a53565b915060ff8203614d1a57614d1961420e565b5b600182019050919050565b5f614d2f82613b7a565b9150614d3a83613b7a565b925082614d4a57614d496141b1565b5b82820490509291505056fea2646970667358221220f8f3c07cb78c89790fcd48471f75dd81e3f8b9657efc70f59fa8c4f8cc395aef64736f6c634300081e0033",
			"opcodes": "PUSH1 0x80 PUSH1 0x40 MSTORE CALLVALUE DUP1 ISZERO PUSH2 0xF JUMPI PUSH0 PUSH0 REVERT JUMPDEST POP PUSH1 0x40 MLOAD PUSH2 0x5058 CODESIZE SUB DUP1 PUSH2 0x5058 DUP4 CODECOPY DUP2 DUP2 ADD PUSH1 0x40 MSTORE DUP2 ADD SWAP1 PUSH2 0x31 SWAP2 SWAP1 PUSH2 0x26D JUMP JUMPDEST CALLER PUSH0 PUSH20 0xFFFFFFFFFFFFFFFFFFFFFFFFFFFFFFFFFFFFFFFF AND DUP2 PUSH20 0xFFFFFFFFFFFFFFFFFFFFFFFFFFFFFFFFFFFFFFFF AND SUB PUSH2 0xA2 JUMPI PUSH0 PUSH1 0x40 MLOAD PUSH32 0x1E4FBDF700000000000000000000000000000000000000000000000000000000 DUP2 MSTORE PUSH1 0x4 ADD PUSH2 0x99 SWAP2 SWAP1 PUSH2 0x2A7 JUMP JUMPDEST PUSH1 0x40 MLOAD DUP1 SWAP2 SUB SWAP1 REVERT JUMPDEST PUSH2 0xB1 DUP2 PUSH2 0x11C PUSH1 0x20 SHL PUSH1 0x20 SHR JUMP JUMPDEST POP PUSH1 0x1 PUSH2 0xD0 PUSH2 0xC5 PUSH2 0x1DD PUSH1 0x20 SHL PUSH1 0x20 SHR JUMP JUMPDEST PUSH2 0x206 PUSH1 0x20 SHL PUSH1 0x20 SHR JUMP JUMPDEST PUSH0 ADD DUP2 SWAP1 SSTORE POP DUP1 PUSH1 0x1 PUSH0 PUSH2 0x100 EXP DUP2 SLOAD DUP2 PUSH20 0xFFFFFFFFFFFFFFFFFFFFFFFFFFFFFFFFFFFFFFFF MUL NOT AND SWAP1 DUP4 PUSH20 0xFFFFFFFFFFFFFFFFFFFFFFFFFFFFFFFFFFFFFFFF AND MUL OR SWAP1 SSTORE POP POP PUSH2 0x2C0 JUMP JUMPDEST PUSH0 PUSH0 PUSH0 SWAP1 SLOAD SWAP1 PUSH2 0x100 EXP SWAP1 DIV PUSH20 0xFFFFFFFFFFFFFFFFFFFFFFFFFFFFFFFFFFFFFFFF AND SWAP1 POP DUP2 PUSH0 PUSH0 PUSH2 0x100 EXP DUP2 SLOAD DUP2 PUSH20 0xFFFFFFFFFFFFFFFFFFFFFFFFFFFFFFFFFFFFFFFF MUL NOT AND SWAP1 DUP4 PUSH20 0xFFFFFFFFFFFFFFFFFFFFFFFFFFFFFFFFFFFFFFFF AND MUL OR SWAP1 SSTORE POP DUP2 PUSH20 0xFFFFFFFFFFFFFFFFFFFFFFFFFFFFFFFFFFFFFFFF AND DUP2 PUSH20 0xFFFFFFFFFFFFFFFFFFFFFFFFFFFFFFFFFFFFFFFF AND PUSH32 0x8BE0079C531659141344CD1FD0A4F28419497F9722A3DAAFE3B4186F6B6457E0 PUSH1 0x40 MLOAD PUSH1 0x40 MLOAD DUP1 SWAP2 SUB SWAP1 LOG3 POP POP JUMP JUMPDEST PUSH0 PUSH32 0x9B779B17422D0DF92223018B32B4D1FA46E071723D6817E2486D003BECC55F00 PUSH0 SHL SWAP1 POP SWAP1 JUMP JUMPDEST PUSH0 DUP2 SWAP1 POP SWAP2 SWAP1 POP JUMP JUMPDEST PUSH0 PUSH0 REVERT JUMPDEST PUSH0 PUSH20 0xFFFFFFFFFFFFFFFFFFFFFFFFFFFFFFFFFFFFFFFF DUP3 AND SWAP1 POP SWAP2 SWAP1 POP JUMP JUMPDEST PUSH0 PUSH2 0x23C DUP3 PUSH2 0x213 JUMP JUMPDEST SWAP1 POP SWAP2 SWAP1 POP JUMP JUMPDEST PUSH2 0x24C DUP2 PUSH2 0x232 JUMP JUMPDEST DUP2 EQ PUSH2 0x256 JUMPI PUSH0 PUSH0 REVERT JUMPDEST POP JUMP JUMPDEST PUSH0 DUP2 MLOAD SWAP1 POP PUSH2 0x267 DUP2 PUSH2 0x243 JUMP JUMPDEST SWAP3 SWAP2 POP POP JUMP JUMPDEST PUSH0 PUSH1 0x20 DUP3 DUP5 SUB SLT ISZERO PUSH2 0x282 JUMPI PUSH2 0x281 PUSH2 0x20F JUMP JUMPDEST JUMPDEST PUSH0 PUSH2 0x28F DUP5 DUP3 DUP6 ADD PUSH2 0x259 JUMP JUMPDEST SWAP2 POP POP SWAP3 SWAP2 POP POP JUMP JUMPDEST PUSH2 0x2A1 DUP2 PUSH2 0x232 JUMP JUMPDEST DUP3 MSTORE POP POP JUMP JUMPDEST PUSH0 PUSH1 0x20 DUP3 ADD SWAP1 POP PUSH2 0x2BA PUSH0 DUP4 ADD DUP5 PUSH2 0x298 JUMP JUMPDEST SWAP3 SWAP2 POP POP JUMP JUMPDEST PUSH2 0x4D8B DUP1 PUSH2 0x2CD PUSH0 CODECOPY PUSH0 RETURN INVALID PUSH1 0x80 PUSH1 0x40 MSTORE PUSH1 0x4 CALLDATASIZE LT PUSH2 0x14A JUMPI PUSH0 CALLDATALOAD PUSH1 0xE0 SHR DUP1 PUSH4 0x8456CB59 GT PUSH2 0xB5 JUMPI DUP1 PUSH4 0xBBE15627 GT PUSH2 0x6E JUMPI DUP1 PUSH4 0xBBE15627 EQ PUSH2 0x3ED JUMPI DUP1 PUSH4 0xC99AE45F EQ PUSH2 0x42C JUMPI DUP1 PUSH4 0xD6691C27 EQ PUSH2 0x468 JUMPI DUP1 PUSH4 0xE155776B EQ PUSH2 0x4A9 JUMPI DUP1 PUSH4 0xF01640A0 EQ PUSH2 0x4BF JUMPI DUP1 PUSH4 0xF2FDE38B EQ PUSH2 0x4D5 JUMPI PUSH2 0x14A JUMP JUMPDEST DUP1 PUSH4 0x8456CB59 EQ PUSH2 0x2FC JUMPI DUP1 PUSH4 0x84D38FDC EQ PUSH2 0x312 JUMPI DUP1 PUSH4 0x8DA5CB5B EQ PUSH2 0x353 JUMPI DUP1 PUSH4 0x9F51758E EQ PUSH2 0x37D JUMPI DUP1 PUSH4 0xB654823E EQ PUSH2 0x3A7 JUMPI DUP1 PUSH4 0xB92A40AD EQ PUSH2 0x3C3 JUMPI PUSH2 0x14A JUMP JUMPDEST DUP1 PUSH4 0x5C975ABB GT PUSH2 0x107 JUMPI DUP1 PUSH4 0x5C975ABB EQ PUSH2 0x206 JUMPI DUP1 PUSH4 0x6154EE97 EQ PUSH2 0x230 JUMPI DUP1 PUSH4 0x705FE4BE EQ PUSH2 0x26C JUMPI DUP1 PUSH4 0x715018A6 EQ PUSH2 0x296 JUMPI DUP1 PUSH4 0x7E5C4F8B EQ PUSH2 0x2AC JUMPI DUP1 PUSH4 0x7F570E2B EQ PUSH2 0x2D4 JUMPI PUSH2 0x14A JUMP JUMPDEST DUP1 PUSH4 0x201738E2 EQ PUSH2 0x14E JUMPI DUP1 PUSH4 0x29DE58D1 EQ PUSH2 0x158 JUMPI DUP1 PUSH4 0x3CCFD60B EQ PUSH2 0x162 JUMPI DUP1 PUSH4 0x3F4BA83A EQ PUSH2 0x178 JUMPI DUP1 PUSH4 0x49C7C24A EQ PUSH2 0x18E JUMPI DUP1 PUSH4 0x4EF2D6C1 EQ PUSH2 0x1CA JUMPI JUMPDEST PUSH0 PUSH0 REVERT JUMPDEST PUSH2 0x156 PUSH2 0x4FD JUMP JUMPDEST STOP JUMPDEST PUSH2 0x160 PUSH2 0x8DF JUMP JUMPDEST STOP JUMPDEST CALLVALUE DUP1 ISZERO PUSH2 0x16D JUMPI PUSH0 PUSH0 REVERT JUMPDEST POP PUSH2 0x176 PUSH2 0x97B JUMP JUMPDEST STOP JUMPDEST CALLVALUE DUP1 ISZERO PUSH2 0x183 JUMPI PUSH0 PUSH0 REVERT JUMPDEST POP PUSH2 0x18C PUSH2 0x9D0 JUMP JUMPDEST STOP JUMPDEST CALLVALUE DUP1 ISZERO PUSH2 0x199 JUMPI PUSH0 PUSH0 REVERT JUMPDEST POP PUSH2 0x1B4 PUSH1 0x4 DUP1 CALLDATASIZE SUB DUP2 ADD SWAP1 PUSH2 0x1AF SWAP2 SWAP1 PUSH2 0x390C JUMP JUMPDEST PUSH2 0x9E2 JUMP JUMPDEST PUSH1 0x40 MLOAD PUSH2 0x1C1 SWAP2 SWAP1 PUSH2 0x3B60 JUMP JUMPDEST PUSH1 0x40 MLOAD DUP1 SWAP2 SUB SWAP1 RETURN JUMPDEST CALLVALUE DUP1 ISZERO PUSH2 0x1D5 JUMPI PUSH0 PUSH0 REVERT JUMPDEST POP PUSH2 0x1F0 PUSH1 0x4 DUP1 CALLDATASIZE SUB DUP2 ADD SWAP1 PUSH2 0x1EB SWAP2 SWAP1 PUSH2 0x3BAD JUMP JUMPDEST PUSH2 0xB6E JUMP JUMPDEST PUSH1 0x40 MLOAD PUSH2 0x1FD SWAP2 SWAP1 PUSH2 0x3BFA JUMP JUMPDEST PUSH1 0x40 MLOAD DUP1 SWAP2 SUB SWAP1 RETURN JUMPDEST CALLVALUE DUP1 ISZERO PUSH2 0x211 JUMPI PUSH0 PUSH0 REVERT JUMPDEST POP PUSH2 0x21A PUSH2 0xB99 JUMP JUMPDEST PUSH1 0x40 MLOAD PUSH2 0x227 SWAP2 SWAP1 PUSH2 0x3C2D JUMP JUMPDEST PUSH1 0x40 MLOAD DUP1 SWAP2 SUB SWAP1 RETURN JUMPDEST CALLVALUE DUP1 ISZERO PUSH2 0x23B JUMPI PUSH0 PUSH0 REVERT JUMPDEST POP PUSH2 0x256 PUSH1 0x4 DUP1 CALLDATASIZE SUB DUP2 ADD SWAP1 PUSH2 0x251 SWAP2 SWAP1 PUSH2 0x390C JUMP JUMPDEST PUSH2 0xBAE JUMP JUMPDEST PUSH1 0x40 MLOAD PUSH2 0x263 SWAP2 SWAP1 PUSH2 0x3CFD JUMP JUMPDEST PUSH1 0x40 MLOAD DUP1 SWAP2 SUB SWAP1 RETURN JUMPDEST CALLVALUE DUP1 ISZERO PUSH2 0x277 JUMPI PUSH0 PUSH0 REVERT JUMPDEST POP PUSH2 0x280 PUSH2 0xC41 JUMP JUMPDEST PUSH1 0x40 MLOAD PUSH2 0x28D SWAP2 SWAP1 PUSH2 0x3BFA JUMP JUMPDEST PUSH1 0x40 MLOAD DUP1 SWAP2 SUB SWAP1 RETURN JUMPDEST CALLVALUE DUP1 ISZERO PUSH2 0x2A1 JUMPI PUSH0 PUSH0 REVERT JUMPDEST POP PUSH2 0x2AA PUSH2 0xC45 JUMP JUMPDEST STOP JUMPDEST CALLVALUE DUP1 ISZERO PUSH2 0x2B7 JUMPI PUSH0 PUSH0 REVERT JUMPDEST POP PUSH2 0x2D2 PUSH1 0x4 DUP1 CALLDATASIZE SUB DUP2 ADD SWAP1 PUSH2 0x2CD SWAP2 SWAP1 PUSH2 0x390C JUMP JUMPDEST PUSH2 0xC58 JUMP JUMPDEST STOP JUMPDEST CALLVALUE DUP1 ISZERO PUSH2 0x2DF JUMPI PUSH0 PUSH0 REVERT JUMPDEST POP PUSH2 0x2FA PUSH1 0x4 DUP1 CALLDATASIZE SUB DUP2 ADD SWAP1 PUSH2 0x2F5 SWAP2 SWAP1 PUSH2 0x3D7E JUMP JUMPDEST PUSH2 0xCA3 JUMP JUMPDEST STOP JUMPDEST CALLVALUE DUP1 ISZERO PUSH2 0x307 JUMPI PUSH0 PUSH0 REVERT JUMPDEST POP PUSH2 0x310 PUSH2 0x17C5 JUMP JUMPDEST STOP JUMPDEST CALLVALUE DUP1 ISZERO PUSH2 0x31D JUMPI PUSH0 PUSH0 REVERT JUMPDEST POP PUSH2 0x338 PUSH1 0x4 DUP1 CALLDATASIZE SUB DUP2 ADD SWAP1 PUSH2 0x333 SWAP2 SWAP1 PUSH2 0x3BAD JUMP JUMPDEST PUSH2 0x17D7 JUMP JUMPDEST PUSH1 0x40 MLOAD PUSH2 0x34A SWAP7 SWAP6 SWAP5 SWAP4 SWAP3 SWAP2 SWAP1 PUSH2 0x3E05 JUMP JUMPDEST PUSH1 0x40 MLOAD DUP1 SWAP2 SUB SWAP1 RETURN JUMPDEST CALLVALUE DUP1 ISZERO PUSH2 0x35E JUMPI PUSH0 PUSH0 REVERT JUMPDEST POP PUSH2 0x367 PUSH2 0x1866 JUMP JUMPDEST PUSH1 0x40 MLOAD PUSH2 0x374 SWAP2 SWAP1 PUSH2 0x3E73 JUMP JUMPDEST PUSH1 0x40 MLOAD DUP1 SWAP2 SUB SWAP1 RETURN JUMPDEST CALLVALUE DUP1 ISZERO PUSH2 0x388 JUMPI PUSH0 PUSH0 REVERT JUMPDEST POP PUSH2 0x391 PUSH2 0x188D JUMP JUMPDEST PUSH1 0x40 MLOAD PUSH2 0x39E SWAP2 SWAP1 PUSH2 0x3BFA JUMP JUMPDEST PUSH1 0x40 MLOAD DUP1 SWAP2 SUB SWAP1 RETURN JUMPDEST PUSH2 0x3C1 PUSH1 0x4 DUP1 CALLDATASIZE SUB DUP2 ADD SWAP1 PUSH2 0x3BC SWAP2 SWAP1 PUSH2 0x3E8C JUMP JUMPDEST PUSH2 0x1891 JUMP JUMPDEST STOP JUMPDEST CALLVALUE DUP1 ISZERO PUSH2 0x3CE JUMPI PUSH0 PUSH0 REVERT JUMPDEST POP PUSH2 0x3D7 PUSH2 0x1D02 JUMP JUMPDEST PUSH1 0x40 MLOAD PUSH2 0x3E4 SWAP2 SWAP1 PUSH2 0x3F12 JUMP JUMPDEST PUSH1 0x40 MLOAD DUP1 SWAP2 SUB SWAP1 RETURN JUMPDEST CALLVALUE DUP1 ISZERO PUSH2 0x3F8 JUMPI PUSH0 PUSH0 REVERT JUMPDEST POP PUSH2 0x413 PUSH1 0x4 DUP1 CALLDATASIZE SUB DUP2 ADD SWAP1 PUSH2 0x40E SWAP2 SWAP1 PUSH2 0x390C JUMP JUMPDEST PUSH2 0x1D27 JUMP JUMPDEST PUSH1 0x40 MLOAD PUSH2 0x423 SWAP5 SWAP4 SWAP3 SWAP2 SWAP1 PUSH2 0x3F65 JUMP JUMPDEST PUSH1 0x40 MLOAD DUP1 SWAP2 SUB SWAP1 RETURN JUMPDEST CALLVALUE DUP1 ISZERO PUSH2 0x437 JUMPI PUSH0 PUSH0 REVERT JUMPDEST POP PUSH2 0x452 PUSH1 0x4 DUP1 CALLDATASIZE SUB DUP2 ADD SWAP1 PUSH2 0x44D SWAP2 SWAP1 PUSH2 0x390C JUMP JUMPDEST PUSH2 0x1D6F JUMP JUMPDEST PUSH1 0x40 MLOAD PUSH2 0x45F SWAP2 SWAP1 PUSH2 0x4039 JUMP JUMPDEST PUSH1 0x40 MLOAD DUP1 SWAP2 SUB SWAP1 RETURN JUMPDEST CALLVALUE DUP1 ISZERO PUSH2 0x473 JUMPI PUSH0 PUSH0 REVERT JUMPDEST POP PUSH2 0x48E PUSH1 0x4 DUP1 CALLDATASIZE SUB DUP2 ADD SWAP1 PUSH2 0x489 SWAP2 SWAP1 PUSH2 0x3BAD JUMP JUMPDEST PUSH2 0x1F05 JUMP JUMPDEST PUSH1 0x40 MLOAD PUSH2 0x4A0 SWAP7 SWAP6 SWAP5 SWAP4 SWAP3 SWAP2 SWAP1 PUSH2 0x3E05 JUMP JUMPDEST PUSH1 0x40 MLOAD DUP1 SWAP2 SUB SWAP1 RETURN JUMPDEST CALLVALUE DUP1 ISZERO PUSH2 0x4B4 JUMPI PUSH0 PUSH0 REVERT JUMPDEST POP PUSH2 0x4BD PUSH2 0x1F9B JUMP JUMPDEST STOP JUMPDEST CALLVALUE DUP1 ISZERO PUSH2 0x4CA JUMPI PUSH0 PUSH0 REVERT JUMPDEST POP PUSH2 0x4D3 PUSH2 0x2006 JUMP JUMPDEST STOP JUMPDEST CALLVALUE DUP1 ISZERO PUSH2 0x4E0 JUMPI PUSH0 PUSH0 REVERT JUMPDEST POP PUSH2 0x4FB PUSH1 0x4 DUP1 CALLDATASIZE SUB DUP2 ADD SWAP1 PUSH2 0x4F6 SWAP2 SWAP1 PUSH2 0x390C JUMP JUMPDEST PUSH2 0x2093 JUMP JUMPDEST STOP JUMPDEST PUSH2 0x505 PUSH2 0x2117 JUMP JUMPDEST PUSH2 0x50D PUSH2 0x2158 JUMP JUMPDEST PUSH0 CALLVALUE EQ PUSH2 0x54F JUMPI PUSH1 0x40 MLOAD PUSH32 0x8C379A000000000000000000000000000000000000000000000000000000000 DUP2 MSTORE PUSH1 0x4 ADD PUSH2 0x546 SWAP1 PUSH2 0x40B3 JUMP JUMPDEST PUSH1 0x40 MLOAD DUP1 SWAP2 SUB SWAP1 REVERT JUMPDEST PUSH0 TIMESTAMP CALLER PUSH1 0x1 PUSH0 SWAP1 SLOAD SWAP1 PUSH2 0x100 EXP SWAP1 DIV PUSH20 0xFFFFFFFFFFFFFFFFFFFFFFFFFFFFFFFFFFFFFFFF AND PUSH20 0xFFFFFFFFFFFFFFFFFFFFFFFFFFFFFFFFFFFFFFFF AND PUSH4 0x18160DDD PUSH1 0x40 MLOAD DUP2 PUSH4 0xFFFFFFFF AND PUSH1 0xE0 SHL DUP2 MSTORE PUSH1 0x4 ADD PUSH1 0x20 PUSH1 0x40 MLOAD DUP1 DUP4 SUB DUP2 DUP7 GAS STATICCALL ISZERO DUP1 ISZERO PUSH2 0x5BC JUMPI RETURNDATASIZE PUSH0 PUSH0 RETURNDATACOPY RETURNDATASIZE PUSH0 REVERT JUMPDEST POP POP POP POP PUSH1 0x40 MLOAD RETURNDATASIZE PUSH1 0x1F NOT PUSH1 0x1F DUP3 ADD AND DUP3 ADD DUP1 PUSH1 0x40 MSTORE POP DUP2 ADD SWAP1 PUSH2 0x5E0 SWAP2 SWAP1 PUSH2 0x40E5 JUMP JUMPDEST PUSH1 0x40 MLOAD PUSH1 0x20 ADD PUSH2 0x5F2 SWAP4 SWAP3 SWAP2 SWAP1 PUSH2 0x4175 JUMP JUMPDEST PUSH1 0x40 MLOAD PUSH1 0x20 DUP2 DUP4 SUB SUB DUP2 MSTORE SWAP1 PUSH1 0x40 MSTORE DUP1 MLOAD SWAP1 PUSH1 0x20 ADD KECCAK256 PUSH0 SHR SWAP1 POP PUSH0 PUSH1 0x3 DUP3 PUSH2 0x61A SWAP2 SWAP1 PUSH2 0x41DE JUMP JUMPDEST PUSH1 0xFF AND PUSH1 0x2 DUP2 GT ISZERO PUSH2 0x62F JUMPI PUSH2 0x62E PUSH2 0x3954 JUMP JUMPDEST JUMPDEST SWAP1 POP PUSH0 PUSH2 0x63E DUP4 PUSH2 0x3E7 PUSH2 0x217A JUMP JUMPDEST SWAP1 POP PUSH0 PUSH1 0x4 PUSH1 0x8 DUP6 SWAP1 SHR PUSH2 0x652 SWAP2 SWAP1 PUSH2 0x41DE JUMP JUMPDEST PUSH1 0xFF AND PUSH1 0x3 DUP2 GT ISZERO PUSH2 0x667 JUMPI PUSH2 0x666 PUSH2 0x3954 JUMP JUMPDEST JUMPDEST SWAP1 POP PUSH0 PUSH1 0x6 PUSH1 0x10 DUP7 SWAP1 SHR PUSH2 0x67B SWAP2 SWAP1 PUSH2 0x41DE JUMP JUMPDEST PUSH1 0x5 PUSH2 0x687 SWAP2 SWAP1 PUSH2 0x423B JUMP JUMPDEST SWAP1 POP PUSH0 PUSH1 0x6 PUSH1 0x18 DUP8 SWAP1 SHR PUSH2 0x69B SWAP2 SWAP1 PUSH2 0x41DE JUMP JUMPDEST PUSH1 0x4 PUSH2 0x6A7 SWAP2 SWAP1 PUSH2 0x423B JUMP JUMPDEST SWAP1 POP PUSH0 PUSH1 0x6 PUSH1 0x20 DUP9 SWAP1 SHR PUSH2 0x6BB SWAP2 SWAP1 PUSH2 0x41DE JUMP JUMPDEST PUSH1 0x5 PUSH2 0x6C7 SWAP2 SWAP1 PUSH2 0x423B JUMP JUMPDEST SWAP1 POP PUSH1 0x1 PUSH1 0x2 DUP2 GT ISZERO PUSH2 0x6DD JUMPI PUSH2 0x6DC PUSH2 0x3954 JUMP JUMPDEST JUMPDEST DUP6 PUSH1 0x2 DUP2 GT ISZERO PUSH2 0x6F0 JUMPI PUSH2 0x6EF PUSH2 0x3954 JUMP JUMPDEST JUMPDEST SUB PUSH2 0x727 JUMPI PUSH1 0x2 DUP4 PUSH2 0x702 SWAP2 SWAP1 PUSH2 0x423B JUMP JUMPDEST SWAP3 POP PUSH1 0x2 DUP3 PUSH2 0x711 SWAP2 SWAP1 PUSH2 0x423B JUMP JUMPDEST SWAP2 POP PUSH1 0x1 DUP2 PUSH2 0x720 SWAP2 SWAP1 PUSH2 0x423B JUMP JUMPDEST SWAP1 POP PUSH2 0x781 JUMP JUMPDEST PUSH1 0x2 DUP1 DUP2 GT ISZERO PUSH2 0x73A JUMPI PUSH2 0x739 PUSH2 0x3954 JUMP JUMPDEST JUMPDEST DUP6 PUSH1 0x2 DUP2 GT ISZERO PUSH2 0x74D JUMPI PUSH2 0x74C PUSH2 0x3954 JUMP JUMPDEST JUMPDEST SUB PUSH2 0x780 JUMPI PUSH1 0x4 DUP4 PUSH2 0x75F SWAP2 SWAP1 PUSH2 0x423B JUMP JUMPDEST SWAP3 POP PUSH1 0x3 DUP3 PUSH2 0x76E SWAP2 SWAP1 PUSH2 0x423B JUMP JUMPDEST SWAP2 POP PUSH1 0x3 DUP2 PUSH2 0x77D SWAP2 SWAP1 PUSH2 0x423B JUMP JUMPDEST SWAP1 POP JUMPDEST JUMPDEST PUSH0 PUSH1 0x1 PUSH0 SWAP1 SLOAD SWAP1 PUSH2 0x100 EXP SWAP1 DIV PUSH20 0xFFFFFFFFFFFFFFFFFFFFFFFFFFFFFFFFFFFFFFFF AND PUSH20 0xFFFFFFFFFFFFFFFFFFFFFFFFFFFFFFFFFFFFFFFF AND PUSH4 0x71DEC088 CALLER DUP10 DUP10 DUP10 DUP10 DUP10 DUP10 PUSH1 0x40 MLOAD DUP9 PUSH4 0xFFFFFFFF AND PUSH1 0xE0 SHL DUP2 MSTORE PUSH1 0x4 ADD PUSH2 0x7E8 SWAP8 SWAP7 SWAP6 SWAP5 SWAP4 SWAP3 SWAP2 SWAP1 PUSH2 0x426F JUMP JUMPDEST PUSH1 0x20 PUSH1 0x40 MLOAD DUP1 DUP4 SUB DUP2 PUSH0 DUP8 GAS CALL ISZERO DUP1 ISZERO PUSH2 0x804 JUMPI RETURNDATASIZE PUSH0 PUSH0 RETURNDATACOPY RETURNDATASIZE PUSH0 REVERT JUMPDEST POP POP POP POP PUSH1 0x40 MLOAD RETURNDATASIZE PUSH1 0x1F NOT PUSH1 0x1F DUP3 ADD AND DUP3 ADD DUP1 PUSH1 0x40 MSTORE POP DUP2 ADD SWAP1 PUSH2 0x828 SWAP2 SWAP1 PUSH2 0x40E5 JUMP JUMPDEST SWAP1 POP PUSH1 0x5 PUSH0 CALLER PUSH20 0xFFFFFFFFFFFFFFFFFFFFFFFFFFFFFFFFFFFFFFFF AND PUSH20 0xFFFFFFFFFFFFFFFFFFFFFFFFFFFFFFFFFFFFFFFF AND DUP2 MSTORE PUSH1 0x20 ADD SWAP1 DUP2 MSTORE PUSH1 0x20 ADD PUSH0 KECCAK256 DUP2 SWAP1 DUP1 PUSH1 0x1 DUP2 SLOAD ADD DUP1 DUP3 SSTORE DUP1 SWAP2 POP POP PUSH1 0x1 SWAP1 SUB SWAP1 PUSH0 MSTORE PUSH1 0x20 PUSH0 KECCAK256 ADD PUSH0 SWAP1 SWAP2 SWAP1 SWAP2 SWAP1 SWAP2 POP SSTORE PUSH2 0x894 CALLER PUSH2 0x21E6 JUMP JUMPDEST PUSH32 0xDDED256C7E86A19D1BE0F3168D1EC8D5CFC9C713C96BDC10DEFADD014692CF92 CALLER DUP3 PUSH1 0x40 MLOAD PUSH2 0x8C5 SWAP3 SWAP2 SWAP1 PUSH2 0x42DC JUMP JUMPDEST PUSH1 0x40 MLOAD DUP1 SWAP2 SUB SWAP1 LOG1 POP POP POP POP POP POP POP POP PUSH2 0x8DD PUSH2 0x2349 JUMP JUMPDEST JUMP JUMPDEST PUSH2 0x8E7 PUSH2 0x2117 JUMP JUMPDEST PUSH2 0x8EF PUSH2 0x2158 JUMP JUMPDEST PUSH0 CALLVALUE EQ PUSH2 0x931 JUMPI PUSH1 0x40 MLOAD PUSH32 0x8C379A000000000000000000000000000000000000000000000000000000000 DUP2 MSTORE PUSH1 0x4 ADD PUSH2 0x928 SWAP1 PUSH2 0x434D JUMP JUMPDEST PUSH1 0x40 MLOAD DUP1 SWAP2 SUB SWAP1 REVERT JUMPDEST PUSH2 0x93A CALLER PUSH2 0x2363 JUMP JUMPDEST PUSH32 0xB1B757AFEC988E099A59BC127ABEA15824BF7ACC7137103E4197EF22A9AFAD11 CALLER PUSH1 0x40 MLOAD PUSH2 0x969 SWAP2 SWAP1 PUSH2 0x3E73 JUMP JUMPDEST PUSH1 0x40 MLOAD DUP1 SWAP2 SUB SWAP1 LOG1 PUSH2 0x979 PUSH2 0x2349 JUMP JUMPDEST JUMP JUMPDEST PUSH2 0x983 PUSH2 0x27AC JUMP JUMPDEST PUSH2 0x98B PUSH2 0x1866 JUMP JUMPDEST PUSH20 0xFFFFFFFFFFFFFFFFFFFFFFFFFFFFFFFFFFFFFFFF AND PUSH2 0x8FC SELFBALANCE SWAP1 DUP2 ISZERO MUL SWAP1 PUSH1 0x40 MLOAD PUSH0 PUSH1 0x40 MLOAD DUP1 DUP4 SUB DUP2 DUP6 DUP9 DUP9 CALL SWAP4 POP POP POP POP ISZERO DUP1 ISZERO PUSH2 0x9CD JUMPI RETURNDATASIZE PUSH0 PUSH0 RETURNDATACOPY RETURNDATASIZE PUSH0 REVERT JUMPDEST POP JUMP JUMPDEST PUSH2 0x9D8 PUSH2 0x27AC JUMP JUMPDEST PUSH2 0x9E0 PUSH2 0x2833 JUMP JUMPDEST JUMP JUMPDEST PUSH2 0x9EA PUSH2 0x373D JUMP JUMPDEST PUSH1 0x3 PUSH0 DUP4 PUSH20 0xFFFFFFFFFFFFFFFFFFFFFFFFFFFFFFFFFFFFFFFF AND PUSH20 0xFFFFFFFFFFFFFFFFFFFFFFFFFFFFFFFFFFFFFFFF AND DUP2 MSTORE PUSH1 0x20 ADD SWAP1 DUP2 MSTORE PUSH1 0x20 ADD PUSH0 KECCAK256 PUSH1 0x5 DUP1 PUSH1 0x20 MUL PUSH1 0x40 MLOAD SWAP1 DUP2 ADD PUSH1 0x40 MSTORE DUP1 SWAP3 SWAP2 SWAP1 PUSH0 SWAP1 JUMPDEST DUP3 DUP3 LT ISZERO PUSH2 0xB63 JUMPI DUP4 DUP3 ADD PUSH1 0x40 MLOAD DUP1 PUSH1 0xC0 ADD PUSH1 0x40 MSTORE SWAP1 DUP2 PUSH0 DUP3 ADD PUSH0 SWAP1 SLOAD SWAP1 PUSH2 0x100 EXP SWAP1 DIV PUSH1 0xFF AND PUSH1 0x2 DUP2 GT ISZERO PUSH2 0xA76 JUMPI PUSH2 0xA75 PUSH2 0x3954 JUMP JUMPDEST JUMPDEST PUSH1 0x2 DUP2 GT ISZERO PUSH2 0xA88 JUMPI PUSH2 0xA87 PUSH2 0x3954 JUMP JUMPDEST JUMPDEST DUP2 MSTORE PUSH1 0x20 ADD PUSH0 DUP3 ADD PUSH1 0x1 SWAP1 SLOAD SWAP1 PUSH2 0x100 EXP SWAP1 DIV PUSH1 0xFF AND PUSH1 0x2 DUP2 GT ISZERO PUSH2 0xAB0 JUMPI PUSH2 0xAAF PUSH2 0x3954 JUMP JUMPDEST JUMPDEST PUSH1 0x2 DUP2 GT ISZERO PUSH2 0xAC2 JUMPI PUSH2 0xAC1 PUSH2 0x3954 JUMP JUMPDEST JUMPDEST DUP2 MSTORE PUSH1 0x20 ADD PUSH0 DUP3 ADD PUSH1 0x2 SWAP1 SLOAD SWAP1 PUSH2 0x100 EXP SWAP1 DIV PUSH1 0xFF AND PUSH1 0x3 DUP2 GT ISZERO PUSH2 0xAEA JUMPI PUSH2 0xAE9 PUSH2 0x3954 JUMP JUMPDEST JUMPDEST PUSH1 0x3 DUP2 GT ISZERO PUSH2 0xAFC JUMPI PUSH2 0xAFB PUSH2 0x3954 JUMP JUMPDEST JUMPDEST DUP2 MSTORE PUSH1 0x20 ADD PUSH0 DUP3 ADD PUSH1 0x3 SWAP1 SLOAD SWAP1 PUSH2 0x100 EXP SWAP1 DIV PUSH1 0xFF AND PUSH1 0xFF AND PUSH1 0xFF AND DUP2 MSTORE PUSH1 0x20 ADD PUSH0 DUP3 ADD PUSH1 0x4 SWAP1 SLOAD SWAP1 PUSH2 0x100 EXP SWAP1 DIV PUSH1 0xFF AND PUSH1 0xFF AND PUSH1 0xFF AND DUP2 MSTORE PUSH1 0x20 ADD PUSH0 DUP3 ADD PUSH1 0x5 SWAP1 SLOAD SWAP1 PUSH2 0x100 EXP SWAP1 DIV PUSH1 0xFF AND PUSH1 0xFF AND PUSH1 0xFF AND DUP2 MSTORE POP POP DUP2 MSTORE PUSH1 0x20 ADD SWAP1 PUSH1 0x1 ADD SWAP1 PUSH2 0xA3D JUMP JUMPDEST POP POP POP POP SWAP1 POP SWAP2 SWAP1 POP JUMP JUMPDEST PUSH1 0x5 PUSH1 0x20 MSTORE DUP2 PUSH0 MSTORE PUSH1 0x40 PUSH0 KECCAK256 DUP2 DUP2 SLOAD DUP2 LT PUSH2 0xB87 JUMPI PUSH0 DUP1 REVERT JUMPDEST SWAP1 PUSH0 MSTORE PUSH1 0x20 PUSH0 KECCAK256 ADD PUSH0 SWAP2 POP SWAP2 POP POP SLOAD DUP2 JUMP JUMPDEST PUSH0 PUSH0 PUSH1 0x14 SWAP1 SLOAD SWAP1 PUSH2 0x100 EXP SWAP1 DIV PUSH1 0xFF AND SWAP1 POP SWAP1 JUMP JUMPDEST PUSH1 0x60 PUSH1 0x5 PUSH0 DUP4 PUSH20 0xFFFFFFFFFFFFFFFFFFFFFFFFFFFFFFFFFFFFFFFF AND PUSH20 0xFFFFFFFFFFFFFFFFFFFFFFFFFFFFFFFFFFFFFFFF AND DUP2 MSTORE PUSH1 0x20 ADD SWAP1 DUP2 MSTORE PUSH1 0x20 ADD PUSH0 KECCAK256 DUP1 SLOAD DUP1 PUSH1 0x20 MUL PUSH1 0x20 ADD PUSH1 0x40 MLOAD SWAP1 DUP2 ADD PUSH1 0x40 MSTORE DUP1 SWAP3 SWAP2 SWAP1 DUP2 DUP2 MSTORE PUSH1 0x20 ADD DUP3 DUP1 SLOAD DUP1 ISZERO PUSH2 0xC35 JUMPI PUSH1 0x20 MUL DUP3 ADD SWAP2 SWAP1 PUSH0 MSTORE PUSH1 0x20 PUSH0 KECCAK256 SWAP1 JUMPDEST DUP2 SLOAD DUP2 MSTORE PUSH1 0x20 ADD SWAP1 PUSH1 0x1 ADD SWAP1 DUP1 DUP4 GT PUSH2 0xC21 JUMPI JUMPDEST POP POP POP POP POP SWAP1 POP SWAP2 SWAP1 POP JUMP JUMPDEST PUSH0 DUP2 JUMP JUMPDEST PUSH2 0xC4D PUSH2 0x27AC JUMP JUMPDEST PUSH2 0xC56 PUSH0 PUSH2 0x2894 JUMP JUMPDEST JUMP JUMPDEST PUSH2 0xC60 PUSH2 0x27AC JUMP JUMPDEST DUP1 PUSH1 0x1 PUSH0 PUSH2 0x100 EXP DUP2 SLOAD DUP2 PUSH20 0xFFFFFFFFFFFFFFFFFFFFFFFFFFFFFFFFFFFFFFFF MUL NOT AND SWAP1 DUP4 PUSH20 0xFFFFFFFFFFFFFFFFFFFFFFFFFFFFFFFFFFFFFFFF AND MUL OR SWAP1 SSTORE POP POP JUMP JUMPDEST PUSH2 0xCAB PUSH2 0x2117 JUMP JUMPDEST PUSH2 0xCB3 PUSH2 0x2158 JUMP JUMPDEST PUSH1 0x4 DUP3 DUP3 SWAP1 POP LT ISZERO DUP1 ISZERO PUSH2 0xCCB JUMPI POP PUSH1 0x8 DUP3 DUP3 SWAP1 POP GT ISZERO JUMPDEST PUSH2 0xD0A JUMPI PUSH1 0x40 MLOAD PUSH32 0x8C379A000000000000000000000000000000000000000000000000000000000 DUP2 MSTORE PUSH1 0x4 ADD PUSH2 0xD01 SWAP1 PUSH2 0x43B5 JUMP JUMPDEST PUSH1 0x40 MLOAD DUP1 SWAP2 SUB SWAP1 REVERT JUMPDEST PUSH0 PUSH0 SWAP1 POP JUMPDEST DUP3 DUP3 SWAP1 POP DUP2 LT ISZERO PUSH2 0xE46 JUMPI CALLER PUSH20 0xFFFFFFFFFFFFFFFFFFFFFFFFFFFFFFFFFFFFFFFF AND PUSH1 0x1 PUSH0 SWAP1 SLOAD SWAP1 PUSH2 0x100 EXP SWAP1 DIV PUSH20 0xFFFFFFFFFFFFFFFFFFFFFFFFFFFFFFFFFFFFFFFF AND PUSH20 0xFFFFFFFFFFFFFFFFFFFFFFFFFFFFFFFFFFFFFFFF AND PUSH4 0x6352211E DUP6 DUP6 DUP6 DUP2 DUP2 LT PUSH2 0xD81 JUMPI PUSH2 0xD80 PUSH2 0x43D3 JUMP JUMPDEST JUMPDEST SWAP1 POP PUSH1 0x20 MUL ADD CALLDATALOAD PUSH1 0x40 MLOAD DUP3 PUSH4 0xFFFFFFFF AND PUSH1 0xE0 SHL DUP2 MSTORE PUSH1 0x4 ADD PUSH2 0xDA4 SWAP2 SWAP1 PUSH2 0x3BFA JUMP JUMPDEST PUSH1 0x20 PUSH1 0x40 MLOAD DUP1 DUP4 SUB DUP2 DUP7 GAS STATICCALL ISZERO DUP1 ISZERO PUSH2 0xDBF JUMPI RETURNDATASIZE PUSH0 PUSH0 RETURNDATACOPY RETURNDATASIZE PUSH0 REVERT JUMPDEST POP POP POP POP PUSH1 0x40 MLOAD RETURNDATASIZE PUSH1 0x1F NOT PUSH1 0x1F DUP3 ADD AND DUP3 ADD DUP1 PUSH1 0x40 MSTORE POP DUP2 ADD SWAP1 PUSH2 0xDE3 SWAP2 SWAP1 PUSH2 0x4414 JUMP JUMPDEST PUSH20 0xFFFFFFFFFFFFFFFFFFFFFFFFFFFFFFFFFFFFFFFF AND EQ PUSH2 0xE39 JUMPI PUSH1 0x40 MLOAD PUSH32 0x8C379A000000000000000000000000000000000000000000000000000000000 DUP2 MSTORE PUSH1 0x4 ADD PUSH2 0xE30 SWAP1 PUSH2 0x4489 JUMP JUMPDEST PUSH1 0x40 MLOAD DUP1 SWAP2 SUB SWAP1 REVERT JUMPDEST DUP1 DUP1 PUSH1 0x1 ADD SWAP2 POP POP PUSH2 0xD0F JUMP JUMPDEST POP PUSH0 PUSH1 0x4 PUSH0 CALLER PUSH20 0xFFFFFFFFFFFFFFFFFFFFFFFFFFFFFFFFFFFFFFFF AND PUSH20 0xFFFFFFFFFFFFFFFFFFFFFFFFFFFFFFFFFFFFFFFF AND DUP2 MSTORE PUSH1 0x20 ADD SWAP1 DUP2 MSTORE PUSH1 0x20 ADD PUSH0 KECCAK256 DUP1 SLOAD DUP1 PUSH1 0x20 MUL PUSH1 0x20 ADD PUSH1 0x40 MLOAD SWAP1 DUP2 ADD PUSH1 0x40 MSTORE DUP1 SWAP3 SWAP2 SWAP1 DUP2 DUP2 MSTORE PUSH1 0x20 ADD PUSH0 SWAP1 JUMPDEST DUP3 DUP3 LT ISZERO PUSH2 0xFD1 JUMPI DUP4 DUP3 SWAP1 PUSH0 MSTORE PUSH1 0x20 PUSH0 KECCAK256 ADD PUSH1 0x40 MLOAD DUP1 PUSH1 0xC0 ADD PUSH1 0x40 MSTORE SWAP1 DUP2 PUSH0 DUP3 ADD PUSH0 SWAP1 SLOAD SWAP1 PUSH2 0x100 EXP SWAP1 DIV PUSH1 0xFF AND PUSH1 0x2 DUP2 GT ISZERO PUSH2 0xEE4 JUMPI PUSH2 0xEE3 PUSH2 0x3954 JUMP JUMPDEST JUMPDEST PUSH1 0x2 DUP2 GT ISZERO PUSH2 0xEF6 JUMPI PUSH2 0xEF5 PUSH2 0x3954 JUMP JUMPDEST JUMPDEST DUP2 MSTORE PUSH1 0x20 ADD PUSH0 DUP3 ADD PUSH1 0x1 SWAP1 SLOAD SWAP1 PUSH2 0x100 EXP SWAP1 DIV PUSH1 0xFF AND PUSH1 0x2 DUP2 GT ISZERO PUSH2 0xF1E JUMPI PUSH2 0xF1D PUSH2 0x3954 JUMP JUMPDEST JUMPDEST PUSH1 0x2 DUP2 GT ISZERO PUSH2 0xF30 JUMPI PUSH2 0xF2F PUSH2 0x3954 JUMP JUMPDEST JUMPDEST DUP2 MSTORE PUSH1 0x20 ADD PUSH0 DUP3 ADD PUSH1 0x2 SWAP1 SLOAD SWAP1 PUSH2 0x100 EXP SWAP1 DIV PUSH1 0xFF AND PUSH1 0x3 DUP2 GT ISZERO PUSH2 0xF58 JUMPI PUSH2 0xF57 PUSH2 0x3954 JUMP JUMPDEST JUMPDEST PUSH1 0x3 DUP2 GT ISZERO PUSH2 0xF6A JUMPI PUSH2 0xF69 PUSH2 0x3954 JUMP JUMPDEST JUMPDEST DUP2 MSTORE PUSH1 0x20 ADD PUSH0 DUP3 ADD PUSH1 0x3 SWAP1 SLOAD SWAP1 PUSH2 0x100 EXP SWAP1 DIV PUSH1 0xFF AND PUSH1 0xFF AND PUSH1 0xFF AND DUP2 MSTORE PUSH1 0x20 ADD PUSH0 DUP3 ADD PUSH1 0x4 SWAP1 SLOAD SWAP1 PUSH2 0x100 EXP SWAP1 DIV PUSH1 0xFF AND PUSH1 0xFF AND PUSH1 0xFF AND DUP2 MSTORE PUSH1 0x20 ADD PUSH0 DUP3 ADD PUSH1 0x5 SWAP1 SLOAD SWAP1 PUSH2 0x100 EXP SWAP1 DIV PUSH1 0xFF AND PUSH1 0xFF AND PUSH1 0xFF AND DUP2 MSTORE POP POP DUP2 MSTORE PUSH1 0x20 ADD SWAP1 PUSH1 0x1 ADD SWAP1 PUSH2 0xEA4 JUMP JUMPDEST POP POP POP POP SWAP1 POP PUSH0 DUP2 MLOAD SUB PUSH2 0x1178 JUMPI PUSH2 0xFE8 CALLER PUSH2 0x2955 JUMP JUMPDEST PUSH1 0x4 PUSH0 CALLER PUSH20 0xFFFFFFFFFFFFFFFFFFFFFFFFFFFFFFFFFFFFFFFF AND PUSH20 0xFFFFFFFFFFFFFFFFFFFFFFFFFFFFFFFFFFFFFFFF AND DUP2 MSTORE PUSH1 0x20 ADD SWAP1 DUP2 MSTORE PUSH1 0x20 ADD PUSH0 KECCAK256 DUP1 SLOAD DUP1 PUSH1 0x20 MUL PUSH1 0x20 ADD PUSH1 0x40 MLOAD SWAP1 DUP2 ADD PUSH1 0x40 MSTORE DUP1 SWAP3 SWAP2 SWAP1 DUP2 DUP2 MSTORE PUSH1 0x20 ADD PUSH0 SWAP1 JUMPDEST DUP3 DUP3 LT ISZERO PUSH2 0x1171 JUMPI DUP4 DUP3 SWAP1 PUSH0 MSTORE PUSH1 0x20 PUSH0 KECCAK256 ADD PUSH1 0x40 MLOAD DUP1 PUSH1 0xC0 ADD PUSH1 0x40 MSTORE SWAP1 DUP2 PUSH0 DUP3 ADD PUSH0 SWAP1 SLOAD SWAP1 PUSH2 0x100 EXP SWAP1 DIV PUSH1 0xFF AND PUSH1 0x2 DUP2 GT ISZERO PUSH2 0x1084 JUMPI PUSH2 0x1083 PUSH2 0x3954 JUMP JUMPDEST JUMPDEST PUSH1 0x2 DUP2 GT ISZERO PUSH2 0x1096 JUMPI PUSH2 0x1095 PUSH2 0x3954 JUMP JUMPDEST JUMPDEST DUP2 MSTORE PUSH1 0x20 ADD PUSH0 DUP3 ADD PUSH1 0x1 SWAP1 SLOAD SWAP1 PUSH2 0x100 EXP SWAP1 DIV PUSH1 0xFF AND PUSH1 0x2 DUP2 GT ISZERO PUSH2 0x10BE JUMPI PUSH2 0x10BD PUSH2 0x3954 JUMP JUMPDEST JUMPDEST PUSH1 0x2 DUP2 GT ISZERO PUSH2 0x10D0 JUMPI PUSH2 0x10CF PUSH2 0x3954 JUMP JUMPDEST JUMPDEST DUP2 MSTORE PUSH1 0x20 ADD PUSH0 DUP3 ADD PUSH1 0x2 SWAP1 SLOAD SWAP1 PUSH2 0x100 EXP SWAP1 DIV PUSH1 0xFF AND PUSH1 0x3 DUP2 GT ISZERO PUSH2 0x10F8 JUMPI PUSH2 0x10F7 PUSH2 0x3954 JUMP JUMPDEST JUMPDEST PUSH1 0x3 DUP2 GT ISZERO PUSH2 0x110A JUMPI PUSH2 0x1109 PUSH2 0x3954 JUMP JUMPDEST JUMPDEST DUP2 MSTORE PUSH1 0x20 ADD PUSH0 DUP3 ADD PUSH1 0x3 SWAP1 SLOAD SWAP1 PUSH2 0x100 EXP SWAP1 DIV PUSH1 0xFF AND PUSH1 0xFF AND PUSH1 0xFF AND DUP2 MSTORE PUSH1 0x20 ADD PUSH0 DUP3 ADD PUSH1 0x4 SWAP1 SLOAD SWAP1 PUSH2 0x100 EXP SWAP1 DIV PUSH1 0xFF AND PUSH1 0xFF AND PUSH1 0xFF AND DUP2 MSTORE PUSH1 0x20 ADD PUSH0 DUP3 ADD PUSH1 0x5 SWAP1 SLOAD SWAP1 PUSH2 0x100 EXP SWAP1 DIV PUSH1 0xFF AND PUSH1 0xFF AND PUSH1 0xFF AND DUP2 MSTORE POP POP DUP2 MSTORE PUSH1 0x20 ADD SWAP1 PUSH1 0x1 ADD SWAP1 PUSH2 0x1044 JUMP JUMPDEST POP POP POP POP SWAP1 POP JUMPDEST PUSH0 PUSH0 PUSH2 0x1184 DUP6 DUP6 PUSH2 0x2F33 JUMP JUMPDEST SWAP2 POP SWAP2 POP PUSH0 PUSH2 0x1192 DUP5 PUSH2 0x3215 JUMP JUMPDEST POP SWAP1 POP PUSH0 TIMESTAMP CALLER PREVRANDAO PUSH1 0x40 MLOAD PUSH1 0x20 ADD PUSH2 0x11AB SWAP4 SWAP3 SWAP2 SWAP1 PUSH2 0x4175 JUMP JUMPDEST PUSH1 0x40 MLOAD PUSH1 0x20 DUP2 DUP4 SUB SUB DUP2 MSTORE SWAP1 PUSH1 0x40 MSTORE DUP1 MLOAD SWAP1 PUSH1 0x20 ADD KECCAK256 PUSH0 SHR SWAP1 POP PUSH0 PUSH1 0x19 DUP5 PUSH1 0xFF AND PUSH2 0x11D6 SWAP2 SWAP1 PUSH2 0x44A7 JUMP JUMPDEST PUSH1 0x32 DUP4 PUSH2 0x11E3 SWAP2 SWAP1 PUSH2 0x41DE JUMP JUMPDEST DUP7 PUSH2 0x11EE SWAP2 SWAP1 PUSH2 0x44E8 JUMP JUMPDEST PUSH2 0x11F8 SWAP2 SWAP1 PUSH2 0x44E8 JUMP JUMPDEST SWAP1 POP PUSH0 PUSH1 0x2D PUSH1 0x40 DUP5 SWAP1 SHR PUSH2 0x120C SWAP2 SWAP1 PUSH2 0x41DE JUMP JUMPDEST DUP5 PUSH2 0x1217 SWAP2 SWAP1 PUSH2 0x44E8 JUMP JUMPDEST SWAP1 POP PUSH0 DUP2 DUP4 GT SWAP1 POP PUSH2 0x1229 CALLER DUP3 PUSH2 0x345C JUMP JUMPDEST PUSH0 DUP2 PUSH2 0x1236 JUMPI PUSH1 0x1 PUSH2 0x1239 JUMP JUMPDEST PUSH1 0x3 JUMPDEST PUSH1 0xFF AND SWAP1 POP PUSH0 DUP2 PUSH8 0xFFFFFFFFFFFFFFFF DUP2 GT ISZERO PUSH2 0x1259 JUMPI PUSH2 0x1258 PUSH2 0x451B JUMP JUMPDEST JUMPDEST PUSH1 0x40 MLOAD SWAP1 DUP1 DUP3 MSTORE DUP1 PUSH1 0x20 MUL PUSH1 0x20 ADD DUP3 ADD PUSH1 0x40 MSTORE DUP1 ISZERO PUSH2 0x1287 JUMPI DUP2 PUSH1 0x20 ADD PUSH1 0x20 DUP3 MUL DUP1 CALLDATASIZE DUP4 CALLDATACOPY DUP1 DUP3 ADD SWAP2 POP POP SWAP1 POP JUMPDEST POP SWAP1 POP PUSH0 PUSH0 SWAP1 POP PUSH1 0x1 PUSH0 SWAP1 SLOAD SWAP1 PUSH2 0x100 EXP SWAP1 DIV PUSH20 0xFFFFFFFFFFFFFFFFFFFFFFFFFFFFFFFFFFFFFFFF AND PUSH20 0xFFFFFFFFFFFFFFFFFFFFFFFFFFFFFFFFFFFFFFFF AND PUSH4 0x71DEC088 CALLER PUSH1 0x3 TIMESTAMP CALLER PUSH1 0x40 MLOAD PUSH1 0x20 ADD PUSH2 0x12E1 SWAP3 SWAP2 SWAP1 PUSH2 0x4548 JUMP JUMPDEST PUSH1 0x40 MLOAD PUSH1 0x20 DUP2 DUP4 SUB SUB DUP2 MSTORE SWAP1 PUSH1 0x40 MSTORE DUP1 MLOAD SWAP1 PUSH1 0x20 ADD KECCAK256 PUSH0 SHR PUSH2 0x1303 SWAP2 SWAP1 PUSH2 0x41DE JUMP JUMPDEST PUSH1 0xFF AND PUSH1 0x2 DUP2 GT ISZERO PUSH2 0x1318 JUMPI PUSH2 0x1317 PUSH2 0x3954 JUMP JUMPDEST JUMPDEST PUSH0 PUSH0 PUSH1 0x5 DUP1 PUSH1 0x6 PUSH1 0x40 MLOAD DUP9 PUSH4 0xFFFFFFFF AND PUSH1 0xE0 SHL DUP2 MSTORE PUSH1 0x4 ADD PUSH2 0x1341 SWAP8 SWAP7 SWAP6 SWAP5 SWAP4 SWAP3 SWAP2 SWAP1 PUSH2 0x45E5 JUMP JUMPDEST PUSH1 0x20 PUSH1 0x40 MLOAD DUP1 DUP4 SUB DUP2 PUSH0 DUP8 GAS CALL ISZERO DUP1 ISZERO PUSH2 0x135D JUMPI RETURNDATASIZE PUSH0 PUSH0 RETURNDATACOPY RETURNDATASIZE PUSH0 REVERT JUMPDEST POP POP POP POP PUSH1 0x40 MLOAD RETURNDATASIZE PUSH1 0x1F NOT PUSH1 0x1F DUP3 ADD AND DUP3 ADD DUP1 PUSH1 0x40 MSTORE POP DUP2 ADD SWAP1 PUSH2 0x1381 SWAP2 SWAP1 PUSH2 0x40E5 JUMP JUMPDEST DUP3 DUP3 DUP1 PUSH2 0x138D SWAP1 PUSH2 0x4652 JUMP JUMPDEST SWAP4 POP DUP2 MLOAD DUP2 LT PUSH2 0x13A0 JUMPI PUSH2 0x139F PUSH2 0x43D3 JUMP JUMPDEST JUMPDEST PUSH1 0x20 MUL PUSH1 0x20 ADD ADD DUP2 DUP2 MSTORE POP POP DUP4 ISZERO PUSH2 0x1603 JUMPI PUSH1 0x1 PUSH0 SWAP1 SLOAD SWAP1 PUSH2 0x100 EXP SWAP1 DIV PUSH20 0xFFFFFFFFFFFFFFFFFFFFFFFFFFFFFFFFFFFFFFFF AND PUSH20 0xFFFFFFFFFFFFFFFFFFFFFFFFFFFFFFFFFFFFFFFF AND PUSH4 0x71DEC088 CALLER PUSH1 0x3 TIMESTAMP CALLER PUSH1 0x1 PUSH1 0x40 MLOAD PUSH1 0x20 ADD PUSH2 0x1408 SWAP4 SWAP3 SWAP2 SWAP1 PUSH2 0x4175 JUMP JUMPDEST PUSH1 0x40 MLOAD PUSH1 0x20 DUP2 DUP4 SUB SUB DUP2 MSTORE SWAP1 PUSH1 0x40 MSTORE DUP1 MLOAD SWAP1 PUSH1 0x20 ADD KECCAK256 PUSH0 SHR PUSH2 0x142A SWAP2 SWAP1 PUSH2 0x41DE JUMP JUMPDEST PUSH1 0xFF AND PUSH1 0x2 DUP2 GT ISZERO PUSH2 0x143F JUMPI PUSH2 0x143E PUSH2 0x3954 JUMP JUMPDEST JUMPDEST PUSH1 0x1 DUP1 PUSH1 0x7 DUP1 PUSH1 0x7 PUSH1 0x40 MLOAD DUP9 PUSH4 0xFFFFFFFF AND PUSH1 0xE0 SHL DUP2 MSTORE PUSH1 0x4 ADD PUSH2 0x1469 SWAP8 SWAP7 SWAP6 SWAP5 SWAP4 SWAP3 SWAP2 SWAP1 PUSH2 0x46D2 JUMP JUMPDEST PUSH1 0x20 PUSH1 0x40 MLOAD DUP1 DUP4 SUB DUP2 PUSH0 DUP8 GAS CALL ISZERO DUP1 ISZERO PUSH2 0x1485 JUMPI RETURNDATASIZE PUSH0 PUSH0 RETURNDATACOPY RETURNDATASIZE PUSH0 REVERT JUMPDEST POP POP POP POP PUSH1 0x40 MLOAD RETURNDATASIZE PUSH1 0x1F NOT PUSH1 0x1F DUP3 ADD AND DUP3 ADD DUP1 PUSH1 0x40 MSTORE POP DUP2 ADD SWAP1 PUSH2 0x14A9 SWAP2 SWAP1 PUSH2 0x40E5 JUMP JUMPDEST DUP3 DUP3 DUP1 PUSH2 0x14B5 SWAP1 PUSH2 0x4652 JUMP JUMPDEST SWAP4 POP DUP2 MLOAD DUP2 LT PUSH2 0x14C8 JUMPI PUSH2 0x14C7 PUSH2 0x43D3 JUMP JUMPDEST JUMPDEST PUSH1 0x20 MUL PUSH1 0x20 ADD ADD DUP2 DUP2 MSTORE POP POP PUSH1 0x2 DUP10 PUSH1 0xFF AND LT PUSH2 0x1602 JUMPI PUSH1 0x1 PUSH0 SWAP1 SLOAD SWAP1 PUSH2 0x100 EXP SWAP1 DIV PUSH20 0xFFFFFFFFFFFFFFFFFFFFFFFFFFFFFFFFFFFFFFFF AND PUSH20 0xFFFFFFFFFFFFFFFFFFFFFFFFFFFFFFFFFFFFFFFF AND PUSH4 0x71DEC088 CALLER PUSH1 0x3 TIMESTAMP CALLER PUSH1 0x2 PUSH1 0x40 MLOAD PUSH1 0x20 ADD PUSH2 0x1535 SWAP4 SWAP3 SWAP2 SWAP1 PUSH2 0x4175 JUMP JUMPDEST PUSH1 0x40 MLOAD PUSH1 0x20 DUP2 DUP4 SUB SUB DUP2 MSTORE SWAP1 PUSH1 0x40 MSTORE DUP1 MLOAD SWAP1 PUSH1 0x20 ADD KECCAK256 PUSH0 SHR PUSH2 0x1557 SWAP2 SWAP1 PUSH2 0x41DE JUMP JUMPDEST PUSH1 0xFF AND PUSH1 0x2 DUP2 GT ISZERO PUSH2 0x156C JUMPI PUSH2 0x156B PUSH2 0x3954 JUMP JUMPDEST JUMPDEST PUSH1 0x2 DUP1 PUSH1 0x9 DUP1 PUSH1 0x8 PUSH1 0x40 MLOAD DUP9 PUSH4 0xFFFFFFFF AND PUSH1 0xE0 SHL DUP2 MSTORE PUSH1 0x4 ADD PUSH2 0x1596 SWAP8 SWAP7 SWAP6 SWAP5 SWAP4 SWAP3 SWAP2 SWAP1 PUSH2 0x47B1 JUMP JUMPDEST PUSH1 0x20 PUSH1 0x40 MLOAD DUP1 DUP4 SUB DUP2 PUSH0 DUP8 GAS CALL ISZERO DUP1 ISZERO PUSH2 0x15B2 JUMPI RETURNDATASIZE PUSH0 PUSH0 RETURNDATACOPY RETURNDATASIZE PUSH0 REVERT JUMPDEST POP POP POP POP PUSH1 0x40 MLOAD RETURNDATASIZE PUSH1 0x1F NOT PUSH1 0x1F DUP3 ADD AND DUP3 ADD DUP1 PUSH1 0x40 MSTORE POP DUP2 ADD SWAP1 PUSH2 0x15D6 SWAP2 SWAP1 PUSH2 0x40E5 JUMP JUMPDEST DUP3 DUP3 DUP1 PUSH2 0x15E2 SWAP1 PUSH2 0x4652 JUMP JUMPDEST SWAP4 POP DUP2 MLOAD DUP2 LT PUSH2 0x15F5 JUMPI PUSH2 0x15F4 PUSH2 0x43D3 JUMP JUMPDEST JUMPDEST PUSH1 0x20 MUL PUSH1 0x20 ADD ADD DUP2 DUP2 MSTORE POP POP JUMPDEST JUMPDEST PUSH0 DUP4 PUSH8 0xFFFFFFFFFFFFFFFF DUP2 GT ISZERO PUSH2 0x161E JUMPI PUSH2 0x161D PUSH2 0x451B JUMP JUMPDEST JUMPDEST PUSH1 0x40 MLOAD SWAP1 DUP1 DUP3 MSTORE DUP1 PUSH1 0x20 MUL PUSH1 0x20 ADD DUP3 ADD PUSH1 0x40 MSTORE DUP1 ISZERO PUSH2 0x164C JUMPI DUP2 PUSH1 0x20 ADD PUSH1 0x20 DUP3 MUL DUP1 CALLDATASIZE DUP4 CALLDATACOPY DUP1 DUP3 ADD SWAP2 POP POP SWAP1 POP JUMPDEST POP SWAP1 POP PUSH0 PUSH0 SWAP1 POP JUMPDEST DUP5 DUP2 LT ISZERO PUSH2 0x171E JUMPI DUP4 DUP2 DUP2 MLOAD DUP2 LT PUSH2 0x166F JUMPI PUSH2 0x166E PUSH2 0x43D3 JUMP JUMPDEST JUMPDEST PUSH1 0x20 MUL PUSH1 0x20 ADD ADD MLOAD DUP3 DUP3 DUP2 MLOAD DUP2 LT PUSH2 0x168A JUMPI PUSH2 0x1689 PUSH2 0x43D3 JUMP JUMPDEST JUMPDEST PUSH1 0x20 MUL PUSH1 0x20 ADD ADD DUP2 DUP2 MSTORE POP POP PUSH1 0x5 PUSH0 CALLER PUSH20 0xFFFFFFFFFFFFFFFFFFFFFFFFFFFFFFFFFFFFFFFF AND PUSH20 0xFFFFFFFFFFFFFFFFFFFFFFFFFFFFFFFFFFFFFFFF AND DUP2 MSTORE PUSH1 0x20 ADD SWAP1 DUP2 MSTORE PUSH1 0x20 ADD PUSH0 KECCAK256 DUP5 DUP3 DUP2 MLOAD DUP2 LT PUSH2 0x16E6 JUMPI PUSH2 0x16E5 PUSH2 0x43D3 JUMP JUMPDEST JUMPDEST PUSH1 0x20 MUL PUSH1 0x20 ADD ADD MLOAD SWAP1 DUP1 PUSH1 0x1 DUP2 SLOAD ADD DUP1 DUP3 SSTORE DUP1 SWAP2 POP POP PUSH1 0x1 SWAP1 SUB SWAP1 PUSH0 MSTORE PUSH1 0x20 PUSH0 KECCAK256 ADD PUSH0 SWAP1 SWAP2 SWAP1 SWAP2 SWAP1 SWAP2 POP SSTORE DUP1 DUP1 PUSH1 0x1 ADD SWAP2 POP POP PUSH2 0x1654 JUMP JUMPDEST POP DUP5 ISZERO PUSH2 0x176E JUMPI PUSH1 0x4 PUSH0 CALLER PUSH20 0xFFFFFFFFFFFFFFFFFFFFFFFFFFFFFFFFFFFFFFFF AND PUSH20 0xFFFFFFFFFFFFFFFFFFFFFFFFFFFFFFFFFFFFFFFF AND DUP2 MSTORE PUSH1 0x20 ADD SWAP1 DUP2 MSTORE PUSH1 0x20 ADD PUSH0 KECCAK256 PUSH0 PUSH2 0x176D SWAP2 SWAP1 PUSH2 0x376A JUMP JUMPDEST JUMPDEST PUSH32 0xE5EA426F1B256FA31597CF9F5E138DD78D805A5518B5A5B9045B30BBD778360A CALLER DUP7 DUP10 DUP10 DUP6 PUSH1 0x40 MLOAD PUSH2 0x17A5 SWAP6 SWAP5 SWAP4 SWAP3 SWAP2 SWAP1 PUSH2 0x481E JUMP JUMPDEST PUSH1 0x40 MLOAD DUP1 SWAP2 SUB SWAP1 LOG1 POP POP POP POP POP POP POP POP POP POP POP POP PUSH2 0x17C1 PUSH2 0x2349 JUMP JUMPDEST POP POP JUMP JUMPDEST PUSH2 0x17CD PUSH2 0x27AC JUMP JUMPDEST PUSH2 0x17D5 PUSH2 0x3605 JUMP JUMPDEST JUMP JUMPDEST PUSH1 0x3 PUSH1 0x20 MSTORE DUP2 PUSH0 MSTORE PUSH1 0x40 PUSH0 KECCAK256 DUP2 PUSH1 0x5 DUP2 LT PUSH2 0x17F0 JUMPI PUSH0 DUP1 REVERT JUMPDEST ADD PUSH0 SWAP2 POP SWAP2 POP POP DUP1 PUSH0 ADD PUSH0 SWAP1 SLOAD SWAP1 PUSH2 0x100 EXP SWAP1 DIV PUSH1 0xFF AND SWAP1 DUP1 PUSH0 ADD PUSH1 0x1 SWAP1 SLOAD SWAP1 PUSH2 0x100 EXP SWAP1 DIV PUSH1 0xFF AND SWAP1 DUP1 PUSH0 ADD PUSH1 0x2 SWAP1 SLOAD SWAP1 PUSH2 0x100 EXP SWAP1 DIV PUSH1 0xFF AND SWAP1 DUP1 PUSH0 ADD PUSH1 0x3 SWAP1 SLOAD SWAP1 PUSH2 0x100 EXP SWAP1 DIV PUSH1 0xFF AND SWAP1 DUP1 PUSH0 ADD PUSH1 0x4 SWAP1 SLOAD SWAP1 PUSH2 0x100 EXP SWAP1 DIV PUSH1 0xFF AND SWAP1 DUP1 PUSH0 ADD PUSH1 0x5 SWAP1 SLOAD SWAP1 PUSH2 0x100 EXP SWAP1 DIV PUSH1 0xFF AND SWAP1 POP DUP7 JUMP JUMPDEST PUSH0 PUSH0 PUSH0 SWAP1 SLOAD SWAP1 PUSH2 0x100 EXP SWAP1 DIV PUSH20 0xFFFFFFFFFFFFFFFFFFFFFFFFFFFFFFFFFFFFFFFF AND SWAP1 POP SWAP1 JUMP JUMPDEST PUSH0 DUP2 JUMP JUMPDEST PUSH2 0x1899 PUSH2 0x2117 JUMP JUMPDEST PUSH2 0x18A1 PUSH2 0x2158 JUMP JUMPDEST PUSH0 CALLVALUE EQ PUSH2 0x18E3 JUMPI PUSH1 0x40 MLOAD PUSH32 0x8C379A000000000000000000000000000000000000000000000000000000000 DUP2 MSTORE PUSH1 0x4 ADD PUSH2 0x18DA SWAP1 PUSH2 0x40B3 JUMP JUMPDEST PUSH1 0x40 MLOAD DUP1 SWAP2 SUB SWAP1 REVERT JUMPDEST PUSH1 0x5 DUP2 LT PUSH2 0x1926 JUMPI PUSH1 0x40 MLOAD PUSH32 0x8C379A000000000000000000000000000000000000000000000000000000000 DUP2 MSTORE PUSH1 0x4 ADD PUSH2 0x191D SWAP1 PUSH2 0x48C0 JUMP JUMPDEST PUSH1 0x40 MLOAD DUP1 SWAP2 SUB SWAP1 REVERT JUMPDEST PUSH0 PUSH1 0x3 PUSH0 CALLER PUSH20 0xFFFFFFFFFFFFFFFFFFFFFFFFFFFFFFFFFFFFFFFF AND PUSH20 0xFFFFFFFFFFFFFFFFFFFFFFFFFFFFFFFFFFFFFFFF AND DUP2 MSTORE PUSH1 0x20 ADD SWAP1 DUP2 MSTORE PUSH1 0x20 ADD PUSH0 KECCAK256 DUP3 PUSH1 0x5 DUP2 LT PUSH2 0x1976 JUMPI PUSH2 0x1975 PUSH2 0x43D3 JUMP JUMPDEST JUMPDEST ADD PUSH1 0x40 MLOAD DUP1 PUSH1 0xC0 ADD PUSH1 0x40 MSTORE SWAP1 DUP2 PUSH0 DUP3 ADD PUSH0 SWAP1 SLOAD SWAP1 PUSH2 0x100 EXP SWAP1 DIV PUSH1 0xFF AND PUSH1 0x2 DUP2 GT ISZERO PUSH2 0x19A5 JUMPI PUSH2 0x19A4 PUSH2 0x3954 JUMP JUMPDEST JUMPDEST PUSH1 0x2 DUP2 GT ISZERO PUSH2 0x19B7 JUMPI PUSH2 0x19B6 PUSH2 0x3954 JUMP JUMPDEST JUMPDEST DUP2 MSTORE PUSH1 0x20 ADD PUSH0 DUP3 ADD PUSH1 0x1 SWAP1 SLOAD SWAP1 PUSH2 0x100 EXP SWAP1 DIV PUSH1 0xFF AND PUSH1 0x2 DUP2 GT ISZERO PUSH2 0x19DF JUMPI PUSH2 0x19DE PUSH2 0x3954 JUMP JUMPDEST JUMPDEST PUSH1 0x2 DUP2 GT ISZERO PUSH2 0x19F1 JUMPI PUSH2 0x19F0 PUSH2 0x3954 JUMP JUMPDEST JUMPDEST DUP2 MSTORE PUSH1 0x20 ADD PUSH0 DUP3 ADD PUSH1 0x2 SWAP1 SLOAD SWAP1 PUSH2 0x100 EXP SWAP1 DIV PUSH1 0xFF AND PUSH1 0x3 DUP2 GT ISZERO PUSH2 0x1A19 JUMPI PUSH2 0x1A18 PUSH2 0x3954 JUMP JUMPDEST JUMPDEST PUSH1 0x3 DUP2 GT ISZERO PUSH2 0x1A2B JUMPI PUSH2 0x1A2A PUSH2 0x3954 JUMP JUMPDEST JUMPDEST DUP2 MSTORE PUSH1 0x20 ADD PUSH0 DUP3 ADD PUSH1 0x3 SWAP1 SLOAD SWAP1 PUSH2 0x100 EXP SWAP1 DIV PUSH1 0xFF AND PUSH1 0xFF AND PUSH1 0xFF AND DUP2 MSTORE PUSH1 0x20 ADD PUSH0 DUP3 ADD PUSH1 0x4 SWAP1 SLOAD SWAP1 PUSH2 0x100 EXP SWAP1 DIV PUSH1 0xFF AND PUSH1 0xFF AND PUSH1 0xFF AND DUP2 MSTORE PUSH1 0x20 ADD PUSH0 DUP3 ADD PUSH1 0x5 SWAP1 SLOAD SWAP1 PUSH2 0x100 EXP SWAP1 DIV PUSH1 0xFF AND PUSH1 0xFF AND PUSH1 0xFF AND DUP2 MSTORE POP POP SWAP1 POP PUSH0 DUP2 PUSH1 0x60 ADD MLOAD PUSH1 0xFF AND GT PUSH2 0x1ACE JUMPI PUSH1 0x40 MLOAD PUSH32 0x8C379A000000000000000000000000000000000000000000000000000000000 DUP2 MSTORE PUSH1 0x4 ADD PUSH2 0x1AC5 SWAP1 PUSH2 0x4928 JUMP JUMPDEST PUSH1 0x40 MLOAD DUP1 SWAP2 SUB SWAP1 REVERT JUMPDEST PUSH0 PUSH1 0x1 PUSH0 SWAP1 SLOAD SWAP1 PUSH2 0x100 EXP SWAP1 DIV PUSH20 0xFFFFFFFFFFFFFFFFFFFFFFFFFFFFFFFFFFFFFFFF AND PUSH20 0xFFFFFFFFFFFFFFFFFFFFFFFFFFFFFFFFFFFFFFFF AND PUSH4 0x71DEC088 CALLER DUP5 PUSH0 ADD MLOAD DUP6 PUSH1 0x20 ADD MLOAD DUP7 PUSH1 0x40 ADD MLOAD DUP8 PUSH1 0x60 ADD MLOAD DUP9 PUSH1 0x80 ADD MLOAD DUP10 PUSH1 0xA0 ADD MLOAD PUSH1 0x40 MLOAD DUP9 PUSH4 0xFFFFFFFF AND PUSH1 0xE0 SHL DUP2 MSTORE PUSH1 0x4 ADD PUSH2 0x1B4C SWAP8 SWAP7 SWAP6 SWAP5 SWAP4 SWAP3 SWAP2 SWAP1 PUSH2 0x426F JUMP JUMPDEST PUSH1 0x20 PUSH1 0x40 MLOAD DUP1 DUP4 SUB DUP2 PUSH0 DUP8 GAS CALL ISZERO DUP1 ISZERO PUSH2 0x1B68 JUMPI RETURNDATASIZE PUSH0 PUSH0 RETURNDATACOPY RETURNDATASIZE PUSH0 REVERT JUMPDEST POP POP POP POP PUSH1 0x40 MLOAD RETURNDATASIZE PUSH1 0x1F NOT PUSH1 0x1F DUP3 ADD AND DUP3 ADD DUP1 PUSH1 0x40 MSTORE POP DUP2 ADD SWAP1 PUSH2 0x1B8C SWAP2 SWAP1 PUSH2 0x40E5 JUMP JUMPDEST SWAP1 POP PUSH1 0x5 PUSH0 CALLER PUSH20 0xFFFFFFFFFFFFFFFFFFFFFFFFFFFFFFFFFFFFFFFF AND PUSH20 0xFFFFFFFFFFFFFFFFFFFFFFFFFFFFFFFFFFFFFFFF AND DUP2 MSTORE PUSH1 0x20 ADD SWAP1 DUP2 MSTORE PUSH1 0x20 ADD PUSH0 KECCAK256 DUP2 SWAP1 DUP1 PUSH1 0x1 DUP2 SLOAD ADD DUP1 DUP3 SSTORE DUP1 SWAP2 POP POP PUSH1 0x1 SWAP1 SUB SWAP1 PUSH0 MSTORE PUSH1 0x20 PUSH0 KECCAK256 ADD PUSH0 SWAP1 SWAP2 SWAP1 SWAP2 SWAP1 SWAP2 POP SSTORE PUSH1 0x3 PUSH0 CALLER PUSH20 0xFFFFFFFFFFFFFFFFFFFFFFFFFFFFFFFFFFFFFFFF AND PUSH20 0xFFFFFFFFFFFFFFFFFFFFFFFFFFFFFFFFFFFFFFFF AND DUP2 MSTORE PUSH1 0x20 ADD SWAP1 DUP2 MSTORE PUSH1 0x20 ADD PUSH0 KECCAK256 DUP4 PUSH1 0x5 DUP2 LT PUSH2 0x1C3E JUMPI PUSH2 0x1C3D PUSH2 0x43D3 JUMP JUMPDEST JUMPDEST ADD PUSH0 PUSH0 DUP3 ADD PUSH0 PUSH2 0x100 EXP DUP2 SLOAD SWAP1 PUSH1 0xFF MUL NOT AND SWAP1 SSTORE PUSH0 DUP3 ADD PUSH1 0x1 PUSH2 0x100 EXP DUP2 SLOAD SWAP1 PUSH1 0xFF MUL NOT AND SWAP1 SSTORE PUSH0 DUP3 ADD PUSH1 0x2 PUSH2 0x100 EXP DUP2 SLOAD SWAP1 PUSH1 0xFF MUL NOT AND SWAP1 SSTORE PUSH0 DUP3 ADD PUSH1 0x3 PUSH2 0x100 EXP DUP2 SLOAD SWAP1 PUSH1 0xFF MUL NOT AND SWAP1 SSTORE PUSH0 DUP3 ADD PUSH1 0x4 PUSH2 0x100 EXP DUP2 SLOAD SWAP1 PUSH1 0xFF MUL NOT AND SWAP1 SSTORE PUSH0 DUP3 ADD PUSH1 0x5 PUSH2 0x100 EXP DUP2 SLOAD SWAP1 PUSH1 0xFF MUL NOT AND SWAP1 SSTORE POP POP PUSH2 0x1CBC CALLER PUSH2 0x21E6 JUMP JUMPDEST PUSH32 0xDDED256C7E86A19D1BE0F3168D1EC8D5CFC9C713C96BDC10DEFADD014692CF92 CALLER DUP3 PUSH1 0x40 MLOAD PUSH2 0x1CED SWAP3 SWAP2 SWAP1 PUSH2 0x42DC JUMP JUMPDEST PUSH1 0x40 MLOAD DUP1 SWAP2 SUB SWAP1 LOG1 POP POP PUSH2 0x1CFF PUSH2 0x2349 JUMP JUMPDEST POP JUMP JUMPDEST PUSH1 0x1 PUSH0 SWAP1 SLOAD SWAP1 PUSH2 0x100 EXP SWAP1 DIV PUSH20 0xFFFFFFFFFFFFFFFFFFFFFFFFFFFFFFFFFFFFFFFF AND DUP2 JUMP JUMPDEST PUSH1 0x2 PUSH1 0x20 MSTORE DUP1 PUSH0 MSTORE PUSH1 0x40 PUSH0 KECCAK256 PUSH0 SWAP2 POP SWAP1 POP DUP1 PUSH0 ADD PUSH0 SWAP1 SLOAD SWAP1 PUSH2 0x100 EXP SWAP1 DIV PUSH2 0xFFFF AND SWAP1 DUP1 PUSH0 ADD PUSH1 0x2 SWAP1 SLOAD SWAP1 PUSH2 0x100 EXP SWAP1 DIV PUSH4 0xFFFFFFFF AND SWAP1 DUP1 PUSH1 0x1 ADD SLOAD SWAP1 DUP1 PUSH1 0x2 ADD SLOAD SWAP1 POP DUP5 JUMP JUMPDEST PUSH1 0x60 PUSH1 0x4 PUSH0 DUP4 PUSH20 0xFFFFFFFFFFFFFFFFFFFFFFFFFFFFFFFFFFFFFFFF AND PUSH20 0xFFFFFFFFFFFFFFFFFFFFFFFFFFFFFFFFFFFFFFFF AND DUP2 MSTORE PUSH1 0x20 ADD SWAP1 DUP2 MSTORE PUSH1 0x20 ADD PUSH0 KECCAK256 DUP1 SLOAD DUP1 PUSH1 0x20 MUL PUSH1 0x20 ADD PUSH1 0x40 MLOAD SWAP1 DUP2 ADD PUSH1 0x40 MSTORE DUP1 SWAP3 SWAP2 SWAP1 DUP2 DUP2 MSTORE PUSH1 0x20 ADD PUSH0 SWAP1 JUMPDEST DUP3 DUP3 LT ISZERO PUSH2 0x1EFA JUMPI DUP4 DUP3 SWAP1 PUSH0 MSTORE PUSH1 0x20 PUSH0 KECCAK256 ADD PUSH1 0x40 MLOAD DUP1 PUSH1 0xC0 ADD PUSH1 0x40 MSTORE SWAP1 DUP2 PUSH0 DUP3 ADD PUSH0 SWAP1 SLOAD SWAP1 PUSH2 0x100 EXP SWAP1 DIV PUSH1 0xFF AND PUSH1 0x2 DUP2 GT ISZERO PUSH2 0x1E0D JUMPI PUSH2 0x1E0C PUSH2 0x3954 JUMP JUMPDEST JUMPDEST PUSH1 0x2 DUP2 GT ISZERO PUSH2 0x1E1F JUMPI PUSH2 0x1E1E PUSH2 0x3954 JUMP JUMPDEST JUMPDEST DUP2 MSTORE PUSH1 0x20 ADD PUSH0 DUP3 ADD PUSH1 0x1 SWAP1 SLOAD SWAP1 PUSH2 0x100 EXP SWAP1 DIV PUSH1 0xFF AND PUSH1 0x2 DUP2 GT ISZERO PUSH2 0x1E47 JUMPI PUSH2 0x1E46 PUSH2 0x3954 JUMP JUMPDEST JUMPDEST PUSH1 0x2 DUP2 GT ISZERO PUSH2 0x1E59 JUMPI PUSH2 0x1E58 PUSH2 0x3954 JUMP JUMPDEST JUMPDEST DUP2 MSTORE PUSH1 0x20 ADD PUSH0 DUP3 ADD PUSH1 0x2 SWAP1 SLOAD SWAP1 PUSH2 0x100 EXP SWAP1 DIV PUSH1 0xFF AND PUSH1 0x3 DUP2 GT ISZERO PUSH2 0x1E81 JUMPI PUSH2 0x1E80 PUSH2 0x3954 JUMP JUMPDEST JUMPDEST PUSH1 0x3 DUP2 GT ISZERO PUSH2 0x1E93 JUMPI PUSH2 0x1E92 PUSH2 0x3954 JUMP JUMPDEST JUMPDEST DUP2 MSTORE PUSH1 0x20 ADD PUSH0 DUP3 ADD PUSH1 0x3 SWAP1 SLOAD SWAP1 PUSH2 0x100 EXP SWAP1 DIV PUSH1 0xFF AND PUSH1 0xFF AND PUSH1 0xFF AND DUP2 MSTORE PUSH1 0x20 ADD PUSH0 DUP3 ADD PUSH1 0x4 SWAP1 SLOAD SWAP1 PUSH2 0x100 EXP SWAP1 DIV PUSH1 0xFF AND PUSH1 0xFF AND PUSH1 0xFF AND DUP2 MSTORE PUSH1 0x20 ADD PUSH0 DUP3 ADD PUSH1 0x5 SWAP1 SLOAD SWAP1 PUSH2 0x100 EXP SWAP1 DIV PUSH1 0xFF AND PUSH1 0xFF AND PUSH1 0xFF AND DUP2 MSTORE POP POP DUP2 MSTORE PUSH1 0x20 ADD SWAP1 PUSH1 0x1 ADD SWAP1 PUSH2 0x1DCD JUMP JUMPDEST POP POP POP POP SWAP1 POP SWAP2 SWAP1 POP JUMP JUMPDEST PUSH1 0x4 PUSH1 0x20 MSTORE DUP2 PUSH0 MSTORE PUSH1 0x40 PUSH0 KECCAK256 DUP2 DUP2 SLOAD DUP2 LT PUSH2 0x1F1E JUMPI PUSH0 DUP1 REVERT JUMPDEST SWAP1 PUSH0 MSTORE PUSH1 0x20 PUSH0 KECCAK256 ADD PUSH0 SWAP2 POP SWAP2 POP POP DUP1 PUSH0 ADD PUSH0 SWAP1 SLOAD SWAP1 PUSH2 0x100 EXP SWAP1 DIV PUSH1 0xFF AND SWAP1 DUP1 PUSH0 ADD PUSH1 0x1 SWAP1 SLOAD SWAP1 PUSH2 0x100 EXP SWAP1 DIV PUSH1 0xFF AND SWAP1 DUP1 PUSH0 ADD PUSH1 0x2 SWAP1 SLOAD SWAP1 PUSH2 0x100 EXP SWAP1 DIV PUSH1 0xFF AND SWAP1 DUP1 PUSH0 ADD PUSH1 0x3 SWAP1 SLOAD SWAP1 PUSH2 0x100 EXP SWAP1 DIV PUSH1 0xFF AND SWAP1 DUP1 PUSH0 ADD PUSH1 0x4 SWAP1 SLOAD SWAP1 PUSH2 0x100 EXP SWAP1 DIV PUSH1 0xFF AND SWAP1 DUP1 PUSH0 ADD PUSH1 0x5 SWAP1 SLOAD SWAP1 PUSH2 0x100 EXP SWAP1 DIV PUSH1 0xFF AND SWAP1 POP DUP7 JUMP JUMPDEST PUSH2 0x1FA3 PUSH2 0x2117 JUMP JUMPDEST PUSH2 0x1FAB PUSH2 0x2158 JUMP JUMPDEST PUSH0 PUSH1 0x4 PUSH0 CALLER PUSH20 0xFFFFFFFFFFFFFFFFFFFFFFFFFFFFFFFFFFFFFFFF AND PUSH20 0xFFFFFFFFFFFFFFFFFFFFFFFFFFFFFFFFFFFFFFFF AND DUP2 MSTORE PUSH1 0x20 ADD SWAP1 DUP2 MSTORE PUSH1 0x20 ADD PUSH0 KECCAK256 DUP1 SLOAD SWAP1 POP SUB PUSH2 0x1FFC JUMPI PUSH2 0x1FFB CALLER PUSH2 0x2955 JUMP JUMPDEST JUMPDEST PUSH2 0x2004 PUSH2 0x2349 JUMP JUMPDEST JUMP JUMPDEST PUSH2 0x200E PUSH2 0x2117 JUMP JUMPDEST PUSH2 0x2016 PUSH2 0x2158 JUMP JUMPDEST PUSH0 PUSH1 0x3 PUSH0 CALLER PUSH20 0xFFFFFFFFFFFFFFFFFFFFFFFFFFFFFFFFFFFFFFFF AND PUSH20 0xFFFFFFFFFFFFFFFFFFFFFFFFFFFFFFFFFFFFFFFF AND DUP2 MSTORE PUSH1 0x20 ADD SWAP1 DUP2 MSTORE PUSH1 0x20 ADD PUSH0 KECCAK256 PUSH0 PUSH1 0x5 DUP2 LT PUSH2 0x2066 JUMPI PUSH2 0x2065 PUSH2 0x43D3 JUMP JUMPDEST JUMPDEST ADD PUSH0 ADD PUSH1 0x3 SWAP1 SLOAD SWAP1 PUSH2 0x100 EXP SWAP1 DIV PUSH1 0xFF AND PUSH1 0xFF AND SUB PUSH2 0x2089 JUMPI PUSH2 0x2088 CALLER PUSH2 0x2363 JUMP JUMPDEST JUMPDEST PUSH2 0x2091 PUSH2 0x2349 JUMP JUMPDEST JUMP JUMPDEST PUSH2 0x209B PUSH2 0x27AC JUMP JUMPDEST PUSH0 PUSH20 0xFFFFFFFFFFFFFFFFFFFFFFFFFFFFFFFFFFFFFFFF AND DUP2 PUSH20 0xFFFFFFFFFFFFFFFFFFFFFFFFFFFFFFFFFFFFFFFF AND SUB PUSH2 0x210B JUMPI PUSH0 PUSH1 0x40 MLOAD PUSH32 0x1E4FBDF700000000000000000000000000000000000000000000000000000000 DUP2 MSTORE PUSH1 0x4 ADD PUSH2 0x2102 SWAP2 SWAP1 PUSH2 0x3E73 JUMP JUMPDEST PUSH1 0x40 MLOAD DUP1 SWAP2 SUB SWAP1 REVERT JUMPDEST PUSH2 0x2114 DUP2 PUSH2 0x2894 JUMP JUMPDEST POP JUMP JUMPDEST PUSH2 0x211F PUSH2 0xB99 JUMP JUMPDEST ISZERO PUSH2 0x2156 JUMPI PUSH1 0x40 MLOAD PUSH32 0xD93C066500000000000000000000000000000000000000000000000000000000 DUP2 MSTORE PUSH1 0x4 ADD PUSH1 0x40 MLOAD DUP1 SWAP2 SUB SWAP1 REVERT JUMPDEST JUMP JUMPDEST PUSH2 0x2160 PUSH2 0x3667 JUMP JUMPDEST PUSH1 0x2 PUSH2 0x2172 PUSH2 0x216D PUSH2 0x36A8 JUMP JUMPDEST PUSH2 0x36D1 JUMP JUMPDEST PUSH0 ADD DUP2 SWAP1 SSTORE POP JUMP JUMPDEST PUSH0 PUSH0 PUSH1 0x64 DUP5 DUP5 PUSH1 0x40 MLOAD PUSH1 0x20 ADD PUSH2 0x2191 SWAP3 SWAP2 SWAP1 PUSH2 0x4946 JUMP JUMPDEST PUSH1 0x40 MLOAD PUSH1 0x20 DUP2 DUP4 SUB SUB DUP2 MSTORE SWAP1 PUSH1 0x40 MSTORE DUP1 MLOAD SWAP1 PUSH1 0x20 ADD KECCAK256 PUSH0 SHR PUSH2 0x21B3 SWAP2 SWAP1 PUSH2 0x41DE JUMP JUMPDEST SWAP1 POP PUSH1 0x41 DUP2 LT ISZERO PUSH2 0x21C7 JUMPI PUSH0 SWAP2 POP POP PUSH2 0x21E0 JUMP JUMPDEST PUSH1 0x5A DUP2 LT ISZERO PUSH2 0x21DA JUMPI PUSH1 0x1 SWAP2 POP POP PUSH2 0x21E0 JUMP JUMPDEST PUSH1 0x2 SWAP2 POP POP JUMPDEST SWAP3 SWAP2 POP POP JUMP JUMPDEST PUSH0 PUSH1 0x2 PUSH0 DUP4 PUSH20 0xFFFFFFFFFFFFFFFFFFFFFFFFFFFFFFFFFFFFFFFF AND PUSH20 0xFFFFFFFFFFFFFFFFFFFFFFFFFFFFFFFFFFFFFFFF AND DUP2 MSTORE PUSH1 0x20 ADD SWAP1 DUP2 MSTORE PUSH1 0x20 ADD PUSH0 KECCAK256 SWAP1 POP PUSH0 DUP2 PUSH0 ADD PUSH0 SWAP1 SLOAD SWAP1 PUSH2 0x100 EXP SWAP1 DIV PUSH2 0xFFFF AND PUSH2 0xFFFF AND SUB PUSH2 0x2260 JUMPI PUSH1 0x1 DUP2 PUSH0 ADD PUSH0 PUSH2 0x100 EXP DUP2 SLOAD DUP2 PUSH2 0xFFFF MUL NOT AND SWAP1 DUP4 PUSH2 0xFFFF AND MUL OR SWAP1 SSTORE POP JUMPDEST PUSH1 0xA DUP2 PUSH0 ADD PUSH1 0x2 DUP3 DUP3 DUP3 SWAP1 SLOAD SWAP1 PUSH2 0x100 EXP SWAP1 DIV PUSH4 0xFFFFFFFF AND PUSH2 0x2283 SWAP2 SWAP1 PUSH2 0x4971 JUMP JUMPDEST SWAP3 POP PUSH2 0x100 EXP DUP2 SLOAD DUP2 PUSH4 0xFFFFFFFF MUL NOT AND SWAP1 DUP4 PUSH4 0xFFFFFFFF AND MUL OR SWAP1 SSTORE POP PUSH1 0x64 DUP2 PUSH0 ADD PUSH0 SWAP1 SLOAD SWAP1 PUSH2 0x100 EXP SWAP1 DIV PUSH2 0xFFFF AND PUSH2 0xFFFF AND PUSH2 0x22C2 SWAP2 SWAP1 PUSH2 0x49A8 JUMP JUMPDEST PUSH4 0xFFFFFFFF AND DUP2 PUSH0 ADD PUSH1 0x2 SWAP1 SLOAD SWAP1 PUSH2 0x100 EXP SWAP1 DIV PUSH4 0xFFFFFFFF AND PUSH4 0xFFFFFFFF AND LT PUSH2 0x2345 JUMPI DUP1 PUSH0 ADD PUSH0 DUP2 DUP2 SWAP1 SLOAD SWAP1 PUSH2 0x100 EXP SWAP1 DIV PUSH2 0xFFFF AND DUP1 SWAP3 SWAP2 SWAP1 PUSH2 0x2307 SWAP1 PUSH2 0x49E4 JUMP JUMPDEST SWAP2 SWAP1 PUSH2 0x100 EXP DUP2 SLOAD DUP2 PUSH2 0xFFFF MUL NOT AND SWAP1 DUP4 PUSH2 0xFFFF AND MUL OR SWAP1 SSTORE POP POP PUSH0 DUP2 PUSH0 ADD PUSH1 0x2 PUSH2 0x100 EXP DUP2 SLOAD DUP2 PUSH4 0xFFFFFFFF MUL NOT AND SWAP1 DUP4 PUSH4 0xFFFFFFFF AND MUL OR SWAP1 SSTORE POP JUMPDEST POP POP JUMP JUMPDEST PUSH1 0x1 PUSH2 0x235B PUSH2 0x2356 PUSH2 0x36A8 JUMP JUMPDEST PUSH2 0x36D1 JUMP JUMPDEST PUSH0 ADD DUP2 SWAP1 SSTORE POP JUMP JUMPDEST PUSH0 TIMESTAMP DUP3 PUSH1 0x1 PUSH0 SWAP1 SLOAD SWAP1 PUSH2 0x100 EXP SWAP1 DIV PUSH20 0xFFFFFFFFFFFFFFFFFFFFFFFFFFFFFFFFFFFFFFFF AND PUSH20 0xFFFFFFFFFFFFFFFFFFFFFFFFFFFFFFFFFFFFFFFF AND PUSH4 0x18160DDD PUSH1 0x40 MLOAD DUP2 PUSH4 0xFFFFFFFF AND PUSH1 0xE0 SHL DUP2 MSTORE PUSH1 0x4 ADD PUSH1 0x20 PUSH1 0x40 MLOAD DUP1 DUP4 SUB DUP2 DUP7 GAS STATICCALL ISZERO DUP1 ISZERO PUSH2 0x23D0 JUMPI RETURNDATASIZE PUSH0 PUSH0 RETURNDATACOPY RETURNDATASIZE PUSH0 REVERT JUMPDEST POP POP POP POP PUSH1 0x40 MLOAD RETURNDATASIZE PUSH1 0x1F NOT PUSH1 0x1F DUP3 ADD AND DUP3 ADD DUP1 PUSH1 0x40 MSTORE POP DUP2 ADD SWAP1 PUSH2 0x23F4 SWAP2 SWAP1 PUSH2 0x40E5 JUMP JUMPDEST PREVRANDAO PUSH1 0x40 MLOAD PUSH1 0x20 ADD PUSH2 0x2408 SWAP5 SWAP4 SWAP3 SWAP2 SWAP1 PUSH2 0x4A0D JUMP JUMPDEST PUSH1 0x40 MLOAD PUSH1 0x20 DUP2 DUP4 SUB SUB DUP2 MSTORE SWAP1 PUSH1 0x40 MSTORE DUP1 MLOAD SWAP1 PUSH1 0x20 ADD KECCAK256 PUSH0 SHR SWAP1 POP PUSH0 PUSH0 SWAP1 POP JUMPDEST PUSH1 0x5 DUP2 LT ISZERO PUSH2 0x27A7 JUMPI PUSH0 PUSH1 0x3 PUSH1 0x8 DUP4 PUSH2 0x2440 SWAP2 SWAP1 PUSH2 0x44A7 JUMP JUMPDEST DUP5 SWAP1 SHR PUSH2 0x244D SWAP2 SWAP1 PUSH2 0x41DE JUMP JUMPDEST PUSH1 0xFF AND PUSH1 0x2 DUP2 GT ISZERO PUSH2 0x2462 JUMPI PUSH2 0x2461 PUSH2 0x3954 JUMP JUMPDEST JUMPDEST SWAP1 POP PUSH0 PUSH2 0x246F DUP5 DUP5 PUSH2 0x217A JUMP JUMPDEST SWAP1 POP PUSH0 PUSH1 0x4 PUSH1 0x8 PUSH1 0x10 DUP7 PUSH2 0x2483 SWAP2 SWAP1 PUSH2 0x44A7 JUMP JUMPDEST PUSH2 0x248D SWAP2 SWAP1 PUSH2 0x44E8 JUMP JUMPDEST DUP7 SWAP1 SHR PUSH2 0x249A SWAP2 SWAP1 PUSH2 0x41DE JUMP JUMPDEST PUSH1 0xFF AND PUSH1 0x3 DUP2 GT ISZERO PUSH2 0x24AF JUMPI PUSH2 0x24AE PUSH2 0x3954 JUMP JUMPDEST JUMPDEST SWAP1 POP PUSH0 PUSH1 0x5 PUSH1 0x18 DUP7 PUSH2 0x24C1 SWAP2 SWAP1 PUSH2 0x44A7 JUMP JUMPDEST DUP8 SWAP1 SHR PUSH2 0x24CE SWAP2 SWAP1 PUSH2 0x41DE JUMP JUMPDEST PUSH1 0x4 PUSH2 0x24DA SWAP2 SWAP1 PUSH2 0x423B JUMP JUMPDEST SWAP1 POP PUSH0 PUSH1 0x5 PUSH1 0x20 DUP8 PUSH2 0x24EC SWAP2 SWAP1 PUSH2 0x44A7 JUMP JUMPDEST DUP9 SWAP1 SHR PUSH2 0x24F9 SWAP2 SWAP1 PUSH2 0x41DE JUMP JUMPDEST PUSH1 0x4 PUSH2 0x2505 SWAP2 SWAP1 PUSH2 0x423B JUMP JUMPDEST SWAP1 POP PUSH0 PUSH1 0x5 PUSH1 0x28 DUP9 PUSH2 0x2517 SWAP2 SWAP1 PUSH2 0x44A7 JUMP JUMPDEST DUP10 SWAP1 SHR PUSH2 0x2524 SWAP2 SWAP1 PUSH2 0x41DE JUMP JUMPDEST PUSH1 0x4 PUSH2 0x2530 SWAP2 SWAP1 PUSH2 0x423B JUMP JUMPDEST SWAP1 POP PUSH1 0x1 PUSH1 0x2 DUP2 GT ISZERO PUSH2 0x2546 JUMPI PUSH2 0x2545 PUSH2 0x3954 JUMP JUMPDEST JUMPDEST DUP6 PUSH1 0x2 DUP2 GT ISZERO PUSH2 0x2559 JUMPI PUSH2 0x2558 PUSH2 0x3954 JUMP JUMPDEST JUMPDEST SUB PUSH2 0x2590 JUMPI PUSH1 0x2 DUP4 PUSH2 0x256B SWAP2 SWAP1 PUSH2 0x423B JUMP JUMPDEST SWAP3 POP PUSH1 0x1 DUP3 PUSH2 0x257A SWAP2 SWAP1 PUSH2 0x423B JUMP JUMPDEST SWAP2 POP PUSH1 0x1 DUP2 PUSH2 0x2589 SWAP2 SWAP1 PUSH2 0x423B JUMP JUMPDEST SWAP1 POP PUSH2 0x25EA JUMP JUMPDEST PUSH1 0x2 DUP1 DUP2 GT ISZERO PUSH2 0x25A3 JUMPI PUSH2 0x25A2 PUSH2 0x3954 JUMP JUMPDEST JUMPDEST DUP6 PUSH1 0x2 DUP2 GT ISZERO PUSH2 0x25B6 JUMPI PUSH2 0x25B5 PUSH2 0x3954 JUMP JUMPDEST JUMPDEST SUB PUSH2 0x25E9 JUMPI PUSH1 0x3 DUP4 PUSH2 0x25C8 SWAP2 SWAP1 PUSH2 0x423B JUMP JUMPDEST SWAP3 POP PUSH1 0x3 DUP3 PUSH2 0x25D7 SWAP2 SWAP1 PUSH2 0x423B JUMP JUMPDEST SWAP2 POP PUSH1 0x2 DUP2 PUSH2 0x25E6 SWAP2 SWAP1 PUSH2 0x423B JUMP JUMPDEST SWAP1 POP JUMPDEST JUMPDEST PUSH1 0x40 MLOAD DUP1 PUSH1 0xC0 ADD PUSH1 0x40 MSTORE DUP1 DUP8 PUSH1 0x2 DUP2 GT ISZERO PUSH2 0x2608 JUMPI PUSH2 0x2607 PUSH2 0x3954 JUMP JUMPDEST JUMPDEST DUP2 MSTORE PUSH1 0x20 ADD DUP7 PUSH1 0x2 DUP2 GT ISZERO PUSH2 0x2620 JUMPI PUSH2 0x261F PUSH2 0x3954 JUMP JUMPDEST JUMPDEST DUP2 MSTORE PUSH1 0x20 ADD DUP6 PUSH1 0x3 DUP2 GT ISZERO PUSH2 0x2638 JUMPI PUSH2 0x2637 PUSH2 0x3954 JUMP JUMPDEST JUMPDEST DUP2 MSTORE PUSH1 0x20 ADD DUP5 PUSH1 0xFF AND DUP2 MSTORE PUSH1 0x20 ADD DUP4 PUSH1 0xFF AND DUP2 MSTORE PUSH1 0x20 ADD DUP3 PUSH1 0xFF AND DUP2 MSTORE POP PUSH1 0x3 PUSH0 DUP12 PUSH20 0xFFFFFFFFFFFFFFFFFFFFFFFFFFFFFFFFFFFFFFFF AND PUSH20 0xFFFFFFFFFFFFFFFFFFFFFFFFFFFFFFFFFFFFFFFF AND DUP2 MSTORE PUSH1 0x20 ADD SWAP1 DUP2 MSTORE PUSH1 0x20 ADD PUSH0 KECCAK256 DUP9 PUSH1 0x5 DUP2 LT PUSH2 0x26A5 JUMPI PUSH2 0x26A4 PUSH2 0x43D3 JUMP JUMPDEST JUMPDEST ADD PUSH0 DUP3 ADD MLOAD DUP2 PUSH0 ADD PUSH0 PUSH2 0x100 EXP DUP2 SLOAD DUP2 PUSH1 0xFF MUL NOT AND SWAP1 DUP4 PUSH1 0x2 DUP2 GT ISZERO PUSH2 0x26CE JUMPI PUSH2 0x26CD PUSH2 0x3954 JUMP JUMPDEST JUMPDEST MUL OR SWAP1 SSTORE POP PUSH1 0x20 DUP3 ADD MLOAD DUP2 PUSH0 ADD PUSH1 0x1 PUSH2 0x100 EXP DUP2 SLOAD DUP2 PUSH1 0xFF MUL NOT AND SWAP1 DUP4 PUSH1 0x2 DUP2 GT ISZERO PUSH2 0x26FD JUMPI PUSH2 0x26FC PUSH2 0x3954 JUMP JUMPDEST JUMPDEST MUL OR SWAP1 SSTORE POP PUSH1 0x40 DUP3 ADD MLOAD DUP2 PUSH0 ADD PUSH1 0x2 PUSH2 0x100 EXP DUP2 SLOAD DUP2 PUSH1 0xFF MUL NOT AND SWAP1 DUP4 PUSH1 0x3 DUP2 GT ISZERO PUSH2 0x272C JUMPI PUSH2 0x272B PUSH2 0x3954 JUMP JUMPDEST JUMPDEST MUL OR SWAP1 SSTORE POP PUSH1 0x60 DUP3 ADD MLOAD DUP2 PUSH0 ADD PUSH1 0x3 PUSH2 0x100 EXP DUP2 SLOAD DUP2 PUSH1 0xFF MUL NOT AND SWAP1 DUP4 PUSH1 0xFF AND MUL OR SWAP1 SSTORE POP PUSH1 0x80 DUP3 ADD MLOAD DUP2 PUSH0 ADD PUSH1 0x4 PUSH2 0x100 EXP DUP2 SLOAD DUP2 PUSH1 0xFF MUL NOT AND SWAP1 DUP4 PUSH1 0xFF AND MUL OR SWAP1 SSTORE POP PUSH1 0xA0 DUP3 ADD MLOAD DUP2 PUSH0 ADD PUSH1 0x5 PUSH2 0x100 EXP DUP2 SLOAD DUP2 PUSH1 0xFF MUL NOT AND SWAP1 DUP4 PUSH1 0xFF AND MUL OR SWAP1 SSTORE POP SWAP1 POP POP POP POP POP POP POP POP DUP1 DUP1 PUSH1 0x1 ADD SWAP2 POP POP PUSH2 0x2427 JUMP JUMPDEST POP POP POP JUMP JUMPDEST PUSH2 0x27B4 PUSH2 0x36DA JUMP JUMPDEST PUSH20 0xFFFFFFFFFFFFFFFFFFFFFFFFFFFFFFFFFFFFFFFF AND PUSH2 0x27D2 PUSH2 0x1866 JUMP JUMPDEST PUSH20 0xFFFFFFFFFFFFFFFFFFFFFFFFFFFFFFFFFFFFFFFF AND EQ PUSH2 0x2831 JUMPI PUSH2 0x27F5 PUSH2 0x36DA JUMP JUMPDEST PUSH1 0x40 MLOAD PUSH32 0x118CDAA700000000000000000000000000000000000000000000000000000000 DUP2 MSTORE PUSH1 0x4 ADD PUSH2 0x2828 SWAP2 SWAP1 PUSH2 0x3E73 JUMP JUMPDEST PUSH1 0x40 MLOAD DUP1 SWAP2 SUB SWAP1 REVERT JUMPDEST JUMP JUMPDEST PUSH2 0x283B PUSH2 0x36E1 JUMP JUMPDEST PUSH0 PUSH0 PUSH1 0x14 PUSH2 0x100 EXP DUP2 SLOAD DUP2 PUSH1 0xFF MUL NOT AND SWAP1 DUP4 ISZERO ISZERO MUL OR SWAP1 SSTORE POP PUSH32 0x5DB9EE0A495BF2E6FF9C91A7834C1BA4FDD244A5E8AA4E537BD38AEAE4B073AA PUSH2 0x287D PUSH2 0x36DA JUMP JUMPDEST PUSH1 0x40 MLOAD PUSH2 0x288A SWAP2 SWAP1 PUSH2 0x3E73 JUMP JUMPDEST PUSH1 0x40 MLOAD DUP1 SWAP2 SUB SWAP1 LOG1 JUMP JUMPDEST PUSH0 PUSH0 PUSH0 SWAP1 SLOAD SWAP1 PUSH2 0x100 EXP SWAP1 DIV PUSH20 0xFFFFFFFFFFFFFFFFFFFFFFFFFFFFFFFFFFFFFFFF AND SWAP1 POP DUP2 PUSH0 PUSH0 PUSH2 0x100 EXP DUP2 SLOAD DUP2 PUSH20 0xFFFFFFFFFFFFFFFFFFFFFFFFFFFFFFFFFFFFFFFF MUL NOT AND SWAP1 DUP4 PUSH20 0xFFFFFFFFFFFFFFFFFFFFFFFFFFFFFFFFFFFFFFFF AND MUL OR SWAP1 SSTORE POP DUP2 PUSH20 0xFFFFFFFFFFFFFFFFFFFFFFFFFFFFFFFFFFFFFFFF AND DUP2 PUSH20 0xFFFFFFFFFFFFFFFFFFFFFFFFFFFFFFFFFFFFFFFF AND PUSH32 0x8BE0079C531659141344CD1FD0A4F28419497F9722A3DAAFE3B4186F6B6457E0 PUSH1 0x40 MLOAD PUSH1 0x40 MLOAD DUP1 SWAP2 SUB SWAP1 LOG3 POP POP JUMP JUMPDEST PUSH0 PUSH1 0x2 PUSH0 DUP4 PUSH20 0xFFFFFFFFFFFFFFFFFFFFFFFFFFFFFFFFFFFFFFFF AND PUSH20 0xFFFFFFFFFFFFFFFFFFFFFFFFFFFFFFFFFFFFFFFF AND DUP2 MSTORE PUSH1 0x20 ADD SWAP1 DUP2 MSTORE PUSH1 0x20 ADD PUSH0 KECCAK256 PUSH1 0x40 MLOAD DUP1 PUSH1 0x80 ADD PUSH1 0x40 MSTORE SWAP1 DUP2 PUSH0 DUP3 ADD PUSH0 SWAP1 SLOAD SWAP1 PUSH2 0x100 EXP SWAP1 DIV PUSH2 0xFFFF AND PUSH2 0xFFFF AND PUSH2 0xFFFF AND DUP2 MSTORE PUSH1 0x20 ADD PUSH0 DUP3 ADD PUSH1 0x2 SWAP1 SLOAD SWAP1 PUSH2 0x100 EXP SWAP1 DIV PUSH4 0xFFFFFFFF AND PUSH4 0xFFFFFFFF AND PUSH4 0xFFFFFFFF AND DUP2 MSTORE PUSH1 0x20 ADD PUSH1 0x1 DUP3 ADD SLOAD DUP2 MSTORE PUSH1 0x20 ADD PUSH1 0x2 DUP3 ADD SLOAD DUP2 MSTORE POP POP SWAP1 POP PUSH0 PUSH0 DUP3 PUSH0 ADD MLOAD PUSH2 0xFFFF AND GT PUSH2 0x2A0D JUMPI PUSH1 0x1 PUSH2 0x2A12 JUMP JUMPDEST DUP2 PUSH0 ADD MLOAD JUMPDEST SWAP1 POP PUSH0 TIMESTAMP DUP5 DUP4 PUSH1 0x1 PUSH0 SWAP1 SLOAD SWAP1 PUSH2 0x100 EXP SWAP1 DIV PUSH20 0xFFFFFFFFFFFFFFFFFFFFFFFFFFFFFFFFFFFFFFFF AND PUSH20 0xFFFFFFFFFFFFFFFFFFFFFFFFFFFFFFFFFFFFFFFF AND PUSH4 0x18160DDD PUSH1 0x40 MLOAD DUP2 PUSH4 0xFFFFFFFF AND PUSH1 0xE0 SHL DUP2 MSTORE PUSH1 0x4 ADD PUSH1 0x20 PUSH1 0x40 MLOAD DUP1 DUP4 SUB DUP2 DUP7 GAS STATICCALL ISZERO DUP1 ISZERO PUSH2 0x2A82 JUMPI RETURNDATASIZE PUSH0 PUSH0 RETURNDATACOPY RETURNDATASIZE PUSH0 REVERT JUMPDEST POP POP POP POP PUSH1 0x40 MLOAD RETURNDATASIZE PUSH1 0x1F NOT PUSH1 0x1F DUP3 ADD AND DUP3 ADD DUP1 PUSH1 0x40 MSTORE POP DUP2 ADD SWAP1 PUSH2 0x2AA6 SWAP2 SWAP1 PUSH2 0x40E5 JUMP JUMPDEST PREVRANDAO PUSH1 0x40 MLOAD PUSH1 0x20 ADD PUSH2 0x2ABB SWAP6 SWAP5 SWAP4 SWAP3 SWAP2 SWAP1 PUSH2 0x4A8E JUMP JUMPDEST PUSH1 0x40 MLOAD PUSH1 0x20 DUP2 DUP4 SUB SUB DUP2 MSTORE SWAP1 PUSH1 0x40 MSTORE DUP1 MLOAD SWAP1 PUSH1 0x20 ADD KECCAK256 PUSH0 SHR SWAP1 POP PUSH0 PUSH1 0x4 SWAP1 POP PUSH1 0x4 PUSH0 DUP7 PUSH20 0xFFFFFFFFFFFFFFFFFFFFFFFFFFFFFFFFFFFFFFFF AND PUSH20 0xFFFFFFFFFFFFFFFFFFFFFFFFFFFFFFFFFFFFFFFF AND DUP2 MSTORE PUSH1 0x20 ADD SWAP1 DUP2 MSTORE PUSH1 0x20 ADD PUSH0 KECCAK256 PUSH0 PUSH2 0x2B22 SWAP2 SWAP1 PUSH2 0x376A JUMP JUMPDEST PUSH0 PUSH0 SWAP1 POP JUMPDEST DUP2 PUSH1 0xFF AND DUP2 LT ISZERO PUSH2 0x2EF2 JUMPI PUSH2 0x2B3A PUSH2 0x3788 JUMP JUMPDEST PUSH1 0x3 PUSH1 0x8 DUP4 PUSH2 0x2B49 SWAP2 SWAP1 PUSH2 0x44A7 JUMP JUMPDEST DUP6 SWAP1 SHR PUSH2 0x2B56 SWAP2 SWAP1 PUSH2 0x41DE JUMP JUMPDEST PUSH1 0xFF AND PUSH1 0x2 DUP2 GT ISZERO PUSH2 0x2B6B JUMPI PUSH2 0x2B6A PUSH2 0x3954 JUMP JUMPDEST JUMPDEST DUP2 PUSH0 ADD SWAP1 PUSH1 0x2 DUP2 GT ISZERO PUSH2 0x2B81 JUMPI PUSH2 0x2B80 PUSH2 0x3954 JUMP JUMPDEST JUMPDEST SWAP1 DUP2 PUSH1 0x2 DUP2 GT ISZERO PUSH2 0x2B95 JUMPI PUSH2 0x2B94 PUSH2 0x3954 JUMP JUMPDEST JUMPDEST DUP2 MSTORE POP POP PUSH0 DUP2 PUSH1 0x20 ADD SWAP1 PUSH1 0x2 DUP2 GT ISZERO PUSH2 0x2BB1 JUMPI PUSH2 0x2BB0 PUSH2 0x3954 JUMP JUMPDEST JUMPDEST SWAP1 DUP2 PUSH1 0x2 DUP2 GT ISZERO PUSH2 0x2BC5 JUMPI PUSH2 0x2BC4 PUSH2 0x3954 JUMP JUMPDEST JUMPDEST DUP2 MSTORE POP POP PUSH1 0x4 PUSH1 0x10 DUP4 PUSH2 0x2BD8 SWAP2 SWAP1 PUSH2 0x44A7 JUMP JUMPDEST DUP6 SWAP1 SHR PUSH2 0x2BE5 SWAP2 SWAP1 PUSH2 0x41DE JUMP JUMPDEST PUSH1 0xFF AND PUSH1 0x3 DUP2 GT ISZERO PUSH2 0x2BFA JUMPI PUSH2 0x2BF9 PUSH2 0x3954 JUMP JUMPDEST JUMPDEST DUP2 PUSH1 0x40 ADD SWAP1 PUSH1 0x3 DUP2 GT ISZERO PUSH2 0x2C11 JUMPI PUSH2 0x2C10 PUSH2 0x3954 JUMP JUMPDEST JUMPDEST SWAP1 DUP2 PUSH1 0x3 DUP2 GT ISZERO PUSH2 0x2C25 JUMPI PUSH2 0x2C24 PUSH2 0x3954 JUMP JUMPDEST JUMPDEST DUP2 MSTORE POP POP PUSH0 PUSH1 0x4 DUP7 PUSH2 0x2C37 SWAP2 SWAP1 PUSH2 0x4AEC JUMP JUMPDEST PUSH1 0x3 PUSH2 0x2C43 SWAP2 SWAP1 PUSH2 0x423B JUMP JUMPDEST SWAP1 POP PUSH1 0x6 PUSH1 0x8 PUSH1 0x20 DUP6 PUSH2 0x2C56 SWAP2 SWAP1 PUSH2 0x44A7 JUMP JUMPDEST PUSH2 0x2C60 SWAP2 SWAP1 PUSH2 0x44E8 JUMP JUMPDEST DUP7 SWAP1 SHR PUSH2 0x2C6D SWAP2 SWAP1 PUSH2 0x41DE JUMP JUMPDEST DUP2 PUSH2 0x2C78 SWAP2 SWAP1 PUSH2 0x423B JUMP JUMPDEST DUP3 PUSH1 0x60 ADD SWAP1 PUSH1 0xFF AND SWAP1 DUP2 PUSH1 0xFF AND DUP2 MSTORE POP POP PUSH1 0x6 PUSH1 0x28 DUP5 PUSH2 0x2C98 SWAP2 SWAP1 PUSH2 0x44A7 JUMP JUMPDEST DUP7 SWAP1 SHR PUSH2 0x2CA5 SWAP2 SWAP1 PUSH2 0x41DE JUMP JUMPDEST DUP2 PUSH2 0x2CB0 SWAP2 SWAP1 PUSH2 0x423B JUMP JUMPDEST DUP3 PUSH1 0x80 ADD SWAP1 PUSH1 0xFF AND SWAP1 DUP2 PUSH1 0xFF AND DUP2 MSTORE POP POP PUSH1 0x6 PUSH1 0x30 DUP5 PUSH2 0x2CD0 SWAP2 SWAP1 PUSH2 0x44A7 JUMP JUMPDEST DUP7 SWAP1 SHR PUSH2 0x2CDD SWAP2 SWAP1 PUSH2 0x41DE JUMP JUMPDEST DUP2 PUSH2 0x2CE8 SWAP2 SWAP1 PUSH2 0x423B JUMP JUMPDEST DUP3 PUSH1 0xA0 ADD SWAP1 PUSH1 0xFF AND SWAP1 DUP2 PUSH1 0xFF AND DUP2 MSTORE POP POP PUSH1 0xF PUSH1 0x64 PUSH1 0x38 DUP6 PUSH2 0x2D0A SWAP2 SWAP1 PUSH2 0x44A7 JUMP JUMPDEST DUP8 SWAP1 SHR PUSH2 0x2D17 SWAP2 SWAP1 PUSH2 0x41DE JUMP JUMPDEST PUSH1 0xFF AND LT ISZERO PUSH2 0x2D96 JUMPI PUSH1 0x1 DUP3 PUSH1 0x20 ADD SWAP1 PUSH1 0x2 DUP2 GT ISZERO PUSH2 0x2D39 JUMPI PUSH2 0x2D38 PUSH2 0x3954 JUMP JUMPDEST JUMPDEST SWAP1 DUP2 PUSH1 0x2 DUP2 GT ISZERO PUSH2 0x2D4D JUMPI PUSH2 0x2D4C PUSH2 0x3954 JUMP JUMPDEST JUMPDEST DUP2 MSTORE POP POP PUSH1 0x2 DUP3 PUSH1 0x60 ADD DUP2 DUP2 MLOAD PUSH2 0x2D64 SWAP2 SWAP1 PUSH2 0x423B JUMP JUMPDEST SWAP2 POP SWAP1 PUSH1 0xFF AND SWAP1 DUP2 PUSH1 0xFF AND DUP2 MSTORE POP POP PUSH1 0x1 DUP3 PUSH1 0x80 ADD DUP2 DUP2 MLOAD PUSH2 0x2D86 SWAP2 SWAP1 PUSH2 0x423B JUMP JUMPDEST SWAP2 POP SWAP1 PUSH1 0xFF AND SWAP1 DUP2 PUSH1 0xFF AND DUP2 MSTORE POP POP JUMPDEST PUSH1 0x4 PUSH0 DUP10 PUSH20 0xFFFFFFFFFFFFFFFFFFFFFFFFFFFFFFFFFFFFFFFF AND PUSH20 0xFFFFFFFFFFFFFFFFFFFFFFFFFFFFFFFFFFFFFFFF AND DUP2 MSTORE PUSH1 0x20 ADD SWAP1 DUP2 MSTORE PUSH1 0x20 ADD PUSH0 KECCAK256 DUP3 SWAP1 DUP1 PUSH1 0x1 DUP2 SLOAD ADD DUP1 DUP3 SSTORE DUP1 SWAP2 POP POP PUSH1 0x1 SWAP1 SUB SWAP1 PUSH0 MSTORE PUSH1 0x20 PUSH0 KECCAK256 ADD PUSH0 SWAP1 SWAP2 SWAP1 SWAP2 SWAP1 SWAP2 POP PUSH0 DUP3 ADD MLOAD DUP2 PUSH0 ADD PUSH0 PUSH2 0x100 EXP DUP2 SLOAD DUP2 PUSH1 0xFF MUL NOT AND SWAP1 DUP4 PUSH1 0x2 DUP2 GT ISZERO PUSH2 0x2E1E JUMPI PUSH2 0x2E1D PUSH2 0x3954 JUMP JUMPDEST JUMPDEST MUL OR SWAP1 SSTORE POP PUSH1 0x20 DUP3 ADD MLOAD DUP2 PUSH0 ADD PUSH1 0x1 PUSH2 0x100 EXP DUP2 SLOAD DUP2 PUSH1 0xFF MUL NOT AND SWAP1 DUP4 PUSH1 0x2 DUP2 GT ISZERO PUSH2 0x2E4D JUMPI PUSH2 0x2E4C PUSH2 0x3954 JUMP JUMPDEST JUMPDEST MUL OR SWAP1 SSTORE POP PUSH1 0x40 DUP3 ADD MLOAD DUP2 PUSH0 ADD PUSH1 0x2 PUSH2 0x100 EXP DUP2 SLOAD DUP2 PUSH1 0xFF MUL NOT AND SWAP1 DUP4 PUSH1 0x3 DUP2 GT ISZERO PUSH2 0x2E7C JUMPI PUSH2 0x2E7B PUSH2 0x3954 JUMP JUMPDEST JUMPDEST MUL OR SWAP1 SSTORE POP PUSH1 0x60 DUP3 ADD MLOAD DUP2 PUSH0 ADD PUSH1 0x3 PUSH2 0x100 EXP DUP2 SLOAD DUP2 PUSH1 0xFF MUL NOT AND SWAP1 DUP4 PUSH1 0xFF AND MUL OR SWAP1 SSTORE POP PUSH1 0x80 DUP3 ADD MLOAD DUP2 PUSH0 ADD PUSH1 0x4 PUSH2 0x100 EXP DUP2 SLOAD DUP2 PUSH1 0xFF MUL NOT AND SWAP1 DUP4 PUSH1 0xFF AND MUL OR SWAP1 SSTORE POP PUSH1 0xA0 DUP3 ADD MLOAD DUP2 PUSH0 ADD PUSH1 0x5 PUSH2 0x100 EXP DUP2 SLOAD DUP2 PUSH1 0xFF MUL NOT AND SWAP1 DUP4 PUSH1 0xFF AND MUL OR SWAP1 SSTORE POP POP POP POP POP DUP1 DUP1 PUSH1 0x1 ADD SWAP2 POP POP PUSH2 0x2B27 JUMP JUMPDEST POP PUSH32 0xE21EBBECD481BD92987E725A0057707F7154C465084EBCC68CD42FF028DA5E6B DUP6 DUP5 PUSH1 0x40 MLOAD PUSH2 0x2F24 SWAP3 SWAP2 SWAP1 PUSH2 0x4B1C JUMP JUMPDEST PUSH1 0x40 MLOAD DUP1 SWAP2 SUB SWAP1 LOG1 POP POP POP POP POP JUMP JUMPDEST PUSH0 PUSH0 PUSH0 PUSH0 SWAP1 POP PUSH0 PUSH0 SWAP1 POP PUSH0 PUSH0 SWAP1 POP PUSH2 0x2F49 PUSH2 0x37F7 JUMP JUMPDEST PUSH0 PUSH0 SWAP1 POP JUMPDEST DUP9 DUP9 SWAP1 POP DUP2 LT ISZERO PUSH2 0x30A2 JUMPI PUSH0 PUSH1 0x1 PUSH0 SWAP1 SLOAD SWAP1 PUSH2 0x100 EXP SWAP1 DIV PUSH20 0xFFFFFFFFFFFFFFFFFFFFFFFFFFFFFFFFFFFFFFFF AND PUSH20 0xFFFFFFFFFFFFFFFFFFFFFFFFFFFFFFFFFFFFFFFF AND PUSH4 0x1655BFBE DUP12 DUP12 DUP6 DUP2 DUP2 LT PUSH2 0x2FAA JUMPI PUSH2 0x2FA9 PUSH2 0x43D3 JUMP JUMPDEST JUMPDEST SWAP1 POP PUSH1 0x20 MUL ADD CALLDATALOAD PUSH1 0x40 MLOAD DUP3 PUSH4 0xFFFFFFFF AND PUSH1 0xE0 SHL DUP2 MSTORE PUSH1 0x4 ADD PUSH2 0x2FCD SWAP2 SWAP1 PUSH2 0x3BFA JUMP JUMPDEST PUSH1 0xC0 PUSH1 0x40 MLOAD DUP1 DUP4 SUB DUP2 DUP7 GAS STATICCALL ISZERO DUP1 ISZERO PUSH2 0x2FE8 JUMPI RETURNDATASIZE PUSH0 PUSH0 RETURNDATACOPY RETURNDATASIZE PUSH0 REVERT JUMPDEST POP POP POP POP PUSH1 0x40 MLOAD RETURNDATASIZE PUSH1 0x1F NOT PUSH1 0x1F DUP3 ADD AND DUP3 ADD DUP1 PUSH1 0x40 MSTORE POP DUP2 ADD SWAP1 PUSH2 0x300C SWAP2 SWAP1 PUSH2 0x4CD2 JUMP JUMPDEST SWAP1 POP DUP1 PUSH1 0x60 ADD MLOAD PUSH1 0xFF AND DUP7 PUSH2 0x3021 SWAP2 SWAP1 PUSH2 0x44E8 JUMP JUMPDEST SWAP6 POP DUP1 PUSH1 0x80 ADD MLOAD PUSH1 0xFF AND DUP6 PUSH2 0x3036 SWAP2 SWAP1 PUSH2 0x44E8 JUMP JUMPDEST SWAP5 POP DUP1 PUSH1 0xA0 ADD MLOAD PUSH1 0xFF AND DUP5 PUSH2 0x304B SWAP2 SWAP1 PUSH2 0x44E8 JUMP JUMPDEST SWAP4 POP DUP3 DUP2 PUSH0 ADD MLOAD PUSH1 0x2 DUP2 GT ISZERO PUSH2 0x3064 JUMPI PUSH2 0x3063 PUSH2 0x3954 JUMP JUMPDEST JUMPDEST PUSH1 0xFF AND PUSH1 0x3 DUP2 LT PUSH2 0x3078 JUMPI PUSH2 0x3077 PUSH2 0x43D3 JUMP JUMPDEST JUMPDEST PUSH1 0x20 MUL ADD DUP1 MLOAD DUP1 SWAP2 SWAP1 PUSH2 0x308A SWAP1 PUSH2 0x4CFD JUMP JUMPDEST PUSH1 0xFF AND PUSH1 0xFF AND DUP2 MSTORE POP POP POP DUP1 DUP1 PUSH1 0x1 ADD SWAP2 POP POP PUSH2 0x2F4E JUMP JUMPDEST POP PUSH0 SWAP5 POP PUSH1 0x3 DUP2 PUSH0 PUSH1 0x2 DUP2 GT ISZERO PUSH2 0x30BC JUMPI PUSH2 0x30BB PUSH2 0x3954 JUMP JUMPDEST JUMPDEST PUSH1 0xFF AND PUSH1 0x3 DUP2 LT PUSH2 0x30D0 JUMPI PUSH2 0x30CF PUSH2 0x43D3 JUMP JUMPDEST JUMPDEST PUSH1 0x20 MUL ADD MLOAD PUSH1 0xFF AND LT PUSH2 0x3107 JUMPI PUSH1 0x64 PUSH1 0x82 DUP5 PUSH2 0x30EC SWAP2 SWAP1 PUSH2 0x44A7 JUMP JUMPDEST PUSH2 0x30F6 SWAP2 SWAP1 PUSH2 0x4D25 JUMP JUMPDEST SWAP3 POP DUP5 DUP1 PUSH2 0x3103 SWAP1 PUSH2 0x4CFD JUMP JUMPDEST SWAP6 POP POP JUMPDEST PUSH1 0x3 DUP2 PUSH1 0x1 PUSH1 0x2 DUP2 GT ISZERO PUSH2 0x311E JUMPI PUSH2 0x311D PUSH2 0x3954 JUMP JUMPDEST JUMPDEST PUSH1 0xFF AND PUSH1 0x3 DUP2 LT PUSH2 0x3132 JUMPI PUSH2 0x3131 PUSH2 0x43D3 JUMP JUMPDEST JUMPDEST PUSH1 0x20 MUL ADD MLOAD PUSH1 0xFF AND LT PUSH2 0x3169 JUMPI PUSH1 0x64 PUSH1 0x91 DUP6 PUSH2 0x314E SWAP2 SWAP1 PUSH2 0x44A7 JUMP JUMPDEST PUSH2 0x3158 SWAP2 SWAP1 PUSH2 0x4D25 JUMP JUMPDEST SWAP4 POP DUP5 DUP1 PUSH2 0x3165 SWAP1 PUSH2 0x4CFD JUMP JUMPDEST SWAP6 POP POP JUMPDEST PUSH1 0x3 DUP2 PUSH1 0x2 DUP1 DUP2 GT ISZERO PUSH2 0x317F JUMPI PUSH2 0x317E PUSH2 0x3954 JUMP JUMPDEST JUMPDEST PUSH1 0xFF AND PUSH1 0x3 DUP2 LT PUSH2 0x3193 JUMPI PUSH2 0x3192 PUSH2 0x43D3 JUMP JUMPDEST JUMPDEST PUSH1 0x20 MUL ADD MLOAD PUSH1 0xFF AND LT PUSH2 0x31E5 JUMPI PUSH1 0x64 PUSH1 0x7D DUP6 PUSH2 0x31AF SWAP2 SWAP1 PUSH2 0x44A7 JUMP JUMPDEST PUSH2 0x31B9 SWAP2 SWAP1 PUSH2 0x4D25 JUMP JUMPDEST SWAP4 POP PUSH1 0x64 PUSH1 0x7D DUP5 PUSH2 0x31CA SWAP2 SWAP1 PUSH2 0x44A7 JUMP JUMPDEST PUSH2 0x31D4 SWAP2 SWAP1 PUSH2 0x4D25 JUMP JUMPDEST SWAP3 POP DUP5 DUP1 PUSH2 0x31E1 SWAP1 PUSH2 0x4CFD JUMP JUMPDEST SWAP6 POP POP JUMPDEST PUSH1 0x2 DUP3 PUSH2 0x31F2 SWAP2 SWAP1 PUSH2 0x44A7 JUMP JUMPDEST DUP4 DUP6 PUSH2 0x31FE SWAP2 SWAP1 PUSH2 0x44E8 JUMP JUMPDEST PUSH2 0x3208 SWAP2 SWAP1 PUSH2 0x44E8 JUMP JUMPDEST SWAP6 POP POP POP POP POP SWAP3 POP SWAP3 SWAP1 POP JUMP JUMPDEST PUSH0 PUSH0 PUSH0 PUSH0 SWAP1 POP PUSH0 PUSH0 SWAP1 POP PUSH0 PUSH0 SWAP1 POP PUSH2 0x322B PUSH2 0x37F7 JUMP JUMPDEST PUSH0 PUSH0 SWAP1 POP JUMPDEST DUP8 MLOAD DUP2 LT ISZERO PUSH2 0x32EB JUMPI PUSH0 DUP9 DUP3 DUP2 MLOAD DUP2 LT PUSH2 0x324D JUMPI PUSH2 0x324C PUSH2 0x43D3 JUMP JUMPDEST JUMPDEST PUSH1 0x20 MUL PUSH1 0x20 ADD ADD MLOAD SWAP1 POP DUP1 PUSH1 0x60 ADD MLOAD PUSH1 0xFF AND DUP7 PUSH2 0x326A SWAP2 SWAP1 PUSH2 0x44E8 JUMP JUMPDEST SWAP6 POP DUP1 PUSH1 0x80 ADD MLOAD PUSH1 0xFF AND DUP6 PUSH2 0x327F SWAP2 SWAP1 PUSH2 0x44E8 JUMP JUMPDEST SWAP5 POP DUP1 PUSH1 0xA0 ADD MLOAD PUSH1 0xFF AND DUP5 PUSH2 0x3294 SWAP2 SWAP1 PUSH2 0x44E8 JUMP JUMPDEST SWAP4 POP DUP3 DUP2 PUSH0 ADD MLOAD PUSH1 0x2 DUP2 GT ISZERO PUSH2 0x32AD JUMPI PUSH2 0x32AC PUSH2 0x3954 JUMP JUMPDEST JUMPDEST PUSH1 0xFF AND PUSH1 0x3 DUP2 LT PUSH2 0x32C1 JUMPI PUSH2 0x32C0 PUSH2 0x43D3 JUMP JUMPDEST JUMPDEST PUSH1 0x20 MUL ADD DUP1 MLOAD DUP1 SWAP2 SWAP1 PUSH2 0x32D3 SWAP1 PUSH2 0x4CFD JUMP JUMPDEST PUSH1 0xFF AND PUSH1 0xFF AND DUP2 MSTORE POP POP POP DUP1 DUP1 PUSH1 0x1 ADD SWAP2 POP POP PUSH2 0x3230 JUMP JUMPDEST POP PUSH0 SWAP5 POP PUSH1 0x3 DUP2 PUSH0 PUSH1 0x2 DUP2 GT ISZERO PUSH2 0x3305 JUMPI PUSH2 0x3304 PUSH2 0x3954 JUMP JUMPDEST JUMPDEST PUSH1 0xFF AND PUSH1 0x3 DUP2 LT PUSH2 0x3319 JUMPI PUSH2 0x3318 PUSH2 0x43D3 JUMP JUMPDEST JUMPDEST PUSH1 0x20 MUL ADD MLOAD PUSH1 0xFF AND LT PUSH2 0x3350 JUMPI PUSH1 0x64 PUSH1 0x82 DUP5 PUSH2 0x3335 SWAP2 SWAP1 PUSH2 0x44A7 JUMP JUMPDEST PUSH2 0x333F SWAP2 SWAP1 PUSH2 0x4D25 JUMP JUMPDEST SWAP3 POP DUP5 DUP1 PUSH2 0x334C SWAP1 PUSH2 0x4CFD JUMP JUMPDEST SWAP6 POP POP JUMPDEST PUSH1 0x3 DUP2 PUSH1 0x1 PUSH1 0x2 DUP2 GT ISZERO PUSH2 0x3367 JUMPI PUSH2 0x3366 PUSH2 0x3954 JUMP JUMPDEST JUMPDEST PUSH1 0xFF AND PUSH1 0x3 DUP2 LT PUSH2 0x337B JUMPI PUSH2 0x337A PUSH2 0x43D3 JUMP JUMPDEST JUMPDEST PUSH1 0x20 MUL ADD MLOAD PUSH1 0xFF AND LT PUSH2 0x33B2 JUMPI PUSH1 0x64 PUSH1 0x91 DUP6 PUSH2 0x3397 SWAP2 SWAP1 PUSH2 0x44A7 JUMP JUMPDEST PUSH2 0x33A1 SWAP2 SWAP1 PUSH2 0x4D25 JUMP JUMPDEST SWAP4 POP DUP5 DUP1 PUSH2 0x33AE SWAP1 PUSH2 0x4CFD JUMP JUMPDEST SWAP6 POP POP JUMPDEST PUSH1 0x3 DUP2 PUSH1 0x2 DUP1 DUP2 GT ISZERO PUSH2 0x33C8 JUMPI PUSH2 0x33C7 PUSH2 0x3954 JUMP JUMPDEST JUMPDEST PUSH1 0xFF AND PUSH1 0x3 DUP2 LT PUSH2 0x33DC JUMPI PUSH2 0x33DB PUSH2 0x43D3 JUMP JUMPDEST JUMPDEST PUSH1 0x20 MUL ADD MLOAD PUSH1 0xFF AND LT PUSH2 0x342E JUMPI PUSH1 0x64 PUSH1 0x7D DUP6 PUSH2 0x33F8 SWAP2 SWAP1 PUSH2 0x44A7 JUMP JUMPDEST PUSH2 0x3402 SWAP2 SWAP1 PUSH2 0x4D25 JUMP JUMPDEST SWAP4 POP PUSH1 0x64 PUSH1 0x7D DUP5 PUSH2 0x3413 SWAP2 SWAP1 PUSH2 0x44A7 JUMP JUMPDEST PUSH2 0x341D SWAP2 SWAP1 PUSH2 0x4D25 JUMP JUMPDEST SWAP3 POP DUP5 DUP1 PUSH2 0x342A SWAP1 PUSH2 0x4CFD JUMP JUMPDEST SWAP6 POP POP JUMPDEST PUSH1 0x2 DUP3 PUSH2 0x343B SWAP2 SWAP1 PUSH2 0x44A7 JUMP JUMPDEST DUP4 DUP6 PUSH2 0x3447 SWAP2 SWAP1 PUSH2 0x44E8 JUMP JUMPDEST PUSH2 0x3451 SWAP2 SWAP1 PUSH2 0x44E8 JUMP JUMPDEST SWAP6 POP POP POP POP POP SWAP2 POP SWAP2 JUMP JUMPDEST PUSH0 PUSH1 0x2 PUSH0 DUP5 PUSH20 0xFFFFFFFFFFFFFFFFFFFFFFFFFFFFFFFFFFFFFFFF AND PUSH20 0xFFFFFFFFFFFFFFFFFFFFFFFFFFFFFFFFFFFFFFFF AND DUP2 MSTORE PUSH1 0x20 ADD SWAP1 DUP2 MSTORE PUSH1 0x20 ADD PUSH0 KECCAK256 SWAP1 POP DUP2 ISZERO PUSH2 0x3501 JUMPI DUP1 PUSH1 0x1 ADD PUSH0 DUP2 SLOAD DUP1 SWAP3 SWAP2 SWAP1 PUSH2 0x34B6 SWAP1 PUSH2 0x4652 JUMP JUMPDEST SWAP2 SWAP1 POP SSTORE POP PUSH1 0x32 DUP2 PUSH0 ADD PUSH1 0x2 DUP3 DUP3 DUP3 SWAP1 SLOAD SWAP1 PUSH2 0x100 EXP SWAP1 DIV PUSH4 0xFFFFFFFF AND PUSH2 0x34DE SWAP2 SWAP1 PUSH2 0x4971 JUMP JUMPDEST SWAP3 POP PUSH2 0x100 EXP DUP2 SLOAD DUP2 PUSH4 0xFFFFFFFF MUL NOT AND SWAP1 DUP4 PUSH4 0xFFFFFFFF AND MUL OR SWAP1 SSTORE POP PUSH2 0x355C JUMP JUMPDEST DUP1 PUSH1 0x2 ADD PUSH0 DUP2 SLOAD DUP1 SWAP3 SWAP2 SWAP1 PUSH2 0x3515 SWAP1 PUSH2 0x4652 JUMP JUMPDEST SWAP2 SWAP1 POP SSTORE POP PUSH1 0x19 DUP2 PUSH0 ADD PUSH1 0x2 DUP3 DUP3 DUP3 SWAP1 SLOAD SWAP1 PUSH2 0x100 EXP SWAP1 DIV PUSH4 0xFFFFFFFF AND PUSH2 0x353D SWAP2 SWAP1 PUSH2 0x4971 JUMP JUMPDEST SWAP3 POP PUSH2 0x100 EXP DUP2 SLOAD DUP2 PUSH4 0xFFFFFFFF MUL NOT AND SWAP1 DUP4 PUSH4 0xFFFFFFFF AND MUL OR SWAP1 SSTORE POP JUMPDEST PUSH1 0x64 DUP2 PUSH0 ADD PUSH0 SWAP1 SLOAD SWAP1 PUSH2 0x100 EXP SWAP1 DIV PUSH2 0xFFFF AND PUSH2 0xFFFF AND PUSH2 0x357D SWAP2 SWAP1 PUSH2 0x49A8 JUMP JUMPDEST PUSH4 0xFFFFFFFF AND DUP2 PUSH0 ADD PUSH1 0x2 SWAP1 SLOAD SWAP1 PUSH2 0x100 EXP SWAP1 DIV PUSH4 0xFFFFFFFF AND PUSH4 0xFFFFFFFF AND LT PUSH2 0x3600 JUMPI DUP1 PUSH0 ADD PUSH0 DUP2 DUP2 SWAP1 SLOAD SWAP1 PUSH2 0x100 EXP SWAP1 DIV PUSH2 0xFFFF AND DUP1 SWAP3 SWAP2 SWAP1 PUSH2 0x35C2 SWAP1 PUSH2 0x49E4 JUMP JUMPDEST SWAP2 SWAP1 PUSH2 0x100 EXP DUP2 SLOAD DUP2 PUSH2 0xFFFF MUL NOT AND SWAP1 DUP4 PUSH2 0xFFFF AND MUL OR SWAP1 SSTORE POP POP PUSH0 DUP2 PUSH0 ADD PUSH1 0x2 PUSH2 0x100 EXP DUP2 SLOAD DUP2 PUSH4 0xFFFFFFFF MUL NOT AND SWAP1 DUP4 PUSH4 0xFFFFFFFF AND MUL OR SWAP1 SSTORE POP JUMPDEST POP POP POP JUMP JUMPDEST PUSH2 0x360D PUSH2 0x2117 JUMP JUMPDEST PUSH1 0x1 PUSH0 PUSH1 0x14 PUSH2 0x100 EXP DUP2 SLOAD DUP2 PUSH1 0xFF MUL NOT AND SWAP1 DUP4 ISZERO ISZERO MUL OR SWAP1 SSTORE POP PUSH32 0x62E78CEA01BEE320CD4E420270B5EA74000D11B0C9F74754EBDBFC544B05A258 PUSH2 0x3650 PUSH2 0x36DA JUMP JUMPDEST PUSH1 0x40 MLOAD PUSH2 0x365D SWAP2 SWAP1 PUSH2 0x3E73 JUMP JUMPDEST PUSH1 0x40 MLOAD DUP1 SWAP2 SUB SWAP1 LOG1 JUMP JUMPDEST PUSH2 0x366F PUSH2 0x3721 JUMP JUMPDEST ISZERO PUSH2 0x36A6 JUMPI PUSH1 0x40 MLOAD PUSH32 0x3EE5AEB500000000000000000000000000000000000000000000000000000000 DUP2 MSTORE PUSH1 0x4 ADD PUSH1 0x40 MLOAD DUP1 SWAP2 SUB SWAP1 REVERT JUMPDEST JUMP JUMPDEST PUSH0 PUSH32 0x9B779B17422D0DF92223018B32B4D1FA46E071723D6817E2486D003BECC55F00 PUSH0 SHL SWAP1 POP SWAP1 JUMP JUMPDEST PUSH0 DUP2 SWAP1 POP SWAP2 SWAP1 POP JUMP JUMPDEST PUSH0 CALLER SWAP1 POP SWAP1 JUMP JUMPDEST PUSH2 0x36E9 PUSH2 0xB99 JUMP JUMPDEST PUSH2 0x371F JUMPI PUSH1 0x40 MLOAD PUSH32 0x8DFC202B00000000000000000000000000000000000000000000000000000000 DUP2 MSTORE PUSH1 0x4 ADD PUSH1 0x40 MLOAD DUP1 SWAP2 SUB SWAP1 REVERT JUMPDEST JUMP JUMPDEST PUSH0 PUSH1 0x2 PUSH2 0x3734 PUSH2 0x372F PUSH2 0x36A8 JUMP JUMPDEST PUSH2 0x36D1 JUMP JUMPDEST PUSH0 ADD SLOAD EQ SWAP1 POP SWAP1 JUMP JUMPDEST PUSH1 0x40 MLOAD DUP1 PUSH1 0xA0 ADD PUSH1 0x40 MSTORE DUP1 PUSH1 0x5 SWAP1 JUMPDEST PUSH2 0x3754 PUSH2 0x3788 JUMP JUMPDEST DUP2 MSTORE PUSH1 0x20 ADD SWAP1 PUSH1 0x1 SWAP1 SUB SWAP1 DUP2 PUSH2 0x374C JUMPI SWAP1 POP POP SWAP1 JUMP JUMPDEST POP DUP1 SLOAD PUSH0 DUP3 SSTORE SWAP1 PUSH0 MSTORE PUSH1 0x20 PUSH0 KECCAK256 SWAP1 DUP2 ADD SWAP1 PUSH2 0x3785 SWAP2 SWAP1 PUSH2 0x3819 JUMP JUMPDEST POP JUMP JUMPDEST PUSH1 0x40 MLOAD DUP1 PUSH1 0xC0 ADD PUSH1 0x40 MSTORE DUP1 PUSH0 PUSH1 0x2 DUP2 GT ISZERO PUSH2 0x37A6 JUMPI PUSH2 0x37A5 PUSH2 0x3954 JUMP JUMPDEST JUMPDEST DUP2 MSTORE PUSH1 0x20 ADD PUSH0 PUSH1 0x2 DUP2 GT ISZERO PUSH2 0x37BE JUMPI PUSH2 0x37BD PUSH2 0x3954 JUMP JUMPDEST JUMPDEST DUP2 MSTORE PUSH1 0x20 ADD PUSH0 PUSH1 0x3 DUP2 GT ISZERO PUSH2 0x37D6 JUMPI PUSH2 0x37D5 PUSH2 0x3954 JUMP JUMPDEST JUMPDEST DUP2 MSTORE PUSH1 0x20 ADD PUSH0 PUSH1 0xFF AND DUP2 MSTORE PUSH1 0x20 ADD PUSH0 PUSH1 0xFF AND DUP2 MSTORE PUSH1 0x20 ADD PUSH0 PUSH1 0xFF AND DUP2 MSTORE POP SWAP1 JUMP JUMPDEST PUSH1 0x40 MLOAD DUP1 PUSH1 0x60 ADD PUSH1 0x40 MSTORE DUP1 PUSH1 0x3 SWAP1 PUSH1 0x20 DUP3 MUL DUP1 CALLDATASIZE DUP4 CALLDATACOPY DUP1 DUP3 ADD SWAP2 POP POP SWAP1 POP POP SWAP1 JUMP JUMPDEST JUMPDEST DUP1 DUP3 GT ISZERO PUSH2 0x389D JUMPI PUSH0 PUSH0 DUP3 ADD PUSH0 PUSH2 0x100 EXP DUP2 SLOAD SWAP1 PUSH1 0xFF MUL NOT AND SWAP1 SSTORE PUSH0 DUP3 ADD PUSH1 0x1 PUSH2 0x100 EXP DUP2 SLOAD SWAP1 PUSH1 0xFF MUL NOT AND SWAP1 SSTORE PUSH0 DUP3 ADD PUSH1 0x2 PUSH2 0x100 EXP DUP2 SLOAD SWAP1 PUSH1 0xFF MUL NOT AND SWAP1 SSTORE PUSH0 DUP3 ADD PUSH1 0x3 PUSH2 0x100 EXP DUP2 SLOAD SWAP1 PUSH1 0xFF MUL NOT AND SWAP1 SSTORE PUSH0 DUP3 ADD PUSH1 0x4 PUSH2 0x100 EXP DUP2 SLOAD SWAP1 PUSH1 0xFF MUL NOT AND SWAP1 SSTORE PUSH0 DUP3 ADD PUSH1 0x5 PUSH2 0x100 EXP DUP2 SLOAD SWAP1 PUSH1 0xFF MUL NOT AND SWAP1 SSTORE POP PUSH1 0x1 ADD PUSH2 0x381A JUMP JUMPDEST POP SWAP1 JUMP JUMPDEST PUSH0 PUSH1 0x40 MLOAD SWAP1 POP SWAP1 JUMP JUMPDEST PUSH0 PUSH0 REVERT JUMPDEST PUSH0 PUSH0 REVERT JUMPDEST PUSH0 PUSH20 0xFFFFFFFFFFFFFFFFFFFFFFFFFFFFFFFFFFFFFFFF DUP3 AND SWAP1 POP SWAP2 SWAP1 POP JUMP JUMPDEST PUSH0 PUSH2 0x38DB DUP3 PUSH2 0x38B2 JUMP JUMPDEST SWAP1 POP SWAP2 SWAP1 POP JUMP JUMPDEST PUSH2 0x38EB DUP2 PUSH2 0x38D1 JUMP JUMPDEST DUP2 EQ PUSH2 0x38F5 JUMPI PUSH0 PUSH0 REVERT JUMPDEST POP JUMP JUMPDEST PUSH0 DUP2 CALLDATALOAD SWAP1 POP PUSH2 0x3906 DUP2 PUSH2 0x38E2 JUMP JUMPDEST SWAP3 SWAP2 POP POP JUMP JUMPDEST PUSH0 PUSH1 0x20 DUP3 DUP5 SUB SLT ISZERO PUSH2 0x3921 JUMPI PUSH2 0x3920 PUSH2 0x38AA JUMP JUMPDEST JUMPDEST PUSH0 PUSH2 0x392E DUP5 DUP3 DUP6 ADD PUSH2 0x38F8 JUMP JUMPDEST SWAP2 POP POP SWAP3 SWAP2 POP POP JUMP JUMPDEST PUSH0 PUSH1 0x5 SWAP1 POP SWAP2 SWAP1 POP JUMP JUMPDEST PUSH0 DUP2 SWAP1 POP SWAP3 SWAP2 POP POP JUMP JUMPDEST PUSH0 DUP2 SWAP1 POP SWAP2 SWAP1 POP JUMP JUMPDEST PUSH32 0x4E487B7100000000000000000000000000000000000000000000000000000000 PUSH0 MSTORE PUSH1 0x21 PUSH1 0x4 MSTORE PUSH1 0x24 PUSH0 REVERT JUMPDEST PUSH1 0x3 DUP2 LT PUSH2 0x3992 JUMPI PUSH2 0x3991 PUSH2 0x3954 JUMP JUMPDEST JUMPDEST POP JUMP JUMPDEST PUSH0 DUP2 SWAP1 POP PUSH2 0x39A2 DUP3 PUSH2 0x3981 JUMP JUMPDEST SWAP2 SWAP1 POP JUMP JUMPDEST PUSH0 PUSH2 0x39B1 DUP3 PUSH2 0x3995 JUMP JUMPDEST SWAP1 POP SWAP2 SWAP1 POP JUMP JUMPDEST PUSH2 0x39C1 DUP2 PUSH2 0x39A7 JUMP JUMPDEST DUP3 MSTORE POP POP JUMP JUMPDEST PUSH1 0x3 DUP2 LT PUSH2 0x39D8 JUMPI PUSH2 0x39D7 PUSH2 0x3954 JUMP JUMPDEST JUMPDEST POP JUMP JUMPDEST PUSH0 DUP2 SWAP1 POP PUSH2 0x39E8 DUP3 PUSH2 0x39C7 JUMP JUMPDEST SWAP2 SWAP1 POP JUMP JUMPDEST PUSH0 PUSH2 0x39F7 DUP3 PUSH2 0x39DB JUMP JUMPDEST SWAP1 POP SWAP2 SWAP1 POP JUMP JUMPDEST PUSH2 0x3A07 DUP2 PUSH2 0x39ED JUMP JUMPDEST DUP3 MSTORE POP POP JUMP JUMPDEST PUSH1 0x4 DUP2 LT PUSH2 0x3A1E JUMPI PUSH2 0x3A1D PUSH2 0x3954 JUMP JUMPDEST JUMPDEST POP JUMP JUMPDEST PUSH0 DUP2 SWAP1 POP PUSH2 0x3A2E DUP3 PUSH2 0x3A0D JUMP JUMPDEST SWAP2 SWAP1 POP JUMP JUMPDEST PUSH0 PUSH2 0x3A3D DUP3 PUSH2 0x3A21 JUMP JUMPDEST SWAP1 POP SWAP2 SWAP1 POP JUMP JUMPDEST PUSH2 0x3A4D DUP2 PUSH2 0x3A33 JUMP JUMPDEST DUP3 MSTORE POP POP JUMP JUMPDEST PUSH0 PUSH1 0xFF DUP3 AND SWAP1 POP SWAP2 SWAP1 POP JUMP JUMPDEST PUSH2 0x3A68 DUP2 PUSH2 0x3A53 JUMP JUMPDEST DUP3 MSTORE POP POP JUMP JUMPDEST PUSH1 0xC0 DUP3 ADD PUSH0 DUP3 ADD MLOAD PUSH2 0x3A82 PUSH0 DUP6 ADD DUP3 PUSH2 0x39B8 JUMP JUMPDEST POP PUSH1 0x20 DUP3 ADD MLOAD PUSH2 0x3A95 PUSH1 0x20 DUP6 ADD DUP3 PUSH2 0x39FE JUMP JUMPDEST POP PUSH1 0x40 DUP3 ADD MLOAD PUSH2 0x3AA8 PUSH1 0x40 DUP6 ADD DUP3 PUSH2 0x3A44 JUMP JUMPDEST POP PUSH1 0x60 DUP3 ADD MLOAD PUSH2 0x3ABB PUSH1 0x60 DUP6 ADD DUP3 PUSH2 0x3A5F JUMP JUMPDEST POP PUSH1 0x80 DUP3 ADD MLOAD PUSH2 0x3ACE PUSH1 0x80 DUP6 ADD DUP3 PUSH2 0x3A5F JUMP JUMPDEST POP PUSH1 0xA0 DUP3 ADD MLOAD PUSH2 0x3AE1 PUSH1 0xA0 DUP6 ADD DUP3 PUSH2 0x3A5F JUMP JUMPDEST POP POP POP POP JUMP JUMPDEST PUSH0 PUSH2 0x3AF2 DUP4 DUP4 PUSH2 0x3A6E JUMP JUMPDEST PUSH1 0xC0 DUP4 ADD SWAP1 POP SWAP3 SWAP2 POP POP JUMP JUMPDEST PUSH0 PUSH1 0x20 DUP3 ADD SWAP1 POP SWAP2 SWAP1 POP JUMP JUMPDEST PUSH2 0x3B13 DUP2 PUSH2 0x3937 JUMP JUMPDEST PUSH2 0x3B1D DUP2 DUP5 PUSH2 0x3941 JUMP JUMPDEST SWAP3 POP PUSH2 0x3B28 DUP3 PUSH2 0x394B JUMP JUMPDEST DUP1 PUSH0 JUMPDEST DUP4 DUP2 LT ISZERO PUSH2 0x3B58 JUMPI DUP2 MLOAD PUSH2 0x3B3F DUP8 DUP3 PUSH2 0x3AE7 JUMP JUMPDEST SWAP7 POP PUSH2 0x3B4A DUP4 PUSH2 0x3AFE JUMP JUMPDEST SWAP3 POP POP PUSH1 0x1 DUP2 ADD SWAP1 POP PUSH2 0x3B2B JUMP JUMPDEST POP POP POP POP POP POP JUMP JUMPDEST PUSH0 PUSH2 0x3C0 DUP3 ADD SWAP1 POP PUSH2 0x3B74 PUSH0 DUP4 ADD DUP5 PUSH2 0x3B0A JUMP JUMPDEST SWAP3 SWAP2 POP POP JUMP JUMPDEST PUSH0 DUP2 SWAP1 POP SWAP2 SWAP1 POP JUMP JUMPDEST PUSH2 0x3B8C DUP2 PUSH2 0x3B7A JUMP JUMPDEST DUP2 EQ PUSH2 0x3B96 JUMPI PUSH0 PUSH0 REVERT JUMPDEST POP JUMP JUMPDEST PUSH0 DUP2 CALLDATALOAD SWAP1 POP PUSH2 0x3BA7 DUP2 PUSH2 0x3B83 JUMP JUMPDEST SWAP3 SWAP2 POP POP JUMP JUMPDEST PUSH0 PUSH0 PUSH1 0x40 DUP4 DUP6 SUB SLT ISZERO PUSH2 0x3BC3 JUMPI PUSH2 0x3BC2 PUSH2 0x38AA JUMP JUMPDEST JUMPDEST PUSH0 PUSH2 0x3BD0 DUP6 DUP3 DUP7 ADD PUSH2 0x38F8 JUMP JUMPDEST SWAP3 POP POP PUSH1 0x20 PUSH2 0x3BE1 DUP6 DUP3 DUP7 ADD PUSH2 0x3B99 JUMP JUMPDEST SWAP2 POP POP SWAP3 POP SWAP3 SWAP1 POP JUMP JUMPDEST PUSH2 0x3BF4 DUP2 PUSH2 0x3B7A JUMP JUMPDEST DUP3 MSTORE POP POP JUMP JUMPDEST PUSH0 PUSH1 0x20 DUP3 ADD SWAP1 POP PUSH2 0x3C0D PUSH0 DUP4 ADD DUP5 PUSH2 0x3BEB JUMP JUMPDEST SWAP3 SWAP2 POP POP JUMP JUMPDEST PUSH0 DUP2 ISZERO ISZERO SWAP1 POP SWAP2 SWAP1 POP JUMP JUMPDEST PUSH2 0x3C27 DUP2 PUSH2 0x3C13 JUMP JUMPDEST DUP3 MSTORE POP POP JUMP JUMPDEST PUSH0 PUSH1 0x20 DUP3 ADD SWAP1 POP PUSH2 0x3C40 PUSH0 DUP4 ADD DUP5 PUSH2 0x3C1E JUMP JUMPDEST SWAP3 SWAP2 POP POP JUMP JUMPDEST PUSH0 DUP2 MLOAD SWAP1 POP SWAP2 SWAP1 POP JUMP JUMPDEST PUSH0 DUP3 DUP3 MSTORE PUSH1 0x20 DUP3 ADD SWAP1 POP SWAP3 SWAP2 POP POP JUMP JUMPDEST PUSH0 DUP2 SWAP1 POP PUSH1 0x20 DUP3 ADD SWAP1 POP SWAP2 SWAP1 POP JUMP JUMPDEST PUSH2 0x3C78 DUP2 PUSH2 0x3B7A JUMP JUMPDEST DUP3 MSTORE POP POP JUMP JUMPDEST PUSH0 PUSH2 0x3C89 DUP4 DUP4 PUSH2 0x3C6F JUMP JUMPDEST PUSH1 0x20 DUP4 ADD SWAP1 POP SWAP3 SWAP2 POP POP JUMP JUMPDEST PUSH0 PUSH1 0x20 DUP3 ADD SWAP1 POP SWAP2 SWAP1 POP JUMP JUMPDEST PUSH0 PUSH2 0x3CAB DUP3 PUSH2 0x3C46 JUMP JUMPDEST PUSH2 0x3CB5 DUP2 DUP6 PUSH2 0x3C50 JUMP JUMPDEST SWAP4 POP PUSH2 0x3CC0 DUP4 PUSH2 0x3C60 JUMP JUMPDEST DUP1 PUSH0 JUMPDEST DUP4 DUP2 LT ISZERO PUSH2 0x3CF0 JUMPI DUP2 MLOAD PUSH2 0x3CD7 DUP9 DUP3 PUSH2 0x3C7E JUMP JUMPDEST SWAP8 POP PUSH2 0x3CE2 DUP4 PUSH2 0x3C95 JUMP JUMPDEST SWAP3 POP POP PUSH1 0x1 DUP2 ADD SWAP1 POP PUSH2 0x3CC3 JUMP JUMPDEST POP DUP6 SWAP4 POP POP POP POP SWAP3 SWAP2 POP POP JUMP JUMPDEST PUSH0 PUSH1 0x20 DUP3 ADD SWAP1 POP DUP2 DUP2 SUB PUSH0 DUP4 ADD MSTORE PUSH2 0x3D15 DUP2 DUP5 PUSH2 0x3CA1 JUMP JUMPDEST SWAP1 POP SWAP3 SWAP2 POP POP JUMP JUMPDEST PUSH0 PUSH0 REVERT JUMPDEST PUSH0 PUSH0 REVERT JUMPDEST PUSH0 PUSH0 REVERT JUMPDEST PUSH0 PUSH0 DUP4 PUSH1 0x1F DUP5 ADD SLT PUSH2 0x3D3E JUMPI PUSH2 0x3D3D PUSH2 0x3D1D JUMP JUMPDEST JUMPDEST DUP3 CALLDATALOAD SWAP1 POP PUSH8 0xFFFFFFFFFFFFFFFF DUP2 GT ISZERO PUSH2 0x3D5B JUMPI PUSH2 0x3D5A PUSH2 0x3D21 JUMP JUMPDEST JUMPDEST PUSH1 0x20 DUP4 ADD SWAP2 POP DUP4 PUSH1 0x20 DUP3 MUL DUP4 ADD GT ISZERO PUSH2 0x3D77 JUMPI PUSH2 0x3D76 PUSH2 0x3D25 JUMP JUMPDEST JUMPDEST SWAP3 POP SWAP3 SWAP1 POP JUMP JUMPDEST PUSH0 PUSH0 PUSH1 0x20 DUP4 DUP6 SUB SLT ISZERO PUSH2 0x3D94 JUMPI PUSH2 0x3D93 PUSH2 0x38AA JUMP JUMPDEST JUMPDEST PUSH0 DUP4 ADD CALLDATALOAD PUSH8 0xFFFFFFFFFFFFFFFF DUP2 GT ISZERO PUSH2 0x3DB1 JUMPI PUSH2 0x3DB0 PUSH2 0x38AE JUMP JUMPDEST JUMPDEST PUSH2 0x3DBD DUP6 DUP3 DUP7 ADD PUSH2 0x3D29 JUMP JUMPDEST SWAP3 POP SWAP3 POP POP SWAP3 POP SWAP3 SWAP1 POP JUMP JUMPDEST PUSH2 0x3DD2 DUP2 PUSH2 0x39A7 JUMP JUMPDEST DUP3 MSTORE POP POP JUMP JUMPDEST PUSH2 0x3DE1 DUP2 PUSH2 0x39ED JUMP JUMPDEST DUP3 MSTORE POP POP JUMP JUMPDEST PUSH2 0x3DF0 DUP2 PUSH2 0x3A33 JUMP JUMPDEST DUP3 MSTORE POP POP JUMP JUMPDEST PUSH2 0x3DFF DUP2 PUSH2 0x3A53 JUMP JUMPDEST DUP3 MSTORE POP POP JUMP JUMPDEST PUSH0 PUSH1 0xC0 DUP3 ADD SWAP1 POP PUSH2 0x3E18 PUSH0 DUP4 ADD DUP10 PUSH2 0x3DC9 JUMP JUMPDEST PUSH2 0x3E25 PUSH1 0x20 DUP4 ADD DUP9 PUSH2 0x3DD8 JUMP JUMPDEST PUSH2 0x3E32 PUSH1 0x40 DUP4 ADD DUP8 PUSH2 0x3DE7 JUMP JUMPDEST PUSH2 0x3E3F PUSH1 0x60 DUP4 ADD DUP7 PUSH2 0x3DF6 JUMP JUMPDEST PUSH2 0x3E4C PUSH1 0x80 DUP4 ADD DUP6 PUSH2 0x3DF6 JUMP JUMPDEST PUSH2 0x3E59 PUSH1 0xA0 DUP4 ADD DUP5 PUSH2 0x3DF6 JUMP JUMPDEST SWAP8 SWAP7 POP POP POP POP POP POP POP JUMP JUMPDEST PUSH2 0x3E6D DUP2 PUSH2 0x38D1 JUMP JUMPDEST DUP3 MSTORE POP POP JUMP JUMPDEST PUSH0 PUSH1 0x20 DUP3 ADD SWAP1 POP PUSH2 0x3E86 PUSH0 DUP4 ADD DUP5 PUSH2 0x3E64 JUMP JUMPDEST SWAP3 SWAP2 POP POP JUMP JUMPDEST PUSH0 PUSH1 0x20 DUP3 DUP5 SUB SLT ISZERO PUSH2 0x3EA1 JUMPI PUSH2 0x3EA0 PUSH2 0x38AA JUMP JUMPDEST JUMPDEST PUSH0 PUSH2 0x3EAE DUP5 DUP3 DUP6 ADD PUSH2 0x3B99 JUMP JUMPDEST SWAP2 POP POP SWAP3 SWAP2 POP POP JUMP JUMPDEST PUSH0 DUP2 SWAP1 POP SWAP2 SWAP1 POP JUMP JUMPDEST PUSH0 PUSH2 0x3EDA PUSH2 0x3ED5 PUSH2 0x3ED0 DUP5 PUSH2 0x38B2 JUMP JUMPDEST PUSH2 0x3EB7 JUMP JUMPDEST PUSH2 0x38B2 JUMP JUMPDEST SWAP1 POP SWAP2 SWAP1 POP JUMP JUMPDEST PUSH0 PUSH2 0x3EEB DUP3 PUSH2 0x3EC0 JUMP JUMPDEST SWAP1 POP SWAP2 SWAP1 POP JUMP JUMPDEST PUSH0 PUSH2 0x3EFC DUP3 PUSH2 0x3EE1 JUMP JUMPDEST SWAP1 POP SWAP2 SWAP1 POP JUMP JUMPDEST PUSH2 0x3F0C DUP2 PUSH2 0x3EF2 JUMP JUMPDEST DUP3 MSTORE POP POP JUMP JUMPDEST PUSH0 PUSH1 0x20 DUP3 ADD SWAP1 POP PUSH2 0x3F25 PUSH0 DUP4 ADD DUP5 PUSH2 0x3F03 JUMP JUMPDEST SWAP3 SWAP2 POP POP JUMP JUMPDEST PUSH0 PUSH2 0xFFFF DUP3 AND SWAP1 POP SWAP2 SWAP1 POP JUMP JUMPDEST PUSH2 0x3F41 DUP2 PUSH2 0x3F2B JUMP JUMPDEST DUP3 MSTORE POP POP JUMP JUMPDEST PUSH0 PUSH4 0xFFFFFFFF DUP3 AND SWAP1 POP SWAP2 SWAP1 POP JUMP JUMPDEST PUSH2 0x3F5F DUP2 PUSH2 0x3F47 JUMP JUMPDEST DUP3 MSTORE POP POP JUMP JUMPDEST PUSH0 PUSH1 0x80 DUP3 ADD SWAP1 POP PUSH2 0x3F78 PUSH0 DUP4 ADD DUP8 PUSH2 0x3F38 JUMP JUMPDEST PUSH2 0x3F85 PUSH1 0x20 DUP4 ADD DUP7 PUSH2 0x3F56 JUMP JUMPDEST PUSH2 0x3F92 PUSH1 0x40 DUP4 ADD DUP6 PUSH2 0x3BEB JUMP JUMPDEST PUSH2 0x3F9F PUSH1 0x60 DUP4 ADD DUP5 PUSH2 0x3BEB JUMP JUMPDEST SWAP6 SWAP5 POP POP POP POP POP JUMP JUMPDEST PUSH0 DUP2 MLOAD SWAP1 POP SWAP2 SWAP1 POP JUMP JUMPDEST PUSH0 DUP3 DUP3 MSTORE PUSH1 0x20 DUP3 ADD SWAP1 POP SWAP3 SWAP2 POP POP JUMP JUMPDEST PUSH0 DUP2 SWAP1 POP PUSH1 0x20 DUP3 ADD SWAP1 POP SWAP2 SWAP1 POP JUMP JUMPDEST PUSH0 PUSH1 0x20 DUP3 ADD SWAP1 POP SWAP2 SWAP1 POP JUMP JUMPDEST PUSH0 PUSH2 0x3FE7 DUP3 PUSH2 0x3FA8 JUMP JUMPDEST PUSH2 0x3FF1 DUP2 DUP6 PUSH2 0x3FB2 JUMP JUMPDEST SWAP4 POP PUSH2 0x3FFC DUP4 PUSH2 0x3FC2 JUMP JUMPDEST DUP1 PUSH0 JUMPDEST DUP4 DUP2 LT ISZERO PUSH2 0x402C JUMPI DUP2 MLOAD PUSH2 0x4013 DUP9 DUP3 PUSH2 0x3AE7 JUMP JUMPDEST SWAP8 POP PUSH2 0x401E DUP4 PUSH2 0x3FD1 JUMP JUMPDEST SWAP3 POP POP PUSH1 0x1 DUP2 ADD SWAP1 POP PUSH2 0x3FFF JUMP JUMPDEST POP DUP6 SWAP4 POP POP POP POP SWAP3 SWAP2 POP POP JUMP JUMPDEST PUSH0 PUSH1 0x20 DUP3 ADD SWAP1 POP DUP2 DUP2 SUB PUSH0 DUP4 ADD MSTORE PUSH2 0x4051 DUP2 DUP5 PUSH2 0x3FDD JUMP JUMPDEST SWAP1 POP SWAP3 SWAP2 POP POP JUMP JUMPDEST PUSH0 DUP3 DUP3 MSTORE PUSH1 0x20 DUP3 ADD SWAP1 POP SWAP3 SWAP2 POP POP JUMP JUMPDEST PUSH32 0x496E636F7272656374207061796D656E74000000000000000000000000000000 PUSH0 DUP3 ADD MSTORE POP JUMP JUMPDEST PUSH0 PUSH2 0x409D PUSH1 0x11 DUP4 PUSH2 0x4059 JUMP JUMPDEST SWAP2 POP PUSH2 0x40A8 DUP3 PUSH2 0x4069 JUMP JUMPDEST PUSH1 0x20 DUP3 ADD SWAP1 POP SWAP2 SWAP1 POP JUMP JUMPDEST PUSH0 PUSH1 0x20 DUP3 ADD SWAP1 POP DUP2 DUP2 SUB PUSH0 DUP4 ADD MSTORE PUSH2 0x40CA DUP2 PUSH2 0x4091 JUMP JUMPDEST SWAP1 POP SWAP2 SWAP1 POP JUMP JUMPDEST PUSH0 DUP2 MLOAD SWAP1 POP PUSH2 0x40DF DUP2 PUSH2 0x3B83 JUMP JUMPDEST SWAP3 SWAP2 POP POP JUMP JUMPDEST PUSH0 PUSH1 0x20 DUP3 DUP5 SUB SLT ISZERO PUSH2 0x40FA JUMPI PUSH2 0x40F9 PUSH2 0x38AA JUMP JUMPDEST JUMPDEST PUSH0 PUSH2 0x4107 DUP5 DUP3 DUP6 ADD PUSH2 0x40D1 JUMP JUMPDEST SWAP2 POP POP SWAP3 SWAP2 POP POP JUMP JUMPDEST PUSH0 DUP2 SWAP1 POP SWAP2 SWAP1 POP JUMP JUMPDEST PUSH2 0x412A PUSH2 0x4125 DUP3 PUSH2 0x3B7A JUMP JUMPDEST PUSH2 0x4110 JUMP JUMPDEST DUP3 MSTORE POP POP JUMP JUMPDEST PUSH0 DUP2 PUSH1 0x60 SHL SWAP1 POP SWAP2 SWAP1 POP JUMP JUMPDEST PUSH0 PUSH2 0x4146 DUP3 PUSH2 0x4130 JUMP JUMPDEST SWAP1 POP SWAP2 SWAP1 POP JUMP JUMPDEST PUSH0 PUSH2 0x4157 DUP3 PUSH2 0x413C JUMP JUMPDEST SWAP1 POP SWAP2 SWAP1 POP JUMP JUMPDEST PUSH2 0x416F PUSH2 0x416A DUP3 PUSH2 0x38D1 JUMP JUMPDEST PUSH2 0x414D JUMP JUMPDEST DUP3 MSTORE POP POP JUMP JUMPDEST PUSH0 PUSH2 0x4180 DUP3 DUP7 PUSH2 0x4119 JUMP JUMPDEST PUSH1 0x20 DUP3 ADD SWAP2 POP PUSH2 0x4190 DUP3 DUP6 PUSH2 0x415E JUMP JUMPDEST PUSH1 0x14 DUP3 ADD SWAP2 POP PUSH2 0x41A0 DUP3 DUP5 PUSH2 0x4119 JUMP JUMPDEST PUSH1 0x20 DUP3 ADD SWAP2 POP DUP2 SWAP1 POP SWAP5 SWAP4 POP POP POP POP JUMP JUMPDEST PUSH32 0x4E487B7100000000000000000000000000000000000000000000000000000000 PUSH0 MSTORE PUSH1 0x12 PUSH1 0x4 MSTORE PUSH1 0x24 PUSH0 REVERT JUMPDEST PUSH0 PUSH2 0x41E8 DUP3 PUSH2 0x3B7A JUMP JUMPDEST SWAP2 POP PUSH2 0x41F3 DUP4 PUSH2 0x3B7A JUMP JUMPDEST SWAP3 POP DUP3 PUSH2 0x4203 JUMPI PUSH2 0x4202 PUSH2 0x41B1 JUMP JUMPDEST JUMPDEST DUP3 DUP3 MOD SWAP1 POP SWAP3 SWAP2 POP POP JUMP JUMPDEST PUSH32 0x4E487B7100000000000000000000000000000000000000000000000000000000 PUSH0 MSTORE PUSH1 0x11 PUSH1 0x4 MSTORE PUSH1 0x24 PUSH0 REVERT JUMPDEST PUSH0 PUSH2 0x4245 DUP3 PUSH2 0x3A53 JUMP JUMPDEST SWAP2 POP PUSH2 0x4250 DUP4 PUSH2 0x3A53 JUMP JUMPDEST SWAP3 POP DUP3 DUP3 ADD SWAP1 POP PUSH1 0xFF DUP2 GT ISZERO PUSH2 0x4269 JUMPI PUSH2 0x4268 PUSH2 0x420E JUMP JUMPDEST JUMPDEST SWAP3 SWAP2 POP POP JUMP JUMPDEST PUSH0 PUSH1 0xE0 DUP3 ADD SWAP1 POP PUSH2 0x4282 PUSH0 DUP4 ADD DUP11 PUSH2 0x3E64 JUMP JUMPDEST PUSH2 0x428F PUSH1 0x20 DUP4 ADD DUP10 PUSH2 0x3DC9 JUMP JUMPDEST PUSH2 0x429C PUSH1 0x40 DUP4 ADD DUP9 PUSH2 0x3DD8 JUMP JUMPDEST PUSH2 0x42A9 PUSH1 0x60 DUP4 ADD DUP8 PUSH2 0x3DE7 JUMP JUMPDEST PUSH2 0x42B6 PUSH1 0x80 DUP4 ADD DUP7 PUSH2 0x3DF6 JUMP JUMPDEST PUSH2 0x42C3 PUSH1 0xA0 DUP4 ADD DUP6 PUSH2 0x3DF6 JUMP JUMPDEST PUSH2 0x42D0 PUSH1 0xC0 DUP4 ADD DUP5 PUSH2 0x3DF6 JUMP JUMPDEST SWAP9 SWAP8 POP POP POP POP POP POP POP POP JUMP JUMPDEST PUSH0 PUSH1 0x40 DUP3 ADD SWAP1 POP PUSH2 0x42EF PUSH0 DUP4 ADD DUP6 PUSH2 0x3E64 JUMP JUMPDEST PUSH2 0x42FC PUSH1 0x20 DUP4 ADD DUP5 PUSH2 0x3BEB JUMP JUMPDEST SWAP4 SWAP3 POP POP POP JUMP JUMPDEST PUSH32 0x496E636F7272656374207061796D656E7420666F72207265726F6C6C00000000 PUSH0 DUP3 ADD MSTORE POP JUMP JUMPDEST PUSH0 PUSH2 0x4337 PUSH1 0x1C DUP4 PUSH2 0x4059 JUMP JUMPDEST SWAP2 POP PUSH2 0x4342 DUP3 PUSH2 0x4303 JUMP JUMPDEST PUSH1 0x20 DUP3 ADD SWAP1 POP SWAP2 SWAP1 POP JUMP JUMPDEST PUSH0 PUSH1 0x20 DUP3 ADD SWAP1 POP DUP2 DUP2 SUB PUSH0 DUP4 ADD MSTORE PUSH2 0x4364 DUP2 PUSH2 0x432B JUMP JUMPDEST SWAP1 POP SWAP2 SWAP1 POP JUMP JUMPDEST PUSH32 0x5465616D2073697A6520342D38206F6E6C790000000000000000000000000000 PUSH0 DUP3 ADD MSTORE POP JUMP JUMPDEST PUSH0 PUSH2 0x439F PUSH1 0x12 DUP4 PUSH2 0x4059 JUMP JUMPDEST SWAP2 POP PUSH2 0x43AA DUP3 PUSH2 0x436B JUMP JUMPDEST PUSH1 0x20 DUP3 ADD SWAP1 POP SWAP2 SWAP1 POP JUMP JUMPDEST PUSH0 PUSH1 0x20 DUP3 ADD SWAP1 POP DUP2 DUP2 SUB PUSH0 DUP4 ADD MSTORE PUSH2 0x43CC DUP2 PUSH2 0x4393 JUMP JUMPDEST SWAP1 POP SWAP2 SWAP1 POP JUMP JUMPDEST PUSH32 0x4E487B7100000000000000000000000000000000000000000000000000000000 PUSH0 MSTORE PUSH1 0x32 PUSH1 0x4 MSTORE PUSH1 0x24 PUSH0 REVERT JUMPDEST PUSH0 DUP2 MLOAD SWAP1 POP PUSH2 0x440E DUP2 PUSH2 0x38E2 JUMP JUMPDEST SWAP3 SWAP2 POP POP JUMP JUMPDEST PUSH0 PUSH1 0x20 DUP3 DUP5 SUB SLT ISZERO PUSH2 0x4429 JUMPI PUSH2 0x4428 PUSH2 0x38AA JUMP JUMPDEST JUMPDEST PUSH0 PUSH2 0x4436 DUP5 DUP3 DUP6 ADD PUSH2 0x4400 JUMP JUMPDEST SWAP2 POP POP SWAP3 SWAP2 POP POP JUMP JUMPDEST PUSH32 0x4E6F7420796F757220756E697400000000000000000000000000000000000000 PUSH0 DUP3 ADD MSTORE POP JUMP JUMPDEST PUSH0 PUSH2 0x4473 PUSH1 0xD DUP4 PUSH2 0x4059 JUMP JUMPDEST SWAP2 POP PUSH2 0x447E DUP3 PUSH2 0x443F JUMP JUMPDEST PUSH1 0x20 DUP3 ADD SWAP1 POP SWAP2 SWAP1 POP JUMP JUMPDEST PUSH0 PUSH1 0x20 DUP3 ADD SWAP1 POP DUP2 DUP2 SUB PUSH0 DUP4 ADD MSTORE PUSH2 0x44A0 DUP2 PUSH2 0x4467 JUMP JUMPDEST SWAP1 POP SWAP2 SWAP1 POP JUMP JUMPDEST PUSH0 PUSH2 0x44B1 DUP3 PUSH2 0x3B7A JUMP JUMPDEST SWAP2 POP PUSH2 0x44BC DUP4 PUSH2 0x3B7A JUMP JUMPDEST SWAP3 POP DUP3 DUP3 MUL PUSH2 0x44CA DUP2 PUSH2 0x3B7A JUMP JUMPDEST SWAP2 POP DUP3 DUP3 DIV DUP5 EQ DUP4 ISZERO OR PUSH2 0x44E1 JUMPI PUSH2 0x44E0 PUSH2 0x420E JUMP JUMPDEST JUMPDEST POP SWAP3 SWAP2 POP POP JUMP JUMPDEST PUSH0 PUSH2 0x44F2 DUP3 PUSH2 0x3B7A JUMP JUMPDEST SWAP2 POP PUSH2 0x44FD DUP4 PUSH2 0x3B7A JUMP JUMPDEST SWAP3 POP DUP3 DUP3 ADD SWAP1 POP DUP1 DUP3 GT ISZERO PUSH2 0x4515 JUMPI PUSH2 0x4514 PUSH2 0x420E JUMP JUMPDEST JUMPDEST SWAP3 SWAP2 POP POP JUMP JUMPDEST PUSH32 0x4E487B7100000000000000000000000000000000000000000000000000000000 PUSH0 MSTORE PUSH1 0x41 PUSH1 0x4 MSTORE PUSH1 0x24 PUSH0 REVERT JUMPDEST PUSH0 PUSH2 0x4553 DUP3 DUP6 PUSH2 0x4119 JUMP JUMPDEST PUSH1 0x20 DUP3 ADD SWAP2 POP PUSH2 0x4563 DUP3 DUP5 PUSH2 0x415E JUMP JUMPDEST PUSH1 0x14 DUP3 ADD SWAP2 POP DUP2 SWAP1 POP SWAP4 SWAP3 POP POP POP JUMP JUMPDEST PUSH0 DUP2 SWAP1 POP SWAP2 SWAP1 POP JUMP JUMPDEST PUSH0 PUSH2 0x4596 PUSH2 0x4591 PUSH2 0x458C DUP5 PUSH2 0x4573 JUMP JUMPDEST PUSH2 0x3EB7 JUMP JUMPDEST PUSH2 0x3A53 JUMP JUMPDEST SWAP1 POP SWAP2 SWAP1 POP JUMP JUMPDEST PUSH2 0x45A6 DUP2 PUSH2 0x457C JUMP JUMPDEST DUP3 MSTORE POP POP JUMP JUMPDEST PUSH0 DUP2 SWAP1 POP SWAP2 SWAP1 POP JUMP JUMPDEST PUSH0 PUSH2 0x45CF PUSH2 0x45CA PUSH2 0x45C5 DUP5 PUSH2 0x45AC JUMP JUMPDEST PUSH2 0x3EB7 JUMP JUMPDEST PUSH2 0x3A53 JUMP JUMPDEST SWAP1 POP SWAP2 SWAP1 POP JUMP JUMPDEST PUSH2 0x45DF DUP2 PUSH2 0x45B5 JUMP JUMPDEST DUP3 MSTORE POP POP JUMP JUMPDEST PUSH0 PUSH1 0xE0 DUP3 ADD SWAP1 POP PUSH2 0x45F8 PUSH0 DUP4 ADD DUP11 PUSH2 0x3E64 JUMP JUMPDEST PUSH2 0x4605 PUSH1 0x20 DUP4 ADD DUP10 PUSH2 0x3DC9 JUMP JUMPDEST PUSH2 0x4612 PUSH1 0x40 DUP4 ADD DUP9 PUSH2 0x3DD8 JUMP JUMPDEST PUSH2 0x461F PUSH1 0x60 DUP4 ADD DUP8 PUSH2 0x3DE7 JUMP JUMPDEST PUSH2 0x462C PUSH1 0x80 DUP4 ADD DUP7 PUSH2 0x459D JUMP JUMPDEST PUSH2 0x4639 PUSH1 0xA0 DUP4 ADD DUP6 PUSH2 0x459D JUMP JUMPDEST PUSH2 0x4646 PUSH1 0xC0 DUP4 ADD DUP5 PUSH2 0x45D6 JUMP JUMPDEST SWAP9 SWAP8 POP POP POP POP POP POP POP POP JUMP JUMPDEST PUSH0 PUSH2 0x465C DUP3 PUSH2 0x3B7A JUMP JUMPDEST SWAP2 POP PUSH32 0xFFFFFFFFFFFFFFFFFFFFFFFFFFFFFFFFFFFFFFFFFFFFFFFFFFFFFFFFFFFFFFFF DUP3 SUB PUSH2 0x468E JUMPI PUSH2 0x468D PUSH2 0x420E JUMP JUMPDEST JUMPDEST PUSH1 0x1 DUP3 ADD SWAP1 POP SWAP2 SWAP1 POP JUMP JUMPDEST PUSH0 DUP2 SWAP1 POP SWAP2 SWAP1 POP JUMP JUMPDEST PUSH0 PUSH2 0x46BC PUSH2 0x46B7 PUSH2 0x46B2 DUP5 PUSH2 0x4699 JUMP JUMPDEST PUSH2 0x3EB7 JUMP JUMPDEST PUSH2 0x3A53 JUMP JUMPDEST SWAP1 POP SWAP2 SWAP1 POP JUMP JUMPDEST PUSH2 0x46CC DUP2 PUSH2 0x46A2 JUMP JUMPDEST DUP3 MSTORE POP POP JUMP JUMPDEST PUSH0 PUSH1 0xE0 DUP3 ADD SWAP1 POP PUSH2 0x46E5 PUSH0 DUP4 ADD DUP11 PUSH2 0x3E64 JUMP JUMPDEST PUSH2 0x46F2 PUSH1 0x20 DUP4 ADD DUP10 PUSH2 0x3DC9 JUMP JUMPDEST PUSH2 0x46FF PUSH1 0x40 DUP4 ADD DUP9 PUSH2 0x3DD8 JUMP JUMPDEST PUSH2 0x470C PUSH1 0x60 DUP4 ADD DUP8 PUSH2 0x3DE7 JUMP JUMPDEST PUSH2 0x4719 PUSH1 0x80 DUP4 ADD DUP7 PUSH2 0x46C3 JUMP JUMPDEST PUSH2 0x4726 PUSH1 0xA0 DUP4 ADD DUP6 PUSH2 0x46C3 JUMP JUMPDEST PUSH2 0x4733 PUSH1 0xC0 DUP4 ADD DUP5 PUSH2 0x46C3 JUMP JUMPDEST SWAP9 SWAP8 POP POP POP POP POP POP POP POP JUMP JUMPDEST PUSH0 DUP2 SWAP1 POP SWAP2 SWAP1 POP JUMP JUMPDEST PUSH0 PUSH2 0x4762 PUSH2 0x475D PUSH2 0x4758 DUP5 PUSH2 0x473F JUMP JUMPDEST PUSH2 0x3EB7 JUMP JUMPDEST PUSH2 0x3A53 JUMP JUMPDEST SWAP1 POP SWAP2 SWAP1 POP JUMP JUMPDEST PUSH2 0x4772 DUP2 PUSH2 0x4748 JUMP JUMPDEST DUP3 MSTORE POP POP JUMP JUMPDEST PUSH0 DUP2 SWAP1 POP SWAP2 SWAP1 POP JUMP JUMPDEST PUSH0 PUSH2 0x479B PUSH2 0x4796 PUSH2 0x4791 DUP5 PUSH2 0x4778 JUMP JUMPDEST PUSH2 0x3EB7 JUMP JUMPDEST PUSH2 0x3A53 JUMP JUMPDEST SWAP1 POP SWAP2 SWAP1 POP JUMP JUMPDEST PUSH2 0x47AB DUP2 PUSH2 0x4781 JUMP JUMPDEST DUP3 MSTORE POP POP JUMP JUMPDEST PUSH0 PUSH1 0xE0 DUP3 ADD SWAP1 POP PUSH2 0x47C4 PUSH0 DUP4 ADD DUP11 PUSH2 0x3E64 JUMP JUMPDEST PUSH2 0x47D1 PUSH1 0x20 DUP4 ADD DUP10 PUSH2 0x3DC9 JUMP JUMPDEST PUSH2 0x47DE PUSH1 0x40 DUP4 ADD DUP9 PUSH2 0x3DD8 JUMP JUMPDEST PUSH2 0x47EB PUSH1 0x60 DUP4 ADD DUP8 PUSH2 0x3DE7 JUMP JUMPDEST PUSH2 0x47F8 PUSH1 0x80 DUP4 ADD DUP7 PUSH2 0x4769 JUMP JUMPDEST PUSH2 0x4805 PUSH1 0xA0 DUP4 ADD DUP6 PUSH2 0x4769 JUMP JUMPDEST PUSH2 0x4812 PUSH1 0xC0 DUP4 ADD DUP5 PUSH2 0x47A2 JUMP JUMPDEST SWAP9 SWAP8 POP POP POP POP POP POP POP POP JUMP JUMPDEST PUSH0 PUSH1 0xA0 DUP3 ADD SWAP1 POP PUSH2 0x4831 PUSH0 DUP4 ADD DUP9 PUSH2 0x3E64 JUMP JUMPDEST PUSH2 0x483E PUSH1 0x20 DUP4 ADD DUP8 PUSH2 0x3C1E JUMP JUMPDEST PUSH2 0x484B PUSH1 0x40 DUP4 ADD DUP7 PUSH2 0x3BEB JUMP JUMPDEST PUSH2 0x4858 PUSH1 0x60 DUP4 ADD DUP6 PUSH2 0x3BEB JUMP JUMPDEST DUP2 DUP2 SUB PUSH1 0x80 DUP4 ADD MSTORE PUSH2 0x486A DUP2 DUP5 PUSH2 0x3CA1 JUMP JUMPDEST SWAP1 POP SWAP7 SWAP6 POP POP POP POP POP POP JUMP JUMPDEST PUSH32 0x496E76616C696420736C6F740000000000000000000000000000000000000000 PUSH0 DUP3 ADD MSTORE POP JUMP JUMPDEST PUSH0 PUSH2 0x48AA PUSH1 0xC DUP4 PUSH2 0x4059 JUMP JUMPDEST SWAP2 POP PUSH2 0x48B5 DUP3 PUSH2 0x4876 JUMP JUMPDEST PUSH1 0x20 DUP3 ADD SWAP1 POP SWAP2 SWAP1 POP JUMP JUMPDEST PUSH0 PUSH1 0x20 DUP3 ADD SWAP1 POP DUP2 DUP2 SUB PUSH0 DUP4 ADD MSTORE PUSH2 0x48D7 DUP2 PUSH2 0x489E JUMP JUMPDEST SWAP1 POP SWAP2 SWAP1 POP JUMP JUMPDEST PUSH32 0x536C6F7420656D70747900000000000000000000000000000000000000000000 PUSH0 DUP3 ADD MSTORE POP JUMP JUMPDEST PUSH0 PUSH2 0x4912 PUSH1 0xA DUP4 PUSH2 0x4059 JUMP JUMPDEST SWAP2 POP PUSH2 0x491D DUP3 PUSH2 0x48DE JUMP JUMPDEST PUSH1 0x20 DUP3 ADD SWAP1 POP SWAP2 SWAP1 POP JUMP JUMPDEST PUSH0 PUSH1 0x20 DUP3 ADD SWAP1 POP DUP2 DUP2 SUB PUSH0 DUP4 ADD MSTORE PUSH2 0x493F DUP2 PUSH2 0x4906 JUMP JUMPDEST SWAP1 POP SWAP2 SWAP1 POP JUMP JUMPDEST PUSH0 PUSH2 0x4951 DUP3 DUP6 PUSH2 0x4119 JUMP JUMPDEST PUSH1 0x20 DUP3 ADD SWAP2 POP PUSH2 0x4961 DUP3 DUP5 PUSH2 0x4119 JUMP JUMPDEST PUSH1 0x20 DUP3 ADD SWAP2 POP DUP2 SWAP1 POP SWAP4 SWAP3 POP POP POP JUMP JUMPDEST PUSH0 PUSH2 0x497B DUP3 PUSH2 0x3F47 JUMP JUMPDEST SWAP2 POP PUSH2 0x4986 DUP4 PUSH2 0x3F47 JUMP JUMPDEST SWAP3 POP DUP3 DUP3 ADD SWAP1 POP PUSH4 0xFFFFFFFF DUP2 GT ISZERO PUSH2 0x49A2 JUMPI PUSH2 0x49A1 PUSH2 0x420E JUMP JUMPDEST JUMPDEST SWAP3 SWAP2 POP POP JUMP JUMPDEST PUSH0 PUSH2 0x49B2 DUP3 PUSH2 0x3F47 JUMP JUMPDEST SWAP2 POP PUSH2 0x49BD DUP4 PUSH2 0x3F47 JUMP JUMPDEST SWAP3 POP DUP3 DUP3 MUL PUSH2 0x49CB DUP2 PUSH2 0x3F47 JUMP JUMPDEST SWAP2 POP DUP1 DUP3 EQ PUSH2 0x49DD JUMPI PUSH2 0x49DC PUSH2 0x420E JUMP JUMPDEST JUMPDEST POP SWAP3 SWAP2 POP POP JUMP JUMPDEST PUSH0 PUSH2 0x49EE DUP3 PUSH2 0x3F2B JUMP JUMPDEST SWAP2 POP PUSH2 0xFFFF DUP3 SUB PUSH2 0x4A02 JUMPI PUSH2 0x4A01 PUSH2 0x420E JUMP JUMPDEST JUMPDEST PUSH1 0x1 DUP3 ADD SWAP1 POP SWAP2 SWAP1 POP JUMP JUMPDEST PUSH0 PUSH2 0x4A18 DUP3 DUP8 PUSH2 0x4119 JUMP JUMPDEST PUSH1 0x20 DUP3 ADD SWAP2 POP PUSH2 0x4A28 DUP3 DUP7 PUSH2 0x415E JUMP JUMPDEST PUSH1 0x14 DUP3 ADD SWAP2 POP PUSH2 0x4A38 DUP3 DUP6 PUSH2 0x4119 JUMP JUMPDEST PUSH1 0x20 DUP3 ADD SWAP2 POP PUSH2 0x4A48 DUP3 DUP5 PUSH2 0x4119 JUMP JUMPDEST PUSH1 0x20 DUP3 ADD SWAP2 POP DUP2 SWAP1 POP SWAP6 SWAP5 POP POP POP POP POP JUMP JUMPDEST PUSH0 DUP2 PUSH1 0xF0 SHL SWAP1 POP SWAP2 SWAP1 POP JUMP JUMPDEST PUSH0 PUSH2 0x4A70 DUP3 PUSH2 0x4A5A JUMP JUMPDEST SWAP1 POP SWAP2 SWAP1 POP JUMP JUMPDEST PUSH2 0x4A88 PUSH2 0x4A83 DUP3 PUSH2 0x3F2B JUMP JUMPDEST PUSH2 0x4A66 JUMP JUMPDEST DUP3 MSTORE POP POP JUMP JUMPDEST PUSH0 PUSH2 0x4A99 DUP3 DUP9 PUSH2 0x4119 JUMP JUMPDEST PUSH1 0x20 DUP3 ADD SWAP2 POP PUSH2 0x4AA9 DUP3 DUP8 PUSH2 0x415E JUMP JUMPDEST PUSH1 0x14 DUP3 ADD SWAP2 POP PUSH2 0x4AB9 DUP3 DUP7 PUSH2 0x4A77 JUMP JUMPDEST PUSH1 0x2 DUP3 ADD SWAP2 POP PUSH2 0x4AC9 DUP3 DUP6 PUSH2 0x4119 JUMP JUMPDEST PUSH1 0x20 DUP3 ADD SWAP2 POP PUSH2 0x4AD9 DUP3 DUP5 PUSH2 0x4119 JUMP JUMPDEST PUSH1 0x20 DUP3 ADD SWAP2 POP DUP2 SWAP1 POP SWAP7 SWAP6 POP POP POP POP POP POP JUMP JUMPDEST PUSH0 PUSH2 0x4AF6 DUP3 PUSH2 0x3F2B JUMP JUMPDEST SWAP2 POP PUSH2 0x4B01 DUP4 PUSH2 0x3F2B JUMP JUMPDEST SWAP3 POP DUP3 PUSH2 0x4B11 JUMPI PUSH2 0x4B10 PUSH2 0x41B1 JUMP JUMPDEST JUMPDEST DUP3 DUP3 DIV SWAP1 POP SWAP3 SWAP2 POP POP JUMP JUMPDEST PUSH0 PUSH1 0x40 DUP3 ADD SWAP1 POP PUSH2 0x4B2F PUSH0 DUP4 ADD DUP6 PUSH2 0x3E64 JUMP JUMPDEST PUSH2 0x4B3C PUSH1 0x20 DUP4 ADD DUP5 PUSH2 0x3F38 JUMP JUMPDEST SWAP4 SWAP3 POP POP POP JUMP JUMPDEST PUSH0 PUSH0 REVERT JUMPDEST PUSH0 PUSH1 0x1F NOT PUSH1 0x1F DUP4 ADD AND SWAP1 POP SWAP2 SWAP1 POP JUMP JUMPDEST PUSH2 0x4B60 DUP3 PUSH2 0x4B47 JUMP JUMPDEST DUP2 ADD DUP2 DUP2 LT PUSH8 0xFFFFFFFFFFFFFFFF DUP3 GT OR ISZERO PUSH2 0x4B7F JUMPI PUSH2 0x4B7E PUSH2 0x451B JUMP JUMPDEST JUMPDEST DUP1 PUSH1 0x40 MSTORE POP POP POP JUMP JUMPDEST PUSH0 PUSH2 0x4B91 PUSH2 0x38A1 JUMP JUMPDEST SWAP1 POP PUSH2 0x4B9D DUP3 DUP3 PUSH2 0x4B57 JUMP JUMPDEST SWAP2 SWAP1 POP JUMP JUMPDEST PUSH1 0x3 DUP2 LT PUSH2 0x4BAE JUMPI PUSH0 PUSH0 REVERT JUMPDEST POP JUMP JUMPDEST PUSH0 DUP2 MLOAD SWAP1 POP PUSH2 0x4BBF DUP2 PUSH2 0x4BA2 JUMP JUMPDEST SWAP3 SWAP2 POP POP JUMP JUMPDEST PUSH1 0x3 DUP2 LT PUSH2 0x4BD1 JUMPI PUSH0 PUSH0 REVERT JUMPDEST POP JUMP JUMPDEST PUSH0 DUP2 MLOAD SWAP1 POP PUSH2 0x4BE2 DUP2 PUSH2 0x4BC5 JUMP JUMPDEST SWAP3 SWAP2 POP POP JUMP JUMPDEST PUSH1 0x4 DUP2 LT PUSH2 0x4BF4 JUMPI PUSH0 PUSH0 REVERT JUMPDEST POP JUMP JUMPDEST PUSH0 DUP2 MLOAD SWAP1 POP PUSH2 0x4C05 DUP2 PUSH2 0x4BE8 JUMP JUMPDEST SWAP3 SWAP2 POP POP JUMP JUMPDEST PUSH2 0x4C14 DUP2 PUSH2 0x3A53 JUMP JUMPDEST DUP2 EQ PUSH2 0x4C1E JUMPI PUSH0 PUSH0 REVERT JUMPDEST POP JUMP JUMPDEST PUSH0 DUP2 MLOAD SWAP1 POP PUSH2 0x4C2F DUP2 PUSH2 0x4C0B JUMP JUMPDEST SWAP3 SWAP2 POP POP JUMP JUMPDEST PUSH0 PUSH1 0xC0 DUP3 DUP5 SUB SLT ISZERO PUSH2 0x4C4A JUMPI PUSH2 0x4C49 PUSH2 0x4B43 JUMP JUMPDEST JUMPDEST PUSH2 0x4C54 PUSH1 0xC0 PUSH2 0x4B88 JUMP JUMPDEST SWAP1 POP PUSH0 PUSH2 0x4C63 DUP5 DUP3 DUP6 ADD PUSH2 0x4BB1 JUMP JUMPDEST PUSH0 DUP4 ADD MSTORE POP PUSH1 0x20 PUSH2 0x4C76 DUP5 DUP3 DUP6 ADD PUSH2 0x4BD4 JUMP JUMPDEST PUSH1 0x20 DUP4 ADD MSTORE POP PUSH1 0x40 PUSH2 0x4C8A DUP5 DUP3 DUP6 ADD PUSH2 0x4BF7 JUMP JUMPDEST PUSH1 0x40 DUP4 ADD MSTORE POP PUSH1 0x60 PUSH2 0x4C9E DUP5 DUP3 DUP6 ADD PUSH2 0x4C21 JUMP JUMPDEST PUSH1 0x60 DUP4 ADD MSTORE POP PUSH1 0x80 PUSH2 0x4CB2 DUP5 DUP3 DUP6 ADD PUSH2 0x4C21 JUMP JUMPDEST PUSH1 0x80 DUP4 ADD MSTORE POP PUSH1 0xA0 PUSH2 0x4CC6 DUP5 DUP3 DUP6 ADD PUSH2 0x4C21 JUMP JUMPDEST PUSH1 0xA0 DUP4 ADD MSTORE POP SWAP3 SWAP2 POP POP JUMP JUMPDEST PUSH0 PUSH1 0xC0 DUP3 DUP5 SUB SLT ISZERO PUSH2 0x4CE7 JUMPI PUSH2 0x4CE6 PUSH2 0x38AA JUMP JUMPDEST JUMPDEST PUSH0 PUSH2 0x4CF4 DUP5 DUP3 DUP6 ADD PUSH2 0x4C35 JUMP JUMPDEST SWAP2 POP POP SWAP3 SWAP2 POP POP JUMP JUMPDEST PUSH0 PUSH2 0x4D07 DUP3 PUSH2 0x3A53 JUMP JUMPDEST SWAP2 POP PUSH1 0xFF DUP3 SUB PUSH2 0x4D1A JUMPI PUSH2 0x4D19 PUSH2 0x420E JUMP JUMPDEST JUMPDEST PUSH1 0x1 DUP3 ADD SWAP1 POP SWAP2 SWAP1 POP JUMP JUMPDEST PUSH0 PUSH2 0x4D2F DUP3 PUSH2 0x3B7A JUMP JUMPDEST SWAP2 POP PUSH2 0x4D3A DUP4 PUSH2 0x3B7A JUMP JUMPDEST SWAP3 POP DUP3 PUSH2 0x4D4A JUMPI PUSH2 0x4D49 PUSH2 0x41B1 JUMP JUMPDEST JUMPDEST DUP3 DUP3 DIV SWAP1 POP SWAP3 SWAP2 POP POP JUMP INVALID LOG2 PUSH5 0x6970667358 0x22 SLT KECCAK256 EXTCALL RETURN 0xC0 PUSH29 0xB78C89790FCD48471F75DD81E3F8B9657EFC70F59FA8C4F8CC395AEF64 PUSH20 0x6F6C634300081E00330000000000000000000000 "
		},
		"gasEstimates": {
			"creation": {
				"codeDepositCost": "3970200",
				"executionCost": "infinite",
				"totalCost": "infinite"
			},
			"external": {
				"BUY_PRICE()": "391",
				"REROLL_PRICE()": "413",
				"buyFromShop(uint256)": "infinite",
				"buyUnit()": "infinite",
				"generateAIOpponent()": "infinite",
				"getCurrentAI(address)": "infinite",
				"getPlayerShop(address)": "infinite",
				"getPlayerUnits(address)": "infinite",
				"initializeShopPreview()": "infinite",
				"owner()": "2581",
				"pause()": "infinite",
				"paused()": "2546",
				"playerCurrentAI(address,uint256)": "infinite",
				"playerShopPreview(address,uint256)": "infinite",
				"playerUnits(address,uint256)": "infinite",
				"profiles(address)": "infinite",
				"renounceOwnership()": "infinite",
				"rerollShop()": "infinite",
				"setUnitNFT(address)": "infinite",
				"startMatch(uint256[])": "infinite",
				"transferOwnership(address)": "infinite",
				"unitNFT()": "infinite",
				"unpause()": "infinite",
				"withdraw()": "infinite"
			},
			"internal": {
				"_calculateAIPower(struct StarForgeGame.ShopUnit memory[] memory)": "infinite",
				"_calculateTeamPower(uint256[] calldata)": "infinite",
				"_generateAIOpponent(address)": "infinite",
				"_generateRandomRarity(uint256,uint256)": "infinite",
				"_generateShopPreview(address)": "infinite",
				"_updateProfileBuy(address)": "infinite",
				"_updateProfileMatch(address,bool)": "infinite"
			}
		},
		"methodIdentifiers": {
			"BUY_PRICE()": "705fe4be",
			"REROLL_PRICE()": "9f51758e",
			"buyFromShop(uint256)": "b654823e",
			"buyUnit()": "201738e2",
			"generateAIOpponent()": "e155776b",
			"getCurrentAI(address)": "c99ae45f",
			"getPlayerShop(address)": "49c7c24a",
			"getPlayerUnits(address)": "6154ee97",
			"initializeShopPreview()": "f01640a0",
			"owner()": "8da5cb5b",
			"pause()": "8456cb59",
			"paused()": "5c975abb",
			"playerCurrentAI(address,uint256)": "d6691c27",
			"playerShopPreview(address,uint256)": "84d38fdc",
			"playerUnits(address,uint256)": "4ef2d6c1",
			"profiles(address)": "bbe15627",
			"renounceOwnership()": "715018a6",
			"rerollShop()": "29de58d1",
			"setUnitNFT(address)": "7e5c4f8b",
			"startMatch(uint256[])": "7f570e2b",
			"transferOwnership(address)": "f2fde38b",
			"unitNFT()": "b92a40ad",
			"unpause()": "3f4ba83a",
			"withdraw()": "3ccfd60b"
		}
	},
	"abi": [
		{
			"inputs": [
				{
					"internalType": "address",
					"name": "_unitNFT",
					"type": "address"
				}
			],
			"stateMutability": "nonpayable",
			"type": "constructor"
		},
		{
			"inputs": [],
			"name": "EnforcedPause",
			"type": "error"
		},
		{
			"inputs": [],
			"name": "ExpectedPause",
			"type": "error"
		},
		{
			"inputs": [
				{
					"internalType": "address",
					"name": "owner",
					"type": "address"
				}
			],
			"name": "OwnableInvalidOwner",
			"type": "error"
		},
		{
			"inputs": [
				{
					"internalType": "address",
					"name": "account",
					"type": "address"
				}
			],
			"name": "OwnableUnauthorizedAccount",
			"type": "error"
		},
		{
			"inputs": [],
			"name": "ReentrancyGuardReentrantCall",
			"type": "error"
		},
		{
			"anonymous": false,
			"inputs": [
				{
					"indexed": false,
					"internalType": "address",
					"name": "player",
					"type": "address"
				},
				{
					"indexed": false,
					"internalType": "uint16",
					"name": "aiLevel",
					"type": "uint16"
				}
			],
			"name": "AIOpponentGenerated",
			"type": "event"
		},
		{
			"anonymous": false,
			"inputs": [
				{
					"indexed": false,
					"internalType": "address",
					"name": "player",
					"type": "address"
				},
				{
					"indexed": false,
					"internalType": "bool",
					"name": "won",
					"type": "bool"
				},
				{
					"indexed": false,
					"internalType": "uint256",
					"name": "playerScore",
					"type": "uint256"
				},
				{
					"indexed": false,
					"internalType": "uint256",
					"name": "aiScore",
					"type": "uint256"
				},
				{
					"indexed": false,
					"internalType": "uint256[]",
					"name": "rewards",
					"type": "uint256[]"
				}
			],
			"name": "MatchPlayed",
			"type": "event"
		},
		{
			"anonymous": false,
			"inputs": [
				{
					"indexed": true,
					"internalType": "address",
					"name": "previousOwner",
					"type": "address"
				},
				{
					"indexed": true,
					"internalType": "address",
					"name": "newOwner",
					"type": "address"
				}
			],
			"name": "OwnershipTransferred",
			"type": "event"
		},
		{
			"anonymous": false,
			"inputs": [
				{
					"indexed": false,
					"internalType": "address",
					"name": "account",
					"type": "address"
				}
			],
			"name": "Paused",
			"type": "event"
		},
		{
			"anonymous": false,
			"inputs": [
				{
					"indexed": false,
					"internalType": "address",
					"name": "player",
					"type": "address"
				}
			],
			"name": "ShopRerolled",
			"type": "event"
		},
		{
			"anonymous": false,
			"inputs": [
				{
					"indexed": false,
					"internalType": "address",
					"name": "player",
					"type": "address"
				},
				{
					"indexed": false,
					"internalType": "uint256",
					"name": "tokenId",
					"type": "uint256"
				}
			],
			"name": "UnitBought",
			"type": "event"
		},
		{
			"anonymous": false,
			"inputs": [
				{
					"indexed": false,
					"internalType": "address",
					"name": "account",
					"type": "address"
				}
			],
			"name": "Unpaused",
			"type": "event"
		},
		{
			"inputs": [],
			"name": "BUY_PRICE",
			"outputs": [
				{
					"internalType": "uint256",
					"name": "",
					"type": "uint256"
				}
			],
			"stateMutability": "view",
			"type": "function"
		},
		{
			"inputs": [],
			"name": "REROLL_PRICE",
			"outputs": [
				{
					"internalType": "uint256",
					"name": "",
					"type": "uint256"
				}
			],
			"stateMutability": "view",
			"type": "function"
		},
		{
			"inputs": [
				{
					"internalType": "uint256",
					"name": "slot",
					"type": "uint256"
				}
			],
			"name": "buyFromShop",
			"outputs": [],
			"stateMutability": "payable",
			"type": "function"
		},
		{
			"inputs": [],
			"name": "buyUnit",
			"outputs": [],
			"stateMutability": "payable",
			"type": "function"
		},
		{
			"inputs": [],
			"name": "generateAIOpponent",
			"outputs": [],
			"stateMutability": "nonpayable",
			"type": "function"
		},
		{
			"inputs": [
				{
					"internalType": "address",
					"name": "player",
					"type": "address"
				}
			],
			"name": "getCurrentAI",
			"outputs": [
				{
					"components": [
						{
							"internalType": "enum StarForgeUnitNFT.Faction",
							"name": "faction",
							"type": "uint8"
						},
						{
							"internalType": "enum StarForgeUnitNFT.Rarity",
							"name": "rarity",
							"type": "uint8"
						},
						{
							"internalType": "enum StarForgeUnitNFT.UnitClass",
							"name": "unitClass",
							"type": "uint8"
						},
						{
							"internalType": "uint8",
							"name": "attack",
							"type": "uint8"
						},
						{
							"internalType": "uint8",
							"name": "defense",
							"type": "uint8"
						},
						{
							"internalType": "uint8",
							"name": "speed",
							"type": "uint8"
						}
					],
					"internalType": "struct StarForgeGame.ShopUnit[]",
					"name": "",
					"type": "tuple[]"
				}
			],
			"stateMutability": "view",
			"type": "function"
		},
		{
			"inputs": [
				{
					"internalType": "address",
					"name": "player",
					"type": "address"
				}
			],
			"name": "getPlayerShop",
			"outputs": [
				{
					"components": [
						{
							"internalType": "enum StarForgeUnitNFT.Faction",
							"name": "faction",
							"type": "uint8"
						},
						{
							"internalType": "enum StarForgeUnitNFT.Rarity",
							"name": "rarity",
							"type": "uint8"
						},
						{
							"internalType": "enum StarForgeUnitNFT.UnitClass",
							"name": "unitClass",
							"type": "uint8"
						},
						{
							"internalType": "uint8",
							"name": "attack",
							"type": "uint8"
						},
						{
							"internalType": "uint8",
							"name": "defense",
							"type": "uint8"
						},
						{
							"internalType": "uint8",
							"name": "speed",
							"type": "uint8"
						}
					],
					"internalType": "struct StarForgeGame.ShopUnit[5]",
					"name": "",
					"type": "tuple[5]"
				}
			],
			"stateMutability": "view",
			"type": "function"
		},
		{
			"inputs": [
				{
					"internalType": "address",
					"name": "player",
					"type": "address"
				}
			],
			"name": "getPlayerUnits",
			"outputs": [
				{
					"internalType": "uint256[]",
					"name": "",
					"type": "uint256[]"
				}
			],
			"stateMutability": "view",
			"type": "function"
		},
		{
			"inputs": [],
			"name": "initializeShopPreview",
			"outputs": [],
			"stateMutability": "nonpayable",
			"type": "function"
		},
		{
			"inputs": [],
			"name": "owner",
			"outputs": [
				{
					"internalType": "address",
					"name": "",
					"type": "address"
				}
			],
			"stateMutability": "view",
			"type": "function"
		},
		{
			"inputs": [],
			"name": "pause",
			"outputs": [],
			"stateMutability": "nonpayable",
			"type": "function"
		},
		{
			"inputs": [],
			"name": "paused",
			"outputs": [
				{
					"internalType": "bool",
					"name": "",
					"type": "bool"
				}
			],
			"stateMutability": "view",
			"type": "function"
		},
		{
			"inputs": [
				{
					"internalType": "address",
					"name": "",
					"type": "address"
				},
				{
					"internalType": "uint256",
					"name": "",
					"type": "uint256"
				}
			],
			"name": "playerCurrentAI",
			"outputs": [
				{
					"internalType": "enum StarForgeUnitNFT.Faction",
					"name": "faction",
					"type": "uint8"
				},
				{
					"internalType": "enum StarForgeUnitNFT.Rarity",
					"name": "rarity",
					"type": "uint8"
				},
				{
					"internalType": "enum StarForgeUnitNFT.UnitClass",
					"name": "unitClass",
					"type": "uint8"
				},
				{
					"internalType": "uint8",
					"name": "attack",
					"type": "uint8"
				},
				{
					"internalType": "uint8",
					"name": "defense",
					"type": "uint8"
				},
				{
					"internalType": "uint8",
					"name": "speed",
					"type": "uint8"
				}
			],
			"stateMutability": "view",
			"type": "function"
		},
		{
			"inputs": [
				{
					"internalType": "address",
					"name": "",
					"type": "address"
				},
				{
					"internalType": "uint256",
					"name": "",
					"type": "uint256"
				}
			],
			"name": "playerShopPreview",
			"outputs": [
				{
					"internalType": "enum StarForgeUnitNFT.Faction",
					"name": "faction",
					"type": "uint8"
				},
				{
					"internalType": "enum StarForgeUnitNFT.Rarity",
					"name": "rarity",
					"type": "uint8"
				},
				{
					"internalType": "enum StarForgeUnitNFT.UnitClass",
					"name": "unitClass",
					"type": "uint8"
				},
				{
					"internalType": "uint8",
					"name": "attack",
					"type": "uint8"
				},
				{
					"internalType": "uint8",
					"name": "defense",
					"type": "uint8"
				},
				{
					"internalType": "uint8",
					"name": "speed",
					"type": "uint8"
				}
			],
			"stateMutability": "view",
			"type": "function"
		},
		{
			"inputs": [
				{
					"internalType": "address",
					"name": "",
					"type": "address"
				},
				{
					"internalType": "uint256",
					"name": "",
					"type": "uint256"
				}
			],
			"name": "playerUnits",
			"outputs": [
				{
					"internalType": "uint256",
					"name": "",
					"type": "uint256"
				}
			],
			"stateMutability": "view",
			"type": "function"
		},
		{
			"inputs": [
				{
					"internalType": "address",
					"name": "",
					"type": "address"
				}
			],
			"name": "profiles",
			"outputs": [
				{
					"internalType": "uint16",
					"name": "level",
					"type": "uint16"
				},
				{
					"internalType": "uint32",
					"name": "xp",
					"type": "uint32"
				},
				{
					"internalType": "uint256",
					"name": "wins",
					"type": "uint256"
				},
				{
					"internalType": "uint256",
					"name": "losses",
					"type": "uint256"
				}
			],
			"stateMutability": "view",
			"type": "function"
		},
		{
			"inputs": [],
			"name": "renounceOwnership",
			"outputs": [],
			"stateMutability": "nonpayable",
			"type": "function"
		},
		{
			"inputs": [],
			"name": "rerollShop",
			"outputs": [],
			"stateMutability": "payable",
			"type": "function"
		},
		{
			"inputs": [
				{
					"internalType": "address",
					"name": "_unitNFT",
					"type": "address"
				}
			],
			"name": "setUnitNFT",
			"outputs": [],
			"stateMutability": "nonpayable",
			"type": "function"
		},
		{
			"inputs": [
				{
					"internalType": "uint256[]",
					"name": "team",
					"type": "uint256[]"
				}
			],
			"name": "startMatch",
			"outputs": [],
			"stateMutability": "nonpayable",
			"type": "function"
		},
		{
			"inputs": [
				{
					"internalType": "address",
					"name": "newOwner",
					"type": "address"
				}
			],
			"name": "transferOwnership",
			"outputs": [],
			"stateMutability": "nonpayable",
			"type": "function"
		},
		{
			"inputs": [],
			"name": "unitNFT",
			"outputs": [
				{
					"internalType": "contract StarForgeUnitNFT",
					"name": "",
					"type": "address"
				}
			],
			"stateMutability": "view",
			"type": "function"
		},
		{
			"inputs": [],
			"name": "unpause",
			"outputs": [],
			"stateMutability": "nonpayable",
			"type": "function"
		},
		{
			"inputs": [],
			"name": "withdraw",
			"outputs": [],
			"stateMutability": "nonpayable",
			"type": "function"
		}
	]
}