{
	"data": {
		"bytecode": {
			"linkReferences": {},
			"object": "608034608657601f61392738819003918201601f19168301916001600160401b03831184841017608a578084926040948552833981010312608657604b6020604583609e565b9201609e565b600a80546001600160a01b039384166001600160a01b031991821617909155600b805492909316911617905560405161387590816100b28239f35b5f80fd5b634e487b7160e01b5f52604160045260245ffd5b51906001600160a01b038216820360865756fe6080806040526004361015610012575f80fd5b5f3560e01c90816254766414611c635750806318dc318514611ba3578063201738e214611a2e57806329de58d1146119c45780632dc6d62f1461192b57806349c7c24a1461186b5780634e178659146118205780634ef2d6c1146117d7578063518c83b0146117ba57806351bdab141461099c5780636154ee971461092a578063732e9b85146108cf5780637e5c4f8b14610896578063a787c80b1461085a578063a95db7e2146107bc578063b2a4750014610783578063b654823e14610461578063b78f4c7014610424578063b92a40ad146103fc578063bb15a3b41461037a578063bbe1562714610309578063bdb729c91461028e578063c4f036c414610246578063c99ae45f146101bd578063d5654ae7146101955763f5905ca114610139575f80fd5b3461019157604036600319011261019157610152611d7f565b6001600160a01b03165f908152600360205260409020805460243591908210156101915760209161018291611e91565b90549060031b1c604051908152f35b5f80fd5b34610191575f36600319011261019157600b546040516001600160a01b039091168152602090f35b34610191576020366003190112610191576101d6611d7f565b506101206040516101e78282611f7e565b600881526101fd6020820192601f19018361253d565b604051918291602083019060208452518091526040830191905f5b818110610226575050500390f35b9193509160206102396001928651611df3565b9401910191849392610218565b346101915760403660031901126101915761025f611d7f565b6001600160a01b03165f9081526004602052604090206024356003811015610191576020910154604051908152f35b34610191575f36600319011261019157335f5260026020526102b260405f206126db565b335f5260036020526102c660405f206126db565b335f5260046020526102df60405f206003810190612654565b335f5260076020526102f360405f2061266a565b335f52600860205261030760405f2061266a565b005b34610191576020366003190112610191576001600160a01b0361032a611d7f565b165f52600160205260a060405f2080549060018101549061ffff60036002830154920154169163ffffffff6040519461ffff8116865260101c166020850152604084015260608301526080820152f35b34610191576020366003190112610191576001600160a01b0361039b611d7f565b165f52600360205260405f206040519081602082549182815201915f5260205f20905f5b8181106103e6576103e2856103d681870382611f7e565b60405191829182611ed6565b0390f35b82548452602090930192600192830192016103bf565b34610191575f36600319011261019157600a546040516001600160a01b039091168152602090f35b34610191576020366003190112610191576001600160a01b03610445611d7f565b165f526006602052602060ff60405f2054166040519015158152f35b602036600319011261019157600435335f525f60205261048760ff60405f205416611f9f565b600381101561074f57335f5260056020526104ae6104a88260405f20611d95565b50612560565b90602082019182511561071d57511561055257661c6bf526340000341061050d576104ea61030792335f52600360205260405f209051906120ba565b6105076104f5612712565b91335f52600560205260405f20611d95565b906120ee565b60405162461bcd60e51b815260206004820152601e60248201527f496e73756666696369656e74207061796d656e7420666f722072656c696300006044820152606490fd5b9050662386f26fc1000034106106d85760405160208101904282523360601b604082015244605482015282607482015260748152610591609482611f7e565b51902090600b8206600a0180600a116106c457600b8360081c0660080190816008116106c457600b8460101c06600901806009116106c45760ff60038660181c061660ff6003808860201c169760281c06169560018060a01b03600a5416926105f983612050565b61060288612050565b60048210156106b057604051630e3bd81160e31b815297602096899687955f95879561063f9560ff9182169582169490911692336004890161205a565b03925af19182156106a5575f9261066f575b5061066a61030792335f52600260205260405f206120ba565b6104ea565b91506020823d60201161069d575b8161068a60209383611f7e565b810103126101915790519061066a610651565b3d915061067d565b6040513d5f823e3d90fd5b634e487b7160e01b5f52602160045260245ffd5b634e487b7160e01b5f52601160045260245ffd5b60405162461bcd60e51b815260206004820152601d60248201527f496e73756666696369656e74207061796d656e7420666f7220756e69740000006044820152606490fd5b60405162461bcd60e51b815260206004820152600a602482015269115b5c1d1e481cdb1bdd60b21b6044820152606490fd5b60405162461bcd60e51b815260206004820152600c60248201526b125b9d985b1a59081cdb1bdd60a21b6044820152606490fd5b34610191576020366003190112610191576001600160a01b036107a4611d7f565b166001600160601b0360a01b600b541617600b555f80f35b34610191576020366003190112610191576107d5611d7f565b606090816040516107e68282611f7e565b3690376001600160a01b03165f90815260046020526040808220905191825b600382106108445750505061081a8282611f7e565b604051905f825b6003821061082e57505050f35b6020806001928551815201930191019091610821565b6001602081928554815201930191019091610805565b34610191576020366003190112610191576001600160a01b0361087b611d7f565b165f525f602052602060ff60405f2054166040519015158152f35b34610191576020366003190112610191576001600160a01b036108b7611d7f565b166001600160601b0360a01b600a541617600a555f80f35b34610191576040366003190112610191576108e8611d7f565b6001600160a01b03165f9081526008602052604090208054602435908110156101915761091a61ffff91602093611e70565b90549060031b1c16604051908152f35b34610191576020366003190112610191576001600160a01b0361094b611d7f565b165f52600260205260405f206040519081602082549182815201915f5260205f20905f5b818110610986576103e2856103d681870382611f7e565b825484526020909301926001928301920161096f565b34610191576040366003190112610191576004356001600160401b038111610191576109cc903690600401611ea6565b6024356001600160401b038111610191576109eb903690600401611ea6565b5f93919350335f525f602052610a0760ff60405f205416611f9f565b6004831015806117af575b156117765760405191610120610a288185611f7e565b60088452601f19015f5b81811061175f5750506040805142602082019081523360601b6bffffffffffffffffffffffff191692820192909252446054820152610a7e81607481015b03601f198101835282611f7e565b51902092610ac1600a5460018060a01b031696610ab9600b5460018060a01b031694335f52600160205261ffff60405f2054169836916125f5565b9436916125f5565b610ac961285a565b50610ad4845161291a565b945f5b8551811015610d0957610aea8187612691565b519060405191630b2adfdf60e11b8352600483015260c0826024818d5afa9182156106a5575f92610c3f575b506020820191610b2f8351610b2a81612050565b6134af565b90610b43608082019260ff845116906134f8565b9060ff806060830151169351169060a081019560ff875116610b88610b718351610b6c81612050565b61350c565b9860ff845191610b8083612050565b51169061353c565b6040845193610b9685612050565b5194610ba186612050565b01519460048610156106b05760019961ffff610c239860ff958694610bca9c6040519d8e611f62565b8d5260208d015260408c0152168060608b015260808a01521660a08801521660c08601525f60e08601525f610100860152610c0481612050565b610120850152610c1381612050565b61014084015261016083016129c3565b610c2d828a612691565b52610c388189612691565b5001610ad7565b90915060c0813d8211610d01575b81610c5a60c09383611f7e565b81010312610191576040519060c082018281106001600160401b03821117610ced5760405280516003811015610191578252602081015160038110156101915760208301526040810151600481101561019157610ce19160a0916040850152610cc5606082016129b5565b6060850152610cd6608082016129b5565b6080850152016129b5565b60a0820152908a610b16565b634e487b7160e01b5f52604160045260245ffd5b3d9150610c4d565b50859193610d1788846135b6565b5f935b855185101561100957610d2d8587612691565b5115610ffc57610d3d8587612691565b5195604051966368972d5960e01b885260048801525f87602481865afa9687156106a5575f97610f22575b505f5b8551811015610f0d57875160068110156106b057610db25760019060ff60208a01511660ff610da8610d9d848b612691565b5192828451166128e7565b1690525b01610d6b565b875160068110156106b057600103610df55760019060ff60208a01511660ff610dec6020610de0858c612691565b510192828451166128e7565b1690525b610dac565b875160068110156106b057600203610e235760019060ff60208a01511660ff610dec6040610de0858c612691565b875160068110156106b057600303610ebc5761ffff6060610e448389612691565b5101511690600360ff60208b0151160261ffff81169081036106c4576064019161ffff83116106c45761ffff610e7e6001946064936134df565b160461ffff6060610e8f848b612691565b51019116905261ffff6060610ea4838a612691565b510151166080610eb4838a612691565b510152610dac565b875160068110156106b057600403610eea5760019060ff60208a01511660ff610dec60a0610de0858c612691565b87519060068210156106b057600560019203610df0578160e0610eb4838a612691565b5092919550936001905b019394909194610d1a565b9096503d805f833e610f348183611f7e565b810190602081830312610191578051906001600160401b0382116101915701906060828203126101915760405191610f6b83611f0f565b80516006811015610191578352610f84602082016129b5565b60208401526040810151906001600160401b038211610191570181601f82011215610191578051906001600160401b038211610ced5760405192610fd2601f8401601f191660200185611f7e565b8284526020838301011161019157815f9260208093018386015e8301015260408201529587610d68565b9360019095929195610f17565b9050611015815161291a565b925f5b82518110156110de5761102b8184612691565b519060608201916110408351610b2a81612050565b9061105460c082019260ff845116906134f8565b9060ff8060a0830151169351169060e081019560ff87511661107d610b718351610b6c81612050565b608060408501519361108e85612050565b519461109986612050565b01519460048610156106b05760019961ffff6110c29860ff958694610bca9c6040519d8e611f62565b6110cc8288612691565b526110d78187612691565b5001611018565b5082846110ea836129e0565b6110f3816129e0565b6110fd835161288e565b90611108815161288e565b5f5b855181101561113a578061ffff60806111256001948a612691565b510151166111338287612691565b520161110a565b50909284925f5b8551811015611171578061ffff608061115c6001948a612691565b5101511661116a8287612691565b5201611141565b5083838660405194610f206111868188611f7e565b60788752601f19015f5b8181106116f45750505f9260015b60ff8116601281116112bd576111b387612ae7565b1580156116e4575b6112bd576003906111cb88612b1e565b6111d486612b1e565b0260ff81169081036106c457836001911c1660010160ff81116106c45760ff165f5b8160ff821610611211575b505061120c90612909565b61119e565b60778710156112a85761122388612ae7565b1580156112ad575b6112a85787878b87868a61123f8187612b87565b9190156112785761124f9661313e565b611261575b600160ff915b01166111f6565b95600161126f60ff926128fb565b97915050611254565b9561128296612d60565b611291575b600160ff9161125a565b95600161129f60ff926128fb565b97915050611287565b611201565b506112b786612ae7565b1561122b565b50509350506112cb90612ae7565b15906112d6816125de565b946112e46040519687611f7e565b818652601f196112f3836125de565b015f5b8181106116795750505f5b82811061164f5750505061131361285a565b9081526020810193845260408101928352606081019182528051151560405160208101916001600160601b03193360601b16835242603483015244605483015260f81b60748201526055815261136a607582611f7e565b519020938460095561139682511515335f52600660205260405f209060ff801983541691151516179055565b335f9081526007602052604090206113b29061266a565b61266a565b5f5b8451518110156113f057335f908152600760205260409020600191906113ea9061ffff6113e2848a51612691565b5116906126a5565b016113b4565b509091936114116113ad3360018060a01b03165f52600860205260405f2090565b5f5b85515181101561144757335f908152600860205260409020600191906114419061ffff6113e2848b51612691565b01611413565b5083817fc5187ed43ef6c494568f3ace9a84a990fe330816256f8610ba7630de7fc2a4856114a088611492885115159551915191604051968752606060208801526060870190611dbc565b908582036040870152611dbc565b928033940390a35f5b825190815181101561156f57827f60620dfbc2d4188642cffa14579da13e93400a7369bb90aac5a983beef88f66a6114e383600195612691565b5161010060ff82511660208084015115159360ff6040820151169060ff60608201511661ffff608083015116908661ffff60e0850151169301519360405198899788528688015260408701526060860152608085015260a084015260e060c084015280519182918260e0860152018484015e5f828201840152601f01601f19168101030190a2016114a9565b84511515335f52600160205260405f2090805f146116485760195b60ff63ffffffff845460101c1691160163ffffffff81116106c457825465ffffffff0000191660109190911b65ffffffff0000161782551561163357600181016115d481546128fb565b90555b805461ffff8116906037820263ffffffff81169081036106c457605a0163ffffffff81116106c45763ffffffff8091169160101c16101561161457005b61ffff81146106c457815461ffff191660019190910161ffff16179055005b6002810161164181546128fb565b90556115d7565b600a61158a565b8061165c60019284612691565b51611667828a612691565b526116728189612691565b5001611301565b60209060405161168881611f46565b5f81525f838201525f60408201525f60608201525f60808201525f60a08201525f60c08201525f60e082015260606101008201525f6101208201525f6101408201525f6101608201525f61018082015282828b010152016112f6565b506116ee85612ae7565b156111bb565b60209060405161170381611f46565b5f81525f838201525f60408201525f60608201525f60808201525f60a08201525f60c08201525f60e082015260606101008201525f6101208201525f6101408201525f6101608201525f61018082015282828b01015201611190565b60209061176a6124f3565b82828801015201610a32565b60405162461bcd60e51b8152602060048201526011602482015270496e76616c6964207465616d2073697a6560781b6044820152606490fd5b506008831115610a12565b34610191575f366003190112610191576020600954604051908152f35b34610191576040366003190112610191576117f0611d7f565b6001600160a01b03165f908152600260205260409020805460243591908210156101915760209161018291611e91565b3461019157604036600319011261019157611839611d7f565b6001600160a01b03165f9081526007602052604090208054602435908110156101915761091a61ffff91602093611e70565b3461019157602036600319011261019157611884611d7f565b6060604051611894606082611f7e565b5f5b828110611916578360018060a01b03165f52600560205260405f20604051906118be82611f0f565b5f825b600382106118f857604051845f825b600382106118de576103c084f35b60206118ed6001928551611df3565b9301910190916118d0565b6003602060019261190886612560565b8152019301910190916118c1565b6020906119216124f3565b8184015201611896565b34610191576020366003190112610191576001600160a01b0361194c611d7f565b16805f52600660205260ff60405f205416815f52600760205260405f20915f52600860205260405f20916119ba61198e611988600954936121e6565b946121e6565b6119ac60405195869515158652608060208701526080860190611dbc565b908482036040860152611dbc565b9060608301520390f35b5f36600319011261019157335f525f6020526119e660ff60405f205416611f9f565b6119f96611c37937e08000341015611fe2565b5f5b60038110611a0557005b600190611a28611a13612712565b335f5260056020526105078360405f20611d95565b016119fb565b5f36600319011261019157335f525f602052611a5060ff60405f205416611f9f565b611a63662386f26fc10000341015611fe2565b6040805142602082019081523360601b6bffffffffffffffffffffffff191692820192909252446054820152611a9c8160748101610a70565b519020600b8106600a0180600a116106c457600b8260081c0660080190816008116106c457600b8360101c06600901806009116106c45760ff60038560181c061660ff6003808760201c169660281c06169460018060a01b03600a541692611b0383612050565b611b0c87612050565b60048210156106b057604051630e3bd81160e31b815296602096889687955f958795611b499560ff9182169582169490911692336004890161205a565b03925af180156106a5575f90611b6f575b61030790335f52600260205260405f206120ba565b506020813d602011611b9b575b81611b8960209383611f7e565b81010312610191576103079051611b5a565b3d9150611b7c565b3461019157604036600319011261019157611bbc611d7f565b6001600160a01b03165f9081526005602052604090206024359060038210156101915761014091611bec91611d95565b5060ff80825416916002600182015491015490604051931515845260208401528181166040840152818160081c166060840152818160101c166080840152818160181c1660a0840152818160201c1660c0840152818160281c1660e0840152818160301c1661010084015260381c16610120820152f35b34610191575f36600319011261019157335f525f60205260ff60405f205416611d4457335f525f60205260405f20600160ff1982541617905560405160a081018181106001600160401b03821117610ced576040526001815261ffff600381602084015f8152604085015f815260608601905f8252611d2463ffffffff608089019460018652335f526001602052868060405f209b51161687198b5416178a555116889065ffffffff000082549160101b169065ffffffff00001916179055565b51600187015551600286015551169201911661ffff198254161790555f80f35b62461bcd60e51b815260206004820152601660248201527550726f66696c6520616c72656164792065786973747360501b6044820152606490fd5b600435906001600160a01b038216820361019157565b906003811015611da85760030201905f90565b634e487b7160e01b5f52603260045260245ffd5b90602080835192838152019201905f5b818110611dd95750505090565b825161ffff16845260209384019390920191600101611dcc565b9060ff61012061014093805115158452602081015160208501528260408201511660408501528260608201511660608501528260808201511660808501528260a08201511660a08501528260c08201511660c08501528260e08201511660e085015282610100820151166101008501520151166101208201520190565b9190918054831015611da8575f52601e60205f208360041c019260011b1690565b8054821015611da8575f5260205f2001905f90565b9181601f84011215610191578235916001600160401b038311610191576020808501948460051b01011161019157565b60206040818301928281528451809452019201905f5b818110611ef95750505090565b8251845260209384019390920191600101611eec565b606081019081106001600160401b03821117610ced57604052565b61014081019081106001600160401b03821117610ced57604052565b6101a081019081106001600160401b03821117610ced57604052565b61018081019081106001600160401b03821117610ced57604052565b90601f801991011681019081106001600160401b03821117610ced57604052565b15611fa657565b60405162461bcd60e51b815260206004820152601460248201527310dc99585d19481c1c9bd99a5b1948199a5c9cdd60621b6044820152606490fd5b15611fe957565b60405162461bcd60e51b8152602060048201526014602482015273125b9cdd59999a58da595b9d081c185e5b595b9d60621b6044820152606490fd5b811561202f570690565b634e487b7160e01b5f52601260045260245ffd5b919082018092116106c457565b600311156106b057565b6001600160a01b03909116815260e0810197969095949092909161207d81612050565b602087015261208b81612050565b604086015260048310156106b05760c09360ff809492819360608901521660808701521660a085015216910152565b8054600160401b811015610ced576120d791600182018155611e91565b819291549060031b91821b915f19901b1916179055565b906121d35760029061210f83511515829060ff801983541691151516179055565b60208301516001820155019060ff60408201511690825461ff00606083015160081b169262ff0000608084015160101b169363ff00000060a085015160181b169064ff0000000060c086015160201b169165ff000000000060e087015160281b169460ff60381b61012066ff0000000000006101008a015160301b1698015160381b169760ff60381b199566ff000000000000199465ff0000000000199364ff00000000199263ff000000199162ffffff1916171617161716171617161717179055565b634e487b7160e01b5f525f60045260245ffd5b90604051918281549182825260208201905f5260205f20925f905b80600f83011061240b576122979454918181106123f6575b8181106123de575b8181106123c7575b8181106123af575b818110612397575b81811061237f575b818110612367575b81811061234f575b818110612337575b81811061231f575b818110612307575b8181106122ef575b8181106122d7575b8181106122bf575b8181106122a7575b10612299575b500383611f7e565b565b60f01c81526020015f61228f565b92602060019161ffff8560e01c168152019301612289565b92602060019161ffff8560d01c168152019301612281565b92602060019161ffff8560c01c168152019301612279565b92602060019161ffff8560b01c168152019301612271565b92602060019161ffff8560a01c168152019301612269565b92602060019161ffff8560901c168152019301612261565b92602060019161ffff8560801c168152019301612259565b92602060019161ffff8560701c168152019301612251565b92602060019161ffff8560601c168152019301612249565b92602060019161ffff8560501c168152019301612241565b92602060019161ffff8560401c168152019301612239565b92602060019161ffff8560301c168152019301612231565b92602060019161ffff85831c168152019301612229565b92602060019161ffff8560101c168152019301612221565b92602060019161ffff85168152019301612219565b916010919350610200600191865461ffff8116825261ffff81861c16602083015261ffff8160201c16604083015261ffff8160301c16606083015261ffff8160401c16608083015261ffff8160501c1660a083015261ffff8160601c1660c083015261ffff8160701c1660e083015261ffff8160801c1661010083015261ffff8160901c1661012083015261ffff8160a01c1661014083015261ffff8160b01c1661016083015261ffff8160c01c1661018083015261ffff8160d01c166101a083015261ffff8160e01c166101c083015260f01c6101e0820152019401920185929391612201565b6040519061250082611f2a565b5f610120838281528260208201528260408201528260608201528260808201528260a08201528260c08201528260e0820152826101008201520152565b5f5b82811061254b57505050565b6020906125566124f3565b818401520161253f565b9060405161256d81611f2a565b61012060ff6002839582815416151585526001810154602086015201548181166040850152818160081c166060850152818160101c166080850152818160181c1660a0850152818160201c1660c0850152818160281c1660e0850152818160301c1661010085015260381c16910152565b6001600160401b038111610ced5760051b60200190565b929190612601816125de565b9361260f6040519586611f7e565b602085838152019160051b810192831161019157905b82821061263157505050565b8135815260209182019101612625565b818102929181159184041417156106c457565b81811061265f575050565b5f8155600101612654565b80545f825580612678575050565b612297915f52600f60205f20910160041c810190612654565b8051821015611da85760209160051b010190565b8054600160401b811015610ced576126c291600182018155611e70565b61ffff80839493549260031b9316831b921b1916179055565b80545f8255806126e9575050565b612297915f5260205f2090810190612654565b9061ffff8091169116019061ffff82116106c457565b61271a6124f3565b50604051602081019042825260208152612735604082611f7e565b51902060286064820610156127be57600d60ff60068306169160081c0660080190816008116106c457806103e8019161ffff83116106c45760ff9161ffff6040519461278086611f2a565b600186521660208501525f60408501525f60608501525f60808501525f60a08501525f60c08501525f60e08501526101008401521661012082015290565b600b8160281c06600a0180600a116106c457600b8260301c0660080190816008116106c457600b8360381c0660090190816009116106c45760ff9283809260036040519761280b89611f2a565b5f89525f60208a015283828260101c061660408a015283828260201c061660608a015260181c1660808801521660a08601521660c08401521660e08201525f6101008201525f61012082015290565b60405190608082018281106001600160401b03821117610ced57604052606080835f81528160208201528160408201520152565b90612898826125de565b6128a56040519182611f7e565b82815280926128b6601f19916125de565b0190602036910137565b60021b906103fc60fc8316921682036106c457565b60ff60029116019060ff82116106c457565b9060ff8091169116019060ff82116106c457565b5f1981146106c45760010190565b60ff1660ff81146106c45760010190565b90612924826125de565b6129316040519182611f7e565b8281528092612942601f19916125de565b01905f5b82811061295257505050565b60209060405161296181611f62565b5f81525f838201525f60408201525f60608201525f60808201525f60a08201525f60c08201525f60e08201525f6101008201525f6101208201525f6101408201525f61016082015282828501015201612946565b519060ff8216820361019157565b60048210156106b05752565b906003811015611da85760051b0190565b604051919060606129f18185611f7e565b60603685375f5b8251811015612a70578061ffff83612a1260019487612691565b51015116612a21575b016129f8565b60ff610120612a308387612691565b510151612a3c81612050565b612a4581612050565b1660ff612a67612a6082612a59858c6129cf565b5116612909565b92896129cf565b91169052612a1b565b50505f5b8151811015612ae15780600360ff612ab181610120612a9560019789612691565b510151612aa181612050565b612aaa81612050565b16886129cf565b51161015612ac0575b01612a74565b612aca8184612691565b5160ff612ad9818351166128d5565b169052612aba565b50509050565b5f5b8151811015612b185761ffff6060612b018385612691565b51015116612b1157600101612ae9565b5050600190565b50505f90565b5f5b8151811015612b83578061ffff6060612b3b60019486612691565b51015116612b4a575b01612b20565b60ff6040612b588386612691565b5101511661ffff612b7b610100612b6f8588612691565b510192828451166126fc565b169052612b44565b5050565b905f905f5f945f915f5b8651811015612c1657612bbd612bb66060612bac848b612691565b51015161ffff1690565b61ffff1690565b151580612bf7575b612bd2575b600101612b91565b9650509250612be7610100612bac8787612691565b9260018060ff8816979050612bca565b50612c08610100612bac838a612691565b61ffff808816911611612bc5565b5091949092955f5b8751811015612c9457612c39612bb66060612bac848c612691565b151580612c75575b612c4e575b600101612c1e565b955091509250612c64610100612bac8688612691565b925f91600160ff8716969050612c46565b50612c86610100612bac838b612691565b61ffff808816911611612c41565b50919361ffff90959193951615612cea5791610100915f93858514612ce25750955b848414612cd35750612ccc9060ff871690612691565b5101529190565b612ccc915060ff871690612691565b905095612cb6565b5050612d0a92939150612cfc81612b1e565b612d0582612b1e565b612b87565b9091565b61ffff5f199116019061ffff82116106c457565b9061ffff8091169116039061ffff82116106c457565b60405190612d47604083611f7e565b600a82526913185cdd0814dd185b9960b21b6020830152565b959160ff909794959391971661ffff6060612d7b838a612691565b5101511615613132575f955f5b8951811015612dc55761ffff6060612da0838d612691565b51015116612db1575b600101612d88565b96612dbd6001916128fb565b979050612da9565b5090929497919395968715613126575f976001810361309357505f5b83518110156130855761ffff6060612df98387612691565b51015116612e0957600101612de1565b909192939495969750915b61ffff6060612e238587612691565b510151169060ff612e348785612691565b51511660ff6020612e458789612691565b5101511660ff60a0612e578a88612691565b5101511660ff60c0612e69898b612691565b510151169160038c02948c86046003148d1517156106c457612e8c951c936136bc565b908061ffff806060612e9e898b612691565b5101511691161161306c575b5f60e0612eb78789612691565b51015115158061304c575b1561302257505050612ee561ffff6060612edc8688612691565b51015116612d0e565b60016060612ef38688612691565b510152600191612f01612d38565b925b613012575b61ffff6060612f178789612691565b5101511691610160612f4b89610140612f30828a612691565b51015197612f3d89612050565b612f4689612050565b612691565b5101519560048710156106b057610160612f8282610140612f6c828d612691565b5101519a612f798c612050565b612f468c612050565b5101519860048a10156106b0576040519a612f9c8c611f46565b60ff168b5260208b015f905260408b015260ff1660608a015261ffff168060808a015260a089015260c088015260e087015261010086015260ff1661012085015260ff1661014084015260ff1661016083015260ff166101808201526130028284612691565b5261300c91612691565b50600190565b915061301c612d38565b91612f08565b6060613032878996949596612691565b510161ffff6130448582845116612d22565b169052612f03565b5061ffff606061305c888a612691565b5101511661ffff83161015612ec2565b5061ffff606061307c8688612691565b51015116612eaa565b509096919293949596612e14565b6130bc919850826130b68860ff6130b08a9998979e9c9b9a6128c0565b16612043565b1c612025565b975f975f5b83518110156131165761ffff60606130d98387612691565b510151166130ea575b6001016130c1565b988a8114613105576130fd6001916128fb565b9990506130e2565b509193959790929496985091612e14565b5091939597509791939597612e14565b50505050505050505f90565b50505050925050505f90565b959160ff909794959391971661ffff6060613159838a612691565b5101511615613132575f955f5b89518110156131a35761ffff606061317e838d612691565b5101511661318f575b600101613166565b9661319b6001916128fb565b979050613187565b5090929497919395968715613126575f976001810361342857505f5b835181101561341a5761ffff60606131d78387612691565b510151166131e7576001016131bf565b909192939495969750915b61ffff60606132018587612691565b510151169060ff6132128785612691565b51511660ff60206132238789612691565b5101511660ff60a06132358a88612691565b5101511660ff60c0613247898b612691565b510151169160038c02948c86046003148d1517156106c45761326a951c936136bc565b908061ffff80606061327c898b612691565b51015116911611613401575b5f60e06132958789612691565b5101511515806133e1575b156133b7575050506132ba61ffff6060612edc8688612691565b600160606132c88688612691565b5101526001916132d6612d38565b925b6133a7575b61ffff60606132ec8789612691565b510151169161016061330589610140612f30828a612691565b5101519560048710156106b05761016061332682610140612f6c828d612691565b5101519860048a10156106b0576040519a6133408c611f46565b60ff168b5260208b016001905260408b015260ff1660608a015261ffff168060808a015260a089015260c088015260e087015261010086015260ff1661012085015260ff1661014084015260ff1661016083015260ff166101808201526130028284612691565b91506133b1612d38565b916132dd565b60606133c7878996949596612691565b510161ffff6133d98582845116612d22565b1690526132d8565b5061ffff60606133f1888a612691565b5101511661ffff831610156132a0565b5061ffff60606134118688612691565b51015116613288565b5090969192939495966131f2565b613445919850826130b68860ff6130b08a9998979e9c9b9a6128c0565b975f975f5b835181101561349f5761ffff60606134628387612691565b51015116613473575b60010161344a565b988a811461348e576134866001916128fb565b99905061346b565b5091939597909294969850916131f2565b50919395975097919395976131f2565b6134b881612050565b80156134d9576001906134ca81612050565b146134d457606990565b605290565b50604190565b9061ffff8091169116029061ffff82169182036106c457565b9060021b6103fc16613509916126fc565b90565b61351581612050565b80156135365760019061352781612050565b1461353157601490565b600c90565b50600690565b9060ff6016911604908161354f82612050565b600182146135a1575b5060029061356581612050565b1461357d575b601260ff821611156135095750601290565b60ff600491160160ff81111561356b57634e487b7160e01b5f52601160045260245ffd5b60029192506135af906128d5565b9190613558565b919061ffff1680156136b757600381029081046003036106c45760640191826064116106c4575f5b8151811015612ae1578060ff606461360587836135fd60019789612691565b515116612641565b04166136118285612691565b515260ff606461363187836020613628878a612691565b51015116612641565b0416602061363f8386612691565b51015260ff606461365787836040613628878a612691565b041660406136658386612691565b51015261ffff606461367e87836060613628878a612691565b0416606061368c8386612691565b51015261ffff606061369e8386612691565b5101511660806136ae8386612691565b510152016135de565b509050565b60609594929360ff168015801591908261381c575b50506137f15760ff169061ffff6023840616606e0161ffff81116106c45760ff6136fd601292856134df565b92160161ffff81116106c45761ffff1690811561202f5761ffff160490600261ffff8316106137d4575b5061ffff60258360081c061660520161ffff81116106c45761374e61ffff916064936134df565b16049060ff8293169081151591826137ab575b505061376c57509190565b600d92935061ffff9150160261ffff81169081036106c457600a900490604051613797604082611f7e565b600481526310d4925560e21b602082015290565b601c9192500261ffff81169081036106c45761ffff600a60649204169160181c06105f80613761565b60ff9150600390041660020160ff81116106c45760ff165f613727565b5050505090505f90604051613807604082611f7e565b6005815264444f44474560d81b602082015290565b9091506019820291820460191417156106c457600a900460648406105f806136d156fea264697066735822122033319d1d43fe364e842a28aabc413200f4f8a980e10b57526efb3d7d46cdd0f964736f6c634300081e0033",
			"opcodes": "PUSH1 0x80 CALLVALUE PUSH1 0x86 JUMPI PUSH1 0x1F PUSH2 0x3927 CODESIZE DUP2 SWAP1 SUB SWAP2 DUP3 ADD PUSH1 0x1F NOT AND DUP4 ADD SWAP2 PUSH1 0x1 PUSH1 0x1 PUSH1 0x40 SHL SUB DUP4 GT DUP5 DUP5 LT OR PUSH1 0x8A JUMPI DUP1 DUP5 SWAP3 PUSH1 0x40 SWAP5 DUP6 MSTORE DUP4 CODECOPY DUP2 ADD SUB SLT PUSH1 0x86 JUMPI PUSH1 0x4B PUSH1 0x20 PUSH1 0x45 DUP4 PUSH1 0x9E JUMP JUMPDEST SWAP3 ADD PUSH1 0x9E JUMP JUMPDEST PUSH1 0xA DUP1 SLOAD PUSH1 0x1 PUSH1 0x1 PUSH1 0xA0 SHL SUB SWAP4 DUP5 AND PUSH1 0x1 PUSH1 0x1 PUSH1 0xA0 SHL SUB NOT SWAP2 DUP3 AND OR SWAP1 SWAP2 SSTORE PUSH1 0xB DUP1 SLOAD SWAP3 SWAP1 SWAP4 AND SWAP2 AND OR SWAP1 SSTORE PUSH1 0x40 MLOAD PUSH2 0x3875 SWAP1 DUP2 PUSH2 0xB2 DUP3 CODECOPY RETURN JUMPDEST PUSH0 DUP1 REVERT JUMPDEST PUSH4 0x4E487B71 PUSH1 0xE0 SHL PUSH0 MSTORE PUSH1 0x41 PUSH1 0x4 MSTORE PUSH1 0x24 PUSH0 REVERT JUMPDEST MLOAD SWAP1 PUSH1 0x1 PUSH1 0x1 PUSH1 0xA0 SHL SUB DUP3 AND DUP3 SUB PUSH1 0x86 JUMPI JUMP INVALID PUSH1 0x80 DUP1 PUSH1 0x40 MSTORE PUSH1 0x4 CALLDATASIZE LT ISZERO PUSH2 0x12 JUMPI PUSH0 DUP1 REVERT JUMPDEST PUSH0 CALLDATALOAD PUSH1 0xE0 SHR SWAP1 DUP2 PUSH3 0x547664 EQ PUSH2 0x1C63 JUMPI POP DUP1 PUSH4 0x18DC3185 EQ PUSH2 0x1BA3 JUMPI DUP1 PUSH4 0x201738E2 EQ PUSH2 0x1A2E JUMPI DUP1 PUSH4 0x29DE58D1 EQ PUSH2 0x19C4 JUMPI DUP1 PUSH4 0x2DC6D62F EQ PUSH2 0x192B JUMPI DUP1 PUSH4 0x49C7C24A EQ PUSH2 0x186B JUMPI DUP1 PUSH4 0x4E178659 EQ PUSH2 0x1820 JUMPI DUP1 PUSH4 0x4EF2D6C1 EQ PUSH2 0x17D7 JUMPI DUP1 PUSH4 0x518C83B0 EQ PUSH2 0x17BA JUMPI DUP1 PUSH4 0x51BDAB14 EQ PUSH2 0x99C JUMPI DUP1 PUSH4 0x6154EE97 EQ PUSH2 0x92A JUMPI DUP1 PUSH4 0x732E9B85 EQ PUSH2 0x8CF JUMPI DUP1 PUSH4 0x7E5C4F8B EQ PUSH2 0x896 JUMPI DUP1 PUSH4 0xA787C80B EQ PUSH2 0x85A JUMPI DUP1 PUSH4 0xA95DB7E2 EQ PUSH2 0x7BC JUMPI DUP1 PUSH4 0xB2A47500 EQ PUSH2 0x783 JUMPI DUP1 PUSH4 0xB654823E EQ PUSH2 0x461 JUMPI DUP1 PUSH4 0xB78F4C70 EQ PUSH2 0x424 JUMPI DUP1 PUSH4 0xB92A40AD EQ PUSH2 0x3FC JUMPI DUP1 PUSH4 0xBB15A3B4 EQ PUSH2 0x37A JUMPI DUP1 PUSH4 0xBBE15627 EQ PUSH2 0x309 JUMPI DUP1 PUSH4 0xBDB729C9 EQ PUSH2 0x28E JUMPI DUP1 PUSH4 0xC4F036C4 EQ PUSH2 0x246 JUMPI DUP1 PUSH4 0xC99AE45F EQ PUSH2 0x1BD JUMPI DUP1 PUSH4 0xD5654AE7 EQ PUSH2 0x195 JUMPI PUSH4 0xF5905CA1 EQ PUSH2 0x139 JUMPI PUSH0 DUP1 REVERT JUMPDEST CALLVALUE PUSH2 0x191 JUMPI PUSH1 0x40 CALLDATASIZE PUSH1 0x3 NOT ADD SLT PUSH2 0x191 JUMPI PUSH2 0x152 PUSH2 0x1D7F JUMP JUMPDEST PUSH1 0x1 PUSH1 0x1 PUSH1 0xA0 SHL SUB AND PUSH0 SWAP1 DUP2 MSTORE PUSH1 0x3 PUSH1 0x20 MSTORE PUSH1 0x40 SWAP1 KECCAK256 DUP1 SLOAD PUSH1 0x24 CALLDATALOAD SWAP2 SWAP1 DUP3 LT ISZERO PUSH2 0x191 JUMPI PUSH1 0x20 SWAP2 PUSH2 0x182 SWAP2 PUSH2 0x1E91 JUMP JUMPDEST SWAP1 SLOAD SWAP1 PUSH1 0x3 SHL SHR PUSH1 0x40 MLOAD SWAP1 DUP2 MSTORE RETURN JUMPDEST PUSH0 DUP1 REVERT JUMPDEST CALLVALUE PUSH2 0x191 JUMPI PUSH0 CALLDATASIZE PUSH1 0x3 NOT ADD SLT PUSH2 0x191 JUMPI PUSH1 0xB SLOAD PUSH1 0x40 MLOAD PUSH1 0x1 PUSH1 0x1 PUSH1 0xA0 SHL SUB SWAP1 SWAP2 AND DUP2 MSTORE PUSH1 0x20 SWAP1 RETURN JUMPDEST CALLVALUE PUSH2 0x191 JUMPI PUSH1 0x20 CALLDATASIZE PUSH1 0x3 NOT ADD SLT PUSH2 0x191 JUMPI PUSH2 0x1D6 PUSH2 0x1D7F JUMP JUMPDEST POP PUSH2 0x120 PUSH1 0x40 MLOAD PUSH2 0x1E7 DUP3 DUP3 PUSH2 0x1F7E JUMP JUMPDEST PUSH1 0x8 DUP2 MSTORE PUSH2 0x1FD PUSH1 0x20 DUP3 ADD SWAP3 PUSH1 0x1F NOT ADD DUP4 PUSH2 0x253D JUMP JUMPDEST PUSH1 0x40 MLOAD SWAP2 DUP3 SWAP2 PUSH1 0x20 DUP4 ADD SWAP1 PUSH1 0x20 DUP5 MSTORE MLOAD DUP1 SWAP2 MSTORE PUSH1 0x40 DUP4 ADD SWAP2 SWAP1 PUSH0 JUMPDEST DUP2 DUP2 LT PUSH2 0x226 JUMPI POP POP POP SUB SWAP1 RETURN JUMPDEST SWAP2 SWAP4 POP SWAP2 PUSH1 0x20 PUSH2 0x239 PUSH1 0x1 SWAP3 DUP7 MLOAD PUSH2 0x1DF3 JUMP JUMPDEST SWAP5 ADD SWAP2 ADD SWAP2 DUP5 SWAP4 SWAP3 PUSH2 0x218 JUMP JUMPDEST CALLVALUE PUSH2 0x191 JUMPI PUSH1 0x40 CALLDATASIZE PUSH1 0x3 NOT ADD SLT PUSH2 0x191 JUMPI PUSH2 0x25F PUSH2 0x1D7F JUMP JUMPDEST PUSH1 0x1 PUSH1 0x1 PUSH1 0xA0 SHL SUB AND PUSH0 SWAP1 DUP2 MSTORE PUSH1 0x4 PUSH1 0x20 MSTORE PUSH1 0x40 SWAP1 KECCAK256 PUSH1 0x24 CALLDATALOAD PUSH1 0x3 DUP2 LT ISZERO PUSH2 0x191 JUMPI PUSH1 0x20 SWAP2 ADD SLOAD PUSH1 0x40 MLOAD SWAP1 DUP2 MSTORE RETURN JUMPDEST CALLVALUE PUSH2 0x191 JUMPI PUSH0 CALLDATASIZE PUSH1 0x3 NOT ADD SLT PUSH2 0x191 JUMPI CALLER PUSH0 MSTORE PUSH1 0x2 PUSH1 0x20 MSTORE PUSH2 0x2B2 PUSH1 0x40 PUSH0 KECCAK256 PUSH2 0x26DB JUMP JUMPDEST CALLER PUSH0 MSTORE PUSH1 0x3 PUSH1 0x20 MSTORE PUSH2 0x2C6 PUSH1 0x40 PUSH0 KECCAK256 PUSH2 0x26DB JUMP JUMPDEST CALLER PUSH0 MSTORE PUSH1 0x4 PUSH1 0x20 MSTORE PUSH2 0x2DF PUSH1 0x40 PUSH0 KECCAK256 PUSH1 0x3 DUP2 ADD SWAP1 PUSH2 0x2654 JUMP JUMPDEST CALLER PUSH0 MSTORE PUSH1 0x7 PUSH1 0x20 MSTORE PUSH2 0x2F3 PUSH1 0x40 PUSH0 KECCAK256 PUSH2 0x266A JUMP JUMPDEST CALLER PUSH0 MSTORE PUSH1 0x8 PUSH1 0x20 MSTORE PUSH2 0x307 PUSH1 0x40 PUSH0 KECCAK256 PUSH2 0x266A JUMP JUMPDEST STOP JUMPDEST CALLVALUE PUSH2 0x191 JUMPI PUSH1 0x20 CALLDATASIZE PUSH1 0x3 NOT ADD SLT PUSH2 0x191 JUMPI PUSH1 0x1 PUSH1 0x1 PUSH1 0xA0 SHL SUB PUSH2 0x32A PUSH2 0x1D7F JUMP JUMPDEST AND PUSH0 MSTORE PUSH1 0x1 PUSH1 0x20 MSTORE PUSH1 0xA0 PUSH1 0x40 PUSH0 KECCAK256 DUP1 SLOAD SWAP1 PUSH1 0x1 DUP2 ADD SLOAD SWAP1 PUSH2 0xFFFF PUSH1 0x3 PUSH1 0x2 DUP4 ADD SLOAD SWAP3 ADD SLOAD AND SWAP2 PUSH4 0xFFFFFFFF PUSH1 0x40 MLOAD SWAP5 PUSH2 0xFFFF DUP2 AND DUP7 MSTORE PUSH1 0x10 SHR AND PUSH1 0x20 DUP6 ADD MSTORE PUSH1 0x40 DUP5 ADD MSTORE PUSH1 0x60 DUP4 ADD MSTORE PUSH1 0x80 DUP3 ADD MSTORE RETURN JUMPDEST CALLVALUE PUSH2 0x191 JUMPI PUSH1 0x20 CALLDATASIZE PUSH1 0x3 NOT ADD SLT PUSH2 0x191 JUMPI PUSH1 0x1 PUSH1 0x1 PUSH1 0xA0 SHL SUB PUSH2 0x39B PUSH2 0x1D7F JUMP JUMPDEST AND PUSH0 MSTORE PUSH1 0x3 PUSH1 0x20 MSTORE PUSH1 0x40 PUSH0 KECCAK256 PUSH1 0x40 MLOAD SWAP1 DUP2 PUSH1 0x20 DUP3 SLOAD SWAP2 DUP3 DUP2 MSTORE ADD SWAP2 PUSH0 MSTORE PUSH1 0x20 PUSH0 KECCAK256 SWAP1 PUSH0 JUMPDEST DUP2 DUP2 LT PUSH2 0x3E6 JUMPI PUSH2 0x3E2 DUP6 PUSH2 0x3D6 DUP2 DUP8 SUB DUP3 PUSH2 0x1F7E JUMP JUMPDEST PUSH1 0x40 MLOAD SWAP2 DUP3 SWAP2 DUP3 PUSH2 0x1ED6 JUMP JUMPDEST SUB SWAP1 RETURN JUMPDEST DUP3 SLOAD DUP5 MSTORE PUSH1 0x20 SWAP1 SWAP4 ADD SWAP3 PUSH1 0x1 SWAP3 DUP4 ADD SWAP3 ADD PUSH2 0x3BF JUMP JUMPDEST CALLVALUE PUSH2 0x191 JUMPI PUSH0 CALLDATASIZE PUSH1 0x3 NOT ADD SLT PUSH2 0x191 JUMPI PUSH1 0xA SLOAD PUSH1 0x40 MLOAD PUSH1 0x1 PUSH1 0x1 PUSH1 0xA0 SHL SUB SWAP1 SWAP2 AND DUP2 MSTORE PUSH1 0x20 SWAP1 RETURN JUMPDEST CALLVALUE PUSH2 0x191 JUMPI PUSH1 0x20 CALLDATASIZE PUSH1 0x3 NOT ADD SLT PUSH2 0x191 JUMPI PUSH1 0x1 PUSH1 0x1 PUSH1 0xA0 SHL SUB PUSH2 0x445 PUSH2 0x1D7F JUMP JUMPDEST AND PUSH0 MSTORE PUSH1 0x6 PUSH1 0x20 MSTORE PUSH1 0x20 PUSH1 0xFF PUSH1 0x40 PUSH0 KECCAK256 SLOAD AND PUSH1 0x40 MLOAD SWAP1 ISZERO ISZERO DUP2 MSTORE RETURN JUMPDEST PUSH1 0x20 CALLDATASIZE PUSH1 0x3 NOT ADD SLT PUSH2 0x191 JUMPI PUSH1 0x4 CALLDATALOAD CALLER PUSH0 MSTORE PUSH0 PUSH1 0x20 MSTORE PUSH2 0x487 PUSH1 0xFF PUSH1 0x40 PUSH0 KECCAK256 SLOAD AND PUSH2 0x1F9F JUMP JUMPDEST PUSH1 0x3 DUP2 LT ISZERO PUSH2 0x74F JUMPI CALLER PUSH0 MSTORE PUSH1 0x5 PUSH1 0x20 MSTORE PUSH2 0x4AE PUSH2 0x4A8 DUP3 PUSH1 0x40 PUSH0 KECCAK256 PUSH2 0x1D95 JUMP JUMPDEST POP PUSH2 0x2560 JUMP JUMPDEST SWAP1 PUSH1 0x20 DUP3 ADD SWAP2 DUP3 MLOAD ISZERO PUSH2 0x71D JUMPI MLOAD ISZERO PUSH2 0x552 JUMPI PUSH7 0x1C6BF526340000 CALLVALUE LT PUSH2 0x50D JUMPI PUSH2 0x4EA PUSH2 0x307 SWAP3 CALLER PUSH0 MSTORE PUSH1 0x3 PUSH1 0x20 MSTORE PUSH1 0x40 PUSH0 KECCAK256 SWAP1 MLOAD SWAP1 PUSH2 0x20BA JUMP JUMPDEST PUSH2 0x507 PUSH2 0x4F5 PUSH2 0x2712 JUMP JUMPDEST SWAP2 CALLER PUSH0 MSTORE PUSH1 0x5 PUSH1 0x20 MSTORE PUSH1 0x40 PUSH0 KECCAK256 PUSH2 0x1D95 JUMP JUMPDEST SWAP1 PUSH2 0x20EE JUMP JUMPDEST PUSH1 0x40 MLOAD PUSH3 0x461BCD PUSH1 0xE5 SHL DUP2 MSTORE PUSH1 0x20 PUSH1 0x4 DUP3 ADD MSTORE PUSH1 0x1E PUSH1 0x24 DUP3 ADD MSTORE PUSH32 0x496E73756666696369656E74207061796D656E7420666F722072656C69630000 PUSH1 0x44 DUP3 ADD MSTORE PUSH1 0x64 SWAP1 REVERT JUMPDEST SWAP1 POP PUSH7 0x2386F26FC10000 CALLVALUE LT PUSH2 0x6D8 JUMPI PUSH1 0x40 MLOAD PUSH1 0x20 DUP2 ADD SWAP1 TIMESTAMP DUP3 MSTORE CALLER PUSH1 0x60 SHL PUSH1 0x40 DUP3 ADD MSTORE PREVRANDAO PUSH1 0x54 DUP3 ADD MSTORE DUP3 PUSH1 0x74 DUP3 ADD MSTORE PUSH1 0x74 DUP2 MSTORE PUSH2 0x591 PUSH1 0x94 DUP3 PUSH2 0x1F7E JUMP JUMPDEST MLOAD SWAP1 KECCAK256 SWAP1 PUSH1 0xB DUP3 MOD PUSH1 0xA ADD DUP1 PUSH1 0xA GT PUSH2 0x6C4 JUMPI PUSH1 0xB DUP4 PUSH1 0x8 SHR MOD PUSH1 0x8 ADD SWAP1 DUP2 PUSH1 0x8 GT PUSH2 0x6C4 JUMPI PUSH1 0xB DUP5 PUSH1 0x10 SHR MOD PUSH1 0x9 ADD DUP1 PUSH1 0x9 GT PUSH2 0x6C4 JUMPI PUSH1 0xFF PUSH1 0x3 DUP7 PUSH1 0x18 SHR MOD AND PUSH1 0xFF PUSH1 0x3 DUP1 DUP9 PUSH1 0x20 SHR AND SWAP8 PUSH1 0x28 SHR MOD AND SWAP6 PUSH1 0x1 DUP1 PUSH1 0xA0 SHL SUB PUSH1 0xA SLOAD AND SWAP3 PUSH2 0x5F9 DUP4 PUSH2 0x2050 JUMP JUMPDEST PUSH2 0x602 DUP9 PUSH2 0x2050 JUMP JUMPDEST PUSH1 0x4 DUP3 LT ISZERO PUSH2 0x6B0 JUMPI PUSH1 0x40 MLOAD PUSH4 0xE3BD811 PUSH1 0xE3 SHL DUP2 MSTORE SWAP8 PUSH1 0x20 SWAP7 DUP10 SWAP7 DUP8 SWAP6 PUSH0 SWAP6 DUP8 SWAP6 PUSH2 0x63F SWAP6 PUSH1 0xFF SWAP2 DUP3 AND SWAP6 DUP3 AND SWAP5 SWAP1 SWAP2 AND SWAP3 CALLER PUSH1 0x4 DUP10 ADD PUSH2 0x205A JUMP JUMPDEST SUB SWAP3 GAS CALL SWAP2 DUP3 ISZERO PUSH2 0x6A5 JUMPI PUSH0 SWAP3 PUSH2 0x66F JUMPI JUMPDEST POP PUSH2 0x66A PUSH2 0x307 SWAP3 CALLER PUSH0 MSTORE PUSH1 0x2 PUSH1 0x20 MSTORE PUSH1 0x40 PUSH0 KECCAK256 PUSH2 0x20BA JUMP JUMPDEST PUSH2 0x4EA JUMP JUMPDEST SWAP2 POP PUSH1 0x20 DUP3 RETURNDATASIZE PUSH1 0x20 GT PUSH2 0x69D JUMPI JUMPDEST DUP2 PUSH2 0x68A PUSH1 0x20 SWAP4 DUP4 PUSH2 0x1F7E JUMP JUMPDEST DUP2 ADD SUB SLT PUSH2 0x191 JUMPI SWAP1 MLOAD SWAP1 PUSH2 0x66A PUSH2 0x651 JUMP JUMPDEST RETURNDATASIZE SWAP2 POP PUSH2 0x67D JUMP JUMPDEST PUSH1 0x40 MLOAD RETURNDATASIZE PUSH0 DUP3 RETURNDATACOPY RETURNDATASIZE SWAP1 REVERT JUMPDEST PUSH4 0x4E487B71 PUSH1 0xE0 SHL PUSH0 MSTORE PUSH1 0x21 PUSH1 0x4 MSTORE PUSH1 0x24 PUSH0 REVERT JUMPDEST PUSH4 0x4E487B71 PUSH1 0xE0 SHL PUSH0 MSTORE PUSH1 0x11 PUSH1 0x4 MSTORE PUSH1 0x24 PUSH0 REVERT JUMPDEST PUSH1 0x40 MLOAD PUSH3 0x461BCD PUSH1 0xE5 SHL DUP2 MSTORE PUSH1 0x20 PUSH1 0x4 DUP3 ADD MSTORE PUSH1 0x1D PUSH1 0x24 DUP3 ADD MSTORE PUSH32 0x496E73756666696369656E74207061796D656E7420666F7220756E6974000000 PUSH1 0x44 DUP3 ADD MSTORE PUSH1 0x64 SWAP1 REVERT JUMPDEST PUSH1 0x40 MLOAD PUSH3 0x461BCD PUSH1 0xE5 SHL DUP2 MSTORE PUSH1 0x20 PUSH1 0x4 DUP3 ADD MSTORE PUSH1 0xA PUSH1 0x24 DUP3 ADD MSTORE PUSH10 0x115B5C1D1E481CDB1BDD PUSH1 0xB2 SHL PUSH1 0x44 DUP3 ADD MSTORE PUSH1 0x64 SWAP1 REVERT JUMPDEST PUSH1 0x40 MLOAD PUSH3 0x461BCD PUSH1 0xE5 SHL DUP2 MSTORE PUSH1 0x20 PUSH1 0x4 DUP3 ADD MSTORE PUSH1 0xC PUSH1 0x24 DUP3 ADD MSTORE PUSH12 0x125B9D985B1A59081CDB1BDD PUSH1 0xA2 SHL PUSH1 0x44 DUP3 ADD MSTORE PUSH1 0x64 SWAP1 REVERT JUMPDEST CALLVALUE PUSH2 0x191 JUMPI PUSH1 0x20 CALLDATASIZE PUSH1 0x3 NOT ADD SLT PUSH2 0x191 JUMPI PUSH1 0x1 PUSH1 0x1 PUSH1 0xA0 SHL SUB PUSH2 0x7A4 PUSH2 0x1D7F JUMP JUMPDEST AND PUSH1 0x1 PUSH1 0x1 PUSH1 0x60 SHL SUB PUSH1 0xA0 SHL PUSH1 0xB SLOAD AND OR PUSH1 0xB SSTORE PUSH0 DUP1 RETURN JUMPDEST CALLVALUE PUSH2 0x191 JUMPI PUSH1 0x20 CALLDATASIZE PUSH1 0x3 NOT ADD SLT PUSH2 0x191 JUMPI PUSH2 0x7D5 PUSH2 0x1D7F JUMP JUMPDEST PUSH1 0x60 SWAP1 DUP2 PUSH1 0x40 MLOAD PUSH2 0x7E6 DUP3 DUP3 PUSH2 0x1F7E JUMP JUMPDEST CALLDATASIZE SWAP1 CALLDATACOPY PUSH1 0x1 PUSH1 0x1 PUSH1 0xA0 SHL SUB AND PUSH0 SWAP1 DUP2 MSTORE PUSH1 0x4 PUSH1 0x20 MSTORE PUSH1 0x40 DUP1 DUP3 KECCAK256 SWAP1 MLOAD SWAP2 DUP3 JUMPDEST PUSH1 0x3 DUP3 LT PUSH2 0x844 JUMPI POP POP POP PUSH2 0x81A DUP3 DUP3 PUSH2 0x1F7E JUMP JUMPDEST PUSH1 0x40 MLOAD SWAP1 PUSH0 DUP3 JUMPDEST PUSH1 0x3 DUP3 LT PUSH2 0x82E JUMPI POP POP POP RETURN JUMPDEST PUSH1 0x20 DUP1 PUSH1 0x1 SWAP3 DUP6 MLOAD DUP2 MSTORE ADD SWAP4 ADD SWAP2 ADD SWAP1 SWAP2 PUSH2 0x821 JUMP JUMPDEST PUSH1 0x1 PUSH1 0x20 DUP2 SWAP3 DUP6 SLOAD DUP2 MSTORE ADD SWAP4 ADD SWAP2 ADD SWAP1 SWAP2 PUSH2 0x805 JUMP JUMPDEST CALLVALUE PUSH2 0x191 JUMPI PUSH1 0x20 CALLDATASIZE PUSH1 0x3 NOT ADD SLT PUSH2 0x191 JUMPI PUSH1 0x1 PUSH1 0x1 PUSH1 0xA0 SHL SUB PUSH2 0x87B PUSH2 0x1D7F JUMP JUMPDEST AND PUSH0 MSTORE PUSH0 PUSH1 0x20 MSTORE PUSH1 0x20 PUSH1 0xFF PUSH1 0x40 PUSH0 KECCAK256 SLOAD AND PUSH1 0x40 MLOAD SWAP1 ISZERO ISZERO DUP2 MSTORE RETURN JUMPDEST CALLVALUE PUSH2 0x191 JUMPI PUSH1 0x20 CALLDATASIZE PUSH1 0x3 NOT ADD SLT PUSH2 0x191 JUMPI PUSH1 0x1 PUSH1 0x1 PUSH1 0xA0 SHL SUB PUSH2 0x8B7 PUSH2 0x1D7F JUMP JUMPDEST AND PUSH1 0x1 PUSH1 0x1 PUSH1 0x60 SHL SUB PUSH1 0xA0 SHL PUSH1 0xA SLOAD AND OR PUSH1 0xA SSTORE PUSH0 DUP1 RETURN JUMPDEST CALLVALUE PUSH2 0x191 JUMPI PUSH1 0x40 CALLDATASIZE PUSH1 0x3 NOT ADD SLT PUSH2 0x191 JUMPI PUSH2 0x8E8 PUSH2 0x1D7F JUMP JUMPDEST PUSH1 0x1 PUSH1 0x1 PUSH1 0xA0 SHL SUB AND PUSH0 SWAP1 DUP2 MSTORE PUSH1 0x8 PUSH1 0x20 MSTORE PUSH1 0x40 SWAP1 KECCAK256 DUP1 SLOAD PUSH1 0x24 CALLDATALOAD SWAP1 DUP2 LT ISZERO PUSH2 0x191 JUMPI PUSH2 0x91A PUSH2 0xFFFF SWAP2 PUSH1 0x20 SWAP4 PUSH2 0x1E70 JUMP JUMPDEST SWAP1 SLOAD SWAP1 PUSH1 0x3 SHL SHR AND PUSH1 0x40 MLOAD SWAP1 DUP2 MSTORE RETURN JUMPDEST CALLVALUE PUSH2 0x191 JUMPI PUSH1 0x20 CALLDATASIZE PUSH1 0x3 NOT ADD SLT PUSH2 0x191 JUMPI PUSH1 0x1 PUSH1 0x1 PUSH1 0xA0 SHL SUB PUSH2 0x94B PUSH2 0x1D7F JUMP JUMPDEST AND PUSH0 MSTORE PUSH1 0x2 PUSH1 0x20 MSTORE PUSH1 0x40 PUSH0 KECCAK256 PUSH1 0x40 MLOAD SWAP1 DUP2 PUSH1 0x20 DUP3 SLOAD SWAP2 DUP3 DUP2 MSTORE ADD SWAP2 PUSH0 MSTORE PUSH1 0x20 PUSH0 KECCAK256 SWAP1 PUSH0 JUMPDEST DUP2 DUP2 LT PUSH2 0x986 JUMPI PUSH2 0x3E2 DUP6 PUSH2 0x3D6 DUP2 DUP8 SUB DUP3 PUSH2 0x1F7E JUMP JUMPDEST DUP3 SLOAD DUP5 MSTORE PUSH1 0x20 SWAP1 SWAP4 ADD SWAP3 PUSH1 0x1 SWAP3 DUP4 ADD SWAP3 ADD PUSH2 0x96F JUMP JUMPDEST CALLVALUE PUSH2 0x191 JUMPI PUSH1 0x40 CALLDATASIZE PUSH1 0x3 NOT ADD SLT PUSH2 0x191 JUMPI PUSH1 0x4 CALLDATALOAD PUSH1 0x1 PUSH1 0x1 PUSH1 0x40 SHL SUB DUP2 GT PUSH2 0x191 JUMPI PUSH2 0x9CC SWAP1 CALLDATASIZE SWAP1 PUSH1 0x4 ADD PUSH2 0x1EA6 JUMP JUMPDEST PUSH1 0x24 CALLDATALOAD PUSH1 0x1 PUSH1 0x1 PUSH1 0x40 SHL SUB DUP2 GT PUSH2 0x191 JUMPI PUSH2 0x9EB SWAP1 CALLDATASIZE SWAP1 PUSH1 0x4 ADD PUSH2 0x1EA6 JUMP JUMPDEST PUSH0 SWAP4 SWAP2 SWAP4 POP CALLER PUSH0 MSTORE PUSH0 PUSH1 0x20 MSTORE PUSH2 0xA07 PUSH1 0xFF PUSH1 0x40 PUSH0 KECCAK256 SLOAD AND PUSH2 0x1F9F JUMP JUMPDEST PUSH1 0x4 DUP4 LT ISZERO DUP1 PUSH2 0x17AF JUMPI JUMPDEST ISZERO PUSH2 0x1776 JUMPI PUSH1 0x40 MLOAD SWAP2 PUSH2 0x120 PUSH2 0xA28 DUP2 DUP6 PUSH2 0x1F7E JUMP JUMPDEST PUSH1 0x8 DUP5 MSTORE PUSH1 0x1F NOT ADD PUSH0 JUMPDEST DUP2 DUP2 LT PUSH2 0x175F JUMPI POP POP PUSH1 0x40 DUP1 MLOAD TIMESTAMP PUSH1 0x20 DUP3 ADD SWAP1 DUP2 MSTORE CALLER PUSH1 0x60 SHL PUSH12 0xFFFFFFFFFFFFFFFFFFFFFFFF NOT AND SWAP3 DUP3 ADD SWAP3 SWAP1 SWAP3 MSTORE PREVRANDAO PUSH1 0x54 DUP3 ADD MSTORE PUSH2 0xA7E DUP2 PUSH1 0x74 DUP2 ADD JUMPDEST SUB PUSH1 0x1F NOT DUP2 ADD DUP4 MSTORE DUP3 PUSH2 0x1F7E JUMP JUMPDEST MLOAD SWAP1 KECCAK256 SWAP3 PUSH2 0xAC1 PUSH1 0xA SLOAD PUSH1 0x1 DUP1 PUSH1 0xA0 SHL SUB AND SWAP7 PUSH2 0xAB9 PUSH1 0xB SLOAD PUSH1 0x1 DUP1 PUSH1 0xA0 SHL SUB AND SWAP5 CALLER PUSH0 MSTORE PUSH1 0x1 PUSH1 0x20 MSTORE PUSH2 0xFFFF PUSH1 0x40 PUSH0 KECCAK256 SLOAD AND SWAP9 CALLDATASIZE SWAP2 PUSH2 0x25F5 JUMP JUMPDEST SWAP5 CALLDATASIZE SWAP2 PUSH2 0x25F5 JUMP JUMPDEST PUSH2 0xAC9 PUSH2 0x285A JUMP JUMPDEST POP PUSH2 0xAD4 DUP5 MLOAD PUSH2 0x291A JUMP JUMPDEST SWAP5 PUSH0 JUMPDEST DUP6 MLOAD DUP2 LT ISZERO PUSH2 0xD09 JUMPI PUSH2 0xAEA DUP2 DUP8 PUSH2 0x2691 JUMP JUMPDEST MLOAD SWAP1 PUSH1 0x40 MLOAD SWAP2 PUSH4 0xB2ADFDF PUSH1 0xE1 SHL DUP4 MSTORE PUSH1 0x4 DUP4 ADD MSTORE PUSH1 0xC0 DUP3 PUSH1 0x24 DUP2 DUP14 GAS STATICCALL SWAP2 DUP3 ISZERO PUSH2 0x6A5 JUMPI PUSH0 SWAP3 PUSH2 0xC3F JUMPI JUMPDEST POP PUSH1 0x20 DUP3 ADD SWAP2 PUSH2 0xB2F DUP4 MLOAD PUSH2 0xB2A DUP2 PUSH2 0x2050 JUMP JUMPDEST PUSH2 0x34AF JUMP JUMPDEST SWAP1 PUSH2 0xB43 PUSH1 0x80 DUP3 ADD SWAP3 PUSH1 0xFF DUP5 MLOAD AND SWAP1 PUSH2 0x34F8 JUMP JUMPDEST SWAP1 PUSH1 0xFF DUP1 PUSH1 0x60 DUP4 ADD MLOAD AND SWAP4 MLOAD AND SWAP1 PUSH1 0xA0 DUP2 ADD SWAP6 PUSH1 0xFF DUP8 MLOAD AND PUSH2 0xB88 PUSH2 0xB71 DUP4 MLOAD PUSH2 0xB6C DUP2 PUSH2 0x2050 JUMP JUMPDEST PUSH2 0x350C JUMP JUMPDEST SWAP9 PUSH1 0xFF DUP5 MLOAD SWAP2 PUSH2 0xB80 DUP4 PUSH2 0x2050 JUMP JUMPDEST MLOAD AND SWAP1 PUSH2 0x353C JUMP JUMPDEST PUSH1 0x40 DUP5 MLOAD SWAP4 PUSH2 0xB96 DUP6 PUSH2 0x2050 JUMP JUMPDEST MLOAD SWAP5 PUSH2 0xBA1 DUP7 PUSH2 0x2050 JUMP JUMPDEST ADD MLOAD SWAP5 PUSH1 0x4 DUP7 LT ISZERO PUSH2 0x6B0 JUMPI PUSH1 0x1 SWAP10 PUSH2 0xFFFF PUSH2 0xC23 SWAP9 PUSH1 0xFF SWAP6 DUP7 SWAP5 PUSH2 0xBCA SWAP13 PUSH1 0x40 MLOAD SWAP14 DUP15 PUSH2 0x1F62 JUMP JUMPDEST DUP14 MSTORE PUSH1 0x20 DUP14 ADD MSTORE PUSH1 0x40 DUP13 ADD MSTORE AND DUP1 PUSH1 0x60 DUP12 ADD MSTORE PUSH1 0x80 DUP11 ADD MSTORE AND PUSH1 0xA0 DUP9 ADD MSTORE AND PUSH1 0xC0 DUP7 ADD MSTORE PUSH0 PUSH1 0xE0 DUP7 ADD MSTORE PUSH0 PUSH2 0x100 DUP7 ADD MSTORE PUSH2 0xC04 DUP2 PUSH2 0x2050 JUMP JUMPDEST PUSH2 0x120 DUP6 ADD MSTORE PUSH2 0xC13 DUP2 PUSH2 0x2050 JUMP JUMPDEST PUSH2 0x140 DUP5 ADD MSTORE PUSH2 0x160 DUP4 ADD PUSH2 0x29C3 JUMP JUMPDEST PUSH2 0xC2D DUP3 DUP11 PUSH2 0x2691 JUMP JUMPDEST MSTORE PUSH2 0xC38 DUP2 DUP10 PUSH2 0x2691 JUMP JUMPDEST POP ADD PUSH2 0xAD7 JUMP JUMPDEST SWAP1 SWAP2 POP PUSH1 0xC0 DUP2 RETURNDATASIZE DUP3 GT PUSH2 0xD01 JUMPI JUMPDEST DUP2 PUSH2 0xC5A PUSH1 0xC0 SWAP4 DUP4 PUSH2 0x1F7E JUMP JUMPDEST DUP2 ADD SUB SLT PUSH2 0x191 JUMPI PUSH1 0x40 MLOAD SWAP1 PUSH1 0xC0 DUP3 ADD DUP3 DUP2 LT PUSH1 0x1 PUSH1 0x1 PUSH1 0x40 SHL SUB DUP3 GT OR PUSH2 0xCED JUMPI PUSH1 0x40 MSTORE DUP1 MLOAD PUSH1 0x3 DUP2 LT ISZERO PUSH2 0x191 JUMPI DUP3 MSTORE PUSH1 0x20 DUP2 ADD MLOAD PUSH1 0x3 DUP2 LT ISZERO PUSH2 0x191 JUMPI PUSH1 0x20 DUP4 ADD MSTORE PUSH1 0x40 DUP2 ADD MLOAD PUSH1 0x4 DUP2 LT ISZERO PUSH2 0x191 JUMPI PUSH2 0xCE1 SWAP2 PUSH1 0xA0 SWAP2 PUSH1 0x40 DUP6 ADD MSTORE PUSH2 0xCC5 PUSH1 0x60 DUP3 ADD PUSH2 0x29B5 JUMP JUMPDEST PUSH1 0x60 DUP6 ADD MSTORE PUSH2 0xCD6 PUSH1 0x80 DUP3 ADD PUSH2 0x29B5 JUMP JUMPDEST PUSH1 0x80 DUP6 ADD MSTORE ADD PUSH2 0x29B5 JUMP JUMPDEST PUSH1 0xA0 DUP3 ADD MSTORE SWAP1 DUP11 PUSH2 0xB16 JUMP JUMPDEST PUSH4 0x4E487B71 PUSH1 0xE0 SHL PUSH0 MSTORE PUSH1 0x41 PUSH1 0x4 MSTORE PUSH1 0x24 PUSH0 REVERT JUMPDEST RETURNDATASIZE SWAP2 POP PUSH2 0xC4D JUMP JUMPDEST POP DUP6 SWAP2 SWAP4 PUSH2 0xD17 DUP9 DUP5 PUSH2 0x35B6 JUMP JUMPDEST PUSH0 SWAP4 JUMPDEST DUP6 MLOAD DUP6 LT ISZERO PUSH2 0x1009 JUMPI PUSH2 0xD2D DUP6 DUP8 PUSH2 0x2691 JUMP JUMPDEST MLOAD ISZERO PUSH2 0xFFC JUMPI PUSH2 0xD3D DUP6 DUP8 PUSH2 0x2691 JUMP JUMPDEST MLOAD SWAP6 PUSH1 0x40 MLOAD SWAP7 PUSH4 0x68972D59 PUSH1 0xE0 SHL DUP9 MSTORE PUSH1 0x4 DUP9 ADD MSTORE PUSH0 DUP8 PUSH1 0x24 DUP2 DUP7 GAS STATICCALL SWAP7 DUP8 ISZERO PUSH2 0x6A5 JUMPI PUSH0 SWAP8 PUSH2 0xF22 JUMPI JUMPDEST POP PUSH0 JUMPDEST DUP6 MLOAD DUP2 LT ISZERO PUSH2 0xF0D JUMPI DUP8 MLOAD PUSH1 0x6 DUP2 LT ISZERO PUSH2 0x6B0 JUMPI PUSH2 0xDB2 JUMPI PUSH1 0x1 SWAP1 PUSH1 0xFF PUSH1 0x20 DUP11 ADD MLOAD AND PUSH1 0xFF PUSH2 0xDA8 PUSH2 0xD9D DUP5 DUP12 PUSH2 0x2691 JUMP JUMPDEST MLOAD SWAP3 DUP3 DUP5 MLOAD AND PUSH2 0x28E7 JUMP JUMPDEST AND SWAP1 MSTORE JUMPDEST ADD PUSH2 0xD6B JUMP JUMPDEST DUP8 MLOAD PUSH1 0x6 DUP2 LT ISZERO PUSH2 0x6B0 JUMPI PUSH1 0x1 SUB PUSH2 0xDF5 JUMPI PUSH1 0x1 SWAP1 PUSH1 0xFF PUSH1 0x20 DUP11 ADD MLOAD AND PUSH1 0xFF PUSH2 0xDEC PUSH1 0x20 PUSH2 0xDE0 DUP6 DUP13 PUSH2 0x2691 JUMP JUMPDEST MLOAD ADD SWAP3 DUP3 DUP5 MLOAD AND PUSH2 0x28E7 JUMP JUMPDEST AND SWAP1 MSTORE JUMPDEST PUSH2 0xDAC JUMP JUMPDEST DUP8 MLOAD PUSH1 0x6 DUP2 LT ISZERO PUSH2 0x6B0 JUMPI PUSH1 0x2 SUB PUSH2 0xE23 JUMPI PUSH1 0x1 SWAP1 PUSH1 0xFF PUSH1 0x20 DUP11 ADD MLOAD AND PUSH1 0xFF PUSH2 0xDEC PUSH1 0x40 PUSH2 0xDE0 DUP6 DUP13 PUSH2 0x2691 JUMP JUMPDEST DUP8 MLOAD PUSH1 0x6 DUP2 LT ISZERO PUSH2 0x6B0 JUMPI PUSH1 0x3 SUB PUSH2 0xEBC JUMPI PUSH2 0xFFFF PUSH1 0x60 PUSH2 0xE44 DUP4 DUP10 PUSH2 0x2691 JUMP JUMPDEST MLOAD ADD MLOAD AND SWAP1 PUSH1 0x3 PUSH1 0xFF PUSH1 0x20 DUP12 ADD MLOAD AND MUL PUSH2 0xFFFF DUP2 AND SWAP1 DUP2 SUB PUSH2 0x6C4 JUMPI PUSH1 0x64 ADD SWAP2 PUSH2 0xFFFF DUP4 GT PUSH2 0x6C4 JUMPI PUSH2 0xFFFF PUSH2 0xE7E PUSH1 0x1 SWAP5 PUSH1 0x64 SWAP4 PUSH2 0x34DF JUMP JUMPDEST AND DIV PUSH2 0xFFFF PUSH1 0x60 PUSH2 0xE8F DUP5 DUP12 PUSH2 0x2691 JUMP JUMPDEST MLOAD ADD SWAP2 AND SWAP1 MSTORE PUSH2 0xFFFF PUSH1 0x60 PUSH2 0xEA4 DUP4 DUP11 PUSH2 0x2691 JUMP JUMPDEST MLOAD ADD MLOAD AND PUSH1 0x80 PUSH2 0xEB4 DUP4 DUP11 PUSH2 0x2691 JUMP JUMPDEST MLOAD ADD MSTORE PUSH2 0xDAC JUMP JUMPDEST DUP8 MLOAD PUSH1 0x6 DUP2 LT ISZERO PUSH2 0x6B0 JUMPI PUSH1 0x4 SUB PUSH2 0xEEA JUMPI PUSH1 0x1 SWAP1 PUSH1 0xFF PUSH1 0x20 DUP11 ADD MLOAD AND PUSH1 0xFF PUSH2 0xDEC PUSH1 0xA0 PUSH2 0xDE0 DUP6 DUP13 PUSH2 0x2691 JUMP JUMPDEST DUP8 MLOAD SWAP1 PUSH1 0x6 DUP3 LT ISZERO PUSH2 0x6B0 JUMPI PUSH1 0x5 PUSH1 0x1 SWAP3 SUB PUSH2 0xDF0 JUMPI DUP2 PUSH1 0xE0 PUSH2 0xEB4 DUP4 DUP11 PUSH2 0x2691 JUMP JUMPDEST POP SWAP3 SWAP2 SWAP6 POP SWAP4 PUSH1 0x1 SWAP1 JUMPDEST ADD SWAP4 SWAP5 SWAP1 SWAP2 SWAP5 PUSH2 0xD1A JUMP JUMPDEST SWAP1 SWAP7 POP RETURNDATASIZE DUP1 PUSH0 DUP4 RETURNDATACOPY PUSH2 0xF34 DUP2 DUP4 PUSH2 0x1F7E JUMP JUMPDEST DUP2 ADD SWAP1 PUSH1 0x20 DUP2 DUP4 SUB SLT PUSH2 0x191 JUMPI DUP1 MLOAD SWAP1 PUSH1 0x1 PUSH1 0x1 PUSH1 0x40 SHL SUB DUP3 GT PUSH2 0x191 JUMPI ADD SWAP1 PUSH1 0x60 DUP3 DUP3 SUB SLT PUSH2 0x191 JUMPI PUSH1 0x40 MLOAD SWAP2 PUSH2 0xF6B DUP4 PUSH2 0x1F0F JUMP JUMPDEST DUP1 MLOAD PUSH1 0x6 DUP2 LT ISZERO PUSH2 0x191 JUMPI DUP4 MSTORE PUSH2 0xF84 PUSH1 0x20 DUP3 ADD PUSH2 0x29B5 JUMP JUMPDEST PUSH1 0x20 DUP5 ADD MSTORE PUSH1 0x40 DUP2 ADD MLOAD SWAP1 PUSH1 0x1 PUSH1 0x1 PUSH1 0x40 SHL SUB DUP3 GT PUSH2 0x191 JUMPI ADD DUP2 PUSH1 0x1F DUP3 ADD SLT ISZERO PUSH2 0x191 JUMPI DUP1 MLOAD SWAP1 PUSH1 0x1 PUSH1 0x1 PUSH1 0x40 SHL SUB DUP3 GT PUSH2 0xCED JUMPI PUSH1 0x40 MLOAD SWAP3 PUSH2 0xFD2 PUSH1 0x1F DUP5 ADD PUSH1 0x1F NOT AND PUSH1 0x20 ADD DUP6 PUSH2 0x1F7E JUMP JUMPDEST DUP3 DUP5 MSTORE PUSH1 0x20 DUP4 DUP4 ADD ADD GT PUSH2 0x191 JUMPI DUP2 PUSH0 SWAP3 PUSH1 0x20 DUP1 SWAP4 ADD DUP4 DUP7 ADD MCOPY DUP4 ADD ADD MSTORE PUSH1 0x40 DUP3 ADD MSTORE SWAP6 DUP8 PUSH2 0xD68 JUMP JUMPDEST SWAP4 PUSH1 0x1 SWAP1 SWAP6 SWAP3 SWAP2 SWAP6 PUSH2 0xF17 JUMP JUMPDEST SWAP1 POP PUSH2 0x1015 DUP2 MLOAD PUSH2 0x291A JUMP JUMPDEST SWAP3 PUSH0 JUMPDEST DUP3 MLOAD DUP2 LT ISZERO PUSH2 0x10DE JUMPI PUSH2 0x102B DUP2 DUP5 PUSH2 0x2691 JUMP JUMPDEST MLOAD SWAP1 PUSH1 0x60 DUP3 ADD SWAP2 PUSH2 0x1040 DUP4 MLOAD PUSH2 0xB2A DUP2 PUSH2 0x2050 JUMP JUMPDEST SWAP1 PUSH2 0x1054 PUSH1 0xC0 DUP3 ADD SWAP3 PUSH1 0xFF DUP5 MLOAD AND SWAP1 PUSH2 0x34F8 JUMP JUMPDEST SWAP1 PUSH1 0xFF DUP1 PUSH1 0xA0 DUP4 ADD MLOAD AND SWAP4 MLOAD AND SWAP1 PUSH1 0xE0 DUP2 ADD SWAP6 PUSH1 0xFF DUP8 MLOAD AND PUSH2 0x107D PUSH2 0xB71 DUP4 MLOAD PUSH2 0xB6C DUP2 PUSH2 0x2050 JUMP JUMPDEST PUSH1 0x80 PUSH1 0x40 DUP6 ADD MLOAD SWAP4 PUSH2 0x108E DUP6 PUSH2 0x2050 JUMP JUMPDEST MLOAD SWAP5 PUSH2 0x1099 DUP7 PUSH2 0x2050 JUMP JUMPDEST ADD MLOAD SWAP5 PUSH1 0x4 DUP7 LT ISZERO PUSH2 0x6B0 JUMPI PUSH1 0x1 SWAP10 PUSH2 0xFFFF PUSH2 0x10C2 SWAP9 PUSH1 0xFF SWAP6 DUP7 SWAP5 PUSH2 0xBCA SWAP13 PUSH1 0x40 MLOAD SWAP14 DUP15 PUSH2 0x1F62 JUMP JUMPDEST PUSH2 0x10CC DUP3 DUP9 PUSH2 0x2691 JUMP JUMPDEST MSTORE PUSH2 0x10D7 DUP2 DUP8 PUSH2 0x2691 JUMP JUMPDEST POP ADD PUSH2 0x1018 JUMP JUMPDEST POP DUP3 DUP5 PUSH2 0x10EA DUP4 PUSH2 0x29E0 JUMP JUMPDEST PUSH2 0x10F3 DUP2 PUSH2 0x29E0 JUMP JUMPDEST PUSH2 0x10FD DUP4 MLOAD PUSH2 0x288E JUMP JUMPDEST SWAP1 PUSH2 0x1108 DUP2 MLOAD PUSH2 0x288E JUMP JUMPDEST PUSH0 JUMPDEST DUP6 MLOAD DUP2 LT ISZERO PUSH2 0x113A JUMPI DUP1 PUSH2 0xFFFF PUSH1 0x80 PUSH2 0x1125 PUSH1 0x1 SWAP5 DUP11 PUSH2 0x2691 JUMP JUMPDEST MLOAD ADD MLOAD AND PUSH2 0x1133 DUP3 DUP8 PUSH2 0x2691 JUMP JUMPDEST MSTORE ADD PUSH2 0x110A JUMP JUMPDEST POP SWAP1 SWAP3 DUP5 SWAP3 PUSH0 JUMPDEST DUP6 MLOAD DUP2 LT ISZERO PUSH2 0x1171 JUMPI DUP1 PUSH2 0xFFFF PUSH1 0x80 PUSH2 0x115C PUSH1 0x1 SWAP5 DUP11 PUSH2 0x2691 JUMP JUMPDEST MLOAD ADD MLOAD AND PUSH2 0x116A DUP3 DUP8 PUSH2 0x2691 JUMP JUMPDEST MSTORE ADD PUSH2 0x1141 JUMP JUMPDEST POP DUP4 DUP4 DUP7 PUSH1 0x40 MLOAD SWAP5 PUSH2 0xF20 PUSH2 0x1186 DUP2 DUP9 PUSH2 0x1F7E JUMP JUMPDEST PUSH1 0x78 DUP8 MSTORE PUSH1 0x1F NOT ADD PUSH0 JUMPDEST DUP2 DUP2 LT PUSH2 0x16F4 JUMPI POP POP PUSH0 SWAP3 PUSH1 0x1 JUMPDEST PUSH1 0xFF DUP2 AND PUSH1 0x12 DUP2 GT PUSH2 0x12BD JUMPI PUSH2 0x11B3 DUP8 PUSH2 0x2AE7 JUMP JUMPDEST ISZERO DUP1 ISZERO PUSH2 0x16E4 JUMPI JUMPDEST PUSH2 0x12BD JUMPI PUSH1 0x3 SWAP1 PUSH2 0x11CB DUP9 PUSH2 0x2B1E JUMP JUMPDEST PUSH2 0x11D4 DUP7 PUSH2 0x2B1E JUMP JUMPDEST MUL PUSH1 0xFF DUP2 AND SWAP1 DUP2 SUB PUSH2 0x6C4 JUMPI DUP4 PUSH1 0x1 SWAP2 SHR AND PUSH1 0x1 ADD PUSH1 0xFF DUP2 GT PUSH2 0x6C4 JUMPI PUSH1 0xFF AND PUSH0 JUMPDEST DUP2 PUSH1 0xFF DUP3 AND LT PUSH2 0x1211 JUMPI JUMPDEST POP POP PUSH2 0x120C SWAP1 PUSH2 0x2909 JUMP JUMPDEST PUSH2 0x119E JUMP JUMPDEST PUSH1 0x77 DUP8 LT ISZERO PUSH2 0x12A8 JUMPI PUSH2 0x1223 DUP9 PUSH2 0x2AE7 JUMP JUMPDEST ISZERO DUP1 ISZERO PUSH2 0x12AD JUMPI JUMPDEST PUSH2 0x12A8 JUMPI DUP8 DUP8 DUP12 DUP8 DUP7 DUP11 PUSH2 0x123F DUP2 DUP8 PUSH2 0x2B87 JUMP JUMPDEST SWAP2 SWAP1 ISZERO PUSH2 0x1278 JUMPI PUSH2 0x124F SWAP7 PUSH2 0x313E JUMP JUMPDEST PUSH2 0x1261 JUMPI JUMPDEST PUSH1 0x1 PUSH1 0xFF SWAP2 JUMPDEST ADD AND PUSH2 0x11F6 JUMP JUMPDEST SWAP6 PUSH1 0x1 PUSH2 0x126F PUSH1 0xFF SWAP3 PUSH2 0x28FB JUMP JUMPDEST SWAP8 SWAP2 POP POP PUSH2 0x1254 JUMP JUMPDEST SWAP6 PUSH2 0x1282 SWAP7 PUSH2 0x2D60 JUMP JUMPDEST PUSH2 0x1291 JUMPI JUMPDEST PUSH1 0x1 PUSH1 0xFF SWAP2 PUSH2 0x125A JUMP JUMPDEST SWAP6 PUSH1 0x1 PUSH2 0x129F PUSH1 0xFF SWAP3 PUSH2 0x28FB JUMP JUMPDEST SWAP8 SWAP2 POP POP PUSH2 0x1287 JUMP JUMPDEST PUSH2 0x1201 JUMP JUMPDEST POP PUSH2 0x12B7 DUP7 PUSH2 0x2AE7 JUMP JUMPDEST ISZERO PUSH2 0x122B JUMP JUMPDEST POP POP SWAP4 POP POP PUSH2 0x12CB SWAP1 PUSH2 0x2AE7 JUMP JUMPDEST ISZERO SWAP1 PUSH2 0x12D6 DUP2 PUSH2 0x25DE JUMP JUMPDEST SWAP5 PUSH2 0x12E4 PUSH1 0x40 MLOAD SWAP7 DUP8 PUSH2 0x1F7E JUMP JUMPDEST DUP2 DUP7 MSTORE PUSH1 0x1F NOT PUSH2 0x12F3 DUP4 PUSH2 0x25DE JUMP JUMPDEST ADD PUSH0 JUMPDEST DUP2 DUP2 LT PUSH2 0x1679 JUMPI POP POP PUSH0 JUMPDEST DUP3 DUP2 LT PUSH2 0x164F JUMPI POP POP POP PUSH2 0x1313 PUSH2 0x285A JUMP JUMPDEST SWAP1 DUP2 MSTORE PUSH1 0x20 DUP2 ADD SWAP4 DUP5 MSTORE PUSH1 0x40 DUP2 ADD SWAP3 DUP4 MSTORE PUSH1 0x60 DUP2 ADD SWAP2 DUP3 MSTORE DUP1 MLOAD ISZERO ISZERO PUSH1 0x40 MLOAD PUSH1 0x20 DUP2 ADD SWAP2 PUSH1 0x1 PUSH1 0x1 PUSH1 0x60 SHL SUB NOT CALLER PUSH1 0x60 SHL AND DUP4 MSTORE TIMESTAMP PUSH1 0x34 DUP4 ADD MSTORE PREVRANDAO PUSH1 0x54 DUP4 ADD MSTORE PUSH1 0xF8 SHL PUSH1 0x74 DUP3 ADD MSTORE PUSH1 0x55 DUP2 MSTORE PUSH2 0x136A PUSH1 0x75 DUP3 PUSH2 0x1F7E JUMP JUMPDEST MLOAD SWAP1 KECCAK256 SWAP4 DUP5 PUSH1 0x9 SSTORE PUSH2 0x1396 DUP3 MLOAD ISZERO ISZERO CALLER PUSH0 MSTORE PUSH1 0x6 PUSH1 0x20 MSTORE PUSH1 0x40 PUSH0 KECCAK256 SWAP1 PUSH1 0xFF DUP1 NOT DUP4 SLOAD AND SWAP2 ISZERO ISZERO AND OR SWAP1 SSTORE JUMP JUMPDEST CALLER PUSH0 SWAP1 DUP2 MSTORE PUSH1 0x7 PUSH1 0x20 MSTORE PUSH1 0x40 SWAP1 KECCAK256 PUSH2 0x13B2 SWAP1 PUSH2 0x266A JUMP JUMPDEST PUSH2 0x266A JUMP JUMPDEST PUSH0 JUMPDEST DUP5 MLOAD MLOAD DUP2 LT ISZERO PUSH2 0x13F0 JUMPI CALLER PUSH0 SWAP1 DUP2 MSTORE PUSH1 0x7 PUSH1 0x20 MSTORE PUSH1 0x40 SWAP1 KECCAK256 PUSH1 0x1 SWAP2 SWAP1 PUSH2 0x13EA SWAP1 PUSH2 0xFFFF PUSH2 0x13E2 DUP5 DUP11 MLOAD PUSH2 0x2691 JUMP JUMPDEST MLOAD AND SWAP1 PUSH2 0x26A5 JUMP JUMPDEST ADD PUSH2 0x13B4 JUMP JUMPDEST POP SWAP1 SWAP2 SWAP4 PUSH2 0x1411 PUSH2 0x13AD CALLER PUSH1 0x1 DUP1 PUSH1 0xA0 SHL SUB AND PUSH0 MSTORE PUSH1 0x8 PUSH1 0x20 MSTORE PUSH1 0x40 PUSH0 KECCAK256 SWAP1 JUMP JUMPDEST PUSH0 JUMPDEST DUP6 MLOAD MLOAD DUP2 LT ISZERO PUSH2 0x1447 JUMPI CALLER PUSH0 SWAP1 DUP2 MSTORE PUSH1 0x8 PUSH1 0x20 MSTORE PUSH1 0x40 SWAP1 KECCAK256 PUSH1 0x1 SWAP2 SWAP1 PUSH2 0x1441 SWAP1 PUSH2 0xFFFF PUSH2 0x13E2 DUP5 DUP12 MLOAD PUSH2 0x2691 JUMP JUMPDEST ADD PUSH2 0x1413 JUMP JUMPDEST POP DUP4 DUP2 PUSH32 0xC5187ED43EF6C494568F3ACE9A84A990FE330816256F8610BA7630DE7FC2A485 PUSH2 0x14A0 DUP9 PUSH2 0x1492 DUP9 MLOAD ISZERO ISZERO SWAP6 MLOAD SWAP2 MLOAD SWAP2 PUSH1 0x40 MLOAD SWAP7 DUP8 MSTORE PUSH1 0x60 PUSH1 0x20 DUP9 ADD MSTORE PUSH1 0x60 DUP8 ADD SWAP1 PUSH2 0x1DBC JUMP JUMPDEST SWAP1 DUP6 DUP3 SUB PUSH1 0x40 DUP8 ADD MSTORE PUSH2 0x1DBC JUMP JUMPDEST SWAP3 DUP1 CALLER SWAP5 SUB SWAP1 LOG3 PUSH0 JUMPDEST DUP3 MLOAD SWAP1 DUP2 MLOAD DUP2 LT ISZERO PUSH2 0x156F JUMPI DUP3 PUSH32 0x60620DFBC2D4188642CFFA14579DA13E93400A7369BB90AAC5A983BEEF88F66A PUSH2 0x14E3 DUP4 PUSH1 0x1 SWAP6 PUSH2 0x2691 JUMP JUMPDEST MLOAD PUSH2 0x100 PUSH1 0xFF DUP3 MLOAD AND PUSH1 0x20 DUP1 DUP5 ADD MLOAD ISZERO ISZERO SWAP4 PUSH1 0xFF PUSH1 0x40 DUP3 ADD MLOAD AND SWAP1 PUSH1 0xFF PUSH1 0x60 DUP3 ADD MLOAD AND PUSH2 0xFFFF PUSH1 0x80 DUP4 ADD MLOAD AND SWAP1 DUP7 PUSH2 0xFFFF PUSH1 0xE0 DUP6 ADD MLOAD AND SWAP4 ADD MLOAD SWAP4 PUSH1 0x40 MLOAD SWAP9 DUP10 SWAP8 DUP9 MSTORE DUP7 DUP9 ADD MSTORE PUSH1 0x40 DUP8 ADD MSTORE PUSH1 0x60 DUP7 ADD MSTORE PUSH1 0x80 DUP6 ADD MSTORE PUSH1 0xA0 DUP5 ADD MSTORE PUSH1 0xE0 PUSH1 0xC0 DUP5 ADD MSTORE DUP1 MLOAD SWAP2 DUP3 SWAP2 DUP3 PUSH1 0xE0 DUP7 ADD MSTORE ADD DUP5 DUP5 ADD MCOPY PUSH0 DUP3 DUP3 ADD DUP5 ADD MSTORE PUSH1 0x1F ADD PUSH1 0x1F NOT AND DUP2 ADD SUB ADD SWAP1 LOG2 ADD PUSH2 0x14A9 JUMP JUMPDEST DUP5 MLOAD ISZERO ISZERO CALLER PUSH0 MSTORE PUSH1 0x1 PUSH1 0x20 MSTORE PUSH1 0x40 PUSH0 KECCAK256 SWAP1 DUP1 PUSH0 EQ PUSH2 0x1648 JUMPI PUSH1 0x19 JUMPDEST PUSH1 0xFF PUSH4 0xFFFFFFFF DUP5 SLOAD PUSH1 0x10 SHR AND SWAP2 AND ADD PUSH4 0xFFFFFFFF DUP2 GT PUSH2 0x6C4 JUMPI DUP3 SLOAD PUSH6 0xFFFFFFFF0000 NOT AND PUSH1 0x10 SWAP2 SWAP1 SWAP2 SHL PUSH6 0xFFFFFFFF0000 AND OR DUP3 SSTORE ISZERO PUSH2 0x1633 JUMPI PUSH1 0x1 DUP2 ADD PUSH2 0x15D4 DUP2 SLOAD PUSH2 0x28FB JUMP JUMPDEST SWAP1 SSTORE JUMPDEST DUP1 SLOAD PUSH2 0xFFFF DUP2 AND SWAP1 PUSH1 0x37 DUP3 MUL PUSH4 0xFFFFFFFF DUP2 AND SWAP1 DUP2 SUB PUSH2 0x6C4 JUMPI PUSH1 0x5A ADD PUSH4 0xFFFFFFFF DUP2 GT PUSH2 0x6C4 JUMPI PUSH4 0xFFFFFFFF DUP1 SWAP2 AND SWAP2 PUSH1 0x10 SHR AND LT ISZERO PUSH2 0x1614 JUMPI STOP JUMPDEST PUSH2 0xFFFF DUP2 EQ PUSH2 0x6C4 JUMPI DUP2 SLOAD PUSH2 0xFFFF NOT AND PUSH1 0x1 SWAP2 SWAP1 SWAP2 ADD PUSH2 0xFFFF AND OR SWAP1 SSTORE STOP JUMPDEST PUSH1 0x2 DUP2 ADD PUSH2 0x1641 DUP2 SLOAD PUSH2 0x28FB JUMP JUMPDEST SWAP1 SSTORE PUSH2 0x15D7 JUMP JUMPDEST PUSH1 0xA PUSH2 0x158A JUMP JUMPDEST DUP1 PUSH2 0x165C PUSH1 0x1 SWAP3 DUP5 PUSH2 0x2691 JUMP JUMPDEST MLOAD PUSH2 0x1667 DUP3 DUP11 PUSH2 0x2691 JUMP JUMPDEST MSTORE PUSH2 0x1672 DUP2 DUP10 PUSH2 0x2691 JUMP JUMPDEST POP ADD PUSH2 0x1301 JUMP JUMPDEST PUSH1 0x20 SWAP1 PUSH1 0x40 MLOAD PUSH2 0x1688 DUP2 PUSH2 0x1F46 JUMP JUMPDEST PUSH0 DUP2 MSTORE PUSH0 DUP4 DUP3 ADD MSTORE PUSH0 PUSH1 0x40 DUP3 ADD MSTORE PUSH0 PUSH1 0x60 DUP3 ADD MSTORE PUSH0 PUSH1 0x80 DUP3 ADD MSTORE PUSH0 PUSH1 0xA0 DUP3 ADD MSTORE PUSH0 PUSH1 0xC0 DUP3 ADD MSTORE PUSH0 PUSH1 0xE0 DUP3 ADD MSTORE PUSH1 0x60 PUSH2 0x100 DUP3 ADD MSTORE PUSH0 PUSH2 0x120 DUP3 ADD MSTORE PUSH0 PUSH2 0x140 DUP3 ADD MSTORE PUSH0 PUSH2 0x160 DUP3 ADD MSTORE PUSH0 PUSH2 0x180 DUP3 ADD MSTORE DUP3 DUP3 DUP12 ADD ADD MSTORE ADD PUSH2 0x12F6 JUMP JUMPDEST POP PUSH2 0x16EE DUP6 PUSH2 0x2AE7 JUMP JUMPDEST ISZERO PUSH2 0x11BB JUMP JUMPDEST PUSH1 0x20 SWAP1 PUSH1 0x40 MLOAD PUSH2 0x1703 DUP2 PUSH2 0x1F46 JUMP JUMPDEST PUSH0 DUP2 MSTORE PUSH0 DUP4 DUP3 ADD MSTORE PUSH0 PUSH1 0x40 DUP3 ADD MSTORE PUSH0 PUSH1 0x60 DUP3 ADD MSTORE PUSH0 PUSH1 0x80 DUP3 ADD MSTORE PUSH0 PUSH1 0xA0 DUP3 ADD MSTORE PUSH0 PUSH1 0xC0 DUP3 ADD MSTORE PUSH0 PUSH1 0xE0 DUP3 ADD MSTORE PUSH1 0x60 PUSH2 0x100 DUP3 ADD MSTORE PUSH0 PUSH2 0x120 DUP3 ADD MSTORE PUSH0 PUSH2 0x140 DUP3 ADD MSTORE PUSH0 PUSH2 0x160 DUP3 ADD MSTORE PUSH0 PUSH2 0x180 DUP3 ADD MSTORE DUP3 DUP3 DUP12 ADD ADD MSTORE ADD PUSH2 0x1190 JUMP JUMPDEST PUSH1 0x20 SWAP1 PUSH2 0x176A PUSH2 0x24F3 JUMP JUMPDEST DUP3 DUP3 DUP9 ADD ADD MSTORE ADD PUSH2 0xA32 JUMP JUMPDEST PUSH1 0x40 MLOAD PUSH3 0x461BCD PUSH1 0xE5 SHL DUP2 MSTORE PUSH1 0x20 PUSH1 0x4 DUP3 ADD MSTORE PUSH1 0x11 PUSH1 0x24 DUP3 ADD MSTORE PUSH17 0x496E76616C6964207465616D2073697A65 PUSH1 0x78 SHL PUSH1 0x44 DUP3 ADD MSTORE PUSH1 0x64 SWAP1 REVERT JUMPDEST POP PUSH1 0x8 DUP4 GT ISZERO PUSH2 0xA12 JUMP JUMPDEST CALLVALUE PUSH2 0x191 JUMPI PUSH0 CALLDATASIZE PUSH1 0x3 NOT ADD SLT PUSH2 0x191 JUMPI PUSH1 0x20 PUSH1 0x9 SLOAD PUSH1 0x40 MLOAD SWAP1 DUP2 MSTORE RETURN JUMPDEST CALLVALUE PUSH2 0x191 JUMPI PUSH1 0x40 CALLDATASIZE PUSH1 0x3 NOT ADD SLT PUSH2 0x191 JUMPI PUSH2 0x17F0 PUSH2 0x1D7F JUMP JUMPDEST PUSH1 0x1 PUSH1 0x1 PUSH1 0xA0 SHL SUB AND PUSH0 SWAP1 DUP2 MSTORE PUSH1 0x2 PUSH1 0x20 MSTORE PUSH1 0x40 SWAP1 KECCAK256 DUP1 SLOAD PUSH1 0x24 CALLDATALOAD SWAP2 SWAP1 DUP3 LT ISZERO PUSH2 0x191 JUMPI PUSH1 0x20 SWAP2 PUSH2 0x182 SWAP2 PUSH2 0x1E91 JUMP JUMPDEST CALLVALUE PUSH2 0x191 JUMPI PUSH1 0x40 CALLDATASIZE PUSH1 0x3 NOT ADD SLT PUSH2 0x191 JUMPI PUSH2 0x1839 PUSH2 0x1D7F JUMP JUMPDEST PUSH1 0x1 PUSH1 0x1 PUSH1 0xA0 SHL SUB AND PUSH0 SWAP1 DUP2 MSTORE PUSH1 0x7 PUSH1 0x20 MSTORE PUSH1 0x40 SWAP1 KECCAK256 DUP1 SLOAD PUSH1 0x24 CALLDATALOAD SWAP1 DUP2 LT ISZERO PUSH2 0x191 JUMPI PUSH2 0x91A PUSH2 0xFFFF SWAP2 PUSH1 0x20 SWAP4 PUSH2 0x1E70 JUMP JUMPDEST CALLVALUE PUSH2 0x191 JUMPI PUSH1 0x20 CALLDATASIZE PUSH1 0x3 NOT ADD SLT PUSH2 0x191 JUMPI PUSH2 0x1884 PUSH2 0x1D7F JUMP JUMPDEST PUSH1 0x60 PUSH1 0x40 MLOAD PUSH2 0x1894 PUSH1 0x60 DUP3 PUSH2 0x1F7E JUMP JUMPDEST PUSH0 JUMPDEST DUP3 DUP2 LT PUSH2 0x1916 JUMPI DUP4 PUSH1 0x1 DUP1 PUSH1 0xA0 SHL SUB AND PUSH0 MSTORE PUSH1 0x5 PUSH1 0x20 MSTORE PUSH1 0x40 PUSH0 KECCAK256 PUSH1 0x40 MLOAD SWAP1 PUSH2 0x18BE DUP3 PUSH2 0x1F0F JUMP JUMPDEST PUSH0 DUP3 JUMPDEST PUSH1 0x3 DUP3 LT PUSH2 0x18F8 JUMPI PUSH1 0x40 MLOAD DUP5 PUSH0 DUP3 JUMPDEST PUSH1 0x3 DUP3 LT PUSH2 0x18DE JUMPI PUSH2 0x3C0 DUP5 RETURN JUMPDEST PUSH1 0x20 PUSH2 0x18ED PUSH1 0x1 SWAP3 DUP6 MLOAD PUSH2 0x1DF3 JUMP JUMPDEST SWAP4 ADD SWAP2 ADD SWAP1 SWAP2 PUSH2 0x18D0 JUMP JUMPDEST PUSH1 0x3 PUSH1 0x20 PUSH1 0x1 SWAP3 PUSH2 0x1908 DUP7 PUSH2 0x2560 JUMP JUMPDEST DUP2 MSTORE ADD SWAP4 ADD SWAP2 ADD SWAP1 SWAP2 PUSH2 0x18C1 JUMP JUMPDEST PUSH1 0x20 SWAP1 PUSH2 0x1921 PUSH2 0x24F3 JUMP JUMPDEST DUP2 DUP5 ADD MSTORE ADD PUSH2 0x1896 JUMP JUMPDEST CALLVALUE PUSH2 0x191 JUMPI PUSH1 0x20 CALLDATASIZE PUSH1 0x3 NOT ADD SLT PUSH2 0x191 JUMPI PUSH1 0x1 PUSH1 0x1 PUSH1 0xA0 SHL SUB PUSH2 0x194C PUSH2 0x1D7F JUMP JUMPDEST AND DUP1 PUSH0 MSTORE PUSH1 0x6 PUSH1 0x20 MSTORE PUSH1 0xFF PUSH1 0x40 PUSH0 KECCAK256 SLOAD AND DUP2 PUSH0 MSTORE PUSH1 0x7 PUSH1 0x20 MSTORE PUSH1 0x40 PUSH0 KECCAK256 SWAP2 PUSH0 MSTORE PUSH1 0x8 PUSH1 0x20 MSTORE PUSH1 0x40 PUSH0 KECCAK256 SWAP2 PUSH2 0x19BA PUSH2 0x198E PUSH2 0x1988 PUSH1 0x9 SLOAD SWAP4 PUSH2 0x21E6 JUMP JUMPDEST SWAP5 PUSH2 0x21E6 JUMP JUMPDEST PUSH2 0x19AC PUSH1 0x40 MLOAD SWAP6 DUP7 SWAP6 ISZERO ISZERO DUP7 MSTORE PUSH1 0x80 PUSH1 0x20 DUP8 ADD MSTORE PUSH1 0x80 DUP7 ADD SWAP1 PUSH2 0x1DBC JUMP JUMPDEST SWAP1 DUP5 DUP3 SUB PUSH1 0x40 DUP7 ADD MSTORE PUSH2 0x1DBC JUMP JUMPDEST SWAP1 PUSH1 0x60 DUP4 ADD MSTORE SUB SWAP1 RETURN JUMPDEST PUSH0 CALLDATASIZE PUSH1 0x3 NOT ADD SLT PUSH2 0x191 JUMPI CALLER PUSH0 MSTORE PUSH0 PUSH1 0x20 MSTORE PUSH2 0x19E6 PUSH1 0xFF PUSH1 0x40 PUSH0 KECCAK256 SLOAD AND PUSH2 0x1F9F JUMP JUMPDEST PUSH2 0x19F9 PUSH7 0x11C37937E08000 CALLVALUE LT ISZERO PUSH2 0x1FE2 JUMP JUMPDEST PUSH0 JUMPDEST PUSH1 0x3 DUP2 LT PUSH2 0x1A05 JUMPI STOP JUMPDEST PUSH1 0x1 SWAP1 PUSH2 0x1A28 PUSH2 0x1A13 PUSH2 0x2712 JUMP JUMPDEST CALLER PUSH0 MSTORE PUSH1 0x5 PUSH1 0x20 MSTORE PUSH2 0x507 DUP4 PUSH1 0x40 PUSH0 KECCAK256 PUSH2 0x1D95 JUMP JUMPDEST ADD PUSH2 0x19FB JUMP JUMPDEST PUSH0 CALLDATASIZE PUSH1 0x3 NOT ADD SLT PUSH2 0x191 JUMPI CALLER PUSH0 MSTORE PUSH0 PUSH1 0x20 MSTORE PUSH2 0x1A50 PUSH1 0xFF PUSH1 0x40 PUSH0 KECCAK256 SLOAD AND PUSH2 0x1F9F JUMP JUMPDEST PUSH2 0x1A63 PUSH7 0x2386F26FC10000 CALLVALUE LT ISZERO PUSH2 0x1FE2 JUMP JUMPDEST PUSH1 0x40 DUP1 MLOAD TIMESTAMP PUSH1 0x20 DUP3 ADD SWAP1 DUP2 MSTORE CALLER PUSH1 0x60 SHL PUSH12 0xFFFFFFFFFFFFFFFFFFFFFFFF NOT AND SWAP3 DUP3 ADD SWAP3 SWAP1 SWAP3 MSTORE PREVRANDAO PUSH1 0x54 DUP3 ADD MSTORE PUSH2 0x1A9C DUP2 PUSH1 0x74 DUP2 ADD PUSH2 0xA70 JUMP JUMPDEST MLOAD SWAP1 KECCAK256 PUSH1 0xB DUP2 MOD PUSH1 0xA ADD DUP1 PUSH1 0xA GT PUSH2 0x6C4 JUMPI PUSH1 0xB DUP3 PUSH1 0x8 SHR MOD PUSH1 0x8 ADD SWAP1 DUP2 PUSH1 0x8 GT PUSH2 0x6C4 JUMPI PUSH1 0xB DUP4 PUSH1 0x10 SHR MOD PUSH1 0x9 ADD DUP1 PUSH1 0x9 GT PUSH2 0x6C4 JUMPI PUSH1 0xFF PUSH1 0x3 DUP6 PUSH1 0x18 SHR MOD AND PUSH1 0xFF PUSH1 0x3 DUP1 DUP8 PUSH1 0x20 SHR AND SWAP7 PUSH1 0x28 SHR MOD AND SWAP5 PUSH1 0x1 DUP1 PUSH1 0xA0 SHL SUB PUSH1 0xA SLOAD AND SWAP3 PUSH2 0x1B03 DUP4 PUSH2 0x2050 JUMP JUMPDEST PUSH2 0x1B0C DUP8 PUSH2 0x2050 JUMP JUMPDEST PUSH1 0x4 DUP3 LT ISZERO PUSH2 0x6B0 JUMPI PUSH1 0x40 MLOAD PUSH4 0xE3BD811 PUSH1 0xE3 SHL DUP2 MSTORE SWAP7 PUSH1 0x20 SWAP7 DUP9 SWAP7 DUP8 SWAP6 PUSH0 SWAP6 DUP8 SWAP6 PUSH2 0x1B49 SWAP6 PUSH1 0xFF SWAP2 DUP3 AND SWAP6 DUP3 AND SWAP5 SWAP1 SWAP2 AND SWAP3 CALLER PUSH1 0x4 DUP10 ADD PUSH2 0x205A JUMP JUMPDEST SUB SWAP3 GAS CALL DUP1 ISZERO PUSH2 0x6A5 JUMPI PUSH0 SWAP1 PUSH2 0x1B6F JUMPI JUMPDEST PUSH2 0x307 SWAP1 CALLER PUSH0 MSTORE PUSH1 0x2 PUSH1 0x20 MSTORE PUSH1 0x40 PUSH0 KECCAK256 PUSH2 0x20BA JUMP JUMPDEST POP PUSH1 0x20 DUP2 RETURNDATASIZE PUSH1 0x20 GT PUSH2 0x1B9B JUMPI JUMPDEST DUP2 PUSH2 0x1B89 PUSH1 0x20 SWAP4 DUP4 PUSH2 0x1F7E JUMP JUMPDEST DUP2 ADD SUB SLT PUSH2 0x191 JUMPI PUSH2 0x307 SWAP1 MLOAD PUSH2 0x1B5A JUMP JUMPDEST RETURNDATASIZE SWAP2 POP PUSH2 0x1B7C JUMP JUMPDEST CALLVALUE PUSH2 0x191 JUMPI PUSH1 0x40 CALLDATASIZE PUSH1 0x3 NOT ADD SLT PUSH2 0x191 JUMPI PUSH2 0x1BBC PUSH2 0x1D7F JUMP JUMPDEST PUSH1 0x1 PUSH1 0x1 PUSH1 0xA0 SHL SUB AND PUSH0 SWAP1 DUP2 MSTORE PUSH1 0x5 PUSH1 0x20 MSTORE PUSH1 0x40 SWAP1 KECCAK256 PUSH1 0x24 CALLDATALOAD SWAP1 PUSH1 0x3 DUP3 LT ISZERO PUSH2 0x191 JUMPI PUSH2 0x140 SWAP2 PUSH2 0x1BEC SWAP2 PUSH2 0x1D95 JUMP JUMPDEST POP PUSH1 0xFF DUP1 DUP3 SLOAD AND SWAP2 PUSH1 0x2 PUSH1 0x1 DUP3 ADD SLOAD SWAP2 ADD SLOAD SWAP1 PUSH1 0x40 MLOAD SWAP4 ISZERO ISZERO DUP5 MSTORE PUSH1 0x20 DUP5 ADD MSTORE DUP2 DUP2 AND PUSH1 0x40 DUP5 ADD MSTORE DUP2 DUP2 PUSH1 0x8 SHR AND PUSH1 0x60 DUP5 ADD MSTORE DUP2 DUP2 PUSH1 0x10 SHR AND PUSH1 0x80 DUP5 ADD MSTORE DUP2 DUP2 PUSH1 0x18 SHR AND PUSH1 0xA0 DUP5 ADD MSTORE DUP2 DUP2 PUSH1 0x20 SHR AND PUSH1 0xC0 DUP5 ADD MSTORE DUP2 DUP2 PUSH1 0x28 SHR AND PUSH1 0xE0 DUP5 ADD MSTORE DUP2 DUP2 PUSH1 0x30 SHR AND PUSH2 0x100 DUP5 ADD MSTORE PUSH1 0x38 SHR AND PUSH2 0x120 DUP3 ADD MSTORE RETURN JUMPDEST CALLVALUE PUSH2 0x191 JUMPI PUSH0 CALLDATASIZE PUSH1 0x3 NOT ADD SLT PUSH2 0x191 JUMPI CALLER PUSH0 MSTORE PUSH0 PUSH1 0x20 MSTORE PUSH1 0xFF PUSH1 0x40 PUSH0 KECCAK256 SLOAD AND PUSH2 0x1D44 JUMPI CALLER PUSH0 MSTORE PUSH0 PUSH1 0x20 MSTORE PUSH1 0x40 PUSH0 KECCAK256 PUSH1 0x1 PUSH1 0xFF NOT DUP3 SLOAD AND OR SWAP1 SSTORE PUSH1 0x40 MLOAD PUSH1 0xA0 DUP2 ADD DUP2 DUP2 LT PUSH1 0x1 PUSH1 0x1 PUSH1 0x40 SHL SUB DUP3 GT OR PUSH2 0xCED JUMPI PUSH1 0x40 MSTORE PUSH1 0x1 DUP2 MSTORE PUSH2 0xFFFF PUSH1 0x3 DUP2 PUSH1 0x20 DUP5 ADD PUSH0 DUP2 MSTORE PUSH1 0x40 DUP6 ADD PUSH0 DUP2 MSTORE PUSH1 0x60 DUP7 ADD SWAP1 PUSH0 DUP3 MSTORE PUSH2 0x1D24 PUSH4 0xFFFFFFFF PUSH1 0x80 DUP10 ADD SWAP5 PUSH1 0x1 DUP7 MSTORE CALLER PUSH0 MSTORE PUSH1 0x1 PUSH1 0x20 MSTORE DUP7 DUP1 PUSH1 0x40 PUSH0 KECCAK256 SWAP12 MLOAD AND AND DUP8 NOT DUP12 SLOAD AND OR DUP11 SSTORE MLOAD AND DUP9 SWAP1 PUSH6 0xFFFFFFFF0000 DUP3 SLOAD SWAP2 PUSH1 0x10 SHL AND SWAP1 PUSH6 0xFFFFFFFF0000 NOT AND OR SWAP1 SSTORE JUMP JUMPDEST MLOAD PUSH1 0x1 DUP8 ADD SSTORE MLOAD PUSH1 0x2 DUP7 ADD SSTORE MLOAD AND SWAP3 ADD SWAP2 AND PUSH2 0xFFFF NOT DUP3 SLOAD AND OR SWAP1 SSTORE PUSH0 DUP1 RETURN JUMPDEST PUSH3 0x461BCD PUSH1 0xE5 SHL DUP2 MSTORE PUSH1 0x20 PUSH1 0x4 DUP3 ADD MSTORE PUSH1 0x16 PUSH1 0x24 DUP3 ADD MSTORE PUSH22 0x50726F66696C6520616C726561647920657869737473 PUSH1 0x50 SHL PUSH1 0x44 DUP3 ADD MSTORE PUSH1 0x64 SWAP1 REVERT JUMPDEST PUSH1 0x4 CALLDATALOAD SWAP1 PUSH1 0x1 PUSH1 0x1 PUSH1 0xA0 SHL SUB DUP3 AND DUP3 SUB PUSH2 0x191 JUMPI JUMP JUMPDEST SWAP1 PUSH1 0x3 DUP2 LT ISZERO PUSH2 0x1DA8 JUMPI PUSH1 0x3 MUL ADD SWAP1 PUSH0 SWAP1 JUMP JUMPDEST PUSH4 0x4E487B71 PUSH1 0xE0 SHL PUSH0 MSTORE PUSH1 0x32 PUSH1 0x4 MSTORE PUSH1 0x24 PUSH0 REVERT JUMPDEST SWAP1 PUSH1 0x20 DUP1 DUP4 MLOAD SWAP3 DUP4 DUP2 MSTORE ADD SWAP3 ADD SWAP1 PUSH0 JUMPDEST DUP2 DUP2 LT PUSH2 0x1DD9 JUMPI POP POP POP SWAP1 JUMP JUMPDEST DUP3 MLOAD PUSH2 0xFFFF AND DUP5 MSTORE PUSH1 0x20 SWAP4 DUP5 ADD SWAP4 SWAP1 SWAP3 ADD SWAP2 PUSH1 0x1 ADD PUSH2 0x1DCC JUMP JUMPDEST SWAP1 PUSH1 0xFF PUSH2 0x120 PUSH2 0x140 SWAP4 DUP1 MLOAD ISZERO ISZERO DUP5 MSTORE PUSH1 0x20 DUP2 ADD MLOAD PUSH1 0x20 DUP6 ADD MSTORE DUP3 PUSH1 0x40 DUP3 ADD MLOAD AND PUSH1 0x40 DUP6 ADD MSTORE DUP3 PUSH1 0x60 DUP3 ADD MLOAD AND PUSH1 0x60 DUP6 ADD MSTORE DUP3 PUSH1 0x80 DUP3 ADD MLOAD AND PUSH1 0x80 DUP6 ADD MSTORE DUP3 PUSH1 0xA0 DUP3 ADD MLOAD AND PUSH1 0xA0 DUP6 ADD MSTORE DUP3 PUSH1 0xC0 DUP3 ADD MLOAD AND PUSH1 0xC0 DUP6 ADD MSTORE DUP3 PUSH1 0xE0 DUP3 ADD MLOAD AND PUSH1 0xE0 DUP6 ADD MSTORE DUP3 PUSH2 0x100 DUP3 ADD MLOAD AND PUSH2 0x100 DUP6 ADD MSTORE ADD MLOAD AND PUSH2 0x120 DUP3 ADD MSTORE ADD SWAP1 JUMP JUMPDEST SWAP2 SWAP1 SWAP2 DUP1 SLOAD DUP4 LT ISZERO PUSH2 0x1DA8 JUMPI PUSH0 MSTORE PUSH1 0x1E PUSH1 0x20 PUSH0 KECCAK256 DUP4 PUSH1 0x4 SHR ADD SWAP3 PUSH1 0x1 SHL AND SWAP1 JUMP JUMPDEST DUP1 SLOAD DUP3 LT ISZERO PUSH2 0x1DA8 JUMPI PUSH0 MSTORE PUSH1 0x20 PUSH0 KECCAK256 ADD SWAP1 PUSH0 SWAP1 JUMP JUMPDEST SWAP2 DUP2 PUSH1 0x1F DUP5 ADD SLT ISZERO PUSH2 0x191 JUMPI DUP3 CALLDATALOAD SWAP2 PUSH1 0x1 PUSH1 0x1 PUSH1 0x40 SHL SUB DUP4 GT PUSH2 0x191 JUMPI PUSH1 0x20 DUP1 DUP6 ADD SWAP5 DUP5 PUSH1 0x5 SHL ADD ADD GT PUSH2 0x191 JUMPI JUMP JUMPDEST PUSH1 0x20 PUSH1 0x40 DUP2 DUP4 ADD SWAP3 DUP3 DUP2 MSTORE DUP5 MLOAD DUP1 SWAP5 MSTORE ADD SWAP3 ADD SWAP1 PUSH0 JUMPDEST DUP2 DUP2 LT PUSH2 0x1EF9 JUMPI POP POP POP SWAP1 JUMP JUMPDEST DUP3 MLOAD DUP5 MSTORE PUSH1 0x20 SWAP4 DUP5 ADD SWAP4 SWAP1 SWAP3 ADD SWAP2 PUSH1 0x1 ADD PUSH2 0x1EEC JUMP JUMPDEST PUSH1 0x60 DUP2 ADD SWAP1 DUP2 LT PUSH1 0x1 PUSH1 0x1 PUSH1 0x40 SHL SUB DUP3 GT OR PUSH2 0xCED JUMPI PUSH1 0x40 MSTORE JUMP JUMPDEST PUSH2 0x140 DUP2 ADD SWAP1 DUP2 LT PUSH1 0x1 PUSH1 0x1 PUSH1 0x40 SHL SUB DUP3 GT OR PUSH2 0xCED JUMPI PUSH1 0x40 MSTORE JUMP JUMPDEST PUSH2 0x1A0 DUP2 ADD SWAP1 DUP2 LT PUSH1 0x1 PUSH1 0x1 PUSH1 0x40 SHL SUB DUP3 GT OR PUSH2 0xCED JUMPI PUSH1 0x40 MSTORE JUMP JUMPDEST PUSH2 0x180 DUP2 ADD SWAP1 DUP2 LT PUSH1 0x1 PUSH1 0x1 PUSH1 0x40 SHL SUB DUP3 GT OR PUSH2 0xCED JUMPI PUSH1 0x40 MSTORE JUMP JUMPDEST SWAP1 PUSH1 0x1F DUP1 NOT SWAP2 ADD AND DUP2 ADD SWAP1 DUP2 LT PUSH1 0x1 PUSH1 0x1 PUSH1 0x40 SHL SUB DUP3 GT OR PUSH2 0xCED JUMPI PUSH1 0x40 MSTORE JUMP JUMPDEST ISZERO PUSH2 0x1FA6 JUMPI JUMP JUMPDEST PUSH1 0x40 MLOAD PUSH3 0x461BCD PUSH1 0xE5 SHL DUP2 MSTORE PUSH1 0x20 PUSH1 0x4 DUP3 ADD MSTORE PUSH1 0x14 PUSH1 0x24 DUP3 ADD MSTORE PUSH20 0x10DC99585D19481C1C9BD99A5B1948199A5C9CDD PUSH1 0x62 SHL PUSH1 0x44 DUP3 ADD MSTORE PUSH1 0x64 SWAP1 REVERT JUMPDEST ISZERO PUSH2 0x1FE9 JUMPI JUMP JUMPDEST PUSH1 0x40 MLOAD PUSH3 0x461BCD PUSH1 0xE5 SHL DUP2 MSTORE PUSH1 0x20 PUSH1 0x4 DUP3 ADD MSTORE PUSH1 0x14 PUSH1 0x24 DUP3 ADD MSTORE PUSH20 0x125B9CDD59999A58DA595B9D081C185E5B595B9D PUSH1 0x62 SHL PUSH1 0x44 DUP3 ADD MSTORE PUSH1 0x64 SWAP1 REVERT JUMPDEST DUP2 ISZERO PUSH2 0x202F JUMPI MOD SWAP1 JUMP JUMPDEST PUSH4 0x4E487B71 PUSH1 0xE0 SHL PUSH0 MSTORE PUSH1 0x12 PUSH1 0x4 MSTORE PUSH1 0x24 PUSH0 REVERT JUMPDEST SWAP2 SWAP1 DUP3 ADD DUP1 SWAP3 GT PUSH2 0x6C4 JUMPI JUMP JUMPDEST PUSH1 0x3 GT ISZERO PUSH2 0x6B0 JUMPI JUMP JUMPDEST PUSH1 0x1 PUSH1 0x1 PUSH1 0xA0 SHL SUB SWAP1 SWAP2 AND DUP2 MSTORE PUSH1 0xE0 DUP2 ADD SWAP8 SWAP7 SWAP1 SWAP6 SWAP5 SWAP1 SWAP3 SWAP1 SWAP2 PUSH2 0x207D DUP2 PUSH2 0x2050 JUMP JUMPDEST PUSH1 0x20 DUP8 ADD MSTORE PUSH2 0x208B DUP2 PUSH2 0x2050 JUMP JUMPDEST PUSH1 0x40 DUP7 ADD MSTORE PUSH1 0x4 DUP4 LT ISZERO PUSH2 0x6B0 JUMPI PUSH1 0xC0 SWAP4 PUSH1 0xFF DUP1 SWAP5 SWAP3 DUP2 SWAP4 PUSH1 0x60 DUP10 ADD MSTORE AND PUSH1 0x80 DUP8 ADD MSTORE AND PUSH1 0xA0 DUP6 ADD MSTORE AND SWAP2 ADD MSTORE JUMP JUMPDEST DUP1 SLOAD PUSH1 0x1 PUSH1 0x40 SHL DUP2 LT ISZERO PUSH2 0xCED JUMPI PUSH2 0x20D7 SWAP2 PUSH1 0x1 DUP3 ADD DUP2 SSTORE PUSH2 0x1E91 JUMP JUMPDEST DUP2 SWAP3 SWAP2 SLOAD SWAP1 PUSH1 0x3 SHL SWAP2 DUP3 SHL SWAP2 PUSH0 NOT SWAP1 SHL NOT AND OR SWAP1 SSTORE JUMP JUMPDEST SWAP1 PUSH2 0x21D3 JUMPI PUSH1 0x2 SWAP1 PUSH2 0x210F DUP4 MLOAD ISZERO ISZERO DUP3 SWAP1 PUSH1 0xFF DUP1 NOT DUP4 SLOAD AND SWAP2 ISZERO ISZERO AND OR SWAP1 SSTORE JUMP JUMPDEST PUSH1 0x20 DUP4 ADD MLOAD PUSH1 0x1 DUP3 ADD SSTORE ADD SWAP1 PUSH1 0xFF PUSH1 0x40 DUP3 ADD MLOAD AND SWAP1 DUP3 SLOAD PUSH2 0xFF00 PUSH1 0x60 DUP4 ADD MLOAD PUSH1 0x8 SHL AND SWAP3 PUSH3 0xFF0000 PUSH1 0x80 DUP5 ADD MLOAD PUSH1 0x10 SHL AND SWAP4 PUSH4 0xFF000000 PUSH1 0xA0 DUP6 ADD MLOAD PUSH1 0x18 SHL AND SWAP1 PUSH5 0xFF00000000 PUSH1 0xC0 DUP7 ADD MLOAD PUSH1 0x20 SHL AND SWAP2 PUSH6 0xFF0000000000 PUSH1 0xE0 DUP8 ADD MLOAD PUSH1 0x28 SHL AND SWAP5 PUSH1 0xFF PUSH1 0x38 SHL PUSH2 0x120 PUSH7 0xFF000000000000 PUSH2 0x100 DUP11 ADD MLOAD PUSH1 0x30 SHL AND SWAP9 ADD MLOAD PUSH1 0x38 SHL AND SWAP8 PUSH1 0xFF PUSH1 0x38 SHL NOT SWAP6 PUSH7 0xFF000000000000 NOT SWAP5 PUSH6 0xFF0000000000 NOT SWAP4 PUSH5 0xFF00000000 NOT SWAP3 PUSH4 0xFF000000 NOT SWAP2 PUSH3 0xFFFFFF NOT AND OR AND OR AND OR AND OR AND OR AND OR OR OR SWAP1 SSTORE JUMP JUMPDEST PUSH4 0x4E487B71 PUSH1 0xE0 SHL PUSH0 MSTORE PUSH0 PUSH1 0x4 MSTORE PUSH1 0x24 PUSH0 REVERT JUMPDEST SWAP1 PUSH1 0x40 MLOAD SWAP2 DUP3 DUP2 SLOAD SWAP2 DUP3 DUP3 MSTORE PUSH1 0x20 DUP3 ADD SWAP1 PUSH0 MSTORE PUSH1 0x20 PUSH0 KECCAK256 SWAP3 PUSH0 SWAP1 JUMPDEST DUP1 PUSH1 0xF DUP4 ADD LT PUSH2 0x240B JUMPI PUSH2 0x2297 SWAP5 SLOAD SWAP2 DUP2 DUP2 LT PUSH2 0x23F6 JUMPI JUMPDEST DUP2 DUP2 LT PUSH2 0x23DE JUMPI JUMPDEST DUP2 DUP2 LT PUSH2 0x23C7 JUMPI JUMPDEST DUP2 DUP2 LT PUSH2 0x23AF JUMPI JUMPDEST DUP2 DUP2 LT PUSH2 0x2397 JUMPI JUMPDEST DUP2 DUP2 LT PUSH2 0x237F JUMPI JUMPDEST DUP2 DUP2 LT PUSH2 0x2367 JUMPI JUMPDEST DUP2 DUP2 LT PUSH2 0x234F JUMPI JUMPDEST DUP2 DUP2 LT PUSH2 0x2337 JUMPI JUMPDEST DUP2 DUP2 LT PUSH2 0x231F JUMPI JUMPDEST DUP2 DUP2 LT PUSH2 0x2307 JUMPI JUMPDEST DUP2 DUP2 LT PUSH2 0x22EF JUMPI JUMPDEST DUP2 DUP2 LT PUSH2 0x22D7 JUMPI JUMPDEST DUP2 DUP2 LT PUSH2 0x22BF JUMPI JUMPDEST DUP2 DUP2 LT PUSH2 0x22A7 JUMPI JUMPDEST LT PUSH2 0x2299 JUMPI JUMPDEST POP SUB DUP4 PUSH2 0x1F7E JUMP JUMPDEST JUMP JUMPDEST PUSH1 0xF0 SHR DUP2 MSTORE PUSH1 0x20 ADD PUSH0 PUSH2 0x228F JUMP JUMPDEST SWAP3 PUSH1 0x20 PUSH1 0x1 SWAP2 PUSH2 0xFFFF DUP6 PUSH1 0xE0 SHR AND DUP2 MSTORE ADD SWAP4 ADD PUSH2 0x2289 JUMP JUMPDEST SWAP3 PUSH1 0x20 PUSH1 0x1 SWAP2 PUSH2 0xFFFF DUP6 PUSH1 0xD0 SHR AND DUP2 MSTORE ADD SWAP4 ADD PUSH2 0x2281 JUMP JUMPDEST SWAP3 PUSH1 0x20 PUSH1 0x1 SWAP2 PUSH2 0xFFFF DUP6 PUSH1 0xC0 SHR AND DUP2 MSTORE ADD SWAP4 ADD PUSH2 0x2279 JUMP JUMPDEST SWAP3 PUSH1 0x20 PUSH1 0x1 SWAP2 PUSH2 0xFFFF DUP6 PUSH1 0xB0 SHR AND DUP2 MSTORE ADD SWAP4 ADD PUSH2 0x2271 JUMP JUMPDEST SWAP3 PUSH1 0x20 PUSH1 0x1 SWAP2 PUSH2 0xFFFF DUP6 PUSH1 0xA0 SHR AND DUP2 MSTORE ADD SWAP4 ADD PUSH2 0x2269 JUMP JUMPDEST SWAP3 PUSH1 0x20 PUSH1 0x1 SWAP2 PUSH2 0xFFFF DUP6 PUSH1 0x90 SHR AND DUP2 MSTORE ADD SWAP4 ADD PUSH2 0x2261 JUMP JUMPDEST SWAP3 PUSH1 0x20 PUSH1 0x1 SWAP2 PUSH2 0xFFFF DUP6 PUSH1 0x80 SHR AND DUP2 MSTORE ADD SWAP4 ADD PUSH2 0x2259 JUMP JUMPDEST SWAP3 PUSH1 0x20 PUSH1 0x1 SWAP2 PUSH2 0xFFFF DUP6 PUSH1 0x70 SHR AND DUP2 MSTORE ADD SWAP4 ADD PUSH2 0x2251 JUMP JUMPDEST SWAP3 PUSH1 0x20 PUSH1 0x1 SWAP2 PUSH2 0xFFFF DUP6 PUSH1 0x60 SHR AND DUP2 MSTORE ADD SWAP4 ADD PUSH2 0x2249 JUMP JUMPDEST SWAP3 PUSH1 0x20 PUSH1 0x1 SWAP2 PUSH2 0xFFFF DUP6 PUSH1 0x50 SHR AND DUP2 MSTORE ADD SWAP4 ADD PUSH2 0x2241 JUMP JUMPDEST SWAP3 PUSH1 0x20 PUSH1 0x1 SWAP2 PUSH2 0xFFFF DUP6 PUSH1 0x40 SHR AND DUP2 MSTORE ADD SWAP4 ADD PUSH2 0x2239 JUMP JUMPDEST SWAP3 PUSH1 0x20 PUSH1 0x1 SWAP2 PUSH2 0xFFFF DUP6 PUSH1 0x30 SHR AND DUP2 MSTORE ADD SWAP4 ADD PUSH2 0x2231 JUMP JUMPDEST SWAP3 PUSH1 0x20 PUSH1 0x1 SWAP2 PUSH2 0xFFFF DUP6 DUP4 SHR AND DUP2 MSTORE ADD SWAP4 ADD PUSH2 0x2229 JUMP JUMPDEST SWAP3 PUSH1 0x20 PUSH1 0x1 SWAP2 PUSH2 0xFFFF DUP6 PUSH1 0x10 SHR AND DUP2 MSTORE ADD SWAP4 ADD PUSH2 0x2221 JUMP JUMPDEST SWAP3 PUSH1 0x20 PUSH1 0x1 SWAP2 PUSH2 0xFFFF DUP6 AND DUP2 MSTORE ADD SWAP4 ADD PUSH2 0x2219 JUMP JUMPDEST SWAP2 PUSH1 0x10 SWAP2 SWAP4 POP PUSH2 0x200 PUSH1 0x1 SWAP2 DUP7 SLOAD PUSH2 0xFFFF DUP2 AND DUP3 MSTORE PUSH2 0xFFFF DUP2 DUP7 SHR AND PUSH1 0x20 DUP4 ADD MSTORE PUSH2 0xFFFF DUP2 PUSH1 0x20 SHR AND PUSH1 0x40 DUP4 ADD MSTORE PUSH2 0xFFFF DUP2 PUSH1 0x30 SHR AND PUSH1 0x60 DUP4 ADD MSTORE PUSH2 0xFFFF DUP2 PUSH1 0x40 SHR AND PUSH1 0x80 DUP4 ADD MSTORE PUSH2 0xFFFF DUP2 PUSH1 0x50 SHR AND PUSH1 0xA0 DUP4 ADD MSTORE PUSH2 0xFFFF DUP2 PUSH1 0x60 SHR AND PUSH1 0xC0 DUP4 ADD MSTORE PUSH2 0xFFFF DUP2 PUSH1 0x70 SHR AND PUSH1 0xE0 DUP4 ADD MSTORE PUSH2 0xFFFF DUP2 PUSH1 0x80 SHR AND PUSH2 0x100 DUP4 ADD MSTORE PUSH2 0xFFFF DUP2 PUSH1 0x90 SHR AND PUSH2 0x120 DUP4 ADD MSTORE PUSH2 0xFFFF DUP2 PUSH1 0xA0 SHR AND PUSH2 0x140 DUP4 ADD MSTORE PUSH2 0xFFFF DUP2 PUSH1 0xB0 SHR AND PUSH2 0x160 DUP4 ADD MSTORE PUSH2 0xFFFF DUP2 PUSH1 0xC0 SHR AND PUSH2 0x180 DUP4 ADD MSTORE PUSH2 0xFFFF DUP2 PUSH1 0xD0 SHR AND PUSH2 0x1A0 DUP4 ADD MSTORE PUSH2 0xFFFF DUP2 PUSH1 0xE0 SHR AND PUSH2 0x1C0 DUP4 ADD MSTORE PUSH1 0xF0 SHR PUSH2 0x1E0 DUP3 ADD MSTORE ADD SWAP5 ADD SWAP3 ADD DUP6 SWAP3 SWAP4 SWAP2 PUSH2 0x2201 JUMP JUMPDEST PUSH1 0x40 MLOAD SWAP1 PUSH2 0x2500 DUP3 PUSH2 0x1F2A JUMP JUMPDEST PUSH0 PUSH2 0x120 DUP4 DUP3 DUP2 MSTORE DUP3 PUSH1 0x20 DUP3 ADD MSTORE DUP3 PUSH1 0x40 DUP3 ADD MSTORE DUP3 PUSH1 0x60 DUP3 ADD MSTORE DUP3 PUSH1 0x80 DUP3 ADD MSTORE DUP3 PUSH1 0xA0 DUP3 ADD MSTORE DUP3 PUSH1 0xC0 DUP3 ADD MSTORE DUP3 PUSH1 0xE0 DUP3 ADD MSTORE DUP3 PUSH2 0x100 DUP3 ADD MSTORE ADD MSTORE JUMP JUMPDEST PUSH0 JUMPDEST DUP3 DUP2 LT PUSH2 0x254B JUMPI POP POP POP JUMP JUMPDEST PUSH1 0x20 SWAP1 PUSH2 0x2556 PUSH2 0x24F3 JUMP JUMPDEST DUP2 DUP5 ADD MSTORE ADD PUSH2 0x253F JUMP JUMPDEST SWAP1 PUSH1 0x40 MLOAD PUSH2 0x256D DUP2 PUSH2 0x1F2A JUMP JUMPDEST PUSH2 0x120 PUSH1 0xFF PUSH1 0x2 DUP4 SWAP6 DUP3 DUP2 SLOAD AND ISZERO ISZERO DUP6 MSTORE PUSH1 0x1 DUP2 ADD SLOAD PUSH1 0x20 DUP7 ADD MSTORE ADD SLOAD DUP2 DUP2 AND PUSH1 0x40 DUP6 ADD MSTORE DUP2 DUP2 PUSH1 0x8 SHR AND PUSH1 0x60 DUP6 ADD MSTORE DUP2 DUP2 PUSH1 0x10 SHR AND PUSH1 0x80 DUP6 ADD MSTORE DUP2 DUP2 PUSH1 0x18 SHR AND PUSH1 0xA0 DUP6 ADD MSTORE DUP2 DUP2 PUSH1 0x20 SHR AND PUSH1 0xC0 DUP6 ADD MSTORE DUP2 DUP2 PUSH1 0x28 SHR AND PUSH1 0xE0 DUP6 ADD MSTORE DUP2 DUP2 PUSH1 0x30 SHR AND PUSH2 0x100 DUP6 ADD MSTORE PUSH1 0x38 SHR AND SWAP2 ADD MSTORE JUMP JUMPDEST PUSH1 0x1 PUSH1 0x1 PUSH1 0x40 SHL SUB DUP2 GT PUSH2 0xCED JUMPI PUSH1 0x5 SHL PUSH1 0x20 ADD SWAP1 JUMP JUMPDEST SWAP3 SWAP2 SWAP1 PUSH2 0x2601 DUP2 PUSH2 0x25DE JUMP JUMPDEST SWAP4 PUSH2 0x260F PUSH1 0x40 MLOAD SWAP6 DUP7 PUSH2 0x1F7E JUMP JUMPDEST PUSH1 0x20 DUP6 DUP4 DUP2 MSTORE ADD SWAP2 PUSH1 0x5 SHL DUP2 ADD SWAP3 DUP4 GT PUSH2 0x191 JUMPI SWAP1 JUMPDEST DUP3 DUP3 LT PUSH2 0x2631 JUMPI POP POP POP JUMP JUMPDEST DUP2 CALLDATALOAD DUP2 MSTORE PUSH1 0x20 SWAP2 DUP3 ADD SWAP2 ADD PUSH2 0x2625 JUMP JUMPDEST DUP2 DUP2 MUL SWAP3 SWAP2 DUP2 ISZERO SWAP2 DUP5 DIV EQ OR ISZERO PUSH2 0x6C4 JUMPI JUMP JUMPDEST DUP2 DUP2 LT PUSH2 0x265F JUMPI POP POP JUMP JUMPDEST PUSH0 DUP2 SSTORE PUSH1 0x1 ADD PUSH2 0x2654 JUMP JUMPDEST DUP1 SLOAD PUSH0 DUP3 SSTORE DUP1 PUSH2 0x2678 JUMPI POP POP JUMP JUMPDEST PUSH2 0x2297 SWAP2 PUSH0 MSTORE PUSH1 0xF PUSH1 0x20 PUSH0 KECCAK256 SWAP2 ADD PUSH1 0x4 SHR DUP2 ADD SWAP1 PUSH2 0x2654 JUMP JUMPDEST DUP1 MLOAD DUP3 LT ISZERO PUSH2 0x1DA8 JUMPI PUSH1 0x20 SWAP2 PUSH1 0x5 SHL ADD ADD SWAP1 JUMP JUMPDEST DUP1 SLOAD PUSH1 0x1 PUSH1 0x40 SHL DUP2 LT ISZERO PUSH2 0xCED JUMPI PUSH2 0x26C2 SWAP2 PUSH1 0x1 DUP3 ADD DUP2 SSTORE PUSH2 0x1E70 JUMP JUMPDEST PUSH2 0xFFFF DUP1 DUP4 SWAP5 SWAP4 SLOAD SWAP3 PUSH1 0x3 SHL SWAP4 AND DUP4 SHL SWAP3 SHL NOT AND OR SWAP1 SSTORE JUMP JUMPDEST DUP1 SLOAD PUSH0 DUP3 SSTORE DUP1 PUSH2 0x26E9 JUMPI POP POP JUMP JUMPDEST PUSH2 0x2297 SWAP2 PUSH0 MSTORE PUSH1 0x20 PUSH0 KECCAK256 SWAP1 DUP2 ADD SWAP1 PUSH2 0x2654 JUMP JUMPDEST SWAP1 PUSH2 0xFFFF DUP1 SWAP2 AND SWAP2 AND ADD SWAP1 PUSH2 0xFFFF DUP3 GT PUSH2 0x6C4 JUMPI JUMP JUMPDEST PUSH2 0x271A PUSH2 0x24F3 JUMP JUMPDEST POP PUSH1 0x40 MLOAD PUSH1 0x20 DUP2 ADD SWAP1 TIMESTAMP DUP3 MSTORE PUSH1 0x20 DUP2 MSTORE PUSH2 0x2735 PUSH1 0x40 DUP3 PUSH2 0x1F7E JUMP JUMPDEST MLOAD SWAP1 KECCAK256 PUSH1 0x28 PUSH1 0x64 DUP3 MOD LT ISZERO PUSH2 0x27BE JUMPI PUSH1 0xD PUSH1 0xFF PUSH1 0x6 DUP4 MOD AND SWAP2 PUSH1 0x8 SHR MOD PUSH1 0x8 ADD SWAP1 DUP2 PUSH1 0x8 GT PUSH2 0x6C4 JUMPI DUP1 PUSH2 0x3E8 ADD SWAP2 PUSH2 0xFFFF DUP4 GT PUSH2 0x6C4 JUMPI PUSH1 0xFF SWAP2 PUSH2 0xFFFF PUSH1 0x40 MLOAD SWAP5 PUSH2 0x2780 DUP7 PUSH2 0x1F2A JUMP JUMPDEST PUSH1 0x1 DUP7 MSTORE AND PUSH1 0x20 DUP6 ADD MSTORE PUSH0 PUSH1 0x40 DUP6 ADD MSTORE PUSH0 PUSH1 0x60 DUP6 ADD MSTORE PUSH0 PUSH1 0x80 DUP6 ADD MSTORE PUSH0 PUSH1 0xA0 DUP6 ADD MSTORE PUSH0 PUSH1 0xC0 DUP6 ADD MSTORE PUSH0 PUSH1 0xE0 DUP6 ADD MSTORE PUSH2 0x100 DUP5 ADD MSTORE AND PUSH2 0x120 DUP3 ADD MSTORE SWAP1 JUMP JUMPDEST PUSH1 0xB DUP2 PUSH1 0x28 SHR MOD PUSH1 0xA ADD DUP1 PUSH1 0xA GT PUSH2 0x6C4 JUMPI PUSH1 0xB DUP3 PUSH1 0x30 SHR MOD PUSH1 0x8 ADD SWAP1 DUP2 PUSH1 0x8 GT PUSH2 0x6C4 JUMPI PUSH1 0xB DUP4 PUSH1 0x38 SHR MOD PUSH1 0x9 ADD SWAP1 DUP2 PUSH1 0x9 GT PUSH2 0x6C4 JUMPI PUSH1 0xFF SWAP3 DUP4 DUP1 SWAP3 PUSH1 0x3 PUSH1 0x40 MLOAD SWAP8 PUSH2 0x280B DUP10 PUSH2 0x1F2A JUMP JUMPDEST PUSH0 DUP10 MSTORE PUSH0 PUSH1 0x20 DUP11 ADD MSTORE DUP4 DUP3 DUP3 PUSH1 0x10 SHR MOD AND PUSH1 0x40 DUP11 ADD MSTORE DUP4 DUP3 DUP3 PUSH1 0x20 SHR MOD AND PUSH1 0x60 DUP11 ADD MSTORE PUSH1 0x18 SHR AND PUSH1 0x80 DUP9 ADD MSTORE AND PUSH1 0xA0 DUP7 ADD MSTORE AND PUSH1 0xC0 DUP5 ADD MSTORE AND PUSH1 0xE0 DUP3 ADD MSTORE PUSH0 PUSH2 0x100 DUP3 ADD MSTORE PUSH0 PUSH2 0x120 DUP3 ADD MSTORE SWAP1 JUMP JUMPDEST PUSH1 0x40 MLOAD SWAP1 PUSH1 0x80 DUP3 ADD DUP3 DUP2 LT PUSH1 0x1 PUSH1 0x1 PUSH1 0x40 SHL SUB DUP3 GT OR PUSH2 0xCED JUMPI PUSH1 0x40 MSTORE PUSH1 0x60 DUP1 DUP4 PUSH0 DUP2 MSTORE DUP2 PUSH1 0x20 DUP3 ADD MSTORE DUP2 PUSH1 0x40 DUP3 ADD MSTORE ADD MSTORE JUMP JUMPDEST SWAP1 PUSH2 0x2898 DUP3 PUSH2 0x25DE JUMP JUMPDEST PUSH2 0x28A5 PUSH1 0x40 MLOAD SWAP2 DUP3 PUSH2 0x1F7E JUMP JUMPDEST DUP3 DUP2 MSTORE DUP1 SWAP3 PUSH2 0x28B6 PUSH1 0x1F NOT SWAP2 PUSH2 0x25DE JUMP JUMPDEST ADD SWAP1 PUSH1 0x20 CALLDATASIZE SWAP2 ADD CALLDATACOPY JUMP JUMPDEST PUSH1 0x2 SHL SWAP1 PUSH2 0x3FC PUSH1 0xFC DUP4 AND SWAP3 AND DUP3 SUB PUSH2 0x6C4 JUMPI JUMP JUMPDEST PUSH1 0xFF PUSH1 0x2 SWAP2 AND ADD SWAP1 PUSH1 0xFF DUP3 GT PUSH2 0x6C4 JUMPI JUMP JUMPDEST SWAP1 PUSH1 0xFF DUP1 SWAP2 AND SWAP2 AND ADD SWAP1 PUSH1 0xFF DUP3 GT PUSH2 0x6C4 JUMPI JUMP JUMPDEST PUSH0 NOT DUP2 EQ PUSH2 0x6C4 JUMPI PUSH1 0x1 ADD SWAP1 JUMP JUMPDEST PUSH1 0xFF AND PUSH1 0xFF DUP2 EQ PUSH2 0x6C4 JUMPI PUSH1 0x1 ADD SWAP1 JUMP JUMPDEST SWAP1 PUSH2 0x2924 DUP3 PUSH2 0x25DE JUMP JUMPDEST PUSH2 0x2931 PUSH1 0x40 MLOAD SWAP2 DUP3 PUSH2 0x1F7E JUMP JUMPDEST DUP3 DUP2 MSTORE DUP1 SWAP3 PUSH2 0x2942 PUSH1 0x1F NOT SWAP2 PUSH2 0x25DE JUMP JUMPDEST ADD SWAP1 PUSH0 JUMPDEST DUP3 DUP2 LT PUSH2 0x2952 JUMPI POP POP POP JUMP JUMPDEST PUSH1 0x20 SWAP1 PUSH1 0x40 MLOAD PUSH2 0x2961 DUP2 PUSH2 0x1F62 JUMP JUMPDEST PUSH0 DUP2 MSTORE PUSH0 DUP4 DUP3 ADD MSTORE PUSH0 PUSH1 0x40 DUP3 ADD MSTORE PUSH0 PUSH1 0x60 DUP3 ADD MSTORE PUSH0 PUSH1 0x80 DUP3 ADD MSTORE PUSH0 PUSH1 0xA0 DUP3 ADD MSTORE PUSH0 PUSH1 0xC0 DUP3 ADD MSTORE PUSH0 PUSH1 0xE0 DUP3 ADD MSTORE PUSH0 PUSH2 0x100 DUP3 ADD MSTORE PUSH0 PUSH2 0x120 DUP3 ADD MSTORE PUSH0 PUSH2 0x140 DUP3 ADD MSTORE PUSH0 PUSH2 0x160 DUP3 ADD MSTORE DUP3 DUP3 DUP6 ADD ADD MSTORE ADD PUSH2 0x2946 JUMP JUMPDEST MLOAD SWAP1 PUSH1 0xFF DUP3 AND DUP3 SUB PUSH2 0x191 JUMPI JUMP JUMPDEST PUSH1 0x4 DUP3 LT ISZERO PUSH2 0x6B0 JUMPI MSTORE JUMP JUMPDEST SWAP1 PUSH1 0x3 DUP2 LT ISZERO PUSH2 0x1DA8 JUMPI PUSH1 0x5 SHL ADD SWAP1 JUMP JUMPDEST PUSH1 0x40 MLOAD SWAP2 SWAP1 PUSH1 0x60 PUSH2 0x29F1 DUP2 DUP6 PUSH2 0x1F7E JUMP JUMPDEST PUSH1 0x60 CALLDATASIZE DUP6 CALLDATACOPY PUSH0 JUMPDEST DUP3 MLOAD DUP2 LT ISZERO PUSH2 0x2A70 JUMPI DUP1 PUSH2 0xFFFF DUP4 PUSH2 0x2A12 PUSH1 0x1 SWAP5 DUP8 PUSH2 0x2691 JUMP JUMPDEST MLOAD ADD MLOAD AND PUSH2 0x2A21 JUMPI JUMPDEST ADD PUSH2 0x29F8 JUMP JUMPDEST PUSH1 0xFF PUSH2 0x120 PUSH2 0x2A30 DUP4 DUP8 PUSH2 0x2691 JUMP JUMPDEST MLOAD ADD MLOAD PUSH2 0x2A3C DUP2 PUSH2 0x2050 JUMP JUMPDEST PUSH2 0x2A45 DUP2 PUSH2 0x2050 JUMP JUMPDEST AND PUSH1 0xFF PUSH2 0x2A67 PUSH2 0x2A60 DUP3 PUSH2 0x2A59 DUP6 DUP13 PUSH2 0x29CF JUMP JUMPDEST MLOAD AND PUSH2 0x2909 JUMP JUMPDEST SWAP3 DUP10 PUSH2 0x29CF JUMP JUMPDEST SWAP2 AND SWAP1 MSTORE PUSH2 0x2A1B JUMP JUMPDEST POP POP PUSH0 JUMPDEST DUP2 MLOAD DUP2 LT ISZERO PUSH2 0x2AE1 JUMPI DUP1 PUSH1 0x3 PUSH1 0xFF PUSH2 0x2AB1 DUP2 PUSH2 0x120 PUSH2 0x2A95 PUSH1 0x1 SWAP8 DUP10 PUSH2 0x2691 JUMP JUMPDEST MLOAD ADD MLOAD PUSH2 0x2AA1 DUP2 PUSH2 0x2050 JUMP JUMPDEST PUSH2 0x2AAA DUP2 PUSH2 0x2050 JUMP JUMPDEST AND DUP9 PUSH2 0x29CF JUMP JUMPDEST MLOAD AND LT ISZERO PUSH2 0x2AC0 JUMPI JUMPDEST ADD PUSH2 0x2A74 JUMP JUMPDEST PUSH2 0x2ACA DUP2 DUP5 PUSH2 0x2691 JUMP JUMPDEST MLOAD PUSH1 0xFF PUSH2 0x2AD9 DUP2 DUP4 MLOAD AND PUSH2 0x28D5 JUMP JUMPDEST AND SWAP1 MSTORE PUSH2 0x2ABA JUMP JUMPDEST POP POP SWAP1 POP JUMP JUMPDEST PUSH0 JUMPDEST DUP2 MLOAD DUP2 LT ISZERO PUSH2 0x2B18 JUMPI PUSH2 0xFFFF PUSH1 0x60 PUSH2 0x2B01 DUP4 DUP6 PUSH2 0x2691 JUMP JUMPDEST MLOAD ADD MLOAD AND PUSH2 0x2B11 JUMPI PUSH1 0x1 ADD PUSH2 0x2AE9 JUMP JUMPDEST POP POP PUSH1 0x1 SWAP1 JUMP JUMPDEST POP POP PUSH0 SWAP1 JUMP JUMPDEST PUSH0 JUMPDEST DUP2 MLOAD DUP2 LT ISZERO PUSH2 0x2B83 JUMPI DUP1 PUSH2 0xFFFF PUSH1 0x60 PUSH2 0x2B3B PUSH1 0x1 SWAP5 DUP7 PUSH2 0x2691 JUMP JUMPDEST MLOAD ADD MLOAD AND PUSH2 0x2B4A JUMPI JUMPDEST ADD PUSH2 0x2B20 JUMP JUMPDEST PUSH1 0xFF PUSH1 0x40 PUSH2 0x2B58 DUP4 DUP7 PUSH2 0x2691 JUMP JUMPDEST MLOAD ADD MLOAD AND PUSH2 0xFFFF PUSH2 0x2B7B PUSH2 0x100 PUSH2 0x2B6F DUP6 DUP9 PUSH2 0x2691 JUMP JUMPDEST MLOAD ADD SWAP3 DUP3 DUP5 MLOAD AND PUSH2 0x26FC JUMP JUMPDEST AND SWAP1 MSTORE PUSH2 0x2B44 JUMP JUMPDEST POP POP JUMP JUMPDEST SWAP1 PUSH0 SWAP1 PUSH0 PUSH0 SWAP5 PUSH0 SWAP2 PUSH0 JUMPDEST DUP7 MLOAD DUP2 LT ISZERO PUSH2 0x2C16 JUMPI PUSH2 0x2BBD PUSH2 0x2BB6 PUSH1 0x60 PUSH2 0x2BAC DUP5 DUP12 PUSH2 0x2691 JUMP JUMPDEST MLOAD ADD MLOAD PUSH2 0xFFFF AND SWAP1 JUMP JUMPDEST PUSH2 0xFFFF AND SWAP1 JUMP JUMPDEST ISZERO ISZERO DUP1 PUSH2 0x2BF7 JUMPI JUMPDEST PUSH2 0x2BD2 JUMPI JUMPDEST PUSH1 0x1 ADD PUSH2 0x2B91 JUMP JUMPDEST SWAP7 POP POP SWAP3 POP PUSH2 0x2BE7 PUSH2 0x100 PUSH2 0x2BAC DUP8 DUP8 PUSH2 0x2691 JUMP JUMPDEST SWAP3 PUSH1 0x1 DUP1 PUSH1 0xFF DUP9 AND SWAP8 SWAP1 POP PUSH2 0x2BCA JUMP JUMPDEST POP PUSH2 0x2C08 PUSH2 0x100 PUSH2 0x2BAC DUP4 DUP11 PUSH2 0x2691 JUMP JUMPDEST PUSH2 0xFFFF DUP1 DUP9 AND SWAP2 AND GT PUSH2 0x2BC5 JUMP JUMPDEST POP SWAP2 SWAP5 SWAP1 SWAP3 SWAP6 PUSH0 JUMPDEST DUP8 MLOAD DUP2 LT ISZERO PUSH2 0x2C94 JUMPI PUSH2 0x2C39 PUSH2 0x2BB6 PUSH1 0x60 PUSH2 0x2BAC DUP5 DUP13 PUSH2 0x2691 JUMP JUMPDEST ISZERO ISZERO DUP1 PUSH2 0x2C75 JUMPI JUMPDEST PUSH2 0x2C4E JUMPI JUMPDEST PUSH1 0x1 ADD PUSH2 0x2C1E JUMP JUMPDEST SWAP6 POP SWAP2 POP SWAP3 POP PUSH2 0x2C64 PUSH2 0x100 PUSH2 0x2BAC DUP7 DUP9 PUSH2 0x2691 JUMP JUMPDEST SWAP3 PUSH0 SWAP2 PUSH1 0x1 PUSH1 0xFF DUP8 AND SWAP7 SWAP1 POP PUSH2 0x2C46 JUMP JUMPDEST POP PUSH2 0x2C86 PUSH2 0x100 PUSH2 0x2BAC DUP4 DUP12 PUSH2 0x2691 JUMP JUMPDEST PUSH2 0xFFFF DUP1 DUP9 AND SWAP2 AND GT PUSH2 0x2C41 JUMP JUMPDEST POP SWAP2 SWAP4 PUSH2 0xFFFF SWAP1 SWAP6 SWAP2 SWAP4 SWAP6 AND ISZERO PUSH2 0x2CEA JUMPI SWAP2 PUSH2 0x100 SWAP2 PUSH0 SWAP4 DUP6 DUP6 EQ PUSH2 0x2CE2 JUMPI POP SWAP6 JUMPDEST DUP5 DUP5 EQ PUSH2 0x2CD3 JUMPI POP PUSH2 0x2CCC SWAP1 PUSH1 0xFF DUP8 AND SWAP1 PUSH2 0x2691 JUMP JUMPDEST MLOAD ADD MSTORE SWAP2 SWAP1 JUMP JUMPDEST PUSH2 0x2CCC SWAP2 POP PUSH1 0xFF DUP8 AND SWAP1 PUSH2 0x2691 JUMP JUMPDEST SWAP1 POP SWAP6 PUSH2 0x2CB6 JUMP JUMPDEST POP POP PUSH2 0x2D0A SWAP3 SWAP4 SWAP2 POP PUSH2 0x2CFC DUP2 PUSH2 0x2B1E JUMP JUMPDEST PUSH2 0x2D05 DUP3 PUSH2 0x2B1E JUMP JUMPDEST PUSH2 0x2B87 JUMP JUMPDEST SWAP1 SWAP2 JUMP JUMPDEST PUSH2 0xFFFF PUSH0 NOT SWAP2 AND ADD SWAP1 PUSH2 0xFFFF DUP3 GT PUSH2 0x6C4 JUMPI JUMP JUMPDEST SWAP1 PUSH2 0xFFFF DUP1 SWAP2 AND SWAP2 AND SUB SWAP1 PUSH2 0xFFFF DUP3 GT PUSH2 0x6C4 JUMPI JUMP JUMPDEST PUSH1 0x40 MLOAD SWAP1 PUSH2 0x2D47 PUSH1 0x40 DUP4 PUSH2 0x1F7E JUMP JUMPDEST PUSH1 0xA DUP3 MSTORE PUSH10 0x13185CDD0814DD185B99 PUSH1 0xB2 SHL PUSH1 0x20 DUP4 ADD MSTORE JUMP JUMPDEST SWAP6 SWAP2 PUSH1 0xFF SWAP1 SWAP8 SWAP5 SWAP6 SWAP4 SWAP2 SWAP8 AND PUSH2 0xFFFF PUSH1 0x60 PUSH2 0x2D7B DUP4 DUP11 PUSH2 0x2691 JUMP JUMPDEST MLOAD ADD MLOAD AND ISZERO PUSH2 0x3132 JUMPI PUSH0 SWAP6 PUSH0 JUMPDEST DUP10 MLOAD DUP2 LT ISZERO PUSH2 0x2DC5 JUMPI PUSH2 0xFFFF PUSH1 0x60 PUSH2 0x2DA0 DUP4 DUP14 PUSH2 0x2691 JUMP JUMPDEST MLOAD ADD MLOAD AND PUSH2 0x2DB1 JUMPI JUMPDEST PUSH1 0x1 ADD PUSH2 0x2D88 JUMP JUMPDEST SWAP7 PUSH2 0x2DBD PUSH1 0x1 SWAP2 PUSH2 0x28FB JUMP JUMPDEST SWAP8 SWAP1 POP PUSH2 0x2DA9 JUMP JUMPDEST POP SWAP1 SWAP3 SWAP5 SWAP8 SWAP2 SWAP4 SWAP6 SWAP7 DUP8 ISZERO PUSH2 0x3126 JUMPI PUSH0 SWAP8 PUSH1 0x1 DUP2 SUB PUSH2 0x3093 JUMPI POP PUSH0 JUMPDEST DUP4 MLOAD DUP2 LT ISZERO PUSH2 0x3085 JUMPI PUSH2 0xFFFF PUSH1 0x60 PUSH2 0x2DF9 DUP4 DUP8 PUSH2 0x2691 JUMP JUMPDEST MLOAD ADD MLOAD AND PUSH2 0x2E09 JUMPI PUSH1 0x1 ADD PUSH2 0x2DE1 JUMP JUMPDEST SWAP1 SWAP2 SWAP3 SWAP4 SWAP5 SWAP6 SWAP7 SWAP8 POP SWAP2 JUMPDEST PUSH2 0xFFFF PUSH1 0x60 PUSH2 0x2E23 DUP6 DUP8 PUSH2 0x2691 JUMP JUMPDEST MLOAD ADD MLOAD AND SWAP1 PUSH1 0xFF PUSH2 0x2E34 DUP8 DUP6 PUSH2 0x2691 JUMP JUMPDEST MLOAD MLOAD AND PUSH1 0xFF PUSH1 0x20 PUSH2 0x2E45 DUP8 DUP10 PUSH2 0x2691 JUMP JUMPDEST MLOAD ADD MLOAD AND PUSH1 0xFF PUSH1 0xA0 PUSH2 0x2E57 DUP11 DUP9 PUSH2 0x2691 JUMP JUMPDEST MLOAD ADD MLOAD AND PUSH1 0xFF PUSH1 0xC0 PUSH2 0x2E69 DUP10 DUP12 PUSH2 0x2691 JUMP JUMPDEST MLOAD ADD MLOAD AND SWAP2 PUSH1 0x3 DUP13 MUL SWAP5 DUP13 DUP7 DIV PUSH1 0x3 EQ DUP14 ISZERO OR ISZERO PUSH2 0x6C4 JUMPI PUSH2 0x2E8C SWAP6 SHR SWAP4 PUSH2 0x36BC JUMP JUMPDEST SWAP1 DUP1 PUSH2 0xFFFF DUP1 PUSH1 0x60 PUSH2 0x2E9E DUP10 DUP12 PUSH2 0x2691 JUMP JUMPDEST MLOAD ADD MLOAD AND SWAP2 AND GT PUSH2 0x306C JUMPI JUMPDEST PUSH0 PUSH1 0xE0 PUSH2 0x2EB7 DUP8 DUP10 PUSH2 0x2691 JUMP JUMPDEST MLOAD ADD MLOAD ISZERO ISZERO DUP1 PUSH2 0x304C JUMPI JUMPDEST ISZERO PUSH2 0x3022 JUMPI POP POP POP PUSH2 0x2EE5 PUSH2 0xFFFF PUSH1 0x60 PUSH2 0x2EDC DUP7 DUP9 PUSH2 0x2691 JUMP JUMPDEST MLOAD ADD MLOAD AND PUSH2 0x2D0E JUMP JUMPDEST PUSH1 0x1 PUSH1 0x60 PUSH2 0x2EF3 DUP7 DUP9 PUSH2 0x2691 JUMP JUMPDEST MLOAD ADD MSTORE PUSH1 0x1 SWAP2 PUSH2 0x2F01 PUSH2 0x2D38 JUMP JUMPDEST SWAP3 JUMPDEST PUSH2 0x3012 JUMPI JUMPDEST PUSH2 0xFFFF PUSH1 0x60 PUSH2 0x2F17 DUP8 DUP10 PUSH2 0x2691 JUMP JUMPDEST MLOAD ADD MLOAD AND SWAP2 PUSH2 0x160 PUSH2 0x2F4B DUP10 PUSH2 0x140 PUSH2 0x2F30 DUP3 DUP11 PUSH2 0x2691 JUMP JUMPDEST MLOAD ADD MLOAD SWAP8 PUSH2 0x2F3D DUP10 PUSH2 0x2050 JUMP JUMPDEST PUSH2 0x2F46 DUP10 PUSH2 0x2050 JUMP JUMPDEST PUSH2 0x2691 JUMP JUMPDEST MLOAD ADD MLOAD SWAP6 PUSH1 0x4 DUP8 LT ISZERO PUSH2 0x6B0 JUMPI PUSH2 0x160 PUSH2 0x2F82 DUP3 PUSH2 0x140 PUSH2 0x2F6C DUP3 DUP14 PUSH2 0x2691 JUMP JUMPDEST MLOAD ADD MLOAD SWAP11 PUSH2 0x2F79 DUP13 PUSH2 0x2050 JUMP JUMPDEST PUSH2 0x2F46 DUP13 PUSH2 0x2050 JUMP JUMPDEST MLOAD ADD MLOAD SWAP9 PUSH1 0x4 DUP11 LT ISZERO PUSH2 0x6B0 JUMPI PUSH1 0x40 MLOAD SWAP11 PUSH2 0x2F9C DUP13 PUSH2 0x1F46 JUMP JUMPDEST PUSH1 0xFF AND DUP12 MSTORE PUSH1 0x20 DUP12 ADD PUSH0 SWAP1 MSTORE PUSH1 0x40 DUP12 ADD MSTORE PUSH1 0xFF AND PUSH1 0x60 DUP11 ADD MSTORE PUSH2 0xFFFF AND DUP1 PUSH1 0x80 DUP11 ADD MSTORE PUSH1 0xA0 DUP10 ADD MSTORE PUSH1 0xC0 DUP9 ADD MSTORE PUSH1 0xE0 DUP8 ADD MSTORE PUSH2 0x100 DUP7 ADD MSTORE PUSH1 0xFF AND PUSH2 0x120 DUP6 ADD MSTORE PUSH1 0xFF AND PUSH2 0x140 DUP5 ADD MSTORE PUSH1 0xFF AND PUSH2 0x160 DUP4 ADD MSTORE PUSH1 0xFF AND PUSH2 0x180 DUP3 ADD MSTORE PUSH2 0x3002 DUP3 DUP5 PUSH2 0x2691 JUMP JUMPDEST MSTORE PUSH2 0x300C SWAP2 PUSH2 0x2691 JUMP JUMPDEST POP PUSH1 0x1 SWAP1 JUMP JUMPDEST SWAP2 POP PUSH2 0x301C PUSH2 0x2D38 JUMP JUMPDEST SWAP2 PUSH2 0x2F08 JUMP JUMPDEST PUSH1 0x60 PUSH2 0x3032 DUP8 DUP10 SWAP7 SWAP5 SWAP6 SWAP7 PUSH2 0x2691 JUMP JUMPDEST MLOAD ADD PUSH2 0xFFFF PUSH2 0x3044 DUP6 DUP3 DUP5 MLOAD AND PUSH2 0x2D22 JUMP JUMPDEST AND SWAP1 MSTORE PUSH2 0x2F03 JUMP JUMPDEST POP PUSH2 0xFFFF PUSH1 0x60 PUSH2 0x305C DUP9 DUP11 PUSH2 0x2691 JUMP JUMPDEST MLOAD ADD MLOAD AND PUSH2 0xFFFF DUP4 AND LT ISZERO PUSH2 0x2EC2 JUMP JUMPDEST POP PUSH2 0xFFFF PUSH1 0x60 PUSH2 0x307C DUP7 DUP9 PUSH2 0x2691 JUMP JUMPDEST MLOAD ADD MLOAD AND PUSH2 0x2EAA JUMP JUMPDEST POP SWAP1 SWAP7 SWAP2 SWAP3 SWAP4 SWAP5 SWAP6 SWAP7 PUSH2 0x2E14 JUMP JUMPDEST PUSH2 0x30BC SWAP2 SWAP9 POP DUP3 PUSH2 0x30B6 DUP9 PUSH1 0xFF PUSH2 0x30B0 DUP11 SWAP10 SWAP9 SWAP8 SWAP15 SWAP13 SWAP12 SWAP11 PUSH2 0x28C0 JUMP JUMPDEST AND PUSH2 0x2043 JUMP JUMPDEST SHR PUSH2 0x2025 JUMP JUMPDEST SWAP8 PUSH0 SWAP8 PUSH0 JUMPDEST DUP4 MLOAD DUP2 LT ISZERO PUSH2 0x3116 JUMPI PUSH2 0xFFFF PUSH1 0x60 PUSH2 0x30D9 DUP4 DUP8 PUSH2 0x2691 JUMP JUMPDEST MLOAD ADD MLOAD AND PUSH2 0x30EA JUMPI JUMPDEST PUSH1 0x1 ADD PUSH2 0x30C1 JUMP JUMPDEST SWAP9 DUP11 DUP2 EQ PUSH2 0x3105 JUMPI PUSH2 0x30FD PUSH1 0x1 SWAP2 PUSH2 0x28FB JUMP JUMPDEST SWAP10 SWAP1 POP PUSH2 0x30E2 JUMP JUMPDEST POP SWAP2 SWAP4 SWAP6 SWAP8 SWAP1 SWAP3 SWAP5 SWAP7 SWAP9 POP SWAP2 PUSH2 0x2E14 JUMP JUMPDEST POP SWAP2 SWAP4 SWAP6 SWAP8 POP SWAP8 SWAP2 SWAP4 SWAP6 SWAP8 PUSH2 0x2E14 JUMP JUMPDEST POP POP POP POP POP POP POP POP PUSH0 SWAP1 JUMP JUMPDEST POP POP POP POP SWAP3 POP POP POP PUSH0 SWAP1 JUMP JUMPDEST SWAP6 SWAP2 PUSH1 0xFF SWAP1 SWAP8 SWAP5 SWAP6 SWAP4 SWAP2 SWAP8 AND PUSH2 0xFFFF PUSH1 0x60 PUSH2 0x3159 DUP4 DUP11 PUSH2 0x2691 JUMP JUMPDEST MLOAD ADD MLOAD AND ISZERO PUSH2 0x3132 JUMPI PUSH0 SWAP6 PUSH0 JUMPDEST DUP10 MLOAD DUP2 LT ISZERO PUSH2 0x31A3 JUMPI PUSH2 0xFFFF PUSH1 0x60 PUSH2 0x317E DUP4 DUP14 PUSH2 0x2691 JUMP JUMPDEST MLOAD ADD MLOAD AND PUSH2 0x318F JUMPI JUMPDEST PUSH1 0x1 ADD PUSH2 0x3166 JUMP JUMPDEST SWAP7 PUSH2 0x319B PUSH1 0x1 SWAP2 PUSH2 0x28FB JUMP JUMPDEST SWAP8 SWAP1 POP PUSH2 0x3187 JUMP JUMPDEST POP SWAP1 SWAP3 SWAP5 SWAP8 SWAP2 SWAP4 SWAP6 SWAP7 DUP8 ISZERO PUSH2 0x3126 JUMPI PUSH0 SWAP8 PUSH1 0x1 DUP2 SUB PUSH2 0x3428 JUMPI POP PUSH0 JUMPDEST DUP4 MLOAD DUP2 LT ISZERO PUSH2 0x341A JUMPI PUSH2 0xFFFF PUSH1 0x60 PUSH2 0x31D7 DUP4 DUP8 PUSH2 0x2691 JUMP JUMPDEST MLOAD ADD MLOAD AND PUSH2 0x31E7 JUMPI PUSH1 0x1 ADD PUSH2 0x31BF JUMP JUMPDEST SWAP1 SWAP2 SWAP3 SWAP4 SWAP5 SWAP6 SWAP7 SWAP8 POP SWAP2 JUMPDEST PUSH2 0xFFFF PUSH1 0x60 PUSH2 0x3201 DUP6 DUP8 PUSH2 0x2691 JUMP JUMPDEST MLOAD ADD MLOAD AND SWAP1 PUSH1 0xFF PUSH2 0x3212 DUP8 DUP6 PUSH2 0x2691 JUMP JUMPDEST MLOAD MLOAD AND PUSH1 0xFF PUSH1 0x20 PUSH2 0x3223 DUP8 DUP10 PUSH2 0x2691 JUMP JUMPDEST MLOAD ADD MLOAD AND PUSH1 0xFF PUSH1 0xA0 PUSH2 0x3235 DUP11 DUP9 PUSH2 0x2691 JUMP JUMPDEST MLOAD ADD MLOAD AND PUSH1 0xFF PUSH1 0xC0 PUSH2 0x3247 DUP10 DUP12 PUSH2 0x2691 JUMP JUMPDEST MLOAD ADD MLOAD AND SWAP2 PUSH1 0x3 DUP13 MUL SWAP5 DUP13 DUP7 DIV PUSH1 0x3 EQ DUP14 ISZERO OR ISZERO PUSH2 0x6C4 JUMPI PUSH2 0x326A SWAP6 SHR SWAP4 PUSH2 0x36BC JUMP JUMPDEST SWAP1 DUP1 PUSH2 0xFFFF DUP1 PUSH1 0x60 PUSH2 0x327C DUP10 DUP12 PUSH2 0x2691 JUMP JUMPDEST MLOAD ADD MLOAD AND SWAP2 AND GT PUSH2 0x3401 JUMPI JUMPDEST PUSH0 PUSH1 0xE0 PUSH2 0x3295 DUP8 DUP10 PUSH2 0x2691 JUMP JUMPDEST MLOAD ADD MLOAD ISZERO ISZERO DUP1 PUSH2 0x33E1 JUMPI JUMPDEST ISZERO PUSH2 0x33B7 JUMPI POP POP POP PUSH2 0x32BA PUSH2 0xFFFF PUSH1 0x60 PUSH2 0x2EDC DUP7 DUP9 PUSH2 0x2691 JUMP JUMPDEST PUSH1 0x1 PUSH1 0x60 PUSH2 0x32C8 DUP7 DUP9 PUSH2 0x2691 JUMP JUMPDEST MLOAD ADD MSTORE PUSH1 0x1 SWAP2 PUSH2 0x32D6 PUSH2 0x2D38 JUMP JUMPDEST SWAP3 JUMPDEST PUSH2 0x33A7 JUMPI JUMPDEST PUSH2 0xFFFF PUSH1 0x60 PUSH2 0x32EC DUP8 DUP10 PUSH2 0x2691 JUMP JUMPDEST MLOAD ADD MLOAD AND SWAP2 PUSH2 0x160 PUSH2 0x3305 DUP10 PUSH2 0x140 PUSH2 0x2F30 DUP3 DUP11 PUSH2 0x2691 JUMP JUMPDEST MLOAD ADD MLOAD SWAP6 PUSH1 0x4 DUP8 LT ISZERO PUSH2 0x6B0 JUMPI PUSH2 0x160 PUSH2 0x3326 DUP3 PUSH2 0x140 PUSH2 0x2F6C DUP3 DUP14 PUSH2 0x2691 JUMP JUMPDEST MLOAD ADD MLOAD SWAP9 PUSH1 0x4 DUP11 LT ISZERO PUSH2 0x6B0 JUMPI PUSH1 0x40 MLOAD SWAP11 PUSH2 0x3340 DUP13 PUSH2 0x1F46 JUMP JUMPDEST PUSH1 0xFF AND DUP12 MSTORE PUSH1 0x20 DUP12 ADD PUSH1 0x1 SWAP1 MSTORE PUSH1 0x40 DUP12 ADD MSTORE PUSH1 0xFF AND PUSH1 0x60 DUP11 ADD MSTORE PUSH2 0xFFFF AND DUP1 PUSH1 0x80 DUP11 ADD MSTORE PUSH1 0xA0 DUP10 ADD MSTORE PUSH1 0xC0 DUP9 ADD MSTORE PUSH1 0xE0 DUP8 ADD MSTORE PUSH2 0x100 DUP7 ADD MSTORE PUSH1 0xFF AND PUSH2 0x120 DUP6 ADD MSTORE PUSH1 0xFF AND PUSH2 0x140 DUP5 ADD MSTORE PUSH1 0xFF AND PUSH2 0x160 DUP4 ADD MSTORE PUSH1 0xFF AND PUSH2 0x180 DUP3 ADD MSTORE PUSH2 0x3002 DUP3 DUP5 PUSH2 0x2691 JUMP JUMPDEST SWAP2 POP PUSH2 0x33B1 PUSH2 0x2D38 JUMP JUMPDEST SWAP2 PUSH2 0x32DD JUMP JUMPDEST PUSH1 0x60 PUSH2 0x33C7 DUP8 DUP10 SWAP7 SWAP5 SWAP6 SWAP7 PUSH2 0x2691 JUMP JUMPDEST MLOAD ADD PUSH2 0xFFFF PUSH2 0x33D9 DUP6 DUP3 DUP5 MLOAD AND PUSH2 0x2D22 JUMP JUMPDEST AND SWAP1 MSTORE PUSH2 0x32D8 JUMP JUMPDEST POP PUSH2 0xFFFF PUSH1 0x60 PUSH2 0x33F1 DUP9 DUP11 PUSH2 0x2691 JUMP JUMPDEST MLOAD ADD MLOAD AND PUSH2 0xFFFF DUP4 AND LT ISZERO PUSH2 0x32A0 JUMP JUMPDEST POP PUSH2 0xFFFF PUSH1 0x60 PUSH2 0x3411 DUP7 DUP9 PUSH2 0x2691 JUMP JUMPDEST MLOAD ADD MLOAD AND PUSH2 0x3288 JUMP JUMPDEST POP SWAP1 SWAP7 SWAP2 SWAP3 SWAP4 SWAP5 SWAP6 SWAP7 PUSH2 0x31F2 JUMP JUMPDEST PUSH2 0x3445 SWAP2 SWAP9 POP DUP3 PUSH2 0x30B6 DUP9 PUSH1 0xFF PUSH2 0x30B0 DUP11 SWAP10 SWAP9 SWAP8 SWAP15 SWAP13 SWAP12 SWAP11 PUSH2 0x28C0 JUMP JUMPDEST SWAP8 PUSH0 SWAP8 PUSH0 JUMPDEST DUP4 MLOAD DUP2 LT ISZERO PUSH2 0x349F JUMPI PUSH2 0xFFFF PUSH1 0x60 PUSH2 0x3462 DUP4 DUP8 PUSH2 0x2691 JUMP JUMPDEST MLOAD ADD MLOAD AND PUSH2 0x3473 JUMPI JUMPDEST PUSH1 0x1 ADD PUSH2 0x344A JUMP JUMPDEST SWAP9 DUP11 DUP2 EQ PUSH2 0x348E JUMPI PUSH2 0x3486 PUSH1 0x1 SWAP2 PUSH2 0x28FB JUMP JUMPDEST SWAP10 SWAP1 POP PUSH2 0x346B JUMP JUMPDEST POP SWAP2 SWAP4 SWAP6 SWAP8 SWAP1 SWAP3 SWAP5 SWAP7 SWAP9 POP SWAP2 PUSH2 0x31F2 JUMP JUMPDEST POP SWAP2 SWAP4 SWAP6 SWAP8 POP SWAP8 SWAP2 SWAP4 SWAP6 SWAP8 PUSH2 0x31F2 JUMP JUMPDEST PUSH2 0x34B8 DUP2 PUSH2 0x2050 JUMP JUMPDEST DUP1 ISZERO PUSH2 0x34D9 JUMPI PUSH1 0x1 SWAP1 PUSH2 0x34CA DUP2 PUSH2 0x2050 JUMP JUMPDEST EQ PUSH2 0x34D4 JUMPI PUSH1 0x69 SWAP1 JUMP JUMPDEST PUSH1 0x52 SWAP1 JUMP JUMPDEST POP PUSH1 0x41 SWAP1 JUMP JUMPDEST SWAP1 PUSH2 0xFFFF DUP1 SWAP2 AND SWAP2 AND MUL SWAP1 PUSH2 0xFFFF DUP3 AND SWAP2 DUP3 SUB PUSH2 0x6C4 JUMPI JUMP JUMPDEST SWAP1 PUSH1 0x2 SHL PUSH2 0x3FC AND PUSH2 0x3509 SWAP2 PUSH2 0x26FC JUMP JUMPDEST SWAP1 JUMP JUMPDEST PUSH2 0x3515 DUP2 PUSH2 0x2050 JUMP JUMPDEST DUP1 ISZERO PUSH2 0x3536 JUMPI PUSH1 0x1 SWAP1 PUSH2 0x3527 DUP2 PUSH2 0x2050 JUMP JUMPDEST EQ PUSH2 0x3531 JUMPI PUSH1 0x14 SWAP1 JUMP JUMPDEST PUSH1 0xC SWAP1 JUMP JUMPDEST POP PUSH1 0x6 SWAP1 JUMP JUMPDEST SWAP1 PUSH1 0xFF PUSH1 0x16 SWAP2 AND DIV SWAP1 DUP2 PUSH2 0x354F DUP3 PUSH2 0x2050 JUMP JUMPDEST PUSH1 0x1 DUP3 EQ PUSH2 0x35A1 JUMPI JUMPDEST POP PUSH1 0x2 SWAP1 PUSH2 0x3565 DUP2 PUSH2 0x2050 JUMP JUMPDEST EQ PUSH2 0x357D JUMPI JUMPDEST PUSH1 0x12 PUSH1 0xFF DUP3 AND GT ISZERO PUSH2 0x3509 JUMPI POP PUSH1 0x12 SWAP1 JUMP JUMPDEST PUSH1 0xFF PUSH1 0x4 SWAP2 AND ADD PUSH1 0xFF DUP2 GT ISZERO PUSH2 0x356B JUMPI PUSH4 0x4E487B71 PUSH1 0xE0 SHL PUSH0 MSTORE PUSH1 0x11 PUSH1 0x4 MSTORE PUSH1 0x24 PUSH0 REVERT JUMPDEST PUSH1 0x2 SWAP2 SWAP3 POP PUSH2 0x35AF SWAP1 PUSH2 0x28D5 JUMP JUMPDEST SWAP2 SWAP1 PUSH2 0x3558 JUMP JUMPDEST SWAP2 SWAP1 PUSH2 0xFFFF AND DUP1 ISZERO PUSH2 0x36B7 JUMPI PUSH1 0x3 DUP2 MUL SWAP1 DUP2 DIV PUSH1 0x3 SUB PUSH2 0x6C4 JUMPI PUSH1 0x64 ADD SWAP2 DUP3 PUSH1 0x64 GT PUSH2 0x6C4 JUMPI PUSH0 JUMPDEST DUP2 MLOAD DUP2 LT ISZERO PUSH2 0x2AE1 JUMPI DUP1 PUSH1 0xFF PUSH1 0x64 PUSH2 0x3605 DUP8 DUP4 PUSH2 0x35FD PUSH1 0x1 SWAP8 DUP10 PUSH2 0x2691 JUMP JUMPDEST MLOAD MLOAD AND PUSH2 0x2641 JUMP JUMPDEST DIV AND PUSH2 0x3611 DUP3 DUP6 PUSH2 0x2691 JUMP JUMPDEST MLOAD MSTORE PUSH1 0xFF PUSH1 0x64 PUSH2 0x3631 DUP8 DUP4 PUSH1 0x20 PUSH2 0x3628 DUP8 DUP11 PUSH2 0x2691 JUMP JUMPDEST MLOAD ADD MLOAD AND PUSH2 0x2641 JUMP JUMPDEST DIV AND PUSH1 0x20 PUSH2 0x363F DUP4 DUP7 PUSH2 0x2691 JUMP JUMPDEST MLOAD ADD MSTORE PUSH1 0xFF PUSH1 0x64 PUSH2 0x3657 DUP8 DUP4 PUSH1 0x40 PUSH2 0x3628 DUP8 DUP11 PUSH2 0x2691 JUMP JUMPDEST DIV AND PUSH1 0x40 PUSH2 0x3665 DUP4 DUP7 PUSH2 0x2691 JUMP JUMPDEST MLOAD ADD MSTORE PUSH2 0xFFFF PUSH1 0x64 PUSH2 0x367E DUP8 DUP4 PUSH1 0x60 PUSH2 0x3628 DUP8 DUP11 PUSH2 0x2691 JUMP JUMPDEST DIV AND PUSH1 0x60 PUSH2 0x368C DUP4 DUP7 PUSH2 0x2691 JUMP JUMPDEST MLOAD ADD MSTORE PUSH2 0xFFFF PUSH1 0x60 PUSH2 0x369E DUP4 DUP7 PUSH2 0x2691 JUMP JUMPDEST MLOAD ADD MLOAD AND PUSH1 0x80 PUSH2 0x36AE DUP4 DUP7 PUSH2 0x2691 JUMP JUMPDEST MLOAD ADD MSTORE ADD PUSH2 0x35DE JUMP JUMPDEST POP SWAP1 POP JUMP JUMPDEST PUSH1 0x60 SWAP6 SWAP5 SWAP3 SWAP4 PUSH1 0xFF AND DUP1 ISZERO DUP1 ISZERO SWAP2 SWAP1 DUP3 PUSH2 0x381C JUMPI JUMPDEST POP POP PUSH2 0x37F1 JUMPI PUSH1 0xFF AND SWAP1 PUSH2 0xFFFF PUSH1 0x23 DUP5 MOD AND PUSH1 0x6E ADD PUSH2 0xFFFF DUP2 GT PUSH2 0x6C4 JUMPI PUSH1 0xFF PUSH2 0x36FD PUSH1 0x12 SWAP3 DUP6 PUSH2 0x34DF JUMP JUMPDEST SWAP3 AND ADD PUSH2 0xFFFF DUP2 GT PUSH2 0x6C4 JUMPI PUSH2 0xFFFF AND SWAP1 DUP2 ISZERO PUSH2 0x202F JUMPI PUSH2 0xFFFF AND DIV SWAP1 PUSH1 0x2 PUSH2 0xFFFF DUP4 AND LT PUSH2 0x37D4 JUMPI JUMPDEST POP PUSH2 0xFFFF PUSH1 0x25 DUP4 PUSH1 0x8 SHR MOD AND PUSH1 0x52 ADD PUSH2 0xFFFF DUP2 GT PUSH2 0x6C4 JUMPI PUSH2 0x374E PUSH2 0xFFFF SWAP2 PUSH1 0x64 SWAP4 PUSH2 0x34DF JUMP JUMPDEST AND DIV SWAP1 PUSH1 0xFF DUP3 SWAP4 AND SWAP1 DUP2 ISZERO ISZERO SWAP2 DUP3 PUSH2 0x37AB JUMPI JUMPDEST POP POP PUSH2 0x376C JUMPI POP SWAP2 SWAP1 JUMP JUMPDEST PUSH1 0xD SWAP3 SWAP4 POP PUSH2 0xFFFF SWAP2 POP AND MUL PUSH2 0xFFFF DUP2 AND SWAP1 DUP2 SUB PUSH2 0x6C4 JUMPI PUSH1 0xA SWAP1 DIV SWAP1 PUSH1 0x40 MLOAD PUSH2 0x3797 PUSH1 0x40 DUP3 PUSH2 0x1F7E JUMP JUMPDEST PUSH1 0x4 DUP2 MSTORE PUSH4 0x10D49255 PUSH1 0xE2 SHL PUSH1 0x20 DUP3 ADD MSTORE SWAP1 JUMP JUMPDEST PUSH1 0x1C SWAP2 SWAP3 POP MUL PUSH2 0xFFFF DUP2 AND SWAP1 DUP2 SUB PUSH2 0x6C4 JUMPI PUSH2 0xFFFF PUSH1 0xA PUSH1 0x64 SWAP3 DIV AND SWAP2 PUSH1 0x18 SHR MOD LT PUSH0 DUP1 PUSH2 0x3761 JUMP JUMPDEST PUSH1 0xFF SWAP2 POP PUSH1 0x3 SWAP1 DIV AND PUSH1 0x2 ADD PUSH1 0xFF DUP2 GT PUSH2 0x6C4 JUMPI PUSH1 0xFF AND PUSH0 PUSH2 0x3727 JUMP JUMPDEST POP POP POP POP SWAP1 POP PUSH0 SWAP1 PUSH1 0x40 MLOAD PUSH2 0x3807 PUSH1 0x40 DUP3 PUSH2 0x1F7E JUMP JUMPDEST PUSH1 0x5 DUP2 MSTORE PUSH5 0x444F444745 PUSH1 0xD8 SHL PUSH1 0x20 DUP3 ADD MSTORE SWAP1 JUMP JUMPDEST SWAP1 SWAP2 POP PUSH1 0x19 DUP3 MUL SWAP2 DUP3 DIV PUSH1 0x19 EQ OR ISZERO PUSH2 0x6C4 JUMPI PUSH1 0xA SWAP1 DIV PUSH1 0x64 DUP5 MOD LT PUSH0 DUP1 PUSH2 0x36D1 JUMP INVALID LOG2 PUSH5 0x6970667358 0x22 SLT KECCAK256 CALLER BALANCE SWAP14 SAR NUMBER INVALID CALLDATASIZE 0x4E DUP5 0x2A 0x28 0xAA 0xBC COINBASE ORIGIN STOP DELEGATECALL EXTCALL 0xA9 DUP1 RJUMPI 0xB57 MSTORE PUSH15 0xFB3D7D46CDD0F964736F6C63430008 0x1E STOP CALLER "
		},
		"gasEstimates": {
			"creation": {
				"codeDepositCost": "2890600",
				"executionCost": "infinite",
				"totalCost": "infinite"
			},
			"external": {
				"buyFromShop(uint256)": "infinite",
				"buyUnit()": "infinite",
				"clearPlayerData()": "infinite",
				"createProfile()": "109596",
				"equippedRelics(address,uint256)": "2934",
				"getCurrentAI(address)": "infinite",
				"getEquippedRelics(address)": "infinite",
				"getLastBattleResult(address)": "infinite",
				"getPlayerRelics(address)": "infinite",
				"getPlayerShop(address)": "infinite",
				"getPlayerUnits(address)": "infinite",
				"hasProfile(address)": "2703",
				"lastAIMaxHp(address,uint256)": "7050",
				"lastBattleId()": "2432",
				"lastPlayerMaxHp(address,uint256)": "6940",
				"lastPlayerWon(address)": "2792",
				"playerRelics(address,uint256)": "7324",
				"playerShop(address,uint256)": "7033",
				"playerUnits(address,uint256)": "6931",
				"profiles(address)": "9272",
				"relicContract()": "2808",
				"rerollShop()": "infinite",
				"setRelicContract(address)": "24789",
				"setUnitNFT(address)": "24723",
				"startMatch(uint256[],uint256[])": "infinite",
				"unitNFT()": "2676"
			},
			"internal": {
				"_generateShopItem()": "infinite",
				"_updateProfileAfterBattle(bool)": "infinite"
			}
		},
		"methodIdentifiers": {
			"buyFromShop(uint256)": "b654823e",
			"buyUnit()": "201738e2",
			"clearPlayerData()": "bdb729c9",
			"createProfile()": "00547664",
			"equippedRelics(address,uint256)": "c4f036c4",
			"getCurrentAI(address)": "c99ae45f",
			"getEquippedRelics(address)": "a95db7e2",
			"getLastBattleResult(address)": "2dc6d62f",
			"getPlayerRelics(address)": "bb15a3b4",
			"getPlayerShop(address)": "49c7c24a",
			"getPlayerUnits(address)": "6154ee97",
			"hasProfile(address)": "a787c80b",
			"lastAIMaxHp(address,uint256)": "732e9b85",
			"lastBattleId()": "518c83b0",
			"lastPlayerMaxHp(address,uint256)": "4e178659",
			"lastPlayerWon(address)": "b78f4c70",
			"playerRelics(address,uint256)": "f5905ca1",
			"playerShop(address,uint256)": "18dc3185",
			"playerUnits(address,uint256)": "4ef2d6c1",
			"profiles(address)": "bbe15627",
			"relicContract()": "d5654ae7",
			"rerollShop()": "29de58d1",
			"setRelicContract(address)": "b2a47500",
			"setUnitNFT(address)": "7e5c4f8b",
			"startMatch(uint256[],uint256[])": "51bdab14",
			"unitNFT()": "b92a40ad"
		}
	},
	"abi": [
		{
			"inputs": [
				{
					"internalType": "address",
					"name": "_unitNFT",
					"type": "address"
				},
				{
					"internalType": "address",
					"name": "_relic",
					"type": "address"
				}
			],
			"stateMutability": "nonpayable",
			"type": "constructor"
		},
		{
			"anonymous": false,
			"inputs": [
				{
					"indexed": true,
					"internalType": "bytes32",
					"name": "battleId",
					"type": "bytes32"
				},
				{
					"indexed": false,
					"internalType": "uint8",
					"name": "round",
					"type": "uint8"
				},
				{
					"indexed": false,
					"internalType": "bool",
					"name": "isPlayerSide",
					"type": "bool"
				},
				{
					"indexed": false,
					"internalType": "uint8",
					"name": "attackerIndex",
					"type": "uint8"
				},
				{
					"indexed": false,
					"internalType": "uint8",
					"name": "targetIndex",
					"type": "uint8"
				},
				{
					"indexed": false,
					"internalType": "uint16",
					"name": "damage",
					"type": "uint16"
				},
				{
					"indexed": false,
					"internalType": "uint16",
					"name": "remainingHp",
					"type": "uint16"
				},
				{
					"indexed": false,
					"internalType": "string",
					"name": "specialEffect",
					"type": "string"
				}
			],
			"name": "BattleEventEmitted",
			"type": "event"
		},
		{
			"anonymous": false,
			"inputs": [
				{
					"indexed": true,
					"internalType": "bytes32",
					"name": "battleId",
					"type": "bytes32"
				},
				{
					"indexed": true,
					"internalType": "address",
					"name": "player",
					"type": "address"
				},
				{
					"indexed": false,
					"internalType": "bool",
					"name": "playerWon",
					"type": "bool"
				},
				{
					"indexed": false,
					"internalType": "uint16[]",
					"name": "playerMaxHp",
					"type": "uint16[]"
				},
				{
					"indexed": false,
					"internalType": "uint16[]",
					"name": "aiMaxHp",
					"type": "uint16[]"
				}
			],
			"name": "BattleResolved",
			"type": "event"
		},
		{
			"inputs": [
				{
					"internalType": "uint256",
					"name": "slot",
					"type": "uint256"
				}
			],
			"name": "buyFromShop",
			"outputs": [],
			"stateMutability": "payable",
			"type": "function"
		},
		{
			"inputs": [],
			"name": "buyUnit",
			"outputs": [],
			"stateMutability": "payable",
			"type": "function"
		},
		{
			"inputs": [],
			"name": "clearPlayerData",
			"outputs": [],
			"stateMutability": "nonpayable",
			"type": "function"
		},
		{
			"inputs": [],
			"name": "createProfile",
			"outputs": [],
			"stateMutability": "nonpayable",
			"type": "function"
		},
		{
			"inputs": [
				{
					"internalType": "address",
					"name": "",
					"type": "address"
				},
				{
					"internalType": "uint256",
					"name": "",
					"type": "uint256"
				}
			],
			"name": "equippedRelics",
			"outputs": [
				{
					"internalType": "uint256",
					"name": "",
					"type": "uint256"
				}
			],
			"stateMutability": "view",
			"type": "function"
		},
		{
			"inputs": [
				{
					"internalType": "address",
					"name": "",
					"type": "address"
				}
			],
			"name": "getCurrentAI",
			"outputs": [
				{
					"components": [
						{
							"internalType": "bool",
							"name": "isRelic",
							"type": "bool"
						},
						{
							"internalType": "uint256",
							"name": "id",
							"type": "uint256"
						},
						{
							"internalType": "uint8",
							"name": "faction",
							"type": "uint8"
						},
						{
							"internalType": "uint8",
							"name": "rarity",
							"type": "uint8"
						},
						{
							"internalType": "uint8",
							"name": "unitClass",
							"type": "uint8"
						},
						{
							"internalType": "uint8",
							"name": "attack",
							"type": "uint8"
						},
						{
							"internalType": "uint8",
							"name": "defense",
							"type": "uint8"
						},
						{
							"internalType": "uint8",
							"name": "speed",
							"type": "uint8"
						},
						{
							"internalType": "uint8",
							"name": "relicType",
							"type": "uint8"
						},
						{
							"internalType": "uint8",
							"name": "relicValue",
							"type": "uint8"
						}
					],
					"internalType": "struct StarForgeGame.ShopItem[]",
					"name": "",
					"type": "tuple[]"
				}
			],
			"stateMutability": "pure",
			"type": "function"
		},
		{
			"inputs": [
				{
					"internalType": "address",
					"name": "player",
					"type": "address"
				}
			],
			"name": "getEquippedRelics",
			"outputs": [
				{
					"internalType": "uint256[3]",
					"name": "",
					"type": "uint256[3]"
				}
			],
			"stateMutability": "view",
			"type": "function"
		},
		{
			"inputs": [
				{
					"internalType": "address",
					"name": "player",
					"type": "address"
				}
			],
			"name": "getLastBattleResult",
			"outputs": [
				{
					"internalType": "bool",
					"name": "playerWon",
					"type": "bool"
				},
				{
					"internalType": "uint16[]",
					"name": "playerMaxHp",
					"type": "uint16[]"
				},
				{
					"internalType": "uint16[]",
					"name": "aiMaxHp",
					"type": "uint16[]"
				},
				{
					"internalType": "bytes32",
					"name": "battleId",
					"type": "bytes32"
				}
			],
			"stateMutability": "view",
			"type": "function"
		},
		{
			"inputs": [
				{
					"internalType": "address",
					"name": "player",
					"type": "address"
				}
			],
			"name": "getPlayerRelics",
			"outputs": [
				{
					"internalType": "uint256[]",
					"name": "",
					"type": "uint256[]"
				}
			],
			"stateMutability": "view",
			"type": "function"
		},
		{
			"inputs": [
				{
					"internalType": "address",
					"name": "player",
					"type": "address"
				}
			],
			"name": "getPlayerShop",
			"outputs": [
				{
					"components": [
						{
							"internalType": "bool",
							"name": "isRelic",
							"type": "bool"
						},
						{
							"internalType": "uint256",
							"name": "id",
							"type": "uint256"
						},
						{
							"internalType": "uint8",
							"name": "faction",
							"type": "uint8"
						},
						{
							"internalType": "uint8",
							"name": "rarity",
							"type": "uint8"
						},
						{
							"internalType": "uint8",
							"name": "unitClass",
							"type": "uint8"
						},
						{
							"internalType": "uint8",
							"name": "attack",
							"type": "uint8"
						},
						{
							"internalType": "uint8",
							"name": "defense",
							"type": "uint8"
						},
						{
							"internalType": "uint8",
							"name": "speed",
							"type": "uint8"
						},
						{
							"internalType": "uint8",
							"name": "relicType",
							"type": "uint8"
						},
						{
							"internalType": "uint8",
							"name": "relicValue",
							"type": "uint8"
						}
					],
					"internalType": "struct StarForgeGame.ShopItem[3]",
					"name": "",
					"type": "tuple[3]"
				}
			],
			"stateMutability": "view",
			"type": "function"
		},
		{
			"inputs": [
				{
					"internalType": "address",
					"name": "player",
					"type": "address"
				}
			],
			"name": "getPlayerUnits",
			"outputs": [
				{
					"internalType": "uint256[]",
					"name": "",
					"type": "uint256[]"
				}
			],
			"stateMutability": "view",
			"type": "function"
		},
		{
			"inputs": [
				{
					"internalType": "address",
					"name": "",
					"type": "address"
				}
			],
			"name": "hasProfile",
			"outputs": [
				{
					"internalType": "bool",
					"name": "",
					"type": "bool"
				}
			],
			"stateMutability": "view",
			"type": "function"
		},
		{
			"inputs": [
				{
					"internalType": "address",
					"name": "",
					"type": "address"
				},
				{
					"internalType": "uint256",
					"name": "",
					"type": "uint256"
				}
			],
			"name": "lastAIMaxHp",
			"outputs": [
				{
					"internalType": "uint16",
					"name": "",
					"type": "uint16"
				}
			],
			"stateMutability": "view",
			"type": "function"
		},
		{
			"inputs": [],
			"name": "lastBattleId",
			"outputs": [
				{
					"internalType": "bytes32",
					"name": "",
					"type": "bytes32"
				}
			],
			"stateMutability": "view",
			"type": "function"
		},
		{
			"inputs": [
				{
					"internalType": "address",
					"name": "",
					"type": "address"
				},
				{
					"internalType": "uint256",
					"name": "",
					"type": "uint256"
				}
			],
			"name": "lastPlayerMaxHp",
			"outputs": [
				{
					"internalType": "uint16",
					"name": "",
					"type": "uint16"
				}
			],
			"stateMutability": "view",
			"type": "function"
		},
		{
			"inputs": [
				{
					"internalType": "address",
					"name": "",
					"type": "address"
				}
			],
			"name": "lastPlayerWon",
			"outputs": [
				{
					"internalType": "bool",
					"name": "",
					"type": "bool"
				}
			],
			"stateMutability": "view",
			"type": "function"
		},
		{
			"inputs": [
				{
					"internalType": "address",
					"name": "",
					"type": "address"
				},
				{
					"internalType": "uint256",
					"name": "",
					"type": "uint256"
				}
			],
			"name": "playerRelics",
			"outputs": [
				{
					"internalType": "uint256",
					"name": "",
					"type": "uint256"
				}
			],
			"stateMutability": "view",
			"type": "function"
		},
		{
			"inputs": [
				{
					"internalType": "address",
					"name": "",
					"type": "address"
				},
				{
					"internalType": "uint256",
					"name": "",
					"type": "uint256"
				}
			],
			"name": "playerShop",
			"outputs": [
				{
					"internalType": "bool",
					"name": "isRelic",
					"type": "bool"
				},
				{
					"internalType": "uint256",
					"name": "id",
					"type": "uint256"
				},
				{
					"internalType": "uint8",
					"name": "faction",
					"type": "uint8"
				},
				{
					"internalType": "uint8",
					"name": "rarity",
					"type": "uint8"
				},
				{
					"internalType": "uint8",
					"name": "unitClass",
					"type": "uint8"
				},
				{
					"internalType": "uint8",
					"name": "attack",
					"type": "uint8"
				},
				{
					"internalType": "uint8",
					"name": "defense",
					"type": "uint8"
				},
				{
					"internalType": "uint8",
					"name": "speed",
					"type": "uint8"
				},
				{
					"internalType": "uint8",
					"name": "relicType",
					"type": "uint8"
				},
				{
					"internalType": "uint8",
					"name": "relicValue",
					"type": "uint8"
				}
			],
			"stateMutability": "view",
			"type": "function"
		},
		{
			"inputs": [
				{
					"internalType": "address",
					"name": "",
					"type": "address"
				},
				{
					"internalType": "uint256",
					"name": "",
					"type": "uint256"
				}
			],
			"name": "playerUnits",
			"outputs": [
				{
					"internalType": "uint256",
					"name": "",
					"type": "uint256"
				}
			],
			"stateMutability": "view",
			"type": "function"
		},
		{
			"inputs": [
				{
					"internalType": "address",
					"name": "",
					"type": "address"
				}
			],
			"name": "profiles",
			"outputs": [
				{
					"internalType": "uint16",
					"name": "level",
					"type": "uint16"
				},
				{
					"internalType": "uint32",
					"name": "xp",
					"type": "uint32"
				},
				{
					"internalType": "uint256",
					"name": "wins",
					"type": "uint256"
				},
				{
					"internalType": "uint256",
					"name": "losses",
					"type": "uint256"
				},
				{
					"internalType": "uint16",
					"name": "currentAITier",
					"type": "uint16"
				}
			],
			"stateMutability": "view",
			"type": "function"
		},
		{
			"inputs": [],
			"name": "relicContract",
			"outputs": [
				{
					"internalType": "contract StarForgeRelic",
					"name": "",
					"type": "address"
				}
			],
			"stateMutability": "view",
			"type": "function"
		},
		{
			"inputs": [],
			"name": "rerollShop",
			"outputs": [],
			"stateMutability": "payable",
			"type": "function"
		},
		{
			"inputs": [
				{
					"internalType": "address",
					"name": "_relic",
					"type": "address"
				}
			],
			"name": "setRelicContract",
			"outputs": [],
			"stateMutability": "nonpayable",
			"type": "function"
		},
		{
			"inputs": [
				{
					"internalType": "address",
					"name": "_unitNFT",
					"type": "address"
				}
			],
			"name": "setUnitNFT",
			"outputs": [],
			"stateMutability": "nonpayable",
			"type": "function"
		},
		{
			"inputs": [
				{
					"internalType": "uint256[]",
					"name": "team",
					"type": "uint256[]"
				},
				{
					"internalType": "uint256[]",
					"name": "equipped",
					"type": "uint256[]"
				}
			],
			"name": "startMatch",
			"outputs": [],
			"stateMutability": "nonpayable",
			"type": "function"
		},
		{
			"inputs": [],
			"name": "unitNFT",
			"outputs": [
				{
					"internalType": "contract StarForgeUnitNFT",
					"name": "",
					"type": "address"
				}
			],
			"stateMutability": "view",
			"type": "function"
		}
	]
}