{
	"data": {
		"bytecode": {
			"linkReferences": {},
			"object": "60803461010957601f61505e38819003918201601f19168301916001600160401b0383118484101761010d57808492604094855283398101031261010957610052602061004b83610121565b9201610121565b5f8054336001600160a01b0319821681178355604051949290916001600160a01b0316907f8be0079c531659141344cd1fd0a4f28419497f9722a3daafe3b4186f6b6457e09080a3600180556002805460ff19169055662386f26fc10000600f8190556611c37937e08000601055601155661c6bf526340000601255601380546001600160a01b039283166001600160a01b03199182161790915560148054939092169216919091179055614f2890816101368239f35b5f80fd5b634e487b7160e01b5f52604160045260245ffd5b51906001600160a01b03821682036101095756fe60806040526004361015610011575f80fd5b5f3560e01c806318dc318514612f78578063201738e214612e1057806329de58d114612da65780632dc6d62f14612af5578063394861f314612ad85780633ccfd60b14612a595780633f4ba83a146129c657806349c7c24a146129065780634e178659146128bb5780634ef2d6c114612872578063518c83b01461285557806351bdab141461111e5780635c975abb146110fc5780636154ee971461108a578063715018a614611033578063732e9b8514610fd85780637e5c4f8b14610f955780638456cb5914610f3c5780638b5ca78f14610f1f5780638da5cb5b14610ef85780639d980bd214610edb578063a5f968a014610d93578063a787c80b14610d56578063a95db7e214610cb8578063aeb5f76014610bb7578063b2a4750014610b74578063b654823e1461078e578063b78f4c7014610751578063b92a40ad14610729578063bb15a3b4146106ab578063bbe156271461063a578063bdb729c9146105a3578063c4f036c41461055b578063c99ae45f14610477578063d5654ae71461044f578063d8e86854146103df578063da539b0f14610310578063f2fde38b1461024a578063f5905ca1146101f25763f5e5fff2146101d1575f80fd5b346101ee575f3660031901126101ee576020601154604051908152f35b5f80fd5b346101ee5760403660031901126101ee5761020b612fbc565b6001600160a01b03165f908152600660205260409020805460243591908210156101ee5760209161023b916130f2565b90549060031b1c604051908152f35b346101ee5760203660031901126101ee57610263612fbc565b61026b613e68565b6001600160a01b031680156102bc575f80546001600160a01b03198116831782556001600160a01b0316907f8be0079c531659141344cd1fd0a4f28419497f9722a3daafe3b4186f6b6457e09080a3005b60405162461bcd60e51b815260206004820152602660248201527f4f776e61626c653a206e6577206f776e657220697320746865207a65726f206160448201526564647265737360d01b6064820152608490fd5b346101ee5760403660031901126101ee57610329612fbc565b6001600160a01b03165f90815260096020526040902060243560088110156101ee5761035491613300565b50805460018201546002909201546040805160ff9384161515815260208082019590955282841691810191909152600882901c83166060820152601082901c83166080820152601882901c831660a08201529281901c821660c0840152602881901c821660e0840152603081901c821661010084015260381c166101208201528061014081015b0390f35b346101ee5760803660031901126101ee577f6ef2ff813efc9efc76792366c4aca2677b755a5a13affc54d96ef35dc8e9bb736080600435606435604435602435610427613e68565b83600f55806010558160115582601255604051938452602084015260408301526060820152a1005b346101ee575f3660031901126101ee576014546040516001600160a01b039091168152602090f35b346101ee5760203660031901126101ee57610490612fbc565b610100906040516104a18382613230565b5f5b83811061054657505060018060a01b03165f52600960205260405f206040519182018281106001600160401b03821117610532576040525f825b6008821061051457604051845f825b600882106104fa57610a0084f35b60206105096001928551613054565b9301910190916104ec565b60036020600192610524866138c3565b8152019301910190916104dd565b634e487b7160e01b5f52604160045260245ffd5b602090610551613879565b81840152016104a3565b346101ee5760403660031901126101ee57610574612fbc565b6001600160a01b03165f9081526007602052604090206024359060038210156101ee5760209161023b916132f1565b346101ee575f3660031901126101ee576105bb613b6c565b335f5260056020526105cf60405f20613b4b565b335f5260066020526105e360405f20613b4b565b335f5260076020526105fc60405f206003810190613a16565b335f52600b60205261061060405f20613a2c565b335f52600c60205261062460405f20613a2c565b335f52600e60205261063860405f20613a89565b005b346101ee5760203660031901126101ee576001600160a01b0361065b612fbc565b165f52600460205260a060405f2080549060018101549061ffff60036002830154920154169163ffffffff6040519461ffff8116865260101c166020850152604084015260608301526080820152f35b346101ee5760203660031901126101ee576001600160a01b036106cc612fbc565b165f52600660205260405f206040519081602082549182815201915f5260205f20905f5b818110610713576103db8561070781870382613230565b60405191829182613137565b82548452602090930192600192830192016106f0565b346101ee575f3660031901126101ee576013546040516001600160a01b039091168152602090f35b346101ee5760203660031901126101ee576001600160a01b03610772612fbc565b165f52600a602052602060ff60405f2054166040519015158152f35b60203660031901126101ee576004356107a5613b6c565b6107ad613bb0565b6107b5613c06565b6003811015610b4057335f5260086020526107dc6107d68260405f20612fd2565b506138c3565b90602082015115801590610b36575b15610b045781511561093b5760125434106108f65760018060a01b03601454169160ff6101008201511660068110156108e257606460ff610120602094015116915f604051968794859363f925b74160e01b8552336004860152602485015260448401525af19182156108d7575f926108a1575b5061087861089b92335f52600660205260405f20613403565b610895610883613d21565b91335f52600860205260405f20612fd2565b90613437565b60018055005b91506020823d6020116108cf575b816108bc60209383613230565b810103126101ee5790519061087861085f565b3d91506108af565b6040513d5f823e3d90fd5b634e487b7160e01b5f52602160045260245ffd5b60405162461bcd60e51b815260206004820152601e60248201527f496e73756666696369656e74207061796d656e7420666f722072656c696300006044820152606490fd5b90506011543410610abf576040805142602082019081523360601b6bffffffffffffffffffffffff1916928201929092524460548201526074810183905261099081609481015b03601f198101835282613230565b51902090600b8206600a0180600a11610aab57600b8360081c066008019081600811610aab57600b8460101c066009019384600911610aab5760ff60038260181c06166109e360038360201c1692613cff565b6013546001600160a01b0316929060ff906109fd8461338f565b1696610a088861338f565b60048210156108e257604051630e3bd81160e31b815297602096899687955f958795610a459560ff918216958216949091169233600489016133a3565b03925af19182156108d7575f92610a75575b50610a7061089b92335f52600560205260405f20613403565b610878565b91506020823d602011610aa3575b81610a9060209383613230565b810103126101ee57905190610a70610a57565b3d9150610a83565b634e487b7160e01b5f52601160045260245ffd5b60405162461bcd60e51b815260206004820152601d60248201527f496e73756666696369656e74207061796d656e7420666f7220756e69740000006044820152606490fd5b60405162461bcd60e51b815260206004820152600a602482015269115b5c1d1e481cdb1bdd60b21b6044820152606490fd5b50815115156107eb565b60405162461bcd60e51b815260206004820152600c60248201526b125b9d985b1a59081cdb1bdd60a21b6044820152606490fd5b346101ee5760203660031901126101ee57610b8d612fbc565b610b95613e68565b601480546001600160a01b0319166001600160a01b0392909216919091179055005b346101ee5760403660031901126101ee57610bd0612fbc565b6001600160a01b03165f908152600e60205260409020805460243591908210156101ee5761ffff91610c0191613170565b5080549060ff610c886002610c1860018501613251565b930154926040519585848897168752848160081c1615156020880152848160101c166040880152848160181c166060880152818160201c166080880152818160301c1660a0880152818160401c1660c088015260501c1660e08601526101a06101008601526101a0850190613030565b91818116610120850152818160081c16610140850152818160101c1661016085015260181c166101808301520390f35b346101ee5760203660031901126101ee57610cd1612fbc565b60609081604051610ce28282613230565b3690376001600160a01b03165f90815260076020526040808220905191825b60038210610d4057505050610d168282613230565b604051905f825b60038210610d2a57505050f35b6020806001928551815201930191019091610d1d565b6001602081928554815201930191019091610d01565b346101ee5760203660031901126101ee576001600160a01b03610d77612fbc565b165f526003602052602060ff60405f2054166040519015158152f35b346101ee5760603660031901126101ee57366064116101ee57610db4613b6c565b610dbc613c06565b5f5b60038110610e2357335f52600760205260405f2060045f5b60038110610e0f576040516060600482377f189dcf2b228f6307a1c47f1ab2652fd06a5c537f8533503fd79381a0ef24b27960603392a2005b600190602083359301928185015501610dd6565b610e2c81613b28565b35610e3a575b600101610dbe565b601454610e7f91906020906001600160a01b0316610e5783613b28565b604051627eeac760e11b81523360048201529035602482015293849190829081906044820190565b03915afa9182156108d7575f92610ea6575b50610e9f600192151561399d565b9050610e32565b91506020823d8211610ed3575b81610ec060209383613230565b810103126101ee57905190610e9f610e91565b3d9150610eb3565b346101ee575f3660031901126101ee576020601054604051908152f35b346101ee575f3660031901126101ee575f546040516001600160a01b039091168152602090f35b346101ee575f3660031901126101ee576020601254604051908152f35b346101ee575f3660031901126101ee57610f54613e68565b610f5c613b6c565b600160ff1960025416176002557f62e78cea01bee320cd4e420270b5ea74000d11b0c9f74754ebdbfc544b05a2586020604051338152a1005b346101ee5760203660031901126101ee57610fae612fbc565b610fb6613e68565b601380546001600160a01b0319166001600160a01b0392909216919091179055005b346101ee5760403660031901126101ee57610ff1612fbc565b6001600160a01b03165f908152600c602052604090208054602435908110156101ee5761102361ffff916020936130d1565b90549060031b1c16604051908152f35b346101ee575f3660031901126101ee5761104b613e68565b5f80546001600160a01b0319811682556001600160a01b03167f8be0079c531659141344cd1fd0a4f28419497f9722a3daafe3b4186f6b6457e08280a3005b346101ee5760203660031901126101ee576001600160a01b036110ab612fbc565b165f52600560205260405f206040519081602082549182815201915f5260205f20905f5b8181106110e6576103db8561070781870382613230565b82548452602090930192600192830192016110cf565b346101ee575f3660031901126101ee57602060ff600254166040519015158152f35b346101ee5760403660031901126101ee576004356001600160401b0381116101ee5761114e903690600401613107565b6024356001600160401b0381116101ee5761116d903690600401613107565b9290611177613b6c565b61117f613bb0565b611187613c06565b60048310158061284a575b15612811576013546001600160a01b03165f5b84811061273b57505083159384612719576111c1368284613951565b94156126265750505f5b600381106125f657505b604051926101206111e68186613230565b60088552601f19015f5b8181106125df5750506040805142602082019081523360601b6bffffffffffffffffffffffff1916928201929092524460548201524360748201526112388160948101610982565b519020905f5b60ff8116600881101561139357335f90815260046020526040902054604080516020810187815260f886901b6001600160f81b0319169282019290925260f09290921b6001600160f01b031916604183015260238252906112a0604382613230565b5190209160ff6112b2600d8506613374565b1691600c8460081c066007019081600711610aab5760ff946001948661138b9416876112e3600b8560101c06613374565b169161135d8960038660181c0616948a61130360038360201c1692613cff565b61130c8861338f565b166113168161338f565b61131f82613399565b6040519661132f61014089613230565b5f88525f60208901526113418161338f565b604088015261134f8161338f565b6060870152608086016139fd565b60a084015260c083015260e08201525f6101008201525f610120820152611384828c6139e9565b52896139e9565b50011661123e565b505092905f5b60ff811686600882101561164a579161164360ff610120611603856115fd846101006115bd848c6114078c869f60019f6113d6906113f5926139e9565b5151335f9081526009602052604090209015159290613300565b613300565b509060ff801983541691151516179055565b8b8d611431602061141886866139e9565b510151335f908152600960205260409020909390613300565b5001558b856002611470604061144787876139e9565b510151936114548561338f565b61145d8561338f565b335f908152600960205260409020613300565b5001911686198254161790556114bf8c60026114a7606061149187876139e9565b5101519261149e8461338f565b61145d8461338f565b50019061ff0082549160081b169061ff001916179055565b6115028c60026114e86114de60806114d788886139e9565b5101613a09565b9261145d84613399565b50019062ff000082549160101b169062ff00001916179055565b61154e8c60026115328860a061151888886139e9565b510151335f90815260096020526040902091169390613300565b50019063ff00000082549160181b169063ff0000001916179055565b6115828c60026115648860c061151888886139e9565b50019064ff0000000082549160201b169064ff000000001916179055565b6115b88c60026115988860e061151888886139e9565b50019065ff000000000082549160281b169065ff00000000001916179055565b6139e9565b5101511660026115e1896113f03360018060a01b03165f52600960205260405f2090565b50019060ff60301b82549160301b169060ff60301b1916179055565b8c6139e9565b510151166002611627846113f03360018060a01b03165f52600960205260405f2090565b50019060ff60381b82549160381b169060ff60381b1916179055565b0116611399565b601354601454335f908152600460205260409020546001600160a01b039283169361ffff9091169287928b92911690611684368b8d613951565b9261168d613ebf565b506116988451613f7f565b945f5b85518110156118b9576116ae81876139e9565b519060405191630b2adfdf60e11b8352600483015260c0826024818d5afa9182156108d7575f92611803575b5060208201916116f383516116ee8161338f565b614b08565b90611707608082019260ff84511690614b51565b9060ff806060830151169351169060a081019560ff87511661174c61173583516117308161338f565b614b65565b9860ff8451916117448361338f565b511690614b95565b604084519361175a8561338f565b51946117658661338f565b01519460048610156108e25760019961ffff6117e79860ff95869461178e9c6040519d8e613214565b8d5260208d015260408c0152168060608b015260808a01521660a08801521660c08601525f60e08601525f6101008601526117c88161338f565b6101208501526117d78161338f565b61014084015261016083016139fd565b6117f1828a6139e9565b526117fc81896139e9565b500161169b565b90915060c0813d82116118b1575b8161181e60c09383613230565b810103126101ee576040519060c082018281106001600160401b0382111761053257604052805160038110156101ee578252602081015160038110156101ee576020830152604081015160048110156101ee576118a59160a09160408501526118896060820161401a565b606085015261189a6080820161401a565b60808501520161401a565b60a0820152908a6116da565b3d9150611811565b508591936118c78884614c0f565b5f935b8551851015611bc1576118dd85876139e9565b5115611bb4576118ed85876139e9565b5195604051966368972d5960e01b885260048801525f87602481865afa9687156108d7575f97611ada575b505f5b8551811015611ac557875160068110156108e2576119625760019060ff60208a01511660ff61195861194d848b6139e9565b519282845116613f4c565b1690525b0161191b565b875160068110156108e2576001036119a55760019060ff60208a01511660ff61199c6020611990858c6139e9565b51019282845116613f4c565b1690525b61195c565b875160068110156108e2576002036119d35760019060ff60208a01511660ff61199c6040611990858c6139e9565b875160068110156108e257600303611a745761ffff60606119f483896139e9565b5101511690600361ffff60ff60208c015116160261ffff8116908103610aab5761ffff166064019161ffff8311610aab5761ffff611a36600194606493614b38565b160461ffff6060611a47848b6139e9565b51019116905261ffff6060611a5c838a6139e9565b510151166080611a6c838a6139e9565b51015261195c565b875160068110156108e257600403611aa25760019060ff60208a01511660ff61199c60a0611990858c6139e9565b87519060068210156108e2576005600192036119a0578160e0611a6c838a6139e9565b5092919550936001905b0193949091946118ca565b9096503d805f833e611aec8183613230565b8101906020818303126101ee578051906001600160401b0382116101ee5701906060828203126101ee5760405191611b23836131dd565b805160068110156101ee578352611b3c6020820161401a565b60208401526040810151906001600160401b0382116101ee570181601f820112156101ee578051906001600160401b0382116105325760405192611b8a601f8401601f191660200185613230565b828452602083830101116101ee57815f9260208093018386015e8301015260408201529587611918565b9360019095929195611acf565b9050611bcd8151613f7f565b925f5b8251811015611c9657611be381846139e9565b51906060820191611bf883516116ee8161338f565b90611c0c60c082019260ff84511690614b51565b9060ff8060a0830151169351169060e081019560ff875116611c3561173583516117308161338f565b6080604085015193611c468561338f565b5194611c518661338f565b01519460048610156108e25760019961ffff611c7a9860ff95869461178e9c6040519d8e613214565b611c8482886139e9565b52611c8f81876139e9565b5001611bd0565b508284611ca283614028565b611cab81614028565b611cb58351613ef3565b90611cc08151613ef3565b925f5b8551811015611cf3578061ffff6080611cde6001948a6139e9565b51015116611cec82876139e9565b5201611cc3565b508383865f5b8551811015611d29578061ffff6080611d146001948a6139e9565b51015116611d2282876139e9565b5201611cf9565b5060405191949093610f20611d3e8185613230565b60788452601f19015f5b8181106125745750505f9460015b601260ff82161115612443575b505050611d6f9061412f565b1592611d7a81613862565b91611d886040519384613230565b818352601f19611d9783613862565b015f5b8181106123d85750505f5b8281106123ae57505050611db7613ebf565b9283526020830190815260408301938452606083019182528251151560405160208101916bffffffffffffffffffffffff193360601b16835242603483015244605483015260f81b607482015260558152611e13607582613230565b5190209081600d55611e3f84511515335f52600a60205260405f209060ff801983541691151516179055565b335f908152600b60205260409020611e5690613a2c565b5f5b855151811015611e9557335f908152600b6020526040902060019190611e8f905b61ffff611e87848b516139e9565b511690613a53565b01611e58565b50335f908152600c6020526040902085908590611eb190613a2c565b5f5b855151811015611ede57335f908152600c6020526040902060019190611ed890611e79565b01611eb3565b50335f908152600e60205260409020859490611ef990613a89565b5f5b8451518110156121b357335f908152600e60205260409020611f1e8287516139e9565b51908054600160401b81101561053257611f3d91600182018155613170565b6121a057815181546020840151604085015162ffffff1990921660ff939093169290921791151560081b61ff00169190911760109190911b62ff0000161781556060820151815463ff000000191660189190911b63ff000000161781556080820151815460a084015160c085015160e08601516bffffffffffffffff000000001990931660209490941b65ffff00000000169390931760309190911b67ffff000000000000161760409290921b69ffff0000000000000000169190911760509190911b61ffff60501b16178155610100820151805160018301916001600160401b0382116105325761202f8354613189565b601f8111612165575b50602090601f83116001146120f3576120e29460019796948460ff95610180956002955f926120e8575b50505f19600383901b1c1916908a1b1790555b01928280610120830151161683198554161784556120ab8361014083015116859061ff0082549160081b169061ff001916179055565b610160810151845462ff0000191690841660101b62ff0000161784550151825463ff0000001916911660181b63ff00000016179055565b01611efb565b015190505f80612062565b90601f19831691845f52815f20925f5b81811061214d575094600185610180956002956120e29a9560ff99859e9d9b10612135575b505050811b019055612075565b01515f1960f88460031b161c191690555f8080612128565b92936020600181928786015181550195019301612103565b61219090845f5260205f20601f850160051c81019160208610612196575b601f0160051c0190613a16565b8b612038565b9091508190612183565b634e487b7160e01b5f525f60045260245ffd5b507fc5187ed43ef6c494568f3ace9a84a990fe330816256f8610ba7630de7fc2a48561220d829493966121ff885115159551915191604051968752606060208801526060870190612ff9565b908582036040870152612ff9565b928033940390a35f5b82519081518110156122c757827f60620dfbc2d4188642cffa14579da13e93400a7369bb90aac5a983beef88f66a612250836001956139e9565b5160ff8151166122be602083015115159260ff6040820151169060ff60608201511661ffff6080830151169061010061ffff60e085015116930151936040519788978852602088015260408701526060860152608085015260a084015260e060c084015260e0830190613030565b0390a201612216565b84511515335f52600460205260405f2090805f146123a75760195b60ff63ffffffff845460101c1691160163ffffffff8111610aab57825465ffffffff0000191660109190911b65ffffffff00001617825515612392576001810161232c8154613f60565b90555b805461ffff8116906037820263ffffffff8116908103610aab57605a0163ffffffff8111610aab5763ffffffff8091169160101c1610156123705760018055005b61ffff8114610aab57600161ffff91011661ffff19825416179055808061089b565b600281016123a08154613f60565b905561232f565b600a6122e2565b806123bb600192846139e9565b516123c682876139e9565b526123d181866139e9565b5001611da5565b6020906040516123e7816131c1565b5f81525f838201525f60408201525f60608201525f60808201525f60a08201525f60c08201525f60e082015260606101008201525f6101208201525f6101408201525f6101608201525f61018082015282828801015201611d9a565b61244c8261412f565b158015612564575b61255f576124618261417c565b61246a8461417c565b600360ff82160260ff8116908103610aab5760018460ff8093161c161660010160ff8111610aab5760ff165f5b8160ff8216106124b2575b50506124ad90613f6e565b611d56565b607789101561254a576124c48461412f565b15801561254f575b61254a57828988876124de8a896141e5565b949015612519576124f0948b8a614797565b612502575b600160ff915b0116612497565b97600161251060ff92613f60565b999150506124f5565b61252494898c6143be565b612533575b600160ff916124fb565b97600161254160ff92613f60565b99915050612529565b6124a2565b506125598661412f565b156124cc565b611d63565b5061256e8461412f565b15612454565b602090604051612583816131c1565b5f81525f838201525f60408201525f60608201525f60808201525f60a08201525f60c08201525f60e082015260606101008201525f6101208201525f6101408201525f6101608201525f61018082015282828801015201611d48565b6020906125ea613879565b828289010152016111f0565b600190335f52600760205261260e8160405f206132f1565b90549060031b1c61261f82876139e9565b52016111cb565b90919350600381116126e2575f5b81811061264e575090612648913691613951565b916111d5565b612659818385613941565b35612667575b600101612634565b60145461268691906020906001600160a01b0316610e57838688613941565b03915afa9182156108d7575f926126ad575b506126a6600192151561399d565b905061265f565b91506020823d82116126da575b816126c760209383613230565b810103126101ee579051906126a6612698565b3d91506126ba565b60405162461bcd60e51b815260206004820152600f60248201526e546f6f206d616e792072656c69637360881b6044820152606490fd5b60405160806127288183613230565b60038252601f19013660208301376111c1565b612746818686613941565b6040516331a9108f60e11b815290356004820152602081602481865afa9081156108d7575f916127d0575b50336001600160a01b039091160361278b576001016111a5565b60405162461bcd60e51b815260206004820152601860248201527f596f7520646f206e6f74206f776e207468697320756e697400000000000000006044820152606490fd5b90506020813d8211612809575b816127ea60209383613230565b810103126101ee57516001600160a01b03811681036101ee5787612771565b3d91506127dd565b60405162461bcd60e51b8152602060048201526011602482015270496e76616c6964207465616d2073697a6560781b6044820152606490fd5b506008831115611192565b346101ee575f3660031901126101ee576020600d54604051908152f35b346101ee5760403660031901126101ee5761288b612fbc565b6001600160a01b03165f908152600560205260409020805460243591908210156101ee5760209161023b916130f2565b346101ee5760403660031901126101ee576128d4612fbc565b6001600160a01b03165f908152600b602052604090208054602435908110156101ee5761102361ffff916020936130d1565b346101ee5760203660031901126101ee5761291f612fbc565b606060405161292f606082613230565b5f5b8281106129b1578360018060a01b03165f52600860205260405f2060405190612959826131dd565b5f825b6003821061299357604051845f825b60038210612979576103c084f35b60206129886001928551613054565b93019101909161296b565b600360206001926129a3866138c3565b81520193019101909161295c565b6020906129bc613879565b8184015201612931565b346101ee575f3660031901126101ee576129de613e68565b60025460ff811615612a1d5760ff19166002557f5db9ee0a495bf2e6ff9c91a7834c1ba4fdd244a5e8aa4e537bd38aeae4b073aa6020604051338152a1005b60405162461bcd60e51b815260206004820152601460248201527314185d5cd8589b194e881b9bdd081c185d5cd95960621b6044820152606490fd5b346101ee575f3660031901126101ee57612a71613e68565b612a79613bb0565b478015612a9c575f8080809360018060a01b0382541682f1156108d75760018055005b60405162461bcd60e51b81526020600482015260146024820152734e6f2066756e647320746f20776974686472617760601b6044820152606490fd5b346101ee575f3660031901126101ee576020600f54604051908152f35b346101ee5760203660031901126101ee576001600160a01b03612b16612fbc565b16805f52600a60205260ff60405f205416815f52600b60205260405f20825f52600c60205260405f2092600d54905f52600e602052612b61612b5b60405f2093613557565b94613557565b825490612b6d82613862565b91612b7b6040519384613230565b8083526020830180955f5260205f205f915b838310612cdb5750505050612bc890612bba6040519788971515885260a0602089015260a0880190612ff9565b908682036040880152612ff9565b916060850152838203608085015251808252602082019160208260051b82010193925f915b838310612bfa5786860387f35b919395509193602080600192601f1985820301865288519060ff82511681528282015115158382015260ff604083015116604082015260ff606083015116606082015261ffff608083015116608082015261ffff60a08301511660a082015261ffff60c08301511660c082015261ffff60e08301511660e082015261018060ff81612c986101008601516101a06101008701526101a0860190613030565b9482610120820151166101208601528261014082015116610140860152826101608201511661016086015201511691015297019301930190928695949293612bed565b6003602060019260409c9798999a9b9c51612cf5816131c1565b61ffff865460ff8116835260ff8160081c1615158584015260ff8160101c16604084015260ff8160181c1660608401528181861c166080840152818160301c1660a0840152818160401c1660c084015260501c1660e0820152612d59858701613251565b61010082015260ff6002870154818116610120840152818160081c16610140840152818160101c1661016084015260181c1661018082015281520192019201919098979695949398612b8d565b5f3660031901126101ee57612db9613b6c565b612dc1613bb0565b612dc9613c06565b612dd7601054341015613313565b5f5b60038110612de75760018055005b600190612e0a612df5613d21565b335f5260086020526108958360405f20612fd2565b01612dd9565b5f3660031901126101ee57612e23613b6c565b612e2b613bb0565b612e33613c06565b612e41600f54341015613313565b60405160208101904282523360601b604082015244605482015260548152612e6a607482613230565b519020600b8106600a0180600a11610aab57600b8260081c066008019081600811610aab57600b8360101c066009019283600911610aab5760ff60038260181c0616612ebc60038360201c1692613cff565b6013546001600160a01b0316929060ff90612ed68461338f565b1695612ee18761338f565b60048210156108e257604051630e3bd81160e31b815296602096889687955f958795612f1e9560ff918216958216949091169233600489016133a3565b03925af180156108d7575f90612f44575b61089b90335f52600560205260405f20613403565b506020813d602011612f70575b81612f5e60209383613230565b810103126101ee5761089b9051612f2f565b3d9150612f51565b346101ee5760403660031901126101ee57612f91612fbc565b6001600160a01b03165f90815260086020526040902060243560038110156101ee5761035491612fd2565b600435906001600160a01b03821682036101ee57565b906003811015612fe55760030201905f90565b634e487b7160e01b5f52603260045260245ffd5b90602080835192838152019201905f5b8181106130165750505090565b825161ffff16845260209384019390920191600101613009565b805180835260209291819084018484015e5f828201840152601f01601f1916010190565b9060ff61012061014093805115158452602081015160208501528260408201511660408501528260608201511660608501528260808201511660808501528260a08201511660a08501528260c08201511660c08501528260e08201511660e085015282610100820151166101008501520151166101208201520190565b9190918054831015612fe5575f52601e60205f208360041c019260011b1690565b8054821015612fe5575f5260205f2001905f90565b9181601f840112156101ee578235916001600160401b0383116101ee576020808501948460051b0101116101ee57565b60206040818301928281528451809452019201905f5b81811061315a5750505090565b825184526020938401939092019160010161314d565b8054821015612fe5575f52600360205f20910201905f90565b90600182811c921680156131b7575b60208310146131a357565b634e487b7160e01b5f52602260045260245ffd5b91607f1691613198565b6101a081019081106001600160401b0382111761053257604052565b606081019081106001600160401b0382111761053257604052565b61014081019081106001600160401b0382111761053257604052565b61018081019081106001600160401b0382111761053257604052565b90601f801991011681019081106001600160401b0382111761053257604052565b9060405191825f82549261326484613189565b80845293600181169081156132cf575060011461328b575b5061328992500383613230565b565b90505f9291925260205f20905f915b8183106132b3575050906020613289928201015f61327c565b602091935080600191548385890101520191019091849261329a565b90506020925061328994915060ff191682840152151560051b8201015f61327c565b6003821015612fe55701905f90565b906008811015612fe55760030201905f90565b1561331a57565b60405162461bcd60e51b8152602060048201526014602482015273125b9cdd59999a58da595b9d081c185e5b595b9d60621b6044820152606490fd5b8115613360570690565b634e487b7160e01b5f52601260045260245ffd5b6008019081600811610aab57565b91908201809211610aab57565b600311156108e257565b600411156108e257565b6001600160a01b03909116815260e081019796909594909290916133c68161338f565b60208701526133d48161338f565b604086015260048310156108e25760c09360ff809492819360608901521660808701521660a085015216910152565b8054600160401b81101561053257613420916001820181556130f2565b819291549060031b91821b915f19901b1916179055565b91906121a05760ff61012060026132899461346185511515829060ff801983541691151516179055565b602085015160018201550192828060408301511616831985541617845561349f83606083015116859061ff0082549160081b169061ff001916179055565b6080810151845462ff0000191690841660101b62ff00001617845560a0810151845463ff000000191690841660181b63ff0000001617845560c0810151845464ff00000000191690841660201b64ff000000001617845560e0810151845465ff0000000000191690841660281b65ff000000000016178455610100810151845466ff000000000000191690841660301b60ff60301b161784550151825467ff000000000000001916911660381b60ff60381b16179055565b90604051918281549182825260208201905f5260205f20925f905b80600f83011061377a57613289945491818110613765575b81811061374d575b818110613736575b81811061371e575b818110613706575b8181106136ee575b8181106136d6575b8181106136be575b8181106136a6575b81811061368e575b818110613676575b81811061365e575b818110613646575b81811061362e575b818110613616575b10613608575b500383613230565b60f01c81526020015f613600565b92602060019161ffff8560e01c1681520193016135fa565b92602060019161ffff8560d01c1681520193016135f2565b92602060019161ffff8560c01c1681520193016135ea565b92602060019161ffff8560b01c1681520193016135e2565b92602060019161ffff8560a01c1681520193016135da565b92602060019161ffff8560901c1681520193016135d2565b92602060019161ffff8560801c1681520193016135ca565b92602060019161ffff8560701c1681520193016135c2565b92602060019161ffff8560601c1681520193016135ba565b92602060019161ffff8560501c1681520193016135b2565b92602060019161ffff8560401c1681520193016135aa565b92602060019161ffff8560301c1681520193016135a2565b92602060019161ffff85831c16815201930161359a565b92602060019161ffff8560101c168152019301613592565b92602060019161ffff8516815201930161358a565b916010919350610200600191865461ffff8116825261ffff81861c16602083015261ffff8160201c16604083015261ffff8160301c16606083015261ffff8160401c16608083015261ffff8160501c1660a083015261ffff8160601c1660c083015261ffff8160701c1660e083015261ffff8160801c1661010083015261ffff8160901c1661012083015261ffff8160a01c1661014083015261ffff8160b01c1661016083015261ffff8160c01c1661018083015261ffff8160d01c166101a083015261ffff8160e01c166101c083015260f01c6101e0820152019401920185929391613572565b6001600160401b0381116105325760051b60200190565b60405190613886826131f8565b5f610120838281528260208201528260408201528260608201528260808201528260a08201528260c08201528260e0820152826101008201520152565b906040516138d0816131f8565b61012060ff6002839582815416151585526001810154602086015201548181166040850152818160081c166060850152818160101c166080850152818160181c1660a0850152818160201c1660c0850152818160281c1660e0850152818160301c1661010085015260381c16910152565b9190811015612fe55760051b0190565b92919061395d81613862565b9361396b6040519586613230565b602085838152019160051b81019283116101ee57905b82821061398d57505050565b8135815260209182019101613981565b156139a457565b60405162461bcd60e51b815260206004820152601960248201527f596f7520646f206e6f74206f776e20746869732072656c6963000000000000006044820152606490fd5b8051821015612fe55760209160051b010190565b60048210156108e25752565b5160048110156108e25790565b818110613a21575050565b5f8155600101613a16565b80545f825580613a3a575050565b613289915f52600f60205f20910160041c810190613a16565b8054600160401b81101561053257613a70916001820181556130d1565b61ffff80839493549260031b9316831b921b1916179055565b8054905f815581613a98575050565b81600302916003830403610aab575f5260205f20908101905b818110613abc575050565b805f6003925560018101613ad08154613189565b9081613ae5575b50505f600282015501613ab1565b81601f5f9311600114613afc5750555b5f80613ad7565b81835260208320613b1891601f0160051c810190600101613a16565b8082528160208120915555613af5565b6003811015612fe55760051b60040190565b906003811015612fe55760051b0190565b80545f825580613b59575050565b613289915f5260205f2090810190613a16565b60ff60025416613b7857565b60405162461bcd60e51b815260206004820152601060248201526f14185d5cd8589b194e881c185d5cd95960821b6044820152606490fd5b600260015414613bc1576002600155565b60405162461bcd60e51b815260206004820152601f60248201527f5265656e7472616e637947756172643a207265656e7472616e742063616c6c006044820152606490fd5b335f52600360205260ff60405f20541615613c1d57565b335f52600360205260405f20600160ff1982541617905560405160a081018181106001600160401b03821117610532576040526001815261ffff600381602084015f8152604085015f815260608601905f8252613cbc63ffffffff608089019460018652335f526004602052868060405f209b51161687198b5416178a555116889065ffffffff000082549160101b169065ffffffff00001916179055565b51600187015551600286015551169201911661ffff19825416179055337ff10ec97e920cde75887622583772c637595a40b1f7777c18e51ea36cd127475c5f80a2565b60649006603c8110613d1c57605a11613d1757600290565b600190565b505f90565b613d29613879565b5060405160208101904282524460408201523360601b606082015260548152613d53607482613230565b5190206028606482061015613dc757600d8160081c0660080180600811610aab5760ff9081600660405194613d87866131f8565b600186525f60208701525f60408701525f60608701525f60808701525f60a08701525f60c08701525f60e087015206166101008401521661012082015290565b613dd081613cff565b90600b8160281c06600a0180600a11610aab57600b8260301c066008019081600811610aab57600b8360381c066009019182600911610aab5760ff809492600382948360405199613e208b6131f8565b5f8b525f60208c015281848460101c061660408c01521660608a015260181c1660808801521660a08601521660c08401521660e08201525f6101008201525f61012082015290565b5f546001600160a01b03163303613e7b57565b606460405162461bcd60e51b815260206004820152602060248201527f4f776e61626c653a2063616c6c6572206973206e6f7420746865206f776e65726044820152fd5b60405190608082018281106001600160401b0382111761053257604052606080835f81528160208201528160408201520152565b90613efd82613862565b613f0a6040519182613230565b8281528092613f1b601f1991613862565b0190602036910137565b60021b906103fc60fc831692168203610aab57565b60ff60029116019060ff8211610aab57565b9060ff8091169116019060ff8211610aab57565b5f198114610aab5760010190565b60ff1660ff8114610aab5760010190565b90613f8982613862565b613f966040519182613230565b8281528092613fa7601f1991613862565b01905f5b828110613fb757505050565b602090604051613fc681613214565b5f81525f838201525f60408201525f60608201525f60808201525f60a08201525f60c08201525f60e08201525f6101008201525f6101208201525f6101408201525f61016082015282828501015201613fab565b519060ff821682036101ee57565b604051919060606140398185613230565b60603685375f5b82518110156140b8578061ffff8361405a600194876139e9565b51015116614069575b01614040565b60ff61012061407883876139e9565b5101516140848161338f565b61408d8161338f565b1660ff6140af6140a8826140a1858c613b3a565b5116613f6e565b9289613b3a565b91169052614063565b50505f5b81518110156141295780600360ff6140f9816101206140dd600197896139e9565b5101516140e98161338f565b6140f28161338f565b1688613b3a565b51161015614108575b016140bc565b61411281846139e9565b5160ff61412181835116613f3a565b169052614102565b50509050565b5f5b81518110156141605761ffff606061414983856139e9565b5101511661415957600101614131565b5050600190565b50505f90565b9061ffff8091169116019061ffff8211610aab57565b5f5b81518110156141e1578061ffff6060614199600194866139e9565b510151166141a8575b0161417e565b60ff60406141b683866139e9565b5101511661ffff6141d96101006141cd85886139e9565b51019282845116614166565b1690526141a2565b5050565b905f905f5f945f915f5b86518110156142745761421b614214606061420a848b6139e9565b51015161ffff1690565b61ffff1690565b151580614255575b614230575b6001016141ef565b965050925061424561010061420a87876139e9565b9260018060ff8816979050614228565b5061426661010061420a838a6139e9565b61ffff808816911611614223565b5091949092955f5b87518110156142f257614297614214606061420a848c6139e9565b1515806142d3575b6142ac575b60010161427c565b9550915092506142c261010061420a86886139e9565b925f91600160ff87169690506142a4565b506142e461010061420a838b6139e9565b61ffff80881691161161429f565b50919361ffff909591939516156143485791610100915f938585146143405750955b848414614331575061432a9060ff8716906139e9565b5101529190565b61432a915060ff8716906139e9565b905095614314565b50506143689293915061435a8161417c565b6143638261417c565b6141e5565b9091565b61ffff5f199116019061ffff8211610aab57565b9061ffff8091169116039061ffff8211610aab57565b604051906143a5604083613230565b600a82526913185cdd0814dd185b9960b21b6020830152565b959160ff909794959391971661ffff60606143d9838a6139e9565b510151161561478b575f955f5b89518110156144235761ffff60606143fe838d6139e9565b5101511661440f575b6001016143e6565b9661441b600191613f60565b979050614407565b509092949791939596871561477f575f97600181036146ec57505f5b83518110156146de5761ffff606061445783876139e9565b510151166144675760010161443f565b909192939495969750915b61ffff606061448185876139e9565b510151169060ff61449287856139e9565b51511660ff60206144a387896139e9565b5101511660ff60a06144b58a886139e9565b5101511660ff60c06144c7898b6139e9565b510151169160038c02948c86046003148d151715610aab576144ea951c93614d6f565b908061ffff8060606144fc898b6139e9565b510151169116116146c5575b5f60e061451587896139e9565b5101511515806146a5575b1561467b5750505061454361ffff606061453a86886139e9565b5101511661436c565b6001606061455186886139e9565b51015260019161455f614396565b925b61466b575b61ffff606061457587896139e9565b51015116916101606145a48961014061458e828a6139e9565b5101519761459b8961338f565b6115b88961338f565b5101519560048710156108e2576145de6101606114d7836101406145c8828e6139e9565b5101519b6145d58d61338f565b6115b88d61338f565b9860048a10156108e2576040519a6145f58c6131c1565b60ff168b5260208b015f905260408b015260ff1660608a015261ffff168060808a015260a089015260c088015260e087015261010086015260ff1661012085015260ff1661014084015260ff1661016083015260ff1661018082015261465b82846139e9565b52614665916139e9565b50600190565b9150614675614396565b91614566565b606061468b8789969495966139e9565b510161ffff61469d8582845116614380565b169052614561565b5061ffff60606146b5888a6139e9565b5101511661ffff83161015614520565b5061ffff60606146d586886139e9565b51015116614508565b509096919293949596614472565b6147159198508261470f8860ff6147098a9998979e9c9b9a613f25565b16613382565b1c613356565b975f975f5b835181101561476f5761ffff606061473283876139e9565b51015116614743575b60010161471a565b988a811461475e57614756600191613f60565b99905061473b565b509193959790929496985091614472565b5091939597509791939597614472565b50505050505050505f90565b50505050925050505f90565b959160ff909794959391971661ffff60606147b2838a6139e9565b510151161561478b575f955f5b89518110156147fc5761ffff60606147d7838d6139e9565b510151166147e8575b6001016147bf565b966147f4600191613f60565b9790506147e0565b509092949791939596871561477f575f9760018103614a8157505f5b8351811015614a735761ffff606061483083876139e9565b5101511661484057600101614818565b909192939495969750915b61ffff606061485a85876139e9565b510151169060ff61486b87856139e9565b51511660ff602061487c87896139e9565b5101511660ff60a061488e8a886139e9565b5101511660ff60c06148a0898b6139e9565b510151169160038c02948c86046003148d151715610aab576148c3951c93614d6f565b908061ffff8060606148d5898b6139e9565b51015116911611614a5a575b5f60e06148ee87896139e9565b510151151580614a3a575b15614a105750505061491361ffff606061453a86886139e9565b6001606061492186886139e9565b51015260019161492f614396565b925b614a00575b61ffff606061494587896139e9565b510151169161016061495e8961014061458e828a6139e9565b5101519560048710156108e2576149826101606114d7836101406145c8828e6139e9565b9860048a10156108e2576040519a6149998c6131c1565b60ff168b5260208b016001905260408b015260ff1660608a015261ffff168060808a015260a089015260c088015260e087015261010086015260ff1661012085015260ff1661014084015260ff1661016083015260ff1661018082015261465b82846139e9565b9150614a0a614396565b91614936565b6060614a208789969495966139e9565b510161ffff614a328582845116614380565b169052614931565b5061ffff6060614a4a888a6139e9565b5101511661ffff831610156148f9565b5061ffff6060614a6a86886139e9565b510151166148e1565b50909691929394959661484b565b614a9e9198508261470f8860ff6147098a9998979e9c9b9a613f25565b975f975f5b8351811015614af85761ffff6060614abb83876139e9565b51015116614acc575b600101614aa3565b988a8114614ae757614adf600191613f60565b999050614ac4565b50919395979092949698509161484b565b509193959750979193959761484b565b614b118161338f565b8015614b3257600190614b238161338f565b14614b2d57606990565b605290565b50604190565b9061ffff8091169116029061ffff8216918203610aab57565b9060021b6103fc16614b6291614166565b90565b614b6e8161338f565b8015614b8f57600190614b808161338f565b14614b8a57601490565b600c90565b50600690565b9060ff60169116049081614ba88261338f565b60018214614bfa575b50600290614bbe8161338f565b14614bd6575b601260ff82161115614b625750601290565b60ff600491160160ff811115614bc457634e487b7160e01b5f52601160045260245ffd5b6002919250614c0890613f3a565b9190614bb1565b919061ffff168015614d6a5760038102908104600303610aab576064019182606411610aab575f5b8151811015614129578060648560ff614c52600195876139e9565b515116020460ff811115614d62575060ff5b60ff614c7083866139e9565b519116905260648560ff6020614c8685886139e9565b51015116020460ff811115614d5a575060ff5b60ff6020614ca784876139e9565b51019116905260648560ff6040614cbe85886139e9565b51015116020460ff811115614d52575060ff5b60ff6040614cdf84876139e9565b51019116905260648561ffff6060614cf785886139e9565b51015116020461ffff811115614d49575061ffff5b61ffff6060614d1b84876139e9565b51019116905261ffff6060614d3083866139e9565b510151166080614d4083866139e9565b51015201614c37565b61ffff16614d0c565b60ff16614cd1565b60ff16614c99565b60ff16614c64565b509050565b60609594929360ff1680158015919082614ecf575b5050614ea45760ff169061ffff6023840616606e0161ffff8111610aab5760ff614db060129285614b38565b92160161ffff8111610aab5761ffff169081156133605761ffff160490600261ffff831610614e87575b5061ffff60258360081c061660520161ffff8111610aab57614e0161ffff91606493614b38565b16049060ff829316908115159182614e5e575b5050614e1f57509190565b600d92935061ffff9150160261ffff8116908103610aab57600a900490604051614e4a604082613230565b600481526310d4925560e21b602082015290565b601c9192500261ffff8116908103610aab5761ffff600a60649204169160181c06105f80614e14565b60ff9150600390041660020160ff8111610aab5760ff165f614dda565b5050505090505f90604051614eba604082613230565b6005815264444f44474560d81b602082015290565b909150601982029182046019141715610aab57600a900460648406105f80614d8456fea26469706673582212204c681a7232e5caa6219d28429d0aa1ba009da42d641c06dd9e4e80884b20ab9864736f6c634300081e0033",
			"opcodes": "PUSH1 0x80 CALLVALUE PUSH2 0x109 JUMPI PUSH1 0x1F PUSH2 0x505E CODESIZE DUP2 SWAP1 SUB SWAP2 DUP3 ADD PUSH1 0x1F NOT AND DUP4 ADD SWAP2 PUSH1 0x1 PUSH1 0x1 PUSH1 0x40 SHL SUB DUP4 GT DUP5 DUP5 LT OR PUSH2 0x10D JUMPI DUP1 DUP5 SWAP3 PUSH1 0x40 SWAP5 DUP6 MSTORE DUP4 CODECOPY DUP2 ADD SUB SLT PUSH2 0x109 JUMPI PUSH2 0x52 PUSH1 0x20 PUSH2 0x4B DUP4 PUSH2 0x121 JUMP JUMPDEST SWAP3 ADD PUSH2 0x121 JUMP JUMPDEST PUSH0 DUP1 SLOAD CALLER PUSH1 0x1 PUSH1 0x1 PUSH1 0xA0 SHL SUB NOT DUP3 AND DUP2 OR DUP4 SSTORE PUSH1 0x40 MLOAD SWAP5 SWAP3 SWAP1 SWAP2 PUSH1 0x1 PUSH1 0x1 PUSH1 0xA0 SHL SUB AND SWAP1 PUSH32 0x8BE0079C531659141344CD1FD0A4F28419497F9722A3DAAFE3B4186F6B6457E0 SWAP1 DUP1 LOG3 PUSH1 0x1 DUP1 SSTORE PUSH1 0x2 DUP1 SLOAD PUSH1 0xFF NOT AND SWAP1 SSTORE PUSH7 0x2386F26FC10000 PUSH1 0xF DUP2 SWAP1 SSTORE PUSH7 0x11C37937E08000 PUSH1 0x10 SSTORE PUSH1 0x11 SSTORE PUSH7 0x1C6BF526340000 PUSH1 0x12 SSTORE PUSH1 0x13 DUP1 SLOAD PUSH1 0x1 PUSH1 0x1 PUSH1 0xA0 SHL SUB SWAP3 DUP4 AND PUSH1 0x1 PUSH1 0x1 PUSH1 0xA0 SHL SUB NOT SWAP2 DUP3 AND OR SWAP1 SWAP2 SSTORE PUSH1 0x14 DUP1 SLOAD SWAP4 SWAP1 SWAP3 AND SWAP3 AND SWAP2 SWAP1 SWAP2 OR SWAP1 SSTORE PUSH2 0x4F28 SWAP1 DUP2 PUSH2 0x136 DUP3 CODECOPY RETURN JUMPDEST PUSH0 DUP1 REVERT JUMPDEST PUSH4 0x4E487B71 PUSH1 0xE0 SHL PUSH0 MSTORE PUSH1 0x41 PUSH1 0x4 MSTORE PUSH1 0x24 PUSH0 REVERT JUMPDEST MLOAD SWAP1 PUSH1 0x1 PUSH1 0x1 PUSH1 0xA0 SHL SUB DUP3 AND DUP3 SUB PUSH2 0x109 JUMPI JUMP INVALID PUSH1 0x80 PUSH1 0x40 MSTORE PUSH1 0x4 CALLDATASIZE LT ISZERO PUSH2 0x11 JUMPI PUSH0 DUP1 REVERT JUMPDEST PUSH0 CALLDATALOAD PUSH1 0xE0 SHR DUP1 PUSH4 0x18DC3185 EQ PUSH2 0x2F78 JUMPI DUP1 PUSH4 0x201738E2 EQ PUSH2 0x2E10 JUMPI DUP1 PUSH4 0x29DE58D1 EQ PUSH2 0x2DA6 JUMPI DUP1 PUSH4 0x2DC6D62F EQ PUSH2 0x2AF5 JUMPI DUP1 PUSH4 0x394861F3 EQ PUSH2 0x2AD8 JUMPI DUP1 PUSH4 0x3CCFD60B EQ PUSH2 0x2A59 JUMPI DUP1 PUSH4 0x3F4BA83A EQ PUSH2 0x29C6 JUMPI DUP1 PUSH4 0x49C7C24A EQ PUSH2 0x2906 JUMPI DUP1 PUSH4 0x4E178659 EQ PUSH2 0x28BB JUMPI DUP1 PUSH4 0x4EF2D6C1 EQ PUSH2 0x2872 JUMPI DUP1 PUSH4 0x518C83B0 EQ PUSH2 0x2855 JUMPI DUP1 PUSH4 0x51BDAB14 EQ PUSH2 0x111E JUMPI DUP1 PUSH4 0x5C975ABB EQ PUSH2 0x10FC JUMPI DUP1 PUSH4 0x6154EE97 EQ PUSH2 0x108A JUMPI DUP1 PUSH4 0x715018A6 EQ PUSH2 0x1033 JUMPI DUP1 PUSH4 0x732E9B85 EQ PUSH2 0xFD8 JUMPI DUP1 PUSH4 0x7E5C4F8B EQ PUSH2 0xF95 JUMPI DUP1 PUSH4 0x8456CB59 EQ PUSH2 0xF3C JUMPI DUP1 PUSH4 0x8B5CA78F EQ PUSH2 0xF1F JUMPI DUP1 PUSH4 0x8DA5CB5B EQ PUSH2 0xEF8 JUMPI DUP1 PUSH4 0x9D980BD2 EQ PUSH2 0xEDB JUMPI DUP1 PUSH4 0xA5F968A0 EQ PUSH2 0xD93 JUMPI DUP1 PUSH4 0xA787C80B EQ PUSH2 0xD56 JUMPI DUP1 PUSH4 0xA95DB7E2 EQ PUSH2 0xCB8 JUMPI DUP1 PUSH4 0xAEB5F760 EQ PUSH2 0xBB7 JUMPI DUP1 PUSH4 0xB2A47500 EQ PUSH2 0xB74 JUMPI DUP1 PUSH4 0xB654823E EQ PUSH2 0x78E JUMPI DUP1 PUSH4 0xB78F4C70 EQ PUSH2 0x751 JUMPI DUP1 PUSH4 0xB92A40AD EQ PUSH2 0x729 JUMPI DUP1 PUSH4 0xBB15A3B4 EQ PUSH2 0x6AB JUMPI DUP1 PUSH4 0xBBE15627 EQ PUSH2 0x63A JUMPI DUP1 PUSH4 0xBDB729C9 EQ PUSH2 0x5A3 JUMPI DUP1 PUSH4 0xC4F036C4 EQ PUSH2 0x55B JUMPI DUP1 PUSH4 0xC99AE45F EQ PUSH2 0x477 JUMPI DUP1 PUSH4 0xD5654AE7 EQ PUSH2 0x44F JUMPI DUP1 PUSH4 0xD8E86854 EQ PUSH2 0x3DF JUMPI DUP1 PUSH4 0xDA539B0F EQ PUSH2 0x310 JUMPI DUP1 PUSH4 0xF2FDE38B EQ PUSH2 0x24A JUMPI DUP1 PUSH4 0xF5905CA1 EQ PUSH2 0x1F2 JUMPI PUSH4 0xF5E5FFF2 EQ PUSH2 0x1D1 JUMPI PUSH0 DUP1 REVERT JUMPDEST CALLVALUE PUSH2 0x1EE JUMPI PUSH0 CALLDATASIZE PUSH1 0x3 NOT ADD SLT PUSH2 0x1EE JUMPI PUSH1 0x20 PUSH1 0x11 SLOAD PUSH1 0x40 MLOAD SWAP1 DUP2 MSTORE RETURN JUMPDEST PUSH0 DUP1 REVERT JUMPDEST CALLVALUE PUSH2 0x1EE JUMPI PUSH1 0x40 CALLDATASIZE PUSH1 0x3 NOT ADD SLT PUSH2 0x1EE JUMPI PUSH2 0x20B PUSH2 0x2FBC JUMP JUMPDEST PUSH1 0x1 PUSH1 0x1 PUSH1 0xA0 SHL SUB AND PUSH0 SWAP1 DUP2 MSTORE PUSH1 0x6 PUSH1 0x20 MSTORE PUSH1 0x40 SWAP1 KECCAK256 DUP1 SLOAD PUSH1 0x24 CALLDATALOAD SWAP2 SWAP1 DUP3 LT ISZERO PUSH2 0x1EE JUMPI PUSH1 0x20 SWAP2 PUSH2 0x23B SWAP2 PUSH2 0x30F2 JUMP JUMPDEST SWAP1 SLOAD SWAP1 PUSH1 0x3 SHL SHR PUSH1 0x40 MLOAD SWAP1 DUP2 MSTORE RETURN JUMPDEST CALLVALUE PUSH2 0x1EE JUMPI PUSH1 0x20 CALLDATASIZE PUSH1 0x3 NOT ADD SLT PUSH2 0x1EE JUMPI PUSH2 0x263 PUSH2 0x2FBC JUMP JUMPDEST PUSH2 0x26B PUSH2 0x3E68 JUMP JUMPDEST PUSH1 0x1 PUSH1 0x1 PUSH1 0xA0 SHL SUB AND DUP1 ISZERO PUSH2 0x2BC JUMPI PUSH0 DUP1 SLOAD PUSH1 0x1 PUSH1 0x1 PUSH1 0xA0 SHL SUB NOT DUP2 AND DUP4 OR DUP3 SSTORE PUSH1 0x1 PUSH1 0x1 PUSH1 0xA0 SHL SUB AND SWAP1 PUSH32 0x8BE0079C531659141344CD1FD0A4F28419497F9722A3DAAFE3B4186F6B6457E0 SWAP1 DUP1 LOG3 STOP JUMPDEST PUSH1 0x40 MLOAD PUSH3 0x461BCD PUSH1 0xE5 SHL DUP2 MSTORE PUSH1 0x20 PUSH1 0x4 DUP3 ADD MSTORE PUSH1 0x26 PUSH1 0x24 DUP3 ADD MSTORE PUSH32 0x4F776E61626C653A206E6577206F776E657220697320746865207A65726F2061 PUSH1 0x44 DUP3 ADD MSTORE PUSH6 0x646472657373 PUSH1 0xD0 SHL PUSH1 0x64 DUP3 ADD MSTORE PUSH1 0x84 SWAP1 REVERT JUMPDEST CALLVALUE PUSH2 0x1EE JUMPI PUSH1 0x40 CALLDATASIZE PUSH1 0x3 NOT ADD SLT PUSH2 0x1EE JUMPI PUSH2 0x329 PUSH2 0x2FBC JUMP JUMPDEST PUSH1 0x1 PUSH1 0x1 PUSH1 0xA0 SHL SUB AND PUSH0 SWAP1 DUP2 MSTORE PUSH1 0x9 PUSH1 0x20 MSTORE PUSH1 0x40 SWAP1 KECCAK256 PUSH1 0x24 CALLDATALOAD PUSH1 0x8 DUP2 LT ISZERO PUSH2 0x1EE JUMPI PUSH2 0x354 SWAP2 PUSH2 0x3300 JUMP JUMPDEST POP DUP1 SLOAD PUSH1 0x1 DUP3 ADD SLOAD PUSH1 0x2 SWAP1 SWAP3 ADD SLOAD PUSH1 0x40 DUP1 MLOAD PUSH1 0xFF SWAP4 DUP5 AND ISZERO ISZERO DUP2 MSTORE PUSH1 0x20 DUP1 DUP3 ADD SWAP6 SWAP1 SWAP6 MSTORE DUP3 DUP5 AND SWAP2 DUP2 ADD SWAP2 SWAP1 SWAP2 MSTORE PUSH1 0x8 DUP3 SWAP1 SHR DUP4 AND PUSH1 0x60 DUP3 ADD MSTORE PUSH1 0x10 DUP3 SWAP1 SHR DUP4 AND PUSH1 0x80 DUP3 ADD MSTORE PUSH1 0x18 DUP3 SWAP1 SHR DUP4 AND PUSH1 0xA0 DUP3 ADD MSTORE SWAP3 DUP2 SWAP1 SHR DUP3 AND PUSH1 0xC0 DUP5 ADD MSTORE PUSH1 0x28 DUP2 SWAP1 SHR DUP3 AND PUSH1 0xE0 DUP5 ADD MSTORE PUSH1 0x30 DUP2 SWAP1 SHR DUP3 AND PUSH2 0x100 DUP5 ADD MSTORE PUSH1 0x38 SHR AND PUSH2 0x120 DUP3 ADD MSTORE DUP1 PUSH2 0x140 DUP2 ADD JUMPDEST SUB SWAP1 RETURN JUMPDEST CALLVALUE PUSH2 0x1EE JUMPI PUSH1 0x80 CALLDATASIZE PUSH1 0x3 NOT ADD SLT PUSH2 0x1EE JUMPI PUSH32 0x6EF2FF813EFC9EFC76792366C4ACA2677B755A5A13AFFC54D96EF35DC8E9BB73 PUSH1 0x80 PUSH1 0x4 CALLDATALOAD PUSH1 0x64 CALLDATALOAD PUSH1 0x44 CALLDATALOAD PUSH1 0x24 CALLDATALOAD PUSH2 0x427 PUSH2 0x3E68 JUMP JUMPDEST DUP4 PUSH1 0xF SSTORE DUP1 PUSH1 0x10 SSTORE DUP2 PUSH1 0x11 SSTORE DUP3 PUSH1 0x12 SSTORE PUSH1 0x40 MLOAD SWAP4 DUP5 MSTORE PUSH1 0x20 DUP5 ADD MSTORE PUSH1 0x40 DUP4 ADD MSTORE PUSH1 0x60 DUP3 ADD MSTORE LOG1 STOP JUMPDEST CALLVALUE PUSH2 0x1EE JUMPI PUSH0 CALLDATASIZE PUSH1 0x3 NOT ADD SLT PUSH2 0x1EE JUMPI PUSH1 0x14 SLOAD PUSH1 0x40 MLOAD PUSH1 0x1 PUSH1 0x1 PUSH1 0xA0 SHL SUB SWAP1 SWAP2 AND DUP2 MSTORE PUSH1 0x20 SWAP1 RETURN JUMPDEST CALLVALUE PUSH2 0x1EE JUMPI PUSH1 0x20 CALLDATASIZE PUSH1 0x3 NOT ADD SLT PUSH2 0x1EE JUMPI PUSH2 0x490 PUSH2 0x2FBC JUMP JUMPDEST PUSH2 0x100 SWAP1 PUSH1 0x40 MLOAD PUSH2 0x4A1 DUP4 DUP3 PUSH2 0x3230 JUMP JUMPDEST PUSH0 JUMPDEST DUP4 DUP2 LT PUSH2 0x546 JUMPI POP POP PUSH1 0x1 DUP1 PUSH1 0xA0 SHL SUB AND PUSH0 MSTORE PUSH1 0x9 PUSH1 0x20 MSTORE PUSH1 0x40 PUSH0 KECCAK256 PUSH1 0x40 MLOAD SWAP2 DUP3 ADD DUP3 DUP2 LT PUSH1 0x1 PUSH1 0x1 PUSH1 0x40 SHL SUB DUP3 GT OR PUSH2 0x532 JUMPI PUSH1 0x40 MSTORE PUSH0 DUP3 JUMPDEST PUSH1 0x8 DUP3 LT PUSH2 0x514 JUMPI PUSH1 0x40 MLOAD DUP5 PUSH0 DUP3 JUMPDEST PUSH1 0x8 DUP3 LT PUSH2 0x4FA JUMPI PUSH2 0xA00 DUP5 RETURN JUMPDEST PUSH1 0x20 PUSH2 0x509 PUSH1 0x1 SWAP3 DUP6 MLOAD PUSH2 0x3054 JUMP JUMPDEST SWAP4 ADD SWAP2 ADD SWAP1 SWAP2 PUSH2 0x4EC JUMP JUMPDEST PUSH1 0x3 PUSH1 0x20 PUSH1 0x1 SWAP3 PUSH2 0x524 DUP7 PUSH2 0x38C3 JUMP JUMPDEST DUP2 MSTORE ADD SWAP4 ADD SWAP2 ADD SWAP1 SWAP2 PUSH2 0x4DD JUMP JUMPDEST PUSH4 0x4E487B71 PUSH1 0xE0 SHL PUSH0 MSTORE PUSH1 0x41 PUSH1 0x4 MSTORE PUSH1 0x24 PUSH0 REVERT JUMPDEST PUSH1 0x20 SWAP1 PUSH2 0x551 PUSH2 0x3879 JUMP JUMPDEST DUP2 DUP5 ADD MSTORE ADD PUSH2 0x4A3 JUMP JUMPDEST CALLVALUE PUSH2 0x1EE JUMPI PUSH1 0x40 CALLDATASIZE PUSH1 0x3 NOT ADD SLT PUSH2 0x1EE JUMPI PUSH2 0x574 PUSH2 0x2FBC JUMP JUMPDEST PUSH1 0x1 PUSH1 0x1 PUSH1 0xA0 SHL SUB AND PUSH0 SWAP1 DUP2 MSTORE PUSH1 0x7 PUSH1 0x20 MSTORE PUSH1 0x40 SWAP1 KECCAK256 PUSH1 0x24 CALLDATALOAD SWAP1 PUSH1 0x3 DUP3 LT ISZERO PUSH2 0x1EE JUMPI PUSH1 0x20 SWAP2 PUSH2 0x23B SWAP2 PUSH2 0x32F1 JUMP JUMPDEST CALLVALUE PUSH2 0x1EE JUMPI PUSH0 CALLDATASIZE PUSH1 0x3 NOT ADD SLT PUSH2 0x1EE JUMPI PUSH2 0x5BB PUSH2 0x3B6C JUMP JUMPDEST CALLER PUSH0 MSTORE PUSH1 0x5 PUSH1 0x20 MSTORE PUSH2 0x5CF PUSH1 0x40 PUSH0 KECCAK256 PUSH2 0x3B4B JUMP JUMPDEST CALLER PUSH0 MSTORE PUSH1 0x6 PUSH1 0x20 MSTORE PUSH2 0x5E3 PUSH1 0x40 PUSH0 KECCAK256 PUSH2 0x3B4B JUMP JUMPDEST CALLER PUSH0 MSTORE PUSH1 0x7 PUSH1 0x20 MSTORE PUSH2 0x5FC PUSH1 0x40 PUSH0 KECCAK256 PUSH1 0x3 DUP2 ADD SWAP1 PUSH2 0x3A16 JUMP JUMPDEST CALLER PUSH0 MSTORE PUSH1 0xB PUSH1 0x20 MSTORE PUSH2 0x610 PUSH1 0x40 PUSH0 KECCAK256 PUSH2 0x3A2C JUMP JUMPDEST CALLER PUSH0 MSTORE PUSH1 0xC PUSH1 0x20 MSTORE PUSH2 0x624 PUSH1 0x40 PUSH0 KECCAK256 PUSH2 0x3A2C JUMP JUMPDEST CALLER PUSH0 MSTORE PUSH1 0xE PUSH1 0x20 MSTORE PUSH2 0x638 PUSH1 0x40 PUSH0 KECCAK256 PUSH2 0x3A89 JUMP JUMPDEST STOP JUMPDEST CALLVALUE PUSH2 0x1EE JUMPI PUSH1 0x20 CALLDATASIZE PUSH1 0x3 NOT ADD SLT PUSH2 0x1EE JUMPI PUSH1 0x1 PUSH1 0x1 PUSH1 0xA0 SHL SUB PUSH2 0x65B PUSH2 0x2FBC JUMP JUMPDEST AND PUSH0 MSTORE PUSH1 0x4 PUSH1 0x20 MSTORE PUSH1 0xA0 PUSH1 0x40 PUSH0 KECCAK256 DUP1 SLOAD SWAP1 PUSH1 0x1 DUP2 ADD SLOAD SWAP1 PUSH2 0xFFFF PUSH1 0x3 PUSH1 0x2 DUP4 ADD SLOAD SWAP3 ADD SLOAD AND SWAP2 PUSH4 0xFFFFFFFF PUSH1 0x40 MLOAD SWAP5 PUSH2 0xFFFF DUP2 AND DUP7 MSTORE PUSH1 0x10 SHR AND PUSH1 0x20 DUP6 ADD MSTORE PUSH1 0x40 DUP5 ADD MSTORE PUSH1 0x60 DUP4 ADD MSTORE PUSH1 0x80 DUP3 ADD MSTORE RETURN JUMPDEST CALLVALUE PUSH2 0x1EE JUMPI PUSH1 0x20 CALLDATASIZE PUSH1 0x3 NOT ADD SLT PUSH2 0x1EE JUMPI PUSH1 0x1 PUSH1 0x1 PUSH1 0xA0 SHL SUB PUSH2 0x6CC PUSH2 0x2FBC JUMP JUMPDEST AND PUSH0 MSTORE PUSH1 0x6 PUSH1 0x20 MSTORE PUSH1 0x40 PUSH0 KECCAK256 PUSH1 0x40 MLOAD SWAP1 DUP2 PUSH1 0x20 DUP3 SLOAD SWAP2 DUP3 DUP2 MSTORE ADD SWAP2 PUSH0 MSTORE PUSH1 0x20 PUSH0 KECCAK256 SWAP1 PUSH0 JUMPDEST DUP2 DUP2 LT PUSH2 0x713 JUMPI PUSH2 0x3DB DUP6 PUSH2 0x707 DUP2 DUP8 SUB DUP3 PUSH2 0x3230 JUMP JUMPDEST PUSH1 0x40 MLOAD SWAP2 DUP3 SWAP2 DUP3 PUSH2 0x3137 JUMP JUMPDEST DUP3 SLOAD DUP5 MSTORE PUSH1 0x20 SWAP1 SWAP4 ADD SWAP3 PUSH1 0x1 SWAP3 DUP4 ADD SWAP3 ADD PUSH2 0x6F0 JUMP JUMPDEST CALLVALUE PUSH2 0x1EE JUMPI PUSH0 CALLDATASIZE PUSH1 0x3 NOT ADD SLT PUSH2 0x1EE JUMPI PUSH1 0x13 SLOAD PUSH1 0x40 MLOAD PUSH1 0x1 PUSH1 0x1 PUSH1 0xA0 SHL SUB SWAP1 SWAP2 AND DUP2 MSTORE PUSH1 0x20 SWAP1 RETURN JUMPDEST CALLVALUE PUSH2 0x1EE JUMPI PUSH1 0x20 CALLDATASIZE PUSH1 0x3 NOT ADD SLT PUSH2 0x1EE JUMPI PUSH1 0x1 PUSH1 0x1 PUSH1 0xA0 SHL SUB PUSH2 0x772 PUSH2 0x2FBC JUMP JUMPDEST AND PUSH0 MSTORE PUSH1 0xA PUSH1 0x20 MSTORE PUSH1 0x20 PUSH1 0xFF PUSH1 0x40 PUSH0 KECCAK256 SLOAD AND PUSH1 0x40 MLOAD SWAP1 ISZERO ISZERO DUP2 MSTORE RETURN JUMPDEST PUSH1 0x20 CALLDATASIZE PUSH1 0x3 NOT ADD SLT PUSH2 0x1EE JUMPI PUSH1 0x4 CALLDATALOAD PUSH2 0x7A5 PUSH2 0x3B6C JUMP JUMPDEST PUSH2 0x7AD PUSH2 0x3BB0 JUMP JUMPDEST PUSH2 0x7B5 PUSH2 0x3C06 JUMP JUMPDEST PUSH1 0x3 DUP2 LT ISZERO PUSH2 0xB40 JUMPI CALLER PUSH0 MSTORE PUSH1 0x8 PUSH1 0x20 MSTORE PUSH2 0x7DC PUSH2 0x7D6 DUP3 PUSH1 0x40 PUSH0 KECCAK256 PUSH2 0x2FD2 JUMP JUMPDEST POP PUSH2 0x38C3 JUMP JUMPDEST SWAP1 PUSH1 0x20 DUP3 ADD MLOAD ISZERO DUP1 ISZERO SWAP1 PUSH2 0xB36 JUMPI JUMPDEST ISZERO PUSH2 0xB04 JUMPI DUP2 MLOAD ISZERO PUSH2 0x93B JUMPI PUSH1 0x12 SLOAD CALLVALUE LT PUSH2 0x8F6 JUMPI PUSH1 0x1 DUP1 PUSH1 0xA0 SHL SUB PUSH1 0x14 SLOAD AND SWAP2 PUSH1 0xFF PUSH2 0x100 DUP3 ADD MLOAD AND PUSH1 0x6 DUP2 LT ISZERO PUSH2 0x8E2 JUMPI PUSH1 0x64 PUSH1 0xFF PUSH2 0x120 PUSH1 0x20 SWAP5 ADD MLOAD AND SWAP2 PUSH0 PUSH1 0x40 MLOAD SWAP7 DUP8 SWAP5 DUP6 SWAP4 PUSH4 0xF925B741 PUSH1 0xE0 SHL DUP6 MSTORE CALLER PUSH1 0x4 DUP7 ADD MSTORE PUSH1 0x24 DUP6 ADD MSTORE PUSH1 0x44 DUP5 ADD MSTORE GAS CALL SWAP2 DUP3 ISZERO PUSH2 0x8D7 JUMPI PUSH0 SWAP3 PUSH2 0x8A1 JUMPI JUMPDEST POP PUSH2 0x878 PUSH2 0x89B SWAP3 CALLER PUSH0 MSTORE PUSH1 0x6 PUSH1 0x20 MSTORE PUSH1 0x40 PUSH0 KECCAK256 PUSH2 0x3403 JUMP JUMPDEST PUSH2 0x895 PUSH2 0x883 PUSH2 0x3D21 JUMP JUMPDEST SWAP2 CALLER PUSH0 MSTORE PUSH1 0x8 PUSH1 0x20 MSTORE PUSH1 0x40 PUSH0 KECCAK256 PUSH2 0x2FD2 JUMP JUMPDEST SWAP1 PUSH2 0x3437 JUMP JUMPDEST PUSH1 0x1 DUP1 SSTORE STOP JUMPDEST SWAP2 POP PUSH1 0x20 DUP3 RETURNDATASIZE PUSH1 0x20 GT PUSH2 0x8CF JUMPI JUMPDEST DUP2 PUSH2 0x8BC PUSH1 0x20 SWAP4 DUP4 PUSH2 0x3230 JUMP JUMPDEST DUP2 ADD SUB SLT PUSH2 0x1EE JUMPI SWAP1 MLOAD SWAP1 PUSH2 0x878 PUSH2 0x85F JUMP JUMPDEST RETURNDATASIZE SWAP2 POP PUSH2 0x8AF JUMP JUMPDEST PUSH1 0x40 MLOAD RETURNDATASIZE PUSH0 DUP3 RETURNDATACOPY RETURNDATASIZE SWAP1 REVERT JUMPDEST PUSH4 0x4E487B71 PUSH1 0xE0 SHL PUSH0 MSTORE PUSH1 0x21 PUSH1 0x4 MSTORE PUSH1 0x24 PUSH0 REVERT JUMPDEST PUSH1 0x40 MLOAD PUSH3 0x461BCD PUSH1 0xE5 SHL DUP2 MSTORE PUSH1 0x20 PUSH1 0x4 DUP3 ADD MSTORE PUSH1 0x1E PUSH1 0x24 DUP3 ADD MSTORE PUSH32 0x496E73756666696369656E74207061796D656E7420666F722072656C69630000 PUSH1 0x44 DUP3 ADD MSTORE PUSH1 0x64 SWAP1 REVERT JUMPDEST SWAP1 POP PUSH1 0x11 SLOAD CALLVALUE LT PUSH2 0xABF JUMPI PUSH1 0x40 DUP1 MLOAD TIMESTAMP PUSH1 0x20 DUP3 ADD SWAP1 DUP2 MSTORE CALLER PUSH1 0x60 SHL PUSH12 0xFFFFFFFFFFFFFFFFFFFFFFFF NOT AND SWAP3 DUP3 ADD SWAP3 SWAP1 SWAP3 MSTORE PREVRANDAO PUSH1 0x54 DUP3 ADD MSTORE PUSH1 0x74 DUP2 ADD DUP4 SWAP1 MSTORE PUSH2 0x990 DUP2 PUSH1 0x94 DUP2 ADD JUMPDEST SUB PUSH1 0x1F NOT DUP2 ADD DUP4 MSTORE DUP3 PUSH2 0x3230 JUMP JUMPDEST MLOAD SWAP1 KECCAK256 SWAP1 PUSH1 0xB DUP3 MOD PUSH1 0xA ADD DUP1 PUSH1 0xA GT PUSH2 0xAAB JUMPI PUSH1 0xB DUP4 PUSH1 0x8 SHR MOD PUSH1 0x8 ADD SWAP1 DUP2 PUSH1 0x8 GT PUSH2 0xAAB JUMPI PUSH1 0xB DUP5 PUSH1 0x10 SHR MOD PUSH1 0x9 ADD SWAP4 DUP5 PUSH1 0x9 GT PUSH2 0xAAB JUMPI PUSH1 0xFF PUSH1 0x3 DUP3 PUSH1 0x18 SHR MOD AND PUSH2 0x9E3 PUSH1 0x3 DUP4 PUSH1 0x20 SHR AND SWAP3 PUSH2 0x3CFF JUMP JUMPDEST PUSH1 0x13 SLOAD PUSH1 0x1 PUSH1 0x1 PUSH1 0xA0 SHL SUB AND SWAP3 SWAP1 PUSH1 0xFF SWAP1 PUSH2 0x9FD DUP5 PUSH2 0x338F JUMP JUMPDEST AND SWAP7 PUSH2 0xA08 DUP9 PUSH2 0x338F JUMP JUMPDEST PUSH1 0x4 DUP3 LT ISZERO PUSH2 0x8E2 JUMPI PUSH1 0x40 MLOAD PUSH4 0xE3BD811 PUSH1 0xE3 SHL DUP2 MSTORE SWAP8 PUSH1 0x20 SWAP7 DUP10 SWAP7 DUP8 SWAP6 PUSH0 SWAP6 DUP8 SWAP6 PUSH2 0xA45 SWAP6 PUSH1 0xFF SWAP2 DUP3 AND SWAP6 DUP3 AND SWAP5 SWAP1 SWAP2 AND SWAP3 CALLER PUSH1 0x4 DUP10 ADD PUSH2 0x33A3 JUMP JUMPDEST SUB SWAP3 GAS CALL SWAP2 DUP3 ISZERO PUSH2 0x8D7 JUMPI PUSH0 SWAP3 PUSH2 0xA75 JUMPI JUMPDEST POP PUSH2 0xA70 PUSH2 0x89B SWAP3 CALLER PUSH0 MSTORE PUSH1 0x5 PUSH1 0x20 MSTORE PUSH1 0x40 PUSH0 KECCAK256 PUSH2 0x3403 JUMP JUMPDEST PUSH2 0x878 JUMP JUMPDEST SWAP2 POP PUSH1 0x20 DUP3 RETURNDATASIZE PUSH1 0x20 GT PUSH2 0xAA3 JUMPI JUMPDEST DUP2 PUSH2 0xA90 PUSH1 0x20 SWAP4 DUP4 PUSH2 0x3230 JUMP JUMPDEST DUP2 ADD SUB SLT PUSH2 0x1EE JUMPI SWAP1 MLOAD SWAP1 PUSH2 0xA70 PUSH2 0xA57 JUMP JUMPDEST RETURNDATASIZE SWAP2 POP PUSH2 0xA83 JUMP JUMPDEST PUSH4 0x4E487B71 PUSH1 0xE0 SHL PUSH0 MSTORE PUSH1 0x11 PUSH1 0x4 MSTORE PUSH1 0x24 PUSH0 REVERT JUMPDEST PUSH1 0x40 MLOAD PUSH3 0x461BCD PUSH1 0xE5 SHL DUP2 MSTORE PUSH1 0x20 PUSH1 0x4 DUP3 ADD MSTORE PUSH1 0x1D PUSH1 0x24 DUP3 ADD MSTORE PUSH32 0x496E73756666696369656E74207061796D656E7420666F7220756E6974000000 PUSH1 0x44 DUP3 ADD MSTORE PUSH1 0x64 SWAP1 REVERT JUMPDEST PUSH1 0x40 MLOAD PUSH3 0x461BCD PUSH1 0xE5 SHL DUP2 MSTORE PUSH1 0x20 PUSH1 0x4 DUP3 ADD MSTORE PUSH1 0xA PUSH1 0x24 DUP3 ADD MSTORE PUSH10 0x115B5C1D1E481CDB1BDD PUSH1 0xB2 SHL PUSH1 0x44 DUP3 ADD MSTORE PUSH1 0x64 SWAP1 REVERT JUMPDEST POP DUP2 MLOAD ISZERO ISZERO PUSH2 0x7EB JUMP JUMPDEST PUSH1 0x40 MLOAD PUSH3 0x461BCD PUSH1 0xE5 SHL DUP2 MSTORE PUSH1 0x20 PUSH1 0x4 DUP3 ADD MSTORE PUSH1 0xC PUSH1 0x24 DUP3 ADD MSTORE PUSH12 0x125B9D985B1A59081CDB1BDD PUSH1 0xA2 SHL PUSH1 0x44 DUP3 ADD MSTORE PUSH1 0x64 SWAP1 REVERT JUMPDEST CALLVALUE PUSH2 0x1EE JUMPI PUSH1 0x20 CALLDATASIZE PUSH1 0x3 NOT ADD SLT PUSH2 0x1EE JUMPI PUSH2 0xB8D PUSH2 0x2FBC JUMP JUMPDEST PUSH2 0xB95 PUSH2 0x3E68 JUMP JUMPDEST PUSH1 0x14 DUP1 SLOAD PUSH1 0x1 PUSH1 0x1 PUSH1 0xA0 SHL SUB NOT AND PUSH1 0x1 PUSH1 0x1 PUSH1 0xA0 SHL SUB SWAP3 SWAP1 SWAP3 AND SWAP2 SWAP1 SWAP2 OR SWAP1 SSTORE STOP JUMPDEST CALLVALUE PUSH2 0x1EE JUMPI PUSH1 0x40 CALLDATASIZE PUSH1 0x3 NOT ADD SLT PUSH2 0x1EE JUMPI PUSH2 0xBD0 PUSH2 0x2FBC JUMP JUMPDEST PUSH1 0x1 PUSH1 0x1 PUSH1 0xA0 SHL SUB AND PUSH0 SWAP1 DUP2 MSTORE PUSH1 0xE PUSH1 0x20 MSTORE PUSH1 0x40 SWAP1 KECCAK256 DUP1 SLOAD PUSH1 0x24 CALLDATALOAD SWAP2 SWAP1 DUP3 LT ISZERO PUSH2 0x1EE JUMPI PUSH2 0xFFFF SWAP2 PUSH2 0xC01 SWAP2 PUSH2 0x3170 JUMP JUMPDEST POP DUP1 SLOAD SWAP1 PUSH1 0xFF PUSH2 0xC88 PUSH1 0x2 PUSH2 0xC18 PUSH1 0x1 DUP6 ADD PUSH2 0x3251 JUMP JUMPDEST SWAP4 ADD SLOAD SWAP3 PUSH1 0x40 MLOAD SWAP6 DUP6 DUP5 DUP9 SWAP8 AND DUP8 MSTORE DUP5 DUP2 PUSH1 0x8 SHR AND ISZERO ISZERO PUSH1 0x20 DUP9 ADD MSTORE DUP5 DUP2 PUSH1 0x10 SHR AND PUSH1 0x40 DUP9 ADD MSTORE DUP5 DUP2 PUSH1 0x18 SHR AND PUSH1 0x60 DUP9 ADD MSTORE DUP2 DUP2 PUSH1 0x20 SHR AND PUSH1 0x80 DUP9 ADD MSTORE DUP2 DUP2 PUSH1 0x30 SHR AND PUSH1 0xA0 DUP9 ADD MSTORE DUP2 DUP2 PUSH1 0x40 SHR AND PUSH1 0xC0 DUP9 ADD MSTORE PUSH1 0x50 SHR AND PUSH1 0xE0 DUP7 ADD MSTORE PUSH2 0x1A0 PUSH2 0x100 DUP7 ADD MSTORE PUSH2 0x1A0 DUP6 ADD SWAP1 PUSH2 0x3030 JUMP JUMPDEST SWAP2 DUP2 DUP2 AND PUSH2 0x120 DUP6 ADD MSTORE DUP2 DUP2 PUSH1 0x8 SHR AND PUSH2 0x140 DUP6 ADD MSTORE DUP2 DUP2 PUSH1 0x10 SHR AND PUSH2 0x160 DUP6 ADD MSTORE PUSH1 0x18 SHR AND PUSH2 0x180 DUP4 ADD MSTORE SUB SWAP1 RETURN JUMPDEST CALLVALUE PUSH2 0x1EE JUMPI PUSH1 0x20 CALLDATASIZE PUSH1 0x3 NOT ADD SLT PUSH2 0x1EE JUMPI PUSH2 0xCD1 PUSH2 0x2FBC JUMP JUMPDEST PUSH1 0x60 SWAP1 DUP2 PUSH1 0x40 MLOAD PUSH2 0xCE2 DUP3 DUP3 PUSH2 0x3230 JUMP JUMPDEST CALLDATASIZE SWAP1 CALLDATACOPY PUSH1 0x1 PUSH1 0x1 PUSH1 0xA0 SHL SUB AND PUSH0 SWAP1 DUP2 MSTORE PUSH1 0x7 PUSH1 0x20 MSTORE PUSH1 0x40 DUP1 DUP3 KECCAK256 SWAP1 MLOAD SWAP2 DUP3 JUMPDEST PUSH1 0x3 DUP3 LT PUSH2 0xD40 JUMPI POP POP POP PUSH2 0xD16 DUP3 DUP3 PUSH2 0x3230 JUMP JUMPDEST PUSH1 0x40 MLOAD SWAP1 PUSH0 DUP3 JUMPDEST PUSH1 0x3 DUP3 LT PUSH2 0xD2A JUMPI POP POP POP RETURN JUMPDEST PUSH1 0x20 DUP1 PUSH1 0x1 SWAP3 DUP6 MLOAD DUP2 MSTORE ADD SWAP4 ADD SWAP2 ADD SWAP1 SWAP2 PUSH2 0xD1D JUMP JUMPDEST PUSH1 0x1 PUSH1 0x20 DUP2 SWAP3 DUP6 SLOAD DUP2 MSTORE ADD SWAP4 ADD SWAP2 ADD SWAP1 SWAP2 PUSH2 0xD01 JUMP JUMPDEST CALLVALUE PUSH2 0x1EE JUMPI PUSH1 0x20 CALLDATASIZE PUSH1 0x3 NOT ADD SLT PUSH2 0x1EE JUMPI PUSH1 0x1 PUSH1 0x1 PUSH1 0xA0 SHL SUB PUSH2 0xD77 PUSH2 0x2FBC JUMP JUMPDEST AND PUSH0 MSTORE PUSH1 0x3 PUSH1 0x20 MSTORE PUSH1 0x20 PUSH1 0xFF PUSH1 0x40 PUSH0 KECCAK256 SLOAD AND PUSH1 0x40 MLOAD SWAP1 ISZERO ISZERO DUP2 MSTORE RETURN JUMPDEST CALLVALUE PUSH2 0x1EE JUMPI PUSH1 0x60 CALLDATASIZE PUSH1 0x3 NOT ADD SLT PUSH2 0x1EE JUMPI CALLDATASIZE PUSH1 0x64 GT PUSH2 0x1EE JUMPI PUSH2 0xDB4 PUSH2 0x3B6C JUMP JUMPDEST PUSH2 0xDBC PUSH2 0x3C06 JUMP JUMPDEST PUSH0 JUMPDEST PUSH1 0x3 DUP2 LT PUSH2 0xE23 JUMPI CALLER PUSH0 MSTORE PUSH1 0x7 PUSH1 0x20 MSTORE PUSH1 0x40 PUSH0 KECCAK256 PUSH1 0x4 PUSH0 JUMPDEST PUSH1 0x3 DUP2 LT PUSH2 0xE0F JUMPI PUSH1 0x40 MLOAD PUSH1 0x60 PUSH1 0x4 DUP3 CALLDATACOPY PUSH32 0x189DCF2B228F6307A1C47F1AB2652FD06A5C537F8533503FD79381A0EF24B279 PUSH1 0x60 CALLER SWAP3 LOG2 STOP JUMPDEST PUSH1 0x1 SWAP1 PUSH1 0x20 DUP4 CALLDATALOAD SWAP4 ADD SWAP3 DUP2 DUP6 ADD SSTORE ADD PUSH2 0xDD6 JUMP JUMPDEST PUSH2 0xE2C DUP2 PUSH2 0x3B28 JUMP JUMPDEST CALLDATALOAD PUSH2 0xE3A JUMPI JUMPDEST PUSH1 0x1 ADD PUSH2 0xDBE JUMP JUMPDEST PUSH1 0x14 SLOAD PUSH2 0xE7F SWAP2 SWAP1 PUSH1 0x20 SWAP1 PUSH1 0x1 PUSH1 0x1 PUSH1 0xA0 SHL SUB AND PUSH2 0xE57 DUP4 PUSH2 0x3B28 JUMP JUMPDEST PUSH1 0x40 MLOAD PUSH3 0x7EEAC7 PUSH1 0xE1 SHL DUP2 MSTORE CALLER PUSH1 0x4 DUP3 ADD MSTORE SWAP1 CALLDATALOAD PUSH1 0x24 DUP3 ADD MSTORE SWAP4 DUP5 SWAP2 SWAP1 DUP3 SWAP1 DUP2 SWAP1 PUSH1 0x44 DUP3 ADD SWAP1 JUMP JUMPDEST SUB SWAP2 GAS STATICCALL SWAP2 DUP3 ISZERO PUSH2 0x8D7 JUMPI PUSH0 SWAP3 PUSH2 0xEA6 JUMPI JUMPDEST POP PUSH2 0xE9F PUSH1 0x1 SWAP3 ISZERO ISZERO PUSH2 0x399D JUMP JUMPDEST SWAP1 POP PUSH2 0xE32 JUMP JUMPDEST SWAP2 POP PUSH1 0x20 DUP3 RETURNDATASIZE DUP3 GT PUSH2 0xED3 JUMPI JUMPDEST DUP2 PUSH2 0xEC0 PUSH1 0x20 SWAP4 DUP4 PUSH2 0x3230 JUMP JUMPDEST DUP2 ADD SUB SLT PUSH2 0x1EE JUMPI SWAP1 MLOAD SWAP1 PUSH2 0xE9F PUSH2 0xE91 JUMP JUMPDEST RETURNDATASIZE SWAP2 POP PUSH2 0xEB3 JUMP JUMPDEST CALLVALUE PUSH2 0x1EE JUMPI PUSH0 CALLDATASIZE PUSH1 0x3 NOT ADD SLT PUSH2 0x1EE JUMPI PUSH1 0x20 PUSH1 0x10 SLOAD PUSH1 0x40 MLOAD SWAP1 DUP2 MSTORE RETURN JUMPDEST CALLVALUE PUSH2 0x1EE JUMPI PUSH0 CALLDATASIZE PUSH1 0x3 NOT ADD SLT PUSH2 0x1EE JUMPI PUSH0 SLOAD PUSH1 0x40 MLOAD PUSH1 0x1 PUSH1 0x1 PUSH1 0xA0 SHL SUB SWAP1 SWAP2 AND DUP2 MSTORE PUSH1 0x20 SWAP1 RETURN JUMPDEST CALLVALUE PUSH2 0x1EE JUMPI PUSH0 CALLDATASIZE PUSH1 0x3 NOT ADD SLT PUSH2 0x1EE JUMPI PUSH1 0x20 PUSH1 0x12 SLOAD PUSH1 0x40 MLOAD SWAP1 DUP2 MSTORE RETURN JUMPDEST CALLVALUE PUSH2 0x1EE JUMPI PUSH0 CALLDATASIZE PUSH1 0x3 NOT ADD SLT PUSH2 0x1EE JUMPI PUSH2 0xF54 PUSH2 0x3E68 JUMP JUMPDEST PUSH2 0xF5C PUSH2 0x3B6C JUMP JUMPDEST PUSH1 0x1 PUSH1 0xFF NOT PUSH1 0x2 SLOAD AND OR PUSH1 0x2 SSTORE PUSH32 0x62E78CEA01BEE320CD4E420270B5EA74000D11B0C9F74754EBDBFC544B05A258 PUSH1 0x20 PUSH1 0x40 MLOAD CALLER DUP2 MSTORE LOG1 STOP JUMPDEST CALLVALUE PUSH2 0x1EE JUMPI PUSH1 0x20 CALLDATASIZE PUSH1 0x3 NOT ADD SLT PUSH2 0x1EE JUMPI PUSH2 0xFAE PUSH2 0x2FBC JUMP JUMPDEST PUSH2 0xFB6 PUSH2 0x3E68 JUMP JUMPDEST PUSH1 0x13 DUP1 SLOAD PUSH1 0x1 PUSH1 0x1 PUSH1 0xA0 SHL SUB NOT AND PUSH1 0x1 PUSH1 0x1 PUSH1 0xA0 SHL SUB SWAP3 SWAP1 SWAP3 AND SWAP2 SWAP1 SWAP2 OR SWAP1 SSTORE STOP JUMPDEST CALLVALUE PUSH2 0x1EE JUMPI PUSH1 0x40 CALLDATASIZE PUSH1 0x3 NOT ADD SLT PUSH2 0x1EE JUMPI PUSH2 0xFF1 PUSH2 0x2FBC JUMP JUMPDEST PUSH1 0x1 PUSH1 0x1 PUSH1 0xA0 SHL SUB AND PUSH0 SWAP1 DUP2 MSTORE PUSH1 0xC PUSH1 0x20 MSTORE PUSH1 0x40 SWAP1 KECCAK256 DUP1 SLOAD PUSH1 0x24 CALLDATALOAD SWAP1 DUP2 LT ISZERO PUSH2 0x1EE JUMPI PUSH2 0x1023 PUSH2 0xFFFF SWAP2 PUSH1 0x20 SWAP4 PUSH2 0x30D1 JUMP JUMPDEST SWAP1 SLOAD SWAP1 PUSH1 0x3 SHL SHR AND PUSH1 0x40 MLOAD SWAP1 DUP2 MSTORE RETURN JUMPDEST CALLVALUE PUSH2 0x1EE JUMPI PUSH0 CALLDATASIZE PUSH1 0x3 NOT ADD SLT PUSH2 0x1EE JUMPI PUSH2 0x104B PUSH2 0x3E68 JUMP JUMPDEST PUSH0 DUP1 SLOAD PUSH1 0x1 PUSH1 0x1 PUSH1 0xA0 SHL SUB NOT DUP2 AND DUP3 SSTORE PUSH1 0x1 PUSH1 0x1 PUSH1 0xA0 SHL SUB AND PUSH32 0x8BE0079C531659141344CD1FD0A4F28419497F9722A3DAAFE3B4186F6B6457E0 DUP3 DUP1 LOG3 STOP JUMPDEST CALLVALUE PUSH2 0x1EE JUMPI PUSH1 0x20 CALLDATASIZE PUSH1 0x3 NOT ADD SLT PUSH2 0x1EE JUMPI PUSH1 0x1 PUSH1 0x1 PUSH1 0xA0 SHL SUB PUSH2 0x10AB PUSH2 0x2FBC JUMP JUMPDEST AND PUSH0 MSTORE PUSH1 0x5 PUSH1 0x20 MSTORE PUSH1 0x40 PUSH0 KECCAK256 PUSH1 0x40 MLOAD SWAP1 DUP2 PUSH1 0x20 DUP3 SLOAD SWAP2 DUP3 DUP2 MSTORE ADD SWAP2 PUSH0 MSTORE PUSH1 0x20 PUSH0 KECCAK256 SWAP1 PUSH0 JUMPDEST DUP2 DUP2 LT PUSH2 0x10E6 JUMPI PUSH2 0x3DB DUP6 PUSH2 0x707 DUP2 DUP8 SUB DUP3 PUSH2 0x3230 JUMP JUMPDEST DUP3 SLOAD DUP5 MSTORE PUSH1 0x20 SWAP1 SWAP4 ADD SWAP3 PUSH1 0x1 SWAP3 DUP4 ADD SWAP3 ADD PUSH2 0x10CF JUMP JUMPDEST CALLVALUE PUSH2 0x1EE JUMPI PUSH0 CALLDATASIZE PUSH1 0x3 NOT ADD SLT PUSH2 0x1EE JUMPI PUSH1 0x20 PUSH1 0xFF PUSH1 0x2 SLOAD AND PUSH1 0x40 MLOAD SWAP1 ISZERO ISZERO DUP2 MSTORE RETURN JUMPDEST CALLVALUE PUSH2 0x1EE JUMPI PUSH1 0x40 CALLDATASIZE PUSH1 0x3 NOT ADD SLT PUSH2 0x1EE JUMPI PUSH1 0x4 CALLDATALOAD PUSH1 0x1 PUSH1 0x1 PUSH1 0x40 SHL SUB DUP2 GT PUSH2 0x1EE JUMPI PUSH2 0x114E SWAP1 CALLDATASIZE SWAP1 PUSH1 0x4 ADD PUSH2 0x3107 JUMP JUMPDEST PUSH1 0x24 CALLDATALOAD PUSH1 0x1 PUSH1 0x1 PUSH1 0x40 SHL SUB DUP2 GT PUSH2 0x1EE JUMPI PUSH2 0x116D SWAP1 CALLDATASIZE SWAP1 PUSH1 0x4 ADD PUSH2 0x3107 JUMP JUMPDEST SWAP3 SWAP1 PUSH2 0x1177 PUSH2 0x3B6C JUMP JUMPDEST PUSH2 0x117F PUSH2 0x3BB0 JUMP JUMPDEST PUSH2 0x1187 PUSH2 0x3C06 JUMP JUMPDEST PUSH1 0x4 DUP4 LT ISZERO DUP1 PUSH2 0x284A JUMPI JUMPDEST ISZERO PUSH2 0x2811 JUMPI PUSH1 0x13 SLOAD PUSH1 0x1 PUSH1 0x1 PUSH1 0xA0 SHL SUB AND PUSH0 JUMPDEST DUP5 DUP2 LT PUSH2 0x273B JUMPI POP POP DUP4 ISZERO SWAP4 DUP5 PUSH2 0x2719 JUMPI PUSH2 0x11C1 CALLDATASIZE DUP3 DUP5 PUSH2 0x3951 JUMP JUMPDEST SWAP5 ISZERO PUSH2 0x2626 JUMPI POP POP PUSH0 JUMPDEST PUSH1 0x3 DUP2 LT PUSH2 0x25F6 JUMPI POP JUMPDEST PUSH1 0x40 MLOAD SWAP3 PUSH2 0x120 PUSH2 0x11E6 DUP2 DUP7 PUSH2 0x3230 JUMP JUMPDEST PUSH1 0x8 DUP6 MSTORE PUSH1 0x1F NOT ADD PUSH0 JUMPDEST DUP2 DUP2 LT PUSH2 0x25DF JUMPI POP POP PUSH1 0x40 DUP1 MLOAD TIMESTAMP PUSH1 0x20 DUP3 ADD SWAP1 DUP2 MSTORE CALLER PUSH1 0x60 SHL PUSH12 0xFFFFFFFFFFFFFFFFFFFFFFFF NOT AND SWAP3 DUP3 ADD SWAP3 SWAP1 SWAP3 MSTORE PREVRANDAO PUSH1 0x54 DUP3 ADD MSTORE NUMBER PUSH1 0x74 DUP3 ADD MSTORE PUSH2 0x1238 DUP2 PUSH1 0x94 DUP2 ADD PUSH2 0x982 JUMP JUMPDEST MLOAD SWAP1 KECCAK256 SWAP1 PUSH0 JUMPDEST PUSH1 0xFF DUP2 AND PUSH1 0x8 DUP2 LT ISZERO PUSH2 0x1393 JUMPI CALLER PUSH0 SWAP1 DUP2 MSTORE PUSH1 0x4 PUSH1 0x20 MSTORE PUSH1 0x40 SWAP1 KECCAK256 SLOAD PUSH1 0x40 DUP1 MLOAD PUSH1 0x20 DUP2 ADD DUP8 DUP2 MSTORE PUSH1 0xF8 DUP7 SWAP1 SHL PUSH1 0x1 PUSH1 0x1 PUSH1 0xF8 SHL SUB NOT AND SWAP3 DUP3 ADD SWAP3 SWAP1 SWAP3 MSTORE PUSH1 0xF0 SWAP3 SWAP1 SWAP3 SHL PUSH1 0x1 PUSH1 0x1 PUSH1 0xF0 SHL SUB NOT AND PUSH1 0x41 DUP4 ADD MSTORE PUSH1 0x23 DUP3 MSTORE SWAP1 PUSH2 0x12A0 PUSH1 0x43 DUP3 PUSH2 0x3230 JUMP JUMPDEST MLOAD SWAP1 KECCAK256 SWAP2 PUSH1 0xFF PUSH2 0x12B2 PUSH1 0xD DUP6 MOD PUSH2 0x3374 JUMP JUMPDEST AND SWAP2 PUSH1 0xC DUP5 PUSH1 0x8 SHR MOD PUSH1 0x7 ADD SWAP1 DUP2 PUSH1 0x7 GT PUSH2 0xAAB JUMPI PUSH1 0xFF SWAP5 PUSH1 0x1 SWAP5 DUP7 PUSH2 0x138B SWAP5 AND DUP8 PUSH2 0x12E3 PUSH1 0xB DUP6 PUSH1 0x10 SHR MOD PUSH2 0x3374 JUMP JUMPDEST AND SWAP2 PUSH2 0x135D DUP10 PUSH1 0x3 DUP7 PUSH1 0x18 SHR MOD AND SWAP5 DUP11 PUSH2 0x1303 PUSH1 0x3 DUP4 PUSH1 0x20 SHR AND SWAP3 PUSH2 0x3CFF JUMP JUMPDEST PUSH2 0x130C DUP9 PUSH2 0x338F JUMP JUMPDEST AND PUSH2 0x1316 DUP2 PUSH2 0x338F JUMP JUMPDEST PUSH2 0x131F DUP3 PUSH2 0x3399 JUMP JUMPDEST PUSH1 0x40 MLOAD SWAP7 PUSH2 0x132F PUSH2 0x140 DUP10 PUSH2 0x3230 JUMP JUMPDEST PUSH0 DUP9 MSTORE PUSH0 PUSH1 0x20 DUP10 ADD MSTORE PUSH2 0x1341 DUP2 PUSH2 0x338F JUMP JUMPDEST PUSH1 0x40 DUP9 ADD MSTORE PUSH2 0x134F DUP2 PUSH2 0x338F JUMP JUMPDEST PUSH1 0x60 DUP8 ADD MSTORE PUSH1 0x80 DUP7 ADD PUSH2 0x39FD JUMP JUMPDEST PUSH1 0xA0 DUP5 ADD MSTORE PUSH1 0xC0 DUP4 ADD MSTORE PUSH1 0xE0 DUP3 ADD MSTORE PUSH0 PUSH2 0x100 DUP3 ADD MSTORE PUSH0 PUSH2 0x120 DUP3 ADD MSTORE PUSH2 0x1384 DUP3 DUP13 PUSH2 0x39E9 JUMP JUMPDEST MSTORE DUP10 PUSH2 0x39E9 JUMP JUMPDEST POP ADD AND PUSH2 0x123E JUMP JUMPDEST POP POP SWAP3 SWAP1 PUSH0 JUMPDEST PUSH1 0xFF DUP2 AND DUP7 PUSH1 0x8 DUP3 LT ISZERO PUSH2 0x164A JUMPI SWAP2 PUSH2 0x1643 PUSH1 0xFF PUSH2 0x120 PUSH2 0x1603 DUP6 PUSH2 0x15FD DUP5 PUSH2 0x100 PUSH2 0x15BD DUP5 DUP13 PUSH2 0x1407 DUP13 DUP7 SWAP16 PUSH1 0x1 SWAP16 PUSH2 0x13D6 SWAP1 PUSH2 0x13F5 SWAP3 PUSH2 0x39E9 JUMP JUMPDEST MLOAD MLOAD CALLER PUSH0 SWAP1 DUP2 MSTORE PUSH1 0x9 PUSH1 0x20 MSTORE PUSH1 0x40 SWAP1 KECCAK256 SWAP1 ISZERO ISZERO SWAP3 SWAP1 PUSH2 0x3300 JUMP JUMPDEST PUSH2 0x3300 JUMP JUMPDEST POP SWAP1 PUSH1 0xFF DUP1 NOT DUP4 SLOAD AND SWAP2 ISZERO ISZERO AND OR SWAP1 SSTORE JUMP JUMPDEST DUP12 DUP14 PUSH2 0x1431 PUSH1 0x20 PUSH2 0x1418 DUP7 DUP7 PUSH2 0x39E9 JUMP JUMPDEST MLOAD ADD MLOAD CALLER PUSH0 SWAP1 DUP2 MSTORE PUSH1 0x9 PUSH1 0x20 MSTORE PUSH1 0x40 SWAP1 KECCAK256 SWAP1 SWAP4 SWAP1 PUSH2 0x3300 JUMP JUMPDEST POP ADD SSTORE DUP12 DUP6 PUSH1 0x2 PUSH2 0x1470 PUSH1 0x40 PUSH2 0x1447 DUP8 DUP8 PUSH2 0x39E9 JUMP JUMPDEST MLOAD ADD MLOAD SWAP4 PUSH2 0x1454 DUP6 PUSH2 0x338F JUMP JUMPDEST PUSH2 0x145D DUP6 PUSH2 0x338F JUMP JUMPDEST CALLER PUSH0 SWAP1 DUP2 MSTORE PUSH1 0x9 PUSH1 0x20 MSTORE PUSH1 0x40 SWAP1 KECCAK256 PUSH2 0x3300 JUMP JUMPDEST POP ADD SWAP2 AND DUP7 NOT DUP3 SLOAD AND OR SWAP1 SSTORE PUSH2 0x14BF DUP13 PUSH1 0x2 PUSH2 0x14A7 PUSH1 0x60 PUSH2 0x1491 DUP8 DUP8 PUSH2 0x39E9 JUMP JUMPDEST MLOAD ADD MLOAD SWAP3 PUSH2 0x149E DUP5 PUSH2 0x338F JUMP JUMPDEST PUSH2 0x145D DUP5 PUSH2 0x338F JUMP JUMPDEST POP ADD SWAP1 PUSH2 0xFF00 DUP3 SLOAD SWAP2 PUSH1 0x8 SHL AND SWAP1 PUSH2 0xFF00 NOT AND OR SWAP1 SSTORE JUMP JUMPDEST PUSH2 0x1502 DUP13 PUSH1 0x2 PUSH2 0x14E8 PUSH2 0x14DE PUSH1 0x80 PUSH2 0x14D7 DUP9 DUP9 PUSH2 0x39E9 JUMP JUMPDEST MLOAD ADD PUSH2 0x3A09 JUMP JUMPDEST SWAP3 PUSH2 0x145D DUP5 PUSH2 0x3399 JUMP JUMPDEST POP ADD SWAP1 PUSH3 0xFF0000 DUP3 SLOAD SWAP2 PUSH1 0x10 SHL AND SWAP1 PUSH3 0xFF0000 NOT AND OR SWAP1 SSTORE JUMP JUMPDEST PUSH2 0x154E DUP13 PUSH1 0x2 PUSH2 0x1532 DUP9 PUSH1 0xA0 PUSH2 0x1518 DUP9 DUP9 PUSH2 0x39E9 JUMP JUMPDEST MLOAD ADD MLOAD CALLER PUSH0 SWAP1 DUP2 MSTORE PUSH1 0x9 PUSH1 0x20 MSTORE PUSH1 0x40 SWAP1 KECCAK256 SWAP2 AND SWAP4 SWAP1 PUSH2 0x3300 JUMP JUMPDEST POP ADD SWAP1 PUSH4 0xFF000000 DUP3 SLOAD SWAP2 PUSH1 0x18 SHL AND SWAP1 PUSH4 0xFF000000 NOT AND OR SWAP1 SSTORE JUMP JUMPDEST PUSH2 0x1582 DUP13 PUSH1 0x2 PUSH2 0x1564 DUP9 PUSH1 0xC0 PUSH2 0x1518 DUP9 DUP9 PUSH2 0x39E9 JUMP JUMPDEST POP ADD SWAP1 PUSH5 0xFF00000000 DUP3 SLOAD SWAP2 PUSH1 0x20 SHL AND SWAP1 PUSH5 0xFF00000000 NOT AND OR SWAP1 SSTORE JUMP JUMPDEST PUSH2 0x15B8 DUP13 PUSH1 0x2 PUSH2 0x1598 DUP9 PUSH1 0xE0 PUSH2 0x1518 DUP9 DUP9 PUSH2 0x39E9 JUMP JUMPDEST POP ADD SWAP1 PUSH6 0xFF0000000000 DUP3 SLOAD SWAP2 PUSH1 0x28 SHL AND SWAP1 PUSH6 0xFF0000000000 NOT AND OR SWAP1 SSTORE JUMP JUMPDEST PUSH2 0x39E9 JUMP JUMPDEST MLOAD ADD MLOAD AND PUSH1 0x2 PUSH2 0x15E1 DUP10 PUSH2 0x13F0 CALLER PUSH1 0x1 DUP1 PUSH1 0xA0 SHL SUB AND PUSH0 MSTORE PUSH1 0x9 PUSH1 0x20 MSTORE PUSH1 0x40 PUSH0 KECCAK256 SWAP1 JUMP JUMPDEST POP ADD SWAP1 PUSH1 0xFF PUSH1 0x30 SHL DUP3 SLOAD SWAP2 PUSH1 0x30 SHL AND SWAP1 PUSH1 0xFF PUSH1 0x30 SHL NOT AND OR SWAP1 SSTORE JUMP JUMPDEST DUP13 PUSH2 0x39E9 JUMP JUMPDEST MLOAD ADD MLOAD AND PUSH1 0x2 PUSH2 0x1627 DUP5 PUSH2 0x13F0 CALLER PUSH1 0x1 DUP1 PUSH1 0xA0 SHL SUB AND PUSH0 MSTORE PUSH1 0x9 PUSH1 0x20 MSTORE PUSH1 0x40 PUSH0 KECCAK256 SWAP1 JUMP JUMPDEST POP ADD SWAP1 PUSH1 0xFF PUSH1 0x38 SHL DUP3 SLOAD SWAP2 PUSH1 0x38 SHL AND SWAP1 PUSH1 0xFF PUSH1 0x38 SHL NOT AND OR SWAP1 SSTORE JUMP JUMPDEST ADD AND PUSH2 0x1399 JUMP JUMPDEST PUSH1 0x13 SLOAD PUSH1 0x14 SLOAD CALLER PUSH0 SWAP1 DUP2 MSTORE PUSH1 0x4 PUSH1 0x20 MSTORE PUSH1 0x40 SWAP1 KECCAK256 SLOAD PUSH1 0x1 PUSH1 0x1 PUSH1 0xA0 SHL SUB SWAP3 DUP4 AND SWAP4 PUSH2 0xFFFF SWAP1 SWAP2 AND SWAP3 DUP8 SWAP3 DUP12 SWAP3 SWAP2 AND SWAP1 PUSH2 0x1684 CALLDATASIZE DUP12 DUP14 PUSH2 0x3951 JUMP JUMPDEST SWAP3 PUSH2 0x168D PUSH2 0x3EBF JUMP JUMPDEST POP PUSH2 0x1698 DUP5 MLOAD PUSH2 0x3F7F JUMP JUMPDEST SWAP5 PUSH0 JUMPDEST DUP6 MLOAD DUP2 LT ISZERO PUSH2 0x18B9 JUMPI PUSH2 0x16AE DUP2 DUP8 PUSH2 0x39E9 JUMP JUMPDEST MLOAD SWAP1 PUSH1 0x40 MLOAD SWAP2 PUSH4 0xB2ADFDF PUSH1 0xE1 SHL DUP4 MSTORE PUSH1 0x4 DUP4 ADD MSTORE PUSH1 0xC0 DUP3 PUSH1 0x24 DUP2 DUP14 GAS STATICCALL SWAP2 DUP3 ISZERO PUSH2 0x8D7 JUMPI PUSH0 SWAP3 PUSH2 0x1803 JUMPI JUMPDEST POP PUSH1 0x20 DUP3 ADD SWAP2 PUSH2 0x16F3 DUP4 MLOAD PUSH2 0x16EE DUP2 PUSH2 0x338F JUMP JUMPDEST PUSH2 0x4B08 JUMP JUMPDEST SWAP1 PUSH2 0x1707 PUSH1 0x80 DUP3 ADD SWAP3 PUSH1 0xFF DUP5 MLOAD AND SWAP1 PUSH2 0x4B51 JUMP JUMPDEST SWAP1 PUSH1 0xFF DUP1 PUSH1 0x60 DUP4 ADD MLOAD AND SWAP4 MLOAD AND SWAP1 PUSH1 0xA0 DUP2 ADD SWAP6 PUSH1 0xFF DUP8 MLOAD AND PUSH2 0x174C PUSH2 0x1735 DUP4 MLOAD PUSH2 0x1730 DUP2 PUSH2 0x338F JUMP JUMPDEST PUSH2 0x4B65 JUMP JUMPDEST SWAP9 PUSH1 0xFF DUP5 MLOAD SWAP2 PUSH2 0x1744 DUP4 PUSH2 0x338F JUMP JUMPDEST MLOAD AND SWAP1 PUSH2 0x4B95 JUMP JUMPDEST PUSH1 0x40 DUP5 MLOAD SWAP4 PUSH2 0x175A DUP6 PUSH2 0x338F JUMP JUMPDEST MLOAD SWAP5 PUSH2 0x1765 DUP7 PUSH2 0x338F JUMP JUMPDEST ADD MLOAD SWAP5 PUSH1 0x4 DUP7 LT ISZERO PUSH2 0x8E2 JUMPI PUSH1 0x1 SWAP10 PUSH2 0xFFFF PUSH2 0x17E7 SWAP9 PUSH1 0xFF SWAP6 DUP7 SWAP5 PUSH2 0x178E SWAP13 PUSH1 0x40 MLOAD SWAP14 DUP15 PUSH2 0x3214 JUMP JUMPDEST DUP14 MSTORE PUSH1 0x20 DUP14 ADD MSTORE PUSH1 0x40 DUP13 ADD MSTORE AND DUP1 PUSH1 0x60 DUP12 ADD MSTORE PUSH1 0x80 DUP11 ADD MSTORE AND PUSH1 0xA0 DUP9 ADD MSTORE AND PUSH1 0xC0 DUP7 ADD MSTORE PUSH0 PUSH1 0xE0 DUP7 ADD MSTORE PUSH0 PUSH2 0x100 DUP7 ADD MSTORE PUSH2 0x17C8 DUP2 PUSH2 0x338F JUMP JUMPDEST PUSH2 0x120 DUP6 ADD MSTORE PUSH2 0x17D7 DUP2 PUSH2 0x338F JUMP JUMPDEST PUSH2 0x140 DUP5 ADD MSTORE PUSH2 0x160 DUP4 ADD PUSH2 0x39FD JUMP JUMPDEST PUSH2 0x17F1 DUP3 DUP11 PUSH2 0x39E9 JUMP JUMPDEST MSTORE PUSH2 0x17FC DUP2 DUP10 PUSH2 0x39E9 JUMP JUMPDEST POP ADD PUSH2 0x169B JUMP JUMPDEST SWAP1 SWAP2 POP PUSH1 0xC0 DUP2 RETURNDATASIZE DUP3 GT PUSH2 0x18B1 JUMPI JUMPDEST DUP2 PUSH2 0x181E PUSH1 0xC0 SWAP4 DUP4 PUSH2 0x3230 JUMP JUMPDEST DUP2 ADD SUB SLT PUSH2 0x1EE JUMPI PUSH1 0x40 MLOAD SWAP1 PUSH1 0xC0 DUP3 ADD DUP3 DUP2 LT PUSH1 0x1 PUSH1 0x1 PUSH1 0x40 SHL SUB DUP3 GT OR PUSH2 0x532 JUMPI PUSH1 0x40 MSTORE DUP1 MLOAD PUSH1 0x3 DUP2 LT ISZERO PUSH2 0x1EE JUMPI DUP3 MSTORE PUSH1 0x20 DUP2 ADD MLOAD PUSH1 0x3 DUP2 LT ISZERO PUSH2 0x1EE JUMPI PUSH1 0x20 DUP4 ADD MSTORE PUSH1 0x40 DUP2 ADD MLOAD PUSH1 0x4 DUP2 LT ISZERO PUSH2 0x1EE JUMPI PUSH2 0x18A5 SWAP2 PUSH1 0xA0 SWAP2 PUSH1 0x40 DUP6 ADD MSTORE PUSH2 0x1889 PUSH1 0x60 DUP3 ADD PUSH2 0x401A JUMP JUMPDEST PUSH1 0x60 DUP6 ADD MSTORE PUSH2 0x189A PUSH1 0x80 DUP3 ADD PUSH2 0x401A JUMP JUMPDEST PUSH1 0x80 DUP6 ADD MSTORE ADD PUSH2 0x401A JUMP JUMPDEST PUSH1 0xA0 DUP3 ADD MSTORE SWAP1 DUP11 PUSH2 0x16DA JUMP JUMPDEST RETURNDATASIZE SWAP2 POP PUSH2 0x1811 JUMP JUMPDEST POP DUP6 SWAP2 SWAP4 PUSH2 0x18C7 DUP9 DUP5 PUSH2 0x4C0F JUMP JUMPDEST PUSH0 SWAP4 JUMPDEST DUP6 MLOAD DUP6 LT ISZERO PUSH2 0x1BC1 JUMPI PUSH2 0x18DD DUP6 DUP8 PUSH2 0x39E9 JUMP JUMPDEST MLOAD ISZERO PUSH2 0x1BB4 JUMPI PUSH2 0x18ED DUP6 DUP8 PUSH2 0x39E9 JUMP JUMPDEST MLOAD SWAP6 PUSH1 0x40 MLOAD SWAP7 PUSH4 0x68972D59 PUSH1 0xE0 SHL DUP9 MSTORE PUSH1 0x4 DUP9 ADD MSTORE PUSH0 DUP8 PUSH1 0x24 DUP2 DUP7 GAS STATICCALL SWAP7 DUP8 ISZERO PUSH2 0x8D7 JUMPI PUSH0 SWAP8 PUSH2 0x1ADA JUMPI JUMPDEST POP PUSH0 JUMPDEST DUP6 MLOAD DUP2 LT ISZERO PUSH2 0x1AC5 JUMPI DUP8 MLOAD PUSH1 0x6 DUP2 LT ISZERO PUSH2 0x8E2 JUMPI PUSH2 0x1962 JUMPI PUSH1 0x1 SWAP1 PUSH1 0xFF PUSH1 0x20 DUP11 ADD MLOAD AND PUSH1 0xFF PUSH2 0x1958 PUSH2 0x194D DUP5 DUP12 PUSH2 0x39E9 JUMP JUMPDEST MLOAD SWAP3 DUP3 DUP5 MLOAD AND PUSH2 0x3F4C JUMP JUMPDEST AND SWAP1 MSTORE JUMPDEST ADD PUSH2 0x191B JUMP JUMPDEST DUP8 MLOAD PUSH1 0x6 DUP2 LT ISZERO PUSH2 0x8E2 JUMPI PUSH1 0x1 SUB PUSH2 0x19A5 JUMPI PUSH1 0x1 SWAP1 PUSH1 0xFF PUSH1 0x20 DUP11 ADD MLOAD AND PUSH1 0xFF PUSH2 0x199C PUSH1 0x20 PUSH2 0x1990 DUP6 DUP13 PUSH2 0x39E9 JUMP JUMPDEST MLOAD ADD SWAP3 DUP3 DUP5 MLOAD AND PUSH2 0x3F4C JUMP JUMPDEST AND SWAP1 MSTORE JUMPDEST PUSH2 0x195C JUMP JUMPDEST DUP8 MLOAD PUSH1 0x6 DUP2 LT ISZERO PUSH2 0x8E2 JUMPI PUSH1 0x2 SUB PUSH2 0x19D3 JUMPI PUSH1 0x1 SWAP1 PUSH1 0xFF PUSH1 0x20 DUP11 ADD MLOAD AND PUSH1 0xFF PUSH2 0x199C PUSH1 0x40 PUSH2 0x1990 DUP6 DUP13 PUSH2 0x39E9 JUMP JUMPDEST DUP8 MLOAD PUSH1 0x6 DUP2 LT ISZERO PUSH2 0x8E2 JUMPI PUSH1 0x3 SUB PUSH2 0x1A74 JUMPI PUSH2 0xFFFF PUSH1 0x60 PUSH2 0x19F4 DUP4 DUP10 PUSH2 0x39E9 JUMP JUMPDEST MLOAD ADD MLOAD AND SWAP1 PUSH1 0x3 PUSH2 0xFFFF PUSH1 0xFF PUSH1 0x20 DUP13 ADD MLOAD AND AND MUL PUSH2 0xFFFF DUP2 AND SWAP1 DUP2 SUB PUSH2 0xAAB JUMPI PUSH2 0xFFFF AND PUSH1 0x64 ADD SWAP2 PUSH2 0xFFFF DUP4 GT PUSH2 0xAAB JUMPI PUSH2 0xFFFF PUSH2 0x1A36 PUSH1 0x1 SWAP5 PUSH1 0x64 SWAP4 PUSH2 0x4B38 JUMP JUMPDEST AND DIV PUSH2 0xFFFF PUSH1 0x60 PUSH2 0x1A47 DUP5 DUP12 PUSH2 0x39E9 JUMP JUMPDEST MLOAD ADD SWAP2 AND SWAP1 MSTORE PUSH2 0xFFFF PUSH1 0x60 PUSH2 0x1A5C DUP4 DUP11 PUSH2 0x39E9 JUMP JUMPDEST MLOAD ADD MLOAD AND PUSH1 0x80 PUSH2 0x1A6C DUP4 DUP11 PUSH2 0x39E9 JUMP JUMPDEST MLOAD ADD MSTORE PUSH2 0x195C JUMP JUMPDEST DUP8 MLOAD PUSH1 0x6 DUP2 LT ISZERO PUSH2 0x8E2 JUMPI PUSH1 0x4 SUB PUSH2 0x1AA2 JUMPI PUSH1 0x1 SWAP1 PUSH1 0xFF PUSH1 0x20 DUP11 ADD MLOAD AND PUSH1 0xFF PUSH2 0x199C PUSH1 0xA0 PUSH2 0x1990 DUP6 DUP13 PUSH2 0x39E9 JUMP JUMPDEST DUP8 MLOAD SWAP1 PUSH1 0x6 DUP3 LT ISZERO PUSH2 0x8E2 JUMPI PUSH1 0x5 PUSH1 0x1 SWAP3 SUB PUSH2 0x19A0 JUMPI DUP2 PUSH1 0xE0 PUSH2 0x1A6C DUP4 DUP11 PUSH2 0x39E9 JUMP JUMPDEST POP SWAP3 SWAP2 SWAP6 POP SWAP4 PUSH1 0x1 SWAP1 JUMPDEST ADD SWAP4 SWAP5 SWAP1 SWAP2 SWAP5 PUSH2 0x18CA JUMP JUMPDEST SWAP1 SWAP7 POP RETURNDATASIZE DUP1 PUSH0 DUP4 RETURNDATACOPY PUSH2 0x1AEC DUP2 DUP4 PUSH2 0x3230 JUMP JUMPDEST DUP2 ADD SWAP1 PUSH1 0x20 DUP2 DUP4 SUB SLT PUSH2 0x1EE JUMPI DUP1 MLOAD SWAP1 PUSH1 0x1 PUSH1 0x1 PUSH1 0x40 SHL SUB DUP3 GT PUSH2 0x1EE JUMPI ADD SWAP1 PUSH1 0x60 DUP3 DUP3 SUB SLT PUSH2 0x1EE JUMPI PUSH1 0x40 MLOAD SWAP2 PUSH2 0x1B23 DUP4 PUSH2 0x31DD JUMP JUMPDEST DUP1 MLOAD PUSH1 0x6 DUP2 LT ISZERO PUSH2 0x1EE JUMPI DUP4 MSTORE PUSH2 0x1B3C PUSH1 0x20 DUP3 ADD PUSH2 0x401A JUMP JUMPDEST PUSH1 0x20 DUP5 ADD MSTORE PUSH1 0x40 DUP2 ADD MLOAD SWAP1 PUSH1 0x1 PUSH1 0x1 PUSH1 0x40 SHL SUB DUP3 GT PUSH2 0x1EE JUMPI ADD DUP2 PUSH1 0x1F DUP3 ADD SLT ISZERO PUSH2 0x1EE JUMPI DUP1 MLOAD SWAP1 PUSH1 0x1 PUSH1 0x1 PUSH1 0x40 SHL SUB DUP3 GT PUSH2 0x532 JUMPI PUSH1 0x40 MLOAD SWAP3 PUSH2 0x1B8A PUSH1 0x1F DUP5 ADD PUSH1 0x1F NOT AND PUSH1 0x20 ADD DUP6 PUSH2 0x3230 JUMP JUMPDEST DUP3 DUP5 MSTORE PUSH1 0x20 DUP4 DUP4 ADD ADD GT PUSH2 0x1EE JUMPI DUP2 PUSH0 SWAP3 PUSH1 0x20 DUP1 SWAP4 ADD DUP4 DUP7 ADD MCOPY DUP4 ADD ADD MSTORE PUSH1 0x40 DUP3 ADD MSTORE SWAP6 DUP8 PUSH2 0x1918 JUMP JUMPDEST SWAP4 PUSH1 0x1 SWAP1 SWAP6 SWAP3 SWAP2 SWAP6 PUSH2 0x1ACF JUMP JUMPDEST SWAP1 POP PUSH2 0x1BCD DUP2 MLOAD PUSH2 0x3F7F JUMP JUMPDEST SWAP3 PUSH0 JUMPDEST DUP3 MLOAD DUP2 LT ISZERO PUSH2 0x1C96 JUMPI PUSH2 0x1BE3 DUP2 DUP5 PUSH2 0x39E9 JUMP JUMPDEST MLOAD SWAP1 PUSH1 0x60 DUP3 ADD SWAP2 PUSH2 0x1BF8 DUP4 MLOAD PUSH2 0x16EE DUP2 PUSH2 0x338F JUMP JUMPDEST SWAP1 PUSH2 0x1C0C PUSH1 0xC0 DUP3 ADD SWAP3 PUSH1 0xFF DUP5 MLOAD AND SWAP1 PUSH2 0x4B51 JUMP JUMPDEST SWAP1 PUSH1 0xFF DUP1 PUSH1 0xA0 DUP4 ADD MLOAD AND SWAP4 MLOAD AND SWAP1 PUSH1 0xE0 DUP2 ADD SWAP6 PUSH1 0xFF DUP8 MLOAD AND PUSH2 0x1C35 PUSH2 0x1735 DUP4 MLOAD PUSH2 0x1730 DUP2 PUSH2 0x338F JUMP JUMPDEST PUSH1 0x80 PUSH1 0x40 DUP6 ADD MLOAD SWAP4 PUSH2 0x1C46 DUP6 PUSH2 0x338F JUMP JUMPDEST MLOAD SWAP5 PUSH2 0x1C51 DUP7 PUSH2 0x338F JUMP JUMPDEST ADD MLOAD SWAP5 PUSH1 0x4 DUP7 LT ISZERO PUSH2 0x8E2 JUMPI PUSH1 0x1 SWAP10 PUSH2 0xFFFF PUSH2 0x1C7A SWAP9 PUSH1 0xFF SWAP6 DUP7 SWAP5 PUSH2 0x178E SWAP13 PUSH1 0x40 MLOAD SWAP14 DUP15 PUSH2 0x3214 JUMP JUMPDEST PUSH2 0x1C84 DUP3 DUP9 PUSH2 0x39E9 JUMP JUMPDEST MSTORE PUSH2 0x1C8F DUP2 DUP8 PUSH2 0x39E9 JUMP JUMPDEST POP ADD PUSH2 0x1BD0 JUMP JUMPDEST POP DUP3 DUP5 PUSH2 0x1CA2 DUP4 PUSH2 0x4028 JUMP JUMPDEST PUSH2 0x1CAB DUP2 PUSH2 0x4028 JUMP JUMPDEST PUSH2 0x1CB5 DUP4 MLOAD PUSH2 0x3EF3 JUMP JUMPDEST SWAP1 PUSH2 0x1CC0 DUP2 MLOAD PUSH2 0x3EF3 JUMP JUMPDEST SWAP3 PUSH0 JUMPDEST DUP6 MLOAD DUP2 LT ISZERO PUSH2 0x1CF3 JUMPI DUP1 PUSH2 0xFFFF PUSH1 0x80 PUSH2 0x1CDE PUSH1 0x1 SWAP5 DUP11 PUSH2 0x39E9 JUMP JUMPDEST MLOAD ADD MLOAD AND PUSH2 0x1CEC DUP3 DUP8 PUSH2 0x39E9 JUMP JUMPDEST MSTORE ADD PUSH2 0x1CC3 JUMP JUMPDEST POP DUP4 DUP4 DUP7 PUSH0 JUMPDEST DUP6 MLOAD DUP2 LT ISZERO PUSH2 0x1D29 JUMPI DUP1 PUSH2 0xFFFF PUSH1 0x80 PUSH2 0x1D14 PUSH1 0x1 SWAP5 DUP11 PUSH2 0x39E9 JUMP JUMPDEST MLOAD ADD MLOAD AND PUSH2 0x1D22 DUP3 DUP8 PUSH2 0x39E9 JUMP JUMPDEST MSTORE ADD PUSH2 0x1CF9 JUMP JUMPDEST POP PUSH1 0x40 MLOAD SWAP2 SWAP5 SWAP1 SWAP4 PUSH2 0xF20 PUSH2 0x1D3E DUP2 DUP6 PUSH2 0x3230 JUMP JUMPDEST PUSH1 0x78 DUP5 MSTORE PUSH1 0x1F NOT ADD PUSH0 JUMPDEST DUP2 DUP2 LT PUSH2 0x2574 JUMPI POP POP PUSH0 SWAP5 PUSH1 0x1 JUMPDEST PUSH1 0x12 PUSH1 0xFF DUP3 AND GT ISZERO PUSH2 0x2443 JUMPI JUMPDEST POP POP POP PUSH2 0x1D6F SWAP1 PUSH2 0x412F JUMP JUMPDEST ISZERO SWAP3 PUSH2 0x1D7A DUP2 PUSH2 0x3862 JUMP JUMPDEST SWAP2 PUSH2 0x1D88 PUSH1 0x40 MLOAD SWAP4 DUP5 PUSH2 0x3230 JUMP JUMPDEST DUP2 DUP4 MSTORE PUSH1 0x1F NOT PUSH2 0x1D97 DUP4 PUSH2 0x3862 JUMP JUMPDEST ADD PUSH0 JUMPDEST DUP2 DUP2 LT PUSH2 0x23D8 JUMPI POP POP PUSH0 JUMPDEST DUP3 DUP2 LT PUSH2 0x23AE JUMPI POP POP POP PUSH2 0x1DB7 PUSH2 0x3EBF JUMP JUMPDEST SWAP3 DUP4 MSTORE PUSH1 0x20 DUP4 ADD SWAP1 DUP2 MSTORE PUSH1 0x40 DUP4 ADD SWAP4 DUP5 MSTORE PUSH1 0x60 DUP4 ADD SWAP2 DUP3 MSTORE DUP3 MLOAD ISZERO ISZERO PUSH1 0x40 MLOAD PUSH1 0x20 DUP2 ADD SWAP2 PUSH12 0xFFFFFFFFFFFFFFFFFFFFFFFF NOT CALLER PUSH1 0x60 SHL AND DUP4 MSTORE TIMESTAMP PUSH1 0x34 DUP4 ADD MSTORE PREVRANDAO PUSH1 0x54 DUP4 ADD MSTORE PUSH1 0xF8 SHL PUSH1 0x74 DUP3 ADD MSTORE PUSH1 0x55 DUP2 MSTORE PUSH2 0x1E13 PUSH1 0x75 DUP3 PUSH2 0x3230 JUMP JUMPDEST MLOAD SWAP1 KECCAK256 SWAP1 DUP2 PUSH1 0xD SSTORE PUSH2 0x1E3F DUP5 MLOAD ISZERO ISZERO CALLER PUSH0 MSTORE PUSH1 0xA PUSH1 0x20 MSTORE PUSH1 0x40 PUSH0 KECCAK256 SWAP1 PUSH1 0xFF DUP1 NOT DUP4 SLOAD AND SWAP2 ISZERO ISZERO AND OR SWAP1 SSTORE JUMP JUMPDEST CALLER PUSH0 SWAP1 DUP2 MSTORE PUSH1 0xB PUSH1 0x20 MSTORE PUSH1 0x40 SWAP1 KECCAK256 PUSH2 0x1E56 SWAP1 PUSH2 0x3A2C JUMP JUMPDEST PUSH0 JUMPDEST DUP6 MLOAD MLOAD DUP2 LT ISZERO PUSH2 0x1E95 JUMPI CALLER PUSH0 SWAP1 DUP2 MSTORE PUSH1 0xB PUSH1 0x20 MSTORE PUSH1 0x40 SWAP1 KECCAK256 PUSH1 0x1 SWAP2 SWAP1 PUSH2 0x1E8F SWAP1 JUMPDEST PUSH2 0xFFFF PUSH2 0x1E87 DUP5 DUP12 MLOAD PUSH2 0x39E9 JUMP JUMPDEST MLOAD AND SWAP1 PUSH2 0x3A53 JUMP JUMPDEST ADD PUSH2 0x1E58 JUMP JUMPDEST POP CALLER PUSH0 SWAP1 DUP2 MSTORE PUSH1 0xC PUSH1 0x20 MSTORE PUSH1 0x40 SWAP1 KECCAK256 DUP6 SWAP1 DUP6 SWAP1 PUSH2 0x1EB1 SWAP1 PUSH2 0x3A2C JUMP JUMPDEST PUSH0 JUMPDEST DUP6 MLOAD MLOAD DUP2 LT ISZERO PUSH2 0x1EDE JUMPI CALLER PUSH0 SWAP1 DUP2 MSTORE PUSH1 0xC PUSH1 0x20 MSTORE PUSH1 0x40 SWAP1 KECCAK256 PUSH1 0x1 SWAP2 SWAP1 PUSH2 0x1ED8 SWAP1 PUSH2 0x1E79 JUMP JUMPDEST ADD PUSH2 0x1EB3 JUMP JUMPDEST POP CALLER PUSH0 SWAP1 DUP2 MSTORE PUSH1 0xE PUSH1 0x20 MSTORE PUSH1 0x40 SWAP1 KECCAK256 DUP6 SWAP5 SWAP1 PUSH2 0x1EF9 SWAP1 PUSH2 0x3A89 JUMP JUMPDEST PUSH0 JUMPDEST DUP5 MLOAD MLOAD DUP2 LT ISZERO PUSH2 0x21B3 JUMPI CALLER PUSH0 SWAP1 DUP2 MSTORE PUSH1 0xE PUSH1 0x20 MSTORE PUSH1 0x40 SWAP1 KECCAK256 PUSH2 0x1F1E DUP3 DUP8 MLOAD PUSH2 0x39E9 JUMP JUMPDEST MLOAD SWAP1 DUP1 SLOAD PUSH1 0x1 PUSH1 0x40 SHL DUP2 LT ISZERO PUSH2 0x532 JUMPI PUSH2 0x1F3D SWAP2 PUSH1 0x1 DUP3 ADD DUP2 SSTORE PUSH2 0x3170 JUMP JUMPDEST PUSH2 0x21A0 JUMPI DUP2 MLOAD DUP2 SLOAD PUSH1 0x20 DUP5 ADD MLOAD PUSH1 0x40 DUP6 ADD MLOAD PUSH3 0xFFFFFF NOT SWAP1 SWAP3 AND PUSH1 0xFF SWAP4 SWAP1 SWAP4 AND SWAP3 SWAP1 SWAP3 OR SWAP2 ISZERO ISZERO PUSH1 0x8 SHL PUSH2 0xFF00 AND SWAP2 SWAP1 SWAP2 OR PUSH1 0x10 SWAP2 SWAP1 SWAP2 SHL PUSH3 0xFF0000 AND OR DUP2 SSTORE PUSH1 0x60 DUP3 ADD MLOAD DUP2 SLOAD PUSH4 0xFF000000 NOT AND PUSH1 0x18 SWAP2 SWAP1 SWAP2 SHL PUSH4 0xFF000000 AND OR DUP2 SSTORE PUSH1 0x80 DUP3 ADD MLOAD DUP2 SLOAD PUSH1 0xA0 DUP5 ADD MLOAD PUSH1 0xC0 DUP6 ADD MLOAD PUSH1 0xE0 DUP7 ADD MLOAD PUSH12 0xFFFFFFFFFFFFFFFF00000000 NOT SWAP1 SWAP4 AND PUSH1 0x20 SWAP5 SWAP1 SWAP5 SHL PUSH6 0xFFFF00000000 AND SWAP4 SWAP1 SWAP4 OR PUSH1 0x30 SWAP2 SWAP1 SWAP2 SHL PUSH8 0xFFFF000000000000 AND OR PUSH1 0x40 SWAP3 SWAP1 SWAP3 SHL PUSH10 0xFFFF0000000000000000 AND SWAP2 SWAP1 SWAP2 OR PUSH1 0x50 SWAP2 SWAP1 SWAP2 SHL PUSH2 0xFFFF PUSH1 0x50 SHL AND OR DUP2 SSTORE PUSH2 0x100 DUP3 ADD MLOAD DUP1 MLOAD PUSH1 0x1 DUP4 ADD SWAP2 PUSH1 0x1 PUSH1 0x1 PUSH1 0x40 SHL SUB DUP3 GT PUSH2 0x532 JUMPI PUSH2 0x202F DUP4 SLOAD PUSH2 0x3189 JUMP JUMPDEST PUSH1 0x1F DUP2 GT PUSH2 0x2165 JUMPI JUMPDEST POP PUSH1 0x20 SWAP1 PUSH1 0x1F DUP4 GT PUSH1 0x1 EQ PUSH2 0x20F3 JUMPI PUSH2 0x20E2 SWAP5 PUSH1 0x1 SWAP8 SWAP7 SWAP5 DUP5 PUSH1 0xFF SWAP6 PUSH2 0x180 SWAP6 PUSH1 0x2 SWAP6 PUSH0 SWAP3 PUSH2 0x20E8 JUMPI JUMPDEST POP POP PUSH0 NOT PUSH1 0x3 DUP4 SWAP1 SHL SHR NOT AND SWAP1 DUP11 SHL OR SWAP1 SSTORE JUMPDEST ADD SWAP3 DUP3 DUP1 PUSH2 0x120 DUP4 ADD MLOAD AND AND DUP4 NOT DUP6 SLOAD AND OR DUP5 SSTORE PUSH2 0x20AB DUP4 PUSH2 0x140 DUP4 ADD MLOAD AND DUP6 SWAP1 PUSH2 0xFF00 DUP3 SLOAD SWAP2 PUSH1 0x8 SHL AND SWAP1 PUSH2 0xFF00 NOT AND OR SWAP1 SSTORE JUMP JUMPDEST PUSH2 0x160 DUP2 ADD MLOAD DUP5 SLOAD PUSH3 0xFF0000 NOT AND SWAP1 DUP5 AND PUSH1 0x10 SHL PUSH3 0xFF0000 AND OR DUP5 SSTORE ADD MLOAD DUP3 SLOAD PUSH4 0xFF000000 NOT AND SWAP2 AND PUSH1 0x18 SHL PUSH4 0xFF000000 AND OR SWAP1 SSTORE JUMP JUMPDEST ADD PUSH2 0x1EFB JUMP JUMPDEST ADD MLOAD SWAP1 POP PUSH0 DUP1 PUSH2 0x2062 JUMP JUMPDEST SWAP1 PUSH1 0x1F NOT DUP4 AND SWAP2 DUP5 PUSH0 MSTORE DUP2 PUSH0 KECCAK256 SWAP3 PUSH0 JUMPDEST DUP2 DUP2 LT PUSH2 0x214D JUMPI POP SWAP5 PUSH1 0x1 DUP6 PUSH2 0x180 SWAP6 PUSH1 0x2 SWAP6 PUSH2 0x20E2 SWAP11 SWAP6 PUSH1 0xFF SWAP10 DUP6 SWAP15 SWAP14 SWAP12 LT PUSH2 0x2135 JUMPI JUMPDEST POP POP POP DUP2 SHL ADD SWAP1 SSTORE PUSH2 0x2075 JUMP JUMPDEST ADD MLOAD PUSH0 NOT PUSH1 0xF8 DUP5 PUSH1 0x3 SHL AND SHR NOT AND SWAP1 SSTORE PUSH0 DUP1 DUP1 PUSH2 0x2128 JUMP JUMPDEST SWAP3 SWAP4 PUSH1 0x20 PUSH1 0x1 DUP2 SWAP3 DUP8 DUP7 ADD MLOAD DUP2 SSTORE ADD SWAP6 ADD SWAP4 ADD PUSH2 0x2103 JUMP JUMPDEST PUSH2 0x2190 SWAP1 DUP5 PUSH0 MSTORE PUSH1 0x20 PUSH0 KECCAK256 PUSH1 0x1F DUP6 ADD PUSH1 0x5 SHR DUP2 ADD SWAP2 PUSH1 0x20 DUP7 LT PUSH2 0x2196 JUMPI JUMPDEST PUSH1 0x1F ADD PUSH1 0x5 SHR ADD SWAP1 PUSH2 0x3A16 JUMP JUMPDEST DUP12 PUSH2 0x2038 JUMP JUMPDEST SWAP1 SWAP2 POP DUP2 SWAP1 PUSH2 0x2183 JUMP JUMPDEST PUSH4 0x4E487B71 PUSH1 0xE0 SHL PUSH0 MSTORE PUSH0 PUSH1 0x4 MSTORE PUSH1 0x24 PUSH0 REVERT JUMPDEST POP PUSH32 0xC5187ED43EF6C494568F3ACE9A84A990FE330816256F8610BA7630DE7FC2A485 PUSH2 0x220D DUP3 SWAP5 SWAP4 SWAP7 PUSH2 0x21FF DUP9 MLOAD ISZERO ISZERO SWAP6 MLOAD SWAP2 MLOAD SWAP2 PUSH1 0x40 MLOAD SWAP7 DUP8 MSTORE PUSH1 0x60 PUSH1 0x20 DUP9 ADD MSTORE PUSH1 0x60 DUP8 ADD SWAP1 PUSH2 0x2FF9 JUMP JUMPDEST SWAP1 DUP6 DUP3 SUB PUSH1 0x40 DUP8 ADD MSTORE PUSH2 0x2FF9 JUMP JUMPDEST SWAP3 DUP1 CALLER SWAP5 SUB SWAP1 LOG3 PUSH0 JUMPDEST DUP3 MLOAD SWAP1 DUP2 MLOAD DUP2 LT ISZERO PUSH2 0x22C7 JUMPI DUP3 PUSH32 0x60620DFBC2D4188642CFFA14579DA13E93400A7369BB90AAC5A983BEEF88F66A PUSH2 0x2250 DUP4 PUSH1 0x1 SWAP6 PUSH2 0x39E9 JUMP JUMPDEST MLOAD PUSH1 0xFF DUP2 MLOAD AND PUSH2 0x22BE PUSH1 0x20 DUP4 ADD MLOAD ISZERO ISZERO SWAP3 PUSH1 0xFF PUSH1 0x40 DUP3 ADD MLOAD AND SWAP1 PUSH1 0xFF PUSH1 0x60 DUP3 ADD MLOAD AND PUSH2 0xFFFF PUSH1 0x80 DUP4 ADD MLOAD AND SWAP1 PUSH2 0x100 PUSH2 0xFFFF PUSH1 0xE0 DUP6 ADD MLOAD AND SWAP4 ADD MLOAD SWAP4 PUSH1 0x40 MLOAD SWAP8 DUP9 SWAP8 DUP9 MSTORE PUSH1 0x20 DUP9 ADD MSTORE PUSH1 0x40 DUP8 ADD MSTORE PUSH1 0x60 DUP7 ADD MSTORE PUSH1 0x80 DUP6 ADD MSTORE PUSH1 0xA0 DUP5 ADD MSTORE PUSH1 0xE0 PUSH1 0xC0 DUP5 ADD MSTORE PUSH1 0xE0 DUP4 ADD SWAP1 PUSH2 0x3030 JUMP JUMPDEST SUB SWAP1 LOG2 ADD PUSH2 0x2216 JUMP JUMPDEST DUP5 MLOAD ISZERO ISZERO CALLER PUSH0 MSTORE PUSH1 0x4 PUSH1 0x20 MSTORE PUSH1 0x40 PUSH0 KECCAK256 SWAP1 DUP1 PUSH0 EQ PUSH2 0x23A7 JUMPI PUSH1 0x19 JUMPDEST PUSH1 0xFF PUSH4 0xFFFFFFFF DUP5 SLOAD PUSH1 0x10 SHR AND SWAP2 AND ADD PUSH4 0xFFFFFFFF DUP2 GT PUSH2 0xAAB JUMPI DUP3 SLOAD PUSH6 0xFFFFFFFF0000 NOT AND PUSH1 0x10 SWAP2 SWAP1 SWAP2 SHL PUSH6 0xFFFFFFFF0000 AND OR DUP3 SSTORE ISZERO PUSH2 0x2392 JUMPI PUSH1 0x1 DUP2 ADD PUSH2 0x232C DUP2 SLOAD PUSH2 0x3F60 JUMP JUMPDEST SWAP1 SSTORE JUMPDEST DUP1 SLOAD PUSH2 0xFFFF DUP2 AND SWAP1 PUSH1 0x37 DUP3 MUL PUSH4 0xFFFFFFFF DUP2 AND SWAP1 DUP2 SUB PUSH2 0xAAB JUMPI PUSH1 0x5A ADD PUSH4 0xFFFFFFFF DUP2 GT PUSH2 0xAAB JUMPI PUSH4 0xFFFFFFFF DUP1 SWAP2 AND SWAP2 PUSH1 0x10 SHR AND LT ISZERO PUSH2 0x2370 JUMPI PUSH1 0x1 DUP1 SSTORE STOP JUMPDEST PUSH2 0xFFFF DUP2 EQ PUSH2 0xAAB JUMPI PUSH1 0x1 PUSH2 0xFFFF SWAP2 ADD AND PUSH2 0xFFFF NOT DUP3 SLOAD AND OR SWAP1 SSTORE DUP1 DUP1 PUSH2 0x89B JUMP JUMPDEST PUSH1 0x2 DUP2 ADD PUSH2 0x23A0 DUP2 SLOAD PUSH2 0x3F60 JUMP JUMPDEST SWAP1 SSTORE PUSH2 0x232F JUMP JUMPDEST PUSH1 0xA PUSH2 0x22E2 JUMP JUMPDEST DUP1 PUSH2 0x23BB PUSH1 0x1 SWAP3 DUP5 PUSH2 0x39E9 JUMP JUMPDEST MLOAD PUSH2 0x23C6 DUP3 DUP8 PUSH2 0x39E9 JUMP JUMPDEST MSTORE PUSH2 0x23D1 DUP2 DUP7 PUSH2 0x39E9 JUMP JUMPDEST POP ADD PUSH2 0x1DA5 JUMP JUMPDEST PUSH1 0x20 SWAP1 PUSH1 0x40 MLOAD PUSH2 0x23E7 DUP2 PUSH2 0x31C1 JUMP JUMPDEST PUSH0 DUP2 MSTORE PUSH0 DUP4 DUP3 ADD MSTORE PUSH0 PUSH1 0x40 DUP3 ADD MSTORE PUSH0 PUSH1 0x60 DUP3 ADD MSTORE PUSH0 PUSH1 0x80 DUP3 ADD MSTORE PUSH0 PUSH1 0xA0 DUP3 ADD MSTORE PUSH0 PUSH1 0xC0 DUP3 ADD MSTORE PUSH0 PUSH1 0xE0 DUP3 ADD MSTORE PUSH1 0x60 PUSH2 0x100 DUP3 ADD MSTORE PUSH0 PUSH2 0x120 DUP3 ADD MSTORE PUSH0 PUSH2 0x140 DUP3 ADD MSTORE PUSH0 PUSH2 0x160 DUP3 ADD MSTORE PUSH0 PUSH2 0x180 DUP3 ADD MSTORE DUP3 DUP3 DUP9 ADD ADD MSTORE ADD PUSH2 0x1D9A JUMP JUMPDEST PUSH2 0x244C DUP3 PUSH2 0x412F JUMP JUMPDEST ISZERO DUP1 ISZERO PUSH2 0x2564 JUMPI JUMPDEST PUSH2 0x255F JUMPI PUSH2 0x2461 DUP3 PUSH2 0x417C JUMP JUMPDEST PUSH2 0x246A DUP5 PUSH2 0x417C JUMP JUMPDEST PUSH1 0x3 PUSH1 0xFF DUP3 AND MUL PUSH1 0xFF DUP2 AND SWAP1 DUP2 SUB PUSH2 0xAAB JUMPI PUSH1 0x1 DUP5 PUSH1 0xFF DUP1 SWAP4 AND SHR AND AND PUSH1 0x1 ADD PUSH1 0xFF DUP2 GT PUSH2 0xAAB JUMPI PUSH1 0xFF AND PUSH0 JUMPDEST DUP2 PUSH1 0xFF DUP3 AND LT PUSH2 0x24B2 JUMPI JUMPDEST POP POP PUSH2 0x24AD SWAP1 PUSH2 0x3F6E JUMP JUMPDEST PUSH2 0x1D56 JUMP JUMPDEST PUSH1 0x77 DUP10 LT ISZERO PUSH2 0x254A JUMPI PUSH2 0x24C4 DUP5 PUSH2 0x412F JUMP JUMPDEST ISZERO DUP1 ISZERO PUSH2 0x254F JUMPI JUMPDEST PUSH2 0x254A JUMPI DUP3 DUP10 DUP9 DUP8 PUSH2 0x24DE DUP11 DUP10 PUSH2 0x41E5 JUMP JUMPDEST SWAP5 SWAP1 ISZERO PUSH2 0x2519 JUMPI PUSH2 0x24F0 SWAP5 DUP12 DUP11 PUSH2 0x4797 JUMP JUMPDEST PUSH2 0x2502 JUMPI JUMPDEST PUSH1 0x1 PUSH1 0xFF SWAP2 JUMPDEST ADD AND PUSH2 0x2497 JUMP JUMPDEST SWAP8 PUSH1 0x1 PUSH2 0x2510 PUSH1 0xFF SWAP3 PUSH2 0x3F60 JUMP JUMPDEST SWAP10 SWAP2 POP POP PUSH2 0x24F5 JUMP JUMPDEST PUSH2 0x2524 SWAP5 DUP10 DUP13 PUSH2 0x43BE JUMP JUMPDEST PUSH2 0x2533 JUMPI JUMPDEST PUSH1 0x1 PUSH1 0xFF SWAP2 PUSH2 0x24FB JUMP JUMPDEST SWAP8 PUSH1 0x1 PUSH2 0x2541 PUSH1 0xFF SWAP3 PUSH2 0x3F60 JUMP JUMPDEST SWAP10 SWAP2 POP POP PUSH2 0x2529 JUMP JUMPDEST PUSH2 0x24A2 JUMP JUMPDEST POP PUSH2 0x2559 DUP7 PUSH2 0x412F JUMP JUMPDEST ISZERO PUSH2 0x24CC JUMP JUMPDEST PUSH2 0x1D63 JUMP JUMPDEST POP PUSH2 0x256E DUP5 PUSH2 0x412F JUMP JUMPDEST ISZERO PUSH2 0x2454 JUMP JUMPDEST PUSH1 0x20 SWAP1 PUSH1 0x40 MLOAD PUSH2 0x2583 DUP2 PUSH2 0x31C1 JUMP JUMPDEST PUSH0 DUP2 MSTORE PUSH0 DUP4 DUP3 ADD MSTORE PUSH0 PUSH1 0x40 DUP3 ADD MSTORE PUSH0 PUSH1 0x60 DUP3 ADD MSTORE PUSH0 PUSH1 0x80 DUP3 ADD MSTORE PUSH0 PUSH1 0xA0 DUP3 ADD MSTORE PUSH0 PUSH1 0xC0 DUP3 ADD MSTORE PUSH0 PUSH1 0xE0 DUP3 ADD MSTORE PUSH1 0x60 PUSH2 0x100 DUP3 ADD MSTORE PUSH0 PUSH2 0x120 DUP3 ADD MSTORE PUSH0 PUSH2 0x140 DUP3 ADD MSTORE PUSH0 PUSH2 0x160 DUP3 ADD MSTORE PUSH0 PUSH2 0x180 DUP3 ADD MSTORE DUP3 DUP3 DUP9 ADD ADD MSTORE ADD PUSH2 0x1D48 JUMP JUMPDEST PUSH1 0x20 SWAP1 PUSH2 0x25EA PUSH2 0x3879 JUMP JUMPDEST DUP3 DUP3 DUP10 ADD ADD MSTORE ADD PUSH2 0x11F0 JUMP JUMPDEST PUSH1 0x1 SWAP1 CALLER PUSH0 MSTORE PUSH1 0x7 PUSH1 0x20 MSTORE PUSH2 0x260E DUP2 PUSH1 0x40 PUSH0 KECCAK256 PUSH2 0x32F1 JUMP JUMPDEST SWAP1 SLOAD SWAP1 PUSH1 0x3 SHL SHR PUSH2 0x261F DUP3 DUP8 PUSH2 0x39E9 JUMP JUMPDEST MSTORE ADD PUSH2 0x11CB JUMP JUMPDEST SWAP1 SWAP2 SWAP4 POP PUSH1 0x3 DUP2 GT PUSH2 0x26E2 JUMPI PUSH0 JUMPDEST DUP2 DUP2 LT PUSH2 0x264E JUMPI POP SWAP1 PUSH2 0x2648 SWAP2 CALLDATASIZE SWAP2 PUSH2 0x3951 JUMP JUMPDEST SWAP2 PUSH2 0x11D5 JUMP JUMPDEST PUSH2 0x2659 DUP2 DUP4 DUP6 PUSH2 0x3941 JUMP JUMPDEST CALLDATALOAD PUSH2 0x2667 JUMPI JUMPDEST PUSH1 0x1 ADD PUSH2 0x2634 JUMP JUMPDEST PUSH1 0x14 SLOAD PUSH2 0x2686 SWAP2 SWAP1 PUSH1 0x20 SWAP1 PUSH1 0x1 PUSH1 0x1 PUSH1 0xA0 SHL SUB AND PUSH2 0xE57 DUP4 DUP7 DUP9 PUSH2 0x3941 JUMP JUMPDEST SUB SWAP2 GAS STATICCALL SWAP2 DUP3 ISZERO PUSH2 0x8D7 JUMPI PUSH0 SWAP3 PUSH2 0x26AD JUMPI JUMPDEST POP PUSH2 0x26A6 PUSH1 0x1 SWAP3 ISZERO ISZERO PUSH2 0x399D JUMP JUMPDEST SWAP1 POP PUSH2 0x265F JUMP JUMPDEST SWAP2 POP PUSH1 0x20 DUP3 RETURNDATASIZE DUP3 GT PUSH2 0x26DA JUMPI JUMPDEST DUP2 PUSH2 0x26C7 PUSH1 0x20 SWAP4 DUP4 PUSH2 0x3230 JUMP JUMPDEST DUP2 ADD SUB SLT PUSH2 0x1EE JUMPI SWAP1 MLOAD SWAP1 PUSH2 0x26A6 PUSH2 0x2698 JUMP JUMPDEST RETURNDATASIZE SWAP2 POP PUSH2 0x26BA JUMP JUMPDEST PUSH1 0x40 MLOAD PUSH3 0x461BCD PUSH1 0xE5 SHL DUP2 MSTORE PUSH1 0x20 PUSH1 0x4 DUP3 ADD MSTORE PUSH1 0xF PUSH1 0x24 DUP3 ADD MSTORE PUSH15 0x546F6F206D616E792072656C696373 PUSH1 0x88 SHL PUSH1 0x44 DUP3 ADD MSTORE PUSH1 0x64 SWAP1 REVERT JUMPDEST PUSH1 0x40 MLOAD PUSH1 0x80 PUSH2 0x2728 DUP2 DUP4 PUSH2 0x3230 JUMP JUMPDEST PUSH1 0x3 DUP3 MSTORE PUSH1 0x1F NOT ADD CALLDATASIZE PUSH1 0x20 DUP4 ADD CALLDATACOPY PUSH2 0x11C1 JUMP JUMPDEST PUSH2 0x2746 DUP2 DUP7 DUP7 PUSH2 0x3941 JUMP JUMPDEST PUSH1 0x40 MLOAD PUSH4 0x31A9108F PUSH1 0xE1 SHL DUP2 MSTORE SWAP1 CALLDATALOAD PUSH1 0x4 DUP3 ADD MSTORE PUSH1 0x20 DUP2 PUSH1 0x24 DUP2 DUP7 GAS STATICCALL SWAP1 DUP2 ISZERO PUSH2 0x8D7 JUMPI PUSH0 SWAP2 PUSH2 0x27D0 JUMPI JUMPDEST POP CALLER PUSH1 0x1 PUSH1 0x1 PUSH1 0xA0 SHL SUB SWAP1 SWAP2 AND SUB PUSH2 0x278B JUMPI PUSH1 0x1 ADD PUSH2 0x11A5 JUMP JUMPDEST PUSH1 0x40 MLOAD PUSH3 0x461BCD PUSH1 0xE5 SHL DUP2 MSTORE PUSH1 0x20 PUSH1 0x4 DUP3 ADD MSTORE PUSH1 0x18 PUSH1 0x24 DUP3 ADD MSTORE PUSH32 0x596F7520646F206E6F74206F776E207468697320756E69740000000000000000 PUSH1 0x44 DUP3 ADD MSTORE PUSH1 0x64 SWAP1 REVERT JUMPDEST SWAP1 POP PUSH1 0x20 DUP2 RETURNDATASIZE DUP3 GT PUSH2 0x2809 JUMPI JUMPDEST DUP2 PUSH2 0x27EA PUSH1 0x20 SWAP4 DUP4 PUSH2 0x3230 JUMP JUMPDEST DUP2 ADD SUB SLT PUSH2 0x1EE JUMPI MLOAD PUSH1 0x1 PUSH1 0x1 PUSH1 0xA0 SHL SUB DUP2 AND DUP2 SUB PUSH2 0x1EE JUMPI DUP8 PUSH2 0x2771 JUMP JUMPDEST RETURNDATASIZE SWAP2 POP PUSH2 0x27DD JUMP JUMPDEST PUSH1 0x40 MLOAD PUSH3 0x461BCD PUSH1 0xE5 SHL DUP2 MSTORE PUSH1 0x20 PUSH1 0x4 DUP3 ADD MSTORE PUSH1 0x11 PUSH1 0x24 DUP3 ADD MSTORE PUSH17 0x496E76616C6964207465616D2073697A65 PUSH1 0x78 SHL PUSH1 0x44 DUP3 ADD MSTORE PUSH1 0x64 SWAP1 REVERT JUMPDEST POP PUSH1 0x8 DUP4 GT ISZERO PUSH2 0x1192 JUMP JUMPDEST CALLVALUE PUSH2 0x1EE JUMPI PUSH0 CALLDATASIZE PUSH1 0x3 NOT ADD SLT PUSH2 0x1EE JUMPI PUSH1 0x20 PUSH1 0xD SLOAD PUSH1 0x40 MLOAD SWAP1 DUP2 MSTORE RETURN JUMPDEST CALLVALUE PUSH2 0x1EE JUMPI PUSH1 0x40 CALLDATASIZE PUSH1 0x3 NOT ADD SLT PUSH2 0x1EE JUMPI PUSH2 0x288B PUSH2 0x2FBC JUMP JUMPDEST PUSH1 0x1 PUSH1 0x1 PUSH1 0xA0 SHL SUB AND PUSH0 SWAP1 DUP2 MSTORE PUSH1 0x5 PUSH1 0x20 MSTORE PUSH1 0x40 SWAP1 KECCAK256 DUP1 SLOAD PUSH1 0x24 CALLDATALOAD SWAP2 SWAP1 DUP3 LT ISZERO PUSH2 0x1EE JUMPI PUSH1 0x20 SWAP2 PUSH2 0x23B SWAP2 PUSH2 0x30F2 JUMP JUMPDEST CALLVALUE PUSH2 0x1EE JUMPI PUSH1 0x40 CALLDATASIZE PUSH1 0x3 NOT ADD SLT PUSH2 0x1EE JUMPI PUSH2 0x28D4 PUSH2 0x2FBC JUMP JUMPDEST PUSH1 0x1 PUSH1 0x1 PUSH1 0xA0 SHL SUB AND PUSH0 SWAP1 DUP2 MSTORE PUSH1 0xB PUSH1 0x20 MSTORE PUSH1 0x40 SWAP1 KECCAK256 DUP1 SLOAD PUSH1 0x24 CALLDATALOAD SWAP1 DUP2 LT ISZERO PUSH2 0x1EE JUMPI PUSH2 0x1023 PUSH2 0xFFFF SWAP2 PUSH1 0x20 SWAP4 PUSH2 0x30D1 JUMP JUMPDEST CALLVALUE PUSH2 0x1EE JUMPI PUSH1 0x20 CALLDATASIZE PUSH1 0x3 NOT ADD SLT PUSH2 0x1EE JUMPI PUSH2 0x291F PUSH2 0x2FBC JUMP JUMPDEST PUSH1 0x60 PUSH1 0x40 MLOAD PUSH2 0x292F PUSH1 0x60 DUP3 PUSH2 0x3230 JUMP JUMPDEST PUSH0 JUMPDEST DUP3 DUP2 LT PUSH2 0x29B1 JUMPI DUP4 PUSH1 0x1 DUP1 PUSH1 0xA0 SHL SUB AND PUSH0 MSTORE PUSH1 0x8 PUSH1 0x20 MSTORE PUSH1 0x40 PUSH0 KECCAK256 PUSH1 0x40 MLOAD SWAP1 PUSH2 0x2959 DUP3 PUSH2 0x31DD JUMP JUMPDEST PUSH0 DUP3 JUMPDEST PUSH1 0x3 DUP3 LT PUSH2 0x2993 JUMPI PUSH1 0x40 MLOAD DUP5 PUSH0 DUP3 JUMPDEST PUSH1 0x3 DUP3 LT PUSH2 0x2979 JUMPI PUSH2 0x3C0 DUP5 RETURN JUMPDEST PUSH1 0x20 PUSH2 0x2988 PUSH1 0x1 SWAP3 DUP6 MLOAD PUSH2 0x3054 JUMP JUMPDEST SWAP4 ADD SWAP2 ADD SWAP1 SWAP2 PUSH2 0x296B JUMP JUMPDEST PUSH1 0x3 PUSH1 0x20 PUSH1 0x1 SWAP3 PUSH2 0x29A3 DUP7 PUSH2 0x38C3 JUMP JUMPDEST DUP2 MSTORE ADD SWAP4 ADD SWAP2 ADD SWAP1 SWAP2 PUSH2 0x295C JUMP JUMPDEST PUSH1 0x20 SWAP1 PUSH2 0x29BC PUSH2 0x3879 JUMP JUMPDEST DUP2 DUP5 ADD MSTORE ADD PUSH2 0x2931 JUMP JUMPDEST CALLVALUE PUSH2 0x1EE JUMPI PUSH0 CALLDATASIZE PUSH1 0x3 NOT ADD SLT PUSH2 0x1EE JUMPI PUSH2 0x29DE PUSH2 0x3E68 JUMP JUMPDEST PUSH1 0x2 SLOAD PUSH1 0xFF DUP2 AND ISZERO PUSH2 0x2A1D JUMPI PUSH1 0xFF NOT AND PUSH1 0x2 SSTORE PUSH32 0x5DB9EE0A495BF2E6FF9C91A7834C1BA4FDD244A5E8AA4E537BD38AEAE4B073AA PUSH1 0x20 PUSH1 0x40 MLOAD CALLER DUP2 MSTORE LOG1 STOP JUMPDEST PUSH1 0x40 MLOAD PUSH3 0x461BCD PUSH1 0xE5 SHL DUP2 MSTORE PUSH1 0x20 PUSH1 0x4 DUP3 ADD MSTORE PUSH1 0x14 PUSH1 0x24 DUP3 ADD MSTORE PUSH20 0x14185D5CD8589B194E881B9BDD081C185D5CD959 PUSH1 0x62 SHL PUSH1 0x44 DUP3 ADD MSTORE PUSH1 0x64 SWAP1 REVERT JUMPDEST CALLVALUE PUSH2 0x1EE JUMPI PUSH0 CALLDATASIZE PUSH1 0x3 NOT ADD SLT PUSH2 0x1EE JUMPI PUSH2 0x2A71 PUSH2 0x3E68 JUMP JUMPDEST PUSH2 0x2A79 PUSH2 0x3BB0 JUMP JUMPDEST SELFBALANCE DUP1 ISZERO PUSH2 0x2A9C JUMPI PUSH0 DUP1 DUP1 DUP1 SWAP4 PUSH1 0x1 DUP1 PUSH1 0xA0 SHL SUB DUP3 SLOAD AND DUP3 CALL ISZERO PUSH2 0x8D7 JUMPI PUSH1 0x1 DUP1 SSTORE STOP JUMPDEST PUSH1 0x40 MLOAD PUSH3 0x461BCD PUSH1 0xE5 SHL DUP2 MSTORE PUSH1 0x20 PUSH1 0x4 DUP3 ADD MSTORE PUSH1 0x14 PUSH1 0x24 DUP3 ADD MSTORE PUSH20 0x4E6F2066756E647320746F207769746864726177 PUSH1 0x60 SHL PUSH1 0x44 DUP3 ADD MSTORE PUSH1 0x64 SWAP1 REVERT JUMPDEST CALLVALUE PUSH2 0x1EE JUMPI PUSH0 CALLDATASIZE PUSH1 0x3 NOT ADD SLT PUSH2 0x1EE JUMPI PUSH1 0x20 PUSH1 0xF SLOAD PUSH1 0x40 MLOAD SWAP1 DUP2 MSTORE RETURN JUMPDEST CALLVALUE PUSH2 0x1EE JUMPI PUSH1 0x20 CALLDATASIZE PUSH1 0x3 NOT ADD SLT PUSH2 0x1EE JUMPI PUSH1 0x1 PUSH1 0x1 PUSH1 0xA0 SHL SUB PUSH2 0x2B16 PUSH2 0x2FBC JUMP JUMPDEST AND DUP1 PUSH0 MSTORE PUSH1 0xA PUSH1 0x20 MSTORE PUSH1 0xFF PUSH1 0x40 PUSH0 KECCAK256 SLOAD AND DUP2 PUSH0 MSTORE PUSH1 0xB PUSH1 0x20 MSTORE PUSH1 0x40 PUSH0 KECCAK256 DUP3 PUSH0 MSTORE PUSH1 0xC PUSH1 0x20 MSTORE PUSH1 0x40 PUSH0 KECCAK256 SWAP3 PUSH1 0xD SLOAD SWAP1 PUSH0 MSTORE PUSH1 0xE PUSH1 0x20 MSTORE PUSH2 0x2B61 PUSH2 0x2B5B PUSH1 0x40 PUSH0 KECCAK256 SWAP4 PUSH2 0x3557 JUMP JUMPDEST SWAP5 PUSH2 0x3557 JUMP JUMPDEST DUP3 SLOAD SWAP1 PUSH2 0x2B6D DUP3 PUSH2 0x3862 JUMP JUMPDEST SWAP2 PUSH2 0x2B7B PUSH1 0x40 MLOAD SWAP4 DUP5 PUSH2 0x3230 JUMP JUMPDEST DUP1 DUP4 MSTORE PUSH1 0x20 DUP4 ADD DUP1 SWAP6 PUSH0 MSTORE PUSH1 0x20 PUSH0 KECCAK256 PUSH0 SWAP2 JUMPDEST DUP4 DUP4 LT PUSH2 0x2CDB JUMPI POP POP POP POP PUSH2 0x2BC8 SWAP1 PUSH2 0x2BBA PUSH1 0x40 MLOAD SWAP8 DUP9 SWAP8 ISZERO ISZERO DUP9 MSTORE PUSH1 0xA0 PUSH1 0x20 DUP10 ADD MSTORE PUSH1 0xA0 DUP9 ADD SWAP1 PUSH2 0x2FF9 JUMP JUMPDEST SWAP1 DUP7 DUP3 SUB PUSH1 0x40 DUP9 ADD MSTORE PUSH2 0x2FF9 JUMP JUMPDEST SWAP2 PUSH1 0x60 DUP6 ADD MSTORE DUP4 DUP3 SUB PUSH1 0x80 DUP6 ADD MSTORE MLOAD DUP1 DUP3 MSTORE PUSH1 0x20 DUP3 ADD SWAP2 PUSH1 0x20 DUP3 PUSH1 0x5 SHL DUP3 ADD ADD SWAP4 SWAP3 PUSH0 SWAP2 JUMPDEST DUP4 DUP4 LT PUSH2 0x2BFA JUMPI DUP7 DUP7 SUB DUP8 RETURN JUMPDEST SWAP2 SWAP4 SWAP6 POP SWAP2 SWAP4 PUSH1 0x20 DUP1 PUSH1 0x1 SWAP3 PUSH1 0x1F NOT DUP6 DUP3 SUB ADD DUP7 MSTORE DUP9 MLOAD SWAP1 PUSH1 0xFF DUP3 MLOAD AND DUP2 MSTORE DUP3 DUP3 ADD MLOAD ISZERO ISZERO DUP4 DUP3 ADD MSTORE PUSH1 0xFF PUSH1 0x40 DUP4 ADD MLOAD AND PUSH1 0x40 DUP3 ADD MSTORE PUSH1 0xFF PUSH1 0x60 DUP4 ADD MLOAD AND PUSH1 0x60 DUP3 ADD MSTORE PUSH2 0xFFFF PUSH1 0x80 DUP4 ADD MLOAD AND PUSH1 0x80 DUP3 ADD MSTORE PUSH2 0xFFFF PUSH1 0xA0 DUP4 ADD MLOAD AND PUSH1 0xA0 DUP3 ADD MSTORE PUSH2 0xFFFF PUSH1 0xC0 DUP4 ADD MLOAD AND PUSH1 0xC0 DUP3 ADD MSTORE PUSH2 0xFFFF PUSH1 0xE0 DUP4 ADD MLOAD AND PUSH1 0xE0 DUP3 ADD MSTORE PUSH2 0x180 PUSH1 0xFF DUP2 PUSH2 0x2C98 PUSH2 0x100 DUP7 ADD MLOAD PUSH2 0x1A0 PUSH2 0x100 DUP8 ADD MSTORE PUSH2 0x1A0 DUP7 ADD SWAP1 PUSH2 0x3030 JUMP JUMPDEST SWAP5 DUP3 PUSH2 0x120 DUP3 ADD MLOAD AND PUSH2 0x120 DUP7 ADD MSTORE DUP3 PUSH2 0x140 DUP3 ADD MLOAD AND PUSH2 0x140 DUP7 ADD MSTORE DUP3 PUSH2 0x160 DUP3 ADD MLOAD AND PUSH2 0x160 DUP7 ADD MSTORE ADD MLOAD AND SWAP2 ADD MSTORE SWAP8 ADD SWAP4 ADD SWAP4 ADD SWAP1 SWAP3 DUP7 SWAP6 SWAP5 SWAP3 SWAP4 PUSH2 0x2BED JUMP JUMPDEST PUSH1 0x3 PUSH1 0x20 PUSH1 0x1 SWAP3 PUSH1 0x40 SWAP13 SWAP8 SWAP9 SWAP10 SWAP11 SWAP12 SWAP13 MLOAD PUSH2 0x2CF5 DUP2 PUSH2 0x31C1 JUMP JUMPDEST PUSH2 0xFFFF DUP7 SLOAD PUSH1 0xFF DUP2 AND DUP4 MSTORE PUSH1 0xFF DUP2 PUSH1 0x8 SHR AND ISZERO ISZERO DUP6 DUP5 ADD MSTORE PUSH1 0xFF DUP2 PUSH1 0x10 SHR AND PUSH1 0x40 DUP5 ADD MSTORE PUSH1 0xFF DUP2 PUSH1 0x18 SHR AND PUSH1 0x60 DUP5 ADD MSTORE DUP2 DUP2 DUP7 SHR AND PUSH1 0x80 DUP5 ADD MSTORE DUP2 DUP2 PUSH1 0x30 SHR AND PUSH1 0xA0 DUP5 ADD MSTORE DUP2 DUP2 PUSH1 0x40 SHR AND PUSH1 0xC0 DUP5 ADD MSTORE PUSH1 0x50 SHR AND PUSH1 0xE0 DUP3 ADD MSTORE PUSH2 0x2D59 DUP6 DUP8 ADD PUSH2 0x3251 JUMP JUMPDEST PUSH2 0x100 DUP3 ADD MSTORE PUSH1 0xFF PUSH1 0x2 DUP8 ADD SLOAD DUP2 DUP2 AND PUSH2 0x120 DUP5 ADD MSTORE DUP2 DUP2 PUSH1 0x8 SHR AND PUSH2 0x140 DUP5 ADD MSTORE DUP2 DUP2 PUSH1 0x10 SHR AND PUSH2 0x160 DUP5 ADD MSTORE PUSH1 0x18 SHR AND PUSH2 0x180 DUP3 ADD MSTORE DUP2 MSTORE ADD SWAP3 ADD SWAP3 ADD SWAP2 SWAP1 SWAP9 SWAP8 SWAP7 SWAP6 SWAP5 SWAP4 SWAP9 PUSH2 0x2B8D JUMP JUMPDEST PUSH0 CALLDATASIZE PUSH1 0x3 NOT ADD SLT PUSH2 0x1EE JUMPI PUSH2 0x2DB9 PUSH2 0x3B6C JUMP JUMPDEST PUSH2 0x2DC1 PUSH2 0x3BB0 JUMP JUMPDEST PUSH2 0x2DC9 PUSH2 0x3C06 JUMP JUMPDEST PUSH2 0x2DD7 PUSH1 0x10 SLOAD CALLVALUE LT ISZERO PUSH2 0x3313 JUMP JUMPDEST PUSH0 JUMPDEST PUSH1 0x3 DUP2 LT PUSH2 0x2DE7 JUMPI PUSH1 0x1 DUP1 SSTORE STOP JUMPDEST PUSH1 0x1 SWAP1 PUSH2 0x2E0A PUSH2 0x2DF5 PUSH2 0x3D21 JUMP JUMPDEST CALLER PUSH0 MSTORE PUSH1 0x8 PUSH1 0x20 MSTORE PUSH2 0x895 DUP4 PUSH1 0x40 PUSH0 KECCAK256 PUSH2 0x2FD2 JUMP JUMPDEST ADD PUSH2 0x2DD9 JUMP JUMPDEST PUSH0 CALLDATASIZE PUSH1 0x3 NOT ADD SLT PUSH2 0x1EE JUMPI PUSH2 0x2E23 PUSH2 0x3B6C JUMP JUMPDEST PUSH2 0x2E2B PUSH2 0x3BB0 JUMP JUMPDEST PUSH2 0x2E33 PUSH2 0x3C06 JUMP JUMPDEST PUSH2 0x2E41 PUSH1 0xF SLOAD CALLVALUE LT ISZERO PUSH2 0x3313 JUMP JUMPDEST PUSH1 0x40 MLOAD PUSH1 0x20 DUP2 ADD SWAP1 TIMESTAMP DUP3 MSTORE CALLER PUSH1 0x60 SHL PUSH1 0x40 DUP3 ADD MSTORE PREVRANDAO PUSH1 0x54 DUP3 ADD MSTORE PUSH1 0x54 DUP2 MSTORE PUSH2 0x2E6A PUSH1 0x74 DUP3 PUSH2 0x3230 JUMP JUMPDEST MLOAD SWAP1 KECCAK256 PUSH1 0xB DUP2 MOD PUSH1 0xA ADD DUP1 PUSH1 0xA GT PUSH2 0xAAB JUMPI PUSH1 0xB DUP3 PUSH1 0x8 SHR MOD PUSH1 0x8 ADD SWAP1 DUP2 PUSH1 0x8 GT PUSH2 0xAAB JUMPI PUSH1 0xB DUP4 PUSH1 0x10 SHR MOD PUSH1 0x9 ADD SWAP3 DUP4 PUSH1 0x9 GT PUSH2 0xAAB JUMPI PUSH1 0xFF PUSH1 0x3 DUP3 PUSH1 0x18 SHR MOD AND PUSH2 0x2EBC PUSH1 0x3 DUP4 PUSH1 0x20 SHR AND SWAP3 PUSH2 0x3CFF JUMP JUMPDEST PUSH1 0x13 SLOAD PUSH1 0x1 PUSH1 0x1 PUSH1 0xA0 SHL SUB AND SWAP3 SWAP1 PUSH1 0xFF SWAP1 PUSH2 0x2ED6 DUP5 PUSH2 0x338F JUMP JUMPDEST AND SWAP6 PUSH2 0x2EE1 DUP8 PUSH2 0x338F JUMP JUMPDEST PUSH1 0x4 DUP3 LT ISZERO PUSH2 0x8E2 JUMPI PUSH1 0x40 MLOAD PUSH4 0xE3BD811 PUSH1 0xE3 SHL DUP2 MSTORE SWAP7 PUSH1 0x20 SWAP7 DUP9 SWAP7 DUP8 SWAP6 PUSH0 SWAP6 DUP8 SWAP6 PUSH2 0x2F1E SWAP6 PUSH1 0xFF SWAP2 DUP3 AND SWAP6 DUP3 AND SWAP5 SWAP1 SWAP2 AND SWAP3 CALLER PUSH1 0x4 DUP10 ADD PUSH2 0x33A3 JUMP JUMPDEST SUB SWAP3 GAS CALL DUP1 ISZERO PUSH2 0x8D7 JUMPI PUSH0 SWAP1 PUSH2 0x2F44 JUMPI JUMPDEST PUSH2 0x89B SWAP1 CALLER PUSH0 MSTORE PUSH1 0x5 PUSH1 0x20 MSTORE PUSH1 0x40 PUSH0 KECCAK256 PUSH2 0x3403 JUMP JUMPDEST POP PUSH1 0x20 DUP2 RETURNDATASIZE PUSH1 0x20 GT PUSH2 0x2F70 JUMPI JUMPDEST DUP2 PUSH2 0x2F5E PUSH1 0x20 SWAP4 DUP4 PUSH2 0x3230 JUMP JUMPDEST DUP2 ADD SUB SLT PUSH2 0x1EE JUMPI PUSH2 0x89B SWAP1 MLOAD PUSH2 0x2F2F JUMP JUMPDEST RETURNDATASIZE SWAP2 POP PUSH2 0x2F51 JUMP JUMPDEST CALLVALUE PUSH2 0x1EE JUMPI PUSH1 0x40 CALLDATASIZE PUSH1 0x3 NOT ADD SLT PUSH2 0x1EE JUMPI PUSH2 0x2F91 PUSH2 0x2FBC JUMP JUMPDEST PUSH1 0x1 PUSH1 0x1 PUSH1 0xA0 SHL SUB AND PUSH0 SWAP1 DUP2 MSTORE PUSH1 0x8 PUSH1 0x20 MSTORE PUSH1 0x40 SWAP1 KECCAK256 PUSH1 0x24 CALLDATALOAD PUSH1 0x3 DUP2 LT ISZERO PUSH2 0x1EE JUMPI PUSH2 0x354 SWAP2 PUSH2 0x2FD2 JUMP JUMPDEST PUSH1 0x4 CALLDATALOAD SWAP1 PUSH1 0x1 PUSH1 0x1 PUSH1 0xA0 SHL SUB DUP3 AND DUP3 SUB PUSH2 0x1EE JUMPI JUMP JUMPDEST SWAP1 PUSH1 0x3 DUP2 LT ISZERO PUSH2 0x2FE5 JUMPI PUSH1 0x3 MUL ADD SWAP1 PUSH0 SWAP1 JUMP JUMPDEST PUSH4 0x4E487B71 PUSH1 0xE0 SHL PUSH0 MSTORE PUSH1 0x32 PUSH1 0x4 MSTORE PUSH1 0x24 PUSH0 REVERT JUMPDEST SWAP1 PUSH1 0x20 DUP1 DUP4 MLOAD SWAP3 DUP4 DUP2 MSTORE ADD SWAP3 ADD SWAP1 PUSH0 JUMPDEST DUP2 DUP2 LT PUSH2 0x3016 JUMPI POP POP POP SWAP1 JUMP JUMPDEST DUP3 MLOAD PUSH2 0xFFFF AND DUP5 MSTORE PUSH1 0x20 SWAP4 DUP5 ADD SWAP4 SWAP1 SWAP3 ADD SWAP2 PUSH1 0x1 ADD PUSH2 0x3009 JUMP JUMPDEST DUP1 MLOAD DUP1 DUP4 MSTORE PUSH1 0x20 SWAP3 SWAP2 DUP2 SWAP1 DUP5 ADD DUP5 DUP5 ADD MCOPY PUSH0 DUP3 DUP3 ADD DUP5 ADD MSTORE PUSH1 0x1F ADD PUSH1 0x1F NOT AND ADD ADD SWAP1 JUMP JUMPDEST SWAP1 PUSH1 0xFF PUSH2 0x120 PUSH2 0x140 SWAP4 DUP1 MLOAD ISZERO ISZERO DUP5 MSTORE PUSH1 0x20 DUP2 ADD MLOAD PUSH1 0x20 DUP6 ADD MSTORE DUP3 PUSH1 0x40 DUP3 ADD MLOAD AND PUSH1 0x40 DUP6 ADD MSTORE DUP3 PUSH1 0x60 DUP3 ADD MLOAD AND PUSH1 0x60 DUP6 ADD MSTORE DUP3 PUSH1 0x80 DUP3 ADD MLOAD AND PUSH1 0x80 DUP6 ADD MSTORE DUP3 PUSH1 0xA0 DUP3 ADD MLOAD AND PUSH1 0xA0 DUP6 ADD MSTORE DUP3 PUSH1 0xC0 DUP3 ADD MLOAD AND PUSH1 0xC0 DUP6 ADD MSTORE DUP3 PUSH1 0xE0 DUP3 ADD MLOAD AND PUSH1 0xE0 DUP6 ADD MSTORE DUP3 PUSH2 0x100 DUP3 ADD MLOAD AND PUSH2 0x100 DUP6 ADD MSTORE ADD MLOAD AND PUSH2 0x120 DUP3 ADD MSTORE ADD SWAP1 JUMP JUMPDEST SWAP2 SWAP1 SWAP2 DUP1 SLOAD DUP4 LT ISZERO PUSH2 0x2FE5 JUMPI PUSH0 MSTORE PUSH1 0x1E PUSH1 0x20 PUSH0 KECCAK256 DUP4 PUSH1 0x4 SHR ADD SWAP3 PUSH1 0x1 SHL AND SWAP1 JUMP JUMPDEST DUP1 SLOAD DUP3 LT ISZERO PUSH2 0x2FE5 JUMPI PUSH0 MSTORE PUSH1 0x20 PUSH0 KECCAK256 ADD SWAP1 PUSH0 SWAP1 JUMP JUMPDEST SWAP2 DUP2 PUSH1 0x1F DUP5 ADD SLT ISZERO PUSH2 0x1EE JUMPI DUP3 CALLDATALOAD SWAP2 PUSH1 0x1 PUSH1 0x1 PUSH1 0x40 SHL SUB DUP4 GT PUSH2 0x1EE JUMPI PUSH1 0x20 DUP1 DUP6 ADD SWAP5 DUP5 PUSH1 0x5 SHL ADD ADD GT PUSH2 0x1EE JUMPI JUMP JUMPDEST PUSH1 0x20 PUSH1 0x40 DUP2 DUP4 ADD SWAP3 DUP3 DUP2 MSTORE DUP5 MLOAD DUP1 SWAP5 MSTORE ADD SWAP3 ADD SWAP1 PUSH0 JUMPDEST DUP2 DUP2 LT PUSH2 0x315A JUMPI POP POP POP SWAP1 JUMP JUMPDEST DUP3 MLOAD DUP5 MSTORE PUSH1 0x20 SWAP4 DUP5 ADD SWAP4 SWAP1 SWAP3 ADD SWAP2 PUSH1 0x1 ADD PUSH2 0x314D JUMP JUMPDEST DUP1 SLOAD DUP3 LT ISZERO PUSH2 0x2FE5 JUMPI PUSH0 MSTORE PUSH1 0x3 PUSH1 0x20 PUSH0 KECCAK256 SWAP2 MUL ADD SWAP1 PUSH0 SWAP1 JUMP JUMPDEST SWAP1 PUSH1 0x1 DUP3 DUP2 SHR SWAP3 AND DUP1 ISZERO PUSH2 0x31B7 JUMPI JUMPDEST PUSH1 0x20 DUP4 LT EQ PUSH2 0x31A3 JUMPI JUMP JUMPDEST PUSH4 0x4E487B71 PUSH1 0xE0 SHL PUSH0 MSTORE PUSH1 0x22 PUSH1 0x4 MSTORE PUSH1 0x24 PUSH0 REVERT JUMPDEST SWAP2 PUSH1 0x7F AND SWAP2 PUSH2 0x3198 JUMP JUMPDEST PUSH2 0x1A0 DUP2 ADD SWAP1 DUP2 LT PUSH1 0x1 PUSH1 0x1 PUSH1 0x40 SHL SUB DUP3 GT OR PUSH2 0x532 JUMPI PUSH1 0x40 MSTORE JUMP JUMPDEST PUSH1 0x60 DUP2 ADD SWAP1 DUP2 LT PUSH1 0x1 PUSH1 0x1 PUSH1 0x40 SHL SUB DUP3 GT OR PUSH2 0x532 JUMPI PUSH1 0x40 MSTORE JUMP JUMPDEST PUSH2 0x140 DUP2 ADD SWAP1 DUP2 LT PUSH1 0x1 PUSH1 0x1 PUSH1 0x40 SHL SUB DUP3 GT OR PUSH2 0x532 JUMPI PUSH1 0x40 MSTORE JUMP JUMPDEST PUSH2 0x180 DUP2 ADD SWAP1 DUP2 LT PUSH1 0x1 PUSH1 0x1 PUSH1 0x40 SHL SUB DUP3 GT OR PUSH2 0x532 JUMPI PUSH1 0x40 MSTORE JUMP JUMPDEST SWAP1 PUSH1 0x1F DUP1 NOT SWAP2 ADD AND DUP2 ADD SWAP1 DUP2 LT PUSH1 0x1 PUSH1 0x1 PUSH1 0x40 SHL SUB DUP3 GT OR PUSH2 0x532 JUMPI PUSH1 0x40 MSTORE JUMP JUMPDEST SWAP1 PUSH1 0x40 MLOAD SWAP2 DUP3 PUSH0 DUP3 SLOAD SWAP3 PUSH2 0x3264 DUP5 PUSH2 0x3189 JUMP JUMPDEST DUP1 DUP5 MSTORE SWAP4 PUSH1 0x1 DUP2 AND SWAP1 DUP2 ISZERO PUSH2 0x32CF JUMPI POP PUSH1 0x1 EQ PUSH2 0x328B JUMPI JUMPDEST POP PUSH2 0x3289 SWAP3 POP SUB DUP4 PUSH2 0x3230 JUMP JUMPDEST JUMP JUMPDEST SWAP1 POP PUSH0 SWAP3 SWAP2 SWAP3 MSTORE PUSH1 0x20 PUSH0 KECCAK256 SWAP1 PUSH0 SWAP2 JUMPDEST DUP2 DUP4 LT PUSH2 0x32B3 JUMPI POP POP SWAP1 PUSH1 0x20 PUSH2 0x3289 SWAP3 DUP3 ADD ADD PUSH0 PUSH2 0x327C JUMP JUMPDEST PUSH1 0x20 SWAP2 SWAP4 POP DUP1 PUSH1 0x1 SWAP2 SLOAD DUP4 DUP6 DUP10 ADD ADD MSTORE ADD SWAP2 ADD SWAP1 SWAP2 DUP5 SWAP3 PUSH2 0x329A JUMP JUMPDEST SWAP1 POP PUSH1 0x20 SWAP3 POP PUSH2 0x3289 SWAP5 SWAP2 POP PUSH1 0xFF NOT AND DUP3 DUP5 ADD MSTORE ISZERO ISZERO PUSH1 0x5 SHL DUP3 ADD ADD PUSH0 PUSH2 0x327C JUMP JUMPDEST PUSH1 0x3 DUP3 LT ISZERO PUSH2 0x2FE5 JUMPI ADD SWAP1 PUSH0 SWAP1 JUMP JUMPDEST SWAP1 PUSH1 0x8 DUP2 LT ISZERO PUSH2 0x2FE5 JUMPI PUSH1 0x3 MUL ADD SWAP1 PUSH0 SWAP1 JUMP JUMPDEST ISZERO PUSH2 0x331A JUMPI JUMP JUMPDEST PUSH1 0x40 MLOAD PUSH3 0x461BCD PUSH1 0xE5 SHL DUP2 MSTORE PUSH1 0x20 PUSH1 0x4 DUP3 ADD MSTORE PUSH1 0x14 PUSH1 0x24 DUP3 ADD MSTORE PUSH20 0x125B9CDD59999A58DA595B9D081C185E5B595B9D PUSH1 0x62 SHL PUSH1 0x44 DUP3 ADD MSTORE PUSH1 0x64 SWAP1 REVERT JUMPDEST DUP2 ISZERO PUSH2 0x3360 JUMPI MOD SWAP1 JUMP JUMPDEST PUSH4 0x4E487B71 PUSH1 0xE0 SHL PUSH0 MSTORE PUSH1 0x12 PUSH1 0x4 MSTORE PUSH1 0x24 PUSH0 REVERT JUMPDEST PUSH1 0x8 ADD SWAP1 DUP2 PUSH1 0x8 GT PUSH2 0xAAB JUMPI JUMP JUMPDEST SWAP2 SWAP1 DUP3 ADD DUP1 SWAP3 GT PUSH2 0xAAB JUMPI JUMP JUMPDEST PUSH1 0x3 GT ISZERO PUSH2 0x8E2 JUMPI JUMP JUMPDEST PUSH1 0x4 GT ISZERO PUSH2 0x8E2 JUMPI JUMP JUMPDEST PUSH1 0x1 PUSH1 0x1 PUSH1 0xA0 SHL SUB SWAP1 SWAP2 AND DUP2 MSTORE PUSH1 0xE0 DUP2 ADD SWAP8 SWAP7 SWAP1 SWAP6 SWAP5 SWAP1 SWAP3 SWAP1 SWAP2 PUSH2 0x33C6 DUP2 PUSH2 0x338F JUMP JUMPDEST PUSH1 0x20 DUP8 ADD MSTORE PUSH2 0x33D4 DUP2 PUSH2 0x338F JUMP JUMPDEST PUSH1 0x40 DUP7 ADD MSTORE PUSH1 0x4 DUP4 LT ISZERO PUSH2 0x8E2 JUMPI PUSH1 0xC0 SWAP4 PUSH1 0xFF DUP1 SWAP5 SWAP3 DUP2 SWAP4 PUSH1 0x60 DUP10 ADD MSTORE AND PUSH1 0x80 DUP8 ADD MSTORE AND PUSH1 0xA0 DUP6 ADD MSTORE AND SWAP2 ADD MSTORE JUMP JUMPDEST DUP1 SLOAD PUSH1 0x1 PUSH1 0x40 SHL DUP2 LT ISZERO PUSH2 0x532 JUMPI PUSH2 0x3420 SWAP2 PUSH1 0x1 DUP3 ADD DUP2 SSTORE PUSH2 0x30F2 JUMP JUMPDEST DUP2 SWAP3 SWAP2 SLOAD SWAP1 PUSH1 0x3 SHL SWAP2 DUP3 SHL SWAP2 PUSH0 NOT SWAP1 SHL NOT AND OR SWAP1 SSTORE JUMP JUMPDEST SWAP2 SWAP1 PUSH2 0x21A0 JUMPI PUSH1 0xFF PUSH2 0x120 PUSH1 0x2 PUSH2 0x3289 SWAP5 PUSH2 0x3461 DUP6 MLOAD ISZERO ISZERO DUP3 SWAP1 PUSH1 0xFF DUP1 NOT DUP4 SLOAD AND SWAP2 ISZERO ISZERO AND OR SWAP1 SSTORE JUMP JUMPDEST PUSH1 0x20 DUP6 ADD MLOAD PUSH1 0x1 DUP3 ADD SSTORE ADD SWAP3 DUP3 DUP1 PUSH1 0x40 DUP4 ADD MLOAD AND AND DUP4 NOT DUP6 SLOAD AND OR DUP5 SSTORE PUSH2 0x349F DUP4 PUSH1 0x60 DUP4 ADD MLOAD AND DUP6 SWAP1 PUSH2 0xFF00 DUP3 SLOAD SWAP2 PUSH1 0x8 SHL AND SWAP1 PUSH2 0xFF00 NOT AND OR SWAP1 SSTORE JUMP JUMPDEST PUSH1 0x80 DUP2 ADD MLOAD DUP5 SLOAD PUSH3 0xFF0000 NOT AND SWAP1 DUP5 AND PUSH1 0x10 SHL PUSH3 0xFF0000 AND OR DUP5 SSTORE PUSH1 0xA0 DUP2 ADD MLOAD DUP5 SLOAD PUSH4 0xFF000000 NOT AND SWAP1 DUP5 AND PUSH1 0x18 SHL PUSH4 0xFF000000 AND OR DUP5 SSTORE PUSH1 0xC0 DUP2 ADD MLOAD DUP5 SLOAD PUSH5 0xFF00000000 NOT AND SWAP1 DUP5 AND PUSH1 0x20 SHL PUSH5 0xFF00000000 AND OR DUP5 SSTORE PUSH1 0xE0 DUP2 ADD MLOAD DUP5 SLOAD PUSH6 0xFF0000000000 NOT AND SWAP1 DUP5 AND PUSH1 0x28 SHL PUSH6 0xFF0000000000 AND OR DUP5 SSTORE PUSH2 0x100 DUP2 ADD MLOAD DUP5 SLOAD PUSH7 0xFF000000000000 NOT AND SWAP1 DUP5 AND PUSH1 0x30 SHL PUSH1 0xFF PUSH1 0x30 SHL AND OR DUP5 SSTORE ADD MLOAD DUP3 SLOAD PUSH8 0xFF00000000000000 NOT AND SWAP2 AND PUSH1 0x38 SHL PUSH1 0xFF PUSH1 0x38 SHL AND OR SWAP1 SSTORE JUMP JUMPDEST SWAP1 PUSH1 0x40 MLOAD SWAP2 DUP3 DUP2 SLOAD SWAP2 DUP3 DUP3 MSTORE PUSH1 0x20 DUP3 ADD SWAP1 PUSH0 MSTORE PUSH1 0x20 PUSH0 KECCAK256 SWAP3 PUSH0 SWAP1 JUMPDEST DUP1 PUSH1 0xF DUP4 ADD LT PUSH2 0x377A JUMPI PUSH2 0x3289 SWAP5 SLOAD SWAP2 DUP2 DUP2 LT PUSH2 0x3765 JUMPI JUMPDEST DUP2 DUP2 LT PUSH2 0x374D JUMPI JUMPDEST DUP2 DUP2 LT PUSH2 0x3736 JUMPI JUMPDEST DUP2 DUP2 LT PUSH2 0x371E JUMPI JUMPDEST DUP2 DUP2 LT PUSH2 0x3706 JUMPI JUMPDEST DUP2 DUP2 LT PUSH2 0x36EE JUMPI JUMPDEST DUP2 DUP2 LT PUSH2 0x36D6 JUMPI JUMPDEST DUP2 DUP2 LT PUSH2 0x36BE JUMPI JUMPDEST DUP2 DUP2 LT PUSH2 0x36A6 JUMPI JUMPDEST DUP2 DUP2 LT PUSH2 0x368E JUMPI JUMPDEST DUP2 DUP2 LT PUSH2 0x3676 JUMPI JUMPDEST DUP2 DUP2 LT PUSH2 0x365E JUMPI JUMPDEST DUP2 DUP2 LT PUSH2 0x3646 JUMPI JUMPDEST DUP2 DUP2 LT PUSH2 0x362E JUMPI JUMPDEST DUP2 DUP2 LT PUSH2 0x3616 JUMPI JUMPDEST LT PUSH2 0x3608 JUMPI JUMPDEST POP SUB DUP4 PUSH2 0x3230 JUMP JUMPDEST PUSH1 0xF0 SHR DUP2 MSTORE PUSH1 0x20 ADD PUSH0 PUSH2 0x3600 JUMP JUMPDEST SWAP3 PUSH1 0x20 PUSH1 0x1 SWAP2 PUSH2 0xFFFF DUP6 PUSH1 0xE0 SHR AND DUP2 MSTORE ADD SWAP4 ADD PUSH2 0x35FA JUMP JUMPDEST SWAP3 PUSH1 0x20 PUSH1 0x1 SWAP2 PUSH2 0xFFFF DUP6 PUSH1 0xD0 SHR AND DUP2 MSTORE ADD SWAP4 ADD PUSH2 0x35F2 JUMP JUMPDEST SWAP3 PUSH1 0x20 PUSH1 0x1 SWAP2 PUSH2 0xFFFF DUP6 PUSH1 0xC0 SHR AND DUP2 MSTORE ADD SWAP4 ADD PUSH2 0x35EA JUMP JUMPDEST SWAP3 PUSH1 0x20 PUSH1 0x1 SWAP2 PUSH2 0xFFFF DUP6 PUSH1 0xB0 SHR AND DUP2 MSTORE ADD SWAP4 ADD PUSH2 0x35E2 JUMP JUMPDEST SWAP3 PUSH1 0x20 PUSH1 0x1 SWAP2 PUSH2 0xFFFF DUP6 PUSH1 0xA0 SHR AND DUP2 MSTORE ADD SWAP4 ADD PUSH2 0x35DA JUMP JUMPDEST SWAP3 PUSH1 0x20 PUSH1 0x1 SWAP2 PUSH2 0xFFFF DUP6 PUSH1 0x90 SHR AND DUP2 MSTORE ADD SWAP4 ADD PUSH2 0x35D2 JUMP JUMPDEST SWAP3 PUSH1 0x20 PUSH1 0x1 SWAP2 PUSH2 0xFFFF DUP6 PUSH1 0x80 SHR AND DUP2 MSTORE ADD SWAP4 ADD PUSH2 0x35CA JUMP JUMPDEST SWAP3 PUSH1 0x20 PUSH1 0x1 SWAP2 PUSH2 0xFFFF DUP6 PUSH1 0x70 SHR AND DUP2 MSTORE ADD SWAP4 ADD PUSH2 0x35C2 JUMP JUMPDEST SWAP3 PUSH1 0x20 PUSH1 0x1 SWAP2 PUSH2 0xFFFF DUP6 PUSH1 0x60 SHR AND DUP2 MSTORE ADD SWAP4 ADD PUSH2 0x35BA JUMP JUMPDEST SWAP3 PUSH1 0x20 PUSH1 0x1 SWAP2 PUSH2 0xFFFF DUP6 PUSH1 0x50 SHR AND DUP2 MSTORE ADD SWAP4 ADD PUSH2 0x35B2 JUMP JUMPDEST SWAP3 PUSH1 0x20 PUSH1 0x1 SWAP2 PUSH2 0xFFFF DUP6 PUSH1 0x40 SHR AND DUP2 MSTORE ADD SWAP4 ADD PUSH2 0x35AA JUMP JUMPDEST SWAP3 PUSH1 0x20 PUSH1 0x1 SWAP2 PUSH2 0xFFFF DUP6 PUSH1 0x30 SHR AND DUP2 MSTORE ADD SWAP4 ADD PUSH2 0x35A2 JUMP JUMPDEST SWAP3 PUSH1 0x20 PUSH1 0x1 SWAP2 PUSH2 0xFFFF DUP6 DUP4 SHR AND DUP2 MSTORE ADD SWAP4 ADD PUSH2 0x359A JUMP JUMPDEST SWAP3 PUSH1 0x20 PUSH1 0x1 SWAP2 PUSH2 0xFFFF DUP6 PUSH1 0x10 SHR AND DUP2 MSTORE ADD SWAP4 ADD PUSH2 0x3592 JUMP JUMPDEST SWAP3 PUSH1 0x20 PUSH1 0x1 SWAP2 PUSH2 0xFFFF DUP6 AND DUP2 MSTORE ADD SWAP4 ADD PUSH2 0x358A JUMP JUMPDEST SWAP2 PUSH1 0x10 SWAP2 SWAP4 POP PUSH2 0x200 PUSH1 0x1 SWAP2 DUP7 SLOAD PUSH2 0xFFFF DUP2 AND DUP3 MSTORE PUSH2 0xFFFF DUP2 DUP7 SHR AND PUSH1 0x20 DUP4 ADD MSTORE PUSH2 0xFFFF DUP2 PUSH1 0x20 SHR AND PUSH1 0x40 DUP4 ADD MSTORE PUSH2 0xFFFF DUP2 PUSH1 0x30 SHR AND PUSH1 0x60 DUP4 ADD MSTORE PUSH2 0xFFFF DUP2 PUSH1 0x40 SHR AND PUSH1 0x80 DUP4 ADD MSTORE PUSH2 0xFFFF DUP2 PUSH1 0x50 SHR AND PUSH1 0xA0 DUP4 ADD MSTORE PUSH2 0xFFFF DUP2 PUSH1 0x60 SHR AND PUSH1 0xC0 DUP4 ADD MSTORE PUSH2 0xFFFF DUP2 PUSH1 0x70 SHR AND PUSH1 0xE0 DUP4 ADD MSTORE PUSH2 0xFFFF DUP2 PUSH1 0x80 SHR AND PUSH2 0x100 DUP4 ADD MSTORE PUSH2 0xFFFF DUP2 PUSH1 0x90 SHR AND PUSH2 0x120 DUP4 ADD MSTORE PUSH2 0xFFFF DUP2 PUSH1 0xA0 SHR AND PUSH2 0x140 DUP4 ADD MSTORE PUSH2 0xFFFF DUP2 PUSH1 0xB0 SHR AND PUSH2 0x160 DUP4 ADD MSTORE PUSH2 0xFFFF DUP2 PUSH1 0xC0 SHR AND PUSH2 0x180 DUP4 ADD MSTORE PUSH2 0xFFFF DUP2 PUSH1 0xD0 SHR AND PUSH2 0x1A0 DUP4 ADD MSTORE PUSH2 0xFFFF DUP2 PUSH1 0xE0 SHR AND PUSH2 0x1C0 DUP4 ADD MSTORE PUSH1 0xF0 SHR PUSH2 0x1E0 DUP3 ADD MSTORE ADD SWAP5 ADD SWAP3 ADD DUP6 SWAP3 SWAP4 SWAP2 PUSH2 0x3572 JUMP JUMPDEST PUSH1 0x1 PUSH1 0x1 PUSH1 0x40 SHL SUB DUP2 GT PUSH2 0x532 JUMPI PUSH1 0x5 SHL PUSH1 0x20 ADD SWAP1 JUMP JUMPDEST PUSH1 0x40 MLOAD SWAP1 PUSH2 0x3886 DUP3 PUSH2 0x31F8 JUMP JUMPDEST PUSH0 PUSH2 0x120 DUP4 DUP3 DUP2 MSTORE DUP3 PUSH1 0x20 DUP3 ADD MSTORE DUP3 PUSH1 0x40 DUP3 ADD MSTORE DUP3 PUSH1 0x60 DUP3 ADD MSTORE DUP3 PUSH1 0x80 DUP3 ADD MSTORE DUP3 PUSH1 0xA0 DUP3 ADD MSTORE DUP3 PUSH1 0xC0 DUP3 ADD MSTORE DUP3 PUSH1 0xE0 DUP3 ADD MSTORE DUP3 PUSH2 0x100 DUP3 ADD MSTORE ADD MSTORE JUMP JUMPDEST SWAP1 PUSH1 0x40 MLOAD PUSH2 0x38D0 DUP2 PUSH2 0x31F8 JUMP JUMPDEST PUSH2 0x120 PUSH1 0xFF PUSH1 0x2 DUP4 SWAP6 DUP3 DUP2 SLOAD AND ISZERO ISZERO DUP6 MSTORE PUSH1 0x1 DUP2 ADD SLOAD PUSH1 0x20 DUP7 ADD MSTORE ADD SLOAD DUP2 DUP2 AND PUSH1 0x40 DUP6 ADD MSTORE DUP2 DUP2 PUSH1 0x8 SHR AND PUSH1 0x60 DUP6 ADD MSTORE DUP2 DUP2 PUSH1 0x10 SHR AND PUSH1 0x80 DUP6 ADD MSTORE DUP2 DUP2 PUSH1 0x18 SHR AND PUSH1 0xA0 DUP6 ADD MSTORE DUP2 DUP2 PUSH1 0x20 SHR AND PUSH1 0xC0 DUP6 ADD MSTORE DUP2 DUP2 PUSH1 0x28 SHR AND PUSH1 0xE0 DUP6 ADD MSTORE DUP2 DUP2 PUSH1 0x30 SHR AND PUSH2 0x100 DUP6 ADD MSTORE PUSH1 0x38 SHR AND SWAP2 ADD MSTORE JUMP JUMPDEST SWAP2 SWAP1 DUP2 LT ISZERO PUSH2 0x2FE5 JUMPI PUSH1 0x5 SHL ADD SWAP1 JUMP JUMPDEST SWAP3 SWAP2 SWAP1 PUSH2 0x395D DUP2 PUSH2 0x3862 JUMP JUMPDEST SWAP4 PUSH2 0x396B PUSH1 0x40 MLOAD SWAP6 DUP7 PUSH2 0x3230 JUMP JUMPDEST PUSH1 0x20 DUP6 DUP4 DUP2 MSTORE ADD SWAP2 PUSH1 0x5 SHL DUP2 ADD SWAP3 DUP4 GT PUSH2 0x1EE JUMPI SWAP1 JUMPDEST DUP3 DUP3 LT PUSH2 0x398D JUMPI POP POP POP JUMP JUMPDEST DUP2 CALLDATALOAD DUP2 MSTORE PUSH1 0x20 SWAP2 DUP3 ADD SWAP2 ADD PUSH2 0x3981 JUMP JUMPDEST ISZERO PUSH2 0x39A4 JUMPI JUMP JUMPDEST PUSH1 0x40 MLOAD PUSH3 0x461BCD PUSH1 0xE5 SHL DUP2 MSTORE PUSH1 0x20 PUSH1 0x4 DUP3 ADD MSTORE PUSH1 0x19 PUSH1 0x24 DUP3 ADD MSTORE PUSH32 0x596F7520646F206E6F74206F776E20746869732072656C696300000000000000 PUSH1 0x44 DUP3 ADD MSTORE PUSH1 0x64 SWAP1 REVERT JUMPDEST DUP1 MLOAD DUP3 LT ISZERO PUSH2 0x2FE5 JUMPI PUSH1 0x20 SWAP2 PUSH1 0x5 SHL ADD ADD SWAP1 JUMP JUMPDEST PUSH1 0x4 DUP3 LT ISZERO PUSH2 0x8E2 JUMPI MSTORE JUMP JUMPDEST MLOAD PUSH1 0x4 DUP2 LT ISZERO PUSH2 0x8E2 JUMPI SWAP1 JUMP JUMPDEST DUP2 DUP2 LT PUSH2 0x3A21 JUMPI POP POP JUMP JUMPDEST PUSH0 DUP2 SSTORE PUSH1 0x1 ADD PUSH2 0x3A16 JUMP JUMPDEST DUP1 SLOAD PUSH0 DUP3 SSTORE DUP1 PUSH2 0x3A3A JUMPI POP POP JUMP JUMPDEST PUSH2 0x3289 SWAP2 PUSH0 MSTORE PUSH1 0xF PUSH1 0x20 PUSH0 KECCAK256 SWAP2 ADD PUSH1 0x4 SHR DUP2 ADD SWAP1 PUSH2 0x3A16 JUMP JUMPDEST DUP1 SLOAD PUSH1 0x1 PUSH1 0x40 SHL DUP2 LT ISZERO PUSH2 0x532 JUMPI PUSH2 0x3A70 SWAP2 PUSH1 0x1 DUP3 ADD DUP2 SSTORE PUSH2 0x30D1 JUMP JUMPDEST PUSH2 0xFFFF DUP1 DUP4 SWAP5 SWAP4 SLOAD SWAP3 PUSH1 0x3 SHL SWAP4 AND DUP4 SHL SWAP3 SHL NOT AND OR SWAP1 SSTORE JUMP JUMPDEST DUP1 SLOAD SWAP1 PUSH0 DUP2 SSTORE DUP2 PUSH2 0x3A98 JUMPI POP POP JUMP JUMPDEST DUP2 PUSH1 0x3 MUL SWAP2 PUSH1 0x3 DUP4 DIV SUB PUSH2 0xAAB JUMPI PUSH0 MSTORE PUSH1 0x20 PUSH0 KECCAK256 SWAP1 DUP2 ADD SWAP1 JUMPDEST DUP2 DUP2 LT PUSH2 0x3ABC JUMPI POP POP JUMP JUMPDEST DUP1 PUSH0 PUSH1 0x3 SWAP3 SSTORE PUSH1 0x1 DUP2 ADD PUSH2 0x3AD0 DUP2 SLOAD PUSH2 0x3189 JUMP JUMPDEST SWAP1 DUP2 PUSH2 0x3AE5 JUMPI JUMPDEST POP POP PUSH0 PUSH1 0x2 DUP3 ADD SSTORE ADD PUSH2 0x3AB1 JUMP JUMPDEST DUP2 PUSH1 0x1F PUSH0 SWAP4 GT PUSH1 0x1 EQ PUSH2 0x3AFC JUMPI POP SSTORE JUMPDEST PUSH0 DUP1 PUSH2 0x3AD7 JUMP JUMPDEST DUP2 DUP4 MSTORE PUSH1 0x20 DUP4 KECCAK256 PUSH2 0x3B18 SWAP2 PUSH1 0x1F ADD PUSH1 0x5 SHR DUP2 ADD SWAP1 PUSH1 0x1 ADD PUSH2 0x3A16 JUMP JUMPDEST DUP1 DUP3 MSTORE DUP2 PUSH1 0x20 DUP2 KECCAK256 SWAP2 SSTORE SSTORE PUSH2 0x3AF5 JUMP JUMPDEST PUSH1 0x3 DUP2 LT ISZERO PUSH2 0x2FE5 JUMPI PUSH1 0x5 SHL PUSH1 0x4 ADD SWAP1 JUMP JUMPDEST SWAP1 PUSH1 0x3 DUP2 LT ISZERO PUSH2 0x2FE5 JUMPI PUSH1 0x5 SHL ADD SWAP1 JUMP JUMPDEST DUP1 SLOAD PUSH0 DUP3 SSTORE DUP1 PUSH2 0x3B59 JUMPI POP POP JUMP JUMPDEST PUSH2 0x3289 SWAP2 PUSH0 MSTORE PUSH1 0x20 PUSH0 KECCAK256 SWAP1 DUP2 ADD SWAP1 PUSH2 0x3A16 JUMP JUMPDEST PUSH1 0xFF PUSH1 0x2 SLOAD AND PUSH2 0x3B78 JUMPI JUMP JUMPDEST PUSH1 0x40 MLOAD PUSH3 0x461BCD PUSH1 0xE5 SHL DUP2 MSTORE PUSH1 0x20 PUSH1 0x4 DUP3 ADD MSTORE PUSH1 0x10 PUSH1 0x24 DUP3 ADD MSTORE PUSH16 0x14185D5CD8589B194E881C185D5CD959 PUSH1 0x82 SHL PUSH1 0x44 DUP3 ADD MSTORE PUSH1 0x64 SWAP1 REVERT JUMPDEST PUSH1 0x2 PUSH1 0x1 SLOAD EQ PUSH2 0x3BC1 JUMPI PUSH1 0x2 PUSH1 0x1 SSTORE JUMP JUMPDEST PUSH1 0x40 MLOAD PUSH3 0x461BCD PUSH1 0xE5 SHL DUP2 MSTORE PUSH1 0x20 PUSH1 0x4 DUP3 ADD MSTORE PUSH1 0x1F PUSH1 0x24 DUP3 ADD MSTORE PUSH32 0x5265656E7472616E637947756172643A207265656E7472616E742063616C6C00 PUSH1 0x44 DUP3 ADD MSTORE PUSH1 0x64 SWAP1 REVERT JUMPDEST CALLER PUSH0 MSTORE PUSH1 0x3 PUSH1 0x20 MSTORE PUSH1 0xFF PUSH1 0x40 PUSH0 KECCAK256 SLOAD AND ISZERO PUSH2 0x3C1D JUMPI JUMP JUMPDEST CALLER PUSH0 MSTORE PUSH1 0x3 PUSH1 0x20 MSTORE PUSH1 0x40 PUSH0 KECCAK256 PUSH1 0x1 PUSH1 0xFF NOT DUP3 SLOAD AND OR SWAP1 SSTORE PUSH1 0x40 MLOAD PUSH1 0xA0 DUP2 ADD DUP2 DUP2 LT PUSH1 0x1 PUSH1 0x1 PUSH1 0x40 SHL SUB DUP3 GT OR PUSH2 0x532 JUMPI PUSH1 0x40 MSTORE PUSH1 0x1 DUP2 MSTORE PUSH2 0xFFFF PUSH1 0x3 DUP2 PUSH1 0x20 DUP5 ADD PUSH0 DUP2 MSTORE PUSH1 0x40 DUP6 ADD PUSH0 DUP2 MSTORE PUSH1 0x60 DUP7 ADD SWAP1 PUSH0 DUP3 MSTORE PUSH2 0x3CBC PUSH4 0xFFFFFFFF PUSH1 0x80 DUP10 ADD SWAP5 PUSH1 0x1 DUP7 MSTORE CALLER PUSH0 MSTORE PUSH1 0x4 PUSH1 0x20 MSTORE DUP7 DUP1 PUSH1 0x40 PUSH0 KECCAK256 SWAP12 MLOAD AND AND DUP8 NOT DUP12 SLOAD AND OR DUP11 SSTORE MLOAD AND DUP9 SWAP1 PUSH6 0xFFFFFFFF0000 DUP3 SLOAD SWAP2 PUSH1 0x10 SHL AND SWAP1 PUSH6 0xFFFFFFFF0000 NOT AND OR SWAP1 SSTORE JUMP JUMPDEST MLOAD PUSH1 0x1 DUP8 ADD SSTORE MLOAD PUSH1 0x2 DUP7 ADD SSTORE MLOAD AND SWAP3 ADD SWAP2 AND PUSH2 0xFFFF NOT DUP3 SLOAD AND OR SWAP1 SSTORE CALLER PUSH32 0xF10EC97E920CDE75887622583772C637595A40B1F7777C18E51EA36CD127475C PUSH0 DUP1 LOG2 JUMP JUMPDEST PUSH1 0x64 SWAP1 MOD PUSH1 0x3C DUP2 LT PUSH2 0x3D1C JUMPI PUSH1 0x5A GT PUSH2 0x3D17 JUMPI PUSH1 0x2 SWAP1 JUMP JUMPDEST PUSH1 0x1 SWAP1 JUMP JUMPDEST POP PUSH0 SWAP1 JUMP JUMPDEST PUSH2 0x3D29 PUSH2 0x3879 JUMP JUMPDEST POP PUSH1 0x40 MLOAD PUSH1 0x20 DUP2 ADD SWAP1 TIMESTAMP DUP3 MSTORE PREVRANDAO PUSH1 0x40 DUP3 ADD MSTORE CALLER PUSH1 0x60 SHL PUSH1 0x60 DUP3 ADD MSTORE PUSH1 0x54 DUP2 MSTORE PUSH2 0x3D53 PUSH1 0x74 DUP3 PUSH2 0x3230 JUMP JUMPDEST MLOAD SWAP1 KECCAK256 PUSH1 0x28 PUSH1 0x64 DUP3 MOD LT ISZERO PUSH2 0x3DC7 JUMPI PUSH1 0xD DUP2 PUSH1 0x8 SHR MOD PUSH1 0x8 ADD DUP1 PUSH1 0x8 GT PUSH2 0xAAB JUMPI PUSH1 0xFF SWAP1 DUP2 PUSH1 0x6 PUSH1 0x40 MLOAD SWAP5 PUSH2 0x3D87 DUP7 PUSH2 0x31F8 JUMP JUMPDEST PUSH1 0x1 DUP7 MSTORE PUSH0 PUSH1 0x20 DUP8 ADD MSTORE PUSH0 PUSH1 0x40 DUP8 ADD MSTORE PUSH0 PUSH1 0x60 DUP8 ADD MSTORE PUSH0 PUSH1 0x80 DUP8 ADD MSTORE PUSH0 PUSH1 0xA0 DUP8 ADD MSTORE PUSH0 PUSH1 0xC0 DUP8 ADD MSTORE PUSH0 PUSH1 0xE0 DUP8 ADD MSTORE MOD AND PUSH2 0x100 DUP5 ADD MSTORE AND PUSH2 0x120 DUP3 ADD MSTORE SWAP1 JUMP JUMPDEST PUSH2 0x3DD0 DUP2 PUSH2 0x3CFF JUMP JUMPDEST SWAP1 PUSH1 0xB DUP2 PUSH1 0x28 SHR MOD PUSH1 0xA ADD DUP1 PUSH1 0xA GT PUSH2 0xAAB JUMPI PUSH1 0xB DUP3 PUSH1 0x30 SHR MOD PUSH1 0x8 ADD SWAP1 DUP2 PUSH1 0x8 GT PUSH2 0xAAB JUMPI PUSH1 0xB DUP4 PUSH1 0x38 SHR MOD PUSH1 0x9 ADD SWAP2 DUP3 PUSH1 0x9 GT PUSH2 0xAAB JUMPI PUSH1 0xFF DUP1 SWAP5 SWAP3 PUSH1 0x3 DUP3 SWAP5 DUP4 PUSH1 0x40 MLOAD SWAP10 PUSH2 0x3E20 DUP12 PUSH2 0x31F8 JUMP JUMPDEST PUSH0 DUP12 MSTORE PUSH0 PUSH1 0x20 DUP13 ADD MSTORE DUP2 DUP5 DUP5 PUSH1 0x10 SHR MOD AND PUSH1 0x40 DUP13 ADD MSTORE AND PUSH1 0x60 DUP11 ADD MSTORE PUSH1 0x18 SHR AND PUSH1 0x80 DUP9 ADD MSTORE AND PUSH1 0xA0 DUP7 ADD MSTORE AND PUSH1 0xC0 DUP5 ADD MSTORE AND PUSH1 0xE0 DUP3 ADD MSTORE PUSH0 PUSH2 0x100 DUP3 ADD MSTORE PUSH0 PUSH2 0x120 DUP3 ADD MSTORE SWAP1 JUMP JUMPDEST PUSH0 SLOAD PUSH1 0x1 PUSH1 0x1 PUSH1 0xA0 SHL SUB AND CALLER SUB PUSH2 0x3E7B JUMPI JUMP JUMPDEST PUSH1 0x64 PUSH1 0x40 MLOAD PUSH3 0x461BCD PUSH1 0xE5 SHL DUP2 MSTORE PUSH1 0x20 PUSH1 0x4 DUP3 ADD MSTORE PUSH1 0x20 PUSH1 0x24 DUP3 ADD MSTORE PUSH32 0x4F776E61626C653A2063616C6C6572206973206E6F7420746865206F776E6572 PUSH1 0x44 DUP3 ADD MSTORE REVERT JUMPDEST PUSH1 0x40 MLOAD SWAP1 PUSH1 0x80 DUP3 ADD DUP3 DUP2 LT PUSH1 0x1 PUSH1 0x1 PUSH1 0x40 SHL SUB DUP3 GT OR PUSH2 0x532 JUMPI PUSH1 0x40 MSTORE PUSH1 0x60 DUP1 DUP4 PUSH0 DUP2 MSTORE DUP2 PUSH1 0x20 DUP3 ADD MSTORE DUP2 PUSH1 0x40 DUP3 ADD MSTORE ADD MSTORE JUMP JUMPDEST SWAP1 PUSH2 0x3EFD DUP3 PUSH2 0x3862 JUMP JUMPDEST PUSH2 0x3F0A PUSH1 0x40 MLOAD SWAP2 DUP3 PUSH2 0x3230 JUMP JUMPDEST DUP3 DUP2 MSTORE DUP1 SWAP3 PUSH2 0x3F1B PUSH1 0x1F NOT SWAP2 PUSH2 0x3862 JUMP JUMPDEST ADD SWAP1 PUSH1 0x20 CALLDATASIZE SWAP2 ADD CALLDATACOPY JUMP JUMPDEST PUSH1 0x2 SHL SWAP1 PUSH2 0x3FC PUSH1 0xFC DUP4 AND SWAP3 AND DUP3 SUB PUSH2 0xAAB JUMPI JUMP JUMPDEST PUSH1 0xFF PUSH1 0x2 SWAP2 AND ADD SWAP1 PUSH1 0xFF DUP3 GT PUSH2 0xAAB JUMPI JUMP JUMPDEST SWAP1 PUSH1 0xFF DUP1 SWAP2 AND SWAP2 AND ADD SWAP1 PUSH1 0xFF DUP3 GT PUSH2 0xAAB JUMPI JUMP JUMPDEST PUSH0 NOT DUP2 EQ PUSH2 0xAAB JUMPI PUSH1 0x1 ADD SWAP1 JUMP JUMPDEST PUSH1 0xFF AND PUSH1 0xFF DUP2 EQ PUSH2 0xAAB JUMPI PUSH1 0x1 ADD SWAP1 JUMP JUMPDEST SWAP1 PUSH2 0x3F89 DUP3 PUSH2 0x3862 JUMP JUMPDEST PUSH2 0x3F96 PUSH1 0x40 MLOAD SWAP2 DUP3 PUSH2 0x3230 JUMP JUMPDEST DUP3 DUP2 MSTORE DUP1 SWAP3 PUSH2 0x3FA7 PUSH1 0x1F NOT SWAP2 PUSH2 0x3862 JUMP JUMPDEST ADD SWAP1 PUSH0 JUMPDEST DUP3 DUP2 LT PUSH2 0x3FB7 JUMPI POP POP POP JUMP JUMPDEST PUSH1 0x20 SWAP1 PUSH1 0x40 MLOAD PUSH2 0x3FC6 DUP2 PUSH2 0x3214 JUMP JUMPDEST PUSH0 DUP2 MSTORE PUSH0 DUP4 DUP3 ADD MSTORE PUSH0 PUSH1 0x40 DUP3 ADD MSTORE PUSH0 PUSH1 0x60 DUP3 ADD MSTORE PUSH0 PUSH1 0x80 DUP3 ADD MSTORE PUSH0 PUSH1 0xA0 DUP3 ADD MSTORE PUSH0 PUSH1 0xC0 DUP3 ADD MSTORE PUSH0 PUSH1 0xE0 DUP3 ADD MSTORE PUSH0 PUSH2 0x100 DUP3 ADD MSTORE PUSH0 PUSH2 0x120 DUP3 ADD MSTORE PUSH0 PUSH2 0x140 DUP3 ADD MSTORE PUSH0 PUSH2 0x160 DUP3 ADD MSTORE DUP3 DUP3 DUP6 ADD ADD MSTORE ADD PUSH2 0x3FAB JUMP JUMPDEST MLOAD SWAP1 PUSH1 0xFF DUP3 AND DUP3 SUB PUSH2 0x1EE JUMPI JUMP JUMPDEST PUSH1 0x40 MLOAD SWAP2 SWAP1 PUSH1 0x60 PUSH2 0x4039 DUP2 DUP6 PUSH2 0x3230 JUMP JUMPDEST PUSH1 0x60 CALLDATASIZE DUP6 CALLDATACOPY PUSH0 JUMPDEST DUP3 MLOAD DUP2 LT ISZERO PUSH2 0x40B8 JUMPI DUP1 PUSH2 0xFFFF DUP4 PUSH2 0x405A PUSH1 0x1 SWAP5 DUP8 PUSH2 0x39E9 JUMP JUMPDEST MLOAD ADD MLOAD AND PUSH2 0x4069 JUMPI JUMPDEST ADD PUSH2 0x4040 JUMP JUMPDEST PUSH1 0xFF PUSH2 0x120 PUSH2 0x4078 DUP4 DUP8 PUSH2 0x39E9 JUMP JUMPDEST MLOAD ADD MLOAD PUSH2 0x4084 DUP2 PUSH2 0x338F JUMP JUMPDEST PUSH2 0x408D DUP2 PUSH2 0x338F JUMP JUMPDEST AND PUSH1 0xFF PUSH2 0x40AF PUSH2 0x40A8 DUP3 PUSH2 0x40A1 DUP6 DUP13 PUSH2 0x3B3A JUMP JUMPDEST MLOAD AND PUSH2 0x3F6E JUMP JUMPDEST SWAP3 DUP10 PUSH2 0x3B3A JUMP JUMPDEST SWAP2 AND SWAP1 MSTORE PUSH2 0x4063 JUMP JUMPDEST POP POP PUSH0 JUMPDEST DUP2 MLOAD DUP2 LT ISZERO PUSH2 0x4129 JUMPI DUP1 PUSH1 0x3 PUSH1 0xFF PUSH2 0x40F9 DUP2 PUSH2 0x120 PUSH2 0x40DD PUSH1 0x1 SWAP8 DUP10 PUSH2 0x39E9 JUMP JUMPDEST MLOAD ADD MLOAD PUSH2 0x40E9 DUP2 PUSH2 0x338F JUMP JUMPDEST PUSH2 0x40F2 DUP2 PUSH2 0x338F JUMP JUMPDEST AND DUP9 PUSH2 0x3B3A JUMP JUMPDEST MLOAD AND LT ISZERO PUSH2 0x4108 JUMPI JUMPDEST ADD PUSH2 0x40BC JUMP JUMPDEST PUSH2 0x4112 DUP2 DUP5 PUSH2 0x39E9 JUMP JUMPDEST MLOAD PUSH1 0xFF PUSH2 0x4121 DUP2 DUP4 MLOAD AND PUSH2 0x3F3A JUMP JUMPDEST AND SWAP1 MSTORE PUSH2 0x4102 JUMP JUMPDEST POP POP SWAP1 POP JUMP JUMPDEST PUSH0 JUMPDEST DUP2 MLOAD DUP2 LT ISZERO PUSH2 0x4160 JUMPI PUSH2 0xFFFF PUSH1 0x60 PUSH2 0x4149 DUP4 DUP6 PUSH2 0x39E9 JUMP JUMPDEST MLOAD ADD MLOAD AND PUSH2 0x4159 JUMPI PUSH1 0x1 ADD PUSH2 0x4131 JUMP JUMPDEST POP POP PUSH1 0x1 SWAP1 JUMP JUMPDEST POP POP PUSH0 SWAP1 JUMP JUMPDEST SWAP1 PUSH2 0xFFFF DUP1 SWAP2 AND SWAP2 AND ADD SWAP1 PUSH2 0xFFFF DUP3 GT PUSH2 0xAAB JUMPI JUMP JUMPDEST PUSH0 JUMPDEST DUP2 MLOAD DUP2 LT ISZERO PUSH2 0x41E1 JUMPI DUP1 PUSH2 0xFFFF PUSH1 0x60 PUSH2 0x4199 PUSH1 0x1 SWAP5 DUP7 PUSH2 0x39E9 JUMP JUMPDEST MLOAD ADD MLOAD AND PUSH2 0x41A8 JUMPI JUMPDEST ADD PUSH2 0x417E JUMP JUMPDEST PUSH1 0xFF PUSH1 0x40 PUSH2 0x41B6 DUP4 DUP7 PUSH2 0x39E9 JUMP JUMPDEST MLOAD ADD MLOAD AND PUSH2 0xFFFF PUSH2 0x41D9 PUSH2 0x100 PUSH2 0x41CD DUP6 DUP9 PUSH2 0x39E9 JUMP JUMPDEST MLOAD ADD SWAP3 DUP3 DUP5 MLOAD AND PUSH2 0x4166 JUMP JUMPDEST AND SWAP1 MSTORE PUSH2 0x41A2 JUMP JUMPDEST POP POP JUMP JUMPDEST SWAP1 PUSH0 SWAP1 PUSH0 PUSH0 SWAP5 PUSH0 SWAP2 PUSH0 JUMPDEST DUP7 MLOAD DUP2 LT ISZERO PUSH2 0x4274 JUMPI PUSH2 0x421B PUSH2 0x4214 PUSH1 0x60 PUSH2 0x420A DUP5 DUP12 PUSH2 0x39E9 JUMP JUMPDEST MLOAD ADD MLOAD PUSH2 0xFFFF AND SWAP1 JUMP JUMPDEST PUSH2 0xFFFF AND SWAP1 JUMP JUMPDEST ISZERO ISZERO DUP1 PUSH2 0x4255 JUMPI JUMPDEST PUSH2 0x4230 JUMPI JUMPDEST PUSH1 0x1 ADD PUSH2 0x41EF JUMP JUMPDEST SWAP7 POP POP SWAP3 POP PUSH2 0x4245 PUSH2 0x100 PUSH2 0x420A DUP8 DUP8 PUSH2 0x39E9 JUMP JUMPDEST SWAP3 PUSH1 0x1 DUP1 PUSH1 0xFF DUP9 AND SWAP8 SWAP1 POP PUSH2 0x4228 JUMP JUMPDEST POP PUSH2 0x4266 PUSH2 0x100 PUSH2 0x420A DUP4 DUP11 PUSH2 0x39E9 JUMP JUMPDEST PUSH2 0xFFFF DUP1 DUP9 AND SWAP2 AND GT PUSH2 0x4223 JUMP JUMPDEST POP SWAP2 SWAP5 SWAP1 SWAP3 SWAP6 PUSH0 JUMPDEST DUP8 MLOAD DUP2 LT ISZERO PUSH2 0x42F2 JUMPI PUSH2 0x4297 PUSH2 0x4214 PUSH1 0x60 PUSH2 0x420A DUP5 DUP13 PUSH2 0x39E9 JUMP JUMPDEST ISZERO ISZERO DUP1 PUSH2 0x42D3 JUMPI JUMPDEST PUSH2 0x42AC JUMPI JUMPDEST PUSH1 0x1 ADD PUSH2 0x427C JUMP JUMPDEST SWAP6 POP SWAP2 POP SWAP3 POP PUSH2 0x42C2 PUSH2 0x100 PUSH2 0x420A DUP7 DUP9 PUSH2 0x39E9 JUMP JUMPDEST SWAP3 PUSH0 SWAP2 PUSH1 0x1 PUSH1 0xFF DUP8 AND SWAP7 SWAP1 POP PUSH2 0x42A4 JUMP JUMPDEST POP PUSH2 0x42E4 PUSH2 0x100 PUSH2 0x420A DUP4 DUP12 PUSH2 0x39E9 JUMP JUMPDEST PUSH2 0xFFFF DUP1 DUP9 AND SWAP2 AND GT PUSH2 0x429F JUMP JUMPDEST POP SWAP2 SWAP4 PUSH2 0xFFFF SWAP1 SWAP6 SWAP2 SWAP4 SWAP6 AND ISZERO PUSH2 0x4348 JUMPI SWAP2 PUSH2 0x100 SWAP2 PUSH0 SWAP4 DUP6 DUP6 EQ PUSH2 0x4340 JUMPI POP SWAP6 JUMPDEST DUP5 DUP5 EQ PUSH2 0x4331 JUMPI POP PUSH2 0x432A SWAP1 PUSH1 0xFF DUP8 AND SWAP1 PUSH2 0x39E9 JUMP JUMPDEST MLOAD ADD MSTORE SWAP2 SWAP1 JUMP JUMPDEST PUSH2 0x432A SWAP2 POP PUSH1 0xFF DUP8 AND SWAP1 PUSH2 0x39E9 JUMP JUMPDEST SWAP1 POP SWAP6 PUSH2 0x4314 JUMP JUMPDEST POP POP PUSH2 0x4368 SWAP3 SWAP4 SWAP2 POP PUSH2 0x435A DUP2 PUSH2 0x417C JUMP JUMPDEST PUSH2 0x4363 DUP3 PUSH2 0x417C JUMP JUMPDEST PUSH2 0x41E5 JUMP JUMPDEST SWAP1 SWAP2 JUMP JUMPDEST PUSH2 0xFFFF PUSH0 NOT SWAP2 AND ADD SWAP1 PUSH2 0xFFFF DUP3 GT PUSH2 0xAAB JUMPI JUMP JUMPDEST SWAP1 PUSH2 0xFFFF DUP1 SWAP2 AND SWAP2 AND SUB SWAP1 PUSH2 0xFFFF DUP3 GT PUSH2 0xAAB JUMPI JUMP JUMPDEST PUSH1 0x40 MLOAD SWAP1 PUSH2 0x43A5 PUSH1 0x40 DUP4 PUSH2 0x3230 JUMP JUMPDEST PUSH1 0xA DUP3 MSTORE PUSH10 0x13185CDD0814DD185B99 PUSH1 0xB2 SHL PUSH1 0x20 DUP4 ADD MSTORE JUMP JUMPDEST SWAP6 SWAP2 PUSH1 0xFF SWAP1 SWAP8 SWAP5 SWAP6 SWAP4 SWAP2 SWAP8 AND PUSH2 0xFFFF PUSH1 0x60 PUSH2 0x43D9 DUP4 DUP11 PUSH2 0x39E9 JUMP JUMPDEST MLOAD ADD MLOAD AND ISZERO PUSH2 0x478B JUMPI PUSH0 SWAP6 PUSH0 JUMPDEST DUP10 MLOAD DUP2 LT ISZERO PUSH2 0x4423 JUMPI PUSH2 0xFFFF PUSH1 0x60 PUSH2 0x43FE DUP4 DUP14 PUSH2 0x39E9 JUMP JUMPDEST MLOAD ADD MLOAD AND PUSH2 0x440F JUMPI JUMPDEST PUSH1 0x1 ADD PUSH2 0x43E6 JUMP JUMPDEST SWAP7 PUSH2 0x441B PUSH1 0x1 SWAP2 PUSH2 0x3F60 JUMP JUMPDEST SWAP8 SWAP1 POP PUSH2 0x4407 JUMP JUMPDEST POP SWAP1 SWAP3 SWAP5 SWAP8 SWAP2 SWAP4 SWAP6 SWAP7 DUP8 ISZERO PUSH2 0x477F JUMPI PUSH0 SWAP8 PUSH1 0x1 DUP2 SUB PUSH2 0x46EC JUMPI POP PUSH0 JUMPDEST DUP4 MLOAD DUP2 LT ISZERO PUSH2 0x46DE JUMPI PUSH2 0xFFFF PUSH1 0x60 PUSH2 0x4457 DUP4 DUP8 PUSH2 0x39E9 JUMP JUMPDEST MLOAD ADD MLOAD AND PUSH2 0x4467 JUMPI PUSH1 0x1 ADD PUSH2 0x443F JUMP JUMPDEST SWAP1 SWAP2 SWAP3 SWAP4 SWAP5 SWAP6 SWAP7 SWAP8 POP SWAP2 JUMPDEST PUSH2 0xFFFF PUSH1 0x60 PUSH2 0x4481 DUP6 DUP8 PUSH2 0x39E9 JUMP JUMPDEST MLOAD ADD MLOAD AND SWAP1 PUSH1 0xFF PUSH2 0x4492 DUP8 DUP6 PUSH2 0x39E9 JUMP JUMPDEST MLOAD MLOAD AND PUSH1 0xFF PUSH1 0x20 PUSH2 0x44A3 DUP8 DUP10 PUSH2 0x39E9 JUMP JUMPDEST MLOAD ADD MLOAD AND PUSH1 0xFF PUSH1 0xA0 PUSH2 0x44B5 DUP11 DUP9 PUSH2 0x39E9 JUMP JUMPDEST MLOAD ADD MLOAD AND PUSH1 0xFF PUSH1 0xC0 PUSH2 0x44C7 DUP10 DUP12 PUSH2 0x39E9 JUMP JUMPDEST MLOAD ADD MLOAD AND SWAP2 PUSH1 0x3 DUP13 MUL SWAP5 DUP13 DUP7 DIV PUSH1 0x3 EQ DUP14 ISZERO OR ISZERO PUSH2 0xAAB JUMPI PUSH2 0x44EA SWAP6 SHR SWAP4 PUSH2 0x4D6F JUMP JUMPDEST SWAP1 DUP1 PUSH2 0xFFFF DUP1 PUSH1 0x60 PUSH2 0x44FC DUP10 DUP12 PUSH2 0x39E9 JUMP JUMPDEST MLOAD ADD MLOAD AND SWAP2 AND GT PUSH2 0x46C5 JUMPI JUMPDEST PUSH0 PUSH1 0xE0 PUSH2 0x4515 DUP8 DUP10 PUSH2 0x39E9 JUMP JUMPDEST MLOAD ADD MLOAD ISZERO ISZERO DUP1 PUSH2 0x46A5 JUMPI JUMPDEST ISZERO PUSH2 0x467B JUMPI POP POP POP PUSH2 0x4543 PUSH2 0xFFFF PUSH1 0x60 PUSH2 0x453A DUP7 DUP9 PUSH2 0x39E9 JUMP JUMPDEST MLOAD ADD MLOAD AND PUSH2 0x436C JUMP JUMPDEST PUSH1 0x1 PUSH1 0x60 PUSH2 0x4551 DUP7 DUP9 PUSH2 0x39E9 JUMP JUMPDEST MLOAD ADD MSTORE PUSH1 0x1 SWAP2 PUSH2 0x455F PUSH2 0x4396 JUMP JUMPDEST SWAP3 JUMPDEST PUSH2 0x466B JUMPI JUMPDEST PUSH2 0xFFFF PUSH1 0x60 PUSH2 0x4575 DUP8 DUP10 PUSH2 0x39E9 JUMP JUMPDEST MLOAD ADD MLOAD AND SWAP2 PUSH2 0x160 PUSH2 0x45A4 DUP10 PUSH2 0x140 PUSH2 0x458E DUP3 DUP11 PUSH2 0x39E9 JUMP JUMPDEST MLOAD ADD MLOAD SWAP8 PUSH2 0x459B DUP10 PUSH2 0x338F JUMP JUMPDEST PUSH2 0x15B8 DUP10 PUSH2 0x338F JUMP JUMPDEST MLOAD ADD MLOAD SWAP6 PUSH1 0x4 DUP8 LT ISZERO PUSH2 0x8E2 JUMPI PUSH2 0x45DE PUSH2 0x160 PUSH2 0x14D7 DUP4 PUSH2 0x140 PUSH2 0x45C8 DUP3 DUP15 PUSH2 0x39E9 JUMP JUMPDEST MLOAD ADD MLOAD SWAP12 PUSH2 0x45D5 DUP14 PUSH2 0x338F JUMP JUMPDEST PUSH2 0x15B8 DUP14 PUSH2 0x338F JUMP JUMPDEST SWAP9 PUSH1 0x4 DUP11 LT ISZERO PUSH2 0x8E2 JUMPI PUSH1 0x40 MLOAD SWAP11 PUSH2 0x45F5 DUP13 PUSH2 0x31C1 JUMP JUMPDEST PUSH1 0xFF AND DUP12 MSTORE PUSH1 0x20 DUP12 ADD PUSH0 SWAP1 MSTORE PUSH1 0x40 DUP12 ADD MSTORE PUSH1 0xFF AND PUSH1 0x60 DUP11 ADD MSTORE PUSH2 0xFFFF AND DUP1 PUSH1 0x80 DUP11 ADD MSTORE PUSH1 0xA0 DUP10 ADD MSTORE PUSH1 0xC0 DUP9 ADD MSTORE PUSH1 0xE0 DUP8 ADD MSTORE PUSH2 0x100 DUP7 ADD MSTORE PUSH1 0xFF AND PUSH2 0x120 DUP6 ADD MSTORE PUSH1 0xFF AND PUSH2 0x140 DUP5 ADD MSTORE PUSH1 0xFF AND PUSH2 0x160 DUP4 ADD MSTORE PUSH1 0xFF AND PUSH2 0x180 DUP3 ADD MSTORE PUSH2 0x465B DUP3 DUP5 PUSH2 0x39E9 JUMP JUMPDEST MSTORE PUSH2 0x4665 SWAP2 PUSH2 0x39E9 JUMP JUMPDEST POP PUSH1 0x1 SWAP1 JUMP JUMPDEST SWAP2 POP PUSH2 0x4675 PUSH2 0x4396 JUMP JUMPDEST SWAP2 PUSH2 0x4566 JUMP JUMPDEST PUSH1 0x60 PUSH2 0x468B DUP8 DUP10 SWAP7 SWAP5 SWAP6 SWAP7 PUSH2 0x39E9 JUMP JUMPDEST MLOAD ADD PUSH2 0xFFFF PUSH2 0x469D DUP6 DUP3 DUP5 MLOAD AND PUSH2 0x4380 JUMP JUMPDEST AND SWAP1 MSTORE PUSH2 0x4561 JUMP JUMPDEST POP PUSH2 0xFFFF PUSH1 0x60 PUSH2 0x46B5 DUP9 DUP11 PUSH2 0x39E9 JUMP JUMPDEST MLOAD ADD MLOAD AND PUSH2 0xFFFF DUP4 AND LT ISZERO PUSH2 0x4520 JUMP JUMPDEST POP PUSH2 0xFFFF PUSH1 0x60 PUSH2 0x46D5 DUP7 DUP9 PUSH2 0x39E9 JUMP JUMPDEST MLOAD ADD MLOAD AND PUSH2 0x4508 JUMP JUMPDEST POP SWAP1 SWAP7 SWAP2 SWAP3 SWAP4 SWAP5 SWAP6 SWAP7 PUSH2 0x4472 JUMP JUMPDEST PUSH2 0x4715 SWAP2 SWAP9 POP DUP3 PUSH2 0x470F DUP9 PUSH1 0xFF PUSH2 0x4709 DUP11 SWAP10 SWAP9 SWAP8 SWAP15 SWAP13 SWAP12 SWAP11 PUSH2 0x3F25 JUMP JUMPDEST AND PUSH2 0x3382 JUMP JUMPDEST SHR PUSH2 0x3356 JUMP JUMPDEST SWAP8 PUSH0 SWAP8 PUSH0 JUMPDEST DUP4 MLOAD DUP2 LT ISZERO PUSH2 0x476F JUMPI PUSH2 0xFFFF PUSH1 0x60 PUSH2 0x4732 DUP4 DUP8 PUSH2 0x39E9 JUMP JUMPDEST MLOAD ADD MLOAD AND PUSH2 0x4743 JUMPI JUMPDEST PUSH1 0x1 ADD PUSH2 0x471A JUMP JUMPDEST SWAP9 DUP11 DUP2 EQ PUSH2 0x475E JUMPI PUSH2 0x4756 PUSH1 0x1 SWAP2 PUSH2 0x3F60 JUMP JUMPDEST SWAP10 SWAP1 POP PUSH2 0x473B JUMP JUMPDEST POP SWAP2 SWAP4 SWAP6 SWAP8 SWAP1 SWAP3 SWAP5 SWAP7 SWAP9 POP SWAP2 PUSH2 0x4472 JUMP JUMPDEST POP SWAP2 SWAP4 SWAP6 SWAP8 POP SWAP8 SWAP2 SWAP4 SWAP6 SWAP8 PUSH2 0x4472 JUMP JUMPDEST POP POP POP POP POP POP POP POP PUSH0 SWAP1 JUMP JUMPDEST POP POP POP POP SWAP3 POP POP POP PUSH0 SWAP1 JUMP JUMPDEST SWAP6 SWAP2 PUSH1 0xFF SWAP1 SWAP8 SWAP5 SWAP6 SWAP4 SWAP2 SWAP8 AND PUSH2 0xFFFF PUSH1 0x60 PUSH2 0x47B2 DUP4 DUP11 PUSH2 0x39E9 JUMP JUMPDEST MLOAD ADD MLOAD AND ISZERO PUSH2 0x478B JUMPI PUSH0 SWAP6 PUSH0 JUMPDEST DUP10 MLOAD DUP2 LT ISZERO PUSH2 0x47FC JUMPI PUSH2 0xFFFF PUSH1 0x60 PUSH2 0x47D7 DUP4 DUP14 PUSH2 0x39E9 JUMP JUMPDEST MLOAD ADD MLOAD AND PUSH2 0x47E8 JUMPI JUMPDEST PUSH1 0x1 ADD PUSH2 0x47BF JUMP JUMPDEST SWAP7 PUSH2 0x47F4 PUSH1 0x1 SWAP2 PUSH2 0x3F60 JUMP JUMPDEST SWAP8 SWAP1 POP PUSH2 0x47E0 JUMP JUMPDEST POP SWAP1 SWAP3 SWAP5 SWAP8 SWAP2 SWAP4 SWAP6 SWAP7 DUP8 ISZERO PUSH2 0x477F JUMPI PUSH0 SWAP8 PUSH1 0x1 DUP2 SUB PUSH2 0x4A81 JUMPI POP PUSH0 JUMPDEST DUP4 MLOAD DUP2 LT ISZERO PUSH2 0x4A73 JUMPI PUSH2 0xFFFF PUSH1 0x60 PUSH2 0x4830 DUP4 DUP8 PUSH2 0x39E9 JUMP JUMPDEST MLOAD ADD MLOAD AND PUSH2 0x4840 JUMPI PUSH1 0x1 ADD PUSH2 0x4818 JUMP JUMPDEST SWAP1 SWAP2 SWAP3 SWAP4 SWAP5 SWAP6 SWAP7 SWAP8 POP SWAP2 JUMPDEST PUSH2 0xFFFF PUSH1 0x60 PUSH2 0x485A DUP6 DUP8 PUSH2 0x39E9 JUMP JUMPDEST MLOAD ADD MLOAD AND SWAP1 PUSH1 0xFF PUSH2 0x486B DUP8 DUP6 PUSH2 0x39E9 JUMP JUMPDEST MLOAD MLOAD AND PUSH1 0xFF PUSH1 0x20 PUSH2 0x487C DUP8 DUP10 PUSH2 0x39E9 JUMP JUMPDEST MLOAD ADD MLOAD AND PUSH1 0xFF PUSH1 0xA0 PUSH2 0x488E DUP11 DUP9 PUSH2 0x39E9 JUMP JUMPDEST MLOAD ADD MLOAD AND PUSH1 0xFF PUSH1 0xC0 PUSH2 0x48A0 DUP10 DUP12 PUSH2 0x39E9 JUMP JUMPDEST MLOAD ADD MLOAD AND SWAP2 PUSH1 0x3 DUP13 MUL SWAP5 DUP13 DUP7 DIV PUSH1 0x3 EQ DUP14 ISZERO OR ISZERO PUSH2 0xAAB JUMPI PUSH2 0x48C3 SWAP6 SHR SWAP4 PUSH2 0x4D6F JUMP JUMPDEST SWAP1 DUP1 PUSH2 0xFFFF DUP1 PUSH1 0x60 PUSH2 0x48D5 DUP10 DUP12 PUSH2 0x39E9 JUMP JUMPDEST MLOAD ADD MLOAD AND SWAP2 AND GT PUSH2 0x4A5A JUMPI JUMPDEST PUSH0 PUSH1 0xE0 PUSH2 0x48EE DUP8 DUP10 PUSH2 0x39E9 JUMP JUMPDEST MLOAD ADD MLOAD ISZERO ISZERO DUP1 PUSH2 0x4A3A JUMPI JUMPDEST ISZERO PUSH2 0x4A10 JUMPI POP POP POP PUSH2 0x4913 PUSH2 0xFFFF PUSH1 0x60 PUSH2 0x453A DUP7 DUP9 PUSH2 0x39E9 JUMP JUMPDEST PUSH1 0x1 PUSH1 0x60 PUSH2 0x4921 DUP7 DUP9 PUSH2 0x39E9 JUMP JUMPDEST MLOAD ADD MSTORE PUSH1 0x1 SWAP2 PUSH2 0x492F PUSH2 0x4396 JUMP JUMPDEST SWAP3 JUMPDEST PUSH2 0x4A00 JUMPI JUMPDEST PUSH2 0xFFFF PUSH1 0x60 PUSH2 0x4945 DUP8 DUP10 PUSH2 0x39E9 JUMP JUMPDEST MLOAD ADD MLOAD AND SWAP2 PUSH2 0x160 PUSH2 0x495E DUP10 PUSH2 0x140 PUSH2 0x458E DUP3 DUP11 PUSH2 0x39E9 JUMP JUMPDEST MLOAD ADD MLOAD SWAP6 PUSH1 0x4 DUP8 LT ISZERO PUSH2 0x8E2 JUMPI PUSH2 0x4982 PUSH2 0x160 PUSH2 0x14D7 DUP4 PUSH2 0x140 PUSH2 0x45C8 DUP3 DUP15 PUSH2 0x39E9 JUMP JUMPDEST SWAP9 PUSH1 0x4 DUP11 LT ISZERO PUSH2 0x8E2 JUMPI PUSH1 0x40 MLOAD SWAP11 PUSH2 0x4999 DUP13 PUSH2 0x31C1 JUMP JUMPDEST PUSH1 0xFF AND DUP12 MSTORE PUSH1 0x20 DUP12 ADD PUSH1 0x1 SWAP1 MSTORE PUSH1 0x40 DUP12 ADD MSTORE PUSH1 0xFF AND PUSH1 0x60 DUP11 ADD MSTORE PUSH2 0xFFFF AND DUP1 PUSH1 0x80 DUP11 ADD MSTORE PUSH1 0xA0 DUP10 ADD MSTORE PUSH1 0xC0 DUP9 ADD MSTORE PUSH1 0xE0 DUP8 ADD MSTORE PUSH2 0x100 DUP7 ADD MSTORE PUSH1 0xFF AND PUSH2 0x120 DUP6 ADD MSTORE PUSH1 0xFF AND PUSH2 0x140 DUP5 ADD MSTORE PUSH1 0xFF AND PUSH2 0x160 DUP4 ADD MSTORE PUSH1 0xFF AND PUSH2 0x180 DUP3 ADD MSTORE PUSH2 0x465B DUP3 DUP5 PUSH2 0x39E9 JUMP JUMPDEST SWAP2 POP PUSH2 0x4A0A PUSH2 0x4396 JUMP JUMPDEST SWAP2 PUSH2 0x4936 JUMP JUMPDEST PUSH1 0x60 PUSH2 0x4A20 DUP8 DUP10 SWAP7 SWAP5 SWAP6 SWAP7 PUSH2 0x39E9 JUMP JUMPDEST MLOAD ADD PUSH2 0xFFFF PUSH2 0x4A32 DUP6 DUP3 DUP5 MLOAD AND PUSH2 0x4380 JUMP JUMPDEST AND SWAP1 MSTORE PUSH2 0x4931 JUMP JUMPDEST POP PUSH2 0xFFFF PUSH1 0x60 PUSH2 0x4A4A DUP9 DUP11 PUSH2 0x39E9 JUMP JUMPDEST MLOAD ADD MLOAD AND PUSH2 0xFFFF DUP4 AND LT ISZERO PUSH2 0x48F9 JUMP JUMPDEST POP PUSH2 0xFFFF PUSH1 0x60 PUSH2 0x4A6A DUP7 DUP9 PUSH2 0x39E9 JUMP JUMPDEST MLOAD ADD MLOAD AND PUSH2 0x48E1 JUMP JUMPDEST POP SWAP1 SWAP7 SWAP2 SWAP3 SWAP4 SWAP5 SWAP6 SWAP7 PUSH2 0x484B JUMP JUMPDEST PUSH2 0x4A9E SWAP2 SWAP9 POP DUP3 PUSH2 0x470F DUP9 PUSH1 0xFF PUSH2 0x4709 DUP11 SWAP10 SWAP9 SWAP8 SWAP15 SWAP13 SWAP12 SWAP11 PUSH2 0x3F25 JUMP JUMPDEST SWAP8 PUSH0 SWAP8 PUSH0 JUMPDEST DUP4 MLOAD DUP2 LT ISZERO PUSH2 0x4AF8 JUMPI PUSH2 0xFFFF PUSH1 0x60 PUSH2 0x4ABB DUP4 DUP8 PUSH2 0x39E9 JUMP JUMPDEST MLOAD ADD MLOAD AND PUSH2 0x4ACC JUMPI JUMPDEST PUSH1 0x1 ADD PUSH2 0x4AA3 JUMP JUMPDEST SWAP9 DUP11 DUP2 EQ PUSH2 0x4AE7 JUMPI PUSH2 0x4ADF PUSH1 0x1 SWAP2 PUSH2 0x3F60 JUMP JUMPDEST SWAP10 SWAP1 POP PUSH2 0x4AC4 JUMP JUMPDEST POP SWAP2 SWAP4 SWAP6 SWAP8 SWAP1 SWAP3 SWAP5 SWAP7 SWAP9 POP SWAP2 PUSH2 0x484B JUMP JUMPDEST POP SWAP2 SWAP4 SWAP6 SWAP8 POP SWAP8 SWAP2 SWAP4 SWAP6 SWAP8 PUSH2 0x484B JUMP JUMPDEST PUSH2 0x4B11 DUP2 PUSH2 0x338F JUMP JUMPDEST DUP1 ISZERO PUSH2 0x4B32 JUMPI PUSH1 0x1 SWAP1 PUSH2 0x4B23 DUP2 PUSH2 0x338F JUMP JUMPDEST EQ PUSH2 0x4B2D JUMPI PUSH1 0x69 SWAP1 JUMP JUMPDEST PUSH1 0x52 SWAP1 JUMP JUMPDEST POP PUSH1 0x41 SWAP1 JUMP JUMPDEST SWAP1 PUSH2 0xFFFF DUP1 SWAP2 AND SWAP2 AND MUL SWAP1 PUSH2 0xFFFF DUP3 AND SWAP2 DUP3 SUB PUSH2 0xAAB JUMPI JUMP JUMPDEST SWAP1 PUSH1 0x2 SHL PUSH2 0x3FC AND PUSH2 0x4B62 SWAP2 PUSH2 0x4166 JUMP JUMPDEST SWAP1 JUMP JUMPDEST PUSH2 0x4B6E DUP2 PUSH2 0x338F JUMP JUMPDEST DUP1 ISZERO PUSH2 0x4B8F JUMPI PUSH1 0x1 SWAP1 PUSH2 0x4B80 DUP2 PUSH2 0x338F JUMP JUMPDEST EQ PUSH2 0x4B8A JUMPI PUSH1 0x14 SWAP1 JUMP JUMPDEST PUSH1 0xC SWAP1 JUMP JUMPDEST POP PUSH1 0x6 SWAP1 JUMP JUMPDEST SWAP1 PUSH1 0xFF PUSH1 0x16 SWAP2 AND DIV SWAP1 DUP2 PUSH2 0x4BA8 DUP3 PUSH2 0x338F JUMP JUMPDEST PUSH1 0x1 DUP3 EQ PUSH2 0x4BFA JUMPI JUMPDEST POP PUSH1 0x2 SWAP1 PUSH2 0x4BBE DUP2 PUSH2 0x338F JUMP JUMPDEST EQ PUSH2 0x4BD6 JUMPI JUMPDEST PUSH1 0x12 PUSH1 0xFF DUP3 AND GT ISZERO PUSH2 0x4B62 JUMPI POP PUSH1 0x12 SWAP1 JUMP JUMPDEST PUSH1 0xFF PUSH1 0x4 SWAP2 AND ADD PUSH1 0xFF DUP2 GT ISZERO PUSH2 0x4BC4 JUMPI PUSH4 0x4E487B71 PUSH1 0xE0 SHL PUSH0 MSTORE PUSH1 0x11 PUSH1 0x4 MSTORE PUSH1 0x24 PUSH0 REVERT JUMPDEST PUSH1 0x2 SWAP2 SWAP3 POP PUSH2 0x4C08 SWAP1 PUSH2 0x3F3A JUMP JUMPDEST SWAP2 SWAP1 PUSH2 0x4BB1 JUMP JUMPDEST SWAP2 SWAP1 PUSH2 0xFFFF AND DUP1 ISZERO PUSH2 0x4D6A JUMPI PUSH1 0x3 DUP2 MUL SWAP1 DUP2 DIV PUSH1 0x3 SUB PUSH2 0xAAB JUMPI PUSH1 0x64 ADD SWAP2 DUP3 PUSH1 0x64 GT PUSH2 0xAAB JUMPI PUSH0 JUMPDEST DUP2 MLOAD DUP2 LT ISZERO PUSH2 0x4129 JUMPI DUP1 PUSH1 0x64 DUP6 PUSH1 0xFF PUSH2 0x4C52 PUSH1 0x1 SWAP6 DUP8 PUSH2 0x39E9 JUMP JUMPDEST MLOAD MLOAD AND MUL DIV PUSH1 0xFF DUP2 GT ISZERO PUSH2 0x4D62 JUMPI POP PUSH1 0xFF JUMPDEST PUSH1 0xFF PUSH2 0x4C70 DUP4 DUP7 PUSH2 0x39E9 JUMP JUMPDEST MLOAD SWAP2 AND SWAP1 MSTORE PUSH1 0x64 DUP6 PUSH1 0xFF PUSH1 0x20 PUSH2 0x4C86 DUP6 DUP9 PUSH2 0x39E9 JUMP JUMPDEST MLOAD ADD MLOAD AND MUL DIV PUSH1 0xFF DUP2 GT ISZERO PUSH2 0x4D5A JUMPI POP PUSH1 0xFF JUMPDEST PUSH1 0xFF PUSH1 0x20 PUSH2 0x4CA7 DUP5 DUP8 PUSH2 0x39E9 JUMP JUMPDEST MLOAD ADD SWAP2 AND SWAP1 MSTORE PUSH1 0x64 DUP6 PUSH1 0xFF PUSH1 0x40 PUSH2 0x4CBE DUP6 DUP9 PUSH2 0x39E9 JUMP JUMPDEST MLOAD ADD MLOAD AND MUL DIV PUSH1 0xFF DUP2 GT ISZERO PUSH2 0x4D52 JUMPI POP PUSH1 0xFF JUMPDEST PUSH1 0xFF PUSH1 0x40 PUSH2 0x4CDF DUP5 DUP8 PUSH2 0x39E9 JUMP JUMPDEST MLOAD ADD SWAP2 AND SWAP1 MSTORE PUSH1 0x64 DUP6 PUSH2 0xFFFF PUSH1 0x60 PUSH2 0x4CF7 DUP6 DUP9 PUSH2 0x39E9 JUMP JUMPDEST MLOAD ADD MLOAD AND MUL DIV PUSH2 0xFFFF DUP2 GT ISZERO PUSH2 0x4D49 JUMPI POP PUSH2 0xFFFF JUMPDEST PUSH2 0xFFFF PUSH1 0x60 PUSH2 0x4D1B DUP5 DUP8 PUSH2 0x39E9 JUMP JUMPDEST MLOAD ADD SWAP2 AND SWAP1 MSTORE PUSH2 0xFFFF PUSH1 0x60 PUSH2 0x4D30 DUP4 DUP7 PUSH2 0x39E9 JUMP JUMPDEST MLOAD ADD MLOAD AND PUSH1 0x80 PUSH2 0x4D40 DUP4 DUP7 PUSH2 0x39E9 JUMP JUMPDEST MLOAD ADD MSTORE ADD PUSH2 0x4C37 JUMP JUMPDEST PUSH2 0xFFFF AND PUSH2 0x4D0C JUMP JUMPDEST PUSH1 0xFF AND PUSH2 0x4CD1 JUMP JUMPDEST PUSH1 0xFF AND PUSH2 0x4C99 JUMP JUMPDEST PUSH1 0xFF AND PUSH2 0x4C64 JUMP JUMPDEST POP SWAP1 POP JUMP JUMPDEST PUSH1 0x60 SWAP6 SWAP5 SWAP3 SWAP4 PUSH1 0xFF AND DUP1 ISZERO DUP1 ISZERO SWAP2 SWAP1 DUP3 PUSH2 0x4ECF JUMPI JUMPDEST POP POP PUSH2 0x4EA4 JUMPI PUSH1 0xFF AND SWAP1 PUSH2 0xFFFF PUSH1 0x23 DUP5 MOD AND PUSH1 0x6E ADD PUSH2 0xFFFF DUP2 GT PUSH2 0xAAB JUMPI PUSH1 0xFF PUSH2 0x4DB0 PUSH1 0x12 SWAP3 DUP6 PUSH2 0x4B38 JUMP JUMPDEST SWAP3 AND ADD PUSH2 0xFFFF DUP2 GT PUSH2 0xAAB JUMPI PUSH2 0xFFFF AND SWAP1 DUP2 ISZERO PUSH2 0x3360 JUMPI PUSH2 0xFFFF AND DIV SWAP1 PUSH1 0x2 PUSH2 0xFFFF DUP4 AND LT PUSH2 0x4E87 JUMPI JUMPDEST POP PUSH2 0xFFFF PUSH1 0x25 DUP4 PUSH1 0x8 SHR MOD AND PUSH1 0x52 ADD PUSH2 0xFFFF DUP2 GT PUSH2 0xAAB JUMPI PUSH2 0x4E01 PUSH2 0xFFFF SWAP2 PUSH1 0x64 SWAP4 PUSH2 0x4B38 JUMP JUMPDEST AND DIV SWAP1 PUSH1 0xFF DUP3 SWAP4 AND SWAP1 DUP2 ISZERO ISZERO SWAP2 DUP3 PUSH2 0x4E5E JUMPI JUMPDEST POP POP PUSH2 0x4E1F JUMPI POP SWAP2 SWAP1 JUMP JUMPDEST PUSH1 0xD SWAP3 SWAP4 POP PUSH2 0xFFFF SWAP2 POP AND MUL PUSH2 0xFFFF DUP2 AND SWAP1 DUP2 SUB PUSH2 0xAAB JUMPI PUSH1 0xA SWAP1 DIV SWAP1 PUSH1 0x40 MLOAD PUSH2 0x4E4A PUSH1 0x40 DUP3 PUSH2 0x3230 JUMP JUMPDEST PUSH1 0x4 DUP2 MSTORE PUSH4 0x10D49255 PUSH1 0xE2 SHL PUSH1 0x20 DUP3 ADD MSTORE SWAP1 JUMP JUMPDEST PUSH1 0x1C SWAP2 SWAP3 POP MUL PUSH2 0xFFFF DUP2 AND SWAP1 DUP2 SUB PUSH2 0xAAB JUMPI PUSH2 0xFFFF PUSH1 0xA PUSH1 0x64 SWAP3 DIV AND SWAP2 PUSH1 0x18 SHR MOD LT PUSH0 DUP1 PUSH2 0x4E14 JUMP JUMPDEST PUSH1 0xFF SWAP2 POP PUSH1 0x3 SWAP1 DIV AND PUSH1 0x2 ADD PUSH1 0xFF DUP2 GT PUSH2 0xAAB JUMPI PUSH1 0xFF AND PUSH0 PUSH2 0x4DDA JUMP JUMPDEST POP POP POP POP SWAP1 POP PUSH0 SWAP1 PUSH1 0x40 MLOAD PUSH2 0x4EBA PUSH1 0x40 DUP3 PUSH2 0x3230 JUMP JUMPDEST PUSH1 0x5 DUP2 MSTORE PUSH5 0x444F444745 PUSH1 0xD8 SHL PUSH1 0x20 DUP3 ADD MSTORE SWAP1 JUMP JUMPDEST SWAP1 SWAP2 POP PUSH1 0x19 DUP3 MUL SWAP2 DUP3 DIV PUSH1 0x19 EQ OR ISZERO PUSH2 0xAAB JUMPI PUSH1 0xA SWAP1 DIV PUSH1 0x64 DUP5 MOD LT PUSH0 DUP1 PUSH2 0x4D84 JUMP INVALID LOG2 PUSH5 0x6970667358 0x22 SLT KECCAK256 0x4C PUSH9 0x1A7232E5CAA6219D28 TIMESTAMP SWAP14 EXP LOG1 0xBA STOP SWAP14 LOG4 0x2D PUSH5 0x1C06DD9E4E DUP1 DUP9 0x4B KECCAK256 0xAB SWAP9 PUSH5 0x736F6C6343 STOP ADDMOD 0x1E STOP CALLER "
		},
		"gasEstimates": {
			"creation": {
				"codeDepositCost": "4052800",
				"executionCost": "infinite",
				"totalCost": "infinite"
			},
			"external": {
				"buyFromShop(uint256)": "infinite",
				"buyRelicShopPrice()": "2644",
				"buyUnit()": "infinite",
				"buyUnitPrice()": "2336",
				"buyUnitShopPrice()": "3103",
				"clearPlayerData()": "infinite",
				"equipRelics(uint256[3])": "infinite",
				"equippedRelics(address,uint256)": "3224",
				"getCurrentAI(address)": "infinite",
				"getEquippedRelics(address)": "infinite",
				"getLastBattleResult(address)": "infinite",
				"getPlayerRelics(address)": "infinite",
				"getPlayerShop(address)": "infinite",
				"getPlayerUnits(address)": "infinite",
				"hasProfile(address)": "2894",
				"lastAI(address,uint256)": "7844",
				"lastAIMaxHp(address,uint256)": "7130",
				"lastBattleEvents(address,uint256)": "infinite",
				"lastBattleId()": "2468",
				"lastPlayerMaxHp(address,uint256)": "6976",
				"lastPlayerWon(address)": "3004",
				"owner()": "2689",
				"pause()": "30056",
				"paused()": "2524",
				"playerRelics(address,uint256)": "7605",
				"playerShop(address,uint256)": "7052",
				"playerUnits(address,uint256)": "6967",
				"profiles(address)": "9484",
				"relicContract()": "3020",
				"renounceOwnership()": "28350",
				"rerollPrice()": "2688",
				"rerollShop()": "infinite",
				"setPrices(uint256,uint256,uint256,uint256)": "93348",
				"setRelicContract(address)": "27176",
				"setUnitNFT(address)": "26978",
				"startMatch(uint256[],uint256[])": "infinite",
				"transferOwnership(address)": "28976",
				"unitNFT()": "2888",
				"unpause()": "27687",
				"withdraw()": "infinite"
			},
			"internal": {
				"_ensureProfile()": "infinite",
				"_generateShopItem()": "infinite",
				"_getWeightedRarity(uint256)": "68",
				"_updateProfileAfterBattle(bool)": "infinite"
			}
		},
		"methodIdentifiers": {
			"buyFromShop(uint256)": "b654823e",
			"buyRelicShopPrice()": "8b5ca78f",
			"buyUnit()": "201738e2",
			"buyUnitPrice()": "394861f3",
			"buyUnitShopPrice()": "f5e5fff2",
			"clearPlayerData()": "bdb729c9",
			"equipRelics(uint256[3])": "a5f968a0",
			"equippedRelics(address,uint256)": "c4f036c4",
			"getCurrentAI(address)": "c99ae45f",
			"getEquippedRelics(address)": "a95db7e2",
			"getLastBattleResult(address)": "2dc6d62f",
			"getPlayerRelics(address)": "bb15a3b4",
			"getPlayerShop(address)": "49c7c24a",
			"getPlayerUnits(address)": "6154ee97",
			"hasProfile(address)": "a787c80b",
			"lastAI(address,uint256)": "da539b0f",
			"lastAIMaxHp(address,uint256)": "732e9b85",
			"lastBattleEvents(address,uint256)": "aeb5f760",
			"lastBattleId()": "518c83b0",
			"lastPlayerMaxHp(address,uint256)": "4e178659",
			"lastPlayerWon(address)": "b78f4c70",
			"owner()": "8da5cb5b",
			"pause()": "8456cb59",
			"paused()": "5c975abb",
			"playerRelics(address,uint256)": "f5905ca1",
			"playerShop(address,uint256)": "18dc3185",
			"playerUnits(address,uint256)": "4ef2d6c1",
			"profiles(address)": "bbe15627",
			"relicContract()": "d5654ae7",
			"renounceOwnership()": "715018a6",
			"rerollPrice()": "9d980bd2",
			"rerollShop()": "29de58d1",
			"setPrices(uint256,uint256,uint256,uint256)": "d8e86854",
			"setRelicContract(address)": "b2a47500",
			"setUnitNFT(address)": "7e5c4f8b",
			"startMatch(uint256[],uint256[])": "51bdab14",
			"transferOwnership(address)": "f2fde38b",
			"unitNFT()": "b92a40ad",
			"unpause()": "3f4ba83a",
			"withdraw()": "3ccfd60b"
		}
	},
	"abi": [
		{
			"inputs": [
				{
					"internalType": "address",
					"name": "_unitNFT",
					"type": "address"
				},
				{
					"internalType": "address",
					"name": "_relic",
					"type": "address"
				}
			],
			"stateMutability": "nonpayable",
			"type": "constructor"
		},
		{
			"anonymous": false,
			"inputs": [
				{
					"indexed": true,
					"internalType": "bytes32",
					"name": "battleId",
					"type": "bytes32"
				},
				{
					"indexed": false,
					"internalType": "uint8",
					"name": "round",
					"type": "uint8"
				},
				{
					"indexed": false,
					"internalType": "bool",
					"name": "isPlayerSide",
					"type": "bool"
				},
				{
					"indexed": false,
					"internalType": "uint8",
					"name": "attackerIndex",
					"type": "uint8"
				},
				{
					"indexed": false,
					"internalType": "uint8",
					"name": "targetIndex",
					"type": "uint8"
				},
				{
					"indexed": false,
					"internalType": "uint16",
					"name": "damage",
					"type": "uint16"
				},
				{
					"indexed": false,
					"internalType": "uint16",
					"name": "remainingHp",
					"type": "uint16"
				},
				{
					"indexed": false,
					"internalType": "string",
					"name": "specialEffect",
					"type": "string"
				}
			],
			"name": "BattleEventEmitted",
			"type": "event"
		},
		{
			"anonymous": false,
			"inputs": [
				{
					"indexed": true,
					"internalType": "bytes32",
					"name": "battleId",
					"type": "bytes32"
				},
				{
					"indexed": true,
					"internalType": "address",
					"name": "player",
					"type": "address"
				},
				{
					"indexed": false,
					"internalType": "bool",
					"name": "playerWon",
					"type": "bool"
				},
				{
					"indexed": false,
					"internalType": "uint16[]",
					"name": "playerMaxHp",
					"type": "uint16[]"
				},
				{
					"indexed": false,
					"internalType": "uint16[]",
					"name": "aiMaxHp",
					"type": "uint16[]"
				}
			],
			"name": "BattleResolved",
			"type": "event"
		},
		{
			"anonymous": false,
			"inputs": [
				{
					"indexed": true,
					"internalType": "address",
					"name": "previousOwner",
					"type": "address"
				},
				{
					"indexed": true,
					"internalType": "address",
					"name": "newOwner",
					"type": "address"
				}
			],
			"name": "OwnershipTransferred",
			"type": "event"
		},
		{
			"anonymous": false,
			"inputs": [
				{
					"indexed": false,
					"internalType": "address",
					"name": "account",
					"type": "address"
				}
			],
			"name": "Paused",
			"type": "event"
		},
		{
			"anonymous": false,
			"inputs": [
				{
					"indexed": false,
					"internalType": "uint256",
					"name": "buyUnit",
					"type": "uint256"
				},
				{
					"indexed": false,
					"internalType": "uint256",
					"name": "reroll",
					"type": "uint256"
				},
				{
					"indexed": false,
					"internalType": "uint256",
					"name": "buyUnitShop",
					"type": "uint256"
				},
				{
					"indexed": false,
					"internalType": "uint256",
					"name": "buyRelicShop",
					"type": "uint256"
				}
			],
			"name": "PricesUpdated",
			"type": "event"
		},
		{
			"anonymous": false,
			"inputs": [
				{
					"indexed": true,
					"internalType": "address",
					"name": "player",
					"type": "address"
				}
			],
			"name": "ProfileCreated",
			"type": "event"
		},
		{
			"anonymous": false,
			"inputs": [
				{
					"indexed": true,
					"internalType": "address",
					"name": "player",
					"type": "address"
				},
				{
					"indexed": false,
					"internalType": "uint256[3]",
					"name": "relics",
					"type": "uint256[3]"
				}
			],
			"name": "RelicsEquipped",
			"type": "event"
		},
		{
			"anonymous": false,
			"inputs": [
				{
					"indexed": false,
					"internalType": "address",
					"name": "account",
					"type": "address"
				}
			],
			"name": "Unpaused",
			"type": "event"
		},
		{
			"inputs": [
				{
					"internalType": "uint256",
					"name": "slot",
					"type": "uint256"
				}
			],
			"name": "buyFromShop",
			"outputs": [],
			"stateMutability": "payable",
			"type": "function"
		},
		{
			"inputs": [],
			"name": "buyRelicShopPrice",
			"outputs": [
				{
					"internalType": "uint256",
					"name": "",
					"type": "uint256"
				}
			],
			"stateMutability": "view",
			"type": "function"
		},
		{
			"inputs": [],
			"name": "buyUnit",
			"outputs": [],
			"stateMutability": "payable",
			"type": "function"
		},
		{
			"inputs": [],
			"name": "buyUnitPrice",
			"outputs": [
				{
					"internalType": "uint256",
					"name": "",
					"type": "uint256"
				}
			],
			"stateMutability": "view",
			"type": "function"
		},
		{
			"inputs": [],
			"name": "buyUnitShopPrice",
			"outputs": [
				{
					"internalType": "uint256",
					"name": "",
					"type": "uint256"
				}
			],
			"stateMutability": "view",
			"type": "function"
		},
		{
			"inputs": [],
			"name": "clearPlayerData",
			"outputs": [],
			"stateMutability": "nonpayable",
			"type": "function"
		},
		{
			"inputs": [
				{
					"internalType": "uint256[3]",
					"name": "relics",
					"type": "uint256[3]"
				}
			],
			"name": "equipRelics",
			"outputs": [],
			"stateMutability": "nonpayable",
			"type": "function"
		},
		{
			"inputs": [
				{
					"internalType": "address",
					"name": "",
					"type": "address"
				},
				{
					"internalType": "uint256",
					"name": "",
					"type": "uint256"
				}
			],
			"name": "equippedRelics",
			"outputs": [
				{
					"internalType": "uint256",
					"name": "",
					"type": "uint256"
				}
			],
			"stateMutability": "view",
			"type": "function"
		},
		{
			"inputs": [
				{
					"internalType": "address",
					"name": "player",
					"type": "address"
				}
			],
			"name": "getCurrentAI",
			"outputs": [
				{
					"components": [
						{
							"internalType": "bool",
							"name": "isRelic",
							"type": "bool"
						},
						{
							"internalType": "uint256",
							"name": "id",
							"type": "uint256"
						},
						{
							"internalType": "uint8",
							"name": "faction",
							"type": "uint8"
						},
						{
							"internalType": "uint8",
							"name": "rarity",
							"type": "uint8"
						},
						{
							"internalType": "uint8",
							"name": "unitClass",
							"type": "uint8"
						},
						{
							"internalType": "uint8",
							"name": "attack",
							"type": "uint8"
						},
						{
							"internalType": "uint8",
							"name": "defense",
							"type": "uint8"
						},
						{
							"internalType": "uint8",
							"name": "speed",
							"type": "uint8"
						},
						{
							"internalType": "uint8",
							"name": "relicType",
							"type": "uint8"
						},
						{
							"internalType": "uint8",
							"name": "relicValue",
							"type": "uint8"
						}
					],
					"internalType": "struct StarForgeGame.ShopItem[8]",
					"name": "",
					"type": "tuple[8]"
				}
			],
			"stateMutability": "view",
			"type": "function"
		},
		{
			"inputs": [
				{
					"internalType": "address",
					"name": "player",
					"type": "address"
				}
			],
			"name": "getEquippedRelics",
			"outputs": [
				{
					"internalType": "uint256[3]",
					"name": "",
					"type": "uint256[3]"
				}
			],
			"stateMutability": "view",
			"type": "function"
		},
		{
			"inputs": [
				{
					"internalType": "address",
					"name": "player",
					"type": "address"
				}
			],
			"name": "getLastBattleResult",
			"outputs": [
				{
					"internalType": "bool",
					"name": "",
					"type": "bool"
				},
				{
					"internalType": "uint16[]",
					"name": "",
					"type": "uint16[]"
				},
				{
					"internalType": "uint16[]",
					"name": "",
					"type": "uint16[]"
				},
				{
					"internalType": "bytes32",
					"name": "",
					"type": "bytes32"
				},
				{
					"components": [
						{
							"internalType": "uint8",
							"name": "round",
							"type": "uint8"
						},
						{
							"internalType": "bool",
							"name": "isPlayerSide",
							"type": "bool"
						},
						{
							"internalType": "uint8",
							"name": "attackerIndex",
							"type": "uint8"
						},
						{
							"internalType": "uint8",
							"name": "targetIndex",
							"type": "uint8"
						},
						{
							"internalType": "uint16",
							"name": "damage",
							"type": "uint16"
						},
						{
							"internalType": "uint16",
							"name": "damageDealt",
							"type": "uint16"
						},
						{
							"internalType": "uint16",
							"name": "initialHp",
							"type": "uint16"
						},
						{
							"internalType": "uint16",
							"name": "remainingHp",
							"type": "uint16"
						},
						{
							"internalType": "string",
							"name": "specialEffect",
							"type": "string"
						},
						{
							"internalType": "uint8",
							"name": "attackerRarity",
							"type": "uint8"
						},
						{
							"internalType": "uint8",
							"name": "attackerClass",
							"type": "uint8"
						},
						{
							"internalType": "uint8",
							"name": "targetRarity",
							"type": "uint8"
						},
						{
							"internalType": "uint8",
							"name": "targetClass",
							"type": "uint8"
						}
					],
					"internalType": "struct StarForgeBattleLibrary.BattleEvent[]",
					"name": "",
					"type": "tuple[]"
				}
			],
			"stateMutability": "view",
			"type": "function"
		},
		{
			"inputs": [
				{
					"internalType": "address",
					"name": "player",
					"type": "address"
				}
			],
			"name": "getPlayerRelics",
			"outputs": [
				{
					"internalType": "uint256[]",
					"name": "",
					"type": "uint256[]"
				}
			],
			"stateMutability": "view",
			"type": "function"
		},
		{
			"inputs": [
				{
					"internalType": "address",
					"name": "player",
					"type": "address"
				}
			],
			"name": "getPlayerShop",
			"outputs": [
				{
					"components": [
						{
							"internalType": "bool",
							"name": "isRelic",
							"type": "bool"
						},
						{
							"internalType": "uint256",
							"name": "id",
							"type": "uint256"
						},
						{
							"internalType": "uint8",
							"name": "faction",
							"type": "uint8"
						},
						{
							"internalType": "uint8",
							"name": "rarity",
							"type": "uint8"
						},
						{
							"internalType": "uint8",
							"name": "unitClass",
							"type": "uint8"
						},
						{
							"internalType": "uint8",
							"name": "attack",
							"type": "uint8"
						},
						{
							"internalType": "uint8",
							"name": "defense",
							"type": "uint8"
						},
						{
							"internalType": "uint8",
							"name": "speed",
							"type": "uint8"
						},
						{
							"internalType": "uint8",
							"name": "relicType",
							"type": "uint8"
						},
						{
							"internalType": "uint8",
							"name": "relicValue",
							"type": "uint8"
						}
					],
					"internalType": "struct StarForgeGame.ShopItem[3]",
					"name": "",
					"type": "tuple[3]"
				}
			],
			"stateMutability": "view",
			"type": "function"
		},
		{
			"inputs": [
				{
					"internalType": "address",
					"name": "player",
					"type": "address"
				}
			],
			"name": "getPlayerUnits",
			"outputs": [
				{
					"internalType": "uint256[]",
					"name": "",
					"type": "uint256[]"
				}
			],
			"stateMutability": "view",
			"type": "function"
		},
		{
			"inputs": [
				{
					"internalType": "address",
					"name": "",
					"type": "address"
				}
			],
			"name": "hasProfile",
			"outputs": [
				{
					"internalType": "bool",
					"name": "",
					"type": "bool"
				}
			],
			"stateMutability": "view",
			"type": "function"
		},
		{
			"inputs": [
				{
					"internalType": "address",
					"name": "",
					"type": "address"
				},
				{
					"internalType": "uint256",
					"name": "",
					"type": "uint256"
				}
			],
			"name": "lastAI",
			"outputs": [
				{
					"internalType": "bool",
					"name": "isRelic",
					"type": "bool"
				},
				{
					"internalType": "uint256",
					"name": "id",
					"type": "uint256"
				},
				{
					"internalType": "uint8",
					"name": "faction",
					"type": "uint8"
				},
				{
					"internalType": "uint8",
					"name": "rarity",
					"type": "uint8"
				},
				{
					"internalType": "uint8",
					"name": "unitClass",
					"type": "uint8"
				},
				{
					"internalType": "uint8",
					"name": "attack",
					"type": "uint8"
				},
				{
					"internalType": "uint8",
					"name": "defense",
					"type": "uint8"
				},
				{
					"internalType": "uint8",
					"name": "speed",
					"type": "uint8"
				},
				{
					"internalType": "uint8",
					"name": "relicType",
					"type": "uint8"
				},
				{
					"internalType": "uint8",
					"name": "relicValue",
					"type": "uint8"
				}
			],
			"stateMutability": "view",
			"type": "function"
		},
		{
			"inputs": [
				{
					"internalType": "address",
					"name": "",
					"type": "address"
				},
				{
					"internalType": "uint256",
					"name": "",
					"type": "uint256"
				}
			],
			"name": "lastAIMaxHp",
			"outputs": [
				{
					"internalType": "uint16",
					"name": "",
					"type": "uint16"
				}
			],
			"stateMutability": "view",
			"type": "function"
		},
		{
			"inputs": [
				{
					"internalType": "address",
					"name": "",
					"type": "address"
				},
				{
					"internalType": "uint256",
					"name": "",
					"type": "uint256"
				}
			],
			"name": "lastBattleEvents",
			"outputs": [
				{
					"internalType": "uint8",
					"name": "round",
					"type": "uint8"
				},
				{
					"internalType": "bool",
					"name": "isPlayerSide",
					"type": "bool"
				},
				{
					"internalType": "uint8",
					"name": "attackerIndex",
					"type": "uint8"
				},
				{
					"internalType": "uint8",
					"name": "targetIndex",
					"type": "uint8"
				},
				{
					"internalType": "uint16",
					"name": "damage",
					"type": "uint16"
				},
				{
					"internalType": "uint16",
					"name": "damageDealt",
					"type": "uint16"
				},
				{
					"internalType": "uint16",
					"name": "initialHp",
					"type": "uint16"
				},
				{
					"internalType": "uint16",
					"name": "remainingHp",
					"type": "uint16"
				},
				{
					"internalType": "string",
					"name": "specialEffect",
					"type": "string"
				},
				{
					"internalType": "uint8",
					"name": "attackerRarity",
					"type": "uint8"
				},
				{
					"internalType": "uint8",
					"name": "attackerClass",
					"type": "uint8"
				},
				{
					"internalType": "uint8",
					"name": "targetRarity",
					"type": "uint8"
				},
				{
					"internalType": "uint8",
					"name": "targetClass",
					"type": "uint8"
				}
			],
			"stateMutability": "view",
			"type": "function"
		},
		{
			"inputs": [],
			"name": "lastBattleId",
			"outputs": [
				{
					"internalType": "bytes32",
					"name": "",
					"type": "bytes32"
				}
			],
			"stateMutability": "view",
			"type": "function"
		},
		{
			"inputs": [
				{
					"internalType": "address",
					"name": "",
					"type": "address"
				},
				{
					"internalType": "uint256",
					"name": "",
					"type": "uint256"
				}
			],
			"name": "lastPlayerMaxHp",
			"outputs": [
				{
					"internalType": "uint16",
					"name": "",
					"type": "uint16"
				}
			],
			"stateMutability": "view",
			"type": "function"
		},
		{
			"inputs": [
				{
					"internalType": "address",
					"name": "",
					"type": "address"
				}
			],
			"name": "lastPlayerWon",
			"outputs": [
				{
					"internalType": "bool",
					"name": "",
					"type": "bool"
				}
			],
			"stateMutability": "view",
			"type": "function"
		},
		{
			"inputs": [],
			"name": "owner",
			"outputs": [
				{
					"internalType": "address",
					"name": "",
					"type": "address"
				}
			],
			"stateMutability": "view",
			"type": "function"
		},
		{
			"inputs": [],
			"name": "pause",
			"outputs": [],
			"stateMutability": "nonpayable",
			"type": "function"
		},
		{
			"inputs": [],
			"name": "paused",
			"outputs": [
				{
					"internalType": "bool",
					"name": "",
					"type": "bool"
				}
			],
			"stateMutability": "view",
			"type": "function"
		},
		{
			"inputs": [
				{
					"internalType": "address",
					"name": "",
					"type": "address"
				},
				{
					"internalType": "uint256",
					"name": "",
					"type": "uint256"
				}
			],
			"name": "playerRelics",
			"outputs": [
				{
					"internalType": "uint256",
					"name": "",
					"type": "uint256"
				}
			],
			"stateMutability": "view",
			"type": "function"
		},
		{
			"inputs": [
				{
					"internalType": "address",
					"name": "",
					"type": "address"
				},
				{
					"internalType": "uint256",
					"name": "",
					"type": "uint256"
				}
			],
			"name": "playerShop",
			"outputs": [
				{
					"internalType": "bool",
					"name": "isRelic",
					"type": "bool"
				},
				{
					"internalType": "uint256",
					"name": "id",
					"type": "uint256"
				},
				{
					"internalType": "uint8",
					"name": "faction",
					"type": "uint8"
				},
				{
					"internalType": "uint8",
					"name": "rarity",
					"type": "uint8"
				},
				{
					"internalType": "uint8",
					"name": "unitClass",
					"type": "uint8"
				},
				{
					"internalType": "uint8",
					"name": "attack",
					"type": "uint8"
				},
				{
					"internalType": "uint8",
					"name": "defense",
					"type": "uint8"
				},
				{
					"internalType": "uint8",
					"name": "speed",
					"type": "uint8"
				},
				{
					"internalType": "uint8",
					"name": "relicType",
					"type": "uint8"
				},
				{
					"internalType": "uint8",
					"name": "relicValue",
					"type": "uint8"
				}
			],
			"stateMutability": "view",
			"type": "function"
		},
		{
			"inputs": [
				{
					"internalType": "address",
					"name": "",
					"type": "address"
				},
				{
					"internalType": "uint256",
					"name": "",
					"type": "uint256"
				}
			],
			"name": "playerUnits",
			"outputs": [
				{
					"internalType": "uint256",
					"name": "",
					"type": "uint256"
				}
			],
			"stateMutability": "view",
			"type": "function"
		},
		{
			"inputs": [
				{
					"internalType": "address",
					"name": "",
					"type": "address"
				}
			],
			"name": "profiles",
			"outputs": [
				{
					"internalType": "uint16",
					"name": "level",
					"type": "uint16"
				},
				{
					"internalType": "uint32",
					"name": "xp",
					"type": "uint32"
				},
				{
					"internalType": "uint256",
					"name": "wins",
					"type": "uint256"
				},
				{
					"internalType": "uint256",
					"name": "losses",
					"type": "uint256"
				},
				{
					"internalType": "uint16",
					"name": "currentAITier",
					"type": "uint16"
				}
			],
			"stateMutability": "view",
			"type": "function"
		},
		{
			"inputs": [],
			"name": "relicContract",
			"outputs": [
				{
					"internalType": "contract StarForgeRelic",
					"name": "",
					"type": "address"
				}
			],
			"stateMutability": "view",
			"type": "function"
		},
		{
			"inputs": [],
			"name": "renounceOwnership",
			"outputs": [],
			"stateMutability": "nonpayable",
			"type": "function"
		},
		{
			"inputs": [],
			"name": "rerollPrice",
			"outputs": [
				{
					"internalType": "uint256",
					"name": "",
					"type": "uint256"
				}
			],
			"stateMutability": "view",
			"type": "function"
		},
		{
			"inputs": [],
			"name": "rerollShop",
			"outputs": [],
			"stateMutability": "payable",
			"type": "function"
		},
		{
			"inputs": [
				{
					"internalType": "uint256",
					"name": "_buyUnitPrice",
					"type": "uint256"
				},
				{
					"internalType": "uint256",
					"name": "_rerollPrice",
					"type": "uint256"
				},
				{
					"internalType": "uint256",
					"name": "_buyUnitShopPrice",
					"type": "uint256"
				},
				{
					"internalType": "uint256",
					"name": "_buyRelicShopPrice",
					"type": "uint256"
				}
			],
			"name": "setPrices",
			"outputs": [],
			"stateMutability": "nonpayable",
			"type": "function"
		},
		{
			"inputs": [
				{
					"internalType": "address",
					"name": "_relic",
					"type": "address"
				}
			],
			"name": "setRelicContract",
			"outputs": [],
			"stateMutability": "nonpayable",
			"type": "function"
		},
		{
			"inputs": [
				{
					"internalType": "address",
					"name": "_unitNFT",
					"type": "address"
				}
			],
			"name": "setUnitNFT",
			"outputs": [],
			"stateMutability": "nonpayable",
			"type": "function"
		},
		{
			"inputs": [
				{
					"internalType": "uint256[]",
					"name": "team",
					"type": "uint256[]"
				},
				{
					"internalType": "uint256[]",
					"name": "equipped",
					"type": "uint256[]"
				}
			],
			"name": "startMatch",
			"outputs": [],
			"stateMutability": "nonpayable",
			"type": "function"
		},
		{
			"inputs": [
				{
					"internalType": "address",
					"name": "newOwner",
					"type": "address"
				}
			],
			"name": "transferOwnership",
			"outputs": [],
			"stateMutability": "nonpayable",
			"type": "function"
		},
		{
			"inputs": [],
			"name": "unitNFT",
			"outputs": [
				{
					"internalType": "contract StarForgeUnitNFT",
					"name": "",
					"type": "address"
				}
			],
			"stateMutability": "view",
			"type": "function"
		},
		{
			"inputs": [],
			"name": "unpause",
			"outputs": [],
			"stateMutability": "nonpayable",
			"type": "function"
		},
		{
			"inputs": [],
			"name": "withdraw",
			"outputs": [],
			"stateMutability": "nonpayable",
			"type": "function"
		}
	]
}