{
	"data": {
		"bytecode": {
			"linkReferences": {},
			"object": "6080346100f257601f6130ac38819003918201601f19168301916001600160401b038311848410176100f6578084926020946040528339810103126100f257516001600160a01b038116908190036100f25733156100df575f8054336001600160a01b0319821681178355604051939290916001600160a01b0316907f8be0079c531659141344cd1fd0a4f28419497f9722a3daafe3b4186f6b6457e09080a360017f9b779b17422d0df92223018b32b4d1fa46e071723d6817e2486d003becc55f005560018060a01b03196001541617600155612fa1908161010b8239f35b631e4fbdf760e01b5f525f60045260245ffd5b5f80fd5b634e487b7160e01b5f52604160045260245ffdfe60806040526004361015610011575f80fd5b5f3560e01c8063201738e21461206257806329de58d114611f395780632dc6d62f14611e355780633ccfd60b14611df05780633f4ba83a14611d8457806349c7c24a14611cb45780634ef2d6c114611c6b5780635c975abb14611c475780636154ee9714611c0f578063705fe4be146107ea578063715018a614611bb85780637e5c4f8b14611b755780637f570e2b146108ba5780638456cb591461085a57806384d38fdc146108165780638da5cb5b146107ef5780639f51758e146107ea578063aeb5f76014610737578063b2a47500146106f4578063b654823e146104e1578063b78f4c70146104a4578063b92a40ad1461047c578063bb15a3b414610430578063bbe15627146103ce578063c99ae45f14610305578063d5654ae7146102dd578063d6691c2714610239578063f2fde38b146101b45763f5905ca114610158575f80fd5b346101b05760403660031901126101b0576101716122d3565b6001600160a01b03165f908152600760205260409020805460243591908210156101b0576020916101a191612463565b90549060031b1c604051908152f35b5f80fd5b346101b05760203660031901126101b0576101cd6122d3565b6101d5612aaf565b6001600160a01b03168015610226575f80546001600160a01b03198116831782556001600160a01b0316907f8be0079c531659141344cd1fd0a4f28419497f9722a3daafe3b4186f6b6457e09080a3005b631e4fbdf760e01b5f525f60045260245ffd5b346101b05760403660031901126101b0576102526122d3565b6001600160a01b03165f9081526005602052604090208054602435908110156101b05761027e916126a4565b5060ff815416906102d96002600183015492015460405193849360ff8360381c169260ff8160301c169260ff8260281c169260ff8360201c169260ff8160181c169260ff8260101c169260ff808460081c169316918b6124ec565b0390f35b346101b0575f3660031901126101b0576002546040516001600160a01b039091168152602090f35b346101b05760203660031901126101b0576001600160a01b036103266122d3565b165f52600560205260405f2080549061033e826128b5565b9161034c60405193846125e3565b8083526020830180925f5260205f205f915b8383106103b0578486604051918291602083019060208452518091526040830191905f5b818110610390575050500390f35b9193509160206103a360019286516123d2565b9401910191849392610382565b600360206001926103c0856128d8565b81520192019201919061035e565b346101b05760203660031901126101b0576001600160a01b036103ef6122d3565b165f526003602052608060405f20805490600260018201549101549063ffffffff6040519361ffff8116855260101c16602084015260408301526060820152f35b346101b05760203660031901126101b0576001600160a01b036104516122d3565b165f5260076020526102d961046860405f2061296f565b60405191829160208352602083019061248c565b346101b0575f3660031901126101b0576001546040516001600160a01b039091168152602090f35b346101b05760203660031901126101b0576001600160a01b036104c56122d3565b165f526008602052602060ff60405f2054166040519015158152f35b60203660031901126101b0576004356104f8612a2c565b610500612a49565b61050a34156126bd565b60058110156106c057335f52600460205261053161052b8260405f206124d9565b506128d8565b9081511561068d5760018060a01b03600254169160ff61010082015116600681101561067957606460ff610120602094015116915f604051968794859363f925b74160e01b8552336004860152602485015260448401525af191821561066e575f92610638575b506105c390335f5260076020526105b28360405f206126fd565b335f52600460205260405f206124d9565b610625575f808255600182018190556002909101556040805133815260208101929092527f79b5d5e09e50c5e7911836260a42a037177f8e4b1480cf79b3afc0abba937a039190819081015b0390a160015f516020612f4c5f395f51905f5255005b634e487b7160e01b5f525f60045260245ffd5b9091506020813d602011610666575b81610654602093836125e3565b810103126101b05751906105c3610598565b3d9150610647565b6040513d5f823e3d90fd5b634e487b7160e01b5f52602160045260245ffd5b60405162461bcd60e51b815260206004820152600b60248201526a4e6f7420612072656c696360a81b6044820152606490fd5b60405162461bcd60e51b815260206004820152600c60248201526b125b9d985b1a59081cdb1bdd60a21b6044820152606490fd5b346101b05760203660031901126101b05761070d6122d3565b610715612aaf565b600280546001600160a01b0319166001600160a01b0392909216919091179055005b346101b05760403660031901126101b0576107506122d3565b6001600160a01b03165f908152600960205260409020805460243591908210156101b05761ffff916107819161255b565b506102d9610793600183549301612604565b604051938360ff869516855260ff8160081c161515602086015260ff8160101c16604086015260ff8160181c166060860152818160201c16608086015260301c1660a084015260e060c084015260e08301906122e9565b6124bf565b346101b0575f3660031901126101b0575f546040516001600160a01b039091168152602090f35b346101b05760403660031901126101b05761082f6122d3565b6001600160a01b03165f90815260046020526040902060243560058110156101b05761027e916124d9565b346101b0575f3660031901126101b057610872612aaf565b61087a612a2c565b5f805460ff60a01b1916600160a01b1790556040513381527f62e78cea01bee320cd4e420270b5ea74000d11b0c9f74754ebdbfc544b05a25890602090a1005b346101b05760203660031901126101b0576004356001600160401b0381116101b057366023820112156101b05780600401356001600160401b0381116101b05760248160051b830101913683116101b057610913612a2c565b61091b612a49565b600482101580611b6a575b15611b30576001546001600160a01b031690835f5b84811015610a06576040516331a9108f60e11b815260248260051b850101356004820152602081602481885afa90811561066e575f916109c5575b50336001600160a01b03909116036109905760010161093b565b60405162461bcd60e51b815260206004820152600d60248201526c139bdd081e5bdd5c881d5b9a5d609a1b6044820152606490fd5b90506020813d82116109fe575b816109df602093836125e3565b810103126101b057516001600160a01b03811681036101b05786610976565b3d91506109d2565b5092335f52600560205260405f20928354610a20816128b5565b94610a2e60405196876125e3565b81865260208601905f5260205f205f915b838310611b125750505050835115611804575b506040805142602082019081523360601b6bffffffffffffffffffffffff191692820192909252446054820152610a9681607481015b03601f1981018352826125e3565b5190209260018060a01b03600154169260018060a01b036002541695335f52600760205260405f2091610ac8856128b5565b94610ad660405196876125e3565b8552602401602085015b8282106117f457505050610af39061296f565b94610afe8351612ae2565b955f5b8451811015610c8a57610b1481866129cd565b519060405191630b2adfdf60e11b8352600483015260c0826024818a5afa801561066e575f90610bc2575b6001925061ffff6080820191610b60610b5b60ff855116612b5b565b612b72565b9060ff60a08180606085015116965116920151169060405194610b82866125ac565b8552602085015260408401521680606083015260808201525f60a08201525f60c0820152610bb0828b6129cd565b52610bbb818a6129cd565b5001610b01565b5060c0823d8211610c82575b81610bdb60c093836125e3565b810103126101b05760405160c081018181106001600160401b03821117610c6e57604052825160038110156101b0578152602083015160038110156101b057602082015260408301519260048410156101b05760a0610c64916001956040850152610c4860608201612baa565b6060850152610c5960808201612baa565b608085015201612baa565b60a0820152610b3f565b634e487b7160e01b5f52604160045260245ffd5b3d9150610bce565b50909186935085905f935b8351851015610f5057610ca885856129cd565b5193604051946368972d5960e01b865260048601525f85602481855afa94851561066e575f95610e66575b505f5b8751811015610e58578551600681101561067957610d1d5760019060ff60208801511660ff610d13610d08848d6129cd565b51928284511661278c565b1690525b01610cd6565b8551906006821015610679578860018893145f14610d635760ff610d5a6020610d4e858483600199015116956129cd565b5101928284511661278c565b1690525b610d17565b509051906006821015610679578860028893145f14610d965760ff610d5a6040610d4e85846020600199015116956129cd565b509051906006821015610679578860038893145f14610df95761ffff610d5a6080610de385610ddd60ff602060019a018888610def6060610de388610ddd88885116612b5b565b956129cd565b51019282845116612b86565b1690525116612b5b565b509051906006821015610679578860048893145f14610e2c5760ff610d5a60a0610d4e85846020600199015116956129cd565b50905190600682101561067957600560019203610d5e578160c0610e50838c6129cd565b510152610d17565b506001909501949350610c95565b9094503d805f833e610e7881836125e3565b8101906020818303126101b0578051906001600160401b0382116101b05701906060828203126101b05760405191606083018381106001600160401b03821117610c6e57604052805160068110156101b0578352610ed860208201612baa565b60208401526040810151906001600160401b0382116101b0570181601f820112156101b0578051906001600160401b038211610c6e5760405192610f26601f8401601f1916602001856125e3565b828452602083830101116101b057815f9260208093018386015e8301015260408201529387610cd3565b858383610f5d8151612ae2565b915f5b82518110156110115780610f89610b5b60ff60c0610f80600196896129cd565b51015116612b5b565b61ffff60ff60a0610f9a85896129cd565b510151169160ff60c0610fad868a6129cd565b5101511660ff60e0610fbf878b6129cd565b510151169060405194610fd1866125ac565b8552602085015260408401521680606083015260808201525f60a08201525f60c0820152610fff82876129cd565b5261100a81866129cd565b5001610f60565b50828460405161062061102481836125e3565b60308252601f19015f5b8181106117b25750505f906001945b60ff861695600c87116117a7575f955f5b865181101561179c5761ffff6060611066838a6129cd565b510151166110765760010161104e565b50909192939495506001955b5f965f5b835181101561178d5761ffff606061109e83876129cd565b510151166110ae57600101611086565b509095949397929196506001905b15908115611784575b5061114f5780600160078993161b8216156110e68686858585158d8d612be3565b611134575b6110fa9286928692898b612be3565b611124575b60ff8114611110576001019461103d565b634e487b7160e01b5f52601160045260245ffd5b9161112e90612b9c565b916110ff565b90946110fa926111448692612b9c565b9692915092506110eb565b5050935090505b6001915f5b815181101561177d5761ffff606061117383856129cd565b510151166111835760010161115b565b505f9250505b611192816128b5565b926111a060405194856125e3565b818452601f196111af836128b5565b015f5b81811061173b5750505f5b82811061171157505050335f52600360205260405f20815f146116c757600181016111e88154612b9c565b9055603263ffffffff825460101c160163ffffffff811161111057815465ffffffff0000191660109190911b65ffffffff0000161781555b805461ffff81169063ffffffff8061123784612a81565b169160101c16101561169c575b5050335f5260086020526112678160405f209060ff801983541691151516179055565b335f52600960205260405f208054905f815581611610575b5050905f915b815183101561146a57335f52600960205260405f20926112a581846129cd565b51938054600160401b811015610c6e576112c49160018201815561255b565b610625578451815460208701516040880151606089015163ffffffff1990931660ff949094169390931790151560081b61ff00161760109290921b62ff0000169190911760189190911b63ff0000001617815560c090600190608087015165ffff0000000082549160201b168065ffff0000000019831617835567ffff00000000000060a08a015160301b169167ffffffff00000000191617178155019401519384516001600160401b038111610c6e5761137f8254612574565b601f811161142f575b506020601f82116001146113ca57819060019596975f926113bf575b50505f19600383901b1c191690841b1790555b019190611285565b0151905087806113a4565b601f19821696835f52815f20975f5b81811061141757509160019697989184889594106113ff575b505050811b0190556113b7565b01515f1960f88460031b161c191690558780806113f2565b92986020600181928c8601518155019a0193016113d9565b61145a90835f5260205f20601f840160051c81019160208510611460575b601f0160051c01906129b7565b86611388565b909150819061144d565b9081806115fc575b611564575b8115611537577f096c735a49bce91aab0b6663393daab7d5ee7f5266d15f08b1439f20decdbcd56114f460ff60035b16926114b1846128b5565b936114bf60405195866125e3565b8085526114ce601f19916128b5565b01366020860137611503604051928392871515845260606020850152606084019061230d565b8281036040840152339561248c565b0390a261151e575b60015f516020612f4c5f395f51905f5255005b335f52600560205261153260405f206129e1565b61150b565b7f096c735a49bce91aab0b6663393daab7d5ee7f5266d15f08b1439f20decdbcd56114f460ff60016114a6565b60025460405163f925b74160e01b81523360048201525f60248201819052600560448301529091602091839160649183916001600160a01b03165af1801561066e575f906115c8575b6115c39150335f52600760205260405f206126fd565b611477565b506020813d6020116115f4575b816115e2602093836125e3565b810103126101b0576115c390516115ad565b3d91506115d5565b506002546001600160a01b03161515611472565b6001600160ff1b0382168203611110575f5260205f209060011b8101905b8181101561127f57805f600292556001810161164a8154612574565b9081611659575b50500161162e565b81601f5f93116001146116705750555b8580611651565b8183526020832061168c91601f0160051c8101906001016129b7565b8082528160208120915555611669565b6116a861ffff91612a9c565b1661ffff1982541617815565ffffffff00001981541690558280611244565b600281016116d58154612b9c565b9055601963ffffffff825460101c160163ffffffff811161111057815465ffffffff0000191660109190911b65ffffffff000016178155611220565b8061171e600192846129cd565b5161172982886129cd565b5261173481876129cd565b50016111bd565b60209060405161174a816125ac565b5f81525f838201525f60408201525f60608201525f60808201525f60a0820152606060c0820152828289010152016111b2565b5050611189565b905015886110c5565b509792919690959493976110bc565b509091929394611082565b505093509050611156565b6020906040516117c1816125ac565b5f81525f838201525f60408201525f60608201525f60808201525f60a0820152606060c08201528282860101520161102e565b8135815260209182019101610ae0565b909250335f52600360205260405f20604051608081018181106001600160401b03821117610c6e576040526060600283549363ffffffff61ffff86169586865260101c1660208501526001810154604085015201549101528015155f14611b05576020600491925b6040516318160ddd60e01b815292839182905afa90811561066e575f91611ad3575b5060405160208101914283523360601b604083015261ffff60f01b8460f01b1660548301526056820152446076820152607681526118cd6096826125e3565b519020335f5260056020526118e460405f206129e1565b5f5b6004811061198a57505060407fe21ebbecd481bd92987e725a0057707f7154c465084ebcc68cd42ff028da5e6b9161ffff825191338352166020820152a1335f52600560205260405f20805461193b816128b5565b9161194960405193846125e3565b81835260208301905f5260205f205f915b83831061196c57505050509184610a52565b6003602060019261197c856128d8565b81520192019201919061195a565b611992612731565b905f82528060031b8115908281046008148217156111105760038560ff921c06166119bc816123bb565b6119c5816123bb565b60408401525f60608401528160041b82810460101482171561111057846003911c166004811015610679576119fd90608085016128cc565b611a0c60ff8660021c1661277b565b908260051b838104602014821715611110576008810180911161111057611a3c60ff60068882941c06168461278c565b1660a08501526028830283810460281482171561111057611a6660ff60068882941c06168461278c565b1660c0850152603083029083820460301417156111105760ff9182600687611a91941c06169061278c565b1660e0830152335f52600560205260405f2091825490600160401b821015610c6e57611ac78260019586611acd950181556126a4565b906127a0565b016118e6565b90506020813d602011611afd575b81611aee602093836125e3565b810103126101b057518561188e565b3d9150611ae1565b506004602060019261186c565b60036020600192611b22856128d8565b815201920192019190610a3f565b60405162461bcd60e51b81526020600482015260126024820152715465616d2073697a6520342d38206f6e6c7960701b6044820152606490fd5b506008821115610926565b346101b05760203660031901126101b057611b8e6122d3565b611b96612aaf565b600180546001600160a01b0319166001600160a01b0392909216919091179055005b346101b0575f3660031901126101b057611bd0612aaf565b5f80546001600160a01b0319811682556001600160a01b03167f8be0079c531659141344cd1fd0a4f28419497f9722a3daafe3b4186f6b6457e08280a3005b346101b05760203660031901126101b0576001600160a01b03611c306122d3565b165f5260066020526102d961046860405f2061296f565b346101b0575f3660031901126101b057602060ff5f5460a01c166040519015158152f35b346101b05760403660031901126101b057611c846122d3565b6001600160a01b03165f908152600660205260409020805460243591908210156101b0576020916101a191612463565b346101b05760203660031901126101b057611ccd6122d3565b60a0604051611cdd60a0826125e3565b5f5b828110611d6f578360018060a01b03165f52600460205260405f206040519060a082018281106001600160401b03821117610c6e576040525f825b60058210611d5157604051845f825b60058210611d375761064084f35b6020611d4660019285516123d2565b930191019091611d29565b60036020600192611d61866128d8565b815201930191019091611d1a565b602090611d7a612731565b8184015201611cdf565b346101b0575f3660031901126101b057611d9c612aaf565b5f5460ff8160a01c1615611de15760ff60a01b19165f556040513381527f5db9ee0a495bf2e6ff9c91a7834c1ba4fdd244a5e8aa4e537bd38aeae4b073aa90602090a1005b638dfc202b60e01b5f5260045ffd5b346101b0575f3660031901126101b057611e08612aaf565b5f805481908190819047906001600160a01b0316828215611e2c575bf11561066e57005b506108fc611e24565b346101b05760203660031901126101b0576001600160a01b03611e566122d3565b16805f52600860205260ff60405f205416905f52600960205260405f20908154611e7f816128b5565b92611e8d60405194856125e3565b81845260208401905f5260205f205f915b838310611ec55785856102d96040519283921515835260406020840152604083019061230d565b60026020600192604051611ed8816125ac565b61ffff865460ff8116835260ff8160081c1615158584015260ff8160101c16604084015260ff8160181c1660608401528181861c16608084015260301c1660a0820152611f26858701612604565b60c0820152815201920192019190611e9e565b5f3660031901126101b057611f4c612a2c565b611f54612a49565b611f5e34156126bd565b6040805142602082019081523360601b6bffffffffffffffffffffffff191692820192909252446054820152611f978160748101610a88565b5190205f5b60058110611fe1577fb1b757afec988e099a59bc127abea15824bf7acc7137103e4197ef22a9afad116020604051338152a160015f516020612f4c5f395f51905f5255005b611fe9612731565b90600182525f60208301528060031b8115908281046008148217156111105760068560ff921c06166101008401528160041b9082820460101417156111105760019260ff6120408160128861205c961c061661277b565b16610120820152335f526004602052611ac78360405f206124d9565b01611f9c565b5f3660031901126101b057612075612a2c565b61207d612a49565b61208734156126bd565b6001546040516318160ddd60e01b81526001600160a01b0390911690602081600481855afa90811561066e575f916122a1575b505f9160e460ff60036020946040516120ff81610a8889820194334287916054939183526bffffffffffffffffffffffff199060601b16602083015260348201520190565b519020061661210d816123bb565b604051630e3bd81160e31b8152336004820152948593849261212e816123bb565b602484015281604484015281606484015260056084840152600560a4840152600660c48401525af190811561066e575f9161226f575b50335f52600660205261217a8160405f206126fd565b335f52600360205260405f209061ffff8254161561225e575b600a63ffffffff835460101c16019063ffffffff821161111057826121f561060f937fdded256c7e86a19d1be0f3168d1ec8d5cfc9c713c96bdc10defadd014692cf92959065ffffffff000082549160101b169065ffffffff00001916179055565b805461ffff81169063ffffffff8061220c84612a81565b169160101c161015612233575b505060408051338152602081019290925290918291820190565b61223f61ffff91612a9c565b1661ffff1982541617815565ffffffff00001981541690558380612219565b815461ffff19166001178255612193565b90506020813d602011612299575b8161228a602093836125e3565b810103126101b0575181612164565b3d915061227d565b90506020813d6020116122cb575b816122bc602093836125e3565b810103126101b057515f6120ba565b3d91506122af565b600435906001600160a01b03821682036101b057565b805180835260209291819084018484015e5f828201840152601f01601f1916010190565b9080602083519182815201916020808360051b8301019401925f915b83831061233857505050505090565b90919293946020806123ac600193601f1986820301875260e060c08b5160ff81511684528581015115158685015260ff604082015116604085015260ff606082015116606085015261ffff608082015116608085015261ffff60a08201511660a08501520151918160c082015201906122e9565b97019301930191939290612329565b6003111561067957565b9060048210156106795752565b9060ff610120610140938051151584526020810151602085015260408101516123fa816123bb565b6040850152606081015161240d816123bb565b6060850152612424608082015160808601906123c5565b8260a08201511660a08501528260c08201511660c08501528260e08201511660e085015282610100820151166101008501520151166101208201520190565b8054821015612478575f5260205f2001905f90565b634e487b7160e01b5f52603260045260245ffd5b90602080835192838152019201905f5b8181106124a95750505090565b825184526020938401939092019160010161249c565b346101b0575f3660031901126101b05760206040515f8152f35b9060058110156124785760030201905f90565b98969492909a99979593916101408a019b15158a5260208a015261250f816123bb565b604089015261251d816123bb565b60608801526080870161252f916123c5565b60ff1660a086015260ff1660c085015260ff1660e084015260ff1661010083015260ff16906101200152565b8054821015612478575f5260205f209060011b01905f90565b90600182811c921680156125a2575b602083101461258e57565b634e487b7160e01b5f52602260045260245ffd5b91607f1691612583565b60e081019081106001600160401b03821117610c6e57604052565b61014081019081106001600160401b03821117610c6e57604052565b90601f801991011681019081106001600160401b03821117610c6e57604052565b9060405191825f82549261261784612574565b8084529360018116908115612682575060011461263e575b5061263c925003836125e3565b565b90505f9291925260205f20905f915b81831061266657505090602061263c928201015f61262f565b602091935080600191548385890101520191019091849261264d565b90506020925061263c94915060ff191682840152151560051b8201015f61262f565b8054821015612478575f52600360205f20910201905f90565b156126c457565b60405162461bcd60e51b8152602060048201526011602482015270125b98dbdc9c9958dd081c185e5b595b9d607a1b6044820152606490fd5b8054600160401b811015610c6e5761271a91600182018155612463565b819291549060031b91821b915f19901b1916179055565b6040519061273e826125c7565b5f610120838281528260208201528260408201528260608201528260808201528260a08201528260c08201528260e0820152826101008201520152565b60ff166003019060ff821161111057565b9060ff8091169116019060ff821161111057565b90610625576002906127c183511515829060ff801983541691151516179055565b60208301516001820155019060408101516127db816123bb565b6127e4816123bb565b82546060830151906127f5826123bb565b6127fe826123bb565b60808401519060048210156106795760ff62ff000061ff009360101b1694169062ffffff1916179160081b161717825561285460ff60a083015116839063ff00000082549160181b169063ff0000001916179055565b60c08101519082549165ff000000000060e083015160281b169060ff60381b61012066ff00000000000061010086015160301b1694015160381b169364ff0000000060ff60381b199260201b169066ffffff00000000191617161717179055565b6001600160401b038111610c6e5760051b60200190565b60048210156106795752565b906040516128e5816125c7565b61012060ff60028395828154161515855260018101546020860152015481811661290e816123bb565b6040850152818160081c16612922816123bb565b6060850152612939828260101c16608086016128cc565b818160181c1660a0850152818160201c1660c0850152818160281c1660e0850152818160301c1661010085015260381c16910152565b90604051918281549182825260208201905f5260205f20925f5b81811061299e57505061263c925003836125e3565b8454835260019485019487945060209093019201612989565b8181106129c2575050565b5f81556001016129b7565b80518210156124785760209160051b010190565b8054905f8155816129f0575050565b81600302916003830403611110575f5260205f20908101905b818110612a14575050565b6003905f81555f60018201555f600282015501612a09565b60ff5f5460a01c16612a3a57565b63d93c066560e01b5f5260045ffd5b60025f516020612f4c5f395f51905f525414612a725760025f516020612f4c5f395f51905f5255565b633ee5aeb560e01b5f5260045ffd5b63ffffffff60649116029063ffffffff821691820361111057565b61ffff1661ffff81146111105760010190565b5f546001600160a01b03163303612ac257565b63118cdaa760e01b5f523360045260245ffd5b9190820180921161111057565b90612aec826128b5565b612af960405191826125e3565b8281528092612b0a601f19916128b5565b01905f5b828110612b1a57505050565b602090604051612b29816125ac565b5f81525f838201525f60408201525f60608201525f60808201525f60a08201525f60c082015282828501015201612b0e565b61ffff60039116029061ffff821691820361111057565b61ffff60149116019061ffff821161111057565b9061ffff8091169116019061ffff821161111057565b5f1981146111105760010190565b519060ff821682036101b057565b60ff60059116029060ff821691820361111057565b9061ffff8091169116039061ffff821161111057565b949690939195925f935f985f5b8851811015612c5b5761ffff6060612c08838c6129cd565b51015116151580612c3e575b612c21575b600101612bf0565b9550985060ff6040612c33878a6129cd565b510151169885612c19565b5060ff6040612c4d838c6129cd565b5101511660ff8c1610612c14565b5092959860ff90989194979295981615612f3e575f975f975f5b8b51811015612cb25761ffff6060612c8d838f6129cd565b51015116612c9e575b600101612c75565b98612caa600191612b9c565b999050612c96565b5091939699949798909295988015612f305760018111612ea0575b50612cfb60ff612cdd85896129cd565b515116607f6020612cee878b6129cd565b51015160011c1690612bcd565b9160038902968988046003148a15171561111057612d3060ff94600384612d28612e1c9f89169c8d612ad5565b1c1690612b86565b91858560a0612d3f83866129cd565b5101511615159283612e75575b505050612e60575b61ffff6060612d6384896129cd565b5101511661ffff821611612e42575b61ffff83916060612d83858a6129cd565b510182612d938382845116612bcd565b1690521693600f8510612e225761ffff6060612dd685604051612db76040826125e3565b600c81526b0a2eac2dce8eada408cd8eaf60a31b60208201529a6129cd565b510151169560405198612de88a6125ac565b895215156020890152166040870152166060850152608084015260a083015260c0820152612e1683836129cd565b526129cd565b50600190565b61ffff6060612dd685604051612e396020826125e3565b5f81529a6129cd565b508161ffff806060612e54858a6129cd565b51015116915050612d72565b612e6c617fff91612b5b565b60011c16612d54565b60649293508660a0612e8b8294612e94946129cd565b51015116612bb8565b169106105f8581612d4c565b905081612ec28960ff612ebc8d9b99979d9e9c9a98969e612bb8565b16612ad5565b1c06975f995f5b8451811015612f205761ffff6060612ee183886129cd565b51015116612ef2575b600101612ec9565b9a8a8114612f0d57612f05600191612b9c565b9b9050612eea565b5091939597999092949698505b5f612ccd565b5091939597995091939597612f1a565b505050505050505050505f90565b5050505050925050505f9056fe9b779b17422d0df92223018b32b4d1fa46e071723d6817e2486d003becc55f00a2646970667358221220b9c842c6d43ab1cb0f9fd81bc7e5842aa577cdb70dd446615bacd5c3d4af58ef64736f6c634300081e0033",
			"opcodes": "PUSH1 0x80 CALLVALUE PUSH2 0xF2 JUMPI PUSH1 0x1F PUSH2 0x30AC CODESIZE DUP2 SWAP1 SUB SWAP2 DUP3 ADD PUSH1 0x1F NOT AND DUP4 ADD SWAP2 PUSH1 0x1 PUSH1 0x1 PUSH1 0x40 SHL SUB DUP4 GT DUP5 DUP5 LT OR PUSH2 0xF6 JUMPI DUP1 DUP5 SWAP3 PUSH1 0x20 SWAP5 PUSH1 0x40 MSTORE DUP4 CODECOPY DUP2 ADD SUB SLT PUSH2 0xF2 JUMPI MLOAD PUSH1 0x1 PUSH1 0x1 PUSH1 0xA0 SHL SUB DUP2 AND SWAP1 DUP2 SWAP1 SUB PUSH2 0xF2 JUMPI CALLER ISZERO PUSH2 0xDF JUMPI PUSH0 DUP1 SLOAD CALLER PUSH1 0x1 PUSH1 0x1 PUSH1 0xA0 SHL SUB NOT DUP3 AND DUP2 OR DUP4 SSTORE PUSH1 0x40 MLOAD SWAP4 SWAP3 SWAP1 SWAP2 PUSH1 0x1 PUSH1 0x1 PUSH1 0xA0 SHL SUB AND SWAP1 PUSH32 0x8BE0079C531659141344CD1FD0A4F28419497F9722A3DAAFE3B4186F6B6457E0 SWAP1 DUP1 LOG3 PUSH1 0x1 PUSH32 0x9B779B17422D0DF92223018B32B4D1FA46E071723D6817E2486D003BECC55F00 SSTORE PUSH1 0x1 DUP1 PUSH1 0xA0 SHL SUB NOT PUSH1 0x1 SLOAD AND OR PUSH1 0x1 SSTORE PUSH2 0x2FA1 SWAP1 DUP2 PUSH2 0x10B DUP3 CODECOPY RETURN JUMPDEST PUSH4 0x1E4FBDF7 PUSH1 0xE0 SHL PUSH0 MSTORE PUSH0 PUSH1 0x4 MSTORE PUSH1 0x24 PUSH0 REVERT JUMPDEST PUSH0 DUP1 REVERT JUMPDEST PUSH4 0x4E487B71 PUSH1 0xE0 SHL PUSH0 MSTORE PUSH1 0x41 PUSH1 0x4 MSTORE PUSH1 0x24 PUSH0 REVERT INVALID PUSH1 0x80 PUSH1 0x40 MSTORE PUSH1 0x4 CALLDATASIZE LT ISZERO PUSH2 0x11 JUMPI PUSH0 DUP1 REVERT JUMPDEST PUSH0 CALLDATALOAD PUSH1 0xE0 SHR DUP1 PUSH4 0x201738E2 EQ PUSH2 0x2062 JUMPI DUP1 PUSH4 0x29DE58D1 EQ PUSH2 0x1F39 JUMPI DUP1 PUSH4 0x2DC6D62F EQ PUSH2 0x1E35 JUMPI DUP1 PUSH4 0x3CCFD60B EQ PUSH2 0x1DF0 JUMPI DUP1 PUSH4 0x3F4BA83A EQ PUSH2 0x1D84 JUMPI DUP1 PUSH4 0x49C7C24A EQ PUSH2 0x1CB4 JUMPI DUP1 PUSH4 0x4EF2D6C1 EQ PUSH2 0x1C6B JUMPI DUP1 PUSH4 0x5C975ABB EQ PUSH2 0x1C47 JUMPI DUP1 PUSH4 0x6154EE97 EQ PUSH2 0x1C0F JUMPI DUP1 PUSH4 0x705FE4BE EQ PUSH2 0x7EA JUMPI DUP1 PUSH4 0x715018A6 EQ PUSH2 0x1BB8 JUMPI DUP1 PUSH4 0x7E5C4F8B EQ PUSH2 0x1B75 JUMPI DUP1 PUSH4 0x7F570E2B EQ PUSH2 0x8BA JUMPI DUP1 PUSH4 0x8456CB59 EQ PUSH2 0x85A JUMPI DUP1 PUSH4 0x84D38FDC EQ PUSH2 0x816 JUMPI DUP1 PUSH4 0x8DA5CB5B EQ PUSH2 0x7EF JUMPI DUP1 PUSH4 0x9F51758E EQ PUSH2 0x7EA JUMPI DUP1 PUSH4 0xAEB5F760 EQ PUSH2 0x737 JUMPI DUP1 PUSH4 0xB2A47500 EQ PUSH2 0x6F4 JUMPI DUP1 PUSH4 0xB654823E EQ PUSH2 0x4E1 JUMPI DUP1 PUSH4 0xB78F4C70 EQ PUSH2 0x4A4 JUMPI DUP1 PUSH4 0xB92A40AD EQ PUSH2 0x47C JUMPI DUP1 PUSH4 0xBB15A3B4 EQ PUSH2 0x430 JUMPI DUP1 PUSH4 0xBBE15627 EQ PUSH2 0x3CE JUMPI DUP1 PUSH4 0xC99AE45F EQ PUSH2 0x305 JUMPI DUP1 PUSH4 0xD5654AE7 EQ PUSH2 0x2DD JUMPI DUP1 PUSH4 0xD6691C27 EQ PUSH2 0x239 JUMPI DUP1 PUSH4 0xF2FDE38B EQ PUSH2 0x1B4 JUMPI PUSH4 0xF5905CA1 EQ PUSH2 0x158 JUMPI PUSH0 DUP1 REVERT JUMPDEST CALLVALUE PUSH2 0x1B0 JUMPI PUSH1 0x40 CALLDATASIZE PUSH1 0x3 NOT ADD SLT PUSH2 0x1B0 JUMPI PUSH2 0x171 PUSH2 0x22D3 JUMP JUMPDEST PUSH1 0x1 PUSH1 0x1 PUSH1 0xA0 SHL SUB AND PUSH0 SWAP1 DUP2 MSTORE PUSH1 0x7 PUSH1 0x20 MSTORE PUSH1 0x40 SWAP1 KECCAK256 DUP1 SLOAD PUSH1 0x24 CALLDATALOAD SWAP2 SWAP1 DUP3 LT ISZERO PUSH2 0x1B0 JUMPI PUSH1 0x20 SWAP2 PUSH2 0x1A1 SWAP2 PUSH2 0x2463 JUMP JUMPDEST SWAP1 SLOAD SWAP1 PUSH1 0x3 SHL SHR PUSH1 0x40 MLOAD SWAP1 DUP2 MSTORE RETURN JUMPDEST PUSH0 DUP1 REVERT JUMPDEST CALLVALUE PUSH2 0x1B0 JUMPI PUSH1 0x20 CALLDATASIZE PUSH1 0x3 NOT ADD SLT PUSH2 0x1B0 JUMPI PUSH2 0x1CD PUSH2 0x22D3 JUMP JUMPDEST PUSH2 0x1D5 PUSH2 0x2AAF JUMP JUMPDEST PUSH1 0x1 PUSH1 0x1 PUSH1 0xA0 SHL SUB AND DUP1 ISZERO PUSH2 0x226 JUMPI PUSH0 DUP1 SLOAD PUSH1 0x1 PUSH1 0x1 PUSH1 0xA0 SHL SUB NOT DUP2 AND DUP4 OR DUP3 SSTORE PUSH1 0x1 PUSH1 0x1 PUSH1 0xA0 SHL SUB AND SWAP1 PUSH32 0x8BE0079C531659141344CD1FD0A4F28419497F9722A3DAAFE3B4186F6B6457E0 SWAP1 DUP1 LOG3 STOP JUMPDEST PUSH4 0x1E4FBDF7 PUSH1 0xE0 SHL PUSH0 MSTORE PUSH0 PUSH1 0x4 MSTORE PUSH1 0x24 PUSH0 REVERT JUMPDEST CALLVALUE PUSH2 0x1B0 JUMPI PUSH1 0x40 CALLDATASIZE PUSH1 0x3 NOT ADD SLT PUSH2 0x1B0 JUMPI PUSH2 0x252 PUSH2 0x22D3 JUMP JUMPDEST PUSH1 0x1 PUSH1 0x1 PUSH1 0xA0 SHL SUB AND PUSH0 SWAP1 DUP2 MSTORE PUSH1 0x5 PUSH1 0x20 MSTORE PUSH1 0x40 SWAP1 KECCAK256 DUP1 SLOAD PUSH1 0x24 CALLDATALOAD SWAP1 DUP2 LT ISZERO PUSH2 0x1B0 JUMPI PUSH2 0x27E SWAP2 PUSH2 0x26A4 JUMP JUMPDEST POP PUSH1 0xFF DUP2 SLOAD AND SWAP1 PUSH2 0x2D9 PUSH1 0x2 PUSH1 0x1 DUP4 ADD SLOAD SWAP3 ADD SLOAD PUSH1 0x40 MLOAD SWAP4 DUP5 SWAP4 PUSH1 0xFF DUP4 PUSH1 0x38 SHR AND SWAP3 PUSH1 0xFF DUP2 PUSH1 0x30 SHR AND SWAP3 PUSH1 0xFF DUP3 PUSH1 0x28 SHR AND SWAP3 PUSH1 0xFF DUP4 PUSH1 0x20 SHR AND SWAP3 PUSH1 0xFF DUP2 PUSH1 0x18 SHR AND SWAP3 PUSH1 0xFF DUP3 PUSH1 0x10 SHR AND SWAP3 PUSH1 0xFF DUP1 DUP5 PUSH1 0x8 SHR AND SWAP4 AND SWAP2 DUP12 PUSH2 0x24EC JUMP JUMPDEST SUB SWAP1 RETURN JUMPDEST CALLVALUE PUSH2 0x1B0 JUMPI PUSH0 CALLDATASIZE PUSH1 0x3 NOT ADD SLT PUSH2 0x1B0 JUMPI PUSH1 0x2 SLOAD PUSH1 0x40 MLOAD PUSH1 0x1 PUSH1 0x1 PUSH1 0xA0 SHL SUB SWAP1 SWAP2 AND DUP2 MSTORE PUSH1 0x20 SWAP1 RETURN JUMPDEST CALLVALUE PUSH2 0x1B0 JUMPI PUSH1 0x20 CALLDATASIZE PUSH1 0x3 NOT ADD SLT PUSH2 0x1B0 JUMPI PUSH1 0x1 PUSH1 0x1 PUSH1 0xA0 SHL SUB PUSH2 0x326 PUSH2 0x22D3 JUMP JUMPDEST AND PUSH0 MSTORE PUSH1 0x5 PUSH1 0x20 MSTORE PUSH1 0x40 PUSH0 KECCAK256 DUP1 SLOAD SWAP1 PUSH2 0x33E DUP3 PUSH2 0x28B5 JUMP JUMPDEST SWAP2 PUSH2 0x34C PUSH1 0x40 MLOAD SWAP4 DUP5 PUSH2 0x25E3 JUMP JUMPDEST DUP1 DUP4 MSTORE PUSH1 0x20 DUP4 ADD DUP1 SWAP3 PUSH0 MSTORE PUSH1 0x20 PUSH0 KECCAK256 PUSH0 SWAP2 JUMPDEST DUP4 DUP4 LT PUSH2 0x3B0 JUMPI DUP5 DUP7 PUSH1 0x40 MLOAD SWAP2 DUP3 SWAP2 PUSH1 0x20 DUP4 ADD SWAP1 PUSH1 0x20 DUP5 MSTORE MLOAD DUP1 SWAP2 MSTORE PUSH1 0x40 DUP4 ADD SWAP2 SWAP1 PUSH0 JUMPDEST DUP2 DUP2 LT PUSH2 0x390 JUMPI POP POP POP SUB SWAP1 RETURN JUMPDEST SWAP2 SWAP4 POP SWAP2 PUSH1 0x20 PUSH2 0x3A3 PUSH1 0x1 SWAP3 DUP7 MLOAD PUSH2 0x23D2 JUMP JUMPDEST SWAP5 ADD SWAP2 ADD SWAP2 DUP5 SWAP4 SWAP3 PUSH2 0x382 JUMP JUMPDEST PUSH1 0x3 PUSH1 0x20 PUSH1 0x1 SWAP3 PUSH2 0x3C0 DUP6 PUSH2 0x28D8 JUMP JUMPDEST DUP2 MSTORE ADD SWAP3 ADD SWAP3 ADD SWAP2 SWAP1 PUSH2 0x35E JUMP JUMPDEST CALLVALUE PUSH2 0x1B0 JUMPI PUSH1 0x20 CALLDATASIZE PUSH1 0x3 NOT ADD SLT PUSH2 0x1B0 JUMPI PUSH1 0x1 PUSH1 0x1 PUSH1 0xA0 SHL SUB PUSH2 0x3EF PUSH2 0x22D3 JUMP JUMPDEST AND PUSH0 MSTORE PUSH1 0x3 PUSH1 0x20 MSTORE PUSH1 0x80 PUSH1 0x40 PUSH0 KECCAK256 DUP1 SLOAD SWAP1 PUSH1 0x2 PUSH1 0x1 DUP3 ADD SLOAD SWAP2 ADD SLOAD SWAP1 PUSH4 0xFFFFFFFF PUSH1 0x40 MLOAD SWAP4 PUSH2 0xFFFF DUP2 AND DUP6 MSTORE PUSH1 0x10 SHR AND PUSH1 0x20 DUP5 ADD MSTORE PUSH1 0x40 DUP4 ADD MSTORE PUSH1 0x60 DUP3 ADD MSTORE RETURN JUMPDEST CALLVALUE PUSH2 0x1B0 JUMPI PUSH1 0x20 CALLDATASIZE PUSH1 0x3 NOT ADD SLT PUSH2 0x1B0 JUMPI PUSH1 0x1 PUSH1 0x1 PUSH1 0xA0 SHL SUB PUSH2 0x451 PUSH2 0x22D3 JUMP JUMPDEST AND PUSH0 MSTORE PUSH1 0x7 PUSH1 0x20 MSTORE PUSH2 0x2D9 PUSH2 0x468 PUSH1 0x40 PUSH0 KECCAK256 PUSH2 0x296F JUMP JUMPDEST PUSH1 0x40 MLOAD SWAP2 DUP3 SWAP2 PUSH1 0x20 DUP4 MSTORE PUSH1 0x20 DUP4 ADD SWAP1 PUSH2 0x248C JUMP JUMPDEST CALLVALUE PUSH2 0x1B0 JUMPI PUSH0 CALLDATASIZE PUSH1 0x3 NOT ADD SLT PUSH2 0x1B0 JUMPI PUSH1 0x1 SLOAD PUSH1 0x40 MLOAD PUSH1 0x1 PUSH1 0x1 PUSH1 0xA0 SHL SUB SWAP1 SWAP2 AND DUP2 MSTORE PUSH1 0x20 SWAP1 RETURN JUMPDEST CALLVALUE PUSH2 0x1B0 JUMPI PUSH1 0x20 CALLDATASIZE PUSH1 0x3 NOT ADD SLT PUSH2 0x1B0 JUMPI PUSH1 0x1 PUSH1 0x1 PUSH1 0xA0 SHL SUB PUSH2 0x4C5 PUSH2 0x22D3 JUMP JUMPDEST AND PUSH0 MSTORE PUSH1 0x8 PUSH1 0x20 MSTORE PUSH1 0x20 PUSH1 0xFF PUSH1 0x40 PUSH0 KECCAK256 SLOAD AND PUSH1 0x40 MLOAD SWAP1 ISZERO ISZERO DUP2 MSTORE RETURN JUMPDEST PUSH1 0x20 CALLDATASIZE PUSH1 0x3 NOT ADD SLT PUSH2 0x1B0 JUMPI PUSH1 0x4 CALLDATALOAD PUSH2 0x4F8 PUSH2 0x2A2C JUMP JUMPDEST PUSH2 0x500 PUSH2 0x2A49 JUMP JUMPDEST PUSH2 0x50A CALLVALUE ISZERO PUSH2 0x26BD JUMP JUMPDEST PUSH1 0x5 DUP2 LT ISZERO PUSH2 0x6C0 JUMPI CALLER PUSH0 MSTORE PUSH1 0x4 PUSH1 0x20 MSTORE PUSH2 0x531 PUSH2 0x52B DUP3 PUSH1 0x40 PUSH0 KECCAK256 PUSH2 0x24D9 JUMP JUMPDEST POP PUSH2 0x28D8 JUMP JUMPDEST SWAP1 DUP2 MLOAD ISZERO PUSH2 0x68D JUMPI PUSH1 0x1 DUP1 PUSH1 0xA0 SHL SUB PUSH1 0x2 SLOAD AND SWAP2 PUSH1 0xFF PUSH2 0x100 DUP3 ADD MLOAD AND PUSH1 0x6 DUP2 LT ISZERO PUSH2 0x679 JUMPI PUSH1 0x64 PUSH1 0xFF PUSH2 0x120 PUSH1 0x20 SWAP5 ADD MLOAD AND SWAP2 PUSH0 PUSH1 0x40 MLOAD SWAP7 DUP8 SWAP5 DUP6 SWAP4 PUSH4 0xF925B741 PUSH1 0xE0 SHL DUP6 MSTORE CALLER PUSH1 0x4 DUP7 ADD MSTORE PUSH1 0x24 DUP6 ADD MSTORE PUSH1 0x44 DUP5 ADD MSTORE GAS CALL SWAP2 DUP3 ISZERO PUSH2 0x66E JUMPI PUSH0 SWAP3 PUSH2 0x638 JUMPI JUMPDEST POP PUSH2 0x5C3 SWAP1 CALLER PUSH0 MSTORE PUSH1 0x7 PUSH1 0x20 MSTORE PUSH2 0x5B2 DUP4 PUSH1 0x40 PUSH0 KECCAK256 PUSH2 0x26FD JUMP JUMPDEST CALLER PUSH0 MSTORE PUSH1 0x4 PUSH1 0x20 MSTORE PUSH1 0x40 PUSH0 KECCAK256 PUSH2 0x24D9 JUMP JUMPDEST PUSH2 0x625 JUMPI PUSH0 DUP1 DUP3 SSTORE PUSH1 0x1 DUP3 ADD DUP2 SWAP1 SSTORE PUSH1 0x2 SWAP1 SWAP2 ADD SSTORE PUSH1 0x40 DUP1 MLOAD CALLER DUP2 MSTORE PUSH1 0x20 DUP2 ADD SWAP3 SWAP1 SWAP3 MSTORE PUSH32 0x79B5D5E09E50C5E7911836260A42A037177F8E4B1480CF79B3AFC0ABBA937A03 SWAP2 SWAP1 DUP2 SWAP1 DUP2 ADD JUMPDEST SUB SWAP1 LOG1 PUSH1 0x1 PUSH0 MLOAD PUSH1 0x20 PUSH2 0x2F4C PUSH0 CODECOPY PUSH0 MLOAD SWAP1 PUSH0 MSTORE SSTORE STOP JUMPDEST PUSH4 0x4E487B71 PUSH1 0xE0 SHL PUSH0 MSTORE PUSH0 PUSH1 0x4 MSTORE PUSH1 0x24 PUSH0 REVERT JUMPDEST SWAP1 SWAP2 POP PUSH1 0x20 DUP2 RETURNDATASIZE PUSH1 0x20 GT PUSH2 0x666 JUMPI JUMPDEST DUP2 PUSH2 0x654 PUSH1 0x20 SWAP4 DUP4 PUSH2 0x25E3 JUMP JUMPDEST DUP2 ADD SUB SLT PUSH2 0x1B0 JUMPI MLOAD SWAP1 PUSH2 0x5C3 PUSH2 0x598 JUMP JUMPDEST RETURNDATASIZE SWAP2 POP PUSH2 0x647 JUMP JUMPDEST PUSH1 0x40 MLOAD RETURNDATASIZE PUSH0 DUP3 RETURNDATACOPY RETURNDATASIZE SWAP1 REVERT JUMPDEST PUSH4 0x4E487B71 PUSH1 0xE0 SHL PUSH0 MSTORE PUSH1 0x21 PUSH1 0x4 MSTORE PUSH1 0x24 PUSH0 REVERT JUMPDEST PUSH1 0x40 MLOAD PUSH3 0x461BCD PUSH1 0xE5 SHL DUP2 MSTORE PUSH1 0x20 PUSH1 0x4 DUP3 ADD MSTORE PUSH1 0xB PUSH1 0x24 DUP3 ADD MSTORE PUSH11 0x4E6F7420612072656C6963 PUSH1 0xA8 SHL PUSH1 0x44 DUP3 ADD MSTORE PUSH1 0x64 SWAP1 REVERT JUMPDEST PUSH1 0x40 MLOAD PUSH3 0x461BCD PUSH1 0xE5 SHL DUP2 MSTORE PUSH1 0x20 PUSH1 0x4 DUP3 ADD MSTORE PUSH1 0xC PUSH1 0x24 DUP3 ADD MSTORE PUSH12 0x125B9D985B1A59081CDB1BDD PUSH1 0xA2 SHL PUSH1 0x44 DUP3 ADD MSTORE PUSH1 0x64 SWAP1 REVERT JUMPDEST CALLVALUE PUSH2 0x1B0 JUMPI PUSH1 0x20 CALLDATASIZE PUSH1 0x3 NOT ADD SLT PUSH2 0x1B0 JUMPI PUSH2 0x70D PUSH2 0x22D3 JUMP JUMPDEST PUSH2 0x715 PUSH2 0x2AAF JUMP JUMPDEST PUSH1 0x2 DUP1 SLOAD PUSH1 0x1 PUSH1 0x1 PUSH1 0xA0 SHL SUB NOT AND PUSH1 0x1 PUSH1 0x1 PUSH1 0xA0 SHL SUB SWAP3 SWAP1 SWAP3 AND SWAP2 SWAP1 SWAP2 OR SWAP1 SSTORE STOP JUMPDEST CALLVALUE PUSH2 0x1B0 JUMPI PUSH1 0x40 CALLDATASIZE PUSH1 0x3 NOT ADD SLT PUSH2 0x1B0 JUMPI PUSH2 0x750 PUSH2 0x22D3 JUMP JUMPDEST PUSH1 0x1 PUSH1 0x1 PUSH1 0xA0 SHL SUB AND PUSH0 SWAP1 DUP2 MSTORE PUSH1 0x9 PUSH1 0x20 MSTORE PUSH1 0x40 SWAP1 KECCAK256 DUP1 SLOAD PUSH1 0x24 CALLDATALOAD SWAP2 SWAP1 DUP3 LT ISZERO PUSH2 0x1B0 JUMPI PUSH2 0xFFFF SWAP2 PUSH2 0x781 SWAP2 PUSH2 0x255B JUMP JUMPDEST POP PUSH2 0x2D9 PUSH2 0x793 PUSH1 0x1 DUP4 SLOAD SWAP4 ADD PUSH2 0x2604 JUMP JUMPDEST PUSH1 0x40 MLOAD SWAP4 DUP4 PUSH1 0xFF DUP7 SWAP6 AND DUP6 MSTORE PUSH1 0xFF DUP2 PUSH1 0x8 SHR AND ISZERO ISZERO PUSH1 0x20 DUP7 ADD MSTORE PUSH1 0xFF DUP2 PUSH1 0x10 SHR AND PUSH1 0x40 DUP7 ADD MSTORE PUSH1 0xFF DUP2 PUSH1 0x18 SHR AND PUSH1 0x60 DUP7 ADD MSTORE DUP2 DUP2 PUSH1 0x20 SHR AND PUSH1 0x80 DUP7 ADD MSTORE PUSH1 0x30 SHR AND PUSH1 0xA0 DUP5 ADD MSTORE PUSH1 0xE0 PUSH1 0xC0 DUP5 ADD MSTORE PUSH1 0xE0 DUP4 ADD SWAP1 PUSH2 0x22E9 JUMP JUMPDEST PUSH2 0x24BF JUMP JUMPDEST CALLVALUE PUSH2 0x1B0 JUMPI PUSH0 CALLDATASIZE PUSH1 0x3 NOT ADD SLT PUSH2 0x1B0 JUMPI PUSH0 SLOAD PUSH1 0x40 MLOAD PUSH1 0x1 PUSH1 0x1 PUSH1 0xA0 SHL SUB SWAP1 SWAP2 AND DUP2 MSTORE PUSH1 0x20 SWAP1 RETURN JUMPDEST CALLVALUE PUSH2 0x1B0 JUMPI PUSH1 0x40 CALLDATASIZE PUSH1 0x3 NOT ADD SLT PUSH2 0x1B0 JUMPI PUSH2 0x82F PUSH2 0x22D3 JUMP JUMPDEST PUSH1 0x1 PUSH1 0x1 PUSH1 0xA0 SHL SUB AND PUSH0 SWAP1 DUP2 MSTORE PUSH1 0x4 PUSH1 0x20 MSTORE PUSH1 0x40 SWAP1 KECCAK256 PUSH1 0x24 CALLDATALOAD PUSH1 0x5 DUP2 LT ISZERO PUSH2 0x1B0 JUMPI PUSH2 0x27E SWAP2 PUSH2 0x24D9 JUMP JUMPDEST CALLVALUE PUSH2 0x1B0 JUMPI PUSH0 CALLDATASIZE PUSH1 0x3 NOT ADD SLT PUSH2 0x1B0 JUMPI PUSH2 0x872 PUSH2 0x2AAF JUMP JUMPDEST PUSH2 0x87A PUSH2 0x2A2C JUMP JUMPDEST PUSH0 DUP1 SLOAD PUSH1 0xFF PUSH1 0xA0 SHL NOT AND PUSH1 0x1 PUSH1 0xA0 SHL OR SWAP1 SSTORE PUSH1 0x40 MLOAD CALLER DUP2 MSTORE PUSH32 0x62E78CEA01BEE320CD4E420270B5EA74000D11B0C9F74754EBDBFC544B05A258 SWAP1 PUSH1 0x20 SWAP1 LOG1 STOP JUMPDEST CALLVALUE PUSH2 0x1B0 JUMPI PUSH1 0x20 CALLDATASIZE PUSH1 0x3 NOT ADD SLT PUSH2 0x1B0 JUMPI PUSH1 0x4 CALLDATALOAD PUSH1 0x1 PUSH1 0x1 PUSH1 0x40 SHL SUB DUP2 GT PUSH2 0x1B0 JUMPI CALLDATASIZE PUSH1 0x23 DUP3 ADD SLT ISZERO PUSH2 0x1B0 JUMPI DUP1 PUSH1 0x4 ADD CALLDATALOAD PUSH1 0x1 PUSH1 0x1 PUSH1 0x40 SHL SUB DUP2 GT PUSH2 0x1B0 JUMPI PUSH1 0x24 DUP2 PUSH1 0x5 SHL DUP4 ADD ADD SWAP2 CALLDATASIZE DUP4 GT PUSH2 0x1B0 JUMPI PUSH2 0x913 PUSH2 0x2A2C JUMP JUMPDEST PUSH2 0x91B PUSH2 0x2A49 JUMP JUMPDEST PUSH1 0x4 DUP3 LT ISZERO DUP1 PUSH2 0x1B6A JUMPI JUMPDEST ISZERO PUSH2 0x1B30 JUMPI PUSH1 0x1 SLOAD PUSH1 0x1 PUSH1 0x1 PUSH1 0xA0 SHL SUB AND SWAP1 DUP4 PUSH0 JUMPDEST DUP5 DUP2 LT ISZERO PUSH2 0xA06 JUMPI PUSH1 0x40 MLOAD PUSH4 0x31A9108F PUSH1 0xE1 SHL DUP2 MSTORE PUSH1 0x24 DUP3 PUSH1 0x5 SHL DUP6 ADD ADD CALLDATALOAD PUSH1 0x4 DUP3 ADD MSTORE PUSH1 0x20 DUP2 PUSH1 0x24 DUP2 DUP9 GAS STATICCALL SWAP1 DUP2 ISZERO PUSH2 0x66E JUMPI PUSH0 SWAP2 PUSH2 0x9C5 JUMPI JUMPDEST POP CALLER PUSH1 0x1 PUSH1 0x1 PUSH1 0xA0 SHL SUB SWAP1 SWAP2 AND SUB PUSH2 0x990 JUMPI PUSH1 0x1 ADD PUSH2 0x93B JUMP JUMPDEST PUSH1 0x40 MLOAD PUSH3 0x461BCD PUSH1 0xE5 SHL DUP2 MSTORE PUSH1 0x20 PUSH1 0x4 DUP3 ADD MSTORE PUSH1 0xD PUSH1 0x24 DUP3 ADD MSTORE PUSH13 0x139BDD081E5BDD5C881D5B9A5D PUSH1 0x9A SHL PUSH1 0x44 DUP3 ADD MSTORE PUSH1 0x64 SWAP1 REVERT JUMPDEST SWAP1 POP PUSH1 0x20 DUP2 RETURNDATASIZE DUP3 GT PUSH2 0x9FE JUMPI JUMPDEST DUP2 PUSH2 0x9DF PUSH1 0x20 SWAP4 DUP4 PUSH2 0x25E3 JUMP JUMPDEST DUP2 ADD SUB SLT PUSH2 0x1B0 JUMPI MLOAD PUSH1 0x1 PUSH1 0x1 PUSH1 0xA0 SHL SUB DUP2 AND DUP2 SUB PUSH2 0x1B0 JUMPI DUP7 PUSH2 0x976 JUMP JUMPDEST RETURNDATASIZE SWAP2 POP PUSH2 0x9D2 JUMP JUMPDEST POP SWAP3 CALLER PUSH0 MSTORE PUSH1 0x5 PUSH1 0x20 MSTORE PUSH1 0x40 PUSH0 KECCAK256 SWAP3 DUP4 SLOAD PUSH2 0xA20 DUP2 PUSH2 0x28B5 JUMP JUMPDEST SWAP5 PUSH2 0xA2E PUSH1 0x40 MLOAD SWAP7 DUP8 PUSH2 0x25E3 JUMP JUMPDEST DUP2 DUP7 MSTORE PUSH1 0x20 DUP7 ADD SWAP1 PUSH0 MSTORE PUSH1 0x20 PUSH0 KECCAK256 PUSH0 SWAP2 JUMPDEST DUP4 DUP4 LT PUSH2 0x1B12 JUMPI POP POP POP POP DUP4 MLOAD ISZERO PUSH2 0x1804 JUMPI JUMPDEST POP PUSH1 0x40 DUP1 MLOAD TIMESTAMP PUSH1 0x20 DUP3 ADD SWAP1 DUP2 MSTORE CALLER PUSH1 0x60 SHL PUSH12 0xFFFFFFFFFFFFFFFFFFFFFFFF NOT AND SWAP3 DUP3 ADD SWAP3 SWAP1 SWAP3 MSTORE PREVRANDAO PUSH1 0x54 DUP3 ADD MSTORE PUSH2 0xA96 DUP2 PUSH1 0x74 DUP2 ADD JUMPDEST SUB PUSH1 0x1F NOT DUP2 ADD DUP4 MSTORE DUP3 PUSH2 0x25E3 JUMP JUMPDEST MLOAD SWAP1 KECCAK256 SWAP3 PUSH1 0x1 DUP1 PUSH1 0xA0 SHL SUB PUSH1 0x1 SLOAD AND SWAP3 PUSH1 0x1 DUP1 PUSH1 0xA0 SHL SUB PUSH1 0x2 SLOAD AND SWAP6 CALLER PUSH0 MSTORE PUSH1 0x7 PUSH1 0x20 MSTORE PUSH1 0x40 PUSH0 KECCAK256 SWAP2 PUSH2 0xAC8 DUP6 PUSH2 0x28B5 JUMP JUMPDEST SWAP5 PUSH2 0xAD6 PUSH1 0x40 MLOAD SWAP7 DUP8 PUSH2 0x25E3 JUMP JUMPDEST DUP6 MSTORE PUSH1 0x24 ADD PUSH1 0x20 DUP6 ADD JUMPDEST DUP3 DUP3 LT PUSH2 0x17F4 JUMPI POP POP POP PUSH2 0xAF3 SWAP1 PUSH2 0x296F JUMP JUMPDEST SWAP5 PUSH2 0xAFE DUP4 MLOAD PUSH2 0x2AE2 JUMP JUMPDEST SWAP6 PUSH0 JUMPDEST DUP5 MLOAD DUP2 LT ISZERO PUSH2 0xC8A JUMPI PUSH2 0xB14 DUP2 DUP7 PUSH2 0x29CD JUMP JUMPDEST MLOAD SWAP1 PUSH1 0x40 MLOAD SWAP2 PUSH4 0xB2ADFDF PUSH1 0xE1 SHL DUP4 MSTORE PUSH1 0x4 DUP4 ADD MSTORE PUSH1 0xC0 DUP3 PUSH1 0x24 DUP2 DUP11 GAS STATICCALL DUP1 ISZERO PUSH2 0x66E JUMPI PUSH0 SWAP1 PUSH2 0xBC2 JUMPI JUMPDEST PUSH1 0x1 SWAP3 POP PUSH2 0xFFFF PUSH1 0x80 DUP3 ADD SWAP2 PUSH2 0xB60 PUSH2 0xB5B PUSH1 0xFF DUP6 MLOAD AND PUSH2 0x2B5B JUMP JUMPDEST PUSH2 0x2B72 JUMP JUMPDEST SWAP1 PUSH1 0xFF PUSH1 0xA0 DUP2 DUP1 PUSH1 0x60 DUP6 ADD MLOAD AND SWAP7 MLOAD AND SWAP3 ADD MLOAD AND SWAP1 PUSH1 0x40 MLOAD SWAP5 PUSH2 0xB82 DUP7 PUSH2 0x25AC JUMP JUMPDEST DUP6 MSTORE PUSH1 0x20 DUP6 ADD MSTORE PUSH1 0x40 DUP5 ADD MSTORE AND DUP1 PUSH1 0x60 DUP4 ADD MSTORE PUSH1 0x80 DUP3 ADD MSTORE PUSH0 PUSH1 0xA0 DUP3 ADD MSTORE PUSH0 PUSH1 0xC0 DUP3 ADD MSTORE PUSH2 0xBB0 DUP3 DUP12 PUSH2 0x29CD JUMP JUMPDEST MSTORE PUSH2 0xBBB DUP2 DUP11 PUSH2 0x29CD JUMP JUMPDEST POP ADD PUSH2 0xB01 JUMP JUMPDEST POP PUSH1 0xC0 DUP3 RETURNDATASIZE DUP3 GT PUSH2 0xC82 JUMPI JUMPDEST DUP2 PUSH2 0xBDB PUSH1 0xC0 SWAP4 DUP4 PUSH2 0x25E3 JUMP JUMPDEST DUP2 ADD SUB SLT PUSH2 0x1B0 JUMPI PUSH1 0x40 MLOAD PUSH1 0xC0 DUP2 ADD DUP2 DUP2 LT PUSH1 0x1 PUSH1 0x1 PUSH1 0x40 SHL SUB DUP3 GT OR PUSH2 0xC6E JUMPI PUSH1 0x40 MSTORE DUP3 MLOAD PUSH1 0x3 DUP2 LT ISZERO PUSH2 0x1B0 JUMPI DUP2 MSTORE PUSH1 0x20 DUP4 ADD MLOAD PUSH1 0x3 DUP2 LT ISZERO PUSH2 0x1B0 JUMPI PUSH1 0x20 DUP3 ADD MSTORE PUSH1 0x40 DUP4 ADD MLOAD SWAP3 PUSH1 0x4 DUP5 LT ISZERO PUSH2 0x1B0 JUMPI PUSH1 0xA0 PUSH2 0xC64 SWAP2 PUSH1 0x1 SWAP6 PUSH1 0x40 DUP6 ADD MSTORE PUSH2 0xC48 PUSH1 0x60 DUP3 ADD PUSH2 0x2BAA JUMP JUMPDEST PUSH1 0x60 DUP6 ADD MSTORE PUSH2 0xC59 PUSH1 0x80 DUP3 ADD PUSH2 0x2BAA JUMP JUMPDEST PUSH1 0x80 DUP6 ADD MSTORE ADD PUSH2 0x2BAA JUMP JUMPDEST PUSH1 0xA0 DUP3 ADD MSTORE PUSH2 0xB3F JUMP JUMPDEST PUSH4 0x4E487B71 PUSH1 0xE0 SHL PUSH0 MSTORE PUSH1 0x41 PUSH1 0x4 MSTORE PUSH1 0x24 PUSH0 REVERT JUMPDEST RETURNDATASIZE SWAP2 POP PUSH2 0xBCE JUMP JUMPDEST POP SWAP1 SWAP2 DUP7 SWAP4 POP DUP6 SWAP1 PUSH0 SWAP4 JUMPDEST DUP4 MLOAD DUP6 LT ISZERO PUSH2 0xF50 JUMPI PUSH2 0xCA8 DUP6 DUP6 PUSH2 0x29CD JUMP JUMPDEST MLOAD SWAP4 PUSH1 0x40 MLOAD SWAP5 PUSH4 0x68972D59 PUSH1 0xE0 SHL DUP7 MSTORE PUSH1 0x4 DUP7 ADD MSTORE PUSH0 DUP6 PUSH1 0x24 DUP2 DUP6 GAS STATICCALL SWAP5 DUP6 ISZERO PUSH2 0x66E JUMPI PUSH0 SWAP6 PUSH2 0xE66 JUMPI JUMPDEST POP PUSH0 JUMPDEST DUP8 MLOAD DUP2 LT ISZERO PUSH2 0xE58 JUMPI DUP6 MLOAD PUSH1 0x6 DUP2 LT ISZERO PUSH2 0x679 JUMPI PUSH2 0xD1D JUMPI PUSH1 0x1 SWAP1 PUSH1 0xFF PUSH1 0x20 DUP9 ADD MLOAD AND PUSH1 0xFF PUSH2 0xD13 PUSH2 0xD08 DUP5 DUP14 PUSH2 0x29CD JUMP JUMPDEST MLOAD SWAP3 DUP3 DUP5 MLOAD AND PUSH2 0x278C JUMP JUMPDEST AND SWAP1 MSTORE JUMPDEST ADD PUSH2 0xCD6 JUMP JUMPDEST DUP6 MLOAD SWAP1 PUSH1 0x6 DUP3 LT ISZERO PUSH2 0x679 JUMPI DUP9 PUSH1 0x1 DUP9 SWAP4 EQ PUSH0 EQ PUSH2 0xD63 JUMPI PUSH1 0xFF PUSH2 0xD5A PUSH1 0x20 PUSH2 0xD4E DUP6 DUP5 DUP4 PUSH1 0x1 SWAP10 ADD MLOAD AND SWAP6 PUSH2 0x29CD JUMP JUMPDEST MLOAD ADD SWAP3 DUP3 DUP5 MLOAD AND PUSH2 0x278C JUMP JUMPDEST AND SWAP1 MSTORE JUMPDEST PUSH2 0xD17 JUMP JUMPDEST POP SWAP1 MLOAD SWAP1 PUSH1 0x6 DUP3 LT ISZERO PUSH2 0x679 JUMPI DUP9 PUSH1 0x2 DUP9 SWAP4 EQ PUSH0 EQ PUSH2 0xD96 JUMPI PUSH1 0xFF PUSH2 0xD5A PUSH1 0x40 PUSH2 0xD4E DUP6 DUP5 PUSH1 0x20 PUSH1 0x1 SWAP10 ADD MLOAD AND SWAP6 PUSH2 0x29CD JUMP JUMPDEST POP SWAP1 MLOAD SWAP1 PUSH1 0x6 DUP3 LT ISZERO PUSH2 0x679 JUMPI DUP9 PUSH1 0x3 DUP9 SWAP4 EQ PUSH0 EQ PUSH2 0xDF9 JUMPI PUSH2 0xFFFF PUSH2 0xD5A PUSH1 0x80 PUSH2 0xDE3 DUP6 PUSH2 0xDDD PUSH1 0xFF PUSH1 0x20 PUSH1 0x1 SWAP11 ADD DUP9 DUP9 PUSH2 0xDEF PUSH1 0x60 PUSH2 0xDE3 DUP9 PUSH2 0xDDD DUP9 DUP9 MLOAD AND PUSH2 0x2B5B JUMP JUMPDEST SWAP6 PUSH2 0x29CD JUMP JUMPDEST MLOAD ADD SWAP3 DUP3 DUP5 MLOAD AND PUSH2 0x2B86 JUMP JUMPDEST AND SWAP1 MSTORE MLOAD AND PUSH2 0x2B5B JUMP JUMPDEST POP SWAP1 MLOAD SWAP1 PUSH1 0x6 DUP3 LT ISZERO PUSH2 0x679 JUMPI DUP9 PUSH1 0x4 DUP9 SWAP4 EQ PUSH0 EQ PUSH2 0xE2C JUMPI PUSH1 0xFF PUSH2 0xD5A PUSH1 0xA0 PUSH2 0xD4E DUP6 DUP5 PUSH1 0x20 PUSH1 0x1 SWAP10 ADD MLOAD AND SWAP6 PUSH2 0x29CD JUMP JUMPDEST POP SWAP1 MLOAD SWAP1 PUSH1 0x6 DUP3 LT ISZERO PUSH2 0x679 JUMPI PUSH1 0x5 PUSH1 0x1 SWAP3 SUB PUSH2 0xD5E JUMPI DUP2 PUSH1 0xC0 PUSH2 0xE50 DUP4 DUP13 PUSH2 0x29CD JUMP JUMPDEST MLOAD ADD MSTORE PUSH2 0xD17 JUMP JUMPDEST POP PUSH1 0x1 SWAP1 SWAP6 ADD SWAP5 SWAP4 POP PUSH2 0xC95 JUMP JUMPDEST SWAP1 SWAP5 POP RETURNDATASIZE DUP1 PUSH0 DUP4 RETURNDATACOPY PUSH2 0xE78 DUP2 DUP4 PUSH2 0x25E3 JUMP JUMPDEST DUP2 ADD SWAP1 PUSH1 0x20 DUP2 DUP4 SUB SLT PUSH2 0x1B0 JUMPI DUP1 MLOAD SWAP1 PUSH1 0x1 PUSH1 0x1 PUSH1 0x40 SHL SUB DUP3 GT PUSH2 0x1B0 JUMPI ADD SWAP1 PUSH1 0x60 DUP3 DUP3 SUB SLT PUSH2 0x1B0 JUMPI PUSH1 0x40 MLOAD SWAP2 PUSH1 0x60 DUP4 ADD DUP4 DUP2 LT PUSH1 0x1 PUSH1 0x1 PUSH1 0x40 SHL SUB DUP3 GT OR PUSH2 0xC6E JUMPI PUSH1 0x40 MSTORE DUP1 MLOAD PUSH1 0x6 DUP2 LT ISZERO PUSH2 0x1B0 JUMPI DUP4 MSTORE PUSH2 0xED8 PUSH1 0x20 DUP3 ADD PUSH2 0x2BAA JUMP JUMPDEST PUSH1 0x20 DUP5 ADD MSTORE PUSH1 0x40 DUP2 ADD MLOAD SWAP1 PUSH1 0x1 PUSH1 0x1 PUSH1 0x40 SHL SUB DUP3 GT PUSH2 0x1B0 JUMPI ADD DUP2 PUSH1 0x1F DUP3 ADD SLT ISZERO PUSH2 0x1B0 JUMPI DUP1 MLOAD SWAP1 PUSH1 0x1 PUSH1 0x1 PUSH1 0x40 SHL SUB DUP3 GT PUSH2 0xC6E JUMPI PUSH1 0x40 MLOAD SWAP3 PUSH2 0xF26 PUSH1 0x1F DUP5 ADD PUSH1 0x1F NOT AND PUSH1 0x20 ADD DUP6 PUSH2 0x25E3 JUMP JUMPDEST DUP3 DUP5 MSTORE PUSH1 0x20 DUP4 DUP4 ADD ADD GT PUSH2 0x1B0 JUMPI DUP2 PUSH0 SWAP3 PUSH1 0x20 DUP1 SWAP4 ADD DUP4 DUP7 ADD MCOPY DUP4 ADD ADD MSTORE PUSH1 0x40 DUP3 ADD MSTORE SWAP4 DUP8 PUSH2 0xCD3 JUMP JUMPDEST DUP6 DUP4 DUP4 PUSH2 0xF5D DUP2 MLOAD PUSH2 0x2AE2 JUMP JUMPDEST SWAP2 PUSH0 JUMPDEST DUP3 MLOAD DUP2 LT ISZERO PUSH2 0x1011 JUMPI DUP1 PUSH2 0xF89 PUSH2 0xB5B PUSH1 0xFF PUSH1 0xC0 PUSH2 0xF80 PUSH1 0x1 SWAP7 DUP10 PUSH2 0x29CD JUMP JUMPDEST MLOAD ADD MLOAD AND PUSH2 0x2B5B JUMP JUMPDEST PUSH2 0xFFFF PUSH1 0xFF PUSH1 0xA0 PUSH2 0xF9A DUP6 DUP10 PUSH2 0x29CD JUMP JUMPDEST MLOAD ADD MLOAD AND SWAP2 PUSH1 0xFF PUSH1 0xC0 PUSH2 0xFAD DUP7 DUP11 PUSH2 0x29CD JUMP JUMPDEST MLOAD ADD MLOAD AND PUSH1 0xFF PUSH1 0xE0 PUSH2 0xFBF DUP8 DUP12 PUSH2 0x29CD JUMP JUMPDEST MLOAD ADD MLOAD AND SWAP1 PUSH1 0x40 MLOAD SWAP5 PUSH2 0xFD1 DUP7 PUSH2 0x25AC JUMP JUMPDEST DUP6 MSTORE PUSH1 0x20 DUP6 ADD MSTORE PUSH1 0x40 DUP5 ADD MSTORE AND DUP1 PUSH1 0x60 DUP4 ADD MSTORE PUSH1 0x80 DUP3 ADD MSTORE PUSH0 PUSH1 0xA0 DUP3 ADD MSTORE PUSH0 PUSH1 0xC0 DUP3 ADD MSTORE PUSH2 0xFFF DUP3 DUP8 PUSH2 0x29CD JUMP JUMPDEST MSTORE PUSH2 0x100A DUP2 DUP7 PUSH2 0x29CD JUMP JUMPDEST POP ADD PUSH2 0xF60 JUMP JUMPDEST POP DUP3 DUP5 PUSH1 0x40 MLOAD PUSH2 0x620 PUSH2 0x1024 DUP2 DUP4 PUSH2 0x25E3 JUMP JUMPDEST PUSH1 0x30 DUP3 MSTORE PUSH1 0x1F NOT ADD PUSH0 JUMPDEST DUP2 DUP2 LT PUSH2 0x17B2 JUMPI POP POP PUSH0 SWAP1 PUSH1 0x1 SWAP5 JUMPDEST PUSH1 0xFF DUP7 AND SWAP6 PUSH1 0xC DUP8 GT PUSH2 0x17A7 JUMPI PUSH0 SWAP6 PUSH0 JUMPDEST DUP7 MLOAD DUP2 LT ISZERO PUSH2 0x179C JUMPI PUSH2 0xFFFF PUSH1 0x60 PUSH2 0x1066 DUP4 DUP11 PUSH2 0x29CD JUMP JUMPDEST MLOAD ADD MLOAD AND PUSH2 0x1076 JUMPI PUSH1 0x1 ADD PUSH2 0x104E JUMP JUMPDEST POP SWAP1 SWAP2 SWAP3 SWAP4 SWAP5 SWAP6 POP PUSH1 0x1 SWAP6 JUMPDEST PUSH0 SWAP7 PUSH0 JUMPDEST DUP4 MLOAD DUP2 LT ISZERO PUSH2 0x178D JUMPI PUSH2 0xFFFF PUSH1 0x60 PUSH2 0x109E DUP4 DUP8 PUSH2 0x29CD JUMP JUMPDEST MLOAD ADD MLOAD AND PUSH2 0x10AE JUMPI PUSH1 0x1 ADD PUSH2 0x1086 JUMP JUMPDEST POP SWAP1 SWAP6 SWAP5 SWAP4 SWAP8 SWAP3 SWAP2 SWAP7 POP PUSH1 0x1 SWAP1 JUMPDEST ISZERO SWAP1 DUP2 ISZERO PUSH2 0x1784 JUMPI JUMPDEST POP PUSH2 0x114F JUMPI DUP1 PUSH1 0x1 PUSH1 0x7 DUP10 SWAP4 AND SHL DUP3 AND ISZERO PUSH2 0x10E6 DUP7 DUP7 DUP6 DUP6 DUP6 ISZERO DUP14 DUP14 PUSH2 0x2BE3 JUMP JUMPDEST PUSH2 0x1134 JUMPI JUMPDEST PUSH2 0x10FA SWAP3 DUP7 SWAP3 DUP7 SWAP3 DUP10 DUP12 PUSH2 0x2BE3 JUMP JUMPDEST PUSH2 0x1124 JUMPI JUMPDEST PUSH1 0xFF DUP2 EQ PUSH2 0x1110 JUMPI PUSH1 0x1 ADD SWAP5 PUSH2 0x103D JUMP JUMPDEST PUSH4 0x4E487B71 PUSH1 0xE0 SHL PUSH0 MSTORE PUSH1 0x11 PUSH1 0x4 MSTORE PUSH1 0x24 PUSH0 REVERT JUMPDEST SWAP2 PUSH2 0x112E SWAP1 PUSH2 0x2B9C JUMP JUMPDEST SWAP2 PUSH2 0x10FF JUMP JUMPDEST SWAP1 SWAP5 PUSH2 0x10FA SWAP3 PUSH2 0x1144 DUP7 SWAP3 PUSH2 0x2B9C JUMP JUMPDEST SWAP7 SWAP3 SWAP2 POP SWAP3 POP PUSH2 0x10EB JUMP JUMPDEST POP POP SWAP4 POP SWAP1 POP JUMPDEST PUSH1 0x1 SWAP2 PUSH0 JUMPDEST DUP2 MLOAD DUP2 LT ISZERO PUSH2 0x177D JUMPI PUSH2 0xFFFF PUSH1 0x60 PUSH2 0x1173 DUP4 DUP6 PUSH2 0x29CD JUMP JUMPDEST MLOAD ADD MLOAD AND PUSH2 0x1183 JUMPI PUSH1 0x1 ADD PUSH2 0x115B JUMP JUMPDEST POP PUSH0 SWAP3 POP POP JUMPDEST PUSH2 0x1192 DUP2 PUSH2 0x28B5 JUMP JUMPDEST SWAP3 PUSH2 0x11A0 PUSH1 0x40 MLOAD SWAP5 DUP6 PUSH2 0x25E3 JUMP JUMPDEST DUP2 DUP5 MSTORE PUSH1 0x1F NOT PUSH2 0x11AF DUP4 PUSH2 0x28B5 JUMP JUMPDEST ADD PUSH0 JUMPDEST DUP2 DUP2 LT PUSH2 0x173B JUMPI POP POP PUSH0 JUMPDEST DUP3 DUP2 LT PUSH2 0x1711 JUMPI POP POP POP CALLER PUSH0 MSTORE PUSH1 0x3 PUSH1 0x20 MSTORE PUSH1 0x40 PUSH0 KECCAK256 DUP2 PUSH0 EQ PUSH2 0x16C7 JUMPI PUSH1 0x1 DUP2 ADD PUSH2 0x11E8 DUP2 SLOAD PUSH2 0x2B9C JUMP JUMPDEST SWAP1 SSTORE PUSH1 0x32 PUSH4 0xFFFFFFFF DUP3 SLOAD PUSH1 0x10 SHR AND ADD PUSH4 0xFFFFFFFF DUP2 GT PUSH2 0x1110 JUMPI DUP2 SLOAD PUSH6 0xFFFFFFFF0000 NOT AND PUSH1 0x10 SWAP2 SWAP1 SWAP2 SHL PUSH6 0xFFFFFFFF0000 AND OR DUP2 SSTORE JUMPDEST DUP1 SLOAD PUSH2 0xFFFF DUP2 AND SWAP1 PUSH4 0xFFFFFFFF DUP1 PUSH2 0x1237 DUP5 PUSH2 0x2A81 JUMP JUMPDEST AND SWAP2 PUSH1 0x10 SHR AND LT ISZERO PUSH2 0x169C JUMPI JUMPDEST POP POP CALLER PUSH0 MSTORE PUSH1 0x8 PUSH1 0x20 MSTORE PUSH2 0x1267 DUP2 PUSH1 0x40 PUSH0 KECCAK256 SWAP1 PUSH1 0xFF DUP1 NOT DUP4 SLOAD AND SWAP2 ISZERO ISZERO AND OR SWAP1 SSTORE JUMP JUMPDEST CALLER PUSH0 MSTORE PUSH1 0x9 PUSH1 0x20 MSTORE PUSH1 0x40 PUSH0 KECCAK256 DUP1 SLOAD SWAP1 PUSH0 DUP2 SSTORE DUP2 PUSH2 0x1610 JUMPI JUMPDEST POP POP SWAP1 PUSH0 SWAP2 JUMPDEST DUP2 MLOAD DUP4 LT ISZERO PUSH2 0x146A JUMPI CALLER PUSH0 MSTORE PUSH1 0x9 PUSH1 0x20 MSTORE PUSH1 0x40 PUSH0 KECCAK256 SWAP3 PUSH2 0x12A5 DUP2 DUP5 PUSH2 0x29CD JUMP JUMPDEST MLOAD SWAP4 DUP1 SLOAD PUSH1 0x1 PUSH1 0x40 SHL DUP2 LT ISZERO PUSH2 0xC6E JUMPI PUSH2 0x12C4 SWAP2 PUSH1 0x1 DUP3 ADD DUP2 SSTORE PUSH2 0x255B JUMP JUMPDEST PUSH2 0x625 JUMPI DUP5 MLOAD DUP2 SLOAD PUSH1 0x20 DUP8 ADD MLOAD PUSH1 0x40 DUP9 ADD MLOAD PUSH1 0x60 DUP10 ADD MLOAD PUSH4 0xFFFFFFFF NOT SWAP1 SWAP4 AND PUSH1 0xFF SWAP5 SWAP1 SWAP5 AND SWAP4 SWAP1 SWAP4 OR SWAP1 ISZERO ISZERO PUSH1 0x8 SHL PUSH2 0xFF00 AND OR PUSH1 0x10 SWAP3 SWAP1 SWAP3 SHL PUSH3 0xFF0000 AND SWAP2 SWAP1 SWAP2 OR PUSH1 0x18 SWAP2 SWAP1 SWAP2 SHL PUSH4 0xFF000000 AND OR DUP2 SSTORE PUSH1 0xC0 SWAP1 PUSH1 0x1 SWAP1 PUSH1 0x80 DUP8 ADD MLOAD PUSH6 0xFFFF00000000 DUP3 SLOAD SWAP2 PUSH1 0x20 SHL AND DUP1 PUSH6 0xFFFF00000000 NOT DUP4 AND OR DUP4 SSTORE PUSH8 0xFFFF000000000000 PUSH1 0xA0 DUP11 ADD MLOAD PUSH1 0x30 SHL AND SWAP2 PUSH8 0xFFFFFFFF00000000 NOT AND OR OR DUP2 SSTORE ADD SWAP5 ADD MLOAD SWAP4 DUP5 MLOAD PUSH1 0x1 PUSH1 0x1 PUSH1 0x40 SHL SUB DUP2 GT PUSH2 0xC6E JUMPI PUSH2 0x137F DUP3 SLOAD PUSH2 0x2574 JUMP JUMPDEST PUSH1 0x1F DUP2 GT PUSH2 0x142F JUMPI JUMPDEST POP PUSH1 0x20 PUSH1 0x1F DUP3 GT PUSH1 0x1 EQ PUSH2 0x13CA JUMPI DUP2 SWAP1 PUSH1 0x1 SWAP6 SWAP7 SWAP8 PUSH0 SWAP3 PUSH2 0x13BF JUMPI JUMPDEST POP POP PUSH0 NOT PUSH1 0x3 DUP4 SWAP1 SHL SHR NOT AND SWAP1 DUP5 SHL OR SWAP1 SSTORE JUMPDEST ADD SWAP2 SWAP1 PUSH2 0x1285 JUMP JUMPDEST ADD MLOAD SWAP1 POP DUP8 DUP1 PUSH2 0x13A4 JUMP JUMPDEST PUSH1 0x1F NOT DUP3 AND SWAP7 DUP4 PUSH0 MSTORE DUP2 PUSH0 KECCAK256 SWAP8 PUSH0 JUMPDEST DUP2 DUP2 LT PUSH2 0x1417 JUMPI POP SWAP2 PUSH1 0x1 SWAP7 SWAP8 SWAP9 SWAP2 DUP5 DUP9 SWAP6 SWAP5 LT PUSH2 0x13FF JUMPI JUMPDEST POP POP POP DUP2 SHL ADD SWAP1 SSTORE PUSH2 0x13B7 JUMP JUMPDEST ADD MLOAD PUSH0 NOT PUSH1 0xF8 DUP5 PUSH1 0x3 SHL AND SHR NOT AND SWAP1 SSTORE DUP8 DUP1 DUP1 PUSH2 0x13F2 JUMP JUMPDEST SWAP3 SWAP9 PUSH1 0x20 PUSH1 0x1 DUP2 SWAP3 DUP13 DUP7 ADD MLOAD DUP2 SSTORE ADD SWAP11 ADD SWAP4 ADD PUSH2 0x13D9 JUMP JUMPDEST PUSH2 0x145A SWAP1 DUP4 PUSH0 MSTORE PUSH1 0x20 PUSH0 KECCAK256 PUSH1 0x1F DUP5 ADD PUSH1 0x5 SHR DUP2 ADD SWAP2 PUSH1 0x20 DUP6 LT PUSH2 0x1460 JUMPI JUMPDEST PUSH1 0x1F ADD PUSH1 0x5 SHR ADD SWAP1 PUSH2 0x29B7 JUMP JUMPDEST DUP7 PUSH2 0x1388 JUMP JUMPDEST SWAP1 SWAP2 POP DUP2 SWAP1 PUSH2 0x144D JUMP JUMPDEST SWAP1 DUP2 DUP1 PUSH2 0x15FC JUMPI JUMPDEST PUSH2 0x1564 JUMPI JUMPDEST DUP2 ISZERO PUSH2 0x1537 JUMPI PUSH32 0x96C735A49BCE91AAB0B6663393DAAB7D5EE7F5266D15F08B1439F20DECDBCD5 PUSH2 0x14F4 PUSH1 0xFF PUSH1 0x3 JUMPDEST AND SWAP3 PUSH2 0x14B1 DUP5 PUSH2 0x28B5 JUMP JUMPDEST SWAP4 PUSH2 0x14BF PUSH1 0x40 MLOAD SWAP6 DUP7 PUSH2 0x25E3 JUMP JUMPDEST DUP1 DUP6 MSTORE PUSH2 0x14CE PUSH1 0x1F NOT SWAP2 PUSH2 0x28B5 JUMP JUMPDEST ADD CALLDATASIZE PUSH1 0x20 DUP7 ADD CALLDATACOPY PUSH2 0x1503 PUSH1 0x40 MLOAD SWAP3 DUP4 SWAP3 DUP8 ISZERO ISZERO DUP5 MSTORE PUSH1 0x60 PUSH1 0x20 DUP6 ADD MSTORE PUSH1 0x60 DUP5 ADD SWAP1 PUSH2 0x230D JUMP JUMPDEST DUP3 DUP2 SUB PUSH1 0x40 DUP5 ADD MSTORE CALLER SWAP6 PUSH2 0x248C JUMP JUMPDEST SUB SWAP1 LOG2 PUSH2 0x151E JUMPI JUMPDEST PUSH1 0x1 PUSH0 MLOAD PUSH1 0x20 PUSH2 0x2F4C PUSH0 CODECOPY PUSH0 MLOAD SWAP1 PUSH0 MSTORE SSTORE STOP JUMPDEST CALLER PUSH0 MSTORE PUSH1 0x5 PUSH1 0x20 MSTORE PUSH2 0x1532 PUSH1 0x40 PUSH0 KECCAK256 PUSH2 0x29E1 JUMP JUMPDEST PUSH2 0x150B JUMP JUMPDEST PUSH32 0x96C735A49BCE91AAB0B6663393DAAB7D5EE7F5266D15F08B1439F20DECDBCD5 PUSH2 0x14F4 PUSH1 0xFF PUSH1 0x1 PUSH2 0x14A6 JUMP JUMPDEST PUSH1 0x2 SLOAD PUSH1 0x40 MLOAD PUSH4 0xF925B741 PUSH1 0xE0 SHL DUP2 MSTORE CALLER PUSH1 0x4 DUP3 ADD MSTORE PUSH0 PUSH1 0x24 DUP3 ADD DUP2 SWAP1 MSTORE PUSH1 0x5 PUSH1 0x44 DUP4 ADD MSTORE SWAP1 SWAP2 PUSH1 0x20 SWAP2 DUP4 SWAP2 PUSH1 0x64 SWAP2 DUP4 SWAP2 PUSH1 0x1 PUSH1 0x1 PUSH1 0xA0 SHL SUB AND GAS CALL DUP1 ISZERO PUSH2 0x66E JUMPI PUSH0 SWAP1 PUSH2 0x15C8 JUMPI JUMPDEST PUSH2 0x15C3 SWAP2 POP CALLER PUSH0 MSTORE PUSH1 0x7 PUSH1 0x20 MSTORE PUSH1 0x40 PUSH0 KECCAK256 PUSH2 0x26FD JUMP JUMPDEST PUSH2 0x1477 JUMP JUMPDEST POP PUSH1 0x20 DUP2 RETURNDATASIZE PUSH1 0x20 GT PUSH2 0x15F4 JUMPI JUMPDEST DUP2 PUSH2 0x15E2 PUSH1 0x20 SWAP4 DUP4 PUSH2 0x25E3 JUMP JUMPDEST DUP2 ADD SUB SLT PUSH2 0x1B0 JUMPI PUSH2 0x15C3 SWAP1 MLOAD PUSH2 0x15AD JUMP JUMPDEST RETURNDATASIZE SWAP2 POP PUSH2 0x15D5 JUMP JUMPDEST POP PUSH1 0x2 SLOAD PUSH1 0x1 PUSH1 0x1 PUSH1 0xA0 SHL SUB AND ISZERO ISZERO PUSH2 0x1472 JUMP JUMPDEST PUSH1 0x1 PUSH1 0x1 PUSH1 0xFF SHL SUB DUP3 AND DUP3 SUB PUSH2 0x1110 JUMPI PUSH0 MSTORE PUSH1 0x20 PUSH0 KECCAK256 SWAP1 PUSH1 0x1 SHL DUP2 ADD SWAP1 JUMPDEST DUP2 DUP2 LT ISZERO PUSH2 0x127F JUMPI DUP1 PUSH0 PUSH1 0x2 SWAP3 SSTORE PUSH1 0x1 DUP2 ADD PUSH2 0x164A DUP2 SLOAD PUSH2 0x2574 JUMP JUMPDEST SWAP1 DUP2 PUSH2 0x1659 JUMPI JUMPDEST POP POP ADD PUSH2 0x162E JUMP JUMPDEST DUP2 PUSH1 0x1F PUSH0 SWAP4 GT PUSH1 0x1 EQ PUSH2 0x1670 JUMPI POP SSTORE JUMPDEST DUP6 DUP1 PUSH2 0x1651 JUMP JUMPDEST DUP2 DUP4 MSTORE PUSH1 0x20 DUP4 KECCAK256 PUSH2 0x168C SWAP2 PUSH1 0x1F ADD PUSH1 0x5 SHR DUP2 ADD SWAP1 PUSH1 0x1 ADD PUSH2 0x29B7 JUMP JUMPDEST DUP1 DUP3 MSTORE DUP2 PUSH1 0x20 DUP2 KECCAK256 SWAP2 SSTORE SSTORE PUSH2 0x1669 JUMP JUMPDEST PUSH2 0x16A8 PUSH2 0xFFFF SWAP2 PUSH2 0x2A9C JUMP JUMPDEST AND PUSH2 0xFFFF NOT DUP3 SLOAD AND OR DUP2 SSTORE PUSH6 0xFFFFFFFF0000 NOT DUP2 SLOAD AND SWAP1 SSTORE DUP3 DUP1 PUSH2 0x1244 JUMP JUMPDEST PUSH1 0x2 DUP2 ADD PUSH2 0x16D5 DUP2 SLOAD PUSH2 0x2B9C JUMP JUMPDEST SWAP1 SSTORE PUSH1 0x19 PUSH4 0xFFFFFFFF DUP3 SLOAD PUSH1 0x10 SHR AND ADD PUSH4 0xFFFFFFFF DUP2 GT PUSH2 0x1110 JUMPI DUP2 SLOAD PUSH6 0xFFFFFFFF0000 NOT AND PUSH1 0x10 SWAP2 SWAP1 SWAP2 SHL PUSH6 0xFFFFFFFF0000 AND OR DUP2 SSTORE PUSH2 0x1220 JUMP JUMPDEST DUP1 PUSH2 0x171E PUSH1 0x1 SWAP3 DUP5 PUSH2 0x29CD JUMP JUMPDEST MLOAD PUSH2 0x1729 DUP3 DUP9 PUSH2 0x29CD JUMP JUMPDEST MSTORE PUSH2 0x1734 DUP2 DUP8 PUSH2 0x29CD JUMP JUMPDEST POP ADD PUSH2 0x11BD JUMP JUMPDEST PUSH1 0x20 SWAP1 PUSH1 0x40 MLOAD PUSH2 0x174A DUP2 PUSH2 0x25AC JUMP JUMPDEST PUSH0 DUP2 MSTORE PUSH0 DUP4 DUP3 ADD MSTORE PUSH0 PUSH1 0x40 DUP3 ADD MSTORE PUSH0 PUSH1 0x60 DUP3 ADD MSTORE PUSH0 PUSH1 0x80 DUP3 ADD MSTORE PUSH0 PUSH1 0xA0 DUP3 ADD MSTORE PUSH1 0x60 PUSH1 0xC0 DUP3 ADD MSTORE DUP3 DUP3 DUP10 ADD ADD MSTORE ADD PUSH2 0x11B2 JUMP JUMPDEST POP POP PUSH2 0x1189 JUMP JUMPDEST SWAP1 POP ISZERO DUP9 PUSH2 0x10C5 JUMP JUMPDEST POP SWAP8 SWAP3 SWAP2 SWAP7 SWAP1 SWAP6 SWAP5 SWAP4 SWAP8 PUSH2 0x10BC JUMP JUMPDEST POP SWAP1 SWAP2 SWAP3 SWAP4 SWAP5 PUSH2 0x1082 JUMP JUMPDEST POP POP SWAP4 POP SWAP1 POP PUSH2 0x1156 JUMP JUMPDEST PUSH1 0x20 SWAP1 PUSH1 0x40 MLOAD PUSH2 0x17C1 DUP2 PUSH2 0x25AC JUMP JUMPDEST PUSH0 DUP2 MSTORE PUSH0 DUP4 DUP3 ADD MSTORE PUSH0 PUSH1 0x40 DUP3 ADD MSTORE PUSH0 PUSH1 0x60 DUP3 ADD MSTORE PUSH0 PUSH1 0x80 DUP3 ADD MSTORE PUSH0 PUSH1 0xA0 DUP3 ADD MSTORE PUSH1 0x60 PUSH1 0xC0 DUP3 ADD MSTORE DUP3 DUP3 DUP7 ADD ADD MSTORE ADD PUSH2 0x102E JUMP JUMPDEST DUP2 CALLDATALOAD DUP2 MSTORE PUSH1 0x20 SWAP2 DUP3 ADD SWAP2 ADD PUSH2 0xAE0 JUMP JUMPDEST SWAP1 SWAP3 POP CALLER PUSH0 MSTORE PUSH1 0x3 PUSH1 0x20 MSTORE PUSH1 0x40 PUSH0 KECCAK256 PUSH1 0x40 MLOAD PUSH1 0x80 DUP2 ADD DUP2 DUP2 LT PUSH1 0x1 PUSH1 0x1 PUSH1 0x40 SHL SUB DUP3 GT OR PUSH2 0xC6E JUMPI PUSH1 0x40 MSTORE PUSH1 0x60 PUSH1 0x2 DUP4 SLOAD SWAP4 PUSH4 0xFFFFFFFF PUSH2 0xFFFF DUP7 AND SWAP6 DUP7 DUP7 MSTORE PUSH1 0x10 SHR AND PUSH1 0x20 DUP6 ADD MSTORE PUSH1 0x1 DUP2 ADD SLOAD PUSH1 0x40 DUP6 ADD MSTORE ADD SLOAD SWAP2 ADD MSTORE DUP1 ISZERO ISZERO PUSH0 EQ PUSH2 0x1B05 JUMPI PUSH1 0x20 PUSH1 0x4 SWAP2 SWAP3 JUMPDEST PUSH1 0x40 MLOAD PUSH4 0x18160DDD PUSH1 0xE0 SHL DUP2 MSTORE SWAP3 DUP4 SWAP2 DUP3 SWAP1 GAS STATICCALL SWAP1 DUP2 ISZERO PUSH2 0x66E JUMPI PUSH0 SWAP2 PUSH2 0x1AD3 JUMPI JUMPDEST POP PUSH1 0x40 MLOAD PUSH1 0x20 DUP2 ADD SWAP2 TIMESTAMP DUP4 MSTORE CALLER PUSH1 0x60 SHL PUSH1 0x40 DUP4 ADD MSTORE PUSH2 0xFFFF PUSH1 0xF0 SHL DUP5 PUSH1 0xF0 SHL AND PUSH1 0x54 DUP4 ADD MSTORE PUSH1 0x56 DUP3 ADD MSTORE PREVRANDAO PUSH1 0x76 DUP3 ADD MSTORE PUSH1 0x76 DUP2 MSTORE PUSH2 0x18CD PUSH1 0x96 DUP3 PUSH2 0x25E3 JUMP JUMPDEST MLOAD SWAP1 KECCAK256 CALLER PUSH0 MSTORE PUSH1 0x5 PUSH1 0x20 MSTORE PUSH2 0x18E4 PUSH1 0x40 PUSH0 KECCAK256 PUSH2 0x29E1 JUMP JUMPDEST PUSH0 JUMPDEST PUSH1 0x4 DUP2 LT PUSH2 0x198A JUMPI POP POP PUSH1 0x40 PUSH32 0xE21EBBECD481BD92987E725A0057707F7154C465084EBCC68CD42FF028DA5E6B SWAP2 PUSH2 0xFFFF DUP3 MLOAD SWAP2 CALLER DUP4 MSTORE AND PUSH1 0x20 DUP3 ADD MSTORE LOG1 CALLER PUSH0 MSTORE PUSH1 0x5 PUSH1 0x20 MSTORE PUSH1 0x40 PUSH0 KECCAK256 DUP1 SLOAD PUSH2 0x193B DUP2 PUSH2 0x28B5 JUMP JUMPDEST SWAP2 PUSH2 0x1949 PUSH1 0x40 MLOAD SWAP4 DUP5 PUSH2 0x25E3 JUMP JUMPDEST DUP2 DUP4 MSTORE PUSH1 0x20 DUP4 ADD SWAP1 PUSH0 MSTORE PUSH1 0x20 PUSH0 KECCAK256 PUSH0 SWAP2 JUMPDEST DUP4 DUP4 LT PUSH2 0x196C JUMPI POP POP POP POP SWAP2 DUP5 PUSH2 0xA52 JUMP JUMPDEST PUSH1 0x3 PUSH1 0x20 PUSH1 0x1 SWAP3 PUSH2 0x197C DUP6 PUSH2 0x28D8 JUMP JUMPDEST DUP2 MSTORE ADD SWAP3 ADD SWAP3 ADD SWAP2 SWAP1 PUSH2 0x195A JUMP JUMPDEST PUSH2 0x1992 PUSH2 0x2731 JUMP JUMPDEST SWAP1 PUSH0 DUP3 MSTORE DUP1 PUSH1 0x3 SHL DUP2 ISZERO SWAP1 DUP3 DUP2 DIV PUSH1 0x8 EQ DUP3 OR ISZERO PUSH2 0x1110 JUMPI PUSH1 0x3 DUP6 PUSH1 0xFF SWAP3 SHR MOD AND PUSH2 0x19BC DUP2 PUSH2 0x23BB JUMP JUMPDEST PUSH2 0x19C5 DUP2 PUSH2 0x23BB JUMP JUMPDEST PUSH1 0x40 DUP5 ADD MSTORE PUSH0 PUSH1 0x60 DUP5 ADD MSTORE DUP2 PUSH1 0x4 SHL DUP3 DUP2 DIV PUSH1 0x10 EQ DUP3 OR ISZERO PUSH2 0x1110 JUMPI DUP5 PUSH1 0x3 SWAP2 SHR AND PUSH1 0x4 DUP2 LT ISZERO PUSH2 0x679 JUMPI PUSH2 0x19FD SWAP1 PUSH1 0x80 DUP6 ADD PUSH2 0x28CC JUMP JUMPDEST PUSH2 0x1A0C PUSH1 0xFF DUP7 PUSH1 0x2 SHR AND PUSH2 0x277B JUMP JUMPDEST SWAP1 DUP3 PUSH1 0x5 SHL DUP4 DUP2 DIV PUSH1 0x20 EQ DUP3 OR ISZERO PUSH2 0x1110 JUMPI PUSH1 0x8 DUP2 ADD DUP1 SWAP2 GT PUSH2 0x1110 JUMPI PUSH2 0x1A3C PUSH1 0xFF PUSH1 0x6 DUP9 DUP3 SWAP5 SHR MOD AND DUP5 PUSH2 0x278C JUMP JUMPDEST AND PUSH1 0xA0 DUP6 ADD MSTORE PUSH1 0x28 DUP4 MUL DUP4 DUP2 DIV PUSH1 0x28 EQ DUP3 OR ISZERO PUSH2 0x1110 JUMPI PUSH2 0x1A66 PUSH1 0xFF PUSH1 0x6 DUP9 DUP3 SWAP5 SHR MOD AND DUP5 PUSH2 0x278C JUMP JUMPDEST AND PUSH1 0xC0 DUP6 ADD MSTORE PUSH1 0x30 DUP4 MUL SWAP1 DUP4 DUP3 DIV PUSH1 0x30 EQ OR ISZERO PUSH2 0x1110 JUMPI PUSH1 0xFF SWAP2 DUP3 PUSH1 0x6 DUP8 PUSH2 0x1A91 SWAP5 SHR MOD AND SWAP1 PUSH2 0x278C JUMP JUMPDEST AND PUSH1 0xE0 DUP4 ADD MSTORE CALLER PUSH0 MSTORE PUSH1 0x5 PUSH1 0x20 MSTORE PUSH1 0x40 PUSH0 KECCAK256 SWAP2 DUP3 SLOAD SWAP1 PUSH1 0x1 PUSH1 0x40 SHL DUP3 LT ISZERO PUSH2 0xC6E JUMPI PUSH2 0x1AC7 DUP3 PUSH1 0x1 SWAP6 DUP7 PUSH2 0x1ACD SWAP6 ADD DUP2 SSTORE PUSH2 0x26A4 JUMP JUMPDEST SWAP1 PUSH2 0x27A0 JUMP JUMPDEST ADD PUSH2 0x18E6 JUMP JUMPDEST SWAP1 POP PUSH1 0x20 DUP2 RETURNDATASIZE PUSH1 0x20 GT PUSH2 0x1AFD JUMPI JUMPDEST DUP2 PUSH2 0x1AEE PUSH1 0x20 SWAP4 DUP4 PUSH2 0x25E3 JUMP JUMPDEST DUP2 ADD SUB SLT PUSH2 0x1B0 JUMPI MLOAD DUP6 PUSH2 0x188E JUMP JUMPDEST RETURNDATASIZE SWAP2 POP PUSH2 0x1AE1 JUMP JUMPDEST POP PUSH1 0x4 PUSH1 0x20 PUSH1 0x1 SWAP3 PUSH2 0x186C JUMP JUMPDEST PUSH1 0x3 PUSH1 0x20 PUSH1 0x1 SWAP3 PUSH2 0x1B22 DUP6 PUSH2 0x28D8 JUMP JUMPDEST DUP2 MSTORE ADD SWAP3 ADD SWAP3 ADD SWAP2 SWAP1 PUSH2 0xA3F JUMP JUMPDEST PUSH1 0x40 MLOAD PUSH3 0x461BCD PUSH1 0xE5 SHL DUP2 MSTORE PUSH1 0x20 PUSH1 0x4 DUP3 ADD MSTORE PUSH1 0x12 PUSH1 0x24 DUP3 ADD MSTORE PUSH18 0x5465616D2073697A6520342D38206F6E6C79 PUSH1 0x70 SHL PUSH1 0x44 DUP3 ADD MSTORE PUSH1 0x64 SWAP1 REVERT JUMPDEST POP PUSH1 0x8 DUP3 GT ISZERO PUSH2 0x926 JUMP JUMPDEST CALLVALUE PUSH2 0x1B0 JUMPI PUSH1 0x20 CALLDATASIZE PUSH1 0x3 NOT ADD SLT PUSH2 0x1B0 JUMPI PUSH2 0x1B8E PUSH2 0x22D3 JUMP JUMPDEST PUSH2 0x1B96 PUSH2 0x2AAF JUMP JUMPDEST PUSH1 0x1 DUP1 SLOAD PUSH1 0x1 PUSH1 0x1 PUSH1 0xA0 SHL SUB NOT AND PUSH1 0x1 PUSH1 0x1 PUSH1 0xA0 SHL SUB SWAP3 SWAP1 SWAP3 AND SWAP2 SWAP1 SWAP2 OR SWAP1 SSTORE STOP JUMPDEST CALLVALUE PUSH2 0x1B0 JUMPI PUSH0 CALLDATASIZE PUSH1 0x3 NOT ADD SLT PUSH2 0x1B0 JUMPI PUSH2 0x1BD0 PUSH2 0x2AAF JUMP JUMPDEST PUSH0 DUP1 SLOAD PUSH1 0x1 PUSH1 0x1 PUSH1 0xA0 SHL SUB NOT DUP2 AND DUP3 SSTORE PUSH1 0x1 PUSH1 0x1 PUSH1 0xA0 SHL SUB AND PUSH32 0x8BE0079C531659141344CD1FD0A4F28419497F9722A3DAAFE3B4186F6B6457E0 DUP3 DUP1 LOG3 STOP JUMPDEST CALLVALUE PUSH2 0x1B0 JUMPI PUSH1 0x20 CALLDATASIZE PUSH1 0x3 NOT ADD SLT PUSH2 0x1B0 JUMPI PUSH1 0x1 PUSH1 0x1 PUSH1 0xA0 SHL SUB PUSH2 0x1C30 PUSH2 0x22D3 JUMP JUMPDEST AND PUSH0 MSTORE PUSH1 0x6 PUSH1 0x20 MSTORE PUSH2 0x2D9 PUSH2 0x468 PUSH1 0x40 PUSH0 KECCAK256 PUSH2 0x296F JUMP JUMPDEST CALLVALUE PUSH2 0x1B0 JUMPI PUSH0 CALLDATASIZE PUSH1 0x3 NOT ADD SLT PUSH2 0x1B0 JUMPI PUSH1 0x20 PUSH1 0xFF PUSH0 SLOAD PUSH1 0xA0 SHR AND PUSH1 0x40 MLOAD SWAP1 ISZERO ISZERO DUP2 MSTORE RETURN JUMPDEST CALLVALUE PUSH2 0x1B0 JUMPI PUSH1 0x40 CALLDATASIZE PUSH1 0x3 NOT ADD SLT PUSH2 0x1B0 JUMPI PUSH2 0x1C84 PUSH2 0x22D3 JUMP JUMPDEST PUSH1 0x1 PUSH1 0x1 PUSH1 0xA0 SHL SUB AND PUSH0 SWAP1 DUP2 MSTORE PUSH1 0x6 PUSH1 0x20 MSTORE PUSH1 0x40 SWAP1 KECCAK256 DUP1 SLOAD PUSH1 0x24 CALLDATALOAD SWAP2 SWAP1 DUP3 LT ISZERO PUSH2 0x1B0 JUMPI PUSH1 0x20 SWAP2 PUSH2 0x1A1 SWAP2 PUSH2 0x2463 JUMP JUMPDEST CALLVALUE PUSH2 0x1B0 JUMPI PUSH1 0x20 CALLDATASIZE PUSH1 0x3 NOT ADD SLT PUSH2 0x1B0 JUMPI PUSH2 0x1CCD PUSH2 0x22D3 JUMP JUMPDEST PUSH1 0xA0 PUSH1 0x40 MLOAD PUSH2 0x1CDD PUSH1 0xA0 DUP3 PUSH2 0x25E3 JUMP JUMPDEST PUSH0 JUMPDEST DUP3 DUP2 LT PUSH2 0x1D6F JUMPI DUP4 PUSH1 0x1 DUP1 PUSH1 0xA0 SHL SUB AND PUSH0 MSTORE PUSH1 0x4 PUSH1 0x20 MSTORE PUSH1 0x40 PUSH0 KECCAK256 PUSH1 0x40 MLOAD SWAP1 PUSH1 0xA0 DUP3 ADD DUP3 DUP2 LT PUSH1 0x1 PUSH1 0x1 PUSH1 0x40 SHL SUB DUP3 GT OR PUSH2 0xC6E JUMPI PUSH1 0x40 MSTORE PUSH0 DUP3 JUMPDEST PUSH1 0x5 DUP3 LT PUSH2 0x1D51 JUMPI PUSH1 0x40 MLOAD DUP5 PUSH0 DUP3 JUMPDEST PUSH1 0x5 DUP3 LT PUSH2 0x1D37 JUMPI PUSH2 0x640 DUP5 RETURN JUMPDEST PUSH1 0x20 PUSH2 0x1D46 PUSH1 0x1 SWAP3 DUP6 MLOAD PUSH2 0x23D2 JUMP JUMPDEST SWAP4 ADD SWAP2 ADD SWAP1 SWAP2 PUSH2 0x1D29 JUMP JUMPDEST PUSH1 0x3 PUSH1 0x20 PUSH1 0x1 SWAP3 PUSH2 0x1D61 DUP7 PUSH2 0x28D8 JUMP JUMPDEST DUP2 MSTORE ADD SWAP4 ADD SWAP2 ADD SWAP1 SWAP2 PUSH2 0x1D1A JUMP JUMPDEST PUSH1 0x20 SWAP1 PUSH2 0x1D7A PUSH2 0x2731 JUMP JUMPDEST DUP2 DUP5 ADD MSTORE ADD PUSH2 0x1CDF JUMP JUMPDEST CALLVALUE PUSH2 0x1B0 JUMPI PUSH0 CALLDATASIZE PUSH1 0x3 NOT ADD SLT PUSH2 0x1B0 JUMPI PUSH2 0x1D9C PUSH2 0x2AAF JUMP JUMPDEST PUSH0 SLOAD PUSH1 0xFF DUP2 PUSH1 0xA0 SHR AND ISZERO PUSH2 0x1DE1 JUMPI PUSH1 0xFF PUSH1 0xA0 SHL NOT AND PUSH0 SSTORE PUSH1 0x40 MLOAD CALLER DUP2 MSTORE PUSH32 0x5DB9EE0A495BF2E6FF9C91A7834C1BA4FDD244A5E8AA4E537BD38AEAE4B073AA SWAP1 PUSH1 0x20 SWAP1 LOG1 STOP JUMPDEST PUSH4 0x8DFC202B PUSH1 0xE0 SHL PUSH0 MSTORE PUSH1 0x4 PUSH0 REVERT JUMPDEST CALLVALUE PUSH2 0x1B0 JUMPI PUSH0 CALLDATASIZE PUSH1 0x3 NOT ADD SLT PUSH2 0x1B0 JUMPI PUSH2 0x1E08 PUSH2 0x2AAF JUMP JUMPDEST PUSH0 DUP1 SLOAD DUP2 SWAP1 DUP2 SWAP1 DUP2 SWAP1 SELFBALANCE SWAP1 PUSH1 0x1 PUSH1 0x1 PUSH1 0xA0 SHL SUB AND DUP3 DUP3 ISZERO PUSH2 0x1E2C JUMPI JUMPDEST CALL ISZERO PUSH2 0x66E JUMPI STOP JUMPDEST POP PUSH2 0x8FC PUSH2 0x1E24 JUMP JUMPDEST CALLVALUE PUSH2 0x1B0 JUMPI PUSH1 0x20 CALLDATASIZE PUSH1 0x3 NOT ADD SLT PUSH2 0x1B0 JUMPI PUSH1 0x1 PUSH1 0x1 PUSH1 0xA0 SHL SUB PUSH2 0x1E56 PUSH2 0x22D3 JUMP JUMPDEST AND DUP1 PUSH0 MSTORE PUSH1 0x8 PUSH1 0x20 MSTORE PUSH1 0xFF PUSH1 0x40 PUSH0 KECCAK256 SLOAD AND SWAP1 PUSH0 MSTORE PUSH1 0x9 PUSH1 0x20 MSTORE PUSH1 0x40 PUSH0 KECCAK256 SWAP1 DUP2 SLOAD PUSH2 0x1E7F DUP2 PUSH2 0x28B5 JUMP JUMPDEST SWAP3 PUSH2 0x1E8D PUSH1 0x40 MLOAD SWAP5 DUP6 PUSH2 0x25E3 JUMP JUMPDEST DUP2 DUP5 MSTORE PUSH1 0x20 DUP5 ADD SWAP1 PUSH0 MSTORE PUSH1 0x20 PUSH0 KECCAK256 PUSH0 SWAP2 JUMPDEST DUP4 DUP4 LT PUSH2 0x1EC5 JUMPI DUP6 DUP6 PUSH2 0x2D9 PUSH1 0x40 MLOAD SWAP3 DUP4 SWAP3 ISZERO ISZERO DUP4 MSTORE PUSH1 0x40 PUSH1 0x20 DUP5 ADD MSTORE PUSH1 0x40 DUP4 ADD SWAP1 PUSH2 0x230D JUMP JUMPDEST PUSH1 0x2 PUSH1 0x20 PUSH1 0x1 SWAP3 PUSH1 0x40 MLOAD PUSH2 0x1ED8 DUP2 PUSH2 0x25AC JUMP JUMPDEST PUSH2 0xFFFF DUP7 SLOAD PUSH1 0xFF DUP2 AND DUP4 MSTORE PUSH1 0xFF DUP2 PUSH1 0x8 SHR AND ISZERO ISZERO DUP6 DUP5 ADD MSTORE PUSH1 0xFF DUP2 PUSH1 0x10 SHR AND PUSH1 0x40 DUP5 ADD MSTORE PUSH1 0xFF DUP2 PUSH1 0x18 SHR AND PUSH1 0x60 DUP5 ADD MSTORE DUP2 DUP2 DUP7 SHR AND PUSH1 0x80 DUP5 ADD MSTORE PUSH1 0x30 SHR AND PUSH1 0xA0 DUP3 ADD MSTORE PUSH2 0x1F26 DUP6 DUP8 ADD PUSH2 0x2604 JUMP JUMPDEST PUSH1 0xC0 DUP3 ADD MSTORE DUP2 MSTORE ADD SWAP3 ADD SWAP3 ADD SWAP2 SWAP1 PUSH2 0x1E9E JUMP JUMPDEST PUSH0 CALLDATASIZE PUSH1 0x3 NOT ADD SLT PUSH2 0x1B0 JUMPI PUSH2 0x1F4C PUSH2 0x2A2C JUMP JUMPDEST PUSH2 0x1F54 PUSH2 0x2A49 JUMP JUMPDEST PUSH2 0x1F5E CALLVALUE ISZERO PUSH2 0x26BD JUMP JUMPDEST PUSH1 0x40 DUP1 MLOAD TIMESTAMP PUSH1 0x20 DUP3 ADD SWAP1 DUP2 MSTORE CALLER PUSH1 0x60 SHL PUSH12 0xFFFFFFFFFFFFFFFFFFFFFFFF NOT AND SWAP3 DUP3 ADD SWAP3 SWAP1 SWAP3 MSTORE PREVRANDAO PUSH1 0x54 DUP3 ADD MSTORE PUSH2 0x1F97 DUP2 PUSH1 0x74 DUP2 ADD PUSH2 0xA88 JUMP JUMPDEST MLOAD SWAP1 KECCAK256 PUSH0 JUMPDEST PUSH1 0x5 DUP2 LT PUSH2 0x1FE1 JUMPI PUSH32 0xB1B757AFEC988E099A59BC127ABEA15824BF7ACC7137103E4197EF22A9AFAD11 PUSH1 0x20 PUSH1 0x40 MLOAD CALLER DUP2 MSTORE LOG1 PUSH1 0x1 PUSH0 MLOAD PUSH1 0x20 PUSH2 0x2F4C PUSH0 CODECOPY PUSH0 MLOAD SWAP1 PUSH0 MSTORE SSTORE STOP JUMPDEST PUSH2 0x1FE9 PUSH2 0x2731 JUMP JUMPDEST SWAP1 PUSH1 0x1 DUP3 MSTORE PUSH0 PUSH1 0x20 DUP4 ADD MSTORE DUP1 PUSH1 0x3 SHL DUP2 ISZERO SWAP1 DUP3 DUP2 DIV PUSH1 0x8 EQ DUP3 OR ISZERO PUSH2 0x1110 JUMPI PUSH1 0x6 DUP6 PUSH1 0xFF SWAP3 SHR MOD AND PUSH2 0x100 DUP5 ADD MSTORE DUP2 PUSH1 0x4 SHL SWAP1 DUP3 DUP3 DIV PUSH1 0x10 EQ OR ISZERO PUSH2 0x1110 JUMPI PUSH1 0x1 SWAP3 PUSH1 0xFF PUSH2 0x2040 DUP2 PUSH1 0x12 DUP9 PUSH2 0x205C SWAP7 SHR MOD AND PUSH2 0x277B JUMP JUMPDEST AND PUSH2 0x120 DUP3 ADD MSTORE CALLER PUSH0 MSTORE PUSH1 0x4 PUSH1 0x20 MSTORE PUSH2 0x1AC7 DUP4 PUSH1 0x40 PUSH0 KECCAK256 PUSH2 0x24D9 JUMP JUMPDEST ADD PUSH2 0x1F9C JUMP JUMPDEST PUSH0 CALLDATASIZE PUSH1 0x3 NOT ADD SLT PUSH2 0x1B0 JUMPI PUSH2 0x2075 PUSH2 0x2A2C JUMP JUMPDEST PUSH2 0x207D PUSH2 0x2A49 JUMP JUMPDEST PUSH2 0x2087 CALLVALUE ISZERO PUSH2 0x26BD JUMP JUMPDEST PUSH1 0x1 SLOAD PUSH1 0x40 MLOAD PUSH4 0x18160DDD PUSH1 0xE0 SHL DUP2 MSTORE PUSH1 0x1 PUSH1 0x1 PUSH1 0xA0 SHL SUB SWAP1 SWAP2 AND SWAP1 PUSH1 0x20 DUP2 PUSH1 0x4 DUP2 DUP6 GAS STATICCALL SWAP1 DUP2 ISZERO PUSH2 0x66E JUMPI PUSH0 SWAP2 PUSH2 0x22A1 JUMPI JUMPDEST POP PUSH0 SWAP2 PUSH1 0xE4 PUSH1 0xFF PUSH1 0x3 PUSH1 0x20 SWAP5 PUSH1 0x40 MLOAD PUSH2 0x20FF DUP2 PUSH2 0xA88 DUP10 DUP3 ADD SWAP5 CALLER TIMESTAMP DUP8 SWAP2 PUSH1 0x54 SWAP4 SWAP2 DUP4 MSTORE PUSH12 0xFFFFFFFFFFFFFFFFFFFFFFFF NOT SWAP1 PUSH1 0x60 SHL AND PUSH1 0x20 DUP4 ADD MSTORE PUSH1 0x34 DUP3 ADD MSTORE ADD SWAP1 JUMP JUMPDEST MLOAD SWAP1 KECCAK256 MOD AND PUSH2 0x210D DUP2 PUSH2 0x23BB JUMP JUMPDEST PUSH1 0x40 MLOAD PUSH4 0xE3BD811 PUSH1 0xE3 SHL DUP2 MSTORE CALLER PUSH1 0x4 DUP3 ADD MSTORE SWAP5 DUP6 SWAP4 DUP5 SWAP3 PUSH2 0x212E DUP2 PUSH2 0x23BB JUMP JUMPDEST PUSH1 0x24 DUP5 ADD MSTORE DUP2 PUSH1 0x44 DUP5 ADD MSTORE DUP2 PUSH1 0x64 DUP5 ADD MSTORE PUSH1 0x5 PUSH1 0x84 DUP5 ADD MSTORE PUSH1 0x5 PUSH1 0xA4 DUP5 ADD MSTORE PUSH1 0x6 PUSH1 0xC4 DUP5 ADD MSTORE GAS CALL SWAP1 DUP2 ISZERO PUSH2 0x66E JUMPI PUSH0 SWAP2 PUSH2 0x226F JUMPI JUMPDEST POP CALLER PUSH0 MSTORE PUSH1 0x6 PUSH1 0x20 MSTORE PUSH2 0x217A DUP2 PUSH1 0x40 PUSH0 KECCAK256 PUSH2 0x26FD JUMP JUMPDEST CALLER PUSH0 MSTORE PUSH1 0x3 PUSH1 0x20 MSTORE PUSH1 0x40 PUSH0 KECCAK256 SWAP1 PUSH2 0xFFFF DUP3 SLOAD AND ISZERO PUSH2 0x225E JUMPI JUMPDEST PUSH1 0xA PUSH4 0xFFFFFFFF DUP4 SLOAD PUSH1 0x10 SHR AND ADD SWAP1 PUSH4 0xFFFFFFFF DUP3 GT PUSH2 0x1110 JUMPI DUP3 PUSH2 0x21F5 PUSH2 0x60F SWAP4 PUSH32 0xDDED256C7E86A19D1BE0F3168D1EC8D5CFC9C713C96BDC10DEFADD014692CF92 SWAP6 SWAP1 PUSH6 0xFFFFFFFF0000 DUP3 SLOAD SWAP2 PUSH1 0x10 SHL AND SWAP1 PUSH6 0xFFFFFFFF0000 NOT AND OR SWAP1 SSTORE JUMP JUMPDEST DUP1 SLOAD PUSH2 0xFFFF DUP2 AND SWAP1 PUSH4 0xFFFFFFFF DUP1 PUSH2 0x220C DUP5 PUSH2 0x2A81 JUMP JUMPDEST AND SWAP2 PUSH1 0x10 SHR AND LT ISZERO PUSH2 0x2233 JUMPI JUMPDEST POP POP PUSH1 0x40 DUP1 MLOAD CALLER DUP2 MSTORE PUSH1 0x20 DUP2 ADD SWAP3 SWAP1 SWAP3 MSTORE SWAP1 SWAP2 DUP3 SWAP2 DUP3 ADD SWAP1 JUMP JUMPDEST PUSH2 0x223F PUSH2 0xFFFF SWAP2 PUSH2 0x2A9C JUMP JUMPDEST AND PUSH2 0xFFFF NOT DUP3 SLOAD AND OR DUP2 SSTORE PUSH6 0xFFFFFFFF0000 NOT DUP2 SLOAD AND SWAP1 SSTORE DUP4 DUP1 PUSH2 0x2219 JUMP JUMPDEST DUP2 SLOAD PUSH2 0xFFFF NOT AND PUSH1 0x1 OR DUP3 SSTORE PUSH2 0x2193 JUMP JUMPDEST SWAP1 POP PUSH1 0x20 DUP2 RETURNDATASIZE PUSH1 0x20 GT PUSH2 0x2299 JUMPI JUMPDEST DUP2 PUSH2 0x228A PUSH1 0x20 SWAP4 DUP4 PUSH2 0x25E3 JUMP JUMPDEST DUP2 ADD SUB SLT PUSH2 0x1B0 JUMPI MLOAD DUP2 PUSH2 0x2164 JUMP JUMPDEST RETURNDATASIZE SWAP2 POP PUSH2 0x227D JUMP JUMPDEST SWAP1 POP PUSH1 0x20 DUP2 RETURNDATASIZE PUSH1 0x20 GT PUSH2 0x22CB JUMPI JUMPDEST DUP2 PUSH2 0x22BC PUSH1 0x20 SWAP4 DUP4 PUSH2 0x25E3 JUMP JUMPDEST DUP2 ADD SUB SLT PUSH2 0x1B0 JUMPI MLOAD PUSH0 PUSH2 0x20BA JUMP JUMPDEST RETURNDATASIZE SWAP2 POP PUSH2 0x22AF JUMP JUMPDEST PUSH1 0x4 CALLDATALOAD SWAP1 PUSH1 0x1 PUSH1 0x1 PUSH1 0xA0 SHL SUB DUP3 AND DUP3 SUB PUSH2 0x1B0 JUMPI JUMP JUMPDEST DUP1 MLOAD DUP1 DUP4 MSTORE PUSH1 0x20 SWAP3 SWAP2 DUP2 SWAP1 DUP5 ADD DUP5 DUP5 ADD MCOPY PUSH0 DUP3 DUP3 ADD DUP5 ADD MSTORE PUSH1 0x1F ADD PUSH1 0x1F NOT AND ADD ADD SWAP1 JUMP JUMPDEST SWAP1 DUP1 PUSH1 0x20 DUP4 MLOAD SWAP2 DUP3 DUP2 MSTORE ADD SWAP2 PUSH1 0x20 DUP1 DUP4 PUSH1 0x5 SHL DUP4 ADD ADD SWAP5 ADD SWAP3 PUSH0 SWAP2 JUMPDEST DUP4 DUP4 LT PUSH2 0x2338 JUMPI POP POP POP POP POP SWAP1 JUMP JUMPDEST SWAP1 SWAP2 SWAP3 SWAP4 SWAP5 PUSH1 0x20 DUP1 PUSH2 0x23AC PUSH1 0x1 SWAP4 PUSH1 0x1F NOT DUP7 DUP3 SUB ADD DUP8 MSTORE PUSH1 0xE0 PUSH1 0xC0 DUP12 MLOAD PUSH1 0xFF DUP2 MLOAD AND DUP5 MSTORE DUP6 DUP2 ADD MLOAD ISZERO ISZERO DUP7 DUP6 ADD MSTORE PUSH1 0xFF PUSH1 0x40 DUP3 ADD MLOAD AND PUSH1 0x40 DUP6 ADD MSTORE PUSH1 0xFF PUSH1 0x60 DUP3 ADD MLOAD AND PUSH1 0x60 DUP6 ADD MSTORE PUSH2 0xFFFF PUSH1 0x80 DUP3 ADD MLOAD AND PUSH1 0x80 DUP6 ADD MSTORE PUSH2 0xFFFF PUSH1 0xA0 DUP3 ADD MLOAD AND PUSH1 0xA0 DUP6 ADD MSTORE ADD MLOAD SWAP2 DUP2 PUSH1 0xC0 DUP3 ADD MSTORE ADD SWAP1 PUSH2 0x22E9 JUMP JUMPDEST SWAP8 ADD SWAP4 ADD SWAP4 ADD SWAP2 SWAP4 SWAP3 SWAP1 PUSH2 0x2329 JUMP JUMPDEST PUSH1 0x3 GT ISZERO PUSH2 0x679 JUMPI JUMP JUMPDEST SWAP1 PUSH1 0x4 DUP3 LT ISZERO PUSH2 0x679 JUMPI MSTORE JUMP JUMPDEST SWAP1 PUSH1 0xFF PUSH2 0x120 PUSH2 0x140 SWAP4 DUP1 MLOAD ISZERO ISZERO DUP5 MSTORE PUSH1 0x20 DUP2 ADD MLOAD PUSH1 0x20 DUP6 ADD MSTORE PUSH1 0x40 DUP2 ADD MLOAD PUSH2 0x23FA DUP2 PUSH2 0x23BB JUMP JUMPDEST PUSH1 0x40 DUP6 ADD MSTORE PUSH1 0x60 DUP2 ADD MLOAD PUSH2 0x240D DUP2 PUSH2 0x23BB JUMP JUMPDEST PUSH1 0x60 DUP6 ADD MSTORE PUSH2 0x2424 PUSH1 0x80 DUP3 ADD MLOAD PUSH1 0x80 DUP7 ADD SWAP1 PUSH2 0x23C5 JUMP JUMPDEST DUP3 PUSH1 0xA0 DUP3 ADD MLOAD AND PUSH1 0xA0 DUP6 ADD MSTORE DUP3 PUSH1 0xC0 DUP3 ADD MLOAD AND PUSH1 0xC0 DUP6 ADD MSTORE DUP3 PUSH1 0xE0 DUP3 ADD MLOAD AND PUSH1 0xE0 DUP6 ADD MSTORE DUP3 PUSH2 0x100 DUP3 ADD MLOAD AND PUSH2 0x100 DUP6 ADD MSTORE ADD MLOAD AND PUSH2 0x120 DUP3 ADD MSTORE ADD SWAP1 JUMP JUMPDEST DUP1 SLOAD DUP3 LT ISZERO PUSH2 0x2478 JUMPI PUSH0 MSTORE PUSH1 0x20 PUSH0 KECCAK256 ADD SWAP1 PUSH0 SWAP1 JUMP JUMPDEST PUSH4 0x4E487B71 PUSH1 0xE0 SHL PUSH0 MSTORE PUSH1 0x32 PUSH1 0x4 MSTORE PUSH1 0x24 PUSH0 REVERT JUMPDEST SWAP1 PUSH1 0x20 DUP1 DUP4 MLOAD SWAP3 DUP4 DUP2 MSTORE ADD SWAP3 ADD SWAP1 PUSH0 JUMPDEST DUP2 DUP2 LT PUSH2 0x24A9 JUMPI POP POP POP SWAP1 JUMP JUMPDEST DUP3 MLOAD DUP5 MSTORE PUSH1 0x20 SWAP4 DUP5 ADD SWAP4 SWAP1 SWAP3 ADD SWAP2 PUSH1 0x1 ADD PUSH2 0x249C JUMP JUMPDEST CALLVALUE PUSH2 0x1B0 JUMPI PUSH0 CALLDATASIZE PUSH1 0x3 NOT ADD SLT PUSH2 0x1B0 JUMPI PUSH1 0x20 PUSH1 0x40 MLOAD PUSH0 DUP2 MSTORE RETURN JUMPDEST SWAP1 PUSH1 0x5 DUP2 LT ISZERO PUSH2 0x2478 JUMPI PUSH1 0x3 MUL ADD SWAP1 PUSH0 SWAP1 JUMP JUMPDEST SWAP9 SWAP7 SWAP5 SWAP3 SWAP1 SWAP11 SWAP10 SWAP8 SWAP6 SWAP4 SWAP2 PUSH2 0x140 DUP11 ADD SWAP12 ISZERO ISZERO DUP11 MSTORE PUSH1 0x20 DUP11 ADD MSTORE PUSH2 0x250F DUP2 PUSH2 0x23BB JUMP JUMPDEST PUSH1 0x40 DUP10 ADD MSTORE PUSH2 0x251D DUP2 PUSH2 0x23BB JUMP JUMPDEST PUSH1 0x60 DUP9 ADD MSTORE PUSH1 0x80 DUP8 ADD PUSH2 0x252F SWAP2 PUSH2 0x23C5 JUMP JUMPDEST PUSH1 0xFF AND PUSH1 0xA0 DUP7 ADD MSTORE PUSH1 0xFF AND PUSH1 0xC0 DUP6 ADD MSTORE PUSH1 0xFF AND PUSH1 0xE0 DUP5 ADD MSTORE PUSH1 0xFF AND PUSH2 0x100 DUP4 ADD MSTORE PUSH1 0xFF AND SWAP1 PUSH2 0x120 ADD MSTORE JUMP JUMPDEST DUP1 SLOAD DUP3 LT ISZERO PUSH2 0x2478 JUMPI PUSH0 MSTORE PUSH1 0x20 PUSH0 KECCAK256 SWAP1 PUSH1 0x1 SHL ADD SWAP1 PUSH0 SWAP1 JUMP JUMPDEST SWAP1 PUSH1 0x1 DUP3 DUP2 SHR SWAP3 AND DUP1 ISZERO PUSH2 0x25A2 JUMPI JUMPDEST PUSH1 0x20 DUP4 LT EQ PUSH2 0x258E JUMPI JUMP JUMPDEST PUSH4 0x4E487B71 PUSH1 0xE0 SHL PUSH0 MSTORE PUSH1 0x22 PUSH1 0x4 MSTORE PUSH1 0x24 PUSH0 REVERT JUMPDEST SWAP2 PUSH1 0x7F AND SWAP2 PUSH2 0x2583 JUMP JUMPDEST PUSH1 0xE0 DUP2 ADD SWAP1 DUP2 LT PUSH1 0x1 PUSH1 0x1 PUSH1 0x40 SHL SUB DUP3 GT OR PUSH2 0xC6E JUMPI PUSH1 0x40 MSTORE JUMP JUMPDEST PUSH2 0x140 DUP2 ADD SWAP1 DUP2 LT PUSH1 0x1 PUSH1 0x1 PUSH1 0x40 SHL SUB DUP3 GT OR PUSH2 0xC6E JUMPI PUSH1 0x40 MSTORE JUMP JUMPDEST SWAP1 PUSH1 0x1F DUP1 NOT SWAP2 ADD AND DUP2 ADD SWAP1 DUP2 LT PUSH1 0x1 PUSH1 0x1 PUSH1 0x40 SHL SUB DUP3 GT OR PUSH2 0xC6E JUMPI PUSH1 0x40 MSTORE JUMP JUMPDEST SWAP1 PUSH1 0x40 MLOAD SWAP2 DUP3 PUSH0 DUP3 SLOAD SWAP3 PUSH2 0x2617 DUP5 PUSH2 0x2574 JUMP JUMPDEST DUP1 DUP5 MSTORE SWAP4 PUSH1 0x1 DUP2 AND SWAP1 DUP2 ISZERO PUSH2 0x2682 JUMPI POP PUSH1 0x1 EQ PUSH2 0x263E JUMPI JUMPDEST POP PUSH2 0x263C SWAP3 POP SUB DUP4 PUSH2 0x25E3 JUMP JUMPDEST JUMP JUMPDEST SWAP1 POP PUSH0 SWAP3 SWAP2 SWAP3 MSTORE PUSH1 0x20 PUSH0 KECCAK256 SWAP1 PUSH0 SWAP2 JUMPDEST DUP2 DUP4 LT PUSH2 0x2666 JUMPI POP POP SWAP1 PUSH1 0x20 PUSH2 0x263C SWAP3 DUP3 ADD ADD PUSH0 PUSH2 0x262F JUMP JUMPDEST PUSH1 0x20 SWAP2 SWAP4 POP DUP1 PUSH1 0x1 SWAP2 SLOAD DUP4 DUP6 DUP10 ADD ADD MSTORE ADD SWAP2 ADD SWAP1 SWAP2 DUP5 SWAP3 PUSH2 0x264D JUMP JUMPDEST SWAP1 POP PUSH1 0x20 SWAP3 POP PUSH2 0x263C SWAP5 SWAP2 POP PUSH1 0xFF NOT AND DUP3 DUP5 ADD MSTORE ISZERO ISZERO PUSH1 0x5 SHL DUP3 ADD ADD PUSH0 PUSH2 0x262F JUMP JUMPDEST DUP1 SLOAD DUP3 LT ISZERO PUSH2 0x2478 JUMPI PUSH0 MSTORE PUSH1 0x3 PUSH1 0x20 PUSH0 KECCAK256 SWAP2 MUL ADD SWAP1 PUSH0 SWAP1 JUMP JUMPDEST ISZERO PUSH2 0x26C4 JUMPI JUMP JUMPDEST PUSH1 0x40 MLOAD PUSH3 0x461BCD PUSH1 0xE5 SHL DUP2 MSTORE PUSH1 0x20 PUSH1 0x4 DUP3 ADD MSTORE PUSH1 0x11 PUSH1 0x24 DUP3 ADD MSTORE PUSH17 0x125B98DBDC9C9958DD081C185E5B595B9D PUSH1 0x7A SHL PUSH1 0x44 DUP3 ADD MSTORE PUSH1 0x64 SWAP1 REVERT JUMPDEST DUP1 SLOAD PUSH1 0x1 PUSH1 0x40 SHL DUP2 LT ISZERO PUSH2 0xC6E JUMPI PUSH2 0x271A SWAP2 PUSH1 0x1 DUP3 ADD DUP2 SSTORE PUSH2 0x2463 JUMP JUMPDEST DUP2 SWAP3 SWAP2 SLOAD SWAP1 PUSH1 0x3 SHL SWAP2 DUP3 SHL SWAP2 PUSH0 NOT SWAP1 SHL NOT AND OR SWAP1 SSTORE JUMP JUMPDEST PUSH1 0x40 MLOAD SWAP1 PUSH2 0x273E DUP3 PUSH2 0x25C7 JUMP JUMPDEST PUSH0 PUSH2 0x120 DUP4 DUP3 DUP2 MSTORE DUP3 PUSH1 0x20 DUP3 ADD MSTORE DUP3 PUSH1 0x40 DUP3 ADD MSTORE DUP3 PUSH1 0x60 DUP3 ADD MSTORE DUP3 PUSH1 0x80 DUP3 ADD MSTORE DUP3 PUSH1 0xA0 DUP3 ADD MSTORE DUP3 PUSH1 0xC0 DUP3 ADD MSTORE DUP3 PUSH1 0xE0 DUP3 ADD MSTORE DUP3 PUSH2 0x100 DUP3 ADD MSTORE ADD MSTORE JUMP JUMPDEST PUSH1 0xFF AND PUSH1 0x3 ADD SWAP1 PUSH1 0xFF DUP3 GT PUSH2 0x1110 JUMPI JUMP JUMPDEST SWAP1 PUSH1 0xFF DUP1 SWAP2 AND SWAP2 AND ADD SWAP1 PUSH1 0xFF DUP3 GT PUSH2 0x1110 JUMPI JUMP JUMPDEST SWAP1 PUSH2 0x625 JUMPI PUSH1 0x2 SWAP1 PUSH2 0x27C1 DUP4 MLOAD ISZERO ISZERO DUP3 SWAP1 PUSH1 0xFF DUP1 NOT DUP4 SLOAD AND SWAP2 ISZERO ISZERO AND OR SWAP1 SSTORE JUMP JUMPDEST PUSH1 0x20 DUP4 ADD MLOAD PUSH1 0x1 DUP3 ADD SSTORE ADD SWAP1 PUSH1 0x40 DUP2 ADD MLOAD PUSH2 0x27DB DUP2 PUSH2 0x23BB JUMP JUMPDEST PUSH2 0x27E4 DUP2 PUSH2 0x23BB JUMP JUMPDEST DUP3 SLOAD PUSH1 0x60 DUP4 ADD MLOAD SWAP1 PUSH2 0x27F5 DUP3 PUSH2 0x23BB JUMP JUMPDEST PUSH2 0x27FE DUP3 PUSH2 0x23BB JUMP JUMPDEST PUSH1 0x80 DUP5 ADD MLOAD SWAP1 PUSH1 0x4 DUP3 LT ISZERO PUSH2 0x679 JUMPI PUSH1 0xFF PUSH3 0xFF0000 PUSH2 0xFF00 SWAP4 PUSH1 0x10 SHL AND SWAP5 AND SWAP1 PUSH3 0xFFFFFF NOT AND OR SWAP2 PUSH1 0x8 SHL AND OR OR DUP3 SSTORE PUSH2 0x2854 PUSH1 0xFF PUSH1 0xA0 DUP4 ADD MLOAD AND DUP4 SWAP1 PUSH4 0xFF000000 DUP3 SLOAD SWAP2 PUSH1 0x18 SHL AND SWAP1 PUSH4 0xFF000000 NOT AND OR SWAP1 SSTORE JUMP JUMPDEST PUSH1 0xC0 DUP2 ADD MLOAD SWAP1 DUP3 SLOAD SWAP2 PUSH6 0xFF0000000000 PUSH1 0xE0 DUP4 ADD MLOAD PUSH1 0x28 SHL AND SWAP1 PUSH1 0xFF PUSH1 0x38 SHL PUSH2 0x120 PUSH7 0xFF000000000000 PUSH2 0x100 DUP7 ADD MLOAD PUSH1 0x30 SHL AND SWAP5 ADD MLOAD PUSH1 0x38 SHL AND SWAP4 PUSH5 0xFF00000000 PUSH1 0xFF PUSH1 0x38 SHL NOT SWAP3 PUSH1 0x20 SHL AND SWAP1 PUSH7 0xFFFFFF00000000 NOT AND OR AND OR OR OR SWAP1 SSTORE JUMP JUMPDEST PUSH1 0x1 PUSH1 0x1 PUSH1 0x40 SHL SUB DUP2 GT PUSH2 0xC6E JUMPI PUSH1 0x5 SHL PUSH1 0x20 ADD SWAP1 JUMP JUMPDEST PUSH1 0x4 DUP3 LT ISZERO PUSH2 0x679 JUMPI MSTORE JUMP JUMPDEST SWAP1 PUSH1 0x40 MLOAD PUSH2 0x28E5 DUP2 PUSH2 0x25C7 JUMP JUMPDEST PUSH2 0x120 PUSH1 0xFF PUSH1 0x2 DUP4 SWAP6 DUP3 DUP2 SLOAD AND ISZERO ISZERO DUP6 MSTORE PUSH1 0x1 DUP2 ADD SLOAD PUSH1 0x20 DUP7 ADD MSTORE ADD SLOAD DUP2 DUP2 AND PUSH2 0x290E DUP2 PUSH2 0x23BB JUMP JUMPDEST PUSH1 0x40 DUP6 ADD MSTORE DUP2 DUP2 PUSH1 0x8 SHR AND PUSH2 0x2922 DUP2 PUSH2 0x23BB JUMP JUMPDEST PUSH1 0x60 DUP6 ADD MSTORE PUSH2 0x2939 DUP3 DUP3 PUSH1 0x10 SHR AND PUSH1 0x80 DUP7 ADD PUSH2 0x28CC JUMP JUMPDEST DUP2 DUP2 PUSH1 0x18 SHR AND PUSH1 0xA0 DUP6 ADD MSTORE DUP2 DUP2 PUSH1 0x20 SHR AND PUSH1 0xC0 DUP6 ADD MSTORE DUP2 DUP2 PUSH1 0x28 SHR AND PUSH1 0xE0 DUP6 ADD MSTORE DUP2 DUP2 PUSH1 0x30 SHR AND PUSH2 0x100 DUP6 ADD MSTORE PUSH1 0x38 SHR AND SWAP2 ADD MSTORE JUMP JUMPDEST SWAP1 PUSH1 0x40 MLOAD SWAP2 DUP3 DUP2 SLOAD SWAP2 DUP3 DUP3 MSTORE PUSH1 0x20 DUP3 ADD SWAP1 PUSH0 MSTORE PUSH1 0x20 PUSH0 KECCAK256 SWAP3 PUSH0 JUMPDEST DUP2 DUP2 LT PUSH2 0x299E JUMPI POP POP PUSH2 0x263C SWAP3 POP SUB DUP4 PUSH2 0x25E3 JUMP JUMPDEST DUP5 SLOAD DUP4 MSTORE PUSH1 0x1 SWAP5 DUP6 ADD SWAP5 DUP8 SWAP5 POP PUSH1 0x20 SWAP1 SWAP4 ADD SWAP3 ADD PUSH2 0x2989 JUMP JUMPDEST DUP2 DUP2 LT PUSH2 0x29C2 JUMPI POP POP JUMP JUMPDEST PUSH0 DUP2 SSTORE PUSH1 0x1 ADD PUSH2 0x29B7 JUMP JUMPDEST DUP1 MLOAD DUP3 LT ISZERO PUSH2 0x2478 JUMPI PUSH1 0x20 SWAP2 PUSH1 0x5 SHL ADD ADD SWAP1 JUMP JUMPDEST DUP1 SLOAD SWAP1 PUSH0 DUP2 SSTORE DUP2 PUSH2 0x29F0 JUMPI POP POP JUMP JUMPDEST DUP2 PUSH1 0x3 MUL SWAP2 PUSH1 0x3 DUP4 DIV SUB PUSH2 0x1110 JUMPI PUSH0 MSTORE PUSH1 0x20 PUSH0 KECCAK256 SWAP1 DUP2 ADD SWAP1 JUMPDEST DUP2 DUP2 LT PUSH2 0x2A14 JUMPI POP POP JUMP JUMPDEST PUSH1 0x3 SWAP1 PUSH0 DUP2 SSTORE PUSH0 PUSH1 0x1 DUP3 ADD SSTORE PUSH0 PUSH1 0x2 DUP3 ADD SSTORE ADD PUSH2 0x2A09 JUMP JUMPDEST PUSH1 0xFF PUSH0 SLOAD PUSH1 0xA0 SHR AND PUSH2 0x2A3A JUMPI JUMP JUMPDEST PUSH4 0xD93C0665 PUSH1 0xE0 SHL PUSH0 MSTORE PUSH1 0x4 PUSH0 REVERT JUMPDEST PUSH1 0x2 PUSH0 MLOAD PUSH1 0x20 PUSH2 0x2F4C PUSH0 CODECOPY PUSH0 MLOAD SWAP1 PUSH0 MSTORE SLOAD EQ PUSH2 0x2A72 JUMPI PUSH1 0x2 PUSH0 MLOAD PUSH1 0x20 PUSH2 0x2F4C PUSH0 CODECOPY PUSH0 MLOAD SWAP1 PUSH0 MSTORE SSTORE JUMP JUMPDEST PUSH4 0x3EE5AEB5 PUSH1 0xE0 SHL PUSH0 MSTORE PUSH1 0x4 PUSH0 REVERT JUMPDEST PUSH4 0xFFFFFFFF PUSH1 0x64 SWAP2 AND MUL SWAP1 PUSH4 0xFFFFFFFF DUP3 AND SWAP2 DUP3 SUB PUSH2 0x1110 JUMPI JUMP JUMPDEST PUSH2 0xFFFF AND PUSH2 0xFFFF DUP2 EQ PUSH2 0x1110 JUMPI PUSH1 0x1 ADD SWAP1 JUMP JUMPDEST PUSH0 SLOAD PUSH1 0x1 PUSH1 0x1 PUSH1 0xA0 SHL SUB AND CALLER SUB PUSH2 0x2AC2 JUMPI JUMP JUMPDEST PUSH4 0x118CDAA7 PUSH1 0xE0 SHL PUSH0 MSTORE CALLER PUSH1 0x4 MSTORE PUSH1 0x24 PUSH0 REVERT JUMPDEST SWAP2 SWAP1 DUP3 ADD DUP1 SWAP3 GT PUSH2 0x1110 JUMPI JUMP JUMPDEST SWAP1 PUSH2 0x2AEC DUP3 PUSH2 0x28B5 JUMP JUMPDEST PUSH2 0x2AF9 PUSH1 0x40 MLOAD SWAP2 DUP3 PUSH2 0x25E3 JUMP JUMPDEST DUP3 DUP2 MSTORE DUP1 SWAP3 PUSH2 0x2B0A PUSH1 0x1F NOT SWAP2 PUSH2 0x28B5 JUMP JUMPDEST ADD SWAP1 PUSH0 JUMPDEST DUP3 DUP2 LT PUSH2 0x2B1A JUMPI POP POP POP JUMP JUMPDEST PUSH1 0x20 SWAP1 PUSH1 0x40 MLOAD PUSH2 0x2B29 DUP2 PUSH2 0x25AC JUMP JUMPDEST PUSH0 DUP2 MSTORE PUSH0 DUP4 DUP3 ADD MSTORE PUSH0 PUSH1 0x40 DUP3 ADD MSTORE PUSH0 PUSH1 0x60 DUP3 ADD MSTORE PUSH0 PUSH1 0x80 DUP3 ADD MSTORE PUSH0 PUSH1 0xA0 DUP3 ADD MSTORE PUSH0 PUSH1 0xC0 DUP3 ADD MSTORE DUP3 DUP3 DUP6 ADD ADD MSTORE ADD PUSH2 0x2B0E JUMP JUMPDEST PUSH2 0xFFFF PUSH1 0x3 SWAP2 AND MUL SWAP1 PUSH2 0xFFFF DUP3 AND SWAP2 DUP3 SUB PUSH2 0x1110 JUMPI JUMP JUMPDEST PUSH2 0xFFFF PUSH1 0x14 SWAP2 AND ADD SWAP1 PUSH2 0xFFFF DUP3 GT PUSH2 0x1110 JUMPI JUMP JUMPDEST SWAP1 PUSH2 0xFFFF DUP1 SWAP2 AND SWAP2 AND ADD SWAP1 PUSH2 0xFFFF DUP3 GT PUSH2 0x1110 JUMPI JUMP JUMPDEST PUSH0 NOT DUP2 EQ PUSH2 0x1110 JUMPI PUSH1 0x1 ADD SWAP1 JUMP JUMPDEST MLOAD SWAP1 PUSH1 0xFF DUP3 AND DUP3 SUB PUSH2 0x1B0 JUMPI JUMP JUMPDEST PUSH1 0xFF PUSH1 0x5 SWAP2 AND MUL SWAP1 PUSH1 0xFF DUP3 AND SWAP2 DUP3 SUB PUSH2 0x1110 JUMPI JUMP JUMPDEST SWAP1 PUSH2 0xFFFF DUP1 SWAP2 AND SWAP2 AND SUB SWAP1 PUSH2 0xFFFF DUP3 GT PUSH2 0x1110 JUMPI JUMP JUMPDEST SWAP5 SWAP7 SWAP1 SWAP4 SWAP2 SWAP6 SWAP3 PUSH0 SWAP4 PUSH0 SWAP9 PUSH0 JUMPDEST DUP9 MLOAD DUP2 LT ISZERO PUSH2 0x2C5B JUMPI PUSH2 0xFFFF PUSH1 0x60 PUSH2 0x2C08 DUP4 DUP13 PUSH2 0x29CD JUMP JUMPDEST MLOAD ADD MLOAD AND ISZERO ISZERO DUP1 PUSH2 0x2C3E JUMPI JUMPDEST PUSH2 0x2C21 JUMPI JUMPDEST PUSH1 0x1 ADD PUSH2 0x2BF0 JUMP JUMPDEST SWAP6 POP SWAP9 POP PUSH1 0xFF PUSH1 0x40 PUSH2 0x2C33 DUP8 DUP11 PUSH2 0x29CD JUMP JUMPDEST MLOAD ADD MLOAD AND SWAP9 DUP6 PUSH2 0x2C19 JUMP JUMPDEST POP PUSH1 0xFF PUSH1 0x40 PUSH2 0x2C4D DUP4 DUP13 PUSH2 0x29CD JUMP JUMPDEST MLOAD ADD MLOAD AND PUSH1 0xFF DUP13 AND LT PUSH2 0x2C14 JUMP JUMPDEST POP SWAP3 SWAP6 SWAP9 PUSH1 0xFF SWAP1 SWAP9 SWAP2 SWAP5 SWAP8 SWAP3 SWAP6 SWAP9 AND ISZERO PUSH2 0x2F3E JUMPI PUSH0 SWAP8 PUSH0 SWAP8 PUSH0 JUMPDEST DUP12 MLOAD DUP2 LT ISZERO PUSH2 0x2CB2 JUMPI PUSH2 0xFFFF PUSH1 0x60 PUSH2 0x2C8D DUP4 DUP16 PUSH2 0x29CD JUMP JUMPDEST MLOAD ADD MLOAD AND PUSH2 0x2C9E JUMPI JUMPDEST PUSH1 0x1 ADD PUSH2 0x2C75 JUMP JUMPDEST SWAP9 PUSH2 0x2CAA PUSH1 0x1 SWAP2 PUSH2 0x2B9C JUMP JUMPDEST SWAP10 SWAP1 POP PUSH2 0x2C96 JUMP JUMPDEST POP SWAP2 SWAP4 SWAP7 SWAP10 SWAP5 SWAP8 SWAP9 SWAP1 SWAP3 SWAP6 SWAP9 DUP1 ISZERO PUSH2 0x2F30 JUMPI PUSH1 0x1 DUP2 GT PUSH2 0x2EA0 JUMPI JUMPDEST POP PUSH2 0x2CFB PUSH1 0xFF PUSH2 0x2CDD DUP6 DUP10 PUSH2 0x29CD JUMP JUMPDEST MLOAD MLOAD AND PUSH1 0x7F PUSH1 0x20 PUSH2 0x2CEE DUP8 DUP12 PUSH2 0x29CD JUMP JUMPDEST MLOAD ADD MLOAD PUSH1 0x1 SHR AND SWAP1 PUSH2 0x2BCD JUMP JUMPDEST SWAP2 PUSH1 0x3 DUP10 MUL SWAP7 DUP10 DUP9 DIV PUSH1 0x3 EQ DUP11 ISZERO OR ISZERO PUSH2 0x1110 JUMPI PUSH2 0x2D30 PUSH1 0xFF SWAP5 PUSH1 0x3 DUP5 PUSH2 0x2D28 PUSH2 0x2E1C SWAP16 DUP10 AND SWAP13 DUP14 PUSH2 0x2AD5 JUMP JUMPDEST SHR AND SWAP1 PUSH2 0x2B86 JUMP JUMPDEST SWAP2 DUP6 DUP6 PUSH1 0xA0 PUSH2 0x2D3F DUP4 DUP7 PUSH2 0x29CD JUMP JUMPDEST MLOAD ADD MLOAD AND ISZERO ISZERO SWAP3 DUP4 PUSH2 0x2E75 JUMPI JUMPDEST POP POP POP PUSH2 0x2E60 JUMPI JUMPDEST PUSH2 0xFFFF PUSH1 0x60 PUSH2 0x2D63 DUP5 DUP10 PUSH2 0x29CD JUMP JUMPDEST MLOAD ADD MLOAD AND PUSH2 0xFFFF DUP3 AND GT PUSH2 0x2E42 JUMPI JUMPDEST PUSH2 0xFFFF DUP4 SWAP2 PUSH1 0x60 PUSH2 0x2D83 DUP6 DUP11 PUSH2 0x29CD JUMP JUMPDEST MLOAD ADD DUP3 PUSH2 0x2D93 DUP4 DUP3 DUP5 MLOAD AND PUSH2 0x2BCD JUMP JUMPDEST AND SWAP1 MSTORE AND SWAP4 PUSH1 0xF DUP6 LT PUSH2 0x2E22 JUMPI PUSH2 0xFFFF PUSH1 0x60 PUSH2 0x2DD6 DUP6 PUSH1 0x40 MLOAD PUSH2 0x2DB7 PUSH1 0x40 DUP3 PUSH2 0x25E3 JUMP JUMPDEST PUSH1 0xC DUP2 MSTORE PUSH12 0xA2EAC2DCE8EADA408CD8EAF PUSH1 0xA3 SHL PUSH1 0x20 DUP3 ADD MSTORE SWAP11 PUSH2 0x29CD JUMP JUMPDEST MLOAD ADD MLOAD AND SWAP6 PUSH1 0x40 MLOAD SWAP9 PUSH2 0x2DE8 DUP11 PUSH2 0x25AC JUMP JUMPDEST DUP10 MSTORE ISZERO ISZERO PUSH1 0x20 DUP10 ADD MSTORE AND PUSH1 0x40 DUP8 ADD MSTORE AND PUSH1 0x60 DUP6 ADD MSTORE PUSH1 0x80 DUP5 ADD MSTORE PUSH1 0xA0 DUP4 ADD MSTORE PUSH1 0xC0 DUP3 ADD MSTORE PUSH2 0x2E16 DUP4 DUP4 PUSH2 0x29CD JUMP JUMPDEST MSTORE PUSH2 0x29CD JUMP JUMPDEST POP PUSH1 0x1 SWAP1 JUMP JUMPDEST PUSH2 0xFFFF PUSH1 0x60 PUSH2 0x2DD6 DUP6 PUSH1 0x40 MLOAD PUSH2 0x2E39 PUSH1 0x20 DUP3 PUSH2 0x25E3 JUMP JUMPDEST PUSH0 DUP2 MSTORE SWAP11 PUSH2 0x29CD JUMP JUMPDEST POP DUP2 PUSH2 0xFFFF DUP1 PUSH1 0x60 PUSH2 0x2E54 DUP6 DUP11 PUSH2 0x29CD JUMP JUMPDEST MLOAD ADD MLOAD AND SWAP2 POP POP PUSH2 0x2D72 JUMP JUMPDEST PUSH2 0x2E6C PUSH2 0x7FFF SWAP2 PUSH2 0x2B5B JUMP JUMPDEST PUSH1 0x1 SHR AND PUSH2 0x2D54 JUMP JUMPDEST PUSH1 0x64 SWAP3 SWAP4 POP DUP7 PUSH1 0xA0 PUSH2 0x2E8B DUP3 SWAP5 PUSH2 0x2E94 SWAP5 PUSH2 0x29CD JUMP JUMPDEST MLOAD ADD MLOAD AND PUSH2 0x2BB8 JUMP JUMPDEST AND SWAP2 MOD LT PUSH0 DUP6 DUP2 PUSH2 0x2D4C JUMP JUMPDEST SWAP1 POP DUP2 PUSH2 0x2EC2 DUP10 PUSH1 0xFF PUSH2 0x2EBC DUP14 SWAP12 SWAP10 SWAP8 SWAP14 SWAP15 SWAP13 SWAP11 SWAP9 SWAP7 SWAP15 PUSH2 0x2BB8 JUMP JUMPDEST AND PUSH2 0x2AD5 JUMP JUMPDEST SHR MOD SWAP8 PUSH0 SWAP10 PUSH0 JUMPDEST DUP5 MLOAD DUP2 LT ISZERO PUSH2 0x2F20 JUMPI PUSH2 0xFFFF PUSH1 0x60 PUSH2 0x2EE1 DUP4 DUP9 PUSH2 0x29CD JUMP JUMPDEST MLOAD ADD MLOAD AND PUSH2 0x2EF2 JUMPI JUMPDEST PUSH1 0x1 ADD PUSH2 0x2EC9 JUMP JUMPDEST SWAP11 DUP11 DUP2 EQ PUSH2 0x2F0D JUMPI PUSH2 0x2F05 PUSH1 0x1 SWAP2 PUSH2 0x2B9C JUMP JUMPDEST SWAP12 SWAP1 POP PUSH2 0x2EEA JUMP JUMPDEST POP SWAP2 SWAP4 SWAP6 SWAP8 SWAP10 SWAP1 SWAP3 SWAP5 SWAP7 SWAP9 POP JUMPDEST PUSH0 PUSH2 0x2CCD JUMP JUMPDEST POP SWAP2 SWAP4 SWAP6 SWAP8 SWAP10 POP SWAP2 SWAP4 SWAP6 SWAP8 PUSH2 0x2F1A JUMP JUMPDEST POP POP POP POP POP POP POP POP POP POP PUSH0 SWAP1 JUMP JUMPDEST POP POP POP POP POP SWAP3 POP POP POP PUSH0 SWAP1 JUMP INVALID SWAP12 PUSH24 0x9B17422D0DF92223018B32B4D1FA46E071723D6817E2486D STOP EXTCODESIZE EOFCREATE 0xC5 PUSH0 STOP LOG2 PUSH5 0x6970667358 0x22 SLT KECCAK256 0xB9 0xC8 TIMESTAMP 0xC6 0xD4 GASPRICE 0xB1 0xCB 0xF SWAP16 0xD8 SHL 0xC7 JUMPF 0x842A 0xA5 PUSH24 0xCDB70DD446615BACD5C3D4AF58EF64736F6C634300081E00 CALLER "
		},
		"gasEstimates": {
			"creation": {
				"codeDepositCost": "2438600",
				"executionCost": "infinite",
				"totalCost": "infinite"
			},
			"external": {
				"BUY_PRICE()": "354",
				"REROLL_PRICE()": "508",
				"buyFromShop(uint256)": "infinite",
				"buyUnit()": "infinite",
				"getCurrentAI(address)": "infinite",
				"getLastBattleResult(address)": "infinite",
				"getPlayerRelics(address)": "infinite",
				"getPlayerShop(address)": "infinite",
				"getPlayerUnits(address)": "infinite",
				"lastBattleEvents(address,uint256)": "infinite",
				"lastPlayerWon(address)": "2850",
				"owner()": "2601",
				"pause()": "29993",
				"paused()": "2419",
				"playerCurrentAI(address,uint256)": "infinite",
				"playerRelics(address,uint256)": "7382",
				"playerShopPreview(address,uint256)": "infinite",
				"playerUnits(address,uint256)": "6901",
				"profiles(address)": "7197",
				"relicContract()": "2822",
				"renounceOwnership()": "28262",
				"rerollShop()": "infinite",
				"setRelicContract(address)": "27022",
				"setUnitNFT(address)": "26868",
				"startMatch(uint256[])": "infinite",
				"transferOwnership(address)": "28756",
				"unitNFT()": "2734",
				"unpause()": "27659",
				"withdraw()": "infinite"
			},
			"internal": {
				"_generateAIOpponent(address)": "infinite",
				"_updateProfileBuy(address)": "infinite",
				"_updateProfileMatch(address,bool)": "infinite"
			}
		},
		"methodIdentifiers": {
			"BUY_PRICE()": "705fe4be",
			"REROLL_PRICE()": "9f51758e",
			"buyFromShop(uint256)": "b654823e",
			"buyUnit()": "201738e2",
			"getCurrentAI(address)": "c99ae45f",
			"getLastBattleResult(address)": "2dc6d62f",
			"getPlayerRelics(address)": "bb15a3b4",
			"getPlayerShop(address)": "49c7c24a",
			"getPlayerUnits(address)": "6154ee97",
			"lastBattleEvents(address,uint256)": "aeb5f760",
			"lastPlayerWon(address)": "b78f4c70",
			"owner()": "8da5cb5b",
			"pause()": "8456cb59",
			"paused()": "5c975abb",
			"playerCurrentAI(address,uint256)": "d6691c27",
			"playerRelics(address,uint256)": "f5905ca1",
			"playerShopPreview(address,uint256)": "84d38fdc",
			"playerUnits(address,uint256)": "4ef2d6c1",
			"profiles(address)": "bbe15627",
			"relicContract()": "d5654ae7",
			"renounceOwnership()": "715018a6",
			"rerollShop()": "29de58d1",
			"setRelicContract(address)": "b2a47500",
			"setUnitNFT(address)": "7e5c4f8b",
			"startMatch(uint256[])": "7f570e2b",
			"transferOwnership(address)": "f2fde38b",
			"unitNFT()": "b92a40ad",
			"unpause()": "3f4ba83a",
			"withdraw()": "3ccfd60b"
		}
	},
	"abi": [
		{
			"inputs": [
				{
					"internalType": "address",
					"name": "_unitNFT",
					"type": "address"
				}
			],
			"stateMutability": "nonpayable",
			"type": "constructor"
		},
		{
			"inputs": [],
			"name": "EnforcedPause",
			"type": "error"
		},
		{
			"inputs": [],
			"name": "ExpectedPause",
			"type": "error"
		},
		{
			"inputs": [
				{
					"internalType": "address",
					"name": "owner",
					"type": "address"
				}
			],
			"name": "OwnableInvalidOwner",
			"type": "error"
		},
		{
			"inputs": [
				{
					"internalType": "address",
					"name": "account",
					"type": "address"
				}
			],
			"name": "OwnableUnauthorizedAccount",
			"type": "error"
		},
		{
			"inputs": [],
			"name": "ReentrancyGuardReentrantCall",
			"type": "error"
		},
		{
			"anonymous": false,
			"inputs": [
				{
					"indexed": false,
					"internalType": "address",
					"name": "player",
					"type": "address"
				},
				{
					"indexed": false,
					"internalType": "uint16",
					"name": "aiLevel",
					"type": "uint16"
				}
			],
			"name": "AIOpponentGenerated",
			"type": "event"
		},
		{
			"anonymous": false,
			"inputs": [
				{
					"indexed": true,
					"internalType": "address",
					"name": "player",
					"type": "address"
				},
				{
					"indexed": false,
					"internalType": "bool",
					"name": "playerWon",
					"type": "bool"
				},
				{
					"components": [
						{
							"internalType": "uint8",
							"name": "round",
							"type": "uint8"
						},
						{
							"internalType": "bool",
							"name": "isPlayerSide",
							"type": "bool"
						},
						{
							"internalType": "uint8",
							"name": "attackerIndex",
							"type": "uint8"
						},
						{
							"internalType": "uint8",
							"name": "targetIndex",
							"type": "uint8"
						},
						{
							"internalType": "uint16",
							"name": "damage",
							"type": "uint16"
						},
						{
							"internalType": "uint16",
							"name": "remainingHp",
							"type": "uint16"
						},
						{
							"internalType": "string",
							"name": "specialEffect",
							"type": "string"
						}
					],
					"indexed": false,
					"internalType": "struct StarForgeBattleLibrary.BattleEvent[]",
					"name": "events",
					"type": "tuple[]"
				},
				{
					"indexed": false,
					"internalType": "uint256[]",
					"name": "rewards",
					"type": "uint256[]"
				}
			],
			"name": "MatchResolved",
			"type": "event"
		},
		{
			"anonymous": false,
			"inputs": [
				{
					"indexed": true,
					"internalType": "address",
					"name": "previousOwner",
					"type": "address"
				},
				{
					"indexed": true,
					"internalType": "address",
					"name": "newOwner",
					"type": "address"
				}
			],
			"name": "OwnershipTransferred",
			"type": "event"
		},
		{
			"anonymous": false,
			"inputs": [
				{
					"indexed": false,
					"internalType": "address",
					"name": "account",
					"type": "address"
				}
			],
			"name": "Paused",
			"type": "event"
		},
		{
			"anonymous": false,
			"inputs": [
				{
					"indexed": false,
					"internalType": "address",
					"name": "player",
					"type": "address"
				},
				{
					"indexed": false,
					"internalType": "uint256",
					"name": "relicId",
					"type": "uint256"
				}
			],
			"name": "RelicBought",
			"type": "event"
		},
		{
			"anonymous": false,
			"inputs": [
				{
					"indexed": false,
					"internalType": "address",
					"name": "player",
					"type": "address"
				}
			],
			"name": "ShopRerolled",
			"type": "event"
		},
		{
			"anonymous": false,
			"inputs": [
				{
					"indexed": false,
					"internalType": "address",
					"name": "player",
					"type": "address"
				},
				{
					"indexed": false,
					"internalType": "uint256",
					"name": "tokenId",
					"type": "uint256"
				}
			],
			"name": "UnitBought",
			"type": "event"
		},
		{
			"anonymous": false,
			"inputs": [
				{
					"indexed": false,
					"internalType": "address",
					"name": "account",
					"type": "address"
				}
			],
			"name": "Unpaused",
			"type": "event"
		},
		{
			"inputs": [],
			"name": "BUY_PRICE",
			"outputs": [
				{
					"internalType": "uint256",
					"name": "",
					"type": "uint256"
				}
			],
			"stateMutability": "view",
			"type": "function"
		},
		{
			"inputs": [],
			"name": "REROLL_PRICE",
			"outputs": [
				{
					"internalType": "uint256",
					"name": "",
					"type": "uint256"
				}
			],
			"stateMutability": "view",
			"type": "function"
		},
		{
			"inputs": [
				{
					"internalType": "uint256",
					"name": "slot",
					"type": "uint256"
				}
			],
			"name": "buyFromShop",
			"outputs": [],
			"stateMutability": "payable",
			"type": "function"
		},
		{
			"inputs": [],
			"name": "buyUnit",
			"outputs": [],
			"stateMutability": "payable",
			"type": "function"
		},
		{
			"inputs": [
				{
					"internalType": "address",
					"name": "player",
					"type": "address"
				}
			],
			"name": "getCurrentAI",
			"outputs": [
				{
					"components": [
						{
							"internalType": "bool",
							"name": "isRelic",
							"type": "bool"
						},
						{
							"internalType": "uint256",
							"name": "id",
							"type": "uint256"
						},
						{
							"internalType": "enum StarForgeUnitNFT.Faction",
							"name": "faction",
							"type": "uint8"
						},
						{
							"internalType": "enum StarForgeUnitNFT.Rarity",
							"name": "rarity",
							"type": "uint8"
						},
						{
							"internalType": "enum StarForgeUnitNFT.UnitClass",
							"name": "unitClass",
							"type": "uint8"
						},
						{
							"internalType": "uint8",
							"name": "attack",
							"type": "uint8"
						},
						{
							"internalType": "uint8",
							"name": "defense",
							"type": "uint8"
						},
						{
							"internalType": "uint8",
							"name": "speed",
							"type": "uint8"
						},
						{
							"internalType": "uint8",
							"name": "relicType",
							"type": "uint8"
						},
						{
							"internalType": "uint8",
							"name": "relicValue",
							"type": "uint8"
						}
					],
					"internalType": "struct StarForgeBattleLibrary.ShopItem[]",
					"name": "",
					"type": "tuple[]"
				}
			],
			"stateMutability": "view",
			"type": "function"
		},
		{
			"inputs": [
				{
					"internalType": "address",
					"name": "player",
					"type": "address"
				}
			],
			"name": "getLastBattleResult",
			"outputs": [
				{
					"internalType": "bool",
					"name": "",
					"type": "bool"
				},
				{
					"components": [
						{
							"internalType": "uint8",
							"name": "round",
							"type": "uint8"
						},
						{
							"internalType": "bool",
							"name": "isPlayerSide",
							"type": "bool"
						},
						{
							"internalType": "uint8",
							"name": "attackerIndex",
							"type": "uint8"
						},
						{
							"internalType": "uint8",
							"name": "targetIndex",
							"type": "uint8"
						},
						{
							"internalType": "uint16",
							"name": "damage",
							"type": "uint16"
						},
						{
							"internalType": "uint16",
							"name": "remainingHp",
							"type": "uint16"
						},
						{
							"internalType": "string",
							"name": "specialEffect",
							"type": "string"
						}
					],
					"internalType": "struct StarForgeBattleLibrary.BattleEvent[]",
					"name": "",
					"type": "tuple[]"
				}
			],
			"stateMutability": "view",
			"type": "function"
		},
		{
			"inputs": [
				{
					"internalType": "address",
					"name": "player",
					"type": "address"
				}
			],
			"name": "getPlayerRelics",
			"outputs": [
				{
					"internalType": "uint256[]",
					"name": "",
					"type": "uint256[]"
				}
			],
			"stateMutability": "view",
			"type": "function"
		},
		{
			"inputs": [
				{
					"internalType": "address",
					"name": "player",
					"type": "address"
				}
			],
			"name": "getPlayerShop",
			"outputs": [
				{
					"components": [
						{
							"internalType": "bool",
							"name": "isRelic",
							"type": "bool"
						},
						{
							"internalType": "uint256",
							"name": "id",
							"type": "uint256"
						},
						{
							"internalType": "enum StarForgeUnitNFT.Faction",
							"name": "faction",
							"type": "uint8"
						},
						{
							"internalType": "enum StarForgeUnitNFT.Rarity",
							"name": "rarity",
							"type": "uint8"
						},
						{
							"internalType": "enum StarForgeUnitNFT.UnitClass",
							"name": "unitClass",
							"type": "uint8"
						},
						{
							"internalType": "uint8",
							"name": "attack",
							"type": "uint8"
						},
						{
							"internalType": "uint8",
							"name": "defense",
							"type": "uint8"
						},
						{
							"internalType": "uint8",
							"name": "speed",
							"type": "uint8"
						},
						{
							"internalType": "uint8",
							"name": "relicType",
							"type": "uint8"
						},
						{
							"internalType": "uint8",
							"name": "relicValue",
							"type": "uint8"
						}
					],
					"internalType": "struct StarForgeBattleLibrary.ShopItem[5]",
					"name": "",
					"type": "tuple[5]"
				}
			],
			"stateMutability": "view",
			"type": "function"
		},
		{
			"inputs": [
				{
					"internalType": "address",
					"name": "player",
					"type": "address"
				}
			],
			"name": "getPlayerUnits",
			"outputs": [
				{
					"internalType": "uint256[]",
					"name": "",
					"type": "uint256[]"
				}
			],
			"stateMutability": "view",
			"type": "function"
		},
		{
			"inputs": [
				{
					"internalType": "address",
					"name": "",
					"type": "address"
				},
				{
					"internalType": "uint256",
					"name": "",
					"type": "uint256"
				}
			],
			"name": "lastBattleEvents",
			"outputs": [
				{
					"internalType": "uint8",
					"name": "round",
					"type": "uint8"
				},
				{
					"internalType": "bool",
					"name": "isPlayerSide",
					"type": "bool"
				},
				{
					"internalType": "uint8",
					"name": "attackerIndex",
					"type": "uint8"
				},
				{
					"internalType": "uint8",
					"name": "targetIndex",
					"type": "uint8"
				},
				{
					"internalType": "uint16",
					"name": "damage",
					"type": "uint16"
				},
				{
					"internalType": "uint16",
					"name": "remainingHp",
					"type": "uint16"
				},
				{
					"internalType": "string",
					"name": "specialEffect",
					"type": "string"
				}
			],
			"stateMutability": "view",
			"type": "function"
		},
		{
			"inputs": [
				{
					"internalType": "address",
					"name": "",
					"type": "address"
				}
			],
			"name": "lastPlayerWon",
			"outputs": [
				{
					"internalType": "bool",
					"name": "",
					"type": "bool"
				}
			],
			"stateMutability": "view",
			"type": "function"
		},
		{
			"inputs": [],
			"name": "owner",
			"outputs": [
				{
					"internalType": "address",
					"name": "",
					"type": "address"
				}
			],
			"stateMutability": "view",
			"type": "function"
		},
		{
			"inputs": [],
			"name": "pause",
			"outputs": [],
			"stateMutability": "nonpayable",
			"type": "function"
		},
		{
			"inputs": [],
			"name": "paused",
			"outputs": [
				{
					"internalType": "bool",
					"name": "",
					"type": "bool"
				}
			],
			"stateMutability": "view",
			"type": "function"
		},
		{
			"inputs": [
				{
					"internalType": "address",
					"name": "",
					"type": "address"
				},
				{
					"internalType": "uint256",
					"name": "",
					"type": "uint256"
				}
			],
			"name": "playerCurrentAI",
			"outputs": [
				{
					"internalType": "bool",
					"name": "isRelic",
					"type": "bool"
				},
				{
					"internalType": "uint256",
					"name": "id",
					"type": "uint256"
				},
				{
					"internalType": "enum StarForgeUnitNFT.Faction",
					"name": "faction",
					"type": "uint8"
				},
				{
					"internalType": "enum StarForgeUnitNFT.Rarity",
					"name": "rarity",
					"type": "uint8"
				},
				{
					"internalType": "enum StarForgeUnitNFT.UnitClass",
					"name": "unitClass",
					"type": "uint8"
				},
				{
					"internalType": "uint8",
					"name": "attack",
					"type": "uint8"
				},
				{
					"internalType": "uint8",
					"name": "defense",
					"type": "uint8"
				},
				{
					"internalType": "uint8",
					"name": "speed",
					"type": "uint8"
				},
				{
					"internalType": "uint8",
					"name": "relicType",
					"type": "uint8"
				},
				{
					"internalType": "uint8",
					"name": "relicValue",
					"type": "uint8"
				}
			],
			"stateMutability": "view",
			"type": "function"
		},
		{
			"inputs": [
				{
					"internalType": "address",
					"name": "",
					"type": "address"
				},
				{
					"internalType": "uint256",
					"name": "",
					"type": "uint256"
				}
			],
			"name": "playerRelics",
			"outputs": [
				{
					"internalType": "uint256",
					"name": "",
					"type": "uint256"
				}
			],
			"stateMutability": "view",
			"type": "function"
		},
		{
			"inputs": [
				{
					"internalType": "address",
					"name": "",
					"type": "address"
				},
				{
					"internalType": "uint256",
					"name": "",
					"type": "uint256"
				}
			],
			"name": "playerShopPreview",
			"outputs": [
				{
					"internalType": "bool",
					"name": "isRelic",
					"type": "bool"
				},
				{
					"internalType": "uint256",
					"name": "id",
					"type": "uint256"
				},
				{
					"internalType": "enum StarForgeUnitNFT.Faction",
					"name": "faction",
					"type": "uint8"
				},
				{
					"internalType": "enum StarForgeUnitNFT.Rarity",
					"name": "rarity",
					"type": "uint8"
				},
				{
					"internalType": "enum StarForgeUnitNFT.UnitClass",
					"name": "unitClass",
					"type": "uint8"
				},
				{
					"internalType": "uint8",
					"name": "attack",
					"type": "uint8"
				},
				{
					"internalType": "uint8",
					"name": "defense",
					"type": "uint8"
				},
				{
					"internalType": "uint8",
					"name": "speed",
					"type": "uint8"
				},
				{
					"internalType": "uint8",
					"name": "relicType",
					"type": "uint8"
				},
				{
					"internalType": "uint8",
					"name": "relicValue",
					"type": "uint8"
				}
			],
			"stateMutability": "view",
			"type": "function"
		},
		{
			"inputs": [
				{
					"internalType": "address",
					"name": "",
					"type": "address"
				},
				{
					"internalType": "uint256",
					"name": "",
					"type": "uint256"
				}
			],
			"name": "playerUnits",
			"outputs": [
				{
					"internalType": "uint256",
					"name": "",
					"type": "uint256"
				}
			],
			"stateMutability": "view",
			"type": "function"
		},
		{
			"inputs": [
				{
					"internalType": "address",
					"name": "",
					"type": "address"
				}
			],
			"name": "profiles",
			"outputs": [
				{
					"internalType": "uint16",
					"name": "level",
					"type": "uint16"
				},
				{
					"internalType": "uint32",
					"name": "xp",
					"type": "uint32"
				},
				{
					"internalType": "uint256",
					"name": "wins",
					"type": "uint256"
				},
				{
					"internalType": "uint256",
					"name": "losses",
					"type": "uint256"
				}
			],
			"stateMutability": "view",
			"type": "function"
		},
		{
			"inputs": [],
			"name": "relicContract",
			"outputs": [
				{
					"internalType": "contract StarForgeRelic",
					"name": "",
					"type": "address"
				}
			],
			"stateMutability": "view",
			"type": "function"
		},
		{
			"inputs": [],
			"name": "renounceOwnership",
			"outputs": [],
			"stateMutability": "nonpayable",
			"type": "function"
		},
		{
			"inputs": [],
			"name": "rerollShop",
			"outputs": [],
			"stateMutability": "payable",
			"type": "function"
		},
		{
			"inputs": [
				{
					"internalType": "address",
					"name": "_relicContract",
					"type": "address"
				}
			],
			"name": "setRelicContract",
			"outputs": [],
			"stateMutability": "nonpayable",
			"type": "function"
		},
		{
			"inputs": [
				{
					"internalType": "address",
					"name": "_unitNFT",
					"type": "address"
				}
			],
			"name": "setUnitNFT",
			"outputs": [],
			"stateMutability": "nonpayable",
			"type": "function"
		},
		{
			"inputs": [
				{
					"internalType": "uint256[]",
					"name": "team",
					"type": "uint256[]"
				}
			],
			"name": "startMatch",
			"outputs": [],
			"stateMutability": "nonpayable",
			"type": "function"
		},
		{
			"inputs": [
				{
					"internalType": "address",
					"name": "newOwner",
					"type": "address"
				}
			],
			"name": "transferOwnership",
			"outputs": [],
			"stateMutability": "nonpayable",
			"type": "function"
		},
		{
			"inputs": [],
			"name": "unitNFT",
			"outputs": [
				{
					"internalType": "contract StarForgeUnitNFT",
					"name": "",
					"type": "address"
				}
			],
			"stateMutability": "view",
			"type": "function"
		},
		{
			"inputs": [],
			"name": "unpause",
			"outputs": [],
			"stateMutability": "nonpayable",
			"type": "function"
		},
		{
			"inputs": [],
			"name": "withdraw",
			"outputs": [],
			"stateMutability": "nonpayable",
			"type": "function"
		}
	]
}