{
	"data": {
		"bytecode": {
			"linkReferences": {},
			"object": "6080346100f257601f614b9538819003918201601f19168301916001600160401b038311848410176100f6578084926020946040528339810103126100f257516001600160a01b038116908190036100f25733156100df575f8054336001600160a01b0319821681178355604051939290916001600160a01b0316907f8be0079c531659141344cd1fd0a4f28419497f9722a3daafe3b4186f6b6457e09080a360017f9b779b17422d0df92223018b32b4d1fa46e071723d6817e2486d003becc55f005560018060a01b03196001541617600155614a8a908161010b8239f35b631e4fbdf760e01b5f525f60045260245ffd5b5f80fd5b634e487b7160e01b5f52604160045260245ffdfe60806040526004361015610011575f80fd5b5f3560e01c8063201738e21461244957806329de58d11461231a5780632dc6d62f1461217e5780633ccfd60b146121395780633f4ba83a146120cd57806349c7c24a1461200d5780634e17865914611fc25780634ef2d6c114611f7957806351bdab1414610cb05780635c975abb14610c8c5780636154ee9714610c1a578063705fe4be14610a55578063715018a614610bc3578063732e9b8514610b685780637e5c4f8b14610b255780638456cb5914610ac557806384d38fdc14610a815780638da5cb5b14610a5a5780639f51758e14610a55578063a95db7e2146109b7578063aeb5f760146108b6578063b2a4750014610873578063b654823e14610657578063b78f4c701461061a578063b92a40ad146105f2578063bb15a3b414610574578063bbe15627146104f7578063c4f036c4146104af578063c99ae45f146103e6578063d5654ae7146103be578063d6691c271461031a578063eda34845146102ff578063f2fde38b1461027a578063f5905ca1146102225763fae343651461019a575f80fd5b3461021e57602036600319011261021e576101b36127a1565b6101bb613445565b6001600160a01b03165f81815260066020526040812080549181559080610204575b827f6d93ec911efc3cd6539845bec36de6759be39cd875ce42938f5b3cdb566923545f80a2005b610217915f5260205f20908101906132a0565b5f806101dd565b5f80fd5b3461021e57604036600319011261021e5761023b6127a1565b6001600160a01b03165f9081526007602052604090208054602435919082101561021e5760209161026b916129e3565b90549060031b1c604051908152f35b3461021e57602036600319011261021e576102936127a1565b61029b613445565b6001600160a01b031680156102ec575f80546001600160a01b03198116831782556001600160a01b0316907f8be0079c531659141344cd1fd0a4f28419497f9722a3daafe3b4186f6b6457e09080a3005b631e4fbdf760e01b5f525f60045260245ffd5b3461021e575f36600319011261021e57602060405160038152f35b3461021e57604036600319011261021e576103336127a1565b6001600160a01b03165f90815260056020526040902080546024359081101561021e5761035f91612afd565b5060ff815416906103ba6002600183015492015460405193849360ff8360381c169260ff8160301c169260ff8260281c169260ff8360201c169260ff8160181c169260ff8260101c169260ff808460081c169316918b612a8e565b0390f35b3461021e575f36600319011261021e576002546040516001600160a01b039091168152602090f35b3461021e57602036600319011261021e576001600160a01b036104076127a1565b165f52600560205260405f2080549061041f82612edb565b9161042d6040519384612bbd565b8083526020830180925f5260205f205f915b838310610491578486604051918291602083019060208452518091526040830191905f5b818110610471575050500390f35b9193509160206104846001928651612931565b9401910191849392610463565b600360206001926104a185613209565b81520192019201919061043f565b3461021e57604036600319011261021e576104c86127a1565b6001600160a01b03165f908152600860205260409020602435600381101561021e576020910154604051908152f35b3461021e57602036600319011261021e576001600160a01b036105186127a1565b165f52600360205260c060405f2060ff815491600181015490600360028201549101549163ffffffff6040519561ffff8116875260101c1660208601526040850152606084015261ffff8116608084015260101c1660a0820152f35b3461021e57602036600319011261021e576001600160a01b036105956127a1565b165f52600760205260405f206040519081602082549182815201915f5260205f20905f5b8181106105dc576103ba856105d081870382612bbd565b60405191829182612a28565b82548452602090930192600192830192016105b9565b3461021e575f36600319011261021e576001546040516001600160a01b039091168152602090f35b3461021e57602036600319011261021e576001600160a01b0361063b6127a1565b165f52600b602052602060ff60405f2054166040519015158152f35b602036600319011261021e5760043561066e6133d6565b6106766133f3565b6106803415612c7e565b600381101561083f57335f5260046020526106a76106a18260405f20612a7b565b50613209565b9081511561080c5760018060a01b03600254169160ff6101008201511660068110156107f8576064610702915f60ff61012060209601511696604051978895869463f925b74160e01b865233600487015260248601906133c9565b60448401525af19182156107ed575f926107b7575b5061074290335f5260076020526107318360405f20612cbe565b335f52600460205260405f20612a7b565b6107a4575f808255600182018190556002909101556040805133815260208101929092527f79b5d5e09e50c5e7911836260a42a037177f8e4b1480cf79b3afc0abba937a039190819081015b0390a160015f516020614a355f395f51905f5255005b634e487b7160e01b5f525f60045260245ffd5b9091506020813d6020116107e5575b816107d360209383612bbd565b8101031261021e575190610742610717565b3d91506107c6565b6040513d5f823e3d90fd5b634e487b7160e01b5f52602160045260245ffd5b60405162461bcd60e51b815260206004820152600b60248201526a4e6f7420612072656c696360a81b6044820152606490fd5b60405162461bcd60e51b815260206004820152600c60248201526b125b9d985b1a59081cdb1bdd60a21b6044820152606490fd5b3461021e57602036600319011261021e5761088c6127a1565b610894613445565b600280546001600160a01b0319166001600160a01b0392909216919091179055005b3461021e57604036600319011261021e576108cf6127a1565b6001600160a01b03165f908152600c602052604090208054602435919082101561021e5761ffff9161090091612afd565b5080549060ff610987600261091760018501612bde565b930154926040519585848897168752848160081c1615156020880152848160101c166040880152848160181c166060880152818160201c166080880152818160301c1660a0880152818160401c1660c088015260501c1660e08601526101a06101008601526101a08501906127b7565b91818116610120850152818160081c16610140850152818160101c1661016085015260181c166101808301520390f35b3461021e57602036600319011261021e576109d06127a1565b606090816040516109e18282612bbd565b3690376001600160a01b03165f90815260086020526040808220905191825b60038210610a3f57505050610a158282612bbd565b604051905f825b60038210610a2957505050f35b6020806001928551815201930191019091610a1c565b6001602081928554815201930191019091610a00565b612a61565b3461021e575f36600319011261021e575f546040516001600160a01b039091168152602090f35b3461021e57604036600319011261021e57610a9a6127a1565b6001600160a01b03165f908152600460205260409020602435600381101561021e5761035f91612a7b565b3461021e575f36600319011261021e57610add613445565b610ae56133d6565b5f805460ff60a01b1916600160a01b1790556040513381527f62e78cea01bee320cd4e420270b5ea74000d11b0c9f74754ebdbfc544b05a25890602090a1005b3461021e57602036600319011261021e57610b3e6127a1565b610b46613445565b600180546001600160a01b0319166001600160a01b0392909216919091179055005b3461021e57604036600319011261021e57610b816127a1565b6001600160a01b03165f908152600a6020526040902080546024359081101561021e57610bb361ffff916020936129c2565b90549060031b1c16604051908152f35b3461021e575f36600319011261021e57610bdb613445565b5f80546001600160a01b0319811682556001600160a01b03167f8be0079c531659141344cd1fd0a4f28419497f9722a3daafe3b4186f6b6457e08280a3005b3461021e57602036600319011261021e576001600160a01b03610c3b6127a1565b165f52600660205260405f206040519081602082549182815201915f5260205f20905f5b818110610c76576103ba856105d081870382612bbd565b8254845260209093019260019283019201610c5f565b3461021e575f36600319011261021e57602060ff5f5460a01c166040519015158152f35b3461021e57604036600319011261021e576004356001600160401b03811161021e57610ce09036906004016129f8565b906024356001600160401b03811161021e57610d009036906004016129f8565b919092610d0b6133d6565b610d136133f3565b600481101580611f6e575b15611f345760038303611ee05760015492936001600160a01b03909316925f5b82811015610e07576040516331a9108f60e11b8152600582901b8501356004820152602081602481895afa9081156107ed575f91610dc6575b50336001600160a01b0390911603610d9157600101610d3e565b60405162461bcd60e51b815260206004820152600d60248201526c139bdd081e5bdd5c881d5b9a5d609a1b6044820152606490fd5b90506020813d8211610dff575b81610de060209383612bbd565b8101031261021e57516001600160a01b038116810361021e5787610d77565b3d9150610dd3565b508285606090604051610e1a8382612bbd565b8115611ecc57843581528160011015611ecc57602085013560208201528160021015611ecc5760408501356040820152335f52600860205260405f20905f5b60038110611eb8575050335f908152600560205260409020610e7b91506132b6565b94855115611e90575b6040805142602082019081523360601b6bffffffffffffffffffffffff191692820192909252446054820152610ec781607481015b03601f198101835282612bbd565b51902095335f526003602052610f0a61ffff60405f20541696610f0260015460018060a01b03169760025460018060a01b031695369161330c565b94369161330c565b610f12613a17565b50610f1d8451613b13565b975f5b85518110156110b857610f338187613358565b519060405191630b2adfdf60e11b8352600483015260c0826024818c5afa9182156107ed575f92611088575b506020820191610f788351610f738161291a565b6146a4565b90610f8c608082019260ff845116906146ed565b60ff808c840151169351169160a081019560ff87511692610fd0610fb98351610fb48161291a565b614701565b9860ff845191610fc88361291a565b511690614731565b6040845193610fde8561291a565b5194610fe98661291a565b01519460048610156107f8578f9960019a61ffff60ff95869461106c9b60206040519e8f9061101782612ba1565b8152015260408d01521680918b015260808a01521660a08801521660c08601525f60e08601525f61010086015261104d8161291a565b61012085015261105c8161291a565b61014084015261016083016131fd565b611076828d613358565b52611081818c613358565b5001610f20565b6110aa91925060c03d81116110b1575b6110a28183612bbd565b810190613479565b908b610f5f565b503d611098565b5085908992946110c88a856147ab565b5f945b86518610156113e6576110de8688613358565b51156113d9576110ee8688613358565b5196604051976368972d5960e01b895260048901525f88602481865afa9788156107ed575f986112ec575b505f5b86518110156112d757885160068110156107f8576111635760019060ff60208b01511660ff61115961114e848c613358565b519282845116612db2565b1690525b0161111c565b885160068110156107f8576001036111a65760019060ff60208b01511660ff61119d6020611191858d613358565b51019282845116612db2565b1690525b61115d565b885160068110156107f8576002036111d45760019060ff60208b01511660ff61119d6040611191858d613358565b885160068110156107f8576003036112865761ffff866111f4838a613358565b5101511690600361ffff60ff60208d015116160261ffff81169081036112725761ffff166064019161ffff83116112725761ffff6112366001946064936146d4565b160461ffff88611246848c613358565b51019116905261ffff8761125a838b613358565b51015116608061126a838b613358565b51015261115d565b634e487b7160e01b5f52601160045260245ffd5b885160068110156107f8576004036112b45760019060ff60208b01511660ff61119d60a0611191858d613358565b88519060068210156107f8576005600192036111a1578160e061126a838b613358565b5092919650946001905b0194959091956110cb565b9097503d805f833e6112fe8183612bbd565b81019060208183031261021e578051906001600160401b03821161021e570190858282031261021e576040519161133483612b6a565b8051600681101561021e57835261134d6020820161346b565b60208401526040810151906001600160401b03821161021e570181601f8201121561021e578051906001600160401b0382116113c5576040519261139b601f8401601f191660200185612bbd565b8284526020838301011161021e57815f9260208093018386015e8301015260408201529688611119565b634e487b7160e01b5f52604160045260245ffd5b94600190969291966112e1565b919450506113f48151613b13565b935f5b82518110156114c15761140a8184613358565b51908482019161141e8351610f738161291a565b9061143260c082019260ff845116906146ed565b60ff8060a0840151169351169160e081019560ff8751169361145b610fb98351610fb48161291a565b608060408501519361146c8561291a565b51946114778661291a565b01519460048610156107f8576001998d61ffff60ff95936114a59a879560206040519e8f9061101782612ba1565b6114af8289613358565b526114ba8188613358565b50016113f7565b508284866114ce82613bbf565b6114d781613bbf565b6114e18251613a4b565b936114ec8251613a4b565b905f5b845181101561151f578061ffff608061150a60019489613358565b51015116611518828a613358565b52016114ef565b50909193855f5b8651811015611556578061ffff60806115416001948b613358565b5101511661154f8288613358565b5201611526565b5091939091908560405195610f2061156e8189612bbd565b60788852601f19015f5b818110611e275750505f9260015b601260ff82161115611cf6575b50505061159f90613cc6565b15906115aa81612edb565b956115b86040519788612bbd565b818752601f196115c783612edb565b015f5b818110611c8d5750505f5b828110611c63575050506115e7613a17565b908152602081019485526040810191825282810193845280511515335f52600360205260405f20905f14611c0557600181016116238154613a92565b815561ffff8060038085019361165a61164260ff875460101c16613aa0565b865462ff0000191660109190911b62ff000016178655565b5404161661ffff19825416179055805490600661ffff83160263ffffffff81169081036112725760a00163ffffffff8111611272576116a86116c69163ffffffff6116cb9560101c1661342b565b825465ffffffff0000191660109190911b65ffffffff000016178255565b613ab1565b6116ef81511515335f52600b60205260405f209060ff801983541691151516179055565b335f908152600c60205260408120805491815581611b78575b50505f5b8551518110156119a757335f908152600c6020526040902061172f828851613358565b51908054600160401b8110156113c55761174e91600182018155612afd565b6107a457815181546020840151604085015162ffffff1990921660ff939093169290921791151560081b61ff00169190911760109190911b62ff00001617815581860151815463ff000000191660189190911b63ff000000161781556080820151815460a084015160c085015160e08601516bffffffffffffffff000000001990931660209490941b65ffff00000000169390931760309190911b67ffff000000000000161760409290921b69ffff0000000000000000169190911760509190911b61ffff60501b16178155610100820151805160018301916001600160401b0382116113c55761183f8354612b16565b601f811161196c575b50602090601f83116001146118fa576118e99460019796948460ff95610180956002955f926118ef575b50505f19600383901b1c1916908a1b1790555b6101208501519101805461014086015161016087015162ffff0019871993909316948716949094179190911660089190911b61ff00161791841660101b62ff000016919091178155920151825463ff0000001916911660181b63ff00000016179055565b0161170c565b015190505f80611872565b90601f19831691845f52815f20925f5b818110611954575094600185610180956002956118e99a9560ff99859e9d9b1061193c575b505050811b019055611885565b01515f1960f88460031b161c191690555f808061192f565b9293602060018192878601518155019501930161190a565b61199790845f5260205f20601f850160051c8101916020861061199d575b601f0160051c01906132a0565b8b611848565b909150819061198a565b50335f908152600960205260409020849086906119c39061336c565b5f5b845151811015611a0157335f908152600960205260409020600191906119fb9061ffff6119f3848a51613358565b511690613393565b016119c5565b50335f908152600a602052604090208390611a1b9061336c565b5f5b835151811015611a5157335f908152600a6020526040902060019190611a4b9061ffff6119f3848951613358565b01611a1d565b50908151151580611b64575b611ad1575b7fc252fe2d1dc706d4f4b52afa35c4264a4aa7002d846e033bb7f16edef409efd4611aa38351151592516040519384526040602085015260408401906127db565b918033930390a251611ac3575b60015f516020614a355f395f51905f5255005b611acc33613518565b611ab0565b60025460405163f925b74160e01b8152336004820152906001600160a01b0316816064815f602094816024840152600560448401525af180156107ed575f90611b30575b611b2b9150335f52600760205260405f20612cbe565b611a62565b506020813d602011611b5c575b81611b4a60209383612bbd565b8101031261021e57611b2b9051611b15565b3d9150611b3d565b506002546001600160a01b03161515611a5d565b81600302916003830403611272575f5260205f20908101905b8181101561170857805f6003925560018101611bad8154612b16565b9081611bc2575b50505f600282015501611b91565b81601f5f9311600114611bd95750555b8880611bb4565b81835260208320611bf591601f0160051c8101906001016132a0565b8082528160208120915555611bd2565b60028101611c138154613a92565b90556003810162ff0000198154169055805490600361ffff83160263ffffffff81169081036112725760550163ffffffff8111611272576116a86116c69163ffffffff6116cb9560101c1661342b565b80611c7060019284613358565b51611c7b828b613358565b52611c86818a613358565b50016115d5565b602090604051611c9c81612b4e565b5f81525f838201525f60408201525f898201525f60808201525f60a08201525f60c08201525f60e0820152886101008201525f6101208201525f6101408201525f6101608201525f61018082015282828c010152016115ca565b611cff82613cc6565b158015611e17575b611e1257611d1482613d13565b611d1d84613d13565b600360ff82160260ff81169081036112725760018460ff8093161c161660010160ff81116112725760ff165f5b8160ff821610611d65575b5050611d6090613aa0565b611586565b6077871015611dfd57611d7784613cc6565b158015611e02575b611dfd5782878c87611d918a89613d7c565b949015611dcc57611da3948b8a614333565b611db5575b600160ff915b0116611d4a565b956001611dc360ff92613a92565b97915050611da8565b611dd794898c613f55565b611de6575b600160ff91611dae565b956001611df460ff92613a92565b97915050611ddc565b611d55565b50611e0c86613cc6565b15611d7f565b611593565b50611e2184613cc6565b15611d07565b602090604051611e3681612b4e565b5f81525f838201525f60408201525f898201525f60808201525f60a08201525f60c08201525f60e0820152886101008201525f6101208201525f6101408201525f6101608201525f61018082015282828c01015201611578565b9450611e9b33613518565b335f908152600560205260409020611eb2906132b6565b94610e84565b600190602083519301928185015501610e59565b634e487b7160e01b5f52603260045260245ffd5b60405162461bcd60e51b815260206004820152602660248201527f4d7573742065717569702065786163746c7920332072656c69637320286f7220604482015265302c302c302960d01b6064820152608490fd5b60405162461bcd60e51b81526020600482015260126024820152715465616d2073697a6520342d38206f6e6c7960701b6044820152606490fd5b506008811115610d1e565b3461021e57604036600319011261021e57611f926127a1565b6001600160a01b03165f9081526006602052604090208054602435919082101561021e5760209161026b916129e3565b3461021e57604036600319011261021e57611fdb6127a1565b6001600160a01b03165f90815260096020526040902080546024359081101561021e57610bb361ffff916020936129c2565b3461021e57602036600319011261021e576120266127a1565b6060604051612036606082612bbd565b5f5b8281106120b8578360018060a01b03165f52600460205260405f206040519061206082612b6a565b5f825b6003821061209a57604051845f825b60038210612080576103c084f35b602061208f6001928551612931565b930191019091612072565b600360206001926120aa86613209565b815201930191019091612063565b6020906120c3612cf2565b8184015201612038565b3461021e575f36600319011261021e576120e5613445565b5f5460ff8160a01c161561212a5760ff60a01b19165f556040513381527f5db9ee0a495bf2e6ff9c91a7834c1ba4fdd244a5e8aa4e537bd38aeae4b073aa90602090a1005b638dfc202b60e01b5f5260045ffd5b3461021e575f36600319011261021e57612151613445565b5f805481908190819047906001600160a01b0316828215612175575bf1156107ed57005b506108fc61216d565b3461021e57602036600319011261021e576001600160a01b0361219f6127a1565b16805f52600b60205260ff60405f205416815f52600c60205260405f2091805f52600960205260405f20905f52600a60205260405f209083546121e181612edb565b946121ef6040519687612bbd565b81865260208601905f5260205f205f915b83831061225d5787876103ba8861224f61222261221c8b612ef2565b92612ef2565b91612241604051968796151587526080602088015260808701906127db565b9085820360408701526128e3565b9083820360608501526128e3565b6003602060019260405161227081612b4e565b61ffff865460ff8116835260ff8160081c1615158584015260ff8160101c16604084015260ff8160181c1660608401528181861c166080840152818160301c1660a0840152818160401c1660c084015260501c1660e08201526122d4858701612bde565b61010082015260ff6002870154818116610120840152818160081c16610140840152818160101c1661016084015260181c16610180820152815201920192019190612200565b5f36600319011261021e5761232d6133d6565b6123356133f3565b61233f3415612c7e565b6040805142602082019081523360601b6bffffffffffffffffffffffff1916928201929092524460548201526123788160748101610eb9565b5190205f5b600381106123c2577fb1b757afec988e099a59bc127abea15824bf7acc7137103e4197ef22a9afad116020604051338152a160015f516020614a355f395f51905f5255005b6123ca612cf2565b90600182525f60208301528060031b8115908281046008148217156112725760068560ff921c06166101008401528160041b9082820460101417156112725760019260ff61242181601288612443961c0616612d8f565b16610120820152335f52600460205261243d8360405f20612a7b565b90612dc6565b0161237d565b5f36600319011261021e5761245c6133d6565b6124646133f3565b61246e3415612c7e565b6001546040516318160ddd60e01b81526001600160a01b0390911690602081600481855afa9081156107ed575f9161276f575b5060405160208101914283523360601b60408301526054820152446074820152436094820152609481526124d660b482612bbd565b51902060648106604681101561275957505f5b60038260081c06926124fa8461291a565b60038360101c169360048510156107f8576125148361291a565b826126ad5761252860038560181c16612d7e565b9160ff600361253b818860201c16612d8f565b9660281c06166005019060ff82116112725760ff60e49481602098815f96935b61259d6040519d8e9c8d9b630e3bd81160e31b8d528c6004339101526125808161291a565b60248d015261258e8161291a565b60448c015260648b0190612924565b1660848801521660a48601521660c48401525af19081156107ed575f9161267b575b50335f5260066020526125d58160405f20612cbe565b335f52600360205260405f2061ffff8154161561266a575b601463ffffffff825460101c16019163ffffffff831161127257612652826116c67fdded256c7e86a19d1be0f3168d1ec8d5cfc9c713c96bdc10defadd014692cf929561078e959065ffffffff000082549160101b169065ffffffff00001916179055565b60408051338152602081019290925290918291820190565b805461ffff191660011781556125ed565b90506020813d6020116126a5575b8161269660209383612bbd565b8101031261021e5751816125bf565b3d9150612689565b6126b68361291a565b60018303612705576126d060ff60058660181c0616612d6d565b9160038560201c166006019060ff82116112725760ff60e49481602098816126ff60035f989360281c16612d6d565b9361255b565b60ff60058560181c0616600b0160ff8111611272579160ff60058660201c061660090160ff811161127257600560ff919660281c0616600a019060ff82116112725760ff60e49481602098815f969361255b565b605f11156127685760016124e9565b60026124e9565b90506020813d602011612799575b8161278a60209383612bbd565b8101031261021e5751826124a1565b3d915061277d565b600435906001600160a01b038216820361021e57565b805180835260209291819084018484015e5f828201840152601f01601f1916010190565b9080602083519182815201916020808360051b8301019401925f915b83831061280657505050505090565b9091929394602080600192601f1985820301865288519060ff82511681528282015115158382015260ff604083015116604082015260ff606083015116606082015261ffff608083015116608082015261ffff60a08301511660a082015261ffff60c08301511660c082015261ffff60e08301511660e082015261018060ff816128a36101008601516101a06101008701526101a08601906127b7565b94826101208201511661012086015282610140820151166101408601528261016082015116610160860152015116910152970193019301919392906127f7565b90602080835192838152019201905f5b8181106129005750505090565b825161ffff168452602093840193909201916001016128f3565b600311156107f857565b9060048210156107f85752565b9060ff610120610140938051151584526020810151602085015260408101516129598161291a565b6040850152606081015161296c8161291a565b606085015261298360808201516080860190612924565b8260a08201511660a08501528260c08201511660c08501528260e08201511660e085015282610100820151166101008501520151166101208201520190565b9190918054831015611ecc575f52601e60205f208360041c019260011b1690565b8054821015611ecc575f5260205f2001905f90565b9181601f8401121561021e578235916001600160401b03831161021e576020808501948460051b01011161021e57565b60206040818301928281528451809452019201905f5b818110612a4b5750505090565b8251845260209384019390920191600101612a3e565b3461021e575f36600319011261021e5760206040515f8152f35b906003811015611ecc5760030201905f90565b98969492909a99979593916101408a019b15158a5260208a0152612ab18161291a565b6040890152612abf8161291a565b606088015260808701612ad191612924565b60ff1660a086015260ff1660c085015260ff1660e084015260ff1661010083015260ff16906101200152565b8054821015611ecc575f52600360205f20910201905f90565b90600182811c92168015612b44575b6020831014612b3057565b634e487b7160e01b5f52602260045260245ffd5b91607f1691612b25565b6101a081019081106001600160401b038211176113c557604052565b606081019081106001600160401b038211176113c557604052565b61014081019081106001600160401b038211176113c557604052565b61018081019081106001600160401b038211176113c557604052565b90601f801991011681019081106001600160401b038211176113c557604052565b9060405191825f825492612bf184612b16565b8084529360018116908115612c5c5750600114612c18575b50612c1692500383612bbd565b565b90505f9291925260205f20905f915b818310612c40575050906020612c16928201015f612c09565b6020919350806001915483858901015201910190918492612c27565b905060209250612c1694915060ff191682840152151560051b8201015f612c09565b15612c8557565b60405162461bcd60e51b8152602060048201526011602482015270125b98dbdc9c9958dd081c185e5b595b9d607a1b6044820152606490fd5b8054600160401b8110156113c557612cdb916001820181556129e3565b819291549060031b91821b915f19901b1916179055565b60405190612cff82612b85565b5f610120838281528260208201528260408201528260608201528260808201528260a08201528260c08201528260e0820152826101008201520152565b8181029291811591840414171561127257565b8115612d59570690565b634e487b7160e01b5f52601260045260245ffd5b60ff166007019060ff821161127257565b60ff166004019060ff821161127257565b60ff166003019060ff821161127257565b60ff60029116019060ff821161127257565b9060ff8091169116019060ff821161127257565b906107a457600290612de783511515829060ff801983541691151516179055565b6020830151600182015501906040810151612e018161291a565b612e0a8161291a565b8254606083015190612e1b8261291a565b612e248261291a565b60808401519060048210156107f85760ff62ff000061ff009360101b1694169062ffffff1916179160081b1617178255612e7a60ff60a083015116839063ff00000082549160181b169063ff0000001916179055565b60c08101519082549165ff000000000060e083015160281b169060ff60381b61012066ff00000000000061010086015160301b1694015160381b169364ff0000000060ff60381b199260201b169066ffffff00000000191617161717179055565b6001600160401b0381116113c55760051b60200190565b90604051918281549182825260208201905f5260205f20925f905b80600f83011061311557612c16945491818110613100575b8181106130e8575b8181106130d1575b8181106130b9575b8181106130a1575b818110613089575b818110613071575b818110613059575b818110613041575b818110613029575b818110613011575b818110612ff9575b818110612fe1575b818110612fc9575b818110612fb1575b10612fa3575b500383612bbd565b60f01c81526020015f612f9b565b92602060019161ffff8560e01c168152019301612f95565b92602060019161ffff8560d01c168152019301612f8d565b92602060019161ffff8560c01c168152019301612f85565b92602060019161ffff8560b01c168152019301612f7d565b92602060019161ffff8560a01c168152019301612f75565b92602060019161ffff8560901c168152019301612f6d565b92602060019161ffff8560801c168152019301612f65565b92602060019161ffff8560701c168152019301612f5d565b92602060019161ffff8560601c168152019301612f55565b92602060019161ffff8560501c168152019301612f4d565b92602060019161ffff8560401c168152019301612f45565b92602060019161ffff8560301c168152019301612f3d565b92602060019161ffff85831c168152019301612f35565b92602060019161ffff8560101c168152019301612f2d565b92602060019161ffff85168152019301612f25565b916010919350610200600191865461ffff8116825261ffff81861c16602083015261ffff8160201c16604083015261ffff8160301c16606083015261ffff8160401c16608083015261ffff8160501c1660a083015261ffff8160601c1660c083015261ffff8160701c1660e083015261ffff8160801c1661010083015261ffff8160901c1661012083015261ffff8160a01c1661014083015261ffff8160b01c1661016083015261ffff8160c01c1661018083015261ffff8160d01c166101a083015261ffff8160e01c166101c083015260f01c6101e0820152019401920185929391612f0d565b60048210156107f85752565b9060405161321681612b85565b61012060ff60028395828154161515855260018101546020860152015481811661323f8161291a565b6040850152818160081c166132538161291a565b606085015261326a828260101c16608086016131fd565b818160181c1660a0850152818160201c1660c0850152818160281c1660e0850152818160301c1661010085015260381c16910152565b8181106132ab575050565b5f81556001016132a0565b9081546132c281612edb565b926132d06040519485612bbd565b81845260208401905f5260205f205f915b8383106132ee5750505050565b600360206001926132fe85613209565b8152019201920191906132e1565b92919061331881612edb565b936133266040519586612bbd565b602085838152019160051b810192831161021e57905b82821061334857505050565b813581526020918201910161333c565b8051821015611ecc5760209160051b010190565b80545f82558061337a575050565b612c16915f52600f60205f20910160041c8101906132a0565b8054600160401b8110156113c5576133b0916001820181556129c2565b61ffff80839493549260031b9316831b921b1916179055565b9060068210156107f85752565b60ff5f5460a01c166133e457565b63d93c066560e01b5f5260045ffd5b60025f516020614a355f395f51905f52541461341c5760025f516020614a355f395f51905f5255565b633ee5aeb560e01b5f5260045ffd5b9063ffffffff8091169116019063ffffffff821161127257565b5f546001600160a01b0316330361345857565b63118cdaa760e01b5f523360045260245ffd5b519060ff8216820361021e57565b908160c091031261021e576040519060c082018281106001600160401b038211176113c5576040528051600381101561021e5782526020810151600381101561021e5760208301526040810151600481101561021e576135039160a09160408501526134e76060820161346b565b60608501526134f86080820161346b565b60808501520161346b565b60a082015290565b9190820180921161127257565b60018060a01b03811691825f52600360205260405f209161ffff83541615613a06575b825491600361ffff84169401549461ffff861660ff8760101c169561356560ff6003830416612d7e565b94600860ff8716116139fd575b6001546040516318160ddd60e01b815290602090829060049082906001600160a01b03165afa9081156107ed575f916139cb575b506040519060208201924284526bffffffffffffffffffffffff199060601b16604083015261ffff60f01b8960f01b16605483015261ffff60f01b8b60f01b166056830152605882015244607882015260788152613605609882612bbd565b51902094835f52600560205260405f208054905f815581613992575b50505f98979896845f52600660205260405f20966040519788602082549182815201915f5260205f20905f5b81811061397c5750505088613663910389612bbd565b6001546001600160a01b03169a5f5b895181101561371c578c60c0613688838d613358565b51602460405180948193630b2adfdf60e11b835260048301525afa80156107ed576020915f916136fe575b5001805160ff808e6136c48461291a565b6136cd8461291a565b6136d68161291a565b169116116136e8575b50600101613672565b6001919b50516136f78161291a565b9a906136df565b613716915060c03d81116110b1576110a28183612bbd565b5f6136b3565b5093975093979094989195995060648406906137378161291a565b8061393d5750505f915b6007880288810460071489151715611272576064019182606411611272576103fc90600e1c169080820460041490151715611272576137829195949561350b565b613fff5f9560021c1660ff613fff82169116955b60ff861681106137e05750505050505050916060917f2a7db953326dec8a8b5d0d5576160bcd2cf173e66e4192b2cbfe4e4ab1db4eac9360405192835260208301526040820152a1565b6137e8612cf2565b905f82528060031b8115908281046008148217156112725760038860ff921c06166138128161291a565b61381b8161291a565b60408401526138298661291a565b8560608401526018820282810460181482171561127257876003911c1660048110156107f85761385c90608085016131fd565b61386589612d7e565b908260051b8381046020148217156112725760646138978860ff6138918160078f82981c061688612db2565b16612d3c565b041660a0850152602883028381046028148217156112725760646138c98860ff6138918160078f82981c061688612db2565b041660c085015260308302908382046030141715611272576138fc8660ff61389181958260078e6064981c061690612db2565b041660e08301528a5f52600560205260405f20908154600160401b8110156113c55760ff9361243d826001958661393595018155612afd565b019050613796565b6001906139498161291a565b03613965576044111561395f5760015b91613741565b5f613959565b6034111561397557600291613741565b6001613959565b825484526020909301926001928301920161364d565b81600302916003830403611272575f5260205f20908101905b81811015613621576003905f81555f60018201555f6002820155016139ab565b90506020813d6020116139f5575b816139e660209383612bbd565b8101031261021e57515f6135a6565b3d91506139d9565b60089550613572565b825461ffff1916600117835561353b565b60405190608082018281106001600160401b038211176113c557604052606080835f81528160208201528160408201520152565b90613a5582612edb565b613a626040519182612bbd565b8281528092613a73601f1991612edb565b0190602036910137565b60021b906103fc60fc83169216820361127257565b5f1981146112725760010190565b60ff1660ff81146112725760010190565b805461ffff8116906037820263ffffffff811690810361127257605a0163ffffffff81116112725763ffffffff8091169160101c161015613af0575050565b61ffff811461127257815465ffffffffffff191660019190910161ffff16179055565b90613b1d82612edb565b613b2a6040519182612bbd565b8281528092613b3b601f1991612edb565b01905f5b828110613b4b57505050565b602090604051613b5a81612ba1565b5f81525f838201525f60408201525f60608201525f60808201525f60a08201525f60c08201525f60e08201525f6101008201525f6101208201525f6101408201525f61016082015282828501015201613b3f565b906003811015611ecc5760051b0190565b60405191906060613bd08185612bbd565b60603685375f5b8251811015613c4f578061ffff83613bf160019487613358565b51015116613c00575b01613bd7565b60ff610120613c0f8387613358565b510151613c1b8161291a565b613c248161291a565b1660ff613c46613c3f82613c38858c613bae565b5116613aa0565b9289613bae565b91169052613bfa565b50505f5b8151811015613cc05780600360ff613c9081610120613c7460019789613358565b510151613c808161291a565b613c898161291a565b1688613bae565b51161015613c9f575b01613c53565b613ca98184613358565b5160ff613cb881835116612da0565b169052613c99565b50509050565b5f5b8151811015613cf75761ffff6060613ce08385613358565b51015116613cf057600101613cc8565b5050600190565b50505f90565b9061ffff8091169116019061ffff821161127257565b5f5b8151811015613d78578061ffff6060613d3060019486613358565b51015116613d3f575b01613d15565b60ff6040613d4d8386613358565b5101511661ffff613d70610100613d648588613358565b51019282845116613cfd565b169052613d39565b5050565b905f905f5f945f915f5b8651811015613e0b57613db2613dab6060613da1848b613358565b51015161ffff1690565b61ffff1690565b151580613dec575b613dc7575b600101613d86565b9650509250613ddc610100613da18787613358565b9260018060ff8816979050613dbf565b50613dfd610100613da1838a613358565b61ffff808816911611613dba565b5091949092955f5b8751811015613e8957613e2e613dab6060613da1848c613358565b151580613e6a575b613e43575b600101613e13565b955091509250613e59610100613da18688613358565b925f91600160ff8716969050613e3b565b50613e7b610100613da1838b613358565b61ffff808816911611613e36565b50919361ffff90959193951615613edf5791610100915f93858514613ed75750955b848414613ec85750613ec19060ff871690613358565b5101529190565b613ec1915060ff871690613358565b905095613eab565b5050613eff92939150613ef181613d13565b613efa82613d13565b613d7c565b9091565b61ffff5f199116019061ffff821161127257565b9061ffff8091169116039061ffff821161127257565b60405190613f3c604083612bbd565b600a82526913185cdd0814dd185b9960b21b6020830152565b959160ff909794959391971661ffff6060613f70838a613358565b5101511615614327575f955f5b8951811015613fba5761ffff6060613f95838d613358565b51015116613fa6575b600101613f7d565b96613fb2600191613a92565b979050613f9e565b509092949791939596871561431b575f976001810361428857505f5b835181101561427a5761ffff6060613fee8387613358565b51015116613ffe57600101613fd6565b909192939495969750915b61ffff60606140188587613358565b510151169060ff6140298785613358565b51511660ff602061403a8789613358565b5101511660ff60a061404c8a88613358565b5101511660ff60c061405e898b613358565b510151169160038c02948c86046003148d15171561127257614081951c936148b1565b908061ffff806060614093898b613358565b51015116911611614261575b5f60e06140ac8789613358565b510151151580614241575b15614217575050506140da61ffff60606140d18688613358565b51015116613f03565b600160606140e88688613358565b5101526001916140f6613f2d565b925b614207575b61ffff606061410c8789613358565b510151169161016061414089610140614125828a613358565b510151976141328961291a565b61413b8961291a565b613358565b5101519560048710156107f85761016061417782610140614161828d613358565b5101519a61416e8c61291a565b61413b8c61291a565b5101519860048a10156107f8576040519a6141918c612b4e565b60ff168b5260208b015f905260408b015260ff1660608a015261ffff168060808a015260a089015260c088015260e087015261010086015260ff1661012085015260ff1661014084015260ff1661016083015260ff166101808201526141f78284613358565b5261420191613358565b50600190565b9150614211613f2d565b916140fd565b6060614227878996949596613358565b510161ffff6142398582845116613f17565b1690526140f8565b5061ffff6060614251888a613358565b5101511661ffff831610156140b7565b5061ffff60606142718688613358565b5101511661409f565b509096919293949596614009565b6142b1919850826142ab8860ff6142a58a9998979e9c9b9a613a7d565b1661350b565b1c612d4f565b975f975f5b835181101561430b5761ffff60606142ce8387613358565b510151166142df575b6001016142b6565b988a81146142fa576142f2600191613a92565b9990506142d7565b509193959790929496985091614009565b5091939597509791939597614009565b50505050505050505f90565b50505050925050505f90565b959160ff909794959391971661ffff606061434e838a613358565b5101511615614327575f955f5b89518110156143985761ffff6060614373838d613358565b51015116614384575b60010161435b565b96614390600191613a92565b97905061437c565b509092949791939596871561431b575f976001810361461d57505f5b835181101561460f5761ffff60606143cc8387613358565b510151166143dc576001016143b4565b909192939495969750915b61ffff60606143f68587613358565b510151169060ff6144078785613358565b51511660ff60206144188789613358565b5101511660ff60a061442a8a88613358565b5101511660ff60c061443c898b613358565b510151169160038c02948c86046003148d1517156112725761445f951c936148b1565b908061ffff806060614471898b613358565b510151169116116145f6575b5f60e061448a8789613358565b5101511515806145d6575b156145ac575050506144af61ffff60606140d18688613358565b600160606144bd8688613358565b5101526001916144cb613f2d565b925b61459c575b61ffff60606144e18789613358565b51015116916101606144fa89610140614125828a613358565b5101519560048710156107f85761016061451b82610140614161828d613358565b5101519860048a10156107f8576040519a6145358c612b4e565b60ff168b5260208b016001905260408b015260ff1660608a015261ffff168060808a015260a089015260c088015260e087015261010086015260ff1661012085015260ff1661014084015260ff1661016083015260ff166101808201526141f78284613358565b91506145a6613f2d565b916144d2565b60606145bc878996949596613358565b510161ffff6145ce8582845116613f17565b1690526144cd565b5061ffff60606145e6888a613358565b5101511661ffff83161015614495565b5061ffff60606146068688613358565b5101511661447d565b5090969192939495966143e7565b61463a919850826142ab8860ff6142a58a9998979e9c9b9a613a7d565b975f975f5b83518110156146945761ffff60606146578387613358565b51015116614668575b60010161463f565b988a81146146835761467b600191613a92565b999050614660565b5091939597909294969850916143e7565b50919395975097919395976143e7565b6146ad8161291a565b80156146ce576001906146bf8161291a565b146146c957606990565b605290565b50604190565b9061ffff8091169116029061ffff821691820361127257565b9060021b6103fc166146fe91613cfd565b90565b61470a8161291a565b801561472b5760019061471c8161291a565b1461472657601490565b600c90565b50600690565b9060ff601691160490816147448261291a565b60018214614796575b5060029061475a8161291a565b14614772575b601260ff821611156146fe5750601290565b60ff600491160160ff81111561476057634e487b7160e01b5f52601160045260245ffd5b60029192506147a490612da0565b919061474d565b919061ffff1680156148ac5760038102908104600303611272576064019182606411611272575f5b8151811015613cc0578060ff60646147fa87836147f260019789613358565b515116612d3c565b04166148068285613358565b515260ff60646148268783602061481d878a613358565b51015116612d3c565b041660206148348386613358565b51015260ff606461484c8783604061481d878a613358565b0416604061485a8386613358565b51015261ffff60646148738783606061481d878a613358565b041660606148818386613358565b51015261ffff60606148938386613358565b5101511660806148a38386613358565b510152016147d3565b509050565b60609594929360ff1680158015919082614a11575b50506149e65760ff169061ffff6023840616606e0161ffff81116112725760ff6148f2601292856146d4565b92160161ffff81116112725761ffff16908115612d595761ffff160490600261ffff8316106149c9575b5061ffff60258360081c061660520161ffff81116112725761494361ffff916064936146d4565b16049060ff8293169081151591826149a0575b505061496157509190565b600d92935061ffff9150160261ffff811690810361127257600a90049060405161498c604082612bbd565b600481526310d4925560e21b602082015290565b601c9192500261ffff81169081036112725761ffff600a60649204169160181c06105f80614956565b60ff9150600390041660020160ff81116112725760ff165f61491c565b5050505090505f906040516149fc604082612bbd565b6005815264444f44474560d81b602082015290565b90915060198202918204601914171561127257600a900460648406105f806148c656fe9b779b17422d0df92223018b32b4d1fa46e071723d6817e2486d003becc55f00a26469706673582212201327297effa0dd6dce439bb14411db1dd614f1dc6fa8867143a32720ad01252964736f6c634300081e0033",
			"opcodes": "PUSH1 0x80 CALLVALUE PUSH2 0xF2 JUMPI PUSH1 0x1F PUSH2 0x4B95 CODESIZE DUP2 SWAP1 SUB SWAP2 DUP3 ADD PUSH1 0x1F NOT AND DUP4 ADD SWAP2 PUSH1 0x1 PUSH1 0x1 PUSH1 0x40 SHL SUB DUP4 GT DUP5 DUP5 LT OR PUSH2 0xF6 JUMPI DUP1 DUP5 SWAP3 PUSH1 0x20 SWAP5 PUSH1 0x40 MSTORE DUP4 CODECOPY DUP2 ADD SUB SLT PUSH2 0xF2 JUMPI MLOAD PUSH1 0x1 PUSH1 0x1 PUSH1 0xA0 SHL SUB DUP2 AND SWAP1 DUP2 SWAP1 SUB PUSH2 0xF2 JUMPI CALLER ISZERO PUSH2 0xDF JUMPI PUSH0 DUP1 SLOAD CALLER PUSH1 0x1 PUSH1 0x1 PUSH1 0xA0 SHL SUB NOT DUP3 AND DUP2 OR DUP4 SSTORE PUSH1 0x40 MLOAD SWAP4 SWAP3 SWAP1 SWAP2 PUSH1 0x1 PUSH1 0x1 PUSH1 0xA0 SHL SUB AND SWAP1 PUSH32 0x8BE0079C531659141344CD1FD0A4F28419497F9722A3DAAFE3B4186F6B6457E0 SWAP1 DUP1 LOG3 PUSH1 0x1 PUSH32 0x9B779B17422D0DF92223018B32B4D1FA46E071723D6817E2486D003BECC55F00 SSTORE PUSH1 0x1 DUP1 PUSH1 0xA0 SHL SUB NOT PUSH1 0x1 SLOAD AND OR PUSH1 0x1 SSTORE PUSH2 0x4A8A SWAP1 DUP2 PUSH2 0x10B DUP3 CODECOPY RETURN JUMPDEST PUSH4 0x1E4FBDF7 PUSH1 0xE0 SHL PUSH0 MSTORE PUSH0 PUSH1 0x4 MSTORE PUSH1 0x24 PUSH0 REVERT JUMPDEST PUSH0 DUP1 REVERT JUMPDEST PUSH4 0x4E487B71 PUSH1 0xE0 SHL PUSH0 MSTORE PUSH1 0x41 PUSH1 0x4 MSTORE PUSH1 0x24 PUSH0 REVERT INVALID PUSH1 0x80 PUSH1 0x40 MSTORE PUSH1 0x4 CALLDATASIZE LT ISZERO PUSH2 0x11 JUMPI PUSH0 DUP1 REVERT JUMPDEST PUSH0 CALLDATALOAD PUSH1 0xE0 SHR DUP1 PUSH4 0x201738E2 EQ PUSH2 0x2449 JUMPI DUP1 PUSH4 0x29DE58D1 EQ PUSH2 0x231A JUMPI DUP1 PUSH4 0x2DC6D62F EQ PUSH2 0x217E JUMPI DUP1 PUSH4 0x3CCFD60B EQ PUSH2 0x2139 JUMPI DUP1 PUSH4 0x3F4BA83A EQ PUSH2 0x20CD JUMPI DUP1 PUSH4 0x49C7C24A EQ PUSH2 0x200D JUMPI DUP1 PUSH4 0x4E178659 EQ PUSH2 0x1FC2 JUMPI DUP1 PUSH4 0x4EF2D6C1 EQ PUSH2 0x1F79 JUMPI DUP1 PUSH4 0x51BDAB14 EQ PUSH2 0xCB0 JUMPI DUP1 PUSH4 0x5C975ABB EQ PUSH2 0xC8C JUMPI DUP1 PUSH4 0x6154EE97 EQ PUSH2 0xC1A JUMPI DUP1 PUSH4 0x705FE4BE EQ PUSH2 0xA55 JUMPI DUP1 PUSH4 0x715018A6 EQ PUSH2 0xBC3 JUMPI DUP1 PUSH4 0x732E9B85 EQ PUSH2 0xB68 JUMPI DUP1 PUSH4 0x7E5C4F8B EQ PUSH2 0xB25 JUMPI DUP1 PUSH4 0x8456CB59 EQ PUSH2 0xAC5 JUMPI DUP1 PUSH4 0x84D38FDC EQ PUSH2 0xA81 JUMPI DUP1 PUSH4 0x8DA5CB5B EQ PUSH2 0xA5A JUMPI DUP1 PUSH4 0x9F51758E EQ PUSH2 0xA55 JUMPI DUP1 PUSH4 0xA95DB7E2 EQ PUSH2 0x9B7 JUMPI DUP1 PUSH4 0xAEB5F760 EQ PUSH2 0x8B6 JUMPI DUP1 PUSH4 0xB2A47500 EQ PUSH2 0x873 JUMPI DUP1 PUSH4 0xB654823E EQ PUSH2 0x657 JUMPI DUP1 PUSH4 0xB78F4C70 EQ PUSH2 0x61A JUMPI DUP1 PUSH4 0xB92A40AD EQ PUSH2 0x5F2 JUMPI DUP1 PUSH4 0xBB15A3B4 EQ PUSH2 0x574 JUMPI DUP1 PUSH4 0xBBE15627 EQ PUSH2 0x4F7 JUMPI DUP1 PUSH4 0xC4F036C4 EQ PUSH2 0x4AF JUMPI DUP1 PUSH4 0xC99AE45F EQ PUSH2 0x3E6 JUMPI DUP1 PUSH4 0xD5654AE7 EQ PUSH2 0x3BE JUMPI DUP1 PUSH4 0xD6691C27 EQ PUSH2 0x31A JUMPI DUP1 PUSH4 0xEDA34845 EQ PUSH2 0x2FF JUMPI DUP1 PUSH4 0xF2FDE38B EQ PUSH2 0x27A JUMPI DUP1 PUSH4 0xF5905CA1 EQ PUSH2 0x222 JUMPI PUSH4 0xFAE34365 EQ PUSH2 0x19A JUMPI PUSH0 DUP1 REVERT JUMPDEST CALLVALUE PUSH2 0x21E JUMPI PUSH1 0x20 CALLDATASIZE PUSH1 0x3 NOT ADD SLT PUSH2 0x21E JUMPI PUSH2 0x1B3 PUSH2 0x27A1 JUMP JUMPDEST PUSH2 0x1BB PUSH2 0x3445 JUMP JUMPDEST PUSH1 0x1 PUSH1 0x1 PUSH1 0xA0 SHL SUB AND PUSH0 DUP2 DUP2 MSTORE PUSH1 0x6 PUSH1 0x20 MSTORE PUSH1 0x40 DUP2 KECCAK256 DUP1 SLOAD SWAP2 DUP2 SSTORE SWAP1 DUP1 PUSH2 0x204 JUMPI JUMPDEST DUP3 PUSH32 0x6D93EC911EFC3CD6539845BEC36DE6759BE39CD875CE42938F5B3CDB56692354 PUSH0 DUP1 LOG2 STOP JUMPDEST PUSH2 0x217 SWAP2 PUSH0 MSTORE PUSH1 0x20 PUSH0 KECCAK256 SWAP1 DUP2 ADD SWAP1 PUSH2 0x32A0 JUMP JUMPDEST PUSH0 DUP1 PUSH2 0x1DD JUMP JUMPDEST PUSH0 DUP1 REVERT JUMPDEST CALLVALUE PUSH2 0x21E JUMPI PUSH1 0x40 CALLDATASIZE PUSH1 0x3 NOT ADD SLT PUSH2 0x21E JUMPI PUSH2 0x23B PUSH2 0x27A1 JUMP JUMPDEST PUSH1 0x1 PUSH1 0x1 PUSH1 0xA0 SHL SUB AND PUSH0 SWAP1 DUP2 MSTORE PUSH1 0x7 PUSH1 0x20 MSTORE PUSH1 0x40 SWAP1 KECCAK256 DUP1 SLOAD PUSH1 0x24 CALLDATALOAD SWAP2 SWAP1 DUP3 LT ISZERO PUSH2 0x21E JUMPI PUSH1 0x20 SWAP2 PUSH2 0x26B SWAP2 PUSH2 0x29E3 JUMP JUMPDEST SWAP1 SLOAD SWAP1 PUSH1 0x3 SHL SHR PUSH1 0x40 MLOAD SWAP1 DUP2 MSTORE RETURN JUMPDEST CALLVALUE PUSH2 0x21E JUMPI PUSH1 0x20 CALLDATASIZE PUSH1 0x3 NOT ADD SLT PUSH2 0x21E JUMPI PUSH2 0x293 PUSH2 0x27A1 JUMP JUMPDEST PUSH2 0x29B PUSH2 0x3445 JUMP JUMPDEST PUSH1 0x1 PUSH1 0x1 PUSH1 0xA0 SHL SUB AND DUP1 ISZERO PUSH2 0x2EC JUMPI PUSH0 DUP1 SLOAD PUSH1 0x1 PUSH1 0x1 PUSH1 0xA0 SHL SUB NOT DUP2 AND DUP4 OR DUP3 SSTORE PUSH1 0x1 PUSH1 0x1 PUSH1 0xA0 SHL SUB AND SWAP1 PUSH32 0x8BE0079C531659141344CD1FD0A4F28419497F9722A3DAAFE3B4186F6B6457E0 SWAP1 DUP1 LOG3 STOP JUMPDEST PUSH4 0x1E4FBDF7 PUSH1 0xE0 SHL PUSH0 MSTORE PUSH0 PUSH1 0x4 MSTORE PUSH1 0x24 PUSH0 REVERT JUMPDEST CALLVALUE PUSH2 0x21E JUMPI PUSH0 CALLDATASIZE PUSH1 0x3 NOT ADD SLT PUSH2 0x21E JUMPI PUSH1 0x20 PUSH1 0x40 MLOAD PUSH1 0x3 DUP2 MSTORE RETURN JUMPDEST CALLVALUE PUSH2 0x21E JUMPI PUSH1 0x40 CALLDATASIZE PUSH1 0x3 NOT ADD SLT PUSH2 0x21E JUMPI PUSH2 0x333 PUSH2 0x27A1 JUMP JUMPDEST PUSH1 0x1 PUSH1 0x1 PUSH1 0xA0 SHL SUB AND PUSH0 SWAP1 DUP2 MSTORE PUSH1 0x5 PUSH1 0x20 MSTORE PUSH1 0x40 SWAP1 KECCAK256 DUP1 SLOAD PUSH1 0x24 CALLDATALOAD SWAP1 DUP2 LT ISZERO PUSH2 0x21E JUMPI PUSH2 0x35F SWAP2 PUSH2 0x2AFD JUMP JUMPDEST POP PUSH1 0xFF DUP2 SLOAD AND SWAP1 PUSH2 0x3BA PUSH1 0x2 PUSH1 0x1 DUP4 ADD SLOAD SWAP3 ADD SLOAD PUSH1 0x40 MLOAD SWAP4 DUP5 SWAP4 PUSH1 0xFF DUP4 PUSH1 0x38 SHR AND SWAP3 PUSH1 0xFF DUP2 PUSH1 0x30 SHR AND SWAP3 PUSH1 0xFF DUP3 PUSH1 0x28 SHR AND SWAP3 PUSH1 0xFF DUP4 PUSH1 0x20 SHR AND SWAP3 PUSH1 0xFF DUP2 PUSH1 0x18 SHR AND SWAP3 PUSH1 0xFF DUP3 PUSH1 0x10 SHR AND SWAP3 PUSH1 0xFF DUP1 DUP5 PUSH1 0x8 SHR AND SWAP4 AND SWAP2 DUP12 PUSH2 0x2A8E JUMP JUMPDEST SUB SWAP1 RETURN JUMPDEST CALLVALUE PUSH2 0x21E JUMPI PUSH0 CALLDATASIZE PUSH1 0x3 NOT ADD SLT PUSH2 0x21E JUMPI PUSH1 0x2 SLOAD PUSH1 0x40 MLOAD PUSH1 0x1 PUSH1 0x1 PUSH1 0xA0 SHL SUB SWAP1 SWAP2 AND DUP2 MSTORE PUSH1 0x20 SWAP1 RETURN JUMPDEST CALLVALUE PUSH2 0x21E JUMPI PUSH1 0x20 CALLDATASIZE PUSH1 0x3 NOT ADD SLT PUSH2 0x21E JUMPI PUSH1 0x1 PUSH1 0x1 PUSH1 0xA0 SHL SUB PUSH2 0x407 PUSH2 0x27A1 JUMP JUMPDEST AND PUSH0 MSTORE PUSH1 0x5 PUSH1 0x20 MSTORE PUSH1 0x40 PUSH0 KECCAK256 DUP1 SLOAD SWAP1 PUSH2 0x41F DUP3 PUSH2 0x2EDB JUMP JUMPDEST SWAP2 PUSH2 0x42D PUSH1 0x40 MLOAD SWAP4 DUP5 PUSH2 0x2BBD JUMP JUMPDEST DUP1 DUP4 MSTORE PUSH1 0x20 DUP4 ADD DUP1 SWAP3 PUSH0 MSTORE PUSH1 0x20 PUSH0 KECCAK256 PUSH0 SWAP2 JUMPDEST DUP4 DUP4 LT PUSH2 0x491 JUMPI DUP5 DUP7 PUSH1 0x40 MLOAD SWAP2 DUP3 SWAP2 PUSH1 0x20 DUP4 ADD SWAP1 PUSH1 0x20 DUP5 MSTORE MLOAD DUP1 SWAP2 MSTORE PUSH1 0x40 DUP4 ADD SWAP2 SWAP1 PUSH0 JUMPDEST DUP2 DUP2 LT PUSH2 0x471 JUMPI POP POP POP SUB SWAP1 RETURN JUMPDEST SWAP2 SWAP4 POP SWAP2 PUSH1 0x20 PUSH2 0x484 PUSH1 0x1 SWAP3 DUP7 MLOAD PUSH2 0x2931 JUMP JUMPDEST SWAP5 ADD SWAP2 ADD SWAP2 DUP5 SWAP4 SWAP3 PUSH2 0x463 JUMP JUMPDEST PUSH1 0x3 PUSH1 0x20 PUSH1 0x1 SWAP3 PUSH2 0x4A1 DUP6 PUSH2 0x3209 JUMP JUMPDEST DUP2 MSTORE ADD SWAP3 ADD SWAP3 ADD SWAP2 SWAP1 PUSH2 0x43F JUMP JUMPDEST CALLVALUE PUSH2 0x21E JUMPI PUSH1 0x40 CALLDATASIZE PUSH1 0x3 NOT ADD SLT PUSH2 0x21E JUMPI PUSH2 0x4C8 PUSH2 0x27A1 JUMP JUMPDEST PUSH1 0x1 PUSH1 0x1 PUSH1 0xA0 SHL SUB AND PUSH0 SWAP1 DUP2 MSTORE PUSH1 0x8 PUSH1 0x20 MSTORE PUSH1 0x40 SWAP1 KECCAK256 PUSH1 0x24 CALLDATALOAD PUSH1 0x3 DUP2 LT ISZERO PUSH2 0x21E JUMPI PUSH1 0x20 SWAP2 ADD SLOAD PUSH1 0x40 MLOAD SWAP1 DUP2 MSTORE RETURN JUMPDEST CALLVALUE PUSH2 0x21E JUMPI PUSH1 0x20 CALLDATASIZE PUSH1 0x3 NOT ADD SLT PUSH2 0x21E JUMPI PUSH1 0x1 PUSH1 0x1 PUSH1 0xA0 SHL SUB PUSH2 0x518 PUSH2 0x27A1 JUMP JUMPDEST AND PUSH0 MSTORE PUSH1 0x3 PUSH1 0x20 MSTORE PUSH1 0xC0 PUSH1 0x40 PUSH0 KECCAK256 PUSH1 0xFF DUP2 SLOAD SWAP2 PUSH1 0x1 DUP2 ADD SLOAD SWAP1 PUSH1 0x3 PUSH1 0x2 DUP3 ADD SLOAD SWAP2 ADD SLOAD SWAP2 PUSH4 0xFFFFFFFF PUSH1 0x40 MLOAD SWAP6 PUSH2 0xFFFF DUP2 AND DUP8 MSTORE PUSH1 0x10 SHR AND PUSH1 0x20 DUP7 ADD MSTORE PUSH1 0x40 DUP6 ADD MSTORE PUSH1 0x60 DUP5 ADD MSTORE PUSH2 0xFFFF DUP2 AND PUSH1 0x80 DUP5 ADD MSTORE PUSH1 0x10 SHR AND PUSH1 0xA0 DUP3 ADD MSTORE RETURN JUMPDEST CALLVALUE PUSH2 0x21E JUMPI PUSH1 0x20 CALLDATASIZE PUSH1 0x3 NOT ADD SLT PUSH2 0x21E JUMPI PUSH1 0x1 PUSH1 0x1 PUSH1 0xA0 SHL SUB PUSH2 0x595 PUSH2 0x27A1 JUMP JUMPDEST AND PUSH0 MSTORE PUSH1 0x7 PUSH1 0x20 MSTORE PUSH1 0x40 PUSH0 KECCAK256 PUSH1 0x40 MLOAD SWAP1 DUP2 PUSH1 0x20 DUP3 SLOAD SWAP2 DUP3 DUP2 MSTORE ADD SWAP2 PUSH0 MSTORE PUSH1 0x20 PUSH0 KECCAK256 SWAP1 PUSH0 JUMPDEST DUP2 DUP2 LT PUSH2 0x5DC JUMPI PUSH2 0x3BA DUP6 PUSH2 0x5D0 DUP2 DUP8 SUB DUP3 PUSH2 0x2BBD JUMP JUMPDEST PUSH1 0x40 MLOAD SWAP2 DUP3 SWAP2 DUP3 PUSH2 0x2A28 JUMP JUMPDEST DUP3 SLOAD DUP5 MSTORE PUSH1 0x20 SWAP1 SWAP4 ADD SWAP3 PUSH1 0x1 SWAP3 DUP4 ADD SWAP3 ADD PUSH2 0x5B9 JUMP JUMPDEST CALLVALUE PUSH2 0x21E JUMPI PUSH0 CALLDATASIZE PUSH1 0x3 NOT ADD SLT PUSH2 0x21E JUMPI PUSH1 0x1 SLOAD PUSH1 0x40 MLOAD PUSH1 0x1 PUSH1 0x1 PUSH1 0xA0 SHL SUB SWAP1 SWAP2 AND DUP2 MSTORE PUSH1 0x20 SWAP1 RETURN JUMPDEST CALLVALUE PUSH2 0x21E JUMPI PUSH1 0x20 CALLDATASIZE PUSH1 0x3 NOT ADD SLT PUSH2 0x21E JUMPI PUSH1 0x1 PUSH1 0x1 PUSH1 0xA0 SHL SUB PUSH2 0x63B PUSH2 0x27A1 JUMP JUMPDEST AND PUSH0 MSTORE PUSH1 0xB PUSH1 0x20 MSTORE PUSH1 0x20 PUSH1 0xFF PUSH1 0x40 PUSH0 KECCAK256 SLOAD AND PUSH1 0x40 MLOAD SWAP1 ISZERO ISZERO DUP2 MSTORE RETURN JUMPDEST PUSH1 0x20 CALLDATASIZE PUSH1 0x3 NOT ADD SLT PUSH2 0x21E JUMPI PUSH1 0x4 CALLDATALOAD PUSH2 0x66E PUSH2 0x33D6 JUMP JUMPDEST PUSH2 0x676 PUSH2 0x33F3 JUMP JUMPDEST PUSH2 0x680 CALLVALUE ISZERO PUSH2 0x2C7E JUMP JUMPDEST PUSH1 0x3 DUP2 LT ISZERO PUSH2 0x83F JUMPI CALLER PUSH0 MSTORE PUSH1 0x4 PUSH1 0x20 MSTORE PUSH2 0x6A7 PUSH2 0x6A1 DUP3 PUSH1 0x40 PUSH0 KECCAK256 PUSH2 0x2A7B JUMP JUMPDEST POP PUSH2 0x3209 JUMP JUMPDEST SWAP1 DUP2 MLOAD ISZERO PUSH2 0x80C JUMPI PUSH1 0x1 DUP1 PUSH1 0xA0 SHL SUB PUSH1 0x2 SLOAD AND SWAP2 PUSH1 0xFF PUSH2 0x100 DUP3 ADD MLOAD AND PUSH1 0x6 DUP2 LT ISZERO PUSH2 0x7F8 JUMPI PUSH1 0x64 PUSH2 0x702 SWAP2 PUSH0 PUSH1 0xFF PUSH2 0x120 PUSH1 0x20 SWAP7 ADD MLOAD AND SWAP7 PUSH1 0x40 MLOAD SWAP8 DUP9 SWAP6 DUP7 SWAP5 PUSH4 0xF925B741 PUSH1 0xE0 SHL DUP7 MSTORE CALLER PUSH1 0x4 DUP8 ADD MSTORE PUSH1 0x24 DUP7 ADD SWAP1 PUSH2 0x33C9 JUMP JUMPDEST PUSH1 0x44 DUP5 ADD MSTORE GAS CALL SWAP2 DUP3 ISZERO PUSH2 0x7ED JUMPI PUSH0 SWAP3 PUSH2 0x7B7 JUMPI JUMPDEST POP PUSH2 0x742 SWAP1 CALLER PUSH0 MSTORE PUSH1 0x7 PUSH1 0x20 MSTORE PUSH2 0x731 DUP4 PUSH1 0x40 PUSH0 KECCAK256 PUSH2 0x2CBE JUMP JUMPDEST CALLER PUSH0 MSTORE PUSH1 0x4 PUSH1 0x20 MSTORE PUSH1 0x40 PUSH0 KECCAK256 PUSH2 0x2A7B JUMP JUMPDEST PUSH2 0x7A4 JUMPI PUSH0 DUP1 DUP3 SSTORE PUSH1 0x1 DUP3 ADD DUP2 SWAP1 SSTORE PUSH1 0x2 SWAP1 SWAP2 ADD SSTORE PUSH1 0x40 DUP1 MLOAD CALLER DUP2 MSTORE PUSH1 0x20 DUP2 ADD SWAP3 SWAP1 SWAP3 MSTORE PUSH32 0x79B5D5E09E50C5E7911836260A42A037177F8E4B1480CF79B3AFC0ABBA937A03 SWAP2 SWAP1 DUP2 SWAP1 DUP2 ADD JUMPDEST SUB SWAP1 LOG1 PUSH1 0x1 PUSH0 MLOAD PUSH1 0x20 PUSH2 0x4A35 PUSH0 CODECOPY PUSH0 MLOAD SWAP1 PUSH0 MSTORE SSTORE STOP JUMPDEST PUSH4 0x4E487B71 PUSH1 0xE0 SHL PUSH0 MSTORE PUSH0 PUSH1 0x4 MSTORE PUSH1 0x24 PUSH0 REVERT JUMPDEST SWAP1 SWAP2 POP PUSH1 0x20 DUP2 RETURNDATASIZE PUSH1 0x20 GT PUSH2 0x7E5 JUMPI JUMPDEST DUP2 PUSH2 0x7D3 PUSH1 0x20 SWAP4 DUP4 PUSH2 0x2BBD JUMP JUMPDEST DUP2 ADD SUB SLT PUSH2 0x21E JUMPI MLOAD SWAP1 PUSH2 0x742 PUSH2 0x717 JUMP JUMPDEST RETURNDATASIZE SWAP2 POP PUSH2 0x7C6 JUMP JUMPDEST PUSH1 0x40 MLOAD RETURNDATASIZE PUSH0 DUP3 RETURNDATACOPY RETURNDATASIZE SWAP1 REVERT JUMPDEST PUSH4 0x4E487B71 PUSH1 0xE0 SHL PUSH0 MSTORE PUSH1 0x21 PUSH1 0x4 MSTORE PUSH1 0x24 PUSH0 REVERT JUMPDEST PUSH1 0x40 MLOAD PUSH3 0x461BCD PUSH1 0xE5 SHL DUP2 MSTORE PUSH1 0x20 PUSH1 0x4 DUP3 ADD MSTORE PUSH1 0xB PUSH1 0x24 DUP3 ADD MSTORE PUSH11 0x4E6F7420612072656C6963 PUSH1 0xA8 SHL PUSH1 0x44 DUP3 ADD MSTORE PUSH1 0x64 SWAP1 REVERT JUMPDEST PUSH1 0x40 MLOAD PUSH3 0x461BCD PUSH1 0xE5 SHL DUP2 MSTORE PUSH1 0x20 PUSH1 0x4 DUP3 ADD MSTORE PUSH1 0xC PUSH1 0x24 DUP3 ADD MSTORE PUSH12 0x125B9D985B1A59081CDB1BDD PUSH1 0xA2 SHL PUSH1 0x44 DUP3 ADD MSTORE PUSH1 0x64 SWAP1 REVERT JUMPDEST CALLVALUE PUSH2 0x21E JUMPI PUSH1 0x20 CALLDATASIZE PUSH1 0x3 NOT ADD SLT PUSH2 0x21E JUMPI PUSH2 0x88C PUSH2 0x27A1 JUMP JUMPDEST PUSH2 0x894 PUSH2 0x3445 JUMP JUMPDEST PUSH1 0x2 DUP1 SLOAD PUSH1 0x1 PUSH1 0x1 PUSH1 0xA0 SHL SUB NOT AND PUSH1 0x1 PUSH1 0x1 PUSH1 0xA0 SHL SUB SWAP3 SWAP1 SWAP3 AND SWAP2 SWAP1 SWAP2 OR SWAP1 SSTORE STOP JUMPDEST CALLVALUE PUSH2 0x21E JUMPI PUSH1 0x40 CALLDATASIZE PUSH1 0x3 NOT ADD SLT PUSH2 0x21E JUMPI PUSH2 0x8CF PUSH2 0x27A1 JUMP JUMPDEST PUSH1 0x1 PUSH1 0x1 PUSH1 0xA0 SHL SUB AND PUSH0 SWAP1 DUP2 MSTORE PUSH1 0xC PUSH1 0x20 MSTORE PUSH1 0x40 SWAP1 KECCAK256 DUP1 SLOAD PUSH1 0x24 CALLDATALOAD SWAP2 SWAP1 DUP3 LT ISZERO PUSH2 0x21E JUMPI PUSH2 0xFFFF SWAP2 PUSH2 0x900 SWAP2 PUSH2 0x2AFD JUMP JUMPDEST POP DUP1 SLOAD SWAP1 PUSH1 0xFF PUSH2 0x987 PUSH1 0x2 PUSH2 0x917 PUSH1 0x1 DUP6 ADD PUSH2 0x2BDE JUMP JUMPDEST SWAP4 ADD SLOAD SWAP3 PUSH1 0x40 MLOAD SWAP6 DUP6 DUP5 DUP9 SWAP8 AND DUP8 MSTORE DUP5 DUP2 PUSH1 0x8 SHR AND ISZERO ISZERO PUSH1 0x20 DUP9 ADD MSTORE DUP5 DUP2 PUSH1 0x10 SHR AND PUSH1 0x40 DUP9 ADD MSTORE DUP5 DUP2 PUSH1 0x18 SHR AND PUSH1 0x60 DUP9 ADD MSTORE DUP2 DUP2 PUSH1 0x20 SHR AND PUSH1 0x80 DUP9 ADD MSTORE DUP2 DUP2 PUSH1 0x30 SHR AND PUSH1 0xA0 DUP9 ADD MSTORE DUP2 DUP2 PUSH1 0x40 SHR AND PUSH1 0xC0 DUP9 ADD MSTORE PUSH1 0x50 SHR AND PUSH1 0xE0 DUP7 ADD MSTORE PUSH2 0x1A0 PUSH2 0x100 DUP7 ADD MSTORE PUSH2 0x1A0 DUP6 ADD SWAP1 PUSH2 0x27B7 JUMP JUMPDEST SWAP2 DUP2 DUP2 AND PUSH2 0x120 DUP6 ADD MSTORE DUP2 DUP2 PUSH1 0x8 SHR AND PUSH2 0x140 DUP6 ADD MSTORE DUP2 DUP2 PUSH1 0x10 SHR AND PUSH2 0x160 DUP6 ADD MSTORE PUSH1 0x18 SHR AND PUSH2 0x180 DUP4 ADD MSTORE SUB SWAP1 RETURN JUMPDEST CALLVALUE PUSH2 0x21E JUMPI PUSH1 0x20 CALLDATASIZE PUSH1 0x3 NOT ADD SLT PUSH2 0x21E JUMPI PUSH2 0x9D0 PUSH2 0x27A1 JUMP JUMPDEST PUSH1 0x60 SWAP1 DUP2 PUSH1 0x40 MLOAD PUSH2 0x9E1 DUP3 DUP3 PUSH2 0x2BBD JUMP JUMPDEST CALLDATASIZE SWAP1 CALLDATACOPY PUSH1 0x1 PUSH1 0x1 PUSH1 0xA0 SHL SUB AND PUSH0 SWAP1 DUP2 MSTORE PUSH1 0x8 PUSH1 0x20 MSTORE PUSH1 0x40 DUP1 DUP3 KECCAK256 SWAP1 MLOAD SWAP2 DUP3 JUMPDEST PUSH1 0x3 DUP3 LT PUSH2 0xA3F JUMPI POP POP POP PUSH2 0xA15 DUP3 DUP3 PUSH2 0x2BBD JUMP JUMPDEST PUSH1 0x40 MLOAD SWAP1 PUSH0 DUP3 JUMPDEST PUSH1 0x3 DUP3 LT PUSH2 0xA29 JUMPI POP POP POP RETURN JUMPDEST PUSH1 0x20 DUP1 PUSH1 0x1 SWAP3 DUP6 MLOAD DUP2 MSTORE ADD SWAP4 ADD SWAP2 ADD SWAP1 SWAP2 PUSH2 0xA1C JUMP JUMPDEST PUSH1 0x1 PUSH1 0x20 DUP2 SWAP3 DUP6 SLOAD DUP2 MSTORE ADD SWAP4 ADD SWAP2 ADD SWAP1 SWAP2 PUSH2 0xA00 JUMP JUMPDEST PUSH2 0x2A61 JUMP JUMPDEST CALLVALUE PUSH2 0x21E JUMPI PUSH0 CALLDATASIZE PUSH1 0x3 NOT ADD SLT PUSH2 0x21E JUMPI PUSH0 SLOAD PUSH1 0x40 MLOAD PUSH1 0x1 PUSH1 0x1 PUSH1 0xA0 SHL SUB SWAP1 SWAP2 AND DUP2 MSTORE PUSH1 0x20 SWAP1 RETURN JUMPDEST CALLVALUE PUSH2 0x21E JUMPI PUSH1 0x40 CALLDATASIZE PUSH1 0x3 NOT ADD SLT PUSH2 0x21E JUMPI PUSH2 0xA9A PUSH2 0x27A1 JUMP JUMPDEST PUSH1 0x1 PUSH1 0x1 PUSH1 0xA0 SHL SUB AND PUSH0 SWAP1 DUP2 MSTORE PUSH1 0x4 PUSH1 0x20 MSTORE PUSH1 0x40 SWAP1 KECCAK256 PUSH1 0x24 CALLDATALOAD PUSH1 0x3 DUP2 LT ISZERO PUSH2 0x21E JUMPI PUSH2 0x35F SWAP2 PUSH2 0x2A7B JUMP JUMPDEST CALLVALUE PUSH2 0x21E JUMPI PUSH0 CALLDATASIZE PUSH1 0x3 NOT ADD SLT PUSH2 0x21E JUMPI PUSH2 0xADD PUSH2 0x3445 JUMP JUMPDEST PUSH2 0xAE5 PUSH2 0x33D6 JUMP JUMPDEST PUSH0 DUP1 SLOAD PUSH1 0xFF PUSH1 0xA0 SHL NOT AND PUSH1 0x1 PUSH1 0xA0 SHL OR SWAP1 SSTORE PUSH1 0x40 MLOAD CALLER DUP2 MSTORE PUSH32 0x62E78CEA01BEE320CD4E420270B5EA74000D11B0C9F74754EBDBFC544B05A258 SWAP1 PUSH1 0x20 SWAP1 LOG1 STOP JUMPDEST CALLVALUE PUSH2 0x21E JUMPI PUSH1 0x20 CALLDATASIZE PUSH1 0x3 NOT ADD SLT PUSH2 0x21E JUMPI PUSH2 0xB3E PUSH2 0x27A1 JUMP JUMPDEST PUSH2 0xB46 PUSH2 0x3445 JUMP JUMPDEST PUSH1 0x1 DUP1 SLOAD PUSH1 0x1 PUSH1 0x1 PUSH1 0xA0 SHL SUB NOT AND PUSH1 0x1 PUSH1 0x1 PUSH1 0xA0 SHL SUB SWAP3 SWAP1 SWAP3 AND SWAP2 SWAP1 SWAP2 OR SWAP1 SSTORE STOP JUMPDEST CALLVALUE PUSH2 0x21E JUMPI PUSH1 0x40 CALLDATASIZE PUSH1 0x3 NOT ADD SLT PUSH2 0x21E JUMPI PUSH2 0xB81 PUSH2 0x27A1 JUMP JUMPDEST PUSH1 0x1 PUSH1 0x1 PUSH1 0xA0 SHL SUB AND PUSH0 SWAP1 DUP2 MSTORE PUSH1 0xA PUSH1 0x20 MSTORE PUSH1 0x40 SWAP1 KECCAK256 DUP1 SLOAD PUSH1 0x24 CALLDATALOAD SWAP1 DUP2 LT ISZERO PUSH2 0x21E JUMPI PUSH2 0xBB3 PUSH2 0xFFFF SWAP2 PUSH1 0x20 SWAP4 PUSH2 0x29C2 JUMP JUMPDEST SWAP1 SLOAD SWAP1 PUSH1 0x3 SHL SHR AND PUSH1 0x40 MLOAD SWAP1 DUP2 MSTORE RETURN JUMPDEST CALLVALUE PUSH2 0x21E JUMPI PUSH0 CALLDATASIZE PUSH1 0x3 NOT ADD SLT PUSH2 0x21E JUMPI PUSH2 0xBDB PUSH2 0x3445 JUMP JUMPDEST PUSH0 DUP1 SLOAD PUSH1 0x1 PUSH1 0x1 PUSH1 0xA0 SHL SUB NOT DUP2 AND DUP3 SSTORE PUSH1 0x1 PUSH1 0x1 PUSH1 0xA0 SHL SUB AND PUSH32 0x8BE0079C531659141344CD1FD0A4F28419497F9722A3DAAFE3B4186F6B6457E0 DUP3 DUP1 LOG3 STOP JUMPDEST CALLVALUE PUSH2 0x21E JUMPI PUSH1 0x20 CALLDATASIZE PUSH1 0x3 NOT ADD SLT PUSH2 0x21E JUMPI PUSH1 0x1 PUSH1 0x1 PUSH1 0xA0 SHL SUB PUSH2 0xC3B PUSH2 0x27A1 JUMP JUMPDEST AND PUSH0 MSTORE PUSH1 0x6 PUSH1 0x20 MSTORE PUSH1 0x40 PUSH0 KECCAK256 PUSH1 0x40 MLOAD SWAP1 DUP2 PUSH1 0x20 DUP3 SLOAD SWAP2 DUP3 DUP2 MSTORE ADD SWAP2 PUSH0 MSTORE PUSH1 0x20 PUSH0 KECCAK256 SWAP1 PUSH0 JUMPDEST DUP2 DUP2 LT PUSH2 0xC76 JUMPI PUSH2 0x3BA DUP6 PUSH2 0x5D0 DUP2 DUP8 SUB DUP3 PUSH2 0x2BBD JUMP JUMPDEST DUP3 SLOAD DUP5 MSTORE PUSH1 0x20 SWAP1 SWAP4 ADD SWAP3 PUSH1 0x1 SWAP3 DUP4 ADD SWAP3 ADD PUSH2 0xC5F JUMP JUMPDEST CALLVALUE PUSH2 0x21E JUMPI PUSH0 CALLDATASIZE PUSH1 0x3 NOT ADD SLT PUSH2 0x21E JUMPI PUSH1 0x20 PUSH1 0xFF PUSH0 SLOAD PUSH1 0xA0 SHR AND PUSH1 0x40 MLOAD SWAP1 ISZERO ISZERO DUP2 MSTORE RETURN JUMPDEST CALLVALUE PUSH2 0x21E JUMPI PUSH1 0x40 CALLDATASIZE PUSH1 0x3 NOT ADD SLT PUSH2 0x21E JUMPI PUSH1 0x4 CALLDATALOAD PUSH1 0x1 PUSH1 0x1 PUSH1 0x40 SHL SUB DUP2 GT PUSH2 0x21E JUMPI PUSH2 0xCE0 SWAP1 CALLDATASIZE SWAP1 PUSH1 0x4 ADD PUSH2 0x29F8 JUMP JUMPDEST SWAP1 PUSH1 0x24 CALLDATALOAD PUSH1 0x1 PUSH1 0x1 PUSH1 0x40 SHL SUB DUP2 GT PUSH2 0x21E JUMPI PUSH2 0xD00 SWAP1 CALLDATASIZE SWAP1 PUSH1 0x4 ADD PUSH2 0x29F8 JUMP JUMPDEST SWAP2 SWAP1 SWAP3 PUSH2 0xD0B PUSH2 0x33D6 JUMP JUMPDEST PUSH2 0xD13 PUSH2 0x33F3 JUMP JUMPDEST PUSH1 0x4 DUP2 LT ISZERO DUP1 PUSH2 0x1F6E JUMPI JUMPDEST ISZERO PUSH2 0x1F34 JUMPI PUSH1 0x3 DUP4 SUB PUSH2 0x1EE0 JUMPI PUSH1 0x1 SLOAD SWAP3 SWAP4 PUSH1 0x1 PUSH1 0x1 PUSH1 0xA0 SHL SUB SWAP1 SWAP4 AND SWAP3 PUSH0 JUMPDEST DUP3 DUP2 LT ISZERO PUSH2 0xE07 JUMPI PUSH1 0x40 MLOAD PUSH4 0x31A9108F PUSH1 0xE1 SHL DUP2 MSTORE PUSH1 0x5 DUP3 SWAP1 SHL DUP6 ADD CALLDATALOAD PUSH1 0x4 DUP3 ADD MSTORE PUSH1 0x20 DUP2 PUSH1 0x24 DUP2 DUP10 GAS STATICCALL SWAP1 DUP2 ISZERO PUSH2 0x7ED JUMPI PUSH0 SWAP2 PUSH2 0xDC6 JUMPI JUMPDEST POP CALLER PUSH1 0x1 PUSH1 0x1 PUSH1 0xA0 SHL SUB SWAP1 SWAP2 AND SUB PUSH2 0xD91 JUMPI PUSH1 0x1 ADD PUSH2 0xD3E JUMP JUMPDEST PUSH1 0x40 MLOAD PUSH3 0x461BCD PUSH1 0xE5 SHL DUP2 MSTORE PUSH1 0x20 PUSH1 0x4 DUP3 ADD MSTORE PUSH1 0xD PUSH1 0x24 DUP3 ADD MSTORE PUSH13 0x139BDD081E5BDD5C881D5B9A5D PUSH1 0x9A SHL PUSH1 0x44 DUP3 ADD MSTORE PUSH1 0x64 SWAP1 REVERT JUMPDEST SWAP1 POP PUSH1 0x20 DUP2 RETURNDATASIZE DUP3 GT PUSH2 0xDFF JUMPI JUMPDEST DUP2 PUSH2 0xDE0 PUSH1 0x20 SWAP4 DUP4 PUSH2 0x2BBD JUMP JUMPDEST DUP2 ADD SUB SLT PUSH2 0x21E JUMPI MLOAD PUSH1 0x1 PUSH1 0x1 PUSH1 0xA0 SHL SUB DUP2 AND DUP2 SUB PUSH2 0x21E JUMPI DUP8 PUSH2 0xD77 JUMP JUMPDEST RETURNDATASIZE SWAP2 POP PUSH2 0xDD3 JUMP JUMPDEST POP DUP3 DUP6 PUSH1 0x60 SWAP1 PUSH1 0x40 MLOAD PUSH2 0xE1A DUP4 DUP3 PUSH2 0x2BBD JUMP JUMPDEST DUP2 ISZERO PUSH2 0x1ECC JUMPI DUP5 CALLDATALOAD DUP2 MSTORE DUP2 PUSH1 0x1 LT ISZERO PUSH2 0x1ECC JUMPI PUSH1 0x20 DUP6 ADD CALLDATALOAD PUSH1 0x20 DUP3 ADD MSTORE DUP2 PUSH1 0x2 LT ISZERO PUSH2 0x1ECC JUMPI PUSH1 0x40 DUP6 ADD CALLDATALOAD PUSH1 0x40 DUP3 ADD MSTORE CALLER PUSH0 MSTORE PUSH1 0x8 PUSH1 0x20 MSTORE PUSH1 0x40 PUSH0 KECCAK256 SWAP1 PUSH0 JUMPDEST PUSH1 0x3 DUP2 LT PUSH2 0x1EB8 JUMPI POP POP CALLER PUSH0 SWAP1 DUP2 MSTORE PUSH1 0x5 PUSH1 0x20 MSTORE PUSH1 0x40 SWAP1 KECCAK256 PUSH2 0xE7B SWAP2 POP PUSH2 0x32B6 JUMP JUMPDEST SWAP5 DUP6 MLOAD ISZERO PUSH2 0x1E90 JUMPI JUMPDEST PUSH1 0x40 DUP1 MLOAD TIMESTAMP PUSH1 0x20 DUP3 ADD SWAP1 DUP2 MSTORE CALLER PUSH1 0x60 SHL PUSH12 0xFFFFFFFFFFFFFFFFFFFFFFFF NOT AND SWAP3 DUP3 ADD SWAP3 SWAP1 SWAP3 MSTORE PREVRANDAO PUSH1 0x54 DUP3 ADD MSTORE PUSH2 0xEC7 DUP2 PUSH1 0x74 DUP2 ADD JUMPDEST SUB PUSH1 0x1F NOT DUP2 ADD DUP4 MSTORE DUP3 PUSH2 0x2BBD JUMP JUMPDEST MLOAD SWAP1 KECCAK256 SWAP6 CALLER PUSH0 MSTORE PUSH1 0x3 PUSH1 0x20 MSTORE PUSH2 0xF0A PUSH2 0xFFFF PUSH1 0x40 PUSH0 KECCAK256 SLOAD AND SWAP7 PUSH2 0xF02 PUSH1 0x1 SLOAD PUSH1 0x1 DUP1 PUSH1 0xA0 SHL SUB AND SWAP8 PUSH1 0x2 SLOAD PUSH1 0x1 DUP1 PUSH1 0xA0 SHL SUB AND SWAP6 CALLDATASIZE SWAP2 PUSH2 0x330C JUMP JUMPDEST SWAP5 CALLDATASIZE SWAP2 PUSH2 0x330C JUMP JUMPDEST PUSH2 0xF12 PUSH2 0x3A17 JUMP JUMPDEST POP PUSH2 0xF1D DUP5 MLOAD PUSH2 0x3B13 JUMP JUMPDEST SWAP8 PUSH0 JUMPDEST DUP6 MLOAD DUP2 LT ISZERO PUSH2 0x10B8 JUMPI PUSH2 0xF33 DUP2 DUP8 PUSH2 0x3358 JUMP JUMPDEST MLOAD SWAP1 PUSH1 0x40 MLOAD SWAP2 PUSH4 0xB2ADFDF PUSH1 0xE1 SHL DUP4 MSTORE PUSH1 0x4 DUP4 ADD MSTORE PUSH1 0xC0 DUP3 PUSH1 0x24 DUP2 DUP13 GAS STATICCALL SWAP2 DUP3 ISZERO PUSH2 0x7ED JUMPI PUSH0 SWAP3 PUSH2 0x1088 JUMPI JUMPDEST POP PUSH1 0x20 DUP3 ADD SWAP2 PUSH2 0xF78 DUP4 MLOAD PUSH2 0xF73 DUP2 PUSH2 0x291A JUMP JUMPDEST PUSH2 0x46A4 JUMP JUMPDEST SWAP1 PUSH2 0xF8C PUSH1 0x80 DUP3 ADD SWAP3 PUSH1 0xFF DUP5 MLOAD AND SWAP1 PUSH2 0x46ED JUMP JUMPDEST PUSH1 0xFF DUP1 DUP13 DUP5 ADD MLOAD AND SWAP4 MLOAD AND SWAP2 PUSH1 0xA0 DUP2 ADD SWAP6 PUSH1 0xFF DUP8 MLOAD AND SWAP3 PUSH2 0xFD0 PUSH2 0xFB9 DUP4 MLOAD PUSH2 0xFB4 DUP2 PUSH2 0x291A JUMP JUMPDEST PUSH2 0x4701 JUMP JUMPDEST SWAP9 PUSH1 0xFF DUP5 MLOAD SWAP2 PUSH2 0xFC8 DUP4 PUSH2 0x291A JUMP JUMPDEST MLOAD AND SWAP1 PUSH2 0x4731 JUMP JUMPDEST PUSH1 0x40 DUP5 MLOAD SWAP4 PUSH2 0xFDE DUP6 PUSH2 0x291A JUMP JUMPDEST MLOAD SWAP5 PUSH2 0xFE9 DUP7 PUSH2 0x291A JUMP JUMPDEST ADD MLOAD SWAP5 PUSH1 0x4 DUP7 LT ISZERO PUSH2 0x7F8 JUMPI DUP16 SWAP10 PUSH1 0x1 SWAP11 PUSH2 0xFFFF PUSH1 0xFF SWAP6 DUP7 SWAP5 PUSH2 0x106C SWAP12 PUSH1 0x20 PUSH1 0x40 MLOAD SWAP15 DUP16 SWAP1 PUSH2 0x1017 DUP3 PUSH2 0x2BA1 JUMP JUMPDEST DUP2 MSTORE ADD MSTORE PUSH1 0x40 DUP14 ADD MSTORE AND DUP1 SWAP2 DUP12 ADD MSTORE PUSH1 0x80 DUP11 ADD MSTORE AND PUSH1 0xA0 DUP9 ADD MSTORE AND PUSH1 0xC0 DUP7 ADD MSTORE PUSH0 PUSH1 0xE0 DUP7 ADD MSTORE PUSH0 PUSH2 0x100 DUP7 ADD MSTORE PUSH2 0x104D DUP2 PUSH2 0x291A JUMP JUMPDEST PUSH2 0x120 DUP6 ADD MSTORE PUSH2 0x105C DUP2 PUSH2 0x291A JUMP JUMPDEST PUSH2 0x140 DUP5 ADD MSTORE PUSH2 0x160 DUP4 ADD PUSH2 0x31FD JUMP JUMPDEST PUSH2 0x1076 DUP3 DUP14 PUSH2 0x3358 JUMP JUMPDEST MSTORE PUSH2 0x1081 DUP2 DUP13 PUSH2 0x3358 JUMP JUMPDEST POP ADD PUSH2 0xF20 JUMP JUMPDEST PUSH2 0x10AA SWAP2 SWAP3 POP PUSH1 0xC0 RETURNDATASIZE DUP2 GT PUSH2 0x10B1 JUMPI JUMPDEST PUSH2 0x10A2 DUP2 DUP4 PUSH2 0x2BBD JUMP JUMPDEST DUP2 ADD SWAP1 PUSH2 0x3479 JUMP JUMPDEST SWAP1 DUP12 PUSH2 0xF5F JUMP JUMPDEST POP RETURNDATASIZE PUSH2 0x1098 JUMP JUMPDEST POP DUP6 SWAP1 DUP10 SWAP3 SWAP5 PUSH2 0x10C8 DUP11 DUP6 PUSH2 0x47AB JUMP JUMPDEST PUSH0 SWAP5 JUMPDEST DUP7 MLOAD DUP7 LT ISZERO PUSH2 0x13E6 JUMPI PUSH2 0x10DE DUP7 DUP9 PUSH2 0x3358 JUMP JUMPDEST MLOAD ISZERO PUSH2 0x13D9 JUMPI PUSH2 0x10EE DUP7 DUP9 PUSH2 0x3358 JUMP JUMPDEST MLOAD SWAP7 PUSH1 0x40 MLOAD SWAP8 PUSH4 0x68972D59 PUSH1 0xE0 SHL DUP10 MSTORE PUSH1 0x4 DUP10 ADD MSTORE PUSH0 DUP9 PUSH1 0x24 DUP2 DUP7 GAS STATICCALL SWAP8 DUP9 ISZERO PUSH2 0x7ED JUMPI PUSH0 SWAP9 PUSH2 0x12EC JUMPI JUMPDEST POP PUSH0 JUMPDEST DUP7 MLOAD DUP2 LT ISZERO PUSH2 0x12D7 JUMPI DUP9 MLOAD PUSH1 0x6 DUP2 LT ISZERO PUSH2 0x7F8 JUMPI PUSH2 0x1163 JUMPI PUSH1 0x1 SWAP1 PUSH1 0xFF PUSH1 0x20 DUP12 ADD MLOAD AND PUSH1 0xFF PUSH2 0x1159 PUSH2 0x114E DUP5 DUP13 PUSH2 0x3358 JUMP JUMPDEST MLOAD SWAP3 DUP3 DUP5 MLOAD AND PUSH2 0x2DB2 JUMP JUMPDEST AND SWAP1 MSTORE JUMPDEST ADD PUSH2 0x111C JUMP JUMPDEST DUP9 MLOAD PUSH1 0x6 DUP2 LT ISZERO PUSH2 0x7F8 JUMPI PUSH1 0x1 SUB PUSH2 0x11A6 JUMPI PUSH1 0x1 SWAP1 PUSH1 0xFF PUSH1 0x20 DUP12 ADD MLOAD AND PUSH1 0xFF PUSH2 0x119D PUSH1 0x20 PUSH2 0x1191 DUP6 DUP14 PUSH2 0x3358 JUMP JUMPDEST MLOAD ADD SWAP3 DUP3 DUP5 MLOAD AND PUSH2 0x2DB2 JUMP JUMPDEST AND SWAP1 MSTORE JUMPDEST PUSH2 0x115D JUMP JUMPDEST DUP9 MLOAD PUSH1 0x6 DUP2 LT ISZERO PUSH2 0x7F8 JUMPI PUSH1 0x2 SUB PUSH2 0x11D4 JUMPI PUSH1 0x1 SWAP1 PUSH1 0xFF PUSH1 0x20 DUP12 ADD MLOAD AND PUSH1 0xFF PUSH2 0x119D PUSH1 0x40 PUSH2 0x1191 DUP6 DUP14 PUSH2 0x3358 JUMP JUMPDEST DUP9 MLOAD PUSH1 0x6 DUP2 LT ISZERO PUSH2 0x7F8 JUMPI PUSH1 0x3 SUB PUSH2 0x1286 JUMPI PUSH2 0xFFFF DUP7 PUSH2 0x11F4 DUP4 DUP11 PUSH2 0x3358 JUMP JUMPDEST MLOAD ADD MLOAD AND SWAP1 PUSH1 0x3 PUSH2 0xFFFF PUSH1 0xFF PUSH1 0x20 DUP14 ADD MLOAD AND AND MUL PUSH2 0xFFFF DUP2 AND SWAP1 DUP2 SUB PUSH2 0x1272 JUMPI PUSH2 0xFFFF AND PUSH1 0x64 ADD SWAP2 PUSH2 0xFFFF DUP4 GT PUSH2 0x1272 JUMPI PUSH2 0xFFFF PUSH2 0x1236 PUSH1 0x1 SWAP5 PUSH1 0x64 SWAP4 PUSH2 0x46D4 JUMP JUMPDEST AND DIV PUSH2 0xFFFF DUP9 PUSH2 0x1246 DUP5 DUP13 PUSH2 0x3358 JUMP JUMPDEST MLOAD ADD SWAP2 AND SWAP1 MSTORE PUSH2 0xFFFF DUP8 PUSH2 0x125A DUP4 DUP12 PUSH2 0x3358 JUMP JUMPDEST MLOAD ADD MLOAD AND PUSH1 0x80 PUSH2 0x126A DUP4 DUP12 PUSH2 0x3358 JUMP JUMPDEST MLOAD ADD MSTORE PUSH2 0x115D JUMP JUMPDEST PUSH4 0x4E487B71 PUSH1 0xE0 SHL PUSH0 MSTORE PUSH1 0x11 PUSH1 0x4 MSTORE PUSH1 0x24 PUSH0 REVERT JUMPDEST DUP9 MLOAD PUSH1 0x6 DUP2 LT ISZERO PUSH2 0x7F8 JUMPI PUSH1 0x4 SUB PUSH2 0x12B4 JUMPI PUSH1 0x1 SWAP1 PUSH1 0xFF PUSH1 0x20 DUP12 ADD MLOAD AND PUSH1 0xFF PUSH2 0x119D PUSH1 0xA0 PUSH2 0x1191 DUP6 DUP14 PUSH2 0x3358 JUMP JUMPDEST DUP9 MLOAD SWAP1 PUSH1 0x6 DUP3 LT ISZERO PUSH2 0x7F8 JUMPI PUSH1 0x5 PUSH1 0x1 SWAP3 SUB PUSH2 0x11A1 JUMPI DUP2 PUSH1 0xE0 PUSH2 0x126A DUP4 DUP12 PUSH2 0x3358 JUMP JUMPDEST POP SWAP3 SWAP2 SWAP7 POP SWAP5 PUSH1 0x1 SWAP1 JUMPDEST ADD SWAP5 SWAP6 SWAP1 SWAP2 SWAP6 PUSH2 0x10CB JUMP JUMPDEST SWAP1 SWAP8 POP RETURNDATASIZE DUP1 PUSH0 DUP4 RETURNDATACOPY PUSH2 0x12FE DUP2 DUP4 PUSH2 0x2BBD JUMP JUMPDEST DUP2 ADD SWAP1 PUSH1 0x20 DUP2 DUP4 SUB SLT PUSH2 0x21E JUMPI DUP1 MLOAD SWAP1 PUSH1 0x1 PUSH1 0x1 PUSH1 0x40 SHL SUB DUP3 GT PUSH2 0x21E JUMPI ADD SWAP1 DUP6 DUP3 DUP3 SUB SLT PUSH2 0x21E JUMPI PUSH1 0x40 MLOAD SWAP2 PUSH2 0x1334 DUP4 PUSH2 0x2B6A JUMP JUMPDEST DUP1 MLOAD PUSH1 0x6 DUP2 LT ISZERO PUSH2 0x21E JUMPI DUP4 MSTORE PUSH2 0x134D PUSH1 0x20 DUP3 ADD PUSH2 0x346B JUMP JUMPDEST PUSH1 0x20 DUP5 ADD MSTORE PUSH1 0x40 DUP2 ADD MLOAD SWAP1 PUSH1 0x1 PUSH1 0x1 PUSH1 0x40 SHL SUB DUP3 GT PUSH2 0x21E JUMPI ADD DUP2 PUSH1 0x1F DUP3 ADD SLT ISZERO PUSH2 0x21E JUMPI DUP1 MLOAD SWAP1 PUSH1 0x1 PUSH1 0x1 PUSH1 0x40 SHL SUB DUP3 GT PUSH2 0x13C5 JUMPI PUSH1 0x40 MLOAD SWAP3 PUSH2 0x139B PUSH1 0x1F DUP5 ADD PUSH1 0x1F NOT AND PUSH1 0x20 ADD DUP6 PUSH2 0x2BBD JUMP JUMPDEST DUP3 DUP5 MSTORE PUSH1 0x20 DUP4 DUP4 ADD ADD GT PUSH2 0x21E JUMPI DUP2 PUSH0 SWAP3 PUSH1 0x20 DUP1 SWAP4 ADD DUP4 DUP7 ADD MCOPY DUP4 ADD ADD MSTORE PUSH1 0x40 DUP3 ADD MSTORE SWAP7 DUP9 PUSH2 0x1119 JUMP JUMPDEST PUSH4 0x4E487B71 PUSH1 0xE0 SHL PUSH0 MSTORE PUSH1 0x41 PUSH1 0x4 MSTORE PUSH1 0x24 PUSH0 REVERT JUMPDEST SWAP5 PUSH1 0x1 SWAP1 SWAP7 SWAP3 SWAP2 SWAP7 PUSH2 0x12E1 JUMP JUMPDEST SWAP2 SWAP5 POP POP PUSH2 0x13F4 DUP2 MLOAD PUSH2 0x3B13 JUMP JUMPDEST SWAP4 PUSH0 JUMPDEST DUP3 MLOAD DUP2 LT ISZERO PUSH2 0x14C1 JUMPI PUSH2 0x140A DUP2 DUP5 PUSH2 0x3358 JUMP JUMPDEST MLOAD SWAP1 DUP5 DUP3 ADD SWAP2 PUSH2 0x141E DUP4 MLOAD PUSH2 0xF73 DUP2 PUSH2 0x291A JUMP JUMPDEST SWAP1 PUSH2 0x1432 PUSH1 0xC0 DUP3 ADD SWAP3 PUSH1 0xFF DUP5 MLOAD AND SWAP1 PUSH2 0x46ED JUMP JUMPDEST PUSH1 0xFF DUP1 PUSH1 0xA0 DUP5 ADD MLOAD AND SWAP4 MLOAD AND SWAP2 PUSH1 0xE0 DUP2 ADD SWAP6 PUSH1 0xFF DUP8 MLOAD AND SWAP4 PUSH2 0x145B PUSH2 0xFB9 DUP4 MLOAD PUSH2 0xFB4 DUP2 PUSH2 0x291A JUMP JUMPDEST PUSH1 0x80 PUSH1 0x40 DUP6 ADD MLOAD SWAP4 PUSH2 0x146C DUP6 PUSH2 0x291A JUMP JUMPDEST MLOAD SWAP5 PUSH2 0x1477 DUP7 PUSH2 0x291A JUMP JUMPDEST ADD MLOAD SWAP5 PUSH1 0x4 DUP7 LT ISZERO PUSH2 0x7F8 JUMPI PUSH1 0x1 SWAP10 DUP14 PUSH2 0xFFFF PUSH1 0xFF SWAP6 SWAP4 PUSH2 0x14A5 SWAP11 DUP8 SWAP6 PUSH1 0x20 PUSH1 0x40 MLOAD SWAP15 DUP16 SWAP1 PUSH2 0x1017 DUP3 PUSH2 0x2BA1 JUMP JUMPDEST PUSH2 0x14AF DUP3 DUP10 PUSH2 0x3358 JUMP JUMPDEST MSTORE PUSH2 0x14BA DUP2 DUP9 PUSH2 0x3358 JUMP JUMPDEST POP ADD PUSH2 0x13F7 JUMP JUMPDEST POP DUP3 DUP5 DUP7 PUSH2 0x14CE DUP3 PUSH2 0x3BBF JUMP JUMPDEST PUSH2 0x14D7 DUP2 PUSH2 0x3BBF JUMP JUMPDEST PUSH2 0x14E1 DUP3 MLOAD PUSH2 0x3A4B JUMP JUMPDEST SWAP4 PUSH2 0x14EC DUP3 MLOAD PUSH2 0x3A4B JUMP JUMPDEST SWAP1 PUSH0 JUMPDEST DUP5 MLOAD DUP2 LT ISZERO PUSH2 0x151F JUMPI DUP1 PUSH2 0xFFFF PUSH1 0x80 PUSH2 0x150A PUSH1 0x1 SWAP5 DUP10 PUSH2 0x3358 JUMP JUMPDEST MLOAD ADD MLOAD AND PUSH2 0x1518 DUP3 DUP11 PUSH2 0x3358 JUMP JUMPDEST MSTORE ADD PUSH2 0x14EF JUMP JUMPDEST POP SWAP1 SWAP2 SWAP4 DUP6 PUSH0 JUMPDEST DUP7 MLOAD DUP2 LT ISZERO PUSH2 0x1556 JUMPI DUP1 PUSH2 0xFFFF PUSH1 0x80 PUSH2 0x1541 PUSH1 0x1 SWAP5 DUP12 PUSH2 0x3358 JUMP JUMPDEST MLOAD ADD MLOAD AND PUSH2 0x154F DUP3 DUP9 PUSH2 0x3358 JUMP JUMPDEST MSTORE ADD PUSH2 0x1526 JUMP JUMPDEST POP SWAP2 SWAP4 SWAP1 SWAP2 SWAP1 DUP6 PUSH1 0x40 MLOAD SWAP6 PUSH2 0xF20 PUSH2 0x156E DUP2 DUP10 PUSH2 0x2BBD JUMP JUMPDEST PUSH1 0x78 DUP9 MSTORE PUSH1 0x1F NOT ADD PUSH0 JUMPDEST DUP2 DUP2 LT PUSH2 0x1E27 JUMPI POP POP PUSH0 SWAP3 PUSH1 0x1 JUMPDEST PUSH1 0x12 PUSH1 0xFF DUP3 AND GT ISZERO PUSH2 0x1CF6 JUMPI JUMPDEST POP POP POP PUSH2 0x159F SWAP1 PUSH2 0x3CC6 JUMP JUMPDEST ISZERO SWAP1 PUSH2 0x15AA DUP2 PUSH2 0x2EDB JUMP JUMPDEST SWAP6 PUSH2 0x15B8 PUSH1 0x40 MLOAD SWAP8 DUP9 PUSH2 0x2BBD JUMP JUMPDEST DUP2 DUP8 MSTORE PUSH1 0x1F NOT PUSH2 0x15C7 DUP4 PUSH2 0x2EDB JUMP JUMPDEST ADD PUSH0 JUMPDEST DUP2 DUP2 LT PUSH2 0x1C8D JUMPI POP POP PUSH0 JUMPDEST DUP3 DUP2 LT PUSH2 0x1C63 JUMPI POP POP POP PUSH2 0x15E7 PUSH2 0x3A17 JUMP JUMPDEST SWAP1 DUP2 MSTORE PUSH1 0x20 DUP2 ADD SWAP5 DUP6 MSTORE PUSH1 0x40 DUP2 ADD SWAP2 DUP3 MSTORE DUP3 DUP2 ADD SWAP4 DUP5 MSTORE DUP1 MLOAD ISZERO ISZERO CALLER PUSH0 MSTORE PUSH1 0x3 PUSH1 0x20 MSTORE PUSH1 0x40 PUSH0 KECCAK256 SWAP1 PUSH0 EQ PUSH2 0x1C05 JUMPI PUSH1 0x1 DUP2 ADD PUSH2 0x1623 DUP2 SLOAD PUSH2 0x3A92 JUMP JUMPDEST DUP2 SSTORE PUSH2 0xFFFF DUP1 PUSH1 0x3 DUP1 DUP6 ADD SWAP4 PUSH2 0x165A PUSH2 0x1642 PUSH1 0xFF DUP8 SLOAD PUSH1 0x10 SHR AND PUSH2 0x3AA0 JUMP JUMPDEST DUP7 SLOAD PUSH3 0xFF0000 NOT AND PUSH1 0x10 SWAP2 SWAP1 SWAP2 SHL PUSH3 0xFF0000 AND OR DUP7 SSTORE JUMP JUMPDEST SLOAD DIV AND AND PUSH2 0xFFFF NOT DUP3 SLOAD AND OR SWAP1 SSTORE DUP1 SLOAD SWAP1 PUSH1 0x6 PUSH2 0xFFFF DUP4 AND MUL PUSH4 0xFFFFFFFF DUP2 AND SWAP1 DUP2 SUB PUSH2 0x1272 JUMPI PUSH1 0xA0 ADD PUSH4 0xFFFFFFFF DUP2 GT PUSH2 0x1272 JUMPI PUSH2 0x16A8 PUSH2 0x16C6 SWAP2 PUSH4 0xFFFFFFFF PUSH2 0x16CB SWAP6 PUSH1 0x10 SHR AND PUSH2 0x342B JUMP JUMPDEST DUP3 SLOAD PUSH6 0xFFFFFFFF0000 NOT AND PUSH1 0x10 SWAP2 SWAP1 SWAP2 SHL PUSH6 0xFFFFFFFF0000 AND OR DUP3 SSTORE JUMP JUMPDEST PUSH2 0x3AB1 JUMP JUMPDEST PUSH2 0x16EF DUP2 MLOAD ISZERO ISZERO CALLER PUSH0 MSTORE PUSH1 0xB PUSH1 0x20 MSTORE PUSH1 0x40 PUSH0 KECCAK256 SWAP1 PUSH1 0xFF DUP1 NOT DUP4 SLOAD AND SWAP2 ISZERO ISZERO AND OR SWAP1 SSTORE JUMP JUMPDEST CALLER PUSH0 SWAP1 DUP2 MSTORE PUSH1 0xC PUSH1 0x20 MSTORE PUSH1 0x40 DUP2 KECCAK256 DUP1 SLOAD SWAP2 DUP2 SSTORE DUP2 PUSH2 0x1B78 JUMPI JUMPDEST POP POP PUSH0 JUMPDEST DUP6 MLOAD MLOAD DUP2 LT ISZERO PUSH2 0x19A7 JUMPI CALLER PUSH0 SWAP1 DUP2 MSTORE PUSH1 0xC PUSH1 0x20 MSTORE PUSH1 0x40 SWAP1 KECCAK256 PUSH2 0x172F DUP3 DUP9 MLOAD PUSH2 0x3358 JUMP JUMPDEST MLOAD SWAP1 DUP1 SLOAD PUSH1 0x1 PUSH1 0x40 SHL DUP2 LT ISZERO PUSH2 0x13C5 JUMPI PUSH2 0x174E SWAP2 PUSH1 0x1 DUP3 ADD DUP2 SSTORE PUSH2 0x2AFD JUMP JUMPDEST PUSH2 0x7A4 JUMPI DUP2 MLOAD DUP2 SLOAD PUSH1 0x20 DUP5 ADD MLOAD PUSH1 0x40 DUP6 ADD MLOAD PUSH3 0xFFFFFF NOT SWAP1 SWAP3 AND PUSH1 0xFF SWAP4 SWAP1 SWAP4 AND SWAP3 SWAP1 SWAP3 OR SWAP2 ISZERO ISZERO PUSH1 0x8 SHL PUSH2 0xFF00 AND SWAP2 SWAP1 SWAP2 OR PUSH1 0x10 SWAP2 SWAP1 SWAP2 SHL PUSH3 0xFF0000 AND OR DUP2 SSTORE DUP2 DUP7 ADD MLOAD DUP2 SLOAD PUSH4 0xFF000000 NOT AND PUSH1 0x18 SWAP2 SWAP1 SWAP2 SHL PUSH4 0xFF000000 AND OR DUP2 SSTORE PUSH1 0x80 DUP3 ADD MLOAD DUP2 SLOAD PUSH1 0xA0 DUP5 ADD MLOAD PUSH1 0xC0 DUP6 ADD MLOAD PUSH1 0xE0 DUP7 ADD MLOAD PUSH12 0xFFFFFFFFFFFFFFFF00000000 NOT SWAP1 SWAP4 AND PUSH1 0x20 SWAP5 SWAP1 SWAP5 SHL PUSH6 0xFFFF00000000 AND SWAP4 SWAP1 SWAP4 OR PUSH1 0x30 SWAP2 SWAP1 SWAP2 SHL PUSH8 0xFFFF000000000000 AND OR PUSH1 0x40 SWAP3 SWAP1 SWAP3 SHL PUSH10 0xFFFF0000000000000000 AND SWAP2 SWAP1 SWAP2 OR PUSH1 0x50 SWAP2 SWAP1 SWAP2 SHL PUSH2 0xFFFF PUSH1 0x50 SHL AND OR DUP2 SSTORE PUSH2 0x100 DUP3 ADD MLOAD DUP1 MLOAD PUSH1 0x1 DUP4 ADD SWAP2 PUSH1 0x1 PUSH1 0x1 PUSH1 0x40 SHL SUB DUP3 GT PUSH2 0x13C5 JUMPI PUSH2 0x183F DUP4 SLOAD PUSH2 0x2B16 JUMP JUMPDEST PUSH1 0x1F DUP2 GT PUSH2 0x196C JUMPI JUMPDEST POP PUSH1 0x20 SWAP1 PUSH1 0x1F DUP4 GT PUSH1 0x1 EQ PUSH2 0x18FA JUMPI PUSH2 0x18E9 SWAP5 PUSH1 0x1 SWAP8 SWAP7 SWAP5 DUP5 PUSH1 0xFF SWAP6 PUSH2 0x180 SWAP6 PUSH1 0x2 SWAP6 PUSH0 SWAP3 PUSH2 0x18EF JUMPI JUMPDEST POP POP PUSH0 NOT PUSH1 0x3 DUP4 SWAP1 SHL SHR NOT AND SWAP1 DUP11 SHL OR SWAP1 SSTORE JUMPDEST PUSH2 0x120 DUP6 ADD MLOAD SWAP2 ADD DUP1 SLOAD PUSH2 0x140 DUP7 ADD MLOAD PUSH2 0x160 DUP8 ADD MLOAD PUSH3 0xFFFF00 NOT DUP8 NOT SWAP4 SWAP1 SWAP4 AND SWAP5 DUP8 AND SWAP5 SWAP1 SWAP5 OR SWAP2 SWAP1 SWAP2 AND PUSH1 0x8 SWAP2 SWAP1 SWAP2 SHL PUSH2 0xFF00 AND OR SWAP2 DUP5 AND PUSH1 0x10 SHL PUSH3 0xFF0000 AND SWAP2 SWAP1 SWAP2 OR DUP2 SSTORE SWAP3 ADD MLOAD DUP3 SLOAD PUSH4 0xFF000000 NOT AND SWAP2 AND PUSH1 0x18 SHL PUSH4 0xFF000000 AND OR SWAP1 SSTORE JUMP JUMPDEST ADD PUSH2 0x170C JUMP JUMPDEST ADD MLOAD SWAP1 POP PUSH0 DUP1 PUSH2 0x1872 JUMP JUMPDEST SWAP1 PUSH1 0x1F NOT DUP4 AND SWAP2 DUP5 PUSH0 MSTORE DUP2 PUSH0 KECCAK256 SWAP3 PUSH0 JUMPDEST DUP2 DUP2 LT PUSH2 0x1954 JUMPI POP SWAP5 PUSH1 0x1 DUP6 PUSH2 0x180 SWAP6 PUSH1 0x2 SWAP6 PUSH2 0x18E9 SWAP11 SWAP6 PUSH1 0xFF SWAP10 DUP6 SWAP15 SWAP14 SWAP12 LT PUSH2 0x193C JUMPI JUMPDEST POP POP POP DUP2 SHL ADD SWAP1 SSTORE PUSH2 0x1885 JUMP JUMPDEST ADD MLOAD PUSH0 NOT PUSH1 0xF8 DUP5 PUSH1 0x3 SHL AND SHR NOT AND SWAP1 SSTORE PUSH0 DUP1 DUP1 PUSH2 0x192F JUMP JUMPDEST SWAP3 SWAP4 PUSH1 0x20 PUSH1 0x1 DUP2 SWAP3 DUP8 DUP7 ADD MLOAD DUP2 SSTORE ADD SWAP6 ADD SWAP4 ADD PUSH2 0x190A JUMP JUMPDEST PUSH2 0x1997 SWAP1 DUP5 PUSH0 MSTORE PUSH1 0x20 PUSH0 KECCAK256 PUSH1 0x1F DUP6 ADD PUSH1 0x5 SHR DUP2 ADD SWAP2 PUSH1 0x20 DUP7 LT PUSH2 0x199D JUMPI JUMPDEST PUSH1 0x1F ADD PUSH1 0x5 SHR ADD SWAP1 PUSH2 0x32A0 JUMP JUMPDEST DUP12 PUSH2 0x1848 JUMP JUMPDEST SWAP1 SWAP2 POP DUP2 SWAP1 PUSH2 0x198A JUMP JUMPDEST POP CALLER PUSH0 SWAP1 DUP2 MSTORE PUSH1 0x9 PUSH1 0x20 MSTORE PUSH1 0x40 SWAP1 KECCAK256 DUP5 SWAP1 DUP7 SWAP1 PUSH2 0x19C3 SWAP1 PUSH2 0x336C JUMP JUMPDEST PUSH0 JUMPDEST DUP5 MLOAD MLOAD DUP2 LT ISZERO PUSH2 0x1A01 JUMPI CALLER PUSH0 SWAP1 DUP2 MSTORE PUSH1 0x9 PUSH1 0x20 MSTORE PUSH1 0x40 SWAP1 KECCAK256 PUSH1 0x1 SWAP2 SWAP1 PUSH2 0x19FB SWAP1 PUSH2 0xFFFF PUSH2 0x19F3 DUP5 DUP11 MLOAD PUSH2 0x3358 JUMP JUMPDEST MLOAD AND SWAP1 PUSH2 0x3393 JUMP JUMPDEST ADD PUSH2 0x19C5 JUMP JUMPDEST POP CALLER PUSH0 SWAP1 DUP2 MSTORE PUSH1 0xA PUSH1 0x20 MSTORE PUSH1 0x40 SWAP1 KECCAK256 DUP4 SWAP1 PUSH2 0x1A1B SWAP1 PUSH2 0x336C JUMP JUMPDEST PUSH0 JUMPDEST DUP4 MLOAD MLOAD DUP2 LT ISZERO PUSH2 0x1A51 JUMPI CALLER PUSH0 SWAP1 DUP2 MSTORE PUSH1 0xA PUSH1 0x20 MSTORE PUSH1 0x40 SWAP1 KECCAK256 PUSH1 0x1 SWAP2 SWAP1 PUSH2 0x1A4B SWAP1 PUSH2 0xFFFF PUSH2 0x19F3 DUP5 DUP10 MLOAD PUSH2 0x3358 JUMP JUMPDEST ADD PUSH2 0x1A1D JUMP JUMPDEST POP SWAP1 DUP2 MLOAD ISZERO ISZERO DUP1 PUSH2 0x1B64 JUMPI JUMPDEST PUSH2 0x1AD1 JUMPI JUMPDEST PUSH32 0xC252FE2D1DC706D4F4B52AFA35C4264A4AA7002D846E033BB7F16EDEF409EFD4 PUSH2 0x1AA3 DUP4 MLOAD ISZERO ISZERO SWAP3 MLOAD PUSH1 0x40 MLOAD SWAP4 DUP5 MSTORE PUSH1 0x40 PUSH1 0x20 DUP6 ADD MSTORE PUSH1 0x40 DUP5 ADD SWAP1 PUSH2 0x27DB JUMP JUMPDEST SWAP2 DUP1 CALLER SWAP4 SUB SWAP1 LOG2 MLOAD PUSH2 0x1AC3 JUMPI JUMPDEST PUSH1 0x1 PUSH0 MLOAD PUSH1 0x20 PUSH2 0x4A35 PUSH0 CODECOPY PUSH0 MLOAD SWAP1 PUSH0 MSTORE SSTORE STOP JUMPDEST PUSH2 0x1ACC CALLER PUSH2 0x3518 JUMP JUMPDEST PUSH2 0x1AB0 JUMP JUMPDEST PUSH1 0x2 SLOAD PUSH1 0x40 MLOAD PUSH4 0xF925B741 PUSH1 0xE0 SHL DUP2 MSTORE CALLER PUSH1 0x4 DUP3 ADD MSTORE SWAP1 PUSH1 0x1 PUSH1 0x1 PUSH1 0xA0 SHL SUB AND DUP2 PUSH1 0x64 DUP2 PUSH0 PUSH1 0x20 SWAP5 DUP2 PUSH1 0x24 DUP5 ADD MSTORE PUSH1 0x5 PUSH1 0x44 DUP5 ADD MSTORE GAS CALL DUP1 ISZERO PUSH2 0x7ED JUMPI PUSH0 SWAP1 PUSH2 0x1B30 JUMPI JUMPDEST PUSH2 0x1B2B SWAP2 POP CALLER PUSH0 MSTORE PUSH1 0x7 PUSH1 0x20 MSTORE PUSH1 0x40 PUSH0 KECCAK256 PUSH2 0x2CBE JUMP JUMPDEST PUSH2 0x1A62 JUMP JUMPDEST POP PUSH1 0x20 DUP2 RETURNDATASIZE PUSH1 0x20 GT PUSH2 0x1B5C JUMPI JUMPDEST DUP2 PUSH2 0x1B4A PUSH1 0x20 SWAP4 DUP4 PUSH2 0x2BBD JUMP JUMPDEST DUP2 ADD SUB SLT PUSH2 0x21E JUMPI PUSH2 0x1B2B SWAP1 MLOAD PUSH2 0x1B15 JUMP JUMPDEST RETURNDATASIZE SWAP2 POP PUSH2 0x1B3D JUMP JUMPDEST POP PUSH1 0x2 SLOAD PUSH1 0x1 PUSH1 0x1 PUSH1 0xA0 SHL SUB AND ISZERO ISZERO PUSH2 0x1A5D JUMP JUMPDEST DUP2 PUSH1 0x3 MUL SWAP2 PUSH1 0x3 DUP4 DIV SUB PUSH2 0x1272 JUMPI PUSH0 MSTORE PUSH1 0x20 PUSH0 KECCAK256 SWAP1 DUP2 ADD SWAP1 JUMPDEST DUP2 DUP2 LT ISZERO PUSH2 0x1708 JUMPI DUP1 PUSH0 PUSH1 0x3 SWAP3 SSTORE PUSH1 0x1 DUP2 ADD PUSH2 0x1BAD DUP2 SLOAD PUSH2 0x2B16 JUMP JUMPDEST SWAP1 DUP2 PUSH2 0x1BC2 JUMPI JUMPDEST POP POP PUSH0 PUSH1 0x2 DUP3 ADD SSTORE ADD PUSH2 0x1B91 JUMP JUMPDEST DUP2 PUSH1 0x1F PUSH0 SWAP4 GT PUSH1 0x1 EQ PUSH2 0x1BD9 JUMPI POP SSTORE JUMPDEST DUP9 DUP1 PUSH2 0x1BB4 JUMP JUMPDEST DUP2 DUP4 MSTORE PUSH1 0x20 DUP4 KECCAK256 PUSH2 0x1BF5 SWAP2 PUSH1 0x1F ADD PUSH1 0x5 SHR DUP2 ADD SWAP1 PUSH1 0x1 ADD PUSH2 0x32A0 JUMP JUMPDEST DUP1 DUP3 MSTORE DUP2 PUSH1 0x20 DUP2 KECCAK256 SWAP2 SSTORE SSTORE PUSH2 0x1BD2 JUMP JUMPDEST PUSH1 0x2 DUP2 ADD PUSH2 0x1C13 DUP2 SLOAD PUSH2 0x3A92 JUMP JUMPDEST SWAP1 SSTORE PUSH1 0x3 DUP2 ADD PUSH3 0xFF0000 NOT DUP2 SLOAD AND SWAP1 SSTORE DUP1 SLOAD SWAP1 PUSH1 0x3 PUSH2 0xFFFF DUP4 AND MUL PUSH4 0xFFFFFFFF DUP2 AND SWAP1 DUP2 SUB PUSH2 0x1272 JUMPI PUSH1 0x55 ADD PUSH4 0xFFFFFFFF DUP2 GT PUSH2 0x1272 JUMPI PUSH2 0x16A8 PUSH2 0x16C6 SWAP2 PUSH4 0xFFFFFFFF PUSH2 0x16CB SWAP6 PUSH1 0x10 SHR AND PUSH2 0x342B JUMP JUMPDEST DUP1 PUSH2 0x1C70 PUSH1 0x1 SWAP3 DUP5 PUSH2 0x3358 JUMP JUMPDEST MLOAD PUSH2 0x1C7B DUP3 DUP12 PUSH2 0x3358 JUMP JUMPDEST MSTORE PUSH2 0x1C86 DUP2 DUP11 PUSH2 0x3358 JUMP JUMPDEST POP ADD PUSH2 0x15D5 JUMP JUMPDEST PUSH1 0x20 SWAP1 PUSH1 0x40 MLOAD PUSH2 0x1C9C DUP2 PUSH2 0x2B4E JUMP JUMPDEST PUSH0 DUP2 MSTORE PUSH0 DUP4 DUP3 ADD MSTORE PUSH0 PUSH1 0x40 DUP3 ADD MSTORE PUSH0 DUP10 DUP3 ADD MSTORE PUSH0 PUSH1 0x80 DUP3 ADD MSTORE PUSH0 PUSH1 0xA0 DUP3 ADD MSTORE PUSH0 PUSH1 0xC0 DUP3 ADD MSTORE PUSH0 PUSH1 0xE0 DUP3 ADD MSTORE DUP9 PUSH2 0x100 DUP3 ADD MSTORE PUSH0 PUSH2 0x120 DUP3 ADD MSTORE PUSH0 PUSH2 0x140 DUP3 ADD MSTORE PUSH0 PUSH2 0x160 DUP3 ADD MSTORE PUSH0 PUSH2 0x180 DUP3 ADD MSTORE DUP3 DUP3 DUP13 ADD ADD MSTORE ADD PUSH2 0x15CA JUMP JUMPDEST PUSH2 0x1CFF DUP3 PUSH2 0x3CC6 JUMP JUMPDEST ISZERO DUP1 ISZERO PUSH2 0x1E17 JUMPI JUMPDEST PUSH2 0x1E12 JUMPI PUSH2 0x1D14 DUP3 PUSH2 0x3D13 JUMP JUMPDEST PUSH2 0x1D1D DUP5 PUSH2 0x3D13 JUMP JUMPDEST PUSH1 0x3 PUSH1 0xFF DUP3 AND MUL PUSH1 0xFF DUP2 AND SWAP1 DUP2 SUB PUSH2 0x1272 JUMPI PUSH1 0x1 DUP5 PUSH1 0xFF DUP1 SWAP4 AND SHR AND AND PUSH1 0x1 ADD PUSH1 0xFF DUP2 GT PUSH2 0x1272 JUMPI PUSH1 0xFF AND PUSH0 JUMPDEST DUP2 PUSH1 0xFF DUP3 AND LT PUSH2 0x1D65 JUMPI JUMPDEST POP POP PUSH2 0x1D60 SWAP1 PUSH2 0x3AA0 JUMP JUMPDEST PUSH2 0x1586 JUMP JUMPDEST PUSH1 0x77 DUP8 LT ISZERO PUSH2 0x1DFD JUMPI PUSH2 0x1D77 DUP5 PUSH2 0x3CC6 JUMP JUMPDEST ISZERO DUP1 ISZERO PUSH2 0x1E02 JUMPI JUMPDEST PUSH2 0x1DFD JUMPI DUP3 DUP8 DUP13 DUP8 PUSH2 0x1D91 DUP11 DUP10 PUSH2 0x3D7C JUMP JUMPDEST SWAP5 SWAP1 ISZERO PUSH2 0x1DCC JUMPI PUSH2 0x1DA3 SWAP5 DUP12 DUP11 PUSH2 0x4333 JUMP JUMPDEST PUSH2 0x1DB5 JUMPI JUMPDEST PUSH1 0x1 PUSH1 0xFF SWAP2 JUMPDEST ADD AND PUSH2 0x1D4A JUMP JUMPDEST SWAP6 PUSH1 0x1 PUSH2 0x1DC3 PUSH1 0xFF SWAP3 PUSH2 0x3A92 JUMP JUMPDEST SWAP8 SWAP2 POP POP PUSH2 0x1DA8 JUMP JUMPDEST PUSH2 0x1DD7 SWAP5 DUP10 DUP13 PUSH2 0x3F55 JUMP JUMPDEST PUSH2 0x1DE6 JUMPI JUMPDEST PUSH1 0x1 PUSH1 0xFF SWAP2 PUSH2 0x1DAE JUMP JUMPDEST SWAP6 PUSH1 0x1 PUSH2 0x1DF4 PUSH1 0xFF SWAP3 PUSH2 0x3A92 JUMP JUMPDEST SWAP8 SWAP2 POP POP PUSH2 0x1DDC JUMP JUMPDEST PUSH2 0x1D55 JUMP JUMPDEST POP PUSH2 0x1E0C DUP7 PUSH2 0x3CC6 JUMP JUMPDEST ISZERO PUSH2 0x1D7F JUMP JUMPDEST PUSH2 0x1593 JUMP JUMPDEST POP PUSH2 0x1E21 DUP5 PUSH2 0x3CC6 JUMP JUMPDEST ISZERO PUSH2 0x1D07 JUMP JUMPDEST PUSH1 0x20 SWAP1 PUSH1 0x40 MLOAD PUSH2 0x1E36 DUP2 PUSH2 0x2B4E JUMP JUMPDEST PUSH0 DUP2 MSTORE PUSH0 DUP4 DUP3 ADD MSTORE PUSH0 PUSH1 0x40 DUP3 ADD MSTORE PUSH0 DUP10 DUP3 ADD MSTORE PUSH0 PUSH1 0x80 DUP3 ADD MSTORE PUSH0 PUSH1 0xA0 DUP3 ADD MSTORE PUSH0 PUSH1 0xC0 DUP3 ADD MSTORE PUSH0 PUSH1 0xE0 DUP3 ADD MSTORE DUP9 PUSH2 0x100 DUP3 ADD MSTORE PUSH0 PUSH2 0x120 DUP3 ADD MSTORE PUSH0 PUSH2 0x140 DUP3 ADD MSTORE PUSH0 PUSH2 0x160 DUP3 ADD MSTORE PUSH0 PUSH2 0x180 DUP3 ADD MSTORE DUP3 DUP3 DUP13 ADD ADD MSTORE ADD PUSH2 0x1578 JUMP JUMPDEST SWAP5 POP PUSH2 0x1E9B CALLER PUSH2 0x3518 JUMP JUMPDEST CALLER PUSH0 SWAP1 DUP2 MSTORE PUSH1 0x5 PUSH1 0x20 MSTORE PUSH1 0x40 SWAP1 KECCAK256 PUSH2 0x1EB2 SWAP1 PUSH2 0x32B6 JUMP JUMPDEST SWAP5 PUSH2 0xE84 JUMP JUMPDEST PUSH1 0x1 SWAP1 PUSH1 0x20 DUP4 MLOAD SWAP4 ADD SWAP3 DUP2 DUP6 ADD SSTORE ADD PUSH2 0xE59 JUMP JUMPDEST PUSH4 0x4E487B71 PUSH1 0xE0 SHL PUSH0 MSTORE PUSH1 0x32 PUSH1 0x4 MSTORE PUSH1 0x24 PUSH0 REVERT JUMPDEST PUSH1 0x40 MLOAD PUSH3 0x461BCD PUSH1 0xE5 SHL DUP2 MSTORE PUSH1 0x20 PUSH1 0x4 DUP3 ADD MSTORE PUSH1 0x26 PUSH1 0x24 DUP3 ADD MSTORE PUSH32 0x4D7573742065717569702065786163746C7920332072656C69637320286F7220 PUSH1 0x44 DUP3 ADD MSTORE PUSH6 0x302C302C3029 PUSH1 0xD0 SHL PUSH1 0x64 DUP3 ADD MSTORE PUSH1 0x84 SWAP1 REVERT JUMPDEST PUSH1 0x40 MLOAD PUSH3 0x461BCD PUSH1 0xE5 SHL DUP2 MSTORE PUSH1 0x20 PUSH1 0x4 DUP3 ADD MSTORE PUSH1 0x12 PUSH1 0x24 DUP3 ADD MSTORE PUSH18 0x5465616D2073697A6520342D38206F6E6C79 PUSH1 0x70 SHL PUSH1 0x44 DUP3 ADD MSTORE PUSH1 0x64 SWAP1 REVERT JUMPDEST POP PUSH1 0x8 DUP2 GT ISZERO PUSH2 0xD1E JUMP JUMPDEST CALLVALUE PUSH2 0x21E JUMPI PUSH1 0x40 CALLDATASIZE PUSH1 0x3 NOT ADD SLT PUSH2 0x21E JUMPI PUSH2 0x1F92 PUSH2 0x27A1 JUMP JUMPDEST PUSH1 0x1 PUSH1 0x1 PUSH1 0xA0 SHL SUB AND PUSH0 SWAP1 DUP2 MSTORE PUSH1 0x6 PUSH1 0x20 MSTORE PUSH1 0x40 SWAP1 KECCAK256 DUP1 SLOAD PUSH1 0x24 CALLDATALOAD SWAP2 SWAP1 DUP3 LT ISZERO PUSH2 0x21E JUMPI PUSH1 0x20 SWAP2 PUSH2 0x26B SWAP2 PUSH2 0x29E3 JUMP JUMPDEST CALLVALUE PUSH2 0x21E JUMPI PUSH1 0x40 CALLDATASIZE PUSH1 0x3 NOT ADD SLT PUSH2 0x21E JUMPI PUSH2 0x1FDB PUSH2 0x27A1 JUMP JUMPDEST PUSH1 0x1 PUSH1 0x1 PUSH1 0xA0 SHL SUB AND PUSH0 SWAP1 DUP2 MSTORE PUSH1 0x9 PUSH1 0x20 MSTORE PUSH1 0x40 SWAP1 KECCAK256 DUP1 SLOAD PUSH1 0x24 CALLDATALOAD SWAP1 DUP2 LT ISZERO PUSH2 0x21E JUMPI PUSH2 0xBB3 PUSH2 0xFFFF SWAP2 PUSH1 0x20 SWAP4 PUSH2 0x29C2 JUMP JUMPDEST CALLVALUE PUSH2 0x21E JUMPI PUSH1 0x20 CALLDATASIZE PUSH1 0x3 NOT ADD SLT PUSH2 0x21E JUMPI PUSH2 0x2026 PUSH2 0x27A1 JUMP JUMPDEST PUSH1 0x60 PUSH1 0x40 MLOAD PUSH2 0x2036 PUSH1 0x60 DUP3 PUSH2 0x2BBD JUMP JUMPDEST PUSH0 JUMPDEST DUP3 DUP2 LT PUSH2 0x20B8 JUMPI DUP4 PUSH1 0x1 DUP1 PUSH1 0xA0 SHL SUB AND PUSH0 MSTORE PUSH1 0x4 PUSH1 0x20 MSTORE PUSH1 0x40 PUSH0 KECCAK256 PUSH1 0x40 MLOAD SWAP1 PUSH2 0x2060 DUP3 PUSH2 0x2B6A JUMP JUMPDEST PUSH0 DUP3 JUMPDEST PUSH1 0x3 DUP3 LT PUSH2 0x209A JUMPI PUSH1 0x40 MLOAD DUP5 PUSH0 DUP3 JUMPDEST PUSH1 0x3 DUP3 LT PUSH2 0x2080 JUMPI PUSH2 0x3C0 DUP5 RETURN JUMPDEST PUSH1 0x20 PUSH2 0x208F PUSH1 0x1 SWAP3 DUP6 MLOAD PUSH2 0x2931 JUMP JUMPDEST SWAP4 ADD SWAP2 ADD SWAP1 SWAP2 PUSH2 0x2072 JUMP JUMPDEST PUSH1 0x3 PUSH1 0x20 PUSH1 0x1 SWAP3 PUSH2 0x20AA DUP7 PUSH2 0x3209 JUMP JUMPDEST DUP2 MSTORE ADD SWAP4 ADD SWAP2 ADD SWAP1 SWAP2 PUSH2 0x2063 JUMP JUMPDEST PUSH1 0x20 SWAP1 PUSH2 0x20C3 PUSH2 0x2CF2 JUMP JUMPDEST DUP2 DUP5 ADD MSTORE ADD PUSH2 0x2038 JUMP JUMPDEST CALLVALUE PUSH2 0x21E JUMPI PUSH0 CALLDATASIZE PUSH1 0x3 NOT ADD SLT PUSH2 0x21E JUMPI PUSH2 0x20E5 PUSH2 0x3445 JUMP JUMPDEST PUSH0 SLOAD PUSH1 0xFF DUP2 PUSH1 0xA0 SHR AND ISZERO PUSH2 0x212A JUMPI PUSH1 0xFF PUSH1 0xA0 SHL NOT AND PUSH0 SSTORE PUSH1 0x40 MLOAD CALLER DUP2 MSTORE PUSH32 0x5DB9EE0A495BF2E6FF9C91A7834C1BA4FDD244A5E8AA4E537BD38AEAE4B073AA SWAP1 PUSH1 0x20 SWAP1 LOG1 STOP JUMPDEST PUSH4 0x8DFC202B PUSH1 0xE0 SHL PUSH0 MSTORE PUSH1 0x4 PUSH0 REVERT JUMPDEST CALLVALUE PUSH2 0x21E JUMPI PUSH0 CALLDATASIZE PUSH1 0x3 NOT ADD SLT PUSH2 0x21E JUMPI PUSH2 0x2151 PUSH2 0x3445 JUMP JUMPDEST PUSH0 DUP1 SLOAD DUP2 SWAP1 DUP2 SWAP1 DUP2 SWAP1 SELFBALANCE SWAP1 PUSH1 0x1 PUSH1 0x1 PUSH1 0xA0 SHL SUB AND DUP3 DUP3 ISZERO PUSH2 0x2175 JUMPI JUMPDEST CALL ISZERO PUSH2 0x7ED JUMPI STOP JUMPDEST POP PUSH2 0x8FC PUSH2 0x216D JUMP JUMPDEST CALLVALUE PUSH2 0x21E JUMPI PUSH1 0x20 CALLDATASIZE PUSH1 0x3 NOT ADD SLT PUSH2 0x21E JUMPI PUSH1 0x1 PUSH1 0x1 PUSH1 0xA0 SHL SUB PUSH2 0x219F PUSH2 0x27A1 JUMP JUMPDEST AND DUP1 PUSH0 MSTORE PUSH1 0xB PUSH1 0x20 MSTORE PUSH1 0xFF PUSH1 0x40 PUSH0 KECCAK256 SLOAD AND DUP2 PUSH0 MSTORE PUSH1 0xC PUSH1 0x20 MSTORE PUSH1 0x40 PUSH0 KECCAK256 SWAP2 DUP1 PUSH0 MSTORE PUSH1 0x9 PUSH1 0x20 MSTORE PUSH1 0x40 PUSH0 KECCAK256 SWAP1 PUSH0 MSTORE PUSH1 0xA PUSH1 0x20 MSTORE PUSH1 0x40 PUSH0 KECCAK256 SWAP1 DUP4 SLOAD PUSH2 0x21E1 DUP2 PUSH2 0x2EDB JUMP JUMPDEST SWAP5 PUSH2 0x21EF PUSH1 0x40 MLOAD SWAP7 DUP8 PUSH2 0x2BBD JUMP JUMPDEST DUP2 DUP7 MSTORE PUSH1 0x20 DUP7 ADD SWAP1 PUSH0 MSTORE PUSH1 0x20 PUSH0 KECCAK256 PUSH0 SWAP2 JUMPDEST DUP4 DUP4 LT PUSH2 0x225D JUMPI DUP8 DUP8 PUSH2 0x3BA DUP9 PUSH2 0x224F PUSH2 0x2222 PUSH2 0x221C DUP12 PUSH2 0x2EF2 JUMP JUMPDEST SWAP3 PUSH2 0x2EF2 JUMP JUMPDEST SWAP2 PUSH2 0x2241 PUSH1 0x40 MLOAD SWAP7 DUP8 SWAP7 ISZERO ISZERO DUP8 MSTORE PUSH1 0x80 PUSH1 0x20 DUP9 ADD MSTORE PUSH1 0x80 DUP8 ADD SWAP1 PUSH2 0x27DB JUMP JUMPDEST SWAP1 DUP6 DUP3 SUB PUSH1 0x40 DUP8 ADD MSTORE PUSH2 0x28E3 JUMP JUMPDEST SWAP1 DUP4 DUP3 SUB PUSH1 0x60 DUP6 ADD MSTORE PUSH2 0x28E3 JUMP JUMPDEST PUSH1 0x3 PUSH1 0x20 PUSH1 0x1 SWAP3 PUSH1 0x40 MLOAD PUSH2 0x2270 DUP2 PUSH2 0x2B4E JUMP JUMPDEST PUSH2 0xFFFF DUP7 SLOAD PUSH1 0xFF DUP2 AND DUP4 MSTORE PUSH1 0xFF DUP2 PUSH1 0x8 SHR AND ISZERO ISZERO DUP6 DUP5 ADD MSTORE PUSH1 0xFF DUP2 PUSH1 0x10 SHR AND PUSH1 0x40 DUP5 ADD MSTORE PUSH1 0xFF DUP2 PUSH1 0x18 SHR AND PUSH1 0x60 DUP5 ADD MSTORE DUP2 DUP2 DUP7 SHR AND PUSH1 0x80 DUP5 ADD MSTORE DUP2 DUP2 PUSH1 0x30 SHR AND PUSH1 0xA0 DUP5 ADD MSTORE DUP2 DUP2 PUSH1 0x40 SHR AND PUSH1 0xC0 DUP5 ADD MSTORE PUSH1 0x50 SHR AND PUSH1 0xE0 DUP3 ADD MSTORE PUSH2 0x22D4 DUP6 DUP8 ADD PUSH2 0x2BDE JUMP JUMPDEST PUSH2 0x100 DUP3 ADD MSTORE PUSH1 0xFF PUSH1 0x2 DUP8 ADD SLOAD DUP2 DUP2 AND PUSH2 0x120 DUP5 ADD MSTORE DUP2 DUP2 PUSH1 0x8 SHR AND PUSH2 0x140 DUP5 ADD MSTORE DUP2 DUP2 PUSH1 0x10 SHR AND PUSH2 0x160 DUP5 ADD MSTORE PUSH1 0x18 SHR AND PUSH2 0x180 DUP3 ADD MSTORE DUP2 MSTORE ADD SWAP3 ADD SWAP3 ADD SWAP2 SWAP1 PUSH2 0x2200 JUMP JUMPDEST PUSH0 CALLDATASIZE PUSH1 0x3 NOT ADD SLT PUSH2 0x21E JUMPI PUSH2 0x232D PUSH2 0x33D6 JUMP JUMPDEST PUSH2 0x2335 PUSH2 0x33F3 JUMP JUMPDEST PUSH2 0x233F CALLVALUE ISZERO PUSH2 0x2C7E JUMP JUMPDEST PUSH1 0x40 DUP1 MLOAD TIMESTAMP PUSH1 0x20 DUP3 ADD SWAP1 DUP2 MSTORE CALLER PUSH1 0x60 SHL PUSH12 0xFFFFFFFFFFFFFFFFFFFFFFFF NOT AND SWAP3 DUP3 ADD SWAP3 SWAP1 SWAP3 MSTORE PREVRANDAO PUSH1 0x54 DUP3 ADD MSTORE PUSH2 0x2378 DUP2 PUSH1 0x74 DUP2 ADD PUSH2 0xEB9 JUMP JUMPDEST MLOAD SWAP1 KECCAK256 PUSH0 JUMPDEST PUSH1 0x3 DUP2 LT PUSH2 0x23C2 JUMPI PUSH32 0xB1B757AFEC988E099A59BC127ABEA15824BF7ACC7137103E4197EF22A9AFAD11 PUSH1 0x20 PUSH1 0x40 MLOAD CALLER DUP2 MSTORE LOG1 PUSH1 0x1 PUSH0 MLOAD PUSH1 0x20 PUSH2 0x4A35 PUSH0 CODECOPY PUSH0 MLOAD SWAP1 PUSH0 MSTORE SSTORE STOP JUMPDEST PUSH2 0x23CA PUSH2 0x2CF2 JUMP JUMPDEST SWAP1 PUSH1 0x1 DUP3 MSTORE PUSH0 PUSH1 0x20 DUP4 ADD MSTORE DUP1 PUSH1 0x3 SHL DUP2 ISZERO SWAP1 DUP3 DUP2 DIV PUSH1 0x8 EQ DUP3 OR ISZERO PUSH2 0x1272 JUMPI PUSH1 0x6 DUP6 PUSH1 0xFF SWAP3 SHR MOD AND PUSH2 0x100 DUP5 ADD MSTORE DUP2 PUSH1 0x4 SHL SWAP1 DUP3 DUP3 DIV PUSH1 0x10 EQ OR ISZERO PUSH2 0x1272 JUMPI PUSH1 0x1 SWAP3 PUSH1 0xFF PUSH2 0x2421 DUP2 PUSH1 0x12 DUP9 PUSH2 0x2443 SWAP7 SHR MOD AND PUSH2 0x2D8F JUMP JUMPDEST AND PUSH2 0x120 DUP3 ADD MSTORE CALLER PUSH0 MSTORE PUSH1 0x4 PUSH1 0x20 MSTORE PUSH2 0x243D DUP4 PUSH1 0x40 PUSH0 KECCAK256 PUSH2 0x2A7B JUMP JUMPDEST SWAP1 PUSH2 0x2DC6 JUMP JUMPDEST ADD PUSH2 0x237D JUMP JUMPDEST PUSH0 CALLDATASIZE PUSH1 0x3 NOT ADD SLT PUSH2 0x21E JUMPI PUSH2 0x245C PUSH2 0x33D6 JUMP JUMPDEST PUSH2 0x2464 PUSH2 0x33F3 JUMP JUMPDEST PUSH2 0x246E CALLVALUE ISZERO PUSH2 0x2C7E JUMP JUMPDEST PUSH1 0x1 SLOAD PUSH1 0x40 MLOAD PUSH4 0x18160DDD PUSH1 0xE0 SHL DUP2 MSTORE PUSH1 0x1 PUSH1 0x1 PUSH1 0xA0 SHL SUB SWAP1 SWAP2 AND SWAP1 PUSH1 0x20 DUP2 PUSH1 0x4 DUP2 DUP6 GAS STATICCALL SWAP1 DUP2 ISZERO PUSH2 0x7ED JUMPI PUSH0 SWAP2 PUSH2 0x276F JUMPI JUMPDEST POP PUSH1 0x40 MLOAD PUSH1 0x20 DUP2 ADD SWAP2 TIMESTAMP DUP4 MSTORE CALLER PUSH1 0x60 SHL PUSH1 0x40 DUP4 ADD MSTORE PUSH1 0x54 DUP3 ADD MSTORE PREVRANDAO PUSH1 0x74 DUP3 ADD MSTORE NUMBER PUSH1 0x94 DUP3 ADD MSTORE PUSH1 0x94 DUP2 MSTORE PUSH2 0x24D6 PUSH1 0xB4 DUP3 PUSH2 0x2BBD JUMP JUMPDEST MLOAD SWAP1 KECCAK256 PUSH1 0x64 DUP2 MOD PUSH1 0x46 DUP2 LT ISZERO PUSH2 0x2759 JUMPI POP PUSH0 JUMPDEST PUSH1 0x3 DUP3 PUSH1 0x8 SHR MOD SWAP3 PUSH2 0x24FA DUP5 PUSH2 0x291A JUMP JUMPDEST PUSH1 0x3 DUP4 PUSH1 0x10 SHR AND SWAP4 PUSH1 0x4 DUP6 LT ISZERO PUSH2 0x7F8 JUMPI PUSH2 0x2514 DUP4 PUSH2 0x291A JUMP JUMPDEST DUP3 PUSH2 0x26AD JUMPI PUSH2 0x2528 PUSH1 0x3 DUP6 PUSH1 0x18 SHR AND PUSH2 0x2D7E JUMP JUMPDEST SWAP2 PUSH1 0xFF PUSH1 0x3 PUSH2 0x253B DUP2 DUP9 PUSH1 0x20 SHR AND PUSH2 0x2D8F JUMP JUMPDEST SWAP7 PUSH1 0x28 SHR MOD AND PUSH1 0x5 ADD SWAP1 PUSH1 0xFF DUP3 GT PUSH2 0x1272 JUMPI PUSH1 0xFF PUSH1 0xE4 SWAP5 DUP2 PUSH1 0x20 SWAP9 DUP2 PUSH0 SWAP7 SWAP4 JUMPDEST PUSH2 0x259D PUSH1 0x40 MLOAD SWAP14 DUP15 SWAP13 DUP14 SWAP12 PUSH4 0xE3BD811 PUSH1 0xE3 SHL DUP14 MSTORE DUP13 PUSH1 0x4 CALLER SWAP2 ADD MSTORE PUSH2 0x2580 DUP2 PUSH2 0x291A JUMP JUMPDEST PUSH1 0x24 DUP14 ADD MSTORE PUSH2 0x258E DUP2 PUSH2 0x291A JUMP JUMPDEST PUSH1 0x44 DUP13 ADD MSTORE PUSH1 0x64 DUP12 ADD SWAP1 PUSH2 0x2924 JUMP JUMPDEST AND PUSH1 0x84 DUP9 ADD MSTORE AND PUSH1 0xA4 DUP7 ADD MSTORE AND PUSH1 0xC4 DUP5 ADD MSTORE GAS CALL SWAP1 DUP2 ISZERO PUSH2 0x7ED JUMPI PUSH0 SWAP2 PUSH2 0x267B JUMPI JUMPDEST POP CALLER PUSH0 MSTORE PUSH1 0x6 PUSH1 0x20 MSTORE PUSH2 0x25D5 DUP2 PUSH1 0x40 PUSH0 KECCAK256 PUSH2 0x2CBE JUMP JUMPDEST CALLER PUSH0 MSTORE PUSH1 0x3 PUSH1 0x20 MSTORE PUSH1 0x40 PUSH0 KECCAK256 PUSH2 0xFFFF DUP2 SLOAD AND ISZERO PUSH2 0x266A JUMPI JUMPDEST PUSH1 0x14 PUSH4 0xFFFFFFFF DUP3 SLOAD PUSH1 0x10 SHR AND ADD SWAP2 PUSH4 0xFFFFFFFF DUP4 GT PUSH2 0x1272 JUMPI PUSH2 0x2652 DUP3 PUSH2 0x16C6 PUSH32 0xDDED256C7E86A19D1BE0F3168D1EC8D5CFC9C713C96BDC10DEFADD014692CF92 SWAP6 PUSH2 0x78E SWAP6 SWAP1 PUSH6 0xFFFFFFFF0000 DUP3 SLOAD SWAP2 PUSH1 0x10 SHL AND SWAP1 PUSH6 0xFFFFFFFF0000 NOT AND OR SWAP1 SSTORE JUMP JUMPDEST PUSH1 0x40 DUP1 MLOAD CALLER DUP2 MSTORE PUSH1 0x20 DUP2 ADD SWAP3 SWAP1 SWAP3 MSTORE SWAP1 SWAP2 DUP3 SWAP2 DUP3 ADD SWAP1 JUMP JUMPDEST DUP1 SLOAD PUSH2 0xFFFF NOT AND PUSH1 0x1 OR DUP2 SSTORE PUSH2 0x25ED JUMP JUMPDEST SWAP1 POP PUSH1 0x20 DUP2 RETURNDATASIZE PUSH1 0x20 GT PUSH2 0x26A5 JUMPI JUMPDEST DUP2 PUSH2 0x2696 PUSH1 0x20 SWAP4 DUP4 PUSH2 0x2BBD JUMP JUMPDEST DUP2 ADD SUB SLT PUSH2 0x21E JUMPI MLOAD DUP2 PUSH2 0x25BF JUMP JUMPDEST RETURNDATASIZE SWAP2 POP PUSH2 0x2689 JUMP JUMPDEST PUSH2 0x26B6 DUP4 PUSH2 0x291A JUMP JUMPDEST PUSH1 0x1 DUP4 SUB PUSH2 0x2705 JUMPI PUSH2 0x26D0 PUSH1 0xFF PUSH1 0x5 DUP7 PUSH1 0x18 SHR MOD AND PUSH2 0x2D6D JUMP JUMPDEST SWAP2 PUSH1 0x3 DUP6 PUSH1 0x20 SHR AND PUSH1 0x6 ADD SWAP1 PUSH1 0xFF DUP3 GT PUSH2 0x1272 JUMPI PUSH1 0xFF PUSH1 0xE4 SWAP5 DUP2 PUSH1 0x20 SWAP9 DUP2 PUSH2 0x26FF PUSH1 0x3 PUSH0 SWAP9 SWAP4 PUSH1 0x28 SHR AND PUSH2 0x2D6D JUMP JUMPDEST SWAP4 PUSH2 0x255B JUMP JUMPDEST PUSH1 0xFF PUSH1 0x5 DUP6 PUSH1 0x18 SHR MOD AND PUSH1 0xB ADD PUSH1 0xFF DUP2 GT PUSH2 0x1272 JUMPI SWAP2 PUSH1 0xFF PUSH1 0x5 DUP7 PUSH1 0x20 SHR MOD AND PUSH1 0x9 ADD PUSH1 0xFF DUP2 GT PUSH2 0x1272 JUMPI PUSH1 0x5 PUSH1 0xFF SWAP2 SWAP7 PUSH1 0x28 SHR MOD AND PUSH1 0xA ADD SWAP1 PUSH1 0xFF DUP3 GT PUSH2 0x1272 JUMPI PUSH1 0xFF PUSH1 0xE4 SWAP5 DUP2 PUSH1 0x20 SWAP9 DUP2 PUSH0 SWAP7 SWAP4 PUSH2 0x255B JUMP JUMPDEST PUSH1 0x5F GT ISZERO PUSH2 0x2768 JUMPI PUSH1 0x1 PUSH2 0x24E9 JUMP JUMPDEST PUSH1 0x2 PUSH2 0x24E9 JUMP JUMPDEST SWAP1 POP PUSH1 0x20 DUP2 RETURNDATASIZE PUSH1 0x20 GT PUSH2 0x2799 JUMPI JUMPDEST DUP2 PUSH2 0x278A PUSH1 0x20 SWAP4 DUP4 PUSH2 0x2BBD JUMP JUMPDEST DUP2 ADD SUB SLT PUSH2 0x21E JUMPI MLOAD DUP3 PUSH2 0x24A1 JUMP JUMPDEST RETURNDATASIZE SWAP2 POP PUSH2 0x277D JUMP JUMPDEST PUSH1 0x4 CALLDATALOAD SWAP1 PUSH1 0x1 PUSH1 0x1 PUSH1 0xA0 SHL SUB DUP3 AND DUP3 SUB PUSH2 0x21E JUMPI JUMP JUMPDEST DUP1 MLOAD DUP1 DUP4 MSTORE PUSH1 0x20 SWAP3 SWAP2 DUP2 SWAP1 DUP5 ADD DUP5 DUP5 ADD MCOPY PUSH0 DUP3 DUP3 ADD DUP5 ADD MSTORE PUSH1 0x1F ADD PUSH1 0x1F NOT AND ADD ADD SWAP1 JUMP JUMPDEST SWAP1 DUP1 PUSH1 0x20 DUP4 MLOAD SWAP2 DUP3 DUP2 MSTORE ADD SWAP2 PUSH1 0x20 DUP1 DUP4 PUSH1 0x5 SHL DUP4 ADD ADD SWAP5 ADD SWAP3 PUSH0 SWAP2 JUMPDEST DUP4 DUP4 LT PUSH2 0x2806 JUMPI POP POP POP POP POP SWAP1 JUMP JUMPDEST SWAP1 SWAP2 SWAP3 SWAP4 SWAP5 PUSH1 0x20 DUP1 PUSH1 0x1 SWAP3 PUSH1 0x1F NOT DUP6 DUP3 SUB ADD DUP7 MSTORE DUP9 MLOAD SWAP1 PUSH1 0xFF DUP3 MLOAD AND DUP2 MSTORE DUP3 DUP3 ADD MLOAD ISZERO ISZERO DUP4 DUP3 ADD MSTORE PUSH1 0xFF PUSH1 0x40 DUP4 ADD MLOAD AND PUSH1 0x40 DUP3 ADD MSTORE PUSH1 0xFF PUSH1 0x60 DUP4 ADD MLOAD AND PUSH1 0x60 DUP3 ADD MSTORE PUSH2 0xFFFF PUSH1 0x80 DUP4 ADD MLOAD AND PUSH1 0x80 DUP3 ADD MSTORE PUSH2 0xFFFF PUSH1 0xA0 DUP4 ADD MLOAD AND PUSH1 0xA0 DUP3 ADD MSTORE PUSH2 0xFFFF PUSH1 0xC0 DUP4 ADD MLOAD AND PUSH1 0xC0 DUP3 ADD MSTORE PUSH2 0xFFFF PUSH1 0xE0 DUP4 ADD MLOAD AND PUSH1 0xE0 DUP3 ADD MSTORE PUSH2 0x180 PUSH1 0xFF DUP2 PUSH2 0x28A3 PUSH2 0x100 DUP7 ADD MLOAD PUSH2 0x1A0 PUSH2 0x100 DUP8 ADD MSTORE PUSH2 0x1A0 DUP7 ADD SWAP1 PUSH2 0x27B7 JUMP JUMPDEST SWAP5 DUP3 PUSH2 0x120 DUP3 ADD MLOAD AND PUSH2 0x120 DUP7 ADD MSTORE DUP3 PUSH2 0x140 DUP3 ADD MLOAD AND PUSH2 0x140 DUP7 ADD MSTORE DUP3 PUSH2 0x160 DUP3 ADD MLOAD AND PUSH2 0x160 DUP7 ADD MSTORE ADD MLOAD AND SWAP2 ADD MSTORE SWAP8 ADD SWAP4 ADD SWAP4 ADD SWAP2 SWAP4 SWAP3 SWAP1 PUSH2 0x27F7 JUMP JUMPDEST SWAP1 PUSH1 0x20 DUP1 DUP4 MLOAD SWAP3 DUP4 DUP2 MSTORE ADD SWAP3 ADD SWAP1 PUSH0 JUMPDEST DUP2 DUP2 LT PUSH2 0x2900 JUMPI POP POP POP SWAP1 JUMP JUMPDEST DUP3 MLOAD PUSH2 0xFFFF AND DUP5 MSTORE PUSH1 0x20 SWAP4 DUP5 ADD SWAP4 SWAP1 SWAP3 ADD SWAP2 PUSH1 0x1 ADD PUSH2 0x28F3 JUMP JUMPDEST PUSH1 0x3 GT ISZERO PUSH2 0x7F8 JUMPI JUMP JUMPDEST SWAP1 PUSH1 0x4 DUP3 LT ISZERO PUSH2 0x7F8 JUMPI MSTORE JUMP JUMPDEST SWAP1 PUSH1 0xFF PUSH2 0x120 PUSH2 0x140 SWAP4 DUP1 MLOAD ISZERO ISZERO DUP5 MSTORE PUSH1 0x20 DUP2 ADD MLOAD PUSH1 0x20 DUP6 ADD MSTORE PUSH1 0x40 DUP2 ADD MLOAD PUSH2 0x2959 DUP2 PUSH2 0x291A JUMP JUMPDEST PUSH1 0x40 DUP6 ADD MSTORE PUSH1 0x60 DUP2 ADD MLOAD PUSH2 0x296C DUP2 PUSH2 0x291A JUMP JUMPDEST PUSH1 0x60 DUP6 ADD MSTORE PUSH2 0x2983 PUSH1 0x80 DUP3 ADD MLOAD PUSH1 0x80 DUP7 ADD SWAP1 PUSH2 0x2924 JUMP JUMPDEST DUP3 PUSH1 0xA0 DUP3 ADD MLOAD AND PUSH1 0xA0 DUP6 ADD MSTORE DUP3 PUSH1 0xC0 DUP3 ADD MLOAD AND PUSH1 0xC0 DUP6 ADD MSTORE DUP3 PUSH1 0xE0 DUP3 ADD MLOAD AND PUSH1 0xE0 DUP6 ADD MSTORE DUP3 PUSH2 0x100 DUP3 ADD MLOAD AND PUSH2 0x100 DUP6 ADD MSTORE ADD MLOAD AND PUSH2 0x120 DUP3 ADD MSTORE ADD SWAP1 JUMP JUMPDEST SWAP2 SWAP1 SWAP2 DUP1 SLOAD DUP4 LT ISZERO PUSH2 0x1ECC JUMPI PUSH0 MSTORE PUSH1 0x1E PUSH1 0x20 PUSH0 KECCAK256 DUP4 PUSH1 0x4 SHR ADD SWAP3 PUSH1 0x1 SHL AND SWAP1 JUMP JUMPDEST DUP1 SLOAD DUP3 LT ISZERO PUSH2 0x1ECC JUMPI PUSH0 MSTORE PUSH1 0x20 PUSH0 KECCAK256 ADD SWAP1 PUSH0 SWAP1 JUMP JUMPDEST SWAP2 DUP2 PUSH1 0x1F DUP5 ADD SLT ISZERO PUSH2 0x21E JUMPI DUP3 CALLDATALOAD SWAP2 PUSH1 0x1 PUSH1 0x1 PUSH1 0x40 SHL SUB DUP4 GT PUSH2 0x21E JUMPI PUSH1 0x20 DUP1 DUP6 ADD SWAP5 DUP5 PUSH1 0x5 SHL ADD ADD GT PUSH2 0x21E JUMPI JUMP JUMPDEST PUSH1 0x20 PUSH1 0x40 DUP2 DUP4 ADD SWAP3 DUP3 DUP2 MSTORE DUP5 MLOAD DUP1 SWAP5 MSTORE ADD SWAP3 ADD SWAP1 PUSH0 JUMPDEST DUP2 DUP2 LT PUSH2 0x2A4B JUMPI POP POP POP SWAP1 JUMP JUMPDEST DUP3 MLOAD DUP5 MSTORE PUSH1 0x20 SWAP4 DUP5 ADD SWAP4 SWAP1 SWAP3 ADD SWAP2 PUSH1 0x1 ADD PUSH2 0x2A3E JUMP JUMPDEST CALLVALUE PUSH2 0x21E JUMPI PUSH0 CALLDATASIZE PUSH1 0x3 NOT ADD SLT PUSH2 0x21E JUMPI PUSH1 0x20 PUSH1 0x40 MLOAD PUSH0 DUP2 MSTORE RETURN JUMPDEST SWAP1 PUSH1 0x3 DUP2 LT ISZERO PUSH2 0x1ECC JUMPI PUSH1 0x3 MUL ADD SWAP1 PUSH0 SWAP1 JUMP JUMPDEST SWAP9 SWAP7 SWAP5 SWAP3 SWAP1 SWAP11 SWAP10 SWAP8 SWAP6 SWAP4 SWAP2 PUSH2 0x140 DUP11 ADD SWAP12 ISZERO ISZERO DUP11 MSTORE PUSH1 0x20 DUP11 ADD MSTORE PUSH2 0x2AB1 DUP2 PUSH2 0x291A JUMP JUMPDEST PUSH1 0x40 DUP10 ADD MSTORE PUSH2 0x2ABF DUP2 PUSH2 0x291A JUMP JUMPDEST PUSH1 0x60 DUP9 ADD MSTORE PUSH1 0x80 DUP8 ADD PUSH2 0x2AD1 SWAP2 PUSH2 0x2924 JUMP JUMPDEST PUSH1 0xFF AND PUSH1 0xA0 DUP7 ADD MSTORE PUSH1 0xFF AND PUSH1 0xC0 DUP6 ADD MSTORE PUSH1 0xFF AND PUSH1 0xE0 DUP5 ADD MSTORE PUSH1 0xFF AND PUSH2 0x100 DUP4 ADD MSTORE PUSH1 0xFF AND SWAP1 PUSH2 0x120 ADD MSTORE JUMP JUMPDEST DUP1 SLOAD DUP3 LT ISZERO PUSH2 0x1ECC JUMPI PUSH0 MSTORE PUSH1 0x3 PUSH1 0x20 PUSH0 KECCAK256 SWAP2 MUL ADD SWAP1 PUSH0 SWAP1 JUMP JUMPDEST SWAP1 PUSH1 0x1 DUP3 DUP2 SHR SWAP3 AND DUP1 ISZERO PUSH2 0x2B44 JUMPI JUMPDEST PUSH1 0x20 DUP4 LT EQ PUSH2 0x2B30 JUMPI JUMP JUMPDEST PUSH4 0x4E487B71 PUSH1 0xE0 SHL PUSH0 MSTORE PUSH1 0x22 PUSH1 0x4 MSTORE PUSH1 0x24 PUSH0 REVERT JUMPDEST SWAP2 PUSH1 0x7F AND SWAP2 PUSH2 0x2B25 JUMP JUMPDEST PUSH2 0x1A0 DUP2 ADD SWAP1 DUP2 LT PUSH1 0x1 PUSH1 0x1 PUSH1 0x40 SHL SUB DUP3 GT OR PUSH2 0x13C5 JUMPI PUSH1 0x40 MSTORE JUMP JUMPDEST PUSH1 0x60 DUP2 ADD SWAP1 DUP2 LT PUSH1 0x1 PUSH1 0x1 PUSH1 0x40 SHL SUB DUP3 GT OR PUSH2 0x13C5 JUMPI PUSH1 0x40 MSTORE JUMP JUMPDEST PUSH2 0x140 DUP2 ADD SWAP1 DUP2 LT PUSH1 0x1 PUSH1 0x1 PUSH1 0x40 SHL SUB DUP3 GT OR PUSH2 0x13C5 JUMPI PUSH1 0x40 MSTORE JUMP JUMPDEST PUSH2 0x180 DUP2 ADD SWAP1 DUP2 LT PUSH1 0x1 PUSH1 0x1 PUSH1 0x40 SHL SUB DUP3 GT OR PUSH2 0x13C5 JUMPI PUSH1 0x40 MSTORE JUMP JUMPDEST SWAP1 PUSH1 0x1F DUP1 NOT SWAP2 ADD AND DUP2 ADD SWAP1 DUP2 LT PUSH1 0x1 PUSH1 0x1 PUSH1 0x40 SHL SUB DUP3 GT OR PUSH2 0x13C5 JUMPI PUSH1 0x40 MSTORE JUMP JUMPDEST SWAP1 PUSH1 0x40 MLOAD SWAP2 DUP3 PUSH0 DUP3 SLOAD SWAP3 PUSH2 0x2BF1 DUP5 PUSH2 0x2B16 JUMP JUMPDEST DUP1 DUP5 MSTORE SWAP4 PUSH1 0x1 DUP2 AND SWAP1 DUP2 ISZERO PUSH2 0x2C5C JUMPI POP PUSH1 0x1 EQ PUSH2 0x2C18 JUMPI JUMPDEST POP PUSH2 0x2C16 SWAP3 POP SUB DUP4 PUSH2 0x2BBD JUMP JUMPDEST JUMP JUMPDEST SWAP1 POP PUSH0 SWAP3 SWAP2 SWAP3 MSTORE PUSH1 0x20 PUSH0 KECCAK256 SWAP1 PUSH0 SWAP2 JUMPDEST DUP2 DUP4 LT PUSH2 0x2C40 JUMPI POP POP SWAP1 PUSH1 0x20 PUSH2 0x2C16 SWAP3 DUP3 ADD ADD PUSH0 PUSH2 0x2C09 JUMP JUMPDEST PUSH1 0x20 SWAP2 SWAP4 POP DUP1 PUSH1 0x1 SWAP2 SLOAD DUP4 DUP6 DUP10 ADD ADD MSTORE ADD SWAP2 ADD SWAP1 SWAP2 DUP5 SWAP3 PUSH2 0x2C27 JUMP JUMPDEST SWAP1 POP PUSH1 0x20 SWAP3 POP PUSH2 0x2C16 SWAP5 SWAP2 POP PUSH1 0xFF NOT AND DUP3 DUP5 ADD MSTORE ISZERO ISZERO PUSH1 0x5 SHL DUP3 ADD ADD PUSH0 PUSH2 0x2C09 JUMP JUMPDEST ISZERO PUSH2 0x2C85 JUMPI JUMP JUMPDEST PUSH1 0x40 MLOAD PUSH3 0x461BCD PUSH1 0xE5 SHL DUP2 MSTORE PUSH1 0x20 PUSH1 0x4 DUP3 ADD MSTORE PUSH1 0x11 PUSH1 0x24 DUP3 ADD MSTORE PUSH17 0x125B98DBDC9C9958DD081C185E5B595B9D PUSH1 0x7A SHL PUSH1 0x44 DUP3 ADD MSTORE PUSH1 0x64 SWAP1 REVERT JUMPDEST DUP1 SLOAD PUSH1 0x1 PUSH1 0x40 SHL DUP2 LT ISZERO PUSH2 0x13C5 JUMPI PUSH2 0x2CDB SWAP2 PUSH1 0x1 DUP3 ADD DUP2 SSTORE PUSH2 0x29E3 JUMP JUMPDEST DUP2 SWAP3 SWAP2 SLOAD SWAP1 PUSH1 0x3 SHL SWAP2 DUP3 SHL SWAP2 PUSH0 NOT SWAP1 SHL NOT AND OR SWAP1 SSTORE JUMP JUMPDEST PUSH1 0x40 MLOAD SWAP1 PUSH2 0x2CFF DUP3 PUSH2 0x2B85 JUMP JUMPDEST PUSH0 PUSH2 0x120 DUP4 DUP3 DUP2 MSTORE DUP3 PUSH1 0x20 DUP3 ADD MSTORE DUP3 PUSH1 0x40 DUP3 ADD MSTORE DUP3 PUSH1 0x60 DUP3 ADD MSTORE DUP3 PUSH1 0x80 DUP3 ADD MSTORE DUP3 PUSH1 0xA0 DUP3 ADD MSTORE DUP3 PUSH1 0xC0 DUP3 ADD MSTORE DUP3 PUSH1 0xE0 DUP3 ADD MSTORE DUP3 PUSH2 0x100 DUP3 ADD MSTORE ADD MSTORE JUMP JUMPDEST DUP2 DUP2 MUL SWAP3 SWAP2 DUP2 ISZERO SWAP2 DUP5 DIV EQ OR ISZERO PUSH2 0x1272 JUMPI JUMP JUMPDEST DUP2 ISZERO PUSH2 0x2D59 JUMPI MOD SWAP1 JUMP JUMPDEST PUSH4 0x4E487B71 PUSH1 0xE0 SHL PUSH0 MSTORE PUSH1 0x12 PUSH1 0x4 MSTORE PUSH1 0x24 PUSH0 REVERT JUMPDEST PUSH1 0xFF AND PUSH1 0x7 ADD SWAP1 PUSH1 0xFF DUP3 GT PUSH2 0x1272 JUMPI JUMP JUMPDEST PUSH1 0xFF AND PUSH1 0x4 ADD SWAP1 PUSH1 0xFF DUP3 GT PUSH2 0x1272 JUMPI JUMP JUMPDEST PUSH1 0xFF AND PUSH1 0x3 ADD SWAP1 PUSH1 0xFF DUP3 GT PUSH2 0x1272 JUMPI JUMP JUMPDEST PUSH1 0xFF PUSH1 0x2 SWAP2 AND ADD SWAP1 PUSH1 0xFF DUP3 GT PUSH2 0x1272 JUMPI JUMP JUMPDEST SWAP1 PUSH1 0xFF DUP1 SWAP2 AND SWAP2 AND ADD SWAP1 PUSH1 0xFF DUP3 GT PUSH2 0x1272 JUMPI JUMP JUMPDEST SWAP1 PUSH2 0x7A4 JUMPI PUSH1 0x2 SWAP1 PUSH2 0x2DE7 DUP4 MLOAD ISZERO ISZERO DUP3 SWAP1 PUSH1 0xFF DUP1 NOT DUP4 SLOAD AND SWAP2 ISZERO ISZERO AND OR SWAP1 SSTORE JUMP JUMPDEST PUSH1 0x20 DUP4 ADD MLOAD PUSH1 0x1 DUP3 ADD SSTORE ADD SWAP1 PUSH1 0x40 DUP2 ADD MLOAD PUSH2 0x2E01 DUP2 PUSH2 0x291A JUMP JUMPDEST PUSH2 0x2E0A DUP2 PUSH2 0x291A JUMP JUMPDEST DUP3 SLOAD PUSH1 0x60 DUP4 ADD MLOAD SWAP1 PUSH2 0x2E1B DUP3 PUSH2 0x291A JUMP JUMPDEST PUSH2 0x2E24 DUP3 PUSH2 0x291A JUMP JUMPDEST PUSH1 0x80 DUP5 ADD MLOAD SWAP1 PUSH1 0x4 DUP3 LT ISZERO PUSH2 0x7F8 JUMPI PUSH1 0xFF PUSH3 0xFF0000 PUSH2 0xFF00 SWAP4 PUSH1 0x10 SHL AND SWAP5 AND SWAP1 PUSH3 0xFFFFFF NOT AND OR SWAP2 PUSH1 0x8 SHL AND OR OR DUP3 SSTORE PUSH2 0x2E7A PUSH1 0xFF PUSH1 0xA0 DUP4 ADD MLOAD AND DUP4 SWAP1 PUSH4 0xFF000000 DUP3 SLOAD SWAP2 PUSH1 0x18 SHL AND SWAP1 PUSH4 0xFF000000 NOT AND OR SWAP1 SSTORE JUMP JUMPDEST PUSH1 0xC0 DUP2 ADD MLOAD SWAP1 DUP3 SLOAD SWAP2 PUSH6 0xFF0000000000 PUSH1 0xE0 DUP4 ADD MLOAD PUSH1 0x28 SHL AND SWAP1 PUSH1 0xFF PUSH1 0x38 SHL PUSH2 0x120 PUSH7 0xFF000000000000 PUSH2 0x100 DUP7 ADD MLOAD PUSH1 0x30 SHL AND SWAP5 ADD MLOAD PUSH1 0x38 SHL AND SWAP4 PUSH5 0xFF00000000 PUSH1 0xFF PUSH1 0x38 SHL NOT SWAP3 PUSH1 0x20 SHL AND SWAP1 PUSH7 0xFFFFFF00000000 NOT AND OR AND OR OR OR SWAP1 SSTORE JUMP JUMPDEST PUSH1 0x1 PUSH1 0x1 PUSH1 0x40 SHL SUB DUP2 GT PUSH2 0x13C5 JUMPI PUSH1 0x5 SHL PUSH1 0x20 ADD SWAP1 JUMP JUMPDEST SWAP1 PUSH1 0x40 MLOAD SWAP2 DUP3 DUP2 SLOAD SWAP2 DUP3 DUP3 MSTORE PUSH1 0x20 DUP3 ADD SWAP1 PUSH0 MSTORE PUSH1 0x20 PUSH0 KECCAK256 SWAP3 PUSH0 SWAP1 JUMPDEST DUP1 PUSH1 0xF DUP4 ADD LT PUSH2 0x3115 JUMPI PUSH2 0x2C16 SWAP5 SLOAD SWAP2 DUP2 DUP2 LT PUSH2 0x3100 JUMPI JUMPDEST DUP2 DUP2 LT PUSH2 0x30E8 JUMPI JUMPDEST DUP2 DUP2 LT PUSH2 0x30D1 JUMPI JUMPDEST DUP2 DUP2 LT PUSH2 0x30B9 JUMPI JUMPDEST DUP2 DUP2 LT PUSH2 0x30A1 JUMPI JUMPDEST DUP2 DUP2 LT PUSH2 0x3089 JUMPI JUMPDEST DUP2 DUP2 LT PUSH2 0x3071 JUMPI JUMPDEST DUP2 DUP2 LT PUSH2 0x3059 JUMPI JUMPDEST DUP2 DUP2 LT PUSH2 0x3041 JUMPI JUMPDEST DUP2 DUP2 LT PUSH2 0x3029 JUMPI JUMPDEST DUP2 DUP2 LT PUSH2 0x3011 JUMPI JUMPDEST DUP2 DUP2 LT PUSH2 0x2FF9 JUMPI JUMPDEST DUP2 DUP2 LT PUSH2 0x2FE1 JUMPI JUMPDEST DUP2 DUP2 LT PUSH2 0x2FC9 JUMPI JUMPDEST DUP2 DUP2 LT PUSH2 0x2FB1 JUMPI JUMPDEST LT PUSH2 0x2FA3 JUMPI JUMPDEST POP SUB DUP4 PUSH2 0x2BBD JUMP JUMPDEST PUSH1 0xF0 SHR DUP2 MSTORE PUSH1 0x20 ADD PUSH0 PUSH2 0x2F9B JUMP JUMPDEST SWAP3 PUSH1 0x20 PUSH1 0x1 SWAP2 PUSH2 0xFFFF DUP6 PUSH1 0xE0 SHR AND DUP2 MSTORE ADD SWAP4 ADD PUSH2 0x2F95 JUMP JUMPDEST SWAP3 PUSH1 0x20 PUSH1 0x1 SWAP2 PUSH2 0xFFFF DUP6 PUSH1 0xD0 SHR AND DUP2 MSTORE ADD SWAP4 ADD PUSH2 0x2F8D JUMP JUMPDEST SWAP3 PUSH1 0x20 PUSH1 0x1 SWAP2 PUSH2 0xFFFF DUP6 PUSH1 0xC0 SHR AND DUP2 MSTORE ADD SWAP4 ADD PUSH2 0x2F85 JUMP JUMPDEST SWAP3 PUSH1 0x20 PUSH1 0x1 SWAP2 PUSH2 0xFFFF DUP6 PUSH1 0xB0 SHR AND DUP2 MSTORE ADD SWAP4 ADD PUSH2 0x2F7D JUMP JUMPDEST SWAP3 PUSH1 0x20 PUSH1 0x1 SWAP2 PUSH2 0xFFFF DUP6 PUSH1 0xA0 SHR AND DUP2 MSTORE ADD SWAP4 ADD PUSH2 0x2F75 JUMP JUMPDEST SWAP3 PUSH1 0x20 PUSH1 0x1 SWAP2 PUSH2 0xFFFF DUP6 PUSH1 0x90 SHR AND DUP2 MSTORE ADD SWAP4 ADD PUSH2 0x2F6D JUMP JUMPDEST SWAP3 PUSH1 0x20 PUSH1 0x1 SWAP2 PUSH2 0xFFFF DUP6 PUSH1 0x80 SHR AND DUP2 MSTORE ADD SWAP4 ADD PUSH2 0x2F65 JUMP JUMPDEST SWAP3 PUSH1 0x20 PUSH1 0x1 SWAP2 PUSH2 0xFFFF DUP6 PUSH1 0x70 SHR AND DUP2 MSTORE ADD SWAP4 ADD PUSH2 0x2F5D JUMP JUMPDEST SWAP3 PUSH1 0x20 PUSH1 0x1 SWAP2 PUSH2 0xFFFF DUP6 PUSH1 0x60 SHR AND DUP2 MSTORE ADD SWAP4 ADD PUSH2 0x2F55 JUMP JUMPDEST SWAP3 PUSH1 0x20 PUSH1 0x1 SWAP2 PUSH2 0xFFFF DUP6 PUSH1 0x50 SHR AND DUP2 MSTORE ADD SWAP4 ADD PUSH2 0x2F4D JUMP JUMPDEST SWAP3 PUSH1 0x20 PUSH1 0x1 SWAP2 PUSH2 0xFFFF DUP6 PUSH1 0x40 SHR AND DUP2 MSTORE ADD SWAP4 ADD PUSH2 0x2F45 JUMP JUMPDEST SWAP3 PUSH1 0x20 PUSH1 0x1 SWAP2 PUSH2 0xFFFF DUP6 PUSH1 0x30 SHR AND DUP2 MSTORE ADD SWAP4 ADD PUSH2 0x2F3D JUMP JUMPDEST SWAP3 PUSH1 0x20 PUSH1 0x1 SWAP2 PUSH2 0xFFFF DUP6 DUP4 SHR AND DUP2 MSTORE ADD SWAP4 ADD PUSH2 0x2F35 JUMP JUMPDEST SWAP3 PUSH1 0x20 PUSH1 0x1 SWAP2 PUSH2 0xFFFF DUP6 PUSH1 0x10 SHR AND DUP2 MSTORE ADD SWAP4 ADD PUSH2 0x2F2D JUMP JUMPDEST SWAP3 PUSH1 0x20 PUSH1 0x1 SWAP2 PUSH2 0xFFFF DUP6 AND DUP2 MSTORE ADD SWAP4 ADD PUSH2 0x2F25 JUMP JUMPDEST SWAP2 PUSH1 0x10 SWAP2 SWAP4 POP PUSH2 0x200 PUSH1 0x1 SWAP2 DUP7 SLOAD PUSH2 0xFFFF DUP2 AND DUP3 MSTORE PUSH2 0xFFFF DUP2 DUP7 SHR AND PUSH1 0x20 DUP4 ADD MSTORE PUSH2 0xFFFF DUP2 PUSH1 0x20 SHR AND PUSH1 0x40 DUP4 ADD MSTORE PUSH2 0xFFFF DUP2 PUSH1 0x30 SHR AND PUSH1 0x60 DUP4 ADD MSTORE PUSH2 0xFFFF DUP2 PUSH1 0x40 SHR AND PUSH1 0x80 DUP4 ADD MSTORE PUSH2 0xFFFF DUP2 PUSH1 0x50 SHR AND PUSH1 0xA0 DUP4 ADD MSTORE PUSH2 0xFFFF DUP2 PUSH1 0x60 SHR AND PUSH1 0xC0 DUP4 ADD MSTORE PUSH2 0xFFFF DUP2 PUSH1 0x70 SHR AND PUSH1 0xE0 DUP4 ADD MSTORE PUSH2 0xFFFF DUP2 PUSH1 0x80 SHR AND PUSH2 0x100 DUP4 ADD MSTORE PUSH2 0xFFFF DUP2 PUSH1 0x90 SHR AND PUSH2 0x120 DUP4 ADD MSTORE PUSH2 0xFFFF DUP2 PUSH1 0xA0 SHR AND PUSH2 0x140 DUP4 ADD MSTORE PUSH2 0xFFFF DUP2 PUSH1 0xB0 SHR AND PUSH2 0x160 DUP4 ADD MSTORE PUSH2 0xFFFF DUP2 PUSH1 0xC0 SHR AND PUSH2 0x180 DUP4 ADD MSTORE PUSH2 0xFFFF DUP2 PUSH1 0xD0 SHR AND PUSH2 0x1A0 DUP4 ADD MSTORE PUSH2 0xFFFF DUP2 PUSH1 0xE0 SHR AND PUSH2 0x1C0 DUP4 ADD MSTORE PUSH1 0xF0 SHR PUSH2 0x1E0 DUP3 ADD MSTORE ADD SWAP5 ADD SWAP3 ADD DUP6 SWAP3 SWAP4 SWAP2 PUSH2 0x2F0D JUMP JUMPDEST PUSH1 0x4 DUP3 LT ISZERO PUSH2 0x7F8 JUMPI MSTORE JUMP JUMPDEST SWAP1 PUSH1 0x40 MLOAD PUSH2 0x3216 DUP2 PUSH2 0x2B85 JUMP JUMPDEST PUSH2 0x120 PUSH1 0xFF PUSH1 0x2 DUP4 SWAP6 DUP3 DUP2 SLOAD AND ISZERO ISZERO DUP6 MSTORE PUSH1 0x1 DUP2 ADD SLOAD PUSH1 0x20 DUP7 ADD MSTORE ADD SLOAD DUP2 DUP2 AND PUSH2 0x323F DUP2 PUSH2 0x291A JUMP JUMPDEST PUSH1 0x40 DUP6 ADD MSTORE DUP2 DUP2 PUSH1 0x8 SHR AND PUSH2 0x3253 DUP2 PUSH2 0x291A JUMP JUMPDEST PUSH1 0x60 DUP6 ADD MSTORE PUSH2 0x326A DUP3 DUP3 PUSH1 0x10 SHR AND PUSH1 0x80 DUP7 ADD PUSH2 0x31FD JUMP JUMPDEST DUP2 DUP2 PUSH1 0x18 SHR AND PUSH1 0xA0 DUP6 ADD MSTORE DUP2 DUP2 PUSH1 0x20 SHR AND PUSH1 0xC0 DUP6 ADD MSTORE DUP2 DUP2 PUSH1 0x28 SHR AND PUSH1 0xE0 DUP6 ADD MSTORE DUP2 DUP2 PUSH1 0x30 SHR AND PUSH2 0x100 DUP6 ADD MSTORE PUSH1 0x38 SHR AND SWAP2 ADD MSTORE JUMP JUMPDEST DUP2 DUP2 LT PUSH2 0x32AB JUMPI POP POP JUMP JUMPDEST PUSH0 DUP2 SSTORE PUSH1 0x1 ADD PUSH2 0x32A0 JUMP JUMPDEST SWAP1 DUP2 SLOAD PUSH2 0x32C2 DUP2 PUSH2 0x2EDB JUMP JUMPDEST SWAP3 PUSH2 0x32D0 PUSH1 0x40 MLOAD SWAP5 DUP6 PUSH2 0x2BBD JUMP JUMPDEST DUP2 DUP5 MSTORE PUSH1 0x20 DUP5 ADD SWAP1 PUSH0 MSTORE PUSH1 0x20 PUSH0 KECCAK256 PUSH0 SWAP2 JUMPDEST DUP4 DUP4 LT PUSH2 0x32EE JUMPI POP POP POP POP JUMP JUMPDEST PUSH1 0x3 PUSH1 0x20 PUSH1 0x1 SWAP3 PUSH2 0x32FE DUP6 PUSH2 0x3209 JUMP JUMPDEST DUP2 MSTORE ADD SWAP3 ADD SWAP3 ADD SWAP2 SWAP1 PUSH2 0x32E1 JUMP JUMPDEST SWAP3 SWAP2 SWAP1 PUSH2 0x3318 DUP2 PUSH2 0x2EDB JUMP JUMPDEST SWAP4 PUSH2 0x3326 PUSH1 0x40 MLOAD SWAP6 DUP7 PUSH2 0x2BBD JUMP JUMPDEST PUSH1 0x20 DUP6 DUP4 DUP2 MSTORE ADD SWAP2 PUSH1 0x5 SHL DUP2 ADD SWAP3 DUP4 GT PUSH2 0x21E JUMPI SWAP1 JUMPDEST DUP3 DUP3 LT PUSH2 0x3348 JUMPI POP POP POP JUMP JUMPDEST DUP2 CALLDATALOAD DUP2 MSTORE PUSH1 0x20 SWAP2 DUP3 ADD SWAP2 ADD PUSH2 0x333C JUMP JUMPDEST DUP1 MLOAD DUP3 LT ISZERO PUSH2 0x1ECC JUMPI PUSH1 0x20 SWAP2 PUSH1 0x5 SHL ADD ADD SWAP1 JUMP JUMPDEST DUP1 SLOAD PUSH0 DUP3 SSTORE DUP1 PUSH2 0x337A JUMPI POP POP JUMP JUMPDEST PUSH2 0x2C16 SWAP2 PUSH0 MSTORE PUSH1 0xF PUSH1 0x20 PUSH0 KECCAK256 SWAP2 ADD PUSH1 0x4 SHR DUP2 ADD SWAP1 PUSH2 0x32A0 JUMP JUMPDEST DUP1 SLOAD PUSH1 0x1 PUSH1 0x40 SHL DUP2 LT ISZERO PUSH2 0x13C5 JUMPI PUSH2 0x33B0 SWAP2 PUSH1 0x1 DUP3 ADD DUP2 SSTORE PUSH2 0x29C2 JUMP JUMPDEST PUSH2 0xFFFF DUP1 DUP4 SWAP5 SWAP4 SLOAD SWAP3 PUSH1 0x3 SHL SWAP4 AND DUP4 SHL SWAP3 SHL NOT AND OR SWAP1 SSTORE JUMP JUMPDEST SWAP1 PUSH1 0x6 DUP3 LT ISZERO PUSH2 0x7F8 JUMPI MSTORE JUMP JUMPDEST PUSH1 0xFF PUSH0 SLOAD PUSH1 0xA0 SHR AND PUSH2 0x33E4 JUMPI JUMP JUMPDEST PUSH4 0xD93C0665 PUSH1 0xE0 SHL PUSH0 MSTORE PUSH1 0x4 PUSH0 REVERT JUMPDEST PUSH1 0x2 PUSH0 MLOAD PUSH1 0x20 PUSH2 0x4A35 PUSH0 CODECOPY PUSH0 MLOAD SWAP1 PUSH0 MSTORE SLOAD EQ PUSH2 0x341C JUMPI PUSH1 0x2 PUSH0 MLOAD PUSH1 0x20 PUSH2 0x4A35 PUSH0 CODECOPY PUSH0 MLOAD SWAP1 PUSH0 MSTORE SSTORE JUMP JUMPDEST PUSH4 0x3EE5AEB5 PUSH1 0xE0 SHL PUSH0 MSTORE PUSH1 0x4 PUSH0 REVERT JUMPDEST SWAP1 PUSH4 0xFFFFFFFF DUP1 SWAP2 AND SWAP2 AND ADD SWAP1 PUSH4 0xFFFFFFFF DUP3 GT PUSH2 0x1272 JUMPI JUMP JUMPDEST PUSH0 SLOAD PUSH1 0x1 PUSH1 0x1 PUSH1 0xA0 SHL SUB AND CALLER SUB PUSH2 0x3458 JUMPI JUMP JUMPDEST PUSH4 0x118CDAA7 PUSH1 0xE0 SHL PUSH0 MSTORE CALLER PUSH1 0x4 MSTORE PUSH1 0x24 PUSH0 REVERT JUMPDEST MLOAD SWAP1 PUSH1 0xFF DUP3 AND DUP3 SUB PUSH2 0x21E JUMPI JUMP JUMPDEST SWAP1 DUP2 PUSH1 0xC0 SWAP2 SUB SLT PUSH2 0x21E JUMPI PUSH1 0x40 MLOAD SWAP1 PUSH1 0xC0 DUP3 ADD DUP3 DUP2 LT PUSH1 0x1 PUSH1 0x1 PUSH1 0x40 SHL SUB DUP3 GT OR PUSH2 0x13C5 JUMPI PUSH1 0x40 MSTORE DUP1 MLOAD PUSH1 0x3 DUP2 LT ISZERO PUSH2 0x21E JUMPI DUP3 MSTORE PUSH1 0x20 DUP2 ADD MLOAD PUSH1 0x3 DUP2 LT ISZERO PUSH2 0x21E JUMPI PUSH1 0x20 DUP4 ADD MSTORE PUSH1 0x40 DUP2 ADD MLOAD PUSH1 0x4 DUP2 LT ISZERO PUSH2 0x21E JUMPI PUSH2 0x3503 SWAP2 PUSH1 0xA0 SWAP2 PUSH1 0x40 DUP6 ADD MSTORE PUSH2 0x34E7 PUSH1 0x60 DUP3 ADD PUSH2 0x346B JUMP JUMPDEST PUSH1 0x60 DUP6 ADD MSTORE PUSH2 0x34F8 PUSH1 0x80 DUP3 ADD PUSH2 0x346B JUMP JUMPDEST PUSH1 0x80 DUP6 ADD MSTORE ADD PUSH2 0x346B JUMP JUMPDEST PUSH1 0xA0 DUP3 ADD MSTORE SWAP1 JUMP JUMPDEST SWAP2 SWAP1 DUP3 ADD DUP1 SWAP3 GT PUSH2 0x1272 JUMPI JUMP JUMPDEST PUSH1 0x1 DUP1 PUSH1 0xA0 SHL SUB DUP2 AND SWAP2 DUP3 PUSH0 MSTORE PUSH1 0x3 PUSH1 0x20 MSTORE PUSH1 0x40 PUSH0 KECCAK256 SWAP2 PUSH2 0xFFFF DUP4 SLOAD AND ISZERO PUSH2 0x3A06 JUMPI JUMPDEST DUP3 SLOAD SWAP2 PUSH1 0x3 PUSH2 0xFFFF DUP5 AND SWAP5 ADD SLOAD SWAP5 PUSH2 0xFFFF DUP7 AND PUSH1 0xFF DUP8 PUSH1 0x10 SHR AND SWAP6 PUSH2 0x3565 PUSH1 0xFF PUSH1 0x3 DUP4 DIV AND PUSH2 0x2D7E JUMP JUMPDEST SWAP5 PUSH1 0x8 PUSH1 0xFF DUP8 AND GT PUSH2 0x39FD JUMPI JUMPDEST PUSH1 0x1 SLOAD PUSH1 0x40 MLOAD PUSH4 0x18160DDD PUSH1 0xE0 SHL DUP2 MSTORE SWAP1 PUSH1 0x20 SWAP1 DUP3 SWAP1 PUSH1 0x4 SWAP1 DUP3 SWAP1 PUSH1 0x1 PUSH1 0x1 PUSH1 0xA0 SHL SUB AND GAS STATICCALL SWAP1 DUP2 ISZERO PUSH2 0x7ED JUMPI PUSH0 SWAP2 PUSH2 0x39CB JUMPI JUMPDEST POP PUSH1 0x40 MLOAD SWAP1 PUSH1 0x20 DUP3 ADD SWAP3 TIMESTAMP DUP5 MSTORE PUSH12 0xFFFFFFFFFFFFFFFFFFFFFFFF NOT SWAP1 PUSH1 0x60 SHL AND PUSH1 0x40 DUP4 ADD MSTORE PUSH2 0xFFFF PUSH1 0xF0 SHL DUP10 PUSH1 0xF0 SHL AND PUSH1 0x54 DUP4 ADD MSTORE PUSH2 0xFFFF PUSH1 0xF0 SHL DUP12 PUSH1 0xF0 SHL AND PUSH1 0x56 DUP4 ADD MSTORE PUSH1 0x58 DUP3 ADD MSTORE PREVRANDAO PUSH1 0x78 DUP3 ADD MSTORE PUSH1 0x78 DUP2 MSTORE PUSH2 0x3605 PUSH1 0x98 DUP3 PUSH2 0x2BBD JUMP JUMPDEST MLOAD SWAP1 KECCAK256 SWAP5 DUP4 PUSH0 MSTORE PUSH1 0x5 PUSH1 0x20 MSTORE PUSH1 0x40 PUSH0 KECCAK256 DUP1 SLOAD SWAP1 PUSH0 DUP2 SSTORE DUP2 PUSH2 0x3992 JUMPI JUMPDEST POP POP PUSH0 SWAP9 SWAP8 SWAP9 SWAP7 DUP5 PUSH0 MSTORE PUSH1 0x6 PUSH1 0x20 MSTORE PUSH1 0x40 PUSH0 KECCAK256 SWAP7 PUSH1 0x40 MLOAD SWAP8 DUP9 PUSH1 0x20 DUP3 SLOAD SWAP2 DUP3 DUP2 MSTORE ADD SWAP2 PUSH0 MSTORE PUSH1 0x20 PUSH0 KECCAK256 SWAP1 PUSH0 JUMPDEST DUP2 DUP2 LT PUSH2 0x397C JUMPI POP POP POP DUP9 PUSH2 0x3663 SWAP2 SUB DUP10 PUSH2 0x2BBD JUMP JUMPDEST PUSH1 0x1 SLOAD PUSH1 0x1 PUSH1 0x1 PUSH1 0xA0 SHL SUB AND SWAP11 PUSH0 JUMPDEST DUP10 MLOAD DUP2 LT ISZERO PUSH2 0x371C JUMPI DUP13 PUSH1 0xC0 PUSH2 0x3688 DUP4 DUP14 PUSH2 0x3358 JUMP JUMPDEST MLOAD PUSH1 0x24 PUSH1 0x40 MLOAD DUP1 SWAP5 DUP2 SWAP4 PUSH4 0xB2ADFDF PUSH1 0xE1 SHL DUP4 MSTORE PUSH1 0x4 DUP4 ADD MSTORE GAS STATICCALL DUP1 ISZERO PUSH2 0x7ED JUMPI PUSH1 0x20 SWAP2 PUSH0 SWAP2 PUSH2 0x36FE JUMPI JUMPDEST POP ADD DUP1 MLOAD PUSH1 0xFF DUP1 DUP15 PUSH2 0x36C4 DUP5 PUSH2 0x291A JUMP JUMPDEST PUSH2 0x36CD DUP5 PUSH2 0x291A JUMP JUMPDEST PUSH2 0x36D6 DUP2 PUSH2 0x291A JUMP JUMPDEST AND SWAP2 AND GT PUSH2 0x36E8 JUMPI JUMPDEST POP PUSH1 0x1 ADD PUSH2 0x3672 JUMP JUMPDEST PUSH1 0x1 SWAP2 SWAP12 POP MLOAD PUSH2 0x36F7 DUP2 PUSH2 0x291A JUMP JUMPDEST SWAP11 SWAP1 PUSH2 0x36DF JUMP JUMPDEST PUSH2 0x3716 SWAP2 POP PUSH1 0xC0 RETURNDATASIZE DUP2 GT PUSH2 0x10B1 JUMPI PUSH2 0x10A2 DUP2 DUP4 PUSH2 0x2BBD JUMP JUMPDEST PUSH0 PUSH2 0x36B3 JUMP JUMPDEST POP SWAP4 SWAP8 POP SWAP4 SWAP8 SWAP1 SWAP5 SWAP9 SWAP2 SWAP6 SWAP10 POP PUSH1 0x64 DUP5 MOD SWAP1 PUSH2 0x3737 DUP2 PUSH2 0x291A JUMP JUMPDEST DUP1 PUSH2 0x393D JUMPI POP POP PUSH0 SWAP2 JUMPDEST PUSH1 0x7 DUP9 MUL DUP9 DUP2 DIV PUSH1 0x7 EQ DUP10 ISZERO OR ISZERO PUSH2 0x1272 JUMPI PUSH1 0x64 ADD SWAP2 DUP3 PUSH1 0x64 GT PUSH2 0x1272 JUMPI PUSH2 0x3FC SWAP1 PUSH1 0xE SHR AND SWAP1 DUP1 DUP3 DIV PUSH1 0x4 EQ SWAP1 ISZERO OR ISZERO PUSH2 0x1272 JUMPI PUSH2 0x3782 SWAP2 SWAP6 SWAP5 SWAP6 PUSH2 0x350B JUMP JUMPDEST PUSH2 0x3FFF PUSH0 SWAP6 PUSH1 0x2 SHR AND PUSH1 0xFF PUSH2 0x3FFF DUP3 AND SWAP2 AND SWAP6 JUMPDEST PUSH1 0xFF DUP7 AND DUP2 LT PUSH2 0x37E0 JUMPI POP POP POP POP POP POP POP SWAP2 PUSH1 0x60 SWAP2 PUSH32 0x2A7DB953326DEC8A8B5D0D5576160BCD2CF173E66E4192B2CBFE4E4AB1DB4EAC SWAP4 PUSH1 0x40 MLOAD SWAP3 DUP4 MSTORE PUSH1 0x20 DUP4 ADD MSTORE PUSH1 0x40 DUP3 ADD MSTORE LOG1 JUMP JUMPDEST PUSH2 0x37E8 PUSH2 0x2CF2 JUMP JUMPDEST SWAP1 PUSH0 DUP3 MSTORE DUP1 PUSH1 0x3 SHL DUP2 ISZERO SWAP1 DUP3 DUP2 DIV PUSH1 0x8 EQ DUP3 OR ISZERO PUSH2 0x1272 JUMPI PUSH1 0x3 DUP9 PUSH1 0xFF SWAP3 SHR MOD AND PUSH2 0x3812 DUP2 PUSH2 0x291A JUMP JUMPDEST PUSH2 0x381B DUP2 PUSH2 0x291A JUMP JUMPDEST PUSH1 0x40 DUP5 ADD MSTORE PUSH2 0x3829 DUP7 PUSH2 0x291A JUMP JUMPDEST DUP6 PUSH1 0x60 DUP5 ADD MSTORE PUSH1 0x18 DUP3 MUL DUP3 DUP2 DIV PUSH1 0x18 EQ DUP3 OR ISZERO PUSH2 0x1272 JUMPI DUP8 PUSH1 0x3 SWAP2 SHR AND PUSH1 0x4 DUP2 LT ISZERO PUSH2 0x7F8 JUMPI PUSH2 0x385C SWAP1 PUSH1 0x80 DUP6 ADD PUSH2 0x31FD JUMP JUMPDEST PUSH2 0x3865 DUP10 PUSH2 0x2D7E JUMP JUMPDEST SWAP1 DUP3 PUSH1 0x5 SHL DUP4 DUP2 DIV PUSH1 0x20 EQ DUP3 OR ISZERO PUSH2 0x1272 JUMPI PUSH1 0x64 PUSH2 0x3897 DUP9 PUSH1 0xFF PUSH2 0x3891 DUP2 PUSH1 0x7 DUP16 DUP3 SWAP9 SHR MOD AND DUP9 PUSH2 0x2DB2 JUMP JUMPDEST AND PUSH2 0x2D3C JUMP JUMPDEST DIV AND PUSH1 0xA0 DUP6 ADD MSTORE PUSH1 0x28 DUP4 MUL DUP4 DUP2 DIV PUSH1 0x28 EQ DUP3 OR ISZERO PUSH2 0x1272 JUMPI PUSH1 0x64 PUSH2 0x38C9 DUP9 PUSH1 0xFF PUSH2 0x3891 DUP2 PUSH1 0x7 DUP16 DUP3 SWAP9 SHR MOD AND DUP9 PUSH2 0x2DB2 JUMP JUMPDEST DIV AND PUSH1 0xC0 DUP6 ADD MSTORE PUSH1 0x30 DUP4 MUL SWAP1 DUP4 DUP3 DIV PUSH1 0x30 EQ OR ISZERO PUSH2 0x1272 JUMPI PUSH2 0x38FC DUP7 PUSH1 0xFF PUSH2 0x3891 DUP2 SWAP6 DUP3 PUSH1 0x7 DUP15 PUSH1 0x64 SWAP9 SHR MOD AND SWAP1 PUSH2 0x2DB2 JUMP JUMPDEST DIV AND PUSH1 0xE0 DUP4 ADD MSTORE DUP11 PUSH0 MSTORE PUSH1 0x5 PUSH1 0x20 MSTORE PUSH1 0x40 PUSH0 KECCAK256 SWAP1 DUP2 SLOAD PUSH1 0x1 PUSH1 0x40 SHL DUP2 LT ISZERO PUSH2 0x13C5 JUMPI PUSH1 0xFF SWAP4 PUSH2 0x243D DUP3 PUSH1 0x1 SWAP6 DUP7 PUSH2 0x3935 SWAP6 ADD DUP2 SSTORE PUSH2 0x2AFD JUMP JUMPDEST ADD SWAP1 POP PUSH2 0x3796 JUMP JUMPDEST PUSH1 0x1 SWAP1 PUSH2 0x3949 DUP2 PUSH2 0x291A JUMP JUMPDEST SUB PUSH2 0x3965 JUMPI PUSH1 0x44 GT ISZERO PUSH2 0x395F JUMPI PUSH1 0x1 JUMPDEST SWAP2 PUSH2 0x3741 JUMP JUMPDEST PUSH0 PUSH2 0x3959 JUMP JUMPDEST PUSH1 0x34 GT ISZERO PUSH2 0x3975 JUMPI PUSH1 0x2 SWAP2 PUSH2 0x3741 JUMP JUMPDEST PUSH1 0x1 PUSH2 0x3959 JUMP JUMPDEST DUP3 SLOAD DUP5 MSTORE PUSH1 0x20 SWAP1 SWAP4 ADD SWAP3 PUSH1 0x1 SWAP3 DUP4 ADD SWAP3 ADD PUSH2 0x364D JUMP JUMPDEST DUP2 PUSH1 0x3 MUL SWAP2 PUSH1 0x3 DUP4 DIV SUB PUSH2 0x1272 JUMPI PUSH0 MSTORE PUSH1 0x20 PUSH0 KECCAK256 SWAP1 DUP2 ADD SWAP1 JUMPDEST DUP2 DUP2 LT ISZERO PUSH2 0x3621 JUMPI PUSH1 0x3 SWAP1 PUSH0 DUP2 SSTORE PUSH0 PUSH1 0x1 DUP3 ADD SSTORE PUSH0 PUSH1 0x2 DUP3 ADD SSTORE ADD PUSH2 0x39AB JUMP JUMPDEST SWAP1 POP PUSH1 0x20 DUP2 RETURNDATASIZE PUSH1 0x20 GT PUSH2 0x39F5 JUMPI JUMPDEST DUP2 PUSH2 0x39E6 PUSH1 0x20 SWAP4 DUP4 PUSH2 0x2BBD JUMP JUMPDEST DUP2 ADD SUB SLT PUSH2 0x21E JUMPI MLOAD PUSH0 PUSH2 0x35A6 JUMP JUMPDEST RETURNDATASIZE SWAP2 POP PUSH2 0x39D9 JUMP JUMPDEST PUSH1 0x8 SWAP6 POP PUSH2 0x3572 JUMP JUMPDEST DUP3 SLOAD PUSH2 0xFFFF NOT AND PUSH1 0x1 OR DUP4 SSTORE PUSH2 0x353B JUMP JUMPDEST PUSH1 0x40 MLOAD SWAP1 PUSH1 0x80 DUP3 ADD DUP3 DUP2 LT PUSH1 0x1 PUSH1 0x1 PUSH1 0x40 SHL SUB DUP3 GT OR PUSH2 0x13C5 JUMPI PUSH1 0x40 MSTORE PUSH1 0x60 DUP1 DUP4 PUSH0 DUP2 MSTORE DUP2 PUSH1 0x20 DUP3 ADD MSTORE DUP2 PUSH1 0x40 DUP3 ADD MSTORE ADD MSTORE JUMP JUMPDEST SWAP1 PUSH2 0x3A55 DUP3 PUSH2 0x2EDB JUMP JUMPDEST PUSH2 0x3A62 PUSH1 0x40 MLOAD SWAP2 DUP3 PUSH2 0x2BBD JUMP JUMPDEST DUP3 DUP2 MSTORE DUP1 SWAP3 PUSH2 0x3A73 PUSH1 0x1F NOT SWAP2 PUSH2 0x2EDB JUMP JUMPDEST ADD SWAP1 PUSH1 0x20 CALLDATASIZE SWAP2 ADD CALLDATACOPY JUMP JUMPDEST PUSH1 0x2 SHL SWAP1 PUSH2 0x3FC PUSH1 0xFC DUP4 AND SWAP3 AND DUP3 SUB PUSH2 0x1272 JUMPI JUMP JUMPDEST PUSH0 NOT DUP2 EQ PUSH2 0x1272 JUMPI PUSH1 0x1 ADD SWAP1 JUMP JUMPDEST PUSH1 0xFF AND PUSH1 0xFF DUP2 EQ PUSH2 0x1272 JUMPI PUSH1 0x1 ADD SWAP1 JUMP JUMPDEST DUP1 SLOAD PUSH2 0xFFFF DUP2 AND SWAP1 PUSH1 0x37 DUP3 MUL PUSH4 0xFFFFFFFF DUP2 AND SWAP1 DUP2 SUB PUSH2 0x1272 JUMPI PUSH1 0x5A ADD PUSH4 0xFFFFFFFF DUP2 GT PUSH2 0x1272 JUMPI PUSH4 0xFFFFFFFF DUP1 SWAP2 AND SWAP2 PUSH1 0x10 SHR AND LT ISZERO PUSH2 0x3AF0 JUMPI POP POP JUMP JUMPDEST PUSH2 0xFFFF DUP2 EQ PUSH2 0x1272 JUMPI DUP2 SLOAD PUSH6 0xFFFFFFFFFFFF NOT AND PUSH1 0x1 SWAP2 SWAP1 SWAP2 ADD PUSH2 0xFFFF AND OR SWAP1 SSTORE JUMP JUMPDEST SWAP1 PUSH2 0x3B1D DUP3 PUSH2 0x2EDB JUMP JUMPDEST PUSH2 0x3B2A PUSH1 0x40 MLOAD SWAP2 DUP3 PUSH2 0x2BBD JUMP JUMPDEST DUP3 DUP2 MSTORE DUP1 SWAP3 PUSH2 0x3B3B PUSH1 0x1F NOT SWAP2 PUSH2 0x2EDB JUMP JUMPDEST ADD SWAP1 PUSH0 JUMPDEST DUP3 DUP2 LT PUSH2 0x3B4B JUMPI POP POP POP JUMP JUMPDEST PUSH1 0x20 SWAP1 PUSH1 0x40 MLOAD PUSH2 0x3B5A DUP2 PUSH2 0x2BA1 JUMP JUMPDEST PUSH0 DUP2 MSTORE PUSH0 DUP4 DUP3 ADD MSTORE PUSH0 PUSH1 0x40 DUP3 ADD MSTORE PUSH0 PUSH1 0x60 DUP3 ADD MSTORE PUSH0 PUSH1 0x80 DUP3 ADD MSTORE PUSH0 PUSH1 0xA0 DUP3 ADD MSTORE PUSH0 PUSH1 0xC0 DUP3 ADD MSTORE PUSH0 PUSH1 0xE0 DUP3 ADD MSTORE PUSH0 PUSH2 0x100 DUP3 ADD MSTORE PUSH0 PUSH2 0x120 DUP3 ADD MSTORE PUSH0 PUSH2 0x140 DUP3 ADD MSTORE PUSH0 PUSH2 0x160 DUP3 ADD MSTORE DUP3 DUP3 DUP6 ADD ADD MSTORE ADD PUSH2 0x3B3F JUMP JUMPDEST SWAP1 PUSH1 0x3 DUP2 LT ISZERO PUSH2 0x1ECC JUMPI PUSH1 0x5 SHL ADD SWAP1 JUMP JUMPDEST PUSH1 0x40 MLOAD SWAP2 SWAP1 PUSH1 0x60 PUSH2 0x3BD0 DUP2 DUP6 PUSH2 0x2BBD JUMP JUMPDEST PUSH1 0x60 CALLDATASIZE DUP6 CALLDATACOPY PUSH0 JUMPDEST DUP3 MLOAD DUP2 LT ISZERO PUSH2 0x3C4F JUMPI DUP1 PUSH2 0xFFFF DUP4 PUSH2 0x3BF1 PUSH1 0x1 SWAP5 DUP8 PUSH2 0x3358 JUMP JUMPDEST MLOAD ADD MLOAD AND PUSH2 0x3C00 JUMPI JUMPDEST ADD PUSH2 0x3BD7 JUMP JUMPDEST PUSH1 0xFF PUSH2 0x120 PUSH2 0x3C0F DUP4 DUP8 PUSH2 0x3358 JUMP JUMPDEST MLOAD ADD MLOAD PUSH2 0x3C1B DUP2 PUSH2 0x291A JUMP JUMPDEST PUSH2 0x3C24 DUP2 PUSH2 0x291A JUMP JUMPDEST AND PUSH1 0xFF PUSH2 0x3C46 PUSH2 0x3C3F DUP3 PUSH2 0x3C38 DUP6 DUP13 PUSH2 0x3BAE JUMP JUMPDEST MLOAD AND PUSH2 0x3AA0 JUMP JUMPDEST SWAP3 DUP10 PUSH2 0x3BAE JUMP JUMPDEST SWAP2 AND SWAP1 MSTORE PUSH2 0x3BFA JUMP JUMPDEST POP POP PUSH0 JUMPDEST DUP2 MLOAD DUP2 LT ISZERO PUSH2 0x3CC0 JUMPI DUP1 PUSH1 0x3 PUSH1 0xFF PUSH2 0x3C90 DUP2 PUSH2 0x120 PUSH2 0x3C74 PUSH1 0x1 SWAP8 DUP10 PUSH2 0x3358 JUMP JUMPDEST MLOAD ADD MLOAD PUSH2 0x3C80 DUP2 PUSH2 0x291A JUMP JUMPDEST PUSH2 0x3C89 DUP2 PUSH2 0x291A JUMP JUMPDEST AND DUP9 PUSH2 0x3BAE JUMP JUMPDEST MLOAD AND LT ISZERO PUSH2 0x3C9F JUMPI JUMPDEST ADD PUSH2 0x3C53 JUMP JUMPDEST PUSH2 0x3CA9 DUP2 DUP5 PUSH2 0x3358 JUMP JUMPDEST MLOAD PUSH1 0xFF PUSH2 0x3CB8 DUP2 DUP4 MLOAD AND PUSH2 0x2DA0 JUMP JUMPDEST AND SWAP1 MSTORE PUSH2 0x3C99 JUMP JUMPDEST POP POP SWAP1 POP JUMP JUMPDEST PUSH0 JUMPDEST DUP2 MLOAD DUP2 LT ISZERO PUSH2 0x3CF7 JUMPI PUSH2 0xFFFF PUSH1 0x60 PUSH2 0x3CE0 DUP4 DUP6 PUSH2 0x3358 JUMP JUMPDEST MLOAD ADD MLOAD AND PUSH2 0x3CF0 JUMPI PUSH1 0x1 ADD PUSH2 0x3CC8 JUMP JUMPDEST POP POP PUSH1 0x1 SWAP1 JUMP JUMPDEST POP POP PUSH0 SWAP1 JUMP JUMPDEST SWAP1 PUSH2 0xFFFF DUP1 SWAP2 AND SWAP2 AND ADD SWAP1 PUSH2 0xFFFF DUP3 GT PUSH2 0x1272 JUMPI JUMP JUMPDEST PUSH0 JUMPDEST DUP2 MLOAD DUP2 LT ISZERO PUSH2 0x3D78 JUMPI DUP1 PUSH2 0xFFFF PUSH1 0x60 PUSH2 0x3D30 PUSH1 0x1 SWAP5 DUP7 PUSH2 0x3358 JUMP JUMPDEST MLOAD ADD MLOAD AND PUSH2 0x3D3F JUMPI JUMPDEST ADD PUSH2 0x3D15 JUMP JUMPDEST PUSH1 0xFF PUSH1 0x40 PUSH2 0x3D4D DUP4 DUP7 PUSH2 0x3358 JUMP JUMPDEST MLOAD ADD MLOAD AND PUSH2 0xFFFF PUSH2 0x3D70 PUSH2 0x100 PUSH2 0x3D64 DUP6 DUP9 PUSH2 0x3358 JUMP JUMPDEST MLOAD ADD SWAP3 DUP3 DUP5 MLOAD AND PUSH2 0x3CFD JUMP JUMPDEST AND SWAP1 MSTORE PUSH2 0x3D39 JUMP JUMPDEST POP POP JUMP JUMPDEST SWAP1 PUSH0 SWAP1 PUSH0 PUSH0 SWAP5 PUSH0 SWAP2 PUSH0 JUMPDEST DUP7 MLOAD DUP2 LT ISZERO PUSH2 0x3E0B JUMPI PUSH2 0x3DB2 PUSH2 0x3DAB PUSH1 0x60 PUSH2 0x3DA1 DUP5 DUP12 PUSH2 0x3358 JUMP JUMPDEST MLOAD ADD MLOAD PUSH2 0xFFFF AND SWAP1 JUMP JUMPDEST PUSH2 0xFFFF AND SWAP1 JUMP JUMPDEST ISZERO ISZERO DUP1 PUSH2 0x3DEC JUMPI JUMPDEST PUSH2 0x3DC7 JUMPI JUMPDEST PUSH1 0x1 ADD PUSH2 0x3D86 JUMP JUMPDEST SWAP7 POP POP SWAP3 POP PUSH2 0x3DDC PUSH2 0x100 PUSH2 0x3DA1 DUP8 DUP8 PUSH2 0x3358 JUMP JUMPDEST SWAP3 PUSH1 0x1 DUP1 PUSH1 0xFF DUP9 AND SWAP8 SWAP1 POP PUSH2 0x3DBF JUMP JUMPDEST POP PUSH2 0x3DFD PUSH2 0x100 PUSH2 0x3DA1 DUP4 DUP11 PUSH2 0x3358 JUMP JUMPDEST PUSH2 0xFFFF DUP1 DUP9 AND SWAP2 AND GT PUSH2 0x3DBA JUMP JUMPDEST POP SWAP2 SWAP5 SWAP1 SWAP3 SWAP6 PUSH0 JUMPDEST DUP8 MLOAD DUP2 LT ISZERO PUSH2 0x3E89 JUMPI PUSH2 0x3E2E PUSH2 0x3DAB PUSH1 0x60 PUSH2 0x3DA1 DUP5 DUP13 PUSH2 0x3358 JUMP JUMPDEST ISZERO ISZERO DUP1 PUSH2 0x3E6A JUMPI JUMPDEST PUSH2 0x3E43 JUMPI JUMPDEST PUSH1 0x1 ADD PUSH2 0x3E13 JUMP JUMPDEST SWAP6 POP SWAP2 POP SWAP3 POP PUSH2 0x3E59 PUSH2 0x100 PUSH2 0x3DA1 DUP7 DUP9 PUSH2 0x3358 JUMP JUMPDEST SWAP3 PUSH0 SWAP2 PUSH1 0x1 PUSH1 0xFF DUP8 AND SWAP7 SWAP1 POP PUSH2 0x3E3B JUMP JUMPDEST POP PUSH2 0x3E7B PUSH2 0x100 PUSH2 0x3DA1 DUP4 DUP12 PUSH2 0x3358 JUMP JUMPDEST PUSH2 0xFFFF DUP1 DUP9 AND SWAP2 AND GT PUSH2 0x3E36 JUMP JUMPDEST POP SWAP2 SWAP4 PUSH2 0xFFFF SWAP1 SWAP6 SWAP2 SWAP4 SWAP6 AND ISZERO PUSH2 0x3EDF JUMPI SWAP2 PUSH2 0x100 SWAP2 PUSH0 SWAP4 DUP6 DUP6 EQ PUSH2 0x3ED7 JUMPI POP SWAP6 JUMPDEST DUP5 DUP5 EQ PUSH2 0x3EC8 JUMPI POP PUSH2 0x3EC1 SWAP1 PUSH1 0xFF DUP8 AND SWAP1 PUSH2 0x3358 JUMP JUMPDEST MLOAD ADD MSTORE SWAP2 SWAP1 JUMP JUMPDEST PUSH2 0x3EC1 SWAP2 POP PUSH1 0xFF DUP8 AND SWAP1 PUSH2 0x3358 JUMP JUMPDEST SWAP1 POP SWAP6 PUSH2 0x3EAB JUMP JUMPDEST POP POP PUSH2 0x3EFF SWAP3 SWAP4 SWAP2 POP PUSH2 0x3EF1 DUP2 PUSH2 0x3D13 JUMP JUMPDEST PUSH2 0x3EFA DUP3 PUSH2 0x3D13 JUMP JUMPDEST PUSH2 0x3D7C JUMP JUMPDEST SWAP1 SWAP2 JUMP JUMPDEST PUSH2 0xFFFF PUSH0 NOT SWAP2 AND ADD SWAP1 PUSH2 0xFFFF DUP3 GT PUSH2 0x1272 JUMPI JUMP JUMPDEST SWAP1 PUSH2 0xFFFF DUP1 SWAP2 AND SWAP2 AND SUB SWAP1 PUSH2 0xFFFF DUP3 GT PUSH2 0x1272 JUMPI JUMP JUMPDEST PUSH1 0x40 MLOAD SWAP1 PUSH2 0x3F3C PUSH1 0x40 DUP4 PUSH2 0x2BBD JUMP JUMPDEST PUSH1 0xA DUP3 MSTORE PUSH10 0x13185CDD0814DD185B99 PUSH1 0xB2 SHL PUSH1 0x20 DUP4 ADD MSTORE JUMP JUMPDEST SWAP6 SWAP2 PUSH1 0xFF SWAP1 SWAP8 SWAP5 SWAP6 SWAP4 SWAP2 SWAP8 AND PUSH2 0xFFFF PUSH1 0x60 PUSH2 0x3F70 DUP4 DUP11 PUSH2 0x3358 JUMP JUMPDEST MLOAD ADD MLOAD AND ISZERO PUSH2 0x4327 JUMPI PUSH0 SWAP6 PUSH0 JUMPDEST DUP10 MLOAD DUP2 LT ISZERO PUSH2 0x3FBA JUMPI PUSH2 0xFFFF PUSH1 0x60 PUSH2 0x3F95 DUP4 DUP14 PUSH2 0x3358 JUMP JUMPDEST MLOAD ADD MLOAD AND PUSH2 0x3FA6 JUMPI JUMPDEST PUSH1 0x1 ADD PUSH2 0x3F7D JUMP JUMPDEST SWAP7 PUSH2 0x3FB2 PUSH1 0x1 SWAP2 PUSH2 0x3A92 JUMP JUMPDEST SWAP8 SWAP1 POP PUSH2 0x3F9E JUMP JUMPDEST POP SWAP1 SWAP3 SWAP5 SWAP8 SWAP2 SWAP4 SWAP6 SWAP7 DUP8 ISZERO PUSH2 0x431B JUMPI PUSH0 SWAP8 PUSH1 0x1 DUP2 SUB PUSH2 0x4288 JUMPI POP PUSH0 JUMPDEST DUP4 MLOAD DUP2 LT ISZERO PUSH2 0x427A JUMPI PUSH2 0xFFFF PUSH1 0x60 PUSH2 0x3FEE DUP4 DUP8 PUSH2 0x3358 JUMP JUMPDEST MLOAD ADD MLOAD AND PUSH2 0x3FFE JUMPI PUSH1 0x1 ADD PUSH2 0x3FD6 JUMP JUMPDEST SWAP1 SWAP2 SWAP3 SWAP4 SWAP5 SWAP6 SWAP7 SWAP8 POP SWAP2 JUMPDEST PUSH2 0xFFFF PUSH1 0x60 PUSH2 0x4018 DUP6 DUP8 PUSH2 0x3358 JUMP JUMPDEST MLOAD ADD MLOAD AND SWAP1 PUSH1 0xFF PUSH2 0x4029 DUP8 DUP6 PUSH2 0x3358 JUMP JUMPDEST MLOAD MLOAD AND PUSH1 0xFF PUSH1 0x20 PUSH2 0x403A DUP8 DUP10 PUSH2 0x3358 JUMP JUMPDEST MLOAD ADD MLOAD AND PUSH1 0xFF PUSH1 0xA0 PUSH2 0x404C DUP11 DUP9 PUSH2 0x3358 JUMP JUMPDEST MLOAD ADD MLOAD AND PUSH1 0xFF PUSH1 0xC0 PUSH2 0x405E DUP10 DUP12 PUSH2 0x3358 JUMP JUMPDEST MLOAD ADD MLOAD AND SWAP2 PUSH1 0x3 DUP13 MUL SWAP5 DUP13 DUP7 DIV PUSH1 0x3 EQ DUP14 ISZERO OR ISZERO PUSH2 0x1272 JUMPI PUSH2 0x4081 SWAP6 SHR SWAP4 PUSH2 0x48B1 JUMP JUMPDEST SWAP1 DUP1 PUSH2 0xFFFF DUP1 PUSH1 0x60 PUSH2 0x4093 DUP10 DUP12 PUSH2 0x3358 JUMP JUMPDEST MLOAD ADD MLOAD AND SWAP2 AND GT PUSH2 0x4261 JUMPI JUMPDEST PUSH0 PUSH1 0xE0 PUSH2 0x40AC DUP8 DUP10 PUSH2 0x3358 JUMP JUMPDEST MLOAD ADD MLOAD ISZERO ISZERO DUP1 PUSH2 0x4241 JUMPI JUMPDEST ISZERO PUSH2 0x4217 JUMPI POP POP POP PUSH2 0x40DA PUSH2 0xFFFF PUSH1 0x60 PUSH2 0x40D1 DUP7 DUP9 PUSH2 0x3358 JUMP JUMPDEST MLOAD ADD MLOAD AND PUSH2 0x3F03 JUMP JUMPDEST PUSH1 0x1 PUSH1 0x60 PUSH2 0x40E8 DUP7 DUP9 PUSH2 0x3358 JUMP JUMPDEST MLOAD ADD MSTORE PUSH1 0x1 SWAP2 PUSH2 0x40F6 PUSH2 0x3F2D JUMP JUMPDEST SWAP3 JUMPDEST PUSH2 0x4207 JUMPI JUMPDEST PUSH2 0xFFFF PUSH1 0x60 PUSH2 0x410C DUP8 DUP10 PUSH2 0x3358 JUMP JUMPDEST MLOAD ADD MLOAD AND SWAP2 PUSH2 0x160 PUSH2 0x4140 DUP10 PUSH2 0x140 PUSH2 0x4125 DUP3 DUP11 PUSH2 0x3358 JUMP JUMPDEST MLOAD ADD MLOAD SWAP8 PUSH2 0x4132 DUP10 PUSH2 0x291A JUMP JUMPDEST PUSH2 0x413B DUP10 PUSH2 0x291A JUMP JUMPDEST PUSH2 0x3358 JUMP JUMPDEST MLOAD ADD MLOAD SWAP6 PUSH1 0x4 DUP8 LT ISZERO PUSH2 0x7F8 JUMPI PUSH2 0x160 PUSH2 0x4177 DUP3 PUSH2 0x140 PUSH2 0x4161 DUP3 DUP14 PUSH2 0x3358 JUMP JUMPDEST MLOAD ADD MLOAD SWAP11 PUSH2 0x416E DUP13 PUSH2 0x291A JUMP JUMPDEST PUSH2 0x413B DUP13 PUSH2 0x291A JUMP JUMPDEST MLOAD ADD MLOAD SWAP9 PUSH1 0x4 DUP11 LT ISZERO PUSH2 0x7F8 JUMPI PUSH1 0x40 MLOAD SWAP11 PUSH2 0x4191 DUP13 PUSH2 0x2B4E JUMP JUMPDEST PUSH1 0xFF AND DUP12 MSTORE PUSH1 0x20 DUP12 ADD PUSH0 SWAP1 MSTORE PUSH1 0x40 DUP12 ADD MSTORE PUSH1 0xFF AND PUSH1 0x60 DUP11 ADD MSTORE PUSH2 0xFFFF AND DUP1 PUSH1 0x80 DUP11 ADD MSTORE PUSH1 0xA0 DUP10 ADD MSTORE PUSH1 0xC0 DUP9 ADD MSTORE PUSH1 0xE0 DUP8 ADD MSTORE PUSH2 0x100 DUP7 ADD MSTORE PUSH1 0xFF AND PUSH2 0x120 DUP6 ADD MSTORE PUSH1 0xFF AND PUSH2 0x140 DUP5 ADD MSTORE PUSH1 0xFF AND PUSH2 0x160 DUP4 ADD MSTORE PUSH1 0xFF AND PUSH2 0x180 DUP3 ADD MSTORE PUSH2 0x41F7 DUP3 DUP5 PUSH2 0x3358 JUMP JUMPDEST MSTORE PUSH2 0x4201 SWAP2 PUSH2 0x3358 JUMP JUMPDEST POP PUSH1 0x1 SWAP1 JUMP JUMPDEST SWAP2 POP PUSH2 0x4211 PUSH2 0x3F2D JUMP JUMPDEST SWAP2 PUSH2 0x40FD JUMP JUMPDEST PUSH1 0x60 PUSH2 0x4227 DUP8 DUP10 SWAP7 SWAP5 SWAP6 SWAP7 PUSH2 0x3358 JUMP JUMPDEST MLOAD ADD PUSH2 0xFFFF PUSH2 0x4239 DUP6 DUP3 DUP5 MLOAD AND PUSH2 0x3F17 JUMP JUMPDEST AND SWAP1 MSTORE PUSH2 0x40F8 JUMP JUMPDEST POP PUSH2 0xFFFF PUSH1 0x60 PUSH2 0x4251 DUP9 DUP11 PUSH2 0x3358 JUMP JUMPDEST MLOAD ADD MLOAD AND PUSH2 0xFFFF DUP4 AND LT ISZERO PUSH2 0x40B7 JUMP JUMPDEST POP PUSH2 0xFFFF PUSH1 0x60 PUSH2 0x4271 DUP7 DUP9 PUSH2 0x3358 JUMP JUMPDEST MLOAD ADD MLOAD AND PUSH2 0x409F JUMP JUMPDEST POP SWAP1 SWAP7 SWAP2 SWAP3 SWAP4 SWAP5 SWAP6 SWAP7 PUSH2 0x4009 JUMP JUMPDEST PUSH2 0x42B1 SWAP2 SWAP9 POP DUP3 PUSH2 0x42AB DUP9 PUSH1 0xFF PUSH2 0x42A5 DUP11 SWAP10 SWAP9 SWAP8 SWAP15 SWAP13 SWAP12 SWAP11 PUSH2 0x3A7D JUMP JUMPDEST AND PUSH2 0x350B JUMP JUMPDEST SHR PUSH2 0x2D4F JUMP JUMPDEST SWAP8 PUSH0 SWAP8 PUSH0 JUMPDEST DUP4 MLOAD DUP2 LT ISZERO PUSH2 0x430B JUMPI PUSH2 0xFFFF PUSH1 0x60 PUSH2 0x42CE DUP4 DUP8 PUSH2 0x3358 JUMP JUMPDEST MLOAD ADD MLOAD AND PUSH2 0x42DF JUMPI JUMPDEST PUSH1 0x1 ADD PUSH2 0x42B6 JUMP JUMPDEST SWAP9 DUP11 DUP2 EQ PUSH2 0x42FA JUMPI PUSH2 0x42F2 PUSH1 0x1 SWAP2 PUSH2 0x3A92 JUMP JUMPDEST SWAP10 SWAP1 POP PUSH2 0x42D7 JUMP JUMPDEST POP SWAP2 SWAP4 SWAP6 SWAP8 SWAP1 SWAP3 SWAP5 SWAP7 SWAP9 POP SWAP2 PUSH2 0x4009 JUMP JUMPDEST POP SWAP2 SWAP4 SWAP6 SWAP8 POP SWAP8 SWAP2 SWAP4 SWAP6 SWAP8 PUSH2 0x4009 JUMP JUMPDEST POP POP POP POP POP POP POP POP PUSH0 SWAP1 JUMP JUMPDEST POP POP POP POP SWAP3 POP POP POP PUSH0 SWAP1 JUMP JUMPDEST SWAP6 SWAP2 PUSH1 0xFF SWAP1 SWAP8 SWAP5 SWAP6 SWAP4 SWAP2 SWAP8 AND PUSH2 0xFFFF PUSH1 0x60 PUSH2 0x434E DUP4 DUP11 PUSH2 0x3358 JUMP JUMPDEST MLOAD ADD MLOAD AND ISZERO PUSH2 0x4327 JUMPI PUSH0 SWAP6 PUSH0 JUMPDEST DUP10 MLOAD DUP2 LT ISZERO PUSH2 0x4398 JUMPI PUSH2 0xFFFF PUSH1 0x60 PUSH2 0x4373 DUP4 DUP14 PUSH2 0x3358 JUMP JUMPDEST MLOAD ADD MLOAD AND PUSH2 0x4384 JUMPI JUMPDEST PUSH1 0x1 ADD PUSH2 0x435B JUMP JUMPDEST SWAP7 PUSH2 0x4390 PUSH1 0x1 SWAP2 PUSH2 0x3A92 JUMP JUMPDEST SWAP8 SWAP1 POP PUSH2 0x437C JUMP JUMPDEST POP SWAP1 SWAP3 SWAP5 SWAP8 SWAP2 SWAP4 SWAP6 SWAP7 DUP8 ISZERO PUSH2 0x431B JUMPI PUSH0 SWAP8 PUSH1 0x1 DUP2 SUB PUSH2 0x461D JUMPI POP PUSH0 JUMPDEST DUP4 MLOAD DUP2 LT ISZERO PUSH2 0x460F JUMPI PUSH2 0xFFFF PUSH1 0x60 PUSH2 0x43CC DUP4 DUP8 PUSH2 0x3358 JUMP JUMPDEST MLOAD ADD MLOAD AND PUSH2 0x43DC JUMPI PUSH1 0x1 ADD PUSH2 0x43B4 JUMP JUMPDEST SWAP1 SWAP2 SWAP3 SWAP4 SWAP5 SWAP6 SWAP7 SWAP8 POP SWAP2 JUMPDEST PUSH2 0xFFFF PUSH1 0x60 PUSH2 0x43F6 DUP6 DUP8 PUSH2 0x3358 JUMP JUMPDEST MLOAD ADD MLOAD AND SWAP1 PUSH1 0xFF PUSH2 0x4407 DUP8 DUP6 PUSH2 0x3358 JUMP JUMPDEST MLOAD MLOAD AND PUSH1 0xFF PUSH1 0x20 PUSH2 0x4418 DUP8 DUP10 PUSH2 0x3358 JUMP JUMPDEST MLOAD ADD MLOAD AND PUSH1 0xFF PUSH1 0xA0 PUSH2 0x442A DUP11 DUP9 PUSH2 0x3358 JUMP JUMPDEST MLOAD ADD MLOAD AND PUSH1 0xFF PUSH1 0xC0 PUSH2 0x443C DUP10 DUP12 PUSH2 0x3358 JUMP JUMPDEST MLOAD ADD MLOAD AND SWAP2 PUSH1 0x3 DUP13 MUL SWAP5 DUP13 DUP7 DIV PUSH1 0x3 EQ DUP14 ISZERO OR ISZERO PUSH2 0x1272 JUMPI PUSH2 0x445F SWAP6 SHR SWAP4 PUSH2 0x48B1 JUMP JUMPDEST SWAP1 DUP1 PUSH2 0xFFFF DUP1 PUSH1 0x60 PUSH2 0x4471 DUP10 DUP12 PUSH2 0x3358 JUMP JUMPDEST MLOAD ADD MLOAD AND SWAP2 AND GT PUSH2 0x45F6 JUMPI JUMPDEST PUSH0 PUSH1 0xE0 PUSH2 0x448A DUP8 DUP10 PUSH2 0x3358 JUMP JUMPDEST MLOAD ADD MLOAD ISZERO ISZERO DUP1 PUSH2 0x45D6 JUMPI JUMPDEST ISZERO PUSH2 0x45AC JUMPI POP POP POP PUSH2 0x44AF PUSH2 0xFFFF PUSH1 0x60 PUSH2 0x40D1 DUP7 DUP9 PUSH2 0x3358 JUMP JUMPDEST PUSH1 0x1 PUSH1 0x60 PUSH2 0x44BD DUP7 DUP9 PUSH2 0x3358 JUMP JUMPDEST MLOAD ADD MSTORE PUSH1 0x1 SWAP2 PUSH2 0x44CB PUSH2 0x3F2D JUMP JUMPDEST SWAP3 JUMPDEST PUSH2 0x459C JUMPI JUMPDEST PUSH2 0xFFFF PUSH1 0x60 PUSH2 0x44E1 DUP8 DUP10 PUSH2 0x3358 JUMP JUMPDEST MLOAD ADD MLOAD AND SWAP2 PUSH2 0x160 PUSH2 0x44FA DUP10 PUSH2 0x140 PUSH2 0x4125 DUP3 DUP11 PUSH2 0x3358 JUMP JUMPDEST MLOAD ADD MLOAD SWAP6 PUSH1 0x4 DUP8 LT ISZERO PUSH2 0x7F8 JUMPI PUSH2 0x160 PUSH2 0x451B DUP3 PUSH2 0x140 PUSH2 0x4161 DUP3 DUP14 PUSH2 0x3358 JUMP JUMPDEST MLOAD ADD MLOAD SWAP9 PUSH1 0x4 DUP11 LT ISZERO PUSH2 0x7F8 JUMPI PUSH1 0x40 MLOAD SWAP11 PUSH2 0x4535 DUP13 PUSH2 0x2B4E JUMP JUMPDEST PUSH1 0xFF AND DUP12 MSTORE PUSH1 0x20 DUP12 ADD PUSH1 0x1 SWAP1 MSTORE PUSH1 0x40 DUP12 ADD MSTORE PUSH1 0xFF AND PUSH1 0x60 DUP11 ADD MSTORE PUSH2 0xFFFF AND DUP1 PUSH1 0x80 DUP11 ADD MSTORE PUSH1 0xA0 DUP10 ADD MSTORE PUSH1 0xC0 DUP9 ADD MSTORE PUSH1 0xE0 DUP8 ADD MSTORE PUSH2 0x100 DUP7 ADD MSTORE PUSH1 0xFF AND PUSH2 0x120 DUP6 ADD MSTORE PUSH1 0xFF AND PUSH2 0x140 DUP5 ADD MSTORE PUSH1 0xFF AND PUSH2 0x160 DUP4 ADD MSTORE PUSH1 0xFF AND PUSH2 0x180 DUP3 ADD MSTORE PUSH2 0x41F7 DUP3 DUP5 PUSH2 0x3358 JUMP JUMPDEST SWAP2 POP PUSH2 0x45A6 PUSH2 0x3F2D JUMP JUMPDEST SWAP2 PUSH2 0x44D2 JUMP JUMPDEST PUSH1 0x60 PUSH2 0x45BC DUP8 DUP10 SWAP7 SWAP5 SWAP6 SWAP7 PUSH2 0x3358 JUMP JUMPDEST MLOAD ADD PUSH2 0xFFFF PUSH2 0x45CE DUP6 DUP3 DUP5 MLOAD AND PUSH2 0x3F17 JUMP JUMPDEST AND SWAP1 MSTORE PUSH2 0x44CD JUMP JUMPDEST POP PUSH2 0xFFFF PUSH1 0x60 PUSH2 0x45E6 DUP9 DUP11 PUSH2 0x3358 JUMP JUMPDEST MLOAD ADD MLOAD AND PUSH2 0xFFFF DUP4 AND LT ISZERO PUSH2 0x4495 JUMP JUMPDEST POP PUSH2 0xFFFF PUSH1 0x60 PUSH2 0x4606 DUP7 DUP9 PUSH2 0x3358 JUMP JUMPDEST MLOAD ADD MLOAD AND PUSH2 0x447D JUMP JUMPDEST POP SWAP1 SWAP7 SWAP2 SWAP3 SWAP4 SWAP5 SWAP6 SWAP7 PUSH2 0x43E7 JUMP JUMPDEST PUSH2 0x463A SWAP2 SWAP9 POP DUP3 PUSH2 0x42AB DUP9 PUSH1 0xFF PUSH2 0x42A5 DUP11 SWAP10 SWAP9 SWAP8 SWAP15 SWAP13 SWAP12 SWAP11 PUSH2 0x3A7D JUMP JUMPDEST SWAP8 PUSH0 SWAP8 PUSH0 JUMPDEST DUP4 MLOAD DUP2 LT ISZERO PUSH2 0x4694 JUMPI PUSH2 0xFFFF PUSH1 0x60 PUSH2 0x4657 DUP4 DUP8 PUSH2 0x3358 JUMP JUMPDEST MLOAD ADD MLOAD AND PUSH2 0x4668 JUMPI JUMPDEST PUSH1 0x1 ADD PUSH2 0x463F JUMP JUMPDEST SWAP9 DUP11 DUP2 EQ PUSH2 0x4683 JUMPI PUSH2 0x467B PUSH1 0x1 SWAP2 PUSH2 0x3A92 JUMP JUMPDEST SWAP10 SWAP1 POP PUSH2 0x4660 JUMP JUMPDEST POP SWAP2 SWAP4 SWAP6 SWAP8 SWAP1 SWAP3 SWAP5 SWAP7 SWAP9 POP SWAP2 PUSH2 0x43E7 JUMP JUMPDEST POP SWAP2 SWAP4 SWAP6 SWAP8 POP SWAP8 SWAP2 SWAP4 SWAP6 SWAP8 PUSH2 0x43E7 JUMP JUMPDEST PUSH2 0x46AD DUP2 PUSH2 0x291A JUMP JUMPDEST DUP1 ISZERO PUSH2 0x46CE JUMPI PUSH1 0x1 SWAP1 PUSH2 0x46BF DUP2 PUSH2 0x291A JUMP JUMPDEST EQ PUSH2 0x46C9 JUMPI PUSH1 0x69 SWAP1 JUMP JUMPDEST PUSH1 0x52 SWAP1 JUMP JUMPDEST POP PUSH1 0x41 SWAP1 JUMP JUMPDEST SWAP1 PUSH2 0xFFFF DUP1 SWAP2 AND SWAP2 AND MUL SWAP1 PUSH2 0xFFFF DUP3 AND SWAP2 DUP3 SUB PUSH2 0x1272 JUMPI JUMP JUMPDEST SWAP1 PUSH1 0x2 SHL PUSH2 0x3FC AND PUSH2 0x46FE SWAP2 PUSH2 0x3CFD JUMP JUMPDEST SWAP1 JUMP JUMPDEST PUSH2 0x470A DUP2 PUSH2 0x291A JUMP JUMPDEST DUP1 ISZERO PUSH2 0x472B JUMPI PUSH1 0x1 SWAP1 PUSH2 0x471C DUP2 PUSH2 0x291A JUMP JUMPDEST EQ PUSH2 0x4726 JUMPI PUSH1 0x14 SWAP1 JUMP JUMPDEST PUSH1 0xC SWAP1 JUMP JUMPDEST POP PUSH1 0x6 SWAP1 JUMP JUMPDEST SWAP1 PUSH1 0xFF PUSH1 0x16 SWAP2 AND DIV SWAP1 DUP2 PUSH2 0x4744 DUP3 PUSH2 0x291A JUMP JUMPDEST PUSH1 0x1 DUP3 EQ PUSH2 0x4796 JUMPI JUMPDEST POP PUSH1 0x2 SWAP1 PUSH2 0x475A DUP2 PUSH2 0x291A JUMP JUMPDEST EQ PUSH2 0x4772 JUMPI JUMPDEST PUSH1 0x12 PUSH1 0xFF DUP3 AND GT ISZERO PUSH2 0x46FE JUMPI POP PUSH1 0x12 SWAP1 JUMP JUMPDEST PUSH1 0xFF PUSH1 0x4 SWAP2 AND ADD PUSH1 0xFF DUP2 GT ISZERO PUSH2 0x4760 JUMPI PUSH4 0x4E487B71 PUSH1 0xE0 SHL PUSH0 MSTORE PUSH1 0x11 PUSH1 0x4 MSTORE PUSH1 0x24 PUSH0 REVERT JUMPDEST PUSH1 0x2 SWAP2 SWAP3 POP PUSH2 0x47A4 SWAP1 PUSH2 0x2DA0 JUMP JUMPDEST SWAP2 SWAP1 PUSH2 0x474D JUMP JUMPDEST SWAP2 SWAP1 PUSH2 0xFFFF AND DUP1 ISZERO PUSH2 0x48AC JUMPI PUSH1 0x3 DUP2 MUL SWAP1 DUP2 DIV PUSH1 0x3 SUB PUSH2 0x1272 JUMPI PUSH1 0x64 ADD SWAP2 DUP3 PUSH1 0x64 GT PUSH2 0x1272 JUMPI PUSH0 JUMPDEST DUP2 MLOAD DUP2 LT ISZERO PUSH2 0x3CC0 JUMPI DUP1 PUSH1 0xFF PUSH1 0x64 PUSH2 0x47FA DUP8 DUP4 PUSH2 0x47F2 PUSH1 0x1 SWAP8 DUP10 PUSH2 0x3358 JUMP JUMPDEST MLOAD MLOAD AND PUSH2 0x2D3C JUMP JUMPDEST DIV AND PUSH2 0x4806 DUP3 DUP6 PUSH2 0x3358 JUMP JUMPDEST MLOAD MSTORE PUSH1 0xFF PUSH1 0x64 PUSH2 0x4826 DUP8 DUP4 PUSH1 0x20 PUSH2 0x481D DUP8 DUP11 PUSH2 0x3358 JUMP JUMPDEST MLOAD ADD MLOAD AND PUSH2 0x2D3C JUMP JUMPDEST DIV AND PUSH1 0x20 PUSH2 0x4834 DUP4 DUP7 PUSH2 0x3358 JUMP JUMPDEST MLOAD ADD MSTORE PUSH1 0xFF PUSH1 0x64 PUSH2 0x484C DUP8 DUP4 PUSH1 0x40 PUSH2 0x481D DUP8 DUP11 PUSH2 0x3358 JUMP JUMPDEST DIV AND PUSH1 0x40 PUSH2 0x485A DUP4 DUP7 PUSH2 0x3358 JUMP JUMPDEST MLOAD ADD MSTORE PUSH2 0xFFFF PUSH1 0x64 PUSH2 0x4873 DUP8 DUP4 PUSH1 0x60 PUSH2 0x481D DUP8 DUP11 PUSH2 0x3358 JUMP JUMPDEST DIV AND PUSH1 0x60 PUSH2 0x4881 DUP4 DUP7 PUSH2 0x3358 JUMP JUMPDEST MLOAD ADD MSTORE PUSH2 0xFFFF PUSH1 0x60 PUSH2 0x4893 DUP4 DUP7 PUSH2 0x3358 JUMP JUMPDEST MLOAD ADD MLOAD AND PUSH1 0x80 PUSH2 0x48A3 DUP4 DUP7 PUSH2 0x3358 JUMP JUMPDEST MLOAD ADD MSTORE ADD PUSH2 0x47D3 JUMP JUMPDEST POP SWAP1 POP JUMP JUMPDEST PUSH1 0x60 SWAP6 SWAP5 SWAP3 SWAP4 PUSH1 0xFF AND DUP1 ISZERO DUP1 ISZERO SWAP2 SWAP1 DUP3 PUSH2 0x4A11 JUMPI JUMPDEST POP POP PUSH2 0x49E6 JUMPI PUSH1 0xFF AND SWAP1 PUSH2 0xFFFF PUSH1 0x23 DUP5 MOD AND PUSH1 0x6E ADD PUSH2 0xFFFF DUP2 GT PUSH2 0x1272 JUMPI PUSH1 0xFF PUSH2 0x48F2 PUSH1 0x12 SWAP3 DUP6 PUSH2 0x46D4 JUMP JUMPDEST SWAP3 AND ADD PUSH2 0xFFFF DUP2 GT PUSH2 0x1272 JUMPI PUSH2 0xFFFF AND SWAP1 DUP2 ISZERO PUSH2 0x2D59 JUMPI PUSH2 0xFFFF AND DIV SWAP1 PUSH1 0x2 PUSH2 0xFFFF DUP4 AND LT PUSH2 0x49C9 JUMPI JUMPDEST POP PUSH2 0xFFFF PUSH1 0x25 DUP4 PUSH1 0x8 SHR MOD AND PUSH1 0x52 ADD PUSH2 0xFFFF DUP2 GT PUSH2 0x1272 JUMPI PUSH2 0x4943 PUSH2 0xFFFF SWAP2 PUSH1 0x64 SWAP4 PUSH2 0x46D4 JUMP JUMPDEST AND DIV SWAP1 PUSH1 0xFF DUP3 SWAP4 AND SWAP1 DUP2 ISZERO ISZERO SWAP2 DUP3 PUSH2 0x49A0 JUMPI JUMPDEST POP POP PUSH2 0x4961 JUMPI POP SWAP2 SWAP1 JUMP JUMPDEST PUSH1 0xD SWAP3 SWAP4 POP PUSH2 0xFFFF SWAP2 POP AND MUL PUSH2 0xFFFF DUP2 AND SWAP1 DUP2 SUB PUSH2 0x1272 JUMPI PUSH1 0xA SWAP1 DIV SWAP1 PUSH1 0x40 MLOAD PUSH2 0x498C PUSH1 0x40 DUP3 PUSH2 0x2BBD JUMP JUMPDEST PUSH1 0x4 DUP2 MSTORE PUSH4 0x10D49255 PUSH1 0xE2 SHL PUSH1 0x20 DUP3 ADD MSTORE SWAP1 JUMP JUMPDEST PUSH1 0x1C SWAP2 SWAP3 POP MUL PUSH2 0xFFFF DUP2 AND SWAP1 DUP2 SUB PUSH2 0x1272 JUMPI PUSH2 0xFFFF PUSH1 0xA PUSH1 0x64 SWAP3 DIV AND SWAP2 PUSH1 0x18 SHR MOD LT PUSH0 DUP1 PUSH2 0x4956 JUMP JUMPDEST PUSH1 0xFF SWAP2 POP PUSH1 0x3 SWAP1 DIV AND PUSH1 0x2 ADD PUSH1 0xFF DUP2 GT PUSH2 0x1272 JUMPI PUSH1 0xFF AND PUSH0 PUSH2 0x491C JUMP JUMPDEST POP POP POP POP SWAP1 POP PUSH0 SWAP1 PUSH1 0x40 MLOAD PUSH2 0x49FC PUSH1 0x40 DUP3 PUSH2 0x2BBD JUMP JUMPDEST PUSH1 0x5 DUP2 MSTORE PUSH5 0x444F444745 PUSH1 0xD8 SHL PUSH1 0x20 DUP3 ADD MSTORE SWAP1 JUMP JUMPDEST SWAP1 SWAP2 POP PUSH1 0x19 DUP3 MUL SWAP2 DUP3 DIV PUSH1 0x19 EQ OR ISZERO PUSH2 0x1272 JUMPI PUSH1 0xA SWAP1 DIV PUSH1 0x64 DUP5 MOD LT PUSH0 DUP1 PUSH2 0x48C6 JUMP INVALID SWAP12 PUSH24 0x9B17422D0DF92223018B32B4D1FA46E071723D6817E2486D STOP EXTCODESIZE EOFCREATE 0xC5 PUSH0 STOP LOG2 PUSH5 0x6970667358 0x22 SLT KECCAK256 SGT 0x27 0x29 PUSH31 0xFFA0DD6DCE439BB14411DB1DD614F1DC6FA8867143A32720AD01252964736F PUSH13 0x634300081E0033000000000000 "
		},
		"gasEstimates": {
			"creation": {
				"codeDepositCost": "3816400",
				"executionCost": "infinite",
				"totalCost": "infinite"
			},
			"external": {
				"BUY_PRICE()": "398",
				"REROLL_PRICE()": "552",
				"SHOP_SLOTS()": "827",
				"buyFromShop(uint256)": "infinite",
				"buyUnit()": "infinite",
				"clearPlayerUnits(address)": "infinite",
				"equippedRelics(address,uint256)": "3036",
				"getCurrentAI(address)": "infinite",
				"getEquippedRelics(address)": "infinite",
				"getLastBattleResult(address)": "infinite",
				"getPlayerRelics(address)": "infinite",
				"getPlayerShop(address)": "infinite",
				"getPlayerUnits(address)": "infinite",
				"lastAIMaxHp(address,uint256)": "7086",
				"lastBattleEvents(address,uint256)": "infinite",
				"lastPlayerMaxHp(address,uint256)": "6932",
				"lastPlayerWon(address)": "2916",
				"owner()": "2645",
				"pause()": "30037",
				"paused()": "2463",
				"playerCurrentAI(address,uint256)": "infinite",
				"playerRelics(address,uint256)": "7495",
				"playerShopPreview(address,uint256)": "infinite",
				"playerUnits(address,uint256)": "6923",
				"profiles(address)": "9426",
				"relicContract()": "2910",
				"renounceOwnership()": "28306",
				"rerollShop()": "infinite",
				"setRelicContract(address)": "27088",
				"setUnitNFT(address)": "26934",
				"startMatch(uint256[],uint256[])": "infinite",
				"transferOwnership(address)": "28866",
				"unitNFT()": "2800",
				"unpause()": "27659",
				"withdraw()": "infinite"
			},
			"internal": {
				"_generateAIOpponent(address)": "infinite",
				"_generateRandomUnit(uint256)": "infinite",
				"_levelUpIfNeeded(struct StarForgeGame.PlayerProfile storage pointer)": "26499",
				"_updateProfileBuy(address)": "infinite",
				"_updateProfileMatch(address,bool)": "infinite"
			}
		},
		"methodIdentifiers": {
			"BUY_PRICE()": "705fe4be",
			"REROLL_PRICE()": "9f51758e",
			"SHOP_SLOTS()": "eda34845",
			"buyFromShop(uint256)": "b654823e",
			"buyUnit()": "201738e2",
			"clearPlayerUnits(address)": "fae34365",
			"equippedRelics(address,uint256)": "c4f036c4",
			"getCurrentAI(address)": "c99ae45f",
			"getEquippedRelics(address)": "a95db7e2",
			"getLastBattleResult(address)": "2dc6d62f",
			"getPlayerRelics(address)": "bb15a3b4",
			"getPlayerShop(address)": "49c7c24a",
			"getPlayerUnits(address)": "6154ee97",
			"lastAIMaxHp(address,uint256)": "732e9b85",
			"lastBattleEvents(address,uint256)": "aeb5f760",
			"lastPlayerMaxHp(address,uint256)": "4e178659",
			"lastPlayerWon(address)": "b78f4c70",
			"owner()": "8da5cb5b",
			"pause()": "8456cb59",
			"paused()": "5c975abb",
			"playerCurrentAI(address,uint256)": "d6691c27",
			"playerRelics(address,uint256)": "f5905ca1",
			"playerShopPreview(address,uint256)": "84d38fdc",
			"playerUnits(address,uint256)": "4ef2d6c1",
			"profiles(address)": "bbe15627",
			"relicContract()": "d5654ae7",
			"renounceOwnership()": "715018a6",
			"rerollShop()": "29de58d1",
			"setRelicContract(address)": "b2a47500",
			"setUnitNFT(address)": "7e5c4f8b",
			"startMatch(uint256[],uint256[])": "51bdab14",
			"transferOwnership(address)": "f2fde38b",
			"unitNFT()": "b92a40ad",
			"unpause()": "3f4ba83a",
			"withdraw()": "3ccfd60b"
		}
	},
	"abi": [
		{
			"inputs": [
				{
					"internalType": "address",
					"name": "_unitNFT",
					"type": "address"
				}
			],
			"stateMutability": "nonpayable",
			"type": "constructor"
		},
		{
			"inputs": [],
			"name": "EnforcedPause",
			"type": "error"
		},
		{
			"inputs": [],
			"name": "ExpectedPause",
			"type": "error"
		},
		{
			"inputs": [
				{
					"internalType": "address",
					"name": "owner",
					"type": "address"
				}
			],
			"name": "OwnableInvalidOwner",
			"type": "error"
		},
		{
			"inputs": [
				{
					"internalType": "address",
					"name": "account",
					"type": "address"
				}
			],
			"name": "OwnableUnauthorizedAccount",
			"type": "error"
		},
		{
			"inputs": [],
			"name": "ReentrancyGuardReentrantCall",
			"type": "error"
		},
		{
			"anonymous": false,
			"inputs": [
				{
					"indexed": false,
					"internalType": "address",
					"name": "player",
					"type": "address"
				},
				{
					"indexed": false,
					"internalType": "uint16",
					"name": "aiLevel",
					"type": "uint16"
				},
				{
					"indexed": false,
					"internalType": "uint16",
					"name": "tier",
					"type": "uint16"
				}
			],
			"name": "AIOpponentGenerated",
			"type": "event"
		},
		{
			"anonymous": false,
			"inputs": [
				{
					"indexed": true,
					"internalType": "address",
					"name": "player",
					"type": "address"
				},
				{
					"indexed": false,
					"internalType": "bool",
					"name": "playerWon",
					"type": "bool"
				},
				{
					"components": [
						{
							"internalType": "uint8",
							"name": "round",
							"type": "uint8"
						},
						{
							"internalType": "bool",
							"name": "isPlayerSide",
							"type": "bool"
						},
						{
							"internalType": "uint8",
							"name": "attackerIndex",
							"type": "uint8"
						},
						{
							"internalType": "uint8",
							"name": "targetIndex",
							"type": "uint8"
						},
						{
							"internalType": "uint16",
							"name": "damage",
							"type": "uint16"
						},
						{
							"internalType": "uint16",
							"name": "damageDealt",
							"type": "uint16"
						},
						{
							"internalType": "uint16",
							"name": "initialHp",
							"type": "uint16"
						},
						{
							"internalType": "uint16",
							"name": "remainingHp",
							"type": "uint16"
						},
						{
							"internalType": "string",
							"name": "specialEffect",
							"type": "string"
						},
						{
							"internalType": "uint8",
							"name": "attackerRarity",
							"type": "uint8"
						},
						{
							"internalType": "uint8",
							"name": "attackerClass",
							"type": "uint8"
						},
						{
							"internalType": "uint8",
							"name": "targetRarity",
							"type": "uint8"
						},
						{
							"internalType": "uint8",
							"name": "targetClass",
							"type": "uint8"
						}
					],
					"indexed": false,
					"internalType": "struct StarForgeBattleLibrary.BattleEvent[]",
					"name": "events",
					"type": "tuple[]"
				}
			],
			"name": "MatchResolved",
			"type": "event"
		},
		{
			"anonymous": false,
			"inputs": [
				{
					"indexed": true,
					"internalType": "address",
					"name": "previousOwner",
					"type": "address"
				},
				{
					"indexed": true,
					"internalType": "address",
					"name": "newOwner",
					"type": "address"
				}
			],
			"name": "OwnershipTransferred",
			"type": "event"
		},
		{
			"anonymous": false,
			"inputs": [
				{
					"indexed": false,
					"internalType": "address",
					"name": "account",
					"type": "address"
				}
			],
			"name": "Paused",
			"type": "event"
		},
		{
			"anonymous": false,
			"inputs": [
				{
					"indexed": true,
					"internalType": "address",
					"name": "player",
					"type": "address"
				}
			],
			"name": "PlayerUnitsCleared",
			"type": "event"
		},
		{
			"anonymous": false,
			"inputs": [
				{
					"indexed": false,
					"internalType": "address",
					"name": "player",
					"type": "address"
				},
				{
					"indexed": false,
					"internalType": "uint256",
					"name": "relicId",
					"type": "uint256"
				}
			],
			"name": "RelicBought",
			"type": "event"
		},
		{
			"anonymous": false,
			"inputs": [
				{
					"indexed": false,
					"internalType": "address",
					"name": "player",
					"type": "address"
				}
			],
			"name": "ShopRerolled",
			"type": "event"
		},
		{
			"anonymous": false,
			"inputs": [
				{
					"indexed": false,
					"internalType": "address",
					"name": "player",
					"type": "address"
				},
				{
					"indexed": false,
					"internalType": "uint256",
					"name": "tokenId",
					"type": "uint256"
				}
			],
			"name": "UnitBought",
			"type": "event"
		},
		{
			"anonymous": false,
			"inputs": [
				{
					"indexed": false,
					"internalType": "address",
					"name": "account",
					"type": "address"
				}
			],
			"name": "Unpaused",
			"type": "event"
		},
		{
			"inputs": [],
			"name": "BUY_PRICE",
			"outputs": [
				{
					"internalType": "uint256",
					"name": "",
					"type": "uint256"
				}
			],
			"stateMutability": "view",
			"type": "function"
		},
		{
			"inputs": [],
			"name": "REROLL_PRICE",
			"outputs": [
				{
					"internalType": "uint256",
					"name": "",
					"type": "uint256"
				}
			],
			"stateMutability": "view",
			"type": "function"
		},
		{
			"inputs": [],
			"name": "SHOP_SLOTS",
			"outputs": [
				{
					"internalType": "uint8",
					"name": "",
					"type": "uint8"
				}
			],
			"stateMutability": "view",
			"type": "function"
		},
		{
			"inputs": [
				{
					"internalType": "uint256",
					"name": "slot",
					"type": "uint256"
				}
			],
			"name": "buyFromShop",
			"outputs": [],
			"stateMutability": "payable",
			"type": "function"
		},
		{
			"inputs": [],
			"name": "buyUnit",
			"outputs": [],
			"stateMutability": "payable",
			"type": "function"
		},
		{
			"inputs": [
				{
					"internalType": "address",
					"name": "player",
					"type": "address"
				}
			],
			"name": "clearPlayerUnits",
			"outputs": [],
			"stateMutability": "nonpayable",
			"type": "function"
		},
		{
			"inputs": [
				{
					"internalType": "address",
					"name": "",
					"type": "address"
				},
				{
					"internalType": "uint256",
					"name": "",
					"type": "uint256"
				}
			],
			"name": "equippedRelics",
			"outputs": [
				{
					"internalType": "uint256",
					"name": "",
					"type": "uint256"
				}
			],
			"stateMutability": "view",
			"type": "function"
		},
		{
			"inputs": [
				{
					"internalType": "address",
					"name": "player",
					"type": "address"
				}
			],
			"name": "getCurrentAI",
			"outputs": [
				{
					"components": [
						{
							"internalType": "bool",
							"name": "isRelic",
							"type": "bool"
						},
						{
							"internalType": "uint256",
							"name": "id",
							"type": "uint256"
						},
						{
							"internalType": "enum StarForgeUnitNFT.Faction",
							"name": "faction",
							"type": "uint8"
						},
						{
							"internalType": "enum StarForgeUnitNFT.Rarity",
							"name": "rarity",
							"type": "uint8"
						},
						{
							"internalType": "enum StarForgeUnitNFT.UnitClass",
							"name": "unitClass",
							"type": "uint8"
						},
						{
							"internalType": "uint8",
							"name": "attack",
							"type": "uint8"
						},
						{
							"internalType": "uint8",
							"name": "defense",
							"type": "uint8"
						},
						{
							"internalType": "uint8",
							"name": "speed",
							"type": "uint8"
						},
						{
							"internalType": "uint8",
							"name": "relicType",
							"type": "uint8"
						},
						{
							"internalType": "uint8",
							"name": "relicValue",
							"type": "uint8"
						}
					],
					"internalType": "struct StarForgeBattleLibrary.ShopItem[]",
					"name": "",
					"type": "tuple[]"
				}
			],
			"stateMutability": "view",
			"type": "function"
		},
		{
			"inputs": [
				{
					"internalType": "address",
					"name": "player",
					"type": "address"
				}
			],
			"name": "getEquippedRelics",
			"outputs": [
				{
					"internalType": "uint256[3]",
					"name": "",
					"type": "uint256[3]"
				}
			],
			"stateMutability": "view",
			"type": "function"
		},
		{
			"inputs": [
				{
					"internalType": "address",
					"name": "player",
					"type": "address"
				}
			],
			"name": "getLastBattleResult",
			"outputs": [
				{
					"internalType": "bool",
					"name": "playerWon",
					"type": "bool"
				},
				{
					"components": [
						{
							"internalType": "uint8",
							"name": "round",
							"type": "uint8"
						},
						{
							"internalType": "bool",
							"name": "isPlayerSide",
							"type": "bool"
						},
						{
							"internalType": "uint8",
							"name": "attackerIndex",
							"type": "uint8"
						},
						{
							"internalType": "uint8",
							"name": "targetIndex",
							"type": "uint8"
						},
						{
							"internalType": "uint16",
							"name": "damage",
							"type": "uint16"
						},
						{
							"internalType": "uint16",
							"name": "damageDealt",
							"type": "uint16"
						},
						{
							"internalType": "uint16",
							"name": "initialHp",
							"type": "uint16"
						},
						{
							"internalType": "uint16",
							"name": "remainingHp",
							"type": "uint16"
						},
						{
							"internalType": "string",
							"name": "specialEffect",
							"type": "string"
						},
						{
							"internalType": "uint8",
							"name": "attackerRarity",
							"type": "uint8"
						},
						{
							"internalType": "uint8",
							"name": "attackerClass",
							"type": "uint8"
						},
						{
							"internalType": "uint8",
							"name": "targetRarity",
							"type": "uint8"
						},
						{
							"internalType": "uint8",
							"name": "targetClass",
							"type": "uint8"
						}
					],
					"internalType": "struct StarForgeBattleLibrary.BattleEvent[]",
					"name": "events",
					"type": "tuple[]"
				},
				{
					"internalType": "uint16[]",
					"name": "playerMaxHp",
					"type": "uint16[]"
				},
				{
					"internalType": "uint16[]",
					"name": "aiMaxHp",
					"type": "uint16[]"
				}
			],
			"stateMutability": "view",
			"type": "function"
		},
		{
			"inputs": [
				{
					"internalType": "address",
					"name": "player",
					"type": "address"
				}
			],
			"name": "getPlayerRelics",
			"outputs": [
				{
					"internalType": "uint256[]",
					"name": "",
					"type": "uint256[]"
				}
			],
			"stateMutability": "view",
			"type": "function"
		},
		{
			"inputs": [
				{
					"internalType": "address",
					"name": "player",
					"type": "address"
				}
			],
			"name": "getPlayerShop",
			"outputs": [
				{
					"components": [
						{
							"internalType": "bool",
							"name": "isRelic",
							"type": "bool"
						},
						{
							"internalType": "uint256",
							"name": "id",
							"type": "uint256"
						},
						{
							"internalType": "enum StarForgeUnitNFT.Faction",
							"name": "faction",
							"type": "uint8"
						},
						{
							"internalType": "enum StarForgeUnitNFT.Rarity",
							"name": "rarity",
							"type": "uint8"
						},
						{
							"internalType": "enum StarForgeUnitNFT.UnitClass",
							"name": "unitClass",
							"type": "uint8"
						},
						{
							"internalType": "uint8",
							"name": "attack",
							"type": "uint8"
						},
						{
							"internalType": "uint8",
							"name": "defense",
							"type": "uint8"
						},
						{
							"internalType": "uint8",
							"name": "speed",
							"type": "uint8"
						},
						{
							"internalType": "uint8",
							"name": "relicType",
							"type": "uint8"
						},
						{
							"internalType": "uint8",
							"name": "relicValue",
							"type": "uint8"
						}
					],
					"internalType": "struct StarForgeBattleLibrary.ShopItem[3]",
					"name": "",
					"type": "tuple[3]"
				}
			],
			"stateMutability": "view",
			"type": "function"
		},
		{
			"inputs": [
				{
					"internalType": "address",
					"name": "player",
					"type": "address"
				}
			],
			"name": "getPlayerUnits",
			"outputs": [
				{
					"internalType": "uint256[]",
					"name": "",
					"type": "uint256[]"
				}
			],
			"stateMutability": "view",
			"type": "function"
		},
		{
			"inputs": [
				{
					"internalType": "address",
					"name": "",
					"type": "address"
				},
				{
					"internalType": "uint256",
					"name": "",
					"type": "uint256"
				}
			],
			"name": "lastAIMaxHp",
			"outputs": [
				{
					"internalType": "uint16",
					"name": "",
					"type": "uint16"
				}
			],
			"stateMutability": "view",
			"type": "function"
		},
		{
			"inputs": [
				{
					"internalType": "address",
					"name": "",
					"type": "address"
				},
				{
					"internalType": "uint256",
					"name": "",
					"type": "uint256"
				}
			],
			"name": "lastBattleEvents",
			"outputs": [
				{
					"internalType": "uint8",
					"name": "round",
					"type": "uint8"
				},
				{
					"internalType": "bool",
					"name": "isPlayerSide",
					"type": "bool"
				},
				{
					"internalType": "uint8",
					"name": "attackerIndex",
					"type": "uint8"
				},
				{
					"internalType": "uint8",
					"name": "targetIndex",
					"type": "uint8"
				},
				{
					"internalType": "uint16",
					"name": "damage",
					"type": "uint16"
				},
				{
					"internalType": "uint16",
					"name": "damageDealt",
					"type": "uint16"
				},
				{
					"internalType": "uint16",
					"name": "initialHp",
					"type": "uint16"
				},
				{
					"internalType": "uint16",
					"name": "remainingHp",
					"type": "uint16"
				},
				{
					"internalType": "string",
					"name": "specialEffect",
					"type": "string"
				},
				{
					"internalType": "uint8",
					"name": "attackerRarity",
					"type": "uint8"
				},
				{
					"internalType": "uint8",
					"name": "attackerClass",
					"type": "uint8"
				},
				{
					"internalType": "uint8",
					"name": "targetRarity",
					"type": "uint8"
				},
				{
					"internalType": "uint8",
					"name": "targetClass",
					"type": "uint8"
				}
			],
			"stateMutability": "view",
			"type": "function"
		},
		{
			"inputs": [
				{
					"internalType": "address",
					"name": "",
					"type": "address"
				},
				{
					"internalType": "uint256",
					"name": "",
					"type": "uint256"
				}
			],
			"name": "lastPlayerMaxHp",
			"outputs": [
				{
					"internalType": "uint16",
					"name": "",
					"type": "uint16"
				}
			],
			"stateMutability": "view",
			"type": "function"
		},
		{
			"inputs": [
				{
					"internalType": "address",
					"name": "",
					"type": "address"
				}
			],
			"name": "lastPlayerWon",
			"outputs": [
				{
					"internalType": "bool",
					"name": "",
					"type": "bool"
				}
			],
			"stateMutability": "view",
			"type": "function"
		},
		{
			"inputs": [],
			"name": "owner",
			"outputs": [
				{
					"internalType": "address",
					"name": "",
					"type": "address"
				}
			],
			"stateMutability": "view",
			"type": "function"
		},
		{
			"inputs": [],
			"name": "pause",
			"outputs": [],
			"stateMutability": "nonpayable",
			"type": "function"
		},
		{
			"inputs": [],
			"name": "paused",
			"outputs": [
				{
					"internalType": "bool",
					"name": "",
					"type": "bool"
				}
			],
			"stateMutability": "view",
			"type": "function"
		},
		{
			"inputs": [
				{
					"internalType": "address",
					"name": "",
					"type": "address"
				},
				{
					"internalType": "uint256",
					"name": "",
					"type": "uint256"
				}
			],
			"name": "playerCurrentAI",
			"outputs": [
				{
					"internalType": "bool",
					"name": "isRelic",
					"type": "bool"
				},
				{
					"internalType": "uint256",
					"name": "id",
					"type": "uint256"
				},
				{
					"internalType": "enum StarForgeUnitNFT.Faction",
					"name": "faction",
					"type": "uint8"
				},
				{
					"internalType": "enum StarForgeUnitNFT.Rarity",
					"name": "rarity",
					"type": "uint8"
				},
				{
					"internalType": "enum StarForgeUnitNFT.UnitClass",
					"name": "unitClass",
					"type": "uint8"
				},
				{
					"internalType": "uint8",
					"name": "attack",
					"type": "uint8"
				},
				{
					"internalType": "uint8",
					"name": "defense",
					"type": "uint8"
				},
				{
					"internalType": "uint8",
					"name": "speed",
					"type": "uint8"
				},
				{
					"internalType": "uint8",
					"name": "relicType",
					"type": "uint8"
				},
				{
					"internalType": "uint8",
					"name": "relicValue",
					"type": "uint8"
				}
			],
			"stateMutability": "view",
			"type": "function"
		},
		{
			"inputs": [
				{
					"internalType": "address",
					"name": "",
					"type": "address"
				},
				{
					"internalType": "uint256",
					"name": "",
					"type": "uint256"
				}
			],
			"name": "playerRelics",
			"outputs": [
				{
					"internalType": "uint256",
					"name": "",
					"type": "uint256"
				}
			],
			"stateMutability": "view",
			"type": "function"
		},
		{
			"inputs": [
				{
					"internalType": "address",
					"name": "",
					"type": "address"
				},
				{
					"internalType": "uint256",
					"name": "",
					"type": "uint256"
				}
			],
			"name": "playerShopPreview",
			"outputs": [
				{
					"internalType": "bool",
					"name": "isRelic",
					"type": "bool"
				},
				{
					"internalType": "uint256",
					"name": "id",
					"type": "uint256"
				},
				{
					"internalType": "enum StarForgeUnitNFT.Faction",
					"name": "faction",
					"type": "uint8"
				},
				{
					"internalType": "enum StarForgeUnitNFT.Rarity",
					"name": "rarity",
					"type": "uint8"
				},
				{
					"internalType": "enum StarForgeUnitNFT.UnitClass",
					"name": "unitClass",
					"type": "uint8"
				},
				{
					"internalType": "uint8",
					"name": "attack",
					"type": "uint8"
				},
				{
					"internalType": "uint8",
					"name": "defense",
					"type": "uint8"
				},
				{
					"internalType": "uint8",
					"name": "speed",
					"type": "uint8"
				},
				{
					"internalType": "uint8",
					"name": "relicType",
					"type": "uint8"
				},
				{
					"internalType": "uint8",
					"name": "relicValue",
					"type": "uint8"
				}
			],
			"stateMutability": "view",
			"type": "function"
		},
		{
			"inputs": [
				{
					"internalType": "address",
					"name": "",
					"type": "address"
				},
				{
					"internalType": "uint256",
					"name": "",
					"type": "uint256"
				}
			],
			"name": "playerUnits",
			"outputs": [
				{
					"internalType": "uint256",
					"name": "",
					"type": "uint256"
				}
			],
			"stateMutability": "view",
			"type": "function"
		},
		{
			"inputs": [
				{
					"internalType": "address",
					"name": "",
					"type": "address"
				}
			],
			"name": "profiles",
			"outputs": [
				{
					"internalType": "uint16",
					"name": "level",
					"type": "uint16"
				},
				{
					"internalType": "uint32",
					"name": "xp",
					"type": "uint32"
				},
				{
					"internalType": "uint256",
					"name": "wins",
					"type": "uint256"
				},
				{
					"internalType": "uint256",
					"name": "losses",
					"type": "uint256"
				},
				{
					"internalType": "uint16",
					"name": "currentAITier",
					"type": "uint16"
				},
				{
					"internalType": "uint8",
					"name": "winStreak",
					"type": "uint8"
				}
			],
			"stateMutability": "view",
			"type": "function"
		},
		{
			"inputs": [],
			"name": "relicContract",
			"outputs": [
				{
					"internalType": "contract StarForgeRelic",
					"name": "",
					"type": "address"
				}
			],
			"stateMutability": "view",
			"type": "function"
		},
		{
			"inputs": [],
			"name": "renounceOwnership",
			"outputs": [],
			"stateMutability": "nonpayable",
			"type": "function"
		},
		{
			"inputs": [],
			"name": "rerollShop",
			"outputs": [],
			"stateMutability": "payable",
			"type": "function"
		},
		{
			"inputs": [
				{
					"internalType": "address",
					"name": "_relicContract",
					"type": "address"
				}
			],
			"name": "setRelicContract",
			"outputs": [],
			"stateMutability": "nonpayable",
			"type": "function"
		},
		{
			"inputs": [
				{
					"internalType": "address",
					"name": "_unitNFT",
					"type": "address"
				}
			],
			"name": "setUnitNFT",
			"outputs": [],
			"stateMutability": "nonpayable",
			"type": "function"
		},
		{
			"inputs": [
				{
					"internalType": "uint256[]",
					"name": "team",
					"type": "uint256[]"
				},
				{
					"internalType": "uint256[]",
					"name": "equipped",
					"type": "uint256[]"
				}
			],
			"name": "startMatch",
			"outputs": [],
			"stateMutability": "nonpayable",
			"type": "function"
		},
		{
			"inputs": [
				{
					"internalType": "address",
					"name": "newOwner",
					"type": "address"
				}
			],
			"name": "transferOwnership",
			"outputs": [],
			"stateMutability": "nonpayable",
			"type": "function"
		},
		{
			"inputs": [],
			"name": "unitNFT",
			"outputs": [
				{
					"internalType": "contract StarForgeUnitNFT",
					"name": "",
					"type": "address"
				}
			],
			"stateMutability": "view",
			"type": "function"
		},
		{
			"inputs": [],
			"name": "unpause",
			"outputs": [],
			"stateMutability": "nonpayable",
			"type": "function"
		},
		{
			"inputs": [],
			"name": "withdraw",
			"outputs": [],
			"stateMutability": "nonpayable",
			"type": "function"
		}
	]
}