{
	"data": {
		"bytecode": {
			"linkReferences": {},
			"object": "60803461010957601f61487a38819003918201601f19168301916001600160401b0383118484101761010d57808492604094855283398101031261010957610052602061004b83610121565b9201610121565b5f8054336001600160a01b0319821681178355604051949290916001600160a01b0316907f8be0079c531659141344cd1fd0a4f28419497f9722a3daafe3b4186f6b6457e09080a3600180556002805460ff19169055662386f26fc10000600e8190556611c37937e08000600f55601055661c6bf526340000601155601280546001600160a01b039283166001600160a01b0319918216179091556013805493909216921691909117905561474490816101368239f35b5f80fd5b634e487b7160e01b5f52604160045260245ffd5b51906001600160a01b03821682036101095756fe60806040526004361015610011575f80fd5b5f3560e01c806318dc318514612992578063201738e21461282a57806329de58d1146127c05780632dc6d62f14612727578063394861f31461270a5780633ccfd60b1461268b5780633f4ba83a146125f857806349c7c24a146125385780634e178659146124ed5780634ef2d6c1146124a4578063518c83b01461248757806351bdab1414610ffe5780635c975abb14610fdc5780636154ee9714610f6a578063715018a614610f13578063732e9b8514610eb85780637e5c4f8b14610e755780638456cb5914610e1c5780638b5ca78f14610dff5780638da5cb5b14610dd85780639d980bd214610dbb578063a5f968a014610c73578063a787c80b14610c36578063a95db7e214610b98578063b2a4750014610b55578063b654823e1461076f578063b78f4c7014610732578063b92a40ad1461070a578063bb15a3b41461068c578063bbe156271461061b578063bdb729c914610598578063c4f036c414610550578063c99ae45f1461046c578063d5654ae714610444578063d8e86854146103d4578063da539b0f14610305578063f2fde38b1461023f578063f5905ca1146101e75763f5e5fff2146101c6575f80fd5b346101e3575f3660031901126101e3576020601054604051908152f35b5f80fd5b346101e35760403660031901126101e3576102006129d6565b6001600160a01b03165f908152600660205260409020805460243591908210156101e35760209161023091612ae8565b90549060031b1c604051908152f35b346101e35760203660031901126101e3576102586129d6565b6102606136de565b6001600160a01b031680156102b1575f80546001600160a01b03198116831782556001600160a01b0316907f8be0079c531659141344cd1fd0a4f28419497f9722a3daafe3b4186f6b6457e09080a3005b60405162461bcd60e51b815260206004820152602660248201527f4f776e61626c653a206e6577206f776e657220697320746865207a65726f206160448201526564647265737360d01b6064820152608490fd5b346101e35760403660031901126101e35761031e6129d6565b6001600160a01b03165f90815260096020526040902060243560088110156101e35761034991612b75565b50805460018201546002909201546040805160ff9384161515815260208082019590955282841691810191909152600882901c83166060820152601082901c83166080820152601882901c831660a08201529281901c821660c0840152602881901c821660e0840152603081901c821661010084015260381c166101208201528061014081015b0390f35b346101e35760803660031901126101e3577f6ef2ff813efc9efc76792366c4aca2677b755a5a13affc54d96ef35dc8e9bb73608060043560643560443560243561041c6136de565b83600e5580600f558160105582601155604051938452602084015260408301526060820152a1005b346101e3575f3660031901126101e3576013546040516001600160a01b039091168152602090f35b346101e35760203660031901126101e3576104856129d6565b610100906040516104968382612c3a565b5f5b83811061053b57505060018060a01b03165f52600960205260405f206040519182018281106001600160401b03821117610527576040525f825b6008821061050957604051845f825b600882106104ef57610a0084f35b60206104fe6001928551612a4a565b9301910190916104e1565b60036020600192610519866131ae565b8152019301910190916104d2565b634e487b7160e01b5f52604160045260245ffd5b602090610546613164565b8184015201610498565b346101e35760403660031901126101e3576105696129d6565b6001600160a01b03165f9081526007602052604090206024359060038210156101e35760209161023091612b66565b346101e3575f3660031901126101e3576105b06133e2565b335f5260056020526105c460405f206133c1565b335f5260066020526105d860405f206133c1565b335f5260076020526105f160405f20600381019061332b565b335f52600b60205261060560405f20613341565b335f52600c60205261061960405f20613341565b005b346101e35760203660031901126101e3576001600160a01b0361063c6129d6565b165f52600460205260a060405f2080549060018101549061ffff60036002830154920154169163ffffffff6040519461ffff8116865260101c166020850152604084015260608301526080820152f35b346101e35760203660031901126101e3576001600160a01b036106ad6129d6565b165f52600660205260405f206040519081602082549182815201915f5260205f20905f5b8181106106f4576103d0856106e881870382612c3a565b60405191829182612b2d565b82548452602090930192600192830192016106d1565b346101e3575f3660031901126101e3576012546040516001600160a01b039091168152602090f35b346101e35760203660031901126101e3576001600160a01b036107536129d6565b165f52600a602052602060ff60405f2054166040519015158152f35b60203660031901126101e3576004356107866133e2565b61078e613426565b61079661347c565b6003811015610b2157335f5260086020526107bd6107b78260405f206129ec565b506131ae565b90602082015115801590610b17575b15610ae55781511561091c5760115434106108d75760018060a01b03601354169160ff6101008201511660068110156108c357606460ff610120602094015116915f604051968794859363f925b74160e01b8552336004860152602485015260448401525af19182156108b8575f92610882575b5061085961087c92335f52600660205260405f20612cf0565b610876610864613597565b91335f52600860205260405f206129ec565b90612d24565b60018055005b91506020823d6020116108b0575b8161089d60209383612c3a565b810103126101e357905190610859610840565b3d9150610890565b6040513d5f823e3d90fd5b634e487b7160e01b5f52602160045260245ffd5b60405162461bcd60e51b815260206004820152601e60248201527f496e73756666696369656e74207061796d656e7420666f722072656c696300006044820152606490fd5b90506010543410610aa0576040805142602082019081523360601b6bffffffffffffffffffffffff1916928201929092524460548201526074810183905261097181609481015b03601f198101835282612c3a565b51902090600b8206600a0180600a11610a8c57600b8360081c066008019081600811610a8c57600b8460101c066009019384600911610a8c5760ff60038260181c06166109c460038360201c1692613575565b6012546001600160a01b0316929060ff906109de84612c86565b16966109e988612c86565b60048210156108c357604051630e3bd81160e31b815297602096899687955f958795610a269560ff91821695821694909116923360048901612c90565b03925af19182156108b8575f92610a56575b50610a5161087c92335f52600560205260405f20612cf0565b610859565b91506020823d602011610a84575b81610a7160209383612c3a565b810103126101e357905190610a51610a38565b3d9150610a64565b634e487b7160e01b5f52601160045260245ffd5b60405162461bcd60e51b815260206004820152601d60248201527f496e73756666696369656e74207061796d656e7420666f7220756e69740000006044820152606490fd5b60405162461bcd60e51b815260206004820152600a602482015269115b5c1d1e481cdb1bdd60b21b6044820152606490fd5b50815115156107cc565b60405162461bcd60e51b815260206004820152600c60248201526b125b9d985b1a59081cdb1bdd60a21b6044820152606490fd5b346101e35760203660031901126101e357610b6e6129d6565b610b766136de565b601380546001600160a01b0319166001600160a01b0392909216919091179055005b346101e35760203660031901126101e357610bb16129d6565b60609081604051610bc28282612c3a565b3690376001600160a01b03165f90815260076020526040808220905191825b60038210610c2057505050610bf68282612c3a565b604051905f825b60038210610c0a57505050f35b6020806001928551815201930191019091610bfd565b6001602081928554815201930191019091610be1565b346101e35760203660031901126101e3576001600160a01b03610c576129d6565b165f526003602052602060ff60405f2054166040519015158152f35b346101e35760603660031901126101e357366064116101e357610c946133e2565b610c9c61347c565b5f5b60038110610d0357335f52600760205260405f2060045f5b60038110610cef576040516060600482377f189dcf2b228f6307a1c47f1ab2652fd06a5c537f8533503fd79381a0ef24b27960603392a2005b600190602083359301928185015501610cb6565b610d0c8161339e565b35610d1a575b600101610c9e565b601354610d5f91906020906001600160a01b0316610d378361339e565b604051627eeac760e11b81523360048201529035602482015293849190829081906044820190565b03915afa9182156108b8575f92610d86575b50610d7f600192151561329f565b9050610d12565b91506020823d8211610db3575b81610da060209383612c3a565b810103126101e357905190610d7f610d71565b3d9150610d93565b346101e3575f3660031901126101e3576020600f54604051908152f35b346101e3575f3660031901126101e3575f546040516001600160a01b039091168152602090f35b346101e3575f3660031901126101e3576020601154604051908152f35b346101e3575f3660031901126101e357610e346136de565b610e3c6133e2565b600160ff1960025416176002557f62e78cea01bee320cd4e420270b5ea74000d11b0c9f74754ebdbfc544b05a2586020604051338152a1005b346101e35760203660031901126101e357610e8e6129d6565b610e966136de565b601280546001600160a01b0319166001600160a01b0392909216919091179055005b346101e35760403660031901126101e357610ed16129d6565b6001600160a01b03165f908152600c602052604090208054602435908110156101e357610f0361ffff91602093612ac7565b90549060031b1c16604051908152f35b346101e3575f3660031901126101e357610f2b6136de565b5f80546001600160a01b0319811682556001600160a01b03167f8be0079c531659141344cd1fd0a4f28419497f9722a3daafe3b4186f6b6457e08280a3005b346101e35760203660031901126101e3576001600160a01b03610f8b6129d6565b165f52600560205260405f206040519081602082549182815201915f5260205f20905f5b818110610fc6576103d0856106e881870382612c3a565b8254845260209093019260019283019201610faf565b346101e3575f3660031901126101e357602060ff600254166040519015158152f35b346101e35760403660031901126101e3576004356001600160401b0381116101e35761102e903690600401612afd565b6024356001600160401b0381116101e35761104d903690600401612afd565b92906110576133e2565b61105f61347c565b60048310158061247c575b15612443576012546001600160a01b03165f5b84811061236d5750508315938461234e57611099368284613253565b941561225b5750505f5b6003811061222b57505b610120604051936110be8286612c3a565b60088552601f1982015f5b8181106122145750506040805142602082019081523360601b6bffffffffffffffffffffffff1916928201929092524460548201524360748201526111118160948101610963565b519020905f5b60ff8116600881101561126257335f52600460205260405f2054604051602081019186835260ff60f81b8560f81b16604083015261ffff60f01b9060f01b1660418201526023815261116a604382612c3a565b51902091600d83066008019283600811610a8c57600c8160081c066007019283600711610a8c57600b8260101c066008019485600811610a8c5760ff60038460181c06169060ff6111c160038660201c1695613575565b6111ca84612c86565b16966111d588612c86565b60048510156108c35760ff60019781809a9461122b61125a998397604051996111fd8b612be6565b5f8b525f60208c015261120f81612c86565b60408b015261121d81612c86565b60608a0152608089016132ff565b1660a08601521660c08401521660e08201525f6101008201525f89820152611253828d6132eb565b528a6132eb565b500116611117565b5050838587935f5b60ff8116906008821015611514576112b061128583896132eb565b51511515335f52600960205261129e8360405f20612b75565b509060ff801983541691151516179055565b60206112bc83896132eb565b510151335f52600960205260016112d68360405f20612b75565b50015560406112e583896132eb565b5101516112f181612c86565b6112fa81612c86565b335f52600960205260ff60026113138460405f20612b75565b5001911660ff19825416179055611373606061132f848a6132eb565b51015161133b81612c86565b61134481612c86565b335f526009602052600261135b8460405f20612b75565b50019061ff0082549160081b169061ff001916179055565b6113896080611382848a6132eb565b510161330b565b9060048210156108c35761150d60ff8a6114d6866114d0846101008f829b611499916113e260019d60026113c88f335f52600960205260405f20612b75565b50019062ff000082549160101b169062ff00001916179055565b61142a8c600261140e8860a06113f888886132eb565b5101511692335f52600960205260405f20612b75565b50019063ff00000082549160181b169063ff0000001916179055565b61145e8c60026114408860c06113f888886132eb565b50019064ff0000000082549160201b169064ff000000001916179055565b6114948c60026114748860e06113f888886132eb565b50019065ff000000000082549160281b169065ff00000000001916179055565b6132eb565b51015116335f52600960205260026114b48960405f20612b75565b50019060ff60301b82549160301b169060ff60301b1916179055565b8c6132eb565b51015116335f52600960205260026114f18460405f20612b75565b50019060ff60381b82549160381b169060ff60381b1916179055565b011661126a565b50509290939160018060a01b03601254169261154e60018060a01b036013541692335f52600460205261ffff60405f205416973691613253565b92611557613735565b5061156284516137f5565b955f5b85518110156117815761157881876132eb565b519060405191630b2adfdf60e11b8352600483015260c0826024818b5afa80156108b8578b925f916116cb575b50602081016115bd81516115b881612c86565b61437e565b916115d1608082019360ff855116906143c7565b9060ff806060830151169451169260a082019660ff8851169361161761160084516115fb81612c86565b6143db565b9960ff85519161160f83612c86565b51169061440b565b604085519461162586612c86565b519561163087612c86565b01519560048710156108c35760019a61ffff60ff9485936116af9b60206040519e8f9061165c82612c1e565b8152015260408d0152168060608c015260808b01521660a08901521660c08701525f60e08701525f61010087015261169382612c86565b85015261169f81612c86565b61014084015261016083016132ff565b6116b9828b6132eb565b526116c4818a6132eb565b5001611565565b92505060c0823d8211611779575b816116e660c09383612c3a565b810103126101e35760405160c081018181106001600160401b0382111761052757604052825160038110156101e3578152602083015160038110156101e357602082015260408301519260048410156101e35760a061176e918e95604085015261175260608201613890565b606085015261176360808201613890565b608085015201613890565b60a08201528c6115a5565b3d91506116d9565b5088938792936117918a85614485565b5f945b8051861015611a86576117a786826132eb565b5115611a78576117b786826132eb565b5196604051976368972d5960e01b895260048901525f88602481875afa9788156108b8575f9861199e575b505f5b865181101561198757885160068110156108c35761182c5760019060ff60208b01511660ff611822611817848c6132eb565b5192828451166137c2565b1690525b016117e5565b885160068110156108c35760010361186f5760019060ff60208b01511660ff611866602061185a858d6132eb565b510192828451166137c2565b1690525b611826565b885160068110156108c35760020361189d5760019060ff60208b01511660ff611866604061185a858d6132eb565b885160068110156108c3576003036119365761ffff60606118be838a6132eb565b5101511690600360ff60208c0151160261ffff8116908103610a8c576064019161ffff8311610a8c5761ffff6118f86001946064936143ae565b160461ffff6060611909848c6132eb565b51019116905261ffff606061191e838b6132eb565b51015116608061192e838b6132eb565b510152611826565b885160068110156108c3576004036119645760019060ff60208b01511660ff61186660a061185a858d6132eb565b88519060068210156108c35760056001920361186a578160e061192e838b6132eb565b509296509290946001905b01949092959195611794565b9097503d805f833e6119b08183612c3a565b8101906020818303126101e3578051906001600160401b0382116101e35701906060828203126101e357604051916119e783612bcb565b805160068110156101e3578352611a0060208201613890565b60208401526040810151906001600160401b0382116101e3570181601f820112156101e3578051906001600160401b0382116105275760405192611a4e601f8401601f191660200185612c3a565b828452602083830101116101e357815f9260208093018386015e83010152604082015296886117e2565b929094600190969296611992565b5091935050611a9581516137f5565b915f5b8251811015611bb457611aab81846132eb565b51906060820191611ac083516115b881612c86565b90611ad460c082019260ff845116906143c7565b9060ff8060a0830151169351169060e081019560ff875116611b0c611afd83516115fb81612c86565b9860ff84519161160f83612c86565b6080604085015193611b1d85612c86565b5194611b2886612c86565b01519460048610156108c35760019961ffff611b989860ff958694611b519c6040519d8e612c1e565b8d5260208d015260408c0152168060608b015260808a01521660a08801521660c08601525f60e08601525f610100860152611b8b81612c86565b8b85015261169f81612c86565b611ba282876132eb565b52611bad81866132eb565b5001611a98565b85848387611bc18261389e565b611bca8361389e565b611bd48251613769565b93611bdf8451613769565b5f5b8451811015611c11578061ffff6080611bfc600194896132eb565b51015116611c0a828a6132eb565b5201611be1565b508486855f5b8351811015611c47578061ffff6080611c32600194886132eb565b51015116611c4082886132eb565b5201611c17565b506040519285908786610f20611c5d8189612c3a565b60788852601f19015f5b8181106121ab5750505f9360015b60ff811660128111611d9457611c8a886139a5565b15801561219b575b611d9457600390611ca2896139f2565b611cab876139f2565b0260ff8116908103610a8c57846001911c1660010160ff8111610a8c5760ff165f5b8160ff821610611ce8575b5050611ce3906137e4565b611c75565b6077881015611d7f57611cfa896139a5565b158015611d84575b611d7f5788888c88868b611d168187613a5b565b919015611d4f57611d269661400d565b611d38575b600160ff915b0116611ccd565b966001611d4660ff926137d6565b98915050611d2b565b95611d5996613c34565b611d68575b600160ff91611d31565b966001611d7660ff926137d6565b98915050611d5e565b611cd8565b50611d8e876139a5565b15611d02565b5050969392909450611da691506139a5565b1591611db18261323c565b95611dbf6040519788612c3a565b828752601f19611dce8461323c565b01905f5b828110612132575050505f5b82811061210857505050611df0613735565b9081526020810193845260408101928352606081019182528051151560405160208101913360601b835242603483015244605483015260f81b607482015260558152611e3d607582612c3a565b5190209384600d55611e6982511515335f52600a60205260405f209060ff801983541691151516179055565b335f52600b602052611e7d60405f20613341565b5f5b845151811015611eb757600190335f52600b602052611eb160405f2061ffff611ea9848a516132eb565b511690613368565b01611e7f565b50909193335f52600c602052611ecf60405f20613341565b5f5b855151811015611f0157600190335f52600c602052611efb60405f2061ffff611ea9848b516132eb565b01611ed1565b5083817fc5187ed43ef6c494568f3ace9a84a990fe330816256f8610ba7630de7fc2a48587865115159351905193611f5d611f4e6040519384938452606060208501526060840190612a13565b82810360408401523396612a13565b0390a35f5b825190815181101561202857827f60620dfbc2d4188642cffa14579da13e93400a7369bb90aac5a983beef88f66a611f9c836001956132eb565b5161010060ff82511660208084015115159360ff6040820151169060ff60608201511661ffff608083015116908661ffff60e0850151169301519360405198899788528688015260408701526060860152608085015260a084015260e060c084015280519182918260e0860152018484015e5f828201840152601f01601f19168101030190a201611f62565b84511515335f52600460205260405f2090805f146121015760195b60ff63ffffffff845460101c1691160163ffffffff8111610a8c57825465ffffffff0000191660109190911b65ffffffff000016178255156120ec576001810161208d81546137d6565b90555b805461ffff8116906037820263ffffffff8116908103610a8c57605a0163ffffffff8111610a8c5763ffffffff8091169160101c1610156120cd57005b61ffff8114610a8c57815461ffff191660019190910161ffff16179055005b600281016120fa81546137d6565b9055612090565b600a612043565b80612115600192846132eb565b51612120828a6132eb565b5261212b81896132eb565b5001611dde565b60209060405161214181612c02565b5f81525f838201525f60408201525f60608201525f60808201525f60a08201525f60c08201525f60e082015260606101008201525f848201525f6101408201525f6101608201525f61018082015282828c01015201611dd2565b506121a5866139a5565b15611c92565b6020906040516121ba81612c02565b5f81525f838201525f60408201525f60608201525f60808201525f60a08201525f60c08201525f60e082015260606101008201525f888201525f6101408201525f6101608201525f61018082015282828c01015201611c67565b60209061221f613164565b82828a010152016110c9565b600190335f5260076020526122438160405f20612b66565b90549060031b1c61225482876132eb565b52016110a3565b9091935060038111612317575f5b81811061228357509061227d913691613253565b916110ad565b61228e81838561322c565b3561229c575b600101612269565b6013546122bb91906020906001600160a01b0316610d3783868861322c565b03915afa9182156108b8575f926122e2575b506122db600192151561329f565b9050612294565b91506020823d821161230f575b816122fc60209383612c3a565b810103126101e3579051906122db6122cd565b3d91506122ef565b60405162461bcd60e51b815260206004820152600f60248201526e546f6f206d616e792072656c69637360881b6044820152606490fd5b60405161235c608082612c3a565b600381526060366020830137611099565b61237881868661322c565b6040516331a9108f60e11b815290356004820152602081602481865afa9081156108b8575f91612402575b50336001600160a01b03909116036123bd5760010161107d565b60405162461bcd60e51b815260206004820152601860248201527f596f7520646f206e6f74206f776e207468697320756e697400000000000000006044820152606490fd5b90506020813d821161243b575b8161241c60209383612c3a565b810103126101e357516001600160a01b03811681036101e357876123a3565b3d915061240f565b60405162461bcd60e51b8152602060048201526011602482015270496e76616c6964207465616d2073697a6560781b6044820152606490fd5b50600883111561106a565b346101e3575f3660031901126101e3576020600d54604051908152f35b346101e35760403660031901126101e3576124bd6129d6565b6001600160a01b03165f908152600560205260409020805460243591908210156101e35760209161023091612ae8565b346101e35760403660031901126101e3576125066129d6565b6001600160a01b03165f908152600b602052604090208054602435908110156101e357610f0361ffff91602093612ac7565b346101e35760203660031901126101e3576125516129d6565b6060604051612561606082612c3a565b5f5b8281106125e3578360018060a01b03165f52600860205260405f206040519061258b82612bcb565b5f825b600382106125c557604051845f825b600382106125ab576103c084f35b60206125ba6001928551612a4a565b93019101909161259d565b600360206001926125d5866131ae565b81520193019101909161258e565b6020906125ee613164565b8184015201612563565b346101e3575f3660031901126101e3576126106136de565b60025460ff81161561264f5760ff19166002557f5db9ee0a495bf2e6ff9c91a7834c1ba4fdd244a5e8aa4e537bd38aeae4b073aa6020604051338152a1005b60405162461bcd60e51b815260206004820152601460248201527314185d5cd8589b194e881b9bdd081c185d5cd95960621b6044820152606490fd5b346101e3575f3660031901126101e3576126a36136de565b6126ab613426565b4780156126ce575f8080809360018060a01b0382541682f1156108b85760018055005b60405162461bcd60e51b81526020600482015260146024820152734e6f2066756e647320746f20776974686472617760601b6044820152606490fd5b346101e3575f3660031901126101e3576020600e54604051908152f35b346101e35760203660031901126101e3576001600160a01b036127486129d6565b16805f52600a60205260ff60405f205416815f52600b60205260405f20915f52600c60205260405f20916127b661278a612784600d5493612e59565b94612e59565b6127a860405195869515158652608060208701526080860190612a13565b908482036040860152612a13565b9060608301520390f35b5f3660031901126101e3576127d36133e2565b6127db613426565b6127e361347c565b6127f1600f54341015612b88565b5f5b600381106128015760018055005b60019061282461280f613597565b335f5260086020526108768360405f206129ec565b016127f3565b5f3660031901126101e35761283d6133e2565b612845613426565b61284d61347c565b61285b600e54341015612b88565b60405160208101904282523360601b604082015244605482015260548152612884607482612c3a565b519020600b8106600a0180600a11610a8c57600b8260081c066008019081600811610a8c57600b8360101c066009019283600911610a8c5760ff60038260181c06166128d660038360201c1692613575565b6012546001600160a01b0316929060ff906128f084612c86565b16956128fb87612c86565b60048210156108c357604051630e3bd81160e31b815296602096889687955f9587956129389560ff91821695821694909116923360048901612c90565b03925af180156108b8575f9061295e575b61087c90335f52600560205260405f20612cf0565b506020813d60201161298a575b8161297860209383612c3a565b810103126101e35761087c9051612949565b3d915061296b565b346101e35760403660031901126101e3576129ab6129d6565b6001600160a01b03165f90815260086020526040902060243560038110156101e357610349916129ec565b600435906001600160a01b03821682036101e357565b9060038110156129ff5760030201905f90565b634e487b7160e01b5f52603260045260245ffd5b90602080835192838152019201905f5b818110612a305750505090565b825161ffff16845260209384019390920191600101612a23565b9060ff61012061014093805115158452602081015160208501528260408201511660408501528260608201511660608501528260808201511660808501528260a08201511660a08501528260c08201511660c08501528260e08201511660e085015282610100820151166101008501520151166101208201520190565b91909180548310156129ff575f52601e60205f208360041c019260011b1690565b80548210156129ff575f5260205f2001905f90565b9181601f840112156101e3578235916001600160401b0383116101e3576020808501948460051b0101116101e357565b60206040818301928281528451809452019201905f5b818110612b505750505090565b8251845260209384019390920191600101612b43565b60038210156129ff5701905f90565b9060088110156129ff5760030201905f90565b15612b8f57565b60405162461bcd60e51b8152602060048201526014602482015273125b9cdd59999a58da595b9d081c185e5b595b9d60621b6044820152606490fd5b606081019081106001600160401b0382111761052757604052565b61014081019081106001600160401b0382111761052757604052565b6101a081019081106001600160401b0382111761052757604052565b61018081019081106001600160401b0382111761052757604052565b90601f801991011681019081106001600160401b0382111761052757604052565b8115612c65570690565b634e487b7160e01b5f52601260045260245ffd5b91908201809211610a8c57565b600311156108c357565b6001600160a01b03909116815260e08101979690959490929091612cb381612c86565b6020870152612cc181612c86565b604086015260048310156108c35760c09360ff809492819360608901521660808701521660a085015216910152565b8054600160401b81101561052757612d0d91600182018155612ae8565b819291549060031b91821b915f19901b1916179055565b9190612e465760ff6101206002612e4494612d4e85511515829060ff801983541691151516179055565b6020850151600182015501928280604083015116168319855416178455612d8c83606083015116859061ff0082549160081b169061ff001916179055565b6080810151845462ff0000191690841660101b62ff00001617845560a0810151845463ff000000191690841660181b63ff0000001617845560c0810151845464ff00000000191690841660201b64ff000000001617845560e0810151845465ff0000000000191690841660281b65ff000000000016178455610100810151845466ff000000000000191690841660301b60ff60301b161784550151825467ff000000000000001916911660381b60ff60381b16179055565b565b634e487b7160e01b5f525f60045260245ffd5b90604051918281549182825260208201905f5260205f20925f905b80600f83011061307c57612e44945491818110613067575b81811061304f575b818110613038575b818110613020575b818110613008575b818110612ff0575b818110612fd8575b818110612fc0575b818110612fa8575b818110612f90575b818110612f78575b818110612f60575b818110612f48575b818110612f30575b818110612f18575b10612f0a575b500383612c3a565b60f01c81526020015f612f02565b92602060019161ffff8560e01c168152019301612efc565b92602060019161ffff8560d01c168152019301612ef4565b92602060019161ffff8560c01c168152019301612eec565b92602060019161ffff8560b01c168152019301612ee4565b92602060019161ffff8560a01c168152019301612edc565b92602060019161ffff8560901c168152019301612ed4565b92602060019161ffff8560801c168152019301612ecc565b92602060019161ffff8560701c168152019301612ec4565b92602060019161ffff8560601c168152019301612ebc565b92602060019161ffff8560501c168152019301612eb4565b92602060019161ffff8560401c168152019301612eac565b92602060019161ffff8560301c168152019301612ea4565b92602060019161ffff85831c168152019301612e9c565b92602060019161ffff8560101c168152019301612e94565b92602060019161ffff85168152019301612e8c565b916010919350610200600191865461ffff8116825261ffff81861c16602083015261ffff8160201c16604083015261ffff8160301c16606083015261ffff8160401c16608083015261ffff8160501c1660a083015261ffff8160601c1660c083015261ffff8160701c1660e083015261ffff8160801c1661010083015261ffff8160901c1661012083015261ffff8160a01c1661014083015261ffff8160b01c1661016083015261ffff8160c01c1661018083015261ffff8160d01c166101a083015261ffff8160e01c166101c083015260f01c6101e0820152019401920185929391612e74565b6040519061317182612be6565b5f610120838281528260208201528260408201528260608201528260808201528260a08201528260c08201528260e0820152826101008201520152565b906040516131bb81612be6565b61012060ff6002839582815416151585526001810154602086015201548181166040850152818160081c166060850152818160101c166080850152818160181c1660a0850152818160201c1660c0850152818160281c1660e0850152818160301c1661010085015260381c16910152565b91908110156129ff5760051b0190565b6001600160401b0381116105275760051b60200190565b92919061325f8161323c565b9361326d6040519586612c3a565b602085838152019160051b81019283116101e357905b82821061328f57505050565b8135815260209182019101613283565b156132a657565b60405162461bcd60e51b815260206004820152601960248201527f596f7520646f206e6f74206f776e20746869732072656c6963000000000000006044820152606490fd5b80518210156129ff5760209160051b010190565b60048210156108c35752565b5160048110156108c35790565b81810292918115918404141715610a8c57565b818110613336575050565b5f815560010161332b565b80545f82558061334f575050565b612e44915f52600f60205f20910160041c81019061332b565b8054600160401b8110156105275761338591600182018155612ac7565b61ffff80839493549260031b9316831b921b1916179055565b60038110156129ff5760051b60040190565b9060038110156129ff5760051b0190565b80545f8255806133cf575050565b612e44915f5260205f209081019061332b565b60ff600254166133ee57565b60405162461bcd60e51b815260206004820152601060248201526f14185d5cd8589b194e881c185d5cd95960821b6044820152606490fd5b600260015414613437576002600155565b60405162461bcd60e51b815260206004820152601f60248201527f5265656e7472616e637947756172643a207265656e7472616e742063616c6c006044820152606490fd5b335f52600360205260ff60405f2054161561349357565b335f52600360205260405f20600160ff1982541617905560405160a081018181106001600160401b03821117610527576040526001815261ffff600381602084015f8152604085015f815260608601905f825261353263ffffffff608089019460018652335f526004602052868060405f209b51161687198b5416178a555116889065ffffffff000082549160101b169065ffffffff00001916179055565b51600187015551600286015551169201911661ffff19825416179055337ff10ec97e920cde75887622583772c637595a40b1f7777c18e51ea36cd127475c5f80a2565b60649006603c811061359257605a1161358d57600290565b600190565b505f90565b61359f613164565b5060405160208101904282524460408201523360601b6060820152605481526135c9607482612c3a565b519020602860648206101561363d57600d8160081c0660080180600811610a8c5760ff90816006604051946135fd86612be6565b600186525f60208701525f60408701525f60608701525f60808701525f60a08701525f60c08701525f60e087015206166101008401521661012082015290565b61364681613575565b90600b8160281c06600a0180600a11610a8c57600b8260301c066008019081600811610a8c57600b8360381c066009019182600911610a8c5760ff8094926003829483604051996136968b612be6565b5f8b525f60208c015281848460101c061660408c01521660608a015260181c1660808801521660a08601521660c08401521660e08201525f6101008201525f61012082015290565b5f546001600160a01b031633036136f157565b606460405162461bcd60e51b815260206004820152602060248201527f4f776e61626c653a2063616c6c6572206973206e6f7420746865206f776e65726044820152fd5b60405190608082018281106001600160401b0382111761052757604052606080835f81528160208201528160408201520152565b906137738261323c565b6137806040519182612c3a565b8281528092613791601f199161323c565b0190602036910137565b60021b906103fc60fc831692168203610a8c57565b60ff60029116019060ff8211610a8c57565b9060ff8091169116019060ff8211610a8c57565b5f198114610a8c5760010190565b60ff1660ff8114610a8c5760010190565b906137ff8261323c565b61380c6040519182612c3a565b828152809261381d601f199161323c565b01905f5b82811061382d57505050565b60209060405161383c81612c1e565b5f81525f838201525f60408201525f60608201525f60808201525f60a08201525f60c08201525f60e08201525f6101008201525f6101208201525f6101408201525f61016082015282828501015201613821565b519060ff821682036101e357565b604051919060606138af8185612c3a565b60603685375f5b825181101561392e578061ffff836138d0600194876132eb565b510151166138df575b016138b6565b60ff6101206138ee83876132eb565b5101516138fa81612c86565b61390381612c86565b1660ff61392561391e82613917858c6133b0565b51166137e4565b92896133b0565b911690526138d9565b50505f5b815181101561399f5780600360ff61396f81610120613953600197896132eb565b51015161395f81612c86565b61396881612c86565b16886133b0565b5116101561397e575b01613932565b61398881846132eb565b5160ff613997818351166137b0565b169052613978565b50509050565b5f5b81518110156139d65761ffff60606139bf83856132eb565b510151166139cf576001016139a7565b5050600190565b50505f90565b9061ffff8091169116019061ffff8211610a8c57565b5f5b8151811015613a57578061ffff6060613a0f600194866132eb565b51015116613a1e575b016139f4565b60ff6040613a2c83866132eb565b5101511661ffff613a4f610100613a4385886132eb565b510192828451166139dc565b169052613a18565b5050565b905f905f5f945f915f5b8651811015613aea57613a91613a8a6060613a80848b6132eb565b51015161ffff1690565b61ffff1690565b151580613acb575b613aa6575b600101613a65565b9650509250613abb610100613a8087876132eb565b9260018060ff8816979050613a9e565b50613adc610100613a80838a6132eb565b61ffff808816911611613a99565b5091949092955f5b8751811015613b6857613b0d613a8a6060613a80848c6132eb565b151580613b49575b613b22575b600101613af2565b955091509250613b38610100613a8086886132eb565b925f91600160ff8716969050613b1a565b50613b5a610100613a80838b6132eb565b61ffff808816911611613b15565b50919361ffff90959193951615613bbe5791610100915f93858514613bb65750955b848414613ba75750613ba09060ff8716906132eb565b5101529190565b613ba0915060ff8716906132eb565b905095613b8a565b5050613bde92939150613bd0816139f2565b613bd9826139f2565b613a5b565b9091565b61ffff5f199116019061ffff8211610a8c57565b9061ffff8091169116039061ffff8211610a8c57565b60405190613c1b604083612c3a565b600a82526913185cdd0814dd185b9960b21b6020830152565b959160ff909794959391971661ffff6060613c4f838a6132eb565b5101511615614001575f955f5b8951811015613c995761ffff6060613c74838d6132eb565b51015116613c85575b600101613c5c565b96613c916001916137d6565b979050613c7d565b5090929497919395968715613ff5575f9760018103613f6257505f5b8351811015613f545761ffff6060613ccd83876132eb565b51015116613cdd57600101613cb5565b909192939495969750915b61ffff6060613cf785876132eb565b510151169060ff613d0887856132eb565b51511660ff6020613d1987896132eb565b5101511660ff60a0613d2b8a886132eb565b5101511660ff60c0613d3d898b6132eb565b510151169160038c02948c86046003148d151715610a8c57613d60951c9361458b565b908061ffff806060613d72898b6132eb565b51015116911611613f3b575b5f60e0613d8b87896132eb565b510151151580613f1b575b15613ef157505050613db961ffff6060613db086886132eb565b51015116613be2565b60016060613dc786886132eb565b510152600191613dd5613c0c565b925b613ee1575b61ffff6060613deb87896132eb565b5101511691610160613e1a89610140613e04828a6132eb565b51015197613e1189612c86565b61149489612c86565b5101519560048710156108c357613e5461016061138283610140613e3e828e6132eb565b5101519b613e4b8d612c86565b6114948d612c86565b9860048a10156108c3576040519a613e6b8c612c02565b60ff168b5260208b015f905260408b015260ff1660608a015261ffff168060808a015260a089015260c088015260e087015261010086015260ff1661012085015260ff1661014084015260ff1661016083015260ff16610180820152613ed182846132eb565b52613edb916132eb565b50600190565b9150613eeb613c0c565b91613ddc565b6060613f018789969495966132eb565b510161ffff613f138582845116613bf6565b169052613dd7565b5061ffff6060613f2b888a6132eb565b5101511661ffff83161015613d96565b5061ffff6060613f4b86886132eb565b51015116613d7e565b509096919293949596613ce8565b613f8b91985082613f858860ff613f7f8a9998979e9c9b9a61379b565b16612c79565b1c612c5b565b975f975f5b8351811015613fe55761ffff6060613fa883876132eb565b51015116613fb9575b600101613f90565b988a8114613fd457613fcc6001916137d6565b999050613fb1565b509193959790929496985091613ce8565b5091939597509791939597613ce8565b50505050505050505f90565b50505050925050505f90565b959160ff909794959391971661ffff6060614028838a6132eb565b5101511615614001575f955f5b89518110156140725761ffff606061404d838d6132eb565b5101511661405e575b600101614035565b9661406a6001916137d6565b979050614056565b5090929497919395968715613ff5575f97600181036142f757505f5b83518110156142e95761ffff60606140a683876132eb565b510151166140b65760010161408e565b909192939495969750915b61ffff60606140d085876132eb565b510151169060ff6140e187856132eb565b51511660ff60206140f287896132eb565b5101511660ff60a06141048a886132eb565b5101511660ff60c0614116898b6132eb565b510151169160038c02948c86046003148d151715610a8c57614139951c9361458b565b908061ffff80606061414b898b6132eb565b510151169116116142d0575b5f60e061416487896132eb565b5101511515806142b0575b156142865750505061418961ffff6060613db086886132eb565b6001606061419786886132eb565b5101526001916141a5613c0c565b925b614276575b61ffff60606141bb87896132eb565b51015116916101606141d489610140613e04828a6132eb565b5101519560048710156108c3576141f861016061138283610140613e3e828e6132eb565b9860048a10156108c3576040519a61420f8c612c02565b60ff168b5260208b016001905260408b015260ff1660608a015261ffff168060808a015260a089015260c088015260e087015261010086015260ff1661012085015260ff1661014084015260ff1661016083015260ff16610180820152613ed182846132eb565b9150614280613c0c565b916141ac565b60606142968789969495966132eb565b510161ffff6142a88582845116613bf6565b1690526141a7565b5061ffff60606142c0888a6132eb565b5101511661ffff8316101561416f565b5061ffff60606142e086886132eb565b51015116614157565b5090969192939495966140c1565b61431491985082613f858860ff613f7f8a9998979e9c9b9a61379b565b975f975f5b835181101561436e5761ffff606061433183876132eb565b51015116614342575b600101614319565b988a811461435d576143556001916137d6565b99905061433a565b5091939597909294969850916140c1565b50919395975097919395976140c1565b61438781612c86565b80156143a85760019061439981612c86565b146143a357606990565b605290565b50604190565b9061ffff8091169116029061ffff8216918203610a8c57565b9060021b6103fc166143d8916139dc565b90565b6143e481612c86565b8015614405576001906143f681612c86565b1461440057601490565b600c90565b50600690565b9060ff6016911604908161441e82612c86565b60018214614470575b5060029061443481612c86565b1461444c575b601260ff821611156143d85750601290565b60ff600491160160ff81111561443a57634e487b7160e01b5f52601160045260245ffd5b600291925061447e906137b0565b9190614427565b919061ffff1680156145865760038102908104600303610a8c576064019182606411610a8c575f5b815181101561399f578060ff60646144d487836144cc600197896132eb565b515116613318565b04166144e082856132eb565b515260ff6064614500878360206144f7878a6132eb565b51015116613318565b0416602061450e83866132eb565b51015260ff6064614526878360406144f7878a6132eb565b0416604061453483866132eb565b51015261ffff606461454d878360606144f7878a6132eb565b0416606061455b83866132eb565b51015261ffff606061456d83866132eb565b51015116608061457d83866132eb565b510152016144ad565b509050565b60609594929360ff16801580159190826146eb575b50506146c05760ff169061ffff6023840616606e0161ffff8111610a8c5760ff6145cc601292856143ae565b92160161ffff8111610a8c5761ffff16908115612c655761ffff160490600261ffff8316106146a3575b5061ffff60258360081c061660520161ffff8111610a8c5761461d61ffff916064936143ae565b16049060ff82931690811515918261467a575b505061463b57509190565b600d92935061ffff9150160261ffff8116908103610a8c57600a900490604051614666604082612c3a565b600481526310d4925560e21b602082015290565b601c9192500261ffff8116908103610a8c5761ffff600a60649204169160181c06105f80614630565b60ff9150600390041660020160ff8111610a8c5760ff165f6145f6565b5050505090505f906040516146d6604082612c3a565b6005815264444f44474560d81b602082015290565b909150601982029182046019141715610a8c57600a900460648406105f806145a056fea2646970667358221220ce4259f88b7b8cf2f6644d4bd7de02f74064526dd8029ff7e7e699789bc445e464736f6c634300081e0033",
			"opcodes": "PUSH1 0x80 CALLVALUE PUSH2 0x109 JUMPI PUSH1 0x1F PUSH2 0x487A CODESIZE DUP2 SWAP1 SUB SWAP2 DUP3 ADD PUSH1 0x1F NOT AND DUP4 ADD SWAP2 PUSH1 0x1 PUSH1 0x1 PUSH1 0x40 SHL SUB DUP4 GT DUP5 DUP5 LT OR PUSH2 0x10D JUMPI DUP1 DUP5 SWAP3 PUSH1 0x40 SWAP5 DUP6 MSTORE DUP4 CODECOPY DUP2 ADD SUB SLT PUSH2 0x109 JUMPI PUSH2 0x52 PUSH1 0x20 PUSH2 0x4B DUP4 PUSH2 0x121 JUMP JUMPDEST SWAP3 ADD PUSH2 0x121 JUMP JUMPDEST PUSH0 DUP1 SLOAD CALLER PUSH1 0x1 PUSH1 0x1 PUSH1 0xA0 SHL SUB NOT DUP3 AND DUP2 OR DUP4 SSTORE PUSH1 0x40 MLOAD SWAP5 SWAP3 SWAP1 SWAP2 PUSH1 0x1 PUSH1 0x1 PUSH1 0xA0 SHL SUB AND SWAP1 PUSH32 0x8BE0079C531659141344CD1FD0A4F28419497F9722A3DAAFE3B4186F6B6457E0 SWAP1 DUP1 LOG3 PUSH1 0x1 DUP1 SSTORE PUSH1 0x2 DUP1 SLOAD PUSH1 0xFF NOT AND SWAP1 SSTORE PUSH7 0x2386F26FC10000 PUSH1 0xE DUP2 SWAP1 SSTORE PUSH7 0x11C37937E08000 PUSH1 0xF SSTORE PUSH1 0x10 SSTORE PUSH7 0x1C6BF526340000 PUSH1 0x11 SSTORE PUSH1 0x12 DUP1 SLOAD PUSH1 0x1 PUSH1 0x1 PUSH1 0xA0 SHL SUB SWAP3 DUP4 AND PUSH1 0x1 PUSH1 0x1 PUSH1 0xA0 SHL SUB NOT SWAP2 DUP3 AND OR SWAP1 SWAP2 SSTORE PUSH1 0x13 DUP1 SLOAD SWAP4 SWAP1 SWAP3 AND SWAP3 AND SWAP2 SWAP1 SWAP2 OR SWAP1 SSTORE PUSH2 0x4744 SWAP1 DUP2 PUSH2 0x136 DUP3 CODECOPY RETURN JUMPDEST PUSH0 DUP1 REVERT JUMPDEST PUSH4 0x4E487B71 PUSH1 0xE0 SHL PUSH0 MSTORE PUSH1 0x41 PUSH1 0x4 MSTORE PUSH1 0x24 PUSH0 REVERT JUMPDEST MLOAD SWAP1 PUSH1 0x1 PUSH1 0x1 PUSH1 0xA0 SHL SUB DUP3 AND DUP3 SUB PUSH2 0x109 JUMPI JUMP INVALID PUSH1 0x80 PUSH1 0x40 MSTORE PUSH1 0x4 CALLDATASIZE LT ISZERO PUSH2 0x11 JUMPI PUSH0 DUP1 REVERT JUMPDEST PUSH0 CALLDATALOAD PUSH1 0xE0 SHR DUP1 PUSH4 0x18DC3185 EQ PUSH2 0x2992 JUMPI DUP1 PUSH4 0x201738E2 EQ PUSH2 0x282A JUMPI DUP1 PUSH4 0x29DE58D1 EQ PUSH2 0x27C0 JUMPI DUP1 PUSH4 0x2DC6D62F EQ PUSH2 0x2727 JUMPI DUP1 PUSH4 0x394861F3 EQ PUSH2 0x270A JUMPI DUP1 PUSH4 0x3CCFD60B EQ PUSH2 0x268B JUMPI DUP1 PUSH4 0x3F4BA83A EQ PUSH2 0x25F8 JUMPI DUP1 PUSH4 0x49C7C24A EQ PUSH2 0x2538 JUMPI DUP1 PUSH4 0x4E178659 EQ PUSH2 0x24ED JUMPI DUP1 PUSH4 0x4EF2D6C1 EQ PUSH2 0x24A4 JUMPI DUP1 PUSH4 0x518C83B0 EQ PUSH2 0x2487 JUMPI DUP1 PUSH4 0x51BDAB14 EQ PUSH2 0xFFE JUMPI DUP1 PUSH4 0x5C975ABB EQ PUSH2 0xFDC JUMPI DUP1 PUSH4 0x6154EE97 EQ PUSH2 0xF6A JUMPI DUP1 PUSH4 0x715018A6 EQ PUSH2 0xF13 JUMPI DUP1 PUSH4 0x732E9B85 EQ PUSH2 0xEB8 JUMPI DUP1 PUSH4 0x7E5C4F8B EQ PUSH2 0xE75 JUMPI DUP1 PUSH4 0x8456CB59 EQ PUSH2 0xE1C JUMPI DUP1 PUSH4 0x8B5CA78F EQ PUSH2 0xDFF JUMPI DUP1 PUSH4 0x8DA5CB5B EQ PUSH2 0xDD8 JUMPI DUP1 PUSH4 0x9D980BD2 EQ PUSH2 0xDBB JUMPI DUP1 PUSH4 0xA5F968A0 EQ PUSH2 0xC73 JUMPI DUP1 PUSH4 0xA787C80B EQ PUSH2 0xC36 JUMPI DUP1 PUSH4 0xA95DB7E2 EQ PUSH2 0xB98 JUMPI DUP1 PUSH4 0xB2A47500 EQ PUSH2 0xB55 JUMPI DUP1 PUSH4 0xB654823E EQ PUSH2 0x76F JUMPI DUP1 PUSH4 0xB78F4C70 EQ PUSH2 0x732 JUMPI DUP1 PUSH4 0xB92A40AD EQ PUSH2 0x70A JUMPI DUP1 PUSH4 0xBB15A3B4 EQ PUSH2 0x68C JUMPI DUP1 PUSH4 0xBBE15627 EQ PUSH2 0x61B JUMPI DUP1 PUSH4 0xBDB729C9 EQ PUSH2 0x598 JUMPI DUP1 PUSH4 0xC4F036C4 EQ PUSH2 0x550 JUMPI DUP1 PUSH4 0xC99AE45F EQ PUSH2 0x46C JUMPI DUP1 PUSH4 0xD5654AE7 EQ PUSH2 0x444 JUMPI DUP1 PUSH4 0xD8E86854 EQ PUSH2 0x3D4 JUMPI DUP1 PUSH4 0xDA539B0F EQ PUSH2 0x305 JUMPI DUP1 PUSH4 0xF2FDE38B EQ PUSH2 0x23F JUMPI DUP1 PUSH4 0xF5905CA1 EQ PUSH2 0x1E7 JUMPI PUSH4 0xF5E5FFF2 EQ PUSH2 0x1C6 JUMPI PUSH0 DUP1 REVERT JUMPDEST CALLVALUE PUSH2 0x1E3 JUMPI PUSH0 CALLDATASIZE PUSH1 0x3 NOT ADD SLT PUSH2 0x1E3 JUMPI PUSH1 0x20 PUSH1 0x10 SLOAD PUSH1 0x40 MLOAD SWAP1 DUP2 MSTORE RETURN JUMPDEST PUSH0 DUP1 REVERT JUMPDEST CALLVALUE PUSH2 0x1E3 JUMPI PUSH1 0x40 CALLDATASIZE PUSH1 0x3 NOT ADD SLT PUSH2 0x1E3 JUMPI PUSH2 0x200 PUSH2 0x29D6 JUMP JUMPDEST PUSH1 0x1 PUSH1 0x1 PUSH1 0xA0 SHL SUB AND PUSH0 SWAP1 DUP2 MSTORE PUSH1 0x6 PUSH1 0x20 MSTORE PUSH1 0x40 SWAP1 KECCAK256 DUP1 SLOAD PUSH1 0x24 CALLDATALOAD SWAP2 SWAP1 DUP3 LT ISZERO PUSH2 0x1E3 JUMPI PUSH1 0x20 SWAP2 PUSH2 0x230 SWAP2 PUSH2 0x2AE8 JUMP JUMPDEST SWAP1 SLOAD SWAP1 PUSH1 0x3 SHL SHR PUSH1 0x40 MLOAD SWAP1 DUP2 MSTORE RETURN JUMPDEST CALLVALUE PUSH2 0x1E3 JUMPI PUSH1 0x20 CALLDATASIZE PUSH1 0x3 NOT ADD SLT PUSH2 0x1E3 JUMPI PUSH2 0x258 PUSH2 0x29D6 JUMP JUMPDEST PUSH2 0x260 PUSH2 0x36DE JUMP JUMPDEST PUSH1 0x1 PUSH1 0x1 PUSH1 0xA0 SHL SUB AND DUP1 ISZERO PUSH2 0x2B1 JUMPI PUSH0 DUP1 SLOAD PUSH1 0x1 PUSH1 0x1 PUSH1 0xA0 SHL SUB NOT DUP2 AND DUP4 OR DUP3 SSTORE PUSH1 0x1 PUSH1 0x1 PUSH1 0xA0 SHL SUB AND SWAP1 PUSH32 0x8BE0079C531659141344CD1FD0A4F28419497F9722A3DAAFE3B4186F6B6457E0 SWAP1 DUP1 LOG3 STOP JUMPDEST PUSH1 0x40 MLOAD PUSH3 0x461BCD PUSH1 0xE5 SHL DUP2 MSTORE PUSH1 0x20 PUSH1 0x4 DUP3 ADD MSTORE PUSH1 0x26 PUSH1 0x24 DUP3 ADD MSTORE PUSH32 0x4F776E61626C653A206E6577206F776E657220697320746865207A65726F2061 PUSH1 0x44 DUP3 ADD MSTORE PUSH6 0x646472657373 PUSH1 0xD0 SHL PUSH1 0x64 DUP3 ADD MSTORE PUSH1 0x84 SWAP1 REVERT JUMPDEST CALLVALUE PUSH2 0x1E3 JUMPI PUSH1 0x40 CALLDATASIZE PUSH1 0x3 NOT ADD SLT PUSH2 0x1E3 JUMPI PUSH2 0x31E PUSH2 0x29D6 JUMP JUMPDEST PUSH1 0x1 PUSH1 0x1 PUSH1 0xA0 SHL SUB AND PUSH0 SWAP1 DUP2 MSTORE PUSH1 0x9 PUSH1 0x20 MSTORE PUSH1 0x40 SWAP1 KECCAK256 PUSH1 0x24 CALLDATALOAD PUSH1 0x8 DUP2 LT ISZERO PUSH2 0x1E3 JUMPI PUSH2 0x349 SWAP2 PUSH2 0x2B75 JUMP JUMPDEST POP DUP1 SLOAD PUSH1 0x1 DUP3 ADD SLOAD PUSH1 0x2 SWAP1 SWAP3 ADD SLOAD PUSH1 0x40 DUP1 MLOAD PUSH1 0xFF SWAP4 DUP5 AND ISZERO ISZERO DUP2 MSTORE PUSH1 0x20 DUP1 DUP3 ADD SWAP6 SWAP1 SWAP6 MSTORE DUP3 DUP5 AND SWAP2 DUP2 ADD SWAP2 SWAP1 SWAP2 MSTORE PUSH1 0x8 DUP3 SWAP1 SHR DUP4 AND PUSH1 0x60 DUP3 ADD MSTORE PUSH1 0x10 DUP3 SWAP1 SHR DUP4 AND PUSH1 0x80 DUP3 ADD MSTORE PUSH1 0x18 DUP3 SWAP1 SHR DUP4 AND PUSH1 0xA0 DUP3 ADD MSTORE SWAP3 DUP2 SWAP1 SHR DUP3 AND PUSH1 0xC0 DUP5 ADD MSTORE PUSH1 0x28 DUP2 SWAP1 SHR DUP3 AND PUSH1 0xE0 DUP5 ADD MSTORE PUSH1 0x30 DUP2 SWAP1 SHR DUP3 AND PUSH2 0x100 DUP5 ADD MSTORE PUSH1 0x38 SHR AND PUSH2 0x120 DUP3 ADD MSTORE DUP1 PUSH2 0x140 DUP2 ADD JUMPDEST SUB SWAP1 RETURN JUMPDEST CALLVALUE PUSH2 0x1E3 JUMPI PUSH1 0x80 CALLDATASIZE PUSH1 0x3 NOT ADD SLT PUSH2 0x1E3 JUMPI PUSH32 0x6EF2FF813EFC9EFC76792366C4ACA2677B755A5A13AFFC54D96EF35DC8E9BB73 PUSH1 0x80 PUSH1 0x4 CALLDATALOAD PUSH1 0x64 CALLDATALOAD PUSH1 0x44 CALLDATALOAD PUSH1 0x24 CALLDATALOAD PUSH2 0x41C PUSH2 0x36DE JUMP JUMPDEST DUP4 PUSH1 0xE SSTORE DUP1 PUSH1 0xF SSTORE DUP2 PUSH1 0x10 SSTORE DUP3 PUSH1 0x11 SSTORE PUSH1 0x40 MLOAD SWAP4 DUP5 MSTORE PUSH1 0x20 DUP5 ADD MSTORE PUSH1 0x40 DUP4 ADD MSTORE PUSH1 0x60 DUP3 ADD MSTORE LOG1 STOP JUMPDEST CALLVALUE PUSH2 0x1E3 JUMPI PUSH0 CALLDATASIZE PUSH1 0x3 NOT ADD SLT PUSH2 0x1E3 JUMPI PUSH1 0x13 SLOAD PUSH1 0x40 MLOAD PUSH1 0x1 PUSH1 0x1 PUSH1 0xA0 SHL SUB SWAP1 SWAP2 AND DUP2 MSTORE PUSH1 0x20 SWAP1 RETURN JUMPDEST CALLVALUE PUSH2 0x1E3 JUMPI PUSH1 0x20 CALLDATASIZE PUSH1 0x3 NOT ADD SLT PUSH2 0x1E3 JUMPI PUSH2 0x485 PUSH2 0x29D6 JUMP JUMPDEST PUSH2 0x100 SWAP1 PUSH1 0x40 MLOAD PUSH2 0x496 DUP4 DUP3 PUSH2 0x2C3A JUMP JUMPDEST PUSH0 JUMPDEST DUP4 DUP2 LT PUSH2 0x53B JUMPI POP POP PUSH1 0x1 DUP1 PUSH1 0xA0 SHL SUB AND PUSH0 MSTORE PUSH1 0x9 PUSH1 0x20 MSTORE PUSH1 0x40 PUSH0 KECCAK256 PUSH1 0x40 MLOAD SWAP2 DUP3 ADD DUP3 DUP2 LT PUSH1 0x1 PUSH1 0x1 PUSH1 0x40 SHL SUB DUP3 GT OR PUSH2 0x527 JUMPI PUSH1 0x40 MSTORE PUSH0 DUP3 JUMPDEST PUSH1 0x8 DUP3 LT PUSH2 0x509 JUMPI PUSH1 0x40 MLOAD DUP5 PUSH0 DUP3 JUMPDEST PUSH1 0x8 DUP3 LT PUSH2 0x4EF JUMPI PUSH2 0xA00 DUP5 RETURN JUMPDEST PUSH1 0x20 PUSH2 0x4FE PUSH1 0x1 SWAP3 DUP6 MLOAD PUSH2 0x2A4A JUMP JUMPDEST SWAP4 ADD SWAP2 ADD SWAP1 SWAP2 PUSH2 0x4E1 JUMP JUMPDEST PUSH1 0x3 PUSH1 0x20 PUSH1 0x1 SWAP3 PUSH2 0x519 DUP7 PUSH2 0x31AE JUMP JUMPDEST DUP2 MSTORE ADD SWAP4 ADD SWAP2 ADD SWAP1 SWAP2 PUSH2 0x4D2 JUMP JUMPDEST PUSH4 0x4E487B71 PUSH1 0xE0 SHL PUSH0 MSTORE PUSH1 0x41 PUSH1 0x4 MSTORE PUSH1 0x24 PUSH0 REVERT JUMPDEST PUSH1 0x20 SWAP1 PUSH2 0x546 PUSH2 0x3164 JUMP JUMPDEST DUP2 DUP5 ADD MSTORE ADD PUSH2 0x498 JUMP JUMPDEST CALLVALUE PUSH2 0x1E3 JUMPI PUSH1 0x40 CALLDATASIZE PUSH1 0x3 NOT ADD SLT PUSH2 0x1E3 JUMPI PUSH2 0x569 PUSH2 0x29D6 JUMP JUMPDEST PUSH1 0x1 PUSH1 0x1 PUSH1 0xA0 SHL SUB AND PUSH0 SWAP1 DUP2 MSTORE PUSH1 0x7 PUSH1 0x20 MSTORE PUSH1 0x40 SWAP1 KECCAK256 PUSH1 0x24 CALLDATALOAD SWAP1 PUSH1 0x3 DUP3 LT ISZERO PUSH2 0x1E3 JUMPI PUSH1 0x20 SWAP2 PUSH2 0x230 SWAP2 PUSH2 0x2B66 JUMP JUMPDEST CALLVALUE PUSH2 0x1E3 JUMPI PUSH0 CALLDATASIZE PUSH1 0x3 NOT ADD SLT PUSH2 0x1E3 JUMPI PUSH2 0x5B0 PUSH2 0x33E2 JUMP JUMPDEST CALLER PUSH0 MSTORE PUSH1 0x5 PUSH1 0x20 MSTORE PUSH2 0x5C4 PUSH1 0x40 PUSH0 KECCAK256 PUSH2 0x33C1 JUMP JUMPDEST CALLER PUSH0 MSTORE PUSH1 0x6 PUSH1 0x20 MSTORE PUSH2 0x5D8 PUSH1 0x40 PUSH0 KECCAK256 PUSH2 0x33C1 JUMP JUMPDEST CALLER PUSH0 MSTORE PUSH1 0x7 PUSH1 0x20 MSTORE PUSH2 0x5F1 PUSH1 0x40 PUSH0 KECCAK256 PUSH1 0x3 DUP2 ADD SWAP1 PUSH2 0x332B JUMP JUMPDEST CALLER PUSH0 MSTORE PUSH1 0xB PUSH1 0x20 MSTORE PUSH2 0x605 PUSH1 0x40 PUSH0 KECCAK256 PUSH2 0x3341 JUMP JUMPDEST CALLER PUSH0 MSTORE PUSH1 0xC PUSH1 0x20 MSTORE PUSH2 0x619 PUSH1 0x40 PUSH0 KECCAK256 PUSH2 0x3341 JUMP JUMPDEST STOP JUMPDEST CALLVALUE PUSH2 0x1E3 JUMPI PUSH1 0x20 CALLDATASIZE PUSH1 0x3 NOT ADD SLT PUSH2 0x1E3 JUMPI PUSH1 0x1 PUSH1 0x1 PUSH1 0xA0 SHL SUB PUSH2 0x63C PUSH2 0x29D6 JUMP JUMPDEST AND PUSH0 MSTORE PUSH1 0x4 PUSH1 0x20 MSTORE PUSH1 0xA0 PUSH1 0x40 PUSH0 KECCAK256 DUP1 SLOAD SWAP1 PUSH1 0x1 DUP2 ADD SLOAD SWAP1 PUSH2 0xFFFF PUSH1 0x3 PUSH1 0x2 DUP4 ADD SLOAD SWAP3 ADD SLOAD AND SWAP2 PUSH4 0xFFFFFFFF PUSH1 0x40 MLOAD SWAP5 PUSH2 0xFFFF DUP2 AND DUP7 MSTORE PUSH1 0x10 SHR AND PUSH1 0x20 DUP6 ADD MSTORE PUSH1 0x40 DUP5 ADD MSTORE PUSH1 0x60 DUP4 ADD MSTORE PUSH1 0x80 DUP3 ADD MSTORE RETURN JUMPDEST CALLVALUE PUSH2 0x1E3 JUMPI PUSH1 0x20 CALLDATASIZE PUSH1 0x3 NOT ADD SLT PUSH2 0x1E3 JUMPI PUSH1 0x1 PUSH1 0x1 PUSH1 0xA0 SHL SUB PUSH2 0x6AD PUSH2 0x29D6 JUMP JUMPDEST AND PUSH0 MSTORE PUSH1 0x6 PUSH1 0x20 MSTORE PUSH1 0x40 PUSH0 KECCAK256 PUSH1 0x40 MLOAD SWAP1 DUP2 PUSH1 0x20 DUP3 SLOAD SWAP2 DUP3 DUP2 MSTORE ADD SWAP2 PUSH0 MSTORE PUSH1 0x20 PUSH0 KECCAK256 SWAP1 PUSH0 JUMPDEST DUP2 DUP2 LT PUSH2 0x6F4 JUMPI PUSH2 0x3D0 DUP6 PUSH2 0x6E8 DUP2 DUP8 SUB DUP3 PUSH2 0x2C3A JUMP JUMPDEST PUSH1 0x40 MLOAD SWAP2 DUP3 SWAP2 DUP3 PUSH2 0x2B2D JUMP JUMPDEST DUP3 SLOAD DUP5 MSTORE PUSH1 0x20 SWAP1 SWAP4 ADD SWAP3 PUSH1 0x1 SWAP3 DUP4 ADD SWAP3 ADD PUSH2 0x6D1 JUMP JUMPDEST CALLVALUE PUSH2 0x1E3 JUMPI PUSH0 CALLDATASIZE PUSH1 0x3 NOT ADD SLT PUSH2 0x1E3 JUMPI PUSH1 0x12 SLOAD PUSH1 0x40 MLOAD PUSH1 0x1 PUSH1 0x1 PUSH1 0xA0 SHL SUB SWAP1 SWAP2 AND DUP2 MSTORE PUSH1 0x20 SWAP1 RETURN JUMPDEST CALLVALUE PUSH2 0x1E3 JUMPI PUSH1 0x20 CALLDATASIZE PUSH1 0x3 NOT ADD SLT PUSH2 0x1E3 JUMPI PUSH1 0x1 PUSH1 0x1 PUSH1 0xA0 SHL SUB PUSH2 0x753 PUSH2 0x29D6 JUMP JUMPDEST AND PUSH0 MSTORE PUSH1 0xA PUSH1 0x20 MSTORE PUSH1 0x20 PUSH1 0xFF PUSH1 0x40 PUSH0 KECCAK256 SLOAD AND PUSH1 0x40 MLOAD SWAP1 ISZERO ISZERO DUP2 MSTORE RETURN JUMPDEST PUSH1 0x20 CALLDATASIZE PUSH1 0x3 NOT ADD SLT PUSH2 0x1E3 JUMPI PUSH1 0x4 CALLDATALOAD PUSH2 0x786 PUSH2 0x33E2 JUMP JUMPDEST PUSH2 0x78E PUSH2 0x3426 JUMP JUMPDEST PUSH2 0x796 PUSH2 0x347C JUMP JUMPDEST PUSH1 0x3 DUP2 LT ISZERO PUSH2 0xB21 JUMPI CALLER PUSH0 MSTORE PUSH1 0x8 PUSH1 0x20 MSTORE PUSH2 0x7BD PUSH2 0x7B7 DUP3 PUSH1 0x40 PUSH0 KECCAK256 PUSH2 0x29EC JUMP JUMPDEST POP PUSH2 0x31AE JUMP JUMPDEST SWAP1 PUSH1 0x20 DUP3 ADD MLOAD ISZERO DUP1 ISZERO SWAP1 PUSH2 0xB17 JUMPI JUMPDEST ISZERO PUSH2 0xAE5 JUMPI DUP2 MLOAD ISZERO PUSH2 0x91C JUMPI PUSH1 0x11 SLOAD CALLVALUE LT PUSH2 0x8D7 JUMPI PUSH1 0x1 DUP1 PUSH1 0xA0 SHL SUB PUSH1 0x13 SLOAD AND SWAP2 PUSH1 0xFF PUSH2 0x100 DUP3 ADD MLOAD AND PUSH1 0x6 DUP2 LT ISZERO PUSH2 0x8C3 JUMPI PUSH1 0x64 PUSH1 0xFF PUSH2 0x120 PUSH1 0x20 SWAP5 ADD MLOAD AND SWAP2 PUSH0 PUSH1 0x40 MLOAD SWAP7 DUP8 SWAP5 DUP6 SWAP4 PUSH4 0xF925B741 PUSH1 0xE0 SHL DUP6 MSTORE CALLER PUSH1 0x4 DUP7 ADD MSTORE PUSH1 0x24 DUP6 ADD MSTORE PUSH1 0x44 DUP5 ADD MSTORE GAS CALL SWAP2 DUP3 ISZERO PUSH2 0x8B8 JUMPI PUSH0 SWAP3 PUSH2 0x882 JUMPI JUMPDEST POP PUSH2 0x859 PUSH2 0x87C SWAP3 CALLER PUSH0 MSTORE PUSH1 0x6 PUSH1 0x20 MSTORE PUSH1 0x40 PUSH0 KECCAK256 PUSH2 0x2CF0 JUMP JUMPDEST PUSH2 0x876 PUSH2 0x864 PUSH2 0x3597 JUMP JUMPDEST SWAP2 CALLER PUSH0 MSTORE PUSH1 0x8 PUSH1 0x20 MSTORE PUSH1 0x40 PUSH0 KECCAK256 PUSH2 0x29EC JUMP JUMPDEST SWAP1 PUSH2 0x2D24 JUMP JUMPDEST PUSH1 0x1 DUP1 SSTORE STOP JUMPDEST SWAP2 POP PUSH1 0x20 DUP3 RETURNDATASIZE PUSH1 0x20 GT PUSH2 0x8B0 JUMPI JUMPDEST DUP2 PUSH2 0x89D PUSH1 0x20 SWAP4 DUP4 PUSH2 0x2C3A JUMP JUMPDEST DUP2 ADD SUB SLT PUSH2 0x1E3 JUMPI SWAP1 MLOAD SWAP1 PUSH2 0x859 PUSH2 0x840 JUMP JUMPDEST RETURNDATASIZE SWAP2 POP PUSH2 0x890 JUMP JUMPDEST PUSH1 0x40 MLOAD RETURNDATASIZE PUSH0 DUP3 RETURNDATACOPY RETURNDATASIZE SWAP1 REVERT JUMPDEST PUSH4 0x4E487B71 PUSH1 0xE0 SHL PUSH0 MSTORE PUSH1 0x21 PUSH1 0x4 MSTORE PUSH1 0x24 PUSH0 REVERT JUMPDEST PUSH1 0x40 MLOAD PUSH3 0x461BCD PUSH1 0xE5 SHL DUP2 MSTORE PUSH1 0x20 PUSH1 0x4 DUP3 ADD MSTORE PUSH1 0x1E PUSH1 0x24 DUP3 ADD MSTORE PUSH32 0x496E73756666696369656E74207061796D656E7420666F722072656C69630000 PUSH1 0x44 DUP3 ADD MSTORE PUSH1 0x64 SWAP1 REVERT JUMPDEST SWAP1 POP PUSH1 0x10 SLOAD CALLVALUE LT PUSH2 0xAA0 JUMPI PUSH1 0x40 DUP1 MLOAD TIMESTAMP PUSH1 0x20 DUP3 ADD SWAP1 DUP2 MSTORE CALLER PUSH1 0x60 SHL PUSH12 0xFFFFFFFFFFFFFFFFFFFFFFFF NOT AND SWAP3 DUP3 ADD SWAP3 SWAP1 SWAP3 MSTORE PREVRANDAO PUSH1 0x54 DUP3 ADD MSTORE PUSH1 0x74 DUP2 ADD DUP4 SWAP1 MSTORE PUSH2 0x971 DUP2 PUSH1 0x94 DUP2 ADD JUMPDEST SUB PUSH1 0x1F NOT DUP2 ADD DUP4 MSTORE DUP3 PUSH2 0x2C3A JUMP JUMPDEST MLOAD SWAP1 KECCAK256 SWAP1 PUSH1 0xB DUP3 MOD PUSH1 0xA ADD DUP1 PUSH1 0xA GT PUSH2 0xA8C JUMPI PUSH1 0xB DUP4 PUSH1 0x8 SHR MOD PUSH1 0x8 ADD SWAP1 DUP2 PUSH1 0x8 GT PUSH2 0xA8C JUMPI PUSH1 0xB DUP5 PUSH1 0x10 SHR MOD PUSH1 0x9 ADD SWAP4 DUP5 PUSH1 0x9 GT PUSH2 0xA8C JUMPI PUSH1 0xFF PUSH1 0x3 DUP3 PUSH1 0x18 SHR MOD AND PUSH2 0x9C4 PUSH1 0x3 DUP4 PUSH1 0x20 SHR AND SWAP3 PUSH2 0x3575 JUMP JUMPDEST PUSH1 0x12 SLOAD PUSH1 0x1 PUSH1 0x1 PUSH1 0xA0 SHL SUB AND SWAP3 SWAP1 PUSH1 0xFF SWAP1 PUSH2 0x9DE DUP5 PUSH2 0x2C86 JUMP JUMPDEST AND SWAP7 PUSH2 0x9E9 DUP9 PUSH2 0x2C86 JUMP JUMPDEST PUSH1 0x4 DUP3 LT ISZERO PUSH2 0x8C3 JUMPI PUSH1 0x40 MLOAD PUSH4 0xE3BD811 PUSH1 0xE3 SHL DUP2 MSTORE SWAP8 PUSH1 0x20 SWAP7 DUP10 SWAP7 DUP8 SWAP6 PUSH0 SWAP6 DUP8 SWAP6 PUSH2 0xA26 SWAP6 PUSH1 0xFF SWAP2 DUP3 AND SWAP6 DUP3 AND SWAP5 SWAP1 SWAP2 AND SWAP3 CALLER PUSH1 0x4 DUP10 ADD PUSH2 0x2C90 JUMP JUMPDEST SUB SWAP3 GAS CALL SWAP2 DUP3 ISZERO PUSH2 0x8B8 JUMPI PUSH0 SWAP3 PUSH2 0xA56 JUMPI JUMPDEST POP PUSH2 0xA51 PUSH2 0x87C SWAP3 CALLER PUSH0 MSTORE PUSH1 0x5 PUSH1 0x20 MSTORE PUSH1 0x40 PUSH0 KECCAK256 PUSH2 0x2CF0 JUMP JUMPDEST PUSH2 0x859 JUMP JUMPDEST SWAP2 POP PUSH1 0x20 DUP3 RETURNDATASIZE PUSH1 0x20 GT PUSH2 0xA84 JUMPI JUMPDEST DUP2 PUSH2 0xA71 PUSH1 0x20 SWAP4 DUP4 PUSH2 0x2C3A JUMP JUMPDEST DUP2 ADD SUB SLT PUSH2 0x1E3 JUMPI SWAP1 MLOAD SWAP1 PUSH2 0xA51 PUSH2 0xA38 JUMP JUMPDEST RETURNDATASIZE SWAP2 POP PUSH2 0xA64 JUMP JUMPDEST PUSH4 0x4E487B71 PUSH1 0xE0 SHL PUSH0 MSTORE PUSH1 0x11 PUSH1 0x4 MSTORE PUSH1 0x24 PUSH0 REVERT JUMPDEST PUSH1 0x40 MLOAD PUSH3 0x461BCD PUSH1 0xE5 SHL DUP2 MSTORE PUSH1 0x20 PUSH1 0x4 DUP3 ADD MSTORE PUSH1 0x1D PUSH1 0x24 DUP3 ADD MSTORE PUSH32 0x496E73756666696369656E74207061796D656E7420666F7220756E6974000000 PUSH1 0x44 DUP3 ADD MSTORE PUSH1 0x64 SWAP1 REVERT JUMPDEST PUSH1 0x40 MLOAD PUSH3 0x461BCD PUSH1 0xE5 SHL DUP2 MSTORE PUSH1 0x20 PUSH1 0x4 DUP3 ADD MSTORE PUSH1 0xA PUSH1 0x24 DUP3 ADD MSTORE PUSH10 0x115B5C1D1E481CDB1BDD PUSH1 0xB2 SHL PUSH1 0x44 DUP3 ADD MSTORE PUSH1 0x64 SWAP1 REVERT JUMPDEST POP DUP2 MLOAD ISZERO ISZERO PUSH2 0x7CC JUMP JUMPDEST PUSH1 0x40 MLOAD PUSH3 0x461BCD PUSH1 0xE5 SHL DUP2 MSTORE PUSH1 0x20 PUSH1 0x4 DUP3 ADD MSTORE PUSH1 0xC PUSH1 0x24 DUP3 ADD MSTORE PUSH12 0x125B9D985B1A59081CDB1BDD PUSH1 0xA2 SHL PUSH1 0x44 DUP3 ADD MSTORE PUSH1 0x64 SWAP1 REVERT JUMPDEST CALLVALUE PUSH2 0x1E3 JUMPI PUSH1 0x20 CALLDATASIZE PUSH1 0x3 NOT ADD SLT PUSH2 0x1E3 JUMPI PUSH2 0xB6E PUSH2 0x29D6 JUMP JUMPDEST PUSH2 0xB76 PUSH2 0x36DE JUMP JUMPDEST PUSH1 0x13 DUP1 SLOAD PUSH1 0x1 PUSH1 0x1 PUSH1 0xA0 SHL SUB NOT AND PUSH1 0x1 PUSH1 0x1 PUSH1 0xA0 SHL SUB SWAP3 SWAP1 SWAP3 AND SWAP2 SWAP1 SWAP2 OR SWAP1 SSTORE STOP JUMPDEST CALLVALUE PUSH2 0x1E3 JUMPI PUSH1 0x20 CALLDATASIZE PUSH1 0x3 NOT ADD SLT PUSH2 0x1E3 JUMPI PUSH2 0xBB1 PUSH2 0x29D6 JUMP JUMPDEST PUSH1 0x60 SWAP1 DUP2 PUSH1 0x40 MLOAD PUSH2 0xBC2 DUP3 DUP3 PUSH2 0x2C3A JUMP JUMPDEST CALLDATASIZE SWAP1 CALLDATACOPY PUSH1 0x1 PUSH1 0x1 PUSH1 0xA0 SHL SUB AND PUSH0 SWAP1 DUP2 MSTORE PUSH1 0x7 PUSH1 0x20 MSTORE PUSH1 0x40 DUP1 DUP3 KECCAK256 SWAP1 MLOAD SWAP2 DUP3 JUMPDEST PUSH1 0x3 DUP3 LT PUSH2 0xC20 JUMPI POP POP POP PUSH2 0xBF6 DUP3 DUP3 PUSH2 0x2C3A JUMP JUMPDEST PUSH1 0x40 MLOAD SWAP1 PUSH0 DUP3 JUMPDEST PUSH1 0x3 DUP3 LT PUSH2 0xC0A JUMPI POP POP POP RETURN JUMPDEST PUSH1 0x20 DUP1 PUSH1 0x1 SWAP3 DUP6 MLOAD DUP2 MSTORE ADD SWAP4 ADD SWAP2 ADD SWAP1 SWAP2 PUSH2 0xBFD JUMP JUMPDEST PUSH1 0x1 PUSH1 0x20 DUP2 SWAP3 DUP6 SLOAD DUP2 MSTORE ADD SWAP4 ADD SWAP2 ADD SWAP1 SWAP2 PUSH2 0xBE1 JUMP JUMPDEST CALLVALUE PUSH2 0x1E3 JUMPI PUSH1 0x20 CALLDATASIZE PUSH1 0x3 NOT ADD SLT PUSH2 0x1E3 JUMPI PUSH1 0x1 PUSH1 0x1 PUSH1 0xA0 SHL SUB PUSH2 0xC57 PUSH2 0x29D6 JUMP JUMPDEST AND PUSH0 MSTORE PUSH1 0x3 PUSH1 0x20 MSTORE PUSH1 0x20 PUSH1 0xFF PUSH1 0x40 PUSH0 KECCAK256 SLOAD AND PUSH1 0x40 MLOAD SWAP1 ISZERO ISZERO DUP2 MSTORE RETURN JUMPDEST CALLVALUE PUSH2 0x1E3 JUMPI PUSH1 0x60 CALLDATASIZE PUSH1 0x3 NOT ADD SLT PUSH2 0x1E3 JUMPI CALLDATASIZE PUSH1 0x64 GT PUSH2 0x1E3 JUMPI PUSH2 0xC94 PUSH2 0x33E2 JUMP JUMPDEST PUSH2 0xC9C PUSH2 0x347C JUMP JUMPDEST PUSH0 JUMPDEST PUSH1 0x3 DUP2 LT PUSH2 0xD03 JUMPI CALLER PUSH0 MSTORE PUSH1 0x7 PUSH1 0x20 MSTORE PUSH1 0x40 PUSH0 KECCAK256 PUSH1 0x4 PUSH0 JUMPDEST PUSH1 0x3 DUP2 LT PUSH2 0xCEF JUMPI PUSH1 0x40 MLOAD PUSH1 0x60 PUSH1 0x4 DUP3 CALLDATACOPY PUSH32 0x189DCF2B228F6307A1C47F1AB2652FD06A5C537F8533503FD79381A0EF24B279 PUSH1 0x60 CALLER SWAP3 LOG2 STOP JUMPDEST PUSH1 0x1 SWAP1 PUSH1 0x20 DUP4 CALLDATALOAD SWAP4 ADD SWAP3 DUP2 DUP6 ADD SSTORE ADD PUSH2 0xCB6 JUMP JUMPDEST PUSH2 0xD0C DUP2 PUSH2 0x339E JUMP JUMPDEST CALLDATALOAD PUSH2 0xD1A JUMPI JUMPDEST PUSH1 0x1 ADD PUSH2 0xC9E JUMP JUMPDEST PUSH1 0x13 SLOAD PUSH2 0xD5F SWAP2 SWAP1 PUSH1 0x20 SWAP1 PUSH1 0x1 PUSH1 0x1 PUSH1 0xA0 SHL SUB AND PUSH2 0xD37 DUP4 PUSH2 0x339E JUMP JUMPDEST PUSH1 0x40 MLOAD PUSH3 0x7EEAC7 PUSH1 0xE1 SHL DUP2 MSTORE CALLER PUSH1 0x4 DUP3 ADD MSTORE SWAP1 CALLDATALOAD PUSH1 0x24 DUP3 ADD MSTORE SWAP4 DUP5 SWAP2 SWAP1 DUP3 SWAP1 DUP2 SWAP1 PUSH1 0x44 DUP3 ADD SWAP1 JUMP JUMPDEST SUB SWAP2 GAS STATICCALL SWAP2 DUP3 ISZERO PUSH2 0x8B8 JUMPI PUSH0 SWAP3 PUSH2 0xD86 JUMPI JUMPDEST POP PUSH2 0xD7F PUSH1 0x1 SWAP3 ISZERO ISZERO PUSH2 0x329F JUMP JUMPDEST SWAP1 POP PUSH2 0xD12 JUMP JUMPDEST SWAP2 POP PUSH1 0x20 DUP3 RETURNDATASIZE DUP3 GT PUSH2 0xDB3 JUMPI JUMPDEST DUP2 PUSH2 0xDA0 PUSH1 0x20 SWAP4 DUP4 PUSH2 0x2C3A JUMP JUMPDEST DUP2 ADD SUB SLT PUSH2 0x1E3 JUMPI SWAP1 MLOAD SWAP1 PUSH2 0xD7F PUSH2 0xD71 JUMP JUMPDEST RETURNDATASIZE SWAP2 POP PUSH2 0xD93 JUMP JUMPDEST CALLVALUE PUSH2 0x1E3 JUMPI PUSH0 CALLDATASIZE PUSH1 0x3 NOT ADD SLT PUSH2 0x1E3 JUMPI PUSH1 0x20 PUSH1 0xF SLOAD PUSH1 0x40 MLOAD SWAP1 DUP2 MSTORE RETURN JUMPDEST CALLVALUE PUSH2 0x1E3 JUMPI PUSH0 CALLDATASIZE PUSH1 0x3 NOT ADD SLT PUSH2 0x1E3 JUMPI PUSH0 SLOAD PUSH1 0x40 MLOAD PUSH1 0x1 PUSH1 0x1 PUSH1 0xA0 SHL SUB SWAP1 SWAP2 AND DUP2 MSTORE PUSH1 0x20 SWAP1 RETURN JUMPDEST CALLVALUE PUSH2 0x1E3 JUMPI PUSH0 CALLDATASIZE PUSH1 0x3 NOT ADD SLT PUSH2 0x1E3 JUMPI PUSH1 0x20 PUSH1 0x11 SLOAD PUSH1 0x40 MLOAD SWAP1 DUP2 MSTORE RETURN JUMPDEST CALLVALUE PUSH2 0x1E3 JUMPI PUSH0 CALLDATASIZE PUSH1 0x3 NOT ADD SLT PUSH2 0x1E3 JUMPI PUSH2 0xE34 PUSH2 0x36DE JUMP JUMPDEST PUSH2 0xE3C PUSH2 0x33E2 JUMP JUMPDEST PUSH1 0x1 PUSH1 0xFF NOT PUSH1 0x2 SLOAD AND OR PUSH1 0x2 SSTORE PUSH32 0x62E78CEA01BEE320CD4E420270B5EA74000D11B0C9F74754EBDBFC544B05A258 PUSH1 0x20 PUSH1 0x40 MLOAD CALLER DUP2 MSTORE LOG1 STOP JUMPDEST CALLVALUE PUSH2 0x1E3 JUMPI PUSH1 0x20 CALLDATASIZE PUSH1 0x3 NOT ADD SLT PUSH2 0x1E3 JUMPI PUSH2 0xE8E PUSH2 0x29D6 JUMP JUMPDEST PUSH2 0xE96 PUSH2 0x36DE JUMP JUMPDEST PUSH1 0x12 DUP1 SLOAD PUSH1 0x1 PUSH1 0x1 PUSH1 0xA0 SHL SUB NOT AND PUSH1 0x1 PUSH1 0x1 PUSH1 0xA0 SHL SUB SWAP3 SWAP1 SWAP3 AND SWAP2 SWAP1 SWAP2 OR SWAP1 SSTORE STOP JUMPDEST CALLVALUE PUSH2 0x1E3 JUMPI PUSH1 0x40 CALLDATASIZE PUSH1 0x3 NOT ADD SLT PUSH2 0x1E3 JUMPI PUSH2 0xED1 PUSH2 0x29D6 JUMP JUMPDEST PUSH1 0x1 PUSH1 0x1 PUSH1 0xA0 SHL SUB AND PUSH0 SWAP1 DUP2 MSTORE PUSH1 0xC PUSH1 0x20 MSTORE PUSH1 0x40 SWAP1 KECCAK256 DUP1 SLOAD PUSH1 0x24 CALLDATALOAD SWAP1 DUP2 LT ISZERO PUSH2 0x1E3 JUMPI PUSH2 0xF03 PUSH2 0xFFFF SWAP2 PUSH1 0x20 SWAP4 PUSH2 0x2AC7 JUMP JUMPDEST SWAP1 SLOAD SWAP1 PUSH1 0x3 SHL SHR AND PUSH1 0x40 MLOAD SWAP1 DUP2 MSTORE RETURN JUMPDEST CALLVALUE PUSH2 0x1E3 JUMPI PUSH0 CALLDATASIZE PUSH1 0x3 NOT ADD SLT PUSH2 0x1E3 JUMPI PUSH2 0xF2B PUSH2 0x36DE JUMP JUMPDEST PUSH0 DUP1 SLOAD PUSH1 0x1 PUSH1 0x1 PUSH1 0xA0 SHL SUB NOT DUP2 AND DUP3 SSTORE PUSH1 0x1 PUSH1 0x1 PUSH1 0xA0 SHL SUB AND PUSH32 0x8BE0079C531659141344CD1FD0A4F28419497F9722A3DAAFE3B4186F6B6457E0 DUP3 DUP1 LOG3 STOP JUMPDEST CALLVALUE PUSH2 0x1E3 JUMPI PUSH1 0x20 CALLDATASIZE PUSH1 0x3 NOT ADD SLT PUSH2 0x1E3 JUMPI PUSH1 0x1 PUSH1 0x1 PUSH1 0xA0 SHL SUB PUSH2 0xF8B PUSH2 0x29D6 JUMP JUMPDEST AND PUSH0 MSTORE PUSH1 0x5 PUSH1 0x20 MSTORE PUSH1 0x40 PUSH0 KECCAK256 PUSH1 0x40 MLOAD SWAP1 DUP2 PUSH1 0x20 DUP3 SLOAD SWAP2 DUP3 DUP2 MSTORE ADD SWAP2 PUSH0 MSTORE PUSH1 0x20 PUSH0 KECCAK256 SWAP1 PUSH0 JUMPDEST DUP2 DUP2 LT PUSH2 0xFC6 JUMPI PUSH2 0x3D0 DUP6 PUSH2 0x6E8 DUP2 DUP8 SUB DUP3 PUSH2 0x2C3A JUMP JUMPDEST DUP3 SLOAD DUP5 MSTORE PUSH1 0x20 SWAP1 SWAP4 ADD SWAP3 PUSH1 0x1 SWAP3 DUP4 ADD SWAP3 ADD PUSH2 0xFAF JUMP JUMPDEST CALLVALUE PUSH2 0x1E3 JUMPI PUSH0 CALLDATASIZE PUSH1 0x3 NOT ADD SLT PUSH2 0x1E3 JUMPI PUSH1 0x20 PUSH1 0xFF PUSH1 0x2 SLOAD AND PUSH1 0x40 MLOAD SWAP1 ISZERO ISZERO DUP2 MSTORE RETURN JUMPDEST CALLVALUE PUSH2 0x1E3 JUMPI PUSH1 0x40 CALLDATASIZE PUSH1 0x3 NOT ADD SLT PUSH2 0x1E3 JUMPI PUSH1 0x4 CALLDATALOAD PUSH1 0x1 PUSH1 0x1 PUSH1 0x40 SHL SUB DUP2 GT PUSH2 0x1E3 JUMPI PUSH2 0x102E SWAP1 CALLDATASIZE SWAP1 PUSH1 0x4 ADD PUSH2 0x2AFD JUMP JUMPDEST PUSH1 0x24 CALLDATALOAD PUSH1 0x1 PUSH1 0x1 PUSH1 0x40 SHL SUB DUP2 GT PUSH2 0x1E3 JUMPI PUSH2 0x104D SWAP1 CALLDATASIZE SWAP1 PUSH1 0x4 ADD PUSH2 0x2AFD JUMP JUMPDEST SWAP3 SWAP1 PUSH2 0x1057 PUSH2 0x33E2 JUMP JUMPDEST PUSH2 0x105F PUSH2 0x347C JUMP JUMPDEST PUSH1 0x4 DUP4 LT ISZERO DUP1 PUSH2 0x247C JUMPI JUMPDEST ISZERO PUSH2 0x2443 JUMPI PUSH1 0x12 SLOAD PUSH1 0x1 PUSH1 0x1 PUSH1 0xA0 SHL SUB AND PUSH0 JUMPDEST DUP5 DUP2 LT PUSH2 0x236D JUMPI POP POP DUP4 ISZERO SWAP4 DUP5 PUSH2 0x234E JUMPI PUSH2 0x1099 CALLDATASIZE DUP3 DUP5 PUSH2 0x3253 JUMP JUMPDEST SWAP5 ISZERO PUSH2 0x225B JUMPI POP POP PUSH0 JUMPDEST PUSH1 0x3 DUP2 LT PUSH2 0x222B JUMPI POP JUMPDEST PUSH2 0x120 PUSH1 0x40 MLOAD SWAP4 PUSH2 0x10BE DUP3 DUP7 PUSH2 0x2C3A JUMP JUMPDEST PUSH1 0x8 DUP6 MSTORE PUSH1 0x1F NOT DUP3 ADD PUSH0 JUMPDEST DUP2 DUP2 LT PUSH2 0x2214 JUMPI POP POP PUSH1 0x40 DUP1 MLOAD TIMESTAMP PUSH1 0x20 DUP3 ADD SWAP1 DUP2 MSTORE CALLER PUSH1 0x60 SHL PUSH12 0xFFFFFFFFFFFFFFFFFFFFFFFF NOT AND SWAP3 DUP3 ADD SWAP3 SWAP1 SWAP3 MSTORE PREVRANDAO PUSH1 0x54 DUP3 ADD MSTORE NUMBER PUSH1 0x74 DUP3 ADD MSTORE PUSH2 0x1111 DUP2 PUSH1 0x94 DUP2 ADD PUSH2 0x963 JUMP JUMPDEST MLOAD SWAP1 KECCAK256 SWAP1 PUSH0 JUMPDEST PUSH1 0xFF DUP2 AND PUSH1 0x8 DUP2 LT ISZERO PUSH2 0x1262 JUMPI CALLER PUSH0 MSTORE PUSH1 0x4 PUSH1 0x20 MSTORE PUSH1 0x40 PUSH0 KECCAK256 SLOAD PUSH1 0x40 MLOAD PUSH1 0x20 DUP2 ADD SWAP2 DUP7 DUP4 MSTORE PUSH1 0xFF PUSH1 0xF8 SHL DUP6 PUSH1 0xF8 SHL AND PUSH1 0x40 DUP4 ADD MSTORE PUSH2 0xFFFF PUSH1 0xF0 SHL SWAP1 PUSH1 0xF0 SHL AND PUSH1 0x41 DUP3 ADD MSTORE PUSH1 0x23 DUP2 MSTORE PUSH2 0x116A PUSH1 0x43 DUP3 PUSH2 0x2C3A JUMP JUMPDEST MLOAD SWAP1 KECCAK256 SWAP2 PUSH1 0xD DUP4 MOD PUSH1 0x8 ADD SWAP3 DUP4 PUSH1 0x8 GT PUSH2 0xA8C JUMPI PUSH1 0xC DUP2 PUSH1 0x8 SHR MOD PUSH1 0x7 ADD SWAP3 DUP4 PUSH1 0x7 GT PUSH2 0xA8C JUMPI PUSH1 0xB DUP3 PUSH1 0x10 SHR MOD PUSH1 0x8 ADD SWAP5 DUP6 PUSH1 0x8 GT PUSH2 0xA8C JUMPI PUSH1 0xFF PUSH1 0x3 DUP5 PUSH1 0x18 SHR MOD AND SWAP1 PUSH1 0xFF PUSH2 0x11C1 PUSH1 0x3 DUP7 PUSH1 0x20 SHR AND SWAP6 PUSH2 0x3575 JUMP JUMPDEST PUSH2 0x11CA DUP5 PUSH2 0x2C86 JUMP JUMPDEST AND SWAP7 PUSH2 0x11D5 DUP9 PUSH2 0x2C86 JUMP JUMPDEST PUSH1 0x4 DUP6 LT ISZERO PUSH2 0x8C3 JUMPI PUSH1 0xFF PUSH1 0x1 SWAP8 DUP2 DUP1 SWAP11 SWAP5 PUSH2 0x122B PUSH2 0x125A SWAP10 DUP4 SWAP8 PUSH1 0x40 MLOAD SWAP10 PUSH2 0x11FD DUP12 PUSH2 0x2BE6 JUMP JUMPDEST PUSH0 DUP12 MSTORE PUSH0 PUSH1 0x20 DUP13 ADD MSTORE PUSH2 0x120F DUP2 PUSH2 0x2C86 JUMP JUMPDEST PUSH1 0x40 DUP12 ADD MSTORE PUSH2 0x121D DUP2 PUSH2 0x2C86 JUMP JUMPDEST PUSH1 0x60 DUP11 ADD MSTORE PUSH1 0x80 DUP10 ADD PUSH2 0x32FF JUMP JUMPDEST AND PUSH1 0xA0 DUP7 ADD MSTORE AND PUSH1 0xC0 DUP5 ADD MSTORE AND PUSH1 0xE0 DUP3 ADD MSTORE PUSH0 PUSH2 0x100 DUP3 ADD MSTORE PUSH0 DUP10 DUP3 ADD MSTORE PUSH2 0x1253 DUP3 DUP14 PUSH2 0x32EB JUMP JUMPDEST MSTORE DUP11 PUSH2 0x32EB JUMP JUMPDEST POP ADD AND PUSH2 0x1117 JUMP JUMPDEST POP POP DUP4 DUP6 DUP8 SWAP4 PUSH0 JUMPDEST PUSH1 0xFF DUP2 AND SWAP1 PUSH1 0x8 DUP3 LT ISZERO PUSH2 0x1514 JUMPI PUSH2 0x12B0 PUSH2 0x1285 DUP4 DUP10 PUSH2 0x32EB JUMP JUMPDEST MLOAD MLOAD ISZERO ISZERO CALLER PUSH0 MSTORE PUSH1 0x9 PUSH1 0x20 MSTORE PUSH2 0x129E DUP4 PUSH1 0x40 PUSH0 KECCAK256 PUSH2 0x2B75 JUMP JUMPDEST POP SWAP1 PUSH1 0xFF DUP1 NOT DUP4 SLOAD AND SWAP2 ISZERO ISZERO AND OR SWAP1 SSTORE JUMP JUMPDEST PUSH1 0x20 PUSH2 0x12BC DUP4 DUP10 PUSH2 0x32EB JUMP JUMPDEST MLOAD ADD MLOAD CALLER PUSH0 MSTORE PUSH1 0x9 PUSH1 0x20 MSTORE PUSH1 0x1 PUSH2 0x12D6 DUP4 PUSH1 0x40 PUSH0 KECCAK256 PUSH2 0x2B75 JUMP JUMPDEST POP ADD SSTORE PUSH1 0x40 PUSH2 0x12E5 DUP4 DUP10 PUSH2 0x32EB JUMP JUMPDEST MLOAD ADD MLOAD PUSH2 0x12F1 DUP2 PUSH2 0x2C86 JUMP JUMPDEST PUSH2 0x12FA DUP2 PUSH2 0x2C86 JUMP JUMPDEST CALLER PUSH0 MSTORE PUSH1 0x9 PUSH1 0x20 MSTORE PUSH1 0xFF PUSH1 0x2 PUSH2 0x1313 DUP5 PUSH1 0x40 PUSH0 KECCAK256 PUSH2 0x2B75 JUMP JUMPDEST POP ADD SWAP2 AND PUSH1 0xFF NOT DUP3 SLOAD AND OR SWAP1 SSTORE PUSH2 0x1373 PUSH1 0x60 PUSH2 0x132F DUP5 DUP11 PUSH2 0x32EB JUMP JUMPDEST MLOAD ADD MLOAD PUSH2 0x133B DUP2 PUSH2 0x2C86 JUMP JUMPDEST PUSH2 0x1344 DUP2 PUSH2 0x2C86 JUMP JUMPDEST CALLER PUSH0 MSTORE PUSH1 0x9 PUSH1 0x20 MSTORE PUSH1 0x2 PUSH2 0x135B DUP5 PUSH1 0x40 PUSH0 KECCAK256 PUSH2 0x2B75 JUMP JUMPDEST POP ADD SWAP1 PUSH2 0xFF00 DUP3 SLOAD SWAP2 PUSH1 0x8 SHL AND SWAP1 PUSH2 0xFF00 NOT AND OR SWAP1 SSTORE JUMP JUMPDEST PUSH2 0x1389 PUSH1 0x80 PUSH2 0x1382 DUP5 DUP11 PUSH2 0x32EB JUMP JUMPDEST MLOAD ADD PUSH2 0x330B JUMP JUMPDEST SWAP1 PUSH1 0x4 DUP3 LT ISZERO PUSH2 0x8C3 JUMPI PUSH2 0x150D PUSH1 0xFF DUP11 PUSH2 0x14D6 DUP7 PUSH2 0x14D0 DUP5 PUSH2 0x100 DUP16 DUP3 SWAP12 PUSH2 0x1499 SWAP2 PUSH2 0x13E2 PUSH1 0x1 SWAP14 PUSH1 0x2 PUSH2 0x13C8 DUP16 CALLER PUSH0 MSTORE PUSH1 0x9 PUSH1 0x20 MSTORE PUSH1 0x40 PUSH0 KECCAK256 PUSH2 0x2B75 JUMP JUMPDEST POP ADD SWAP1 PUSH3 0xFF0000 DUP3 SLOAD SWAP2 PUSH1 0x10 SHL AND SWAP1 PUSH3 0xFF0000 NOT AND OR SWAP1 SSTORE JUMP JUMPDEST PUSH2 0x142A DUP13 PUSH1 0x2 PUSH2 0x140E DUP9 PUSH1 0xA0 PUSH2 0x13F8 DUP9 DUP9 PUSH2 0x32EB JUMP JUMPDEST MLOAD ADD MLOAD AND SWAP3 CALLER PUSH0 MSTORE PUSH1 0x9 PUSH1 0x20 MSTORE PUSH1 0x40 PUSH0 KECCAK256 PUSH2 0x2B75 JUMP JUMPDEST POP ADD SWAP1 PUSH4 0xFF000000 DUP3 SLOAD SWAP2 PUSH1 0x18 SHL AND SWAP1 PUSH4 0xFF000000 NOT AND OR SWAP1 SSTORE JUMP JUMPDEST PUSH2 0x145E DUP13 PUSH1 0x2 PUSH2 0x1440 DUP9 PUSH1 0xC0 PUSH2 0x13F8 DUP9 DUP9 PUSH2 0x32EB JUMP JUMPDEST POP ADD SWAP1 PUSH5 0xFF00000000 DUP3 SLOAD SWAP2 PUSH1 0x20 SHL AND SWAP1 PUSH5 0xFF00000000 NOT AND OR SWAP1 SSTORE JUMP JUMPDEST PUSH2 0x1494 DUP13 PUSH1 0x2 PUSH2 0x1474 DUP9 PUSH1 0xE0 PUSH2 0x13F8 DUP9 DUP9 PUSH2 0x32EB JUMP JUMPDEST POP ADD SWAP1 PUSH6 0xFF0000000000 DUP3 SLOAD SWAP2 PUSH1 0x28 SHL AND SWAP1 PUSH6 0xFF0000000000 NOT AND OR SWAP1 SSTORE JUMP JUMPDEST PUSH2 0x32EB JUMP JUMPDEST MLOAD ADD MLOAD AND CALLER PUSH0 MSTORE PUSH1 0x9 PUSH1 0x20 MSTORE PUSH1 0x2 PUSH2 0x14B4 DUP10 PUSH1 0x40 PUSH0 KECCAK256 PUSH2 0x2B75 JUMP JUMPDEST POP ADD SWAP1 PUSH1 0xFF PUSH1 0x30 SHL DUP3 SLOAD SWAP2 PUSH1 0x30 SHL AND SWAP1 PUSH1 0xFF PUSH1 0x30 SHL NOT AND OR SWAP1 SSTORE JUMP JUMPDEST DUP13 PUSH2 0x32EB JUMP JUMPDEST MLOAD ADD MLOAD AND CALLER PUSH0 MSTORE PUSH1 0x9 PUSH1 0x20 MSTORE PUSH1 0x2 PUSH2 0x14F1 DUP5 PUSH1 0x40 PUSH0 KECCAK256 PUSH2 0x2B75 JUMP JUMPDEST POP ADD SWAP1 PUSH1 0xFF PUSH1 0x38 SHL DUP3 SLOAD SWAP2 PUSH1 0x38 SHL AND SWAP1 PUSH1 0xFF PUSH1 0x38 SHL NOT AND OR SWAP1 SSTORE JUMP JUMPDEST ADD AND PUSH2 0x126A JUMP JUMPDEST POP POP SWAP3 SWAP1 SWAP4 SWAP2 PUSH1 0x1 DUP1 PUSH1 0xA0 SHL SUB PUSH1 0x12 SLOAD AND SWAP3 PUSH2 0x154E PUSH1 0x1 DUP1 PUSH1 0xA0 SHL SUB PUSH1 0x13 SLOAD AND SWAP3 CALLER PUSH0 MSTORE PUSH1 0x4 PUSH1 0x20 MSTORE PUSH2 0xFFFF PUSH1 0x40 PUSH0 KECCAK256 SLOAD AND SWAP8 CALLDATASIZE SWAP2 PUSH2 0x3253 JUMP JUMPDEST SWAP3 PUSH2 0x1557 PUSH2 0x3735 JUMP JUMPDEST POP PUSH2 0x1562 DUP5 MLOAD PUSH2 0x37F5 JUMP JUMPDEST SWAP6 PUSH0 JUMPDEST DUP6 MLOAD DUP2 LT ISZERO PUSH2 0x1781 JUMPI PUSH2 0x1578 DUP2 DUP8 PUSH2 0x32EB JUMP JUMPDEST MLOAD SWAP1 PUSH1 0x40 MLOAD SWAP2 PUSH4 0xB2ADFDF PUSH1 0xE1 SHL DUP4 MSTORE PUSH1 0x4 DUP4 ADD MSTORE PUSH1 0xC0 DUP3 PUSH1 0x24 DUP2 DUP12 GAS STATICCALL DUP1 ISZERO PUSH2 0x8B8 JUMPI DUP12 SWAP3 PUSH0 SWAP2 PUSH2 0x16CB JUMPI JUMPDEST POP PUSH1 0x20 DUP2 ADD PUSH2 0x15BD DUP2 MLOAD PUSH2 0x15B8 DUP2 PUSH2 0x2C86 JUMP JUMPDEST PUSH2 0x437E JUMP JUMPDEST SWAP2 PUSH2 0x15D1 PUSH1 0x80 DUP3 ADD SWAP4 PUSH1 0xFF DUP6 MLOAD AND SWAP1 PUSH2 0x43C7 JUMP JUMPDEST SWAP1 PUSH1 0xFF DUP1 PUSH1 0x60 DUP4 ADD MLOAD AND SWAP5 MLOAD AND SWAP3 PUSH1 0xA0 DUP3 ADD SWAP7 PUSH1 0xFF DUP9 MLOAD AND SWAP4 PUSH2 0x1617 PUSH2 0x1600 DUP5 MLOAD PUSH2 0x15FB DUP2 PUSH2 0x2C86 JUMP JUMPDEST PUSH2 0x43DB JUMP JUMPDEST SWAP10 PUSH1 0xFF DUP6 MLOAD SWAP2 PUSH2 0x160F DUP4 PUSH2 0x2C86 JUMP JUMPDEST MLOAD AND SWAP1 PUSH2 0x440B JUMP JUMPDEST PUSH1 0x40 DUP6 MLOAD SWAP5 PUSH2 0x1625 DUP7 PUSH2 0x2C86 JUMP JUMPDEST MLOAD SWAP6 PUSH2 0x1630 DUP8 PUSH2 0x2C86 JUMP JUMPDEST ADD MLOAD SWAP6 PUSH1 0x4 DUP8 LT ISZERO PUSH2 0x8C3 JUMPI PUSH1 0x1 SWAP11 PUSH2 0xFFFF PUSH1 0xFF SWAP5 DUP6 SWAP4 PUSH2 0x16AF SWAP12 PUSH1 0x20 PUSH1 0x40 MLOAD SWAP15 DUP16 SWAP1 PUSH2 0x165C DUP3 PUSH2 0x2C1E JUMP JUMPDEST DUP2 MSTORE ADD MSTORE PUSH1 0x40 DUP14 ADD MSTORE AND DUP1 PUSH1 0x60 DUP13 ADD MSTORE PUSH1 0x80 DUP12 ADD MSTORE AND PUSH1 0xA0 DUP10 ADD MSTORE AND PUSH1 0xC0 DUP8 ADD MSTORE PUSH0 PUSH1 0xE0 DUP8 ADD MSTORE PUSH0 PUSH2 0x100 DUP8 ADD MSTORE PUSH2 0x1693 DUP3 PUSH2 0x2C86 JUMP JUMPDEST DUP6 ADD MSTORE PUSH2 0x169F DUP2 PUSH2 0x2C86 JUMP JUMPDEST PUSH2 0x140 DUP5 ADD MSTORE PUSH2 0x160 DUP4 ADD PUSH2 0x32FF JUMP JUMPDEST PUSH2 0x16B9 DUP3 DUP12 PUSH2 0x32EB JUMP JUMPDEST MSTORE PUSH2 0x16C4 DUP2 DUP11 PUSH2 0x32EB JUMP JUMPDEST POP ADD PUSH2 0x1565 JUMP JUMPDEST SWAP3 POP POP PUSH1 0xC0 DUP3 RETURNDATASIZE DUP3 GT PUSH2 0x1779 JUMPI JUMPDEST DUP2 PUSH2 0x16E6 PUSH1 0xC0 SWAP4 DUP4 PUSH2 0x2C3A JUMP JUMPDEST DUP2 ADD SUB SLT PUSH2 0x1E3 JUMPI PUSH1 0x40 MLOAD PUSH1 0xC0 DUP2 ADD DUP2 DUP2 LT PUSH1 0x1 PUSH1 0x1 PUSH1 0x40 SHL SUB DUP3 GT OR PUSH2 0x527 JUMPI PUSH1 0x40 MSTORE DUP3 MLOAD PUSH1 0x3 DUP2 LT ISZERO PUSH2 0x1E3 JUMPI DUP2 MSTORE PUSH1 0x20 DUP4 ADD MLOAD PUSH1 0x3 DUP2 LT ISZERO PUSH2 0x1E3 JUMPI PUSH1 0x20 DUP3 ADD MSTORE PUSH1 0x40 DUP4 ADD MLOAD SWAP3 PUSH1 0x4 DUP5 LT ISZERO PUSH2 0x1E3 JUMPI PUSH1 0xA0 PUSH2 0x176E SWAP2 DUP15 SWAP6 PUSH1 0x40 DUP6 ADD MSTORE PUSH2 0x1752 PUSH1 0x60 DUP3 ADD PUSH2 0x3890 JUMP JUMPDEST PUSH1 0x60 DUP6 ADD MSTORE PUSH2 0x1763 PUSH1 0x80 DUP3 ADD PUSH2 0x3890 JUMP JUMPDEST PUSH1 0x80 DUP6 ADD MSTORE ADD PUSH2 0x3890 JUMP JUMPDEST PUSH1 0xA0 DUP3 ADD MSTORE DUP13 PUSH2 0x15A5 JUMP JUMPDEST RETURNDATASIZE SWAP2 POP PUSH2 0x16D9 JUMP JUMPDEST POP DUP9 SWAP4 DUP8 SWAP3 SWAP4 PUSH2 0x1791 DUP11 DUP6 PUSH2 0x4485 JUMP JUMPDEST PUSH0 SWAP5 JUMPDEST DUP1 MLOAD DUP7 LT ISZERO PUSH2 0x1A86 JUMPI PUSH2 0x17A7 DUP7 DUP3 PUSH2 0x32EB JUMP JUMPDEST MLOAD ISZERO PUSH2 0x1A78 JUMPI PUSH2 0x17B7 DUP7 DUP3 PUSH2 0x32EB JUMP JUMPDEST MLOAD SWAP7 PUSH1 0x40 MLOAD SWAP8 PUSH4 0x68972D59 PUSH1 0xE0 SHL DUP10 MSTORE PUSH1 0x4 DUP10 ADD MSTORE PUSH0 DUP9 PUSH1 0x24 DUP2 DUP8 GAS STATICCALL SWAP8 DUP9 ISZERO PUSH2 0x8B8 JUMPI PUSH0 SWAP9 PUSH2 0x199E JUMPI JUMPDEST POP PUSH0 JUMPDEST DUP7 MLOAD DUP2 LT ISZERO PUSH2 0x1987 JUMPI DUP9 MLOAD PUSH1 0x6 DUP2 LT ISZERO PUSH2 0x8C3 JUMPI PUSH2 0x182C JUMPI PUSH1 0x1 SWAP1 PUSH1 0xFF PUSH1 0x20 DUP12 ADD MLOAD AND PUSH1 0xFF PUSH2 0x1822 PUSH2 0x1817 DUP5 DUP13 PUSH2 0x32EB JUMP JUMPDEST MLOAD SWAP3 DUP3 DUP5 MLOAD AND PUSH2 0x37C2 JUMP JUMPDEST AND SWAP1 MSTORE JUMPDEST ADD PUSH2 0x17E5 JUMP JUMPDEST DUP9 MLOAD PUSH1 0x6 DUP2 LT ISZERO PUSH2 0x8C3 JUMPI PUSH1 0x1 SUB PUSH2 0x186F JUMPI PUSH1 0x1 SWAP1 PUSH1 0xFF PUSH1 0x20 DUP12 ADD MLOAD AND PUSH1 0xFF PUSH2 0x1866 PUSH1 0x20 PUSH2 0x185A DUP6 DUP14 PUSH2 0x32EB JUMP JUMPDEST MLOAD ADD SWAP3 DUP3 DUP5 MLOAD AND PUSH2 0x37C2 JUMP JUMPDEST AND SWAP1 MSTORE JUMPDEST PUSH2 0x1826 JUMP JUMPDEST DUP9 MLOAD PUSH1 0x6 DUP2 LT ISZERO PUSH2 0x8C3 JUMPI PUSH1 0x2 SUB PUSH2 0x189D JUMPI PUSH1 0x1 SWAP1 PUSH1 0xFF PUSH1 0x20 DUP12 ADD MLOAD AND PUSH1 0xFF PUSH2 0x1866 PUSH1 0x40 PUSH2 0x185A DUP6 DUP14 PUSH2 0x32EB JUMP JUMPDEST DUP9 MLOAD PUSH1 0x6 DUP2 LT ISZERO PUSH2 0x8C3 JUMPI PUSH1 0x3 SUB PUSH2 0x1936 JUMPI PUSH2 0xFFFF PUSH1 0x60 PUSH2 0x18BE DUP4 DUP11 PUSH2 0x32EB JUMP JUMPDEST MLOAD ADD MLOAD AND SWAP1 PUSH1 0x3 PUSH1 0xFF PUSH1 0x20 DUP13 ADD MLOAD AND MUL PUSH2 0xFFFF DUP2 AND SWAP1 DUP2 SUB PUSH2 0xA8C JUMPI PUSH1 0x64 ADD SWAP2 PUSH2 0xFFFF DUP4 GT PUSH2 0xA8C JUMPI PUSH2 0xFFFF PUSH2 0x18F8 PUSH1 0x1 SWAP5 PUSH1 0x64 SWAP4 PUSH2 0x43AE JUMP JUMPDEST AND DIV PUSH2 0xFFFF PUSH1 0x60 PUSH2 0x1909 DUP5 DUP13 PUSH2 0x32EB JUMP JUMPDEST MLOAD ADD SWAP2 AND SWAP1 MSTORE PUSH2 0xFFFF PUSH1 0x60 PUSH2 0x191E DUP4 DUP12 PUSH2 0x32EB JUMP JUMPDEST MLOAD ADD MLOAD AND PUSH1 0x80 PUSH2 0x192E DUP4 DUP12 PUSH2 0x32EB JUMP JUMPDEST MLOAD ADD MSTORE PUSH2 0x1826 JUMP JUMPDEST DUP9 MLOAD PUSH1 0x6 DUP2 LT ISZERO PUSH2 0x8C3 JUMPI PUSH1 0x4 SUB PUSH2 0x1964 JUMPI PUSH1 0x1 SWAP1 PUSH1 0xFF PUSH1 0x20 DUP12 ADD MLOAD AND PUSH1 0xFF PUSH2 0x1866 PUSH1 0xA0 PUSH2 0x185A DUP6 DUP14 PUSH2 0x32EB JUMP JUMPDEST DUP9 MLOAD SWAP1 PUSH1 0x6 DUP3 LT ISZERO PUSH2 0x8C3 JUMPI PUSH1 0x5 PUSH1 0x1 SWAP3 SUB PUSH2 0x186A JUMPI DUP2 PUSH1 0xE0 PUSH2 0x192E DUP4 DUP12 PUSH2 0x32EB JUMP JUMPDEST POP SWAP3 SWAP7 POP SWAP3 SWAP1 SWAP5 PUSH1 0x1 SWAP1 JUMPDEST ADD SWAP5 SWAP1 SWAP3 SWAP6 SWAP2 SWAP6 PUSH2 0x1794 JUMP JUMPDEST SWAP1 SWAP8 POP RETURNDATASIZE DUP1 PUSH0 DUP4 RETURNDATACOPY PUSH2 0x19B0 DUP2 DUP4 PUSH2 0x2C3A JUMP JUMPDEST DUP2 ADD SWAP1 PUSH1 0x20 DUP2 DUP4 SUB SLT PUSH2 0x1E3 JUMPI DUP1 MLOAD SWAP1 PUSH1 0x1 PUSH1 0x1 PUSH1 0x40 SHL SUB DUP3 GT PUSH2 0x1E3 JUMPI ADD SWAP1 PUSH1 0x60 DUP3 DUP3 SUB SLT PUSH2 0x1E3 JUMPI PUSH1 0x40 MLOAD SWAP2 PUSH2 0x19E7 DUP4 PUSH2 0x2BCB JUMP JUMPDEST DUP1 MLOAD PUSH1 0x6 DUP2 LT ISZERO PUSH2 0x1E3 JUMPI DUP4 MSTORE PUSH2 0x1A00 PUSH1 0x20 DUP3 ADD PUSH2 0x3890 JUMP JUMPDEST PUSH1 0x20 DUP5 ADD MSTORE PUSH1 0x40 DUP2 ADD MLOAD SWAP1 PUSH1 0x1 PUSH1 0x1 PUSH1 0x40 SHL SUB DUP3 GT PUSH2 0x1E3 JUMPI ADD DUP2 PUSH1 0x1F DUP3 ADD SLT ISZERO PUSH2 0x1E3 JUMPI DUP1 MLOAD SWAP1 PUSH1 0x1 PUSH1 0x1 PUSH1 0x40 SHL SUB DUP3 GT PUSH2 0x527 JUMPI PUSH1 0x40 MLOAD SWAP3 PUSH2 0x1A4E PUSH1 0x1F DUP5 ADD PUSH1 0x1F NOT AND PUSH1 0x20 ADD DUP6 PUSH2 0x2C3A JUMP JUMPDEST DUP3 DUP5 MSTORE PUSH1 0x20 DUP4 DUP4 ADD ADD GT PUSH2 0x1E3 JUMPI DUP2 PUSH0 SWAP3 PUSH1 0x20 DUP1 SWAP4 ADD DUP4 DUP7 ADD MCOPY DUP4 ADD ADD MSTORE PUSH1 0x40 DUP3 ADD MSTORE SWAP7 DUP9 PUSH2 0x17E2 JUMP JUMPDEST SWAP3 SWAP1 SWAP5 PUSH1 0x1 SWAP1 SWAP7 SWAP3 SWAP7 PUSH2 0x1992 JUMP JUMPDEST POP SWAP2 SWAP4 POP POP PUSH2 0x1A95 DUP2 MLOAD PUSH2 0x37F5 JUMP JUMPDEST SWAP2 PUSH0 JUMPDEST DUP3 MLOAD DUP2 LT ISZERO PUSH2 0x1BB4 JUMPI PUSH2 0x1AAB DUP2 DUP5 PUSH2 0x32EB JUMP JUMPDEST MLOAD SWAP1 PUSH1 0x60 DUP3 ADD SWAP2 PUSH2 0x1AC0 DUP4 MLOAD PUSH2 0x15B8 DUP2 PUSH2 0x2C86 JUMP JUMPDEST SWAP1 PUSH2 0x1AD4 PUSH1 0xC0 DUP3 ADD SWAP3 PUSH1 0xFF DUP5 MLOAD AND SWAP1 PUSH2 0x43C7 JUMP JUMPDEST SWAP1 PUSH1 0xFF DUP1 PUSH1 0xA0 DUP4 ADD MLOAD AND SWAP4 MLOAD AND SWAP1 PUSH1 0xE0 DUP2 ADD SWAP6 PUSH1 0xFF DUP8 MLOAD AND PUSH2 0x1B0C PUSH2 0x1AFD DUP4 MLOAD PUSH2 0x15FB DUP2 PUSH2 0x2C86 JUMP JUMPDEST SWAP9 PUSH1 0xFF DUP5 MLOAD SWAP2 PUSH2 0x160F DUP4 PUSH2 0x2C86 JUMP JUMPDEST PUSH1 0x80 PUSH1 0x40 DUP6 ADD MLOAD SWAP4 PUSH2 0x1B1D DUP6 PUSH2 0x2C86 JUMP JUMPDEST MLOAD SWAP5 PUSH2 0x1B28 DUP7 PUSH2 0x2C86 JUMP JUMPDEST ADD MLOAD SWAP5 PUSH1 0x4 DUP7 LT ISZERO PUSH2 0x8C3 JUMPI PUSH1 0x1 SWAP10 PUSH2 0xFFFF PUSH2 0x1B98 SWAP9 PUSH1 0xFF SWAP6 DUP7 SWAP5 PUSH2 0x1B51 SWAP13 PUSH1 0x40 MLOAD SWAP14 DUP15 PUSH2 0x2C1E JUMP JUMPDEST DUP14 MSTORE PUSH1 0x20 DUP14 ADD MSTORE PUSH1 0x40 DUP13 ADD MSTORE AND DUP1 PUSH1 0x60 DUP12 ADD MSTORE PUSH1 0x80 DUP11 ADD MSTORE AND PUSH1 0xA0 DUP9 ADD MSTORE AND PUSH1 0xC0 DUP7 ADD MSTORE PUSH0 PUSH1 0xE0 DUP7 ADD MSTORE PUSH0 PUSH2 0x100 DUP7 ADD MSTORE PUSH2 0x1B8B DUP2 PUSH2 0x2C86 JUMP JUMPDEST DUP12 DUP6 ADD MSTORE PUSH2 0x169F DUP2 PUSH2 0x2C86 JUMP JUMPDEST PUSH2 0x1BA2 DUP3 DUP8 PUSH2 0x32EB JUMP JUMPDEST MSTORE PUSH2 0x1BAD DUP2 DUP7 PUSH2 0x32EB JUMP JUMPDEST POP ADD PUSH2 0x1A98 JUMP JUMPDEST DUP6 DUP5 DUP4 DUP8 PUSH2 0x1BC1 DUP3 PUSH2 0x389E JUMP JUMPDEST PUSH2 0x1BCA DUP4 PUSH2 0x389E JUMP JUMPDEST PUSH2 0x1BD4 DUP3 MLOAD PUSH2 0x3769 JUMP JUMPDEST SWAP4 PUSH2 0x1BDF DUP5 MLOAD PUSH2 0x3769 JUMP JUMPDEST PUSH0 JUMPDEST DUP5 MLOAD DUP2 LT ISZERO PUSH2 0x1C11 JUMPI DUP1 PUSH2 0xFFFF PUSH1 0x80 PUSH2 0x1BFC PUSH1 0x1 SWAP5 DUP10 PUSH2 0x32EB JUMP JUMPDEST MLOAD ADD MLOAD AND PUSH2 0x1C0A DUP3 DUP11 PUSH2 0x32EB JUMP JUMPDEST MSTORE ADD PUSH2 0x1BE1 JUMP JUMPDEST POP DUP5 DUP7 DUP6 PUSH0 JUMPDEST DUP4 MLOAD DUP2 LT ISZERO PUSH2 0x1C47 JUMPI DUP1 PUSH2 0xFFFF PUSH1 0x80 PUSH2 0x1C32 PUSH1 0x1 SWAP5 DUP9 PUSH2 0x32EB JUMP JUMPDEST MLOAD ADD MLOAD AND PUSH2 0x1C40 DUP3 DUP9 PUSH2 0x32EB JUMP JUMPDEST MSTORE ADD PUSH2 0x1C17 JUMP JUMPDEST POP PUSH1 0x40 MLOAD SWAP3 DUP6 SWAP1 DUP8 DUP7 PUSH2 0xF20 PUSH2 0x1C5D DUP2 DUP10 PUSH2 0x2C3A JUMP JUMPDEST PUSH1 0x78 DUP9 MSTORE PUSH1 0x1F NOT ADD PUSH0 JUMPDEST DUP2 DUP2 LT PUSH2 0x21AB JUMPI POP POP PUSH0 SWAP4 PUSH1 0x1 JUMPDEST PUSH1 0xFF DUP2 AND PUSH1 0x12 DUP2 GT PUSH2 0x1D94 JUMPI PUSH2 0x1C8A DUP9 PUSH2 0x39A5 JUMP JUMPDEST ISZERO DUP1 ISZERO PUSH2 0x219B JUMPI JUMPDEST PUSH2 0x1D94 JUMPI PUSH1 0x3 SWAP1 PUSH2 0x1CA2 DUP10 PUSH2 0x39F2 JUMP JUMPDEST PUSH2 0x1CAB DUP8 PUSH2 0x39F2 JUMP JUMPDEST MUL PUSH1 0xFF DUP2 AND SWAP1 DUP2 SUB PUSH2 0xA8C JUMPI DUP5 PUSH1 0x1 SWAP2 SHR AND PUSH1 0x1 ADD PUSH1 0xFF DUP2 GT PUSH2 0xA8C JUMPI PUSH1 0xFF AND PUSH0 JUMPDEST DUP2 PUSH1 0xFF DUP3 AND LT PUSH2 0x1CE8 JUMPI JUMPDEST POP POP PUSH2 0x1CE3 SWAP1 PUSH2 0x37E4 JUMP JUMPDEST PUSH2 0x1C75 JUMP JUMPDEST PUSH1 0x77 DUP9 LT ISZERO PUSH2 0x1D7F JUMPI PUSH2 0x1CFA DUP10 PUSH2 0x39A5 JUMP JUMPDEST ISZERO DUP1 ISZERO PUSH2 0x1D84 JUMPI JUMPDEST PUSH2 0x1D7F JUMPI DUP9 DUP9 DUP13 DUP9 DUP7 DUP12 PUSH2 0x1D16 DUP2 DUP8 PUSH2 0x3A5B JUMP JUMPDEST SWAP2 SWAP1 ISZERO PUSH2 0x1D4F JUMPI PUSH2 0x1D26 SWAP7 PUSH2 0x400D JUMP JUMPDEST PUSH2 0x1D38 JUMPI JUMPDEST PUSH1 0x1 PUSH1 0xFF SWAP2 JUMPDEST ADD AND PUSH2 0x1CCD JUMP JUMPDEST SWAP7 PUSH1 0x1 PUSH2 0x1D46 PUSH1 0xFF SWAP3 PUSH2 0x37D6 JUMP JUMPDEST SWAP9 SWAP2 POP POP PUSH2 0x1D2B JUMP JUMPDEST SWAP6 PUSH2 0x1D59 SWAP7 PUSH2 0x3C34 JUMP JUMPDEST PUSH2 0x1D68 JUMPI JUMPDEST PUSH1 0x1 PUSH1 0xFF SWAP2 PUSH2 0x1D31 JUMP JUMPDEST SWAP7 PUSH1 0x1 PUSH2 0x1D76 PUSH1 0xFF SWAP3 PUSH2 0x37D6 JUMP JUMPDEST SWAP9 SWAP2 POP POP PUSH2 0x1D5E JUMP JUMPDEST PUSH2 0x1CD8 JUMP JUMPDEST POP PUSH2 0x1D8E DUP8 PUSH2 0x39A5 JUMP JUMPDEST ISZERO PUSH2 0x1D02 JUMP JUMPDEST POP POP SWAP7 SWAP4 SWAP3 SWAP1 SWAP5 POP PUSH2 0x1DA6 SWAP2 POP PUSH2 0x39A5 JUMP JUMPDEST ISZERO SWAP2 PUSH2 0x1DB1 DUP3 PUSH2 0x323C JUMP JUMPDEST SWAP6 PUSH2 0x1DBF PUSH1 0x40 MLOAD SWAP8 DUP9 PUSH2 0x2C3A JUMP JUMPDEST DUP3 DUP8 MSTORE PUSH1 0x1F NOT PUSH2 0x1DCE DUP5 PUSH2 0x323C JUMP JUMPDEST ADD SWAP1 PUSH0 JUMPDEST DUP3 DUP2 LT PUSH2 0x2132 JUMPI POP POP POP PUSH0 JUMPDEST DUP3 DUP2 LT PUSH2 0x2108 JUMPI POP POP POP PUSH2 0x1DF0 PUSH2 0x3735 JUMP JUMPDEST SWAP1 DUP2 MSTORE PUSH1 0x20 DUP2 ADD SWAP4 DUP5 MSTORE PUSH1 0x40 DUP2 ADD SWAP3 DUP4 MSTORE PUSH1 0x60 DUP2 ADD SWAP2 DUP3 MSTORE DUP1 MLOAD ISZERO ISZERO PUSH1 0x40 MLOAD PUSH1 0x20 DUP2 ADD SWAP2 CALLER PUSH1 0x60 SHL DUP4 MSTORE TIMESTAMP PUSH1 0x34 DUP4 ADD MSTORE PREVRANDAO PUSH1 0x54 DUP4 ADD MSTORE PUSH1 0xF8 SHL PUSH1 0x74 DUP3 ADD MSTORE PUSH1 0x55 DUP2 MSTORE PUSH2 0x1E3D PUSH1 0x75 DUP3 PUSH2 0x2C3A JUMP JUMPDEST MLOAD SWAP1 KECCAK256 SWAP4 DUP5 PUSH1 0xD SSTORE PUSH2 0x1E69 DUP3 MLOAD ISZERO ISZERO CALLER PUSH0 MSTORE PUSH1 0xA PUSH1 0x20 MSTORE PUSH1 0x40 PUSH0 KECCAK256 SWAP1 PUSH1 0xFF DUP1 NOT DUP4 SLOAD AND SWAP2 ISZERO ISZERO AND OR SWAP1 SSTORE JUMP JUMPDEST CALLER PUSH0 MSTORE PUSH1 0xB PUSH1 0x20 MSTORE PUSH2 0x1E7D PUSH1 0x40 PUSH0 KECCAK256 PUSH2 0x3341 JUMP JUMPDEST PUSH0 JUMPDEST DUP5 MLOAD MLOAD DUP2 LT ISZERO PUSH2 0x1EB7 JUMPI PUSH1 0x1 SWAP1 CALLER PUSH0 MSTORE PUSH1 0xB PUSH1 0x20 MSTORE PUSH2 0x1EB1 PUSH1 0x40 PUSH0 KECCAK256 PUSH2 0xFFFF PUSH2 0x1EA9 DUP5 DUP11 MLOAD PUSH2 0x32EB JUMP JUMPDEST MLOAD AND SWAP1 PUSH2 0x3368 JUMP JUMPDEST ADD PUSH2 0x1E7F JUMP JUMPDEST POP SWAP1 SWAP2 SWAP4 CALLER PUSH0 MSTORE PUSH1 0xC PUSH1 0x20 MSTORE PUSH2 0x1ECF PUSH1 0x40 PUSH0 KECCAK256 PUSH2 0x3341 JUMP JUMPDEST PUSH0 JUMPDEST DUP6 MLOAD MLOAD DUP2 LT ISZERO PUSH2 0x1F01 JUMPI PUSH1 0x1 SWAP1 CALLER PUSH0 MSTORE PUSH1 0xC PUSH1 0x20 MSTORE PUSH2 0x1EFB PUSH1 0x40 PUSH0 KECCAK256 PUSH2 0xFFFF PUSH2 0x1EA9 DUP5 DUP12 MLOAD PUSH2 0x32EB JUMP JUMPDEST ADD PUSH2 0x1ED1 JUMP JUMPDEST POP DUP4 DUP2 PUSH32 0xC5187ED43EF6C494568F3ACE9A84A990FE330816256F8610BA7630DE7FC2A485 DUP8 DUP7 MLOAD ISZERO ISZERO SWAP4 MLOAD SWAP1 MLOAD SWAP4 PUSH2 0x1F5D PUSH2 0x1F4E PUSH1 0x40 MLOAD SWAP4 DUP5 SWAP4 DUP5 MSTORE PUSH1 0x60 PUSH1 0x20 DUP6 ADD MSTORE PUSH1 0x60 DUP5 ADD SWAP1 PUSH2 0x2A13 JUMP JUMPDEST DUP3 DUP2 SUB PUSH1 0x40 DUP5 ADD MSTORE CALLER SWAP7 PUSH2 0x2A13 JUMP JUMPDEST SUB SWAP1 LOG3 PUSH0 JUMPDEST DUP3 MLOAD SWAP1 DUP2 MLOAD DUP2 LT ISZERO PUSH2 0x2028 JUMPI DUP3 PUSH32 0x60620DFBC2D4188642CFFA14579DA13E93400A7369BB90AAC5A983BEEF88F66A PUSH2 0x1F9C DUP4 PUSH1 0x1 SWAP6 PUSH2 0x32EB JUMP JUMPDEST MLOAD PUSH2 0x100 PUSH1 0xFF DUP3 MLOAD AND PUSH1 0x20 DUP1 DUP5 ADD MLOAD ISZERO ISZERO SWAP4 PUSH1 0xFF PUSH1 0x40 DUP3 ADD MLOAD AND SWAP1 PUSH1 0xFF PUSH1 0x60 DUP3 ADD MLOAD AND PUSH2 0xFFFF PUSH1 0x80 DUP4 ADD MLOAD AND SWAP1 DUP7 PUSH2 0xFFFF PUSH1 0xE0 DUP6 ADD MLOAD AND SWAP4 ADD MLOAD SWAP4 PUSH1 0x40 MLOAD SWAP9 DUP10 SWAP8 DUP9 MSTORE DUP7 DUP9 ADD MSTORE PUSH1 0x40 DUP8 ADD MSTORE PUSH1 0x60 DUP7 ADD MSTORE PUSH1 0x80 DUP6 ADD MSTORE PUSH1 0xA0 DUP5 ADD MSTORE PUSH1 0xE0 PUSH1 0xC0 DUP5 ADD MSTORE DUP1 MLOAD SWAP2 DUP3 SWAP2 DUP3 PUSH1 0xE0 DUP7 ADD MSTORE ADD DUP5 DUP5 ADD MCOPY PUSH0 DUP3 DUP3 ADD DUP5 ADD MSTORE PUSH1 0x1F ADD PUSH1 0x1F NOT AND DUP2 ADD SUB ADD SWAP1 LOG2 ADD PUSH2 0x1F62 JUMP JUMPDEST DUP5 MLOAD ISZERO ISZERO CALLER PUSH0 MSTORE PUSH1 0x4 PUSH1 0x20 MSTORE PUSH1 0x40 PUSH0 KECCAK256 SWAP1 DUP1 PUSH0 EQ PUSH2 0x2101 JUMPI PUSH1 0x19 JUMPDEST PUSH1 0xFF PUSH4 0xFFFFFFFF DUP5 SLOAD PUSH1 0x10 SHR AND SWAP2 AND ADD PUSH4 0xFFFFFFFF DUP2 GT PUSH2 0xA8C JUMPI DUP3 SLOAD PUSH6 0xFFFFFFFF0000 NOT AND PUSH1 0x10 SWAP2 SWAP1 SWAP2 SHL PUSH6 0xFFFFFFFF0000 AND OR DUP3 SSTORE ISZERO PUSH2 0x20EC JUMPI PUSH1 0x1 DUP2 ADD PUSH2 0x208D DUP2 SLOAD PUSH2 0x37D6 JUMP JUMPDEST SWAP1 SSTORE JUMPDEST DUP1 SLOAD PUSH2 0xFFFF DUP2 AND SWAP1 PUSH1 0x37 DUP3 MUL PUSH4 0xFFFFFFFF DUP2 AND SWAP1 DUP2 SUB PUSH2 0xA8C JUMPI PUSH1 0x5A ADD PUSH4 0xFFFFFFFF DUP2 GT PUSH2 0xA8C JUMPI PUSH4 0xFFFFFFFF DUP1 SWAP2 AND SWAP2 PUSH1 0x10 SHR AND LT ISZERO PUSH2 0x20CD JUMPI STOP JUMPDEST PUSH2 0xFFFF DUP2 EQ PUSH2 0xA8C JUMPI DUP2 SLOAD PUSH2 0xFFFF NOT AND PUSH1 0x1 SWAP2 SWAP1 SWAP2 ADD PUSH2 0xFFFF AND OR SWAP1 SSTORE STOP JUMPDEST PUSH1 0x2 DUP2 ADD PUSH2 0x20FA DUP2 SLOAD PUSH2 0x37D6 JUMP JUMPDEST SWAP1 SSTORE PUSH2 0x2090 JUMP JUMPDEST PUSH1 0xA PUSH2 0x2043 JUMP JUMPDEST DUP1 PUSH2 0x2115 PUSH1 0x1 SWAP3 DUP5 PUSH2 0x32EB JUMP JUMPDEST MLOAD PUSH2 0x2120 DUP3 DUP11 PUSH2 0x32EB JUMP JUMPDEST MSTORE PUSH2 0x212B DUP2 DUP10 PUSH2 0x32EB JUMP JUMPDEST POP ADD PUSH2 0x1DDE JUMP JUMPDEST PUSH1 0x20 SWAP1 PUSH1 0x40 MLOAD PUSH2 0x2141 DUP2 PUSH2 0x2C02 JUMP JUMPDEST PUSH0 DUP2 MSTORE PUSH0 DUP4 DUP3 ADD MSTORE PUSH0 PUSH1 0x40 DUP3 ADD MSTORE PUSH0 PUSH1 0x60 DUP3 ADD MSTORE PUSH0 PUSH1 0x80 DUP3 ADD MSTORE PUSH0 PUSH1 0xA0 DUP3 ADD MSTORE PUSH0 PUSH1 0xC0 DUP3 ADD MSTORE PUSH0 PUSH1 0xE0 DUP3 ADD MSTORE PUSH1 0x60 PUSH2 0x100 DUP3 ADD MSTORE PUSH0 DUP5 DUP3 ADD MSTORE PUSH0 PUSH2 0x140 DUP3 ADD MSTORE PUSH0 PUSH2 0x160 DUP3 ADD MSTORE PUSH0 PUSH2 0x180 DUP3 ADD MSTORE DUP3 DUP3 DUP13 ADD ADD MSTORE ADD PUSH2 0x1DD2 JUMP JUMPDEST POP PUSH2 0x21A5 DUP7 PUSH2 0x39A5 JUMP JUMPDEST ISZERO PUSH2 0x1C92 JUMP JUMPDEST PUSH1 0x20 SWAP1 PUSH1 0x40 MLOAD PUSH2 0x21BA DUP2 PUSH2 0x2C02 JUMP JUMPDEST PUSH0 DUP2 MSTORE PUSH0 DUP4 DUP3 ADD MSTORE PUSH0 PUSH1 0x40 DUP3 ADD MSTORE PUSH0 PUSH1 0x60 DUP3 ADD MSTORE PUSH0 PUSH1 0x80 DUP3 ADD MSTORE PUSH0 PUSH1 0xA0 DUP3 ADD MSTORE PUSH0 PUSH1 0xC0 DUP3 ADD MSTORE PUSH0 PUSH1 0xE0 DUP3 ADD MSTORE PUSH1 0x60 PUSH2 0x100 DUP3 ADD MSTORE PUSH0 DUP9 DUP3 ADD MSTORE PUSH0 PUSH2 0x140 DUP3 ADD MSTORE PUSH0 PUSH2 0x160 DUP3 ADD MSTORE PUSH0 PUSH2 0x180 DUP3 ADD MSTORE DUP3 DUP3 DUP13 ADD ADD MSTORE ADD PUSH2 0x1C67 JUMP JUMPDEST PUSH1 0x20 SWAP1 PUSH2 0x221F PUSH2 0x3164 JUMP JUMPDEST DUP3 DUP3 DUP11 ADD ADD MSTORE ADD PUSH2 0x10C9 JUMP JUMPDEST PUSH1 0x1 SWAP1 CALLER PUSH0 MSTORE PUSH1 0x7 PUSH1 0x20 MSTORE PUSH2 0x2243 DUP2 PUSH1 0x40 PUSH0 KECCAK256 PUSH2 0x2B66 JUMP JUMPDEST SWAP1 SLOAD SWAP1 PUSH1 0x3 SHL SHR PUSH2 0x2254 DUP3 DUP8 PUSH2 0x32EB JUMP JUMPDEST MSTORE ADD PUSH2 0x10A3 JUMP JUMPDEST SWAP1 SWAP2 SWAP4 POP PUSH1 0x3 DUP2 GT PUSH2 0x2317 JUMPI PUSH0 JUMPDEST DUP2 DUP2 LT PUSH2 0x2283 JUMPI POP SWAP1 PUSH2 0x227D SWAP2 CALLDATASIZE SWAP2 PUSH2 0x3253 JUMP JUMPDEST SWAP2 PUSH2 0x10AD JUMP JUMPDEST PUSH2 0x228E DUP2 DUP4 DUP6 PUSH2 0x322C JUMP JUMPDEST CALLDATALOAD PUSH2 0x229C JUMPI JUMPDEST PUSH1 0x1 ADD PUSH2 0x2269 JUMP JUMPDEST PUSH1 0x13 SLOAD PUSH2 0x22BB SWAP2 SWAP1 PUSH1 0x20 SWAP1 PUSH1 0x1 PUSH1 0x1 PUSH1 0xA0 SHL SUB AND PUSH2 0xD37 DUP4 DUP7 DUP9 PUSH2 0x322C JUMP JUMPDEST SUB SWAP2 GAS STATICCALL SWAP2 DUP3 ISZERO PUSH2 0x8B8 JUMPI PUSH0 SWAP3 PUSH2 0x22E2 JUMPI JUMPDEST POP PUSH2 0x22DB PUSH1 0x1 SWAP3 ISZERO ISZERO PUSH2 0x329F JUMP JUMPDEST SWAP1 POP PUSH2 0x2294 JUMP JUMPDEST SWAP2 POP PUSH1 0x20 DUP3 RETURNDATASIZE DUP3 GT PUSH2 0x230F JUMPI JUMPDEST DUP2 PUSH2 0x22FC PUSH1 0x20 SWAP4 DUP4 PUSH2 0x2C3A JUMP JUMPDEST DUP2 ADD SUB SLT PUSH2 0x1E3 JUMPI SWAP1 MLOAD SWAP1 PUSH2 0x22DB PUSH2 0x22CD JUMP JUMPDEST RETURNDATASIZE SWAP2 POP PUSH2 0x22EF JUMP JUMPDEST PUSH1 0x40 MLOAD PUSH3 0x461BCD PUSH1 0xE5 SHL DUP2 MSTORE PUSH1 0x20 PUSH1 0x4 DUP3 ADD MSTORE PUSH1 0xF PUSH1 0x24 DUP3 ADD MSTORE PUSH15 0x546F6F206D616E792072656C696373 PUSH1 0x88 SHL PUSH1 0x44 DUP3 ADD MSTORE PUSH1 0x64 SWAP1 REVERT JUMPDEST PUSH1 0x40 MLOAD PUSH2 0x235C PUSH1 0x80 DUP3 PUSH2 0x2C3A JUMP JUMPDEST PUSH1 0x3 DUP2 MSTORE PUSH1 0x60 CALLDATASIZE PUSH1 0x20 DUP4 ADD CALLDATACOPY PUSH2 0x1099 JUMP JUMPDEST PUSH2 0x2378 DUP2 DUP7 DUP7 PUSH2 0x322C JUMP JUMPDEST PUSH1 0x40 MLOAD PUSH4 0x31A9108F PUSH1 0xE1 SHL DUP2 MSTORE SWAP1 CALLDATALOAD PUSH1 0x4 DUP3 ADD MSTORE PUSH1 0x20 DUP2 PUSH1 0x24 DUP2 DUP7 GAS STATICCALL SWAP1 DUP2 ISZERO PUSH2 0x8B8 JUMPI PUSH0 SWAP2 PUSH2 0x2402 JUMPI JUMPDEST POP CALLER PUSH1 0x1 PUSH1 0x1 PUSH1 0xA0 SHL SUB SWAP1 SWAP2 AND SUB PUSH2 0x23BD JUMPI PUSH1 0x1 ADD PUSH2 0x107D JUMP JUMPDEST PUSH1 0x40 MLOAD PUSH3 0x461BCD PUSH1 0xE5 SHL DUP2 MSTORE PUSH1 0x20 PUSH1 0x4 DUP3 ADD MSTORE PUSH1 0x18 PUSH1 0x24 DUP3 ADD MSTORE PUSH32 0x596F7520646F206E6F74206F776E207468697320756E69740000000000000000 PUSH1 0x44 DUP3 ADD MSTORE PUSH1 0x64 SWAP1 REVERT JUMPDEST SWAP1 POP PUSH1 0x20 DUP2 RETURNDATASIZE DUP3 GT PUSH2 0x243B JUMPI JUMPDEST DUP2 PUSH2 0x241C PUSH1 0x20 SWAP4 DUP4 PUSH2 0x2C3A JUMP JUMPDEST DUP2 ADD SUB SLT PUSH2 0x1E3 JUMPI MLOAD PUSH1 0x1 PUSH1 0x1 PUSH1 0xA0 SHL SUB DUP2 AND DUP2 SUB PUSH2 0x1E3 JUMPI DUP8 PUSH2 0x23A3 JUMP JUMPDEST RETURNDATASIZE SWAP2 POP PUSH2 0x240F JUMP JUMPDEST PUSH1 0x40 MLOAD PUSH3 0x461BCD PUSH1 0xE5 SHL DUP2 MSTORE PUSH1 0x20 PUSH1 0x4 DUP3 ADD MSTORE PUSH1 0x11 PUSH1 0x24 DUP3 ADD MSTORE PUSH17 0x496E76616C6964207465616D2073697A65 PUSH1 0x78 SHL PUSH1 0x44 DUP3 ADD MSTORE PUSH1 0x64 SWAP1 REVERT JUMPDEST POP PUSH1 0x8 DUP4 GT ISZERO PUSH2 0x106A JUMP JUMPDEST CALLVALUE PUSH2 0x1E3 JUMPI PUSH0 CALLDATASIZE PUSH1 0x3 NOT ADD SLT PUSH2 0x1E3 JUMPI PUSH1 0x20 PUSH1 0xD SLOAD PUSH1 0x40 MLOAD SWAP1 DUP2 MSTORE RETURN JUMPDEST CALLVALUE PUSH2 0x1E3 JUMPI PUSH1 0x40 CALLDATASIZE PUSH1 0x3 NOT ADD SLT PUSH2 0x1E3 JUMPI PUSH2 0x24BD PUSH2 0x29D6 JUMP JUMPDEST PUSH1 0x1 PUSH1 0x1 PUSH1 0xA0 SHL SUB AND PUSH0 SWAP1 DUP2 MSTORE PUSH1 0x5 PUSH1 0x20 MSTORE PUSH1 0x40 SWAP1 KECCAK256 DUP1 SLOAD PUSH1 0x24 CALLDATALOAD SWAP2 SWAP1 DUP3 LT ISZERO PUSH2 0x1E3 JUMPI PUSH1 0x20 SWAP2 PUSH2 0x230 SWAP2 PUSH2 0x2AE8 JUMP JUMPDEST CALLVALUE PUSH2 0x1E3 JUMPI PUSH1 0x40 CALLDATASIZE PUSH1 0x3 NOT ADD SLT PUSH2 0x1E3 JUMPI PUSH2 0x2506 PUSH2 0x29D6 JUMP JUMPDEST PUSH1 0x1 PUSH1 0x1 PUSH1 0xA0 SHL SUB AND PUSH0 SWAP1 DUP2 MSTORE PUSH1 0xB PUSH1 0x20 MSTORE PUSH1 0x40 SWAP1 KECCAK256 DUP1 SLOAD PUSH1 0x24 CALLDATALOAD SWAP1 DUP2 LT ISZERO PUSH2 0x1E3 JUMPI PUSH2 0xF03 PUSH2 0xFFFF SWAP2 PUSH1 0x20 SWAP4 PUSH2 0x2AC7 JUMP JUMPDEST CALLVALUE PUSH2 0x1E3 JUMPI PUSH1 0x20 CALLDATASIZE PUSH1 0x3 NOT ADD SLT PUSH2 0x1E3 JUMPI PUSH2 0x2551 PUSH2 0x29D6 JUMP JUMPDEST PUSH1 0x60 PUSH1 0x40 MLOAD PUSH2 0x2561 PUSH1 0x60 DUP3 PUSH2 0x2C3A JUMP JUMPDEST PUSH0 JUMPDEST DUP3 DUP2 LT PUSH2 0x25E3 JUMPI DUP4 PUSH1 0x1 DUP1 PUSH1 0xA0 SHL SUB AND PUSH0 MSTORE PUSH1 0x8 PUSH1 0x20 MSTORE PUSH1 0x40 PUSH0 KECCAK256 PUSH1 0x40 MLOAD SWAP1 PUSH2 0x258B DUP3 PUSH2 0x2BCB JUMP JUMPDEST PUSH0 DUP3 JUMPDEST PUSH1 0x3 DUP3 LT PUSH2 0x25C5 JUMPI PUSH1 0x40 MLOAD DUP5 PUSH0 DUP3 JUMPDEST PUSH1 0x3 DUP3 LT PUSH2 0x25AB JUMPI PUSH2 0x3C0 DUP5 RETURN JUMPDEST PUSH1 0x20 PUSH2 0x25BA PUSH1 0x1 SWAP3 DUP6 MLOAD PUSH2 0x2A4A JUMP JUMPDEST SWAP4 ADD SWAP2 ADD SWAP1 SWAP2 PUSH2 0x259D JUMP JUMPDEST PUSH1 0x3 PUSH1 0x20 PUSH1 0x1 SWAP3 PUSH2 0x25D5 DUP7 PUSH2 0x31AE JUMP JUMPDEST DUP2 MSTORE ADD SWAP4 ADD SWAP2 ADD SWAP1 SWAP2 PUSH2 0x258E JUMP JUMPDEST PUSH1 0x20 SWAP1 PUSH2 0x25EE PUSH2 0x3164 JUMP JUMPDEST DUP2 DUP5 ADD MSTORE ADD PUSH2 0x2563 JUMP JUMPDEST CALLVALUE PUSH2 0x1E3 JUMPI PUSH0 CALLDATASIZE PUSH1 0x3 NOT ADD SLT PUSH2 0x1E3 JUMPI PUSH2 0x2610 PUSH2 0x36DE JUMP JUMPDEST PUSH1 0x2 SLOAD PUSH1 0xFF DUP2 AND ISZERO PUSH2 0x264F JUMPI PUSH1 0xFF NOT AND PUSH1 0x2 SSTORE PUSH32 0x5DB9EE0A495BF2E6FF9C91A7834C1BA4FDD244A5E8AA4E537BD38AEAE4B073AA PUSH1 0x20 PUSH1 0x40 MLOAD CALLER DUP2 MSTORE LOG1 STOP JUMPDEST PUSH1 0x40 MLOAD PUSH3 0x461BCD PUSH1 0xE5 SHL DUP2 MSTORE PUSH1 0x20 PUSH1 0x4 DUP3 ADD MSTORE PUSH1 0x14 PUSH1 0x24 DUP3 ADD MSTORE PUSH20 0x14185D5CD8589B194E881B9BDD081C185D5CD959 PUSH1 0x62 SHL PUSH1 0x44 DUP3 ADD MSTORE PUSH1 0x64 SWAP1 REVERT JUMPDEST CALLVALUE PUSH2 0x1E3 JUMPI PUSH0 CALLDATASIZE PUSH1 0x3 NOT ADD SLT PUSH2 0x1E3 JUMPI PUSH2 0x26A3 PUSH2 0x36DE JUMP JUMPDEST PUSH2 0x26AB PUSH2 0x3426 JUMP JUMPDEST SELFBALANCE DUP1 ISZERO PUSH2 0x26CE JUMPI PUSH0 DUP1 DUP1 DUP1 SWAP4 PUSH1 0x1 DUP1 PUSH1 0xA0 SHL SUB DUP3 SLOAD AND DUP3 CALL ISZERO PUSH2 0x8B8 JUMPI PUSH1 0x1 DUP1 SSTORE STOP JUMPDEST PUSH1 0x40 MLOAD PUSH3 0x461BCD PUSH1 0xE5 SHL DUP2 MSTORE PUSH1 0x20 PUSH1 0x4 DUP3 ADD MSTORE PUSH1 0x14 PUSH1 0x24 DUP3 ADD MSTORE PUSH20 0x4E6F2066756E647320746F207769746864726177 PUSH1 0x60 SHL PUSH1 0x44 DUP3 ADD MSTORE PUSH1 0x64 SWAP1 REVERT JUMPDEST CALLVALUE PUSH2 0x1E3 JUMPI PUSH0 CALLDATASIZE PUSH1 0x3 NOT ADD SLT PUSH2 0x1E3 JUMPI PUSH1 0x20 PUSH1 0xE SLOAD PUSH1 0x40 MLOAD SWAP1 DUP2 MSTORE RETURN JUMPDEST CALLVALUE PUSH2 0x1E3 JUMPI PUSH1 0x20 CALLDATASIZE PUSH1 0x3 NOT ADD SLT PUSH2 0x1E3 JUMPI PUSH1 0x1 PUSH1 0x1 PUSH1 0xA0 SHL SUB PUSH2 0x2748 PUSH2 0x29D6 JUMP JUMPDEST AND DUP1 PUSH0 MSTORE PUSH1 0xA PUSH1 0x20 MSTORE PUSH1 0xFF PUSH1 0x40 PUSH0 KECCAK256 SLOAD AND DUP2 PUSH0 MSTORE PUSH1 0xB PUSH1 0x20 MSTORE PUSH1 0x40 PUSH0 KECCAK256 SWAP2 PUSH0 MSTORE PUSH1 0xC PUSH1 0x20 MSTORE PUSH1 0x40 PUSH0 KECCAK256 SWAP2 PUSH2 0x27B6 PUSH2 0x278A PUSH2 0x2784 PUSH1 0xD SLOAD SWAP4 PUSH2 0x2E59 JUMP JUMPDEST SWAP5 PUSH2 0x2E59 JUMP JUMPDEST PUSH2 0x27A8 PUSH1 0x40 MLOAD SWAP6 DUP7 SWAP6 ISZERO ISZERO DUP7 MSTORE PUSH1 0x80 PUSH1 0x20 DUP8 ADD MSTORE PUSH1 0x80 DUP7 ADD SWAP1 PUSH2 0x2A13 JUMP JUMPDEST SWAP1 DUP5 DUP3 SUB PUSH1 0x40 DUP7 ADD MSTORE PUSH2 0x2A13 JUMP JUMPDEST SWAP1 PUSH1 0x60 DUP4 ADD MSTORE SUB SWAP1 RETURN JUMPDEST PUSH0 CALLDATASIZE PUSH1 0x3 NOT ADD SLT PUSH2 0x1E3 JUMPI PUSH2 0x27D3 PUSH2 0x33E2 JUMP JUMPDEST PUSH2 0x27DB PUSH2 0x3426 JUMP JUMPDEST PUSH2 0x27E3 PUSH2 0x347C JUMP JUMPDEST PUSH2 0x27F1 PUSH1 0xF SLOAD CALLVALUE LT ISZERO PUSH2 0x2B88 JUMP JUMPDEST PUSH0 JUMPDEST PUSH1 0x3 DUP2 LT PUSH2 0x2801 JUMPI PUSH1 0x1 DUP1 SSTORE STOP JUMPDEST PUSH1 0x1 SWAP1 PUSH2 0x2824 PUSH2 0x280F PUSH2 0x3597 JUMP JUMPDEST CALLER PUSH0 MSTORE PUSH1 0x8 PUSH1 0x20 MSTORE PUSH2 0x876 DUP4 PUSH1 0x40 PUSH0 KECCAK256 PUSH2 0x29EC JUMP JUMPDEST ADD PUSH2 0x27F3 JUMP JUMPDEST PUSH0 CALLDATASIZE PUSH1 0x3 NOT ADD SLT PUSH2 0x1E3 JUMPI PUSH2 0x283D PUSH2 0x33E2 JUMP JUMPDEST PUSH2 0x2845 PUSH2 0x3426 JUMP JUMPDEST PUSH2 0x284D PUSH2 0x347C JUMP JUMPDEST PUSH2 0x285B PUSH1 0xE SLOAD CALLVALUE LT ISZERO PUSH2 0x2B88 JUMP JUMPDEST PUSH1 0x40 MLOAD PUSH1 0x20 DUP2 ADD SWAP1 TIMESTAMP DUP3 MSTORE CALLER PUSH1 0x60 SHL PUSH1 0x40 DUP3 ADD MSTORE PREVRANDAO PUSH1 0x54 DUP3 ADD MSTORE PUSH1 0x54 DUP2 MSTORE PUSH2 0x2884 PUSH1 0x74 DUP3 PUSH2 0x2C3A JUMP JUMPDEST MLOAD SWAP1 KECCAK256 PUSH1 0xB DUP2 MOD PUSH1 0xA ADD DUP1 PUSH1 0xA GT PUSH2 0xA8C JUMPI PUSH1 0xB DUP3 PUSH1 0x8 SHR MOD PUSH1 0x8 ADD SWAP1 DUP2 PUSH1 0x8 GT PUSH2 0xA8C JUMPI PUSH1 0xB DUP4 PUSH1 0x10 SHR MOD PUSH1 0x9 ADD SWAP3 DUP4 PUSH1 0x9 GT PUSH2 0xA8C JUMPI PUSH1 0xFF PUSH1 0x3 DUP3 PUSH1 0x18 SHR MOD AND PUSH2 0x28D6 PUSH1 0x3 DUP4 PUSH1 0x20 SHR AND SWAP3 PUSH2 0x3575 JUMP JUMPDEST PUSH1 0x12 SLOAD PUSH1 0x1 PUSH1 0x1 PUSH1 0xA0 SHL SUB AND SWAP3 SWAP1 PUSH1 0xFF SWAP1 PUSH2 0x28F0 DUP5 PUSH2 0x2C86 JUMP JUMPDEST AND SWAP6 PUSH2 0x28FB DUP8 PUSH2 0x2C86 JUMP JUMPDEST PUSH1 0x4 DUP3 LT ISZERO PUSH2 0x8C3 JUMPI PUSH1 0x40 MLOAD PUSH4 0xE3BD811 PUSH1 0xE3 SHL DUP2 MSTORE SWAP7 PUSH1 0x20 SWAP7 DUP9 SWAP7 DUP8 SWAP6 PUSH0 SWAP6 DUP8 SWAP6 PUSH2 0x2938 SWAP6 PUSH1 0xFF SWAP2 DUP3 AND SWAP6 DUP3 AND SWAP5 SWAP1 SWAP2 AND SWAP3 CALLER PUSH1 0x4 DUP10 ADD PUSH2 0x2C90 JUMP JUMPDEST SUB SWAP3 GAS CALL DUP1 ISZERO PUSH2 0x8B8 JUMPI PUSH0 SWAP1 PUSH2 0x295E JUMPI JUMPDEST PUSH2 0x87C SWAP1 CALLER PUSH0 MSTORE PUSH1 0x5 PUSH1 0x20 MSTORE PUSH1 0x40 PUSH0 KECCAK256 PUSH2 0x2CF0 JUMP JUMPDEST POP PUSH1 0x20 DUP2 RETURNDATASIZE PUSH1 0x20 GT PUSH2 0x298A JUMPI JUMPDEST DUP2 PUSH2 0x2978 PUSH1 0x20 SWAP4 DUP4 PUSH2 0x2C3A JUMP JUMPDEST DUP2 ADD SUB SLT PUSH2 0x1E3 JUMPI PUSH2 0x87C SWAP1 MLOAD PUSH2 0x2949 JUMP JUMPDEST RETURNDATASIZE SWAP2 POP PUSH2 0x296B JUMP JUMPDEST CALLVALUE PUSH2 0x1E3 JUMPI PUSH1 0x40 CALLDATASIZE PUSH1 0x3 NOT ADD SLT PUSH2 0x1E3 JUMPI PUSH2 0x29AB PUSH2 0x29D6 JUMP JUMPDEST PUSH1 0x1 PUSH1 0x1 PUSH1 0xA0 SHL SUB AND PUSH0 SWAP1 DUP2 MSTORE PUSH1 0x8 PUSH1 0x20 MSTORE PUSH1 0x40 SWAP1 KECCAK256 PUSH1 0x24 CALLDATALOAD PUSH1 0x3 DUP2 LT ISZERO PUSH2 0x1E3 JUMPI PUSH2 0x349 SWAP2 PUSH2 0x29EC JUMP JUMPDEST PUSH1 0x4 CALLDATALOAD SWAP1 PUSH1 0x1 PUSH1 0x1 PUSH1 0xA0 SHL SUB DUP3 AND DUP3 SUB PUSH2 0x1E3 JUMPI JUMP JUMPDEST SWAP1 PUSH1 0x3 DUP2 LT ISZERO PUSH2 0x29FF JUMPI PUSH1 0x3 MUL ADD SWAP1 PUSH0 SWAP1 JUMP JUMPDEST PUSH4 0x4E487B71 PUSH1 0xE0 SHL PUSH0 MSTORE PUSH1 0x32 PUSH1 0x4 MSTORE PUSH1 0x24 PUSH0 REVERT JUMPDEST SWAP1 PUSH1 0x20 DUP1 DUP4 MLOAD SWAP3 DUP4 DUP2 MSTORE ADD SWAP3 ADD SWAP1 PUSH0 JUMPDEST DUP2 DUP2 LT PUSH2 0x2A30 JUMPI POP POP POP SWAP1 JUMP JUMPDEST DUP3 MLOAD PUSH2 0xFFFF AND DUP5 MSTORE PUSH1 0x20 SWAP4 DUP5 ADD SWAP4 SWAP1 SWAP3 ADD SWAP2 PUSH1 0x1 ADD PUSH2 0x2A23 JUMP JUMPDEST SWAP1 PUSH1 0xFF PUSH2 0x120 PUSH2 0x140 SWAP4 DUP1 MLOAD ISZERO ISZERO DUP5 MSTORE PUSH1 0x20 DUP2 ADD MLOAD PUSH1 0x20 DUP6 ADD MSTORE DUP3 PUSH1 0x40 DUP3 ADD MLOAD AND PUSH1 0x40 DUP6 ADD MSTORE DUP3 PUSH1 0x60 DUP3 ADD MLOAD AND PUSH1 0x60 DUP6 ADD MSTORE DUP3 PUSH1 0x80 DUP3 ADD MLOAD AND PUSH1 0x80 DUP6 ADD MSTORE DUP3 PUSH1 0xA0 DUP3 ADD MLOAD AND PUSH1 0xA0 DUP6 ADD MSTORE DUP3 PUSH1 0xC0 DUP3 ADD MLOAD AND PUSH1 0xC0 DUP6 ADD MSTORE DUP3 PUSH1 0xE0 DUP3 ADD MLOAD AND PUSH1 0xE0 DUP6 ADD MSTORE DUP3 PUSH2 0x100 DUP3 ADD MLOAD AND PUSH2 0x100 DUP6 ADD MSTORE ADD MLOAD AND PUSH2 0x120 DUP3 ADD MSTORE ADD SWAP1 JUMP JUMPDEST SWAP2 SWAP1 SWAP2 DUP1 SLOAD DUP4 LT ISZERO PUSH2 0x29FF JUMPI PUSH0 MSTORE PUSH1 0x1E PUSH1 0x20 PUSH0 KECCAK256 DUP4 PUSH1 0x4 SHR ADD SWAP3 PUSH1 0x1 SHL AND SWAP1 JUMP JUMPDEST DUP1 SLOAD DUP3 LT ISZERO PUSH2 0x29FF JUMPI PUSH0 MSTORE PUSH1 0x20 PUSH0 KECCAK256 ADD SWAP1 PUSH0 SWAP1 JUMP JUMPDEST SWAP2 DUP2 PUSH1 0x1F DUP5 ADD SLT ISZERO PUSH2 0x1E3 JUMPI DUP3 CALLDATALOAD SWAP2 PUSH1 0x1 PUSH1 0x1 PUSH1 0x40 SHL SUB DUP4 GT PUSH2 0x1E3 JUMPI PUSH1 0x20 DUP1 DUP6 ADD SWAP5 DUP5 PUSH1 0x5 SHL ADD ADD GT PUSH2 0x1E3 JUMPI JUMP JUMPDEST PUSH1 0x20 PUSH1 0x40 DUP2 DUP4 ADD SWAP3 DUP3 DUP2 MSTORE DUP5 MLOAD DUP1 SWAP5 MSTORE ADD SWAP3 ADD SWAP1 PUSH0 JUMPDEST DUP2 DUP2 LT PUSH2 0x2B50 JUMPI POP POP POP SWAP1 JUMP JUMPDEST DUP3 MLOAD DUP5 MSTORE PUSH1 0x20 SWAP4 DUP5 ADD SWAP4 SWAP1 SWAP3 ADD SWAP2 PUSH1 0x1 ADD PUSH2 0x2B43 JUMP JUMPDEST PUSH1 0x3 DUP3 LT ISZERO PUSH2 0x29FF JUMPI ADD SWAP1 PUSH0 SWAP1 JUMP JUMPDEST SWAP1 PUSH1 0x8 DUP2 LT ISZERO PUSH2 0x29FF JUMPI PUSH1 0x3 MUL ADD SWAP1 PUSH0 SWAP1 JUMP JUMPDEST ISZERO PUSH2 0x2B8F JUMPI JUMP JUMPDEST PUSH1 0x40 MLOAD PUSH3 0x461BCD PUSH1 0xE5 SHL DUP2 MSTORE PUSH1 0x20 PUSH1 0x4 DUP3 ADD MSTORE PUSH1 0x14 PUSH1 0x24 DUP3 ADD MSTORE PUSH20 0x125B9CDD59999A58DA595B9D081C185E5B595B9D PUSH1 0x62 SHL PUSH1 0x44 DUP3 ADD MSTORE PUSH1 0x64 SWAP1 REVERT JUMPDEST PUSH1 0x60 DUP2 ADD SWAP1 DUP2 LT PUSH1 0x1 PUSH1 0x1 PUSH1 0x40 SHL SUB DUP3 GT OR PUSH2 0x527 JUMPI PUSH1 0x40 MSTORE JUMP JUMPDEST PUSH2 0x140 DUP2 ADD SWAP1 DUP2 LT PUSH1 0x1 PUSH1 0x1 PUSH1 0x40 SHL SUB DUP3 GT OR PUSH2 0x527 JUMPI PUSH1 0x40 MSTORE JUMP JUMPDEST PUSH2 0x1A0 DUP2 ADD SWAP1 DUP2 LT PUSH1 0x1 PUSH1 0x1 PUSH1 0x40 SHL SUB DUP3 GT OR PUSH2 0x527 JUMPI PUSH1 0x40 MSTORE JUMP JUMPDEST PUSH2 0x180 DUP2 ADD SWAP1 DUP2 LT PUSH1 0x1 PUSH1 0x1 PUSH1 0x40 SHL SUB DUP3 GT OR PUSH2 0x527 JUMPI PUSH1 0x40 MSTORE JUMP JUMPDEST SWAP1 PUSH1 0x1F DUP1 NOT SWAP2 ADD AND DUP2 ADD SWAP1 DUP2 LT PUSH1 0x1 PUSH1 0x1 PUSH1 0x40 SHL SUB DUP3 GT OR PUSH2 0x527 JUMPI PUSH1 0x40 MSTORE JUMP JUMPDEST DUP2 ISZERO PUSH2 0x2C65 JUMPI MOD SWAP1 JUMP JUMPDEST PUSH4 0x4E487B71 PUSH1 0xE0 SHL PUSH0 MSTORE PUSH1 0x12 PUSH1 0x4 MSTORE PUSH1 0x24 PUSH0 REVERT JUMPDEST SWAP2 SWAP1 DUP3 ADD DUP1 SWAP3 GT PUSH2 0xA8C JUMPI JUMP JUMPDEST PUSH1 0x3 GT ISZERO PUSH2 0x8C3 JUMPI JUMP JUMPDEST PUSH1 0x1 PUSH1 0x1 PUSH1 0xA0 SHL SUB SWAP1 SWAP2 AND DUP2 MSTORE PUSH1 0xE0 DUP2 ADD SWAP8 SWAP7 SWAP1 SWAP6 SWAP5 SWAP1 SWAP3 SWAP1 SWAP2 PUSH2 0x2CB3 DUP2 PUSH2 0x2C86 JUMP JUMPDEST PUSH1 0x20 DUP8 ADD MSTORE PUSH2 0x2CC1 DUP2 PUSH2 0x2C86 JUMP JUMPDEST PUSH1 0x40 DUP7 ADD MSTORE PUSH1 0x4 DUP4 LT ISZERO PUSH2 0x8C3 JUMPI PUSH1 0xC0 SWAP4 PUSH1 0xFF DUP1 SWAP5 SWAP3 DUP2 SWAP4 PUSH1 0x60 DUP10 ADD MSTORE AND PUSH1 0x80 DUP8 ADD MSTORE AND PUSH1 0xA0 DUP6 ADD MSTORE AND SWAP2 ADD MSTORE JUMP JUMPDEST DUP1 SLOAD PUSH1 0x1 PUSH1 0x40 SHL DUP2 LT ISZERO PUSH2 0x527 JUMPI PUSH2 0x2D0D SWAP2 PUSH1 0x1 DUP3 ADD DUP2 SSTORE PUSH2 0x2AE8 JUMP JUMPDEST DUP2 SWAP3 SWAP2 SLOAD SWAP1 PUSH1 0x3 SHL SWAP2 DUP3 SHL SWAP2 PUSH0 NOT SWAP1 SHL NOT AND OR SWAP1 SSTORE JUMP JUMPDEST SWAP2 SWAP1 PUSH2 0x2E46 JUMPI PUSH1 0xFF PUSH2 0x120 PUSH1 0x2 PUSH2 0x2E44 SWAP5 PUSH2 0x2D4E DUP6 MLOAD ISZERO ISZERO DUP3 SWAP1 PUSH1 0xFF DUP1 NOT DUP4 SLOAD AND SWAP2 ISZERO ISZERO AND OR SWAP1 SSTORE JUMP JUMPDEST PUSH1 0x20 DUP6 ADD MLOAD PUSH1 0x1 DUP3 ADD SSTORE ADD SWAP3 DUP3 DUP1 PUSH1 0x40 DUP4 ADD MLOAD AND AND DUP4 NOT DUP6 SLOAD AND OR DUP5 SSTORE PUSH2 0x2D8C DUP4 PUSH1 0x60 DUP4 ADD MLOAD AND DUP6 SWAP1 PUSH2 0xFF00 DUP3 SLOAD SWAP2 PUSH1 0x8 SHL AND SWAP1 PUSH2 0xFF00 NOT AND OR SWAP1 SSTORE JUMP JUMPDEST PUSH1 0x80 DUP2 ADD MLOAD DUP5 SLOAD PUSH3 0xFF0000 NOT AND SWAP1 DUP5 AND PUSH1 0x10 SHL PUSH3 0xFF0000 AND OR DUP5 SSTORE PUSH1 0xA0 DUP2 ADD MLOAD DUP5 SLOAD PUSH4 0xFF000000 NOT AND SWAP1 DUP5 AND PUSH1 0x18 SHL PUSH4 0xFF000000 AND OR DUP5 SSTORE PUSH1 0xC0 DUP2 ADD MLOAD DUP5 SLOAD PUSH5 0xFF00000000 NOT AND SWAP1 DUP5 AND PUSH1 0x20 SHL PUSH5 0xFF00000000 AND OR DUP5 SSTORE PUSH1 0xE0 DUP2 ADD MLOAD DUP5 SLOAD PUSH6 0xFF0000000000 NOT AND SWAP1 DUP5 AND PUSH1 0x28 SHL PUSH6 0xFF0000000000 AND OR DUP5 SSTORE PUSH2 0x100 DUP2 ADD MLOAD DUP5 SLOAD PUSH7 0xFF000000000000 NOT AND SWAP1 DUP5 AND PUSH1 0x30 SHL PUSH1 0xFF PUSH1 0x30 SHL AND OR DUP5 SSTORE ADD MLOAD DUP3 SLOAD PUSH8 0xFF00000000000000 NOT AND SWAP2 AND PUSH1 0x38 SHL PUSH1 0xFF PUSH1 0x38 SHL AND OR SWAP1 SSTORE JUMP JUMPDEST JUMP JUMPDEST PUSH4 0x4E487B71 PUSH1 0xE0 SHL PUSH0 MSTORE PUSH0 PUSH1 0x4 MSTORE PUSH1 0x24 PUSH0 REVERT JUMPDEST SWAP1 PUSH1 0x40 MLOAD SWAP2 DUP3 DUP2 SLOAD SWAP2 DUP3 DUP3 MSTORE PUSH1 0x20 DUP3 ADD SWAP1 PUSH0 MSTORE PUSH1 0x20 PUSH0 KECCAK256 SWAP3 PUSH0 SWAP1 JUMPDEST DUP1 PUSH1 0xF DUP4 ADD LT PUSH2 0x307C JUMPI PUSH2 0x2E44 SWAP5 SLOAD SWAP2 DUP2 DUP2 LT PUSH2 0x3067 JUMPI JUMPDEST DUP2 DUP2 LT PUSH2 0x304F JUMPI JUMPDEST DUP2 DUP2 LT PUSH2 0x3038 JUMPI JUMPDEST DUP2 DUP2 LT PUSH2 0x3020 JUMPI JUMPDEST DUP2 DUP2 LT PUSH2 0x3008 JUMPI JUMPDEST DUP2 DUP2 LT PUSH2 0x2FF0 JUMPI JUMPDEST DUP2 DUP2 LT PUSH2 0x2FD8 JUMPI JUMPDEST DUP2 DUP2 LT PUSH2 0x2FC0 JUMPI JUMPDEST DUP2 DUP2 LT PUSH2 0x2FA8 JUMPI JUMPDEST DUP2 DUP2 LT PUSH2 0x2F90 JUMPI JUMPDEST DUP2 DUP2 LT PUSH2 0x2F78 JUMPI JUMPDEST DUP2 DUP2 LT PUSH2 0x2F60 JUMPI JUMPDEST DUP2 DUP2 LT PUSH2 0x2F48 JUMPI JUMPDEST DUP2 DUP2 LT PUSH2 0x2F30 JUMPI JUMPDEST DUP2 DUP2 LT PUSH2 0x2F18 JUMPI JUMPDEST LT PUSH2 0x2F0A JUMPI JUMPDEST POP SUB DUP4 PUSH2 0x2C3A JUMP JUMPDEST PUSH1 0xF0 SHR DUP2 MSTORE PUSH1 0x20 ADD PUSH0 PUSH2 0x2F02 JUMP JUMPDEST SWAP3 PUSH1 0x20 PUSH1 0x1 SWAP2 PUSH2 0xFFFF DUP6 PUSH1 0xE0 SHR AND DUP2 MSTORE ADD SWAP4 ADD PUSH2 0x2EFC JUMP JUMPDEST SWAP3 PUSH1 0x20 PUSH1 0x1 SWAP2 PUSH2 0xFFFF DUP6 PUSH1 0xD0 SHR AND DUP2 MSTORE ADD SWAP4 ADD PUSH2 0x2EF4 JUMP JUMPDEST SWAP3 PUSH1 0x20 PUSH1 0x1 SWAP2 PUSH2 0xFFFF DUP6 PUSH1 0xC0 SHR AND DUP2 MSTORE ADD SWAP4 ADD PUSH2 0x2EEC JUMP JUMPDEST SWAP3 PUSH1 0x20 PUSH1 0x1 SWAP2 PUSH2 0xFFFF DUP6 PUSH1 0xB0 SHR AND DUP2 MSTORE ADD SWAP4 ADD PUSH2 0x2EE4 JUMP JUMPDEST SWAP3 PUSH1 0x20 PUSH1 0x1 SWAP2 PUSH2 0xFFFF DUP6 PUSH1 0xA0 SHR AND DUP2 MSTORE ADD SWAP4 ADD PUSH2 0x2EDC JUMP JUMPDEST SWAP3 PUSH1 0x20 PUSH1 0x1 SWAP2 PUSH2 0xFFFF DUP6 PUSH1 0x90 SHR AND DUP2 MSTORE ADD SWAP4 ADD PUSH2 0x2ED4 JUMP JUMPDEST SWAP3 PUSH1 0x20 PUSH1 0x1 SWAP2 PUSH2 0xFFFF DUP6 PUSH1 0x80 SHR AND DUP2 MSTORE ADD SWAP4 ADD PUSH2 0x2ECC JUMP JUMPDEST SWAP3 PUSH1 0x20 PUSH1 0x1 SWAP2 PUSH2 0xFFFF DUP6 PUSH1 0x70 SHR AND DUP2 MSTORE ADD SWAP4 ADD PUSH2 0x2EC4 JUMP JUMPDEST SWAP3 PUSH1 0x20 PUSH1 0x1 SWAP2 PUSH2 0xFFFF DUP6 PUSH1 0x60 SHR AND DUP2 MSTORE ADD SWAP4 ADD PUSH2 0x2EBC JUMP JUMPDEST SWAP3 PUSH1 0x20 PUSH1 0x1 SWAP2 PUSH2 0xFFFF DUP6 PUSH1 0x50 SHR AND DUP2 MSTORE ADD SWAP4 ADD PUSH2 0x2EB4 JUMP JUMPDEST SWAP3 PUSH1 0x20 PUSH1 0x1 SWAP2 PUSH2 0xFFFF DUP6 PUSH1 0x40 SHR AND DUP2 MSTORE ADD SWAP4 ADD PUSH2 0x2EAC JUMP JUMPDEST SWAP3 PUSH1 0x20 PUSH1 0x1 SWAP2 PUSH2 0xFFFF DUP6 PUSH1 0x30 SHR AND DUP2 MSTORE ADD SWAP4 ADD PUSH2 0x2EA4 JUMP JUMPDEST SWAP3 PUSH1 0x20 PUSH1 0x1 SWAP2 PUSH2 0xFFFF DUP6 DUP4 SHR AND DUP2 MSTORE ADD SWAP4 ADD PUSH2 0x2E9C JUMP JUMPDEST SWAP3 PUSH1 0x20 PUSH1 0x1 SWAP2 PUSH2 0xFFFF DUP6 PUSH1 0x10 SHR AND DUP2 MSTORE ADD SWAP4 ADD PUSH2 0x2E94 JUMP JUMPDEST SWAP3 PUSH1 0x20 PUSH1 0x1 SWAP2 PUSH2 0xFFFF DUP6 AND DUP2 MSTORE ADD SWAP4 ADD PUSH2 0x2E8C JUMP JUMPDEST SWAP2 PUSH1 0x10 SWAP2 SWAP4 POP PUSH2 0x200 PUSH1 0x1 SWAP2 DUP7 SLOAD PUSH2 0xFFFF DUP2 AND DUP3 MSTORE PUSH2 0xFFFF DUP2 DUP7 SHR AND PUSH1 0x20 DUP4 ADD MSTORE PUSH2 0xFFFF DUP2 PUSH1 0x20 SHR AND PUSH1 0x40 DUP4 ADD MSTORE PUSH2 0xFFFF DUP2 PUSH1 0x30 SHR AND PUSH1 0x60 DUP4 ADD MSTORE PUSH2 0xFFFF DUP2 PUSH1 0x40 SHR AND PUSH1 0x80 DUP4 ADD MSTORE PUSH2 0xFFFF DUP2 PUSH1 0x50 SHR AND PUSH1 0xA0 DUP4 ADD MSTORE PUSH2 0xFFFF DUP2 PUSH1 0x60 SHR AND PUSH1 0xC0 DUP4 ADD MSTORE PUSH2 0xFFFF DUP2 PUSH1 0x70 SHR AND PUSH1 0xE0 DUP4 ADD MSTORE PUSH2 0xFFFF DUP2 PUSH1 0x80 SHR AND PUSH2 0x100 DUP4 ADD MSTORE PUSH2 0xFFFF DUP2 PUSH1 0x90 SHR AND PUSH2 0x120 DUP4 ADD MSTORE PUSH2 0xFFFF DUP2 PUSH1 0xA0 SHR AND PUSH2 0x140 DUP4 ADD MSTORE PUSH2 0xFFFF DUP2 PUSH1 0xB0 SHR AND PUSH2 0x160 DUP4 ADD MSTORE PUSH2 0xFFFF DUP2 PUSH1 0xC0 SHR AND PUSH2 0x180 DUP4 ADD MSTORE PUSH2 0xFFFF DUP2 PUSH1 0xD0 SHR AND PUSH2 0x1A0 DUP4 ADD MSTORE PUSH2 0xFFFF DUP2 PUSH1 0xE0 SHR AND PUSH2 0x1C0 DUP4 ADD MSTORE PUSH1 0xF0 SHR PUSH2 0x1E0 DUP3 ADD MSTORE ADD SWAP5 ADD SWAP3 ADD DUP6 SWAP3 SWAP4 SWAP2 PUSH2 0x2E74 JUMP JUMPDEST PUSH1 0x40 MLOAD SWAP1 PUSH2 0x3171 DUP3 PUSH2 0x2BE6 JUMP JUMPDEST PUSH0 PUSH2 0x120 DUP4 DUP3 DUP2 MSTORE DUP3 PUSH1 0x20 DUP3 ADD MSTORE DUP3 PUSH1 0x40 DUP3 ADD MSTORE DUP3 PUSH1 0x60 DUP3 ADD MSTORE DUP3 PUSH1 0x80 DUP3 ADD MSTORE DUP3 PUSH1 0xA0 DUP3 ADD MSTORE DUP3 PUSH1 0xC0 DUP3 ADD MSTORE DUP3 PUSH1 0xE0 DUP3 ADD MSTORE DUP3 PUSH2 0x100 DUP3 ADD MSTORE ADD MSTORE JUMP JUMPDEST SWAP1 PUSH1 0x40 MLOAD PUSH2 0x31BB DUP2 PUSH2 0x2BE6 JUMP JUMPDEST PUSH2 0x120 PUSH1 0xFF PUSH1 0x2 DUP4 SWAP6 DUP3 DUP2 SLOAD AND ISZERO ISZERO DUP6 MSTORE PUSH1 0x1 DUP2 ADD SLOAD PUSH1 0x20 DUP7 ADD MSTORE ADD SLOAD DUP2 DUP2 AND PUSH1 0x40 DUP6 ADD MSTORE DUP2 DUP2 PUSH1 0x8 SHR AND PUSH1 0x60 DUP6 ADD MSTORE DUP2 DUP2 PUSH1 0x10 SHR AND PUSH1 0x80 DUP6 ADD MSTORE DUP2 DUP2 PUSH1 0x18 SHR AND PUSH1 0xA0 DUP6 ADD MSTORE DUP2 DUP2 PUSH1 0x20 SHR AND PUSH1 0xC0 DUP6 ADD MSTORE DUP2 DUP2 PUSH1 0x28 SHR AND PUSH1 0xE0 DUP6 ADD MSTORE DUP2 DUP2 PUSH1 0x30 SHR AND PUSH2 0x100 DUP6 ADD MSTORE PUSH1 0x38 SHR AND SWAP2 ADD MSTORE JUMP JUMPDEST SWAP2 SWAP1 DUP2 LT ISZERO PUSH2 0x29FF JUMPI PUSH1 0x5 SHL ADD SWAP1 JUMP JUMPDEST PUSH1 0x1 PUSH1 0x1 PUSH1 0x40 SHL SUB DUP2 GT PUSH2 0x527 JUMPI PUSH1 0x5 SHL PUSH1 0x20 ADD SWAP1 JUMP JUMPDEST SWAP3 SWAP2 SWAP1 PUSH2 0x325F DUP2 PUSH2 0x323C JUMP JUMPDEST SWAP4 PUSH2 0x326D PUSH1 0x40 MLOAD SWAP6 DUP7 PUSH2 0x2C3A JUMP JUMPDEST PUSH1 0x20 DUP6 DUP4 DUP2 MSTORE ADD SWAP2 PUSH1 0x5 SHL DUP2 ADD SWAP3 DUP4 GT PUSH2 0x1E3 JUMPI SWAP1 JUMPDEST DUP3 DUP3 LT PUSH2 0x328F JUMPI POP POP POP JUMP JUMPDEST DUP2 CALLDATALOAD DUP2 MSTORE PUSH1 0x20 SWAP2 DUP3 ADD SWAP2 ADD PUSH2 0x3283 JUMP JUMPDEST ISZERO PUSH2 0x32A6 JUMPI JUMP JUMPDEST PUSH1 0x40 MLOAD PUSH3 0x461BCD PUSH1 0xE5 SHL DUP2 MSTORE PUSH1 0x20 PUSH1 0x4 DUP3 ADD MSTORE PUSH1 0x19 PUSH1 0x24 DUP3 ADD MSTORE PUSH32 0x596F7520646F206E6F74206F776E20746869732072656C696300000000000000 PUSH1 0x44 DUP3 ADD MSTORE PUSH1 0x64 SWAP1 REVERT JUMPDEST DUP1 MLOAD DUP3 LT ISZERO PUSH2 0x29FF JUMPI PUSH1 0x20 SWAP2 PUSH1 0x5 SHL ADD ADD SWAP1 JUMP JUMPDEST PUSH1 0x4 DUP3 LT ISZERO PUSH2 0x8C3 JUMPI MSTORE JUMP JUMPDEST MLOAD PUSH1 0x4 DUP2 LT ISZERO PUSH2 0x8C3 JUMPI SWAP1 JUMP JUMPDEST DUP2 DUP2 MUL SWAP3 SWAP2 DUP2 ISZERO SWAP2 DUP5 DIV EQ OR ISZERO PUSH2 0xA8C JUMPI JUMP JUMPDEST DUP2 DUP2 LT PUSH2 0x3336 JUMPI POP POP JUMP JUMPDEST PUSH0 DUP2 SSTORE PUSH1 0x1 ADD PUSH2 0x332B JUMP JUMPDEST DUP1 SLOAD PUSH0 DUP3 SSTORE DUP1 PUSH2 0x334F JUMPI POP POP JUMP JUMPDEST PUSH2 0x2E44 SWAP2 PUSH0 MSTORE PUSH1 0xF PUSH1 0x20 PUSH0 KECCAK256 SWAP2 ADD PUSH1 0x4 SHR DUP2 ADD SWAP1 PUSH2 0x332B JUMP JUMPDEST DUP1 SLOAD PUSH1 0x1 PUSH1 0x40 SHL DUP2 LT ISZERO PUSH2 0x527 JUMPI PUSH2 0x3385 SWAP2 PUSH1 0x1 DUP3 ADD DUP2 SSTORE PUSH2 0x2AC7 JUMP JUMPDEST PUSH2 0xFFFF DUP1 DUP4 SWAP5 SWAP4 SLOAD SWAP3 PUSH1 0x3 SHL SWAP4 AND DUP4 SHL SWAP3 SHL NOT AND OR SWAP1 SSTORE JUMP JUMPDEST PUSH1 0x3 DUP2 LT ISZERO PUSH2 0x29FF JUMPI PUSH1 0x5 SHL PUSH1 0x4 ADD SWAP1 JUMP JUMPDEST SWAP1 PUSH1 0x3 DUP2 LT ISZERO PUSH2 0x29FF JUMPI PUSH1 0x5 SHL ADD SWAP1 JUMP JUMPDEST DUP1 SLOAD PUSH0 DUP3 SSTORE DUP1 PUSH2 0x33CF JUMPI POP POP JUMP JUMPDEST PUSH2 0x2E44 SWAP2 PUSH0 MSTORE PUSH1 0x20 PUSH0 KECCAK256 SWAP1 DUP2 ADD SWAP1 PUSH2 0x332B JUMP JUMPDEST PUSH1 0xFF PUSH1 0x2 SLOAD AND PUSH2 0x33EE JUMPI JUMP JUMPDEST PUSH1 0x40 MLOAD PUSH3 0x461BCD PUSH1 0xE5 SHL DUP2 MSTORE PUSH1 0x20 PUSH1 0x4 DUP3 ADD MSTORE PUSH1 0x10 PUSH1 0x24 DUP3 ADD MSTORE PUSH16 0x14185D5CD8589B194E881C185D5CD959 PUSH1 0x82 SHL PUSH1 0x44 DUP3 ADD MSTORE PUSH1 0x64 SWAP1 REVERT JUMPDEST PUSH1 0x2 PUSH1 0x1 SLOAD EQ PUSH2 0x3437 JUMPI PUSH1 0x2 PUSH1 0x1 SSTORE JUMP JUMPDEST PUSH1 0x40 MLOAD PUSH3 0x461BCD PUSH1 0xE5 SHL DUP2 MSTORE PUSH1 0x20 PUSH1 0x4 DUP3 ADD MSTORE PUSH1 0x1F PUSH1 0x24 DUP3 ADD MSTORE PUSH32 0x5265656E7472616E637947756172643A207265656E7472616E742063616C6C00 PUSH1 0x44 DUP3 ADD MSTORE PUSH1 0x64 SWAP1 REVERT JUMPDEST CALLER PUSH0 MSTORE PUSH1 0x3 PUSH1 0x20 MSTORE PUSH1 0xFF PUSH1 0x40 PUSH0 KECCAK256 SLOAD AND ISZERO PUSH2 0x3493 JUMPI JUMP JUMPDEST CALLER PUSH0 MSTORE PUSH1 0x3 PUSH1 0x20 MSTORE PUSH1 0x40 PUSH0 KECCAK256 PUSH1 0x1 PUSH1 0xFF NOT DUP3 SLOAD AND OR SWAP1 SSTORE PUSH1 0x40 MLOAD PUSH1 0xA0 DUP2 ADD DUP2 DUP2 LT PUSH1 0x1 PUSH1 0x1 PUSH1 0x40 SHL SUB DUP3 GT OR PUSH2 0x527 JUMPI PUSH1 0x40 MSTORE PUSH1 0x1 DUP2 MSTORE PUSH2 0xFFFF PUSH1 0x3 DUP2 PUSH1 0x20 DUP5 ADD PUSH0 DUP2 MSTORE PUSH1 0x40 DUP6 ADD PUSH0 DUP2 MSTORE PUSH1 0x60 DUP7 ADD SWAP1 PUSH0 DUP3 MSTORE PUSH2 0x3532 PUSH4 0xFFFFFFFF PUSH1 0x80 DUP10 ADD SWAP5 PUSH1 0x1 DUP7 MSTORE CALLER PUSH0 MSTORE PUSH1 0x4 PUSH1 0x20 MSTORE DUP7 DUP1 PUSH1 0x40 PUSH0 KECCAK256 SWAP12 MLOAD AND AND DUP8 NOT DUP12 SLOAD AND OR DUP11 SSTORE MLOAD AND DUP9 SWAP1 PUSH6 0xFFFFFFFF0000 DUP3 SLOAD SWAP2 PUSH1 0x10 SHL AND SWAP1 PUSH6 0xFFFFFFFF0000 NOT AND OR SWAP1 SSTORE JUMP JUMPDEST MLOAD PUSH1 0x1 DUP8 ADD SSTORE MLOAD PUSH1 0x2 DUP7 ADD SSTORE MLOAD AND SWAP3 ADD SWAP2 AND PUSH2 0xFFFF NOT DUP3 SLOAD AND OR SWAP1 SSTORE CALLER PUSH32 0xF10EC97E920CDE75887622583772C637595A40B1F7777C18E51EA36CD127475C PUSH0 DUP1 LOG2 JUMP JUMPDEST PUSH1 0x64 SWAP1 MOD PUSH1 0x3C DUP2 LT PUSH2 0x3592 JUMPI PUSH1 0x5A GT PUSH2 0x358D JUMPI PUSH1 0x2 SWAP1 JUMP JUMPDEST PUSH1 0x1 SWAP1 JUMP JUMPDEST POP PUSH0 SWAP1 JUMP JUMPDEST PUSH2 0x359F PUSH2 0x3164 JUMP JUMPDEST POP PUSH1 0x40 MLOAD PUSH1 0x20 DUP2 ADD SWAP1 TIMESTAMP DUP3 MSTORE PREVRANDAO PUSH1 0x40 DUP3 ADD MSTORE CALLER PUSH1 0x60 SHL PUSH1 0x60 DUP3 ADD MSTORE PUSH1 0x54 DUP2 MSTORE PUSH2 0x35C9 PUSH1 0x74 DUP3 PUSH2 0x2C3A JUMP JUMPDEST MLOAD SWAP1 KECCAK256 PUSH1 0x28 PUSH1 0x64 DUP3 MOD LT ISZERO PUSH2 0x363D JUMPI PUSH1 0xD DUP2 PUSH1 0x8 SHR MOD PUSH1 0x8 ADD DUP1 PUSH1 0x8 GT PUSH2 0xA8C JUMPI PUSH1 0xFF SWAP1 DUP2 PUSH1 0x6 PUSH1 0x40 MLOAD SWAP5 PUSH2 0x35FD DUP7 PUSH2 0x2BE6 JUMP JUMPDEST PUSH1 0x1 DUP7 MSTORE PUSH0 PUSH1 0x20 DUP8 ADD MSTORE PUSH0 PUSH1 0x40 DUP8 ADD MSTORE PUSH0 PUSH1 0x60 DUP8 ADD MSTORE PUSH0 PUSH1 0x80 DUP8 ADD MSTORE PUSH0 PUSH1 0xA0 DUP8 ADD MSTORE PUSH0 PUSH1 0xC0 DUP8 ADD MSTORE PUSH0 PUSH1 0xE0 DUP8 ADD MSTORE MOD AND PUSH2 0x100 DUP5 ADD MSTORE AND PUSH2 0x120 DUP3 ADD MSTORE SWAP1 JUMP JUMPDEST PUSH2 0x3646 DUP2 PUSH2 0x3575 JUMP JUMPDEST SWAP1 PUSH1 0xB DUP2 PUSH1 0x28 SHR MOD PUSH1 0xA ADD DUP1 PUSH1 0xA GT PUSH2 0xA8C JUMPI PUSH1 0xB DUP3 PUSH1 0x30 SHR MOD PUSH1 0x8 ADD SWAP1 DUP2 PUSH1 0x8 GT PUSH2 0xA8C JUMPI PUSH1 0xB DUP4 PUSH1 0x38 SHR MOD PUSH1 0x9 ADD SWAP2 DUP3 PUSH1 0x9 GT PUSH2 0xA8C JUMPI PUSH1 0xFF DUP1 SWAP5 SWAP3 PUSH1 0x3 DUP3 SWAP5 DUP4 PUSH1 0x40 MLOAD SWAP10 PUSH2 0x3696 DUP12 PUSH2 0x2BE6 JUMP JUMPDEST PUSH0 DUP12 MSTORE PUSH0 PUSH1 0x20 DUP13 ADD MSTORE DUP2 DUP5 DUP5 PUSH1 0x10 SHR MOD AND PUSH1 0x40 DUP13 ADD MSTORE AND PUSH1 0x60 DUP11 ADD MSTORE PUSH1 0x18 SHR AND PUSH1 0x80 DUP9 ADD MSTORE AND PUSH1 0xA0 DUP7 ADD MSTORE AND PUSH1 0xC0 DUP5 ADD MSTORE AND PUSH1 0xE0 DUP3 ADD MSTORE PUSH0 PUSH2 0x100 DUP3 ADD MSTORE PUSH0 PUSH2 0x120 DUP3 ADD MSTORE SWAP1 JUMP JUMPDEST PUSH0 SLOAD PUSH1 0x1 PUSH1 0x1 PUSH1 0xA0 SHL SUB AND CALLER SUB PUSH2 0x36F1 JUMPI JUMP JUMPDEST PUSH1 0x64 PUSH1 0x40 MLOAD PUSH3 0x461BCD PUSH1 0xE5 SHL DUP2 MSTORE PUSH1 0x20 PUSH1 0x4 DUP3 ADD MSTORE PUSH1 0x20 PUSH1 0x24 DUP3 ADD MSTORE PUSH32 0x4F776E61626C653A2063616C6C6572206973206E6F7420746865206F776E6572 PUSH1 0x44 DUP3 ADD MSTORE REVERT JUMPDEST PUSH1 0x40 MLOAD SWAP1 PUSH1 0x80 DUP3 ADD DUP3 DUP2 LT PUSH1 0x1 PUSH1 0x1 PUSH1 0x40 SHL SUB DUP3 GT OR PUSH2 0x527 JUMPI PUSH1 0x40 MSTORE PUSH1 0x60 DUP1 DUP4 PUSH0 DUP2 MSTORE DUP2 PUSH1 0x20 DUP3 ADD MSTORE DUP2 PUSH1 0x40 DUP3 ADD MSTORE ADD MSTORE JUMP JUMPDEST SWAP1 PUSH2 0x3773 DUP3 PUSH2 0x323C JUMP JUMPDEST PUSH2 0x3780 PUSH1 0x40 MLOAD SWAP2 DUP3 PUSH2 0x2C3A JUMP JUMPDEST DUP3 DUP2 MSTORE DUP1 SWAP3 PUSH2 0x3791 PUSH1 0x1F NOT SWAP2 PUSH2 0x323C JUMP JUMPDEST ADD SWAP1 PUSH1 0x20 CALLDATASIZE SWAP2 ADD CALLDATACOPY JUMP JUMPDEST PUSH1 0x2 SHL SWAP1 PUSH2 0x3FC PUSH1 0xFC DUP4 AND SWAP3 AND DUP3 SUB PUSH2 0xA8C JUMPI JUMP JUMPDEST PUSH1 0xFF PUSH1 0x2 SWAP2 AND ADD SWAP1 PUSH1 0xFF DUP3 GT PUSH2 0xA8C JUMPI JUMP JUMPDEST SWAP1 PUSH1 0xFF DUP1 SWAP2 AND SWAP2 AND ADD SWAP1 PUSH1 0xFF DUP3 GT PUSH2 0xA8C JUMPI JUMP JUMPDEST PUSH0 NOT DUP2 EQ PUSH2 0xA8C JUMPI PUSH1 0x1 ADD SWAP1 JUMP JUMPDEST PUSH1 0xFF AND PUSH1 0xFF DUP2 EQ PUSH2 0xA8C JUMPI PUSH1 0x1 ADD SWAP1 JUMP JUMPDEST SWAP1 PUSH2 0x37FF DUP3 PUSH2 0x323C JUMP JUMPDEST PUSH2 0x380C PUSH1 0x40 MLOAD SWAP2 DUP3 PUSH2 0x2C3A JUMP JUMPDEST DUP3 DUP2 MSTORE DUP1 SWAP3 PUSH2 0x381D PUSH1 0x1F NOT SWAP2 PUSH2 0x323C JUMP JUMPDEST ADD SWAP1 PUSH0 JUMPDEST DUP3 DUP2 LT PUSH2 0x382D JUMPI POP POP POP JUMP JUMPDEST PUSH1 0x20 SWAP1 PUSH1 0x40 MLOAD PUSH2 0x383C DUP2 PUSH2 0x2C1E JUMP JUMPDEST PUSH0 DUP2 MSTORE PUSH0 DUP4 DUP3 ADD MSTORE PUSH0 PUSH1 0x40 DUP3 ADD MSTORE PUSH0 PUSH1 0x60 DUP3 ADD MSTORE PUSH0 PUSH1 0x80 DUP3 ADD MSTORE PUSH0 PUSH1 0xA0 DUP3 ADD MSTORE PUSH0 PUSH1 0xC0 DUP3 ADD MSTORE PUSH0 PUSH1 0xE0 DUP3 ADD MSTORE PUSH0 PUSH2 0x100 DUP3 ADD MSTORE PUSH0 PUSH2 0x120 DUP3 ADD MSTORE PUSH0 PUSH2 0x140 DUP3 ADD MSTORE PUSH0 PUSH2 0x160 DUP3 ADD MSTORE DUP3 DUP3 DUP6 ADD ADD MSTORE ADD PUSH2 0x3821 JUMP JUMPDEST MLOAD SWAP1 PUSH1 0xFF DUP3 AND DUP3 SUB PUSH2 0x1E3 JUMPI JUMP JUMPDEST PUSH1 0x40 MLOAD SWAP2 SWAP1 PUSH1 0x60 PUSH2 0x38AF DUP2 DUP6 PUSH2 0x2C3A JUMP JUMPDEST PUSH1 0x60 CALLDATASIZE DUP6 CALLDATACOPY PUSH0 JUMPDEST DUP3 MLOAD DUP2 LT ISZERO PUSH2 0x392E JUMPI DUP1 PUSH2 0xFFFF DUP4 PUSH2 0x38D0 PUSH1 0x1 SWAP5 DUP8 PUSH2 0x32EB JUMP JUMPDEST MLOAD ADD MLOAD AND PUSH2 0x38DF JUMPI JUMPDEST ADD PUSH2 0x38B6 JUMP JUMPDEST PUSH1 0xFF PUSH2 0x120 PUSH2 0x38EE DUP4 DUP8 PUSH2 0x32EB JUMP JUMPDEST MLOAD ADD MLOAD PUSH2 0x38FA DUP2 PUSH2 0x2C86 JUMP JUMPDEST PUSH2 0x3903 DUP2 PUSH2 0x2C86 JUMP JUMPDEST AND PUSH1 0xFF PUSH2 0x3925 PUSH2 0x391E DUP3 PUSH2 0x3917 DUP6 DUP13 PUSH2 0x33B0 JUMP JUMPDEST MLOAD AND PUSH2 0x37E4 JUMP JUMPDEST SWAP3 DUP10 PUSH2 0x33B0 JUMP JUMPDEST SWAP2 AND SWAP1 MSTORE PUSH2 0x38D9 JUMP JUMPDEST POP POP PUSH0 JUMPDEST DUP2 MLOAD DUP2 LT ISZERO PUSH2 0x399F JUMPI DUP1 PUSH1 0x3 PUSH1 0xFF PUSH2 0x396F DUP2 PUSH2 0x120 PUSH2 0x3953 PUSH1 0x1 SWAP8 DUP10 PUSH2 0x32EB JUMP JUMPDEST MLOAD ADD MLOAD PUSH2 0x395F DUP2 PUSH2 0x2C86 JUMP JUMPDEST PUSH2 0x3968 DUP2 PUSH2 0x2C86 JUMP JUMPDEST AND DUP9 PUSH2 0x33B0 JUMP JUMPDEST MLOAD AND LT ISZERO PUSH2 0x397E JUMPI JUMPDEST ADD PUSH2 0x3932 JUMP JUMPDEST PUSH2 0x3988 DUP2 DUP5 PUSH2 0x32EB JUMP JUMPDEST MLOAD PUSH1 0xFF PUSH2 0x3997 DUP2 DUP4 MLOAD AND PUSH2 0x37B0 JUMP JUMPDEST AND SWAP1 MSTORE PUSH2 0x3978 JUMP JUMPDEST POP POP SWAP1 POP JUMP JUMPDEST PUSH0 JUMPDEST DUP2 MLOAD DUP2 LT ISZERO PUSH2 0x39D6 JUMPI PUSH2 0xFFFF PUSH1 0x60 PUSH2 0x39BF DUP4 DUP6 PUSH2 0x32EB JUMP JUMPDEST MLOAD ADD MLOAD AND PUSH2 0x39CF JUMPI PUSH1 0x1 ADD PUSH2 0x39A7 JUMP JUMPDEST POP POP PUSH1 0x1 SWAP1 JUMP JUMPDEST POP POP PUSH0 SWAP1 JUMP JUMPDEST SWAP1 PUSH2 0xFFFF DUP1 SWAP2 AND SWAP2 AND ADD SWAP1 PUSH2 0xFFFF DUP3 GT PUSH2 0xA8C JUMPI JUMP JUMPDEST PUSH0 JUMPDEST DUP2 MLOAD DUP2 LT ISZERO PUSH2 0x3A57 JUMPI DUP1 PUSH2 0xFFFF PUSH1 0x60 PUSH2 0x3A0F PUSH1 0x1 SWAP5 DUP7 PUSH2 0x32EB JUMP JUMPDEST MLOAD ADD MLOAD AND PUSH2 0x3A1E JUMPI JUMPDEST ADD PUSH2 0x39F4 JUMP JUMPDEST PUSH1 0xFF PUSH1 0x40 PUSH2 0x3A2C DUP4 DUP7 PUSH2 0x32EB JUMP JUMPDEST MLOAD ADD MLOAD AND PUSH2 0xFFFF PUSH2 0x3A4F PUSH2 0x100 PUSH2 0x3A43 DUP6 DUP9 PUSH2 0x32EB JUMP JUMPDEST MLOAD ADD SWAP3 DUP3 DUP5 MLOAD AND PUSH2 0x39DC JUMP JUMPDEST AND SWAP1 MSTORE PUSH2 0x3A18 JUMP JUMPDEST POP POP JUMP JUMPDEST SWAP1 PUSH0 SWAP1 PUSH0 PUSH0 SWAP5 PUSH0 SWAP2 PUSH0 JUMPDEST DUP7 MLOAD DUP2 LT ISZERO PUSH2 0x3AEA JUMPI PUSH2 0x3A91 PUSH2 0x3A8A PUSH1 0x60 PUSH2 0x3A80 DUP5 DUP12 PUSH2 0x32EB JUMP JUMPDEST MLOAD ADD MLOAD PUSH2 0xFFFF AND SWAP1 JUMP JUMPDEST PUSH2 0xFFFF AND SWAP1 JUMP JUMPDEST ISZERO ISZERO DUP1 PUSH2 0x3ACB JUMPI JUMPDEST PUSH2 0x3AA6 JUMPI JUMPDEST PUSH1 0x1 ADD PUSH2 0x3A65 JUMP JUMPDEST SWAP7 POP POP SWAP3 POP PUSH2 0x3ABB PUSH2 0x100 PUSH2 0x3A80 DUP8 DUP8 PUSH2 0x32EB JUMP JUMPDEST SWAP3 PUSH1 0x1 DUP1 PUSH1 0xFF DUP9 AND SWAP8 SWAP1 POP PUSH2 0x3A9E JUMP JUMPDEST POP PUSH2 0x3ADC PUSH2 0x100 PUSH2 0x3A80 DUP4 DUP11 PUSH2 0x32EB JUMP JUMPDEST PUSH2 0xFFFF DUP1 DUP9 AND SWAP2 AND GT PUSH2 0x3A99 JUMP JUMPDEST POP SWAP2 SWAP5 SWAP1 SWAP3 SWAP6 PUSH0 JUMPDEST DUP8 MLOAD DUP2 LT ISZERO PUSH2 0x3B68 JUMPI PUSH2 0x3B0D PUSH2 0x3A8A PUSH1 0x60 PUSH2 0x3A80 DUP5 DUP13 PUSH2 0x32EB JUMP JUMPDEST ISZERO ISZERO DUP1 PUSH2 0x3B49 JUMPI JUMPDEST PUSH2 0x3B22 JUMPI JUMPDEST PUSH1 0x1 ADD PUSH2 0x3AF2 JUMP JUMPDEST SWAP6 POP SWAP2 POP SWAP3 POP PUSH2 0x3B38 PUSH2 0x100 PUSH2 0x3A80 DUP7 DUP9 PUSH2 0x32EB JUMP JUMPDEST SWAP3 PUSH0 SWAP2 PUSH1 0x1 PUSH1 0xFF DUP8 AND SWAP7 SWAP1 POP PUSH2 0x3B1A JUMP JUMPDEST POP PUSH2 0x3B5A PUSH2 0x100 PUSH2 0x3A80 DUP4 DUP12 PUSH2 0x32EB JUMP JUMPDEST PUSH2 0xFFFF DUP1 DUP9 AND SWAP2 AND GT PUSH2 0x3B15 JUMP JUMPDEST POP SWAP2 SWAP4 PUSH2 0xFFFF SWAP1 SWAP6 SWAP2 SWAP4 SWAP6 AND ISZERO PUSH2 0x3BBE JUMPI SWAP2 PUSH2 0x100 SWAP2 PUSH0 SWAP4 DUP6 DUP6 EQ PUSH2 0x3BB6 JUMPI POP SWAP6 JUMPDEST DUP5 DUP5 EQ PUSH2 0x3BA7 JUMPI POP PUSH2 0x3BA0 SWAP1 PUSH1 0xFF DUP8 AND SWAP1 PUSH2 0x32EB JUMP JUMPDEST MLOAD ADD MSTORE SWAP2 SWAP1 JUMP JUMPDEST PUSH2 0x3BA0 SWAP2 POP PUSH1 0xFF DUP8 AND SWAP1 PUSH2 0x32EB JUMP JUMPDEST SWAP1 POP SWAP6 PUSH2 0x3B8A JUMP JUMPDEST POP POP PUSH2 0x3BDE SWAP3 SWAP4 SWAP2 POP PUSH2 0x3BD0 DUP2 PUSH2 0x39F2 JUMP JUMPDEST PUSH2 0x3BD9 DUP3 PUSH2 0x39F2 JUMP JUMPDEST PUSH2 0x3A5B JUMP JUMPDEST SWAP1 SWAP2 JUMP JUMPDEST PUSH2 0xFFFF PUSH0 NOT SWAP2 AND ADD SWAP1 PUSH2 0xFFFF DUP3 GT PUSH2 0xA8C JUMPI JUMP JUMPDEST SWAP1 PUSH2 0xFFFF DUP1 SWAP2 AND SWAP2 AND SUB SWAP1 PUSH2 0xFFFF DUP3 GT PUSH2 0xA8C JUMPI JUMP JUMPDEST PUSH1 0x40 MLOAD SWAP1 PUSH2 0x3C1B PUSH1 0x40 DUP4 PUSH2 0x2C3A JUMP JUMPDEST PUSH1 0xA DUP3 MSTORE PUSH10 0x13185CDD0814DD185B99 PUSH1 0xB2 SHL PUSH1 0x20 DUP4 ADD MSTORE JUMP JUMPDEST SWAP6 SWAP2 PUSH1 0xFF SWAP1 SWAP8 SWAP5 SWAP6 SWAP4 SWAP2 SWAP8 AND PUSH2 0xFFFF PUSH1 0x60 PUSH2 0x3C4F DUP4 DUP11 PUSH2 0x32EB JUMP JUMPDEST MLOAD ADD MLOAD AND ISZERO PUSH2 0x4001 JUMPI PUSH0 SWAP6 PUSH0 JUMPDEST DUP10 MLOAD DUP2 LT ISZERO PUSH2 0x3C99 JUMPI PUSH2 0xFFFF PUSH1 0x60 PUSH2 0x3C74 DUP4 DUP14 PUSH2 0x32EB JUMP JUMPDEST MLOAD ADD MLOAD AND PUSH2 0x3C85 JUMPI JUMPDEST PUSH1 0x1 ADD PUSH2 0x3C5C JUMP JUMPDEST SWAP7 PUSH2 0x3C91 PUSH1 0x1 SWAP2 PUSH2 0x37D6 JUMP JUMPDEST SWAP8 SWAP1 POP PUSH2 0x3C7D JUMP JUMPDEST POP SWAP1 SWAP3 SWAP5 SWAP8 SWAP2 SWAP4 SWAP6 SWAP7 DUP8 ISZERO PUSH2 0x3FF5 JUMPI PUSH0 SWAP8 PUSH1 0x1 DUP2 SUB PUSH2 0x3F62 JUMPI POP PUSH0 JUMPDEST DUP4 MLOAD DUP2 LT ISZERO PUSH2 0x3F54 JUMPI PUSH2 0xFFFF PUSH1 0x60 PUSH2 0x3CCD DUP4 DUP8 PUSH2 0x32EB JUMP JUMPDEST MLOAD ADD MLOAD AND PUSH2 0x3CDD JUMPI PUSH1 0x1 ADD PUSH2 0x3CB5 JUMP JUMPDEST SWAP1 SWAP2 SWAP3 SWAP4 SWAP5 SWAP6 SWAP7 SWAP8 POP SWAP2 JUMPDEST PUSH2 0xFFFF PUSH1 0x60 PUSH2 0x3CF7 DUP6 DUP8 PUSH2 0x32EB JUMP JUMPDEST MLOAD ADD MLOAD AND SWAP1 PUSH1 0xFF PUSH2 0x3D08 DUP8 DUP6 PUSH2 0x32EB JUMP JUMPDEST MLOAD MLOAD AND PUSH1 0xFF PUSH1 0x20 PUSH2 0x3D19 DUP8 DUP10 PUSH2 0x32EB JUMP JUMPDEST MLOAD ADD MLOAD AND PUSH1 0xFF PUSH1 0xA0 PUSH2 0x3D2B DUP11 DUP9 PUSH2 0x32EB JUMP JUMPDEST MLOAD ADD MLOAD AND PUSH1 0xFF PUSH1 0xC0 PUSH2 0x3D3D DUP10 DUP12 PUSH2 0x32EB JUMP JUMPDEST MLOAD ADD MLOAD AND SWAP2 PUSH1 0x3 DUP13 MUL SWAP5 DUP13 DUP7 DIV PUSH1 0x3 EQ DUP14 ISZERO OR ISZERO PUSH2 0xA8C JUMPI PUSH2 0x3D60 SWAP6 SHR SWAP4 PUSH2 0x458B JUMP JUMPDEST SWAP1 DUP1 PUSH2 0xFFFF DUP1 PUSH1 0x60 PUSH2 0x3D72 DUP10 DUP12 PUSH2 0x32EB JUMP JUMPDEST MLOAD ADD MLOAD AND SWAP2 AND GT PUSH2 0x3F3B JUMPI JUMPDEST PUSH0 PUSH1 0xE0 PUSH2 0x3D8B DUP8 DUP10 PUSH2 0x32EB JUMP JUMPDEST MLOAD ADD MLOAD ISZERO ISZERO DUP1 PUSH2 0x3F1B JUMPI JUMPDEST ISZERO PUSH2 0x3EF1 JUMPI POP POP POP PUSH2 0x3DB9 PUSH2 0xFFFF PUSH1 0x60 PUSH2 0x3DB0 DUP7 DUP9 PUSH2 0x32EB JUMP JUMPDEST MLOAD ADD MLOAD AND PUSH2 0x3BE2 JUMP JUMPDEST PUSH1 0x1 PUSH1 0x60 PUSH2 0x3DC7 DUP7 DUP9 PUSH2 0x32EB JUMP JUMPDEST MLOAD ADD MSTORE PUSH1 0x1 SWAP2 PUSH2 0x3DD5 PUSH2 0x3C0C JUMP JUMPDEST SWAP3 JUMPDEST PUSH2 0x3EE1 JUMPI JUMPDEST PUSH2 0xFFFF PUSH1 0x60 PUSH2 0x3DEB DUP8 DUP10 PUSH2 0x32EB JUMP JUMPDEST MLOAD ADD MLOAD AND SWAP2 PUSH2 0x160 PUSH2 0x3E1A DUP10 PUSH2 0x140 PUSH2 0x3E04 DUP3 DUP11 PUSH2 0x32EB JUMP JUMPDEST MLOAD ADD MLOAD SWAP8 PUSH2 0x3E11 DUP10 PUSH2 0x2C86 JUMP JUMPDEST PUSH2 0x1494 DUP10 PUSH2 0x2C86 JUMP JUMPDEST MLOAD ADD MLOAD SWAP6 PUSH1 0x4 DUP8 LT ISZERO PUSH2 0x8C3 JUMPI PUSH2 0x3E54 PUSH2 0x160 PUSH2 0x1382 DUP4 PUSH2 0x140 PUSH2 0x3E3E DUP3 DUP15 PUSH2 0x32EB JUMP JUMPDEST MLOAD ADD MLOAD SWAP12 PUSH2 0x3E4B DUP14 PUSH2 0x2C86 JUMP JUMPDEST PUSH2 0x1494 DUP14 PUSH2 0x2C86 JUMP JUMPDEST SWAP9 PUSH1 0x4 DUP11 LT ISZERO PUSH2 0x8C3 JUMPI PUSH1 0x40 MLOAD SWAP11 PUSH2 0x3E6B DUP13 PUSH2 0x2C02 JUMP JUMPDEST PUSH1 0xFF AND DUP12 MSTORE PUSH1 0x20 DUP12 ADD PUSH0 SWAP1 MSTORE PUSH1 0x40 DUP12 ADD MSTORE PUSH1 0xFF AND PUSH1 0x60 DUP11 ADD MSTORE PUSH2 0xFFFF AND DUP1 PUSH1 0x80 DUP11 ADD MSTORE PUSH1 0xA0 DUP10 ADD MSTORE PUSH1 0xC0 DUP9 ADD MSTORE PUSH1 0xE0 DUP8 ADD MSTORE PUSH2 0x100 DUP7 ADD MSTORE PUSH1 0xFF AND PUSH2 0x120 DUP6 ADD MSTORE PUSH1 0xFF AND PUSH2 0x140 DUP5 ADD MSTORE PUSH1 0xFF AND PUSH2 0x160 DUP4 ADD MSTORE PUSH1 0xFF AND PUSH2 0x180 DUP3 ADD MSTORE PUSH2 0x3ED1 DUP3 DUP5 PUSH2 0x32EB JUMP JUMPDEST MSTORE PUSH2 0x3EDB SWAP2 PUSH2 0x32EB JUMP JUMPDEST POP PUSH1 0x1 SWAP1 JUMP JUMPDEST SWAP2 POP PUSH2 0x3EEB PUSH2 0x3C0C JUMP JUMPDEST SWAP2 PUSH2 0x3DDC JUMP JUMPDEST PUSH1 0x60 PUSH2 0x3F01 DUP8 DUP10 SWAP7 SWAP5 SWAP6 SWAP7 PUSH2 0x32EB JUMP JUMPDEST MLOAD ADD PUSH2 0xFFFF PUSH2 0x3F13 DUP6 DUP3 DUP5 MLOAD AND PUSH2 0x3BF6 JUMP JUMPDEST AND SWAP1 MSTORE PUSH2 0x3DD7 JUMP JUMPDEST POP PUSH2 0xFFFF PUSH1 0x60 PUSH2 0x3F2B DUP9 DUP11 PUSH2 0x32EB JUMP JUMPDEST MLOAD ADD MLOAD AND PUSH2 0xFFFF DUP4 AND LT ISZERO PUSH2 0x3D96 JUMP JUMPDEST POP PUSH2 0xFFFF PUSH1 0x60 PUSH2 0x3F4B DUP7 DUP9 PUSH2 0x32EB JUMP JUMPDEST MLOAD ADD MLOAD AND PUSH2 0x3D7E JUMP JUMPDEST POP SWAP1 SWAP7 SWAP2 SWAP3 SWAP4 SWAP5 SWAP6 SWAP7 PUSH2 0x3CE8 JUMP JUMPDEST PUSH2 0x3F8B SWAP2 SWAP9 POP DUP3 PUSH2 0x3F85 DUP9 PUSH1 0xFF PUSH2 0x3F7F DUP11 SWAP10 SWAP9 SWAP8 SWAP15 SWAP13 SWAP12 SWAP11 PUSH2 0x379B JUMP JUMPDEST AND PUSH2 0x2C79 JUMP JUMPDEST SHR PUSH2 0x2C5B JUMP JUMPDEST SWAP8 PUSH0 SWAP8 PUSH0 JUMPDEST DUP4 MLOAD DUP2 LT ISZERO PUSH2 0x3FE5 JUMPI PUSH2 0xFFFF PUSH1 0x60 PUSH2 0x3FA8 DUP4 DUP8 PUSH2 0x32EB JUMP JUMPDEST MLOAD ADD MLOAD AND PUSH2 0x3FB9 JUMPI JUMPDEST PUSH1 0x1 ADD PUSH2 0x3F90 JUMP JUMPDEST SWAP9 DUP11 DUP2 EQ PUSH2 0x3FD4 JUMPI PUSH2 0x3FCC PUSH1 0x1 SWAP2 PUSH2 0x37D6 JUMP JUMPDEST SWAP10 SWAP1 POP PUSH2 0x3FB1 JUMP JUMPDEST POP SWAP2 SWAP4 SWAP6 SWAP8 SWAP1 SWAP3 SWAP5 SWAP7 SWAP9 POP SWAP2 PUSH2 0x3CE8 JUMP JUMPDEST POP SWAP2 SWAP4 SWAP6 SWAP8 POP SWAP8 SWAP2 SWAP4 SWAP6 SWAP8 PUSH2 0x3CE8 JUMP JUMPDEST POP POP POP POP POP POP POP POP PUSH0 SWAP1 JUMP JUMPDEST POP POP POP POP SWAP3 POP POP POP PUSH0 SWAP1 JUMP JUMPDEST SWAP6 SWAP2 PUSH1 0xFF SWAP1 SWAP8 SWAP5 SWAP6 SWAP4 SWAP2 SWAP8 AND PUSH2 0xFFFF PUSH1 0x60 PUSH2 0x4028 DUP4 DUP11 PUSH2 0x32EB JUMP JUMPDEST MLOAD ADD MLOAD AND ISZERO PUSH2 0x4001 JUMPI PUSH0 SWAP6 PUSH0 JUMPDEST DUP10 MLOAD DUP2 LT ISZERO PUSH2 0x4072 JUMPI PUSH2 0xFFFF PUSH1 0x60 PUSH2 0x404D DUP4 DUP14 PUSH2 0x32EB JUMP JUMPDEST MLOAD ADD MLOAD AND PUSH2 0x405E JUMPI JUMPDEST PUSH1 0x1 ADD PUSH2 0x4035 JUMP JUMPDEST SWAP7 PUSH2 0x406A PUSH1 0x1 SWAP2 PUSH2 0x37D6 JUMP JUMPDEST SWAP8 SWAP1 POP PUSH2 0x4056 JUMP JUMPDEST POP SWAP1 SWAP3 SWAP5 SWAP8 SWAP2 SWAP4 SWAP6 SWAP7 DUP8 ISZERO PUSH2 0x3FF5 JUMPI PUSH0 SWAP8 PUSH1 0x1 DUP2 SUB PUSH2 0x42F7 JUMPI POP PUSH0 JUMPDEST DUP4 MLOAD DUP2 LT ISZERO PUSH2 0x42E9 JUMPI PUSH2 0xFFFF PUSH1 0x60 PUSH2 0x40A6 DUP4 DUP8 PUSH2 0x32EB JUMP JUMPDEST MLOAD ADD MLOAD AND PUSH2 0x40B6 JUMPI PUSH1 0x1 ADD PUSH2 0x408E JUMP JUMPDEST SWAP1 SWAP2 SWAP3 SWAP4 SWAP5 SWAP6 SWAP7 SWAP8 POP SWAP2 JUMPDEST PUSH2 0xFFFF PUSH1 0x60 PUSH2 0x40D0 DUP6 DUP8 PUSH2 0x32EB JUMP JUMPDEST MLOAD ADD MLOAD AND SWAP1 PUSH1 0xFF PUSH2 0x40E1 DUP8 DUP6 PUSH2 0x32EB JUMP JUMPDEST MLOAD MLOAD AND PUSH1 0xFF PUSH1 0x20 PUSH2 0x40F2 DUP8 DUP10 PUSH2 0x32EB JUMP JUMPDEST MLOAD ADD MLOAD AND PUSH1 0xFF PUSH1 0xA0 PUSH2 0x4104 DUP11 DUP9 PUSH2 0x32EB JUMP JUMPDEST MLOAD ADD MLOAD AND PUSH1 0xFF PUSH1 0xC0 PUSH2 0x4116 DUP10 DUP12 PUSH2 0x32EB JUMP JUMPDEST MLOAD ADD MLOAD AND SWAP2 PUSH1 0x3 DUP13 MUL SWAP5 DUP13 DUP7 DIV PUSH1 0x3 EQ DUP14 ISZERO OR ISZERO PUSH2 0xA8C JUMPI PUSH2 0x4139 SWAP6 SHR SWAP4 PUSH2 0x458B JUMP JUMPDEST SWAP1 DUP1 PUSH2 0xFFFF DUP1 PUSH1 0x60 PUSH2 0x414B DUP10 DUP12 PUSH2 0x32EB JUMP JUMPDEST MLOAD ADD MLOAD AND SWAP2 AND GT PUSH2 0x42D0 JUMPI JUMPDEST PUSH0 PUSH1 0xE0 PUSH2 0x4164 DUP8 DUP10 PUSH2 0x32EB JUMP JUMPDEST MLOAD ADD MLOAD ISZERO ISZERO DUP1 PUSH2 0x42B0 JUMPI JUMPDEST ISZERO PUSH2 0x4286 JUMPI POP POP POP PUSH2 0x4189 PUSH2 0xFFFF PUSH1 0x60 PUSH2 0x3DB0 DUP7 DUP9 PUSH2 0x32EB JUMP JUMPDEST PUSH1 0x1 PUSH1 0x60 PUSH2 0x4197 DUP7 DUP9 PUSH2 0x32EB JUMP JUMPDEST MLOAD ADD MSTORE PUSH1 0x1 SWAP2 PUSH2 0x41A5 PUSH2 0x3C0C JUMP JUMPDEST SWAP3 JUMPDEST PUSH2 0x4276 JUMPI JUMPDEST PUSH2 0xFFFF PUSH1 0x60 PUSH2 0x41BB DUP8 DUP10 PUSH2 0x32EB JUMP JUMPDEST MLOAD ADD MLOAD AND SWAP2 PUSH2 0x160 PUSH2 0x41D4 DUP10 PUSH2 0x140 PUSH2 0x3E04 DUP3 DUP11 PUSH2 0x32EB JUMP JUMPDEST MLOAD ADD MLOAD SWAP6 PUSH1 0x4 DUP8 LT ISZERO PUSH2 0x8C3 JUMPI PUSH2 0x41F8 PUSH2 0x160 PUSH2 0x1382 DUP4 PUSH2 0x140 PUSH2 0x3E3E DUP3 DUP15 PUSH2 0x32EB JUMP JUMPDEST SWAP9 PUSH1 0x4 DUP11 LT ISZERO PUSH2 0x8C3 JUMPI PUSH1 0x40 MLOAD SWAP11 PUSH2 0x420F DUP13 PUSH2 0x2C02 JUMP JUMPDEST PUSH1 0xFF AND DUP12 MSTORE PUSH1 0x20 DUP12 ADD PUSH1 0x1 SWAP1 MSTORE PUSH1 0x40 DUP12 ADD MSTORE PUSH1 0xFF AND PUSH1 0x60 DUP11 ADD MSTORE PUSH2 0xFFFF AND DUP1 PUSH1 0x80 DUP11 ADD MSTORE PUSH1 0xA0 DUP10 ADD MSTORE PUSH1 0xC0 DUP9 ADD MSTORE PUSH1 0xE0 DUP8 ADD MSTORE PUSH2 0x100 DUP7 ADD MSTORE PUSH1 0xFF AND PUSH2 0x120 DUP6 ADD MSTORE PUSH1 0xFF AND PUSH2 0x140 DUP5 ADD MSTORE PUSH1 0xFF AND PUSH2 0x160 DUP4 ADD MSTORE PUSH1 0xFF AND PUSH2 0x180 DUP3 ADD MSTORE PUSH2 0x3ED1 DUP3 DUP5 PUSH2 0x32EB JUMP JUMPDEST SWAP2 POP PUSH2 0x4280 PUSH2 0x3C0C JUMP JUMPDEST SWAP2 PUSH2 0x41AC JUMP JUMPDEST PUSH1 0x60 PUSH2 0x4296 DUP8 DUP10 SWAP7 SWAP5 SWAP6 SWAP7 PUSH2 0x32EB JUMP JUMPDEST MLOAD ADD PUSH2 0xFFFF PUSH2 0x42A8 DUP6 DUP3 DUP5 MLOAD AND PUSH2 0x3BF6 JUMP JUMPDEST AND SWAP1 MSTORE PUSH2 0x41A7 JUMP JUMPDEST POP PUSH2 0xFFFF PUSH1 0x60 PUSH2 0x42C0 DUP9 DUP11 PUSH2 0x32EB JUMP JUMPDEST MLOAD ADD MLOAD AND PUSH2 0xFFFF DUP4 AND LT ISZERO PUSH2 0x416F JUMP JUMPDEST POP PUSH2 0xFFFF PUSH1 0x60 PUSH2 0x42E0 DUP7 DUP9 PUSH2 0x32EB JUMP JUMPDEST MLOAD ADD MLOAD AND PUSH2 0x4157 JUMP JUMPDEST POP SWAP1 SWAP7 SWAP2 SWAP3 SWAP4 SWAP5 SWAP6 SWAP7 PUSH2 0x40C1 JUMP JUMPDEST PUSH2 0x4314 SWAP2 SWAP9 POP DUP3 PUSH2 0x3F85 DUP9 PUSH1 0xFF PUSH2 0x3F7F DUP11 SWAP10 SWAP9 SWAP8 SWAP15 SWAP13 SWAP12 SWAP11 PUSH2 0x379B JUMP JUMPDEST SWAP8 PUSH0 SWAP8 PUSH0 JUMPDEST DUP4 MLOAD DUP2 LT ISZERO PUSH2 0x436E JUMPI PUSH2 0xFFFF PUSH1 0x60 PUSH2 0x4331 DUP4 DUP8 PUSH2 0x32EB JUMP JUMPDEST MLOAD ADD MLOAD AND PUSH2 0x4342 JUMPI JUMPDEST PUSH1 0x1 ADD PUSH2 0x4319 JUMP JUMPDEST SWAP9 DUP11 DUP2 EQ PUSH2 0x435D JUMPI PUSH2 0x4355 PUSH1 0x1 SWAP2 PUSH2 0x37D6 JUMP JUMPDEST SWAP10 SWAP1 POP PUSH2 0x433A JUMP JUMPDEST POP SWAP2 SWAP4 SWAP6 SWAP8 SWAP1 SWAP3 SWAP5 SWAP7 SWAP9 POP SWAP2 PUSH2 0x40C1 JUMP JUMPDEST POP SWAP2 SWAP4 SWAP6 SWAP8 POP SWAP8 SWAP2 SWAP4 SWAP6 SWAP8 PUSH2 0x40C1 JUMP JUMPDEST PUSH2 0x4387 DUP2 PUSH2 0x2C86 JUMP JUMPDEST DUP1 ISZERO PUSH2 0x43A8 JUMPI PUSH1 0x1 SWAP1 PUSH2 0x4399 DUP2 PUSH2 0x2C86 JUMP JUMPDEST EQ PUSH2 0x43A3 JUMPI PUSH1 0x69 SWAP1 JUMP JUMPDEST PUSH1 0x52 SWAP1 JUMP JUMPDEST POP PUSH1 0x41 SWAP1 JUMP JUMPDEST SWAP1 PUSH2 0xFFFF DUP1 SWAP2 AND SWAP2 AND MUL SWAP1 PUSH2 0xFFFF DUP3 AND SWAP2 DUP3 SUB PUSH2 0xA8C JUMPI JUMP JUMPDEST SWAP1 PUSH1 0x2 SHL PUSH2 0x3FC AND PUSH2 0x43D8 SWAP2 PUSH2 0x39DC JUMP JUMPDEST SWAP1 JUMP JUMPDEST PUSH2 0x43E4 DUP2 PUSH2 0x2C86 JUMP JUMPDEST DUP1 ISZERO PUSH2 0x4405 JUMPI PUSH1 0x1 SWAP1 PUSH2 0x43F6 DUP2 PUSH2 0x2C86 JUMP JUMPDEST EQ PUSH2 0x4400 JUMPI PUSH1 0x14 SWAP1 JUMP JUMPDEST PUSH1 0xC SWAP1 JUMP JUMPDEST POP PUSH1 0x6 SWAP1 JUMP JUMPDEST SWAP1 PUSH1 0xFF PUSH1 0x16 SWAP2 AND DIV SWAP1 DUP2 PUSH2 0x441E DUP3 PUSH2 0x2C86 JUMP JUMPDEST PUSH1 0x1 DUP3 EQ PUSH2 0x4470 JUMPI JUMPDEST POP PUSH1 0x2 SWAP1 PUSH2 0x4434 DUP2 PUSH2 0x2C86 JUMP JUMPDEST EQ PUSH2 0x444C JUMPI JUMPDEST PUSH1 0x12 PUSH1 0xFF DUP3 AND GT ISZERO PUSH2 0x43D8 JUMPI POP PUSH1 0x12 SWAP1 JUMP JUMPDEST PUSH1 0xFF PUSH1 0x4 SWAP2 AND ADD PUSH1 0xFF DUP2 GT ISZERO PUSH2 0x443A JUMPI PUSH4 0x4E487B71 PUSH1 0xE0 SHL PUSH0 MSTORE PUSH1 0x11 PUSH1 0x4 MSTORE PUSH1 0x24 PUSH0 REVERT JUMPDEST PUSH1 0x2 SWAP2 SWAP3 POP PUSH2 0x447E SWAP1 PUSH2 0x37B0 JUMP JUMPDEST SWAP2 SWAP1 PUSH2 0x4427 JUMP JUMPDEST SWAP2 SWAP1 PUSH2 0xFFFF AND DUP1 ISZERO PUSH2 0x4586 JUMPI PUSH1 0x3 DUP2 MUL SWAP1 DUP2 DIV PUSH1 0x3 SUB PUSH2 0xA8C JUMPI PUSH1 0x64 ADD SWAP2 DUP3 PUSH1 0x64 GT PUSH2 0xA8C JUMPI PUSH0 JUMPDEST DUP2 MLOAD DUP2 LT ISZERO PUSH2 0x399F JUMPI DUP1 PUSH1 0xFF PUSH1 0x64 PUSH2 0x44D4 DUP8 DUP4 PUSH2 0x44CC PUSH1 0x1 SWAP8 DUP10 PUSH2 0x32EB JUMP JUMPDEST MLOAD MLOAD AND PUSH2 0x3318 JUMP JUMPDEST DIV AND PUSH2 0x44E0 DUP3 DUP6 PUSH2 0x32EB JUMP JUMPDEST MLOAD MSTORE PUSH1 0xFF PUSH1 0x64 PUSH2 0x4500 DUP8 DUP4 PUSH1 0x20 PUSH2 0x44F7 DUP8 DUP11 PUSH2 0x32EB JUMP JUMPDEST MLOAD ADD MLOAD AND PUSH2 0x3318 JUMP JUMPDEST DIV AND PUSH1 0x20 PUSH2 0x450E DUP4 DUP7 PUSH2 0x32EB JUMP JUMPDEST MLOAD ADD MSTORE PUSH1 0xFF PUSH1 0x64 PUSH2 0x4526 DUP8 DUP4 PUSH1 0x40 PUSH2 0x44F7 DUP8 DUP11 PUSH2 0x32EB JUMP JUMPDEST DIV AND PUSH1 0x40 PUSH2 0x4534 DUP4 DUP7 PUSH2 0x32EB JUMP JUMPDEST MLOAD ADD MSTORE PUSH2 0xFFFF PUSH1 0x64 PUSH2 0x454D DUP8 DUP4 PUSH1 0x60 PUSH2 0x44F7 DUP8 DUP11 PUSH2 0x32EB JUMP JUMPDEST DIV AND PUSH1 0x60 PUSH2 0x455B DUP4 DUP7 PUSH2 0x32EB JUMP JUMPDEST MLOAD ADD MSTORE PUSH2 0xFFFF PUSH1 0x60 PUSH2 0x456D DUP4 DUP7 PUSH2 0x32EB JUMP JUMPDEST MLOAD ADD MLOAD AND PUSH1 0x80 PUSH2 0x457D DUP4 DUP7 PUSH2 0x32EB JUMP JUMPDEST MLOAD ADD MSTORE ADD PUSH2 0x44AD JUMP JUMPDEST POP SWAP1 POP JUMP JUMPDEST PUSH1 0x60 SWAP6 SWAP5 SWAP3 SWAP4 PUSH1 0xFF AND DUP1 ISZERO DUP1 ISZERO SWAP2 SWAP1 DUP3 PUSH2 0x46EB JUMPI JUMPDEST POP POP PUSH2 0x46C0 JUMPI PUSH1 0xFF AND SWAP1 PUSH2 0xFFFF PUSH1 0x23 DUP5 MOD AND PUSH1 0x6E ADD PUSH2 0xFFFF DUP2 GT PUSH2 0xA8C JUMPI PUSH1 0xFF PUSH2 0x45CC PUSH1 0x12 SWAP3 DUP6 PUSH2 0x43AE JUMP JUMPDEST SWAP3 AND ADD PUSH2 0xFFFF DUP2 GT PUSH2 0xA8C JUMPI PUSH2 0xFFFF AND SWAP1 DUP2 ISZERO PUSH2 0x2C65 JUMPI PUSH2 0xFFFF AND DIV SWAP1 PUSH1 0x2 PUSH2 0xFFFF DUP4 AND LT PUSH2 0x46A3 JUMPI JUMPDEST POP PUSH2 0xFFFF PUSH1 0x25 DUP4 PUSH1 0x8 SHR MOD AND PUSH1 0x52 ADD PUSH2 0xFFFF DUP2 GT PUSH2 0xA8C JUMPI PUSH2 0x461D PUSH2 0xFFFF SWAP2 PUSH1 0x64 SWAP4 PUSH2 0x43AE JUMP JUMPDEST AND DIV SWAP1 PUSH1 0xFF DUP3 SWAP4 AND SWAP1 DUP2 ISZERO ISZERO SWAP2 DUP3 PUSH2 0x467A JUMPI JUMPDEST POP POP PUSH2 0x463B JUMPI POP SWAP2 SWAP1 JUMP JUMPDEST PUSH1 0xD SWAP3 SWAP4 POP PUSH2 0xFFFF SWAP2 POP AND MUL PUSH2 0xFFFF DUP2 AND SWAP1 DUP2 SUB PUSH2 0xA8C JUMPI PUSH1 0xA SWAP1 DIV SWAP1 PUSH1 0x40 MLOAD PUSH2 0x4666 PUSH1 0x40 DUP3 PUSH2 0x2C3A JUMP JUMPDEST PUSH1 0x4 DUP2 MSTORE PUSH4 0x10D49255 PUSH1 0xE2 SHL PUSH1 0x20 DUP3 ADD MSTORE SWAP1 JUMP JUMPDEST PUSH1 0x1C SWAP2 SWAP3 POP MUL PUSH2 0xFFFF DUP2 AND SWAP1 DUP2 SUB PUSH2 0xA8C JUMPI PUSH2 0xFFFF PUSH1 0xA PUSH1 0x64 SWAP3 DIV AND SWAP2 PUSH1 0x18 SHR MOD LT PUSH0 DUP1 PUSH2 0x4630 JUMP JUMPDEST PUSH1 0xFF SWAP2 POP PUSH1 0x3 SWAP1 DIV AND PUSH1 0x2 ADD PUSH1 0xFF DUP2 GT PUSH2 0xA8C JUMPI PUSH1 0xFF AND PUSH0 PUSH2 0x45F6 JUMP JUMPDEST POP POP POP POP SWAP1 POP PUSH0 SWAP1 PUSH1 0x40 MLOAD PUSH2 0x46D6 PUSH1 0x40 DUP3 PUSH2 0x2C3A JUMP JUMPDEST PUSH1 0x5 DUP2 MSTORE PUSH5 0x444F444745 PUSH1 0xD8 SHL PUSH1 0x20 DUP3 ADD MSTORE SWAP1 JUMP JUMPDEST SWAP1 SWAP2 POP PUSH1 0x19 DUP3 MUL SWAP2 DUP3 DIV PUSH1 0x19 EQ OR ISZERO PUSH2 0xA8C JUMPI PUSH1 0xA SWAP1 DIV PUSH1 0x64 DUP5 MOD LT PUSH0 DUP1 PUSH2 0x45A0 JUMP INVALID LOG2 PUSH5 0x6970667358 0x22 SLT KECCAK256 0xCE TIMESTAMP MSIZE EXTCALL DUP12 PUSH28 0x8CF2F6644D4BD7DE02F74064526DD8029FF7E7E699789BC445E46473 PUSH16 0x6C634300081E00330000000000000000 "
		},
		"gasEstimates": {
			"creation": {
				"codeDepositCost": "3648800",
				"executionCost": "infinite",
				"totalCost": "infinite"
			},
			"external": {
				"buyFromShop(uint256)": "infinite",
				"buyRelicShopPrice()": "2644",
				"buyUnit()": "infinite",
				"buyUnitPrice()": "2336",
				"buyUnitShopPrice()": "3081",
				"clearPlayerData()": "infinite",
				"equipRelics(uint256[3])": "infinite",
				"equippedRelics(address,uint256)": "3202",
				"getCurrentAI(address)": "infinite",
				"getEquippedRelics(address)": "infinite",
				"getLastBattleResult(address)": "infinite",
				"getPlayerRelics(address)": "infinite",
				"getPlayerShop(address)": "infinite",
				"getPlayerUnits(address)": "infinite",
				"hasProfile(address)": "2894",
				"lastAI(address,uint256)": "7822",
				"lastAIMaxHp(address,uint256)": "7130",
				"lastBattleId()": "2468",
				"lastPlayerMaxHp(address,uint256)": "6976",
				"lastPlayerWon(address)": "2982",
				"owner()": "2689",
				"pause()": "30056",
				"paused()": "2524",
				"playerRelics(address,uint256)": "7583",
				"playerShop(address,uint256)": "7052",
				"playerUnits(address,uint256)": "6967",
				"profiles(address)": "9462",
				"relicContract()": "2998",
				"renounceOwnership()": "28350",
				"rerollPrice()": "2688",
				"rerollShop()": "infinite",
				"setPrices(uint256,uint256,uint256,uint256)": "93326",
				"setRelicContract(address)": "27154",
				"setUnitNFT(address)": "26978",
				"startMatch(uint256[],uint256[])": "infinite",
				"transferOwnership(address)": "28954",
				"unitNFT()": "2866",
				"unpause()": "27687",
				"withdraw()": "infinite"
			},
			"internal": {
				"_ensureProfile()": "infinite",
				"_generateShopItem()": "infinite",
				"_getWeightedRarity(uint256)": "68",
				"_updateProfileAfterBattle(bool)": "infinite"
			}
		},
		"methodIdentifiers": {
			"buyFromShop(uint256)": "b654823e",
			"buyRelicShopPrice()": "8b5ca78f",
			"buyUnit()": "201738e2",
			"buyUnitPrice()": "394861f3",
			"buyUnitShopPrice()": "f5e5fff2",
			"clearPlayerData()": "bdb729c9",
			"equipRelics(uint256[3])": "a5f968a0",
			"equippedRelics(address,uint256)": "c4f036c4",
			"getCurrentAI(address)": "c99ae45f",
			"getEquippedRelics(address)": "a95db7e2",
			"getLastBattleResult(address)": "2dc6d62f",
			"getPlayerRelics(address)": "bb15a3b4",
			"getPlayerShop(address)": "49c7c24a",
			"getPlayerUnits(address)": "6154ee97",
			"hasProfile(address)": "a787c80b",
			"lastAI(address,uint256)": "da539b0f",
			"lastAIMaxHp(address,uint256)": "732e9b85",
			"lastBattleId()": "518c83b0",
			"lastPlayerMaxHp(address,uint256)": "4e178659",
			"lastPlayerWon(address)": "b78f4c70",
			"owner()": "8da5cb5b",
			"pause()": "8456cb59",
			"paused()": "5c975abb",
			"playerRelics(address,uint256)": "f5905ca1",
			"playerShop(address,uint256)": "18dc3185",
			"playerUnits(address,uint256)": "4ef2d6c1",
			"profiles(address)": "bbe15627",
			"relicContract()": "d5654ae7",
			"renounceOwnership()": "715018a6",
			"rerollPrice()": "9d980bd2",
			"rerollShop()": "29de58d1",
			"setPrices(uint256,uint256,uint256,uint256)": "d8e86854",
			"setRelicContract(address)": "b2a47500",
			"setUnitNFT(address)": "7e5c4f8b",
			"startMatch(uint256[],uint256[])": "51bdab14",
			"transferOwnership(address)": "f2fde38b",
			"unitNFT()": "b92a40ad",
			"unpause()": "3f4ba83a",
			"withdraw()": "3ccfd60b"
		}
	},
	"abi": [
		{
			"inputs": [
				{
					"internalType": "address",
					"name": "_unitNFT",
					"type": "address"
				},
				{
					"internalType": "address",
					"name": "_relic",
					"type": "address"
				}
			],
			"stateMutability": "nonpayable",
			"type": "constructor"
		},
		{
			"anonymous": false,
			"inputs": [
				{
					"indexed": true,
					"internalType": "bytes32",
					"name": "battleId",
					"type": "bytes32"
				},
				{
					"indexed": false,
					"internalType": "uint8",
					"name": "round",
					"type": "uint8"
				},
				{
					"indexed": false,
					"internalType": "bool",
					"name": "isPlayerSide",
					"type": "bool"
				},
				{
					"indexed": false,
					"internalType": "uint8",
					"name": "attackerIndex",
					"type": "uint8"
				},
				{
					"indexed": false,
					"internalType": "uint8",
					"name": "targetIndex",
					"type": "uint8"
				},
				{
					"indexed": false,
					"internalType": "uint16",
					"name": "damage",
					"type": "uint16"
				},
				{
					"indexed": false,
					"internalType": "uint16",
					"name": "remainingHp",
					"type": "uint16"
				},
				{
					"indexed": false,
					"internalType": "string",
					"name": "specialEffect",
					"type": "string"
				}
			],
			"name": "BattleEventEmitted",
			"type": "event"
		},
		{
			"anonymous": false,
			"inputs": [
				{
					"indexed": true,
					"internalType": "bytes32",
					"name": "battleId",
					"type": "bytes32"
				},
				{
					"indexed": true,
					"internalType": "address",
					"name": "player",
					"type": "address"
				},
				{
					"indexed": false,
					"internalType": "bool",
					"name": "playerWon",
					"type": "bool"
				},
				{
					"indexed": false,
					"internalType": "uint16[]",
					"name": "playerMaxHp",
					"type": "uint16[]"
				},
				{
					"indexed": false,
					"internalType": "uint16[]",
					"name": "aiMaxHp",
					"type": "uint16[]"
				}
			],
			"name": "BattleResolved",
			"type": "event"
		},
		{
			"anonymous": false,
			"inputs": [
				{
					"indexed": true,
					"internalType": "address",
					"name": "previousOwner",
					"type": "address"
				},
				{
					"indexed": true,
					"internalType": "address",
					"name": "newOwner",
					"type": "address"
				}
			],
			"name": "OwnershipTransferred",
			"type": "event"
		},
		{
			"anonymous": false,
			"inputs": [
				{
					"indexed": false,
					"internalType": "address",
					"name": "account",
					"type": "address"
				}
			],
			"name": "Paused",
			"type": "event"
		},
		{
			"anonymous": false,
			"inputs": [
				{
					"indexed": false,
					"internalType": "uint256",
					"name": "buyUnit",
					"type": "uint256"
				},
				{
					"indexed": false,
					"internalType": "uint256",
					"name": "reroll",
					"type": "uint256"
				},
				{
					"indexed": false,
					"internalType": "uint256",
					"name": "buyUnitShop",
					"type": "uint256"
				},
				{
					"indexed": false,
					"internalType": "uint256",
					"name": "buyRelicShop",
					"type": "uint256"
				}
			],
			"name": "PricesUpdated",
			"type": "event"
		},
		{
			"anonymous": false,
			"inputs": [
				{
					"indexed": true,
					"internalType": "address",
					"name": "player",
					"type": "address"
				}
			],
			"name": "ProfileCreated",
			"type": "event"
		},
		{
			"anonymous": false,
			"inputs": [
				{
					"indexed": true,
					"internalType": "address",
					"name": "player",
					"type": "address"
				},
				{
					"indexed": false,
					"internalType": "uint256[3]",
					"name": "relics",
					"type": "uint256[3]"
				}
			],
			"name": "RelicsEquipped",
			"type": "event"
		},
		{
			"anonymous": false,
			"inputs": [
				{
					"indexed": false,
					"internalType": "address",
					"name": "account",
					"type": "address"
				}
			],
			"name": "Unpaused",
			"type": "event"
		},
		{
			"inputs": [
				{
					"internalType": "uint256",
					"name": "slot",
					"type": "uint256"
				}
			],
			"name": "buyFromShop",
			"outputs": [],
			"stateMutability": "payable",
			"type": "function"
		},
		{
			"inputs": [],
			"name": "buyRelicShopPrice",
			"outputs": [
				{
					"internalType": "uint256",
					"name": "",
					"type": "uint256"
				}
			],
			"stateMutability": "view",
			"type": "function"
		},
		{
			"inputs": [],
			"name": "buyUnit",
			"outputs": [],
			"stateMutability": "payable",
			"type": "function"
		},
		{
			"inputs": [],
			"name": "buyUnitPrice",
			"outputs": [
				{
					"internalType": "uint256",
					"name": "",
					"type": "uint256"
				}
			],
			"stateMutability": "view",
			"type": "function"
		},
		{
			"inputs": [],
			"name": "buyUnitShopPrice",
			"outputs": [
				{
					"internalType": "uint256",
					"name": "",
					"type": "uint256"
				}
			],
			"stateMutability": "view",
			"type": "function"
		},
		{
			"inputs": [],
			"name": "clearPlayerData",
			"outputs": [],
			"stateMutability": "nonpayable",
			"type": "function"
		},
		{
			"inputs": [
				{
					"internalType": "uint256[3]",
					"name": "relics",
					"type": "uint256[3]"
				}
			],
			"name": "equipRelics",
			"outputs": [],
			"stateMutability": "nonpayable",
			"type": "function"
		},
		{
			"inputs": [
				{
					"internalType": "address",
					"name": "",
					"type": "address"
				},
				{
					"internalType": "uint256",
					"name": "",
					"type": "uint256"
				}
			],
			"name": "equippedRelics",
			"outputs": [
				{
					"internalType": "uint256",
					"name": "",
					"type": "uint256"
				}
			],
			"stateMutability": "view",
			"type": "function"
		},
		{
			"inputs": [
				{
					"internalType": "address",
					"name": "player",
					"type": "address"
				}
			],
			"name": "getCurrentAI",
			"outputs": [
				{
					"components": [
						{
							"internalType": "bool",
							"name": "isRelic",
							"type": "bool"
						},
						{
							"internalType": "uint256",
							"name": "id",
							"type": "uint256"
						},
						{
							"internalType": "uint8",
							"name": "faction",
							"type": "uint8"
						},
						{
							"internalType": "uint8",
							"name": "rarity",
							"type": "uint8"
						},
						{
							"internalType": "uint8",
							"name": "unitClass",
							"type": "uint8"
						},
						{
							"internalType": "uint8",
							"name": "attack",
							"type": "uint8"
						},
						{
							"internalType": "uint8",
							"name": "defense",
							"type": "uint8"
						},
						{
							"internalType": "uint8",
							"name": "speed",
							"type": "uint8"
						},
						{
							"internalType": "uint8",
							"name": "relicType",
							"type": "uint8"
						},
						{
							"internalType": "uint8",
							"name": "relicValue",
							"type": "uint8"
						}
					],
					"internalType": "struct StarForgeGame.ShopItem[8]",
					"name": "",
					"type": "tuple[8]"
				}
			],
			"stateMutability": "view",
			"type": "function"
		},
		{
			"inputs": [
				{
					"internalType": "address",
					"name": "player",
					"type": "address"
				}
			],
			"name": "getEquippedRelics",
			"outputs": [
				{
					"internalType": "uint256[3]",
					"name": "",
					"type": "uint256[3]"
				}
			],
			"stateMutability": "view",
			"type": "function"
		},
		{
			"inputs": [
				{
					"internalType": "address",
					"name": "player",
					"type": "address"
				}
			],
			"name": "getLastBattleResult",
			"outputs": [
				{
					"internalType": "bool",
					"name": "",
					"type": "bool"
				},
				{
					"internalType": "uint16[]",
					"name": "",
					"type": "uint16[]"
				},
				{
					"internalType": "uint16[]",
					"name": "",
					"type": "uint16[]"
				},
				{
					"internalType": "bytes32",
					"name": "",
					"type": "bytes32"
				}
			],
			"stateMutability": "view",
			"type": "function"
		},
		{
			"inputs": [
				{
					"internalType": "address",
					"name": "player",
					"type": "address"
				}
			],
			"name": "getPlayerRelics",
			"outputs": [
				{
					"internalType": "uint256[]",
					"name": "",
					"type": "uint256[]"
				}
			],
			"stateMutability": "view",
			"type": "function"
		},
		{
			"inputs": [
				{
					"internalType": "address",
					"name": "player",
					"type": "address"
				}
			],
			"name": "getPlayerShop",
			"outputs": [
				{
					"components": [
						{
							"internalType": "bool",
							"name": "isRelic",
							"type": "bool"
						},
						{
							"internalType": "uint256",
							"name": "id",
							"type": "uint256"
						},
						{
							"internalType": "uint8",
							"name": "faction",
							"type": "uint8"
						},
						{
							"internalType": "uint8",
							"name": "rarity",
							"type": "uint8"
						},
						{
							"internalType": "uint8",
							"name": "unitClass",
							"type": "uint8"
						},
						{
							"internalType": "uint8",
							"name": "attack",
							"type": "uint8"
						},
						{
							"internalType": "uint8",
							"name": "defense",
							"type": "uint8"
						},
						{
							"internalType": "uint8",
							"name": "speed",
							"type": "uint8"
						},
						{
							"internalType": "uint8",
							"name": "relicType",
							"type": "uint8"
						},
						{
							"internalType": "uint8",
							"name": "relicValue",
							"type": "uint8"
						}
					],
					"internalType": "struct StarForgeGame.ShopItem[3]",
					"name": "",
					"type": "tuple[3]"
				}
			],
			"stateMutability": "view",
			"type": "function"
		},
		{
			"inputs": [
				{
					"internalType": "address",
					"name": "player",
					"type": "address"
				}
			],
			"name": "getPlayerUnits",
			"outputs": [
				{
					"internalType": "uint256[]",
					"name": "",
					"type": "uint256[]"
				}
			],
			"stateMutability": "view",
			"type": "function"
		},
		{
			"inputs": [
				{
					"internalType": "address",
					"name": "",
					"type": "address"
				}
			],
			"name": "hasProfile",
			"outputs": [
				{
					"internalType": "bool",
					"name": "",
					"type": "bool"
				}
			],
			"stateMutability": "view",
			"type": "function"
		},
		{
			"inputs": [
				{
					"internalType": "address",
					"name": "",
					"type": "address"
				},
				{
					"internalType": "uint256",
					"name": "",
					"type": "uint256"
				}
			],
			"name": "lastAI",
			"outputs": [
				{
					"internalType": "bool",
					"name": "isRelic",
					"type": "bool"
				},
				{
					"internalType": "uint256",
					"name": "id",
					"type": "uint256"
				},
				{
					"internalType": "uint8",
					"name": "faction",
					"type": "uint8"
				},
				{
					"internalType": "uint8",
					"name": "rarity",
					"type": "uint8"
				},
				{
					"internalType": "uint8",
					"name": "unitClass",
					"type": "uint8"
				},
				{
					"internalType": "uint8",
					"name": "attack",
					"type": "uint8"
				},
				{
					"internalType": "uint8",
					"name": "defense",
					"type": "uint8"
				},
				{
					"internalType": "uint8",
					"name": "speed",
					"type": "uint8"
				},
				{
					"internalType": "uint8",
					"name": "relicType",
					"type": "uint8"
				},
				{
					"internalType": "uint8",
					"name": "relicValue",
					"type": "uint8"
				}
			],
			"stateMutability": "view",
			"type": "function"
		},
		{
			"inputs": [
				{
					"internalType": "address",
					"name": "",
					"type": "address"
				},
				{
					"internalType": "uint256",
					"name": "",
					"type": "uint256"
				}
			],
			"name": "lastAIMaxHp",
			"outputs": [
				{
					"internalType": "uint16",
					"name": "",
					"type": "uint16"
				}
			],
			"stateMutability": "view",
			"type": "function"
		},
		{
			"inputs": [],
			"name": "lastBattleId",
			"outputs": [
				{
					"internalType": "bytes32",
					"name": "",
					"type": "bytes32"
				}
			],
			"stateMutability": "view",
			"type": "function"
		},
		{
			"inputs": [
				{
					"internalType": "address",
					"name": "",
					"type": "address"
				},
				{
					"internalType": "uint256",
					"name": "",
					"type": "uint256"
				}
			],
			"name": "lastPlayerMaxHp",
			"outputs": [
				{
					"internalType": "uint16",
					"name": "",
					"type": "uint16"
				}
			],
			"stateMutability": "view",
			"type": "function"
		},
		{
			"inputs": [
				{
					"internalType": "address",
					"name": "",
					"type": "address"
				}
			],
			"name": "lastPlayerWon",
			"outputs": [
				{
					"internalType": "bool",
					"name": "",
					"type": "bool"
				}
			],
			"stateMutability": "view",
			"type": "function"
		},
		{
			"inputs": [],
			"name": "owner",
			"outputs": [
				{
					"internalType": "address",
					"name": "",
					"type": "address"
				}
			],
			"stateMutability": "view",
			"type": "function"
		},
		{
			"inputs": [],
			"name": "pause",
			"outputs": [],
			"stateMutability": "nonpayable",
			"type": "function"
		},
		{
			"inputs": [],
			"name": "paused",
			"outputs": [
				{
					"internalType": "bool",
					"name": "",
					"type": "bool"
				}
			],
			"stateMutability": "view",
			"type": "function"
		},
		{
			"inputs": [
				{
					"internalType": "address",
					"name": "",
					"type": "address"
				},
				{
					"internalType": "uint256",
					"name": "",
					"type": "uint256"
				}
			],
			"name": "playerRelics",
			"outputs": [
				{
					"internalType": "uint256",
					"name": "",
					"type": "uint256"
				}
			],
			"stateMutability": "view",
			"type": "function"
		},
		{
			"inputs": [
				{
					"internalType": "address",
					"name": "",
					"type": "address"
				},
				{
					"internalType": "uint256",
					"name": "",
					"type": "uint256"
				}
			],
			"name": "playerShop",
			"outputs": [
				{
					"internalType": "bool",
					"name": "isRelic",
					"type": "bool"
				},
				{
					"internalType": "uint256",
					"name": "id",
					"type": "uint256"
				},
				{
					"internalType": "uint8",
					"name": "faction",
					"type": "uint8"
				},
				{
					"internalType": "uint8",
					"name": "rarity",
					"type": "uint8"
				},
				{
					"internalType": "uint8",
					"name": "unitClass",
					"type": "uint8"
				},
				{
					"internalType": "uint8",
					"name": "attack",
					"type": "uint8"
				},
				{
					"internalType": "uint8",
					"name": "defense",
					"type": "uint8"
				},
				{
					"internalType": "uint8",
					"name": "speed",
					"type": "uint8"
				},
				{
					"internalType": "uint8",
					"name": "relicType",
					"type": "uint8"
				},
				{
					"internalType": "uint8",
					"name": "relicValue",
					"type": "uint8"
				}
			],
			"stateMutability": "view",
			"type": "function"
		},
		{
			"inputs": [
				{
					"internalType": "address",
					"name": "",
					"type": "address"
				},
				{
					"internalType": "uint256",
					"name": "",
					"type": "uint256"
				}
			],
			"name": "playerUnits",
			"outputs": [
				{
					"internalType": "uint256",
					"name": "",
					"type": "uint256"
				}
			],
			"stateMutability": "view",
			"type": "function"
		},
		{
			"inputs": [
				{
					"internalType": "address",
					"name": "",
					"type": "address"
				}
			],
			"name": "profiles",
			"outputs": [
				{
					"internalType": "uint16",
					"name": "level",
					"type": "uint16"
				},
				{
					"internalType": "uint32",
					"name": "xp",
					"type": "uint32"
				},
				{
					"internalType": "uint256",
					"name": "wins",
					"type": "uint256"
				},
				{
					"internalType": "uint256",
					"name": "losses",
					"type": "uint256"
				},
				{
					"internalType": "uint16",
					"name": "currentAITier",
					"type": "uint16"
				}
			],
			"stateMutability": "view",
			"type": "function"
		},
		{
			"inputs": [],
			"name": "relicContract",
			"outputs": [
				{
					"internalType": "contract StarForgeRelic",
					"name": "",
					"type": "address"
				}
			],
			"stateMutability": "view",
			"type": "function"
		},
		{
			"inputs": [],
			"name": "renounceOwnership",
			"outputs": [],
			"stateMutability": "nonpayable",
			"type": "function"
		},
		{
			"inputs": [],
			"name": "rerollPrice",
			"outputs": [
				{
					"internalType": "uint256",
					"name": "",
					"type": "uint256"
				}
			],
			"stateMutability": "view",
			"type": "function"
		},
		{
			"inputs": [],
			"name": "rerollShop",
			"outputs": [],
			"stateMutability": "payable",
			"type": "function"
		},
		{
			"inputs": [
				{
					"internalType": "uint256",
					"name": "_buyUnitPrice",
					"type": "uint256"
				},
				{
					"internalType": "uint256",
					"name": "_rerollPrice",
					"type": "uint256"
				},
				{
					"internalType": "uint256",
					"name": "_buyUnitShopPrice",
					"type": "uint256"
				},
				{
					"internalType": "uint256",
					"name": "_buyRelicShopPrice",
					"type": "uint256"
				}
			],
			"name": "setPrices",
			"outputs": [],
			"stateMutability": "nonpayable",
			"type": "function"
		},
		{
			"inputs": [
				{
					"internalType": "address",
					"name": "_relic",
					"type": "address"
				}
			],
			"name": "setRelicContract",
			"outputs": [],
			"stateMutability": "nonpayable",
			"type": "function"
		},
		{
			"inputs": [
				{
					"internalType": "address",
					"name": "_unitNFT",
					"type": "address"
				}
			],
			"name": "setUnitNFT",
			"outputs": [],
			"stateMutability": "nonpayable",
			"type": "function"
		},
		{
			"inputs": [
				{
					"internalType": "uint256[]",
					"name": "team",
					"type": "uint256[]"
				},
				{
					"internalType": "uint256[]",
					"name": "equipped",
					"type": "uint256[]"
				}
			],
			"name": "startMatch",
			"outputs": [],
			"stateMutability": "nonpayable",
			"type": "function"
		},
		{
			"inputs": [
				{
					"internalType": "address",
					"name": "newOwner",
					"type": "address"
				}
			],
			"name": "transferOwnership",
			"outputs": [],
			"stateMutability": "nonpayable",
			"type": "function"
		},
		{
			"inputs": [],
			"name": "unitNFT",
			"outputs": [
				{
					"internalType": "contract StarForgeUnitNFT",
					"name": "",
					"type": "address"
				}
			],
			"stateMutability": "view",
			"type": "function"
		},
		{
			"inputs": [],
			"name": "unpause",
			"outputs": [],
			"stateMutability": "nonpayable",
			"type": "function"
		},
		{
			"inputs": [],
			"name": "withdraw",
			"outputs": [],
			"stateMutability": "nonpayable",
			"type": "function"
		}
	]
}