{
	"data": {
		"bytecode": {
			"linkReferences": {},
			"object": "6080346101315760208101906001600160401b0382118183101761011d575f9160405252600254600181811c91168015610113575b60208210146100ff57601f81116100b7575b505f60025533156100a45760038054336001600160a01b03198216811790925560405191906001600160a01b03167f8be0079c531659141344cd1fd0a4f28419497f9722a3daafe3b4186f6b6457e05f80a3611bd190816101368239f35b631e4fbdf760e01b5f525f60045260245ffd5b60025f52601f0160051c7f405787fa12a823e0f2b7631cc41b3ba8828b3321ca811111fa75cd3aa3bb5ace908101905b8181106100f45750610046565b5f81556001016100e7565b634e487b7160e01b5f52602260045260245ffd5b90607f1690610034565b634e487b7160e01b5f52604160045260245ffd5b5f80fdfe60806040526004361015610011575f80fd5b5f3560e01c8062fdd58e1461012357806301ffc9a71461011e5780630e89341c1461011957806318160ddd146101145780632eb2c2d61461010f578063405ebd4d1461010a5780634e1273f41461010557806368972d5914610100578063715018a6146100fb5780638da5cb5b146100f6578063a22cb465146100f1578063b496da8b146100ec578063d3f33009146100e7578063e985e9c5146100e2578063f242432a146100dd578063f2fde38b146100d85763f925b741146100d3575f80fd5b610bde565b610b58565b610a8e565b610a32565b610a0a565b6109ac565b610754565b61072c565b6106d1565b610626565b610504565b61047a565b6103eb565b61028f565b610258565b6101c6565b61016c565b600435906001600160a01b038216820361013e57565b5f80fd5b602435906001600160a01b038216820361013e57565b35906001600160a01b038216820361013e57565b3461013e57604036600319011261013e5760206101ab61018a610128565b6024355f525f835260405f209060018060a01b03165f5260205260405f2090565b54604051908152f35b6001600160e01b031981160361013e57565b3461013e57602036600319011261013e5760206004356101e5816101b4565b63ffffffff60e01b16636cdb3d1360e11b8114908115610223575b8115610212575b506040519015158152f35b6301ffc9a760e01b1490505f610207565b6303a24d0760e21b81149150610200565b805180835260209291819084018484015e5f828201840152601f01601f1916010190565b3461013e57602036600319011261013e5761028b610277600435610dc2565b604051918291602083526020830190610234565b0390f35b3461013e575f36600319011261013e576020600554604051908152f35b634e487b7160e01b5f52604160045260245ffd5b6060810190811067ffffffffffffffff8211176102dc57604052565b6102ac565b90601f8019910116810190811067ffffffffffffffff8211176102dc57604052565b604051906103126060836102e1565b565b67ffffffffffffffff81116102dc5760051b60200190565b9080601f8301121561013e57813561034381610314565b9261035160405194856102e1565b81845260208085019260051b82010192831161013e57602001905b8282106103795750505090565b813581526020918201910161036c565b67ffffffffffffffff81116102dc57601f01601f191660200190565b81601f8201121561013e578035906103bc82610389565b926103ca60405194856102e1565b8284526020838301011161013e57815f926020809301838601378301015290565b3461013e5760a036600319011261013e57610404610128565b61040c610142565b9060443567ffffffffffffffff811161013e5761042d90369060040161032c565b60643567ffffffffffffffff811161013e5761044d90369060040161032c565b906084359367ffffffffffffffff851161013e576104726104789536906004016103a5565b93610e2b565b005b3461013e57602036600319011261013e57610493610128565b61049b6112b0565b600480546001600160a01b0319166001600160a01b0392909216919091179055005b90602080835192838152019201905f5b8181106104da5750505090565b82518452602093840193909201916001016104cd565b9060206105019281815201906104bd565b90565b3461013e57604036600319011261013e5760043567ffffffffffffffff811161013e573660238201121561013e5780600401359061054182610314565b9161054f60405193846102e1565b8083526024602084019160051b8301019136831161013e57602401905b8282106105ad578360243567ffffffffffffffff811161013e5761028b9161059b6105a192369060040161032c565b90611003565b604051918291826104f0565b602080916105ba84610158565b81520191019061056c565b600611156105cf57565b634e487b7160e01b5f52602160045260245ffd5b9060068210156105cf5752565b60806040610501936020845261060a6020850182516105e3565b60ff602082015116828501520151916060808201520190610234565b3461013e57602036600319011261013e57600435606060408051610649816102c0565b5f81525f60208201520152805f52600660205260ff60405f205460081c16156106955761068961068461028b925f52600660205260405f2090565b610d88565b604051918291826105f0565b60405162461bcd60e51b815260206004820152601460248201527314995b1a58c8191bd95cc81b9bdd08195e1a5cdd60621b6044820152606490fd5b3461013e575f36600319011261013e576106e96112b0565b600380546001600160a01b031981169091555f906001600160a01b03167f8be0079c531659141344cd1fd0a4f28419497f9722a3daafe3b4186f6b6457e08280a3005b3461013e575f36600319011261013e576003546040516001600160a01b039091168152602090f35b3461013e57604036600319011261013e5761076d610128565b602435801515810361013e57331561080e576001600160a01b0382169182156107fc57816107b96107ca92335f52600160205260405f209060018060a01b03165f5260205260405f2090565b9060ff801983541691151516179055565b604051901515815233907f17307eab39ab6107e8899845ad3d59bd9653f200f220920489ca2b5937696c3190602090a3005b62ced3e160e81b5f525f60045260245ffd5b631f18c42760e11b5f525f60045260245ffd5b90600182811c9216801561084f575b602083101461083b57565b634e487b7160e01b5f52602260045260245ffd5b91607f1691610830565b604051905f826002549161086c83610821565b80835292600181169081156108ef5750600114610890575b610312925003836102e1565b5060025f90815290917f405787fa12a823e0f2b7631cc41b3ba8828b3321ca811111fa75cd3aa3bb5ace5b8183106108d357505090602061031292820101610884565b60209193508060019154838589010152019101909184926108bb565b6020925061031294915060ff191682840152151560051b820101610884565b9060405191825f82549261092184610821565b808452936001811690811561098a5750600114610946575b50610312925003836102e1565b90505f9291925260205f20905f915b81831061096e575050906020610312928201015f610939565b6020919350806001915483858901015201910190918492610955565b90506020925061031294915060ff191682840152151560051b8201015f610939565b3461013e57602036600319011261013e576004355f52600660205260ff60405f2061028b6109de60018354930161090e565b60405193836109f086838197166105e3565b60081c166020840152606060408401526060830190610234565b3461013e575f36600319011261013e576004546040516001600160a01b039091168152602090f35b3461013e57604036600319011261013e57602060ff610a82610a52610128565b610a5a610142565b6001600160a01b039182165f9081526001865260408082209290931681526020919091522090565b54166040519015158152f35b3461013e5760a036600319011261013e57610aa7610128565b610aaf610142565b604435906064359260843567ffffffffffffffff811161013e57610ad79036906004016103a5565b92610ae2823361124a565b6001600160a01b03831615610b45576001600160a01b03821615610b335761047894610b2b60405192600184526020840152604083019160018352606084015260808301604052565b92909161149c565b626a0d4560e21b5f525f60045260245ffd5b632bfa23e760e11b5f525f60045260245ffd5b3461013e57602036600319011261013e57610b71610128565b610b796112b0565b6001600160a01b03168015610bcb57600380546001600160a01b0319811683179091556001600160a01b03167f8be0079c531659141344cd1fd0a4f28419497f9722a3daafe3b4186f6b6457e05f80a3005b631e4fbdf760e01b5f525f60045260245ffd5b3461013e57606036600319011261013e57610bf7610128565b60243590600682101561013e576044359160ff8316830361013e576004546001600160a01b03163303610d2357600554915f198314610d1e5760018301600555610c4184836112e9565b9360405192610c516020856102e1565b5f84526001600160a01b038316938415610b455761028b96610cc3610d0b927f446a347ed71074962a8b80451720d6d4fe570bbdd0e70c4ce13db1ff80c0ee5796610cbd8a90604051916001835260208301526040820190600182526001606084015260808301604052565b91611658565b610cfe610cce610303565b610cd88582610d7c565b60ff86166020820152826040820152610cf9895f52600660205260405f2090565b61111a565b604051938493888561121c565b0390a26040519081529081906020820190565b6110b7565b60405162461bcd60e51b815260206004820152602b60248201527f4f6e6c792053746172466f72676547616d6520636f6e74726163742063616e2060448201526a6d696e742072656c69637360a81b6064820152608490fd5b60068210156105cf5752565b90604051610d95816102c0565b6040610dbd6001839560ff8154610dae82821688610d7c565b60081c1660208601520161090e565b910152565b5f52600660205260ff8060405f20604051610ddc816102c0565b6040610e046001845494610df287871686610d7c565b86602086019660081c1686520161090e565b91015251161615610e1757610501610859565b604051610e256020826102e1565b5f815290565b92919094610e39843361124a565b6001600160a01b038616948515610b45576001600160a01b038516958615610b33578351855190818103610fc65750505f5b8451811015610f35578060051b6020808288010151918801015190610eb089610e9b835f525f60205260405f2090565b9060018060a01b03165f5260205260405f2090565b54828110610efe57610eee8c610e9b85948d610ee060019998610ef6970391610e9b845f525f60205260405f2090565b555f525f60205260405f2090565b918254611905565b905501610e6b565b6040516303dee4c560e01b81526001600160a01b038b16600482015260248101919091526044810183905260648101829052608490fd5b506103129697929795919560018551145f14610f8c5760208581015187820151604080519283529282015233917fc3d58168c5ae7397731d063d5bbf3d657854427343f4c083240f7aacaa2d0f6291a45b33611afd565b6040517f4a39dc06d4c0dbc64b70af90fd698a233a518aa5d07e595d983b8c0526c8f7fb339180610fbe8a8a83611912565b0390a4610f86565b635b05999160e01b5f5260045260245260445ffd5b8051821015610fef5760209160051b010190565b634e487b7160e01b5f52603260045260245ffd5b919091805183518082036110a257505080519061101f82610314565b9161102d60405193846102e1565b80835261103c601f1991610314565b013660208401375f5b815181101561109b578061108a60019260051b60208082870101519189010151905f918252602082815260408084206001600160a01b03909316845291905290205490565b6110948286610fdb565b5201611045565b5090925050565b635b05999160e01b5f5260045260245260445ffd5b634e487b7160e01b5f52601160045260245ffd5b601f82116110d857505050565b5f5260205f20906020601f840160051c83019310611110575b601f0160051c01905b818110611105575050565b5f81556001016110fa565b90915081906110f1565b9190805160068110156105cf578354602083015161ff0060089190911b1660ff9290921661ffff199091161717835560400151805190926001019067ffffffffffffffff81116102dc57611178816111728454610821565b846110cb565b6020601f82116001146111b75781906111a89394955f926111ac575b50508160011b915f199060031b1c19161790565b9055565b015190505f80611194565b601f198216906111ca845f5260205f2090565b915f5b818110611204575095836001959697106111ec575b505050811b019055565b01515f1960f88460031b161c191690555f80806111e2565b9192602060018192868b0151815501940192016111cd565b90610501949361123760809460ff93855260208501906105e3565b1660408201528160608201520190610234565b6001600160a01b0391821691811690828214159081611282575b5061126d575050565b63711bec9160e11b5f5260045260245260445ffd5b5f8481526001602090815260408083206001600160a01b0390941683529290522060ff91505416155f611264565b6003546001600160a01b031633036112c457565b63118cdaa760e01b5f523360045260245ffd5b805191908290602001825e015f815290565b6112f2816105c5565b801561146157611301816105c5565b6001811461142957611312816105c5565b600281146113f157611323816105c5565b600381146113bb57806113376004926105c5565b146113825761050161134e60ff61137493166117af565b6040516b4c617374205374616e64202b60a01b6020820152928391602c83015b906112d7565b03601f1981018352826102e1565b61050161139460ff61137493166117af565b6040516e466c7578204f7665726c6f6164202b60881b6020820152928391602f830161136e565b506105016113ce60ff61137493166117af565b6040516a4563686f20436f7265202b60a81b6020820152928391602b830161136e565b5061050161140460ff61137493166117af565b6040516c4e6562756c612044617368202b60981b6020820152928391602d830161136e565b5061050161143c60ff61137493166117af565b6040516c566f696420536869656c64202b60981b6020820152928391602d830161136e565b5061050161147460ff61137493166117af565b6040516f5175616e74756d20537472696b65202b60801b60208201529283916030830161136e565b9493929091938451825190818103610fc65750506001600160a01b038681169586151595918516801515939192905f5b84518110156115a5578060051b90898988602080868b010151958c01015192611524575b93600194611502575b505050016114cc565b61151a91610e9b610eee925f525f60205260405f2090565b90555f89816114f9565b5050909161153d8d610e9b835f525f60205260405f2090565b5482811061156e578291898f611565600197968f950391610e9b855f525f60205260405f2090565b559094506114f0565b6040516303dee4c560e01b81526001600160a01b038f16600482015260248101919091526044810183905260648101829052608490fd5b5091989593929790965060018851145f1461161e5760208881015186820151604080519283529282015233917fc3d58168c5ae7397731d063d5bbf3d657854427343f4c083240f7aacaa2d0f6291a45b611601575b5050505050565b60208061161496015192015192336119b4565b5f808080806115fa565b6040517f4a39dc06d4c0dbc64b70af90fd698a233a518aa5d07e595d983b8c0526c8f7fb339180611650898d83611912565b0390a46115f5565b909392918451815190818103610fc65750506001600160a01b03821693841515935f5b87518110156116cc578086868a60208060019660051b80930101519189010151926116aa575b5050500161167b565b6116c291610e9b610eee925f525f60205260405f2090565b90555f86816116a1565b509390959460018651145f14611742576020868101518482015160408051928352928201525f9133917fc3d58168c5ae7397731d063d5bbf3d657854427343f4c083240f7aacaa2d0f629190a45b611725575b50505050565b602080611739950151910151915f336119b4565b5f80808061171f565b5f6040517f4a39dc06d4c0dbc64b70af90fd698a233a518aa5d07e595d983b8c0526c8f7fb339180611775888c83611912565b0390a461171a565b9061178782610389565b61179460405191826102e1565b82815280926117a5601f1991610389565b0190602036910137565b805f9172184f03e93ff9f4daa797ed6e38ed64bf6a1f0160401b8210156118e2575b806d04ee2d6d415b85acef8100000000600a9210156118c6575b662386f26fc100008110156118b1575b6305f5e10081101561189f575b61271081101561188f575b6064811015611880575b1015611875575b61186060216118356001850161177d565b938401015b5f1901916f181899199a1a9b1b9c1cb0b131b232b360811b600a82061a8353600a900490565b801561187057611860909161183a565b505090565b600190910190611824565b6002906064900493019261181d565b6004906127109004930192611813565b6008906305f5e1009004930192611808565b601090662386f26fc1000090049301926117fb565b6020906d04ee2d6d415b85acef810000000090049301926117eb565b506040915072184f03e93ff9f4daa797ed6e38ed64bf6a1f0160401b81046117d1565b91908201809211610d1e57565b9091611929610501936040845260408401906104bd565b9160208184039101526104bd565b9081602091031261013e5751610501816101b4565b6001600160a01b039182168152911660208201526040810191909152606081019190915260a06080820181905261050192910190610234565b3d156119af573d9061199682610389565b916119a460405193846102e1565b82523d5f602084013e565b606090565b9091949293853b6119c8575b505050505050565b6020936119ea91604051968795869563f23a6e6160e01b87526004870161194c565b03815f6001600160a01b0387165af15f9181611a79575b50611a3b5750611a0f611985565b8051919082611a3457632bfa23e760e11b5f526001600160a01b03821660045260245ffd5b6020915001fd5b6001600160e01b031916630dc5919f60e01b01611a5e57505f80808080806119c0565b632bfa23e760e11b5f526001600160a01b031660045260245ffd5b611a9c91925060203d602011611aa3575b611a9481836102e1565b810190611937565b905f611a01565b503d611a8a565b6001600160a01b0391821681529116602082015260a0604082018190526105019491939192611aef9291611ae191908601906104bd565b9084820360608601526104bd565b916080818403910152610234565b9091949293853b611b1057505050505050565b602093611b3291604051968795869563bc197c8160e01b875260048701611aaa565b03815f6001600160a01b0387165af15f9181611b7a575b50611b575750611a0f611985565b6001600160e01b0319166343e6837f60e01b01611a5e57505f80808080806119c0565b611b9491925060203d602011611aa357611a9481836102e1565b905f611b4956fea264697066735822122098498039bcc70a312fb8af96e776472354d14edf6dc24531e6c6807fb74821a364736f6c634300081e0033",
			"opcodes": "PUSH1 0x80 CALLVALUE PUSH2 0x131 JUMPI PUSH1 0x20 DUP2 ADD SWAP1 PUSH1 0x1 PUSH1 0x1 PUSH1 0x40 SHL SUB DUP3 GT DUP2 DUP4 LT OR PUSH2 0x11D JUMPI PUSH0 SWAP2 PUSH1 0x40 MSTORE MSTORE PUSH1 0x2 SLOAD PUSH1 0x1 DUP2 DUP2 SHR SWAP2 AND DUP1 ISZERO PUSH2 0x113 JUMPI JUMPDEST PUSH1 0x20 DUP3 LT EQ PUSH2 0xFF JUMPI PUSH1 0x1F DUP2 GT PUSH2 0xB7 JUMPI JUMPDEST POP PUSH0 PUSH1 0x2 SSTORE CALLER ISZERO PUSH2 0xA4 JUMPI PUSH1 0x3 DUP1 SLOAD CALLER PUSH1 0x1 PUSH1 0x1 PUSH1 0xA0 SHL SUB NOT DUP3 AND DUP2 OR SWAP1 SWAP3 SSTORE PUSH1 0x40 MLOAD SWAP2 SWAP1 PUSH1 0x1 PUSH1 0x1 PUSH1 0xA0 SHL SUB AND PUSH32 0x8BE0079C531659141344CD1FD0A4F28419497F9722A3DAAFE3B4186F6B6457E0 PUSH0 DUP1 LOG3 PUSH2 0x1BD1 SWAP1 DUP2 PUSH2 0x136 DUP3 CODECOPY RETURN JUMPDEST PUSH4 0x1E4FBDF7 PUSH1 0xE0 SHL PUSH0 MSTORE PUSH0 PUSH1 0x4 MSTORE PUSH1 0x24 PUSH0 REVERT JUMPDEST PUSH1 0x2 PUSH0 MSTORE PUSH1 0x1F ADD PUSH1 0x5 SHR PUSH32 0x405787FA12A823E0F2B7631CC41B3BA8828B3321CA811111FA75CD3AA3BB5ACE SWAP1 DUP2 ADD SWAP1 JUMPDEST DUP2 DUP2 LT PUSH2 0xF4 JUMPI POP PUSH2 0x46 JUMP JUMPDEST PUSH0 DUP2 SSTORE PUSH1 0x1 ADD PUSH2 0xE7 JUMP JUMPDEST PUSH4 0x4E487B71 PUSH1 0xE0 SHL PUSH0 MSTORE PUSH1 0x22 PUSH1 0x4 MSTORE PUSH1 0x24 PUSH0 REVERT JUMPDEST SWAP1 PUSH1 0x7F AND SWAP1 PUSH2 0x34 JUMP JUMPDEST PUSH4 0x4E487B71 PUSH1 0xE0 SHL PUSH0 MSTORE PUSH1 0x41 PUSH1 0x4 MSTORE PUSH1 0x24 PUSH0 REVERT JUMPDEST PUSH0 DUP1 REVERT INVALID PUSH1 0x80 PUSH1 0x40 MSTORE PUSH1 0x4 CALLDATASIZE LT ISZERO PUSH2 0x11 JUMPI PUSH0 DUP1 REVERT JUMPDEST PUSH0 CALLDATALOAD PUSH1 0xE0 SHR DUP1 PUSH3 0xFDD58E EQ PUSH2 0x123 JUMPI DUP1 PUSH4 0x1FFC9A7 EQ PUSH2 0x11E JUMPI DUP1 PUSH4 0xE89341C EQ PUSH2 0x119 JUMPI DUP1 PUSH4 0x18160DDD EQ PUSH2 0x114 JUMPI DUP1 PUSH4 0x2EB2C2D6 EQ PUSH2 0x10F JUMPI DUP1 PUSH4 0x405EBD4D EQ PUSH2 0x10A JUMPI DUP1 PUSH4 0x4E1273F4 EQ PUSH2 0x105 JUMPI DUP1 PUSH4 0x68972D59 EQ PUSH2 0x100 JUMPI DUP1 PUSH4 0x715018A6 EQ PUSH2 0xFB JUMPI DUP1 PUSH4 0x8DA5CB5B EQ PUSH2 0xF6 JUMPI DUP1 PUSH4 0xA22CB465 EQ PUSH2 0xF1 JUMPI DUP1 PUSH4 0xB496DA8B EQ PUSH2 0xEC JUMPI DUP1 PUSH4 0xD3F33009 EQ PUSH2 0xE7 JUMPI DUP1 PUSH4 0xE985E9C5 EQ PUSH2 0xE2 JUMPI DUP1 PUSH4 0xF242432A EQ PUSH2 0xDD JUMPI DUP1 PUSH4 0xF2FDE38B EQ PUSH2 0xD8 JUMPI PUSH4 0xF925B741 EQ PUSH2 0xD3 JUMPI PUSH0 DUP1 REVERT JUMPDEST PUSH2 0xBDE JUMP JUMPDEST PUSH2 0xB58 JUMP JUMPDEST PUSH2 0xA8E JUMP JUMPDEST PUSH2 0xA32 JUMP JUMPDEST PUSH2 0xA0A JUMP JUMPDEST PUSH2 0x9AC JUMP JUMPDEST PUSH2 0x754 JUMP JUMPDEST PUSH2 0x72C JUMP JUMPDEST PUSH2 0x6D1 JUMP JUMPDEST PUSH2 0x626 JUMP JUMPDEST PUSH2 0x504 JUMP JUMPDEST PUSH2 0x47A JUMP JUMPDEST PUSH2 0x3EB JUMP JUMPDEST PUSH2 0x28F JUMP JUMPDEST PUSH2 0x258 JUMP JUMPDEST PUSH2 0x1C6 JUMP JUMPDEST PUSH2 0x16C JUMP JUMPDEST PUSH1 0x4 CALLDATALOAD SWAP1 PUSH1 0x1 PUSH1 0x1 PUSH1 0xA0 SHL SUB DUP3 AND DUP3 SUB PUSH2 0x13E JUMPI JUMP JUMPDEST PUSH0 DUP1 REVERT JUMPDEST PUSH1 0x24 CALLDATALOAD SWAP1 PUSH1 0x1 PUSH1 0x1 PUSH1 0xA0 SHL SUB DUP3 AND DUP3 SUB PUSH2 0x13E JUMPI JUMP JUMPDEST CALLDATALOAD SWAP1 PUSH1 0x1 PUSH1 0x1 PUSH1 0xA0 SHL SUB DUP3 AND DUP3 SUB PUSH2 0x13E JUMPI JUMP JUMPDEST CALLVALUE PUSH2 0x13E JUMPI PUSH1 0x40 CALLDATASIZE PUSH1 0x3 NOT ADD SLT PUSH2 0x13E JUMPI PUSH1 0x20 PUSH2 0x1AB PUSH2 0x18A PUSH2 0x128 JUMP JUMPDEST PUSH1 0x24 CALLDATALOAD PUSH0 MSTORE PUSH0 DUP4 MSTORE PUSH1 0x40 PUSH0 KECCAK256 SWAP1 PUSH1 0x1 DUP1 PUSH1 0xA0 SHL SUB AND PUSH0 MSTORE PUSH1 0x20 MSTORE PUSH1 0x40 PUSH0 KECCAK256 SWAP1 JUMP JUMPDEST SLOAD PUSH1 0x40 MLOAD SWAP1 DUP2 MSTORE RETURN JUMPDEST PUSH1 0x1 PUSH1 0x1 PUSH1 0xE0 SHL SUB NOT DUP2 AND SUB PUSH2 0x13E JUMPI JUMP JUMPDEST CALLVALUE PUSH2 0x13E JUMPI PUSH1 0x20 CALLDATASIZE PUSH1 0x3 NOT ADD SLT PUSH2 0x13E JUMPI PUSH1 0x20 PUSH1 0x4 CALLDATALOAD PUSH2 0x1E5 DUP2 PUSH2 0x1B4 JUMP JUMPDEST PUSH4 0xFFFFFFFF PUSH1 0xE0 SHL AND PUSH4 0x6CDB3D13 PUSH1 0xE1 SHL DUP2 EQ SWAP1 DUP2 ISZERO PUSH2 0x223 JUMPI JUMPDEST DUP2 ISZERO PUSH2 0x212 JUMPI JUMPDEST POP PUSH1 0x40 MLOAD SWAP1 ISZERO ISZERO DUP2 MSTORE RETURN JUMPDEST PUSH4 0x1FFC9A7 PUSH1 0xE0 SHL EQ SWAP1 POP PUSH0 PUSH2 0x207 JUMP JUMPDEST PUSH4 0x3A24D07 PUSH1 0xE2 SHL DUP2 EQ SWAP2 POP PUSH2 0x200 JUMP JUMPDEST DUP1 MLOAD DUP1 DUP4 MSTORE PUSH1 0x20 SWAP3 SWAP2 DUP2 SWAP1 DUP5 ADD DUP5 DUP5 ADD MCOPY PUSH0 DUP3 DUP3 ADD DUP5 ADD MSTORE PUSH1 0x1F ADD PUSH1 0x1F NOT AND ADD ADD SWAP1 JUMP JUMPDEST CALLVALUE PUSH2 0x13E JUMPI PUSH1 0x20 CALLDATASIZE PUSH1 0x3 NOT ADD SLT PUSH2 0x13E JUMPI PUSH2 0x28B PUSH2 0x277 PUSH1 0x4 CALLDATALOAD PUSH2 0xDC2 JUMP JUMPDEST PUSH1 0x40 MLOAD SWAP2 DUP3 SWAP2 PUSH1 0x20 DUP4 MSTORE PUSH1 0x20 DUP4 ADD SWAP1 PUSH2 0x234 JUMP JUMPDEST SUB SWAP1 RETURN JUMPDEST CALLVALUE PUSH2 0x13E JUMPI PUSH0 CALLDATASIZE PUSH1 0x3 NOT ADD SLT PUSH2 0x13E JUMPI PUSH1 0x20 PUSH1 0x5 SLOAD PUSH1 0x40 MLOAD SWAP1 DUP2 MSTORE RETURN JUMPDEST PUSH4 0x4E487B71 PUSH1 0xE0 SHL PUSH0 MSTORE PUSH1 0x41 PUSH1 0x4 MSTORE PUSH1 0x24 PUSH0 REVERT JUMPDEST PUSH1 0x60 DUP2 ADD SWAP1 DUP2 LT PUSH8 0xFFFFFFFFFFFFFFFF DUP3 GT OR PUSH2 0x2DC JUMPI PUSH1 0x40 MSTORE JUMP JUMPDEST PUSH2 0x2AC JUMP JUMPDEST SWAP1 PUSH1 0x1F DUP1 NOT SWAP2 ADD AND DUP2 ADD SWAP1 DUP2 LT PUSH8 0xFFFFFFFFFFFFFFFF DUP3 GT OR PUSH2 0x2DC JUMPI PUSH1 0x40 MSTORE JUMP JUMPDEST PUSH1 0x40 MLOAD SWAP1 PUSH2 0x312 PUSH1 0x60 DUP4 PUSH2 0x2E1 JUMP JUMPDEST JUMP JUMPDEST PUSH8 0xFFFFFFFFFFFFFFFF DUP2 GT PUSH2 0x2DC JUMPI PUSH1 0x5 SHL PUSH1 0x20 ADD SWAP1 JUMP JUMPDEST SWAP1 DUP1 PUSH1 0x1F DUP4 ADD SLT ISZERO PUSH2 0x13E JUMPI DUP2 CALLDATALOAD PUSH2 0x343 DUP2 PUSH2 0x314 JUMP JUMPDEST SWAP3 PUSH2 0x351 PUSH1 0x40 MLOAD SWAP5 DUP6 PUSH2 0x2E1 JUMP JUMPDEST DUP2 DUP5 MSTORE PUSH1 0x20 DUP1 DUP6 ADD SWAP3 PUSH1 0x5 SHL DUP3 ADD ADD SWAP3 DUP4 GT PUSH2 0x13E JUMPI PUSH1 0x20 ADD SWAP1 JUMPDEST DUP3 DUP3 LT PUSH2 0x379 JUMPI POP POP POP SWAP1 JUMP JUMPDEST DUP2 CALLDATALOAD DUP2 MSTORE PUSH1 0x20 SWAP2 DUP3 ADD SWAP2 ADD PUSH2 0x36C JUMP JUMPDEST PUSH8 0xFFFFFFFFFFFFFFFF DUP2 GT PUSH2 0x2DC JUMPI PUSH1 0x1F ADD PUSH1 0x1F NOT AND PUSH1 0x20 ADD SWAP1 JUMP JUMPDEST DUP2 PUSH1 0x1F DUP3 ADD SLT ISZERO PUSH2 0x13E JUMPI DUP1 CALLDATALOAD SWAP1 PUSH2 0x3BC DUP3 PUSH2 0x389 JUMP JUMPDEST SWAP3 PUSH2 0x3CA PUSH1 0x40 MLOAD SWAP5 DUP6 PUSH2 0x2E1 JUMP JUMPDEST DUP3 DUP5 MSTORE PUSH1 0x20 DUP4 DUP4 ADD ADD GT PUSH2 0x13E JUMPI DUP2 PUSH0 SWAP3 PUSH1 0x20 DUP1 SWAP4 ADD DUP4 DUP7 ADD CALLDATACOPY DUP4 ADD ADD MSTORE SWAP1 JUMP JUMPDEST CALLVALUE PUSH2 0x13E JUMPI PUSH1 0xA0 CALLDATASIZE PUSH1 0x3 NOT ADD SLT PUSH2 0x13E JUMPI PUSH2 0x404 PUSH2 0x128 JUMP JUMPDEST PUSH2 0x40C PUSH2 0x142 JUMP JUMPDEST SWAP1 PUSH1 0x44 CALLDATALOAD PUSH8 0xFFFFFFFFFFFFFFFF DUP2 GT PUSH2 0x13E JUMPI PUSH2 0x42D SWAP1 CALLDATASIZE SWAP1 PUSH1 0x4 ADD PUSH2 0x32C JUMP JUMPDEST PUSH1 0x64 CALLDATALOAD PUSH8 0xFFFFFFFFFFFFFFFF DUP2 GT PUSH2 0x13E JUMPI PUSH2 0x44D SWAP1 CALLDATASIZE SWAP1 PUSH1 0x4 ADD PUSH2 0x32C JUMP JUMPDEST SWAP1 PUSH1 0x84 CALLDATALOAD SWAP4 PUSH8 0xFFFFFFFFFFFFFFFF DUP6 GT PUSH2 0x13E JUMPI PUSH2 0x472 PUSH2 0x478 SWAP6 CALLDATASIZE SWAP1 PUSH1 0x4 ADD PUSH2 0x3A5 JUMP JUMPDEST SWAP4 PUSH2 0xE2B JUMP JUMPDEST STOP JUMPDEST CALLVALUE PUSH2 0x13E JUMPI PUSH1 0x20 CALLDATASIZE PUSH1 0x3 NOT ADD SLT PUSH2 0x13E JUMPI PUSH2 0x493 PUSH2 0x128 JUMP JUMPDEST PUSH2 0x49B PUSH2 0x12B0 JUMP JUMPDEST PUSH1 0x4 DUP1 SLOAD PUSH1 0x1 PUSH1 0x1 PUSH1 0xA0 SHL SUB NOT AND PUSH1 0x1 PUSH1 0x1 PUSH1 0xA0 SHL SUB SWAP3 SWAP1 SWAP3 AND SWAP2 SWAP1 SWAP2 OR SWAP1 SSTORE STOP JUMPDEST SWAP1 PUSH1 0x20 DUP1 DUP4 MLOAD SWAP3 DUP4 DUP2 MSTORE ADD SWAP3 ADD SWAP1 PUSH0 JUMPDEST DUP2 DUP2 LT PUSH2 0x4DA JUMPI POP POP POP SWAP1 JUMP JUMPDEST DUP3 MLOAD DUP5 MSTORE PUSH1 0x20 SWAP4 DUP5 ADD SWAP4 SWAP1 SWAP3 ADD SWAP2 PUSH1 0x1 ADD PUSH2 0x4CD JUMP JUMPDEST SWAP1 PUSH1 0x20 PUSH2 0x501 SWAP3 DUP2 DUP2 MSTORE ADD SWAP1 PUSH2 0x4BD JUMP JUMPDEST SWAP1 JUMP JUMPDEST CALLVALUE PUSH2 0x13E JUMPI PUSH1 0x40 CALLDATASIZE PUSH1 0x3 NOT ADD SLT PUSH2 0x13E JUMPI PUSH1 0x4 CALLDATALOAD PUSH8 0xFFFFFFFFFFFFFFFF DUP2 GT PUSH2 0x13E JUMPI CALLDATASIZE PUSH1 0x23 DUP3 ADD SLT ISZERO PUSH2 0x13E JUMPI DUP1 PUSH1 0x4 ADD CALLDATALOAD SWAP1 PUSH2 0x541 DUP3 PUSH2 0x314 JUMP JUMPDEST SWAP2 PUSH2 0x54F PUSH1 0x40 MLOAD SWAP4 DUP5 PUSH2 0x2E1 JUMP JUMPDEST DUP1 DUP4 MSTORE PUSH1 0x24 PUSH1 0x20 DUP5 ADD SWAP2 PUSH1 0x5 SHL DUP4 ADD ADD SWAP2 CALLDATASIZE DUP4 GT PUSH2 0x13E JUMPI PUSH1 0x24 ADD SWAP1 JUMPDEST DUP3 DUP3 LT PUSH2 0x5AD JUMPI DUP4 PUSH1 0x24 CALLDATALOAD PUSH8 0xFFFFFFFFFFFFFFFF DUP2 GT PUSH2 0x13E JUMPI PUSH2 0x28B SWAP2 PUSH2 0x59B PUSH2 0x5A1 SWAP3 CALLDATASIZE SWAP1 PUSH1 0x4 ADD PUSH2 0x32C JUMP JUMPDEST SWAP1 PUSH2 0x1003 JUMP JUMPDEST PUSH1 0x40 MLOAD SWAP2 DUP3 SWAP2 DUP3 PUSH2 0x4F0 JUMP JUMPDEST PUSH1 0x20 DUP1 SWAP2 PUSH2 0x5BA DUP5 PUSH2 0x158 JUMP JUMPDEST DUP2 MSTORE ADD SWAP2 ADD SWAP1 PUSH2 0x56C JUMP JUMPDEST PUSH1 0x6 GT ISZERO PUSH2 0x5CF JUMPI JUMP JUMPDEST PUSH4 0x4E487B71 PUSH1 0xE0 SHL PUSH0 MSTORE PUSH1 0x21 PUSH1 0x4 MSTORE PUSH1 0x24 PUSH0 REVERT JUMPDEST SWAP1 PUSH1 0x6 DUP3 LT ISZERO PUSH2 0x5CF JUMPI MSTORE JUMP JUMPDEST PUSH1 0x80 PUSH1 0x40 PUSH2 0x501 SWAP4 PUSH1 0x20 DUP5 MSTORE PUSH2 0x60A PUSH1 0x20 DUP6 ADD DUP3 MLOAD PUSH2 0x5E3 JUMP JUMPDEST PUSH1 0xFF PUSH1 0x20 DUP3 ADD MLOAD AND DUP3 DUP6 ADD MSTORE ADD MLOAD SWAP2 PUSH1 0x60 DUP1 DUP3 ADD MSTORE ADD SWAP1 PUSH2 0x234 JUMP JUMPDEST CALLVALUE PUSH2 0x13E JUMPI PUSH1 0x20 CALLDATASIZE PUSH1 0x3 NOT ADD SLT PUSH2 0x13E JUMPI PUSH1 0x4 CALLDATALOAD PUSH1 0x60 PUSH1 0x40 DUP1 MLOAD PUSH2 0x649 DUP2 PUSH2 0x2C0 JUMP JUMPDEST PUSH0 DUP2 MSTORE PUSH0 PUSH1 0x20 DUP3 ADD MSTORE ADD MSTORE DUP1 PUSH0 MSTORE PUSH1 0x6 PUSH1 0x20 MSTORE PUSH1 0xFF PUSH1 0x40 PUSH0 KECCAK256 SLOAD PUSH1 0x8 SHR AND ISZERO PUSH2 0x695 JUMPI PUSH2 0x689 PUSH2 0x684 PUSH2 0x28B SWAP3 PUSH0 MSTORE PUSH1 0x6 PUSH1 0x20 MSTORE PUSH1 0x40 PUSH0 KECCAK256 SWAP1 JUMP JUMPDEST PUSH2 0xD88 JUMP JUMPDEST PUSH1 0x40 MLOAD SWAP2 DUP3 SWAP2 DUP3 PUSH2 0x5F0 JUMP JUMPDEST PUSH1 0x40 MLOAD PUSH3 0x461BCD PUSH1 0xE5 SHL DUP2 MSTORE PUSH1 0x20 PUSH1 0x4 DUP3 ADD MSTORE PUSH1 0x14 PUSH1 0x24 DUP3 ADD MSTORE PUSH20 0x14995B1A58C8191BD95CC81B9BDD08195E1A5CDD PUSH1 0x62 SHL PUSH1 0x44 DUP3 ADD MSTORE PUSH1 0x64 SWAP1 REVERT JUMPDEST CALLVALUE PUSH2 0x13E JUMPI PUSH0 CALLDATASIZE PUSH1 0x3 NOT ADD SLT PUSH2 0x13E JUMPI PUSH2 0x6E9 PUSH2 0x12B0 JUMP JUMPDEST PUSH1 0x3 DUP1 SLOAD PUSH1 0x1 PUSH1 0x1 PUSH1 0xA0 SHL SUB NOT DUP2 AND SWAP1 SWAP2 SSTORE PUSH0 SWAP1 PUSH1 0x1 PUSH1 0x1 PUSH1 0xA0 SHL SUB AND PUSH32 0x8BE0079C531659141344CD1FD0A4F28419497F9722A3DAAFE3B4186F6B6457E0 DUP3 DUP1 LOG3 STOP JUMPDEST CALLVALUE PUSH2 0x13E JUMPI PUSH0 CALLDATASIZE PUSH1 0x3 NOT ADD SLT PUSH2 0x13E JUMPI PUSH1 0x3 SLOAD PUSH1 0x40 MLOAD PUSH1 0x1 PUSH1 0x1 PUSH1 0xA0 SHL SUB SWAP1 SWAP2 AND DUP2 MSTORE PUSH1 0x20 SWAP1 RETURN JUMPDEST CALLVALUE PUSH2 0x13E JUMPI PUSH1 0x40 CALLDATASIZE PUSH1 0x3 NOT ADD SLT PUSH2 0x13E JUMPI PUSH2 0x76D PUSH2 0x128 JUMP JUMPDEST PUSH1 0x24 CALLDATALOAD DUP1 ISZERO ISZERO DUP2 SUB PUSH2 0x13E JUMPI CALLER ISZERO PUSH2 0x80E JUMPI PUSH1 0x1 PUSH1 0x1 PUSH1 0xA0 SHL SUB DUP3 AND SWAP2 DUP3 ISZERO PUSH2 0x7FC JUMPI DUP2 PUSH2 0x7B9 PUSH2 0x7CA SWAP3 CALLER PUSH0 MSTORE PUSH1 0x1 PUSH1 0x20 MSTORE PUSH1 0x40 PUSH0 KECCAK256 SWAP1 PUSH1 0x1 DUP1 PUSH1 0xA0 SHL SUB AND PUSH0 MSTORE PUSH1 0x20 MSTORE PUSH1 0x40 PUSH0 KECCAK256 SWAP1 JUMP JUMPDEST SWAP1 PUSH1 0xFF DUP1 NOT DUP4 SLOAD AND SWAP2 ISZERO ISZERO AND OR SWAP1 SSTORE JUMP JUMPDEST PUSH1 0x40 MLOAD SWAP1 ISZERO ISZERO DUP2 MSTORE CALLER SWAP1 PUSH32 0x17307EAB39AB6107E8899845AD3D59BD9653F200F220920489CA2B5937696C31 SWAP1 PUSH1 0x20 SWAP1 LOG3 STOP JUMPDEST PUSH3 0xCED3E1 PUSH1 0xE8 SHL PUSH0 MSTORE PUSH0 PUSH1 0x4 MSTORE PUSH1 0x24 PUSH0 REVERT JUMPDEST PUSH4 0x1F18C427 PUSH1 0xE1 SHL PUSH0 MSTORE PUSH0 PUSH1 0x4 MSTORE PUSH1 0x24 PUSH0 REVERT JUMPDEST SWAP1 PUSH1 0x1 DUP3 DUP2 SHR SWAP3 AND DUP1 ISZERO PUSH2 0x84F JUMPI JUMPDEST PUSH1 0x20 DUP4 LT EQ PUSH2 0x83B JUMPI JUMP JUMPDEST PUSH4 0x4E487B71 PUSH1 0xE0 SHL PUSH0 MSTORE PUSH1 0x22 PUSH1 0x4 MSTORE PUSH1 0x24 PUSH0 REVERT JUMPDEST SWAP2 PUSH1 0x7F AND SWAP2 PUSH2 0x830 JUMP JUMPDEST PUSH1 0x40 MLOAD SWAP1 PUSH0 DUP3 PUSH1 0x2 SLOAD SWAP2 PUSH2 0x86C DUP4 PUSH2 0x821 JUMP JUMPDEST DUP1 DUP4 MSTORE SWAP3 PUSH1 0x1 DUP2 AND SWAP1 DUP2 ISZERO PUSH2 0x8EF JUMPI POP PUSH1 0x1 EQ PUSH2 0x890 JUMPI JUMPDEST PUSH2 0x312 SWAP3 POP SUB DUP4 PUSH2 0x2E1 JUMP JUMPDEST POP PUSH1 0x2 PUSH0 SWAP1 DUP2 MSTORE SWAP1 SWAP2 PUSH32 0x405787FA12A823E0F2B7631CC41B3BA8828B3321CA811111FA75CD3AA3BB5ACE JUMPDEST DUP2 DUP4 LT PUSH2 0x8D3 JUMPI POP POP SWAP1 PUSH1 0x20 PUSH2 0x312 SWAP3 DUP3 ADD ADD PUSH2 0x884 JUMP JUMPDEST PUSH1 0x20 SWAP2 SWAP4 POP DUP1 PUSH1 0x1 SWAP2 SLOAD DUP4 DUP6 DUP10 ADD ADD MSTORE ADD SWAP2 ADD SWAP1 SWAP2 DUP5 SWAP3 PUSH2 0x8BB JUMP JUMPDEST PUSH1 0x20 SWAP3 POP PUSH2 0x312 SWAP5 SWAP2 POP PUSH1 0xFF NOT AND DUP3 DUP5 ADD MSTORE ISZERO ISZERO PUSH1 0x5 SHL DUP3 ADD ADD PUSH2 0x884 JUMP JUMPDEST SWAP1 PUSH1 0x40 MLOAD SWAP2 DUP3 PUSH0 DUP3 SLOAD SWAP3 PUSH2 0x921 DUP5 PUSH2 0x821 JUMP JUMPDEST DUP1 DUP5 MSTORE SWAP4 PUSH1 0x1 DUP2 AND SWAP1 DUP2 ISZERO PUSH2 0x98A JUMPI POP PUSH1 0x1 EQ PUSH2 0x946 JUMPI JUMPDEST POP PUSH2 0x312 SWAP3 POP SUB DUP4 PUSH2 0x2E1 JUMP JUMPDEST SWAP1 POP PUSH0 SWAP3 SWAP2 SWAP3 MSTORE PUSH1 0x20 PUSH0 KECCAK256 SWAP1 PUSH0 SWAP2 JUMPDEST DUP2 DUP4 LT PUSH2 0x96E JUMPI POP POP SWAP1 PUSH1 0x20 PUSH2 0x312 SWAP3 DUP3 ADD ADD PUSH0 PUSH2 0x939 JUMP JUMPDEST PUSH1 0x20 SWAP2 SWAP4 POP DUP1 PUSH1 0x1 SWAP2 SLOAD DUP4 DUP6 DUP10 ADD ADD MSTORE ADD SWAP2 ADD SWAP1 SWAP2 DUP5 SWAP3 PUSH2 0x955 JUMP JUMPDEST SWAP1 POP PUSH1 0x20 SWAP3 POP PUSH2 0x312 SWAP5 SWAP2 POP PUSH1 0xFF NOT AND DUP3 DUP5 ADD MSTORE ISZERO ISZERO PUSH1 0x5 SHL DUP3 ADD ADD PUSH0 PUSH2 0x939 JUMP JUMPDEST CALLVALUE PUSH2 0x13E JUMPI PUSH1 0x20 CALLDATASIZE PUSH1 0x3 NOT ADD SLT PUSH2 0x13E JUMPI PUSH1 0x4 CALLDATALOAD PUSH0 MSTORE PUSH1 0x6 PUSH1 0x20 MSTORE PUSH1 0xFF PUSH1 0x40 PUSH0 KECCAK256 PUSH2 0x28B PUSH2 0x9DE PUSH1 0x1 DUP4 SLOAD SWAP4 ADD PUSH2 0x90E JUMP JUMPDEST PUSH1 0x40 MLOAD SWAP4 DUP4 PUSH2 0x9F0 DUP7 DUP4 DUP2 SWAP8 AND PUSH2 0x5E3 JUMP JUMPDEST PUSH1 0x8 SHR AND PUSH1 0x20 DUP5 ADD MSTORE PUSH1 0x60 PUSH1 0x40 DUP5 ADD MSTORE PUSH1 0x60 DUP4 ADD SWAP1 PUSH2 0x234 JUMP JUMPDEST CALLVALUE PUSH2 0x13E JUMPI PUSH0 CALLDATASIZE PUSH1 0x3 NOT ADD SLT PUSH2 0x13E JUMPI PUSH1 0x4 SLOAD PUSH1 0x40 MLOAD PUSH1 0x1 PUSH1 0x1 PUSH1 0xA0 SHL SUB SWAP1 SWAP2 AND DUP2 MSTORE PUSH1 0x20 SWAP1 RETURN JUMPDEST CALLVALUE PUSH2 0x13E JUMPI PUSH1 0x40 CALLDATASIZE PUSH1 0x3 NOT ADD SLT PUSH2 0x13E JUMPI PUSH1 0x20 PUSH1 0xFF PUSH2 0xA82 PUSH2 0xA52 PUSH2 0x128 JUMP JUMPDEST PUSH2 0xA5A PUSH2 0x142 JUMP JUMPDEST PUSH1 0x1 PUSH1 0x1 PUSH1 0xA0 SHL SUB SWAP2 DUP3 AND PUSH0 SWAP1 DUP2 MSTORE PUSH1 0x1 DUP7 MSTORE PUSH1 0x40 DUP1 DUP3 KECCAK256 SWAP3 SWAP1 SWAP4 AND DUP2 MSTORE PUSH1 0x20 SWAP2 SWAP1 SWAP2 MSTORE KECCAK256 SWAP1 JUMP JUMPDEST SLOAD AND PUSH1 0x40 MLOAD SWAP1 ISZERO ISZERO DUP2 MSTORE RETURN JUMPDEST CALLVALUE PUSH2 0x13E JUMPI PUSH1 0xA0 CALLDATASIZE PUSH1 0x3 NOT ADD SLT PUSH2 0x13E JUMPI PUSH2 0xAA7 PUSH2 0x128 JUMP JUMPDEST PUSH2 0xAAF PUSH2 0x142 JUMP JUMPDEST PUSH1 0x44 CALLDATALOAD SWAP1 PUSH1 0x64 CALLDATALOAD SWAP3 PUSH1 0x84 CALLDATALOAD PUSH8 0xFFFFFFFFFFFFFFFF DUP2 GT PUSH2 0x13E JUMPI PUSH2 0xAD7 SWAP1 CALLDATASIZE SWAP1 PUSH1 0x4 ADD PUSH2 0x3A5 JUMP JUMPDEST SWAP3 PUSH2 0xAE2 DUP3 CALLER PUSH2 0x124A JUMP JUMPDEST PUSH1 0x1 PUSH1 0x1 PUSH1 0xA0 SHL SUB DUP4 AND ISZERO PUSH2 0xB45 JUMPI PUSH1 0x1 PUSH1 0x1 PUSH1 0xA0 SHL SUB DUP3 AND ISZERO PUSH2 0xB33 JUMPI PUSH2 0x478 SWAP5 PUSH2 0xB2B PUSH1 0x40 MLOAD SWAP3 PUSH1 0x1 DUP5 MSTORE PUSH1 0x20 DUP5 ADD MSTORE PUSH1 0x40 DUP4 ADD SWAP2 PUSH1 0x1 DUP4 MSTORE PUSH1 0x60 DUP5 ADD MSTORE PUSH1 0x80 DUP4 ADD PUSH1 0x40 MSTORE JUMP JUMPDEST SWAP3 SWAP1 SWAP2 PUSH2 0x149C JUMP JUMPDEST PUSH3 0x6A0D45 PUSH1 0xE2 SHL PUSH0 MSTORE PUSH0 PUSH1 0x4 MSTORE PUSH1 0x24 PUSH0 REVERT JUMPDEST PUSH4 0x2BFA23E7 PUSH1 0xE1 SHL PUSH0 MSTORE PUSH0 PUSH1 0x4 MSTORE PUSH1 0x24 PUSH0 REVERT JUMPDEST CALLVALUE PUSH2 0x13E JUMPI PUSH1 0x20 CALLDATASIZE PUSH1 0x3 NOT ADD SLT PUSH2 0x13E JUMPI PUSH2 0xB71 PUSH2 0x128 JUMP JUMPDEST PUSH2 0xB79 PUSH2 0x12B0 JUMP JUMPDEST PUSH1 0x1 PUSH1 0x1 PUSH1 0xA0 SHL SUB AND DUP1 ISZERO PUSH2 0xBCB JUMPI PUSH1 0x3 DUP1 SLOAD PUSH1 0x1 PUSH1 0x1 PUSH1 0xA0 SHL SUB NOT DUP2 AND DUP4 OR SWAP1 SWAP2 SSTORE PUSH1 0x1 PUSH1 0x1 PUSH1 0xA0 SHL SUB AND PUSH32 0x8BE0079C531659141344CD1FD0A4F28419497F9722A3DAAFE3B4186F6B6457E0 PUSH0 DUP1 LOG3 STOP JUMPDEST PUSH4 0x1E4FBDF7 PUSH1 0xE0 SHL PUSH0 MSTORE PUSH0 PUSH1 0x4 MSTORE PUSH1 0x24 PUSH0 REVERT JUMPDEST CALLVALUE PUSH2 0x13E JUMPI PUSH1 0x60 CALLDATASIZE PUSH1 0x3 NOT ADD SLT PUSH2 0x13E JUMPI PUSH2 0xBF7 PUSH2 0x128 JUMP JUMPDEST PUSH1 0x24 CALLDATALOAD SWAP1 PUSH1 0x6 DUP3 LT ISZERO PUSH2 0x13E JUMPI PUSH1 0x44 CALLDATALOAD SWAP2 PUSH1 0xFF DUP4 AND DUP4 SUB PUSH2 0x13E JUMPI PUSH1 0x4 SLOAD PUSH1 0x1 PUSH1 0x1 PUSH1 0xA0 SHL SUB AND CALLER SUB PUSH2 0xD23 JUMPI PUSH1 0x5 SLOAD SWAP2 PUSH0 NOT DUP4 EQ PUSH2 0xD1E JUMPI PUSH1 0x1 DUP4 ADD PUSH1 0x5 SSTORE PUSH2 0xC41 DUP5 DUP4 PUSH2 0x12E9 JUMP JUMPDEST SWAP4 PUSH1 0x40 MLOAD SWAP3 PUSH2 0xC51 PUSH1 0x20 DUP6 PUSH2 0x2E1 JUMP JUMPDEST PUSH0 DUP5 MSTORE PUSH1 0x1 PUSH1 0x1 PUSH1 0xA0 SHL SUB DUP4 AND SWAP4 DUP5 ISZERO PUSH2 0xB45 JUMPI PUSH2 0x28B SWAP7 PUSH2 0xCC3 PUSH2 0xD0B SWAP3 PUSH32 0x446A347ED71074962A8B80451720D6D4FE570BBDD0E70C4CE13DB1FF80C0EE57 SWAP7 PUSH2 0xCBD DUP11 SWAP1 PUSH1 0x40 MLOAD SWAP2 PUSH1 0x1 DUP4 MSTORE PUSH1 0x20 DUP4 ADD MSTORE PUSH1 0x40 DUP3 ADD SWAP1 PUSH1 0x1 DUP3 MSTORE PUSH1 0x1 PUSH1 0x60 DUP5 ADD MSTORE PUSH1 0x80 DUP4 ADD PUSH1 0x40 MSTORE JUMP JUMPDEST SWAP2 PUSH2 0x1658 JUMP JUMPDEST PUSH2 0xCFE PUSH2 0xCCE PUSH2 0x303 JUMP JUMPDEST PUSH2 0xCD8 DUP6 DUP3 PUSH2 0xD7C JUMP JUMPDEST PUSH1 0xFF DUP7 AND PUSH1 0x20 DUP3 ADD MSTORE DUP3 PUSH1 0x40 DUP3 ADD MSTORE PUSH2 0xCF9 DUP10 PUSH0 MSTORE PUSH1 0x6 PUSH1 0x20 MSTORE PUSH1 0x40 PUSH0 KECCAK256 SWAP1 JUMP JUMPDEST PUSH2 0x111A JUMP JUMPDEST PUSH1 0x40 MLOAD SWAP4 DUP5 SWAP4 DUP9 DUP6 PUSH2 0x121C JUMP JUMPDEST SUB SWAP1 LOG2 PUSH1 0x40 MLOAD SWAP1 DUP2 MSTORE SWAP1 DUP2 SWAP1 PUSH1 0x20 DUP3 ADD SWAP1 JUMP JUMPDEST PUSH2 0x10B7 JUMP JUMPDEST PUSH1 0x40 MLOAD PUSH3 0x461BCD PUSH1 0xE5 SHL DUP2 MSTORE PUSH1 0x20 PUSH1 0x4 DUP3 ADD MSTORE PUSH1 0x2B PUSH1 0x24 DUP3 ADD MSTORE PUSH32 0x4F6E6C792053746172466F72676547616D6520636F6E74726163742063616E20 PUSH1 0x44 DUP3 ADD MSTORE PUSH11 0x6D696E742072656C696373 PUSH1 0xA8 SHL PUSH1 0x64 DUP3 ADD MSTORE PUSH1 0x84 SWAP1 REVERT JUMPDEST PUSH1 0x6 DUP3 LT ISZERO PUSH2 0x5CF JUMPI MSTORE JUMP JUMPDEST SWAP1 PUSH1 0x40 MLOAD PUSH2 0xD95 DUP2 PUSH2 0x2C0 JUMP JUMPDEST PUSH1 0x40 PUSH2 0xDBD PUSH1 0x1 DUP4 SWAP6 PUSH1 0xFF DUP2 SLOAD PUSH2 0xDAE DUP3 DUP3 AND DUP9 PUSH2 0xD7C JUMP JUMPDEST PUSH1 0x8 SHR AND PUSH1 0x20 DUP7 ADD MSTORE ADD PUSH2 0x90E JUMP JUMPDEST SWAP2 ADD MSTORE JUMP JUMPDEST PUSH0 MSTORE PUSH1 0x6 PUSH1 0x20 MSTORE PUSH1 0xFF DUP1 PUSH1 0x40 PUSH0 KECCAK256 PUSH1 0x40 MLOAD PUSH2 0xDDC DUP2 PUSH2 0x2C0 JUMP JUMPDEST PUSH1 0x40 PUSH2 0xE04 PUSH1 0x1 DUP5 SLOAD SWAP5 PUSH2 0xDF2 DUP8 DUP8 AND DUP7 PUSH2 0xD7C JUMP JUMPDEST DUP7 PUSH1 0x20 DUP7 ADD SWAP7 PUSH1 0x8 SHR AND DUP7 MSTORE ADD PUSH2 0x90E JUMP JUMPDEST SWAP2 ADD MSTORE MLOAD AND AND ISZERO PUSH2 0xE17 JUMPI PUSH2 0x501 PUSH2 0x859 JUMP JUMPDEST PUSH1 0x40 MLOAD PUSH2 0xE25 PUSH1 0x20 DUP3 PUSH2 0x2E1 JUMP JUMPDEST PUSH0 DUP2 MSTORE SWAP1 JUMP JUMPDEST SWAP3 SWAP2 SWAP1 SWAP5 PUSH2 0xE39 DUP5 CALLER PUSH2 0x124A JUMP JUMPDEST PUSH1 0x1 PUSH1 0x1 PUSH1 0xA0 SHL SUB DUP7 AND SWAP5 DUP6 ISZERO PUSH2 0xB45 JUMPI PUSH1 0x1 PUSH1 0x1 PUSH1 0xA0 SHL SUB DUP6 AND SWAP6 DUP7 ISZERO PUSH2 0xB33 JUMPI DUP4 MLOAD DUP6 MLOAD SWAP1 DUP2 DUP2 SUB PUSH2 0xFC6 JUMPI POP POP PUSH0 JUMPDEST DUP5 MLOAD DUP2 LT ISZERO PUSH2 0xF35 JUMPI DUP1 PUSH1 0x5 SHL PUSH1 0x20 DUP1 DUP3 DUP9 ADD ADD MLOAD SWAP2 DUP9 ADD ADD MLOAD SWAP1 PUSH2 0xEB0 DUP10 PUSH2 0xE9B DUP4 PUSH0 MSTORE PUSH0 PUSH1 0x20 MSTORE PUSH1 0x40 PUSH0 KECCAK256 SWAP1 JUMP JUMPDEST SWAP1 PUSH1 0x1 DUP1 PUSH1 0xA0 SHL SUB AND PUSH0 MSTORE PUSH1 0x20 MSTORE PUSH1 0x40 PUSH0 KECCAK256 SWAP1 JUMP JUMPDEST SLOAD DUP3 DUP2 LT PUSH2 0xEFE JUMPI PUSH2 0xEEE DUP13 PUSH2 0xE9B DUP6 SWAP5 DUP14 PUSH2 0xEE0 PUSH1 0x1 SWAP10 SWAP9 PUSH2 0xEF6 SWAP8 SUB SWAP2 PUSH2 0xE9B DUP5 PUSH0 MSTORE PUSH0 PUSH1 0x20 MSTORE PUSH1 0x40 PUSH0 KECCAK256 SWAP1 JUMP JUMPDEST SSTORE PUSH0 MSTORE PUSH0 PUSH1 0x20 MSTORE PUSH1 0x40 PUSH0 KECCAK256 SWAP1 JUMP JUMPDEST SWAP2 DUP3 SLOAD PUSH2 0x1905 JUMP JUMPDEST SWAP1 SSTORE ADD PUSH2 0xE6B JUMP JUMPDEST PUSH1 0x40 MLOAD PUSH4 0x3DEE4C5 PUSH1 0xE0 SHL DUP2 MSTORE PUSH1 0x1 PUSH1 0x1 PUSH1 0xA0 SHL SUB DUP12 AND PUSH1 0x4 DUP3 ADD MSTORE PUSH1 0x24 DUP2 ADD SWAP2 SWAP1 SWAP2 MSTORE PUSH1 0x44 DUP2 ADD DUP4 SWAP1 MSTORE PUSH1 0x64 DUP2 ADD DUP3 SWAP1 MSTORE PUSH1 0x84 SWAP1 REVERT JUMPDEST POP PUSH2 0x312 SWAP7 SWAP8 SWAP3 SWAP8 SWAP6 SWAP2 SWAP6 PUSH1 0x1 DUP6 MLOAD EQ PUSH0 EQ PUSH2 0xF8C JUMPI PUSH1 0x20 DUP6 DUP2 ADD MLOAD DUP8 DUP3 ADD MLOAD PUSH1 0x40 DUP1 MLOAD SWAP3 DUP4 MSTORE SWAP3 DUP3 ADD MSTORE CALLER SWAP2 PUSH32 0xC3D58168C5AE7397731D063D5BBF3D657854427343F4C083240F7AACAA2D0F62 SWAP2 LOG4 JUMPDEST CALLER PUSH2 0x1AFD JUMP JUMPDEST PUSH1 0x40 MLOAD PUSH32 0x4A39DC06D4C0DBC64B70AF90FD698A233A518AA5D07E595D983B8C0526C8F7FB CALLER SWAP2 DUP1 PUSH2 0xFBE DUP11 DUP11 DUP4 PUSH2 0x1912 JUMP JUMPDEST SUB SWAP1 LOG4 PUSH2 0xF86 JUMP JUMPDEST PUSH4 0x5B059991 PUSH1 0xE0 SHL PUSH0 MSTORE PUSH1 0x4 MSTORE PUSH1 0x24 MSTORE PUSH1 0x44 PUSH0 REVERT JUMPDEST DUP1 MLOAD DUP3 LT ISZERO PUSH2 0xFEF JUMPI PUSH1 0x20 SWAP2 PUSH1 0x5 SHL ADD ADD SWAP1 JUMP JUMPDEST PUSH4 0x4E487B71 PUSH1 0xE0 SHL PUSH0 MSTORE PUSH1 0x32 PUSH1 0x4 MSTORE PUSH1 0x24 PUSH0 REVERT JUMPDEST SWAP2 SWAP1 SWAP2 DUP1 MLOAD DUP4 MLOAD DUP1 DUP3 SUB PUSH2 0x10A2 JUMPI POP POP DUP1 MLOAD SWAP1 PUSH2 0x101F DUP3 PUSH2 0x314 JUMP JUMPDEST SWAP2 PUSH2 0x102D PUSH1 0x40 MLOAD SWAP4 DUP5 PUSH2 0x2E1 JUMP JUMPDEST DUP1 DUP4 MSTORE PUSH2 0x103C PUSH1 0x1F NOT SWAP2 PUSH2 0x314 JUMP JUMPDEST ADD CALLDATASIZE PUSH1 0x20 DUP5 ADD CALLDATACOPY PUSH0 JUMPDEST DUP2 MLOAD DUP2 LT ISZERO PUSH2 0x109B JUMPI DUP1 PUSH2 0x108A PUSH1 0x1 SWAP3 PUSH1 0x5 SHL PUSH1 0x20 DUP1 DUP3 DUP8 ADD ADD MLOAD SWAP2 DUP10 ADD ADD MLOAD SWAP1 PUSH0 SWAP2 DUP3 MSTORE PUSH1 0x20 DUP3 DUP2 MSTORE PUSH1 0x40 DUP1 DUP5 KECCAK256 PUSH1 0x1 PUSH1 0x1 PUSH1 0xA0 SHL SUB SWAP1 SWAP4 AND DUP5 MSTORE SWAP2 SWAP1 MSTORE SWAP1 KECCAK256 SLOAD SWAP1 JUMP JUMPDEST PUSH2 0x1094 DUP3 DUP7 PUSH2 0xFDB JUMP JUMPDEST MSTORE ADD PUSH2 0x1045 JUMP JUMPDEST POP SWAP1 SWAP3 POP POP JUMP JUMPDEST PUSH4 0x5B059991 PUSH1 0xE0 SHL PUSH0 MSTORE PUSH1 0x4 MSTORE PUSH1 0x24 MSTORE PUSH1 0x44 PUSH0 REVERT JUMPDEST PUSH4 0x4E487B71 PUSH1 0xE0 SHL PUSH0 MSTORE PUSH1 0x11 PUSH1 0x4 MSTORE PUSH1 0x24 PUSH0 REVERT JUMPDEST PUSH1 0x1F DUP3 GT PUSH2 0x10D8 JUMPI POP POP POP JUMP JUMPDEST PUSH0 MSTORE PUSH1 0x20 PUSH0 KECCAK256 SWAP1 PUSH1 0x20 PUSH1 0x1F DUP5 ADD PUSH1 0x5 SHR DUP4 ADD SWAP4 LT PUSH2 0x1110 JUMPI JUMPDEST PUSH1 0x1F ADD PUSH1 0x5 SHR ADD SWAP1 JUMPDEST DUP2 DUP2 LT PUSH2 0x1105 JUMPI POP POP JUMP JUMPDEST PUSH0 DUP2 SSTORE PUSH1 0x1 ADD PUSH2 0x10FA JUMP JUMPDEST SWAP1 SWAP2 POP DUP2 SWAP1 PUSH2 0x10F1 JUMP JUMPDEST SWAP2 SWAP1 DUP1 MLOAD PUSH1 0x6 DUP2 LT ISZERO PUSH2 0x5CF JUMPI DUP4 SLOAD PUSH1 0x20 DUP4 ADD MLOAD PUSH2 0xFF00 PUSH1 0x8 SWAP2 SWAP1 SWAP2 SHL AND PUSH1 0xFF SWAP3 SWAP1 SWAP3 AND PUSH2 0xFFFF NOT SWAP1 SWAP2 AND OR OR DUP4 SSTORE PUSH1 0x40 ADD MLOAD DUP1 MLOAD SWAP1 SWAP3 PUSH1 0x1 ADD SWAP1 PUSH8 0xFFFFFFFFFFFFFFFF DUP2 GT PUSH2 0x2DC JUMPI PUSH2 0x1178 DUP2 PUSH2 0x1172 DUP5 SLOAD PUSH2 0x821 JUMP JUMPDEST DUP5 PUSH2 0x10CB JUMP JUMPDEST PUSH1 0x20 PUSH1 0x1F DUP3 GT PUSH1 0x1 EQ PUSH2 0x11B7 JUMPI DUP2 SWAP1 PUSH2 0x11A8 SWAP4 SWAP5 SWAP6 PUSH0 SWAP3 PUSH2 0x11AC JUMPI JUMPDEST POP POP DUP2 PUSH1 0x1 SHL SWAP2 PUSH0 NOT SWAP1 PUSH1 0x3 SHL SHR NOT AND OR SWAP1 JUMP JUMPDEST SWAP1 SSTORE JUMP JUMPDEST ADD MLOAD SWAP1 POP PUSH0 DUP1 PUSH2 0x1194 JUMP JUMPDEST PUSH1 0x1F NOT DUP3 AND SWAP1 PUSH2 0x11CA DUP5 PUSH0 MSTORE PUSH1 0x20 PUSH0 KECCAK256 SWAP1 JUMP JUMPDEST SWAP2 PUSH0 JUMPDEST DUP2 DUP2 LT PUSH2 0x1204 JUMPI POP SWAP6 DUP4 PUSH1 0x1 SWAP6 SWAP7 SWAP8 LT PUSH2 0x11EC JUMPI JUMPDEST POP POP POP DUP2 SHL ADD SWAP1 SSTORE JUMP JUMPDEST ADD MLOAD PUSH0 NOT PUSH1 0xF8 DUP5 PUSH1 0x3 SHL AND SHR NOT AND SWAP1 SSTORE PUSH0 DUP1 DUP1 PUSH2 0x11E2 JUMP JUMPDEST SWAP2 SWAP3 PUSH1 0x20 PUSH1 0x1 DUP2 SWAP3 DUP7 DUP12 ADD MLOAD DUP2 SSTORE ADD SWAP5 ADD SWAP3 ADD PUSH2 0x11CD JUMP JUMPDEST SWAP1 PUSH2 0x501 SWAP5 SWAP4 PUSH2 0x1237 PUSH1 0x80 SWAP5 PUSH1 0xFF SWAP4 DUP6 MSTORE PUSH1 0x20 DUP6 ADD SWAP1 PUSH2 0x5E3 JUMP JUMPDEST AND PUSH1 0x40 DUP3 ADD MSTORE DUP2 PUSH1 0x60 DUP3 ADD MSTORE ADD SWAP1 PUSH2 0x234 JUMP JUMPDEST PUSH1 0x1 PUSH1 0x1 PUSH1 0xA0 SHL SUB SWAP2 DUP3 AND SWAP2 DUP2 AND SWAP1 DUP3 DUP3 EQ ISZERO SWAP1 DUP2 PUSH2 0x1282 JUMPI JUMPDEST POP PUSH2 0x126D JUMPI POP POP JUMP JUMPDEST PUSH4 0x711BEC91 PUSH1 0xE1 SHL PUSH0 MSTORE PUSH1 0x4 MSTORE PUSH1 0x24 MSTORE PUSH1 0x44 PUSH0 REVERT JUMPDEST PUSH0 DUP5 DUP2 MSTORE PUSH1 0x1 PUSH1 0x20 SWAP1 DUP2 MSTORE PUSH1 0x40 DUP1 DUP4 KECCAK256 PUSH1 0x1 PUSH1 0x1 PUSH1 0xA0 SHL SUB SWAP1 SWAP5 AND DUP4 MSTORE SWAP3 SWAP1 MSTORE KECCAK256 PUSH1 0xFF SWAP2 POP SLOAD AND ISZERO PUSH0 PUSH2 0x1264 JUMP JUMPDEST PUSH1 0x3 SLOAD PUSH1 0x1 PUSH1 0x1 PUSH1 0xA0 SHL SUB AND CALLER SUB PUSH2 0x12C4 JUMPI JUMP JUMPDEST PUSH4 0x118CDAA7 PUSH1 0xE0 SHL PUSH0 MSTORE CALLER PUSH1 0x4 MSTORE PUSH1 0x24 PUSH0 REVERT JUMPDEST DUP1 MLOAD SWAP2 SWAP1 DUP3 SWAP1 PUSH1 0x20 ADD DUP3 MCOPY ADD PUSH0 DUP2 MSTORE SWAP1 JUMP JUMPDEST PUSH2 0x12F2 DUP2 PUSH2 0x5C5 JUMP JUMPDEST DUP1 ISZERO PUSH2 0x1461 JUMPI PUSH2 0x1301 DUP2 PUSH2 0x5C5 JUMP JUMPDEST PUSH1 0x1 DUP2 EQ PUSH2 0x1429 JUMPI PUSH2 0x1312 DUP2 PUSH2 0x5C5 JUMP JUMPDEST PUSH1 0x2 DUP2 EQ PUSH2 0x13F1 JUMPI PUSH2 0x1323 DUP2 PUSH2 0x5C5 JUMP JUMPDEST PUSH1 0x3 DUP2 EQ PUSH2 0x13BB JUMPI DUP1 PUSH2 0x1337 PUSH1 0x4 SWAP3 PUSH2 0x5C5 JUMP JUMPDEST EQ PUSH2 0x1382 JUMPI PUSH2 0x501 PUSH2 0x134E PUSH1 0xFF PUSH2 0x1374 SWAP4 AND PUSH2 0x17AF JUMP JUMPDEST PUSH1 0x40 MLOAD PUSH12 0x4C617374205374616E64202B PUSH1 0xA0 SHL PUSH1 0x20 DUP3 ADD MSTORE SWAP3 DUP4 SWAP2 PUSH1 0x2C DUP4 ADD JUMPDEST SWAP1 PUSH2 0x12D7 JUMP JUMPDEST SUB PUSH1 0x1F NOT DUP2 ADD DUP4 MSTORE DUP3 PUSH2 0x2E1 JUMP JUMPDEST PUSH2 0x501 PUSH2 0x1394 PUSH1 0xFF PUSH2 0x1374 SWAP4 AND PUSH2 0x17AF JUMP JUMPDEST PUSH1 0x40 MLOAD PUSH15 0x466C7578204F7665726C6F6164202B PUSH1 0x88 SHL PUSH1 0x20 DUP3 ADD MSTORE SWAP3 DUP4 SWAP2 PUSH1 0x2F DUP4 ADD PUSH2 0x136E JUMP JUMPDEST POP PUSH2 0x501 PUSH2 0x13CE PUSH1 0xFF PUSH2 0x1374 SWAP4 AND PUSH2 0x17AF JUMP JUMPDEST PUSH1 0x40 MLOAD PUSH11 0x4563686F20436F7265202B PUSH1 0xA8 SHL PUSH1 0x20 DUP3 ADD MSTORE SWAP3 DUP4 SWAP2 PUSH1 0x2B DUP4 ADD PUSH2 0x136E JUMP JUMPDEST POP PUSH2 0x501 PUSH2 0x1404 PUSH1 0xFF PUSH2 0x1374 SWAP4 AND PUSH2 0x17AF JUMP JUMPDEST PUSH1 0x40 MLOAD PUSH13 0x4E6562756C612044617368202B PUSH1 0x98 SHL PUSH1 0x20 DUP3 ADD MSTORE SWAP3 DUP4 SWAP2 PUSH1 0x2D DUP4 ADD PUSH2 0x136E JUMP JUMPDEST POP PUSH2 0x501 PUSH2 0x143C PUSH1 0xFF PUSH2 0x1374 SWAP4 AND PUSH2 0x17AF JUMP JUMPDEST PUSH1 0x40 MLOAD PUSH13 0x566F696420536869656C64202B PUSH1 0x98 SHL PUSH1 0x20 DUP3 ADD MSTORE SWAP3 DUP4 SWAP2 PUSH1 0x2D DUP4 ADD PUSH2 0x136E JUMP JUMPDEST POP PUSH2 0x501 PUSH2 0x1474 PUSH1 0xFF PUSH2 0x1374 SWAP4 AND PUSH2 0x17AF JUMP JUMPDEST PUSH1 0x40 MLOAD PUSH16 0x5175616E74756D20537472696B65202B PUSH1 0x80 SHL PUSH1 0x20 DUP3 ADD MSTORE SWAP3 DUP4 SWAP2 PUSH1 0x30 DUP4 ADD PUSH2 0x136E JUMP JUMPDEST SWAP5 SWAP4 SWAP3 SWAP1 SWAP2 SWAP4 DUP5 MLOAD DUP3 MLOAD SWAP1 DUP2 DUP2 SUB PUSH2 0xFC6 JUMPI POP POP PUSH1 0x1 PUSH1 0x1 PUSH1 0xA0 SHL SUB DUP7 DUP2 AND SWAP6 DUP7 ISZERO ISZERO SWAP6 SWAP2 DUP6 AND DUP1 ISZERO ISZERO SWAP4 SWAP2 SWAP3 SWAP1 PUSH0 JUMPDEST DUP5 MLOAD DUP2 LT ISZERO PUSH2 0x15A5 JUMPI DUP1 PUSH1 0x5 SHL SWAP1 DUP10 DUP10 DUP9 PUSH1 0x20 DUP1 DUP7 DUP12 ADD ADD MLOAD SWAP6 DUP13 ADD ADD MLOAD SWAP3 PUSH2 0x1524 JUMPI JUMPDEST SWAP4 PUSH1 0x1 SWAP5 PUSH2 0x1502 JUMPI JUMPDEST POP POP POP ADD PUSH2 0x14CC JUMP JUMPDEST PUSH2 0x151A SWAP2 PUSH2 0xE9B PUSH2 0xEEE SWAP3 PUSH0 MSTORE PUSH0 PUSH1 0x20 MSTORE PUSH1 0x40 PUSH0 KECCAK256 SWAP1 JUMP JUMPDEST SWAP1 SSTORE PUSH0 DUP10 DUP2 PUSH2 0x14F9 JUMP JUMPDEST POP POP SWAP1 SWAP2 PUSH2 0x153D DUP14 PUSH2 0xE9B DUP4 PUSH0 MSTORE PUSH0 PUSH1 0x20 MSTORE PUSH1 0x40 PUSH0 KECCAK256 SWAP1 JUMP JUMPDEST SLOAD DUP3 DUP2 LT PUSH2 0x156E JUMPI DUP3 SWAP2 DUP10 DUP16 PUSH2 0x1565 PUSH1 0x1 SWAP8 SWAP7 DUP16 SWAP6 SUB SWAP2 PUSH2 0xE9B DUP6 PUSH0 MSTORE PUSH0 PUSH1 0x20 MSTORE PUSH1 0x40 PUSH0 KECCAK256 SWAP1 JUMP JUMPDEST SSTORE SWAP1 SWAP5 POP PUSH2 0x14F0 JUMP JUMPDEST PUSH1 0x40 MLOAD PUSH4 0x3DEE4C5 PUSH1 0xE0 SHL DUP2 MSTORE PUSH1 0x1 PUSH1 0x1 PUSH1 0xA0 SHL SUB DUP16 AND PUSH1 0x4 DUP3 ADD MSTORE PUSH1 0x24 DUP2 ADD SWAP2 SWAP1 SWAP2 MSTORE PUSH1 0x44 DUP2 ADD DUP4 SWAP1 MSTORE PUSH1 0x64 DUP2 ADD DUP3 SWAP1 MSTORE PUSH1 0x84 SWAP1 REVERT JUMPDEST POP SWAP2 SWAP9 SWAP6 SWAP4 SWAP3 SWAP8 SWAP1 SWAP7 POP PUSH1 0x1 DUP9 MLOAD EQ PUSH0 EQ PUSH2 0x161E JUMPI PUSH1 0x20 DUP9 DUP2 ADD MLOAD DUP7 DUP3 ADD MLOAD PUSH1 0x40 DUP1 MLOAD SWAP3 DUP4 MSTORE SWAP3 DUP3 ADD MSTORE CALLER SWAP2 PUSH32 0xC3D58168C5AE7397731D063D5BBF3D657854427343F4C083240F7AACAA2D0F62 SWAP2 LOG4 JUMPDEST PUSH2 0x1601 JUMPI JUMPDEST POP POP POP POP POP JUMP JUMPDEST PUSH1 0x20 DUP1 PUSH2 0x1614 SWAP7 ADD MLOAD SWAP3 ADD MLOAD SWAP3 CALLER PUSH2 0x19B4 JUMP JUMPDEST PUSH0 DUP1 DUP1 DUP1 DUP1 PUSH2 0x15FA JUMP JUMPDEST PUSH1 0x40 MLOAD PUSH32 0x4A39DC06D4C0DBC64B70AF90FD698A233A518AA5D07E595D983B8C0526C8F7FB CALLER SWAP2 DUP1 PUSH2 0x1650 DUP10 DUP14 DUP4 PUSH2 0x1912 JUMP JUMPDEST SUB SWAP1 LOG4 PUSH2 0x15F5 JUMP JUMPDEST SWAP1 SWAP4 SWAP3 SWAP2 DUP5 MLOAD DUP2 MLOAD SWAP1 DUP2 DUP2 SUB PUSH2 0xFC6 JUMPI POP POP PUSH1 0x1 PUSH1 0x1 PUSH1 0xA0 SHL SUB DUP3 AND SWAP4 DUP5 ISZERO ISZERO SWAP4 PUSH0 JUMPDEST DUP8 MLOAD DUP2 LT ISZERO PUSH2 0x16CC JUMPI DUP1 DUP7 DUP7 DUP11 PUSH1 0x20 DUP1 PUSH1 0x1 SWAP7 PUSH1 0x5 SHL DUP1 SWAP4 ADD ADD MLOAD SWAP2 DUP10 ADD ADD MLOAD SWAP3 PUSH2 0x16AA JUMPI JUMPDEST POP POP POP ADD PUSH2 0x167B JUMP JUMPDEST PUSH2 0x16C2 SWAP2 PUSH2 0xE9B PUSH2 0xEEE SWAP3 PUSH0 MSTORE PUSH0 PUSH1 0x20 MSTORE PUSH1 0x40 PUSH0 KECCAK256 SWAP1 JUMP JUMPDEST SWAP1 SSTORE PUSH0 DUP7 DUP2 PUSH2 0x16A1 JUMP JUMPDEST POP SWAP4 SWAP1 SWAP6 SWAP5 PUSH1 0x1 DUP7 MLOAD EQ PUSH0 EQ PUSH2 0x1742 JUMPI PUSH1 0x20 DUP7 DUP2 ADD MLOAD DUP5 DUP3 ADD MLOAD PUSH1 0x40 DUP1 MLOAD SWAP3 DUP4 MSTORE SWAP3 DUP3 ADD MSTORE PUSH0 SWAP2 CALLER SWAP2 PUSH32 0xC3D58168C5AE7397731D063D5BBF3D657854427343F4C083240F7AACAA2D0F62 SWAP2 SWAP1 LOG4 JUMPDEST PUSH2 0x1725 JUMPI JUMPDEST POP POP POP POP JUMP JUMPDEST PUSH1 0x20 DUP1 PUSH2 0x1739 SWAP6 ADD MLOAD SWAP2 ADD MLOAD SWAP2 PUSH0 CALLER PUSH2 0x19B4 JUMP JUMPDEST PUSH0 DUP1 DUP1 DUP1 PUSH2 0x171F JUMP JUMPDEST PUSH0 PUSH1 0x40 MLOAD PUSH32 0x4A39DC06D4C0DBC64B70AF90FD698A233A518AA5D07E595D983B8C0526C8F7FB CALLER SWAP2 DUP1 PUSH2 0x1775 DUP9 DUP13 DUP4 PUSH2 0x1912 JUMP JUMPDEST SUB SWAP1 LOG4 PUSH2 0x171A JUMP JUMPDEST SWAP1 PUSH2 0x1787 DUP3 PUSH2 0x389 JUMP JUMPDEST PUSH2 0x1794 PUSH1 0x40 MLOAD SWAP2 DUP3 PUSH2 0x2E1 JUMP JUMPDEST DUP3 DUP2 MSTORE DUP1 SWAP3 PUSH2 0x17A5 PUSH1 0x1F NOT SWAP2 PUSH2 0x389 JUMP JUMPDEST ADD SWAP1 PUSH1 0x20 CALLDATASIZE SWAP2 ADD CALLDATACOPY JUMP JUMPDEST DUP1 PUSH0 SWAP2 PUSH19 0x184F03E93FF9F4DAA797ED6E38ED64BF6A1F01 PUSH1 0x40 SHL DUP3 LT ISZERO PUSH2 0x18E2 JUMPI JUMPDEST DUP1 PUSH14 0x4EE2D6D415B85ACEF8100000000 PUSH1 0xA SWAP3 LT ISZERO PUSH2 0x18C6 JUMPI JUMPDEST PUSH7 0x2386F26FC10000 DUP2 LT ISZERO PUSH2 0x18B1 JUMPI JUMPDEST PUSH4 0x5F5E100 DUP2 LT ISZERO PUSH2 0x189F JUMPI JUMPDEST PUSH2 0x2710 DUP2 LT ISZERO PUSH2 0x188F JUMPI JUMPDEST PUSH1 0x64 DUP2 LT ISZERO PUSH2 0x1880 JUMPI JUMPDEST LT ISZERO PUSH2 0x1875 JUMPI JUMPDEST PUSH2 0x1860 PUSH1 0x21 PUSH2 0x1835 PUSH1 0x1 DUP6 ADD PUSH2 0x177D JUMP JUMPDEST SWAP4 DUP5 ADD ADD JUMPDEST PUSH0 NOT ADD SWAP2 PUSH16 0x181899199A1A9B1B9C1CB0B131B232B3 PUSH1 0x81 SHL PUSH1 0xA DUP3 MOD BYTE DUP4 MSTORE8 PUSH1 0xA SWAP1 DIV SWAP1 JUMP JUMPDEST DUP1 ISZERO PUSH2 0x1870 JUMPI PUSH2 0x1860 SWAP1 SWAP2 PUSH2 0x183A JUMP JUMPDEST POP POP SWAP1 JUMP JUMPDEST PUSH1 0x1 SWAP1 SWAP2 ADD SWAP1 PUSH2 0x1824 JUMP JUMPDEST PUSH1 0x2 SWAP1 PUSH1 0x64 SWAP1 DIV SWAP4 ADD SWAP3 PUSH2 0x181D JUMP JUMPDEST PUSH1 0x4 SWAP1 PUSH2 0x2710 SWAP1 DIV SWAP4 ADD SWAP3 PUSH2 0x1813 JUMP JUMPDEST PUSH1 0x8 SWAP1 PUSH4 0x5F5E100 SWAP1 DIV SWAP4 ADD SWAP3 PUSH2 0x1808 JUMP JUMPDEST PUSH1 0x10 SWAP1 PUSH7 0x2386F26FC10000 SWAP1 DIV SWAP4 ADD SWAP3 PUSH2 0x17FB JUMP JUMPDEST PUSH1 0x20 SWAP1 PUSH14 0x4EE2D6D415B85ACEF8100000000 SWAP1 DIV SWAP4 ADD SWAP3 PUSH2 0x17EB JUMP JUMPDEST POP PUSH1 0x40 SWAP2 POP PUSH19 0x184F03E93FF9F4DAA797ED6E38ED64BF6A1F01 PUSH1 0x40 SHL DUP2 DIV PUSH2 0x17D1 JUMP JUMPDEST SWAP2 SWAP1 DUP3 ADD DUP1 SWAP3 GT PUSH2 0xD1E JUMPI JUMP JUMPDEST SWAP1 SWAP2 PUSH2 0x1929 PUSH2 0x501 SWAP4 PUSH1 0x40 DUP5 MSTORE PUSH1 0x40 DUP5 ADD SWAP1 PUSH2 0x4BD JUMP JUMPDEST SWAP2 PUSH1 0x20 DUP2 DUP5 SUB SWAP2 ADD MSTORE PUSH2 0x4BD JUMP JUMPDEST SWAP1 DUP2 PUSH1 0x20 SWAP2 SUB SLT PUSH2 0x13E JUMPI MLOAD PUSH2 0x501 DUP2 PUSH2 0x1B4 JUMP JUMPDEST PUSH1 0x1 PUSH1 0x1 PUSH1 0xA0 SHL SUB SWAP2 DUP3 AND DUP2 MSTORE SWAP2 AND PUSH1 0x20 DUP3 ADD MSTORE PUSH1 0x40 DUP2 ADD SWAP2 SWAP1 SWAP2 MSTORE PUSH1 0x60 DUP2 ADD SWAP2 SWAP1 SWAP2 MSTORE PUSH1 0xA0 PUSH1 0x80 DUP3 ADD DUP2 SWAP1 MSTORE PUSH2 0x501 SWAP3 SWAP2 ADD SWAP1 PUSH2 0x234 JUMP JUMPDEST RETURNDATASIZE ISZERO PUSH2 0x19AF JUMPI RETURNDATASIZE SWAP1 PUSH2 0x1996 DUP3 PUSH2 0x389 JUMP JUMPDEST SWAP2 PUSH2 0x19A4 PUSH1 0x40 MLOAD SWAP4 DUP5 PUSH2 0x2E1 JUMP JUMPDEST DUP3 MSTORE RETURNDATASIZE PUSH0 PUSH1 0x20 DUP5 ADD RETURNDATACOPY JUMP JUMPDEST PUSH1 0x60 SWAP1 JUMP JUMPDEST SWAP1 SWAP2 SWAP5 SWAP3 SWAP4 DUP6 EXTCODESIZE PUSH2 0x19C8 JUMPI JUMPDEST POP POP POP POP POP POP JUMP JUMPDEST PUSH1 0x20 SWAP4 PUSH2 0x19EA SWAP2 PUSH1 0x40 MLOAD SWAP7 DUP8 SWAP6 DUP7 SWAP6 PUSH4 0xF23A6E61 PUSH1 0xE0 SHL DUP8 MSTORE PUSH1 0x4 DUP8 ADD PUSH2 0x194C JUMP JUMPDEST SUB DUP2 PUSH0 PUSH1 0x1 PUSH1 0x1 PUSH1 0xA0 SHL SUB DUP8 AND GAS CALL PUSH0 SWAP2 DUP2 PUSH2 0x1A79 JUMPI JUMPDEST POP PUSH2 0x1A3B JUMPI POP PUSH2 0x1A0F PUSH2 0x1985 JUMP JUMPDEST DUP1 MLOAD SWAP2 SWAP1 DUP3 PUSH2 0x1A34 JUMPI PUSH4 0x2BFA23E7 PUSH1 0xE1 SHL PUSH0 MSTORE PUSH1 0x1 PUSH1 0x1 PUSH1 0xA0 SHL SUB DUP3 AND PUSH1 0x4 MSTORE PUSH1 0x24 PUSH0 REVERT JUMPDEST PUSH1 0x20 SWAP2 POP ADD REVERT JUMPDEST PUSH1 0x1 PUSH1 0x1 PUSH1 0xE0 SHL SUB NOT AND PUSH4 0xDC5919F PUSH1 0xE0 SHL ADD PUSH2 0x1A5E JUMPI POP PUSH0 DUP1 DUP1 DUP1 DUP1 DUP1 PUSH2 0x19C0 JUMP JUMPDEST PUSH4 0x2BFA23E7 PUSH1 0xE1 SHL PUSH0 MSTORE PUSH1 0x1 PUSH1 0x1 PUSH1 0xA0 SHL SUB AND PUSH1 0x4 MSTORE PUSH1 0x24 PUSH0 REVERT JUMPDEST PUSH2 0x1A9C SWAP2 SWAP3 POP PUSH1 0x20 RETURNDATASIZE PUSH1 0x20 GT PUSH2 0x1AA3 JUMPI JUMPDEST PUSH2 0x1A94 DUP2 DUP4 PUSH2 0x2E1 JUMP JUMPDEST DUP2 ADD SWAP1 PUSH2 0x1937 JUMP JUMPDEST SWAP1 PUSH0 PUSH2 0x1A01 JUMP JUMPDEST POP RETURNDATASIZE PUSH2 0x1A8A JUMP JUMPDEST PUSH1 0x1 PUSH1 0x1 PUSH1 0xA0 SHL SUB SWAP2 DUP3 AND DUP2 MSTORE SWAP2 AND PUSH1 0x20 DUP3 ADD MSTORE PUSH1 0xA0 PUSH1 0x40 DUP3 ADD DUP2 SWAP1 MSTORE PUSH2 0x501 SWAP5 SWAP2 SWAP4 SWAP2 SWAP3 PUSH2 0x1AEF SWAP3 SWAP2 PUSH2 0x1AE1 SWAP2 SWAP1 DUP7 ADD SWAP1 PUSH2 0x4BD JUMP JUMPDEST SWAP1 DUP5 DUP3 SUB PUSH1 0x60 DUP7 ADD MSTORE PUSH2 0x4BD JUMP JUMPDEST SWAP2 PUSH1 0x80 DUP2 DUP5 SUB SWAP2 ADD MSTORE PUSH2 0x234 JUMP JUMPDEST SWAP1 SWAP2 SWAP5 SWAP3 SWAP4 DUP6 EXTCODESIZE PUSH2 0x1B10 JUMPI POP POP POP POP POP POP JUMP JUMPDEST PUSH1 0x20 SWAP4 PUSH2 0x1B32 SWAP2 PUSH1 0x40 MLOAD SWAP7 DUP8 SWAP6 DUP7 SWAP6 PUSH4 0xBC197C81 PUSH1 0xE0 SHL DUP8 MSTORE PUSH1 0x4 DUP8 ADD PUSH2 0x1AAA JUMP JUMPDEST SUB DUP2 PUSH0 PUSH1 0x1 PUSH1 0x1 PUSH1 0xA0 SHL SUB DUP8 AND GAS CALL PUSH0 SWAP2 DUP2 PUSH2 0x1B7A JUMPI JUMPDEST POP PUSH2 0x1B57 JUMPI POP PUSH2 0x1A0F PUSH2 0x1985 JUMP JUMPDEST PUSH1 0x1 PUSH1 0x1 PUSH1 0xE0 SHL SUB NOT AND PUSH4 0x43E6837F PUSH1 0xE0 SHL ADD PUSH2 0x1A5E JUMPI POP PUSH0 DUP1 DUP1 DUP1 DUP1 DUP1 PUSH2 0x19C0 JUMP JUMPDEST PUSH2 0x1B94 SWAP2 SWAP3 POP PUSH1 0x20 RETURNDATASIZE PUSH1 0x20 GT PUSH2 0x1AA3 JUMPI PUSH2 0x1A94 DUP2 DUP4 PUSH2 0x2E1 JUMP JUMPDEST SWAP1 PUSH0 PUSH2 0x1B49 JUMP INVALID LOG2 PUSH5 0x6970667358 0x22 SLT KECCAK256 SWAP9 BLOBHASH DUP1 CODECOPY 0xBC 0xC7 EXP BALANCE 0x2F 0xB8 0xAF SWAP7 SWAPN 0x76 SELFBALANCE 0x23 SLOAD DATALOADN 0x4EDF PUSH14 0xC24531E6C6807FB74821A364736F PUSH13 0x634300081E0033000000000000 "
		},
		"gasEstimates": {
			"creation": {
				"codeDepositCost": "1424200",
				"executionCost": "infinite",
				"totalCost": "infinite"
			},
			"external": {
				"balanceOf(address,uint256)": "2491",
				"balanceOfBatch(address[],uint256[])": "infinite",
				"gameContract()": "2548",
				"getRelic(uint256)": "infinite",
				"isApprovedForAll(address,address)": "2887",
				"mintRelic(address,uint8,uint8)": "infinite",
				"owner()": "2482",
				"relics(uint256)": "infinite",
				"renounceOwnership()": "28240",
				"safeBatchTransferFrom(address,address,uint256[],uint256[],bytes)": "infinite",
				"safeTransferFrom(address,address,uint256,uint256,bytes)": "infinite",
				"setApprovalForAll(address,bool)": "26733",
				"setGameContract(address)": "26749",
				"supportsInterface(bytes4)": "394",
				"totalSupply()": "2326",
				"transferOwnership(address)": "28505",
				"uri(uint256)": "infinite"
			},
			"internal": {
				"_generateRelicName(enum StarForgeRelic.RelicType,uint8)": "infinite"
			}
		},
		"methodIdentifiers": {
			"balanceOf(address,uint256)": "00fdd58e",
			"balanceOfBatch(address[],uint256[])": "4e1273f4",
			"gameContract()": "d3f33009",
			"getRelic(uint256)": "68972d59",
			"isApprovedForAll(address,address)": "e985e9c5",
			"mintRelic(address,uint8,uint8)": "f925b741",
			"owner()": "8da5cb5b",
			"relics(uint256)": "b496da8b",
			"renounceOwnership()": "715018a6",
			"safeBatchTransferFrom(address,address,uint256[],uint256[],bytes)": "2eb2c2d6",
			"safeTransferFrom(address,address,uint256,uint256,bytes)": "f242432a",
			"setApprovalForAll(address,bool)": "a22cb465",
			"setGameContract(address)": "405ebd4d",
			"supportsInterface(bytes4)": "01ffc9a7",
			"totalSupply()": "18160ddd",
			"transferOwnership(address)": "f2fde38b",
			"uri(uint256)": "0e89341c"
		}
	},
	"abi": [
		{
			"inputs": [],
			"stateMutability": "nonpayable",
			"type": "constructor"
		},
		{
			"inputs": [
				{
					"internalType": "address",
					"name": "sender",
					"type": "address"
				},
				{
					"internalType": "uint256",
					"name": "balance",
					"type": "uint256"
				},
				{
					"internalType": "uint256",
					"name": "needed",
					"type": "uint256"
				},
				{
					"internalType": "uint256",
					"name": "tokenId",
					"type": "uint256"
				}
			],
			"name": "ERC1155InsufficientBalance",
			"type": "error"
		},
		{
			"inputs": [
				{
					"internalType": "address",
					"name": "approver",
					"type": "address"
				}
			],
			"name": "ERC1155InvalidApprover",
			"type": "error"
		},
		{
			"inputs": [
				{
					"internalType": "uint256",
					"name": "idsLength",
					"type": "uint256"
				},
				{
					"internalType": "uint256",
					"name": "valuesLength",
					"type": "uint256"
				}
			],
			"name": "ERC1155InvalidArrayLength",
			"type": "error"
		},
		{
			"inputs": [
				{
					"internalType": "address",
					"name": "operator",
					"type": "address"
				}
			],
			"name": "ERC1155InvalidOperator",
			"type": "error"
		},
		{
			"inputs": [
				{
					"internalType": "address",
					"name": "receiver",
					"type": "address"
				}
			],
			"name": "ERC1155InvalidReceiver",
			"type": "error"
		},
		{
			"inputs": [
				{
					"internalType": "address",
					"name": "sender",
					"type": "address"
				}
			],
			"name": "ERC1155InvalidSender",
			"type": "error"
		},
		{
			"inputs": [
				{
					"internalType": "address",
					"name": "operator",
					"type": "address"
				},
				{
					"internalType": "address",
					"name": "owner",
					"type": "address"
				}
			],
			"name": "ERC1155MissingApprovalForAll",
			"type": "error"
		},
		{
			"inputs": [
				{
					"internalType": "address",
					"name": "owner",
					"type": "address"
				}
			],
			"name": "OwnableInvalidOwner",
			"type": "error"
		},
		{
			"inputs": [
				{
					"internalType": "address",
					"name": "account",
					"type": "address"
				}
			],
			"name": "OwnableUnauthorizedAccount",
			"type": "error"
		},
		{
			"anonymous": false,
			"inputs": [
				{
					"indexed": true,
					"internalType": "address",
					"name": "account",
					"type": "address"
				},
				{
					"indexed": true,
					"internalType": "address",
					"name": "operator",
					"type": "address"
				},
				{
					"indexed": false,
					"internalType": "bool",
					"name": "approved",
					"type": "bool"
				}
			],
			"name": "ApprovalForAll",
			"type": "event"
		},
		{
			"anonymous": false,
			"inputs": [
				{
					"indexed": true,
					"internalType": "address",
					"name": "previousOwner",
					"type": "address"
				},
				{
					"indexed": true,
					"internalType": "address",
					"name": "newOwner",
					"type": "address"
				}
			],
			"name": "OwnershipTransferred",
			"type": "event"
		},
		{
			"anonymous": false,
			"inputs": [
				{
					"indexed": true,
					"internalType": "address",
					"name": "to",
					"type": "address"
				},
				{
					"indexed": false,
					"internalType": "uint256",
					"name": "id",
					"type": "uint256"
				},
				{
					"indexed": false,
					"internalType": "enum StarForgeRelic.RelicType",
					"name": "relicType",
					"type": "uint8"
				},
				{
					"indexed": false,
					"internalType": "uint8",
					"name": "value",
					"type": "uint8"
				},
				{
					"indexed": false,
					"internalType": "string",
					"name": "name",
					"type": "string"
				}
			],
			"name": "RelicMinted",
			"type": "event"
		},
		{
			"anonymous": false,
			"inputs": [
				{
					"indexed": true,
					"internalType": "address",
					"name": "operator",
					"type": "address"
				},
				{
					"indexed": true,
					"internalType": "address",
					"name": "from",
					"type": "address"
				},
				{
					"indexed": true,
					"internalType": "address",
					"name": "to",
					"type": "address"
				},
				{
					"indexed": false,
					"internalType": "uint256[]",
					"name": "ids",
					"type": "uint256[]"
				},
				{
					"indexed": false,
					"internalType": "uint256[]",
					"name": "values",
					"type": "uint256[]"
				}
			],
			"name": "TransferBatch",
			"type": "event"
		},
		{
			"anonymous": false,
			"inputs": [
				{
					"indexed": true,
					"internalType": "address",
					"name": "operator",
					"type": "address"
				},
				{
					"indexed": true,
					"internalType": "address",
					"name": "from",
					"type": "address"
				},
				{
					"indexed": true,
					"internalType": "address",
					"name": "to",
					"type": "address"
				},
				{
					"indexed": false,
					"internalType": "uint256",
					"name": "id",
					"type": "uint256"
				},
				{
					"indexed": false,
					"internalType": "uint256",
					"name": "value",
					"type": "uint256"
				}
			],
			"name": "TransferSingle",
			"type": "event"
		},
		{
			"anonymous": false,
			"inputs": [
				{
					"indexed": false,
					"internalType": "string",
					"name": "value",
					"type": "string"
				},
				{
					"indexed": true,
					"internalType": "uint256",
					"name": "id",
					"type": "uint256"
				}
			],
			"name": "URI",
			"type": "event"
		},
		{
			"inputs": [
				{
					"internalType": "address",
					"name": "account",
					"type": "address"
				},
				{
					"internalType": "uint256",
					"name": "id",
					"type": "uint256"
				}
			],
			"name": "balanceOf",
			"outputs": [
				{
					"internalType": "uint256",
					"name": "",
					"type": "uint256"
				}
			],
			"stateMutability": "view",
			"type": "function"
		},
		{
			"inputs": [
				{
					"internalType": "address[]",
					"name": "accounts",
					"type": "address[]"
				},
				{
					"internalType": "uint256[]",
					"name": "ids",
					"type": "uint256[]"
				}
			],
			"name": "balanceOfBatch",
			"outputs": [
				{
					"internalType": "uint256[]",
					"name": "",
					"type": "uint256[]"
				}
			],
			"stateMutability": "view",
			"type": "function"
		},
		{
			"inputs": [],
			"name": "gameContract",
			"outputs": [
				{
					"internalType": "address",
					"name": "",
					"type": "address"
				}
			],
			"stateMutability": "view",
			"type": "function"
		},
		{
			"inputs": [
				{
					"internalType": "uint256",
					"name": "id",
					"type": "uint256"
				}
			],
			"name": "getRelic",
			"outputs": [
				{
					"components": [
						{
							"internalType": "enum StarForgeRelic.RelicType",
							"name": "relicType",
							"type": "uint8"
						},
						{
							"internalType": "uint8",
							"name": "value",
							"type": "uint8"
						},
						{
							"internalType": "string",
							"name": "name",
							"type": "string"
						}
					],
					"internalType": "struct StarForgeRelic.RelicData",
					"name": "",
					"type": "tuple"
				}
			],
			"stateMutability": "view",
			"type": "function"
		},
		{
			"inputs": [
				{
					"internalType": "address",
					"name": "account",
					"type": "address"
				},
				{
					"internalType": "address",
					"name": "operator",
					"type": "address"
				}
			],
			"name": "isApprovedForAll",
			"outputs": [
				{
					"internalType": "bool",
					"name": "",
					"type": "bool"
				}
			],
			"stateMutability": "view",
			"type": "function"
		},
		{
			"inputs": [
				{
					"internalType": "address",
					"name": "to",
					"type": "address"
				},
				{
					"internalType": "enum StarForgeRelic.RelicType",
					"name": "relicType",
					"type": "uint8"
				},
				{
					"internalType": "uint8",
					"name": "value",
					"type": "uint8"
				}
			],
			"name": "mintRelic",
			"outputs": [
				{
					"internalType": "uint256",
					"name": "",
					"type": "uint256"
				}
			],
			"stateMutability": "nonpayable",
			"type": "function"
		},
		{
			"inputs": [],
			"name": "owner",
			"outputs": [
				{
					"internalType": "address",
					"name": "",
					"type": "address"
				}
			],
			"stateMutability": "view",
			"type": "function"
		},
		{
			"inputs": [
				{
					"internalType": "uint256",
					"name": "",
					"type": "uint256"
				}
			],
			"name": "relics",
			"outputs": [
				{
					"internalType": "enum StarForgeRelic.RelicType",
					"name": "relicType",
					"type": "uint8"
				},
				{
					"internalType": "uint8",
					"name": "value",
					"type": "uint8"
				},
				{
					"internalType": "string",
					"name": "name",
					"type": "string"
				}
			],
			"stateMutability": "view",
			"type": "function"
		},
		{
			"inputs": [],
			"name": "renounceOwnership",
			"outputs": [],
			"stateMutability": "nonpayable",
			"type": "function"
		},
		{
			"inputs": [
				{
					"internalType": "address",
					"name": "from",
					"type": "address"
				},
				{
					"internalType": "address",
					"name": "to",
					"type": "address"
				},
				{
					"internalType": "uint256[]",
					"name": "ids",
					"type": "uint256[]"
				},
				{
					"internalType": "uint256[]",
					"name": "values",
					"type": "uint256[]"
				},
				{
					"internalType": "bytes",
					"name": "data",
					"type": "bytes"
				}
			],
			"name": "safeBatchTransferFrom",
			"outputs": [],
			"stateMutability": "nonpayable",
			"type": "function"
		},
		{
			"inputs": [
				{
					"internalType": "address",
					"name": "from",
					"type": "address"
				},
				{
					"internalType": "address",
					"name": "to",
					"type": "address"
				},
				{
					"internalType": "uint256",
					"name": "id",
					"type": "uint256"
				},
				{
					"internalType": "uint256",
					"name": "value",
					"type": "uint256"
				},
				{
					"internalType": "bytes",
					"name": "data",
					"type": "bytes"
				}
			],
			"name": "safeTransferFrom",
			"outputs": [],
			"stateMutability": "nonpayable",
			"type": "function"
		},
		{
			"inputs": [
				{
					"internalType": "address",
					"name": "operator",
					"type": "address"
				},
				{
					"internalType": "bool",
					"name": "approved",
					"type": "bool"
				}
			],
			"name": "setApprovalForAll",
			"outputs": [],
			"stateMutability": "nonpayable",
			"type": "function"
		},
		{
			"inputs": [
				{
					"internalType": "address",
					"name": "_gameContract",
					"type": "address"
				}
			],
			"name": "setGameContract",
			"outputs": [],
			"stateMutability": "nonpayable",
			"type": "function"
		},
		{
			"inputs": [
				{
					"internalType": "bytes4",
					"name": "interfaceId",
					"type": "bytes4"
				}
			],
			"name": "supportsInterface",
			"outputs": [
				{
					"internalType": "bool",
					"name": "",
					"type": "bool"
				}
			],
			"stateMutability": "view",
			"type": "function"
		},
		{
			"inputs": [],
			"name": "totalSupply",
			"outputs": [
				{
					"internalType": "uint256",
					"name": "",
					"type": "uint256"
				}
			],
			"stateMutability": "view",
			"type": "function"
		},
		{
			"inputs": [
				{
					"internalType": "address",
					"name": "newOwner",
					"type": "address"
				}
			],
			"name": "transferOwnership",
			"outputs": [],
			"stateMutability": "nonpayable",
			"type": "function"
		},
		{
			"inputs": [
				{
					"internalType": "uint256",
					"name": "id",
					"type": "uint256"
				}
			],
			"name": "uri",
			"outputs": [
				{
					"internalType": "string",
					"name": "",
					"type": "string"
				}
			],
			"stateMutability": "view",
			"type": "function"
		}
	]
}