{
	"data": {
		"bytecode": {
			"linkReferences": {},
			"object": "60803461010957601f614b0438819003918201601f19168301916001600160401b0383118484101761010d57808492604094855283398101031261010957610052602061004b83610121565b9201610121565b5f8054336001600160a01b0319821681178355604051949290916001600160a01b0316907f8be0079c531659141344cd1fd0a4f28419497f9722a3daafe3b4186f6b6457e09080a3600180556002805460ff19169055662386f26fc10000600e8190556611c37937e08000600f55601055661c6bf526340000601155601280546001600160a01b039283166001600160a01b031991821617909155601380549390921692169190911790556149ce90816101368239f35b5f80fd5b634e487b7160e01b5f52604160045260245ffd5b51906001600160a01b03821682036101095756fe60806040526004361015610011575f80fd5b5f3560e01c806318dc318514612ad8578063201738e21461297057806329de58d1146129065780632dc6d62f146126e5578063394861f3146126c85780633ccfd60b146126495780633f4ba83a146125b657806349c7c24a146124f65780634e178659146124ab5780634ef2d6c114612462578063518c83b01461244557806351bdab1414610ffe5780635c975abb14610fdc5780636154ee9714610f6a578063715018a614610f13578063732e9b8514610eb85780637e5c4f8b14610e755780638456cb5914610e1c5780638b5ca78f14610dff5780638da5cb5b14610dd85780639d980bd214610dbb578063a5f968a014610c73578063a787c80b14610c36578063a95db7e214610b98578063b2a4750014610b55578063b654823e1461076f578063b78f4c7014610732578063b92a40ad1461070a578063bb15a3b41461068c578063bbe156271461061b578063bdb729c914610598578063c4f036c414610550578063c99ae45f1461046c578063d5654ae714610444578063d8e86854146103d4578063da539b0f14610305578063f2fde38b1461023f578063f5905ca1146101e75763f5e5fff2146101c6575f80fd5b346101e3575f3660031901126101e3576020601054604051908152f35b5f80fd5b346101e35760403660031901126101e357610200612b1c565b6001600160a01b03165f908152600660205260409020805460243591908210156101e35760209161023091612c52565b90549060031b1c604051908152f35b346101e35760203660031901126101e357610258612b1c565b61026061391c565b6001600160a01b031680156102b1575f80546001600160a01b03198116831782556001600160a01b0316907f8be0079c531659141344cd1fd0a4f28419497f9722a3daafe3b4186f6b6457e09080a3005b60405162461bcd60e51b815260206004820152602660248201527f4f776e61626c653a206e6577206f776e657220697320746865207a65726f206160448201526564647265737360d01b6064820152608490fd5b346101e35760403660031901126101e35761031e612b1c565b6001600160a01b03165f90815260096020526040902060243560088110156101e35761034991612cdf565b50805460018201546002909201546040805160ff9384161515815260208082019590955282841691810191909152600882901c83166060820152601082901c83166080820152601882901c831660a08201529281901c821660c0840152602881901c821660e0840152603081901c821661010084015260381c166101208201528061014081015b0390f35b346101e35760803660031901126101e3577f6ef2ff813efc9efc76792366c4aca2677b755a5a13affc54d96ef35dc8e9bb73608060043560643560443560243561041c61391c565b83600e5580600f558160105582601155604051938452602084015260408301526060820152a1005b346101e3575f3660031901126101e3576013546040516001600160a01b039091168152602090f35b346101e35760203660031901126101e357610485612b1c565b610100906040516104968382612da4565b5f5b83811061053b57505060018060a01b03165f52600960205260405f206040519182018281106001600160401b03821117610527576040525f825b6008821061050957604051845f825b600882106104ef57610a0084f35b60206104fe6001928551612bb4565b9301910190916104e1565b6003602060019261051986613347565b8152019301910190916104d2565b634e487b7160e01b5f52604160045260245ffd5b6020906105466132fd565b8184015201610498565b346101e35760403660031901126101e357610569612b1c565b6001600160a01b03165f9081526007602052604090206024359060038210156101e35760209161023091612cd0565b346101e3575f3660031901126101e3576105b0613620565b335f5260056020526105c460405f206135ff565b335f5260066020526105d860405f206135ff565b335f5260076020526105f160405f206003810190613569565b335f52600b60205261060560405f2061357f565b335f52600c60205261061960405f2061357f565b005b346101e35760203660031901126101e3576001600160a01b0361063c612b1c565b165f52600460205260a060405f2080549060018101549061ffff60036002830154920154169163ffffffff6040519461ffff8116865260101c166020850152604084015260608301526080820152f35b346101e35760203660031901126101e3576001600160a01b036106ad612b1c565b165f52600660205260405f206040519081602082549182815201915f5260205f20905f5b8181106106f4576103d0856106e881870382612da4565b60405191829182612c97565b82548452602090930192600192830192016106d1565b346101e3575f3660031901126101e3576012546040516001600160a01b039091168152602090f35b346101e35760203660031901126101e3576001600160a01b03610753612b1c565b165f52600a602052602060ff60405f2054166040519015158152f35b60203660031901126101e357600435610786613620565b61078e613664565b6107966136ba565b6003811015610b2157335f5260086020526107bd6107b78260405f20612b32565b50613347565b90602082015115801590610b17575b15610ae55781511561091c5760115434106108d75760018060a01b03601354169160ff6101008201511660068110156108c357606460ff610120602094015116915f604051968794859363f925b74160e01b8552336004860152602485015260448401525af19182156108b8575f92610882575b5061085961087c92335f52600660205260405f20612e72565b6108766108646137d5565b91335f52600860205260405f20612b32565b90612ea6565b60018055005b91506020823d6020116108b0575b8161089d60209383612da4565b810103126101e357905190610859610840565b3d9150610890565b6040513d5f823e3d90fd5b634e487b7160e01b5f52602160045260245ffd5b60405162461bcd60e51b815260206004820152601e60248201527f496e73756666696369656e74207061796d656e7420666f722072656c696300006044820152606490fd5b90506010543410610aa0576040805142602082019081523360601b6bffffffffffffffffffffffff1916928201929092524460548201526074810183905261097181609481015b03601f198101835282612da4565b51902090600b8206600a0180600a11610a8c57600b8360081c066008019081600811610a8c57600b8460101c066009019384600911610a8c5760ff60038260181c06166109c460038360201c16926137b3565b6012546001600160a01b0316929060ff906109de84612dfe565b16966109e988612dfe565b60048210156108c357604051630e3bd81160e31b815297602096899687955f958795610a269560ff91821695821694909116923360048901612e12565b03925af19182156108b8575f92610a56575b50610a5161087c92335f52600560205260405f20612e72565b610859565b91506020823d602011610a84575b81610a7160209383612da4565b810103126101e357905190610a51610a38565b3d9150610a64565b634e487b7160e01b5f52601160045260245ffd5b60405162461bcd60e51b815260206004820152601d60248201527f496e73756666696369656e74207061796d656e7420666f7220756e69740000006044820152606490fd5b60405162461bcd60e51b815260206004820152600a602482015269115b5c1d1e481cdb1bdd60b21b6044820152606490fd5b50815115156107cc565b60405162461bcd60e51b815260206004820152600c60248201526b125b9d985b1a59081cdb1bdd60a21b6044820152606490fd5b346101e35760203660031901126101e357610b6e612b1c565b610b7661391c565b601380546001600160a01b0319166001600160a01b0392909216919091179055005b346101e35760203660031901126101e357610bb1612b1c565b60609081604051610bc28282612da4565b3690376001600160a01b03165f90815260076020526040808220905191825b60038210610c2057505050610bf68282612da4565b604051905f825b60038210610c0a57505050f35b6020806001928551815201930191019091610bfd565b6001602081928554815201930191019091610be1565b346101e35760203660031901126101e3576001600160a01b03610c57612b1c565b165f526003602052602060ff60405f2054166040519015158152f35b346101e35760603660031901126101e357366064116101e357610c94613620565b610c9c6136ba565b5f5b60038110610d0357335f52600760205260405f2060045f5b60038110610cef576040516060600482377f189dcf2b228f6307a1c47f1ab2652fd06a5c537f8533503fd79381a0ef24b27960603392a2005b600190602083359301928185015501610cb6565b610d0c816135dc565b35610d1a575b600101610c9e565b601354610d5f91906020906001600160a01b0316610d37836135dc565b604051627eeac760e11b81523360048201529035602482015293849190829081906044820190565b03915afa9182156108b8575f92610d86575b50610d7f6001921515613421565b9050610d12565b91506020823d8211610db3575b81610da060209383612da4565b810103126101e357905190610d7f610d71565b3d9150610d93565b346101e3575f3660031901126101e3576020600f54604051908152f35b346101e3575f3660031901126101e3575f546040516001600160a01b039091168152602090f35b346101e3575f3660031901126101e3576020601154604051908152f35b346101e3575f3660031901126101e357610e3461391c565b610e3c613620565b600160ff1960025416176002557f62e78cea01bee320cd4e420270b5ea74000d11b0c9f74754ebdbfc544b05a2586020604051338152a1005b346101e35760203660031901126101e357610e8e612b1c565b610e9661391c565b601280546001600160a01b0319166001600160a01b0392909216919091179055005b346101e35760403660031901126101e357610ed1612b1c565b6001600160a01b03165f908152600c602052604090208054602435908110156101e357610f0361ffff91602093612c31565b90549060031b1c16604051908152f35b346101e3575f3660031901126101e357610f2b61391c565b5f80546001600160a01b0319811682556001600160a01b03167f8be0079c531659141344cd1fd0a4f28419497f9722a3daafe3b4186f6b6457e08280a3005b346101e35760203660031901126101e3576001600160a01b03610f8b612b1c565b165f52600560205260405f206040519081602082549182815201915f5260205f20905f5b818110610fc6576103d0856106e881870382612da4565b8254845260209093019260019283019201610faf565b346101e3575f3660031901126101e357602060ff600254166040519015158152f35b346101e35760403660031901126101e3576004356001600160401b0381116101e35761102e903690600401612c67565b906024356001600160401b0381116101e35761104e903690600401612c67565b9290611058613620565b611060613664565b6110686136ba565b60048210158061243a575b15612401576012546001600160a01b03165f5b83811061232b57505083159384612309576110a23682846133d5565b94156122165750505f5b600381106121e657505b5f5b8351811015611145576110cb818561346d565b516110d9575b6001016110b8565b6013546001600160a01b0316905f6110f1828761346d565b516024604051809581936368972d5960e01b835260048301525afa9182156108b857600192611123575b5090506110d1565b61113e903d805f833e6111368183612da4565b81019061348f565b508561111b565b5090604051926101206111588186612da4565b60088552601f19015f5b8181106121cf5750506040805142602082019081523360601b6bffffffffffffffffffffffff1916928201929092524460548201524360748201526111aa8160948101610963565b519020905f5b60ff8116600881101561130557335f90815260046020526040902054604080516020810187815260f886901b6001600160f81b0319169282019290925260f09290921b6001600160f01b03191660418301526023825290611212604382612da4565b5190209160ff611224600d8506612de3565b1691600c8460081c066007019081600711610a8c5760ff94600194866112fd941687611255600b8560101c06612de3565b16916112cf8960038660181c0616948a61127560038360201c16926137b3565b61127e88612dfe565b1661128881612dfe565b61129182612e08565b604051966112a161014089612da4565b5f88525f60208901526112b381612dfe565b60408801526112c181612dfe565b606087015260808601613550565b60a084015260c083015260e08201525f6101008201525f6101208201526112f6828c61346d565b528961346d565b5001166111b0565b505092905f5b60ff81168660088210156115bc57916115b560ff6101206115758561156f8461010061152f848c6113798c869f60019f611348906113679261346d565b5151335f9081526009602052604090209015159290612cdf565b612cdf565b509060ff801983541691151516179055565b8b8d6113a3602061138a868661346d565b510151335f908152600960205260409020909390612cdf565b5001558b8560026113e260406113b9878761346d565b510151936113c685612dfe565b6113cf85612dfe565b335f908152600960205260409020612cdf565b5001911686198254161790556114318c60026114196060611403878761346d565b5101519261141084612dfe565b6113cf84612dfe565b50019061ff0082549160081b169061ff001916179055565b6114748c600261145a6114506080611449888861346d565b510161355c565b926113cf84612e08565b50019062ff000082549160101b169062ff00001916179055565b6114c08c60026114a48860a061148a888861346d565b510151335f90815260096020526040902091169390612cdf565b50019063ff00000082549160181b169063ff0000001916179055565b6114f48c60026114d68860c061148a888861346d565b50019064ff0000000082549160201b169064ff000000001916179055565b61152a8c600261150a8860e061148a888861346d565b50019065ff000000000082549160281b169065ff00000000001916179055565b61346d565b510151166002611553896113623360018060a01b03165f52600960205260405f2090565b50019060ff60301b82549160301b169060ff60301b1916179055565b8c61346d565b510151166002611599846113623360018060a01b03165f52600960205260405f2090565b50019060ff60381b82549160381b169060ff60381b1916179055565b011661130b565b601254601354335f908152600460205260409020546001600160a01b039283169361ffff9091169287928b929116906115f6368b8d6133d5565b926115ff613973565b5061160a8451613a33565b945f5b855181101561182b57611620818761346d565b519060405191630b2adfdf60e11b8352600483015260c0826024818d5afa9182156108b8575f92611775575b506020820191611665835161166081612dfe565b6145ae565b90611679608082019260ff845116906145f7565b9060ff806060830151169351169060a081019560ff8751166116be6116a783516116a281612dfe565b61460b565b9860ff8451916116b683612dfe565b51169061463b565b60408451936116cc85612dfe565b51946116d786612dfe565b01519460048610156108c35760019961ffff6117599860ff9586946117009c6040519d8e612d88565b8d5260208d015260408c0152168060608b015260808a01521660a08801521660c08601525f60e08601525f61010086015261173a81612dfe565b61012085015261174981612dfe565b6101408401526101608301613550565b611763828a61346d565b5261176e818961346d565b500161160d565b90915060c0813d8211611823575b8161179060c09383612da4565b810103126101e3576040519060c082018281106001600160401b0382111761052757604052805160038110156101e3578252602081015160038110156101e3576020830152604081015160048110156101e3576118179160a09160408501526117fb60608201613481565b606085015261180c60808201613481565b608085015201613481565b60a0820152908a61164c565b3d9150611783565b5085919361183988846146b5565b5f935b8551851015611a755761184f858761346d565b5115611a685761185f858761346d565b5195604051966368972d5960e01b885260048801525f87602481865afa9687156108b8575f97611a4c575b505f5b8551811015611a3757875160068110156108c3576118d45760019060ff60208a01511660ff6118ca6118bf848b61346d565b519282845116613a00565b1690525b0161188d565b875160068110156108c3576001036119175760019060ff60208a01511660ff61190e6020611902858c61346d565b51019282845116613a00565b1690525b6118ce565b875160068110156108c3576002036119455760019060ff60208a01511660ff61190e6040611902858c61346d565b875160068110156108c3576003036119e65761ffff6060611966838961346d565b5101511690600361ffff60ff60208c015116160261ffff8116908103610a8c5761ffff166064019161ffff8311610a8c5761ffff6119a86001946064936145de565b160461ffff60606119b9848b61346d565b51019116905261ffff60606119ce838a61346d565b5101511660806119de838a61346d565b5101526118ce565b875160068110156108c357600403611a145760019060ff60208a01511660ff61190e60a0611902858c61346d565b87519060068210156108c357600560019203611912578160e06119de838a61346d565b5092919550936001905b01939490919461183c565b611a619197503d805f833e6111368183612da4565b958761188a565b9360019095929195611a41565b9050611a818151613a33565b925f5b8251811015611b4a57611a97818461346d565b51906060820191611aac835161166081612dfe565b90611ac060c082019260ff845116906145f7565b9060ff8060a0830151169351169060e081019560ff875116611ae96116a783516116a281612dfe565b6080604085015193611afa85612dfe565b5194611b0586612dfe565b01519460048610156108c35760019961ffff611b2e9860ff9586946117009c6040519d8e612d88565b611b38828861346d565b52611b43818761346d565b5001611a84565b508284611b5683613ace565b611b5f81613ace565b611b6983516139a7565b90611b7481516139a7565b5f5b8551811015611ba6578061ffff6080611b916001948a61346d565b51015116611b9f828761346d565b5201611b76565b50909284925f5b8551811015611bdd578061ffff6080611bc86001948a61346d565b51015116611bd6828761346d565b5201611bad565b5060405194909391610f20611bf28188612da4565b60788752601f19015f5b8181106121645750505f9260015b601260ff82161115612033575b505050611c2390613bd5565b1590611c2e81612fdb565b94611c3c6040519687612da4565b818652601f19611c4b83612fdb565b015f5b818110611fc85750505f5b828110611f9e57505050611c6b613973565b9081526020810193845260408101928352606081019182528051151560405160208101916bffffffffffffffffffffffff193360601b16835242603483015244605483015260f81b607482015260558152611cc7607582612da4565b5190209384600d55611cf382511515335f52600a60205260405f209060ff801983541691151516179055565b335f908152600b60205260409020611d0f9061357f565b61357f565b5f5b845151811015611d4d57335f908152600b6020526040902060019190611d479061ffff611d3f848a5161346d565b5116906135a6565b01611d11565b50909193611d6e611d0a3360018060a01b03165f52600c60205260405f2090565b5f5b855151811015611da457335f908152600c6020526040902060019190611d9e9061ffff611d3f848b5161346d565b01611d70565b5083817fc5187ed43ef6c494568f3ace9a84a990fe330816256f8610ba7630de7fc2a485611dfd88611def885115159551915191604051968752606060208801526060870190612b59565b908582036040870152612b59565b928033940390a35f5b8251908151811015611eb757827f60620dfbc2d4188642cffa14579da13e93400a7369bb90aac5a983beef88f66a611e408360019561346d565b5160ff815116611eae602083015115159260ff6040820151169060ff60608201511661ffff6080830151169061010061ffff60e085015116930151936040519788978852602088015260408701526060860152608085015260a084015260e060c084015260e0830190612b90565b0390a201611e06565b84511515335f52600460205260405f2090805f14611f975760195b60ff63ffffffff845460101c1691160163ffffffff8111610a8c57825465ffffffff0000191660109190911b65ffffffff00001617825515611f825760018101611f1c8154613a14565b90555b805461ffff8116906037820263ffffffff8116908103610a8c57605a0163ffffffff8111610a8c5763ffffffff8091169160101c161015611f605760018055005b61ffff8114610a8c57600161ffff91011661ffff19825416179055808061087c565b60028101611f908154613a14565b9055611f1f565b600a611ed2565b80611fab6001928461346d565b51611fb6828a61346d565b52611fc1818961346d565b5001611c59565b602090604051611fd781612d50565b5f81525f838201525f60408201525f60608201525f60808201525f60a08201525f60c08201525f60e082015260606101008201525f6101208201525f6101408201525f6101608201525f61018082015282828b01015201611c4e565b61203c82613bd5565b158015612154575b61214f5761205182613c22565b61205a84613c22565b600360ff82160260ff8116908103610a8c5760018460ff8093161c161660010160ff8111610a8c5760ff165f5b8160ff8216106120a2575b505061209d90613a22565b611c0a565b607787101561213a576120b484613bd5565b15801561213f575b61213a5782878b876120ce8a89613c8b565b949015612109576120e0948b8a61423d565b6120f2575b600160ff915b0116612087565b95600161210060ff92613a14565b979150506120e5565b61211494898c613e64565b612123575b600160ff916120eb565b95600161213160ff92613a14565b97915050612119565b612092565b5061214986613bd5565b156120bc565b611c17565b5061215e84613bd5565b15612044565b60209060405161217381612d50565b5f81525f838201525f60408201525f60608201525f60808201525f60a08201525f60c08201525f60e082015260606101008201525f6101208201525f6101408201525f6101608201525f61018082015282828b01015201611bfc565b6020906121da6132fd565b82828901015201611162565b600190335f5260076020526121fe8160405f20612cd0565b90549060031b1c61220f828761346d565b52016110ac565b90919350600381116122d2575f5b81811061223e5750906122389136916133d5565b916110b6565b6122498183856133c5565b35612257575b600101612224565b60135461227691906020906001600160a01b0316610d378386886133c5565b03915afa9182156108b8575f9261229d575b506122966001921515613421565b905061224f565b91506020823d82116122ca575b816122b760209383612da4565b810103126101e357905190612296612288565b3d91506122aa565b60405162461bcd60e51b815260206004820152600f60248201526e546f6f206d616e792072656c69637360881b6044820152606490fd5b60405160806123188183612da4565b60038252601f19013660208301376110a2565b6123368185876133c5565b6040516331a9108f60e11b815290356004820152602081602481865afa9081156108b8575f916123c0575b50336001600160a01b039091160361237b57600101611086565b60405162461bcd60e51b815260206004820152601860248201527f596f7520646f206e6f74206f776e207468697320756e697400000000000000006044820152606490fd5b90506020813d82116123f9575b816123da60209383612da4565b810103126101e357516001600160a01b03811681036101e35787612361565b3d91506123cd565b60405162461bcd60e51b8152602060048201526011602482015270496e76616c6964207465616d2073697a6560781b6044820152606490fd5b506008821115611073565b346101e3575f3660031901126101e3576020600d54604051908152f35b346101e35760403660031901126101e35761247b612b1c565b6001600160a01b03165f908152600560205260409020805460243591908210156101e35760209161023091612c52565b346101e35760403660031901126101e3576124c4612b1c565b6001600160a01b03165f908152600b602052604090208054602435908110156101e357610f0361ffff91602093612c31565b346101e35760203660031901126101e35761250f612b1c565b606060405161251f606082612da4565b5f5b8281106125a1578360018060a01b03165f52600860205260405f206040519061254982612d35565b5f825b6003821061258357604051845f825b60038210612569576103c084f35b60206125786001928551612bb4565b93019101909161255b565b6003602060019261259386613347565b81520193019101909161254c565b6020906125ac6132fd565b8184015201612521565b346101e3575f3660031901126101e3576125ce61391c565b60025460ff81161561260d5760ff19166002557f5db9ee0a495bf2e6ff9c91a7834c1ba4fdd244a5e8aa4e537bd38aeae4b073aa6020604051338152a1005b60405162461bcd60e51b815260206004820152601460248201527314185d5cd8589b194e881b9bdd081c185d5cd95960621b6044820152606490fd5b346101e3575f3660031901126101e35761266161391c565b612669613664565b47801561268c575f8080809360018060a01b0382541682f1156108b85760018055005b60405162461bcd60e51b81526020600482015260146024820152734e6f2066756e647320746f20776974686472617760601b6044820152606490fd5b346101e3575f3660031901126101e3576020600e54604051908152f35b346101e35760203660031901126101e3576126fe612b1c565b6040519061270d602083612da4565b5f82525f805b81811061289b57505060018060a01b031690815f52600a60205260ff60405f20541690825f52600b60205260405f20925f52600c60205260405f2092612785612767612761600d5493612ff2565b95612ff2565b611def6040519687961515875260a0602088015260a0870190612b59565b9060608401528281036080840152815180825260208201916020808360051b8301019401925f915b8383106127ba5786860387f35b919395509193602080600192601f1985820301865288519060ff82511681528282015115158382015260ff604083015116604082015260ff606083015116606082015261ffff608083015116608082015261ffff60a08301511660a082015261ffff60c08301511660c082015261ffff60e08301511660e082015261018060ff816128586101008601516101a06101008701526101a0860190612b90565b94826101208201511661012086015282610140820151166101408601528261016082015116610160860152015116910152970193019301909286959492936127ad565b6020906040516128aa81612d50565b5f81525f838201525f60408201525f60608201525f60808201525f60a08201525f60c08201525f60e082015260606101008201525f6101208201525f6101408201525f6101608201525f61018082015282828701015201612713565b5f3660031901126101e357612919613620565b612921613664565b6129296136ba565b612937600f54341015612cf2565b5f5b600381106129475760018055005b60019061296a6129556137d5565b335f5260086020526108768360405f20612b32565b01612939565b5f3660031901126101e357612983613620565b61298b613664565b6129936136ba565b6129a1600e54341015612cf2565b60405160208101904282523360601b6040820152446054820152605481526129ca607482612da4565b519020600b8106600a0180600a11610a8c57600b8260081c066008019081600811610a8c57600b8360101c066009019283600911610a8c5760ff60038260181c0616612a1c60038360201c16926137b3565b6012546001600160a01b0316929060ff90612a3684612dfe565b1695612a4187612dfe565b60048210156108c357604051630e3bd81160e31b815296602096889687955f958795612a7e9560ff91821695821694909116923360048901612e12565b03925af180156108b8575f90612aa4575b61087c90335f52600560205260405f20612e72565b506020813d602011612ad0575b81612abe60209383612da4565b810103126101e35761087c9051612a8f565b3d9150612ab1565b346101e35760403660031901126101e357612af1612b1c565b6001600160a01b03165f90815260086020526040902060243560038110156101e35761034991612b32565b600435906001600160a01b03821682036101e357565b906003811015612b455760030201905f90565b634e487b7160e01b5f52603260045260245ffd5b90602080835192838152019201905f5b818110612b765750505090565b825161ffff16845260209384019390920191600101612b69565b805180835260209291819084018484015e5f828201840152601f01601f1916010190565b9060ff61012061014093805115158452602081015160208501528260408201511660408501528260608201511660608501528260808201511660808501528260a08201511660a08501528260c08201511660c08501528260e08201511660e085015282610100820151166101008501520151166101208201520190565b9190918054831015612b45575f52601e60205f208360041c019260011b1690565b8054821015612b45575f5260205f2001905f90565b9181601f840112156101e3578235916001600160401b0383116101e3576020808501948460051b0101116101e357565b60206040818301928281528451809452019201905f5b818110612cba5750505090565b8251845260209384019390920191600101612cad565b6003821015612b455701905f90565b906008811015612b455760030201905f90565b15612cf957565b60405162461bcd60e51b8152602060048201526014602482015273125b9cdd59999a58da595b9d081c185e5b595b9d60621b6044820152606490fd5b606081019081106001600160401b0382111761052757604052565b6101a081019081106001600160401b0382111761052757604052565b61014081019081106001600160401b0382111761052757604052565b61018081019081106001600160401b0382111761052757604052565b90601f801991011681019081106001600160401b0382111761052757604052565b8115612dcf570690565b634e487b7160e01b5f52601260045260245ffd5b6008019081600811610a8c57565b91908201809211610a8c57565b600311156108c357565b600411156108c357565b6001600160a01b03909116815260e08101979690959490929091612e3581612dfe565b6020870152612e4381612dfe565b604086015260048310156108c35760c09360ff809492819360608901521660808701521660a085015216910152565b8054600160401b81101561052757612e8f91600182018155612c52565b819291549060031b91821b915f19901b1916179055565b9190612fc85760ff6101206002612fc694612ed085511515829060ff801983541691151516179055565b6020850151600182015501928280604083015116168319855416178455612f0e83606083015116859061ff0082549160081b169061ff001916179055565b6080810151845462ff0000191690841660101b62ff00001617845560a0810151845463ff000000191690841660181b63ff0000001617845560c0810151845464ff00000000191690841660201b64ff000000001617845560e0810151845465ff0000000000191690841660281b65ff000000000016178455610100810151845466ff000000000000191690841660301b60ff60301b161784550151825467ff000000000000001916911660381b60ff60381b16179055565b565b634e487b7160e01b5f525f60045260245ffd5b6001600160401b0381116105275760051b60200190565b90604051918281549182825260208201905f5260205f20925f905b80600f83011061321557612fc6945491818110613200575b8181106131e8575b8181106131d1575b8181106131b9575b8181106131a1575b818110613189575b818110613171575b818110613159575b818110613141575b818110613129575b818110613111575b8181106130f9575b8181106130e1575b8181106130c9575b8181106130b1575b106130a3575b500383612da4565b60f01c81526020015f61309b565b92602060019161ffff8560e01c168152019301613095565b92602060019161ffff8560d01c16815201930161308d565b92602060019161ffff8560c01c168152019301613085565b92602060019161ffff8560b01c16815201930161307d565b92602060019161ffff8560a01c168152019301613075565b92602060019161ffff8560901c16815201930161306d565b92602060019161ffff8560801c168152019301613065565b92602060019161ffff8560701c16815201930161305d565b92602060019161ffff8560601c168152019301613055565b92602060019161ffff8560501c16815201930161304d565b92602060019161ffff8560401c168152019301613045565b92602060019161ffff8560301c16815201930161303d565b92602060019161ffff85831c168152019301613035565b92602060019161ffff8560101c16815201930161302d565b92602060019161ffff85168152019301613025565b916010919350610200600191865461ffff8116825261ffff81861c16602083015261ffff8160201c16604083015261ffff8160301c16606083015261ffff8160401c16608083015261ffff8160501c1660a083015261ffff8160601c1660c083015261ffff8160701c1660e083015261ffff8160801c1661010083015261ffff8160901c1661012083015261ffff8160a01c1661014083015261ffff8160b01c1661016083015261ffff8160c01c1661018083015261ffff8160d01c166101a083015261ffff8160e01c166101c083015260f01c6101e082015201940192018592939161300d565b6040519061330a82612d6c565b5f610120838281528260208201528260408201528260608201528260808201528260a08201528260c08201528260e0820152826101008201520152565b9060405161335481612d6c565b61012060ff6002839582815416151585526001810154602086015201548181166040850152818160081c166060850152818160101c166080850152818160181c1660a0850152818160201c1660c0850152818160281c1660e0850152818160301c1661010085015260381c16910152565b9190811015612b455760051b0190565b9291906133e181612fdb565b936133ef6040519586612da4565b602085838152019160051b81019283116101e357905b82821061341157505050565b8135815260209182019101613405565b1561342857565b60405162461bcd60e51b815260206004820152601960248201527f596f7520646f206e6f74206f776e20746869732072656c6963000000000000006044820152606490fd5b8051821015612b455760209160051b010190565b519060ff821682036101e357565b6020818303126101e3578051906001600160401b0382116101e35701906060828203126101e357604051916134c383612d35565b805160068110156101e35783526134dc60208201613481565b60208401526040810151906001600160401b0382116101e3570181601f820112156101e3578051906001600160401b038211610527576040519261352a601f8401601f191660200185612da4565b828452602083830101116101e357815f9260208093018386015e83010152604082015290565b60048210156108c35752565b5160048110156108c35790565b818110613574575050565b5f8155600101613569565b80545f82558061358d575050565b612fc6915f52600f60205f20910160041c810190613569565b8054600160401b811015610527576135c391600182018155612c31565b61ffff80839493549260031b9316831b921b1916179055565b6003811015612b455760051b60040190565b906003811015612b455760051b0190565b80545f82558061360d575050565b612fc6915f5260205f2090810190613569565b60ff6002541661362c57565b60405162461bcd60e51b815260206004820152601060248201526f14185d5cd8589b194e881c185d5cd95960821b6044820152606490fd5b600260015414613675576002600155565b60405162461bcd60e51b815260206004820152601f60248201527f5265656e7472616e637947756172643a207265656e7472616e742063616c6c006044820152606490fd5b335f52600360205260ff60405f205416156136d157565b335f52600360205260405f20600160ff1982541617905560405160a081018181106001600160401b03821117610527576040526001815261ffff600381602084015f8152604085015f815260608601905f825261377063ffffffff608089019460018652335f526004602052868060405f209b51161687198b5416178a555116889065ffffffff000082549160101b169065ffffffff00001916179055565b51600187015551600286015551169201911661ffff19825416179055337ff10ec97e920cde75887622583772c637595a40b1f7777c18e51ea36cd127475c5f80a2565b60649006603c81106137d057605a116137cb57600290565b600190565b505f90565b6137dd6132fd565b5060405160208101904282524460408201523360601b606082015260548152613807607482612da4565b519020602860648206101561387b57600d8160081c0660080180600811610a8c5760ff908160066040519461383b86612d6c565b600186525f60208701525f60408701525f60608701525f60808701525f60a08701525f60c08701525f60e087015206166101008401521661012082015290565b613884816137b3565b90600b8160281c06600a0180600a11610a8c57600b8260301c066008019081600811610a8c57600b8360381c066009019182600911610a8c5760ff8094926003829483604051996138d48b612d6c565b5f8b525f60208c015281848460101c061660408c01521660608a015260181c1660808801521660a08601521660c08401521660e08201525f6101008201525f61012082015290565b5f546001600160a01b0316330361392f57565b606460405162461bcd60e51b815260206004820152602060248201527f4f776e61626c653a2063616c6c6572206973206e6f7420746865206f776e65726044820152fd5b60405190608082018281106001600160401b0382111761052757604052606080835f81528160208201528160408201520152565b906139b182612fdb565b6139be6040519182612da4565b82815280926139cf601f1991612fdb565b0190602036910137565b60021b906103fc60fc831692168203610a8c57565b60ff60029116019060ff8211610a8c57565b9060ff8091169116019060ff8211610a8c57565b5f198114610a8c5760010190565b60ff1660ff8114610a8c5760010190565b90613a3d82612fdb565b613a4a6040519182612da4565b8281528092613a5b601f1991612fdb565b01905f5b828110613a6b57505050565b602090604051613a7a81612d88565b5f81525f838201525f60408201525f60608201525f60808201525f60a08201525f60c08201525f60e08201525f6101008201525f6101208201525f6101408201525f61016082015282828501015201613a5f565b60405191906060613adf8185612da4565b60603685375f5b8251811015613b5e578061ffff83613b006001948761346d565b51015116613b0f575b01613ae6565b60ff610120613b1e838761346d565b510151613b2a81612dfe565b613b3381612dfe565b1660ff613b55613b4e82613b47858c6135ee565b5116613a22565b92896135ee565b91169052613b09565b50505f5b8151811015613bcf5780600360ff613b9f81610120613b836001978961346d565b510151613b8f81612dfe565b613b9881612dfe565b16886135ee565b51161015613bae575b01613b62565b613bb8818461346d565b5160ff613bc7818351166139ee565b169052613ba8565b50509050565b5f5b8151811015613c065761ffff6060613bef838561346d565b51015116613bff57600101613bd7565b5050600190565b50505f90565b9061ffff8091169116019061ffff8211610a8c57565b5f5b8151811015613c87578061ffff6060613c3f6001948661346d565b51015116613c4e575b01613c24565b60ff6040613c5c838661346d565b5101511661ffff613c7f610100613c73858861346d565b51019282845116613c0c565b169052613c48565b5050565b905f905f5f945f915f5b8651811015613d1a57613cc1613cba6060613cb0848b61346d565b51015161ffff1690565b61ffff1690565b151580613cfb575b613cd6575b600101613c95565b9650509250613ceb610100613cb0878761346d565b9260018060ff8816979050613cce565b50613d0c610100613cb0838a61346d565b61ffff808816911611613cc9565b5091949092955f5b8751811015613d9857613d3d613cba6060613cb0848c61346d565b151580613d79575b613d52575b600101613d22565b955091509250613d68610100613cb0868861346d565b925f91600160ff8716969050613d4a565b50613d8a610100613cb0838b61346d565b61ffff808816911611613d45565b50919361ffff90959193951615613dee5791610100915f93858514613de65750955b848414613dd75750613dd09060ff87169061346d565b5101529190565b613dd0915060ff87169061346d565b905095613dba565b5050613e0e92939150613e0081613c22565b613e0982613c22565b613c8b565b9091565b61ffff5f199116019061ffff8211610a8c57565b9061ffff8091169116039061ffff8211610a8c57565b60405190613e4b604083612da4565b600a82526913185cdd0814dd185b9960b21b6020830152565b959160ff909794959391971661ffff6060613e7f838a61346d565b5101511615614231575f955f5b8951811015613ec95761ffff6060613ea4838d61346d565b51015116613eb5575b600101613e8c565b96613ec1600191613a14565b979050613ead565b5090929497919395968715614225575f976001810361419257505f5b83518110156141845761ffff6060613efd838761346d565b51015116613f0d57600101613ee5565b909192939495969750915b61ffff6060613f27858761346d565b510151169060ff613f38878561346d565b51511660ff6020613f49878961346d565b5101511660ff60a0613f5b8a8861346d565b5101511660ff60c0613f6d898b61346d565b510151169160038c02948c86046003148d151715610a8c57613f90951c93614815565b908061ffff806060613fa2898b61346d565b5101511691161161416b575b5f60e0613fbb878961346d565b51015115158061414b575b1561412157505050613fe961ffff6060613fe0868861346d565b51015116613e12565b60016060613ff7868861346d565b510152600191614005613e3c565b925b614111575b61ffff606061401b878961346d565b510151169161016061404a89610140614034828a61346d565b5101519761404189612dfe565b61152a89612dfe565b5101519560048710156108c3576140846101606114498361014061406e828e61346d565b5101519b61407b8d612dfe565b61152a8d612dfe565b9860048a10156108c3576040519a61409b8c612d50565b60ff168b5260208b015f905260408b015260ff1660608a015261ffff168060808a015260a089015260c088015260e087015261010086015260ff1661012085015260ff1661014084015260ff1661016083015260ff16610180820152614101828461346d565b5261410b9161346d565b50600190565b915061411b613e3c565b9161400c565b606061413187899694959661346d565b510161ffff6141438582845116613e26565b169052614007565b5061ffff606061415b888a61346d565b5101511661ffff83161015613fc6565b5061ffff606061417b868861346d565b51015116613fae565b509096919293949596613f18565b6141bb919850826141b58860ff6141af8a9998979e9c9b9a6139d9565b16612df1565b1c612dc5565b975f975f5b83518110156142155761ffff60606141d8838761346d565b510151166141e9575b6001016141c0565b988a8114614204576141fc600191613a14565b9990506141e1565b509193959790929496985091613f18565b5091939597509791939597613f18565b50505050505050505f90565b50505050925050505f90565b959160ff909794959391971661ffff6060614258838a61346d565b5101511615614231575f955f5b89518110156142a25761ffff606061427d838d61346d565b5101511661428e575b600101614265565b9661429a600191613a14565b979050614286565b5090929497919395968715614225575f976001810361452757505f5b83518110156145195761ffff60606142d6838761346d565b510151166142e6576001016142be565b909192939495969750915b61ffff6060614300858761346d565b510151169060ff614311878561346d565b51511660ff6020614322878961346d565b5101511660ff60a06143348a8861346d565b5101511660ff60c0614346898b61346d565b510151169160038c02948c86046003148d151715610a8c57614369951c93614815565b908061ffff80606061437b898b61346d565b51015116911611614500575b5f60e0614394878961346d565b5101511515806144e0575b156144b6575050506143b961ffff6060613fe0868861346d565b600160606143c7868861346d565b5101526001916143d5613e3c565b925b6144a6575b61ffff60606143eb878961346d565b510151169161016061440489610140614034828a61346d565b5101519560048710156108c3576144286101606114498361014061406e828e61346d565b9860048a10156108c3576040519a61443f8c612d50565b60ff168b5260208b016001905260408b015260ff1660608a015261ffff168060808a015260a089015260c088015260e087015261010086015260ff1661012085015260ff1661014084015260ff1661016083015260ff16610180820152614101828461346d565b91506144b0613e3c565b916143dc565b60606144c687899694959661346d565b510161ffff6144d88582845116613e26565b1690526143d7565b5061ffff60606144f0888a61346d565b5101511661ffff8316101561439f565b5061ffff6060614510868861346d565b51015116614387565b5090969192939495966142f1565b614544919850826141b58860ff6141af8a9998979e9c9b9a6139d9565b975f975f5b835181101561459e5761ffff6060614561838761346d565b51015116614572575b600101614549565b988a811461458d57614585600191613a14565b99905061456a565b5091939597909294969850916142f1565b50919395975097919395976142f1565b6145b781612dfe565b80156145d8576001906145c981612dfe565b146145d357606990565b605290565b50604190565b9061ffff8091169116029061ffff8216918203610a8c57565b9060021b6103fc1661460891613c0c565b90565b61461481612dfe565b80156146355760019061462681612dfe565b1461463057601490565b600c90565b50600690565b9060ff6016911604908161464e82612dfe565b600182146146a0575b5060029061466481612dfe565b1461467c575b601260ff821611156146085750601290565b60ff600491160160ff81111561466a57634e487b7160e01b5f52601160045260245ffd5b60029192506146ae906139ee565b9190614657565b919061ffff1680156148105760038102908104600303610a8c576064019182606411610a8c575f5b8151811015613bcf578060648560ff6146f86001958761346d565b515116020460ff811115614808575060ff5b60ff614716838661346d565b519116905260648560ff602061472c858861346d565b51015116020460ff811115614800575060ff5b60ff602061474d848761346d565b51019116905260648560ff6040614764858861346d565b51015116020460ff8111156147f8575060ff5b60ff6040614785848761346d565b51019116905260648561ffff606061479d858861346d565b51015116020461ffff8111156147ef575061ffff5b61ffff60606147c1848761346d565b51019116905261ffff60606147d6838661346d565b5101511660806147e6838661346d565b510152016146dd565b61ffff166147b2565b60ff16614777565b60ff1661473f565b60ff1661470a565b509050565b60609594929360ff1680158015919082614975575b505061494a5760ff169061ffff6023840616606e0161ffff8111610a8c5760ff614856601292856145de565b92160161ffff8111610a8c5761ffff16908115612dcf5761ffff160490600261ffff83161061492d575b5061ffff60258360081c061660520161ffff8111610a8c576148a761ffff916064936145de565b16049060ff829316908115159182614904575b50506148c557509190565b600d92935061ffff9150160261ffff8116908103610a8c57600a9004906040516148f0604082612da4565b600481526310d4925560e21b602082015290565b601c9192500261ffff8116908103610a8c5761ffff600a60649204169160181c06105f806148ba565b60ff9150600390041660020160ff8111610a8c5760ff165f614880565b5050505090505f90604051614960604082612da4565b6005815264444f44474560d81b602082015290565b909150601982029182046019141715610a8c57600a900460648406105f8061482a56fea264697066735822122054c74238bcc57aa4087092b5ee6ba9a7a8e33031f4579400d88b124c9c44a5bf64736f6c634300081e0033",
			"opcodes": "PUSH1 0x80 CALLVALUE PUSH2 0x109 JUMPI PUSH1 0x1F PUSH2 0x4B04 CODESIZE DUP2 SWAP1 SUB SWAP2 DUP3 ADD PUSH1 0x1F NOT AND DUP4 ADD SWAP2 PUSH1 0x1 PUSH1 0x1 PUSH1 0x40 SHL SUB DUP4 GT DUP5 DUP5 LT OR PUSH2 0x10D JUMPI DUP1 DUP5 SWAP3 PUSH1 0x40 SWAP5 DUP6 MSTORE DUP4 CODECOPY DUP2 ADD SUB SLT PUSH2 0x109 JUMPI PUSH2 0x52 PUSH1 0x20 PUSH2 0x4B DUP4 PUSH2 0x121 JUMP JUMPDEST SWAP3 ADD PUSH2 0x121 JUMP JUMPDEST PUSH0 DUP1 SLOAD CALLER PUSH1 0x1 PUSH1 0x1 PUSH1 0xA0 SHL SUB NOT DUP3 AND DUP2 OR DUP4 SSTORE PUSH1 0x40 MLOAD SWAP5 SWAP3 SWAP1 SWAP2 PUSH1 0x1 PUSH1 0x1 PUSH1 0xA0 SHL SUB AND SWAP1 PUSH32 0x8BE0079C531659141344CD1FD0A4F28419497F9722A3DAAFE3B4186F6B6457E0 SWAP1 DUP1 LOG3 PUSH1 0x1 DUP1 SSTORE PUSH1 0x2 DUP1 SLOAD PUSH1 0xFF NOT AND SWAP1 SSTORE PUSH7 0x2386F26FC10000 PUSH1 0xE DUP2 SWAP1 SSTORE PUSH7 0x11C37937E08000 PUSH1 0xF SSTORE PUSH1 0x10 SSTORE PUSH7 0x1C6BF526340000 PUSH1 0x11 SSTORE PUSH1 0x12 DUP1 SLOAD PUSH1 0x1 PUSH1 0x1 PUSH1 0xA0 SHL SUB SWAP3 DUP4 AND PUSH1 0x1 PUSH1 0x1 PUSH1 0xA0 SHL SUB NOT SWAP2 DUP3 AND OR SWAP1 SWAP2 SSTORE PUSH1 0x13 DUP1 SLOAD SWAP4 SWAP1 SWAP3 AND SWAP3 AND SWAP2 SWAP1 SWAP2 OR SWAP1 SSTORE PUSH2 0x49CE SWAP1 DUP2 PUSH2 0x136 DUP3 CODECOPY RETURN JUMPDEST PUSH0 DUP1 REVERT JUMPDEST PUSH4 0x4E487B71 PUSH1 0xE0 SHL PUSH0 MSTORE PUSH1 0x41 PUSH1 0x4 MSTORE PUSH1 0x24 PUSH0 REVERT JUMPDEST MLOAD SWAP1 PUSH1 0x1 PUSH1 0x1 PUSH1 0xA0 SHL SUB DUP3 AND DUP3 SUB PUSH2 0x109 JUMPI JUMP INVALID PUSH1 0x80 PUSH1 0x40 MSTORE PUSH1 0x4 CALLDATASIZE LT ISZERO PUSH2 0x11 JUMPI PUSH0 DUP1 REVERT JUMPDEST PUSH0 CALLDATALOAD PUSH1 0xE0 SHR DUP1 PUSH4 0x18DC3185 EQ PUSH2 0x2AD8 JUMPI DUP1 PUSH4 0x201738E2 EQ PUSH2 0x2970 JUMPI DUP1 PUSH4 0x29DE58D1 EQ PUSH2 0x2906 JUMPI DUP1 PUSH4 0x2DC6D62F EQ PUSH2 0x26E5 JUMPI DUP1 PUSH4 0x394861F3 EQ PUSH2 0x26C8 JUMPI DUP1 PUSH4 0x3CCFD60B EQ PUSH2 0x2649 JUMPI DUP1 PUSH4 0x3F4BA83A EQ PUSH2 0x25B6 JUMPI DUP1 PUSH4 0x49C7C24A EQ PUSH2 0x24F6 JUMPI DUP1 PUSH4 0x4E178659 EQ PUSH2 0x24AB JUMPI DUP1 PUSH4 0x4EF2D6C1 EQ PUSH2 0x2462 JUMPI DUP1 PUSH4 0x518C83B0 EQ PUSH2 0x2445 JUMPI DUP1 PUSH4 0x51BDAB14 EQ PUSH2 0xFFE JUMPI DUP1 PUSH4 0x5C975ABB EQ PUSH2 0xFDC JUMPI DUP1 PUSH4 0x6154EE97 EQ PUSH2 0xF6A JUMPI DUP1 PUSH4 0x715018A6 EQ PUSH2 0xF13 JUMPI DUP1 PUSH4 0x732E9B85 EQ PUSH2 0xEB8 JUMPI DUP1 PUSH4 0x7E5C4F8B EQ PUSH2 0xE75 JUMPI DUP1 PUSH4 0x8456CB59 EQ PUSH2 0xE1C JUMPI DUP1 PUSH4 0x8B5CA78F EQ PUSH2 0xDFF JUMPI DUP1 PUSH4 0x8DA5CB5B EQ PUSH2 0xDD8 JUMPI DUP1 PUSH4 0x9D980BD2 EQ PUSH2 0xDBB JUMPI DUP1 PUSH4 0xA5F968A0 EQ PUSH2 0xC73 JUMPI DUP1 PUSH4 0xA787C80B EQ PUSH2 0xC36 JUMPI DUP1 PUSH4 0xA95DB7E2 EQ PUSH2 0xB98 JUMPI DUP1 PUSH4 0xB2A47500 EQ PUSH2 0xB55 JUMPI DUP1 PUSH4 0xB654823E EQ PUSH2 0x76F JUMPI DUP1 PUSH4 0xB78F4C70 EQ PUSH2 0x732 JUMPI DUP1 PUSH4 0xB92A40AD EQ PUSH2 0x70A JUMPI DUP1 PUSH4 0xBB15A3B4 EQ PUSH2 0x68C JUMPI DUP1 PUSH4 0xBBE15627 EQ PUSH2 0x61B JUMPI DUP1 PUSH4 0xBDB729C9 EQ PUSH2 0x598 JUMPI DUP1 PUSH4 0xC4F036C4 EQ PUSH2 0x550 JUMPI DUP1 PUSH4 0xC99AE45F EQ PUSH2 0x46C JUMPI DUP1 PUSH4 0xD5654AE7 EQ PUSH2 0x444 JUMPI DUP1 PUSH4 0xD8E86854 EQ PUSH2 0x3D4 JUMPI DUP1 PUSH4 0xDA539B0F EQ PUSH2 0x305 JUMPI DUP1 PUSH4 0xF2FDE38B EQ PUSH2 0x23F JUMPI DUP1 PUSH4 0xF5905CA1 EQ PUSH2 0x1E7 JUMPI PUSH4 0xF5E5FFF2 EQ PUSH2 0x1C6 JUMPI PUSH0 DUP1 REVERT JUMPDEST CALLVALUE PUSH2 0x1E3 JUMPI PUSH0 CALLDATASIZE PUSH1 0x3 NOT ADD SLT PUSH2 0x1E3 JUMPI PUSH1 0x20 PUSH1 0x10 SLOAD PUSH1 0x40 MLOAD SWAP1 DUP2 MSTORE RETURN JUMPDEST PUSH0 DUP1 REVERT JUMPDEST CALLVALUE PUSH2 0x1E3 JUMPI PUSH1 0x40 CALLDATASIZE PUSH1 0x3 NOT ADD SLT PUSH2 0x1E3 JUMPI PUSH2 0x200 PUSH2 0x2B1C JUMP JUMPDEST PUSH1 0x1 PUSH1 0x1 PUSH1 0xA0 SHL SUB AND PUSH0 SWAP1 DUP2 MSTORE PUSH1 0x6 PUSH1 0x20 MSTORE PUSH1 0x40 SWAP1 KECCAK256 DUP1 SLOAD PUSH1 0x24 CALLDATALOAD SWAP2 SWAP1 DUP3 LT ISZERO PUSH2 0x1E3 JUMPI PUSH1 0x20 SWAP2 PUSH2 0x230 SWAP2 PUSH2 0x2C52 JUMP JUMPDEST SWAP1 SLOAD SWAP1 PUSH1 0x3 SHL SHR PUSH1 0x40 MLOAD SWAP1 DUP2 MSTORE RETURN JUMPDEST CALLVALUE PUSH2 0x1E3 JUMPI PUSH1 0x20 CALLDATASIZE PUSH1 0x3 NOT ADD SLT PUSH2 0x1E3 JUMPI PUSH2 0x258 PUSH2 0x2B1C JUMP JUMPDEST PUSH2 0x260 PUSH2 0x391C JUMP JUMPDEST PUSH1 0x1 PUSH1 0x1 PUSH1 0xA0 SHL SUB AND DUP1 ISZERO PUSH2 0x2B1 JUMPI PUSH0 DUP1 SLOAD PUSH1 0x1 PUSH1 0x1 PUSH1 0xA0 SHL SUB NOT DUP2 AND DUP4 OR DUP3 SSTORE PUSH1 0x1 PUSH1 0x1 PUSH1 0xA0 SHL SUB AND SWAP1 PUSH32 0x8BE0079C531659141344CD1FD0A4F28419497F9722A3DAAFE3B4186F6B6457E0 SWAP1 DUP1 LOG3 STOP JUMPDEST PUSH1 0x40 MLOAD PUSH3 0x461BCD PUSH1 0xE5 SHL DUP2 MSTORE PUSH1 0x20 PUSH1 0x4 DUP3 ADD MSTORE PUSH1 0x26 PUSH1 0x24 DUP3 ADD MSTORE PUSH32 0x4F776E61626C653A206E6577206F776E657220697320746865207A65726F2061 PUSH1 0x44 DUP3 ADD MSTORE PUSH6 0x646472657373 PUSH1 0xD0 SHL PUSH1 0x64 DUP3 ADD MSTORE PUSH1 0x84 SWAP1 REVERT JUMPDEST CALLVALUE PUSH2 0x1E3 JUMPI PUSH1 0x40 CALLDATASIZE PUSH1 0x3 NOT ADD SLT PUSH2 0x1E3 JUMPI PUSH2 0x31E PUSH2 0x2B1C JUMP JUMPDEST PUSH1 0x1 PUSH1 0x1 PUSH1 0xA0 SHL SUB AND PUSH0 SWAP1 DUP2 MSTORE PUSH1 0x9 PUSH1 0x20 MSTORE PUSH1 0x40 SWAP1 KECCAK256 PUSH1 0x24 CALLDATALOAD PUSH1 0x8 DUP2 LT ISZERO PUSH2 0x1E3 JUMPI PUSH2 0x349 SWAP2 PUSH2 0x2CDF JUMP JUMPDEST POP DUP1 SLOAD PUSH1 0x1 DUP3 ADD SLOAD PUSH1 0x2 SWAP1 SWAP3 ADD SLOAD PUSH1 0x40 DUP1 MLOAD PUSH1 0xFF SWAP4 DUP5 AND ISZERO ISZERO DUP2 MSTORE PUSH1 0x20 DUP1 DUP3 ADD SWAP6 SWAP1 SWAP6 MSTORE DUP3 DUP5 AND SWAP2 DUP2 ADD SWAP2 SWAP1 SWAP2 MSTORE PUSH1 0x8 DUP3 SWAP1 SHR DUP4 AND PUSH1 0x60 DUP3 ADD MSTORE PUSH1 0x10 DUP3 SWAP1 SHR DUP4 AND PUSH1 0x80 DUP3 ADD MSTORE PUSH1 0x18 DUP3 SWAP1 SHR DUP4 AND PUSH1 0xA0 DUP3 ADD MSTORE SWAP3 DUP2 SWAP1 SHR DUP3 AND PUSH1 0xC0 DUP5 ADD MSTORE PUSH1 0x28 DUP2 SWAP1 SHR DUP3 AND PUSH1 0xE0 DUP5 ADD MSTORE PUSH1 0x30 DUP2 SWAP1 SHR DUP3 AND PUSH2 0x100 DUP5 ADD MSTORE PUSH1 0x38 SHR AND PUSH2 0x120 DUP3 ADD MSTORE DUP1 PUSH2 0x140 DUP2 ADD JUMPDEST SUB SWAP1 RETURN JUMPDEST CALLVALUE PUSH2 0x1E3 JUMPI PUSH1 0x80 CALLDATASIZE PUSH1 0x3 NOT ADD SLT PUSH2 0x1E3 JUMPI PUSH32 0x6EF2FF813EFC9EFC76792366C4ACA2677B755A5A13AFFC54D96EF35DC8E9BB73 PUSH1 0x80 PUSH1 0x4 CALLDATALOAD PUSH1 0x64 CALLDATALOAD PUSH1 0x44 CALLDATALOAD PUSH1 0x24 CALLDATALOAD PUSH2 0x41C PUSH2 0x391C JUMP JUMPDEST DUP4 PUSH1 0xE SSTORE DUP1 PUSH1 0xF SSTORE DUP2 PUSH1 0x10 SSTORE DUP3 PUSH1 0x11 SSTORE PUSH1 0x40 MLOAD SWAP4 DUP5 MSTORE PUSH1 0x20 DUP5 ADD MSTORE PUSH1 0x40 DUP4 ADD MSTORE PUSH1 0x60 DUP3 ADD MSTORE LOG1 STOP JUMPDEST CALLVALUE PUSH2 0x1E3 JUMPI PUSH0 CALLDATASIZE PUSH1 0x3 NOT ADD SLT PUSH2 0x1E3 JUMPI PUSH1 0x13 SLOAD PUSH1 0x40 MLOAD PUSH1 0x1 PUSH1 0x1 PUSH1 0xA0 SHL SUB SWAP1 SWAP2 AND DUP2 MSTORE PUSH1 0x20 SWAP1 RETURN JUMPDEST CALLVALUE PUSH2 0x1E3 JUMPI PUSH1 0x20 CALLDATASIZE PUSH1 0x3 NOT ADD SLT PUSH2 0x1E3 JUMPI PUSH2 0x485 PUSH2 0x2B1C JUMP JUMPDEST PUSH2 0x100 SWAP1 PUSH1 0x40 MLOAD PUSH2 0x496 DUP4 DUP3 PUSH2 0x2DA4 JUMP JUMPDEST PUSH0 JUMPDEST DUP4 DUP2 LT PUSH2 0x53B JUMPI POP POP PUSH1 0x1 DUP1 PUSH1 0xA0 SHL SUB AND PUSH0 MSTORE PUSH1 0x9 PUSH1 0x20 MSTORE PUSH1 0x40 PUSH0 KECCAK256 PUSH1 0x40 MLOAD SWAP2 DUP3 ADD DUP3 DUP2 LT PUSH1 0x1 PUSH1 0x1 PUSH1 0x40 SHL SUB DUP3 GT OR PUSH2 0x527 JUMPI PUSH1 0x40 MSTORE PUSH0 DUP3 JUMPDEST PUSH1 0x8 DUP3 LT PUSH2 0x509 JUMPI PUSH1 0x40 MLOAD DUP5 PUSH0 DUP3 JUMPDEST PUSH1 0x8 DUP3 LT PUSH2 0x4EF JUMPI PUSH2 0xA00 DUP5 RETURN JUMPDEST PUSH1 0x20 PUSH2 0x4FE PUSH1 0x1 SWAP3 DUP6 MLOAD PUSH2 0x2BB4 JUMP JUMPDEST SWAP4 ADD SWAP2 ADD SWAP1 SWAP2 PUSH2 0x4E1 JUMP JUMPDEST PUSH1 0x3 PUSH1 0x20 PUSH1 0x1 SWAP3 PUSH2 0x519 DUP7 PUSH2 0x3347 JUMP JUMPDEST DUP2 MSTORE ADD SWAP4 ADD SWAP2 ADD SWAP1 SWAP2 PUSH2 0x4D2 JUMP JUMPDEST PUSH4 0x4E487B71 PUSH1 0xE0 SHL PUSH0 MSTORE PUSH1 0x41 PUSH1 0x4 MSTORE PUSH1 0x24 PUSH0 REVERT JUMPDEST PUSH1 0x20 SWAP1 PUSH2 0x546 PUSH2 0x32FD JUMP JUMPDEST DUP2 DUP5 ADD MSTORE ADD PUSH2 0x498 JUMP JUMPDEST CALLVALUE PUSH2 0x1E3 JUMPI PUSH1 0x40 CALLDATASIZE PUSH1 0x3 NOT ADD SLT PUSH2 0x1E3 JUMPI PUSH2 0x569 PUSH2 0x2B1C JUMP JUMPDEST PUSH1 0x1 PUSH1 0x1 PUSH1 0xA0 SHL SUB AND PUSH0 SWAP1 DUP2 MSTORE PUSH1 0x7 PUSH1 0x20 MSTORE PUSH1 0x40 SWAP1 KECCAK256 PUSH1 0x24 CALLDATALOAD SWAP1 PUSH1 0x3 DUP3 LT ISZERO PUSH2 0x1E3 JUMPI PUSH1 0x20 SWAP2 PUSH2 0x230 SWAP2 PUSH2 0x2CD0 JUMP JUMPDEST CALLVALUE PUSH2 0x1E3 JUMPI PUSH0 CALLDATASIZE PUSH1 0x3 NOT ADD SLT PUSH2 0x1E3 JUMPI PUSH2 0x5B0 PUSH2 0x3620 JUMP JUMPDEST CALLER PUSH0 MSTORE PUSH1 0x5 PUSH1 0x20 MSTORE PUSH2 0x5C4 PUSH1 0x40 PUSH0 KECCAK256 PUSH2 0x35FF JUMP JUMPDEST CALLER PUSH0 MSTORE PUSH1 0x6 PUSH1 0x20 MSTORE PUSH2 0x5D8 PUSH1 0x40 PUSH0 KECCAK256 PUSH2 0x35FF JUMP JUMPDEST CALLER PUSH0 MSTORE PUSH1 0x7 PUSH1 0x20 MSTORE PUSH2 0x5F1 PUSH1 0x40 PUSH0 KECCAK256 PUSH1 0x3 DUP2 ADD SWAP1 PUSH2 0x3569 JUMP JUMPDEST CALLER PUSH0 MSTORE PUSH1 0xB PUSH1 0x20 MSTORE PUSH2 0x605 PUSH1 0x40 PUSH0 KECCAK256 PUSH2 0x357F JUMP JUMPDEST CALLER PUSH0 MSTORE PUSH1 0xC PUSH1 0x20 MSTORE PUSH2 0x619 PUSH1 0x40 PUSH0 KECCAK256 PUSH2 0x357F JUMP JUMPDEST STOP JUMPDEST CALLVALUE PUSH2 0x1E3 JUMPI PUSH1 0x20 CALLDATASIZE PUSH1 0x3 NOT ADD SLT PUSH2 0x1E3 JUMPI PUSH1 0x1 PUSH1 0x1 PUSH1 0xA0 SHL SUB PUSH2 0x63C PUSH2 0x2B1C JUMP JUMPDEST AND PUSH0 MSTORE PUSH1 0x4 PUSH1 0x20 MSTORE PUSH1 0xA0 PUSH1 0x40 PUSH0 KECCAK256 DUP1 SLOAD SWAP1 PUSH1 0x1 DUP2 ADD SLOAD SWAP1 PUSH2 0xFFFF PUSH1 0x3 PUSH1 0x2 DUP4 ADD SLOAD SWAP3 ADD SLOAD AND SWAP2 PUSH4 0xFFFFFFFF PUSH1 0x40 MLOAD SWAP5 PUSH2 0xFFFF DUP2 AND DUP7 MSTORE PUSH1 0x10 SHR AND PUSH1 0x20 DUP6 ADD MSTORE PUSH1 0x40 DUP5 ADD MSTORE PUSH1 0x60 DUP4 ADD MSTORE PUSH1 0x80 DUP3 ADD MSTORE RETURN JUMPDEST CALLVALUE PUSH2 0x1E3 JUMPI PUSH1 0x20 CALLDATASIZE PUSH1 0x3 NOT ADD SLT PUSH2 0x1E3 JUMPI PUSH1 0x1 PUSH1 0x1 PUSH1 0xA0 SHL SUB PUSH2 0x6AD PUSH2 0x2B1C JUMP JUMPDEST AND PUSH0 MSTORE PUSH1 0x6 PUSH1 0x20 MSTORE PUSH1 0x40 PUSH0 KECCAK256 PUSH1 0x40 MLOAD SWAP1 DUP2 PUSH1 0x20 DUP3 SLOAD SWAP2 DUP3 DUP2 MSTORE ADD SWAP2 PUSH0 MSTORE PUSH1 0x20 PUSH0 KECCAK256 SWAP1 PUSH0 JUMPDEST DUP2 DUP2 LT PUSH2 0x6F4 JUMPI PUSH2 0x3D0 DUP6 PUSH2 0x6E8 DUP2 DUP8 SUB DUP3 PUSH2 0x2DA4 JUMP JUMPDEST PUSH1 0x40 MLOAD SWAP2 DUP3 SWAP2 DUP3 PUSH2 0x2C97 JUMP JUMPDEST DUP3 SLOAD DUP5 MSTORE PUSH1 0x20 SWAP1 SWAP4 ADD SWAP3 PUSH1 0x1 SWAP3 DUP4 ADD SWAP3 ADD PUSH2 0x6D1 JUMP JUMPDEST CALLVALUE PUSH2 0x1E3 JUMPI PUSH0 CALLDATASIZE PUSH1 0x3 NOT ADD SLT PUSH2 0x1E3 JUMPI PUSH1 0x12 SLOAD PUSH1 0x40 MLOAD PUSH1 0x1 PUSH1 0x1 PUSH1 0xA0 SHL SUB SWAP1 SWAP2 AND DUP2 MSTORE PUSH1 0x20 SWAP1 RETURN JUMPDEST CALLVALUE PUSH2 0x1E3 JUMPI PUSH1 0x20 CALLDATASIZE PUSH1 0x3 NOT ADD SLT PUSH2 0x1E3 JUMPI PUSH1 0x1 PUSH1 0x1 PUSH1 0xA0 SHL SUB PUSH2 0x753 PUSH2 0x2B1C JUMP JUMPDEST AND PUSH0 MSTORE PUSH1 0xA PUSH1 0x20 MSTORE PUSH1 0x20 PUSH1 0xFF PUSH1 0x40 PUSH0 KECCAK256 SLOAD AND PUSH1 0x40 MLOAD SWAP1 ISZERO ISZERO DUP2 MSTORE RETURN JUMPDEST PUSH1 0x20 CALLDATASIZE PUSH1 0x3 NOT ADD SLT PUSH2 0x1E3 JUMPI PUSH1 0x4 CALLDATALOAD PUSH2 0x786 PUSH2 0x3620 JUMP JUMPDEST PUSH2 0x78E PUSH2 0x3664 JUMP JUMPDEST PUSH2 0x796 PUSH2 0x36BA JUMP JUMPDEST PUSH1 0x3 DUP2 LT ISZERO PUSH2 0xB21 JUMPI CALLER PUSH0 MSTORE PUSH1 0x8 PUSH1 0x20 MSTORE PUSH2 0x7BD PUSH2 0x7B7 DUP3 PUSH1 0x40 PUSH0 KECCAK256 PUSH2 0x2B32 JUMP JUMPDEST POP PUSH2 0x3347 JUMP JUMPDEST SWAP1 PUSH1 0x20 DUP3 ADD MLOAD ISZERO DUP1 ISZERO SWAP1 PUSH2 0xB17 JUMPI JUMPDEST ISZERO PUSH2 0xAE5 JUMPI DUP2 MLOAD ISZERO PUSH2 0x91C JUMPI PUSH1 0x11 SLOAD CALLVALUE LT PUSH2 0x8D7 JUMPI PUSH1 0x1 DUP1 PUSH1 0xA0 SHL SUB PUSH1 0x13 SLOAD AND SWAP2 PUSH1 0xFF PUSH2 0x100 DUP3 ADD MLOAD AND PUSH1 0x6 DUP2 LT ISZERO PUSH2 0x8C3 JUMPI PUSH1 0x64 PUSH1 0xFF PUSH2 0x120 PUSH1 0x20 SWAP5 ADD MLOAD AND SWAP2 PUSH0 PUSH1 0x40 MLOAD SWAP7 DUP8 SWAP5 DUP6 SWAP4 PUSH4 0xF925B741 PUSH1 0xE0 SHL DUP6 MSTORE CALLER PUSH1 0x4 DUP7 ADD MSTORE PUSH1 0x24 DUP6 ADD MSTORE PUSH1 0x44 DUP5 ADD MSTORE GAS CALL SWAP2 DUP3 ISZERO PUSH2 0x8B8 JUMPI PUSH0 SWAP3 PUSH2 0x882 JUMPI JUMPDEST POP PUSH2 0x859 PUSH2 0x87C SWAP3 CALLER PUSH0 MSTORE PUSH1 0x6 PUSH1 0x20 MSTORE PUSH1 0x40 PUSH0 KECCAK256 PUSH2 0x2E72 JUMP JUMPDEST PUSH2 0x876 PUSH2 0x864 PUSH2 0x37D5 JUMP JUMPDEST SWAP2 CALLER PUSH0 MSTORE PUSH1 0x8 PUSH1 0x20 MSTORE PUSH1 0x40 PUSH0 KECCAK256 PUSH2 0x2B32 JUMP JUMPDEST SWAP1 PUSH2 0x2EA6 JUMP JUMPDEST PUSH1 0x1 DUP1 SSTORE STOP JUMPDEST SWAP2 POP PUSH1 0x20 DUP3 RETURNDATASIZE PUSH1 0x20 GT PUSH2 0x8B0 JUMPI JUMPDEST DUP2 PUSH2 0x89D PUSH1 0x20 SWAP4 DUP4 PUSH2 0x2DA4 JUMP JUMPDEST DUP2 ADD SUB SLT PUSH2 0x1E3 JUMPI SWAP1 MLOAD SWAP1 PUSH2 0x859 PUSH2 0x840 JUMP JUMPDEST RETURNDATASIZE SWAP2 POP PUSH2 0x890 JUMP JUMPDEST PUSH1 0x40 MLOAD RETURNDATASIZE PUSH0 DUP3 RETURNDATACOPY RETURNDATASIZE SWAP1 REVERT JUMPDEST PUSH4 0x4E487B71 PUSH1 0xE0 SHL PUSH0 MSTORE PUSH1 0x21 PUSH1 0x4 MSTORE PUSH1 0x24 PUSH0 REVERT JUMPDEST PUSH1 0x40 MLOAD PUSH3 0x461BCD PUSH1 0xE5 SHL DUP2 MSTORE PUSH1 0x20 PUSH1 0x4 DUP3 ADD MSTORE PUSH1 0x1E PUSH1 0x24 DUP3 ADD MSTORE PUSH32 0x496E73756666696369656E74207061796D656E7420666F722072656C69630000 PUSH1 0x44 DUP3 ADD MSTORE PUSH1 0x64 SWAP1 REVERT JUMPDEST SWAP1 POP PUSH1 0x10 SLOAD CALLVALUE LT PUSH2 0xAA0 JUMPI PUSH1 0x40 DUP1 MLOAD TIMESTAMP PUSH1 0x20 DUP3 ADD SWAP1 DUP2 MSTORE CALLER PUSH1 0x60 SHL PUSH12 0xFFFFFFFFFFFFFFFFFFFFFFFF NOT AND SWAP3 DUP3 ADD SWAP3 SWAP1 SWAP3 MSTORE PREVRANDAO PUSH1 0x54 DUP3 ADD MSTORE PUSH1 0x74 DUP2 ADD DUP4 SWAP1 MSTORE PUSH2 0x971 DUP2 PUSH1 0x94 DUP2 ADD JUMPDEST SUB PUSH1 0x1F NOT DUP2 ADD DUP4 MSTORE DUP3 PUSH2 0x2DA4 JUMP JUMPDEST MLOAD SWAP1 KECCAK256 SWAP1 PUSH1 0xB DUP3 MOD PUSH1 0xA ADD DUP1 PUSH1 0xA GT PUSH2 0xA8C JUMPI PUSH1 0xB DUP4 PUSH1 0x8 SHR MOD PUSH1 0x8 ADD SWAP1 DUP2 PUSH1 0x8 GT PUSH2 0xA8C JUMPI PUSH1 0xB DUP5 PUSH1 0x10 SHR MOD PUSH1 0x9 ADD SWAP4 DUP5 PUSH1 0x9 GT PUSH2 0xA8C JUMPI PUSH1 0xFF PUSH1 0x3 DUP3 PUSH1 0x18 SHR MOD AND PUSH2 0x9C4 PUSH1 0x3 DUP4 PUSH1 0x20 SHR AND SWAP3 PUSH2 0x37B3 JUMP JUMPDEST PUSH1 0x12 SLOAD PUSH1 0x1 PUSH1 0x1 PUSH1 0xA0 SHL SUB AND SWAP3 SWAP1 PUSH1 0xFF SWAP1 PUSH2 0x9DE DUP5 PUSH2 0x2DFE JUMP JUMPDEST AND SWAP7 PUSH2 0x9E9 DUP9 PUSH2 0x2DFE JUMP JUMPDEST PUSH1 0x4 DUP3 LT ISZERO PUSH2 0x8C3 JUMPI PUSH1 0x40 MLOAD PUSH4 0xE3BD811 PUSH1 0xE3 SHL DUP2 MSTORE SWAP8 PUSH1 0x20 SWAP7 DUP10 SWAP7 DUP8 SWAP6 PUSH0 SWAP6 DUP8 SWAP6 PUSH2 0xA26 SWAP6 PUSH1 0xFF SWAP2 DUP3 AND SWAP6 DUP3 AND SWAP5 SWAP1 SWAP2 AND SWAP3 CALLER PUSH1 0x4 DUP10 ADD PUSH2 0x2E12 JUMP JUMPDEST SUB SWAP3 GAS CALL SWAP2 DUP3 ISZERO PUSH2 0x8B8 JUMPI PUSH0 SWAP3 PUSH2 0xA56 JUMPI JUMPDEST POP PUSH2 0xA51 PUSH2 0x87C SWAP3 CALLER PUSH0 MSTORE PUSH1 0x5 PUSH1 0x20 MSTORE PUSH1 0x40 PUSH0 KECCAK256 PUSH2 0x2E72 JUMP JUMPDEST PUSH2 0x859 JUMP JUMPDEST SWAP2 POP PUSH1 0x20 DUP3 RETURNDATASIZE PUSH1 0x20 GT PUSH2 0xA84 JUMPI JUMPDEST DUP2 PUSH2 0xA71 PUSH1 0x20 SWAP4 DUP4 PUSH2 0x2DA4 JUMP JUMPDEST DUP2 ADD SUB SLT PUSH2 0x1E3 JUMPI SWAP1 MLOAD SWAP1 PUSH2 0xA51 PUSH2 0xA38 JUMP JUMPDEST RETURNDATASIZE SWAP2 POP PUSH2 0xA64 JUMP JUMPDEST PUSH4 0x4E487B71 PUSH1 0xE0 SHL PUSH0 MSTORE PUSH1 0x11 PUSH1 0x4 MSTORE PUSH1 0x24 PUSH0 REVERT JUMPDEST PUSH1 0x40 MLOAD PUSH3 0x461BCD PUSH1 0xE5 SHL DUP2 MSTORE PUSH1 0x20 PUSH1 0x4 DUP3 ADD MSTORE PUSH1 0x1D PUSH1 0x24 DUP3 ADD MSTORE PUSH32 0x496E73756666696369656E74207061796D656E7420666F7220756E6974000000 PUSH1 0x44 DUP3 ADD MSTORE PUSH1 0x64 SWAP1 REVERT JUMPDEST PUSH1 0x40 MLOAD PUSH3 0x461BCD PUSH1 0xE5 SHL DUP2 MSTORE PUSH1 0x20 PUSH1 0x4 DUP3 ADD MSTORE PUSH1 0xA PUSH1 0x24 DUP3 ADD MSTORE PUSH10 0x115B5C1D1E481CDB1BDD PUSH1 0xB2 SHL PUSH1 0x44 DUP3 ADD MSTORE PUSH1 0x64 SWAP1 REVERT JUMPDEST POP DUP2 MLOAD ISZERO ISZERO PUSH2 0x7CC JUMP JUMPDEST PUSH1 0x40 MLOAD PUSH3 0x461BCD PUSH1 0xE5 SHL DUP2 MSTORE PUSH1 0x20 PUSH1 0x4 DUP3 ADD MSTORE PUSH1 0xC PUSH1 0x24 DUP3 ADD MSTORE PUSH12 0x125B9D985B1A59081CDB1BDD PUSH1 0xA2 SHL PUSH1 0x44 DUP3 ADD MSTORE PUSH1 0x64 SWAP1 REVERT JUMPDEST CALLVALUE PUSH2 0x1E3 JUMPI PUSH1 0x20 CALLDATASIZE PUSH1 0x3 NOT ADD SLT PUSH2 0x1E3 JUMPI PUSH2 0xB6E PUSH2 0x2B1C JUMP JUMPDEST PUSH2 0xB76 PUSH2 0x391C JUMP JUMPDEST PUSH1 0x13 DUP1 SLOAD PUSH1 0x1 PUSH1 0x1 PUSH1 0xA0 SHL SUB NOT AND PUSH1 0x1 PUSH1 0x1 PUSH1 0xA0 SHL SUB SWAP3 SWAP1 SWAP3 AND SWAP2 SWAP1 SWAP2 OR SWAP1 SSTORE STOP JUMPDEST CALLVALUE PUSH2 0x1E3 JUMPI PUSH1 0x20 CALLDATASIZE PUSH1 0x3 NOT ADD SLT PUSH2 0x1E3 JUMPI PUSH2 0xBB1 PUSH2 0x2B1C JUMP JUMPDEST PUSH1 0x60 SWAP1 DUP2 PUSH1 0x40 MLOAD PUSH2 0xBC2 DUP3 DUP3 PUSH2 0x2DA4 JUMP JUMPDEST CALLDATASIZE SWAP1 CALLDATACOPY PUSH1 0x1 PUSH1 0x1 PUSH1 0xA0 SHL SUB AND PUSH0 SWAP1 DUP2 MSTORE PUSH1 0x7 PUSH1 0x20 MSTORE PUSH1 0x40 DUP1 DUP3 KECCAK256 SWAP1 MLOAD SWAP2 DUP3 JUMPDEST PUSH1 0x3 DUP3 LT PUSH2 0xC20 JUMPI POP POP POP PUSH2 0xBF6 DUP3 DUP3 PUSH2 0x2DA4 JUMP JUMPDEST PUSH1 0x40 MLOAD SWAP1 PUSH0 DUP3 JUMPDEST PUSH1 0x3 DUP3 LT PUSH2 0xC0A JUMPI POP POP POP RETURN JUMPDEST PUSH1 0x20 DUP1 PUSH1 0x1 SWAP3 DUP6 MLOAD DUP2 MSTORE ADD SWAP4 ADD SWAP2 ADD SWAP1 SWAP2 PUSH2 0xBFD JUMP JUMPDEST PUSH1 0x1 PUSH1 0x20 DUP2 SWAP3 DUP6 SLOAD DUP2 MSTORE ADD SWAP4 ADD SWAP2 ADD SWAP1 SWAP2 PUSH2 0xBE1 JUMP JUMPDEST CALLVALUE PUSH2 0x1E3 JUMPI PUSH1 0x20 CALLDATASIZE PUSH1 0x3 NOT ADD SLT PUSH2 0x1E3 JUMPI PUSH1 0x1 PUSH1 0x1 PUSH1 0xA0 SHL SUB PUSH2 0xC57 PUSH2 0x2B1C JUMP JUMPDEST AND PUSH0 MSTORE PUSH1 0x3 PUSH1 0x20 MSTORE PUSH1 0x20 PUSH1 0xFF PUSH1 0x40 PUSH0 KECCAK256 SLOAD AND PUSH1 0x40 MLOAD SWAP1 ISZERO ISZERO DUP2 MSTORE RETURN JUMPDEST CALLVALUE PUSH2 0x1E3 JUMPI PUSH1 0x60 CALLDATASIZE PUSH1 0x3 NOT ADD SLT PUSH2 0x1E3 JUMPI CALLDATASIZE PUSH1 0x64 GT PUSH2 0x1E3 JUMPI PUSH2 0xC94 PUSH2 0x3620 JUMP JUMPDEST PUSH2 0xC9C PUSH2 0x36BA JUMP JUMPDEST PUSH0 JUMPDEST PUSH1 0x3 DUP2 LT PUSH2 0xD03 JUMPI CALLER PUSH0 MSTORE PUSH1 0x7 PUSH1 0x20 MSTORE PUSH1 0x40 PUSH0 KECCAK256 PUSH1 0x4 PUSH0 JUMPDEST PUSH1 0x3 DUP2 LT PUSH2 0xCEF JUMPI PUSH1 0x40 MLOAD PUSH1 0x60 PUSH1 0x4 DUP3 CALLDATACOPY PUSH32 0x189DCF2B228F6307A1C47F1AB2652FD06A5C537F8533503FD79381A0EF24B279 PUSH1 0x60 CALLER SWAP3 LOG2 STOP JUMPDEST PUSH1 0x1 SWAP1 PUSH1 0x20 DUP4 CALLDATALOAD SWAP4 ADD SWAP3 DUP2 DUP6 ADD SSTORE ADD PUSH2 0xCB6 JUMP JUMPDEST PUSH2 0xD0C DUP2 PUSH2 0x35DC JUMP JUMPDEST CALLDATALOAD PUSH2 0xD1A JUMPI JUMPDEST PUSH1 0x1 ADD PUSH2 0xC9E JUMP JUMPDEST PUSH1 0x13 SLOAD PUSH2 0xD5F SWAP2 SWAP1 PUSH1 0x20 SWAP1 PUSH1 0x1 PUSH1 0x1 PUSH1 0xA0 SHL SUB AND PUSH2 0xD37 DUP4 PUSH2 0x35DC JUMP JUMPDEST PUSH1 0x40 MLOAD PUSH3 0x7EEAC7 PUSH1 0xE1 SHL DUP2 MSTORE CALLER PUSH1 0x4 DUP3 ADD MSTORE SWAP1 CALLDATALOAD PUSH1 0x24 DUP3 ADD MSTORE SWAP4 DUP5 SWAP2 SWAP1 DUP3 SWAP1 DUP2 SWAP1 PUSH1 0x44 DUP3 ADD SWAP1 JUMP JUMPDEST SUB SWAP2 GAS STATICCALL SWAP2 DUP3 ISZERO PUSH2 0x8B8 JUMPI PUSH0 SWAP3 PUSH2 0xD86 JUMPI JUMPDEST POP PUSH2 0xD7F PUSH1 0x1 SWAP3 ISZERO ISZERO PUSH2 0x3421 JUMP JUMPDEST SWAP1 POP PUSH2 0xD12 JUMP JUMPDEST SWAP2 POP PUSH1 0x20 DUP3 RETURNDATASIZE DUP3 GT PUSH2 0xDB3 JUMPI JUMPDEST DUP2 PUSH2 0xDA0 PUSH1 0x20 SWAP4 DUP4 PUSH2 0x2DA4 JUMP JUMPDEST DUP2 ADD SUB SLT PUSH2 0x1E3 JUMPI SWAP1 MLOAD SWAP1 PUSH2 0xD7F PUSH2 0xD71 JUMP JUMPDEST RETURNDATASIZE SWAP2 POP PUSH2 0xD93 JUMP JUMPDEST CALLVALUE PUSH2 0x1E3 JUMPI PUSH0 CALLDATASIZE PUSH1 0x3 NOT ADD SLT PUSH2 0x1E3 JUMPI PUSH1 0x20 PUSH1 0xF SLOAD PUSH1 0x40 MLOAD SWAP1 DUP2 MSTORE RETURN JUMPDEST CALLVALUE PUSH2 0x1E3 JUMPI PUSH0 CALLDATASIZE PUSH1 0x3 NOT ADD SLT PUSH2 0x1E3 JUMPI PUSH0 SLOAD PUSH1 0x40 MLOAD PUSH1 0x1 PUSH1 0x1 PUSH1 0xA0 SHL SUB SWAP1 SWAP2 AND DUP2 MSTORE PUSH1 0x20 SWAP1 RETURN JUMPDEST CALLVALUE PUSH2 0x1E3 JUMPI PUSH0 CALLDATASIZE PUSH1 0x3 NOT ADD SLT PUSH2 0x1E3 JUMPI PUSH1 0x20 PUSH1 0x11 SLOAD PUSH1 0x40 MLOAD SWAP1 DUP2 MSTORE RETURN JUMPDEST CALLVALUE PUSH2 0x1E3 JUMPI PUSH0 CALLDATASIZE PUSH1 0x3 NOT ADD SLT PUSH2 0x1E3 JUMPI PUSH2 0xE34 PUSH2 0x391C JUMP JUMPDEST PUSH2 0xE3C PUSH2 0x3620 JUMP JUMPDEST PUSH1 0x1 PUSH1 0xFF NOT PUSH1 0x2 SLOAD AND OR PUSH1 0x2 SSTORE PUSH32 0x62E78CEA01BEE320CD4E420270B5EA74000D11B0C9F74754EBDBFC544B05A258 PUSH1 0x20 PUSH1 0x40 MLOAD CALLER DUP2 MSTORE LOG1 STOP JUMPDEST CALLVALUE PUSH2 0x1E3 JUMPI PUSH1 0x20 CALLDATASIZE PUSH1 0x3 NOT ADD SLT PUSH2 0x1E3 JUMPI PUSH2 0xE8E PUSH2 0x2B1C JUMP JUMPDEST PUSH2 0xE96 PUSH2 0x391C JUMP JUMPDEST PUSH1 0x12 DUP1 SLOAD PUSH1 0x1 PUSH1 0x1 PUSH1 0xA0 SHL SUB NOT AND PUSH1 0x1 PUSH1 0x1 PUSH1 0xA0 SHL SUB SWAP3 SWAP1 SWAP3 AND SWAP2 SWAP1 SWAP2 OR SWAP1 SSTORE STOP JUMPDEST CALLVALUE PUSH2 0x1E3 JUMPI PUSH1 0x40 CALLDATASIZE PUSH1 0x3 NOT ADD SLT PUSH2 0x1E3 JUMPI PUSH2 0xED1 PUSH2 0x2B1C JUMP JUMPDEST PUSH1 0x1 PUSH1 0x1 PUSH1 0xA0 SHL SUB AND PUSH0 SWAP1 DUP2 MSTORE PUSH1 0xC PUSH1 0x20 MSTORE PUSH1 0x40 SWAP1 KECCAK256 DUP1 SLOAD PUSH1 0x24 CALLDATALOAD SWAP1 DUP2 LT ISZERO PUSH2 0x1E3 JUMPI PUSH2 0xF03 PUSH2 0xFFFF SWAP2 PUSH1 0x20 SWAP4 PUSH2 0x2C31 JUMP JUMPDEST SWAP1 SLOAD SWAP1 PUSH1 0x3 SHL SHR AND PUSH1 0x40 MLOAD SWAP1 DUP2 MSTORE RETURN JUMPDEST CALLVALUE PUSH2 0x1E3 JUMPI PUSH0 CALLDATASIZE PUSH1 0x3 NOT ADD SLT PUSH2 0x1E3 JUMPI PUSH2 0xF2B PUSH2 0x391C JUMP JUMPDEST PUSH0 DUP1 SLOAD PUSH1 0x1 PUSH1 0x1 PUSH1 0xA0 SHL SUB NOT DUP2 AND DUP3 SSTORE PUSH1 0x1 PUSH1 0x1 PUSH1 0xA0 SHL SUB AND PUSH32 0x8BE0079C531659141344CD1FD0A4F28419497F9722A3DAAFE3B4186F6B6457E0 DUP3 DUP1 LOG3 STOP JUMPDEST CALLVALUE PUSH2 0x1E3 JUMPI PUSH1 0x20 CALLDATASIZE PUSH1 0x3 NOT ADD SLT PUSH2 0x1E3 JUMPI PUSH1 0x1 PUSH1 0x1 PUSH1 0xA0 SHL SUB PUSH2 0xF8B PUSH2 0x2B1C JUMP JUMPDEST AND PUSH0 MSTORE PUSH1 0x5 PUSH1 0x20 MSTORE PUSH1 0x40 PUSH0 KECCAK256 PUSH1 0x40 MLOAD SWAP1 DUP2 PUSH1 0x20 DUP3 SLOAD SWAP2 DUP3 DUP2 MSTORE ADD SWAP2 PUSH0 MSTORE PUSH1 0x20 PUSH0 KECCAK256 SWAP1 PUSH0 JUMPDEST DUP2 DUP2 LT PUSH2 0xFC6 JUMPI PUSH2 0x3D0 DUP6 PUSH2 0x6E8 DUP2 DUP8 SUB DUP3 PUSH2 0x2DA4 JUMP JUMPDEST DUP3 SLOAD DUP5 MSTORE PUSH1 0x20 SWAP1 SWAP4 ADD SWAP3 PUSH1 0x1 SWAP3 DUP4 ADD SWAP3 ADD PUSH2 0xFAF JUMP JUMPDEST CALLVALUE PUSH2 0x1E3 JUMPI PUSH0 CALLDATASIZE PUSH1 0x3 NOT ADD SLT PUSH2 0x1E3 JUMPI PUSH1 0x20 PUSH1 0xFF PUSH1 0x2 SLOAD AND PUSH1 0x40 MLOAD SWAP1 ISZERO ISZERO DUP2 MSTORE RETURN JUMPDEST CALLVALUE PUSH2 0x1E3 JUMPI PUSH1 0x40 CALLDATASIZE PUSH1 0x3 NOT ADD SLT PUSH2 0x1E3 JUMPI PUSH1 0x4 CALLDATALOAD PUSH1 0x1 PUSH1 0x1 PUSH1 0x40 SHL SUB DUP2 GT PUSH2 0x1E3 JUMPI PUSH2 0x102E SWAP1 CALLDATASIZE SWAP1 PUSH1 0x4 ADD PUSH2 0x2C67 JUMP JUMPDEST SWAP1 PUSH1 0x24 CALLDATALOAD PUSH1 0x1 PUSH1 0x1 PUSH1 0x40 SHL SUB DUP2 GT PUSH2 0x1E3 JUMPI PUSH2 0x104E SWAP1 CALLDATASIZE SWAP1 PUSH1 0x4 ADD PUSH2 0x2C67 JUMP JUMPDEST SWAP3 SWAP1 PUSH2 0x1058 PUSH2 0x3620 JUMP JUMPDEST PUSH2 0x1060 PUSH2 0x3664 JUMP JUMPDEST PUSH2 0x1068 PUSH2 0x36BA JUMP JUMPDEST PUSH1 0x4 DUP3 LT ISZERO DUP1 PUSH2 0x243A JUMPI JUMPDEST ISZERO PUSH2 0x2401 JUMPI PUSH1 0x12 SLOAD PUSH1 0x1 PUSH1 0x1 PUSH1 0xA0 SHL SUB AND PUSH0 JUMPDEST DUP4 DUP2 LT PUSH2 0x232B JUMPI POP POP DUP4 ISZERO SWAP4 DUP5 PUSH2 0x2309 JUMPI PUSH2 0x10A2 CALLDATASIZE DUP3 DUP5 PUSH2 0x33D5 JUMP JUMPDEST SWAP5 ISZERO PUSH2 0x2216 JUMPI POP POP PUSH0 JUMPDEST PUSH1 0x3 DUP2 LT PUSH2 0x21E6 JUMPI POP JUMPDEST PUSH0 JUMPDEST DUP4 MLOAD DUP2 LT ISZERO PUSH2 0x1145 JUMPI PUSH2 0x10CB DUP2 DUP6 PUSH2 0x346D JUMP JUMPDEST MLOAD PUSH2 0x10D9 JUMPI JUMPDEST PUSH1 0x1 ADD PUSH2 0x10B8 JUMP JUMPDEST PUSH1 0x13 SLOAD PUSH1 0x1 PUSH1 0x1 PUSH1 0xA0 SHL SUB AND SWAP1 PUSH0 PUSH2 0x10F1 DUP3 DUP8 PUSH2 0x346D JUMP JUMPDEST MLOAD PUSH1 0x24 PUSH1 0x40 MLOAD DUP1 SWAP6 DUP2 SWAP4 PUSH4 0x68972D59 PUSH1 0xE0 SHL DUP4 MSTORE PUSH1 0x4 DUP4 ADD MSTORE GAS STATICCALL SWAP2 DUP3 ISZERO PUSH2 0x8B8 JUMPI PUSH1 0x1 SWAP3 PUSH2 0x1123 JUMPI JUMPDEST POP SWAP1 POP PUSH2 0x10D1 JUMP JUMPDEST PUSH2 0x113E SWAP1 RETURNDATASIZE DUP1 PUSH0 DUP4 RETURNDATACOPY PUSH2 0x1136 DUP2 DUP4 PUSH2 0x2DA4 JUMP JUMPDEST DUP2 ADD SWAP1 PUSH2 0x348F JUMP JUMPDEST POP DUP6 PUSH2 0x111B JUMP JUMPDEST POP SWAP1 PUSH1 0x40 MLOAD SWAP3 PUSH2 0x120 PUSH2 0x1158 DUP2 DUP7 PUSH2 0x2DA4 JUMP JUMPDEST PUSH1 0x8 DUP6 MSTORE PUSH1 0x1F NOT ADD PUSH0 JUMPDEST DUP2 DUP2 LT PUSH2 0x21CF JUMPI POP POP PUSH1 0x40 DUP1 MLOAD TIMESTAMP PUSH1 0x20 DUP3 ADD SWAP1 DUP2 MSTORE CALLER PUSH1 0x60 SHL PUSH12 0xFFFFFFFFFFFFFFFFFFFFFFFF NOT AND SWAP3 DUP3 ADD SWAP3 SWAP1 SWAP3 MSTORE PREVRANDAO PUSH1 0x54 DUP3 ADD MSTORE NUMBER PUSH1 0x74 DUP3 ADD MSTORE PUSH2 0x11AA DUP2 PUSH1 0x94 DUP2 ADD PUSH2 0x963 JUMP JUMPDEST MLOAD SWAP1 KECCAK256 SWAP1 PUSH0 JUMPDEST PUSH1 0xFF DUP2 AND PUSH1 0x8 DUP2 LT ISZERO PUSH2 0x1305 JUMPI CALLER PUSH0 SWAP1 DUP2 MSTORE PUSH1 0x4 PUSH1 0x20 MSTORE PUSH1 0x40 SWAP1 KECCAK256 SLOAD PUSH1 0x40 DUP1 MLOAD PUSH1 0x20 DUP2 ADD DUP8 DUP2 MSTORE PUSH1 0xF8 DUP7 SWAP1 SHL PUSH1 0x1 PUSH1 0x1 PUSH1 0xF8 SHL SUB NOT AND SWAP3 DUP3 ADD SWAP3 SWAP1 SWAP3 MSTORE PUSH1 0xF0 SWAP3 SWAP1 SWAP3 SHL PUSH1 0x1 PUSH1 0x1 PUSH1 0xF0 SHL SUB NOT AND PUSH1 0x41 DUP4 ADD MSTORE PUSH1 0x23 DUP3 MSTORE SWAP1 PUSH2 0x1212 PUSH1 0x43 DUP3 PUSH2 0x2DA4 JUMP JUMPDEST MLOAD SWAP1 KECCAK256 SWAP2 PUSH1 0xFF PUSH2 0x1224 PUSH1 0xD DUP6 MOD PUSH2 0x2DE3 JUMP JUMPDEST AND SWAP2 PUSH1 0xC DUP5 PUSH1 0x8 SHR MOD PUSH1 0x7 ADD SWAP1 DUP2 PUSH1 0x7 GT PUSH2 0xA8C JUMPI PUSH1 0xFF SWAP5 PUSH1 0x1 SWAP5 DUP7 PUSH2 0x12FD SWAP5 AND DUP8 PUSH2 0x1255 PUSH1 0xB DUP6 PUSH1 0x10 SHR MOD PUSH2 0x2DE3 JUMP JUMPDEST AND SWAP2 PUSH2 0x12CF DUP10 PUSH1 0x3 DUP7 PUSH1 0x18 SHR MOD AND SWAP5 DUP11 PUSH2 0x1275 PUSH1 0x3 DUP4 PUSH1 0x20 SHR AND SWAP3 PUSH2 0x37B3 JUMP JUMPDEST PUSH2 0x127E DUP9 PUSH2 0x2DFE JUMP JUMPDEST AND PUSH2 0x1288 DUP2 PUSH2 0x2DFE JUMP JUMPDEST PUSH2 0x1291 DUP3 PUSH2 0x2E08 JUMP JUMPDEST PUSH1 0x40 MLOAD SWAP7 PUSH2 0x12A1 PUSH2 0x140 DUP10 PUSH2 0x2DA4 JUMP JUMPDEST PUSH0 DUP9 MSTORE PUSH0 PUSH1 0x20 DUP10 ADD MSTORE PUSH2 0x12B3 DUP2 PUSH2 0x2DFE JUMP JUMPDEST PUSH1 0x40 DUP9 ADD MSTORE PUSH2 0x12C1 DUP2 PUSH2 0x2DFE JUMP JUMPDEST PUSH1 0x60 DUP8 ADD MSTORE PUSH1 0x80 DUP7 ADD PUSH2 0x3550 JUMP JUMPDEST PUSH1 0xA0 DUP5 ADD MSTORE PUSH1 0xC0 DUP4 ADD MSTORE PUSH1 0xE0 DUP3 ADD MSTORE PUSH0 PUSH2 0x100 DUP3 ADD MSTORE PUSH0 PUSH2 0x120 DUP3 ADD MSTORE PUSH2 0x12F6 DUP3 DUP13 PUSH2 0x346D JUMP JUMPDEST MSTORE DUP10 PUSH2 0x346D JUMP JUMPDEST POP ADD AND PUSH2 0x11B0 JUMP JUMPDEST POP POP SWAP3 SWAP1 PUSH0 JUMPDEST PUSH1 0xFF DUP2 AND DUP7 PUSH1 0x8 DUP3 LT ISZERO PUSH2 0x15BC JUMPI SWAP2 PUSH2 0x15B5 PUSH1 0xFF PUSH2 0x120 PUSH2 0x1575 DUP6 PUSH2 0x156F DUP5 PUSH2 0x100 PUSH2 0x152F DUP5 DUP13 PUSH2 0x1379 DUP13 DUP7 SWAP16 PUSH1 0x1 SWAP16 PUSH2 0x1348 SWAP1 PUSH2 0x1367 SWAP3 PUSH2 0x346D JUMP JUMPDEST MLOAD MLOAD CALLER PUSH0 SWAP1 DUP2 MSTORE PUSH1 0x9 PUSH1 0x20 MSTORE PUSH1 0x40 SWAP1 KECCAK256 SWAP1 ISZERO ISZERO SWAP3 SWAP1 PUSH2 0x2CDF JUMP JUMPDEST PUSH2 0x2CDF JUMP JUMPDEST POP SWAP1 PUSH1 0xFF DUP1 NOT DUP4 SLOAD AND SWAP2 ISZERO ISZERO AND OR SWAP1 SSTORE JUMP JUMPDEST DUP12 DUP14 PUSH2 0x13A3 PUSH1 0x20 PUSH2 0x138A DUP7 DUP7 PUSH2 0x346D JUMP JUMPDEST MLOAD ADD MLOAD CALLER PUSH0 SWAP1 DUP2 MSTORE PUSH1 0x9 PUSH1 0x20 MSTORE PUSH1 0x40 SWAP1 KECCAK256 SWAP1 SWAP4 SWAP1 PUSH2 0x2CDF JUMP JUMPDEST POP ADD SSTORE DUP12 DUP6 PUSH1 0x2 PUSH2 0x13E2 PUSH1 0x40 PUSH2 0x13B9 DUP8 DUP8 PUSH2 0x346D JUMP JUMPDEST MLOAD ADD MLOAD SWAP4 PUSH2 0x13C6 DUP6 PUSH2 0x2DFE JUMP JUMPDEST PUSH2 0x13CF DUP6 PUSH2 0x2DFE JUMP JUMPDEST CALLER PUSH0 SWAP1 DUP2 MSTORE PUSH1 0x9 PUSH1 0x20 MSTORE PUSH1 0x40 SWAP1 KECCAK256 PUSH2 0x2CDF JUMP JUMPDEST POP ADD SWAP2 AND DUP7 NOT DUP3 SLOAD AND OR SWAP1 SSTORE PUSH2 0x1431 DUP13 PUSH1 0x2 PUSH2 0x1419 PUSH1 0x60 PUSH2 0x1403 DUP8 DUP8 PUSH2 0x346D JUMP JUMPDEST MLOAD ADD MLOAD SWAP3 PUSH2 0x1410 DUP5 PUSH2 0x2DFE JUMP JUMPDEST PUSH2 0x13CF DUP5 PUSH2 0x2DFE JUMP JUMPDEST POP ADD SWAP1 PUSH2 0xFF00 DUP3 SLOAD SWAP2 PUSH1 0x8 SHL AND SWAP1 PUSH2 0xFF00 NOT AND OR SWAP1 SSTORE JUMP JUMPDEST PUSH2 0x1474 DUP13 PUSH1 0x2 PUSH2 0x145A PUSH2 0x1450 PUSH1 0x80 PUSH2 0x1449 DUP9 DUP9 PUSH2 0x346D JUMP JUMPDEST MLOAD ADD PUSH2 0x355C JUMP JUMPDEST SWAP3 PUSH2 0x13CF DUP5 PUSH2 0x2E08 JUMP JUMPDEST POP ADD SWAP1 PUSH3 0xFF0000 DUP3 SLOAD SWAP2 PUSH1 0x10 SHL AND SWAP1 PUSH3 0xFF0000 NOT AND OR SWAP1 SSTORE JUMP JUMPDEST PUSH2 0x14C0 DUP13 PUSH1 0x2 PUSH2 0x14A4 DUP9 PUSH1 0xA0 PUSH2 0x148A DUP9 DUP9 PUSH2 0x346D JUMP JUMPDEST MLOAD ADD MLOAD CALLER PUSH0 SWAP1 DUP2 MSTORE PUSH1 0x9 PUSH1 0x20 MSTORE PUSH1 0x40 SWAP1 KECCAK256 SWAP2 AND SWAP4 SWAP1 PUSH2 0x2CDF JUMP JUMPDEST POP ADD SWAP1 PUSH4 0xFF000000 DUP3 SLOAD SWAP2 PUSH1 0x18 SHL AND SWAP1 PUSH4 0xFF000000 NOT AND OR SWAP1 SSTORE JUMP JUMPDEST PUSH2 0x14F4 DUP13 PUSH1 0x2 PUSH2 0x14D6 DUP9 PUSH1 0xC0 PUSH2 0x148A DUP9 DUP9 PUSH2 0x346D JUMP JUMPDEST POP ADD SWAP1 PUSH5 0xFF00000000 DUP3 SLOAD SWAP2 PUSH1 0x20 SHL AND SWAP1 PUSH5 0xFF00000000 NOT AND OR SWAP1 SSTORE JUMP JUMPDEST PUSH2 0x152A DUP13 PUSH1 0x2 PUSH2 0x150A DUP9 PUSH1 0xE0 PUSH2 0x148A DUP9 DUP9 PUSH2 0x346D JUMP JUMPDEST POP ADD SWAP1 PUSH6 0xFF0000000000 DUP3 SLOAD SWAP2 PUSH1 0x28 SHL AND SWAP1 PUSH6 0xFF0000000000 NOT AND OR SWAP1 SSTORE JUMP JUMPDEST PUSH2 0x346D JUMP JUMPDEST MLOAD ADD MLOAD AND PUSH1 0x2 PUSH2 0x1553 DUP10 PUSH2 0x1362 CALLER PUSH1 0x1 DUP1 PUSH1 0xA0 SHL SUB AND PUSH0 MSTORE PUSH1 0x9 PUSH1 0x20 MSTORE PUSH1 0x40 PUSH0 KECCAK256 SWAP1 JUMP JUMPDEST POP ADD SWAP1 PUSH1 0xFF PUSH1 0x30 SHL DUP3 SLOAD SWAP2 PUSH1 0x30 SHL AND SWAP1 PUSH1 0xFF PUSH1 0x30 SHL NOT AND OR SWAP1 SSTORE JUMP JUMPDEST DUP13 PUSH2 0x346D JUMP JUMPDEST MLOAD ADD MLOAD AND PUSH1 0x2 PUSH2 0x1599 DUP5 PUSH2 0x1362 CALLER PUSH1 0x1 DUP1 PUSH1 0xA0 SHL SUB AND PUSH0 MSTORE PUSH1 0x9 PUSH1 0x20 MSTORE PUSH1 0x40 PUSH0 KECCAK256 SWAP1 JUMP JUMPDEST POP ADD SWAP1 PUSH1 0xFF PUSH1 0x38 SHL DUP3 SLOAD SWAP2 PUSH1 0x38 SHL AND SWAP1 PUSH1 0xFF PUSH1 0x38 SHL NOT AND OR SWAP1 SSTORE JUMP JUMPDEST ADD AND PUSH2 0x130B JUMP JUMPDEST PUSH1 0x12 SLOAD PUSH1 0x13 SLOAD CALLER PUSH0 SWAP1 DUP2 MSTORE PUSH1 0x4 PUSH1 0x20 MSTORE PUSH1 0x40 SWAP1 KECCAK256 SLOAD PUSH1 0x1 PUSH1 0x1 PUSH1 0xA0 SHL SUB SWAP3 DUP4 AND SWAP4 PUSH2 0xFFFF SWAP1 SWAP2 AND SWAP3 DUP8 SWAP3 DUP12 SWAP3 SWAP2 AND SWAP1 PUSH2 0x15F6 CALLDATASIZE DUP12 DUP14 PUSH2 0x33D5 JUMP JUMPDEST SWAP3 PUSH2 0x15FF PUSH2 0x3973 JUMP JUMPDEST POP PUSH2 0x160A DUP5 MLOAD PUSH2 0x3A33 JUMP JUMPDEST SWAP5 PUSH0 JUMPDEST DUP6 MLOAD DUP2 LT ISZERO PUSH2 0x182B JUMPI PUSH2 0x1620 DUP2 DUP8 PUSH2 0x346D JUMP JUMPDEST MLOAD SWAP1 PUSH1 0x40 MLOAD SWAP2 PUSH4 0xB2ADFDF PUSH1 0xE1 SHL DUP4 MSTORE PUSH1 0x4 DUP4 ADD MSTORE PUSH1 0xC0 DUP3 PUSH1 0x24 DUP2 DUP14 GAS STATICCALL SWAP2 DUP3 ISZERO PUSH2 0x8B8 JUMPI PUSH0 SWAP3 PUSH2 0x1775 JUMPI JUMPDEST POP PUSH1 0x20 DUP3 ADD SWAP2 PUSH2 0x1665 DUP4 MLOAD PUSH2 0x1660 DUP2 PUSH2 0x2DFE JUMP JUMPDEST PUSH2 0x45AE JUMP JUMPDEST SWAP1 PUSH2 0x1679 PUSH1 0x80 DUP3 ADD SWAP3 PUSH1 0xFF DUP5 MLOAD AND SWAP1 PUSH2 0x45F7 JUMP JUMPDEST SWAP1 PUSH1 0xFF DUP1 PUSH1 0x60 DUP4 ADD MLOAD AND SWAP4 MLOAD AND SWAP1 PUSH1 0xA0 DUP2 ADD SWAP6 PUSH1 0xFF DUP8 MLOAD AND PUSH2 0x16BE PUSH2 0x16A7 DUP4 MLOAD PUSH2 0x16A2 DUP2 PUSH2 0x2DFE JUMP JUMPDEST PUSH2 0x460B JUMP JUMPDEST SWAP9 PUSH1 0xFF DUP5 MLOAD SWAP2 PUSH2 0x16B6 DUP4 PUSH2 0x2DFE JUMP JUMPDEST MLOAD AND SWAP1 PUSH2 0x463B JUMP JUMPDEST PUSH1 0x40 DUP5 MLOAD SWAP4 PUSH2 0x16CC DUP6 PUSH2 0x2DFE JUMP JUMPDEST MLOAD SWAP5 PUSH2 0x16D7 DUP7 PUSH2 0x2DFE JUMP JUMPDEST ADD MLOAD SWAP5 PUSH1 0x4 DUP7 LT ISZERO PUSH2 0x8C3 JUMPI PUSH1 0x1 SWAP10 PUSH2 0xFFFF PUSH2 0x1759 SWAP9 PUSH1 0xFF SWAP6 DUP7 SWAP5 PUSH2 0x1700 SWAP13 PUSH1 0x40 MLOAD SWAP14 DUP15 PUSH2 0x2D88 JUMP JUMPDEST DUP14 MSTORE PUSH1 0x20 DUP14 ADD MSTORE PUSH1 0x40 DUP13 ADD MSTORE AND DUP1 PUSH1 0x60 DUP12 ADD MSTORE PUSH1 0x80 DUP11 ADD MSTORE AND PUSH1 0xA0 DUP9 ADD MSTORE AND PUSH1 0xC0 DUP7 ADD MSTORE PUSH0 PUSH1 0xE0 DUP7 ADD MSTORE PUSH0 PUSH2 0x100 DUP7 ADD MSTORE PUSH2 0x173A DUP2 PUSH2 0x2DFE JUMP JUMPDEST PUSH2 0x120 DUP6 ADD MSTORE PUSH2 0x1749 DUP2 PUSH2 0x2DFE JUMP JUMPDEST PUSH2 0x140 DUP5 ADD MSTORE PUSH2 0x160 DUP4 ADD PUSH2 0x3550 JUMP JUMPDEST PUSH2 0x1763 DUP3 DUP11 PUSH2 0x346D JUMP JUMPDEST MSTORE PUSH2 0x176E DUP2 DUP10 PUSH2 0x346D JUMP JUMPDEST POP ADD PUSH2 0x160D JUMP JUMPDEST SWAP1 SWAP2 POP PUSH1 0xC0 DUP2 RETURNDATASIZE DUP3 GT PUSH2 0x1823 JUMPI JUMPDEST DUP2 PUSH2 0x1790 PUSH1 0xC0 SWAP4 DUP4 PUSH2 0x2DA4 JUMP JUMPDEST DUP2 ADD SUB SLT PUSH2 0x1E3 JUMPI PUSH1 0x40 MLOAD SWAP1 PUSH1 0xC0 DUP3 ADD DUP3 DUP2 LT PUSH1 0x1 PUSH1 0x1 PUSH1 0x40 SHL SUB DUP3 GT OR PUSH2 0x527 JUMPI PUSH1 0x40 MSTORE DUP1 MLOAD PUSH1 0x3 DUP2 LT ISZERO PUSH2 0x1E3 JUMPI DUP3 MSTORE PUSH1 0x20 DUP2 ADD MLOAD PUSH1 0x3 DUP2 LT ISZERO PUSH2 0x1E3 JUMPI PUSH1 0x20 DUP4 ADD MSTORE PUSH1 0x40 DUP2 ADD MLOAD PUSH1 0x4 DUP2 LT ISZERO PUSH2 0x1E3 JUMPI PUSH2 0x1817 SWAP2 PUSH1 0xA0 SWAP2 PUSH1 0x40 DUP6 ADD MSTORE PUSH2 0x17FB PUSH1 0x60 DUP3 ADD PUSH2 0x3481 JUMP JUMPDEST PUSH1 0x60 DUP6 ADD MSTORE PUSH2 0x180C PUSH1 0x80 DUP3 ADD PUSH2 0x3481 JUMP JUMPDEST PUSH1 0x80 DUP6 ADD MSTORE ADD PUSH2 0x3481 JUMP JUMPDEST PUSH1 0xA0 DUP3 ADD MSTORE SWAP1 DUP11 PUSH2 0x164C JUMP JUMPDEST RETURNDATASIZE SWAP2 POP PUSH2 0x1783 JUMP JUMPDEST POP DUP6 SWAP2 SWAP4 PUSH2 0x1839 DUP9 DUP5 PUSH2 0x46B5 JUMP JUMPDEST PUSH0 SWAP4 JUMPDEST DUP6 MLOAD DUP6 LT ISZERO PUSH2 0x1A75 JUMPI PUSH2 0x184F DUP6 DUP8 PUSH2 0x346D JUMP JUMPDEST MLOAD ISZERO PUSH2 0x1A68 JUMPI PUSH2 0x185F DUP6 DUP8 PUSH2 0x346D JUMP JUMPDEST MLOAD SWAP6 PUSH1 0x40 MLOAD SWAP7 PUSH4 0x68972D59 PUSH1 0xE0 SHL DUP9 MSTORE PUSH1 0x4 DUP9 ADD MSTORE PUSH0 DUP8 PUSH1 0x24 DUP2 DUP7 GAS STATICCALL SWAP7 DUP8 ISZERO PUSH2 0x8B8 JUMPI PUSH0 SWAP8 PUSH2 0x1A4C JUMPI JUMPDEST POP PUSH0 JUMPDEST DUP6 MLOAD DUP2 LT ISZERO PUSH2 0x1A37 JUMPI DUP8 MLOAD PUSH1 0x6 DUP2 LT ISZERO PUSH2 0x8C3 JUMPI PUSH2 0x18D4 JUMPI PUSH1 0x1 SWAP1 PUSH1 0xFF PUSH1 0x20 DUP11 ADD MLOAD AND PUSH1 0xFF PUSH2 0x18CA PUSH2 0x18BF DUP5 DUP12 PUSH2 0x346D JUMP JUMPDEST MLOAD SWAP3 DUP3 DUP5 MLOAD AND PUSH2 0x3A00 JUMP JUMPDEST AND SWAP1 MSTORE JUMPDEST ADD PUSH2 0x188D JUMP JUMPDEST DUP8 MLOAD PUSH1 0x6 DUP2 LT ISZERO PUSH2 0x8C3 JUMPI PUSH1 0x1 SUB PUSH2 0x1917 JUMPI PUSH1 0x1 SWAP1 PUSH1 0xFF PUSH1 0x20 DUP11 ADD MLOAD AND PUSH1 0xFF PUSH2 0x190E PUSH1 0x20 PUSH2 0x1902 DUP6 DUP13 PUSH2 0x346D JUMP JUMPDEST MLOAD ADD SWAP3 DUP3 DUP5 MLOAD AND PUSH2 0x3A00 JUMP JUMPDEST AND SWAP1 MSTORE JUMPDEST PUSH2 0x18CE JUMP JUMPDEST DUP8 MLOAD PUSH1 0x6 DUP2 LT ISZERO PUSH2 0x8C3 JUMPI PUSH1 0x2 SUB PUSH2 0x1945 JUMPI PUSH1 0x1 SWAP1 PUSH1 0xFF PUSH1 0x20 DUP11 ADD MLOAD AND PUSH1 0xFF PUSH2 0x190E PUSH1 0x40 PUSH2 0x1902 DUP6 DUP13 PUSH2 0x346D JUMP JUMPDEST DUP8 MLOAD PUSH1 0x6 DUP2 LT ISZERO PUSH2 0x8C3 JUMPI PUSH1 0x3 SUB PUSH2 0x19E6 JUMPI PUSH2 0xFFFF PUSH1 0x60 PUSH2 0x1966 DUP4 DUP10 PUSH2 0x346D JUMP JUMPDEST MLOAD ADD MLOAD AND SWAP1 PUSH1 0x3 PUSH2 0xFFFF PUSH1 0xFF PUSH1 0x20 DUP13 ADD MLOAD AND AND MUL PUSH2 0xFFFF DUP2 AND SWAP1 DUP2 SUB PUSH2 0xA8C JUMPI PUSH2 0xFFFF AND PUSH1 0x64 ADD SWAP2 PUSH2 0xFFFF DUP4 GT PUSH2 0xA8C JUMPI PUSH2 0xFFFF PUSH2 0x19A8 PUSH1 0x1 SWAP5 PUSH1 0x64 SWAP4 PUSH2 0x45DE JUMP JUMPDEST AND DIV PUSH2 0xFFFF PUSH1 0x60 PUSH2 0x19B9 DUP5 DUP12 PUSH2 0x346D JUMP JUMPDEST MLOAD ADD SWAP2 AND SWAP1 MSTORE PUSH2 0xFFFF PUSH1 0x60 PUSH2 0x19CE DUP4 DUP11 PUSH2 0x346D JUMP JUMPDEST MLOAD ADD MLOAD AND PUSH1 0x80 PUSH2 0x19DE DUP4 DUP11 PUSH2 0x346D JUMP JUMPDEST MLOAD ADD MSTORE PUSH2 0x18CE JUMP JUMPDEST DUP8 MLOAD PUSH1 0x6 DUP2 LT ISZERO PUSH2 0x8C3 JUMPI PUSH1 0x4 SUB PUSH2 0x1A14 JUMPI PUSH1 0x1 SWAP1 PUSH1 0xFF PUSH1 0x20 DUP11 ADD MLOAD AND PUSH1 0xFF PUSH2 0x190E PUSH1 0xA0 PUSH2 0x1902 DUP6 DUP13 PUSH2 0x346D JUMP JUMPDEST DUP8 MLOAD SWAP1 PUSH1 0x6 DUP3 LT ISZERO PUSH2 0x8C3 JUMPI PUSH1 0x5 PUSH1 0x1 SWAP3 SUB PUSH2 0x1912 JUMPI DUP2 PUSH1 0xE0 PUSH2 0x19DE DUP4 DUP11 PUSH2 0x346D JUMP JUMPDEST POP SWAP3 SWAP2 SWAP6 POP SWAP4 PUSH1 0x1 SWAP1 JUMPDEST ADD SWAP4 SWAP5 SWAP1 SWAP2 SWAP5 PUSH2 0x183C JUMP JUMPDEST PUSH2 0x1A61 SWAP2 SWAP8 POP RETURNDATASIZE DUP1 PUSH0 DUP4 RETURNDATACOPY PUSH2 0x1136 DUP2 DUP4 PUSH2 0x2DA4 JUMP JUMPDEST SWAP6 DUP8 PUSH2 0x188A JUMP JUMPDEST SWAP4 PUSH1 0x1 SWAP1 SWAP6 SWAP3 SWAP2 SWAP6 PUSH2 0x1A41 JUMP JUMPDEST SWAP1 POP PUSH2 0x1A81 DUP2 MLOAD PUSH2 0x3A33 JUMP JUMPDEST SWAP3 PUSH0 JUMPDEST DUP3 MLOAD DUP2 LT ISZERO PUSH2 0x1B4A JUMPI PUSH2 0x1A97 DUP2 DUP5 PUSH2 0x346D JUMP JUMPDEST MLOAD SWAP1 PUSH1 0x60 DUP3 ADD SWAP2 PUSH2 0x1AAC DUP4 MLOAD PUSH2 0x1660 DUP2 PUSH2 0x2DFE JUMP JUMPDEST SWAP1 PUSH2 0x1AC0 PUSH1 0xC0 DUP3 ADD SWAP3 PUSH1 0xFF DUP5 MLOAD AND SWAP1 PUSH2 0x45F7 JUMP JUMPDEST SWAP1 PUSH1 0xFF DUP1 PUSH1 0xA0 DUP4 ADD MLOAD AND SWAP4 MLOAD AND SWAP1 PUSH1 0xE0 DUP2 ADD SWAP6 PUSH1 0xFF DUP8 MLOAD AND PUSH2 0x1AE9 PUSH2 0x16A7 DUP4 MLOAD PUSH2 0x16A2 DUP2 PUSH2 0x2DFE JUMP JUMPDEST PUSH1 0x80 PUSH1 0x40 DUP6 ADD MLOAD SWAP4 PUSH2 0x1AFA DUP6 PUSH2 0x2DFE JUMP JUMPDEST MLOAD SWAP5 PUSH2 0x1B05 DUP7 PUSH2 0x2DFE JUMP JUMPDEST ADD MLOAD SWAP5 PUSH1 0x4 DUP7 LT ISZERO PUSH2 0x8C3 JUMPI PUSH1 0x1 SWAP10 PUSH2 0xFFFF PUSH2 0x1B2E SWAP9 PUSH1 0xFF SWAP6 DUP7 SWAP5 PUSH2 0x1700 SWAP13 PUSH1 0x40 MLOAD SWAP14 DUP15 PUSH2 0x2D88 JUMP JUMPDEST PUSH2 0x1B38 DUP3 DUP9 PUSH2 0x346D JUMP JUMPDEST MSTORE PUSH2 0x1B43 DUP2 DUP8 PUSH2 0x346D JUMP JUMPDEST POP ADD PUSH2 0x1A84 JUMP JUMPDEST POP DUP3 DUP5 PUSH2 0x1B56 DUP4 PUSH2 0x3ACE JUMP JUMPDEST PUSH2 0x1B5F DUP2 PUSH2 0x3ACE JUMP JUMPDEST PUSH2 0x1B69 DUP4 MLOAD PUSH2 0x39A7 JUMP JUMPDEST SWAP1 PUSH2 0x1B74 DUP2 MLOAD PUSH2 0x39A7 JUMP JUMPDEST PUSH0 JUMPDEST DUP6 MLOAD DUP2 LT ISZERO PUSH2 0x1BA6 JUMPI DUP1 PUSH2 0xFFFF PUSH1 0x80 PUSH2 0x1B91 PUSH1 0x1 SWAP5 DUP11 PUSH2 0x346D JUMP JUMPDEST MLOAD ADD MLOAD AND PUSH2 0x1B9F DUP3 DUP8 PUSH2 0x346D JUMP JUMPDEST MSTORE ADD PUSH2 0x1B76 JUMP JUMPDEST POP SWAP1 SWAP3 DUP5 SWAP3 PUSH0 JUMPDEST DUP6 MLOAD DUP2 LT ISZERO PUSH2 0x1BDD JUMPI DUP1 PUSH2 0xFFFF PUSH1 0x80 PUSH2 0x1BC8 PUSH1 0x1 SWAP5 DUP11 PUSH2 0x346D JUMP JUMPDEST MLOAD ADD MLOAD AND PUSH2 0x1BD6 DUP3 DUP8 PUSH2 0x346D JUMP JUMPDEST MSTORE ADD PUSH2 0x1BAD JUMP JUMPDEST POP PUSH1 0x40 MLOAD SWAP5 SWAP1 SWAP4 SWAP2 PUSH2 0xF20 PUSH2 0x1BF2 DUP2 DUP9 PUSH2 0x2DA4 JUMP JUMPDEST PUSH1 0x78 DUP8 MSTORE PUSH1 0x1F NOT ADD PUSH0 JUMPDEST DUP2 DUP2 LT PUSH2 0x2164 JUMPI POP POP PUSH0 SWAP3 PUSH1 0x1 JUMPDEST PUSH1 0x12 PUSH1 0xFF DUP3 AND GT ISZERO PUSH2 0x2033 JUMPI JUMPDEST POP POP POP PUSH2 0x1C23 SWAP1 PUSH2 0x3BD5 JUMP JUMPDEST ISZERO SWAP1 PUSH2 0x1C2E DUP2 PUSH2 0x2FDB JUMP JUMPDEST SWAP5 PUSH2 0x1C3C PUSH1 0x40 MLOAD SWAP7 DUP8 PUSH2 0x2DA4 JUMP JUMPDEST DUP2 DUP7 MSTORE PUSH1 0x1F NOT PUSH2 0x1C4B DUP4 PUSH2 0x2FDB JUMP JUMPDEST ADD PUSH0 JUMPDEST DUP2 DUP2 LT PUSH2 0x1FC8 JUMPI POP POP PUSH0 JUMPDEST DUP3 DUP2 LT PUSH2 0x1F9E JUMPI POP POP POP PUSH2 0x1C6B PUSH2 0x3973 JUMP JUMPDEST SWAP1 DUP2 MSTORE PUSH1 0x20 DUP2 ADD SWAP4 DUP5 MSTORE PUSH1 0x40 DUP2 ADD SWAP3 DUP4 MSTORE PUSH1 0x60 DUP2 ADD SWAP2 DUP3 MSTORE DUP1 MLOAD ISZERO ISZERO PUSH1 0x40 MLOAD PUSH1 0x20 DUP2 ADD SWAP2 PUSH12 0xFFFFFFFFFFFFFFFFFFFFFFFF NOT CALLER PUSH1 0x60 SHL AND DUP4 MSTORE TIMESTAMP PUSH1 0x34 DUP4 ADD MSTORE PREVRANDAO PUSH1 0x54 DUP4 ADD MSTORE PUSH1 0xF8 SHL PUSH1 0x74 DUP3 ADD MSTORE PUSH1 0x55 DUP2 MSTORE PUSH2 0x1CC7 PUSH1 0x75 DUP3 PUSH2 0x2DA4 JUMP JUMPDEST MLOAD SWAP1 KECCAK256 SWAP4 DUP5 PUSH1 0xD SSTORE PUSH2 0x1CF3 DUP3 MLOAD ISZERO ISZERO CALLER PUSH0 MSTORE PUSH1 0xA PUSH1 0x20 MSTORE PUSH1 0x40 PUSH0 KECCAK256 SWAP1 PUSH1 0xFF DUP1 NOT DUP4 SLOAD AND SWAP2 ISZERO ISZERO AND OR SWAP1 SSTORE JUMP JUMPDEST CALLER PUSH0 SWAP1 DUP2 MSTORE PUSH1 0xB PUSH1 0x20 MSTORE PUSH1 0x40 SWAP1 KECCAK256 PUSH2 0x1D0F SWAP1 PUSH2 0x357F JUMP JUMPDEST PUSH2 0x357F JUMP JUMPDEST PUSH0 JUMPDEST DUP5 MLOAD MLOAD DUP2 LT ISZERO PUSH2 0x1D4D JUMPI CALLER PUSH0 SWAP1 DUP2 MSTORE PUSH1 0xB PUSH1 0x20 MSTORE PUSH1 0x40 SWAP1 KECCAK256 PUSH1 0x1 SWAP2 SWAP1 PUSH2 0x1D47 SWAP1 PUSH2 0xFFFF PUSH2 0x1D3F DUP5 DUP11 MLOAD PUSH2 0x346D JUMP JUMPDEST MLOAD AND SWAP1 PUSH2 0x35A6 JUMP JUMPDEST ADD PUSH2 0x1D11 JUMP JUMPDEST POP SWAP1 SWAP2 SWAP4 PUSH2 0x1D6E PUSH2 0x1D0A CALLER PUSH1 0x1 DUP1 PUSH1 0xA0 SHL SUB AND PUSH0 MSTORE PUSH1 0xC PUSH1 0x20 MSTORE PUSH1 0x40 PUSH0 KECCAK256 SWAP1 JUMP JUMPDEST PUSH0 JUMPDEST DUP6 MLOAD MLOAD DUP2 LT ISZERO PUSH2 0x1DA4 JUMPI CALLER PUSH0 SWAP1 DUP2 MSTORE PUSH1 0xC PUSH1 0x20 MSTORE PUSH1 0x40 SWAP1 KECCAK256 PUSH1 0x1 SWAP2 SWAP1 PUSH2 0x1D9E SWAP1 PUSH2 0xFFFF PUSH2 0x1D3F DUP5 DUP12 MLOAD PUSH2 0x346D JUMP JUMPDEST ADD PUSH2 0x1D70 JUMP JUMPDEST POP DUP4 DUP2 PUSH32 0xC5187ED43EF6C494568F3ACE9A84A990FE330816256F8610BA7630DE7FC2A485 PUSH2 0x1DFD DUP9 PUSH2 0x1DEF DUP9 MLOAD ISZERO ISZERO SWAP6 MLOAD SWAP2 MLOAD SWAP2 PUSH1 0x40 MLOAD SWAP7 DUP8 MSTORE PUSH1 0x60 PUSH1 0x20 DUP9 ADD MSTORE PUSH1 0x60 DUP8 ADD SWAP1 PUSH2 0x2B59 JUMP JUMPDEST SWAP1 DUP6 DUP3 SUB PUSH1 0x40 DUP8 ADD MSTORE PUSH2 0x2B59 JUMP JUMPDEST SWAP3 DUP1 CALLER SWAP5 SUB SWAP1 LOG3 PUSH0 JUMPDEST DUP3 MLOAD SWAP1 DUP2 MLOAD DUP2 LT ISZERO PUSH2 0x1EB7 JUMPI DUP3 PUSH32 0x60620DFBC2D4188642CFFA14579DA13E93400A7369BB90AAC5A983BEEF88F66A PUSH2 0x1E40 DUP4 PUSH1 0x1 SWAP6 PUSH2 0x346D JUMP JUMPDEST MLOAD PUSH1 0xFF DUP2 MLOAD AND PUSH2 0x1EAE PUSH1 0x20 DUP4 ADD MLOAD ISZERO ISZERO SWAP3 PUSH1 0xFF PUSH1 0x40 DUP3 ADD MLOAD AND SWAP1 PUSH1 0xFF PUSH1 0x60 DUP3 ADD MLOAD AND PUSH2 0xFFFF PUSH1 0x80 DUP4 ADD MLOAD AND SWAP1 PUSH2 0x100 PUSH2 0xFFFF PUSH1 0xE0 DUP6 ADD MLOAD AND SWAP4 ADD MLOAD SWAP4 PUSH1 0x40 MLOAD SWAP8 DUP9 SWAP8 DUP9 MSTORE PUSH1 0x20 DUP9 ADD MSTORE PUSH1 0x40 DUP8 ADD MSTORE PUSH1 0x60 DUP7 ADD MSTORE PUSH1 0x80 DUP6 ADD MSTORE PUSH1 0xA0 DUP5 ADD MSTORE PUSH1 0xE0 PUSH1 0xC0 DUP5 ADD MSTORE PUSH1 0xE0 DUP4 ADD SWAP1 PUSH2 0x2B90 JUMP JUMPDEST SUB SWAP1 LOG2 ADD PUSH2 0x1E06 JUMP JUMPDEST DUP5 MLOAD ISZERO ISZERO CALLER PUSH0 MSTORE PUSH1 0x4 PUSH1 0x20 MSTORE PUSH1 0x40 PUSH0 KECCAK256 SWAP1 DUP1 PUSH0 EQ PUSH2 0x1F97 JUMPI PUSH1 0x19 JUMPDEST PUSH1 0xFF PUSH4 0xFFFFFFFF DUP5 SLOAD PUSH1 0x10 SHR AND SWAP2 AND ADD PUSH4 0xFFFFFFFF DUP2 GT PUSH2 0xA8C JUMPI DUP3 SLOAD PUSH6 0xFFFFFFFF0000 NOT AND PUSH1 0x10 SWAP2 SWAP1 SWAP2 SHL PUSH6 0xFFFFFFFF0000 AND OR DUP3 SSTORE ISZERO PUSH2 0x1F82 JUMPI PUSH1 0x1 DUP2 ADD PUSH2 0x1F1C DUP2 SLOAD PUSH2 0x3A14 JUMP JUMPDEST SWAP1 SSTORE JUMPDEST DUP1 SLOAD PUSH2 0xFFFF DUP2 AND SWAP1 PUSH1 0x37 DUP3 MUL PUSH4 0xFFFFFFFF DUP2 AND SWAP1 DUP2 SUB PUSH2 0xA8C JUMPI PUSH1 0x5A ADD PUSH4 0xFFFFFFFF DUP2 GT PUSH2 0xA8C JUMPI PUSH4 0xFFFFFFFF DUP1 SWAP2 AND SWAP2 PUSH1 0x10 SHR AND LT ISZERO PUSH2 0x1F60 JUMPI PUSH1 0x1 DUP1 SSTORE STOP JUMPDEST PUSH2 0xFFFF DUP2 EQ PUSH2 0xA8C JUMPI PUSH1 0x1 PUSH2 0xFFFF SWAP2 ADD AND PUSH2 0xFFFF NOT DUP3 SLOAD AND OR SWAP1 SSTORE DUP1 DUP1 PUSH2 0x87C JUMP JUMPDEST PUSH1 0x2 DUP2 ADD PUSH2 0x1F90 DUP2 SLOAD PUSH2 0x3A14 JUMP JUMPDEST SWAP1 SSTORE PUSH2 0x1F1F JUMP JUMPDEST PUSH1 0xA PUSH2 0x1ED2 JUMP JUMPDEST DUP1 PUSH2 0x1FAB PUSH1 0x1 SWAP3 DUP5 PUSH2 0x346D JUMP JUMPDEST MLOAD PUSH2 0x1FB6 DUP3 DUP11 PUSH2 0x346D JUMP JUMPDEST MSTORE PUSH2 0x1FC1 DUP2 DUP10 PUSH2 0x346D JUMP JUMPDEST POP ADD PUSH2 0x1C59 JUMP JUMPDEST PUSH1 0x20 SWAP1 PUSH1 0x40 MLOAD PUSH2 0x1FD7 DUP2 PUSH2 0x2D50 JUMP JUMPDEST PUSH0 DUP2 MSTORE PUSH0 DUP4 DUP3 ADD MSTORE PUSH0 PUSH1 0x40 DUP3 ADD MSTORE PUSH0 PUSH1 0x60 DUP3 ADD MSTORE PUSH0 PUSH1 0x80 DUP3 ADD MSTORE PUSH0 PUSH1 0xA0 DUP3 ADD MSTORE PUSH0 PUSH1 0xC0 DUP3 ADD MSTORE PUSH0 PUSH1 0xE0 DUP3 ADD MSTORE PUSH1 0x60 PUSH2 0x100 DUP3 ADD MSTORE PUSH0 PUSH2 0x120 DUP3 ADD MSTORE PUSH0 PUSH2 0x140 DUP3 ADD MSTORE PUSH0 PUSH2 0x160 DUP3 ADD MSTORE PUSH0 PUSH2 0x180 DUP3 ADD MSTORE DUP3 DUP3 DUP12 ADD ADD MSTORE ADD PUSH2 0x1C4E JUMP JUMPDEST PUSH2 0x203C DUP3 PUSH2 0x3BD5 JUMP JUMPDEST ISZERO DUP1 ISZERO PUSH2 0x2154 JUMPI JUMPDEST PUSH2 0x214F JUMPI PUSH2 0x2051 DUP3 PUSH2 0x3C22 JUMP JUMPDEST PUSH2 0x205A DUP5 PUSH2 0x3C22 JUMP JUMPDEST PUSH1 0x3 PUSH1 0xFF DUP3 AND MUL PUSH1 0xFF DUP2 AND SWAP1 DUP2 SUB PUSH2 0xA8C JUMPI PUSH1 0x1 DUP5 PUSH1 0xFF DUP1 SWAP4 AND SHR AND AND PUSH1 0x1 ADD PUSH1 0xFF DUP2 GT PUSH2 0xA8C JUMPI PUSH1 0xFF AND PUSH0 JUMPDEST DUP2 PUSH1 0xFF DUP3 AND LT PUSH2 0x20A2 JUMPI JUMPDEST POP POP PUSH2 0x209D SWAP1 PUSH2 0x3A22 JUMP JUMPDEST PUSH2 0x1C0A JUMP JUMPDEST PUSH1 0x77 DUP8 LT ISZERO PUSH2 0x213A JUMPI PUSH2 0x20B4 DUP5 PUSH2 0x3BD5 JUMP JUMPDEST ISZERO DUP1 ISZERO PUSH2 0x213F JUMPI JUMPDEST PUSH2 0x213A JUMPI DUP3 DUP8 DUP12 DUP8 PUSH2 0x20CE DUP11 DUP10 PUSH2 0x3C8B JUMP JUMPDEST SWAP5 SWAP1 ISZERO PUSH2 0x2109 JUMPI PUSH2 0x20E0 SWAP5 DUP12 DUP11 PUSH2 0x423D JUMP JUMPDEST PUSH2 0x20F2 JUMPI JUMPDEST PUSH1 0x1 PUSH1 0xFF SWAP2 JUMPDEST ADD AND PUSH2 0x2087 JUMP JUMPDEST SWAP6 PUSH1 0x1 PUSH2 0x2100 PUSH1 0xFF SWAP3 PUSH2 0x3A14 JUMP JUMPDEST SWAP8 SWAP2 POP POP PUSH2 0x20E5 JUMP JUMPDEST PUSH2 0x2114 SWAP5 DUP10 DUP13 PUSH2 0x3E64 JUMP JUMPDEST PUSH2 0x2123 JUMPI JUMPDEST PUSH1 0x1 PUSH1 0xFF SWAP2 PUSH2 0x20EB JUMP JUMPDEST SWAP6 PUSH1 0x1 PUSH2 0x2131 PUSH1 0xFF SWAP3 PUSH2 0x3A14 JUMP JUMPDEST SWAP8 SWAP2 POP POP PUSH2 0x2119 JUMP JUMPDEST PUSH2 0x2092 JUMP JUMPDEST POP PUSH2 0x2149 DUP7 PUSH2 0x3BD5 JUMP JUMPDEST ISZERO PUSH2 0x20BC JUMP JUMPDEST PUSH2 0x1C17 JUMP JUMPDEST POP PUSH2 0x215E DUP5 PUSH2 0x3BD5 JUMP JUMPDEST ISZERO PUSH2 0x2044 JUMP JUMPDEST PUSH1 0x20 SWAP1 PUSH1 0x40 MLOAD PUSH2 0x2173 DUP2 PUSH2 0x2D50 JUMP JUMPDEST PUSH0 DUP2 MSTORE PUSH0 DUP4 DUP3 ADD MSTORE PUSH0 PUSH1 0x40 DUP3 ADD MSTORE PUSH0 PUSH1 0x60 DUP3 ADD MSTORE PUSH0 PUSH1 0x80 DUP3 ADD MSTORE PUSH0 PUSH1 0xA0 DUP3 ADD MSTORE PUSH0 PUSH1 0xC0 DUP3 ADD MSTORE PUSH0 PUSH1 0xE0 DUP3 ADD MSTORE PUSH1 0x60 PUSH2 0x100 DUP3 ADD MSTORE PUSH0 PUSH2 0x120 DUP3 ADD MSTORE PUSH0 PUSH2 0x140 DUP3 ADD MSTORE PUSH0 PUSH2 0x160 DUP3 ADD MSTORE PUSH0 PUSH2 0x180 DUP3 ADD MSTORE DUP3 DUP3 DUP12 ADD ADD MSTORE ADD PUSH2 0x1BFC JUMP JUMPDEST PUSH1 0x20 SWAP1 PUSH2 0x21DA PUSH2 0x32FD JUMP JUMPDEST DUP3 DUP3 DUP10 ADD ADD MSTORE ADD PUSH2 0x1162 JUMP JUMPDEST PUSH1 0x1 SWAP1 CALLER PUSH0 MSTORE PUSH1 0x7 PUSH1 0x20 MSTORE PUSH2 0x21FE DUP2 PUSH1 0x40 PUSH0 KECCAK256 PUSH2 0x2CD0 JUMP JUMPDEST SWAP1 SLOAD SWAP1 PUSH1 0x3 SHL SHR PUSH2 0x220F DUP3 DUP8 PUSH2 0x346D JUMP JUMPDEST MSTORE ADD PUSH2 0x10AC JUMP JUMPDEST SWAP1 SWAP2 SWAP4 POP PUSH1 0x3 DUP2 GT PUSH2 0x22D2 JUMPI PUSH0 JUMPDEST DUP2 DUP2 LT PUSH2 0x223E JUMPI POP SWAP1 PUSH2 0x2238 SWAP2 CALLDATASIZE SWAP2 PUSH2 0x33D5 JUMP JUMPDEST SWAP2 PUSH2 0x10B6 JUMP JUMPDEST PUSH2 0x2249 DUP2 DUP4 DUP6 PUSH2 0x33C5 JUMP JUMPDEST CALLDATALOAD PUSH2 0x2257 JUMPI JUMPDEST PUSH1 0x1 ADD PUSH2 0x2224 JUMP JUMPDEST PUSH1 0x13 SLOAD PUSH2 0x2276 SWAP2 SWAP1 PUSH1 0x20 SWAP1 PUSH1 0x1 PUSH1 0x1 PUSH1 0xA0 SHL SUB AND PUSH2 0xD37 DUP4 DUP7 DUP9 PUSH2 0x33C5 JUMP JUMPDEST SUB SWAP2 GAS STATICCALL SWAP2 DUP3 ISZERO PUSH2 0x8B8 JUMPI PUSH0 SWAP3 PUSH2 0x229D JUMPI JUMPDEST POP PUSH2 0x2296 PUSH1 0x1 SWAP3 ISZERO ISZERO PUSH2 0x3421 JUMP JUMPDEST SWAP1 POP PUSH2 0x224F JUMP JUMPDEST SWAP2 POP PUSH1 0x20 DUP3 RETURNDATASIZE DUP3 GT PUSH2 0x22CA JUMPI JUMPDEST DUP2 PUSH2 0x22B7 PUSH1 0x20 SWAP4 DUP4 PUSH2 0x2DA4 JUMP JUMPDEST DUP2 ADD SUB SLT PUSH2 0x1E3 JUMPI SWAP1 MLOAD SWAP1 PUSH2 0x2296 PUSH2 0x2288 JUMP JUMPDEST RETURNDATASIZE SWAP2 POP PUSH2 0x22AA JUMP JUMPDEST PUSH1 0x40 MLOAD PUSH3 0x461BCD PUSH1 0xE5 SHL DUP2 MSTORE PUSH1 0x20 PUSH1 0x4 DUP3 ADD MSTORE PUSH1 0xF PUSH1 0x24 DUP3 ADD MSTORE PUSH15 0x546F6F206D616E792072656C696373 PUSH1 0x88 SHL PUSH1 0x44 DUP3 ADD MSTORE PUSH1 0x64 SWAP1 REVERT JUMPDEST PUSH1 0x40 MLOAD PUSH1 0x80 PUSH2 0x2318 DUP2 DUP4 PUSH2 0x2DA4 JUMP JUMPDEST PUSH1 0x3 DUP3 MSTORE PUSH1 0x1F NOT ADD CALLDATASIZE PUSH1 0x20 DUP4 ADD CALLDATACOPY PUSH2 0x10A2 JUMP JUMPDEST PUSH2 0x2336 DUP2 DUP6 DUP8 PUSH2 0x33C5 JUMP JUMPDEST PUSH1 0x40 MLOAD PUSH4 0x31A9108F PUSH1 0xE1 SHL DUP2 MSTORE SWAP1 CALLDATALOAD PUSH1 0x4 DUP3 ADD MSTORE PUSH1 0x20 DUP2 PUSH1 0x24 DUP2 DUP7 GAS STATICCALL SWAP1 DUP2 ISZERO PUSH2 0x8B8 JUMPI PUSH0 SWAP2 PUSH2 0x23C0 JUMPI JUMPDEST POP CALLER PUSH1 0x1 PUSH1 0x1 PUSH1 0xA0 SHL SUB SWAP1 SWAP2 AND SUB PUSH2 0x237B JUMPI PUSH1 0x1 ADD PUSH2 0x1086 JUMP JUMPDEST PUSH1 0x40 MLOAD PUSH3 0x461BCD PUSH1 0xE5 SHL DUP2 MSTORE PUSH1 0x20 PUSH1 0x4 DUP3 ADD MSTORE PUSH1 0x18 PUSH1 0x24 DUP3 ADD MSTORE PUSH32 0x596F7520646F206E6F74206F776E207468697320756E69740000000000000000 PUSH1 0x44 DUP3 ADD MSTORE PUSH1 0x64 SWAP1 REVERT JUMPDEST SWAP1 POP PUSH1 0x20 DUP2 RETURNDATASIZE DUP3 GT PUSH2 0x23F9 JUMPI JUMPDEST DUP2 PUSH2 0x23DA PUSH1 0x20 SWAP4 DUP4 PUSH2 0x2DA4 JUMP JUMPDEST DUP2 ADD SUB SLT PUSH2 0x1E3 JUMPI MLOAD PUSH1 0x1 PUSH1 0x1 PUSH1 0xA0 SHL SUB DUP2 AND DUP2 SUB PUSH2 0x1E3 JUMPI DUP8 PUSH2 0x2361 JUMP JUMPDEST RETURNDATASIZE SWAP2 POP PUSH2 0x23CD JUMP JUMPDEST PUSH1 0x40 MLOAD PUSH3 0x461BCD PUSH1 0xE5 SHL DUP2 MSTORE PUSH1 0x20 PUSH1 0x4 DUP3 ADD MSTORE PUSH1 0x11 PUSH1 0x24 DUP3 ADD MSTORE PUSH17 0x496E76616C6964207465616D2073697A65 PUSH1 0x78 SHL PUSH1 0x44 DUP3 ADD MSTORE PUSH1 0x64 SWAP1 REVERT JUMPDEST POP PUSH1 0x8 DUP3 GT ISZERO PUSH2 0x1073 JUMP JUMPDEST CALLVALUE PUSH2 0x1E3 JUMPI PUSH0 CALLDATASIZE PUSH1 0x3 NOT ADD SLT PUSH2 0x1E3 JUMPI PUSH1 0x20 PUSH1 0xD SLOAD PUSH1 0x40 MLOAD SWAP1 DUP2 MSTORE RETURN JUMPDEST CALLVALUE PUSH2 0x1E3 JUMPI PUSH1 0x40 CALLDATASIZE PUSH1 0x3 NOT ADD SLT PUSH2 0x1E3 JUMPI PUSH2 0x247B PUSH2 0x2B1C JUMP JUMPDEST PUSH1 0x1 PUSH1 0x1 PUSH1 0xA0 SHL SUB AND PUSH0 SWAP1 DUP2 MSTORE PUSH1 0x5 PUSH1 0x20 MSTORE PUSH1 0x40 SWAP1 KECCAK256 DUP1 SLOAD PUSH1 0x24 CALLDATALOAD SWAP2 SWAP1 DUP3 LT ISZERO PUSH2 0x1E3 JUMPI PUSH1 0x20 SWAP2 PUSH2 0x230 SWAP2 PUSH2 0x2C52 JUMP JUMPDEST CALLVALUE PUSH2 0x1E3 JUMPI PUSH1 0x40 CALLDATASIZE PUSH1 0x3 NOT ADD SLT PUSH2 0x1E3 JUMPI PUSH2 0x24C4 PUSH2 0x2B1C JUMP JUMPDEST PUSH1 0x1 PUSH1 0x1 PUSH1 0xA0 SHL SUB AND PUSH0 SWAP1 DUP2 MSTORE PUSH1 0xB PUSH1 0x20 MSTORE PUSH1 0x40 SWAP1 KECCAK256 DUP1 SLOAD PUSH1 0x24 CALLDATALOAD SWAP1 DUP2 LT ISZERO PUSH2 0x1E3 JUMPI PUSH2 0xF03 PUSH2 0xFFFF SWAP2 PUSH1 0x20 SWAP4 PUSH2 0x2C31 JUMP JUMPDEST CALLVALUE PUSH2 0x1E3 JUMPI PUSH1 0x20 CALLDATASIZE PUSH1 0x3 NOT ADD SLT PUSH2 0x1E3 JUMPI PUSH2 0x250F PUSH2 0x2B1C JUMP JUMPDEST PUSH1 0x60 PUSH1 0x40 MLOAD PUSH2 0x251F PUSH1 0x60 DUP3 PUSH2 0x2DA4 JUMP JUMPDEST PUSH0 JUMPDEST DUP3 DUP2 LT PUSH2 0x25A1 JUMPI DUP4 PUSH1 0x1 DUP1 PUSH1 0xA0 SHL SUB AND PUSH0 MSTORE PUSH1 0x8 PUSH1 0x20 MSTORE PUSH1 0x40 PUSH0 KECCAK256 PUSH1 0x40 MLOAD SWAP1 PUSH2 0x2549 DUP3 PUSH2 0x2D35 JUMP JUMPDEST PUSH0 DUP3 JUMPDEST PUSH1 0x3 DUP3 LT PUSH2 0x2583 JUMPI PUSH1 0x40 MLOAD DUP5 PUSH0 DUP3 JUMPDEST PUSH1 0x3 DUP3 LT PUSH2 0x2569 JUMPI PUSH2 0x3C0 DUP5 RETURN JUMPDEST PUSH1 0x20 PUSH2 0x2578 PUSH1 0x1 SWAP3 DUP6 MLOAD PUSH2 0x2BB4 JUMP JUMPDEST SWAP4 ADD SWAP2 ADD SWAP1 SWAP2 PUSH2 0x255B JUMP JUMPDEST PUSH1 0x3 PUSH1 0x20 PUSH1 0x1 SWAP3 PUSH2 0x2593 DUP7 PUSH2 0x3347 JUMP JUMPDEST DUP2 MSTORE ADD SWAP4 ADD SWAP2 ADD SWAP1 SWAP2 PUSH2 0x254C JUMP JUMPDEST PUSH1 0x20 SWAP1 PUSH2 0x25AC PUSH2 0x32FD JUMP JUMPDEST DUP2 DUP5 ADD MSTORE ADD PUSH2 0x2521 JUMP JUMPDEST CALLVALUE PUSH2 0x1E3 JUMPI PUSH0 CALLDATASIZE PUSH1 0x3 NOT ADD SLT PUSH2 0x1E3 JUMPI PUSH2 0x25CE PUSH2 0x391C JUMP JUMPDEST PUSH1 0x2 SLOAD PUSH1 0xFF DUP2 AND ISZERO PUSH2 0x260D JUMPI PUSH1 0xFF NOT AND PUSH1 0x2 SSTORE PUSH32 0x5DB9EE0A495BF2E6FF9C91A7834C1BA4FDD244A5E8AA4E537BD38AEAE4B073AA PUSH1 0x20 PUSH1 0x40 MLOAD CALLER DUP2 MSTORE LOG1 STOP JUMPDEST PUSH1 0x40 MLOAD PUSH3 0x461BCD PUSH1 0xE5 SHL DUP2 MSTORE PUSH1 0x20 PUSH1 0x4 DUP3 ADD MSTORE PUSH1 0x14 PUSH1 0x24 DUP3 ADD MSTORE PUSH20 0x14185D5CD8589B194E881B9BDD081C185D5CD959 PUSH1 0x62 SHL PUSH1 0x44 DUP3 ADD MSTORE PUSH1 0x64 SWAP1 REVERT JUMPDEST CALLVALUE PUSH2 0x1E3 JUMPI PUSH0 CALLDATASIZE PUSH1 0x3 NOT ADD SLT PUSH2 0x1E3 JUMPI PUSH2 0x2661 PUSH2 0x391C JUMP JUMPDEST PUSH2 0x2669 PUSH2 0x3664 JUMP JUMPDEST SELFBALANCE DUP1 ISZERO PUSH2 0x268C JUMPI PUSH0 DUP1 DUP1 DUP1 SWAP4 PUSH1 0x1 DUP1 PUSH1 0xA0 SHL SUB DUP3 SLOAD AND DUP3 CALL ISZERO PUSH2 0x8B8 JUMPI PUSH1 0x1 DUP1 SSTORE STOP JUMPDEST PUSH1 0x40 MLOAD PUSH3 0x461BCD PUSH1 0xE5 SHL DUP2 MSTORE PUSH1 0x20 PUSH1 0x4 DUP3 ADD MSTORE PUSH1 0x14 PUSH1 0x24 DUP3 ADD MSTORE PUSH20 0x4E6F2066756E647320746F207769746864726177 PUSH1 0x60 SHL PUSH1 0x44 DUP3 ADD MSTORE PUSH1 0x64 SWAP1 REVERT JUMPDEST CALLVALUE PUSH2 0x1E3 JUMPI PUSH0 CALLDATASIZE PUSH1 0x3 NOT ADD SLT PUSH2 0x1E3 JUMPI PUSH1 0x20 PUSH1 0xE SLOAD PUSH1 0x40 MLOAD SWAP1 DUP2 MSTORE RETURN JUMPDEST CALLVALUE PUSH2 0x1E3 JUMPI PUSH1 0x20 CALLDATASIZE PUSH1 0x3 NOT ADD SLT PUSH2 0x1E3 JUMPI PUSH2 0x26FE PUSH2 0x2B1C JUMP JUMPDEST PUSH1 0x40 MLOAD SWAP1 PUSH2 0x270D PUSH1 0x20 DUP4 PUSH2 0x2DA4 JUMP JUMPDEST PUSH0 DUP3 MSTORE PUSH0 DUP1 JUMPDEST DUP2 DUP2 LT PUSH2 0x289B JUMPI POP POP PUSH1 0x1 DUP1 PUSH1 0xA0 SHL SUB AND SWAP1 DUP2 PUSH0 MSTORE PUSH1 0xA PUSH1 0x20 MSTORE PUSH1 0xFF PUSH1 0x40 PUSH0 KECCAK256 SLOAD AND SWAP1 DUP3 PUSH0 MSTORE PUSH1 0xB PUSH1 0x20 MSTORE PUSH1 0x40 PUSH0 KECCAK256 SWAP3 PUSH0 MSTORE PUSH1 0xC PUSH1 0x20 MSTORE PUSH1 0x40 PUSH0 KECCAK256 SWAP3 PUSH2 0x2785 PUSH2 0x2767 PUSH2 0x2761 PUSH1 0xD SLOAD SWAP4 PUSH2 0x2FF2 JUMP JUMPDEST SWAP6 PUSH2 0x2FF2 JUMP JUMPDEST PUSH2 0x1DEF PUSH1 0x40 MLOAD SWAP7 DUP8 SWAP7 ISZERO ISZERO DUP8 MSTORE PUSH1 0xA0 PUSH1 0x20 DUP9 ADD MSTORE PUSH1 0xA0 DUP8 ADD SWAP1 PUSH2 0x2B59 JUMP JUMPDEST SWAP1 PUSH1 0x60 DUP5 ADD MSTORE DUP3 DUP2 SUB PUSH1 0x80 DUP5 ADD MSTORE DUP2 MLOAD DUP1 DUP3 MSTORE PUSH1 0x20 DUP3 ADD SWAP2 PUSH1 0x20 DUP1 DUP4 PUSH1 0x5 SHL DUP4 ADD ADD SWAP5 ADD SWAP3 PUSH0 SWAP2 JUMPDEST DUP4 DUP4 LT PUSH2 0x27BA JUMPI DUP7 DUP7 SUB DUP8 RETURN JUMPDEST SWAP2 SWAP4 SWAP6 POP SWAP2 SWAP4 PUSH1 0x20 DUP1 PUSH1 0x1 SWAP3 PUSH1 0x1F NOT DUP6 DUP3 SUB ADD DUP7 MSTORE DUP9 MLOAD SWAP1 PUSH1 0xFF DUP3 MLOAD AND DUP2 MSTORE DUP3 DUP3 ADD MLOAD ISZERO ISZERO DUP4 DUP3 ADD MSTORE PUSH1 0xFF PUSH1 0x40 DUP4 ADD MLOAD AND PUSH1 0x40 DUP3 ADD MSTORE PUSH1 0xFF PUSH1 0x60 DUP4 ADD MLOAD AND PUSH1 0x60 DUP3 ADD MSTORE PUSH2 0xFFFF PUSH1 0x80 DUP4 ADD MLOAD AND PUSH1 0x80 DUP3 ADD MSTORE PUSH2 0xFFFF PUSH1 0xA0 DUP4 ADD MLOAD AND PUSH1 0xA0 DUP3 ADD MSTORE PUSH2 0xFFFF PUSH1 0xC0 DUP4 ADD MLOAD AND PUSH1 0xC0 DUP3 ADD MSTORE PUSH2 0xFFFF PUSH1 0xE0 DUP4 ADD MLOAD AND PUSH1 0xE0 DUP3 ADD MSTORE PUSH2 0x180 PUSH1 0xFF DUP2 PUSH2 0x2858 PUSH2 0x100 DUP7 ADD MLOAD PUSH2 0x1A0 PUSH2 0x100 DUP8 ADD MSTORE PUSH2 0x1A0 DUP7 ADD SWAP1 PUSH2 0x2B90 JUMP JUMPDEST SWAP5 DUP3 PUSH2 0x120 DUP3 ADD MLOAD AND PUSH2 0x120 DUP7 ADD MSTORE DUP3 PUSH2 0x140 DUP3 ADD MLOAD AND PUSH2 0x140 DUP7 ADD MSTORE DUP3 PUSH2 0x160 DUP3 ADD MLOAD AND PUSH2 0x160 DUP7 ADD MSTORE ADD MLOAD AND SWAP2 ADD MSTORE SWAP8 ADD SWAP4 ADD SWAP4 ADD SWAP1 SWAP3 DUP7 SWAP6 SWAP5 SWAP3 SWAP4 PUSH2 0x27AD JUMP JUMPDEST PUSH1 0x20 SWAP1 PUSH1 0x40 MLOAD PUSH2 0x28AA DUP2 PUSH2 0x2D50 JUMP JUMPDEST PUSH0 DUP2 MSTORE PUSH0 DUP4 DUP3 ADD MSTORE PUSH0 PUSH1 0x40 DUP3 ADD MSTORE PUSH0 PUSH1 0x60 DUP3 ADD MSTORE PUSH0 PUSH1 0x80 DUP3 ADD MSTORE PUSH0 PUSH1 0xA0 DUP3 ADD MSTORE PUSH0 PUSH1 0xC0 DUP3 ADD MSTORE PUSH0 PUSH1 0xE0 DUP3 ADD MSTORE PUSH1 0x60 PUSH2 0x100 DUP3 ADD MSTORE PUSH0 PUSH2 0x120 DUP3 ADD MSTORE PUSH0 PUSH2 0x140 DUP3 ADD MSTORE PUSH0 PUSH2 0x160 DUP3 ADD MSTORE PUSH0 PUSH2 0x180 DUP3 ADD MSTORE DUP3 DUP3 DUP8 ADD ADD MSTORE ADD PUSH2 0x2713 JUMP JUMPDEST PUSH0 CALLDATASIZE PUSH1 0x3 NOT ADD SLT PUSH2 0x1E3 JUMPI PUSH2 0x2919 PUSH2 0x3620 JUMP JUMPDEST PUSH2 0x2921 PUSH2 0x3664 JUMP JUMPDEST PUSH2 0x2929 PUSH2 0x36BA JUMP JUMPDEST PUSH2 0x2937 PUSH1 0xF SLOAD CALLVALUE LT ISZERO PUSH2 0x2CF2 JUMP JUMPDEST PUSH0 JUMPDEST PUSH1 0x3 DUP2 LT PUSH2 0x2947 JUMPI PUSH1 0x1 DUP1 SSTORE STOP JUMPDEST PUSH1 0x1 SWAP1 PUSH2 0x296A PUSH2 0x2955 PUSH2 0x37D5 JUMP JUMPDEST CALLER PUSH0 MSTORE PUSH1 0x8 PUSH1 0x20 MSTORE PUSH2 0x876 DUP4 PUSH1 0x40 PUSH0 KECCAK256 PUSH2 0x2B32 JUMP JUMPDEST ADD PUSH2 0x2939 JUMP JUMPDEST PUSH0 CALLDATASIZE PUSH1 0x3 NOT ADD SLT PUSH2 0x1E3 JUMPI PUSH2 0x2983 PUSH2 0x3620 JUMP JUMPDEST PUSH2 0x298B PUSH2 0x3664 JUMP JUMPDEST PUSH2 0x2993 PUSH2 0x36BA JUMP JUMPDEST PUSH2 0x29A1 PUSH1 0xE SLOAD CALLVALUE LT ISZERO PUSH2 0x2CF2 JUMP JUMPDEST PUSH1 0x40 MLOAD PUSH1 0x20 DUP2 ADD SWAP1 TIMESTAMP DUP3 MSTORE CALLER PUSH1 0x60 SHL PUSH1 0x40 DUP3 ADD MSTORE PREVRANDAO PUSH1 0x54 DUP3 ADD MSTORE PUSH1 0x54 DUP2 MSTORE PUSH2 0x29CA PUSH1 0x74 DUP3 PUSH2 0x2DA4 JUMP JUMPDEST MLOAD SWAP1 KECCAK256 PUSH1 0xB DUP2 MOD PUSH1 0xA ADD DUP1 PUSH1 0xA GT PUSH2 0xA8C JUMPI PUSH1 0xB DUP3 PUSH1 0x8 SHR MOD PUSH1 0x8 ADD SWAP1 DUP2 PUSH1 0x8 GT PUSH2 0xA8C JUMPI PUSH1 0xB DUP4 PUSH1 0x10 SHR MOD PUSH1 0x9 ADD SWAP3 DUP4 PUSH1 0x9 GT PUSH2 0xA8C JUMPI PUSH1 0xFF PUSH1 0x3 DUP3 PUSH1 0x18 SHR MOD AND PUSH2 0x2A1C PUSH1 0x3 DUP4 PUSH1 0x20 SHR AND SWAP3 PUSH2 0x37B3 JUMP JUMPDEST PUSH1 0x12 SLOAD PUSH1 0x1 PUSH1 0x1 PUSH1 0xA0 SHL SUB AND SWAP3 SWAP1 PUSH1 0xFF SWAP1 PUSH2 0x2A36 DUP5 PUSH2 0x2DFE JUMP JUMPDEST AND SWAP6 PUSH2 0x2A41 DUP8 PUSH2 0x2DFE JUMP JUMPDEST PUSH1 0x4 DUP3 LT ISZERO PUSH2 0x8C3 JUMPI PUSH1 0x40 MLOAD PUSH4 0xE3BD811 PUSH1 0xE3 SHL DUP2 MSTORE SWAP7 PUSH1 0x20 SWAP7 DUP9 SWAP7 DUP8 SWAP6 PUSH0 SWAP6 DUP8 SWAP6 PUSH2 0x2A7E SWAP6 PUSH1 0xFF SWAP2 DUP3 AND SWAP6 DUP3 AND SWAP5 SWAP1 SWAP2 AND SWAP3 CALLER PUSH1 0x4 DUP10 ADD PUSH2 0x2E12 JUMP JUMPDEST SUB SWAP3 GAS CALL DUP1 ISZERO PUSH2 0x8B8 JUMPI PUSH0 SWAP1 PUSH2 0x2AA4 JUMPI JUMPDEST PUSH2 0x87C SWAP1 CALLER PUSH0 MSTORE PUSH1 0x5 PUSH1 0x20 MSTORE PUSH1 0x40 PUSH0 KECCAK256 PUSH2 0x2E72 JUMP JUMPDEST POP PUSH1 0x20 DUP2 RETURNDATASIZE PUSH1 0x20 GT PUSH2 0x2AD0 JUMPI JUMPDEST DUP2 PUSH2 0x2ABE PUSH1 0x20 SWAP4 DUP4 PUSH2 0x2DA4 JUMP JUMPDEST DUP2 ADD SUB SLT PUSH2 0x1E3 JUMPI PUSH2 0x87C SWAP1 MLOAD PUSH2 0x2A8F JUMP JUMPDEST RETURNDATASIZE SWAP2 POP PUSH2 0x2AB1 JUMP JUMPDEST CALLVALUE PUSH2 0x1E3 JUMPI PUSH1 0x40 CALLDATASIZE PUSH1 0x3 NOT ADD SLT PUSH2 0x1E3 JUMPI PUSH2 0x2AF1 PUSH2 0x2B1C JUMP JUMPDEST PUSH1 0x1 PUSH1 0x1 PUSH1 0xA0 SHL SUB AND PUSH0 SWAP1 DUP2 MSTORE PUSH1 0x8 PUSH1 0x20 MSTORE PUSH1 0x40 SWAP1 KECCAK256 PUSH1 0x24 CALLDATALOAD PUSH1 0x3 DUP2 LT ISZERO PUSH2 0x1E3 JUMPI PUSH2 0x349 SWAP2 PUSH2 0x2B32 JUMP JUMPDEST PUSH1 0x4 CALLDATALOAD SWAP1 PUSH1 0x1 PUSH1 0x1 PUSH1 0xA0 SHL SUB DUP3 AND DUP3 SUB PUSH2 0x1E3 JUMPI JUMP JUMPDEST SWAP1 PUSH1 0x3 DUP2 LT ISZERO PUSH2 0x2B45 JUMPI PUSH1 0x3 MUL ADD SWAP1 PUSH0 SWAP1 JUMP JUMPDEST PUSH4 0x4E487B71 PUSH1 0xE0 SHL PUSH0 MSTORE PUSH1 0x32 PUSH1 0x4 MSTORE PUSH1 0x24 PUSH0 REVERT JUMPDEST SWAP1 PUSH1 0x20 DUP1 DUP4 MLOAD SWAP3 DUP4 DUP2 MSTORE ADD SWAP3 ADD SWAP1 PUSH0 JUMPDEST DUP2 DUP2 LT PUSH2 0x2B76 JUMPI POP POP POP SWAP1 JUMP JUMPDEST DUP3 MLOAD PUSH2 0xFFFF AND DUP5 MSTORE PUSH1 0x20 SWAP4 DUP5 ADD SWAP4 SWAP1 SWAP3 ADD SWAP2 PUSH1 0x1 ADD PUSH2 0x2B69 JUMP JUMPDEST DUP1 MLOAD DUP1 DUP4 MSTORE PUSH1 0x20 SWAP3 SWAP2 DUP2 SWAP1 DUP5 ADD DUP5 DUP5 ADD MCOPY PUSH0 DUP3 DUP3 ADD DUP5 ADD MSTORE PUSH1 0x1F ADD PUSH1 0x1F NOT AND ADD ADD SWAP1 JUMP JUMPDEST SWAP1 PUSH1 0xFF PUSH2 0x120 PUSH2 0x140 SWAP4 DUP1 MLOAD ISZERO ISZERO DUP5 MSTORE PUSH1 0x20 DUP2 ADD MLOAD PUSH1 0x20 DUP6 ADD MSTORE DUP3 PUSH1 0x40 DUP3 ADD MLOAD AND PUSH1 0x40 DUP6 ADD MSTORE DUP3 PUSH1 0x60 DUP3 ADD MLOAD AND PUSH1 0x60 DUP6 ADD MSTORE DUP3 PUSH1 0x80 DUP3 ADD MLOAD AND PUSH1 0x80 DUP6 ADD MSTORE DUP3 PUSH1 0xA0 DUP3 ADD MLOAD AND PUSH1 0xA0 DUP6 ADD MSTORE DUP3 PUSH1 0xC0 DUP3 ADD MLOAD AND PUSH1 0xC0 DUP6 ADD MSTORE DUP3 PUSH1 0xE0 DUP3 ADD MLOAD AND PUSH1 0xE0 DUP6 ADD MSTORE DUP3 PUSH2 0x100 DUP3 ADD MLOAD AND PUSH2 0x100 DUP6 ADD MSTORE ADD MLOAD AND PUSH2 0x120 DUP3 ADD MSTORE ADD SWAP1 JUMP JUMPDEST SWAP2 SWAP1 SWAP2 DUP1 SLOAD DUP4 LT ISZERO PUSH2 0x2B45 JUMPI PUSH0 MSTORE PUSH1 0x1E PUSH1 0x20 PUSH0 KECCAK256 DUP4 PUSH1 0x4 SHR ADD SWAP3 PUSH1 0x1 SHL AND SWAP1 JUMP JUMPDEST DUP1 SLOAD DUP3 LT ISZERO PUSH2 0x2B45 JUMPI PUSH0 MSTORE PUSH1 0x20 PUSH0 KECCAK256 ADD SWAP1 PUSH0 SWAP1 JUMP JUMPDEST SWAP2 DUP2 PUSH1 0x1F DUP5 ADD SLT ISZERO PUSH2 0x1E3 JUMPI DUP3 CALLDATALOAD SWAP2 PUSH1 0x1 PUSH1 0x1 PUSH1 0x40 SHL SUB DUP4 GT PUSH2 0x1E3 JUMPI PUSH1 0x20 DUP1 DUP6 ADD SWAP5 DUP5 PUSH1 0x5 SHL ADD ADD GT PUSH2 0x1E3 JUMPI JUMP JUMPDEST PUSH1 0x20 PUSH1 0x40 DUP2 DUP4 ADD SWAP3 DUP3 DUP2 MSTORE DUP5 MLOAD DUP1 SWAP5 MSTORE ADD SWAP3 ADD SWAP1 PUSH0 JUMPDEST DUP2 DUP2 LT PUSH2 0x2CBA JUMPI POP POP POP SWAP1 JUMP JUMPDEST DUP3 MLOAD DUP5 MSTORE PUSH1 0x20 SWAP4 DUP5 ADD SWAP4 SWAP1 SWAP3 ADD SWAP2 PUSH1 0x1 ADD PUSH2 0x2CAD JUMP JUMPDEST PUSH1 0x3 DUP3 LT ISZERO PUSH2 0x2B45 JUMPI ADD SWAP1 PUSH0 SWAP1 JUMP JUMPDEST SWAP1 PUSH1 0x8 DUP2 LT ISZERO PUSH2 0x2B45 JUMPI PUSH1 0x3 MUL ADD SWAP1 PUSH0 SWAP1 JUMP JUMPDEST ISZERO PUSH2 0x2CF9 JUMPI JUMP JUMPDEST PUSH1 0x40 MLOAD PUSH3 0x461BCD PUSH1 0xE5 SHL DUP2 MSTORE PUSH1 0x20 PUSH1 0x4 DUP3 ADD MSTORE PUSH1 0x14 PUSH1 0x24 DUP3 ADD MSTORE PUSH20 0x125B9CDD59999A58DA595B9D081C185E5B595B9D PUSH1 0x62 SHL PUSH1 0x44 DUP3 ADD MSTORE PUSH1 0x64 SWAP1 REVERT JUMPDEST PUSH1 0x60 DUP2 ADD SWAP1 DUP2 LT PUSH1 0x1 PUSH1 0x1 PUSH1 0x40 SHL SUB DUP3 GT OR PUSH2 0x527 JUMPI PUSH1 0x40 MSTORE JUMP JUMPDEST PUSH2 0x1A0 DUP2 ADD SWAP1 DUP2 LT PUSH1 0x1 PUSH1 0x1 PUSH1 0x40 SHL SUB DUP3 GT OR PUSH2 0x527 JUMPI PUSH1 0x40 MSTORE JUMP JUMPDEST PUSH2 0x140 DUP2 ADD SWAP1 DUP2 LT PUSH1 0x1 PUSH1 0x1 PUSH1 0x40 SHL SUB DUP3 GT OR PUSH2 0x527 JUMPI PUSH1 0x40 MSTORE JUMP JUMPDEST PUSH2 0x180 DUP2 ADD SWAP1 DUP2 LT PUSH1 0x1 PUSH1 0x1 PUSH1 0x40 SHL SUB DUP3 GT OR PUSH2 0x527 JUMPI PUSH1 0x40 MSTORE JUMP JUMPDEST SWAP1 PUSH1 0x1F DUP1 NOT SWAP2 ADD AND DUP2 ADD SWAP1 DUP2 LT PUSH1 0x1 PUSH1 0x1 PUSH1 0x40 SHL SUB DUP3 GT OR PUSH2 0x527 JUMPI PUSH1 0x40 MSTORE JUMP JUMPDEST DUP2 ISZERO PUSH2 0x2DCF JUMPI MOD SWAP1 JUMP JUMPDEST PUSH4 0x4E487B71 PUSH1 0xE0 SHL PUSH0 MSTORE PUSH1 0x12 PUSH1 0x4 MSTORE PUSH1 0x24 PUSH0 REVERT JUMPDEST PUSH1 0x8 ADD SWAP1 DUP2 PUSH1 0x8 GT PUSH2 0xA8C JUMPI JUMP JUMPDEST SWAP2 SWAP1 DUP3 ADD DUP1 SWAP3 GT PUSH2 0xA8C JUMPI JUMP JUMPDEST PUSH1 0x3 GT ISZERO PUSH2 0x8C3 JUMPI JUMP JUMPDEST PUSH1 0x4 GT ISZERO PUSH2 0x8C3 JUMPI JUMP JUMPDEST PUSH1 0x1 PUSH1 0x1 PUSH1 0xA0 SHL SUB SWAP1 SWAP2 AND DUP2 MSTORE PUSH1 0xE0 DUP2 ADD SWAP8 SWAP7 SWAP1 SWAP6 SWAP5 SWAP1 SWAP3 SWAP1 SWAP2 PUSH2 0x2E35 DUP2 PUSH2 0x2DFE JUMP JUMPDEST PUSH1 0x20 DUP8 ADD MSTORE PUSH2 0x2E43 DUP2 PUSH2 0x2DFE JUMP JUMPDEST PUSH1 0x40 DUP7 ADD MSTORE PUSH1 0x4 DUP4 LT ISZERO PUSH2 0x8C3 JUMPI PUSH1 0xC0 SWAP4 PUSH1 0xFF DUP1 SWAP5 SWAP3 DUP2 SWAP4 PUSH1 0x60 DUP10 ADD MSTORE AND PUSH1 0x80 DUP8 ADD MSTORE AND PUSH1 0xA0 DUP6 ADD MSTORE AND SWAP2 ADD MSTORE JUMP JUMPDEST DUP1 SLOAD PUSH1 0x1 PUSH1 0x40 SHL DUP2 LT ISZERO PUSH2 0x527 JUMPI PUSH2 0x2E8F SWAP2 PUSH1 0x1 DUP3 ADD DUP2 SSTORE PUSH2 0x2C52 JUMP JUMPDEST DUP2 SWAP3 SWAP2 SLOAD SWAP1 PUSH1 0x3 SHL SWAP2 DUP3 SHL SWAP2 PUSH0 NOT SWAP1 SHL NOT AND OR SWAP1 SSTORE JUMP JUMPDEST SWAP2 SWAP1 PUSH2 0x2FC8 JUMPI PUSH1 0xFF PUSH2 0x120 PUSH1 0x2 PUSH2 0x2FC6 SWAP5 PUSH2 0x2ED0 DUP6 MLOAD ISZERO ISZERO DUP3 SWAP1 PUSH1 0xFF DUP1 NOT DUP4 SLOAD AND SWAP2 ISZERO ISZERO AND OR SWAP1 SSTORE JUMP JUMPDEST PUSH1 0x20 DUP6 ADD MLOAD PUSH1 0x1 DUP3 ADD SSTORE ADD SWAP3 DUP3 DUP1 PUSH1 0x40 DUP4 ADD MLOAD AND AND DUP4 NOT DUP6 SLOAD AND OR DUP5 SSTORE PUSH2 0x2F0E DUP4 PUSH1 0x60 DUP4 ADD MLOAD AND DUP6 SWAP1 PUSH2 0xFF00 DUP3 SLOAD SWAP2 PUSH1 0x8 SHL AND SWAP1 PUSH2 0xFF00 NOT AND OR SWAP1 SSTORE JUMP JUMPDEST PUSH1 0x80 DUP2 ADD MLOAD DUP5 SLOAD PUSH3 0xFF0000 NOT AND SWAP1 DUP5 AND PUSH1 0x10 SHL PUSH3 0xFF0000 AND OR DUP5 SSTORE PUSH1 0xA0 DUP2 ADD MLOAD DUP5 SLOAD PUSH4 0xFF000000 NOT AND SWAP1 DUP5 AND PUSH1 0x18 SHL PUSH4 0xFF000000 AND OR DUP5 SSTORE PUSH1 0xC0 DUP2 ADD MLOAD DUP5 SLOAD PUSH5 0xFF00000000 NOT AND SWAP1 DUP5 AND PUSH1 0x20 SHL PUSH5 0xFF00000000 AND OR DUP5 SSTORE PUSH1 0xE0 DUP2 ADD MLOAD DUP5 SLOAD PUSH6 0xFF0000000000 NOT AND SWAP1 DUP5 AND PUSH1 0x28 SHL PUSH6 0xFF0000000000 AND OR DUP5 SSTORE PUSH2 0x100 DUP2 ADD MLOAD DUP5 SLOAD PUSH7 0xFF000000000000 NOT AND SWAP1 DUP5 AND PUSH1 0x30 SHL PUSH1 0xFF PUSH1 0x30 SHL AND OR DUP5 SSTORE ADD MLOAD DUP3 SLOAD PUSH8 0xFF00000000000000 NOT AND SWAP2 AND PUSH1 0x38 SHL PUSH1 0xFF PUSH1 0x38 SHL AND OR SWAP1 SSTORE JUMP JUMPDEST JUMP JUMPDEST PUSH4 0x4E487B71 PUSH1 0xE0 SHL PUSH0 MSTORE PUSH0 PUSH1 0x4 MSTORE PUSH1 0x24 PUSH0 REVERT JUMPDEST PUSH1 0x1 PUSH1 0x1 PUSH1 0x40 SHL SUB DUP2 GT PUSH2 0x527 JUMPI PUSH1 0x5 SHL PUSH1 0x20 ADD SWAP1 JUMP JUMPDEST SWAP1 PUSH1 0x40 MLOAD SWAP2 DUP3 DUP2 SLOAD SWAP2 DUP3 DUP3 MSTORE PUSH1 0x20 DUP3 ADD SWAP1 PUSH0 MSTORE PUSH1 0x20 PUSH0 KECCAK256 SWAP3 PUSH0 SWAP1 JUMPDEST DUP1 PUSH1 0xF DUP4 ADD LT PUSH2 0x3215 JUMPI PUSH2 0x2FC6 SWAP5 SLOAD SWAP2 DUP2 DUP2 LT PUSH2 0x3200 JUMPI JUMPDEST DUP2 DUP2 LT PUSH2 0x31E8 JUMPI JUMPDEST DUP2 DUP2 LT PUSH2 0x31D1 JUMPI JUMPDEST DUP2 DUP2 LT PUSH2 0x31B9 JUMPI JUMPDEST DUP2 DUP2 LT PUSH2 0x31A1 JUMPI JUMPDEST DUP2 DUP2 LT PUSH2 0x3189 JUMPI JUMPDEST DUP2 DUP2 LT PUSH2 0x3171 JUMPI JUMPDEST DUP2 DUP2 LT PUSH2 0x3159 JUMPI JUMPDEST DUP2 DUP2 LT PUSH2 0x3141 JUMPI JUMPDEST DUP2 DUP2 LT PUSH2 0x3129 JUMPI JUMPDEST DUP2 DUP2 LT PUSH2 0x3111 JUMPI JUMPDEST DUP2 DUP2 LT PUSH2 0x30F9 JUMPI JUMPDEST DUP2 DUP2 LT PUSH2 0x30E1 JUMPI JUMPDEST DUP2 DUP2 LT PUSH2 0x30C9 JUMPI JUMPDEST DUP2 DUP2 LT PUSH2 0x30B1 JUMPI JUMPDEST LT PUSH2 0x30A3 JUMPI JUMPDEST POP SUB DUP4 PUSH2 0x2DA4 JUMP JUMPDEST PUSH1 0xF0 SHR DUP2 MSTORE PUSH1 0x20 ADD PUSH0 PUSH2 0x309B JUMP JUMPDEST SWAP3 PUSH1 0x20 PUSH1 0x1 SWAP2 PUSH2 0xFFFF DUP6 PUSH1 0xE0 SHR AND DUP2 MSTORE ADD SWAP4 ADD PUSH2 0x3095 JUMP JUMPDEST SWAP3 PUSH1 0x20 PUSH1 0x1 SWAP2 PUSH2 0xFFFF DUP6 PUSH1 0xD0 SHR AND DUP2 MSTORE ADD SWAP4 ADD PUSH2 0x308D JUMP JUMPDEST SWAP3 PUSH1 0x20 PUSH1 0x1 SWAP2 PUSH2 0xFFFF DUP6 PUSH1 0xC0 SHR AND DUP2 MSTORE ADD SWAP4 ADD PUSH2 0x3085 JUMP JUMPDEST SWAP3 PUSH1 0x20 PUSH1 0x1 SWAP2 PUSH2 0xFFFF DUP6 PUSH1 0xB0 SHR AND DUP2 MSTORE ADD SWAP4 ADD PUSH2 0x307D JUMP JUMPDEST SWAP3 PUSH1 0x20 PUSH1 0x1 SWAP2 PUSH2 0xFFFF DUP6 PUSH1 0xA0 SHR AND DUP2 MSTORE ADD SWAP4 ADD PUSH2 0x3075 JUMP JUMPDEST SWAP3 PUSH1 0x20 PUSH1 0x1 SWAP2 PUSH2 0xFFFF DUP6 PUSH1 0x90 SHR AND DUP2 MSTORE ADD SWAP4 ADD PUSH2 0x306D JUMP JUMPDEST SWAP3 PUSH1 0x20 PUSH1 0x1 SWAP2 PUSH2 0xFFFF DUP6 PUSH1 0x80 SHR AND DUP2 MSTORE ADD SWAP4 ADD PUSH2 0x3065 JUMP JUMPDEST SWAP3 PUSH1 0x20 PUSH1 0x1 SWAP2 PUSH2 0xFFFF DUP6 PUSH1 0x70 SHR AND DUP2 MSTORE ADD SWAP4 ADD PUSH2 0x305D JUMP JUMPDEST SWAP3 PUSH1 0x20 PUSH1 0x1 SWAP2 PUSH2 0xFFFF DUP6 PUSH1 0x60 SHR AND DUP2 MSTORE ADD SWAP4 ADD PUSH2 0x3055 JUMP JUMPDEST SWAP3 PUSH1 0x20 PUSH1 0x1 SWAP2 PUSH2 0xFFFF DUP6 PUSH1 0x50 SHR AND DUP2 MSTORE ADD SWAP4 ADD PUSH2 0x304D JUMP JUMPDEST SWAP3 PUSH1 0x20 PUSH1 0x1 SWAP2 PUSH2 0xFFFF DUP6 PUSH1 0x40 SHR AND DUP2 MSTORE ADD SWAP4 ADD PUSH2 0x3045 JUMP JUMPDEST SWAP3 PUSH1 0x20 PUSH1 0x1 SWAP2 PUSH2 0xFFFF DUP6 PUSH1 0x30 SHR AND DUP2 MSTORE ADD SWAP4 ADD PUSH2 0x303D JUMP JUMPDEST SWAP3 PUSH1 0x20 PUSH1 0x1 SWAP2 PUSH2 0xFFFF DUP6 DUP4 SHR AND DUP2 MSTORE ADD SWAP4 ADD PUSH2 0x3035 JUMP JUMPDEST SWAP3 PUSH1 0x20 PUSH1 0x1 SWAP2 PUSH2 0xFFFF DUP6 PUSH1 0x10 SHR AND DUP2 MSTORE ADD SWAP4 ADD PUSH2 0x302D JUMP JUMPDEST SWAP3 PUSH1 0x20 PUSH1 0x1 SWAP2 PUSH2 0xFFFF DUP6 AND DUP2 MSTORE ADD SWAP4 ADD PUSH2 0x3025 JUMP JUMPDEST SWAP2 PUSH1 0x10 SWAP2 SWAP4 POP PUSH2 0x200 PUSH1 0x1 SWAP2 DUP7 SLOAD PUSH2 0xFFFF DUP2 AND DUP3 MSTORE PUSH2 0xFFFF DUP2 DUP7 SHR AND PUSH1 0x20 DUP4 ADD MSTORE PUSH2 0xFFFF DUP2 PUSH1 0x20 SHR AND PUSH1 0x40 DUP4 ADD MSTORE PUSH2 0xFFFF DUP2 PUSH1 0x30 SHR AND PUSH1 0x60 DUP4 ADD MSTORE PUSH2 0xFFFF DUP2 PUSH1 0x40 SHR AND PUSH1 0x80 DUP4 ADD MSTORE PUSH2 0xFFFF DUP2 PUSH1 0x50 SHR AND PUSH1 0xA0 DUP4 ADD MSTORE PUSH2 0xFFFF DUP2 PUSH1 0x60 SHR AND PUSH1 0xC0 DUP4 ADD MSTORE PUSH2 0xFFFF DUP2 PUSH1 0x70 SHR AND PUSH1 0xE0 DUP4 ADD MSTORE PUSH2 0xFFFF DUP2 PUSH1 0x80 SHR AND PUSH2 0x100 DUP4 ADD MSTORE PUSH2 0xFFFF DUP2 PUSH1 0x90 SHR AND PUSH2 0x120 DUP4 ADD MSTORE PUSH2 0xFFFF DUP2 PUSH1 0xA0 SHR AND PUSH2 0x140 DUP4 ADD MSTORE PUSH2 0xFFFF DUP2 PUSH1 0xB0 SHR AND PUSH2 0x160 DUP4 ADD MSTORE PUSH2 0xFFFF DUP2 PUSH1 0xC0 SHR AND PUSH2 0x180 DUP4 ADD MSTORE PUSH2 0xFFFF DUP2 PUSH1 0xD0 SHR AND PUSH2 0x1A0 DUP4 ADD MSTORE PUSH2 0xFFFF DUP2 PUSH1 0xE0 SHR AND PUSH2 0x1C0 DUP4 ADD MSTORE PUSH1 0xF0 SHR PUSH2 0x1E0 DUP3 ADD MSTORE ADD SWAP5 ADD SWAP3 ADD DUP6 SWAP3 SWAP4 SWAP2 PUSH2 0x300D JUMP JUMPDEST PUSH1 0x40 MLOAD SWAP1 PUSH2 0x330A DUP3 PUSH2 0x2D6C JUMP JUMPDEST PUSH0 PUSH2 0x120 DUP4 DUP3 DUP2 MSTORE DUP3 PUSH1 0x20 DUP3 ADD MSTORE DUP3 PUSH1 0x40 DUP3 ADD MSTORE DUP3 PUSH1 0x60 DUP3 ADD MSTORE DUP3 PUSH1 0x80 DUP3 ADD MSTORE DUP3 PUSH1 0xA0 DUP3 ADD MSTORE DUP3 PUSH1 0xC0 DUP3 ADD MSTORE DUP3 PUSH1 0xE0 DUP3 ADD MSTORE DUP3 PUSH2 0x100 DUP3 ADD MSTORE ADD MSTORE JUMP JUMPDEST SWAP1 PUSH1 0x40 MLOAD PUSH2 0x3354 DUP2 PUSH2 0x2D6C JUMP JUMPDEST PUSH2 0x120 PUSH1 0xFF PUSH1 0x2 DUP4 SWAP6 DUP3 DUP2 SLOAD AND ISZERO ISZERO DUP6 MSTORE PUSH1 0x1 DUP2 ADD SLOAD PUSH1 0x20 DUP7 ADD MSTORE ADD SLOAD DUP2 DUP2 AND PUSH1 0x40 DUP6 ADD MSTORE DUP2 DUP2 PUSH1 0x8 SHR AND PUSH1 0x60 DUP6 ADD MSTORE DUP2 DUP2 PUSH1 0x10 SHR AND PUSH1 0x80 DUP6 ADD MSTORE DUP2 DUP2 PUSH1 0x18 SHR AND PUSH1 0xA0 DUP6 ADD MSTORE DUP2 DUP2 PUSH1 0x20 SHR AND PUSH1 0xC0 DUP6 ADD MSTORE DUP2 DUP2 PUSH1 0x28 SHR AND PUSH1 0xE0 DUP6 ADD MSTORE DUP2 DUP2 PUSH1 0x30 SHR AND PUSH2 0x100 DUP6 ADD MSTORE PUSH1 0x38 SHR AND SWAP2 ADD MSTORE JUMP JUMPDEST SWAP2 SWAP1 DUP2 LT ISZERO PUSH2 0x2B45 JUMPI PUSH1 0x5 SHL ADD SWAP1 JUMP JUMPDEST SWAP3 SWAP2 SWAP1 PUSH2 0x33E1 DUP2 PUSH2 0x2FDB JUMP JUMPDEST SWAP4 PUSH2 0x33EF PUSH1 0x40 MLOAD SWAP6 DUP7 PUSH2 0x2DA4 JUMP JUMPDEST PUSH1 0x20 DUP6 DUP4 DUP2 MSTORE ADD SWAP2 PUSH1 0x5 SHL DUP2 ADD SWAP3 DUP4 GT PUSH2 0x1E3 JUMPI SWAP1 JUMPDEST DUP3 DUP3 LT PUSH2 0x3411 JUMPI POP POP POP JUMP JUMPDEST DUP2 CALLDATALOAD DUP2 MSTORE PUSH1 0x20 SWAP2 DUP3 ADD SWAP2 ADD PUSH2 0x3405 JUMP JUMPDEST ISZERO PUSH2 0x3428 JUMPI JUMP JUMPDEST PUSH1 0x40 MLOAD PUSH3 0x461BCD PUSH1 0xE5 SHL DUP2 MSTORE PUSH1 0x20 PUSH1 0x4 DUP3 ADD MSTORE PUSH1 0x19 PUSH1 0x24 DUP3 ADD MSTORE PUSH32 0x596F7520646F206E6F74206F776E20746869732072656C696300000000000000 PUSH1 0x44 DUP3 ADD MSTORE PUSH1 0x64 SWAP1 REVERT JUMPDEST DUP1 MLOAD DUP3 LT ISZERO PUSH2 0x2B45 JUMPI PUSH1 0x20 SWAP2 PUSH1 0x5 SHL ADD ADD SWAP1 JUMP JUMPDEST MLOAD SWAP1 PUSH1 0xFF DUP3 AND DUP3 SUB PUSH2 0x1E3 JUMPI JUMP JUMPDEST PUSH1 0x20 DUP2 DUP4 SUB SLT PUSH2 0x1E3 JUMPI DUP1 MLOAD SWAP1 PUSH1 0x1 PUSH1 0x1 PUSH1 0x40 SHL SUB DUP3 GT PUSH2 0x1E3 JUMPI ADD SWAP1 PUSH1 0x60 DUP3 DUP3 SUB SLT PUSH2 0x1E3 JUMPI PUSH1 0x40 MLOAD SWAP2 PUSH2 0x34C3 DUP4 PUSH2 0x2D35 JUMP JUMPDEST DUP1 MLOAD PUSH1 0x6 DUP2 LT ISZERO PUSH2 0x1E3 JUMPI DUP4 MSTORE PUSH2 0x34DC PUSH1 0x20 DUP3 ADD PUSH2 0x3481 JUMP JUMPDEST PUSH1 0x20 DUP5 ADD MSTORE PUSH1 0x40 DUP2 ADD MLOAD SWAP1 PUSH1 0x1 PUSH1 0x1 PUSH1 0x40 SHL SUB DUP3 GT PUSH2 0x1E3 JUMPI ADD DUP2 PUSH1 0x1F DUP3 ADD SLT ISZERO PUSH2 0x1E3 JUMPI DUP1 MLOAD SWAP1 PUSH1 0x1 PUSH1 0x1 PUSH1 0x40 SHL SUB DUP3 GT PUSH2 0x527 JUMPI PUSH1 0x40 MLOAD SWAP3 PUSH2 0x352A PUSH1 0x1F DUP5 ADD PUSH1 0x1F NOT AND PUSH1 0x20 ADD DUP6 PUSH2 0x2DA4 JUMP JUMPDEST DUP3 DUP5 MSTORE PUSH1 0x20 DUP4 DUP4 ADD ADD GT PUSH2 0x1E3 JUMPI DUP2 PUSH0 SWAP3 PUSH1 0x20 DUP1 SWAP4 ADD DUP4 DUP7 ADD MCOPY DUP4 ADD ADD MSTORE PUSH1 0x40 DUP3 ADD MSTORE SWAP1 JUMP JUMPDEST PUSH1 0x4 DUP3 LT ISZERO PUSH2 0x8C3 JUMPI MSTORE JUMP JUMPDEST MLOAD PUSH1 0x4 DUP2 LT ISZERO PUSH2 0x8C3 JUMPI SWAP1 JUMP JUMPDEST DUP2 DUP2 LT PUSH2 0x3574 JUMPI POP POP JUMP JUMPDEST PUSH0 DUP2 SSTORE PUSH1 0x1 ADD PUSH2 0x3569 JUMP JUMPDEST DUP1 SLOAD PUSH0 DUP3 SSTORE DUP1 PUSH2 0x358D JUMPI POP POP JUMP JUMPDEST PUSH2 0x2FC6 SWAP2 PUSH0 MSTORE PUSH1 0xF PUSH1 0x20 PUSH0 KECCAK256 SWAP2 ADD PUSH1 0x4 SHR DUP2 ADD SWAP1 PUSH2 0x3569 JUMP JUMPDEST DUP1 SLOAD PUSH1 0x1 PUSH1 0x40 SHL DUP2 LT ISZERO PUSH2 0x527 JUMPI PUSH2 0x35C3 SWAP2 PUSH1 0x1 DUP3 ADD DUP2 SSTORE PUSH2 0x2C31 JUMP JUMPDEST PUSH2 0xFFFF DUP1 DUP4 SWAP5 SWAP4 SLOAD SWAP3 PUSH1 0x3 SHL SWAP4 AND DUP4 SHL SWAP3 SHL NOT AND OR SWAP1 SSTORE JUMP JUMPDEST PUSH1 0x3 DUP2 LT ISZERO PUSH2 0x2B45 JUMPI PUSH1 0x5 SHL PUSH1 0x4 ADD SWAP1 JUMP JUMPDEST SWAP1 PUSH1 0x3 DUP2 LT ISZERO PUSH2 0x2B45 JUMPI PUSH1 0x5 SHL ADD SWAP1 JUMP JUMPDEST DUP1 SLOAD PUSH0 DUP3 SSTORE DUP1 PUSH2 0x360D JUMPI POP POP JUMP JUMPDEST PUSH2 0x2FC6 SWAP2 PUSH0 MSTORE PUSH1 0x20 PUSH0 KECCAK256 SWAP1 DUP2 ADD SWAP1 PUSH2 0x3569 JUMP JUMPDEST PUSH1 0xFF PUSH1 0x2 SLOAD AND PUSH2 0x362C JUMPI JUMP JUMPDEST PUSH1 0x40 MLOAD PUSH3 0x461BCD PUSH1 0xE5 SHL DUP2 MSTORE PUSH1 0x20 PUSH1 0x4 DUP3 ADD MSTORE PUSH1 0x10 PUSH1 0x24 DUP3 ADD MSTORE PUSH16 0x14185D5CD8589B194E881C185D5CD959 PUSH1 0x82 SHL PUSH1 0x44 DUP3 ADD MSTORE PUSH1 0x64 SWAP1 REVERT JUMPDEST PUSH1 0x2 PUSH1 0x1 SLOAD EQ PUSH2 0x3675 JUMPI PUSH1 0x2 PUSH1 0x1 SSTORE JUMP JUMPDEST PUSH1 0x40 MLOAD PUSH3 0x461BCD PUSH1 0xE5 SHL DUP2 MSTORE PUSH1 0x20 PUSH1 0x4 DUP3 ADD MSTORE PUSH1 0x1F PUSH1 0x24 DUP3 ADD MSTORE PUSH32 0x5265656E7472616E637947756172643A207265656E7472616E742063616C6C00 PUSH1 0x44 DUP3 ADD MSTORE PUSH1 0x64 SWAP1 REVERT JUMPDEST CALLER PUSH0 MSTORE PUSH1 0x3 PUSH1 0x20 MSTORE PUSH1 0xFF PUSH1 0x40 PUSH0 KECCAK256 SLOAD AND ISZERO PUSH2 0x36D1 JUMPI JUMP JUMPDEST CALLER PUSH0 MSTORE PUSH1 0x3 PUSH1 0x20 MSTORE PUSH1 0x40 PUSH0 KECCAK256 PUSH1 0x1 PUSH1 0xFF NOT DUP3 SLOAD AND OR SWAP1 SSTORE PUSH1 0x40 MLOAD PUSH1 0xA0 DUP2 ADD DUP2 DUP2 LT PUSH1 0x1 PUSH1 0x1 PUSH1 0x40 SHL SUB DUP3 GT OR PUSH2 0x527 JUMPI PUSH1 0x40 MSTORE PUSH1 0x1 DUP2 MSTORE PUSH2 0xFFFF PUSH1 0x3 DUP2 PUSH1 0x20 DUP5 ADD PUSH0 DUP2 MSTORE PUSH1 0x40 DUP6 ADD PUSH0 DUP2 MSTORE PUSH1 0x60 DUP7 ADD SWAP1 PUSH0 DUP3 MSTORE PUSH2 0x3770 PUSH4 0xFFFFFFFF PUSH1 0x80 DUP10 ADD SWAP5 PUSH1 0x1 DUP7 MSTORE CALLER PUSH0 MSTORE PUSH1 0x4 PUSH1 0x20 MSTORE DUP7 DUP1 PUSH1 0x40 PUSH0 KECCAK256 SWAP12 MLOAD AND AND DUP8 NOT DUP12 SLOAD AND OR DUP11 SSTORE MLOAD AND DUP9 SWAP1 PUSH6 0xFFFFFFFF0000 DUP3 SLOAD SWAP2 PUSH1 0x10 SHL AND SWAP1 PUSH6 0xFFFFFFFF0000 NOT AND OR SWAP1 SSTORE JUMP JUMPDEST MLOAD PUSH1 0x1 DUP8 ADD SSTORE MLOAD PUSH1 0x2 DUP7 ADD SSTORE MLOAD AND SWAP3 ADD SWAP2 AND PUSH2 0xFFFF NOT DUP3 SLOAD AND OR SWAP1 SSTORE CALLER PUSH32 0xF10EC97E920CDE75887622583772C637595A40B1F7777C18E51EA36CD127475C PUSH0 DUP1 LOG2 JUMP JUMPDEST PUSH1 0x64 SWAP1 MOD PUSH1 0x3C DUP2 LT PUSH2 0x37D0 JUMPI PUSH1 0x5A GT PUSH2 0x37CB JUMPI PUSH1 0x2 SWAP1 JUMP JUMPDEST PUSH1 0x1 SWAP1 JUMP JUMPDEST POP PUSH0 SWAP1 JUMP JUMPDEST PUSH2 0x37DD PUSH2 0x32FD JUMP JUMPDEST POP PUSH1 0x40 MLOAD PUSH1 0x20 DUP2 ADD SWAP1 TIMESTAMP DUP3 MSTORE PREVRANDAO PUSH1 0x40 DUP3 ADD MSTORE CALLER PUSH1 0x60 SHL PUSH1 0x60 DUP3 ADD MSTORE PUSH1 0x54 DUP2 MSTORE PUSH2 0x3807 PUSH1 0x74 DUP3 PUSH2 0x2DA4 JUMP JUMPDEST MLOAD SWAP1 KECCAK256 PUSH1 0x28 PUSH1 0x64 DUP3 MOD LT ISZERO PUSH2 0x387B JUMPI PUSH1 0xD DUP2 PUSH1 0x8 SHR MOD PUSH1 0x8 ADD DUP1 PUSH1 0x8 GT PUSH2 0xA8C JUMPI PUSH1 0xFF SWAP1 DUP2 PUSH1 0x6 PUSH1 0x40 MLOAD SWAP5 PUSH2 0x383B DUP7 PUSH2 0x2D6C JUMP JUMPDEST PUSH1 0x1 DUP7 MSTORE PUSH0 PUSH1 0x20 DUP8 ADD MSTORE PUSH0 PUSH1 0x40 DUP8 ADD MSTORE PUSH0 PUSH1 0x60 DUP8 ADD MSTORE PUSH0 PUSH1 0x80 DUP8 ADD MSTORE PUSH0 PUSH1 0xA0 DUP8 ADD MSTORE PUSH0 PUSH1 0xC0 DUP8 ADD MSTORE PUSH0 PUSH1 0xE0 DUP8 ADD MSTORE MOD AND PUSH2 0x100 DUP5 ADD MSTORE AND PUSH2 0x120 DUP3 ADD MSTORE SWAP1 JUMP JUMPDEST PUSH2 0x3884 DUP2 PUSH2 0x37B3 JUMP JUMPDEST SWAP1 PUSH1 0xB DUP2 PUSH1 0x28 SHR MOD PUSH1 0xA ADD DUP1 PUSH1 0xA GT PUSH2 0xA8C JUMPI PUSH1 0xB DUP3 PUSH1 0x30 SHR MOD PUSH1 0x8 ADD SWAP1 DUP2 PUSH1 0x8 GT PUSH2 0xA8C JUMPI PUSH1 0xB DUP4 PUSH1 0x38 SHR MOD PUSH1 0x9 ADD SWAP2 DUP3 PUSH1 0x9 GT PUSH2 0xA8C JUMPI PUSH1 0xFF DUP1 SWAP5 SWAP3 PUSH1 0x3 DUP3 SWAP5 DUP4 PUSH1 0x40 MLOAD SWAP10 PUSH2 0x38D4 DUP12 PUSH2 0x2D6C JUMP JUMPDEST PUSH0 DUP12 MSTORE PUSH0 PUSH1 0x20 DUP13 ADD MSTORE DUP2 DUP5 DUP5 PUSH1 0x10 SHR MOD AND PUSH1 0x40 DUP13 ADD MSTORE AND PUSH1 0x60 DUP11 ADD MSTORE PUSH1 0x18 SHR AND PUSH1 0x80 DUP9 ADD MSTORE AND PUSH1 0xA0 DUP7 ADD MSTORE AND PUSH1 0xC0 DUP5 ADD MSTORE AND PUSH1 0xE0 DUP3 ADD MSTORE PUSH0 PUSH2 0x100 DUP3 ADD MSTORE PUSH0 PUSH2 0x120 DUP3 ADD MSTORE SWAP1 JUMP JUMPDEST PUSH0 SLOAD PUSH1 0x1 PUSH1 0x1 PUSH1 0xA0 SHL SUB AND CALLER SUB PUSH2 0x392F JUMPI JUMP JUMPDEST PUSH1 0x64 PUSH1 0x40 MLOAD PUSH3 0x461BCD PUSH1 0xE5 SHL DUP2 MSTORE PUSH1 0x20 PUSH1 0x4 DUP3 ADD MSTORE PUSH1 0x20 PUSH1 0x24 DUP3 ADD MSTORE PUSH32 0x4F776E61626C653A2063616C6C6572206973206E6F7420746865206F776E6572 PUSH1 0x44 DUP3 ADD MSTORE REVERT JUMPDEST PUSH1 0x40 MLOAD SWAP1 PUSH1 0x80 DUP3 ADD DUP3 DUP2 LT PUSH1 0x1 PUSH1 0x1 PUSH1 0x40 SHL SUB DUP3 GT OR PUSH2 0x527 JUMPI PUSH1 0x40 MSTORE PUSH1 0x60 DUP1 DUP4 PUSH0 DUP2 MSTORE DUP2 PUSH1 0x20 DUP3 ADD MSTORE DUP2 PUSH1 0x40 DUP3 ADD MSTORE ADD MSTORE JUMP JUMPDEST SWAP1 PUSH2 0x39B1 DUP3 PUSH2 0x2FDB JUMP JUMPDEST PUSH2 0x39BE PUSH1 0x40 MLOAD SWAP2 DUP3 PUSH2 0x2DA4 JUMP JUMPDEST DUP3 DUP2 MSTORE DUP1 SWAP3 PUSH2 0x39CF PUSH1 0x1F NOT SWAP2 PUSH2 0x2FDB JUMP JUMPDEST ADD SWAP1 PUSH1 0x20 CALLDATASIZE SWAP2 ADD CALLDATACOPY JUMP JUMPDEST PUSH1 0x2 SHL SWAP1 PUSH2 0x3FC PUSH1 0xFC DUP4 AND SWAP3 AND DUP3 SUB PUSH2 0xA8C JUMPI JUMP JUMPDEST PUSH1 0xFF PUSH1 0x2 SWAP2 AND ADD SWAP1 PUSH1 0xFF DUP3 GT PUSH2 0xA8C JUMPI JUMP JUMPDEST SWAP1 PUSH1 0xFF DUP1 SWAP2 AND SWAP2 AND ADD SWAP1 PUSH1 0xFF DUP3 GT PUSH2 0xA8C JUMPI JUMP JUMPDEST PUSH0 NOT DUP2 EQ PUSH2 0xA8C JUMPI PUSH1 0x1 ADD SWAP1 JUMP JUMPDEST PUSH1 0xFF AND PUSH1 0xFF DUP2 EQ PUSH2 0xA8C JUMPI PUSH1 0x1 ADD SWAP1 JUMP JUMPDEST SWAP1 PUSH2 0x3A3D DUP3 PUSH2 0x2FDB JUMP JUMPDEST PUSH2 0x3A4A PUSH1 0x40 MLOAD SWAP2 DUP3 PUSH2 0x2DA4 JUMP JUMPDEST DUP3 DUP2 MSTORE DUP1 SWAP3 PUSH2 0x3A5B PUSH1 0x1F NOT SWAP2 PUSH2 0x2FDB JUMP JUMPDEST ADD SWAP1 PUSH0 JUMPDEST DUP3 DUP2 LT PUSH2 0x3A6B JUMPI POP POP POP JUMP JUMPDEST PUSH1 0x20 SWAP1 PUSH1 0x40 MLOAD PUSH2 0x3A7A DUP2 PUSH2 0x2D88 JUMP JUMPDEST PUSH0 DUP2 MSTORE PUSH0 DUP4 DUP3 ADD MSTORE PUSH0 PUSH1 0x40 DUP3 ADD MSTORE PUSH0 PUSH1 0x60 DUP3 ADD MSTORE PUSH0 PUSH1 0x80 DUP3 ADD MSTORE PUSH0 PUSH1 0xA0 DUP3 ADD MSTORE PUSH0 PUSH1 0xC0 DUP3 ADD MSTORE PUSH0 PUSH1 0xE0 DUP3 ADD MSTORE PUSH0 PUSH2 0x100 DUP3 ADD MSTORE PUSH0 PUSH2 0x120 DUP3 ADD MSTORE PUSH0 PUSH2 0x140 DUP3 ADD MSTORE PUSH0 PUSH2 0x160 DUP3 ADD MSTORE DUP3 DUP3 DUP6 ADD ADD MSTORE ADD PUSH2 0x3A5F JUMP JUMPDEST PUSH1 0x40 MLOAD SWAP2 SWAP1 PUSH1 0x60 PUSH2 0x3ADF DUP2 DUP6 PUSH2 0x2DA4 JUMP JUMPDEST PUSH1 0x60 CALLDATASIZE DUP6 CALLDATACOPY PUSH0 JUMPDEST DUP3 MLOAD DUP2 LT ISZERO PUSH2 0x3B5E JUMPI DUP1 PUSH2 0xFFFF DUP4 PUSH2 0x3B00 PUSH1 0x1 SWAP5 DUP8 PUSH2 0x346D JUMP JUMPDEST MLOAD ADD MLOAD AND PUSH2 0x3B0F JUMPI JUMPDEST ADD PUSH2 0x3AE6 JUMP JUMPDEST PUSH1 0xFF PUSH2 0x120 PUSH2 0x3B1E DUP4 DUP8 PUSH2 0x346D JUMP JUMPDEST MLOAD ADD MLOAD PUSH2 0x3B2A DUP2 PUSH2 0x2DFE JUMP JUMPDEST PUSH2 0x3B33 DUP2 PUSH2 0x2DFE JUMP JUMPDEST AND PUSH1 0xFF PUSH2 0x3B55 PUSH2 0x3B4E DUP3 PUSH2 0x3B47 DUP6 DUP13 PUSH2 0x35EE JUMP JUMPDEST MLOAD AND PUSH2 0x3A22 JUMP JUMPDEST SWAP3 DUP10 PUSH2 0x35EE JUMP JUMPDEST SWAP2 AND SWAP1 MSTORE PUSH2 0x3B09 JUMP JUMPDEST POP POP PUSH0 JUMPDEST DUP2 MLOAD DUP2 LT ISZERO PUSH2 0x3BCF JUMPI DUP1 PUSH1 0x3 PUSH1 0xFF PUSH2 0x3B9F DUP2 PUSH2 0x120 PUSH2 0x3B83 PUSH1 0x1 SWAP8 DUP10 PUSH2 0x346D JUMP JUMPDEST MLOAD ADD MLOAD PUSH2 0x3B8F DUP2 PUSH2 0x2DFE JUMP JUMPDEST PUSH2 0x3B98 DUP2 PUSH2 0x2DFE JUMP JUMPDEST AND DUP9 PUSH2 0x35EE JUMP JUMPDEST MLOAD AND LT ISZERO PUSH2 0x3BAE JUMPI JUMPDEST ADD PUSH2 0x3B62 JUMP JUMPDEST PUSH2 0x3BB8 DUP2 DUP5 PUSH2 0x346D JUMP JUMPDEST MLOAD PUSH1 0xFF PUSH2 0x3BC7 DUP2 DUP4 MLOAD AND PUSH2 0x39EE JUMP JUMPDEST AND SWAP1 MSTORE PUSH2 0x3BA8 JUMP JUMPDEST POP POP SWAP1 POP JUMP JUMPDEST PUSH0 JUMPDEST DUP2 MLOAD DUP2 LT ISZERO PUSH2 0x3C06 JUMPI PUSH2 0xFFFF PUSH1 0x60 PUSH2 0x3BEF DUP4 DUP6 PUSH2 0x346D JUMP JUMPDEST MLOAD ADD MLOAD AND PUSH2 0x3BFF JUMPI PUSH1 0x1 ADD PUSH2 0x3BD7 JUMP JUMPDEST POP POP PUSH1 0x1 SWAP1 JUMP JUMPDEST POP POP PUSH0 SWAP1 JUMP JUMPDEST SWAP1 PUSH2 0xFFFF DUP1 SWAP2 AND SWAP2 AND ADD SWAP1 PUSH2 0xFFFF DUP3 GT PUSH2 0xA8C JUMPI JUMP JUMPDEST PUSH0 JUMPDEST DUP2 MLOAD DUP2 LT ISZERO PUSH2 0x3C87 JUMPI DUP1 PUSH2 0xFFFF PUSH1 0x60 PUSH2 0x3C3F PUSH1 0x1 SWAP5 DUP7 PUSH2 0x346D JUMP JUMPDEST MLOAD ADD MLOAD AND PUSH2 0x3C4E JUMPI JUMPDEST ADD PUSH2 0x3C24 JUMP JUMPDEST PUSH1 0xFF PUSH1 0x40 PUSH2 0x3C5C DUP4 DUP7 PUSH2 0x346D JUMP JUMPDEST MLOAD ADD MLOAD AND PUSH2 0xFFFF PUSH2 0x3C7F PUSH2 0x100 PUSH2 0x3C73 DUP6 DUP9 PUSH2 0x346D JUMP JUMPDEST MLOAD ADD SWAP3 DUP3 DUP5 MLOAD AND PUSH2 0x3C0C JUMP JUMPDEST AND SWAP1 MSTORE PUSH2 0x3C48 JUMP JUMPDEST POP POP JUMP JUMPDEST SWAP1 PUSH0 SWAP1 PUSH0 PUSH0 SWAP5 PUSH0 SWAP2 PUSH0 JUMPDEST DUP7 MLOAD DUP2 LT ISZERO PUSH2 0x3D1A JUMPI PUSH2 0x3CC1 PUSH2 0x3CBA PUSH1 0x60 PUSH2 0x3CB0 DUP5 DUP12 PUSH2 0x346D JUMP JUMPDEST MLOAD ADD MLOAD PUSH2 0xFFFF AND SWAP1 JUMP JUMPDEST PUSH2 0xFFFF AND SWAP1 JUMP JUMPDEST ISZERO ISZERO DUP1 PUSH2 0x3CFB JUMPI JUMPDEST PUSH2 0x3CD6 JUMPI JUMPDEST PUSH1 0x1 ADD PUSH2 0x3C95 JUMP JUMPDEST SWAP7 POP POP SWAP3 POP PUSH2 0x3CEB PUSH2 0x100 PUSH2 0x3CB0 DUP8 DUP8 PUSH2 0x346D JUMP JUMPDEST SWAP3 PUSH1 0x1 DUP1 PUSH1 0xFF DUP9 AND SWAP8 SWAP1 POP PUSH2 0x3CCE JUMP JUMPDEST POP PUSH2 0x3D0C PUSH2 0x100 PUSH2 0x3CB0 DUP4 DUP11 PUSH2 0x346D JUMP JUMPDEST PUSH2 0xFFFF DUP1 DUP9 AND SWAP2 AND GT PUSH2 0x3CC9 JUMP JUMPDEST POP SWAP2 SWAP5 SWAP1 SWAP3 SWAP6 PUSH0 JUMPDEST DUP8 MLOAD DUP2 LT ISZERO PUSH2 0x3D98 JUMPI PUSH2 0x3D3D PUSH2 0x3CBA PUSH1 0x60 PUSH2 0x3CB0 DUP5 DUP13 PUSH2 0x346D JUMP JUMPDEST ISZERO ISZERO DUP1 PUSH2 0x3D79 JUMPI JUMPDEST PUSH2 0x3D52 JUMPI JUMPDEST PUSH1 0x1 ADD PUSH2 0x3D22 JUMP JUMPDEST SWAP6 POP SWAP2 POP SWAP3 POP PUSH2 0x3D68 PUSH2 0x100 PUSH2 0x3CB0 DUP7 DUP9 PUSH2 0x346D JUMP JUMPDEST SWAP3 PUSH0 SWAP2 PUSH1 0x1 PUSH1 0xFF DUP8 AND SWAP7 SWAP1 POP PUSH2 0x3D4A JUMP JUMPDEST POP PUSH2 0x3D8A PUSH2 0x100 PUSH2 0x3CB0 DUP4 DUP12 PUSH2 0x346D JUMP JUMPDEST PUSH2 0xFFFF DUP1 DUP9 AND SWAP2 AND GT PUSH2 0x3D45 JUMP JUMPDEST POP SWAP2 SWAP4 PUSH2 0xFFFF SWAP1 SWAP6 SWAP2 SWAP4 SWAP6 AND ISZERO PUSH2 0x3DEE JUMPI SWAP2 PUSH2 0x100 SWAP2 PUSH0 SWAP4 DUP6 DUP6 EQ PUSH2 0x3DE6 JUMPI POP SWAP6 JUMPDEST DUP5 DUP5 EQ PUSH2 0x3DD7 JUMPI POP PUSH2 0x3DD0 SWAP1 PUSH1 0xFF DUP8 AND SWAP1 PUSH2 0x346D JUMP JUMPDEST MLOAD ADD MSTORE SWAP2 SWAP1 JUMP JUMPDEST PUSH2 0x3DD0 SWAP2 POP PUSH1 0xFF DUP8 AND SWAP1 PUSH2 0x346D JUMP JUMPDEST SWAP1 POP SWAP6 PUSH2 0x3DBA JUMP JUMPDEST POP POP PUSH2 0x3E0E SWAP3 SWAP4 SWAP2 POP PUSH2 0x3E00 DUP2 PUSH2 0x3C22 JUMP JUMPDEST PUSH2 0x3E09 DUP3 PUSH2 0x3C22 JUMP JUMPDEST PUSH2 0x3C8B JUMP JUMPDEST SWAP1 SWAP2 JUMP JUMPDEST PUSH2 0xFFFF PUSH0 NOT SWAP2 AND ADD SWAP1 PUSH2 0xFFFF DUP3 GT PUSH2 0xA8C JUMPI JUMP JUMPDEST SWAP1 PUSH2 0xFFFF DUP1 SWAP2 AND SWAP2 AND SUB SWAP1 PUSH2 0xFFFF DUP3 GT PUSH2 0xA8C JUMPI JUMP JUMPDEST PUSH1 0x40 MLOAD SWAP1 PUSH2 0x3E4B PUSH1 0x40 DUP4 PUSH2 0x2DA4 JUMP JUMPDEST PUSH1 0xA DUP3 MSTORE PUSH10 0x13185CDD0814DD185B99 PUSH1 0xB2 SHL PUSH1 0x20 DUP4 ADD MSTORE JUMP JUMPDEST SWAP6 SWAP2 PUSH1 0xFF SWAP1 SWAP8 SWAP5 SWAP6 SWAP4 SWAP2 SWAP8 AND PUSH2 0xFFFF PUSH1 0x60 PUSH2 0x3E7F DUP4 DUP11 PUSH2 0x346D JUMP JUMPDEST MLOAD ADD MLOAD AND ISZERO PUSH2 0x4231 JUMPI PUSH0 SWAP6 PUSH0 JUMPDEST DUP10 MLOAD DUP2 LT ISZERO PUSH2 0x3EC9 JUMPI PUSH2 0xFFFF PUSH1 0x60 PUSH2 0x3EA4 DUP4 DUP14 PUSH2 0x346D JUMP JUMPDEST MLOAD ADD MLOAD AND PUSH2 0x3EB5 JUMPI JUMPDEST PUSH1 0x1 ADD PUSH2 0x3E8C JUMP JUMPDEST SWAP7 PUSH2 0x3EC1 PUSH1 0x1 SWAP2 PUSH2 0x3A14 JUMP JUMPDEST SWAP8 SWAP1 POP PUSH2 0x3EAD JUMP JUMPDEST POP SWAP1 SWAP3 SWAP5 SWAP8 SWAP2 SWAP4 SWAP6 SWAP7 DUP8 ISZERO PUSH2 0x4225 JUMPI PUSH0 SWAP8 PUSH1 0x1 DUP2 SUB PUSH2 0x4192 JUMPI POP PUSH0 JUMPDEST DUP4 MLOAD DUP2 LT ISZERO PUSH2 0x4184 JUMPI PUSH2 0xFFFF PUSH1 0x60 PUSH2 0x3EFD DUP4 DUP8 PUSH2 0x346D JUMP JUMPDEST MLOAD ADD MLOAD AND PUSH2 0x3F0D JUMPI PUSH1 0x1 ADD PUSH2 0x3EE5 JUMP JUMPDEST SWAP1 SWAP2 SWAP3 SWAP4 SWAP5 SWAP6 SWAP7 SWAP8 POP SWAP2 JUMPDEST PUSH2 0xFFFF PUSH1 0x60 PUSH2 0x3F27 DUP6 DUP8 PUSH2 0x346D JUMP JUMPDEST MLOAD ADD MLOAD AND SWAP1 PUSH1 0xFF PUSH2 0x3F38 DUP8 DUP6 PUSH2 0x346D JUMP JUMPDEST MLOAD MLOAD AND PUSH1 0xFF PUSH1 0x20 PUSH2 0x3F49 DUP8 DUP10 PUSH2 0x346D JUMP JUMPDEST MLOAD ADD MLOAD AND PUSH1 0xFF PUSH1 0xA0 PUSH2 0x3F5B DUP11 DUP9 PUSH2 0x346D JUMP JUMPDEST MLOAD ADD MLOAD AND PUSH1 0xFF PUSH1 0xC0 PUSH2 0x3F6D DUP10 DUP12 PUSH2 0x346D JUMP JUMPDEST MLOAD ADD MLOAD AND SWAP2 PUSH1 0x3 DUP13 MUL SWAP5 DUP13 DUP7 DIV PUSH1 0x3 EQ DUP14 ISZERO OR ISZERO PUSH2 0xA8C JUMPI PUSH2 0x3F90 SWAP6 SHR SWAP4 PUSH2 0x4815 JUMP JUMPDEST SWAP1 DUP1 PUSH2 0xFFFF DUP1 PUSH1 0x60 PUSH2 0x3FA2 DUP10 DUP12 PUSH2 0x346D JUMP JUMPDEST MLOAD ADD MLOAD AND SWAP2 AND GT PUSH2 0x416B JUMPI JUMPDEST PUSH0 PUSH1 0xE0 PUSH2 0x3FBB DUP8 DUP10 PUSH2 0x346D JUMP JUMPDEST MLOAD ADD MLOAD ISZERO ISZERO DUP1 PUSH2 0x414B JUMPI JUMPDEST ISZERO PUSH2 0x4121 JUMPI POP POP POP PUSH2 0x3FE9 PUSH2 0xFFFF PUSH1 0x60 PUSH2 0x3FE0 DUP7 DUP9 PUSH2 0x346D JUMP JUMPDEST MLOAD ADD MLOAD AND PUSH2 0x3E12 JUMP JUMPDEST PUSH1 0x1 PUSH1 0x60 PUSH2 0x3FF7 DUP7 DUP9 PUSH2 0x346D JUMP JUMPDEST MLOAD ADD MSTORE PUSH1 0x1 SWAP2 PUSH2 0x4005 PUSH2 0x3E3C JUMP JUMPDEST SWAP3 JUMPDEST PUSH2 0x4111 JUMPI JUMPDEST PUSH2 0xFFFF PUSH1 0x60 PUSH2 0x401B DUP8 DUP10 PUSH2 0x346D JUMP JUMPDEST MLOAD ADD MLOAD AND SWAP2 PUSH2 0x160 PUSH2 0x404A DUP10 PUSH2 0x140 PUSH2 0x4034 DUP3 DUP11 PUSH2 0x346D JUMP JUMPDEST MLOAD ADD MLOAD SWAP8 PUSH2 0x4041 DUP10 PUSH2 0x2DFE JUMP JUMPDEST PUSH2 0x152A DUP10 PUSH2 0x2DFE JUMP JUMPDEST MLOAD ADD MLOAD SWAP6 PUSH1 0x4 DUP8 LT ISZERO PUSH2 0x8C3 JUMPI PUSH2 0x4084 PUSH2 0x160 PUSH2 0x1449 DUP4 PUSH2 0x140 PUSH2 0x406E DUP3 DUP15 PUSH2 0x346D JUMP JUMPDEST MLOAD ADD MLOAD SWAP12 PUSH2 0x407B DUP14 PUSH2 0x2DFE JUMP JUMPDEST PUSH2 0x152A DUP14 PUSH2 0x2DFE JUMP JUMPDEST SWAP9 PUSH1 0x4 DUP11 LT ISZERO PUSH2 0x8C3 JUMPI PUSH1 0x40 MLOAD SWAP11 PUSH2 0x409B DUP13 PUSH2 0x2D50 JUMP JUMPDEST PUSH1 0xFF AND DUP12 MSTORE PUSH1 0x20 DUP12 ADD PUSH0 SWAP1 MSTORE PUSH1 0x40 DUP12 ADD MSTORE PUSH1 0xFF AND PUSH1 0x60 DUP11 ADD MSTORE PUSH2 0xFFFF AND DUP1 PUSH1 0x80 DUP11 ADD MSTORE PUSH1 0xA0 DUP10 ADD MSTORE PUSH1 0xC0 DUP9 ADD MSTORE PUSH1 0xE0 DUP8 ADD MSTORE PUSH2 0x100 DUP7 ADD MSTORE PUSH1 0xFF AND PUSH2 0x120 DUP6 ADD MSTORE PUSH1 0xFF AND PUSH2 0x140 DUP5 ADD MSTORE PUSH1 0xFF AND PUSH2 0x160 DUP4 ADD MSTORE PUSH1 0xFF AND PUSH2 0x180 DUP3 ADD MSTORE PUSH2 0x4101 DUP3 DUP5 PUSH2 0x346D JUMP JUMPDEST MSTORE PUSH2 0x410B SWAP2 PUSH2 0x346D JUMP JUMPDEST POP PUSH1 0x1 SWAP1 JUMP JUMPDEST SWAP2 POP PUSH2 0x411B PUSH2 0x3E3C JUMP JUMPDEST SWAP2 PUSH2 0x400C JUMP JUMPDEST PUSH1 0x60 PUSH2 0x4131 DUP8 DUP10 SWAP7 SWAP5 SWAP6 SWAP7 PUSH2 0x346D JUMP JUMPDEST MLOAD ADD PUSH2 0xFFFF PUSH2 0x4143 DUP6 DUP3 DUP5 MLOAD AND PUSH2 0x3E26 JUMP JUMPDEST AND SWAP1 MSTORE PUSH2 0x4007 JUMP JUMPDEST POP PUSH2 0xFFFF PUSH1 0x60 PUSH2 0x415B DUP9 DUP11 PUSH2 0x346D JUMP JUMPDEST MLOAD ADD MLOAD AND PUSH2 0xFFFF DUP4 AND LT ISZERO PUSH2 0x3FC6 JUMP JUMPDEST POP PUSH2 0xFFFF PUSH1 0x60 PUSH2 0x417B DUP7 DUP9 PUSH2 0x346D JUMP JUMPDEST MLOAD ADD MLOAD AND PUSH2 0x3FAE JUMP JUMPDEST POP SWAP1 SWAP7 SWAP2 SWAP3 SWAP4 SWAP5 SWAP6 SWAP7 PUSH2 0x3F18 JUMP JUMPDEST PUSH2 0x41BB SWAP2 SWAP9 POP DUP3 PUSH2 0x41B5 DUP9 PUSH1 0xFF PUSH2 0x41AF DUP11 SWAP10 SWAP9 SWAP8 SWAP15 SWAP13 SWAP12 SWAP11 PUSH2 0x39D9 JUMP JUMPDEST AND PUSH2 0x2DF1 JUMP JUMPDEST SHR PUSH2 0x2DC5 JUMP JUMPDEST SWAP8 PUSH0 SWAP8 PUSH0 JUMPDEST DUP4 MLOAD DUP2 LT ISZERO PUSH2 0x4215 JUMPI PUSH2 0xFFFF PUSH1 0x60 PUSH2 0x41D8 DUP4 DUP8 PUSH2 0x346D JUMP JUMPDEST MLOAD ADD MLOAD AND PUSH2 0x41E9 JUMPI JUMPDEST PUSH1 0x1 ADD PUSH2 0x41C0 JUMP JUMPDEST SWAP9 DUP11 DUP2 EQ PUSH2 0x4204 JUMPI PUSH2 0x41FC PUSH1 0x1 SWAP2 PUSH2 0x3A14 JUMP JUMPDEST SWAP10 SWAP1 POP PUSH2 0x41E1 JUMP JUMPDEST POP SWAP2 SWAP4 SWAP6 SWAP8 SWAP1 SWAP3 SWAP5 SWAP7 SWAP9 POP SWAP2 PUSH2 0x3F18 JUMP JUMPDEST POP SWAP2 SWAP4 SWAP6 SWAP8 POP SWAP8 SWAP2 SWAP4 SWAP6 SWAP8 PUSH2 0x3F18 JUMP JUMPDEST POP POP POP POP POP POP POP POP PUSH0 SWAP1 JUMP JUMPDEST POP POP POP POP SWAP3 POP POP POP PUSH0 SWAP1 JUMP JUMPDEST SWAP6 SWAP2 PUSH1 0xFF SWAP1 SWAP8 SWAP5 SWAP6 SWAP4 SWAP2 SWAP8 AND PUSH2 0xFFFF PUSH1 0x60 PUSH2 0x4258 DUP4 DUP11 PUSH2 0x346D JUMP JUMPDEST MLOAD ADD MLOAD AND ISZERO PUSH2 0x4231 JUMPI PUSH0 SWAP6 PUSH0 JUMPDEST DUP10 MLOAD DUP2 LT ISZERO PUSH2 0x42A2 JUMPI PUSH2 0xFFFF PUSH1 0x60 PUSH2 0x427D DUP4 DUP14 PUSH2 0x346D JUMP JUMPDEST MLOAD ADD MLOAD AND PUSH2 0x428E JUMPI JUMPDEST PUSH1 0x1 ADD PUSH2 0x4265 JUMP JUMPDEST SWAP7 PUSH2 0x429A PUSH1 0x1 SWAP2 PUSH2 0x3A14 JUMP JUMPDEST SWAP8 SWAP1 POP PUSH2 0x4286 JUMP JUMPDEST POP SWAP1 SWAP3 SWAP5 SWAP8 SWAP2 SWAP4 SWAP6 SWAP7 DUP8 ISZERO PUSH2 0x4225 JUMPI PUSH0 SWAP8 PUSH1 0x1 DUP2 SUB PUSH2 0x4527 JUMPI POP PUSH0 JUMPDEST DUP4 MLOAD DUP2 LT ISZERO PUSH2 0x4519 JUMPI PUSH2 0xFFFF PUSH1 0x60 PUSH2 0x42D6 DUP4 DUP8 PUSH2 0x346D JUMP JUMPDEST MLOAD ADD MLOAD AND PUSH2 0x42E6 JUMPI PUSH1 0x1 ADD PUSH2 0x42BE JUMP JUMPDEST SWAP1 SWAP2 SWAP3 SWAP4 SWAP5 SWAP6 SWAP7 SWAP8 POP SWAP2 JUMPDEST PUSH2 0xFFFF PUSH1 0x60 PUSH2 0x4300 DUP6 DUP8 PUSH2 0x346D JUMP JUMPDEST MLOAD ADD MLOAD AND SWAP1 PUSH1 0xFF PUSH2 0x4311 DUP8 DUP6 PUSH2 0x346D JUMP JUMPDEST MLOAD MLOAD AND PUSH1 0xFF PUSH1 0x20 PUSH2 0x4322 DUP8 DUP10 PUSH2 0x346D JUMP JUMPDEST MLOAD ADD MLOAD AND PUSH1 0xFF PUSH1 0xA0 PUSH2 0x4334 DUP11 DUP9 PUSH2 0x346D JUMP JUMPDEST MLOAD ADD MLOAD AND PUSH1 0xFF PUSH1 0xC0 PUSH2 0x4346 DUP10 DUP12 PUSH2 0x346D JUMP JUMPDEST MLOAD ADD MLOAD AND SWAP2 PUSH1 0x3 DUP13 MUL SWAP5 DUP13 DUP7 DIV PUSH1 0x3 EQ DUP14 ISZERO OR ISZERO PUSH2 0xA8C JUMPI PUSH2 0x4369 SWAP6 SHR SWAP4 PUSH2 0x4815 JUMP JUMPDEST SWAP1 DUP1 PUSH2 0xFFFF DUP1 PUSH1 0x60 PUSH2 0x437B DUP10 DUP12 PUSH2 0x346D JUMP JUMPDEST MLOAD ADD MLOAD AND SWAP2 AND GT PUSH2 0x4500 JUMPI JUMPDEST PUSH0 PUSH1 0xE0 PUSH2 0x4394 DUP8 DUP10 PUSH2 0x346D JUMP JUMPDEST MLOAD ADD MLOAD ISZERO ISZERO DUP1 PUSH2 0x44E0 JUMPI JUMPDEST ISZERO PUSH2 0x44B6 JUMPI POP POP POP PUSH2 0x43B9 PUSH2 0xFFFF PUSH1 0x60 PUSH2 0x3FE0 DUP7 DUP9 PUSH2 0x346D JUMP JUMPDEST PUSH1 0x1 PUSH1 0x60 PUSH2 0x43C7 DUP7 DUP9 PUSH2 0x346D JUMP JUMPDEST MLOAD ADD MSTORE PUSH1 0x1 SWAP2 PUSH2 0x43D5 PUSH2 0x3E3C JUMP JUMPDEST SWAP3 JUMPDEST PUSH2 0x44A6 JUMPI JUMPDEST PUSH2 0xFFFF PUSH1 0x60 PUSH2 0x43EB DUP8 DUP10 PUSH2 0x346D JUMP JUMPDEST MLOAD ADD MLOAD AND SWAP2 PUSH2 0x160 PUSH2 0x4404 DUP10 PUSH2 0x140 PUSH2 0x4034 DUP3 DUP11 PUSH2 0x346D JUMP JUMPDEST MLOAD ADD MLOAD SWAP6 PUSH1 0x4 DUP8 LT ISZERO PUSH2 0x8C3 JUMPI PUSH2 0x4428 PUSH2 0x160 PUSH2 0x1449 DUP4 PUSH2 0x140 PUSH2 0x406E DUP3 DUP15 PUSH2 0x346D JUMP JUMPDEST SWAP9 PUSH1 0x4 DUP11 LT ISZERO PUSH2 0x8C3 JUMPI PUSH1 0x40 MLOAD SWAP11 PUSH2 0x443F DUP13 PUSH2 0x2D50 JUMP JUMPDEST PUSH1 0xFF AND DUP12 MSTORE PUSH1 0x20 DUP12 ADD PUSH1 0x1 SWAP1 MSTORE PUSH1 0x40 DUP12 ADD MSTORE PUSH1 0xFF AND PUSH1 0x60 DUP11 ADD MSTORE PUSH2 0xFFFF AND DUP1 PUSH1 0x80 DUP11 ADD MSTORE PUSH1 0xA0 DUP10 ADD MSTORE PUSH1 0xC0 DUP9 ADD MSTORE PUSH1 0xE0 DUP8 ADD MSTORE PUSH2 0x100 DUP7 ADD MSTORE PUSH1 0xFF AND PUSH2 0x120 DUP6 ADD MSTORE PUSH1 0xFF AND PUSH2 0x140 DUP5 ADD MSTORE PUSH1 0xFF AND PUSH2 0x160 DUP4 ADD MSTORE PUSH1 0xFF AND PUSH2 0x180 DUP3 ADD MSTORE PUSH2 0x4101 DUP3 DUP5 PUSH2 0x346D JUMP JUMPDEST SWAP2 POP PUSH2 0x44B0 PUSH2 0x3E3C JUMP JUMPDEST SWAP2 PUSH2 0x43DC JUMP JUMPDEST PUSH1 0x60 PUSH2 0x44C6 DUP8 DUP10 SWAP7 SWAP5 SWAP6 SWAP7 PUSH2 0x346D JUMP JUMPDEST MLOAD ADD PUSH2 0xFFFF PUSH2 0x44D8 DUP6 DUP3 DUP5 MLOAD AND PUSH2 0x3E26 JUMP JUMPDEST AND SWAP1 MSTORE PUSH2 0x43D7 JUMP JUMPDEST POP PUSH2 0xFFFF PUSH1 0x60 PUSH2 0x44F0 DUP9 DUP11 PUSH2 0x346D JUMP JUMPDEST MLOAD ADD MLOAD AND PUSH2 0xFFFF DUP4 AND LT ISZERO PUSH2 0x439F JUMP JUMPDEST POP PUSH2 0xFFFF PUSH1 0x60 PUSH2 0x4510 DUP7 DUP9 PUSH2 0x346D JUMP JUMPDEST MLOAD ADD MLOAD AND PUSH2 0x4387 JUMP JUMPDEST POP SWAP1 SWAP7 SWAP2 SWAP3 SWAP4 SWAP5 SWAP6 SWAP7 PUSH2 0x42F1 JUMP JUMPDEST PUSH2 0x4544 SWAP2 SWAP9 POP DUP3 PUSH2 0x41B5 DUP9 PUSH1 0xFF PUSH2 0x41AF DUP11 SWAP10 SWAP9 SWAP8 SWAP15 SWAP13 SWAP12 SWAP11 PUSH2 0x39D9 JUMP JUMPDEST SWAP8 PUSH0 SWAP8 PUSH0 JUMPDEST DUP4 MLOAD DUP2 LT ISZERO PUSH2 0x459E JUMPI PUSH2 0xFFFF PUSH1 0x60 PUSH2 0x4561 DUP4 DUP8 PUSH2 0x346D JUMP JUMPDEST MLOAD ADD MLOAD AND PUSH2 0x4572 JUMPI JUMPDEST PUSH1 0x1 ADD PUSH2 0x4549 JUMP JUMPDEST SWAP9 DUP11 DUP2 EQ PUSH2 0x458D JUMPI PUSH2 0x4585 PUSH1 0x1 SWAP2 PUSH2 0x3A14 JUMP JUMPDEST SWAP10 SWAP1 POP PUSH2 0x456A JUMP JUMPDEST POP SWAP2 SWAP4 SWAP6 SWAP8 SWAP1 SWAP3 SWAP5 SWAP7 SWAP9 POP SWAP2 PUSH2 0x42F1 JUMP JUMPDEST POP SWAP2 SWAP4 SWAP6 SWAP8 POP SWAP8 SWAP2 SWAP4 SWAP6 SWAP8 PUSH2 0x42F1 JUMP JUMPDEST PUSH2 0x45B7 DUP2 PUSH2 0x2DFE JUMP JUMPDEST DUP1 ISZERO PUSH2 0x45D8 JUMPI PUSH1 0x1 SWAP1 PUSH2 0x45C9 DUP2 PUSH2 0x2DFE JUMP JUMPDEST EQ PUSH2 0x45D3 JUMPI PUSH1 0x69 SWAP1 JUMP JUMPDEST PUSH1 0x52 SWAP1 JUMP JUMPDEST POP PUSH1 0x41 SWAP1 JUMP JUMPDEST SWAP1 PUSH2 0xFFFF DUP1 SWAP2 AND SWAP2 AND MUL SWAP1 PUSH2 0xFFFF DUP3 AND SWAP2 DUP3 SUB PUSH2 0xA8C JUMPI JUMP JUMPDEST SWAP1 PUSH1 0x2 SHL PUSH2 0x3FC AND PUSH2 0x4608 SWAP2 PUSH2 0x3C0C JUMP JUMPDEST SWAP1 JUMP JUMPDEST PUSH2 0x4614 DUP2 PUSH2 0x2DFE JUMP JUMPDEST DUP1 ISZERO PUSH2 0x4635 JUMPI PUSH1 0x1 SWAP1 PUSH2 0x4626 DUP2 PUSH2 0x2DFE JUMP JUMPDEST EQ PUSH2 0x4630 JUMPI PUSH1 0x14 SWAP1 JUMP JUMPDEST PUSH1 0xC SWAP1 JUMP JUMPDEST POP PUSH1 0x6 SWAP1 JUMP JUMPDEST SWAP1 PUSH1 0xFF PUSH1 0x16 SWAP2 AND DIV SWAP1 DUP2 PUSH2 0x464E DUP3 PUSH2 0x2DFE JUMP JUMPDEST PUSH1 0x1 DUP3 EQ PUSH2 0x46A0 JUMPI JUMPDEST POP PUSH1 0x2 SWAP1 PUSH2 0x4664 DUP2 PUSH2 0x2DFE JUMP JUMPDEST EQ PUSH2 0x467C JUMPI JUMPDEST PUSH1 0x12 PUSH1 0xFF DUP3 AND GT ISZERO PUSH2 0x4608 JUMPI POP PUSH1 0x12 SWAP1 JUMP JUMPDEST PUSH1 0xFF PUSH1 0x4 SWAP2 AND ADD PUSH1 0xFF DUP2 GT ISZERO PUSH2 0x466A JUMPI PUSH4 0x4E487B71 PUSH1 0xE0 SHL PUSH0 MSTORE PUSH1 0x11 PUSH1 0x4 MSTORE PUSH1 0x24 PUSH0 REVERT JUMPDEST PUSH1 0x2 SWAP2 SWAP3 POP PUSH2 0x46AE SWAP1 PUSH2 0x39EE JUMP JUMPDEST SWAP2 SWAP1 PUSH2 0x4657 JUMP JUMPDEST SWAP2 SWAP1 PUSH2 0xFFFF AND DUP1 ISZERO PUSH2 0x4810 JUMPI PUSH1 0x3 DUP2 MUL SWAP1 DUP2 DIV PUSH1 0x3 SUB PUSH2 0xA8C JUMPI PUSH1 0x64 ADD SWAP2 DUP3 PUSH1 0x64 GT PUSH2 0xA8C JUMPI PUSH0 JUMPDEST DUP2 MLOAD DUP2 LT ISZERO PUSH2 0x3BCF JUMPI DUP1 PUSH1 0x64 DUP6 PUSH1 0xFF PUSH2 0x46F8 PUSH1 0x1 SWAP6 DUP8 PUSH2 0x346D JUMP JUMPDEST MLOAD MLOAD AND MUL DIV PUSH1 0xFF DUP2 GT ISZERO PUSH2 0x4808 JUMPI POP PUSH1 0xFF JUMPDEST PUSH1 0xFF PUSH2 0x4716 DUP4 DUP7 PUSH2 0x346D JUMP JUMPDEST MLOAD SWAP2 AND SWAP1 MSTORE PUSH1 0x64 DUP6 PUSH1 0xFF PUSH1 0x20 PUSH2 0x472C DUP6 DUP9 PUSH2 0x346D JUMP JUMPDEST MLOAD ADD MLOAD AND MUL DIV PUSH1 0xFF DUP2 GT ISZERO PUSH2 0x4800 JUMPI POP PUSH1 0xFF JUMPDEST PUSH1 0xFF PUSH1 0x20 PUSH2 0x474D DUP5 DUP8 PUSH2 0x346D JUMP JUMPDEST MLOAD ADD SWAP2 AND SWAP1 MSTORE PUSH1 0x64 DUP6 PUSH1 0xFF PUSH1 0x40 PUSH2 0x4764 DUP6 DUP9 PUSH2 0x346D JUMP JUMPDEST MLOAD ADD MLOAD AND MUL DIV PUSH1 0xFF DUP2 GT ISZERO PUSH2 0x47F8 JUMPI POP PUSH1 0xFF JUMPDEST PUSH1 0xFF PUSH1 0x40 PUSH2 0x4785 DUP5 DUP8 PUSH2 0x346D JUMP JUMPDEST MLOAD ADD SWAP2 AND SWAP1 MSTORE PUSH1 0x64 DUP6 PUSH2 0xFFFF PUSH1 0x60 PUSH2 0x479D DUP6 DUP9 PUSH2 0x346D JUMP JUMPDEST MLOAD ADD MLOAD AND MUL DIV PUSH2 0xFFFF DUP2 GT ISZERO PUSH2 0x47EF JUMPI POP PUSH2 0xFFFF JUMPDEST PUSH2 0xFFFF PUSH1 0x60 PUSH2 0x47C1 DUP5 DUP8 PUSH2 0x346D JUMP JUMPDEST MLOAD ADD SWAP2 AND SWAP1 MSTORE PUSH2 0xFFFF PUSH1 0x60 PUSH2 0x47D6 DUP4 DUP7 PUSH2 0x346D JUMP JUMPDEST MLOAD ADD MLOAD AND PUSH1 0x80 PUSH2 0x47E6 DUP4 DUP7 PUSH2 0x346D JUMP JUMPDEST MLOAD ADD MSTORE ADD PUSH2 0x46DD JUMP JUMPDEST PUSH2 0xFFFF AND PUSH2 0x47B2 JUMP JUMPDEST PUSH1 0xFF AND PUSH2 0x4777 JUMP JUMPDEST PUSH1 0xFF AND PUSH2 0x473F JUMP JUMPDEST PUSH1 0xFF AND PUSH2 0x470A JUMP JUMPDEST POP SWAP1 POP JUMP JUMPDEST PUSH1 0x60 SWAP6 SWAP5 SWAP3 SWAP4 PUSH1 0xFF AND DUP1 ISZERO DUP1 ISZERO SWAP2 SWAP1 DUP3 PUSH2 0x4975 JUMPI JUMPDEST POP POP PUSH2 0x494A JUMPI PUSH1 0xFF AND SWAP1 PUSH2 0xFFFF PUSH1 0x23 DUP5 MOD AND PUSH1 0x6E ADD PUSH2 0xFFFF DUP2 GT PUSH2 0xA8C JUMPI PUSH1 0xFF PUSH2 0x4856 PUSH1 0x12 SWAP3 DUP6 PUSH2 0x45DE JUMP JUMPDEST SWAP3 AND ADD PUSH2 0xFFFF DUP2 GT PUSH2 0xA8C JUMPI PUSH2 0xFFFF AND SWAP1 DUP2 ISZERO PUSH2 0x2DCF JUMPI PUSH2 0xFFFF AND DIV SWAP1 PUSH1 0x2 PUSH2 0xFFFF DUP4 AND LT PUSH2 0x492D JUMPI JUMPDEST POP PUSH2 0xFFFF PUSH1 0x25 DUP4 PUSH1 0x8 SHR MOD AND PUSH1 0x52 ADD PUSH2 0xFFFF DUP2 GT PUSH2 0xA8C JUMPI PUSH2 0x48A7 PUSH2 0xFFFF SWAP2 PUSH1 0x64 SWAP4 PUSH2 0x45DE JUMP JUMPDEST AND DIV SWAP1 PUSH1 0xFF DUP3 SWAP4 AND SWAP1 DUP2 ISZERO ISZERO SWAP2 DUP3 PUSH2 0x4904 JUMPI JUMPDEST POP POP PUSH2 0x48C5 JUMPI POP SWAP2 SWAP1 JUMP JUMPDEST PUSH1 0xD SWAP3 SWAP4 POP PUSH2 0xFFFF SWAP2 POP AND MUL PUSH2 0xFFFF DUP2 AND SWAP1 DUP2 SUB PUSH2 0xA8C JUMPI PUSH1 0xA SWAP1 DIV SWAP1 PUSH1 0x40 MLOAD PUSH2 0x48F0 PUSH1 0x40 DUP3 PUSH2 0x2DA4 JUMP JUMPDEST PUSH1 0x4 DUP2 MSTORE PUSH4 0x10D49255 PUSH1 0xE2 SHL PUSH1 0x20 DUP3 ADD MSTORE SWAP1 JUMP JUMPDEST PUSH1 0x1C SWAP2 SWAP3 POP MUL PUSH2 0xFFFF DUP2 AND SWAP1 DUP2 SUB PUSH2 0xA8C JUMPI PUSH2 0xFFFF PUSH1 0xA PUSH1 0x64 SWAP3 DIV AND SWAP2 PUSH1 0x18 SHR MOD LT PUSH0 DUP1 PUSH2 0x48BA JUMP JUMPDEST PUSH1 0xFF SWAP2 POP PUSH1 0x3 SWAP1 DIV AND PUSH1 0x2 ADD PUSH1 0xFF DUP2 GT PUSH2 0xA8C JUMPI PUSH1 0xFF AND PUSH0 PUSH2 0x4880 JUMP JUMPDEST POP POP POP POP SWAP1 POP PUSH0 SWAP1 PUSH1 0x40 MLOAD PUSH2 0x4960 PUSH1 0x40 DUP3 PUSH2 0x2DA4 JUMP JUMPDEST PUSH1 0x5 DUP2 MSTORE PUSH5 0x444F444745 PUSH1 0xD8 SHL PUSH1 0x20 DUP3 ADD MSTORE SWAP1 JUMP JUMPDEST SWAP1 SWAP2 POP PUSH1 0x19 DUP3 MUL SWAP2 DUP3 DIV PUSH1 0x19 EQ OR ISZERO PUSH2 0xA8C JUMPI PUSH1 0xA SWAP1 DIV PUSH1 0x64 DUP5 MOD LT PUSH0 DUP1 PUSH2 0x482A JUMP INVALID LOG2 PUSH5 0x6970667358 0x22 SLT KECCAK256 SLOAD 0xC7 TIMESTAMP CODESIZE 0xBC 0xC5 PUSH27 0xA4087092B5EE6BA9A7A8E33031F4579400D88B124C9C44A5BF6473 PUSH16 0x6C634300081E00330000000000000000 "
		},
		"gasEstimates": {
			"creation": {
				"codeDepositCost": "3778800",
				"executionCost": "infinite",
				"totalCost": "infinite"
			},
			"external": {
				"buyFromShop(uint256)": "infinite",
				"buyRelicShopPrice()": "2644",
				"buyUnit()": "infinite",
				"buyUnitPrice()": "2336",
				"buyUnitShopPrice()": "3081",
				"clearPlayerData()": "infinite",
				"equipRelics(uint256[3])": "infinite",
				"equippedRelics(address,uint256)": "3202",
				"getCurrentAI(address)": "infinite",
				"getEquippedRelics(address)": "infinite",
				"getLastBattleResult(address)": "infinite",
				"getPlayerRelics(address)": "infinite",
				"getPlayerShop(address)": "infinite",
				"getPlayerUnits(address)": "infinite",
				"hasProfile(address)": "2894",
				"lastAI(address,uint256)": "7822",
				"lastAIMaxHp(address,uint256)": "7130",
				"lastBattleId()": "2468",
				"lastPlayerMaxHp(address,uint256)": "6976",
				"lastPlayerWon(address)": "2982",
				"owner()": "2689",
				"pause()": "30056",
				"paused()": "2524",
				"playerRelics(address,uint256)": "7583",
				"playerShop(address,uint256)": "7052",
				"playerUnits(address,uint256)": "6967",
				"profiles(address)": "9462",
				"relicContract()": "2998",
				"renounceOwnership()": "28350",
				"rerollPrice()": "2688",
				"rerollShop()": "infinite",
				"setPrices(uint256,uint256,uint256,uint256)": "93326",
				"setRelicContract(address)": "27154",
				"setUnitNFT(address)": "26978",
				"startMatch(uint256[],uint256[])": "infinite",
				"transferOwnership(address)": "28954",
				"unitNFT()": "2866",
				"unpause()": "27687",
				"withdraw()": "infinite"
			},
			"internal": {
				"_ensureProfile()": "infinite",
				"_generateShopItem()": "infinite",
				"_getWeightedRarity(uint256)": "68",
				"_updateProfileAfterBattle(bool)": "infinite"
			}
		},
		"methodIdentifiers": {
			"buyFromShop(uint256)": "b654823e",
			"buyRelicShopPrice()": "8b5ca78f",
			"buyUnit()": "201738e2",
			"buyUnitPrice()": "394861f3",
			"buyUnitShopPrice()": "f5e5fff2",
			"clearPlayerData()": "bdb729c9",
			"equipRelics(uint256[3])": "a5f968a0",
			"equippedRelics(address,uint256)": "c4f036c4",
			"getCurrentAI(address)": "c99ae45f",
			"getEquippedRelics(address)": "a95db7e2",
			"getLastBattleResult(address)": "2dc6d62f",
			"getPlayerRelics(address)": "bb15a3b4",
			"getPlayerShop(address)": "49c7c24a",
			"getPlayerUnits(address)": "6154ee97",
			"hasProfile(address)": "a787c80b",
			"lastAI(address,uint256)": "da539b0f",
			"lastAIMaxHp(address,uint256)": "732e9b85",
			"lastBattleId()": "518c83b0",
			"lastPlayerMaxHp(address,uint256)": "4e178659",
			"lastPlayerWon(address)": "b78f4c70",
			"owner()": "8da5cb5b",
			"pause()": "8456cb59",
			"paused()": "5c975abb",
			"playerRelics(address,uint256)": "f5905ca1",
			"playerShop(address,uint256)": "18dc3185",
			"playerUnits(address,uint256)": "4ef2d6c1",
			"profiles(address)": "bbe15627",
			"relicContract()": "d5654ae7",
			"renounceOwnership()": "715018a6",
			"rerollPrice()": "9d980bd2",
			"rerollShop()": "29de58d1",
			"setPrices(uint256,uint256,uint256,uint256)": "d8e86854",
			"setRelicContract(address)": "b2a47500",
			"setUnitNFT(address)": "7e5c4f8b",
			"startMatch(uint256[],uint256[])": "51bdab14",
			"transferOwnership(address)": "f2fde38b",
			"unitNFT()": "b92a40ad",
			"unpause()": "3f4ba83a",
			"withdraw()": "3ccfd60b"
		}
	},
	"abi": [
		{
			"inputs": [
				{
					"internalType": "address",
					"name": "_unitNFT",
					"type": "address"
				},
				{
					"internalType": "address",
					"name": "_relic",
					"type": "address"
				}
			],
			"stateMutability": "nonpayable",
			"type": "constructor"
		},
		{
			"anonymous": false,
			"inputs": [
				{
					"indexed": true,
					"internalType": "bytes32",
					"name": "battleId",
					"type": "bytes32"
				},
				{
					"indexed": false,
					"internalType": "uint8",
					"name": "round",
					"type": "uint8"
				},
				{
					"indexed": false,
					"internalType": "bool",
					"name": "isPlayerSide",
					"type": "bool"
				},
				{
					"indexed": false,
					"internalType": "uint8",
					"name": "attackerIndex",
					"type": "uint8"
				},
				{
					"indexed": false,
					"internalType": "uint8",
					"name": "targetIndex",
					"type": "uint8"
				},
				{
					"indexed": false,
					"internalType": "uint16",
					"name": "damage",
					"type": "uint16"
				},
				{
					"indexed": false,
					"internalType": "uint16",
					"name": "remainingHp",
					"type": "uint16"
				},
				{
					"indexed": false,
					"internalType": "string",
					"name": "specialEffect",
					"type": "string"
				}
			],
			"name": "BattleEventEmitted",
			"type": "event"
		},
		{
			"anonymous": false,
			"inputs": [
				{
					"indexed": true,
					"internalType": "bytes32",
					"name": "battleId",
					"type": "bytes32"
				},
				{
					"indexed": true,
					"internalType": "address",
					"name": "player",
					"type": "address"
				},
				{
					"indexed": false,
					"internalType": "bool",
					"name": "playerWon",
					"type": "bool"
				},
				{
					"indexed": false,
					"internalType": "uint16[]",
					"name": "playerMaxHp",
					"type": "uint16[]"
				},
				{
					"indexed": false,
					"internalType": "uint16[]",
					"name": "aiMaxHp",
					"type": "uint16[]"
				}
			],
			"name": "BattleResolved",
			"type": "event"
		},
		{
			"anonymous": false,
			"inputs": [
				{
					"indexed": true,
					"internalType": "address",
					"name": "previousOwner",
					"type": "address"
				},
				{
					"indexed": true,
					"internalType": "address",
					"name": "newOwner",
					"type": "address"
				}
			],
			"name": "OwnershipTransferred",
			"type": "event"
		},
		{
			"anonymous": false,
			"inputs": [
				{
					"indexed": false,
					"internalType": "address",
					"name": "account",
					"type": "address"
				}
			],
			"name": "Paused",
			"type": "event"
		},
		{
			"anonymous": false,
			"inputs": [
				{
					"indexed": false,
					"internalType": "uint256",
					"name": "buyUnit",
					"type": "uint256"
				},
				{
					"indexed": false,
					"internalType": "uint256",
					"name": "reroll",
					"type": "uint256"
				},
				{
					"indexed": false,
					"internalType": "uint256",
					"name": "buyUnitShop",
					"type": "uint256"
				},
				{
					"indexed": false,
					"internalType": "uint256",
					"name": "buyRelicShop",
					"type": "uint256"
				}
			],
			"name": "PricesUpdated",
			"type": "event"
		},
		{
			"anonymous": false,
			"inputs": [
				{
					"indexed": true,
					"internalType": "address",
					"name": "player",
					"type": "address"
				}
			],
			"name": "ProfileCreated",
			"type": "event"
		},
		{
			"anonymous": false,
			"inputs": [
				{
					"indexed": true,
					"internalType": "address",
					"name": "player",
					"type": "address"
				},
				{
					"indexed": false,
					"internalType": "uint256[3]",
					"name": "relics",
					"type": "uint256[3]"
				}
			],
			"name": "RelicsEquipped",
			"type": "event"
		},
		{
			"anonymous": false,
			"inputs": [
				{
					"indexed": false,
					"internalType": "address",
					"name": "account",
					"type": "address"
				}
			],
			"name": "Unpaused",
			"type": "event"
		},
		{
			"inputs": [
				{
					"internalType": "uint256",
					"name": "slot",
					"type": "uint256"
				}
			],
			"name": "buyFromShop",
			"outputs": [],
			"stateMutability": "payable",
			"type": "function"
		},
		{
			"inputs": [],
			"name": "buyRelicShopPrice",
			"outputs": [
				{
					"internalType": "uint256",
					"name": "",
					"type": "uint256"
				}
			],
			"stateMutability": "view",
			"type": "function"
		},
		{
			"inputs": [],
			"name": "buyUnit",
			"outputs": [],
			"stateMutability": "payable",
			"type": "function"
		},
		{
			"inputs": [],
			"name": "buyUnitPrice",
			"outputs": [
				{
					"internalType": "uint256",
					"name": "",
					"type": "uint256"
				}
			],
			"stateMutability": "view",
			"type": "function"
		},
		{
			"inputs": [],
			"name": "buyUnitShopPrice",
			"outputs": [
				{
					"internalType": "uint256",
					"name": "",
					"type": "uint256"
				}
			],
			"stateMutability": "view",
			"type": "function"
		},
		{
			"inputs": [],
			"name": "clearPlayerData",
			"outputs": [],
			"stateMutability": "nonpayable",
			"type": "function"
		},
		{
			"inputs": [
				{
					"internalType": "uint256[3]",
					"name": "relics",
					"type": "uint256[3]"
				}
			],
			"name": "equipRelics",
			"outputs": [],
			"stateMutability": "nonpayable",
			"type": "function"
		},
		{
			"inputs": [
				{
					"internalType": "address",
					"name": "",
					"type": "address"
				},
				{
					"internalType": "uint256",
					"name": "",
					"type": "uint256"
				}
			],
			"name": "equippedRelics",
			"outputs": [
				{
					"internalType": "uint256",
					"name": "",
					"type": "uint256"
				}
			],
			"stateMutability": "view",
			"type": "function"
		},
		{
			"inputs": [
				{
					"internalType": "address",
					"name": "player",
					"type": "address"
				}
			],
			"name": "getCurrentAI",
			"outputs": [
				{
					"components": [
						{
							"internalType": "bool",
							"name": "isRelic",
							"type": "bool"
						},
						{
							"internalType": "uint256",
							"name": "id",
							"type": "uint256"
						},
						{
							"internalType": "uint8",
							"name": "faction",
							"type": "uint8"
						},
						{
							"internalType": "uint8",
							"name": "rarity",
							"type": "uint8"
						},
						{
							"internalType": "uint8",
							"name": "unitClass",
							"type": "uint8"
						},
						{
							"internalType": "uint8",
							"name": "attack",
							"type": "uint8"
						},
						{
							"internalType": "uint8",
							"name": "defense",
							"type": "uint8"
						},
						{
							"internalType": "uint8",
							"name": "speed",
							"type": "uint8"
						},
						{
							"internalType": "uint8",
							"name": "relicType",
							"type": "uint8"
						},
						{
							"internalType": "uint8",
							"name": "relicValue",
							"type": "uint8"
						}
					],
					"internalType": "struct StarForgeGame.ShopItem[8]",
					"name": "",
					"type": "tuple[8]"
				}
			],
			"stateMutability": "view",
			"type": "function"
		},
		{
			"inputs": [
				{
					"internalType": "address",
					"name": "player",
					"type": "address"
				}
			],
			"name": "getEquippedRelics",
			"outputs": [
				{
					"internalType": "uint256[3]",
					"name": "",
					"type": "uint256[3]"
				}
			],
			"stateMutability": "view",
			"type": "function"
		},
		{
			"inputs": [
				{
					"internalType": "address",
					"name": "player",
					"type": "address"
				}
			],
			"name": "getLastBattleResult",
			"outputs": [
				{
					"internalType": "bool",
					"name": "",
					"type": "bool"
				},
				{
					"internalType": "uint16[]",
					"name": "",
					"type": "uint16[]"
				},
				{
					"internalType": "uint16[]",
					"name": "",
					"type": "uint16[]"
				},
				{
					"internalType": "bytes32",
					"name": "",
					"type": "bytes32"
				},
				{
					"components": [
						{
							"internalType": "uint8",
							"name": "round",
							"type": "uint8"
						},
						{
							"internalType": "bool",
							"name": "isPlayerSide",
							"type": "bool"
						},
						{
							"internalType": "uint8",
							"name": "attackerIndex",
							"type": "uint8"
						},
						{
							"internalType": "uint8",
							"name": "targetIndex",
							"type": "uint8"
						},
						{
							"internalType": "uint16",
							"name": "damage",
							"type": "uint16"
						},
						{
							"internalType": "uint16",
							"name": "damageDealt",
							"type": "uint16"
						},
						{
							"internalType": "uint16",
							"name": "initialHp",
							"type": "uint16"
						},
						{
							"internalType": "uint16",
							"name": "remainingHp",
							"type": "uint16"
						},
						{
							"internalType": "string",
							"name": "specialEffect",
							"type": "string"
						},
						{
							"internalType": "uint8",
							"name": "attackerRarity",
							"type": "uint8"
						},
						{
							"internalType": "uint8",
							"name": "attackerClass",
							"type": "uint8"
						},
						{
							"internalType": "uint8",
							"name": "targetRarity",
							"type": "uint8"
						},
						{
							"internalType": "uint8",
							"name": "targetClass",
							"type": "uint8"
						}
					],
					"internalType": "struct StarForgeBattleLibrary.BattleEvent[]",
					"name": "",
					"type": "tuple[]"
				}
			],
			"stateMutability": "view",
			"type": "function"
		},
		{
			"inputs": [
				{
					"internalType": "address",
					"name": "player",
					"type": "address"
				}
			],
			"name": "getPlayerRelics",
			"outputs": [
				{
					"internalType": "uint256[]",
					"name": "",
					"type": "uint256[]"
				}
			],
			"stateMutability": "view",
			"type": "function"
		},
		{
			"inputs": [
				{
					"internalType": "address",
					"name": "player",
					"type": "address"
				}
			],
			"name": "getPlayerShop",
			"outputs": [
				{
					"components": [
						{
							"internalType": "bool",
							"name": "isRelic",
							"type": "bool"
						},
						{
							"internalType": "uint256",
							"name": "id",
							"type": "uint256"
						},
						{
							"internalType": "uint8",
							"name": "faction",
							"type": "uint8"
						},
						{
							"internalType": "uint8",
							"name": "rarity",
							"type": "uint8"
						},
						{
							"internalType": "uint8",
							"name": "unitClass",
							"type": "uint8"
						},
						{
							"internalType": "uint8",
							"name": "attack",
							"type": "uint8"
						},
						{
							"internalType": "uint8",
							"name": "defense",
							"type": "uint8"
						},
						{
							"internalType": "uint8",
							"name": "speed",
							"type": "uint8"
						},
						{
							"internalType": "uint8",
							"name": "relicType",
							"type": "uint8"
						},
						{
							"internalType": "uint8",
							"name": "relicValue",
							"type": "uint8"
						}
					],
					"internalType": "struct StarForgeGame.ShopItem[3]",
					"name": "",
					"type": "tuple[3]"
				}
			],
			"stateMutability": "view",
			"type": "function"
		},
		{
			"inputs": [
				{
					"internalType": "address",
					"name": "player",
					"type": "address"
				}
			],
			"name": "getPlayerUnits",
			"outputs": [
				{
					"internalType": "uint256[]",
					"name": "",
					"type": "uint256[]"
				}
			],
			"stateMutability": "view",
			"type": "function"
		},
		{
			"inputs": [
				{
					"internalType": "address",
					"name": "",
					"type": "address"
				}
			],
			"name": "hasProfile",
			"outputs": [
				{
					"internalType": "bool",
					"name": "",
					"type": "bool"
				}
			],
			"stateMutability": "view",
			"type": "function"
		},
		{
			"inputs": [
				{
					"internalType": "address",
					"name": "",
					"type": "address"
				},
				{
					"internalType": "uint256",
					"name": "",
					"type": "uint256"
				}
			],
			"name": "lastAI",
			"outputs": [
				{
					"internalType": "bool",
					"name": "isRelic",
					"type": "bool"
				},
				{
					"internalType": "uint256",
					"name": "id",
					"type": "uint256"
				},
				{
					"internalType": "uint8",
					"name": "faction",
					"type": "uint8"
				},
				{
					"internalType": "uint8",
					"name": "rarity",
					"type": "uint8"
				},
				{
					"internalType": "uint8",
					"name": "unitClass",
					"type": "uint8"
				},
				{
					"internalType": "uint8",
					"name": "attack",
					"type": "uint8"
				},
				{
					"internalType": "uint8",
					"name": "defense",
					"type": "uint8"
				},
				{
					"internalType": "uint8",
					"name": "speed",
					"type": "uint8"
				},
				{
					"internalType": "uint8",
					"name": "relicType",
					"type": "uint8"
				},
				{
					"internalType": "uint8",
					"name": "relicValue",
					"type": "uint8"
				}
			],
			"stateMutability": "view",
			"type": "function"
		},
		{
			"inputs": [
				{
					"internalType": "address",
					"name": "",
					"type": "address"
				},
				{
					"internalType": "uint256",
					"name": "",
					"type": "uint256"
				}
			],
			"name": "lastAIMaxHp",
			"outputs": [
				{
					"internalType": "uint16",
					"name": "",
					"type": "uint16"
				}
			],
			"stateMutability": "view",
			"type": "function"
		},
		{
			"inputs": [],
			"name": "lastBattleId",
			"outputs": [
				{
					"internalType": "bytes32",
					"name": "",
					"type": "bytes32"
				}
			],
			"stateMutability": "view",
			"type": "function"
		},
		{
			"inputs": [
				{
					"internalType": "address",
					"name": "",
					"type": "address"
				},
				{
					"internalType": "uint256",
					"name": "",
					"type": "uint256"
				}
			],
			"name": "lastPlayerMaxHp",
			"outputs": [
				{
					"internalType": "uint16",
					"name": "",
					"type": "uint16"
				}
			],
			"stateMutability": "view",
			"type": "function"
		},
		{
			"inputs": [
				{
					"internalType": "address",
					"name": "",
					"type": "address"
				}
			],
			"name": "lastPlayerWon",
			"outputs": [
				{
					"internalType": "bool",
					"name": "",
					"type": "bool"
				}
			],
			"stateMutability": "view",
			"type": "function"
		},
		{
			"inputs": [],
			"name": "owner",
			"outputs": [
				{
					"internalType": "address",
					"name": "",
					"type": "address"
				}
			],
			"stateMutability": "view",
			"type": "function"
		},
		{
			"inputs": [],
			"name": "pause",
			"outputs": [],
			"stateMutability": "nonpayable",
			"type": "function"
		},
		{
			"inputs": [],
			"name": "paused",
			"outputs": [
				{
					"internalType": "bool",
					"name": "",
					"type": "bool"
				}
			],
			"stateMutability": "view",
			"type": "function"
		},
		{
			"inputs": [
				{
					"internalType": "address",
					"name": "",
					"type": "address"
				},
				{
					"internalType": "uint256",
					"name": "",
					"type": "uint256"
				}
			],
			"name": "playerRelics",
			"outputs": [
				{
					"internalType": "uint256",
					"name": "",
					"type": "uint256"
				}
			],
			"stateMutability": "view",
			"type": "function"
		},
		{
			"inputs": [
				{
					"internalType": "address",
					"name": "",
					"type": "address"
				},
				{
					"internalType": "uint256",
					"name": "",
					"type": "uint256"
				}
			],
			"name": "playerShop",
			"outputs": [
				{
					"internalType": "bool",
					"name": "isRelic",
					"type": "bool"
				},
				{
					"internalType": "uint256",
					"name": "id",
					"type": "uint256"
				},
				{
					"internalType": "uint8",
					"name": "faction",
					"type": "uint8"
				},
				{
					"internalType": "uint8",
					"name": "rarity",
					"type": "uint8"
				},
				{
					"internalType": "uint8",
					"name": "unitClass",
					"type": "uint8"
				},
				{
					"internalType": "uint8",
					"name": "attack",
					"type": "uint8"
				},
				{
					"internalType": "uint8",
					"name": "defense",
					"type": "uint8"
				},
				{
					"internalType": "uint8",
					"name": "speed",
					"type": "uint8"
				},
				{
					"internalType": "uint8",
					"name": "relicType",
					"type": "uint8"
				},
				{
					"internalType": "uint8",
					"name": "relicValue",
					"type": "uint8"
				}
			],
			"stateMutability": "view",
			"type": "function"
		},
		{
			"inputs": [
				{
					"internalType": "address",
					"name": "",
					"type": "address"
				},
				{
					"internalType": "uint256",
					"name": "",
					"type": "uint256"
				}
			],
			"name": "playerUnits",
			"outputs": [
				{
					"internalType": "uint256",
					"name": "",
					"type": "uint256"
				}
			],
			"stateMutability": "view",
			"type": "function"
		},
		{
			"inputs": [
				{
					"internalType": "address",
					"name": "",
					"type": "address"
				}
			],
			"name": "profiles",
			"outputs": [
				{
					"internalType": "uint16",
					"name": "level",
					"type": "uint16"
				},
				{
					"internalType": "uint32",
					"name": "xp",
					"type": "uint32"
				},
				{
					"internalType": "uint256",
					"name": "wins",
					"type": "uint256"
				},
				{
					"internalType": "uint256",
					"name": "losses",
					"type": "uint256"
				},
				{
					"internalType": "uint16",
					"name": "currentAITier",
					"type": "uint16"
				}
			],
			"stateMutability": "view",
			"type": "function"
		},
		{
			"inputs": [],
			"name": "relicContract",
			"outputs": [
				{
					"internalType": "contract StarForgeRelic",
					"name": "",
					"type": "address"
				}
			],
			"stateMutability": "view",
			"type": "function"
		},
		{
			"inputs": [],
			"name": "renounceOwnership",
			"outputs": [],
			"stateMutability": "nonpayable",
			"type": "function"
		},
		{
			"inputs": [],
			"name": "rerollPrice",
			"outputs": [
				{
					"internalType": "uint256",
					"name": "",
					"type": "uint256"
				}
			],
			"stateMutability": "view",
			"type": "function"
		},
		{
			"inputs": [],
			"name": "rerollShop",
			"outputs": [],
			"stateMutability": "payable",
			"type": "function"
		},
		{
			"inputs": [
				{
					"internalType": "uint256",
					"name": "_buyUnitPrice",
					"type": "uint256"
				},
				{
					"internalType": "uint256",
					"name": "_rerollPrice",
					"type": "uint256"
				},
				{
					"internalType": "uint256",
					"name": "_buyUnitShopPrice",
					"type": "uint256"
				},
				{
					"internalType": "uint256",
					"name": "_buyRelicShopPrice",
					"type": "uint256"
				}
			],
			"name": "setPrices",
			"outputs": [],
			"stateMutability": "nonpayable",
			"type": "function"
		},
		{
			"inputs": [
				{
					"internalType": "address",
					"name": "_relic",
					"type": "address"
				}
			],
			"name": "setRelicContract",
			"outputs": [],
			"stateMutability": "nonpayable",
			"type": "function"
		},
		{
			"inputs": [
				{
					"internalType": "address",
					"name": "_unitNFT",
					"type": "address"
				}
			],
			"name": "setUnitNFT",
			"outputs": [],
			"stateMutability": "nonpayable",
			"type": "function"
		},
		{
			"inputs": [
				{
					"internalType": "uint256[]",
					"name": "team",
					"type": "uint256[]"
				},
				{
					"internalType": "uint256[]",
					"name": "equipped",
					"type": "uint256[]"
				}
			],
			"name": "startMatch",
			"outputs": [],
			"stateMutability": "nonpayable",
			"type": "function"
		},
		{
			"inputs": [
				{
					"internalType": "address",
					"name": "newOwner",
					"type": "address"
				}
			],
			"name": "transferOwnership",
			"outputs": [],
			"stateMutability": "nonpayable",
			"type": "function"
		},
		{
			"inputs": [],
			"name": "unitNFT",
			"outputs": [
				{
					"internalType": "contract StarForgeUnitNFT",
					"name": "",
					"type": "address"
				}
			],
			"stateMutability": "view",
			"type": "function"
		},
		{
			"inputs": [],
			"name": "unpause",
			"outputs": [],
			"stateMutability": "nonpayable",
			"type": "function"
		},
		{
			"inputs": [],
			"name": "withdraw",
			"outputs": [],
			"stateMutability": "nonpayable",
			"type": "function"
		}
	]
}