{
	"data": {
		"bytecode": {
			"linkReferences": {},
			"object": "608060405234801561000f575f5ffd5b50604051614f41380380614f418339818101604052810190610031919061026d565b335f73ffffffffffffffffffffffffffffffffffffffff168173ffffffffffffffffffffffffffffffffffffffff16036100a2575f6040517f1e4fbdf700000000000000000000000000000000000000000000000000000000815260040161009991906102a7565b60405180910390fd5b6100b18161011c60201b60201c565b5060016100d06100c56101dd60201b60201c565b61020660201b60201c565b5f01819055508060015f6101000a81548173ffffffffffffffffffffffffffffffffffffffff021916908373ffffffffffffffffffffffffffffffffffffffff160217905550506102c0565b5f5f5f9054906101000a900473ffffffffffffffffffffffffffffffffffffffff169050815f5f6101000a81548173ffffffffffffffffffffffffffffffffffffffff021916908373ffffffffffffffffffffffffffffffffffffffff1602179055508173ffffffffffffffffffffffffffffffffffffffff168173ffffffffffffffffffffffffffffffffffffffff167f8be0079c531659141344cd1fd0a4f28419497f9722a3daafe3b4186f6b6457e060405160405180910390a35050565b5f7f9b779b17422d0df92223018b32b4d1fa46e071723d6817e2486d003becc55f005f1b905090565b5f819050919050565b5f5ffd5b5f73ffffffffffffffffffffffffffffffffffffffff82169050919050565b5f61023c82610213565b9050919050565b61024c81610232565b8114610256575f5ffd5b50565b5f8151905061026781610243565b92915050565b5f602082840312156102825761028161020f565b5b5f61028f84828501610259565b91505092915050565b6102a181610232565b82525050565b5f6020820190506102ba5f830184610298565b92915050565b614c74806102cd5f395ff3fe608060405260043610610134575f3560e01c80637f570e2b116100aa578063b654823e1161006e578063b654823e14610391578063b92a40ad146103ad578063bbe15627146103d7578063c99ae45f14610416578063d6691c2714610452578063f2fde38b1461049357610134565b80637f570e2b146102be5780638456cb59146102e657806384d38fdc146102fc5780638da5cb5b1461033d5780639f51758e1461036757610134565b80634ef2d6c1116100fc5780634ef2d6c1146101b45780635c975abb146101f05780636154ee971461021a578063705fe4be14610256578063715018a6146102805780637e5c4f8b1461029657610134565b8063201738e21461013857806329de58d1146101425780633ccfd60b1461014c5780633f4ba83a1461016257806349c7c24a14610178575b5f5ffd5b6101406104bb565b005b61014a6108a4565b005b348015610157575f5ffd5b50610160610947565b005b34801561016d575f5ffd5b5061017661099c565b005b348015610183575f5ffd5b5061019e600480360381019061019991906137f5565b6109ae565b6040516101ab9190613a49565b60405180910390f35b3480156101bf575f5ffd5b506101da60048036038101906101d59190613a96565b610b3a565b6040516101e79190613ae3565b60405180910390f35b3480156101fb575f5ffd5b50610204610b65565b6040516102119190613b16565b60405180910390f35b348015610225575f5ffd5b50610240600480360381019061023b91906137f5565b610b7a565b60405161024d9190613be6565b60405180910390f35b348015610261575f5ffd5b5061026a610c0d565b6040516102779190613ae3565b60405180910390f35b34801561028b575f5ffd5b50610294610c18565b005b3480156102a1575f5ffd5b506102bc60048036038101906102b791906137f5565b610c2b565b005b3480156102c9575f5ffd5b506102e460048036038101906102df9190613c67565b610c76565b005b3480156102f1575f5ffd5b506102fa611798565b005b348015610307575f5ffd5b50610322600480360381019061031d9190613a96565b6117aa565b60405161033496959493929190613cee565b60405180910390f35b348015610348575f5ffd5b50610351611839565b60405161035e9190613d5c565b60405180910390f35b348015610372575f5ffd5b5061037b611860565b6040516103889190613ae3565b60405180910390f35b6103ab60048036038101906103a69190613d75565b61186b565b005b3480156103b8575f5ffd5b506103c1611ce3565b6040516103ce9190613dfb565b60405180910390f35b3480156103e2575f5ffd5b506103fd60048036038101906103f891906137f5565b611d08565b60405161040d9493929190613e4e565b60405180910390f35b348015610421575f5ffd5b5061043c600480360381019061043791906137f5565b611d50565b6040516104499190613f22565b60405180910390f35b34801561045d575f5ffd5b5061047860048036038101906104739190613a96565b611ee6565b60405161048a96959493929190613cee565b60405180910390f35b34801561049e575f5ffd5b506104b960048036038101906104b491906137f5565b611f7c565b005b6104c3612000565b6104cb612041565b66038d7ea4c680003414610514576040517f08c379a000000000000000000000000000000000000000000000000000000000815260040161050b90613f9c565b60405180910390fd5b5f423360015f9054906101000a900473ffffffffffffffffffffffffffffffffffffffff1673ffffffffffffffffffffffffffffffffffffffff166318160ddd6040518163ffffffff1660e01b8152600401602060405180830381865afa158015610581573d5f5f3e3d5ffd5b505050506040513d601f19601f820116820180604052508101906105a59190613fce565b6040516020016105b79392919061405e565b604051602081830303815290604052805190602001205f1c90505f6003826105df91906140c7565b60ff1660028111156105f4576105f361383d565b5b90505f610603836103e7612063565b90505f6004600885901c61061791906140c7565b60ff16600381111561062c5761062b61383d565b5b90505f6006601086901c61064091906140c7565b600561064c9190614124565b90505f6006601887901c61066091906140c7565b600461066c9190614124565b90505f6006602088901c61068091906140c7565b600561068c9190614124565b9050600160028111156106a2576106a161383d565b5b8560028111156106b5576106b461383d565b5b036106ec576002836106c79190614124565b92506002826106d69190614124565b91506001816106e59190614124565b9050610746565b6002808111156106ff576106fe61383d565b5b8560028111156107125761071161383d565b5b03610745576004836107249190614124565b92506003826107339190614124565b91506003816107429190614124565b90505b5b5f60015f9054906101000a900473ffffffffffffffffffffffffffffffffffffffff1673ffffffffffffffffffffffffffffffffffffffff166371dec088338989898989896040518863ffffffff1660e01b81526004016107ad9796959493929190614158565b6020604051808303815f875af11580156107c9573d5f5f3e3d5ffd5b505050506040513d601f19601f820116820180604052508101906107ed9190613fce565b905060055f3373ffffffffffffffffffffffffffffffffffffffff1673ffffffffffffffffffffffffffffffffffffffff1681526020019081526020015f2081908060018154018082558091505060019003905f5260205f20015f9091909190915055610859336120cf565b7fdded256c7e86a19d1be0f3168d1ec8d5cfc9c713c96bdc10defadd014692cf92338260405161088a9291906141c5565b60405180910390a150505050505050506108a2612232565b565b6108ac612000565b6108b4612041565b6601c6bf5263400034146108fd576040517f08c379a00000000000000000000000000000000000000000000000000000000081526004016108f490614236565b60405180910390fd5b6109063361224c565b7fb1b757afec988e099a59bc127abea15824bf7acc7137103e4197ef22a9afad11336040516109359190613d5c565b60405180910390a1610945612232565b565b61094f612695565b610957611839565b73ffffffffffffffffffffffffffffffffffffffff166108fc4790811502906040515f60405180830381858888f19350505050158015610999573d5f5f3e3d5ffd5b50565b6109a4612695565b6109ac61271c565b565b6109b6613626565b60035f8373ffffffffffffffffffffffffffffffffffffffff1673ffffffffffffffffffffffffffffffffffffffff1681526020019081526020015f20600580602002604051908101604052809291905f905b82821015610b2f578382016040518060c00160405290815f82015f9054906101000a900460ff166002811115610a4257610a4161383d565b5b6002811115610a5457610a5361383d565b5b81526020015f820160019054906101000a900460ff166002811115610a7c57610a7b61383d565b5b6002811115610a8e57610a8d61383d565b5b81526020015f820160029054906101000a900460ff166003811115610ab657610ab561383d565b5b6003811115610ac857610ac761383d565b5b81526020015f820160039054906101000a900460ff1660ff1660ff1681526020015f820160049054906101000a900460ff1660ff1660ff1681526020015f820160059054906101000a900460ff1660ff1660ff168152505081526020019060010190610a09565b505050509050919050565b6005602052815f5260405f208181548110610b53575f80fd5b905f5260205f20015f91509150505481565b5f5f60149054906101000a900460ff16905090565b606060055f8373ffffffffffffffffffffffffffffffffffffffff1673ffffffffffffffffffffffffffffffffffffffff1681526020019081526020015f20805480602002602001604051908101604052809291908181526020018280548015610c0157602002820191905f5260205f20905b815481526020019060010190808311610bed575b50505050509050919050565b66038d7ea4c6800081565b610c20612695565b610c295f61277d565b565b610c33612695565b8060015f6101000a81548173ffffffffffffffffffffffffffffffffffffffff021916908373ffffffffffffffffffffffffffffffffffffffff16021790555050565b610c7e612000565b610c86612041565b60048282905010158015610c9e575060088282905011155b610cdd576040517f08c379a0000000000000000000000000000000000000000000000000000000008152600401610cd49061429e565b60405180910390fd5b5f5f90505b82829050811015610e19573373ffffffffffffffffffffffffffffffffffffffff1660015f9054906101000a900473ffffffffffffffffffffffffffffffffffffffff1673ffffffffffffffffffffffffffffffffffffffff16636352211e858585818110610d5457610d536142bc565b5b905060200201356040518263ffffffff1660e01b8152600401610d779190613ae3565b602060405180830381865afa158015610d92573d5f5f3e3d5ffd5b505050506040513d601f19601f82011682018060405250810190610db691906142fd565b73ffffffffffffffffffffffffffffffffffffffff1614610e0c576040517f08c379a0000000000000000000000000000000000000000000000000000000008152600401610e0390614372565b60405180910390fd5b8080600101915050610ce2565b505f60045f3373ffffffffffffffffffffffffffffffffffffffff1673ffffffffffffffffffffffffffffffffffffffff1681526020019081526020015f20805480602002602001604051908101604052809291908181526020015f905b82821015610fa4578382905f5260205f20016040518060c00160405290815f82015f9054906101000a900460ff166002811115610eb757610eb661383d565b5b6002811115610ec957610ec861383d565b5b81526020015f820160019054906101000a900460ff166002811115610ef157610ef061383d565b5b6002811115610f0357610f0261383d565b5b81526020015f820160029054906101000a900460ff166003811115610f2b57610f2a61383d565b5b6003811115610f3d57610f3c61383d565b5b81526020015f820160039054906101000a900460ff1660ff1660ff1681526020015f820160049054906101000a900460ff1660ff1660ff1681526020015f820160059054906101000a900460ff1660ff1660ff168152505081526020019060010190610e77565b5050505090505f81510361114b57610fbb3361283e565b60045f3373ffffffffffffffffffffffffffffffffffffffff1673ffffffffffffffffffffffffffffffffffffffff1681526020019081526020015f20805480602002602001604051908101604052809291908181526020015f905b82821015611144578382905f5260205f20016040518060c00160405290815f82015f9054906101000a900460ff1660028111156110575761105661383d565b5b60028111156110695761106861383d565b5b81526020015f820160019054906101000a900460ff1660028111156110915761109061383d565b5b60028111156110a3576110a261383d565b5b81526020015f820160029054906101000a900460ff1660038111156110cb576110ca61383d565b5b60038111156110dd576110dc61383d565b5b81526020015f820160039054906101000a900460ff1660ff1660ff1681526020015f820160049054906101000a900460ff1660ff1660ff1681526020015f820160059054906101000a900460ff1660ff1660ff168152505081526020019060010190611017565b5050505090505b5f5f6111578585612e1c565b915091505f611165846130fe565b5090505f42334460405160200161117e9392919061405e565b604051602081830303815290604052805190602001205f1c90505f60198460ff166111a99190614390565b6032836111b691906140c7565b866111c191906143d1565b6111cb91906143d1565b90505f602d604084901c6111df91906140c7565b846111ea91906143d1565b90505f81831190506111fc3382613345565b5f8161120957600161120c565b60035b60ff1690505f8167ffffffffffffffff81111561122c5761122b614404565b5b60405190808252806020026020018201604052801561125a5781602001602082028036833780820191505090505b5090505f5f905060015f9054906101000a900473ffffffffffffffffffffffffffffffffffffffff1673ffffffffffffffffffffffffffffffffffffffff166371dec08833600342336040516020016112b4929190614431565b604051602081830303815290604052805190602001205f1c6112d691906140c7565b60ff1660028111156112eb576112ea61383d565b5b5f5f60058060066040518863ffffffff1660e01b815260040161131497969594939291906144ce565b6020604051808303815f875af1158015611330573d5f5f3e3d5ffd5b505050506040513d601f19601f820116820180604052508101906113549190613fce565b8282806113609061453b565b935081518110611373576113726142bc565b5b60200260200101818152505083156115d65760015f9054906101000a900473ffffffffffffffffffffffffffffffffffffffff1673ffffffffffffffffffffffffffffffffffffffff166371dec088336003423360016040516020016113db9392919061405e565b604051602081830303815290604052805190602001205f1c6113fd91906140c7565b60ff1660028111156114125761141161383d565b5b60018060078060076040518863ffffffff1660e01b815260040161143c97969594939291906145bb565b6020604051808303815f875af1158015611458573d5f5f3e3d5ffd5b505050506040513d601f19601f8201168201806040525081019061147c9190613fce565b8282806114889061453b565b93508151811061149b5761149a6142bc565b5b60200260200101818152505060028960ff16106115d55760015f9054906101000a900473ffffffffffffffffffffffffffffffffffffffff1673ffffffffffffffffffffffffffffffffffffffff166371dec088336003423360026040516020016115089392919061405e565b604051602081830303815290604052805190602001205f1c61152a91906140c7565b60ff16600281111561153f5761153e61383d565b5b60028060098060086040518863ffffffff1660e01b8152600401611569979695949392919061469a565b6020604051808303815f875af1158015611585573d5f5f3e3d5ffd5b505050506040513d601f19601f820116820180604052508101906115a99190613fce565b8282806115b59061453b565b9350815181106115c8576115c76142bc565b5b6020026020010181815250505b5b5f8367ffffffffffffffff8111156115f1576115f0614404565b5b60405190808252806020026020018201604052801561161f5781602001602082028036833780820191505090505b5090505f5f90505b848110156116f157838181518110611642576116416142bc565b5b602002602001015182828151811061165d5761165c6142bc565b5b60200260200101818152505060055f3373ffffffffffffffffffffffffffffffffffffffff1673ffffffffffffffffffffffffffffffffffffffff1681526020019081526020015f208482815181106116b9576116b86142bc565b5b6020026020010151908060018154018082558091505060019003905f5260205f20015f90919091909150558080600101915050611627565b5084156117415760045f3373ffffffffffffffffffffffffffffffffffffffff1673ffffffffffffffffffffffffffffffffffffffff1681526020019081526020015f205f6117409190613653565b5b7fe5ea426f1b256fa31597cf9f5e138dd78d805a5518b5a5b9045b30bbd778360a3386898985604051611778959493929190614707565b60405180910390a1505050505050505050505050611794612232565b5050565b6117a0612695565b6117a86134ee565b565b6003602052815f5260405f2081600581106117c3575f80fd5b015f9150915050805f015f9054906101000a900460ff1690805f0160019054906101000a900460ff1690805f0160029054906101000a900460ff1690805f0160039054906101000a900460ff1690805f0160049054906101000a900460ff1690805f0160059054906101000a900460ff16905086565b5f5f5f9054906101000a900473ffffffffffffffffffffffffffffffffffffffff16905090565b6601c6bf5263400081565b611873612000565b61187b612041565b66038d7ea4c6800034146118c4576040517f08c379a00000000000000000000000000000000000000000000000000000000081526004016118bb90613f9c565b60405180910390fd5b60058110611907576040517f08c379a00000000000000000000000000000000000000000000000000000000081526004016118fe906147a9565b60405180910390fd5b5f60035f3373ffffffffffffffffffffffffffffffffffffffff1673ffffffffffffffffffffffffffffffffffffffff1681526020019081526020015f208260058110611957576119566142bc565b5b016040518060c00160405290815f82015f9054906101000a900460ff1660028111156119865761198561383d565b5b60028111156119985761199761383d565b5b81526020015f820160019054906101000a900460ff1660028111156119c0576119bf61383d565b5b60028111156119d2576119d161383d565b5b81526020015f820160029054906101000a900460ff1660038111156119fa576119f961383d565b5b6003811115611a0c57611a0b61383d565b5b81526020015f820160039054906101000a900460ff1660ff1660ff1681526020015f820160049054906101000a900460ff1660ff1660ff1681526020015f820160059054906101000a900460ff1660ff1660ff168152505090505f816060015160ff1611611aaf576040517f08c379a0000000000000000000000000000000000000000000000000000000008152600401611aa690614811565b60405180910390fd5b5f60015f9054906101000a900473ffffffffffffffffffffffffffffffffffffffff1673ffffffffffffffffffffffffffffffffffffffff166371dec08833845f015185602001518660400151876060015188608001518960a001516040518863ffffffff1660e01b8152600401611b2d9796959493929190614158565b6020604051808303815f875af1158015611b49573d5f5f3e3d5ffd5b505050506040513d601f19601f82011682018060405250810190611b6d9190613fce565b905060055f3373ffffffffffffffffffffffffffffffffffffffff1673ffffffffffffffffffffffffffffffffffffffff1681526020019081526020015f2081908060018154018082558091505060019003905f5260205f20015f909190919091505560035f3373ffffffffffffffffffffffffffffffffffffffff1673ffffffffffffffffffffffffffffffffffffffff1681526020019081526020015f208360058110611c1f57611c1e6142bc565b5b015f5f82015f6101000a81549060ff02191690555f820160016101000a81549060ff02191690555f820160026101000a81549060ff02191690555f820160036101000a81549060ff02191690555f820160046101000a81549060ff02191690555f820160056101000a81549060ff02191690555050611c9d336120cf565b7fdded256c7e86a19d1be0f3168d1ec8d5cfc9c713c96bdc10defadd014692cf923382604051611cce9291906141c5565b60405180910390a15050611ce0612232565b50565b60015f9054906101000a900473ffffffffffffffffffffffffffffffffffffffff1681565b6002602052805f5260405f205f91509050805f015f9054906101000a900461ffff1690805f0160029054906101000a900463ffffffff16908060010154908060020154905084565b606060045f8373ffffffffffffffffffffffffffffffffffffffff1673ffffffffffffffffffffffffffffffffffffffff1681526020019081526020015f20805480602002602001604051908101604052809291908181526020015f905b82821015611edb578382905f5260205f20016040518060c00160405290815f82015f9054906101000a900460ff166002811115611dee57611ded61383d565b5b6002811115611e0057611dff61383d565b5b81526020015f820160019054906101000a900460ff166002811115611e2857611e2761383d565b5b6002811115611e3a57611e3961383d565b5b81526020015f820160029054906101000a900460ff166003811115611e6257611e6161383d565b5b6003811115611e7457611e7361383d565b5b81526020015f820160039054906101000a900460ff1660ff1660ff1681526020015f820160049054906101000a900460ff1660ff1660ff1681526020015f820160059054906101000a900460ff1660ff1660ff168152505081526020019060010190611dae565b505050509050919050565b6004602052815f5260405f208181548110611eff575f80fd5b905f5260205f20015f9150915050805f015f9054906101000a900460ff1690805f0160019054906101000a900460ff1690805f0160029054906101000a900460ff1690805f0160039054906101000a900460ff1690805f0160049054906101000a900460ff1690805f0160059054906101000a900460ff16905086565b611f84612695565b5f73ffffffffffffffffffffffffffffffffffffffff168173ffffffffffffffffffffffffffffffffffffffff1603611ff4575f6040517f1e4fbdf7000000000000000000000000000000000000000000000000000000008152600401611feb9190613d5c565b60405180910390fd5b611ffd8161277d565b50565b612008610b65565b1561203f576040517fd93c066500000000000000000000000000000000000000000000000000000000815260040160405180910390fd5b565b612049613550565b600261205b612056613591565b6135ba565b5f0181905550565b5f5f6064848460405160200161207a92919061482f565b604051602081830303815290604052805190602001205f1c61209c91906140c7565b905060418110156120b0575f9150506120c9565b605a8110156120c35760019150506120c9565b60029150505b92915050565b5f60025f8373ffffffffffffffffffffffffffffffffffffffff1673ffffffffffffffffffffffffffffffffffffffff1681526020019081526020015f2090505f815f015f9054906101000a900461ffff1661ffff1603612149576001815f015f6101000a81548161ffff021916908361ffff1602179055505b600a815f0160028282829054906101000a900463ffffffff1661216c919061485a565b92506101000a81548163ffffffff021916908363ffffffff1602179055506064815f015f9054906101000a900461ffff1661ffff166121ab9190614891565b63ffffffff16815f0160029054906101000a900463ffffffff1663ffffffff161061222e57805f015f81819054906101000a900461ffff16809291906121f0906148cd565b91906101000a81548161ffff021916908361ffff160217905550505f815f0160026101000a81548163ffffffff021916908363ffffffff1602179055505b5050565b600161224461223f613591565b6135ba565b5f0181905550565b5f428260015f9054906101000a900473ffffffffffffffffffffffffffffffffffffffff1673ffffffffffffffffffffffffffffffffffffffff166318160ddd6040518163ffffffff1660e01b8152600401602060405180830381865afa1580156122b9573d5f5f3e3d5ffd5b505050506040513d601f19601f820116820180604052508101906122dd9190613fce565b446040516020016122f194939291906148f6565b604051602081830303815290604052805190602001205f1c90505f5f90505b6005811015612690575f60036008836123299190614390565b84901c61233691906140c7565b60ff16600281111561234b5761234a61383d565b5b90505f6123588484612063565b90505f6004600860108661236c9190614390565b61237691906143d1565b86901c61238391906140c7565b60ff1660038111156123985761239761383d565b5b90505f60056018866123aa9190614390565b87901c6123b791906140c7565b60046123c39190614124565b90505f60056020876123d59190614390565b88901c6123e291906140c7565b60046123ee9190614124565b90505f60056028886124009190614390565b89901c61240d91906140c7565b60046124199190614124565b90506001600281111561242f5761242e61383d565b5b8560028111156124425761244161383d565b5b03612479576002836124549190614124565b92506001826124639190614124565b91506001816124729190614124565b90506124d3565b60028081111561248c5761248b61383d565b5b85600281111561249f5761249e61383d565b5b036124d2576003836124b19190614124565b92506003826124c09190614124565b91506002816124cf9190614124565b90505b5b6040518060c001604052808760028111156124f1576124f061383d565b5b81526020018660028111156125095761250861383d565b5b81526020018560038111156125215761252061383d565b5b81526020018460ff1681526020018360ff1681526020018260ff1681525060035f8b73ffffffffffffffffffffffffffffffffffffffff1673ffffffffffffffffffffffffffffffffffffffff1681526020019081526020015f20886005811061258e5761258d6142bc565b5b015f820151815f015f6101000a81548160ff021916908360028111156125b7576125b661383d565b5b02179055506020820151815f0160016101000a81548160ff021916908360028111156125e6576125e561383d565b5b02179055506040820151815f0160026101000a81548160ff021916908360038111156126155761261461383d565b5b02179055506060820151815f0160036101000a81548160ff021916908360ff1602179055506080820151815f0160046101000a81548160ff021916908360ff16021790555060a0820151815f0160056101000a81548160ff021916908360ff1602179055509050505050505050508080600101915050612310565b505050565b61269d6135c3565b73ffffffffffffffffffffffffffffffffffffffff166126bb611839565b73ffffffffffffffffffffffffffffffffffffffff161461271a576126de6135c3565b6040517f118cdaa70000000000000000000000000000000000000000000000000000000081526004016127119190613d5c565b60405180910390fd5b565b6127246135ca565b5f5f60146101000a81548160ff0219169083151502179055507f5db9ee0a495bf2e6ff9c91a7834c1ba4fdd244a5e8aa4e537bd38aeae4b073aa6127666135c3565b6040516127739190613d5c565b60405180910390a1565b5f5f5f9054906101000a900473ffffffffffffffffffffffffffffffffffffffff169050815f5f6101000a81548173ffffffffffffffffffffffffffffffffffffffff021916908373ffffffffffffffffffffffffffffffffffffffff1602179055508173ffffffffffffffffffffffffffffffffffffffff168173ffffffffffffffffffffffffffffffffffffffff167f8be0079c531659141344cd1fd0a4f28419497f9722a3daafe3b4186f6b6457e060405160405180910390a35050565b5f60025f8373ffffffffffffffffffffffffffffffffffffffff1673ffffffffffffffffffffffffffffffffffffffff1681526020019081526020015f206040518060800160405290815f82015f9054906101000a900461ffff1661ffff1661ffff1681526020015f820160029054906101000a900463ffffffff1663ffffffff1663ffffffff1681526020016001820154815260200160028201548152505090505f5f825f015161ffff16116128f65760016128fb565b815f01515b90505f42848360015f9054906101000a900473ffffffffffffffffffffffffffffffffffffffff1673ffffffffffffffffffffffffffffffffffffffff166318160ddd6040518163ffffffff1660e01b8152600401602060405180830381865afa15801561296b573d5f5f3e3d5ffd5b505050506040513d601f19601f8201168201806040525081019061298f9190613fce565b446040516020016129a4959493929190614977565b604051602081830303815290604052805190602001205f1c90505f6004905060045f8673ffffffffffffffffffffffffffffffffffffffff1673ffffffffffffffffffffffffffffffffffffffff1681526020019081526020015f205f612a0b9190613653565b5f5f90505b8160ff16811015612ddb57612a23613671565b6003600883612a329190614390565b85901c612a3f91906140c7565b60ff166002811115612a5457612a5361383d565b5b815f01906002811115612a6a57612a6961383d565b5b90816002811115612a7e57612a7d61383d565b5b815250505f81602001906002811115612a9a57612a9961383d565b5b90816002811115612aae57612aad61383d565b5b815250506004601083612ac19190614390565b85901c612ace91906140c7565b60ff166003811115612ae357612ae261383d565b5b81604001906003811115612afa57612af961383d565b5b90816003811115612b0e57612b0d61383d565b5b815250505f600486612b2091906149d5565b6003612b2c9190614124565b905060066008602085612b3f9190614390565b612b4991906143d1565b86901c612b5691906140c7565b81612b619190614124565b826060019060ff16908160ff16815250506006602884612b819190614390565b86901c612b8e91906140c7565b81612b999190614124565b826080019060ff16908160ff16815250506006603084612bb99190614390565b86901c612bc691906140c7565b81612bd19190614124565b8260a0019060ff16908160ff1681525050600f6064603885612bf39190614390565b87901c612c0091906140c7565b60ff161015612c7f57600182602001906002811115612c2257612c2161383d565b5b90816002811115612c3657612c3561383d565b5b81525050600282606001818151612c4d9190614124565b91509060ff16908160ff1681525050600182608001818151612c6f9190614124565b91509060ff16908160ff16815250505b60045f8973ffffffffffffffffffffffffffffffffffffffff1673ffffffffffffffffffffffffffffffffffffffff1681526020019081526020015f2082908060018154018082558091505060019003905f5260205f20015f909190919091505f820151815f015f6101000a81548160ff02191690836002811115612d0757612d0661383d565b5b02179055506020820151815f0160016101000a81548160ff02191690836002811115612d3657612d3561383d565b5b02179055506040820151815f0160026101000a81548160ff02191690836003811115612d6557612d6461383d565b5b02179055506060820151815f0160036101000a81548160ff021916908360ff1602179055506080820151815f0160046101000a81548160ff021916908360ff16021790555060a0820151815f0160056101000a81548160ff021916908360ff160217905550505050508080600101915050612a10565b507fe21ebbecd481bd92987e725a0057707f7154c465084ebcc68cd42ff028da5e6b8584604051612e0d929190614a05565b60405180910390a15050505050565b5f5f5f5f90505f5f90505f5f9050612e326136e0565b5f5f90505b88889050811015612f8b575f60015f9054906101000a900473ffffffffffffffffffffffffffffffffffffffff1673ffffffffffffffffffffffffffffffffffffffff16631655bfbe8b8b85818110612e9357612e926142bc565b5b905060200201356040518263ffffffff1660e01b8152600401612eb69190613ae3565b60c060405180830381865afa158015612ed1573d5f5f3e3d5ffd5b505050506040513d601f19601f82011682018060405250810190612ef59190614bbb565b9050806060015160ff1686612f0a91906143d1565b9550806080015160ff1685612f1f91906143d1565b94508060a0015160ff1684612f3491906143d1565b935082815f01516002811115612f4d57612f4c61383d565b5b60ff1660038110612f6157612f606142bc565b5b602002018051809190612f7390614be6565b60ff1660ff1681525050508080600101915050612e37565b505f94506003815f6002811115612fa557612fa461383d565b5b60ff1660038110612fb957612fb86142bc565b5b602002015160ff1610612ff0576064608284612fd59190614390565b612fdf9190614c0e565b92508480612fec90614be6565b9550505b600381600160028111156130075761300661383d565b5b60ff166003811061301b5761301a6142bc565b5b602002015160ff16106130525760646091856130379190614390565b6130419190614c0e565b9350848061304e90614be6565b9550505b6003816002808111156130685761306761383d565b5b60ff166003811061307c5761307b6142bc565b5b602002015160ff16106130ce576064607d856130989190614390565b6130a29190614c0e565b93506064607d846130b39190614390565b6130bd9190614c0e565b925084806130ca90614be6565b9550505b6002826130db9190614390565b83856130e791906143d1565b6130f191906143d1565b9550505050509250929050565b5f5f5f5f90505f5f90505f5f90506131146136e0565b5f5f90505b87518110156131d4575f888281518110613136576131356142bc565b5b60200260200101519050806060015160ff168661315391906143d1565b9550806080015160ff168561316891906143d1565b94508060a0015160ff168461317d91906143d1565b935082815f015160028111156131965761319561383d565b5b60ff16600381106131aa576131a96142bc565b5b6020020180518091906131bc90614be6565b60ff1660ff1681525050508080600101915050613119565b505f94506003815f60028111156131ee576131ed61383d565b5b60ff1660038110613202576132016142bc565b5b602002015160ff161061323957606460828461321e9190614390565b6132289190614c0e565b9250848061323590614be6565b9550505b600381600160028111156132505761324f61383d565b5b60ff1660038110613264576132636142bc565b5b602002015160ff161061329b5760646091856132809190614390565b61328a9190614c0e565b9350848061329790614be6565b9550505b6003816002808111156132b1576132b061383d565b5b60ff16600381106132c5576132c46142bc565b5b602002015160ff1610613317576064607d856132e19190614390565b6132eb9190614c0e565b93506064607d846132fc9190614390565b6133069190614c0e565b9250848061331390614be6565b9550505b6002826133249190614390565b838561333091906143d1565b61333a91906143d1565b955050505050915091565b5f60025f8473ffffffffffffffffffffffffffffffffffffffff1673ffffffffffffffffffffffffffffffffffffffff1681526020019081526020015f20905081156133ea57806001015f81548092919061339f9061453b565b91905055506032815f0160028282829054906101000a900463ffffffff166133c7919061485a565b92506101000a81548163ffffffff021916908363ffffffff160217905550613445565b806002015f8154809291906133fe9061453b565b91905055506019815f0160028282829054906101000a900463ffffffff16613426919061485a565b92506101000a81548163ffffffff021916908363ffffffff1602179055505b6064815f015f9054906101000a900461ffff1661ffff166134669190614891565b63ffffffff16815f0160029054906101000a900463ffffffff1663ffffffff16106134e957805f015f81819054906101000a900461ffff16809291906134ab906148cd565b91906101000a81548161ffff021916908361ffff160217905550505f815f0160026101000a81548163ffffffff021916908363ffffffff1602179055505b505050565b6134f6612000565b60015f60146101000a81548160ff0219169083151502179055507f62e78cea01bee320cd4e420270b5ea74000d11b0c9f74754ebdbfc544b05a2586135396135c3565b6040516135469190613d5c565b60405180910390a1565b61355861360a565b1561358f576040517f3ee5aeb500000000000000000000000000000000000000000000000000000000815260040160405180910390fd5b565b5f7f9b779b17422d0df92223018b32b4d1fa46e071723d6817e2486d003becc55f005f1b905090565b5f819050919050565b5f33905090565b6135d2610b65565b613608576040517f8dfc202b00000000000000000000000000000000000000000000000000000000815260040160405180910390fd5b565b5f600261361d613618613591565b6135ba565b5f015414905090565b6040518060a001604052806005905b61363d613671565b8152602001906001900390816136355790505090565b5080545f8255905f5260205f209081019061366e9190613702565b50565b6040518060c001604052805f600281111561368f5761368e61383d565b5b81526020015f60028111156136a7576136a661383d565b5b81526020015f60038111156136bf576136be61383d565b5b81526020015f60ff1681526020015f60ff1681526020015f60ff1681525090565b6040518060600160405280600390602082028036833780820191505090505090565b5b80821115613786575f5f82015f6101000a81549060ff02191690555f820160016101000a81549060ff02191690555f820160026101000a81549060ff02191690555f820160036101000a81549060ff02191690555f820160046101000a81549060ff02191690555f820160056101000a81549060ff021916905550600101613703565b5090565b5f604051905090565b5f5ffd5b5f5ffd5b5f73ffffffffffffffffffffffffffffffffffffffff82169050919050565b5f6137c48261379b565b9050919050565b6137d4816137ba565b81146137de575f5ffd5b50565b5f813590506137ef816137cb565b92915050565b5f6020828403121561380a57613809613793565b5b5f613817848285016137e1565b91505092915050565b5f60059050919050565b5f81905092915050565b5f819050919050565b7f4e487b71000000000000000000000000000000000000000000000000000000005f52602160045260245ffd5b6003811061387b5761387a61383d565b5b50565b5f81905061388b8261386a565b919050565b5f61389a8261387e565b9050919050565b6138aa81613890565b82525050565b600381106138c1576138c061383d565b5b50565b5f8190506138d1826138b0565b919050565b5f6138e0826138c4565b9050919050565b6138f0816138d6565b82525050565b600481106139075761390661383d565b5b50565b5f819050613917826138f6565b919050565b5f6139268261390a565b9050919050565b6139368161391c565b82525050565b5f60ff82169050919050565b6139518161393c565b82525050565b60c082015f82015161396b5f8501826138a1565b50602082015161397e60208501826138e7565b506040820151613991604085018261392d565b5060608201516139a46060850182613948565b5060808201516139b76080850182613948565b5060a08201516139ca60a0850182613948565b50505050565b5f6139db8383613957565b60c08301905092915050565b5f602082019050919050565b6139fc81613820565b613a06818461382a565b9250613a1182613834565b805f5b83811015613a41578151613a2887826139d0565b9650613a33836139e7565b925050600181019050613a14565b505050505050565b5f6103c082019050613a5d5f8301846139f3565b92915050565b5f819050919050565b613a7581613a63565b8114613a7f575f5ffd5b50565b5f81359050613a9081613a6c565b92915050565b5f5f60408385031215613aac57613aab613793565b5b5f613ab9858286016137e1565b9250506020613aca85828601613a82565b9150509250929050565b613add81613a63565b82525050565b5f602082019050613af65f830184613ad4565b92915050565b5f8115159050919050565b613b1081613afc565b82525050565b5f602082019050613b295f830184613b07565b92915050565b5f81519050919050565b5f82825260208201905092915050565b5f819050602082019050919050565b613b6181613a63565b82525050565b5f613b728383613b58565b60208301905092915050565b5f602082019050919050565b5f613b9482613b2f565b613b9e8185613b39565b9350613ba983613b49565b805f5b83811015613bd9578151613bc08882613b67565b9750613bcb83613b7e565b925050600181019050613bac565b5085935050505092915050565b5f6020820190508181035f830152613bfe8184613b8a565b905092915050565b5f5ffd5b5f5ffd5b5f5ffd5b5f5f83601f840112613c2757613c26613c06565b5b8235905067ffffffffffffffff811115613c4457613c43613c0a565b5b602083019150836020820283011115613c6057613c5f613c0e565b5b9250929050565b5f5f60208385031215613c7d57613c7c613793565b5b5f83013567ffffffffffffffff811115613c9a57613c99613797565b5b613ca685828601613c12565b92509250509250929050565b613cbb81613890565b82525050565b613cca816138d6565b82525050565b613cd98161391c565b82525050565b613ce88161393c565b82525050565b5f60c082019050613d015f830189613cb2565b613d0e6020830188613cc1565b613d1b6040830187613cd0565b613d286060830186613cdf565b613d356080830185613cdf565b613d4260a0830184613cdf565b979650505050505050565b613d56816137ba565b82525050565b5f602082019050613d6f5f830184613d4d565b92915050565b5f60208284031215613d8a57613d89613793565b5b5f613d9784828501613a82565b91505092915050565b5f819050919050565b5f613dc3613dbe613db98461379b565b613da0565b61379b565b9050919050565b5f613dd482613da9565b9050919050565b5f613de582613dca565b9050919050565b613df581613ddb565b82525050565b5f602082019050613e0e5f830184613dec565b92915050565b5f61ffff82169050919050565b613e2a81613e14565b82525050565b5f63ffffffff82169050919050565b613e4881613e30565b82525050565b5f608082019050613e615f830187613e21565b613e6e6020830186613e3f565b613e7b6040830185613ad4565b613e886060830184613ad4565b95945050505050565b5f81519050919050565b5f82825260208201905092915050565b5f819050602082019050919050565b5f602082019050919050565b5f613ed082613e91565b613eda8185613e9b565b9350613ee583613eab565b805f5b83811015613f15578151613efc88826139d0565b9750613f0783613eba565b925050600181019050613ee8565b5085935050505092915050565b5f6020820190508181035f830152613f3a8184613ec6565b905092915050565b5f82825260208201905092915050565b7f496e636f7272656374207061796d656e740000000000000000000000000000005f82015250565b5f613f86601183613f42565b9150613f9182613f52565b602082019050919050565b5f6020820190508181035f830152613fb381613f7a565b9050919050565b5f81519050613fc881613a6c565b92915050565b5f60208284031215613fe357613fe2613793565b5b5f613ff084828501613fba565b91505092915050565b5f819050919050565b61401361400e82613a63565b613ff9565b82525050565b5f8160601b9050919050565b5f61402f82614019565b9050919050565b5f61404082614025565b9050919050565b614058614053826137ba565b614036565b82525050565b5f6140698286614002565b6020820191506140798285614047565b6014820191506140898284614002565b602082019150819050949350505050565b7f4e487b71000000000000000000000000000000000000000000000000000000005f52601260045260245ffd5b5f6140d182613a63565b91506140dc83613a63565b9250826140ec576140eb61409a565b5b828206905092915050565b7f4e487b71000000000000000000000000000000000000000000000000000000005f52601160045260245ffd5b5f61412e8261393c565b91506141398361393c565b9250828201905060ff811115614152576141516140f7565b5b92915050565b5f60e08201905061416b5f83018a613d4d565b6141786020830189613cb2565b6141856040830188613cc1565b6141926060830187613cd0565b61419f6080830186613cdf565b6141ac60a0830185613cdf565b6141b960c0830184613cdf565b98975050505050505050565b5f6040820190506141d85f830185613d4d565b6141e56020830184613ad4565b9392505050565b7f496e636f7272656374207061796d656e7420666f72207265726f6c6c000000005f82015250565b5f614220601c83613f42565b915061422b826141ec565b602082019050919050565b5f6020820190508181035f83015261424d81614214565b9050919050565b7f5465616d2073697a6520342d38206f6e6c7900000000000000000000000000005f82015250565b5f614288601283613f42565b915061429382614254565b602082019050919050565b5f6020820190508181035f8301526142b58161427c565b9050919050565b7f4e487b71000000000000000000000000000000000000000000000000000000005f52603260045260245ffd5b5f815190506142f7816137cb565b92915050565b5f6020828403121561431257614311613793565b5b5f61431f848285016142e9565b91505092915050565b7f4e6f7420796f757220756e6974000000000000000000000000000000000000005f82015250565b5f61435c600d83613f42565b915061436782614328565b602082019050919050565b5f6020820190508181035f83015261438981614350565b9050919050565b5f61439a82613a63565b91506143a583613a63565b92508282026143b381613a63565b915082820484148315176143ca576143c96140f7565b5b5092915050565b5f6143db82613a63565b91506143e683613a63565b92508282019050808211156143fe576143fd6140f7565b5b92915050565b7f4e487b71000000000000000000000000000000000000000000000000000000005f52604160045260245ffd5b5f61443c8285614002565b60208201915061444c8284614047565b6014820191508190509392505050565b5f819050919050565b5f61447f61447a6144758461445c565b613da0565b61393c565b9050919050565b61448f81614465565b82525050565b5f819050919050565b5f6144b86144b36144ae84614495565b613da0565b61393c565b9050919050565b6144c88161449e565b82525050565b5f60e0820190506144e15f83018a613d4d565b6144ee6020830189613cb2565b6144fb6040830188613cc1565b6145086060830187613cd0565b6145156080830186614486565b61452260a0830185614486565b61452f60c08301846144bf565b98975050505050505050565b5f61454582613a63565b91507fffffffffffffffffffffffffffffffffffffffffffffffffffffffffffffffff8203614577576145766140f7565b5b600182019050919050565b5f819050919050565b5f6145a56145a061459b84614582565b613da0565b61393c565b9050919050565b6145b58161458b565b82525050565b5f60e0820190506145ce5f83018a613d4d565b6145db6020830189613cb2565b6145e86040830188613cc1565b6145f56060830187613cd0565b61460260808301866145ac565b61460f60a08301856145ac565b61461c60c08301846145ac565b98975050505050505050565b5f819050919050565b5f61464b61464661464184614628565b613da0565b61393c565b9050919050565b61465b81614631565b82525050565b5f819050919050565b5f61468461467f61467a84614661565b613da0565b61393c565b9050919050565b6146948161466a565b82525050565b5f60e0820190506146ad5f83018a613d4d565b6146ba6020830189613cb2565b6146c76040830188613cc1565b6146d46060830187613cd0565b6146e16080830186614652565b6146ee60a0830185614652565b6146fb60c083018461468b565b98975050505050505050565b5f60a08201905061471a5f830188613d4d565b6147276020830187613b07565b6147346040830186613ad4565b6147416060830185613ad4565b81810360808301526147538184613b8a565b90509695505050505050565b7f496e76616c696420736c6f7400000000000000000000000000000000000000005f82015250565b5f614793600c83613f42565b915061479e8261475f565b602082019050919050565b5f6020820190508181035f8301526147c081614787565b9050919050565b7f536c6f7420656d707479000000000000000000000000000000000000000000005f82015250565b5f6147fb600a83613f42565b9150614806826147c7565b602082019050919050565b5f6020820190508181035f830152614828816147ef565b9050919050565b5f61483a8285614002565b60208201915061484a8284614002565b6020820191508190509392505050565b5f61486482613e30565b915061486f83613e30565b9250828201905063ffffffff81111561488b5761488a6140f7565b5b92915050565b5f61489b82613e30565b91506148a683613e30565b92508282026148b481613e30565b91508082146148c6576148c56140f7565b5b5092915050565b5f6148d782613e14565b915061ffff82036148eb576148ea6140f7565b5b600182019050919050565b5f6149018287614002565b6020820191506149118286614047565b6014820191506149218285614002565b6020820191506149318284614002565b60208201915081905095945050505050565b5f8160f01b9050919050565b5f61495982614943565b9050919050565b61497161496c82613e14565b61494f565b82525050565b5f6149828288614002565b6020820191506149928287614047565b6014820191506149a28286614960565b6002820191506149b28285614002565b6020820191506149c28284614002565b6020820191508190509695505050505050565b5f6149df82613e14565b91506149ea83613e14565b9250826149fa576149f961409a565b5b828204905092915050565b5f604082019050614a185f830185613d4d565b614a256020830184613e21565b9392505050565b5f5ffd5b5f601f19601f8301169050919050565b614a4982614a30565b810181811067ffffffffffffffff82111715614a6857614a67614404565b5b80604052505050565b5f614a7a61378a565b9050614a868282614a40565b919050565b60038110614a97575f5ffd5b50565b5f81519050614aa881614a8b565b92915050565b60038110614aba575f5ffd5b50565b5f81519050614acb81614aae565b92915050565b60048110614add575f5ffd5b50565b5f81519050614aee81614ad1565b92915050565b614afd8161393c565b8114614b07575f5ffd5b50565b5f81519050614b1881614af4565b92915050565b5f60c08284031215614b3357614b32614a2c565b5b614b3d60c0614a71565b90505f614b4c84828501614a9a565b5f830152506020614b5f84828501614abd565b6020830152506040614b7384828501614ae0565b6040830152506060614b8784828501614b0a565b6060830152506080614b9b84828501614b0a565b60808301525060a0614baf84828501614b0a565b60a08301525092915050565b5f60c08284031215614bd057614bcf613793565b5b5f614bdd84828501614b1e565b91505092915050565b5f614bf08261393c565b915060ff8203614c0357614c026140f7565b5b600182019050919050565b5f614c1882613a63565b9150614c2383613a63565b925082614c3357614c3261409a565b5b82820490509291505056fea2646970667358221220a5ffdbb59babf53650861e9884a4e211da82c2cd1ddd8b07c90179fdc3f99f7b64736f6c634300081e0033",
			"opcodes": "PUSH1 0x80 PUSH1 0x40 MSTORE CALLVALUE DUP1 ISZERO PUSH2 0xF JUMPI PUSH0 PUSH0 REVERT JUMPDEST POP PUSH1 0x40 MLOAD PUSH2 0x4F41 CODESIZE SUB DUP1 PUSH2 0x4F41 DUP4 CODECOPY DUP2 DUP2 ADD PUSH1 0x40 MSTORE DUP2 ADD SWAP1 PUSH2 0x31 SWAP2 SWAP1 PUSH2 0x26D JUMP JUMPDEST CALLER PUSH0 PUSH20 0xFFFFFFFFFFFFFFFFFFFFFFFFFFFFFFFFFFFFFFFF AND DUP2 PUSH20 0xFFFFFFFFFFFFFFFFFFFFFFFFFFFFFFFFFFFFFFFF AND SUB PUSH2 0xA2 JUMPI PUSH0 PUSH1 0x40 MLOAD PUSH32 0x1E4FBDF700000000000000000000000000000000000000000000000000000000 DUP2 MSTORE PUSH1 0x4 ADD PUSH2 0x99 SWAP2 SWAP1 PUSH2 0x2A7 JUMP JUMPDEST PUSH1 0x40 MLOAD DUP1 SWAP2 SUB SWAP1 REVERT JUMPDEST PUSH2 0xB1 DUP2 PUSH2 0x11C PUSH1 0x20 SHL PUSH1 0x20 SHR JUMP JUMPDEST POP PUSH1 0x1 PUSH2 0xD0 PUSH2 0xC5 PUSH2 0x1DD PUSH1 0x20 SHL PUSH1 0x20 SHR JUMP JUMPDEST PUSH2 0x206 PUSH1 0x20 SHL PUSH1 0x20 SHR JUMP JUMPDEST PUSH0 ADD DUP2 SWAP1 SSTORE POP DUP1 PUSH1 0x1 PUSH0 PUSH2 0x100 EXP DUP2 SLOAD DUP2 PUSH20 0xFFFFFFFFFFFFFFFFFFFFFFFFFFFFFFFFFFFFFFFF MUL NOT AND SWAP1 DUP4 PUSH20 0xFFFFFFFFFFFFFFFFFFFFFFFFFFFFFFFFFFFFFFFF AND MUL OR SWAP1 SSTORE POP POP PUSH2 0x2C0 JUMP JUMPDEST PUSH0 PUSH0 PUSH0 SWAP1 SLOAD SWAP1 PUSH2 0x100 EXP SWAP1 DIV PUSH20 0xFFFFFFFFFFFFFFFFFFFFFFFFFFFFFFFFFFFFFFFF AND SWAP1 POP DUP2 PUSH0 PUSH0 PUSH2 0x100 EXP DUP2 SLOAD DUP2 PUSH20 0xFFFFFFFFFFFFFFFFFFFFFFFFFFFFFFFFFFFFFFFF MUL NOT AND SWAP1 DUP4 PUSH20 0xFFFFFFFFFFFFFFFFFFFFFFFFFFFFFFFFFFFFFFFF AND MUL OR SWAP1 SSTORE POP DUP2 PUSH20 0xFFFFFFFFFFFFFFFFFFFFFFFFFFFFFFFFFFFFFFFF AND DUP2 PUSH20 0xFFFFFFFFFFFFFFFFFFFFFFFFFFFFFFFFFFFFFFFF AND PUSH32 0x8BE0079C531659141344CD1FD0A4F28419497F9722A3DAAFE3B4186F6B6457E0 PUSH1 0x40 MLOAD PUSH1 0x40 MLOAD DUP1 SWAP2 SUB SWAP1 LOG3 POP POP JUMP JUMPDEST PUSH0 PUSH32 0x9B779B17422D0DF92223018B32B4D1FA46E071723D6817E2486D003BECC55F00 PUSH0 SHL SWAP1 POP SWAP1 JUMP JUMPDEST PUSH0 DUP2 SWAP1 POP SWAP2 SWAP1 POP JUMP JUMPDEST PUSH0 PUSH0 REVERT JUMPDEST PUSH0 PUSH20 0xFFFFFFFFFFFFFFFFFFFFFFFFFFFFFFFFFFFFFFFF DUP3 AND SWAP1 POP SWAP2 SWAP1 POP JUMP JUMPDEST PUSH0 PUSH2 0x23C DUP3 PUSH2 0x213 JUMP JUMPDEST SWAP1 POP SWAP2 SWAP1 POP JUMP JUMPDEST PUSH2 0x24C DUP2 PUSH2 0x232 JUMP JUMPDEST DUP2 EQ PUSH2 0x256 JUMPI PUSH0 PUSH0 REVERT JUMPDEST POP JUMP JUMPDEST PUSH0 DUP2 MLOAD SWAP1 POP PUSH2 0x267 DUP2 PUSH2 0x243 JUMP JUMPDEST SWAP3 SWAP2 POP POP JUMP JUMPDEST PUSH0 PUSH1 0x20 DUP3 DUP5 SUB SLT ISZERO PUSH2 0x282 JUMPI PUSH2 0x281 PUSH2 0x20F JUMP JUMPDEST JUMPDEST PUSH0 PUSH2 0x28F DUP5 DUP3 DUP6 ADD PUSH2 0x259 JUMP JUMPDEST SWAP2 POP POP SWAP3 SWAP2 POP POP JUMP JUMPDEST PUSH2 0x2A1 DUP2 PUSH2 0x232 JUMP JUMPDEST DUP3 MSTORE POP POP JUMP JUMPDEST PUSH0 PUSH1 0x20 DUP3 ADD SWAP1 POP PUSH2 0x2BA PUSH0 DUP4 ADD DUP5 PUSH2 0x298 JUMP JUMPDEST SWAP3 SWAP2 POP POP JUMP JUMPDEST PUSH2 0x4C74 DUP1 PUSH2 0x2CD PUSH0 CODECOPY PUSH0 RETURN INVALID PUSH1 0x80 PUSH1 0x40 MSTORE PUSH1 0x4 CALLDATASIZE LT PUSH2 0x134 JUMPI PUSH0 CALLDATALOAD PUSH1 0xE0 SHR DUP1 PUSH4 0x7F570E2B GT PUSH2 0xAA JUMPI DUP1 PUSH4 0xB654823E GT PUSH2 0x6E JUMPI DUP1 PUSH4 0xB654823E EQ PUSH2 0x391 JUMPI DUP1 PUSH4 0xB92A40AD EQ PUSH2 0x3AD JUMPI DUP1 PUSH4 0xBBE15627 EQ PUSH2 0x3D7 JUMPI DUP1 PUSH4 0xC99AE45F EQ PUSH2 0x416 JUMPI DUP1 PUSH4 0xD6691C27 EQ PUSH2 0x452 JUMPI DUP1 PUSH4 0xF2FDE38B EQ PUSH2 0x493 JUMPI PUSH2 0x134 JUMP JUMPDEST DUP1 PUSH4 0x7F570E2B EQ PUSH2 0x2BE JUMPI DUP1 PUSH4 0x8456CB59 EQ PUSH2 0x2E6 JUMPI DUP1 PUSH4 0x84D38FDC EQ PUSH2 0x2FC JUMPI DUP1 PUSH4 0x8DA5CB5B EQ PUSH2 0x33D JUMPI DUP1 PUSH4 0x9F51758E EQ PUSH2 0x367 JUMPI PUSH2 0x134 JUMP JUMPDEST DUP1 PUSH4 0x4EF2D6C1 GT PUSH2 0xFC JUMPI DUP1 PUSH4 0x4EF2D6C1 EQ PUSH2 0x1B4 JUMPI DUP1 PUSH4 0x5C975ABB EQ PUSH2 0x1F0 JUMPI DUP1 PUSH4 0x6154EE97 EQ PUSH2 0x21A JUMPI DUP1 PUSH4 0x705FE4BE EQ PUSH2 0x256 JUMPI DUP1 PUSH4 0x715018A6 EQ PUSH2 0x280 JUMPI DUP1 PUSH4 0x7E5C4F8B EQ PUSH2 0x296 JUMPI PUSH2 0x134 JUMP JUMPDEST DUP1 PUSH4 0x201738E2 EQ PUSH2 0x138 JUMPI DUP1 PUSH4 0x29DE58D1 EQ PUSH2 0x142 JUMPI DUP1 PUSH4 0x3CCFD60B EQ PUSH2 0x14C JUMPI DUP1 PUSH4 0x3F4BA83A EQ PUSH2 0x162 JUMPI DUP1 PUSH4 0x49C7C24A EQ PUSH2 0x178 JUMPI JUMPDEST PUSH0 PUSH0 REVERT JUMPDEST PUSH2 0x140 PUSH2 0x4BB JUMP JUMPDEST STOP JUMPDEST PUSH2 0x14A PUSH2 0x8A4 JUMP JUMPDEST STOP JUMPDEST CALLVALUE DUP1 ISZERO PUSH2 0x157 JUMPI PUSH0 PUSH0 REVERT JUMPDEST POP PUSH2 0x160 PUSH2 0x947 JUMP JUMPDEST STOP JUMPDEST CALLVALUE DUP1 ISZERO PUSH2 0x16D JUMPI PUSH0 PUSH0 REVERT JUMPDEST POP PUSH2 0x176 PUSH2 0x99C JUMP JUMPDEST STOP JUMPDEST CALLVALUE DUP1 ISZERO PUSH2 0x183 JUMPI PUSH0 PUSH0 REVERT JUMPDEST POP PUSH2 0x19E PUSH1 0x4 DUP1 CALLDATASIZE SUB DUP2 ADD SWAP1 PUSH2 0x199 SWAP2 SWAP1 PUSH2 0x37F5 JUMP JUMPDEST PUSH2 0x9AE JUMP JUMPDEST PUSH1 0x40 MLOAD PUSH2 0x1AB SWAP2 SWAP1 PUSH2 0x3A49 JUMP JUMPDEST PUSH1 0x40 MLOAD DUP1 SWAP2 SUB SWAP1 RETURN JUMPDEST CALLVALUE DUP1 ISZERO PUSH2 0x1BF JUMPI PUSH0 PUSH0 REVERT JUMPDEST POP PUSH2 0x1DA PUSH1 0x4 DUP1 CALLDATASIZE SUB DUP2 ADD SWAP1 PUSH2 0x1D5 SWAP2 SWAP1 PUSH2 0x3A96 JUMP JUMPDEST PUSH2 0xB3A JUMP JUMPDEST PUSH1 0x40 MLOAD PUSH2 0x1E7 SWAP2 SWAP1 PUSH2 0x3AE3 JUMP JUMPDEST PUSH1 0x40 MLOAD DUP1 SWAP2 SUB SWAP1 RETURN JUMPDEST CALLVALUE DUP1 ISZERO PUSH2 0x1FB JUMPI PUSH0 PUSH0 REVERT JUMPDEST POP PUSH2 0x204 PUSH2 0xB65 JUMP JUMPDEST PUSH1 0x40 MLOAD PUSH2 0x211 SWAP2 SWAP1 PUSH2 0x3B16 JUMP JUMPDEST PUSH1 0x40 MLOAD DUP1 SWAP2 SUB SWAP1 RETURN JUMPDEST CALLVALUE DUP1 ISZERO PUSH2 0x225 JUMPI PUSH0 PUSH0 REVERT JUMPDEST POP PUSH2 0x240 PUSH1 0x4 DUP1 CALLDATASIZE SUB DUP2 ADD SWAP1 PUSH2 0x23B SWAP2 SWAP1 PUSH2 0x37F5 JUMP JUMPDEST PUSH2 0xB7A JUMP JUMPDEST PUSH1 0x40 MLOAD PUSH2 0x24D SWAP2 SWAP1 PUSH2 0x3BE6 JUMP JUMPDEST PUSH1 0x40 MLOAD DUP1 SWAP2 SUB SWAP1 RETURN JUMPDEST CALLVALUE DUP1 ISZERO PUSH2 0x261 JUMPI PUSH0 PUSH0 REVERT JUMPDEST POP PUSH2 0x26A PUSH2 0xC0D JUMP JUMPDEST PUSH1 0x40 MLOAD PUSH2 0x277 SWAP2 SWAP1 PUSH2 0x3AE3 JUMP JUMPDEST PUSH1 0x40 MLOAD DUP1 SWAP2 SUB SWAP1 RETURN JUMPDEST CALLVALUE DUP1 ISZERO PUSH2 0x28B JUMPI PUSH0 PUSH0 REVERT JUMPDEST POP PUSH2 0x294 PUSH2 0xC18 JUMP JUMPDEST STOP JUMPDEST CALLVALUE DUP1 ISZERO PUSH2 0x2A1 JUMPI PUSH0 PUSH0 REVERT JUMPDEST POP PUSH2 0x2BC PUSH1 0x4 DUP1 CALLDATASIZE SUB DUP2 ADD SWAP1 PUSH2 0x2B7 SWAP2 SWAP1 PUSH2 0x37F5 JUMP JUMPDEST PUSH2 0xC2B JUMP JUMPDEST STOP JUMPDEST CALLVALUE DUP1 ISZERO PUSH2 0x2C9 JUMPI PUSH0 PUSH0 REVERT JUMPDEST POP PUSH2 0x2E4 PUSH1 0x4 DUP1 CALLDATASIZE SUB DUP2 ADD SWAP1 PUSH2 0x2DF SWAP2 SWAP1 PUSH2 0x3C67 JUMP JUMPDEST PUSH2 0xC76 JUMP JUMPDEST STOP JUMPDEST CALLVALUE DUP1 ISZERO PUSH2 0x2F1 JUMPI PUSH0 PUSH0 REVERT JUMPDEST POP PUSH2 0x2FA PUSH2 0x1798 JUMP JUMPDEST STOP JUMPDEST CALLVALUE DUP1 ISZERO PUSH2 0x307 JUMPI PUSH0 PUSH0 REVERT JUMPDEST POP PUSH2 0x322 PUSH1 0x4 DUP1 CALLDATASIZE SUB DUP2 ADD SWAP1 PUSH2 0x31D SWAP2 SWAP1 PUSH2 0x3A96 JUMP JUMPDEST PUSH2 0x17AA JUMP JUMPDEST PUSH1 0x40 MLOAD PUSH2 0x334 SWAP7 SWAP6 SWAP5 SWAP4 SWAP3 SWAP2 SWAP1 PUSH2 0x3CEE JUMP JUMPDEST PUSH1 0x40 MLOAD DUP1 SWAP2 SUB SWAP1 RETURN JUMPDEST CALLVALUE DUP1 ISZERO PUSH2 0x348 JUMPI PUSH0 PUSH0 REVERT JUMPDEST POP PUSH2 0x351 PUSH2 0x1839 JUMP JUMPDEST PUSH1 0x40 MLOAD PUSH2 0x35E SWAP2 SWAP1 PUSH2 0x3D5C JUMP JUMPDEST PUSH1 0x40 MLOAD DUP1 SWAP2 SUB SWAP1 RETURN JUMPDEST CALLVALUE DUP1 ISZERO PUSH2 0x372 JUMPI PUSH0 PUSH0 REVERT JUMPDEST POP PUSH2 0x37B PUSH2 0x1860 JUMP JUMPDEST PUSH1 0x40 MLOAD PUSH2 0x388 SWAP2 SWAP1 PUSH2 0x3AE3 JUMP JUMPDEST PUSH1 0x40 MLOAD DUP1 SWAP2 SUB SWAP1 RETURN JUMPDEST PUSH2 0x3AB PUSH1 0x4 DUP1 CALLDATASIZE SUB DUP2 ADD SWAP1 PUSH2 0x3A6 SWAP2 SWAP1 PUSH2 0x3D75 JUMP JUMPDEST PUSH2 0x186B JUMP JUMPDEST STOP JUMPDEST CALLVALUE DUP1 ISZERO PUSH2 0x3B8 JUMPI PUSH0 PUSH0 REVERT JUMPDEST POP PUSH2 0x3C1 PUSH2 0x1CE3 JUMP JUMPDEST PUSH1 0x40 MLOAD PUSH2 0x3CE SWAP2 SWAP1 PUSH2 0x3DFB JUMP JUMPDEST PUSH1 0x40 MLOAD DUP1 SWAP2 SUB SWAP1 RETURN JUMPDEST CALLVALUE DUP1 ISZERO PUSH2 0x3E2 JUMPI PUSH0 PUSH0 REVERT JUMPDEST POP PUSH2 0x3FD PUSH1 0x4 DUP1 CALLDATASIZE SUB DUP2 ADD SWAP1 PUSH2 0x3F8 SWAP2 SWAP1 PUSH2 0x37F5 JUMP JUMPDEST PUSH2 0x1D08 JUMP JUMPDEST PUSH1 0x40 MLOAD PUSH2 0x40D SWAP5 SWAP4 SWAP3 SWAP2 SWAP1 PUSH2 0x3E4E JUMP JUMPDEST PUSH1 0x40 MLOAD DUP1 SWAP2 SUB SWAP1 RETURN JUMPDEST CALLVALUE DUP1 ISZERO PUSH2 0x421 JUMPI PUSH0 PUSH0 REVERT JUMPDEST POP PUSH2 0x43C PUSH1 0x4 DUP1 CALLDATASIZE SUB DUP2 ADD SWAP1 PUSH2 0x437 SWAP2 SWAP1 PUSH2 0x37F5 JUMP JUMPDEST PUSH2 0x1D50 JUMP JUMPDEST PUSH1 0x40 MLOAD PUSH2 0x449 SWAP2 SWAP1 PUSH2 0x3F22 JUMP JUMPDEST PUSH1 0x40 MLOAD DUP1 SWAP2 SUB SWAP1 RETURN JUMPDEST CALLVALUE DUP1 ISZERO PUSH2 0x45D JUMPI PUSH0 PUSH0 REVERT JUMPDEST POP PUSH2 0x478 PUSH1 0x4 DUP1 CALLDATASIZE SUB DUP2 ADD SWAP1 PUSH2 0x473 SWAP2 SWAP1 PUSH2 0x3A96 JUMP JUMPDEST PUSH2 0x1EE6 JUMP JUMPDEST PUSH1 0x40 MLOAD PUSH2 0x48A SWAP7 SWAP6 SWAP5 SWAP4 SWAP3 SWAP2 SWAP1 PUSH2 0x3CEE JUMP JUMPDEST PUSH1 0x40 MLOAD DUP1 SWAP2 SUB SWAP1 RETURN JUMPDEST CALLVALUE DUP1 ISZERO PUSH2 0x49E JUMPI PUSH0 PUSH0 REVERT JUMPDEST POP PUSH2 0x4B9 PUSH1 0x4 DUP1 CALLDATASIZE SUB DUP2 ADD SWAP1 PUSH2 0x4B4 SWAP2 SWAP1 PUSH2 0x37F5 JUMP JUMPDEST PUSH2 0x1F7C JUMP JUMPDEST STOP JUMPDEST PUSH2 0x4C3 PUSH2 0x2000 JUMP JUMPDEST PUSH2 0x4CB PUSH2 0x2041 JUMP JUMPDEST PUSH7 0x38D7EA4C68000 CALLVALUE EQ PUSH2 0x514 JUMPI PUSH1 0x40 MLOAD PUSH32 0x8C379A000000000000000000000000000000000000000000000000000000000 DUP2 MSTORE PUSH1 0x4 ADD PUSH2 0x50B SWAP1 PUSH2 0x3F9C JUMP JUMPDEST PUSH1 0x40 MLOAD DUP1 SWAP2 SUB SWAP1 REVERT JUMPDEST PUSH0 TIMESTAMP CALLER PUSH1 0x1 PUSH0 SWAP1 SLOAD SWAP1 PUSH2 0x100 EXP SWAP1 DIV PUSH20 0xFFFFFFFFFFFFFFFFFFFFFFFFFFFFFFFFFFFFFFFF AND PUSH20 0xFFFFFFFFFFFFFFFFFFFFFFFFFFFFFFFFFFFFFFFF AND PUSH4 0x18160DDD PUSH1 0x40 MLOAD DUP2 PUSH4 0xFFFFFFFF AND PUSH1 0xE0 SHL DUP2 MSTORE PUSH1 0x4 ADD PUSH1 0x20 PUSH1 0x40 MLOAD DUP1 DUP4 SUB DUP2 DUP7 GAS STATICCALL ISZERO DUP1 ISZERO PUSH2 0x581 JUMPI RETURNDATASIZE PUSH0 PUSH0 RETURNDATACOPY RETURNDATASIZE PUSH0 REVERT JUMPDEST POP POP POP POP PUSH1 0x40 MLOAD RETURNDATASIZE PUSH1 0x1F NOT PUSH1 0x1F DUP3 ADD AND DUP3 ADD DUP1 PUSH1 0x40 MSTORE POP DUP2 ADD SWAP1 PUSH2 0x5A5 SWAP2 SWAP1 PUSH2 0x3FCE JUMP JUMPDEST PUSH1 0x40 MLOAD PUSH1 0x20 ADD PUSH2 0x5B7 SWAP4 SWAP3 SWAP2 SWAP1 PUSH2 0x405E JUMP JUMPDEST PUSH1 0x40 MLOAD PUSH1 0x20 DUP2 DUP4 SUB SUB DUP2 MSTORE SWAP1 PUSH1 0x40 MSTORE DUP1 MLOAD SWAP1 PUSH1 0x20 ADD KECCAK256 PUSH0 SHR SWAP1 POP PUSH0 PUSH1 0x3 DUP3 PUSH2 0x5DF SWAP2 SWAP1 PUSH2 0x40C7 JUMP JUMPDEST PUSH1 0xFF AND PUSH1 0x2 DUP2 GT ISZERO PUSH2 0x5F4 JUMPI PUSH2 0x5F3 PUSH2 0x383D JUMP JUMPDEST JUMPDEST SWAP1 POP PUSH0 PUSH2 0x603 DUP4 PUSH2 0x3E7 PUSH2 0x2063 JUMP JUMPDEST SWAP1 POP PUSH0 PUSH1 0x4 PUSH1 0x8 DUP6 SWAP1 SHR PUSH2 0x617 SWAP2 SWAP1 PUSH2 0x40C7 JUMP JUMPDEST PUSH1 0xFF AND PUSH1 0x3 DUP2 GT ISZERO PUSH2 0x62C JUMPI PUSH2 0x62B PUSH2 0x383D JUMP JUMPDEST JUMPDEST SWAP1 POP PUSH0 PUSH1 0x6 PUSH1 0x10 DUP7 SWAP1 SHR PUSH2 0x640 SWAP2 SWAP1 PUSH2 0x40C7 JUMP JUMPDEST PUSH1 0x5 PUSH2 0x64C SWAP2 SWAP1 PUSH2 0x4124 JUMP JUMPDEST SWAP1 POP PUSH0 PUSH1 0x6 PUSH1 0x18 DUP8 SWAP1 SHR PUSH2 0x660 SWAP2 SWAP1 PUSH2 0x40C7 JUMP JUMPDEST PUSH1 0x4 PUSH2 0x66C SWAP2 SWAP1 PUSH2 0x4124 JUMP JUMPDEST SWAP1 POP PUSH0 PUSH1 0x6 PUSH1 0x20 DUP9 SWAP1 SHR PUSH2 0x680 SWAP2 SWAP1 PUSH2 0x40C7 JUMP JUMPDEST PUSH1 0x5 PUSH2 0x68C SWAP2 SWAP1 PUSH2 0x4124 JUMP JUMPDEST SWAP1 POP PUSH1 0x1 PUSH1 0x2 DUP2 GT ISZERO PUSH2 0x6A2 JUMPI PUSH2 0x6A1 PUSH2 0x383D JUMP JUMPDEST JUMPDEST DUP6 PUSH1 0x2 DUP2 GT ISZERO PUSH2 0x6B5 JUMPI PUSH2 0x6B4 PUSH2 0x383D JUMP JUMPDEST JUMPDEST SUB PUSH2 0x6EC JUMPI PUSH1 0x2 DUP4 PUSH2 0x6C7 SWAP2 SWAP1 PUSH2 0x4124 JUMP JUMPDEST SWAP3 POP PUSH1 0x2 DUP3 PUSH2 0x6D6 SWAP2 SWAP1 PUSH2 0x4124 JUMP JUMPDEST SWAP2 POP PUSH1 0x1 DUP2 PUSH2 0x6E5 SWAP2 SWAP1 PUSH2 0x4124 JUMP JUMPDEST SWAP1 POP PUSH2 0x746 JUMP JUMPDEST PUSH1 0x2 DUP1 DUP2 GT ISZERO PUSH2 0x6FF JUMPI PUSH2 0x6FE PUSH2 0x383D JUMP JUMPDEST JUMPDEST DUP6 PUSH1 0x2 DUP2 GT ISZERO PUSH2 0x712 JUMPI PUSH2 0x711 PUSH2 0x383D JUMP JUMPDEST JUMPDEST SUB PUSH2 0x745 JUMPI PUSH1 0x4 DUP4 PUSH2 0x724 SWAP2 SWAP1 PUSH2 0x4124 JUMP JUMPDEST SWAP3 POP PUSH1 0x3 DUP3 PUSH2 0x733 SWAP2 SWAP1 PUSH2 0x4124 JUMP JUMPDEST SWAP2 POP PUSH1 0x3 DUP2 PUSH2 0x742 SWAP2 SWAP1 PUSH2 0x4124 JUMP JUMPDEST SWAP1 POP JUMPDEST JUMPDEST PUSH0 PUSH1 0x1 PUSH0 SWAP1 SLOAD SWAP1 PUSH2 0x100 EXP SWAP1 DIV PUSH20 0xFFFFFFFFFFFFFFFFFFFFFFFFFFFFFFFFFFFFFFFF AND PUSH20 0xFFFFFFFFFFFFFFFFFFFFFFFFFFFFFFFFFFFFFFFF AND PUSH4 0x71DEC088 CALLER DUP10 DUP10 DUP10 DUP10 DUP10 DUP10 PUSH1 0x40 MLOAD DUP9 PUSH4 0xFFFFFFFF AND PUSH1 0xE0 SHL DUP2 MSTORE PUSH1 0x4 ADD PUSH2 0x7AD SWAP8 SWAP7 SWAP6 SWAP5 SWAP4 SWAP3 SWAP2 SWAP1 PUSH2 0x4158 JUMP JUMPDEST PUSH1 0x20 PUSH1 0x40 MLOAD DUP1 DUP4 SUB DUP2 PUSH0 DUP8 GAS CALL ISZERO DUP1 ISZERO PUSH2 0x7C9 JUMPI RETURNDATASIZE PUSH0 PUSH0 RETURNDATACOPY RETURNDATASIZE PUSH0 REVERT JUMPDEST POP POP POP POP PUSH1 0x40 MLOAD RETURNDATASIZE PUSH1 0x1F NOT PUSH1 0x1F DUP3 ADD AND DUP3 ADD DUP1 PUSH1 0x40 MSTORE POP DUP2 ADD SWAP1 PUSH2 0x7ED SWAP2 SWAP1 PUSH2 0x3FCE JUMP JUMPDEST SWAP1 POP PUSH1 0x5 PUSH0 CALLER PUSH20 0xFFFFFFFFFFFFFFFFFFFFFFFFFFFFFFFFFFFFFFFF AND PUSH20 0xFFFFFFFFFFFFFFFFFFFFFFFFFFFFFFFFFFFFFFFF AND DUP2 MSTORE PUSH1 0x20 ADD SWAP1 DUP2 MSTORE PUSH1 0x20 ADD PUSH0 KECCAK256 DUP2 SWAP1 DUP1 PUSH1 0x1 DUP2 SLOAD ADD DUP1 DUP3 SSTORE DUP1 SWAP2 POP POP PUSH1 0x1 SWAP1 SUB SWAP1 PUSH0 MSTORE PUSH1 0x20 PUSH0 KECCAK256 ADD PUSH0 SWAP1 SWAP2 SWAP1 SWAP2 SWAP1 SWAP2 POP SSTORE PUSH2 0x859 CALLER PUSH2 0x20CF JUMP JUMPDEST PUSH32 0xDDED256C7E86A19D1BE0F3168D1EC8D5CFC9C713C96BDC10DEFADD014692CF92 CALLER DUP3 PUSH1 0x40 MLOAD PUSH2 0x88A SWAP3 SWAP2 SWAP1 PUSH2 0x41C5 JUMP JUMPDEST PUSH1 0x40 MLOAD DUP1 SWAP2 SUB SWAP1 LOG1 POP POP POP POP POP POP POP POP PUSH2 0x8A2 PUSH2 0x2232 JUMP JUMPDEST JUMP JUMPDEST PUSH2 0x8AC PUSH2 0x2000 JUMP JUMPDEST PUSH2 0x8B4 PUSH2 0x2041 JUMP JUMPDEST PUSH7 0x1C6BF52634000 CALLVALUE EQ PUSH2 0x8FD JUMPI PUSH1 0x40 MLOAD PUSH32 0x8C379A000000000000000000000000000000000000000000000000000000000 DUP2 MSTORE PUSH1 0x4 ADD PUSH2 0x8F4 SWAP1 PUSH2 0x4236 JUMP JUMPDEST PUSH1 0x40 MLOAD DUP1 SWAP2 SUB SWAP1 REVERT JUMPDEST PUSH2 0x906 CALLER PUSH2 0x224C JUMP JUMPDEST PUSH32 0xB1B757AFEC988E099A59BC127ABEA15824BF7ACC7137103E4197EF22A9AFAD11 CALLER PUSH1 0x40 MLOAD PUSH2 0x935 SWAP2 SWAP1 PUSH2 0x3D5C JUMP JUMPDEST PUSH1 0x40 MLOAD DUP1 SWAP2 SUB SWAP1 LOG1 PUSH2 0x945 PUSH2 0x2232 JUMP JUMPDEST JUMP JUMPDEST PUSH2 0x94F PUSH2 0x2695 JUMP JUMPDEST PUSH2 0x957 PUSH2 0x1839 JUMP JUMPDEST PUSH20 0xFFFFFFFFFFFFFFFFFFFFFFFFFFFFFFFFFFFFFFFF AND PUSH2 0x8FC SELFBALANCE SWAP1 DUP2 ISZERO MUL SWAP1 PUSH1 0x40 MLOAD PUSH0 PUSH1 0x40 MLOAD DUP1 DUP4 SUB DUP2 DUP6 DUP9 DUP9 CALL SWAP4 POP POP POP POP ISZERO DUP1 ISZERO PUSH2 0x999 JUMPI RETURNDATASIZE PUSH0 PUSH0 RETURNDATACOPY RETURNDATASIZE PUSH0 REVERT JUMPDEST POP JUMP JUMPDEST PUSH2 0x9A4 PUSH2 0x2695 JUMP JUMPDEST PUSH2 0x9AC PUSH2 0x271C JUMP JUMPDEST JUMP JUMPDEST PUSH2 0x9B6 PUSH2 0x3626 JUMP JUMPDEST PUSH1 0x3 PUSH0 DUP4 PUSH20 0xFFFFFFFFFFFFFFFFFFFFFFFFFFFFFFFFFFFFFFFF AND PUSH20 0xFFFFFFFFFFFFFFFFFFFFFFFFFFFFFFFFFFFFFFFF AND DUP2 MSTORE PUSH1 0x20 ADD SWAP1 DUP2 MSTORE PUSH1 0x20 ADD PUSH0 KECCAK256 PUSH1 0x5 DUP1 PUSH1 0x20 MUL PUSH1 0x40 MLOAD SWAP1 DUP2 ADD PUSH1 0x40 MSTORE DUP1 SWAP3 SWAP2 SWAP1 PUSH0 SWAP1 JUMPDEST DUP3 DUP3 LT ISZERO PUSH2 0xB2F JUMPI DUP4 DUP3 ADD PUSH1 0x40 MLOAD DUP1 PUSH1 0xC0 ADD PUSH1 0x40 MSTORE SWAP1 DUP2 PUSH0 DUP3 ADD PUSH0 SWAP1 SLOAD SWAP1 PUSH2 0x100 EXP SWAP1 DIV PUSH1 0xFF AND PUSH1 0x2 DUP2 GT ISZERO PUSH2 0xA42 JUMPI PUSH2 0xA41 PUSH2 0x383D JUMP JUMPDEST JUMPDEST PUSH1 0x2 DUP2 GT ISZERO PUSH2 0xA54 JUMPI PUSH2 0xA53 PUSH2 0x383D JUMP JUMPDEST JUMPDEST DUP2 MSTORE PUSH1 0x20 ADD PUSH0 DUP3 ADD PUSH1 0x1 SWAP1 SLOAD SWAP1 PUSH2 0x100 EXP SWAP1 DIV PUSH1 0xFF AND PUSH1 0x2 DUP2 GT ISZERO PUSH2 0xA7C JUMPI PUSH2 0xA7B PUSH2 0x383D JUMP JUMPDEST JUMPDEST PUSH1 0x2 DUP2 GT ISZERO PUSH2 0xA8E JUMPI PUSH2 0xA8D PUSH2 0x383D JUMP JUMPDEST JUMPDEST DUP2 MSTORE PUSH1 0x20 ADD PUSH0 DUP3 ADD PUSH1 0x2 SWAP1 SLOAD SWAP1 PUSH2 0x100 EXP SWAP1 DIV PUSH1 0xFF AND PUSH1 0x3 DUP2 GT ISZERO PUSH2 0xAB6 JUMPI PUSH2 0xAB5 PUSH2 0x383D JUMP JUMPDEST JUMPDEST PUSH1 0x3 DUP2 GT ISZERO PUSH2 0xAC8 JUMPI PUSH2 0xAC7 PUSH2 0x383D JUMP JUMPDEST JUMPDEST DUP2 MSTORE PUSH1 0x20 ADD PUSH0 DUP3 ADD PUSH1 0x3 SWAP1 SLOAD SWAP1 PUSH2 0x100 EXP SWAP1 DIV PUSH1 0xFF AND PUSH1 0xFF AND PUSH1 0xFF AND DUP2 MSTORE PUSH1 0x20 ADD PUSH0 DUP3 ADD PUSH1 0x4 SWAP1 SLOAD SWAP1 PUSH2 0x100 EXP SWAP1 DIV PUSH1 0xFF AND PUSH1 0xFF AND PUSH1 0xFF AND DUP2 MSTORE PUSH1 0x20 ADD PUSH0 DUP3 ADD PUSH1 0x5 SWAP1 SLOAD SWAP1 PUSH2 0x100 EXP SWAP1 DIV PUSH1 0xFF AND PUSH1 0xFF AND PUSH1 0xFF AND DUP2 MSTORE POP POP DUP2 MSTORE PUSH1 0x20 ADD SWAP1 PUSH1 0x1 ADD SWAP1 PUSH2 0xA09 JUMP JUMPDEST POP POP POP POP SWAP1 POP SWAP2 SWAP1 POP JUMP JUMPDEST PUSH1 0x5 PUSH1 0x20 MSTORE DUP2 PUSH0 MSTORE PUSH1 0x40 PUSH0 KECCAK256 DUP2 DUP2 SLOAD DUP2 LT PUSH2 0xB53 JUMPI PUSH0 DUP1 REVERT JUMPDEST SWAP1 PUSH0 MSTORE PUSH1 0x20 PUSH0 KECCAK256 ADD PUSH0 SWAP2 POP SWAP2 POP POP SLOAD DUP2 JUMP JUMPDEST PUSH0 PUSH0 PUSH1 0x14 SWAP1 SLOAD SWAP1 PUSH2 0x100 EXP SWAP1 DIV PUSH1 0xFF AND SWAP1 POP SWAP1 JUMP JUMPDEST PUSH1 0x60 PUSH1 0x5 PUSH0 DUP4 PUSH20 0xFFFFFFFFFFFFFFFFFFFFFFFFFFFFFFFFFFFFFFFF AND PUSH20 0xFFFFFFFFFFFFFFFFFFFFFFFFFFFFFFFFFFFFFFFF AND DUP2 MSTORE PUSH1 0x20 ADD SWAP1 DUP2 MSTORE PUSH1 0x20 ADD PUSH0 KECCAK256 DUP1 SLOAD DUP1 PUSH1 0x20 MUL PUSH1 0x20 ADD PUSH1 0x40 MLOAD SWAP1 DUP2 ADD PUSH1 0x40 MSTORE DUP1 SWAP3 SWAP2 SWAP1 DUP2 DUP2 MSTORE PUSH1 0x20 ADD DUP3 DUP1 SLOAD DUP1 ISZERO PUSH2 0xC01 JUMPI PUSH1 0x20 MUL DUP3 ADD SWAP2 SWAP1 PUSH0 MSTORE PUSH1 0x20 PUSH0 KECCAK256 SWAP1 JUMPDEST DUP2 SLOAD DUP2 MSTORE PUSH1 0x20 ADD SWAP1 PUSH1 0x1 ADD SWAP1 DUP1 DUP4 GT PUSH2 0xBED JUMPI JUMPDEST POP POP POP POP POP SWAP1 POP SWAP2 SWAP1 POP JUMP JUMPDEST PUSH7 0x38D7EA4C68000 DUP2 JUMP JUMPDEST PUSH2 0xC20 PUSH2 0x2695 JUMP JUMPDEST PUSH2 0xC29 PUSH0 PUSH2 0x277D JUMP JUMPDEST JUMP JUMPDEST PUSH2 0xC33 PUSH2 0x2695 JUMP JUMPDEST DUP1 PUSH1 0x1 PUSH0 PUSH2 0x100 EXP DUP2 SLOAD DUP2 PUSH20 0xFFFFFFFFFFFFFFFFFFFFFFFFFFFFFFFFFFFFFFFF MUL NOT AND SWAP1 DUP4 PUSH20 0xFFFFFFFFFFFFFFFFFFFFFFFFFFFFFFFFFFFFFFFF AND MUL OR SWAP1 SSTORE POP POP JUMP JUMPDEST PUSH2 0xC7E PUSH2 0x2000 JUMP JUMPDEST PUSH2 0xC86 PUSH2 0x2041 JUMP JUMPDEST PUSH1 0x4 DUP3 DUP3 SWAP1 POP LT ISZERO DUP1 ISZERO PUSH2 0xC9E JUMPI POP PUSH1 0x8 DUP3 DUP3 SWAP1 POP GT ISZERO JUMPDEST PUSH2 0xCDD JUMPI PUSH1 0x40 MLOAD PUSH32 0x8C379A000000000000000000000000000000000000000000000000000000000 DUP2 MSTORE PUSH1 0x4 ADD PUSH2 0xCD4 SWAP1 PUSH2 0x429E JUMP JUMPDEST PUSH1 0x40 MLOAD DUP1 SWAP2 SUB SWAP1 REVERT JUMPDEST PUSH0 PUSH0 SWAP1 POP JUMPDEST DUP3 DUP3 SWAP1 POP DUP2 LT ISZERO PUSH2 0xE19 JUMPI CALLER PUSH20 0xFFFFFFFFFFFFFFFFFFFFFFFFFFFFFFFFFFFFFFFF AND PUSH1 0x1 PUSH0 SWAP1 SLOAD SWAP1 PUSH2 0x100 EXP SWAP1 DIV PUSH20 0xFFFFFFFFFFFFFFFFFFFFFFFFFFFFFFFFFFFFFFFF AND PUSH20 0xFFFFFFFFFFFFFFFFFFFFFFFFFFFFFFFFFFFFFFFF AND PUSH4 0x6352211E DUP6 DUP6 DUP6 DUP2 DUP2 LT PUSH2 0xD54 JUMPI PUSH2 0xD53 PUSH2 0x42BC JUMP JUMPDEST JUMPDEST SWAP1 POP PUSH1 0x20 MUL ADD CALLDATALOAD PUSH1 0x40 MLOAD DUP3 PUSH4 0xFFFFFFFF AND PUSH1 0xE0 SHL DUP2 MSTORE PUSH1 0x4 ADD PUSH2 0xD77 SWAP2 SWAP1 PUSH2 0x3AE3 JUMP JUMPDEST PUSH1 0x20 PUSH1 0x40 MLOAD DUP1 DUP4 SUB DUP2 DUP7 GAS STATICCALL ISZERO DUP1 ISZERO PUSH2 0xD92 JUMPI RETURNDATASIZE PUSH0 PUSH0 RETURNDATACOPY RETURNDATASIZE PUSH0 REVERT JUMPDEST POP POP POP POP PUSH1 0x40 MLOAD RETURNDATASIZE PUSH1 0x1F NOT PUSH1 0x1F DUP3 ADD AND DUP3 ADD DUP1 PUSH1 0x40 MSTORE POP DUP2 ADD SWAP1 PUSH2 0xDB6 SWAP2 SWAP1 PUSH2 0x42FD JUMP JUMPDEST PUSH20 0xFFFFFFFFFFFFFFFFFFFFFFFFFFFFFFFFFFFFFFFF AND EQ PUSH2 0xE0C JUMPI PUSH1 0x40 MLOAD PUSH32 0x8C379A000000000000000000000000000000000000000000000000000000000 DUP2 MSTORE PUSH1 0x4 ADD PUSH2 0xE03 SWAP1 PUSH2 0x4372 JUMP JUMPDEST PUSH1 0x40 MLOAD DUP1 SWAP2 SUB SWAP1 REVERT JUMPDEST DUP1 DUP1 PUSH1 0x1 ADD SWAP2 POP POP PUSH2 0xCE2 JUMP JUMPDEST POP PUSH0 PUSH1 0x4 PUSH0 CALLER PUSH20 0xFFFFFFFFFFFFFFFFFFFFFFFFFFFFFFFFFFFFFFFF AND PUSH20 0xFFFFFFFFFFFFFFFFFFFFFFFFFFFFFFFFFFFFFFFF AND DUP2 MSTORE PUSH1 0x20 ADD SWAP1 DUP2 MSTORE PUSH1 0x20 ADD PUSH0 KECCAK256 DUP1 SLOAD DUP1 PUSH1 0x20 MUL PUSH1 0x20 ADD PUSH1 0x40 MLOAD SWAP1 DUP2 ADD PUSH1 0x40 MSTORE DUP1 SWAP3 SWAP2 SWAP1 DUP2 DUP2 MSTORE PUSH1 0x20 ADD PUSH0 SWAP1 JUMPDEST DUP3 DUP3 LT ISZERO PUSH2 0xFA4 JUMPI DUP4 DUP3 SWAP1 PUSH0 MSTORE PUSH1 0x20 PUSH0 KECCAK256 ADD PUSH1 0x40 MLOAD DUP1 PUSH1 0xC0 ADD PUSH1 0x40 MSTORE SWAP1 DUP2 PUSH0 DUP3 ADD PUSH0 SWAP1 SLOAD SWAP1 PUSH2 0x100 EXP SWAP1 DIV PUSH1 0xFF AND PUSH1 0x2 DUP2 GT ISZERO PUSH2 0xEB7 JUMPI PUSH2 0xEB6 PUSH2 0x383D JUMP JUMPDEST JUMPDEST PUSH1 0x2 DUP2 GT ISZERO PUSH2 0xEC9 JUMPI PUSH2 0xEC8 PUSH2 0x383D JUMP JUMPDEST JUMPDEST DUP2 MSTORE PUSH1 0x20 ADD PUSH0 DUP3 ADD PUSH1 0x1 SWAP1 SLOAD SWAP1 PUSH2 0x100 EXP SWAP1 DIV PUSH1 0xFF AND PUSH1 0x2 DUP2 GT ISZERO PUSH2 0xEF1 JUMPI PUSH2 0xEF0 PUSH2 0x383D JUMP JUMPDEST JUMPDEST PUSH1 0x2 DUP2 GT ISZERO PUSH2 0xF03 JUMPI PUSH2 0xF02 PUSH2 0x383D JUMP JUMPDEST JUMPDEST DUP2 MSTORE PUSH1 0x20 ADD PUSH0 DUP3 ADD PUSH1 0x2 SWAP1 SLOAD SWAP1 PUSH2 0x100 EXP SWAP1 DIV PUSH1 0xFF AND PUSH1 0x3 DUP2 GT ISZERO PUSH2 0xF2B JUMPI PUSH2 0xF2A PUSH2 0x383D JUMP JUMPDEST JUMPDEST PUSH1 0x3 DUP2 GT ISZERO PUSH2 0xF3D JUMPI PUSH2 0xF3C PUSH2 0x383D JUMP JUMPDEST JUMPDEST DUP2 MSTORE PUSH1 0x20 ADD PUSH0 DUP3 ADD PUSH1 0x3 SWAP1 SLOAD SWAP1 PUSH2 0x100 EXP SWAP1 DIV PUSH1 0xFF AND PUSH1 0xFF AND PUSH1 0xFF AND DUP2 MSTORE PUSH1 0x20 ADD PUSH0 DUP3 ADD PUSH1 0x4 SWAP1 SLOAD SWAP1 PUSH2 0x100 EXP SWAP1 DIV PUSH1 0xFF AND PUSH1 0xFF AND PUSH1 0xFF AND DUP2 MSTORE PUSH1 0x20 ADD PUSH0 DUP3 ADD PUSH1 0x5 SWAP1 SLOAD SWAP1 PUSH2 0x100 EXP SWAP1 DIV PUSH1 0xFF AND PUSH1 0xFF AND PUSH1 0xFF AND DUP2 MSTORE POP POP DUP2 MSTORE PUSH1 0x20 ADD SWAP1 PUSH1 0x1 ADD SWAP1 PUSH2 0xE77 JUMP JUMPDEST POP POP POP POP SWAP1 POP PUSH0 DUP2 MLOAD SUB PUSH2 0x114B JUMPI PUSH2 0xFBB CALLER PUSH2 0x283E JUMP JUMPDEST PUSH1 0x4 PUSH0 CALLER PUSH20 0xFFFFFFFFFFFFFFFFFFFFFFFFFFFFFFFFFFFFFFFF AND PUSH20 0xFFFFFFFFFFFFFFFFFFFFFFFFFFFFFFFFFFFFFFFF AND DUP2 MSTORE PUSH1 0x20 ADD SWAP1 DUP2 MSTORE PUSH1 0x20 ADD PUSH0 KECCAK256 DUP1 SLOAD DUP1 PUSH1 0x20 MUL PUSH1 0x20 ADD PUSH1 0x40 MLOAD SWAP1 DUP2 ADD PUSH1 0x40 MSTORE DUP1 SWAP3 SWAP2 SWAP1 DUP2 DUP2 MSTORE PUSH1 0x20 ADD PUSH0 SWAP1 JUMPDEST DUP3 DUP3 LT ISZERO PUSH2 0x1144 JUMPI DUP4 DUP3 SWAP1 PUSH0 MSTORE PUSH1 0x20 PUSH0 KECCAK256 ADD PUSH1 0x40 MLOAD DUP1 PUSH1 0xC0 ADD PUSH1 0x40 MSTORE SWAP1 DUP2 PUSH0 DUP3 ADD PUSH0 SWAP1 SLOAD SWAP1 PUSH2 0x100 EXP SWAP1 DIV PUSH1 0xFF AND PUSH1 0x2 DUP2 GT ISZERO PUSH2 0x1057 JUMPI PUSH2 0x1056 PUSH2 0x383D JUMP JUMPDEST JUMPDEST PUSH1 0x2 DUP2 GT ISZERO PUSH2 0x1069 JUMPI PUSH2 0x1068 PUSH2 0x383D JUMP JUMPDEST JUMPDEST DUP2 MSTORE PUSH1 0x20 ADD PUSH0 DUP3 ADD PUSH1 0x1 SWAP1 SLOAD SWAP1 PUSH2 0x100 EXP SWAP1 DIV PUSH1 0xFF AND PUSH1 0x2 DUP2 GT ISZERO PUSH2 0x1091 JUMPI PUSH2 0x1090 PUSH2 0x383D JUMP JUMPDEST JUMPDEST PUSH1 0x2 DUP2 GT ISZERO PUSH2 0x10A3 JUMPI PUSH2 0x10A2 PUSH2 0x383D JUMP JUMPDEST JUMPDEST DUP2 MSTORE PUSH1 0x20 ADD PUSH0 DUP3 ADD PUSH1 0x2 SWAP1 SLOAD SWAP1 PUSH2 0x100 EXP SWAP1 DIV PUSH1 0xFF AND PUSH1 0x3 DUP2 GT ISZERO PUSH2 0x10CB JUMPI PUSH2 0x10CA PUSH2 0x383D JUMP JUMPDEST JUMPDEST PUSH1 0x3 DUP2 GT ISZERO PUSH2 0x10DD JUMPI PUSH2 0x10DC PUSH2 0x383D JUMP JUMPDEST JUMPDEST DUP2 MSTORE PUSH1 0x20 ADD PUSH0 DUP3 ADD PUSH1 0x3 SWAP1 SLOAD SWAP1 PUSH2 0x100 EXP SWAP1 DIV PUSH1 0xFF AND PUSH1 0xFF AND PUSH1 0xFF AND DUP2 MSTORE PUSH1 0x20 ADD PUSH0 DUP3 ADD PUSH1 0x4 SWAP1 SLOAD SWAP1 PUSH2 0x100 EXP SWAP1 DIV PUSH1 0xFF AND PUSH1 0xFF AND PUSH1 0xFF AND DUP2 MSTORE PUSH1 0x20 ADD PUSH0 DUP3 ADD PUSH1 0x5 SWAP1 SLOAD SWAP1 PUSH2 0x100 EXP SWAP1 DIV PUSH1 0xFF AND PUSH1 0xFF AND PUSH1 0xFF AND DUP2 MSTORE POP POP DUP2 MSTORE PUSH1 0x20 ADD SWAP1 PUSH1 0x1 ADD SWAP1 PUSH2 0x1017 JUMP JUMPDEST POP POP POP POP SWAP1 POP JUMPDEST PUSH0 PUSH0 PUSH2 0x1157 DUP6 DUP6 PUSH2 0x2E1C JUMP JUMPDEST SWAP2 POP SWAP2 POP PUSH0 PUSH2 0x1165 DUP5 PUSH2 0x30FE JUMP JUMPDEST POP SWAP1 POP PUSH0 TIMESTAMP CALLER PREVRANDAO PUSH1 0x40 MLOAD PUSH1 0x20 ADD PUSH2 0x117E SWAP4 SWAP3 SWAP2 SWAP1 PUSH2 0x405E JUMP JUMPDEST PUSH1 0x40 MLOAD PUSH1 0x20 DUP2 DUP4 SUB SUB DUP2 MSTORE SWAP1 PUSH1 0x40 MSTORE DUP1 MLOAD SWAP1 PUSH1 0x20 ADD KECCAK256 PUSH0 SHR SWAP1 POP PUSH0 PUSH1 0x19 DUP5 PUSH1 0xFF AND PUSH2 0x11A9 SWAP2 SWAP1 PUSH2 0x4390 JUMP JUMPDEST PUSH1 0x32 DUP4 PUSH2 0x11B6 SWAP2 SWAP1 PUSH2 0x40C7 JUMP JUMPDEST DUP7 PUSH2 0x11C1 SWAP2 SWAP1 PUSH2 0x43D1 JUMP JUMPDEST PUSH2 0x11CB SWAP2 SWAP1 PUSH2 0x43D1 JUMP JUMPDEST SWAP1 POP PUSH0 PUSH1 0x2D PUSH1 0x40 DUP5 SWAP1 SHR PUSH2 0x11DF SWAP2 SWAP1 PUSH2 0x40C7 JUMP JUMPDEST DUP5 PUSH2 0x11EA SWAP2 SWAP1 PUSH2 0x43D1 JUMP JUMPDEST SWAP1 POP PUSH0 DUP2 DUP4 GT SWAP1 POP PUSH2 0x11FC CALLER DUP3 PUSH2 0x3345 JUMP JUMPDEST PUSH0 DUP2 PUSH2 0x1209 JUMPI PUSH1 0x1 PUSH2 0x120C JUMP JUMPDEST PUSH1 0x3 JUMPDEST PUSH1 0xFF AND SWAP1 POP PUSH0 DUP2 PUSH8 0xFFFFFFFFFFFFFFFF DUP2 GT ISZERO PUSH2 0x122C JUMPI PUSH2 0x122B PUSH2 0x4404 JUMP JUMPDEST JUMPDEST PUSH1 0x40 MLOAD SWAP1 DUP1 DUP3 MSTORE DUP1 PUSH1 0x20 MUL PUSH1 0x20 ADD DUP3 ADD PUSH1 0x40 MSTORE DUP1 ISZERO PUSH2 0x125A JUMPI DUP2 PUSH1 0x20 ADD PUSH1 0x20 DUP3 MUL DUP1 CALLDATASIZE DUP4 CALLDATACOPY DUP1 DUP3 ADD SWAP2 POP POP SWAP1 POP JUMPDEST POP SWAP1 POP PUSH0 PUSH0 SWAP1 POP PUSH1 0x1 PUSH0 SWAP1 SLOAD SWAP1 PUSH2 0x100 EXP SWAP1 DIV PUSH20 0xFFFFFFFFFFFFFFFFFFFFFFFFFFFFFFFFFFFFFFFF AND PUSH20 0xFFFFFFFFFFFFFFFFFFFFFFFFFFFFFFFFFFFFFFFF AND PUSH4 0x71DEC088 CALLER PUSH1 0x3 TIMESTAMP CALLER PUSH1 0x40 MLOAD PUSH1 0x20 ADD PUSH2 0x12B4 SWAP3 SWAP2 SWAP1 PUSH2 0x4431 JUMP JUMPDEST PUSH1 0x40 MLOAD PUSH1 0x20 DUP2 DUP4 SUB SUB DUP2 MSTORE SWAP1 PUSH1 0x40 MSTORE DUP1 MLOAD SWAP1 PUSH1 0x20 ADD KECCAK256 PUSH0 SHR PUSH2 0x12D6 SWAP2 SWAP1 PUSH2 0x40C7 JUMP JUMPDEST PUSH1 0xFF AND PUSH1 0x2 DUP2 GT ISZERO PUSH2 0x12EB JUMPI PUSH2 0x12EA PUSH2 0x383D JUMP JUMPDEST JUMPDEST PUSH0 PUSH0 PUSH1 0x5 DUP1 PUSH1 0x6 PUSH1 0x40 MLOAD DUP9 PUSH4 0xFFFFFFFF AND PUSH1 0xE0 SHL DUP2 MSTORE PUSH1 0x4 ADD PUSH2 0x1314 SWAP8 SWAP7 SWAP6 SWAP5 SWAP4 SWAP3 SWAP2 SWAP1 PUSH2 0x44CE JUMP JUMPDEST PUSH1 0x20 PUSH1 0x40 MLOAD DUP1 DUP4 SUB DUP2 PUSH0 DUP8 GAS CALL ISZERO DUP1 ISZERO PUSH2 0x1330 JUMPI RETURNDATASIZE PUSH0 PUSH0 RETURNDATACOPY RETURNDATASIZE PUSH0 REVERT JUMPDEST POP POP POP POP PUSH1 0x40 MLOAD RETURNDATASIZE PUSH1 0x1F NOT PUSH1 0x1F DUP3 ADD AND DUP3 ADD DUP1 PUSH1 0x40 MSTORE POP DUP2 ADD SWAP1 PUSH2 0x1354 SWAP2 SWAP1 PUSH2 0x3FCE JUMP JUMPDEST DUP3 DUP3 DUP1 PUSH2 0x1360 SWAP1 PUSH2 0x453B JUMP JUMPDEST SWAP4 POP DUP2 MLOAD DUP2 LT PUSH2 0x1373 JUMPI PUSH2 0x1372 PUSH2 0x42BC JUMP JUMPDEST JUMPDEST PUSH1 0x20 MUL PUSH1 0x20 ADD ADD DUP2 DUP2 MSTORE POP POP DUP4 ISZERO PUSH2 0x15D6 JUMPI PUSH1 0x1 PUSH0 SWAP1 SLOAD SWAP1 PUSH2 0x100 EXP SWAP1 DIV PUSH20 0xFFFFFFFFFFFFFFFFFFFFFFFFFFFFFFFFFFFFFFFF AND PUSH20 0xFFFFFFFFFFFFFFFFFFFFFFFFFFFFFFFFFFFFFFFF AND PUSH4 0x71DEC088 CALLER PUSH1 0x3 TIMESTAMP CALLER PUSH1 0x1 PUSH1 0x40 MLOAD PUSH1 0x20 ADD PUSH2 0x13DB SWAP4 SWAP3 SWAP2 SWAP1 PUSH2 0x405E JUMP JUMPDEST PUSH1 0x40 MLOAD PUSH1 0x20 DUP2 DUP4 SUB SUB DUP2 MSTORE SWAP1 PUSH1 0x40 MSTORE DUP1 MLOAD SWAP1 PUSH1 0x20 ADD KECCAK256 PUSH0 SHR PUSH2 0x13FD SWAP2 SWAP1 PUSH2 0x40C7 JUMP JUMPDEST PUSH1 0xFF AND PUSH1 0x2 DUP2 GT ISZERO PUSH2 0x1412 JUMPI PUSH2 0x1411 PUSH2 0x383D JUMP JUMPDEST JUMPDEST PUSH1 0x1 DUP1 PUSH1 0x7 DUP1 PUSH1 0x7 PUSH1 0x40 MLOAD DUP9 PUSH4 0xFFFFFFFF AND PUSH1 0xE0 SHL DUP2 MSTORE PUSH1 0x4 ADD PUSH2 0x143C SWAP8 SWAP7 SWAP6 SWAP5 SWAP4 SWAP3 SWAP2 SWAP1 PUSH2 0x45BB JUMP JUMPDEST PUSH1 0x20 PUSH1 0x40 MLOAD DUP1 DUP4 SUB DUP2 PUSH0 DUP8 GAS CALL ISZERO DUP1 ISZERO PUSH2 0x1458 JUMPI RETURNDATASIZE PUSH0 PUSH0 RETURNDATACOPY RETURNDATASIZE PUSH0 REVERT JUMPDEST POP POP POP POP PUSH1 0x40 MLOAD RETURNDATASIZE PUSH1 0x1F NOT PUSH1 0x1F DUP3 ADD AND DUP3 ADD DUP1 PUSH1 0x40 MSTORE POP DUP2 ADD SWAP1 PUSH2 0x147C SWAP2 SWAP1 PUSH2 0x3FCE JUMP JUMPDEST DUP3 DUP3 DUP1 PUSH2 0x1488 SWAP1 PUSH2 0x453B JUMP JUMPDEST SWAP4 POP DUP2 MLOAD DUP2 LT PUSH2 0x149B JUMPI PUSH2 0x149A PUSH2 0x42BC JUMP JUMPDEST JUMPDEST PUSH1 0x20 MUL PUSH1 0x20 ADD ADD DUP2 DUP2 MSTORE POP POP PUSH1 0x2 DUP10 PUSH1 0xFF AND LT PUSH2 0x15D5 JUMPI PUSH1 0x1 PUSH0 SWAP1 SLOAD SWAP1 PUSH2 0x100 EXP SWAP1 DIV PUSH20 0xFFFFFFFFFFFFFFFFFFFFFFFFFFFFFFFFFFFFFFFF AND PUSH20 0xFFFFFFFFFFFFFFFFFFFFFFFFFFFFFFFFFFFFFFFF AND PUSH4 0x71DEC088 CALLER PUSH1 0x3 TIMESTAMP CALLER PUSH1 0x2 PUSH1 0x40 MLOAD PUSH1 0x20 ADD PUSH2 0x1508 SWAP4 SWAP3 SWAP2 SWAP1 PUSH2 0x405E JUMP JUMPDEST PUSH1 0x40 MLOAD PUSH1 0x20 DUP2 DUP4 SUB SUB DUP2 MSTORE SWAP1 PUSH1 0x40 MSTORE DUP1 MLOAD SWAP1 PUSH1 0x20 ADD KECCAK256 PUSH0 SHR PUSH2 0x152A SWAP2 SWAP1 PUSH2 0x40C7 JUMP JUMPDEST PUSH1 0xFF AND PUSH1 0x2 DUP2 GT ISZERO PUSH2 0x153F JUMPI PUSH2 0x153E PUSH2 0x383D JUMP JUMPDEST JUMPDEST PUSH1 0x2 DUP1 PUSH1 0x9 DUP1 PUSH1 0x8 PUSH1 0x40 MLOAD DUP9 PUSH4 0xFFFFFFFF AND PUSH1 0xE0 SHL DUP2 MSTORE PUSH1 0x4 ADD PUSH2 0x1569 SWAP8 SWAP7 SWAP6 SWAP5 SWAP4 SWAP3 SWAP2 SWAP1 PUSH2 0x469A JUMP JUMPDEST PUSH1 0x20 PUSH1 0x40 MLOAD DUP1 DUP4 SUB DUP2 PUSH0 DUP8 GAS CALL ISZERO DUP1 ISZERO PUSH2 0x1585 JUMPI RETURNDATASIZE PUSH0 PUSH0 RETURNDATACOPY RETURNDATASIZE PUSH0 REVERT JUMPDEST POP POP POP POP PUSH1 0x40 MLOAD RETURNDATASIZE PUSH1 0x1F NOT PUSH1 0x1F DUP3 ADD AND DUP3 ADD DUP1 PUSH1 0x40 MSTORE POP DUP2 ADD SWAP1 PUSH2 0x15A9 SWAP2 SWAP1 PUSH2 0x3FCE JUMP JUMPDEST DUP3 DUP3 DUP1 PUSH2 0x15B5 SWAP1 PUSH2 0x453B JUMP JUMPDEST SWAP4 POP DUP2 MLOAD DUP2 LT PUSH2 0x15C8 JUMPI PUSH2 0x15C7 PUSH2 0x42BC JUMP JUMPDEST JUMPDEST PUSH1 0x20 MUL PUSH1 0x20 ADD ADD DUP2 DUP2 MSTORE POP POP JUMPDEST JUMPDEST PUSH0 DUP4 PUSH8 0xFFFFFFFFFFFFFFFF DUP2 GT ISZERO PUSH2 0x15F1 JUMPI PUSH2 0x15F0 PUSH2 0x4404 JUMP JUMPDEST JUMPDEST PUSH1 0x40 MLOAD SWAP1 DUP1 DUP3 MSTORE DUP1 PUSH1 0x20 MUL PUSH1 0x20 ADD DUP3 ADD PUSH1 0x40 MSTORE DUP1 ISZERO PUSH2 0x161F JUMPI DUP2 PUSH1 0x20 ADD PUSH1 0x20 DUP3 MUL DUP1 CALLDATASIZE DUP4 CALLDATACOPY DUP1 DUP3 ADD SWAP2 POP POP SWAP1 POP JUMPDEST POP SWAP1 POP PUSH0 PUSH0 SWAP1 POP JUMPDEST DUP5 DUP2 LT ISZERO PUSH2 0x16F1 JUMPI DUP4 DUP2 DUP2 MLOAD DUP2 LT PUSH2 0x1642 JUMPI PUSH2 0x1641 PUSH2 0x42BC JUMP JUMPDEST JUMPDEST PUSH1 0x20 MUL PUSH1 0x20 ADD ADD MLOAD DUP3 DUP3 DUP2 MLOAD DUP2 LT PUSH2 0x165D JUMPI PUSH2 0x165C PUSH2 0x42BC JUMP JUMPDEST JUMPDEST PUSH1 0x20 MUL PUSH1 0x20 ADD ADD DUP2 DUP2 MSTORE POP POP PUSH1 0x5 PUSH0 CALLER PUSH20 0xFFFFFFFFFFFFFFFFFFFFFFFFFFFFFFFFFFFFFFFF AND PUSH20 0xFFFFFFFFFFFFFFFFFFFFFFFFFFFFFFFFFFFFFFFF AND DUP2 MSTORE PUSH1 0x20 ADD SWAP1 DUP2 MSTORE PUSH1 0x20 ADD PUSH0 KECCAK256 DUP5 DUP3 DUP2 MLOAD DUP2 LT PUSH2 0x16B9 JUMPI PUSH2 0x16B8 PUSH2 0x42BC JUMP JUMPDEST JUMPDEST PUSH1 0x20 MUL PUSH1 0x20 ADD ADD MLOAD SWAP1 DUP1 PUSH1 0x1 DUP2 SLOAD ADD DUP1 DUP3 SSTORE DUP1 SWAP2 POP POP PUSH1 0x1 SWAP1 SUB SWAP1 PUSH0 MSTORE PUSH1 0x20 PUSH0 KECCAK256 ADD PUSH0 SWAP1 SWAP2 SWAP1 SWAP2 SWAP1 SWAP2 POP SSTORE DUP1 DUP1 PUSH1 0x1 ADD SWAP2 POP POP PUSH2 0x1627 JUMP JUMPDEST POP DUP5 ISZERO PUSH2 0x1741 JUMPI PUSH1 0x4 PUSH0 CALLER PUSH20 0xFFFFFFFFFFFFFFFFFFFFFFFFFFFFFFFFFFFFFFFF AND PUSH20 0xFFFFFFFFFFFFFFFFFFFFFFFFFFFFFFFFFFFFFFFF AND DUP2 MSTORE PUSH1 0x20 ADD SWAP1 DUP2 MSTORE PUSH1 0x20 ADD PUSH0 KECCAK256 PUSH0 PUSH2 0x1740 SWAP2 SWAP1 PUSH2 0x3653 JUMP JUMPDEST JUMPDEST PUSH32 0xE5EA426F1B256FA31597CF9F5E138DD78D805A5518B5A5B9045B30BBD778360A CALLER DUP7 DUP10 DUP10 DUP6 PUSH1 0x40 MLOAD PUSH2 0x1778 SWAP6 SWAP5 SWAP4 SWAP3 SWAP2 SWAP1 PUSH2 0x4707 JUMP JUMPDEST PUSH1 0x40 MLOAD DUP1 SWAP2 SUB SWAP1 LOG1 POP POP POP POP POP POP POP POP POP POP POP POP PUSH2 0x1794 PUSH2 0x2232 JUMP JUMPDEST POP POP JUMP JUMPDEST PUSH2 0x17A0 PUSH2 0x2695 JUMP JUMPDEST PUSH2 0x17A8 PUSH2 0x34EE JUMP JUMPDEST JUMP JUMPDEST PUSH1 0x3 PUSH1 0x20 MSTORE DUP2 PUSH0 MSTORE PUSH1 0x40 PUSH0 KECCAK256 DUP2 PUSH1 0x5 DUP2 LT PUSH2 0x17C3 JUMPI PUSH0 DUP1 REVERT JUMPDEST ADD PUSH0 SWAP2 POP SWAP2 POP POP DUP1 PUSH0 ADD PUSH0 SWAP1 SLOAD SWAP1 PUSH2 0x100 EXP SWAP1 DIV PUSH1 0xFF AND SWAP1 DUP1 PUSH0 ADD PUSH1 0x1 SWAP1 SLOAD SWAP1 PUSH2 0x100 EXP SWAP1 DIV PUSH1 0xFF AND SWAP1 DUP1 PUSH0 ADD PUSH1 0x2 SWAP1 SLOAD SWAP1 PUSH2 0x100 EXP SWAP1 DIV PUSH1 0xFF AND SWAP1 DUP1 PUSH0 ADD PUSH1 0x3 SWAP1 SLOAD SWAP1 PUSH2 0x100 EXP SWAP1 DIV PUSH1 0xFF AND SWAP1 DUP1 PUSH0 ADD PUSH1 0x4 SWAP1 SLOAD SWAP1 PUSH2 0x100 EXP SWAP1 DIV PUSH1 0xFF AND SWAP1 DUP1 PUSH0 ADD PUSH1 0x5 SWAP1 SLOAD SWAP1 PUSH2 0x100 EXP SWAP1 DIV PUSH1 0xFF AND SWAP1 POP DUP7 JUMP JUMPDEST PUSH0 PUSH0 PUSH0 SWAP1 SLOAD SWAP1 PUSH2 0x100 EXP SWAP1 DIV PUSH20 0xFFFFFFFFFFFFFFFFFFFFFFFFFFFFFFFFFFFFFFFF AND SWAP1 POP SWAP1 JUMP JUMPDEST PUSH7 0x1C6BF52634000 DUP2 JUMP JUMPDEST PUSH2 0x1873 PUSH2 0x2000 JUMP JUMPDEST PUSH2 0x187B PUSH2 0x2041 JUMP JUMPDEST PUSH7 0x38D7EA4C68000 CALLVALUE EQ PUSH2 0x18C4 JUMPI PUSH1 0x40 MLOAD PUSH32 0x8C379A000000000000000000000000000000000000000000000000000000000 DUP2 MSTORE PUSH1 0x4 ADD PUSH2 0x18BB SWAP1 PUSH2 0x3F9C JUMP JUMPDEST PUSH1 0x40 MLOAD DUP1 SWAP2 SUB SWAP1 REVERT JUMPDEST PUSH1 0x5 DUP2 LT PUSH2 0x1907 JUMPI PUSH1 0x40 MLOAD PUSH32 0x8C379A000000000000000000000000000000000000000000000000000000000 DUP2 MSTORE PUSH1 0x4 ADD PUSH2 0x18FE SWAP1 PUSH2 0x47A9 JUMP JUMPDEST PUSH1 0x40 MLOAD DUP1 SWAP2 SUB SWAP1 REVERT JUMPDEST PUSH0 PUSH1 0x3 PUSH0 CALLER PUSH20 0xFFFFFFFFFFFFFFFFFFFFFFFFFFFFFFFFFFFFFFFF AND PUSH20 0xFFFFFFFFFFFFFFFFFFFFFFFFFFFFFFFFFFFFFFFF AND DUP2 MSTORE PUSH1 0x20 ADD SWAP1 DUP2 MSTORE PUSH1 0x20 ADD PUSH0 KECCAK256 DUP3 PUSH1 0x5 DUP2 LT PUSH2 0x1957 JUMPI PUSH2 0x1956 PUSH2 0x42BC JUMP JUMPDEST JUMPDEST ADD PUSH1 0x40 MLOAD DUP1 PUSH1 0xC0 ADD PUSH1 0x40 MSTORE SWAP1 DUP2 PUSH0 DUP3 ADD PUSH0 SWAP1 SLOAD SWAP1 PUSH2 0x100 EXP SWAP1 DIV PUSH1 0xFF AND PUSH1 0x2 DUP2 GT ISZERO PUSH2 0x1986 JUMPI PUSH2 0x1985 PUSH2 0x383D JUMP JUMPDEST JUMPDEST PUSH1 0x2 DUP2 GT ISZERO PUSH2 0x1998 JUMPI PUSH2 0x1997 PUSH2 0x383D JUMP JUMPDEST JUMPDEST DUP2 MSTORE PUSH1 0x20 ADD PUSH0 DUP3 ADD PUSH1 0x1 SWAP1 SLOAD SWAP1 PUSH2 0x100 EXP SWAP1 DIV PUSH1 0xFF AND PUSH1 0x2 DUP2 GT ISZERO PUSH2 0x19C0 JUMPI PUSH2 0x19BF PUSH2 0x383D JUMP JUMPDEST JUMPDEST PUSH1 0x2 DUP2 GT ISZERO PUSH2 0x19D2 JUMPI PUSH2 0x19D1 PUSH2 0x383D JUMP JUMPDEST JUMPDEST DUP2 MSTORE PUSH1 0x20 ADD PUSH0 DUP3 ADD PUSH1 0x2 SWAP1 SLOAD SWAP1 PUSH2 0x100 EXP SWAP1 DIV PUSH1 0xFF AND PUSH1 0x3 DUP2 GT ISZERO PUSH2 0x19FA JUMPI PUSH2 0x19F9 PUSH2 0x383D JUMP JUMPDEST JUMPDEST PUSH1 0x3 DUP2 GT ISZERO PUSH2 0x1A0C JUMPI PUSH2 0x1A0B PUSH2 0x383D JUMP JUMPDEST JUMPDEST DUP2 MSTORE PUSH1 0x20 ADD PUSH0 DUP3 ADD PUSH1 0x3 SWAP1 SLOAD SWAP1 PUSH2 0x100 EXP SWAP1 DIV PUSH1 0xFF AND PUSH1 0xFF AND PUSH1 0xFF AND DUP2 MSTORE PUSH1 0x20 ADD PUSH0 DUP3 ADD PUSH1 0x4 SWAP1 SLOAD SWAP1 PUSH2 0x100 EXP SWAP1 DIV PUSH1 0xFF AND PUSH1 0xFF AND PUSH1 0xFF AND DUP2 MSTORE PUSH1 0x20 ADD PUSH0 DUP3 ADD PUSH1 0x5 SWAP1 SLOAD SWAP1 PUSH2 0x100 EXP SWAP1 DIV PUSH1 0xFF AND PUSH1 0xFF AND PUSH1 0xFF AND DUP2 MSTORE POP POP SWAP1 POP PUSH0 DUP2 PUSH1 0x60 ADD MLOAD PUSH1 0xFF AND GT PUSH2 0x1AAF JUMPI PUSH1 0x40 MLOAD PUSH32 0x8C379A000000000000000000000000000000000000000000000000000000000 DUP2 MSTORE PUSH1 0x4 ADD PUSH2 0x1AA6 SWAP1 PUSH2 0x4811 JUMP JUMPDEST PUSH1 0x40 MLOAD DUP1 SWAP2 SUB SWAP1 REVERT JUMPDEST PUSH0 PUSH1 0x1 PUSH0 SWAP1 SLOAD SWAP1 PUSH2 0x100 EXP SWAP1 DIV PUSH20 0xFFFFFFFFFFFFFFFFFFFFFFFFFFFFFFFFFFFFFFFF AND PUSH20 0xFFFFFFFFFFFFFFFFFFFFFFFFFFFFFFFFFFFFFFFF AND PUSH4 0x71DEC088 CALLER DUP5 PUSH0 ADD MLOAD DUP6 PUSH1 0x20 ADD MLOAD DUP7 PUSH1 0x40 ADD MLOAD DUP8 PUSH1 0x60 ADD MLOAD DUP9 PUSH1 0x80 ADD MLOAD DUP10 PUSH1 0xA0 ADD MLOAD PUSH1 0x40 MLOAD DUP9 PUSH4 0xFFFFFFFF AND PUSH1 0xE0 SHL DUP2 MSTORE PUSH1 0x4 ADD PUSH2 0x1B2D SWAP8 SWAP7 SWAP6 SWAP5 SWAP4 SWAP3 SWAP2 SWAP1 PUSH2 0x4158 JUMP JUMPDEST PUSH1 0x20 PUSH1 0x40 MLOAD DUP1 DUP4 SUB DUP2 PUSH0 DUP8 GAS CALL ISZERO DUP1 ISZERO PUSH2 0x1B49 JUMPI RETURNDATASIZE PUSH0 PUSH0 RETURNDATACOPY RETURNDATASIZE PUSH0 REVERT JUMPDEST POP POP POP POP PUSH1 0x40 MLOAD RETURNDATASIZE PUSH1 0x1F NOT PUSH1 0x1F DUP3 ADD AND DUP3 ADD DUP1 PUSH1 0x40 MSTORE POP DUP2 ADD SWAP1 PUSH2 0x1B6D SWAP2 SWAP1 PUSH2 0x3FCE JUMP JUMPDEST SWAP1 POP PUSH1 0x5 PUSH0 CALLER PUSH20 0xFFFFFFFFFFFFFFFFFFFFFFFFFFFFFFFFFFFFFFFF AND PUSH20 0xFFFFFFFFFFFFFFFFFFFFFFFFFFFFFFFFFFFFFFFF AND DUP2 MSTORE PUSH1 0x20 ADD SWAP1 DUP2 MSTORE PUSH1 0x20 ADD PUSH0 KECCAK256 DUP2 SWAP1 DUP1 PUSH1 0x1 DUP2 SLOAD ADD DUP1 DUP3 SSTORE DUP1 SWAP2 POP POP PUSH1 0x1 SWAP1 SUB SWAP1 PUSH0 MSTORE PUSH1 0x20 PUSH0 KECCAK256 ADD PUSH0 SWAP1 SWAP2 SWAP1 SWAP2 SWAP1 SWAP2 POP SSTORE PUSH1 0x3 PUSH0 CALLER PUSH20 0xFFFFFFFFFFFFFFFFFFFFFFFFFFFFFFFFFFFFFFFF AND PUSH20 0xFFFFFFFFFFFFFFFFFFFFFFFFFFFFFFFFFFFFFFFF AND DUP2 MSTORE PUSH1 0x20 ADD SWAP1 DUP2 MSTORE PUSH1 0x20 ADD PUSH0 KECCAK256 DUP4 PUSH1 0x5 DUP2 LT PUSH2 0x1C1F JUMPI PUSH2 0x1C1E PUSH2 0x42BC JUMP JUMPDEST JUMPDEST ADD PUSH0 PUSH0 DUP3 ADD PUSH0 PUSH2 0x100 EXP DUP2 SLOAD SWAP1 PUSH1 0xFF MUL NOT AND SWAP1 SSTORE PUSH0 DUP3 ADD PUSH1 0x1 PUSH2 0x100 EXP DUP2 SLOAD SWAP1 PUSH1 0xFF MUL NOT AND SWAP1 SSTORE PUSH0 DUP3 ADD PUSH1 0x2 PUSH2 0x100 EXP DUP2 SLOAD SWAP1 PUSH1 0xFF MUL NOT AND SWAP1 SSTORE PUSH0 DUP3 ADD PUSH1 0x3 PUSH2 0x100 EXP DUP2 SLOAD SWAP1 PUSH1 0xFF MUL NOT AND SWAP1 SSTORE PUSH0 DUP3 ADD PUSH1 0x4 PUSH2 0x100 EXP DUP2 SLOAD SWAP1 PUSH1 0xFF MUL NOT AND SWAP1 SSTORE PUSH0 DUP3 ADD PUSH1 0x5 PUSH2 0x100 EXP DUP2 SLOAD SWAP1 PUSH1 0xFF MUL NOT AND SWAP1 SSTORE POP POP PUSH2 0x1C9D CALLER PUSH2 0x20CF JUMP JUMPDEST PUSH32 0xDDED256C7E86A19D1BE0F3168D1EC8D5CFC9C713C96BDC10DEFADD014692CF92 CALLER DUP3 PUSH1 0x40 MLOAD PUSH2 0x1CCE SWAP3 SWAP2 SWAP1 PUSH2 0x41C5 JUMP JUMPDEST PUSH1 0x40 MLOAD DUP1 SWAP2 SUB SWAP1 LOG1 POP POP PUSH2 0x1CE0 PUSH2 0x2232 JUMP JUMPDEST POP JUMP JUMPDEST PUSH1 0x1 PUSH0 SWAP1 SLOAD SWAP1 PUSH2 0x100 EXP SWAP1 DIV PUSH20 0xFFFFFFFFFFFFFFFFFFFFFFFFFFFFFFFFFFFFFFFF AND DUP2 JUMP JUMPDEST PUSH1 0x2 PUSH1 0x20 MSTORE DUP1 PUSH0 MSTORE PUSH1 0x40 PUSH0 KECCAK256 PUSH0 SWAP2 POP SWAP1 POP DUP1 PUSH0 ADD PUSH0 SWAP1 SLOAD SWAP1 PUSH2 0x100 EXP SWAP1 DIV PUSH2 0xFFFF AND SWAP1 DUP1 PUSH0 ADD PUSH1 0x2 SWAP1 SLOAD SWAP1 PUSH2 0x100 EXP SWAP1 DIV PUSH4 0xFFFFFFFF AND SWAP1 DUP1 PUSH1 0x1 ADD SLOAD SWAP1 DUP1 PUSH1 0x2 ADD SLOAD SWAP1 POP DUP5 JUMP JUMPDEST PUSH1 0x60 PUSH1 0x4 PUSH0 DUP4 PUSH20 0xFFFFFFFFFFFFFFFFFFFFFFFFFFFFFFFFFFFFFFFF AND PUSH20 0xFFFFFFFFFFFFFFFFFFFFFFFFFFFFFFFFFFFFFFFF AND DUP2 MSTORE PUSH1 0x20 ADD SWAP1 DUP2 MSTORE PUSH1 0x20 ADD PUSH0 KECCAK256 DUP1 SLOAD DUP1 PUSH1 0x20 MUL PUSH1 0x20 ADD PUSH1 0x40 MLOAD SWAP1 DUP2 ADD PUSH1 0x40 MSTORE DUP1 SWAP3 SWAP2 SWAP1 DUP2 DUP2 MSTORE PUSH1 0x20 ADD PUSH0 SWAP1 JUMPDEST DUP3 DUP3 LT ISZERO PUSH2 0x1EDB JUMPI DUP4 DUP3 SWAP1 PUSH0 MSTORE PUSH1 0x20 PUSH0 KECCAK256 ADD PUSH1 0x40 MLOAD DUP1 PUSH1 0xC0 ADD PUSH1 0x40 MSTORE SWAP1 DUP2 PUSH0 DUP3 ADD PUSH0 SWAP1 SLOAD SWAP1 PUSH2 0x100 EXP SWAP1 DIV PUSH1 0xFF AND PUSH1 0x2 DUP2 GT ISZERO PUSH2 0x1DEE JUMPI PUSH2 0x1DED PUSH2 0x383D JUMP JUMPDEST JUMPDEST PUSH1 0x2 DUP2 GT ISZERO PUSH2 0x1E00 JUMPI PUSH2 0x1DFF PUSH2 0x383D JUMP JUMPDEST JUMPDEST DUP2 MSTORE PUSH1 0x20 ADD PUSH0 DUP3 ADD PUSH1 0x1 SWAP1 SLOAD SWAP1 PUSH2 0x100 EXP SWAP1 DIV PUSH1 0xFF AND PUSH1 0x2 DUP2 GT ISZERO PUSH2 0x1E28 JUMPI PUSH2 0x1E27 PUSH2 0x383D JUMP JUMPDEST JUMPDEST PUSH1 0x2 DUP2 GT ISZERO PUSH2 0x1E3A JUMPI PUSH2 0x1E39 PUSH2 0x383D JUMP JUMPDEST JUMPDEST DUP2 MSTORE PUSH1 0x20 ADD PUSH0 DUP3 ADD PUSH1 0x2 SWAP1 SLOAD SWAP1 PUSH2 0x100 EXP SWAP1 DIV PUSH1 0xFF AND PUSH1 0x3 DUP2 GT ISZERO PUSH2 0x1E62 JUMPI PUSH2 0x1E61 PUSH2 0x383D JUMP JUMPDEST JUMPDEST PUSH1 0x3 DUP2 GT ISZERO PUSH2 0x1E74 JUMPI PUSH2 0x1E73 PUSH2 0x383D JUMP JUMPDEST JUMPDEST DUP2 MSTORE PUSH1 0x20 ADD PUSH0 DUP3 ADD PUSH1 0x3 SWAP1 SLOAD SWAP1 PUSH2 0x100 EXP SWAP1 DIV PUSH1 0xFF AND PUSH1 0xFF AND PUSH1 0xFF AND DUP2 MSTORE PUSH1 0x20 ADD PUSH0 DUP3 ADD PUSH1 0x4 SWAP1 SLOAD SWAP1 PUSH2 0x100 EXP SWAP1 DIV PUSH1 0xFF AND PUSH1 0xFF AND PUSH1 0xFF AND DUP2 MSTORE PUSH1 0x20 ADD PUSH0 DUP3 ADD PUSH1 0x5 SWAP1 SLOAD SWAP1 PUSH2 0x100 EXP SWAP1 DIV PUSH1 0xFF AND PUSH1 0xFF AND PUSH1 0xFF AND DUP2 MSTORE POP POP DUP2 MSTORE PUSH1 0x20 ADD SWAP1 PUSH1 0x1 ADD SWAP1 PUSH2 0x1DAE JUMP JUMPDEST POP POP POP POP SWAP1 POP SWAP2 SWAP1 POP JUMP JUMPDEST PUSH1 0x4 PUSH1 0x20 MSTORE DUP2 PUSH0 MSTORE PUSH1 0x40 PUSH0 KECCAK256 DUP2 DUP2 SLOAD DUP2 LT PUSH2 0x1EFF JUMPI PUSH0 DUP1 REVERT JUMPDEST SWAP1 PUSH0 MSTORE PUSH1 0x20 PUSH0 KECCAK256 ADD PUSH0 SWAP2 POP SWAP2 POP POP DUP1 PUSH0 ADD PUSH0 SWAP1 SLOAD SWAP1 PUSH2 0x100 EXP SWAP1 DIV PUSH1 0xFF AND SWAP1 DUP1 PUSH0 ADD PUSH1 0x1 SWAP1 SLOAD SWAP1 PUSH2 0x100 EXP SWAP1 DIV PUSH1 0xFF AND SWAP1 DUP1 PUSH0 ADD PUSH1 0x2 SWAP1 SLOAD SWAP1 PUSH2 0x100 EXP SWAP1 DIV PUSH1 0xFF AND SWAP1 DUP1 PUSH0 ADD PUSH1 0x3 SWAP1 SLOAD SWAP1 PUSH2 0x100 EXP SWAP1 DIV PUSH1 0xFF AND SWAP1 DUP1 PUSH0 ADD PUSH1 0x4 SWAP1 SLOAD SWAP1 PUSH2 0x100 EXP SWAP1 DIV PUSH1 0xFF AND SWAP1 DUP1 PUSH0 ADD PUSH1 0x5 SWAP1 SLOAD SWAP1 PUSH2 0x100 EXP SWAP1 DIV PUSH1 0xFF AND SWAP1 POP DUP7 JUMP JUMPDEST PUSH2 0x1F84 PUSH2 0x2695 JUMP JUMPDEST PUSH0 PUSH20 0xFFFFFFFFFFFFFFFFFFFFFFFFFFFFFFFFFFFFFFFF AND DUP2 PUSH20 0xFFFFFFFFFFFFFFFFFFFFFFFFFFFFFFFFFFFFFFFF AND SUB PUSH2 0x1FF4 JUMPI PUSH0 PUSH1 0x40 MLOAD PUSH32 0x1E4FBDF700000000000000000000000000000000000000000000000000000000 DUP2 MSTORE PUSH1 0x4 ADD PUSH2 0x1FEB SWAP2 SWAP1 PUSH2 0x3D5C JUMP JUMPDEST PUSH1 0x40 MLOAD DUP1 SWAP2 SUB SWAP1 REVERT JUMPDEST PUSH2 0x1FFD DUP2 PUSH2 0x277D JUMP JUMPDEST POP JUMP JUMPDEST PUSH2 0x2008 PUSH2 0xB65 JUMP JUMPDEST ISZERO PUSH2 0x203F JUMPI PUSH1 0x40 MLOAD PUSH32 0xD93C066500000000000000000000000000000000000000000000000000000000 DUP2 MSTORE PUSH1 0x4 ADD PUSH1 0x40 MLOAD DUP1 SWAP2 SUB SWAP1 REVERT JUMPDEST JUMP JUMPDEST PUSH2 0x2049 PUSH2 0x3550 JUMP JUMPDEST PUSH1 0x2 PUSH2 0x205B PUSH2 0x2056 PUSH2 0x3591 JUMP JUMPDEST PUSH2 0x35BA JUMP JUMPDEST PUSH0 ADD DUP2 SWAP1 SSTORE POP JUMP JUMPDEST PUSH0 PUSH0 PUSH1 0x64 DUP5 DUP5 PUSH1 0x40 MLOAD PUSH1 0x20 ADD PUSH2 0x207A SWAP3 SWAP2 SWAP1 PUSH2 0x482F JUMP JUMPDEST PUSH1 0x40 MLOAD PUSH1 0x20 DUP2 DUP4 SUB SUB DUP2 MSTORE SWAP1 PUSH1 0x40 MSTORE DUP1 MLOAD SWAP1 PUSH1 0x20 ADD KECCAK256 PUSH0 SHR PUSH2 0x209C SWAP2 SWAP1 PUSH2 0x40C7 JUMP JUMPDEST SWAP1 POP PUSH1 0x41 DUP2 LT ISZERO PUSH2 0x20B0 JUMPI PUSH0 SWAP2 POP POP PUSH2 0x20C9 JUMP JUMPDEST PUSH1 0x5A DUP2 LT ISZERO PUSH2 0x20C3 JUMPI PUSH1 0x1 SWAP2 POP POP PUSH2 0x20C9 JUMP JUMPDEST PUSH1 0x2 SWAP2 POP POP JUMPDEST SWAP3 SWAP2 POP POP JUMP JUMPDEST PUSH0 PUSH1 0x2 PUSH0 DUP4 PUSH20 0xFFFFFFFFFFFFFFFFFFFFFFFFFFFFFFFFFFFFFFFF AND PUSH20 0xFFFFFFFFFFFFFFFFFFFFFFFFFFFFFFFFFFFFFFFF AND DUP2 MSTORE PUSH1 0x20 ADD SWAP1 DUP2 MSTORE PUSH1 0x20 ADD PUSH0 KECCAK256 SWAP1 POP PUSH0 DUP2 PUSH0 ADD PUSH0 SWAP1 SLOAD SWAP1 PUSH2 0x100 EXP SWAP1 DIV PUSH2 0xFFFF AND PUSH2 0xFFFF AND SUB PUSH2 0x2149 JUMPI PUSH1 0x1 DUP2 PUSH0 ADD PUSH0 PUSH2 0x100 EXP DUP2 SLOAD DUP2 PUSH2 0xFFFF MUL NOT AND SWAP1 DUP4 PUSH2 0xFFFF AND MUL OR SWAP1 SSTORE POP JUMPDEST PUSH1 0xA DUP2 PUSH0 ADD PUSH1 0x2 DUP3 DUP3 DUP3 SWAP1 SLOAD SWAP1 PUSH2 0x100 EXP SWAP1 DIV PUSH4 0xFFFFFFFF AND PUSH2 0x216C SWAP2 SWAP1 PUSH2 0x485A JUMP JUMPDEST SWAP3 POP PUSH2 0x100 EXP DUP2 SLOAD DUP2 PUSH4 0xFFFFFFFF MUL NOT AND SWAP1 DUP4 PUSH4 0xFFFFFFFF AND MUL OR SWAP1 SSTORE POP PUSH1 0x64 DUP2 PUSH0 ADD PUSH0 SWAP1 SLOAD SWAP1 PUSH2 0x100 EXP SWAP1 DIV PUSH2 0xFFFF AND PUSH2 0xFFFF AND PUSH2 0x21AB SWAP2 SWAP1 PUSH2 0x4891 JUMP JUMPDEST PUSH4 0xFFFFFFFF AND DUP2 PUSH0 ADD PUSH1 0x2 SWAP1 SLOAD SWAP1 PUSH2 0x100 EXP SWAP1 DIV PUSH4 0xFFFFFFFF AND PUSH4 0xFFFFFFFF AND LT PUSH2 0x222E JUMPI DUP1 PUSH0 ADD PUSH0 DUP2 DUP2 SWAP1 SLOAD SWAP1 PUSH2 0x100 EXP SWAP1 DIV PUSH2 0xFFFF AND DUP1 SWAP3 SWAP2 SWAP1 PUSH2 0x21F0 SWAP1 PUSH2 0x48CD JUMP JUMPDEST SWAP2 SWAP1 PUSH2 0x100 EXP DUP2 SLOAD DUP2 PUSH2 0xFFFF MUL NOT AND SWAP1 DUP4 PUSH2 0xFFFF AND MUL OR SWAP1 SSTORE POP POP PUSH0 DUP2 PUSH0 ADD PUSH1 0x2 PUSH2 0x100 EXP DUP2 SLOAD DUP2 PUSH4 0xFFFFFFFF MUL NOT AND SWAP1 DUP4 PUSH4 0xFFFFFFFF AND MUL OR SWAP1 SSTORE POP JUMPDEST POP POP JUMP JUMPDEST PUSH1 0x1 PUSH2 0x2244 PUSH2 0x223F PUSH2 0x3591 JUMP JUMPDEST PUSH2 0x35BA JUMP JUMPDEST PUSH0 ADD DUP2 SWAP1 SSTORE POP JUMP JUMPDEST PUSH0 TIMESTAMP DUP3 PUSH1 0x1 PUSH0 SWAP1 SLOAD SWAP1 PUSH2 0x100 EXP SWAP1 DIV PUSH20 0xFFFFFFFFFFFFFFFFFFFFFFFFFFFFFFFFFFFFFFFF AND PUSH20 0xFFFFFFFFFFFFFFFFFFFFFFFFFFFFFFFFFFFFFFFF AND PUSH4 0x18160DDD PUSH1 0x40 MLOAD DUP2 PUSH4 0xFFFFFFFF AND PUSH1 0xE0 SHL DUP2 MSTORE PUSH1 0x4 ADD PUSH1 0x20 PUSH1 0x40 MLOAD DUP1 DUP4 SUB DUP2 DUP7 GAS STATICCALL ISZERO DUP1 ISZERO PUSH2 0x22B9 JUMPI RETURNDATASIZE PUSH0 PUSH0 RETURNDATACOPY RETURNDATASIZE PUSH0 REVERT JUMPDEST POP POP POP POP PUSH1 0x40 MLOAD RETURNDATASIZE PUSH1 0x1F NOT PUSH1 0x1F DUP3 ADD AND DUP3 ADD DUP1 PUSH1 0x40 MSTORE POP DUP2 ADD SWAP1 PUSH2 0x22DD SWAP2 SWAP1 PUSH2 0x3FCE JUMP JUMPDEST PREVRANDAO PUSH1 0x40 MLOAD PUSH1 0x20 ADD PUSH2 0x22F1 SWAP5 SWAP4 SWAP3 SWAP2 SWAP1 PUSH2 0x48F6 JUMP JUMPDEST PUSH1 0x40 MLOAD PUSH1 0x20 DUP2 DUP4 SUB SUB DUP2 MSTORE SWAP1 PUSH1 0x40 MSTORE DUP1 MLOAD SWAP1 PUSH1 0x20 ADD KECCAK256 PUSH0 SHR SWAP1 POP PUSH0 PUSH0 SWAP1 POP JUMPDEST PUSH1 0x5 DUP2 LT ISZERO PUSH2 0x2690 JUMPI PUSH0 PUSH1 0x3 PUSH1 0x8 DUP4 PUSH2 0x2329 SWAP2 SWAP1 PUSH2 0x4390 JUMP JUMPDEST DUP5 SWAP1 SHR PUSH2 0x2336 SWAP2 SWAP1 PUSH2 0x40C7 JUMP JUMPDEST PUSH1 0xFF AND PUSH1 0x2 DUP2 GT ISZERO PUSH2 0x234B JUMPI PUSH2 0x234A PUSH2 0x383D JUMP JUMPDEST JUMPDEST SWAP1 POP PUSH0 PUSH2 0x2358 DUP5 DUP5 PUSH2 0x2063 JUMP JUMPDEST SWAP1 POP PUSH0 PUSH1 0x4 PUSH1 0x8 PUSH1 0x10 DUP7 PUSH2 0x236C SWAP2 SWAP1 PUSH2 0x4390 JUMP JUMPDEST PUSH2 0x2376 SWAP2 SWAP1 PUSH2 0x43D1 JUMP JUMPDEST DUP7 SWAP1 SHR PUSH2 0x2383 SWAP2 SWAP1 PUSH2 0x40C7 JUMP JUMPDEST PUSH1 0xFF AND PUSH1 0x3 DUP2 GT ISZERO PUSH2 0x2398 JUMPI PUSH2 0x2397 PUSH2 0x383D JUMP JUMPDEST JUMPDEST SWAP1 POP PUSH0 PUSH1 0x5 PUSH1 0x18 DUP7 PUSH2 0x23AA SWAP2 SWAP1 PUSH2 0x4390 JUMP JUMPDEST DUP8 SWAP1 SHR PUSH2 0x23B7 SWAP2 SWAP1 PUSH2 0x40C7 JUMP JUMPDEST PUSH1 0x4 PUSH2 0x23C3 SWAP2 SWAP1 PUSH2 0x4124 JUMP JUMPDEST SWAP1 POP PUSH0 PUSH1 0x5 PUSH1 0x20 DUP8 PUSH2 0x23D5 SWAP2 SWAP1 PUSH2 0x4390 JUMP JUMPDEST DUP9 SWAP1 SHR PUSH2 0x23E2 SWAP2 SWAP1 PUSH2 0x40C7 JUMP JUMPDEST PUSH1 0x4 PUSH2 0x23EE SWAP2 SWAP1 PUSH2 0x4124 JUMP JUMPDEST SWAP1 POP PUSH0 PUSH1 0x5 PUSH1 0x28 DUP9 PUSH2 0x2400 SWAP2 SWAP1 PUSH2 0x4390 JUMP JUMPDEST DUP10 SWAP1 SHR PUSH2 0x240D SWAP2 SWAP1 PUSH2 0x40C7 JUMP JUMPDEST PUSH1 0x4 PUSH2 0x2419 SWAP2 SWAP1 PUSH2 0x4124 JUMP JUMPDEST SWAP1 POP PUSH1 0x1 PUSH1 0x2 DUP2 GT ISZERO PUSH2 0x242F JUMPI PUSH2 0x242E PUSH2 0x383D JUMP JUMPDEST JUMPDEST DUP6 PUSH1 0x2 DUP2 GT ISZERO PUSH2 0x2442 JUMPI PUSH2 0x2441 PUSH2 0x383D JUMP JUMPDEST JUMPDEST SUB PUSH2 0x2479 JUMPI PUSH1 0x2 DUP4 PUSH2 0x2454 SWAP2 SWAP1 PUSH2 0x4124 JUMP JUMPDEST SWAP3 POP PUSH1 0x1 DUP3 PUSH2 0x2463 SWAP2 SWAP1 PUSH2 0x4124 JUMP JUMPDEST SWAP2 POP PUSH1 0x1 DUP2 PUSH2 0x2472 SWAP2 SWAP1 PUSH2 0x4124 JUMP JUMPDEST SWAP1 POP PUSH2 0x24D3 JUMP JUMPDEST PUSH1 0x2 DUP1 DUP2 GT ISZERO PUSH2 0x248C JUMPI PUSH2 0x248B PUSH2 0x383D JUMP JUMPDEST JUMPDEST DUP6 PUSH1 0x2 DUP2 GT ISZERO PUSH2 0x249F JUMPI PUSH2 0x249E PUSH2 0x383D JUMP JUMPDEST JUMPDEST SUB PUSH2 0x24D2 JUMPI PUSH1 0x3 DUP4 PUSH2 0x24B1 SWAP2 SWAP1 PUSH2 0x4124 JUMP JUMPDEST SWAP3 POP PUSH1 0x3 DUP3 PUSH2 0x24C0 SWAP2 SWAP1 PUSH2 0x4124 JUMP JUMPDEST SWAP2 POP PUSH1 0x2 DUP2 PUSH2 0x24CF SWAP2 SWAP1 PUSH2 0x4124 JUMP JUMPDEST SWAP1 POP JUMPDEST JUMPDEST PUSH1 0x40 MLOAD DUP1 PUSH1 0xC0 ADD PUSH1 0x40 MSTORE DUP1 DUP8 PUSH1 0x2 DUP2 GT ISZERO PUSH2 0x24F1 JUMPI PUSH2 0x24F0 PUSH2 0x383D JUMP JUMPDEST JUMPDEST DUP2 MSTORE PUSH1 0x20 ADD DUP7 PUSH1 0x2 DUP2 GT ISZERO PUSH2 0x2509 JUMPI PUSH2 0x2508 PUSH2 0x383D JUMP JUMPDEST JUMPDEST DUP2 MSTORE PUSH1 0x20 ADD DUP6 PUSH1 0x3 DUP2 GT ISZERO PUSH2 0x2521 JUMPI PUSH2 0x2520 PUSH2 0x383D JUMP JUMPDEST JUMPDEST DUP2 MSTORE PUSH1 0x20 ADD DUP5 PUSH1 0xFF AND DUP2 MSTORE PUSH1 0x20 ADD DUP4 PUSH1 0xFF AND DUP2 MSTORE PUSH1 0x20 ADD DUP3 PUSH1 0xFF AND DUP2 MSTORE POP PUSH1 0x3 PUSH0 DUP12 PUSH20 0xFFFFFFFFFFFFFFFFFFFFFFFFFFFFFFFFFFFFFFFF AND PUSH20 0xFFFFFFFFFFFFFFFFFFFFFFFFFFFFFFFFFFFFFFFF AND DUP2 MSTORE PUSH1 0x20 ADD SWAP1 DUP2 MSTORE PUSH1 0x20 ADD PUSH0 KECCAK256 DUP9 PUSH1 0x5 DUP2 LT PUSH2 0x258E JUMPI PUSH2 0x258D PUSH2 0x42BC JUMP JUMPDEST JUMPDEST ADD PUSH0 DUP3 ADD MLOAD DUP2 PUSH0 ADD PUSH0 PUSH2 0x100 EXP DUP2 SLOAD DUP2 PUSH1 0xFF MUL NOT AND SWAP1 DUP4 PUSH1 0x2 DUP2 GT ISZERO PUSH2 0x25B7 JUMPI PUSH2 0x25B6 PUSH2 0x383D JUMP JUMPDEST JUMPDEST MUL OR SWAP1 SSTORE POP PUSH1 0x20 DUP3 ADD MLOAD DUP2 PUSH0 ADD PUSH1 0x1 PUSH2 0x100 EXP DUP2 SLOAD DUP2 PUSH1 0xFF MUL NOT AND SWAP1 DUP4 PUSH1 0x2 DUP2 GT ISZERO PUSH2 0x25E6 JUMPI PUSH2 0x25E5 PUSH2 0x383D JUMP JUMPDEST JUMPDEST MUL OR SWAP1 SSTORE POP PUSH1 0x40 DUP3 ADD MLOAD DUP2 PUSH0 ADD PUSH1 0x2 PUSH2 0x100 EXP DUP2 SLOAD DUP2 PUSH1 0xFF MUL NOT AND SWAP1 DUP4 PUSH1 0x3 DUP2 GT ISZERO PUSH2 0x2615 JUMPI PUSH2 0x2614 PUSH2 0x383D JUMP JUMPDEST JUMPDEST MUL OR SWAP1 SSTORE POP PUSH1 0x60 DUP3 ADD MLOAD DUP2 PUSH0 ADD PUSH1 0x3 PUSH2 0x100 EXP DUP2 SLOAD DUP2 PUSH1 0xFF MUL NOT AND SWAP1 DUP4 PUSH1 0xFF AND MUL OR SWAP1 SSTORE POP PUSH1 0x80 DUP3 ADD MLOAD DUP2 PUSH0 ADD PUSH1 0x4 PUSH2 0x100 EXP DUP2 SLOAD DUP2 PUSH1 0xFF MUL NOT AND SWAP1 DUP4 PUSH1 0xFF AND MUL OR SWAP1 SSTORE POP PUSH1 0xA0 DUP3 ADD MLOAD DUP2 PUSH0 ADD PUSH1 0x5 PUSH2 0x100 EXP DUP2 SLOAD DUP2 PUSH1 0xFF MUL NOT AND SWAP1 DUP4 PUSH1 0xFF AND MUL OR SWAP1 SSTORE POP SWAP1 POP POP POP POP POP POP POP POP DUP1 DUP1 PUSH1 0x1 ADD SWAP2 POP POP PUSH2 0x2310 JUMP JUMPDEST POP POP POP JUMP JUMPDEST PUSH2 0x269D PUSH2 0x35C3 JUMP JUMPDEST PUSH20 0xFFFFFFFFFFFFFFFFFFFFFFFFFFFFFFFFFFFFFFFF AND PUSH2 0x26BB PUSH2 0x1839 JUMP JUMPDEST PUSH20 0xFFFFFFFFFFFFFFFFFFFFFFFFFFFFFFFFFFFFFFFF AND EQ PUSH2 0x271A JUMPI PUSH2 0x26DE PUSH2 0x35C3 JUMP JUMPDEST PUSH1 0x40 MLOAD PUSH32 0x118CDAA700000000000000000000000000000000000000000000000000000000 DUP2 MSTORE PUSH1 0x4 ADD PUSH2 0x2711 SWAP2 SWAP1 PUSH2 0x3D5C JUMP JUMPDEST PUSH1 0x40 MLOAD DUP1 SWAP2 SUB SWAP1 REVERT JUMPDEST JUMP JUMPDEST PUSH2 0x2724 PUSH2 0x35CA JUMP JUMPDEST PUSH0 PUSH0 PUSH1 0x14 PUSH2 0x100 EXP DUP2 SLOAD DUP2 PUSH1 0xFF MUL NOT AND SWAP1 DUP4 ISZERO ISZERO MUL OR SWAP1 SSTORE POP PUSH32 0x5DB9EE0A495BF2E6FF9C91A7834C1BA4FDD244A5E8AA4E537BD38AEAE4B073AA PUSH2 0x2766 PUSH2 0x35C3 JUMP JUMPDEST PUSH1 0x40 MLOAD PUSH2 0x2773 SWAP2 SWAP1 PUSH2 0x3D5C JUMP JUMPDEST PUSH1 0x40 MLOAD DUP1 SWAP2 SUB SWAP1 LOG1 JUMP JUMPDEST PUSH0 PUSH0 PUSH0 SWAP1 SLOAD SWAP1 PUSH2 0x100 EXP SWAP1 DIV PUSH20 0xFFFFFFFFFFFFFFFFFFFFFFFFFFFFFFFFFFFFFFFF AND SWAP1 POP DUP2 PUSH0 PUSH0 PUSH2 0x100 EXP DUP2 SLOAD DUP2 PUSH20 0xFFFFFFFFFFFFFFFFFFFFFFFFFFFFFFFFFFFFFFFF MUL NOT AND SWAP1 DUP4 PUSH20 0xFFFFFFFFFFFFFFFFFFFFFFFFFFFFFFFFFFFFFFFF AND MUL OR SWAP1 SSTORE POP DUP2 PUSH20 0xFFFFFFFFFFFFFFFFFFFFFFFFFFFFFFFFFFFFFFFF AND DUP2 PUSH20 0xFFFFFFFFFFFFFFFFFFFFFFFFFFFFFFFFFFFFFFFF AND PUSH32 0x8BE0079C531659141344CD1FD0A4F28419497F9722A3DAAFE3B4186F6B6457E0 PUSH1 0x40 MLOAD PUSH1 0x40 MLOAD DUP1 SWAP2 SUB SWAP1 LOG3 POP POP JUMP JUMPDEST PUSH0 PUSH1 0x2 PUSH0 DUP4 PUSH20 0xFFFFFFFFFFFFFFFFFFFFFFFFFFFFFFFFFFFFFFFF AND PUSH20 0xFFFFFFFFFFFFFFFFFFFFFFFFFFFFFFFFFFFFFFFF AND DUP2 MSTORE PUSH1 0x20 ADD SWAP1 DUP2 MSTORE PUSH1 0x20 ADD PUSH0 KECCAK256 PUSH1 0x40 MLOAD DUP1 PUSH1 0x80 ADD PUSH1 0x40 MSTORE SWAP1 DUP2 PUSH0 DUP3 ADD PUSH0 SWAP1 SLOAD SWAP1 PUSH2 0x100 EXP SWAP1 DIV PUSH2 0xFFFF AND PUSH2 0xFFFF AND PUSH2 0xFFFF AND DUP2 MSTORE PUSH1 0x20 ADD PUSH0 DUP3 ADD PUSH1 0x2 SWAP1 SLOAD SWAP1 PUSH2 0x100 EXP SWAP1 DIV PUSH4 0xFFFFFFFF AND PUSH4 0xFFFFFFFF AND PUSH4 0xFFFFFFFF AND DUP2 MSTORE PUSH1 0x20 ADD PUSH1 0x1 DUP3 ADD SLOAD DUP2 MSTORE PUSH1 0x20 ADD PUSH1 0x2 DUP3 ADD SLOAD DUP2 MSTORE POP POP SWAP1 POP PUSH0 PUSH0 DUP3 PUSH0 ADD MLOAD PUSH2 0xFFFF AND GT PUSH2 0x28F6 JUMPI PUSH1 0x1 PUSH2 0x28FB JUMP JUMPDEST DUP2 PUSH0 ADD MLOAD JUMPDEST SWAP1 POP PUSH0 TIMESTAMP DUP5 DUP4 PUSH1 0x1 PUSH0 SWAP1 SLOAD SWAP1 PUSH2 0x100 EXP SWAP1 DIV PUSH20 0xFFFFFFFFFFFFFFFFFFFFFFFFFFFFFFFFFFFFFFFF AND PUSH20 0xFFFFFFFFFFFFFFFFFFFFFFFFFFFFFFFFFFFFFFFF AND PUSH4 0x18160DDD PUSH1 0x40 MLOAD DUP2 PUSH4 0xFFFFFFFF AND PUSH1 0xE0 SHL DUP2 MSTORE PUSH1 0x4 ADD PUSH1 0x20 PUSH1 0x40 MLOAD DUP1 DUP4 SUB DUP2 DUP7 GAS STATICCALL ISZERO DUP1 ISZERO PUSH2 0x296B JUMPI RETURNDATASIZE PUSH0 PUSH0 RETURNDATACOPY RETURNDATASIZE PUSH0 REVERT JUMPDEST POP POP POP POP PUSH1 0x40 MLOAD RETURNDATASIZE PUSH1 0x1F NOT PUSH1 0x1F DUP3 ADD AND DUP3 ADD DUP1 PUSH1 0x40 MSTORE POP DUP2 ADD SWAP1 PUSH2 0x298F SWAP2 SWAP1 PUSH2 0x3FCE JUMP JUMPDEST PREVRANDAO PUSH1 0x40 MLOAD PUSH1 0x20 ADD PUSH2 0x29A4 SWAP6 SWAP5 SWAP4 SWAP3 SWAP2 SWAP1 PUSH2 0x4977 JUMP JUMPDEST PUSH1 0x40 MLOAD PUSH1 0x20 DUP2 DUP4 SUB SUB DUP2 MSTORE SWAP1 PUSH1 0x40 MSTORE DUP1 MLOAD SWAP1 PUSH1 0x20 ADD KECCAK256 PUSH0 SHR SWAP1 POP PUSH0 PUSH1 0x4 SWAP1 POP PUSH1 0x4 PUSH0 DUP7 PUSH20 0xFFFFFFFFFFFFFFFFFFFFFFFFFFFFFFFFFFFFFFFF AND PUSH20 0xFFFFFFFFFFFFFFFFFFFFFFFFFFFFFFFFFFFFFFFF AND DUP2 MSTORE PUSH1 0x20 ADD SWAP1 DUP2 MSTORE PUSH1 0x20 ADD PUSH0 KECCAK256 PUSH0 PUSH2 0x2A0B SWAP2 SWAP1 PUSH2 0x3653 JUMP JUMPDEST PUSH0 PUSH0 SWAP1 POP JUMPDEST DUP2 PUSH1 0xFF AND DUP2 LT ISZERO PUSH2 0x2DDB JUMPI PUSH2 0x2A23 PUSH2 0x3671 JUMP JUMPDEST PUSH1 0x3 PUSH1 0x8 DUP4 PUSH2 0x2A32 SWAP2 SWAP1 PUSH2 0x4390 JUMP JUMPDEST DUP6 SWAP1 SHR PUSH2 0x2A3F SWAP2 SWAP1 PUSH2 0x40C7 JUMP JUMPDEST PUSH1 0xFF AND PUSH1 0x2 DUP2 GT ISZERO PUSH2 0x2A54 JUMPI PUSH2 0x2A53 PUSH2 0x383D JUMP JUMPDEST JUMPDEST DUP2 PUSH0 ADD SWAP1 PUSH1 0x2 DUP2 GT ISZERO PUSH2 0x2A6A JUMPI PUSH2 0x2A69 PUSH2 0x383D JUMP JUMPDEST JUMPDEST SWAP1 DUP2 PUSH1 0x2 DUP2 GT ISZERO PUSH2 0x2A7E JUMPI PUSH2 0x2A7D PUSH2 0x383D JUMP JUMPDEST JUMPDEST DUP2 MSTORE POP POP PUSH0 DUP2 PUSH1 0x20 ADD SWAP1 PUSH1 0x2 DUP2 GT ISZERO PUSH2 0x2A9A JUMPI PUSH2 0x2A99 PUSH2 0x383D JUMP JUMPDEST JUMPDEST SWAP1 DUP2 PUSH1 0x2 DUP2 GT ISZERO PUSH2 0x2AAE JUMPI PUSH2 0x2AAD PUSH2 0x383D JUMP JUMPDEST JUMPDEST DUP2 MSTORE POP POP PUSH1 0x4 PUSH1 0x10 DUP4 PUSH2 0x2AC1 SWAP2 SWAP1 PUSH2 0x4390 JUMP JUMPDEST DUP6 SWAP1 SHR PUSH2 0x2ACE SWAP2 SWAP1 PUSH2 0x40C7 JUMP JUMPDEST PUSH1 0xFF AND PUSH1 0x3 DUP2 GT ISZERO PUSH2 0x2AE3 JUMPI PUSH2 0x2AE2 PUSH2 0x383D JUMP JUMPDEST JUMPDEST DUP2 PUSH1 0x40 ADD SWAP1 PUSH1 0x3 DUP2 GT ISZERO PUSH2 0x2AFA JUMPI PUSH2 0x2AF9 PUSH2 0x383D JUMP JUMPDEST JUMPDEST SWAP1 DUP2 PUSH1 0x3 DUP2 GT ISZERO PUSH2 0x2B0E JUMPI PUSH2 0x2B0D PUSH2 0x383D JUMP JUMPDEST JUMPDEST DUP2 MSTORE POP POP PUSH0 PUSH1 0x4 DUP7 PUSH2 0x2B20 SWAP2 SWAP1 PUSH2 0x49D5 JUMP JUMPDEST PUSH1 0x3 PUSH2 0x2B2C SWAP2 SWAP1 PUSH2 0x4124 JUMP JUMPDEST SWAP1 POP PUSH1 0x6 PUSH1 0x8 PUSH1 0x20 DUP6 PUSH2 0x2B3F SWAP2 SWAP1 PUSH2 0x4390 JUMP JUMPDEST PUSH2 0x2B49 SWAP2 SWAP1 PUSH2 0x43D1 JUMP JUMPDEST DUP7 SWAP1 SHR PUSH2 0x2B56 SWAP2 SWAP1 PUSH2 0x40C7 JUMP JUMPDEST DUP2 PUSH2 0x2B61 SWAP2 SWAP1 PUSH2 0x4124 JUMP JUMPDEST DUP3 PUSH1 0x60 ADD SWAP1 PUSH1 0xFF AND SWAP1 DUP2 PUSH1 0xFF AND DUP2 MSTORE POP POP PUSH1 0x6 PUSH1 0x28 DUP5 PUSH2 0x2B81 SWAP2 SWAP1 PUSH2 0x4390 JUMP JUMPDEST DUP7 SWAP1 SHR PUSH2 0x2B8E SWAP2 SWAP1 PUSH2 0x40C7 JUMP JUMPDEST DUP2 PUSH2 0x2B99 SWAP2 SWAP1 PUSH2 0x4124 JUMP JUMPDEST DUP3 PUSH1 0x80 ADD SWAP1 PUSH1 0xFF AND SWAP1 DUP2 PUSH1 0xFF AND DUP2 MSTORE POP POP PUSH1 0x6 PUSH1 0x30 DUP5 PUSH2 0x2BB9 SWAP2 SWAP1 PUSH2 0x4390 JUMP JUMPDEST DUP7 SWAP1 SHR PUSH2 0x2BC6 SWAP2 SWAP1 PUSH2 0x40C7 JUMP JUMPDEST DUP2 PUSH2 0x2BD1 SWAP2 SWAP1 PUSH2 0x4124 JUMP JUMPDEST DUP3 PUSH1 0xA0 ADD SWAP1 PUSH1 0xFF AND SWAP1 DUP2 PUSH1 0xFF AND DUP2 MSTORE POP POP PUSH1 0xF PUSH1 0x64 PUSH1 0x38 DUP6 PUSH2 0x2BF3 SWAP2 SWAP1 PUSH2 0x4390 JUMP JUMPDEST DUP8 SWAP1 SHR PUSH2 0x2C00 SWAP2 SWAP1 PUSH2 0x40C7 JUMP JUMPDEST PUSH1 0xFF AND LT ISZERO PUSH2 0x2C7F JUMPI PUSH1 0x1 DUP3 PUSH1 0x20 ADD SWAP1 PUSH1 0x2 DUP2 GT ISZERO PUSH2 0x2C22 JUMPI PUSH2 0x2C21 PUSH2 0x383D JUMP JUMPDEST JUMPDEST SWAP1 DUP2 PUSH1 0x2 DUP2 GT ISZERO PUSH2 0x2C36 JUMPI PUSH2 0x2C35 PUSH2 0x383D JUMP JUMPDEST JUMPDEST DUP2 MSTORE POP POP PUSH1 0x2 DUP3 PUSH1 0x60 ADD DUP2 DUP2 MLOAD PUSH2 0x2C4D SWAP2 SWAP1 PUSH2 0x4124 JUMP JUMPDEST SWAP2 POP SWAP1 PUSH1 0xFF AND SWAP1 DUP2 PUSH1 0xFF AND DUP2 MSTORE POP POP PUSH1 0x1 DUP3 PUSH1 0x80 ADD DUP2 DUP2 MLOAD PUSH2 0x2C6F SWAP2 SWAP1 PUSH2 0x4124 JUMP JUMPDEST SWAP2 POP SWAP1 PUSH1 0xFF AND SWAP1 DUP2 PUSH1 0xFF AND DUP2 MSTORE POP POP JUMPDEST PUSH1 0x4 PUSH0 DUP10 PUSH20 0xFFFFFFFFFFFFFFFFFFFFFFFFFFFFFFFFFFFFFFFF AND PUSH20 0xFFFFFFFFFFFFFFFFFFFFFFFFFFFFFFFFFFFFFFFF AND DUP2 MSTORE PUSH1 0x20 ADD SWAP1 DUP2 MSTORE PUSH1 0x20 ADD PUSH0 KECCAK256 DUP3 SWAP1 DUP1 PUSH1 0x1 DUP2 SLOAD ADD DUP1 DUP3 SSTORE DUP1 SWAP2 POP POP PUSH1 0x1 SWAP1 SUB SWAP1 PUSH0 MSTORE PUSH1 0x20 PUSH0 KECCAK256 ADD PUSH0 SWAP1 SWAP2 SWAP1 SWAP2 SWAP1 SWAP2 POP PUSH0 DUP3 ADD MLOAD DUP2 PUSH0 ADD PUSH0 PUSH2 0x100 EXP DUP2 SLOAD DUP2 PUSH1 0xFF MUL NOT AND SWAP1 DUP4 PUSH1 0x2 DUP2 GT ISZERO PUSH2 0x2D07 JUMPI PUSH2 0x2D06 PUSH2 0x383D JUMP JUMPDEST JUMPDEST MUL OR SWAP1 SSTORE POP PUSH1 0x20 DUP3 ADD MLOAD DUP2 PUSH0 ADD PUSH1 0x1 PUSH2 0x100 EXP DUP2 SLOAD DUP2 PUSH1 0xFF MUL NOT AND SWAP1 DUP4 PUSH1 0x2 DUP2 GT ISZERO PUSH2 0x2D36 JUMPI PUSH2 0x2D35 PUSH2 0x383D JUMP JUMPDEST JUMPDEST MUL OR SWAP1 SSTORE POP PUSH1 0x40 DUP3 ADD MLOAD DUP2 PUSH0 ADD PUSH1 0x2 PUSH2 0x100 EXP DUP2 SLOAD DUP2 PUSH1 0xFF MUL NOT AND SWAP1 DUP4 PUSH1 0x3 DUP2 GT ISZERO PUSH2 0x2D65 JUMPI PUSH2 0x2D64 PUSH2 0x383D JUMP JUMPDEST JUMPDEST MUL OR SWAP1 SSTORE POP PUSH1 0x60 DUP3 ADD MLOAD DUP2 PUSH0 ADD PUSH1 0x3 PUSH2 0x100 EXP DUP2 SLOAD DUP2 PUSH1 0xFF MUL NOT AND SWAP1 DUP4 PUSH1 0xFF AND MUL OR SWAP1 SSTORE POP PUSH1 0x80 DUP3 ADD MLOAD DUP2 PUSH0 ADD PUSH1 0x4 PUSH2 0x100 EXP DUP2 SLOAD DUP2 PUSH1 0xFF MUL NOT AND SWAP1 DUP4 PUSH1 0xFF AND MUL OR SWAP1 SSTORE POP PUSH1 0xA0 DUP3 ADD MLOAD DUP2 PUSH0 ADD PUSH1 0x5 PUSH2 0x100 EXP DUP2 SLOAD DUP2 PUSH1 0xFF MUL NOT AND SWAP1 DUP4 PUSH1 0xFF AND MUL OR SWAP1 SSTORE POP POP POP POP POP DUP1 DUP1 PUSH1 0x1 ADD SWAP2 POP POP PUSH2 0x2A10 JUMP JUMPDEST POP PUSH32 0xE21EBBECD481BD92987E725A0057707F7154C465084EBCC68CD42FF028DA5E6B DUP6 DUP5 PUSH1 0x40 MLOAD PUSH2 0x2E0D SWAP3 SWAP2 SWAP1 PUSH2 0x4A05 JUMP JUMPDEST PUSH1 0x40 MLOAD DUP1 SWAP2 SUB SWAP1 LOG1 POP POP POP POP POP JUMP JUMPDEST PUSH0 PUSH0 PUSH0 PUSH0 SWAP1 POP PUSH0 PUSH0 SWAP1 POP PUSH0 PUSH0 SWAP1 POP PUSH2 0x2E32 PUSH2 0x36E0 JUMP JUMPDEST PUSH0 PUSH0 SWAP1 POP JUMPDEST DUP9 DUP9 SWAP1 POP DUP2 LT ISZERO PUSH2 0x2F8B JUMPI PUSH0 PUSH1 0x1 PUSH0 SWAP1 SLOAD SWAP1 PUSH2 0x100 EXP SWAP1 DIV PUSH20 0xFFFFFFFFFFFFFFFFFFFFFFFFFFFFFFFFFFFFFFFF AND PUSH20 0xFFFFFFFFFFFFFFFFFFFFFFFFFFFFFFFFFFFFFFFF AND PUSH4 0x1655BFBE DUP12 DUP12 DUP6 DUP2 DUP2 LT PUSH2 0x2E93 JUMPI PUSH2 0x2E92 PUSH2 0x42BC JUMP JUMPDEST JUMPDEST SWAP1 POP PUSH1 0x20 MUL ADD CALLDATALOAD PUSH1 0x40 MLOAD DUP3 PUSH4 0xFFFFFFFF AND PUSH1 0xE0 SHL DUP2 MSTORE PUSH1 0x4 ADD PUSH2 0x2EB6 SWAP2 SWAP1 PUSH2 0x3AE3 JUMP JUMPDEST PUSH1 0xC0 PUSH1 0x40 MLOAD DUP1 DUP4 SUB DUP2 DUP7 GAS STATICCALL ISZERO DUP1 ISZERO PUSH2 0x2ED1 JUMPI RETURNDATASIZE PUSH0 PUSH0 RETURNDATACOPY RETURNDATASIZE PUSH0 REVERT JUMPDEST POP POP POP POP PUSH1 0x40 MLOAD RETURNDATASIZE PUSH1 0x1F NOT PUSH1 0x1F DUP3 ADD AND DUP3 ADD DUP1 PUSH1 0x40 MSTORE POP DUP2 ADD SWAP1 PUSH2 0x2EF5 SWAP2 SWAP1 PUSH2 0x4BBB JUMP JUMPDEST SWAP1 POP DUP1 PUSH1 0x60 ADD MLOAD PUSH1 0xFF AND DUP7 PUSH2 0x2F0A SWAP2 SWAP1 PUSH2 0x43D1 JUMP JUMPDEST SWAP6 POP DUP1 PUSH1 0x80 ADD MLOAD PUSH1 0xFF AND DUP6 PUSH2 0x2F1F SWAP2 SWAP1 PUSH2 0x43D1 JUMP JUMPDEST SWAP5 POP DUP1 PUSH1 0xA0 ADD MLOAD PUSH1 0xFF AND DUP5 PUSH2 0x2F34 SWAP2 SWAP1 PUSH2 0x43D1 JUMP JUMPDEST SWAP4 POP DUP3 DUP2 PUSH0 ADD MLOAD PUSH1 0x2 DUP2 GT ISZERO PUSH2 0x2F4D JUMPI PUSH2 0x2F4C PUSH2 0x383D JUMP JUMPDEST JUMPDEST PUSH1 0xFF AND PUSH1 0x3 DUP2 LT PUSH2 0x2F61 JUMPI PUSH2 0x2F60 PUSH2 0x42BC JUMP JUMPDEST JUMPDEST PUSH1 0x20 MUL ADD DUP1 MLOAD DUP1 SWAP2 SWAP1 PUSH2 0x2F73 SWAP1 PUSH2 0x4BE6 JUMP JUMPDEST PUSH1 0xFF AND PUSH1 0xFF AND DUP2 MSTORE POP POP POP DUP1 DUP1 PUSH1 0x1 ADD SWAP2 POP POP PUSH2 0x2E37 JUMP JUMPDEST POP PUSH0 SWAP5 POP PUSH1 0x3 DUP2 PUSH0 PUSH1 0x2 DUP2 GT ISZERO PUSH2 0x2FA5 JUMPI PUSH2 0x2FA4 PUSH2 0x383D JUMP JUMPDEST JUMPDEST PUSH1 0xFF AND PUSH1 0x3 DUP2 LT PUSH2 0x2FB9 JUMPI PUSH2 0x2FB8 PUSH2 0x42BC JUMP JUMPDEST JUMPDEST PUSH1 0x20 MUL ADD MLOAD PUSH1 0xFF AND LT PUSH2 0x2FF0 JUMPI PUSH1 0x64 PUSH1 0x82 DUP5 PUSH2 0x2FD5 SWAP2 SWAP1 PUSH2 0x4390 JUMP JUMPDEST PUSH2 0x2FDF SWAP2 SWAP1 PUSH2 0x4C0E JUMP JUMPDEST SWAP3 POP DUP5 DUP1 PUSH2 0x2FEC SWAP1 PUSH2 0x4BE6 JUMP JUMPDEST SWAP6 POP POP JUMPDEST PUSH1 0x3 DUP2 PUSH1 0x1 PUSH1 0x2 DUP2 GT ISZERO PUSH2 0x3007 JUMPI PUSH2 0x3006 PUSH2 0x383D JUMP JUMPDEST JUMPDEST PUSH1 0xFF AND PUSH1 0x3 DUP2 LT PUSH2 0x301B JUMPI PUSH2 0x301A PUSH2 0x42BC JUMP JUMPDEST JUMPDEST PUSH1 0x20 MUL ADD MLOAD PUSH1 0xFF AND LT PUSH2 0x3052 JUMPI PUSH1 0x64 PUSH1 0x91 DUP6 PUSH2 0x3037 SWAP2 SWAP1 PUSH2 0x4390 JUMP JUMPDEST PUSH2 0x3041 SWAP2 SWAP1 PUSH2 0x4C0E JUMP JUMPDEST SWAP4 POP DUP5 DUP1 PUSH2 0x304E SWAP1 PUSH2 0x4BE6 JUMP JUMPDEST SWAP6 POP POP JUMPDEST PUSH1 0x3 DUP2 PUSH1 0x2 DUP1 DUP2 GT ISZERO PUSH2 0x3068 JUMPI PUSH2 0x3067 PUSH2 0x383D JUMP JUMPDEST JUMPDEST PUSH1 0xFF AND PUSH1 0x3 DUP2 LT PUSH2 0x307C JUMPI PUSH2 0x307B PUSH2 0x42BC JUMP JUMPDEST JUMPDEST PUSH1 0x20 MUL ADD MLOAD PUSH1 0xFF AND LT PUSH2 0x30CE JUMPI PUSH1 0x64 PUSH1 0x7D DUP6 PUSH2 0x3098 SWAP2 SWAP1 PUSH2 0x4390 JUMP JUMPDEST PUSH2 0x30A2 SWAP2 SWAP1 PUSH2 0x4C0E JUMP JUMPDEST SWAP4 POP PUSH1 0x64 PUSH1 0x7D DUP5 PUSH2 0x30B3 SWAP2 SWAP1 PUSH2 0x4390 JUMP JUMPDEST PUSH2 0x30BD SWAP2 SWAP1 PUSH2 0x4C0E JUMP JUMPDEST SWAP3 POP DUP5 DUP1 PUSH2 0x30CA SWAP1 PUSH2 0x4BE6 JUMP JUMPDEST SWAP6 POP POP JUMPDEST PUSH1 0x2 DUP3 PUSH2 0x30DB SWAP2 SWAP1 PUSH2 0x4390 JUMP JUMPDEST DUP4 DUP6 PUSH2 0x30E7 SWAP2 SWAP1 PUSH2 0x43D1 JUMP JUMPDEST PUSH2 0x30F1 SWAP2 SWAP1 PUSH2 0x43D1 JUMP JUMPDEST SWAP6 POP POP POP POP POP SWAP3 POP SWAP3 SWAP1 POP JUMP JUMPDEST PUSH0 PUSH0 PUSH0 PUSH0 SWAP1 POP PUSH0 PUSH0 SWAP1 POP PUSH0 PUSH0 SWAP1 POP PUSH2 0x3114 PUSH2 0x36E0 JUMP JUMPDEST PUSH0 PUSH0 SWAP1 POP JUMPDEST DUP8 MLOAD DUP2 LT ISZERO PUSH2 0x31D4 JUMPI PUSH0 DUP9 DUP3 DUP2 MLOAD DUP2 LT PUSH2 0x3136 JUMPI PUSH2 0x3135 PUSH2 0x42BC JUMP JUMPDEST JUMPDEST PUSH1 0x20 MUL PUSH1 0x20 ADD ADD MLOAD SWAP1 POP DUP1 PUSH1 0x60 ADD MLOAD PUSH1 0xFF AND DUP7 PUSH2 0x3153 SWAP2 SWAP1 PUSH2 0x43D1 JUMP JUMPDEST SWAP6 POP DUP1 PUSH1 0x80 ADD MLOAD PUSH1 0xFF AND DUP6 PUSH2 0x3168 SWAP2 SWAP1 PUSH2 0x43D1 JUMP JUMPDEST SWAP5 POP DUP1 PUSH1 0xA0 ADD MLOAD PUSH1 0xFF AND DUP5 PUSH2 0x317D SWAP2 SWAP1 PUSH2 0x43D1 JUMP JUMPDEST SWAP4 POP DUP3 DUP2 PUSH0 ADD MLOAD PUSH1 0x2 DUP2 GT ISZERO PUSH2 0x3196 JUMPI PUSH2 0x3195 PUSH2 0x383D JUMP JUMPDEST JUMPDEST PUSH1 0xFF AND PUSH1 0x3 DUP2 LT PUSH2 0x31AA JUMPI PUSH2 0x31A9 PUSH2 0x42BC JUMP JUMPDEST JUMPDEST PUSH1 0x20 MUL ADD DUP1 MLOAD DUP1 SWAP2 SWAP1 PUSH2 0x31BC SWAP1 PUSH2 0x4BE6 JUMP JUMPDEST PUSH1 0xFF AND PUSH1 0xFF AND DUP2 MSTORE POP POP POP DUP1 DUP1 PUSH1 0x1 ADD SWAP2 POP POP PUSH2 0x3119 JUMP JUMPDEST POP PUSH0 SWAP5 POP PUSH1 0x3 DUP2 PUSH0 PUSH1 0x2 DUP2 GT ISZERO PUSH2 0x31EE JUMPI PUSH2 0x31ED PUSH2 0x383D JUMP JUMPDEST JUMPDEST PUSH1 0xFF AND PUSH1 0x3 DUP2 LT PUSH2 0x3202 JUMPI PUSH2 0x3201 PUSH2 0x42BC JUMP JUMPDEST JUMPDEST PUSH1 0x20 MUL ADD MLOAD PUSH1 0xFF AND LT PUSH2 0x3239 JUMPI PUSH1 0x64 PUSH1 0x82 DUP5 PUSH2 0x321E SWAP2 SWAP1 PUSH2 0x4390 JUMP JUMPDEST PUSH2 0x3228 SWAP2 SWAP1 PUSH2 0x4C0E JUMP JUMPDEST SWAP3 POP DUP5 DUP1 PUSH2 0x3235 SWAP1 PUSH2 0x4BE6 JUMP JUMPDEST SWAP6 POP POP JUMPDEST PUSH1 0x3 DUP2 PUSH1 0x1 PUSH1 0x2 DUP2 GT ISZERO PUSH2 0x3250 JUMPI PUSH2 0x324F PUSH2 0x383D JUMP JUMPDEST JUMPDEST PUSH1 0xFF AND PUSH1 0x3 DUP2 LT PUSH2 0x3264 JUMPI PUSH2 0x3263 PUSH2 0x42BC JUMP JUMPDEST JUMPDEST PUSH1 0x20 MUL ADD MLOAD PUSH1 0xFF AND LT PUSH2 0x329B JUMPI PUSH1 0x64 PUSH1 0x91 DUP6 PUSH2 0x3280 SWAP2 SWAP1 PUSH2 0x4390 JUMP JUMPDEST PUSH2 0x328A SWAP2 SWAP1 PUSH2 0x4C0E JUMP JUMPDEST SWAP4 POP DUP5 DUP1 PUSH2 0x3297 SWAP1 PUSH2 0x4BE6 JUMP JUMPDEST SWAP6 POP POP JUMPDEST PUSH1 0x3 DUP2 PUSH1 0x2 DUP1 DUP2 GT ISZERO PUSH2 0x32B1 JUMPI PUSH2 0x32B0 PUSH2 0x383D JUMP JUMPDEST JUMPDEST PUSH1 0xFF AND PUSH1 0x3 DUP2 LT PUSH2 0x32C5 JUMPI PUSH2 0x32C4 PUSH2 0x42BC JUMP JUMPDEST JUMPDEST PUSH1 0x20 MUL ADD MLOAD PUSH1 0xFF AND LT PUSH2 0x3317 JUMPI PUSH1 0x64 PUSH1 0x7D DUP6 PUSH2 0x32E1 SWAP2 SWAP1 PUSH2 0x4390 JUMP JUMPDEST PUSH2 0x32EB SWAP2 SWAP1 PUSH2 0x4C0E JUMP JUMPDEST SWAP4 POP PUSH1 0x64 PUSH1 0x7D DUP5 PUSH2 0x32FC SWAP2 SWAP1 PUSH2 0x4390 JUMP JUMPDEST PUSH2 0x3306 SWAP2 SWAP1 PUSH2 0x4C0E JUMP JUMPDEST SWAP3 POP DUP5 DUP1 PUSH2 0x3313 SWAP1 PUSH2 0x4BE6 JUMP JUMPDEST SWAP6 POP POP JUMPDEST PUSH1 0x2 DUP3 PUSH2 0x3324 SWAP2 SWAP1 PUSH2 0x4390 JUMP JUMPDEST DUP4 DUP6 PUSH2 0x3330 SWAP2 SWAP1 PUSH2 0x43D1 JUMP JUMPDEST PUSH2 0x333A SWAP2 SWAP1 PUSH2 0x43D1 JUMP JUMPDEST SWAP6 POP POP POP POP POP SWAP2 POP SWAP2 JUMP JUMPDEST PUSH0 PUSH1 0x2 PUSH0 DUP5 PUSH20 0xFFFFFFFFFFFFFFFFFFFFFFFFFFFFFFFFFFFFFFFF AND PUSH20 0xFFFFFFFFFFFFFFFFFFFFFFFFFFFFFFFFFFFFFFFF AND DUP2 MSTORE PUSH1 0x20 ADD SWAP1 DUP2 MSTORE PUSH1 0x20 ADD PUSH0 KECCAK256 SWAP1 POP DUP2 ISZERO PUSH2 0x33EA JUMPI DUP1 PUSH1 0x1 ADD PUSH0 DUP2 SLOAD DUP1 SWAP3 SWAP2 SWAP1 PUSH2 0x339F SWAP1 PUSH2 0x453B JUMP JUMPDEST SWAP2 SWAP1 POP SSTORE POP PUSH1 0x32 DUP2 PUSH0 ADD PUSH1 0x2 DUP3 DUP3 DUP3 SWAP1 SLOAD SWAP1 PUSH2 0x100 EXP SWAP1 DIV PUSH4 0xFFFFFFFF AND PUSH2 0x33C7 SWAP2 SWAP1 PUSH2 0x485A JUMP JUMPDEST SWAP3 POP PUSH2 0x100 EXP DUP2 SLOAD DUP2 PUSH4 0xFFFFFFFF MUL NOT AND SWAP1 DUP4 PUSH4 0xFFFFFFFF AND MUL OR SWAP1 SSTORE POP PUSH2 0x3445 JUMP JUMPDEST DUP1 PUSH1 0x2 ADD PUSH0 DUP2 SLOAD DUP1 SWAP3 SWAP2 SWAP1 PUSH2 0x33FE SWAP1 PUSH2 0x453B JUMP JUMPDEST SWAP2 SWAP1 POP SSTORE POP PUSH1 0x19 DUP2 PUSH0 ADD PUSH1 0x2 DUP3 DUP3 DUP3 SWAP1 SLOAD SWAP1 PUSH2 0x100 EXP SWAP1 DIV PUSH4 0xFFFFFFFF AND PUSH2 0x3426 SWAP2 SWAP1 PUSH2 0x485A JUMP JUMPDEST SWAP3 POP PUSH2 0x100 EXP DUP2 SLOAD DUP2 PUSH4 0xFFFFFFFF MUL NOT AND SWAP1 DUP4 PUSH4 0xFFFFFFFF AND MUL OR SWAP1 SSTORE POP JUMPDEST PUSH1 0x64 DUP2 PUSH0 ADD PUSH0 SWAP1 SLOAD SWAP1 PUSH2 0x100 EXP SWAP1 DIV PUSH2 0xFFFF AND PUSH2 0xFFFF AND PUSH2 0x3466 SWAP2 SWAP1 PUSH2 0x4891 JUMP JUMPDEST PUSH4 0xFFFFFFFF AND DUP2 PUSH0 ADD PUSH1 0x2 SWAP1 SLOAD SWAP1 PUSH2 0x100 EXP SWAP1 DIV PUSH4 0xFFFFFFFF AND PUSH4 0xFFFFFFFF AND LT PUSH2 0x34E9 JUMPI DUP1 PUSH0 ADD PUSH0 DUP2 DUP2 SWAP1 SLOAD SWAP1 PUSH2 0x100 EXP SWAP1 DIV PUSH2 0xFFFF AND DUP1 SWAP3 SWAP2 SWAP1 PUSH2 0x34AB SWAP1 PUSH2 0x48CD JUMP JUMPDEST SWAP2 SWAP1 PUSH2 0x100 EXP DUP2 SLOAD DUP2 PUSH2 0xFFFF MUL NOT AND SWAP1 DUP4 PUSH2 0xFFFF AND MUL OR SWAP1 SSTORE POP POP PUSH0 DUP2 PUSH0 ADD PUSH1 0x2 PUSH2 0x100 EXP DUP2 SLOAD DUP2 PUSH4 0xFFFFFFFF MUL NOT AND SWAP1 DUP4 PUSH4 0xFFFFFFFF AND MUL OR SWAP1 SSTORE POP JUMPDEST POP POP POP JUMP JUMPDEST PUSH2 0x34F6 PUSH2 0x2000 JUMP JUMPDEST PUSH1 0x1 PUSH0 PUSH1 0x14 PUSH2 0x100 EXP DUP2 SLOAD DUP2 PUSH1 0xFF MUL NOT AND SWAP1 DUP4 ISZERO ISZERO MUL OR SWAP1 SSTORE POP PUSH32 0x62E78CEA01BEE320CD4E420270B5EA74000D11B0C9F74754EBDBFC544B05A258 PUSH2 0x3539 PUSH2 0x35C3 JUMP JUMPDEST PUSH1 0x40 MLOAD PUSH2 0x3546 SWAP2 SWAP1 PUSH2 0x3D5C JUMP JUMPDEST PUSH1 0x40 MLOAD DUP1 SWAP2 SUB SWAP1 LOG1 JUMP JUMPDEST PUSH2 0x3558 PUSH2 0x360A JUMP JUMPDEST ISZERO PUSH2 0x358F JUMPI PUSH1 0x40 MLOAD PUSH32 0x3EE5AEB500000000000000000000000000000000000000000000000000000000 DUP2 MSTORE PUSH1 0x4 ADD PUSH1 0x40 MLOAD DUP1 SWAP2 SUB SWAP1 REVERT JUMPDEST JUMP JUMPDEST PUSH0 PUSH32 0x9B779B17422D0DF92223018B32B4D1FA46E071723D6817E2486D003BECC55F00 PUSH0 SHL SWAP1 POP SWAP1 JUMP JUMPDEST PUSH0 DUP2 SWAP1 POP SWAP2 SWAP1 POP JUMP JUMPDEST PUSH0 CALLER SWAP1 POP SWAP1 JUMP JUMPDEST PUSH2 0x35D2 PUSH2 0xB65 JUMP JUMPDEST PUSH2 0x3608 JUMPI PUSH1 0x40 MLOAD PUSH32 0x8DFC202B00000000000000000000000000000000000000000000000000000000 DUP2 MSTORE PUSH1 0x4 ADD PUSH1 0x40 MLOAD DUP1 SWAP2 SUB SWAP1 REVERT JUMPDEST JUMP JUMPDEST PUSH0 PUSH1 0x2 PUSH2 0x361D PUSH2 0x3618 PUSH2 0x3591 JUMP JUMPDEST PUSH2 0x35BA JUMP JUMPDEST PUSH0 ADD SLOAD EQ SWAP1 POP SWAP1 JUMP JUMPDEST PUSH1 0x40 MLOAD DUP1 PUSH1 0xA0 ADD PUSH1 0x40 MSTORE DUP1 PUSH1 0x5 SWAP1 JUMPDEST PUSH2 0x363D PUSH2 0x3671 JUMP JUMPDEST DUP2 MSTORE PUSH1 0x20 ADD SWAP1 PUSH1 0x1 SWAP1 SUB SWAP1 DUP2 PUSH2 0x3635 JUMPI SWAP1 POP POP SWAP1 JUMP JUMPDEST POP DUP1 SLOAD PUSH0 DUP3 SSTORE SWAP1 PUSH0 MSTORE PUSH1 0x20 PUSH0 KECCAK256 SWAP1 DUP2 ADD SWAP1 PUSH2 0x366E SWAP2 SWAP1 PUSH2 0x3702 JUMP JUMPDEST POP JUMP JUMPDEST PUSH1 0x40 MLOAD DUP1 PUSH1 0xC0 ADD PUSH1 0x40 MSTORE DUP1 PUSH0 PUSH1 0x2 DUP2 GT ISZERO PUSH2 0x368F JUMPI PUSH2 0x368E PUSH2 0x383D JUMP JUMPDEST JUMPDEST DUP2 MSTORE PUSH1 0x20 ADD PUSH0 PUSH1 0x2 DUP2 GT ISZERO PUSH2 0x36A7 JUMPI PUSH2 0x36A6 PUSH2 0x383D JUMP JUMPDEST JUMPDEST DUP2 MSTORE PUSH1 0x20 ADD PUSH0 PUSH1 0x3 DUP2 GT ISZERO PUSH2 0x36BF JUMPI PUSH2 0x36BE PUSH2 0x383D JUMP JUMPDEST JUMPDEST DUP2 MSTORE PUSH1 0x20 ADD PUSH0 PUSH1 0xFF AND DUP2 MSTORE PUSH1 0x20 ADD PUSH0 PUSH1 0xFF AND DUP2 MSTORE PUSH1 0x20 ADD PUSH0 PUSH1 0xFF AND DUP2 MSTORE POP SWAP1 JUMP JUMPDEST PUSH1 0x40 MLOAD DUP1 PUSH1 0x60 ADD PUSH1 0x40 MSTORE DUP1 PUSH1 0x3 SWAP1 PUSH1 0x20 DUP3 MUL DUP1 CALLDATASIZE DUP4 CALLDATACOPY DUP1 DUP3 ADD SWAP2 POP POP SWAP1 POP POP SWAP1 JUMP JUMPDEST JUMPDEST DUP1 DUP3 GT ISZERO PUSH2 0x3786 JUMPI PUSH0 PUSH0 DUP3 ADD PUSH0 PUSH2 0x100 EXP DUP2 SLOAD SWAP1 PUSH1 0xFF MUL NOT AND SWAP1 SSTORE PUSH0 DUP3 ADD PUSH1 0x1 PUSH2 0x100 EXP DUP2 SLOAD SWAP1 PUSH1 0xFF MUL NOT AND SWAP1 SSTORE PUSH0 DUP3 ADD PUSH1 0x2 PUSH2 0x100 EXP DUP2 SLOAD SWAP1 PUSH1 0xFF MUL NOT AND SWAP1 SSTORE PUSH0 DUP3 ADD PUSH1 0x3 PUSH2 0x100 EXP DUP2 SLOAD SWAP1 PUSH1 0xFF MUL NOT AND SWAP1 SSTORE PUSH0 DUP3 ADD PUSH1 0x4 PUSH2 0x100 EXP DUP2 SLOAD SWAP1 PUSH1 0xFF MUL NOT AND SWAP1 SSTORE PUSH0 DUP3 ADD PUSH1 0x5 PUSH2 0x100 EXP DUP2 SLOAD SWAP1 PUSH1 0xFF MUL NOT AND SWAP1 SSTORE POP PUSH1 0x1 ADD PUSH2 0x3703 JUMP JUMPDEST POP SWAP1 JUMP JUMPDEST PUSH0 PUSH1 0x40 MLOAD SWAP1 POP SWAP1 JUMP JUMPDEST PUSH0 PUSH0 REVERT JUMPDEST PUSH0 PUSH0 REVERT JUMPDEST PUSH0 PUSH20 0xFFFFFFFFFFFFFFFFFFFFFFFFFFFFFFFFFFFFFFFF DUP3 AND SWAP1 POP SWAP2 SWAP1 POP JUMP JUMPDEST PUSH0 PUSH2 0x37C4 DUP3 PUSH2 0x379B JUMP JUMPDEST SWAP1 POP SWAP2 SWAP1 POP JUMP JUMPDEST PUSH2 0x37D4 DUP2 PUSH2 0x37BA JUMP JUMPDEST DUP2 EQ PUSH2 0x37DE JUMPI PUSH0 PUSH0 REVERT JUMPDEST POP JUMP JUMPDEST PUSH0 DUP2 CALLDATALOAD SWAP1 POP PUSH2 0x37EF DUP2 PUSH2 0x37CB JUMP JUMPDEST SWAP3 SWAP2 POP POP JUMP JUMPDEST PUSH0 PUSH1 0x20 DUP3 DUP5 SUB SLT ISZERO PUSH2 0x380A JUMPI PUSH2 0x3809 PUSH2 0x3793 JUMP JUMPDEST JUMPDEST PUSH0 PUSH2 0x3817 DUP5 DUP3 DUP6 ADD PUSH2 0x37E1 JUMP JUMPDEST SWAP2 POP POP SWAP3 SWAP2 POP POP JUMP JUMPDEST PUSH0 PUSH1 0x5 SWAP1 POP SWAP2 SWAP1 POP JUMP JUMPDEST PUSH0 DUP2 SWAP1 POP SWAP3 SWAP2 POP POP JUMP JUMPDEST PUSH0 DUP2 SWAP1 POP SWAP2 SWAP1 POP JUMP JUMPDEST PUSH32 0x4E487B7100000000000000000000000000000000000000000000000000000000 PUSH0 MSTORE PUSH1 0x21 PUSH1 0x4 MSTORE PUSH1 0x24 PUSH0 REVERT JUMPDEST PUSH1 0x3 DUP2 LT PUSH2 0x387B JUMPI PUSH2 0x387A PUSH2 0x383D JUMP JUMPDEST JUMPDEST POP JUMP JUMPDEST PUSH0 DUP2 SWAP1 POP PUSH2 0x388B DUP3 PUSH2 0x386A JUMP JUMPDEST SWAP2 SWAP1 POP JUMP JUMPDEST PUSH0 PUSH2 0x389A DUP3 PUSH2 0x387E JUMP JUMPDEST SWAP1 POP SWAP2 SWAP1 POP JUMP JUMPDEST PUSH2 0x38AA DUP2 PUSH2 0x3890 JUMP JUMPDEST DUP3 MSTORE POP POP JUMP JUMPDEST PUSH1 0x3 DUP2 LT PUSH2 0x38C1 JUMPI PUSH2 0x38C0 PUSH2 0x383D JUMP JUMPDEST JUMPDEST POP JUMP JUMPDEST PUSH0 DUP2 SWAP1 POP PUSH2 0x38D1 DUP3 PUSH2 0x38B0 JUMP JUMPDEST SWAP2 SWAP1 POP JUMP JUMPDEST PUSH0 PUSH2 0x38E0 DUP3 PUSH2 0x38C4 JUMP JUMPDEST SWAP1 POP SWAP2 SWAP1 POP JUMP JUMPDEST PUSH2 0x38F0 DUP2 PUSH2 0x38D6 JUMP JUMPDEST DUP3 MSTORE POP POP JUMP JUMPDEST PUSH1 0x4 DUP2 LT PUSH2 0x3907 JUMPI PUSH2 0x3906 PUSH2 0x383D JUMP JUMPDEST JUMPDEST POP JUMP JUMPDEST PUSH0 DUP2 SWAP1 POP PUSH2 0x3917 DUP3 PUSH2 0x38F6 JUMP JUMPDEST SWAP2 SWAP1 POP JUMP JUMPDEST PUSH0 PUSH2 0x3926 DUP3 PUSH2 0x390A JUMP JUMPDEST SWAP1 POP SWAP2 SWAP1 POP JUMP JUMPDEST PUSH2 0x3936 DUP2 PUSH2 0x391C JUMP JUMPDEST DUP3 MSTORE POP POP JUMP JUMPDEST PUSH0 PUSH1 0xFF DUP3 AND SWAP1 POP SWAP2 SWAP1 POP JUMP JUMPDEST PUSH2 0x3951 DUP2 PUSH2 0x393C JUMP JUMPDEST DUP3 MSTORE POP POP JUMP JUMPDEST PUSH1 0xC0 DUP3 ADD PUSH0 DUP3 ADD MLOAD PUSH2 0x396B PUSH0 DUP6 ADD DUP3 PUSH2 0x38A1 JUMP JUMPDEST POP PUSH1 0x20 DUP3 ADD MLOAD PUSH2 0x397E PUSH1 0x20 DUP6 ADD DUP3 PUSH2 0x38E7 JUMP JUMPDEST POP PUSH1 0x40 DUP3 ADD MLOAD PUSH2 0x3991 PUSH1 0x40 DUP6 ADD DUP3 PUSH2 0x392D JUMP JUMPDEST POP PUSH1 0x60 DUP3 ADD MLOAD PUSH2 0x39A4 PUSH1 0x60 DUP6 ADD DUP3 PUSH2 0x3948 JUMP JUMPDEST POP PUSH1 0x80 DUP3 ADD MLOAD PUSH2 0x39B7 PUSH1 0x80 DUP6 ADD DUP3 PUSH2 0x3948 JUMP JUMPDEST POP PUSH1 0xA0 DUP3 ADD MLOAD PUSH2 0x39CA PUSH1 0xA0 DUP6 ADD DUP3 PUSH2 0x3948 JUMP JUMPDEST POP POP POP POP JUMP JUMPDEST PUSH0 PUSH2 0x39DB DUP4 DUP4 PUSH2 0x3957 JUMP JUMPDEST PUSH1 0xC0 DUP4 ADD SWAP1 POP SWAP3 SWAP2 POP POP JUMP JUMPDEST PUSH0 PUSH1 0x20 DUP3 ADD SWAP1 POP SWAP2 SWAP1 POP JUMP JUMPDEST PUSH2 0x39FC DUP2 PUSH2 0x3820 JUMP JUMPDEST PUSH2 0x3A06 DUP2 DUP5 PUSH2 0x382A JUMP JUMPDEST SWAP3 POP PUSH2 0x3A11 DUP3 PUSH2 0x3834 JUMP JUMPDEST DUP1 PUSH0 JUMPDEST DUP4 DUP2 LT ISZERO PUSH2 0x3A41 JUMPI DUP2 MLOAD PUSH2 0x3A28 DUP8 DUP3 PUSH2 0x39D0 JUMP JUMPDEST SWAP7 POP PUSH2 0x3A33 DUP4 PUSH2 0x39E7 JUMP JUMPDEST SWAP3 POP POP PUSH1 0x1 DUP2 ADD SWAP1 POP PUSH2 0x3A14 JUMP JUMPDEST POP POP POP POP POP POP JUMP JUMPDEST PUSH0 PUSH2 0x3C0 DUP3 ADD SWAP1 POP PUSH2 0x3A5D PUSH0 DUP4 ADD DUP5 PUSH2 0x39F3 JUMP JUMPDEST SWAP3 SWAP2 POP POP JUMP JUMPDEST PUSH0 DUP2 SWAP1 POP SWAP2 SWAP1 POP JUMP JUMPDEST PUSH2 0x3A75 DUP2 PUSH2 0x3A63 JUMP JUMPDEST DUP2 EQ PUSH2 0x3A7F JUMPI PUSH0 PUSH0 REVERT JUMPDEST POP JUMP JUMPDEST PUSH0 DUP2 CALLDATALOAD SWAP1 POP PUSH2 0x3A90 DUP2 PUSH2 0x3A6C JUMP JUMPDEST SWAP3 SWAP2 POP POP JUMP JUMPDEST PUSH0 PUSH0 PUSH1 0x40 DUP4 DUP6 SUB SLT ISZERO PUSH2 0x3AAC JUMPI PUSH2 0x3AAB PUSH2 0x3793 JUMP JUMPDEST JUMPDEST PUSH0 PUSH2 0x3AB9 DUP6 DUP3 DUP7 ADD PUSH2 0x37E1 JUMP JUMPDEST SWAP3 POP POP PUSH1 0x20 PUSH2 0x3ACA DUP6 DUP3 DUP7 ADD PUSH2 0x3A82 JUMP JUMPDEST SWAP2 POP POP SWAP3 POP SWAP3 SWAP1 POP JUMP JUMPDEST PUSH2 0x3ADD DUP2 PUSH2 0x3A63 JUMP JUMPDEST DUP3 MSTORE POP POP JUMP JUMPDEST PUSH0 PUSH1 0x20 DUP3 ADD SWAP1 POP PUSH2 0x3AF6 PUSH0 DUP4 ADD DUP5 PUSH2 0x3AD4 JUMP JUMPDEST SWAP3 SWAP2 POP POP JUMP JUMPDEST PUSH0 DUP2 ISZERO ISZERO SWAP1 POP SWAP2 SWAP1 POP JUMP JUMPDEST PUSH2 0x3B10 DUP2 PUSH2 0x3AFC JUMP JUMPDEST DUP3 MSTORE POP POP JUMP JUMPDEST PUSH0 PUSH1 0x20 DUP3 ADD SWAP1 POP PUSH2 0x3B29 PUSH0 DUP4 ADD DUP5 PUSH2 0x3B07 JUMP JUMPDEST SWAP3 SWAP2 POP POP JUMP JUMPDEST PUSH0 DUP2 MLOAD SWAP1 POP SWAP2 SWAP1 POP JUMP JUMPDEST PUSH0 DUP3 DUP3 MSTORE PUSH1 0x20 DUP3 ADD SWAP1 POP SWAP3 SWAP2 POP POP JUMP JUMPDEST PUSH0 DUP2 SWAP1 POP PUSH1 0x20 DUP3 ADD SWAP1 POP SWAP2 SWAP1 POP JUMP JUMPDEST PUSH2 0x3B61 DUP2 PUSH2 0x3A63 JUMP JUMPDEST DUP3 MSTORE POP POP JUMP JUMPDEST PUSH0 PUSH2 0x3B72 DUP4 DUP4 PUSH2 0x3B58 JUMP JUMPDEST PUSH1 0x20 DUP4 ADD SWAP1 POP SWAP3 SWAP2 POP POP JUMP JUMPDEST PUSH0 PUSH1 0x20 DUP3 ADD SWAP1 POP SWAP2 SWAP1 POP JUMP JUMPDEST PUSH0 PUSH2 0x3B94 DUP3 PUSH2 0x3B2F JUMP JUMPDEST PUSH2 0x3B9E DUP2 DUP6 PUSH2 0x3B39 JUMP JUMPDEST SWAP4 POP PUSH2 0x3BA9 DUP4 PUSH2 0x3B49 JUMP JUMPDEST DUP1 PUSH0 JUMPDEST DUP4 DUP2 LT ISZERO PUSH2 0x3BD9 JUMPI DUP2 MLOAD PUSH2 0x3BC0 DUP9 DUP3 PUSH2 0x3B67 JUMP JUMPDEST SWAP8 POP PUSH2 0x3BCB DUP4 PUSH2 0x3B7E JUMP JUMPDEST SWAP3 POP POP PUSH1 0x1 DUP2 ADD SWAP1 POP PUSH2 0x3BAC JUMP JUMPDEST POP DUP6 SWAP4 POP POP POP POP SWAP3 SWAP2 POP POP JUMP JUMPDEST PUSH0 PUSH1 0x20 DUP3 ADD SWAP1 POP DUP2 DUP2 SUB PUSH0 DUP4 ADD MSTORE PUSH2 0x3BFE DUP2 DUP5 PUSH2 0x3B8A JUMP JUMPDEST SWAP1 POP SWAP3 SWAP2 POP POP JUMP JUMPDEST PUSH0 PUSH0 REVERT JUMPDEST PUSH0 PUSH0 REVERT JUMPDEST PUSH0 PUSH0 REVERT JUMPDEST PUSH0 PUSH0 DUP4 PUSH1 0x1F DUP5 ADD SLT PUSH2 0x3C27 JUMPI PUSH2 0x3C26 PUSH2 0x3C06 JUMP JUMPDEST JUMPDEST DUP3 CALLDATALOAD SWAP1 POP PUSH8 0xFFFFFFFFFFFFFFFF DUP2 GT ISZERO PUSH2 0x3C44 JUMPI PUSH2 0x3C43 PUSH2 0x3C0A JUMP JUMPDEST JUMPDEST PUSH1 0x20 DUP4 ADD SWAP2 POP DUP4 PUSH1 0x20 DUP3 MUL DUP4 ADD GT ISZERO PUSH2 0x3C60 JUMPI PUSH2 0x3C5F PUSH2 0x3C0E JUMP JUMPDEST JUMPDEST SWAP3 POP SWAP3 SWAP1 POP JUMP JUMPDEST PUSH0 PUSH0 PUSH1 0x20 DUP4 DUP6 SUB SLT ISZERO PUSH2 0x3C7D JUMPI PUSH2 0x3C7C PUSH2 0x3793 JUMP JUMPDEST JUMPDEST PUSH0 DUP4 ADD CALLDATALOAD PUSH8 0xFFFFFFFFFFFFFFFF DUP2 GT ISZERO PUSH2 0x3C9A JUMPI PUSH2 0x3C99 PUSH2 0x3797 JUMP JUMPDEST JUMPDEST PUSH2 0x3CA6 DUP6 DUP3 DUP7 ADD PUSH2 0x3C12 JUMP JUMPDEST SWAP3 POP SWAP3 POP POP SWAP3 POP SWAP3 SWAP1 POP JUMP JUMPDEST PUSH2 0x3CBB DUP2 PUSH2 0x3890 JUMP JUMPDEST DUP3 MSTORE POP POP JUMP JUMPDEST PUSH2 0x3CCA DUP2 PUSH2 0x38D6 JUMP JUMPDEST DUP3 MSTORE POP POP JUMP JUMPDEST PUSH2 0x3CD9 DUP2 PUSH2 0x391C JUMP JUMPDEST DUP3 MSTORE POP POP JUMP JUMPDEST PUSH2 0x3CE8 DUP2 PUSH2 0x393C JUMP JUMPDEST DUP3 MSTORE POP POP JUMP JUMPDEST PUSH0 PUSH1 0xC0 DUP3 ADD SWAP1 POP PUSH2 0x3D01 PUSH0 DUP4 ADD DUP10 PUSH2 0x3CB2 JUMP JUMPDEST PUSH2 0x3D0E PUSH1 0x20 DUP4 ADD DUP9 PUSH2 0x3CC1 JUMP JUMPDEST PUSH2 0x3D1B PUSH1 0x40 DUP4 ADD DUP8 PUSH2 0x3CD0 JUMP JUMPDEST PUSH2 0x3D28 PUSH1 0x60 DUP4 ADD DUP7 PUSH2 0x3CDF JUMP JUMPDEST PUSH2 0x3D35 PUSH1 0x80 DUP4 ADD DUP6 PUSH2 0x3CDF JUMP JUMPDEST PUSH2 0x3D42 PUSH1 0xA0 DUP4 ADD DUP5 PUSH2 0x3CDF JUMP JUMPDEST SWAP8 SWAP7 POP POP POP POP POP POP POP JUMP JUMPDEST PUSH2 0x3D56 DUP2 PUSH2 0x37BA JUMP JUMPDEST DUP3 MSTORE POP POP JUMP JUMPDEST PUSH0 PUSH1 0x20 DUP3 ADD SWAP1 POP PUSH2 0x3D6F PUSH0 DUP4 ADD DUP5 PUSH2 0x3D4D JUMP JUMPDEST SWAP3 SWAP2 POP POP JUMP JUMPDEST PUSH0 PUSH1 0x20 DUP3 DUP5 SUB SLT ISZERO PUSH2 0x3D8A JUMPI PUSH2 0x3D89 PUSH2 0x3793 JUMP JUMPDEST JUMPDEST PUSH0 PUSH2 0x3D97 DUP5 DUP3 DUP6 ADD PUSH2 0x3A82 JUMP JUMPDEST SWAP2 POP POP SWAP3 SWAP2 POP POP JUMP JUMPDEST PUSH0 DUP2 SWAP1 POP SWAP2 SWAP1 POP JUMP JUMPDEST PUSH0 PUSH2 0x3DC3 PUSH2 0x3DBE PUSH2 0x3DB9 DUP5 PUSH2 0x379B JUMP JUMPDEST PUSH2 0x3DA0 JUMP JUMPDEST PUSH2 0x379B JUMP JUMPDEST SWAP1 POP SWAP2 SWAP1 POP JUMP JUMPDEST PUSH0 PUSH2 0x3DD4 DUP3 PUSH2 0x3DA9 JUMP JUMPDEST SWAP1 POP SWAP2 SWAP1 POP JUMP JUMPDEST PUSH0 PUSH2 0x3DE5 DUP3 PUSH2 0x3DCA JUMP JUMPDEST SWAP1 POP SWAP2 SWAP1 POP JUMP JUMPDEST PUSH2 0x3DF5 DUP2 PUSH2 0x3DDB JUMP JUMPDEST DUP3 MSTORE POP POP JUMP JUMPDEST PUSH0 PUSH1 0x20 DUP3 ADD SWAP1 POP PUSH2 0x3E0E PUSH0 DUP4 ADD DUP5 PUSH2 0x3DEC JUMP JUMPDEST SWAP3 SWAP2 POP POP JUMP JUMPDEST PUSH0 PUSH2 0xFFFF DUP3 AND SWAP1 POP SWAP2 SWAP1 POP JUMP JUMPDEST PUSH2 0x3E2A DUP2 PUSH2 0x3E14 JUMP JUMPDEST DUP3 MSTORE POP POP JUMP JUMPDEST PUSH0 PUSH4 0xFFFFFFFF DUP3 AND SWAP1 POP SWAP2 SWAP1 POP JUMP JUMPDEST PUSH2 0x3E48 DUP2 PUSH2 0x3E30 JUMP JUMPDEST DUP3 MSTORE POP POP JUMP JUMPDEST PUSH0 PUSH1 0x80 DUP3 ADD SWAP1 POP PUSH2 0x3E61 PUSH0 DUP4 ADD DUP8 PUSH2 0x3E21 JUMP JUMPDEST PUSH2 0x3E6E PUSH1 0x20 DUP4 ADD DUP7 PUSH2 0x3E3F JUMP JUMPDEST PUSH2 0x3E7B PUSH1 0x40 DUP4 ADD DUP6 PUSH2 0x3AD4 JUMP JUMPDEST PUSH2 0x3E88 PUSH1 0x60 DUP4 ADD DUP5 PUSH2 0x3AD4 JUMP JUMPDEST SWAP6 SWAP5 POP POP POP POP POP JUMP JUMPDEST PUSH0 DUP2 MLOAD SWAP1 POP SWAP2 SWAP1 POP JUMP JUMPDEST PUSH0 DUP3 DUP3 MSTORE PUSH1 0x20 DUP3 ADD SWAP1 POP SWAP3 SWAP2 POP POP JUMP JUMPDEST PUSH0 DUP2 SWAP1 POP PUSH1 0x20 DUP3 ADD SWAP1 POP SWAP2 SWAP1 POP JUMP JUMPDEST PUSH0 PUSH1 0x20 DUP3 ADD SWAP1 POP SWAP2 SWAP1 POP JUMP JUMPDEST PUSH0 PUSH2 0x3ED0 DUP3 PUSH2 0x3E91 JUMP JUMPDEST PUSH2 0x3EDA DUP2 DUP6 PUSH2 0x3E9B JUMP JUMPDEST SWAP4 POP PUSH2 0x3EE5 DUP4 PUSH2 0x3EAB JUMP JUMPDEST DUP1 PUSH0 JUMPDEST DUP4 DUP2 LT ISZERO PUSH2 0x3F15 JUMPI DUP2 MLOAD PUSH2 0x3EFC DUP9 DUP3 PUSH2 0x39D0 JUMP JUMPDEST SWAP8 POP PUSH2 0x3F07 DUP4 PUSH2 0x3EBA JUMP JUMPDEST SWAP3 POP POP PUSH1 0x1 DUP2 ADD SWAP1 POP PUSH2 0x3EE8 JUMP JUMPDEST POP DUP6 SWAP4 POP POP POP POP SWAP3 SWAP2 POP POP JUMP JUMPDEST PUSH0 PUSH1 0x20 DUP3 ADD SWAP1 POP DUP2 DUP2 SUB PUSH0 DUP4 ADD MSTORE PUSH2 0x3F3A DUP2 DUP5 PUSH2 0x3EC6 JUMP JUMPDEST SWAP1 POP SWAP3 SWAP2 POP POP JUMP JUMPDEST PUSH0 DUP3 DUP3 MSTORE PUSH1 0x20 DUP3 ADD SWAP1 POP SWAP3 SWAP2 POP POP JUMP JUMPDEST PUSH32 0x496E636F7272656374207061796D656E74000000000000000000000000000000 PUSH0 DUP3 ADD MSTORE POP JUMP JUMPDEST PUSH0 PUSH2 0x3F86 PUSH1 0x11 DUP4 PUSH2 0x3F42 JUMP JUMPDEST SWAP2 POP PUSH2 0x3F91 DUP3 PUSH2 0x3F52 JUMP JUMPDEST PUSH1 0x20 DUP3 ADD SWAP1 POP SWAP2 SWAP1 POP JUMP JUMPDEST PUSH0 PUSH1 0x20 DUP3 ADD SWAP1 POP DUP2 DUP2 SUB PUSH0 DUP4 ADD MSTORE PUSH2 0x3FB3 DUP2 PUSH2 0x3F7A JUMP JUMPDEST SWAP1 POP SWAP2 SWAP1 POP JUMP JUMPDEST PUSH0 DUP2 MLOAD SWAP1 POP PUSH2 0x3FC8 DUP2 PUSH2 0x3A6C JUMP JUMPDEST SWAP3 SWAP2 POP POP JUMP JUMPDEST PUSH0 PUSH1 0x20 DUP3 DUP5 SUB SLT ISZERO PUSH2 0x3FE3 JUMPI PUSH2 0x3FE2 PUSH2 0x3793 JUMP JUMPDEST JUMPDEST PUSH0 PUSH2 0x3FF0 DUP5 DUP3 DUP6 ADD PUSH2 0x3FBA JUMP JUMPDEST SWAP2 POP POP SWAP3 SWAP2 POP POP JUMP JUMPDEST PUSH0 DUP2 SWAP1 POP SWAP2 SWAP1 POP JUMP JUMPDEST PUSH2 0x4013 PUSH2 0x400E DUP3 PUSH2 0x3A63 JUMP JUMPDEST PUSH2 0x3FF9 JUMP JUMPDEST DUP3 MSTORE POP POP JUMP JUMPDEST PUSH0 DUP2 PUSH1 0x60 SHL SWAP1 POP SWAP2 SWAP1 POP JUMP JUMPDEST PUSH0 PUSH2 0x402F DUP3 PUSH2 0x4019 JUMP JUMPDEST SWAP1 POP SWAP2 SWAP1 POP JUMP JUMPDEST PUSH0 PUSH2 0x4040 DUP3 PUSH2 0x4025 JUMP JUMPDEST SWAP1 POP SWAP2 SWAP1 POP JUMP JUMPDEST PUSH2 0x4058 PUSH2 0x4053 DUP3 PUSH2 0x37BA JUMP JUMPDEST PUSH2 0x4036 JUMP JUMPDEST DUP3 MSTORE POP POP JUMP JUMPDEST PUSH0 PUSH2 0x4069 DUP3 DUP7 PUSH2 0x4002 JUMP JUMPDEST PUSH1 0x20 DUP3 ADD SWAP2 POP PUSH2 0x4079 DUP3 DUP6 PUSH2 0x4047 JUMP JUMPDEST PUSH1 0x14 DUP3 ADD SWAP2 POP PUSH2 0x4089 DUP3 DUP5 PUSH2 0x4002 JUMP JUMPDEST PUSH1 0x20 DUP3 ADD SWAP2 POP DUP2 SWAP1 POP SWAP5 SWAP4 POP POP POP POP JUMP JUMPDEST PUSH32 0x4E487B7100000000000000000000000000000000000000000000000000000000 PUSH0 MSTORE PUSH1 0x12 PUSH1 0x4 MSTORE PUSH1 0x24 PUSH0 REVERT JUMPDEST PUSH0 PUSH2 0x40D1 DUP3 PUSH2 0x3A63 JUMP JUMPDEST SWAP2 POP PUSH2 0x40DC DUP4 PUSH2 0x3A63 JUMP JUMPDEST SWAP3 POP DUP3 PUSH2 0x40EC JUMPI PUSH2 0x40EB PUSH2 0x409A JUMP JUMPDEST JUMPDEST DUP3 DUP3 MOD SWAP1 POP SWAP3 SWAP2 POP POP JUMP JUMPDEST PUSH32 0x4E487B7100000000000000000000000000000000000000000000000000000000 PUSH0 MSTORE PUSH1 0x11 PUSH1 0x4 MSTORE PUSH1 0x24 PUSH0 REVERT JUMPDEST PUSH0 PUSH2 0x412E DUP3 PUSH2 0x393C JUMP JUMPDEST SWAP2 POP PUSH2 0x4139 DUP4 PUSH2 0x393C JUMP JUMPDEST SWAP3 POP DUP3 DUP3 ADD SWAP1 POP PUSH1 0xFF DUP2 GT ISZERO PUSH2 0x4152 JUMPI PUSH2 0x4151 PUSH2 0x40F7 JUMP JUMPDEST JUMPDEST SWAP3 SWAP2 POP POP JUMP JUMPDEST PUSH0 PUSH1 0xE0 DUP3 ADD SWAP1 POP PUSH2 0x416B PUSH0 DUP4 ADD DUP11 PUSH2 0x3D4D JUMP JUMPDEST PUSH2 0x4178 PUSH1 0x20 DUP4 ADD DUP10 PUSH2 0x3CB2 JUMP JUMPDEST PUSH2 0x4185 PUSH1 0x40 DUP4 ADD DUP9 PUSH2 0x3CC1 JUMP JUMPDEST PUSH2 0x4192 PUSH1 0x60 DUP4 ADD DUP8 PUSH2 0x3CD0 JUMP JUMPDEST PUSH2 0x419F PUSH1 0x80 DUP4 ADD DUP7 PUSH2 0x3CDF JUMP JUMPDEST PUSH2 0x41AC PUSH1 0xA0 DUP4 ADD DUP6 PUSH2 0x3CDF JUMP JUMPDEST PUSH2 0x41B9 PUSH1 0xC0 DUP4 ADD DUP5 PUSH2 0x3CDF JUMP JUMPDEST SWAP9 SWAP8 POP POP POP POP POP POP POP POP JUMP JUMPDEST PUSH0 PUSH1 0x40 DUP3 ADD SWAP1 POP PUSH2 0x41D8 PUSH0 DUP4 ADD DUP6 PUSH2 0x3D4D JUMP JUMPDEST PUSH2 0x41E5 PUSH1 0x20 DUP4 ADD DUP5 PUSH2 0x3AD4 JUMP JUMPDEST SWAP4 SWAP3 POP POP POP JUMP JUMPDEST PUSH32 0x496E636F7272656374207061796D656E7420666F72207265726F6C6C00000000 PUSH0 DUP3 ADD MSTORE POP JUMP JUMPDEST PUSH0 PUSH2 0x4220 PUSH1 0x1C DUP4 PUSH2 0x3F42 JUMP JUMPDEST SWAP2 POP PUSH2 0x422B DUP3 PUSH2 0x41EC JUMP JUMPDEST PUSH1 0x20 DUP3 ADD SWAP1 POP SWAP2 SWAP1 POP JUMP JUMPDEST PUSH0 PUSH1 0x20 DUP3 ADD SWAP1 POP DUP2 DUP2 SUB PUSH0 DUP4 ADD MSTORE PUSH2 0x424D DUP2 PUSH2 0x4214 JUMP JUMPDEST SWAP1 POP SWAP2 SWAP1 POP JUMP JUMPDEST PUSH32 0x5465616D2073697A6520342D38206F6E6C790000000000000000000000000000 PUSH0 DUP3 ADD MSTORE POP JUMP JUMPDEST PUSH0 PUSH2 0x4288 PUSH1 0x12 DUP4 PUSH2 0x3F42 JUMP JUMPDEST SWAP2 POP PUSH2 0x4293 DUP3 PUSH2 0x4254 JUMP JUMPDEST PUSH1 0x20 DUP3 ADD SWAP1 POP SWAP2 SWAP1 POP JUMP JUMPDEST PUSH0 PUSH1 0x20 DUP3 ADD SWAP1 POP DUP2 DUP2 SUB PUSH0 DUP4 ADD MSTORE PUSH2 0x42B5 DUP2 PUSH2 0x427C JUMP JUMPDEST SWAP1 POP SWAP2 SWAP1 POP JUMP JUMPDEST PUSH32 0x4E487B7100000000000000000000000000000000000000000000000000000000 PUSH0 MSTORE PUSH1 0x32 PUSH1 0x4 MSTORE PUSH1 0x24 PUSH0 REVERT JUMPDEST PUSH0 DUP2 MLOAD SWAP1 POP PUSH2 0x42F7 DUP2 PUSH2 0x37CB JUMP JUMPDEST SWAP3 SWAP2 POP POP JUMP JUMPDEST PUSH0 PUSH1 0x20 DUP3 DUP5 SUB SLT ISZERO PUSH2 0x4312 JUMPI PUSH2 0x4311 PUSH2 0x3793 JUMP JUMPDEST JUMPDEST PUSH0 PUSH2 0x431F DUP5 DUP3 DUP6 ADD PUSH2 0x42E9 JUMP JUMPDEST SWAP2 POP POP SWAP3 SWAP2 POP POP JUMP JUMPDEST PUSH32 0x4E6F7420796F757220756E697400000000000000000000000000000000000000 PUSH0 DUP3 ADD MSTORE POP JUMP JUMPDEST PUSH0 PUSH2 0x435C PUSH1 0xD DUP4 PUSH2 0x3F42 JUMP JUMPDEST SWAP2 POP PUSH2 0x4367 DUP3 PUSH2 0x4328 JUMP JUMPDEST PUSH1 0x20 DUP3 ADD SWAP1 POP SWAP2 SWAP1 POP JUMP JUMPDEST PUSH0 PUSH1 0x20 DUP3 ADD SWAP1 POP DUP2 DUP2 SUB PUSH0 DUP4 ADD MSTORE PUSH2 0x4389 DUP2 PUSH2 0x4350 JUMP JUMPDEST SWAP1 POP SWAP2 SWAP1 POP JUMP JUMPDEST PUSH0 PUSH2 0x439A DUP3 PUSH2 0x3A63 JUMP JUMPDEST SWAP2 POP PUSH2 0x43A5 DUP4 PUSH2 0x3A63 JUMP JUMPDEST SWAP3 POP DUP3 DUP3 MUL PUSH2 0x43B3 DUP2 PUSH2 0x3A63 JUMP JUMPDEST SWAP2 POP DUP3 DUP3 DIV DUP5 EQ DUP4 ISZERO OR PUSH2 0x43CA JUMPI PUSH2 0x43C9 PUSH2 0x40F7 JUMP JUMPDEST JUMPDEST POP SWAP3 SWAP2 POP POP JUMP JUMPDEST PUSH0 PUSH2 0x43DB DUP3 PUSH2 0x3A63 JUMP JUMPDEST SWAP2 POP PUSH2 0x43E6 DUP4 PUSH2 0x3A63 JUMP JUMPDEST SWAP3 POP DUP3 DUP3 ADD SWAP1 POP DUP1 DUP3 GT ISZERO PUSH2 0x43FE JUMPI PUSH2 0x43FD PUSH2 0x40F7 JUMP JUMPDEST JUMPDEST SWAP3 SWAP2 POP POP JUMP JUMPDEST PUSH32 0x4E487B7100000000000000000000000000000000000000000000000000000000 PUSH0 MSTORE PUSH1 0x41 PUSH1 0x4 MSTORE PUSH1 0x24 PUSH0 REVERT JUMPDEST PUSH0 PUSH2 0x443C DUP3 DUP6 PUSH2 0x4002 JUMP JUMPDEST PUSH1 0x20 DUP3 ADD SWAP2 POP PUSH2 0x444C DUP3 DUP5 PUSH2 0x4047 JUMP JUMPDEST PUSH1 0x14 DUP3 ADD SWAP2 POP DUP2 SWAP1 POP SWAP4 SWAP3 POP POP POP JUMP JUMPDEST PUSH0 DUP2 SWAP1 POP SWAP2 SWAP1 POP JUMP JUMPDEST PUSH0 PUSH2 0x447F PUSH2 0x447A PUSH2 0x4475 DUP5 PUSH2 0x445C JUMP JUMPDEST PUSH2 0x3DA0 JUMP JUMPDEST PUSH2 0x393C JUMP JUMPDEST SWAP1 POP SWAP2 SWAP1 POP JUMP JUMPDEST PUSH2 0x448F DUP2 PUSH2 0x4465 JUMP JUMPDEST DUP3 MSTORE POP POP JUMP JUMPDEST PUSH0 DUP2 SWAP1 POP SWAP2 SWAP1 POP JUMP JUMPDEST PUSH0 PUSH2 0x44B8 PUSH2 0x44B3 PUSH2 0x44AE DUP5 PUSH2 0x4495 JUMP JUMPDEST PUSH2 0x3DA0 JUMP JUMPDEST PUSH2 0x393C JUMP JUMPDEST SWAP1 POP SWAP2 SWAP1 POP JUMP JUMPDEST PUSH2 0x44C8 DUP2 PUSH2 0x449E JUMP JUMPDEST DUP3 MSTORE POP POP JUMP JUMPDEST PUSH0 PUSH1 0xE0 DUP3 ADD SWAP1 POP PUSH2 0x44E1 PUSH0 DUP4 ADD DUP11 PUSH2 0x3D4D JUMP JUMPDEST PUSH2 0x44EE PUSH1 0x20 DUP4 ADD DUP10 PUSH2 0x3CB2 JUMP JUMPDEST PUSH2 0x44FB PUSH1 0x40 DUP4 ADD DUP9 PUSH2 0x3CC1 JUMP JUMPDEST PUSH2 0x4508 PUSH1 0x60 DUP4 ADD DUP8 PUSH2 0x3CD0 JUMP JUMPDEST PUSH2 0x4515 PUSH1 0x80 DUP4 ADD DUP7 PUSH2 0x4486 JUMP JUMPDEST PUSH2 0x4522 PUSH1 0xA0 DUP4 ADD DUP6 PUSH2 0x4486 JUMP JUMPDEST PUSH2 0x452F PUSH1 0xC0 DUP4 ADD DUP5 PUSH2 0x44BF JUMP JUMPDEST SWAP9 SWAP8 POP POP POP POP POP POP POP POP JUMP JUMPDEST PUSH0 PUSH2 0x4545 DUP3 PUSH2 0x3A63 JUMP JUMPDEST SWAP2 POP PUSH32 0xFFFFFFFFFFFFFFFFFFFFFFFFFFFFFFFFFFFFFFFFFFFFFFFFFFFFFFFFFFFFFFFF DUP3 SUB PUSH2 0x4577 JUMPI PUSH2 0x4576 PUSH2 0x40F7 JUMP JUMPDEST JUMPDEST PUSH1 0x1 DUP3 ADD SWAP1 POP SWAP2 SWAP1 POP JUMP JUMPDEST PUSH0 DUP2 SWAP1 POP SWAP2 SWAP1 POP JUMP JUMPDEST PUSH0 PUSH2 0x45A5 PUSH2 0x45A0 PUSH2 0x459B DUP5 PUSH2 0x4582 JUMP JUMPDEST PUSH2 0x3DA0 JUMP JUMPDEST PUSH2 0x393C JUMP JUMPDEST SWAP1 POP SWAP2 SWAP1 POP JUMP JUMPDEST PUSH2 0x45B5 DUP2 PUSH2 0x458B JUMP JUMPDEST DUP3 MSTORE POP POP JUMP JUMPDEST PUSH0 PUSH1 0xE0 DUP3 ADD SWAP1 POP PUSH2 0x45CE PUSH0 DUP4 ADD DUP11 PUSH2 0x3D4D JUMP JUMPDEST PUSH2 0x45DB PUSH1 0x20 DUP4 ADD DUP10 PUSH2 0x3CB2 JUMP JUMPDEST PUSH2 0x45E8 PUSH1 0x40 DUP4 ADD DUP9 PUSH2 0x3CC1 JUMP JUMPDEST PUSH2 0x45F5 PUSH1 0x60 DUP4 ADD DUP8 PUSH2 0x3CD0 JUMP JUMPDEST PUSH2 0x4602 PUSH1 0x80 DUP4 ADD DUP7 PUSH2 0x45AC JUMP JUMPDEST PUSH2 0x460F PUSH1 0xA0 DUP4 ADD DUP6 PUSH2 0x45AC JUMP JUMPDEST PUSH2 0x461C PUSH1 0xC0 DUP4 ADD DUP5 PUSH2 0x45AC JUMP JUMPDEST SWAP9 SWAP8 POP POP POP POP POP POP POP POP JUMP JUMPDEST PUSH0 DUP2 SWAP1 POP SWAP2 SWAP1 POP JUMP JUMPDEST PUSH0 PUSH2 0x464B PUSH2 0x4646 PUSH2 0x4641 DUP5 PUSH2 0x4628 JUMP JUMPDEST PUSH2 0x3DA0 JUMP JUMPDEST PUSH2 0x393C JUMP JUMPDEST SWAP1 POP SWAP2 SWAP1 POP JUMP JUMPDEST PUSH2 0x465B DUP2 PUSH2 0x4631 JUMP JUMPDEST DUP3 MSTORE POP POP JUMP JUMPDEST PUSH0 DUP2 SWAP1 POP SWAP2 SWAP1 POP JUMP JUMPDEST PUSH0 PUSH2 0x4684 PUSH2 0x467F PUSH2 0x467A DUP5 PUSH2 0x4661 JUMP JUMPDEST PUSH2 0x3DA0 JUMP JUMPDEST PUSH2 0x393C JUMP JUMPDEST SWAP1 POP SWAP2 SWAP1 POP JUMP JUMPDEST PUSH2 0x4694 DUP2 PUSH2 0x466A JUMP JUMPDEST DUP3 MSTORE POP POP JUMP JUMPDEST PUSH0 PUSH1 0xE0 DUP3 ADD SWAP1 POP PUSH2 0x46AD PUSH0 DUP4 ADD DUP11 PUSH2 0x3D4D JUMP JUMPDEST PUSH2 0x46BA PUSH1 0x20 DUP4 ADD DUP10 PUSH2 0x3CB2 JUMP JUMPDEST PUSH2 0x46C7 PUSH1 0x40 DUP4 ADD DUP9 PUSH2 0x3CC1 JUMP JUMPDEST PUSH2 0x46D4 PUSH1 0x60 DUP4 ADD DUP8 PUSH2 0x3CD0 JUMP JUMPDEST PUSH2 0x46E1 PUSH1 0x80 DUP4 ADD DUP7 PUSH2 0x4652 JUMP JUMPDEST PUSH2 0x46EE PUSH1 0xA0 DUP4 ADD DUP6 PUSH2 0x4652 JUMP JUMPDEST PUSH2 0x46FB PUSH1 0xC0 DUP4 ADD DUP5 PUSH2 0x468B JUMP JUMPDEST SWAP9 SWAP8 POP POP POP POP POP POP POP POP JUMP JUMPDEST PUSH0 PUSH1 0xA0 DUP3 ADD SWAP1 POP PUSH2 0x471A PUSH0 DUP4 ADD DUP9 PUSH2 0x3D4D JUMP JUMPDEST PUSH2 0x4727 PUSH1 0x20 DUP4 ADD DUP8 PUSH2 0x3B07 JUMP JUMPDEST PUSH2 0x4734 PUSH1 0x40 DUP4 ADD DUP7 PUSH2 0x3AD4 JUMP JUMPDEST PUSH2 0x4741 PUSH1 0x60 DUP4 ADD DUP6 PUSH2 0x3AD4 JUMP JUMPDEST DUP2 DUP2 SUB PUSH1 0x80 DUP4 ADD MSTORE PUSH2 0x4753 DUP2 DUP5 PUSH2 0x3B8A JUMP JUMPDEST SWAP1 POP SWAP7 SWAP6 POP POP POP POP POP POP JUMP JUMPDEST PUSH32 0x496E76616C696420736C6F740000000000000000000000000000000000000000 PUSH0 DUP3 ADD MSTORE POP JUMP JUMPDEST PUSH0 PUSH2 0x4793 PUSH1 0xC DUP4 PUSH2 0x3F42 JUMP JUMPDEST SWAP2 POP PUSH2 0x479E DUP3 PUSH2 0x475F JUMP JUMPDEST PUSH1 0x20 DUP3 ADD SWAP1 POP SWAP2 SWAP1 POP JUMP JUMPDEST PUSH0 PUSH1 0x20 DUP3 ADD SWAP1 POP DUP2 DUP2 SUB PUSH0 DUP4 ADD MSTORE PUSH2 0x47C0 DUP2 PUSH2 0x4787 JUMP JUMPDEST SWAP1 POP SWAP2 SWAP1 POP JUMP JUMPDEST PUSH32 0x536C6F7420656D70747900000000000000000000000000000000000000000000 PUSH0 DUP3 ADD MSTORE POP JUMP JUMPDEST PUSH0 PUSH2 0x47FB PUSH1 0xA DUP4 PUSH2 0x3F42 JUMP JUMPDEST SWAP2 POP PUSH2 0x4806 DUP3 PUSH2 0x47C7 JUMP JUMPDEST PUSH1 0x20 DUP3 ADD SWAP1 POP SWAP2 SWAP1 POP JUMP JUMPDEST PUSH0 PUSH1 0x20 DUP3 ADD SWAP1 POP DUP2 DUP2 SUB PUSH0 DUP4 ADD MSTORE PUSH2 0x4828 DUP2 PUSH2 0x47EF JUMP JUMPDEST SWAP1 POP SWAP2 SWAP1 POP JUMP JUMPDEST PUSH0 PUSH2 0x483A DUP3 DUP6 PUSH2 0x4002 JUMP JUMPDEST PUSH1 0x20 DUP3 ADD SWAP2 POP PUSH2 0x484A DUP3 DUP5 PUSH2 0x4002 JUMP JUMPDEST PUSH1 0x20 DUP3 ADD SWAP2 POP DUP2 SWAP1 POP SWAP4 SWAP3 POP POP POP JUMP JUMPDEST PUSH0 PUSH2 0x4864 DUP3 PUSH2 0x3E30 JUMP JUMPDEST SWAP2 POP PUSH2 0x486F DUP4 PUSH2 0x3E30 JUMP JUMPDEST SWAP3 POP DUP3 DUP3 ADD SWAP1 POP PUSH4 0xFFFFFFFF DUP2 GT ISZERO PUSH2 0x488B JUMPI PUSH2 0x488A PUSH2 0x40F7 JUMP JUMPDEST JUMPDEST SWAP3 SWAP2 POP POP JUMP JUMPDEST PUSH0 PUSH2 0x489B DUP3 PUSH2 0x3E30 JUMP JUMPDEST SWAP2 POP PUSH2 0x48A6 DUP4 PUSH2 0x3E30 JUMP JUMPDEST SWAP3 POP DUP3 DUP3 MUL PUSH2 0x48B4 DUP2 PUSH2 0x3E30 JUMP JUMPDEST SWAP2 POP DUP1 DUP3 EQ PUSH2 0x48C6 JUMPI PUSH2 0x48C5 PUSH2 0x40F7 JUMP JUMPDEST JUMPDEST POP SWAP3 SWAP2 POP POP JUMP JUMPDEST PUSH0 PUSH2 0x48D7 DUP3 PUSH2 0x3E14 JUMP JUMPDEST SWAP2 POP PUSH2 0xFFFF DUP3 SUB PUSH2 0x48EB JUMPI PUSH2 0x48EA PUSH2 0x40F7 JUMP JUMPDEST JUMPDEST PUSH1 0x1 DUP3 ADD SWAP1 POP SWAP2 SWAP1 POP JUMP JUMPDEST PUSH0 PUSH2 0x4901 DUP3 DUP8 PUSH2 0x4002 JUMP JUMPDEST PUSH1 0x20 DUP3 ADD SWAP2 POP PUSH2 0x4911 DUP3 DUP7 PUSH2 0x4047 JUMP JUMPDEST PUSH1 0x14 DUP3 ADD SWAP2 POP PUSH2 0x4921 DUP3 DUP6 PUSH2 0x4002 JUMP JUMPDEST PUSH1 0x20 DUP3 ADD SWAP2 POP PUSH2 0x4931 DUP3 DUP5 PUSH2 0x4002 JUMP JUMPDEST PUSH1 0x20 DUP3 ADD SWAP2 POP DUP2 SWAP1 POP SWAP6 SWAP5 POP POP POP POP POP JUMP JUMPDEST PUSH0 DUP2 PUSH1 0xF0 SHL SWAP1 POP SWAP2 SWAP1 POP JUMP JUMPDEST PUSH0 PUSH2 0x4959 DUP3 PUSH2 0x4943 JUMP JUMPDEST SWAP1 POP SWAP2 SWAP1 POP JUMP JUMPDEST PUSH2 0x4971 PUSH2 0x496C DUP3 PUSH2 0x3E14 JUMP JUMPDEST PUSH2 0x494F JUMP JUMPDEST DUP3 MSTORE POP POP JUMP JUMPDEST PUSH0 PUSH2 0x4982 DUP3 DUP9 PUSH2 0x4002 JUMP JUMPDEST PUSH1 0x20 DUP3 ADD SWAP2 POP PUSH2 0x4992 DUP3 DUP8 PUSH2 0x4047 JUMP JUMPDEST PUSH1 0x14 DUP3 ADD SWAP2 POP PUSH2 0x49A2 DUP3 DUP7 PUSH2 0x4960 JUMP JUMPDEST PUSH1 0x2 DUP3 ADD SWAP2 POP PUSH2 0x49B2 DUP3 DUP6 PUSH2 0x4002 JUMP JUMPDEST PUSH1 0x20 DUP3 ADD SWAP2 POP PUSH2 0x49C2 DUP3 DUP5 PUSH2 0x4002 JUMP JUMPDEST PUSH1 0x20 DUP3 ADD SWAP2 POP DUP2 SWAP1 POP SWAP7 SWAP6 POP POP POP POP POP POP JUMP JUMPDEST PUSH0 PUSH2 0x49DF DUP3 PUSH2 0x3E14 JUMP JUMPDEST SWAP2 POP PUSH2 0x49EA DUP4 PUSH2 0x3E14 JUMP JUMPDEST SWAP3 POP DUP3 PUSH2 0x49FA JUMPI PUSH2 0x49F9 PUSH2 0x409A JUMP JUMPDEST JUMPDEST DUP3 DUP3 DIV SWAP1 POP SWAP3 SWAP2 POP POP JUMP JUMPDEST PUSH0 PUSH1 0x40 DUP3 ADD SWAP1 POP PUSH2 0x4A18 PUSH0 DUP4 ADD DUP6 PUSH2 0x3D4D JUMP JUMPDEST PUSH2 0x4A25 PUSH1 0x20 DUP4 ADD DUP5 PUSH2 0x3E21 JUMP JUMPDEST SWAP4 SWAP3 POP POP POP JUMP JUMPDEST PUSH0 PUSH0 REVERT JUMPDEST PUSH0 PUSH1 0x1F NOT PUSH1 0x1F DUP4 ADD AND SWAP1 POP SWAP2 SWAP1 POP JUMP JUMPDEST PUSH2 0x4A49 DUP3 PUSH2 0x4A30 JUMP JUMPDEST DUP2 ADD DUP2 DUP2 LT PUSH8 0xFFFFFFFFFFFFFFFF DUP3 GT OR ISZERO PUSH2 0x4A68 JUMPI PUSH2 0x4A67 PUSH2 0x4404 JUMP JUMPDEST JUMPDEST DUP1 PUSH1 0x40 MSTORE POP POP POP JUMP JUMPDEST PUSH0 PUSH2 0x4A7A PUSH2 0x378A JUMP JUMPDEST SWAP1 POP PUSH2 0x4A86 DUP3 DUP3 PUSH2 0x4A40 JUMP JUMPDEST SWAP2 SWAP1 POP JUMP JUMPDEST PUSH1 0x3 DUP2 LT PUSH2 0x4A97 JUMPI PUSH0 PUSH0 REVERT JUMPDEST POP JUMP JUMPDEST PUSH0 DUP2 MLOAD SWAP1 POP PUSH2 0x4AA8 DUP2 PUSH2 0x4A8B JUMP JUMPDEST SWAP3 SWAP2 POP POP JUMP JUMPDEST PUSH1 0x3 DUP2 LT PUSH2 0x4ABA JUMPI PUSH0 PUSH0 REVERT JUMPDEST POP JUMP JUMPDEST PUSH0 DUP2 MLOAD SWAP1 POP PUSH2 0x4ACB DUP2 PUSH2 0x4AAE JUMP JUMPDEST SWAP3 SWAP2 POP POP JUMP JUMPDEST PUSH1 0x4 DUP2 LT PUSH2 0x4ADD JUMPI PUSH0 PUSH0 REVERT JUMPDEST POP JUMP JUMPDEST PUSH0 DUP2 MLOAD SWAP1 POP PUSH2 0x4AEE DUP2 PUSH2 0x4AD1 JUMP JUMPDEST SWAP3 SWAP2 POP POP JUMP JUMPDEST PUSH2 0x4AFD DUP2 PUSH2 0x393C JUMP JUMPDEST DUP2 EQ PUSH2 0x4B07 JUMPI PUSH0 PUSH0 REVERT JUMPDEST POP JUMP JUMPDEST PUSH0 DUP2 MLOAD SWAP1 POP PUSH2 0x4B18 DUP2 PUSH2 0x4AF4 JUMP JUMPDEST SWAP3 SWAP2 POP POP JUMP JUMPDEST PUSH0 PUSH1 0xC0 DUP3 DUP5 SUB SLT ISZERO PUSH2 0x4B33 JUMPI PUSH2 0x4B32 PUSH2 0x4A2C JUMP JUMPDEST JUMPDEST PUSH2 0x4B3D PUSH1 0xC0 PUSH2 0x4A71 JUMP JUMPDEST SWAP1 POP PUSH0 PUSH2 0x4B4C DUP5 DUP3 DUP6 ADD PUSH2 0x4A9A JUMP JUMPDEST PUSH0 DUP4 ADD MSTORE POP PUSH1 0x20 PUSH2 0x4B5F DUP5 DUP3 DUP6 ADD PUSH2 0x4ABD JUMP JUMPDEST PUSH1 0x20 DUP4 ADD MSTORE POP PUSH1 0x40 PUSH2 0x4B73 DUP5 DUP3 DUP6 ADD PUSH2 0x4AE0 JUMP JUMPDEST PUSH1 0x40 DUP4 ADD MSTORE POP PUSH1 0x60 PUSH2 0x4B87 DUP5 DUP3 DUP6 ADD PUSH2 0x4B0A JUMP JUMPDEST PUSH1 0x60 DUP4 ADD MSTORE POP PUSH1 0x80 PUSH2 0x4B9B DUP5 DUP3 DUP6 ADD PUSH2 0x4B0A JUMP JUMPDEST PUSH1 0x80 DUP4 ADD MSTORE POP PUSH1 0xA0 PUSH2 0x4BAF DUP5 DUP3 DUP6 ADD PUSH2 0x4B0A JUMP JUMPDEST PUSH1 0xA0 DUP4 ADD MSTORE POP SWAP3 SWAP2 POP POP JUMP JUMPDEST PUSH0 PUSH1 0xC0 DUP3 DUP5 SUB SLT ISZERO PUSH2 0x4BD0 JUMPI PUSH2 0x4BCF PUSH2 0x3793 JUMP JUMPDEST JUMPDEST PUSH0 PUSH2 0x4BDD DUP5 DUP3 DUP6 ADD PUSH2 0x4B1E JUMP JUMPDEST SWAP2 POP POP SWAP3 SWAP2 POP POP JUMP JUMPDEST PUSH0 PUSH2 0x4BF0 DUP3 PUSH2 0x393C JUMP JUMPDEST SWAP2 POP PUSH1 0xFF DUP3 SUB PUSH2 0x4C03 JUMPI PUSH2 0x4C02 PUSH2 0x40F7 JUMP JUMPDEST JUMPDEST PUSH1 0x1 DUP3 ADD SWAP1 POP SWAP2 SWAP1 POP JUMP JUMPDEST PUSH0 PUSH2 0x4C18 DUP3 PUSH2 0x3A63 JUMP JUMPDEST SWAP2 POP PUSH2 0x4C23 DUP4 PUSH2 0x3A63 JUMP JUMPDEST SWAP3 POP DUP3 PUSH2 0x4C33 JUMPI PUSH2 0x4C32 PUSH2 0x409A JUMP JUMPDEST JUMPDEST DUP3 DUP3 DIV SWAP1 POP SWAP3 SWAP2 POP POP JUMP INVALID LOG2 PUSH5 0x6970667358 0x22 SLT KECCAK256 0xA5 SELFDESTRUCT 0xDB 0xB5 SWAP12 0xAB CREATE2 CALLDATASIZE POP DUP7 0x1E SWAP9 DUP5 LOG4 0xE2 GT 0xDA DUP3 0xC2 0xCD SAR 0xDD DUP12 SMOD 0xC9 ADD PUSH26 0xFDC3F99F7B64736F6C634300081E003300000000000000000000 "
		},
		"gasEstimates": {
			"creation": {
				"codeDepositCost": "3914400",
				"executionCost": "infinite",
				"totalCost": "infinite"
			},
			"external": {
				"BUY_PRICE()": "414",
				"REROLL_PRICE()": "436",
				"buyFromShop(uint256)": "infinite",
				"buyUnit()": "infinite",
				"getCurrentAI(address)": "infinite",
				"getPlayerShop(address)": "infinite",
				"getPlayerUnits(address)": "infinite",
				"owner()": "2603",
				"pause()": "infinite",
				"paused()": "2568",
				"playerCurrentAI(address,uint256)": "infinite",
				"playerShopPreview(address,uint256)": "infinite",
				"playerUnits(address,uint256)": "infinite",
				"profiles(address)": "infinite",
				"renounceOwnership()": "infinite",
				"rerollShop()": "infinite",
				"setUnitNFT(address)": "infinite",
				"startMatch(uint256[])": "infinite",
				"transferOwnership(address)": "infinite",
				"unitNFT()": "infinite",
				"unpause()": "infinite",
				"withdraw()": "infinite"
			},
			"internal": {
				"_calculateAIPower(struct StarForgeGame.ShopUnit memory[] memory)": "infinite",
				"_calculateTeamPower(uint256[] calldata)": "infinite",
				"_generateAIOpponent(address)": "infinite",
				"_generateRandomRarity(uint256,uint256)": "infinite",
				"_generateShopPreview(address)": "infinite",
				"_updateProfileBuy(address)": "infinite",
				"_updateProfileMatch(address,bool)": "infinite"
			}
		},
		"methodIdentifiers": {
			"BUY_PRICE()": "705fe4be",
			"REROLL_PRICE()": "9f51758e",
			"buyFromShop(uint256)": "b654823e",
			"buyUnit()": "201738e2",
			"getCurrentAI(address)": "c99ae45f",
			"getPlayerShop(address)": "49c7c24a",
			"getPlayerUnits(address)": "6154ee97",
			"owner()": "8da5cb5b",
			"pause()": "8456cb59",
			"paused()": "5c975abb",
			"playerCurrentAI(address,uint256)": "d6691c27",
			"playerShopPreview(address,uint256)": "84d38fdc",
			"playerUnits(address,uint256)": "4ef2d6c1",
			"profiles(address)": "bbe15627",
			"renounceOwnership()": "715018a6",
			"rerollShop()": "29de58d1",
			"setUnitNFT(address)": "7e5c4f8b",
			"startMatch(uint256[])": "7f570e2b",
			"transferOwnership(address)": "f2fde38b",
			"unitNFT()": "b92a40ad",
			"unpause()": "3f4ba83a",
			"withdraw()": "3ccfd60b"
		}
	},
	"abi": [
		{
			"inputs": [
				{
					"internalType": "address",
					"name": "_unitNFT",
					"type": "address"
				}
			],
			"stateMutability": "nonpayable",
			"type": "constructor"
		},
		{
			"inputs": [],
			"name": "EnforcedPause",
			"type": "error"
		},
		{
			"inputs": [],
			"name": "ExpectedPause",
			"type": "error"
		},
		{
			"inputs": [
				{
					"internalType": "address",
					"name": "owner",
					"type": "address"
				}
			],
			"name": "OwnableInvalidOwner",
			"type": "error"
		},
		{
			"inputs": [
				{
					"internalType": "address",
					"name": "account",
					"type": "address"
				}
			],
			"name": "OwnableUnauthorizedAccount",
			"type": "error"
		},
		{
			"inputs": [],
			"name": "ReentrancyGuardReentrantCall",
			"type": "error"
		},
		{
			"anonymous": false,
			"inputs": [
				{
					"indexed": false,
					"internalType": "address",
					"name": "player",
					"type": "address"
				},
				{
					"indexed": false,
					"internalType": "uint16",
					"name": "aiLevel",
					"type": "uint16"
				}
			],
			"name": "AIOpponentGenerated",
			"type": "event"
		},
		{
			"anonymous": false,
			"inputs": [
				{
					"indexed": false,
					"internalType": "address",
					"name": "player",
					"type": "address"
				},
				{
					"indexed": false,
					"internalType": "bool",
					"name": "won",
					"type": "bool"
				},
				{
					"indexed": false,
					"internalType": "uint256",
					"name": "playerScore",
					"type": "uint256"
				},
				{
					"indexed": false,
					"internalType": "uint256",
					"name": "aiScore",
					"type": "uint256"
				},
				{
					"indexed": false,
					"internalType": "uint256[]",
					"name": "rewards",
					"type": "uint256[]"
				}
			],
			"name": "MatchPlayed",
			"type": "event"
		},
		{
			"anonymous": false,
			"inputs": [
				{
					"indexed": true,
					"internalType": "address",
					"name": "previousOwner",
					"type": "address"
				},
				{
					"indexed": true,
					"internalType": "address",
					"name": "newOwner",
					"type": "address"
				}
			],
			"name": "OwnershipTransferred",
			"type": "event"
		},
		{
			"anonymous": false,
			"inputs": [
				{
					"indexed": false,
					"internalType": "address",
					"name": "account",
					"type": "address"
				}
			],
			"name": "Paused",
			"type": "event"
		},
		{
			"anonymous": false,
			"inputs": [
				{
					"indexed": false,
					"internalType": "address",
					"name": "player",
					"type": "address"
				}
			],
			"name": "ShopRerolled",
			"type": "event"
		},
		{
			"anonymous": false,
			"inputs": [
				{
					"indexed": false,
					"internalType": "address",
					"name": "player",
					"type": "address"
				},
				{
					"indexed": false,
					"internalType": "uint256",
					"name": "tokenId",
					"type": "uint256"
				}
			],
			"name": "UnitBought",
			"type": "event"
		},
		{
			"anonymous": false,
			"inputs": [
				{
					"indexed": false,
					"internalType": "address",
					"name": "account",
					"type": "address"
				}
			],
			"name": "Unpaused",
			"type": "event"
		},
		{
			"inputs": [],
			"name": "BUY_PRICE",
			"outputs": [
				{
					"internalType": "uint256",
					"name": "",
					"type": "uint256"
				}
			],
			"stateMutability": "view",
			"type": "function"
		},
		{
			"inputs": [],
			"name": "REROLL_PRICE",
			"outputs": [
				{
					"internalType": "uint256",
					"name": "",
					"type": "uint256"
				}
			],
			"stateMutability": "view",
			"type": "function"
		},
		{
			"inputs": [
				{
					"internalType": "uint256",
					"name": "slot",
					"type": "uint256"
				}
			],
			"name": "buyFromShop",
			"outputs": [],
			"stateMutability": "payable",
			"type": "function"
		},
		{
			"inputs": [],
			"name": "buyUnit",
			"outputs": [],
			"stateMutability": "payable",
			"type": "function"
		},
		{
			"inputs": [
				{
					"internalType": "address",
					"name": "player",
					"type": "address"
				}
			],
			"name": "getCurrentAI",
			"outputs": [
				{
					"components": [
						{
							"internalType": "enum StarForgeUnitNFT.Faction",
							"name": "faction",
							"type": "uint8"
						},
						{
							"internalType": "enum StarForgeUnitNFT.Rarity",
							"name": "rarity",
							"type": "uint8"
						},
						{
							"internalType": "enum StarForgeUnitNFT.UnitClass",
							"name": "unitClass",
							"type": "uint8"
						},
						{
							"internalType": "uint8",
							"name": "attack",
							"type": "uint8"
						},
						{
							"internalType": "uint8",
							"name": "defense",
							"type": "uint8"
						},
						{
							"internalType": "uint8",
							"name": "speed",
							"type": "uint8"
						}
					],
					"internalType": "struct StarForgeGame.ShopUnit[]",
					"name": "",
					"type": "tuple[]"
				}
			],
			"stateMutability": "view",
			"type": "function"
		},
		{
			"inputs": [
				{
					"internalType": "address",
					"name": "player",
					"type": "address"
				}
			],
			"name": "getPlayerShop",
			"outputs": [
				{
					"components": [
						{
							"internalType": "enum StarForgeUnitNFT.Faction",
							"name": "faction",
							"type": "uint8"
						},
						{
							"internalType": "enum StarForgeUnitNFT.Rarity",
							"name": "rarity",
							"type": "uint8"
						},
						{
							"internalType": "enum StarForgeUnitNFT.UnitClass",
							"name": "unitClass",
							"type": "uint8"
						},
						{
							"internalType": "uint8",
							"name": "attack",
							"type": "uint8"
						},
						{
							"internalType": "uint8",
							"name": "defense",
							"type": "uint8"
						},
						{
							"internalType": "uint8",
							"name": "speed",
							"type": "uint8"
						}
					],
					"internalType": "struct StarForgeGame.ShopUnit[5]",
					"name": "",
					"type": "tuple[5]"
				}
			],
			"stateMutability": "view",
			"type": "function"
		},
		{
			"inputs": [
				{
					"internalType": "address",
					"name": "player",
					"type": "address"
				}
			],
			"name": "getPlayerUnits",
			"outputs": [
				{
					"internalType": "uint256[]",
					"name": "",
					"type": "uint256[]"
				}
			],
			"stateMutability": "view",
			"type": "function"
		},
		{
			"inputs": [],
			"name": "owner",
			"outputs": [
				{
					"internalType": "address",
					"name": "",
					"type": "address"
				}
			],
			"stateMutability": "view",
			"type": "function"
		},
		{
			"inputs": [],
			"name": "pause",
			"outputs": [],
			"stateMutability": "nonpayable",
			"type": "function"
		},
		{
			"inputs": [],
			"name": "paused",
			"outputs": [
				{
					"internalType": "bool",
					"name": "",
					"type": "bool"
				}
			],
			"stateMutability": "view",
			"type": "function"
		},
		{
			"inputs": [
				{
					"internalType": "address",
					"name": "",
					"type": "address"
				},
				{
					"internalType": "uint256",
					"name": "",
					"type": "uint256"
				}
			],
			"name": "playerCurrentAI",
			"outputs": [
				{
					"internalType": "enum StarForgeUnitNFT.Faction",
					"name": "faction",
					"type": "uint8"
				},
				{
					"internalType": "enum StarForgeUnitNFT.Rarity",
					"name": "rarity",
					"type": "uint8"
				},
				{
					"internalType": "enum StarForgeUnitNFT.UnitClass",
					"name": "unitClass",
					"type": "uint8"
				},
				{
					"internalType": "uint8",
					"name": "attack",
					"type": "uint8"
				},
				{
					"internalType": "uint8",
					"name": "defense",
					"type": "uint8"
				},
				{
					"internalType": "uint8",
					"name": "speed",
					"type": "uint8"
				}
			],
			"stateMutability": "view",
			"type": "function"
		},
		{
			"inputs": [
				{
					"internalType": "address",
					"name": "",
					"type": "address"
				},
				{
					"internalType": "uint256",
					"name": "",
					"type": "uint256"
				}
			],
			"name": "playerShopPreview",
			"outputs": [
				{
					"internalType": "enum StarForgeUnitNFT.Faction",
					"name": "faction",
					"type": "uint8"
				},
				{
					"internalType": "enum StarForgeUnitNFT.Rarity",
					"name": "rarity",
					"type": "uint8"
				},
				{
					"internalType": "enum StarForgeUnitNFT.UnitClass",
					"name": "unitClass",
					"type": "uint8"
				},
				{
					"internalType": "uint8",
					"name": "attack",
					"type": "uint8"
				},
				{
					"internalType": "uint8",
					"name": "defense",
					"type": "uint8"
				},
				{
					"internalType": "uint8",
					"name": "speed",
					"type": "uint8"
				}
			],
			"stateMutability": "view",
			"type": "function"
		},
		{
			"inputs": [
				{
					"internalType": "address",
					"name": "",
					"type": "address"
				},
				{
					"internalType": "uint256",
					"name": "",
					"type": "uint256"
				}
			],
			"name": "playerUnits",
			"outputs": [
				{
					"internalType": "uint256",
					"name": "",
					"type": "uint256"
				}
			],
			"stateMutability": "view",
			"type": "function"
		},
		{
			"inputs": [
				{
					"internalType": "address",
					"name": "",
					"type": "address"
				}
			],
			"name": "profiles",
			"outputs": [
				{
					"internalType": "uint16",
					"name": "level",
					"type": "uint16"
				},
				{
					"internalType": "uint32",
					"name": "xp",
					"type": "uint32"
				},
				{
					"internalType": "uint256",
					"name": "wins",
					"type": "uint256"
				},
				{
					"internalType": "uint256",
					"name": "losses",
					"type": "uint256"
				}
			],
			"stateMutability": "view",
			"type": "function"
		},
		{
			"inputs": [],
			"name": "renounceOwnership",
			"outputs": [],
			"stateMutability": "nonpayable",
			"type": "function"
		},
		{
			"inputs": [],
			"name": "rerollShop",
			"outputs": [],
			"stateMutability": "payable",
			"type": "function"
		},
		{
			"inputs": [
				{
					"internalType": "address",
					"name": "_unitNFT",
					"type": "address"
				}
			],
			"name": "setUnitNFT",
			"outputs": [],
			"stateMutability": "nonpayable",
			"type": "function"
		},
		{
			"inputs": [
				{
					"internalType": "uint256[]",
					"name": "team",
					"type": "uint256[]"
				}
			],
			"name": "startMatch",
			"outputs": [],
			"stateMutability": "nonpayable",
			"type": "function"
		},
		{
			"inputs": [
				{
					"internalType": "address",
					"name": "newOwner",
					"type": "address"
				}
			],
			"name": "transferOwnership",
			"outputs": [],
			"stateMutability": "nonpayable",
			"type": "function"
		},
		{
			"inputs": [],
			"name": "unitNFT",
			"outputs": [
				{
					"internalType": "contract StarForgeUnitNFT",
					"name": "",
					"type": "address"
				}
			],
			"stateMutability": "view",
			"type": "function"
		},
		{
			"inputs": [],
			"name": "unpause",
			"outputs": [],
			"stateMutability": "nonpayable",
			"type": "function"
		},
		{
			"inputs": [],
			"name": "withdraw",
			"outputs": [],
			"stateMutability": "nonpayable",
			"type": "function"
		}
	]
}