{
	"data": {
		"bytecode": {
			"linkReferences": {},
			"object": "608034608657601f613b3b38819003918201601f19168301916001600160401b03831184841017608a578084926040948552833981010312608657604b6020604583609e565b9201609e565b600a80546001600160a01b039384166001600160a01b031991821617909155600b8054929093169116179055604051613a8990816100b28239f35b5f80fd5b634e487b7160e01b5f52604160045260245ffd5b51906001600160a01b038216820360865756fe6080806040526004361015610012575f80fd5b5f3560e01c90816254766414611e6f5750806318dc318514611daf578063201738e214611c4a57806329de58d114611be05780632dc6d62f14611b4757806349c7c24a14611a875780634e17865914611a3c5780634ef2d6c1146119f3578063518c83b0146119d657806351bdab1414610a5c5780636154ee97146109ea578063732e9b851461098f5780637e5c4f8b14610956578063a787c80b1461091a578063a95db7e21461087c578063b2a4750014610843578063b654823e14610461578063b78f4c7014610424578063b92a40ad146103fc578063bb15a3b41461037a578063bbe1562714610309578063bdb729c91461028e578063c4f036c414610246578063c99ae45f146101bd578063d5654ae7146101955763f5905ca114610139575f80fd5b3461019157604036600319011261019157610152611f8b565b6001600160a01b03165f90815260036020526040902080546024359190821015610191576020916101829161209d565b90549060031b1c604051908152f35b5f80fd5b34610191575f36600319011261019157600b546040516001600160a01b039091168152602090f35b34610191576020366003190112610191576101d6611f8b565b506101206040516101e7828261218a565b600881526101fd6020820192601f190183612757565b604051918291602083019060208452518091526040830191905f5b818110610226575050500390f35b9193509160206102396001928651611fff565b9401910191849392610218565b346101915760403660031901126101915761025f611f8b565b6001600160a01b03165f9081526004602052604090206024356003811015610191576020910154604051908152f35b34610191575f36600319011261019157335f5260026020526102b260405f20612901565b335f5260036020526102c660405f20612901565b335f5260046020526102df60405f20600381019061288e565b335f5260076020526102f360405f206128a4565b335f52600860205261030760405f206128a4565b005b34610191576020366003190112610191576001600160a01b0361032a611f8b565b165f52600160205260a060405f2080549060018101549061ffff60036002830154920154169163ffffffff6040519461ffff8116865260101c166020850152604084015260608301526080820152f35b34610191576020366003190112610191576001600160a01b0361039b611f8b565b165f52600360205260405f206040519081602082549182815201915f5260205f20905f5b8181106103e6576103e2856103d68187038261218a565b604051918291826120e2565b0390f35b82548452602090930192600192830192016103bf565b34610191575f36600319011261019157600a546040516001600160a01b039091168152602090f35b34610191576020366003190112610191576001600160a01b03610445611f8b565b165f526006602052602060ff60405f2054166040519015158152f35b602036600319011261019157600435335f525f60205261048760ff60405f2054166121ab565b600381101561080f57335f5260056020526104ae6104a88260405f20611fa1565b5061277a565b90602082015115801590610805575b156107d35781511561060c57661c6bf52634000034106105c75760018060a01b03600b54169160ff6101008201511660068110156105b357606460ff610120602094015116915f604051968794859363f925b74160e01b8552336004860152602485015260448401525af19182156105a8575f92610572575b5061054f61030792335f52600360205260405f206122d4565b61056c61055a612922565b91335f52600560205260405f20611fa1565b90612308565b91506020823d6020116105a0575b8161058d6020938361218a565b810103126101915790519061054f610536565b3d9150610580565b6040513d5f823e3d90fd5b634e487b7160e01b5f52602160045260245ffd5b60405162461bcd60e51b815260206004820152601e60248201527f496e73756666696369656e74207061796d656e7420666f722072656c696300006044820152606490fd5b9050662386f26fc10000341061078e576040805142602082019081523360601b6bffffffffffffffffffffffff1916928201929092524460548201526074810183905261066681609481015b03601f19810183528261218a565b51902090600b8206600a0180600a1161077a57600b8360081c06600801908160081161077a57600b8460101c066009018060091161077a5760ff60038660181c061660ff6003808860201c169760281c06169560018060a01b03600a5416926106ce8361226a565b6106d78861226a565b60048210156105b357604051630e3bd81160e31b815297602096899687955f9587956107149560ff91821695821694909116923360048901612274565b03925af19182156105a8575f92610744575b5061073f61030792335f52600260205260405f206122d4565b61054f565b91506020823d602011610772575b8161075f6020938361218a565b810103126101915790519061073f610726565b3d9150610752565b634e487b7160e01b5f52601160045260245ffd5b60405162461bcd60e51b815260206004820152601d60248201527f496e73756666696369656e74207061796d656e7420666f7220756e69740000006044820152606490fd5b60405162461bcd60e51b815260206004820152600a602482015269115b5c1d1e481cdb1bdd60b21b6044820152606490fd5b50815115156104bd565b60405162461bcd60e51b815260206004820152600c60248201526b125b9d985b1a59081cdb1bdd60a21b6044820152606490fd5b34610191576020366003190112610191576001600160a01b03610864611f8b565b166001600160601b0360a01b600b541617600b555f80f35b3461019157602036600319011261019157610895611f8b565b606090816040516108a6828261218a565b3690376001600160a01b03165f90815260046020526040808220905191825b60038210610904575050506108da828261218a565b604051905f825b600382106108ee57505050f35b60208060019285518152019301910190916108e1565b60016020819285548152019301910190916108c5565b34610191576020366003190112610191576001600160a01b0361093b611f8b565b165f525f602052602060ff60405f2054166040519015158152f35b34610191576020366003190112610191576001600160a01b03610977611f8b565b166001600160601b0360a01b600a541617600a555f80f35b34610191576040366003190112610191576109a8611f8b565b6001600160a01b03165f908152600860205260409020805460243590811015610191576109da61ffff9160209361207c565b90549060031b1c16604051908152f35b34610191576020366003190112610191576001600160a01b03610a0b611f8b565b165f52600260205260405f206040519081602082549182815201915f5260205f20905f5b818110610a46576103e2856103d68187038261218a565b8254845260209093019260019283019201610a2f565b34610191576040366003190112610191576004356001600160401b03811161019157610a8c9036906004016120b2565b6024356001600160401b03811161019157610aab9036906004016120b2565b9091335f525f602052610ac460ff60405f2054166121ab565b6004811015806119cb575b156119925760405192610120610ae5818661218a565b60088552601f19015f5b81811061197b5750506040805142602082019081523360601b6bffffffffffffffffffffffff191692820192909252446054820152436074820152610b378160948101610658565b519020915f5b60ff81166008811015610c9357335f90815260016020526040902054604080516020810188815260f886901b6001600160f81b0319169282019290925260f09290921b6001600160f01b03191660418301526023825290610b9f60438261218a565b5190209160ff610bb1600d850661224f565b1692600c8160081c066007018060071161077a5760ff169260ff610bda600b8460101c0661224f565b1660ff60038460181c06169060ff6003808660201c169560281c061695610c008361226a565b610c098761226a565b60048510156105b35760ff97610c5d610c8b9660019960405196610c2f6101408961218a565b5f88525f6020890152610c418161226a565b6040880152610c4f8161226a565b60608701526080860161280f565b60a084015260c083015260e08201525f6101008201525f610120820152610c84828c61281b565b528961281b565b500116610b3d565b5050600a54600b54335f9081526001602052604090206001600160a01b03928316948693889316918991610cdd91610cd5908d9061ffff90541698369161282f565b94369161282f565b610ce5612a64565b50610cf08451612b24565b945f5b8551811015610f2557610d06818761281b565b519060405191630b2adfdf60e11b8352600483015260c0826024818d5afa9182156105a8575f92610e5b575b506020820191610d4b8351610d468161226a565b6136c3565b90610d5f608082019260ff8451169061370c565b9060ff806060830151169351169060a081019560ff875116610da4610d8d8351610d888161226a565b613720565b9860ff845191610d9c8361226a565b511690613750565b6040845193610db28561226a565b5194610dbd8661226a565b01519460048610156105b35760019961ffff610e3f9860ff958694610de69c6040519d8e61216e565b8d5260208d015260408c0152168060608b015260808a01521660a08801521660c08601525f60e08601525f610100860152610e208161226a565b610120850152610e2f8161226a565b610140840152610160830161280f565b610e49828a61281b565b52610e54818961281b565b5001610cf3565b90915060c0813d8211610f1d575b81610e7660c0938361218a565b81010312610191576040519060c082018281106001600160401b03821117610f095760405280516003811015610191578252602081015160038110156101915760208301526040810151600481101561019157610efd9160a0916040850152610ee160608201612bbf565b6060850152610ef260808201612bbf565b608085015201612bbf565b60a0820152908a610d32565b634e487b7160e01b5f52604160045260245ffd5b3d9150610e69565b50859193610f3388846137ca565b5f935b855185101561122557610f49858761281b565b511561121857610f59858761281b565b5195604051966368972d5960e01b885260048801525f87602481865afa9687156105a8575f9761113e575b505f5b855181101561112957875160068110156105b357610fce5760019060ff60208a01511660ff610fc4610fb9848b61281b565b519282845116612af1565b1690525b01610f87565b875160068110156105b3576001036110115760019060ff60208a01511660ff6110086020610ffc858c61281b565b51019282845116612af1565b1690525b610fc8565b875160068110156105b35760020361103f5760019060ff60208a01511660ff6110086040610ffc858c61281b565b875160068110156105b3576003036110d85761ffff6060611060838961281b565b5101511690600360ff60208b0151160261ffff811690810361077a576064019161ffff831161077a5761ffff61109a6001946064936136f3565b160461ffff60606110ab848b61281b565b51019116905261ffff60606110c0838a61281b565b5101511660806110d0838a61281b565b510152610fc8565b875160068110156105b3576004036111065760019060ff60208a01511660ff61100860a0610ffc858c61281b565b87519060068210156105b35760056001920361100c578160e06110d0838a61281b565b5092919550936001905b019394909194610f36565b9096503d805f833e611150818361218a565b810190602081830312610191578051906001600160401b03821161019157019060608282031261019157604051916111878361211b565b805160068110156101915783526111a060208201612bbf565b60208401526040810151906001600160401b038211610191570181601f82011215610191578051906001600160401b038211610f0957604051926111ee601f8401601f19166020018561218a565b8284526020838301011161019157815f9260208093018386015e8301015260408201529587610f84565b9360019095929195611133565b90506112318151612b24565b925f5b82518110156112fa57611247818461281b565b5190606082019161125c8351610d468161226a565b9061127060c082019260ff8451169061370c565b9060ff8060a0830151169351169060e081019560ff875116611299610d8d8351610d888161226a565b60806040850151936112aa8561226a565b51946112b58661226a565b01519460048610156105b35760019961ffff6112de9860ff958694610de69c6040519d8e61216e565b6112e8828861281b565b526112f3818761281b565b5001611234565b50828461130683612bde565b61130f81612bde565b6113198351612a98565b906113248151612a98565b5f5b8551811015611356578061ffff60806113416001948a61281b565b5101511661134f828761281b565b5201611326565b50909284925f5b855181101561138d578061ffff60806113786001948a61281b565b51015116611386828761281b565b520161135d565b5083838660405194610f206113a2818861218a565b60788752601f19015f5b8181106119105750505f9260015b60ff8116601281116114d9576113cf87612ce5565b158015611900575b6114d9576003906113e788612d32565b6113f086612d32565b0260ff811690810361077a57836001911c1660010160ff811161077a5760ff165f5b8160ff82161061142d575b505061142890612b13565b6113ba565b60778710156114c45761143f88612ce5565b1580156114c9575b6114c45787878b87868a61145b8187612d9b565b9190156114945761146b96613352565b61147d575b600160ff915b0116611412565b95600161148b60ff92612b05565b97915050611470565b9561149e96612f74565b6114ad575b600160ff91611476565b9560016114bb60ff92612b05565b979150506114a3565b61141d565b506114d386612ce5565b15611447565b50509350506114e790612ce5565b15906114f2816127f8565b94611500604051968761218a565b818652601f1961150f836127f8565b015f5b8181106118955750505f5b82811061186b5750505061152f612a64565b9081526020810193845260408101928352606081019182528051151560405160208101916001600160601b03193360601b16835242603483015244605483015260f81b60748201526055815261158660758261218a565b51902093846009556115b282511515335f52600660205260405f209060ff801983541691151516179055565b335f9081526007602052604090206115ce906128a4565b6128a4565b5f5b84515181101561160c57335f908152600760205260409020600191906116069061ffff6115fe848a5161281b565b5116906128cb565b016115d0565b5090919361162d6115c93360018060a01b03165f52600860205260405f2090565b5f5b85515181101561166357335f9081526008602052604090206001919061165d9061ffff6115fe848b5161281b565b0161162f565b5083817fc5187ed43ef6c494568f3ace9a84a990fe330816256f8610ba7630de7fc2a4856116bc886116ae885115159551915191604051968752606060208801526060870190611fc8565b908582036040870152611fc8565b928033940390a35f5b825190815181101561178b57827f60620dfbc2d4188642cffa14579da13e93400a7369bb90aac5a983beef88f66a6116ff8360019561281b565b5161010060ff82511660208084015115159360ff6040820151169060ff60608201511661ffff608083015116908661ffff60e0850151169301519360405198899788528688015260408701526060860152608085015260a084015260e060c084015280519182918260e0860152018484015e5f828201840152601f01601f19168101030190a2016116c5565b84511515335f52600160205260405f2090805f146118645760195b60ff63ffffffff845460101c1691160163ffffffff811161077a57825465ffffffff0000191660109190911b65ffffffff0000161782551561184f57600181016117f08154612b05565b90555b805461ffff8116906037820263ffffffff811690810361077a57605a0163ffffffff811161077a5763ffffffff8091169160101c16101561183057005b61ffff811461077a57815461ffff191660019190910161ffff16179055005b6002810161185d8154612b05565b90556117f3565b600a6117a6565b806118786001928461281b565b51611883828a61281b565b5261188e818961281b565b500161151d565b6020906040516118a481612152565b5f81525f838201525f60408201525f60608201525f60808201525f60a08201525f60c08201525f60e082015260606101008201525f6101208201525f6101408201525f6101608201525f61018082015282828b01015201611512565b5061190a85612ce5565b156113d7565b60209060405161191f81612152565b5f81525f838201525f60408201525f60608201525f60808201525f60a08201525f60c08201525f60e082015260606101008201525f6101208201525f6101408201525f6101608201525f61018082015282828b010152016113ac565b60209061198661270d565b82828901015201610aef565b60405162461bcd60e51b8152602060048201526011602482015270496e76616c6964207465616d2073697a6560781b6044820152606490fd5b506008811115610acf565b34610191575f366003190112610191576020600954604051908152f35b3461019157604036600319011261019157611a0c611f8b565b6001600160a01b03165f90815260026020526040902080546024359190821015610191576020916101829161209d565b3461019157604036600319011261019157611a55611f8b565b6001600160a01b03165f908152600760205260409020805460243590811015610191576109da61ffff9160209361207c565b3461019157602036600319011261019157611aa0611f8b565b6060604051611ab060608261218a565b5f5b828110611b32578360018060a01b03165f52600560205260405f2060405190611ada8261211b565b5f825b60038210611b1457604051845f825b60038210611afa576103c084f35b6020611b096001928551611fff565b930191019091611aec565b60036020600192611b248661277a565b815201930191019091611add565b602090611b3d61270d565b8184015201611ab2565b34610191576020366003190112610191576001600160a01b03611b68611f8b565b16805f52600660205260ff60405f205416815f52600760205260405f20915f52600860205260405f2091611bd6611baa611ba460095493612400565b94612400565b611bc860405195869515158652608060208701526080860190611fc8565b908482036040860152611fc8565b9060608301520390f35b5f36600319011261019157335f525f602052611c0260ff60405f2054166121ab565b611c156611c37937e080003410156121ee565b5f5b60038110611c2157005b600190611c44611c2f612922565b335f52600560205261056c8360405f20611fa1565b01611c17565b5f36600319011261019157335f525f602052611c6c60ff60405f2054166121ab565b611c7f662386f26fc100003410156121ee565b60405160208101904282523360601b604082015244605482015260548152611ca860748261218a565b519020600b8106600a0180600a1161077a57600b8260081c06600801908160081161077a57600b8360101c066009018060091161077a5760ff60038560181c061660ff6003808760201c169660281c06169460018060a01b03600a541692611d0f8361226a565b611d188761226a565b60048210156105b357604051630e3bd81160e31b815296602096889687955f958795611d559560ff91821695821694909116923360048901612274565b03925af180156105a8575f90611d7b575b61030790335f52600260205260405f206122d4565b506020813d602011611da7575b81611d956020938361218a565b81010312610191576103079051611d66565b3d9150611d88565b3461019157604036600319011261019157611dc8611f8b565b6001600160a01b03165f9081526005602052604090206024359060038210156101915761014091611df891611fa1565b5060ff80825416916002600182015491015490604051931515845260208401528181166040840152818160081c166060840152818160101c166080840152818160181c1660a0840152818160201c1660c0840152818160281c1660e0840152818160301c1661010084015260381c16610120820152f35b34610191575f36600319011261019157335f525f60205260ff60405f205416611f5057335f525f60205260405f20600160ff1982541617905560405160a081018181106001600160401b03821117610f09576040526001815261ffff600381602084015f8152604085015f815260608601905f8252611f3063ffffffff608089019460018652335f526001602052868060405f209b51161687198b5416178a555116889065ffffffff000082549160101b169065ffffffff00001916179055565b51600187015551600286015551169201911661ffff198254161790555f80f35b62461bcd60e51b815260206004820152601660248201527550726f66696c6520616c72656164792065786973747360501b6044820152606490fd5b600435906001600160a01b038216820361019157565b906003811015611fb45760030201905f90565b634e487b7160e01b5f52603260045260245ffd5b90602080835192838152019201905f5b818110611fe55750505090565b825161ffff16845260209384019390920191600101611fd8565b9060ff61012061014093805115158452602081015160208501528260408201511660408501528260608201511660608501528260808201511660808501528260a08201511660a08501528260c08201511660c08501528260e08201511660e085015282610100820151166101008501520151166101208201520190565b9190918054831015611fb4575f52601e60205f208360041c019260011b1690565b8054821015611fb4575f5260205f2001905f90565b9181601f84011215610191578235916001600160401b038311610191576020808501948460051b01011161019157565b60206040818301928281528451809452019201905f5b8181106121055750505090565b82518452602093840193909201916001016120f8565b606081019081106001600160401b03821117610f0957604052565b61014081019081106001600160401b03821117610f0957604052565b6101a081019081106001600160401b03821117610f0957604052565b61018081019081106001600160401b03821117610f0957604052565b90601f801991011681019081106001600160401b03821117610f0957604052565b156121b257565b60405162461bcd60e51b815260206004820152601460248201527310dc99585d19481c1c9bd99a5b1948199a5c9cdd60621b6044820152606490fd5b156121f557565b60405162461bcd60e51b8152602060048201526014602482015273125b9cdd59999a58da595b9d081c185e5b595b9d60621b6044820152606490fd5b811561223b570690565b634e487b7160e01b5f52601260045260245ffd5b600801908160081161077a57565b9190820180921161077a57565b600311156105b357565b6001600160a01b03909116815260e081019796909594909290916122978161226a565b60208701526122a58161226a565b604086015260048310156105b35760c09360ff809492819360608901521660808701521660a085015216910152565b8054600160401b811015610f09576122f19160018201815561209d565b819291549060031b91821b915f19901b1916179055565b906123ed5760029061232983511515829060ff801983541691151516179055565b60208301516001820155019060ff60408201511690825461ff00606083015160081b169262ff0000608084015160101b169363ff00000060a085015160181b169064ff0000000060c086015160201b169165ff000000000060e087015160281b169460ff60381b61012066ff0000000000006101008a015160301b1698015160381b169760ff60381b199566ff000000000000199465ff0000000000199364ff00000000199263ff000000199162ffffff1916171617161716171617161717179055565b634e487b7160e01b5f525f60045260245ffd5b90604051918281549182825260208201905f5260205f20925f905b80600f830110612625576124b1945491818110612610575b8181106125f8575b8181106125e1575b8181106125c9575b8181106125b1575b818110612599575b818110612581575b818110612569575b818110612551575b818110612539575b818110612521575b818110612509575b8181106124f1575b8181106124d9575b8181106124c1575b106124b3575b50038361218a565b565b60f01c81526020015f6124a9565b92602060019161ffff8560e01c1681520193016124a3565b92602060019161ffff8560d01c16815201930161249b565b92602060019161ffff8560c01c168152019301612493565b92602060019161ffff8560b01c16815201930161248b565b92602060019161ffff8560a01c168152019301612483565b92602060019161ffff8560901c16815201930161247b565b92602060019161ffff8560801c168152019301612473565b92602060019161ffff8560701c16815201930161246b565b92602060019161ffff8560601c168152019301612463565b92602060019161ffff8560501c16815201930161245b565b92602060019161ffff8560401c168152019301612453565b92602060019161ffff8560301c16815201930161244b565b92602060019161ffff85831c168152019301612443565b92602060019161ffff8560101c16815201930161243b565b92602060019161ffff85168152019301612433565b916010919350610200600191865461ffff8116825261ffff81861c16602083015261ffff8160201c16604083015261ffff8160301c16606083015261ffff8160401c16608083015261ffff8160501c1660a083015261ffff8160601c1660c083015261ffff8160701c1660e083015261ffff8160801c1661010083015261ffff8160901c1661012083015261ffff8160a01c1661014083015261ffff8160b01c1661016083015261ffff8160c01c1661018083015261ffff8160d01c166101a083015261ffff8160e01c166101c083015260f01c6101e082015201940192018592939161241b565b6040519061271a82612136565b5f610120838281528260208201528260408201528260608201528260808201528260a08201528260c08201528260e0820152826101008201520152565b5f5b82811061276557505050565b60209061277061270d565b8184015201612759565b9060405161278781612136565b61012060ff6002839582815416151585526001810154602086015201548181166040850152818160081c166060850152818160101c166080850152818160181c1660a0850152818160201c1660c0850152818160281c1660e0850152818160301c1661010085015260381c16910152565b6001600160401b038111610f095760051b60200190565b60048210156105b35752565b8051821015611fb45760209160051b010190565b92919061283b816127f8565b93612849604051958661218a565b602085838152019160051b810192831161019157905b82821061286b57505050565b813581526020918201910161285f565b8181029291811591840414171561077a57565b818110612899575050565b5f815560010161288e565b80545f8255806128b2575050565b6124b1915f52600f60205f20910160041c81019061288e565b8054600160401b811015610f09576128e89160018201815561207c565b61ffff80839493549260031b9316831b921b1916179055565b80545f82558061290f575050565b6124b1915f5260205f209081019061288e565b61292a61270d565b5060405160208101904282524460408201523360601b60608201526054815261295460748261218a565b51902060286064820610156129c857600d8160081c066008018060081161077a5760ff908160066040519461298886612136565b600186525f60208701525f60408701525f60608701525f60808701525f60a08701525f60c08701525f60e087015206166101008401521661012082015290565b600b8160281c06600a0180600a1161077a57600b8260301c06600801908160081161077a57600b8360381c06600901908160091161077a5760ff92838092600360405197612a1589612136565b5f89525f60208a015283828260101c061660408a015283828260201c061660608a015260181c1660808801521660a08601521660c08401521660e08201525f6101008201525f61012082015290565b60405190608082018281106001600160401b03821117610f0957604052606080835f81528160208201528160408201520152565b90612aa2826127f8565b612aaf604051918261218a565b8281528092612ac0601f19916127f8565b0190602036910137565b60021b906103fc60fc83169216820361077a57565b60ff60029116019060ff821161077a57565b9060ff8091169116019060ff821161077a57565b5f19811461077a5760010190565b60ff1660ff811461077a5760010190565b90612b2e826127f8565b612b3b604051918261218a565b8281528092612b4c601f19916127f8565b01905f5b828110612b5c57505050565b602090604051612b6b8161216e565b5f81525f838201525f60408201525f60608201525f60808201525f60a08201525f60c08201525f60e08201525f6101008201525f6101208201525f6101408201525f61016082015282828501015201612b50565b519060ff8216820361019157565b906003811015611fb45760051b0190565b60405191906060612bef818561218a565b60603685375f5b8251811015612c6e578061ffff83612c106001948761281b565b51015116612c1f575b01612bf6565b60ff610120612c2e838761281b565b510151612c3a8161226a565b612c438161226a565b1660ff612c65612c5e82612c57858c612bcd565b5116612b13565b9289612bcd565b91169052612c19565b50505f5b8151811015612cdf5780600360ff612caf81610120612c936001978961281b565b510151612c9f8161226a565b612ca88161226a565b1688612bcd565b51161015612cbe575b01612c72565b612cc8818461281b565b5160ff612cd781835116612adf565b169052612cb8565b50509050565b5f5b8151811015612d165761ffff6060612cff838561281b565b51015116612d0f57600101612ce7565b5050600190565b50505f90565b9061ffff8091169116019061ffff821161077a57565b5f5b8151811015612d97578061ffff6060612d4f6001948661281b565b51015116612d5e575b01612d34565b60ff6040612d6c838661281b565b5101511661ffff612d8f610100612d83858861281b565b51019282845116612d1c565b169052612d58565b5050565b905f905f5f945f915f5b8651811015612e2a57612dd1612dca6060612dc0848b61281b565b51015161ffff1690565b61ffff1690565b151580612e0b575b612de6575b600101612da5565b9650509250612dfb610100612dc0878761281b565b9260018060ff8816979050612dde565b50612e1c610100612dc0838a61281b565b61ffff808816911611612dd9565b5091949092955f5b8751811015612ea857612e4d612dca6060612dc0848c61281b565b151580612e89575b612e62575b600101612e32565b955091509250612e78610100612dc0868861281b565b925f91600160ff8716969050612e5a565b50612e9a610100612dc0838b61281b565b61ffff808816911611612e55565b50919361ffff90959193951615612efe5791610100915f93858514612ef65750955b848414612ee75750612ee09060ff87169061281b565b5101529190565b612ee0915060ff87169061281b565b905095612eca565b5050612f1e92939150612f1081612d32565b612f1982612d32565b612d9b565b9091565b61ffff5f199116019061ffff821161077a57565b9061ffff8091169116039061ffff821161077a57565b60405190612f5b60408361218a565b600a82526913185cdd0814dd185b9960b21b6020830152565b959160ff909794959391971661ffff6060612f8f838a61281b565b5101511615613346575f955f5b8951811015612fd95761ffff6060612fb4838d61281b565b51015116612fc5575b600101612f9c565b96612fd1600191612b05565b979050612fbd565b509092949791939596871561333a575f97600181036132a757505f5b83518110156132995761ffff606061300d838761281b565b5101511661301d57600101612ff5565b909192939495969750915b61ffff6060613037858761281b565b510151169060ff613048878561281b565b51511660ff6020613059878961281b565b5101511660ff60a061306b8a8861281b565b5101511660ff60c061307d898b61281b565b510151169160038c02948c86046003148d15171561077a576130a0951c936138d0565b908061ffff8060606130b2898b61281b565b51015116911611613280575b5f60e06130cb878961281b565b510151151580613260575b15613236575050506130f961ffff60606130f0868861281b565b51015116612f22565b60016060613107868861281b565b510152600191613115612f4c565b925b613226575b61ffff606061312b878961281b565b510151169161016061315f89610140613144828a61281b565b510151976131518961226a565b61315a8961226a565b61281b565b5101519560048710156105b35761016061319682610140613180828d61281b565b5101519a61318d8c61226a565b61315a8c61226a565b5101519860048a10156105b3576040519a6131b08c612152565b60ff168b5260208b015f905260408b015260ff1660608a015261ffff168060808a015260a089015260c088015260e087015261010086015260ff1661012085015260ff1661014084015260ff1661016083015260ff16610180820152613216828461281b565b526132209161281b565b50600190565b9150613230612f4c565b9161311c565b606061324687899694959661281b565b510161ffff6132588582845116612f36565b169052613117565b5061ffff6060613270888a61281b565b5101511661ffff831610156130d6565b5061ffff6060613290868861281b565b510151166130be565b509096919293949596613028565b6132d0919850826132ca8860ff6132c48a9998979e9c9b9a612aca565b1661225d565b1c612231565b975f975f5b835181101561332a5761ffff60606132ed838761281b565b510151166132fe575b6001016132d5565b988a811461331957613311600191612b05565b9990506132f6565b509193959790929496985091613028565b5091939597509791939597613028565b50505050505050505f90565b50505050925050505f90565b959160ff909794959391971661ffff606061336d838a61281b565b5101511615613346575f955f5b89518110156133b75761ffff6060613392838d61281b565b510151166133a3575b60010161337a565b966133af600191612b05565b97905061339b565b509092949791939596871561333a575f976001810361363c57505f5b835181101561362e5761ffff60606133eb838761281b565b510151166133fb576001016133d3565b909192939495969750915b61ffff6060613415858761281b565b510151169060ff613426878561281b565b51511660ff6020613437878961281b565b5101511660ff60a06134498a8861281b565b5101511660ff60c061345b898b61281b565b510151169160038c02948c86046003148d15171561077a5761347e951c936138d0565b908061ffff806060613490898b61281b565b51015116911611613615575b5f60e06134a9878961281b565b5101511515806135f5575b156135cb575050506134ce61ffff60606130f0868861281b565b600160606134dc868861281b565b5101526001916134ea612f4c565b925b6135bb575b61ffff6060613500878961281b565b510151169161016061351989610140613144828a61281b565b5101519560048710156105b35761016061353a82610140613180828d61281b565b5101519860048a10156105b3576040519a6135548c612152565b60ff168b5260208b016001905260408b015260ff1660608a015261ffff168060808a015260a089015260c088015260e087015261010086015260ff1661012085015260ff1661014084015260ff1661016083015260ff16610180820152613216828461281b565b91506135c5612f4c565b916134f1565b60606135db87899694959661281b565b510161ffff6135ed8582845116612f36565b1690526134ec565b5061ffff6060613605888a61281b565b5101511661ffff831610156134b4565b5061ffff6060613625868861281b565b5101511661349c565b509096919293949596613406565b613659919850826132ca8860ff6132c48a9998979e9c9b9a612aca565b975f975f5b83518110156136b35761ffff6060613676838761281b565b51015116613687575b60010161365e565b988a81146136a25761369a600191612b05565b99905061367f565b509193959790929496985091613406565b5091939597509791939597613406565b6136cc8161226a565b80156136ed576001906136de8161226a565b146136e857606990565b605290565b50604190565b9061ffff8091169116029061ffff821691820361077a57565b9060021b6103fc1661371d91612d1c565b90565b6137298161226a565b801561374a5760019061373b8161226a565b1461374557601490565b600c90565b50600690565b9060ff601691160490816137638261226a565b600182146137b5575b506002906137798161226a565b14613791575b601260ff8216111561371d5750601290565b60ff600491160160ff81111561377f57634e487b7160e01b5f52601160045260245ffd5b60029192506137c390612adf565b919061376c565b919061ffff1680156138cb576003810290810460030361077a57606401918260641161077a575f5b8151811015612cdf578060ff606461381987836138116001978961281b565b51511661287b565b0416613825828561281b565b515260ff60646138458783602061383c878a61281b565b5101511661287b565b04166020613853838661281b565b51015260ff606461386b8783604061383c878a61281b565b04166040613879838661281b565b51015261ffff60646138928783606061383c878a61281b565b041660606138a0838661281b565b51015261ffff60606138b2838661281b565b5101511660806138c2838661281b565b510152016137f2565b509050565b60609594929360ff1680158015919082613a30575b5050613a055760ff169061ffff6023840616606e0161ffff811161077a5760ff613911601292856136f3565b92160161ffff811161077a5761ffff1690811561223b5761ffff160490600261ffff8316106139e8575b5061ffff60258360081c061660520161ffff811161077a5761396261ffff916064936136f3565b16049060ff8293169081151591826139bf575b505061398057509190565b600d92935061ffff9150160261ffff811690810361077a57600a9004906040516139ab60408261218a565b600481526310d4925560e21b602082015290565b601c9192500261ffff811690810361077a5761ffff600a60649204169160181c06105f80613975565b60ff9150600390041660020160ff811161077a5760ff165f61393b565b5050505090505f90604051613a1b60408261218a565b6005815264444f44474560d81b602082015290565b90915060198202918204601914171561077a57600a900460648406105f806138e556fea264697066735822122068ab633b3b829b107e404e2e0838c1db6f2fafbd13a234866963a33758f5686f64736f6c634300081e0033",
			"opcodes": "PUSH1 0x80 CALLVALUE PUSH1 0x86 JUMPI PUSH1 0x1F PUSH2 0x3B3B CODESIZE DUP2 SWAP1 SUB SWAP2 DUP3 ADD PUSH1 0x1F NOT AND DUP4 ADD SWAP2 PUSH1 0x1 PUSH1 0x1 PUSH1 0x40 SHL SUB DUP4 GT DUP5 DUP5 LT OR PUSH1 0x8A JUMPI DUP1 DUP5 SWAP3 PUSH1 0x40 SWAP5 DUP6 MSTORE DUP4 CODECOPY DUP2 ADD SUB SLT PUSH1 0x86 JUMPI PUSH1 0x4B PUSH1 0x20 PUSH1 0x45 DUP4 PUSH1 0x9E JUMP JUMPDEST SWAP3 ADD PUSH1 0x9E JUMP JUMPDEST PUSH1 0xA DUP1 SLOAD PUSH1 0x1 PUSH1 0x1 PUSH1 0xA0 SHL SUB SWAP4 DUP5 AND PUSH1 0x1 PUSH1 0x1 PUSH1 0xA0 SHL SUB NOT SWAP2 DUP3 AND OR SWAP1 SWAP2 SSTORE PUSH1 0xB DUP1 SLOAD SWAP3 SWAP1 SWAP4 AND SWAP2 AND OR SWAP1 SSTORE PUSH1 0x40 MLOAD PUSH2 0x3A89 SWAP1 DUP2 PUSH2 0xB2 DUP3 CODECOPY RETURN JUMPDEST PUSH0 DUP1 REVERT JUMPDEST PUSH4 0x4E487B71 PUSH1 0xE0 SHL PUSH0 MSTORE PUSH1 0x41 PUSH1 0x4 MSTORE PUSH1 0x24 PUSH0 REVERT JUMPDEST MLOAD SWAP1 PUSH1 0x1 PUSH1 0x1 PUSH1 0xA0 SHL SUB DUP3 AND DUP3 SUB PUSH1 0x86 JUMPI JUMP INVALID PUSH1 0x80 DUP1 PUSH1 0x40 MSTORE PUSH1 0x4 CALLDATASIZE LT ISZERO PUSH2 0x12 JUMPI PUSH0 DUP1 REVERT JUMPDEST PUSH0 CALLDATALOAD PUSH1 0xE0 SHR SWAP1 DUP2 PUSH3 0x547664 EQ PUSH2 0x1E6F JUMPI POP DUP1 PUSH4 0x18DC3185 EQ PUSH2 0x1DAF JUMPI DUP1 PUSH4 0x201738E2 EQ PUSH2 0x1C4A JUMPI DUP1 PUSH4 0x29DE58D1 EQ PUSH2 0x1BE0 JUMPI DUP1 PUSH4 0x2DC6D62F EQ PUSH2 0x1B47 JUMPI DUP1 PUSH4 0x49C7C24A EQ PUSH2 0x1A87 JUMPI DUP1 PUSH4 0x4E178659 EQ PUSH2 0x1A3C JUMPI DUP1 PUSH4 0x4EF2D6C1 EQ PUSH2 0x19F3 JUMPI DUP1 PUSH4 0x518C83B0 EQ PUSH2 0x19D6 JUMPI DUP1 PUSH4 0x51BDAB14 EQ PUSH2 0xA5C JUMPI DUP1 PUSH4 0x6154EE97 EQ PUSH2 0x9EA JUMPI DUP1 PUSH4 0x732E9B85 EQ PUSH2 0x98F JUMPI DUP1 PUSH4 0x7E5C4F8B EQ PUSH2 0x956 JUMPI DUP1 PUSH4 0xA787C80B EQ PUSH2 0x91A JUMPI DUP1 PUSH4 0xA95DB7E2 EQ PUSH2 0x87C JUMPI DUP1 PUSH4 0xB2A47500 EQ PUSH2 0x843 JUMPI DUP1 PUSH4 0xB654823E EQ PUSH2 0x461 JUMPI DUP1 PUSH4 0xB78F4C70 EQ PUSH2 0x424 JUMPI DUP1 PUSH4 0xB92A40AD EQ PUSH2 0x3FC JUMPI DUP1 PUSH4 0xBB15A3B4 EQ PUSH2 0x37A JUMPI DUP1 PUSH4 0xBBE15627 EQ PUSH2 0x309 JUMPI DUP1 PUSH4 0xBDB729C9 EQ PUSH2 0x28E JUMPI DUP1 PUSH4 0xC4F036C4 EQ PUSH2 0x246 JUMPI DUP1 PUSH4 0xC99AE45F EQ PUSH2 0x1BD JUMPI DUP1 PUSH4 0xD5654AE7 EQ PUSH2 0x195 JUMPI PUSH4 0xF5905CA1 EQ PUSH2 0x139 JUMPI PUSH0 DUP1 REVERT JUMPDEST CALLVALUE PUSH2 0x191 JUMPI PUSH1 0x40 CALLDATASIZE PUSH1 0x3 NOT ADD SLT PUSH2 0x191 JUMPI PUSH2 0x152 PUSH2 0x1F8B JUMP JUMPDEST PUSH1 0x1 PUSH1 0x1 PUSH1 0xA0 SHL SUB AND PUSH0 SWAP1 DUP2 MSTORE PUSH1 0x3 PUSH1 0x20 MSTORE PUSH1 0x40 SWAP1 KECCAK256 DUP1 SLOAD PUSH1 0x24 CALLDATALOAD SWAP2 SWAP1 DUP3 LT ISZERO PUSH2 0x191 JUMPI PUSH1 0x20 SWAP2 PUSH2 0x182 SWAP2 PUSH2 0x209D JUMP JUMPDEST SWAP1 SLOAD SWAP1 PUSH1 0x3 SHL SHR PUSH1 0x40 MLOAD SWAP1 DUP2 MSTORE RETURN JUMPDEST PUSH0 DUP1 REVERT JUMPDEST CALLVALUE PUSH2 0x191 JUMPI PUSH0 CALLDATASIZE PUSH1 0x3 NOT ADD SLT PUSH2 0x191 JUMPI PUSH1 0xB SLOAD PUSH1 0x40 MLOAD PUSH1 0x1 PUSH1 0x1 PUSH1 0xA0 SHL SUB SWAP1 SWAP2 AND DUP2 MSTORE PUSH1 0x20 SWAP1 RETURN JUMPDEST CALLVALUE PUSH2 0x191 JUMPI PUSH1 0x20 CALLDATASIZE PUSH1 0x3 NOT ADD SLT PUSH2 0x191 JUMPI PUSH2 0x1D6 PUSH2 0x1F8B JUMP JUMPDEST POP PUSH2 0x120 PUSH1 0x40 MLOAD PUSH2 0x1E7 DUP3 DUP3 PUSH2 0x218A JUMP JUMPDEST PUSH1 0x8 DUP2 MSTORE PUSH2 0x1FD PUSH1 0x20 DUP3 ADD SWAP3 PUSH1 0x1F NOT ADD DUP4 PUSH2 0x2757 JUMP JUMPDEST PUSH1 0x40 MLOAD SWAP2 DUP3 SWAP2 PUSH1 0x20 DUP4 ADD SWAP1 PUSH1 0x20 DUP5 MSTORE MLOAD DUP1 SWAP2 MSTORE PUSH1 0x40 DUP4 ADD SWAP2 SWAP1 PUSH0 JUMPDEST DUP2 DUP2 LT PUSH2 0x226 JUMPI POP POP POP SUB SWAP1 RETURN JUMPDEST SWAP2 SWAP4 POP SWAP2 PUSH1 0x20 PUSH2 0x239 PUSH1 0x1 SWAP3 DUP7 MLOAD PUSH2 0x1FFF JUMP JUMPDEST SWAP5 ADD SWAP2 ADD SWAP2 DUP5 SWAP4 SWAP3 PUSH2 0x218 JUMP JUMPDEST CALLVALUE PUSH2 0x191 JUMPI PUSH1 0x40 CALLDATASIZE PUSH1 0x3 NOT ADD SLT PUSH2 0x191 JUMPI PUSH2 0x25F PUSH2 0x1F8B JUMP JUMPDEST PUSH1 0x1 PUSH1 0x1 PUSH1 0xA0 SHL SUB AND PUSH0 SWAP1 DUP2 MSTORE PUSH1 0x4 PUSH1 0x20 MSTORE PUSH1 0x40 SWAP1 KECCAK256 PUSH1 0x24 CALLDATALOAD PUSH1 0x3 DUP2 LT ISZERO PUSH2 0x191 JUMPI PUSH1 0x20 SWAP2 ADD SLOAD PUSH1 0x40 MLOAD SWAP1 DUP2 MSTORE RETURN JUMPDEST CALLVALUE PUSH2 0x191 JUMPI PUSH0 CALLDATASIZE PUSH1 0x3 NOT ADD SLT PUSH2 0x191 JUMPI CALLER PUSH0 MSTORE PUSH1 0x2 PUSH1 0x20 MSTORE PUSH2 0x2B2 PUSH1 0x40 PUSH0 KECCAK256 PUSH2 0x2901 JUMP JUMPDEST CALLER PUSH0 MSTORE PUSH1 0x3 PUSH1 0x20 MSTORE PUSH2 0x2C6 PUSH1 0x40 PUSH0 KECCAK256 PUSH2 0x2901 JUMP JUMPDEST CALLER PUSH0 MSTORE PUSH1 0x4 PUSH1 0x20 MSTORE PUSH2 0x2DF PUSH1 0x40 PUSH0 KECCAK256 PUSH1 0x3 DUP2 ADD SWAP1 PUSH2 0x288E JUMP JUMPDEST CALLER PUSH0 MSTORE PUSH1 0x7 PUSH1 0x20 MSTORE PUSH2 0x2F3 PUSH1 0x40 PUSH0 KECCAK256 PUSH2 0x28A4 JUMP JUMPDEST CALLER PUSH0 MSTORE PUSH1 0x8 PUSH1 0x20 MSTORE PUSH2 0x307 PUSH1 0x40 PUSH0 KECCAK256 PUSH2 0x28A4 JUMP JUMPDEST STOP JUMPDEST CALLVALUE PUSH2 0x191 JUMPI PUSH1 0x20 CALLDATASIZE PUSH1 0x3 NOT ADD SLT PUSH2 0x191 JUMPI PUSH1 0x1 PUSH1 0x1 PUSH1 0xA0 SHL SUB PUSH2 0x32A PUSH2 0x1F8B JUMP JUMPDEST AND PUSH0 MSTORE PUSH1 0x1 PUSH1 0x20 MSTORE PUSH1 0xA0 PUSH1 0x40 PUSH0 KECCAK256 DUP1 SLOAD SWAP1 PUSH1 0x1 DUP2 ADD SLOAD SWAP1 PUSH2 0xFFFF PUSH1 0x3 PUSH1 0x2 DUP4 ADD SLOAD SWAP3 ADD SLOAD AND SWAP2 PUSH4 0xFFFFFFFF PUSH1 0x40 MLOAD SWAP5 PUSH2 0xFFFF DUP2 AND DUP7 MSTORE PUSH1 0x10 SHR AND PUSH1 0x20 DUP6 ADD MSTORE PUSH1 0x40 DUP5 ADD MSTORE PUSH1 0x60 DUP4 ADD MSTORE PUSH1 0x80 DUP3 ADD MSTORE RETURN JUMPDEST CALLVALUE PUSH2 0x191 JUMPI PUSH1 0x20 CALLDATASIZE PUSH1 0x3 NOT ADD SLT PUSH2 0x191 JUMPI PUSH1 0x1 PUSH1 0x1 PUSH1 0xA0 SHL SUB PUSH2 0x39B PUSH2 0x1F8B JUMP JUMPDEST AND PUSH0 MSTORE PUSH1 0x3 PUSH1 0x20 MSTORE PUSH1 0x40 PUSH0 KECCAK256 PUSH1 0x40 MLOAD SWAP1 DUP2 PUSH1 0x20 DUP3 SLOAD SWAP2 DUP3 DUP2 MSTORE ADD SWAP2 PUSH0 MSTORE PUSH1 0x20 PUSH0 KECCAK256 SWAP1 PUSH0 JUMPDEST DUP2 DUP2 LT PUSH2 0x3E6 JUMPI PUSH2 0x3E2 DUP6 PUSH2 0x3D6 DUP2 DUP8 SUB DUP3 PUSH2 0x218A JUMP JUMPDEST PUSH1 0x40 MLOAD SWAP2 DUP3 SWAP2 DUP3 PUSH2 0x20E2 JUMP JUMPDEST SUB SWAP1 RETURN JUMPDEST DUP3 SLOAD DUP5 MSTORE PUSH1 0x20 SWAP1 SWAP4 ADD SWAP3 PUSH1 0x1 SWAP3 DUP4 ADD SWAP3 ADD PUSH2 0x3BF JUMP JUMPDEST CALLVALUE PUSH2 0x191 JUMPI PUSH0 CALLDATASIZE PUSH1 0x3 NOT ADD SLT PUSH2 0x191 JUMPI PUSH1 0xA SLOAD PUSH1 0x40 MLOAD PUSH1 0x1 PUSH1 0x1 PUSH1 0xA0 SHL SUB SWAP1 SWAP2 AND DUP2 MSTORE PUSH1 0x20 SWAP1 RETURN JUMPDEST CALLVALUE PUSH2 0x191 JUMPI PUSH1 0x20 CALLDATASIZE PUSH1 0x3 NOT ADD SLT PUSH2 0x191 JUMPI PUSH1 0x1 PUSH1 0x1 PUSH1 0xA0 SHL SUB PUSH2 0x445 PUSH2 0x1F8B JUMP JUMPDEST AND PUSH0 MSTORE PUSH1 0x6 PUSH1 0x20 MSTORE PUSH1 0x20 PUSH1 0xFF PUSH1 0x40 PUSH0 KECCAK256 SLOAD AND PUSH1 0x40 MLOAD SWAP1 ISZERO ISZERO DUP2 MSTORE RETURN JUMPDEST PUSH1 0x20 CALLDATASIZE PUSH1 0x3 NOT ADD SLT PUSH2 0x191 JUMPI PUSH1 0x4 CALLDATALOAD CALLER PUSH0 MSTORE PUSH0 PUSH1 0x20 MSTORE PUSH2 0x487 PUSH1 0xFF PUSH1 0x40 PUSH0 KECCAK256 SLOAD AND PUSH2 0x21AB JUMP JUMPDEST PUSH1 0x3 DUP2 LT ISZERO PUSH2 0x80F JUMPI CALLER PUSH0 MSTORE PUSH1 0x5 PUSH1 0x20 MSTORE PUSH2 0x4AE PUSH2 0x4A8 DUP3 PUSH1 0x40 PUSH0 KECCAK256 PUSH2 0x1FA1 JUMP JUMPDEST POP PUSH2 0x277A JUMP JUMPDEST SWAP1 PUSH1 0x20 DUP3 ADD MLOAD ISZERO DUP1 ISZERO SWAP1 PUSH2 0x805 JUMPI JUMPDEST ISZERO PUSH2 0x7D3 JUMPI DUP2 MLOAD ISZERO PUSH2 0x60C JUMPI PUSH7 0x1C6BF526340000 CALLVALUE LT PUSH2 0x5C7 JUMPI PUSH1 0x1 DUP1 PUSH1 0xA0 SHL SUB PUSH1 0xB SLOAD AND SWAP2 PUSH1 0xFF PUSH2 0x100 DUP3 ADD MLOAD AND PUSH1 0x6 DUP2 LT ISZERO PUSH2 0x5B3 JUMPI PUSH1 0x64 PUSH1 0xFF PUSH2 0x120 PUSH1 0x20 SWAP5 ADD MLOAD AND SWAP2 PUSH0 PUSH1 0x40 MLOAD SWAP7 DUP8 SWAP5 DUP6 SWAP4 PUSH4 0xF925B741 PUSH1 0xE0 SHL DUP6 MSTORE CALLER PUSH1 0x4 DUP7 ADD MSTORE PUSH1 0x24 DUP6 ADD MSTORE PUSH1 0x44 DUP5 ADD MSTORE GAS CALL SWAP2 DUP3 ISZERO PUSH2 0x5A8 JUMPI PUSH0 SWAP3 PUSH2 0x572 JUMPI JUMPDEST POP PUSH2 0x54F PUSH2 0x307 SWAP3 CALLER PUSH0 MSTORE PUSH1 0x3 PUSH1 0x20 MSTORE PUSH1 0x40 PUSH0 KECCAK256 PUSH2 0x22D4 JUMP JUMPDEST PUSH2 0x56C PUSH2 0x55A PUSH2 0x2922 JUMP JUMPDEST SWAP2 CALLER PUSH0 MSTORE PUSH1 0x5 PUSH1 0x20 MSTORE PUSH1 0x40 PUSH0 KECCAK256 PUSH2 0x1FA1 JUMP JUMPDEST SWAP1 PUSH2 0x2308 JUMP JUMPDEST SWAP2 POP PUSH1 0x20 DUP3 RETURNDATASIZE PUSH1 0x20 GT PUSH2 0x5A0 JUMPI JUMPDEST DUP2 PUSH2 0x58D PUSH1 0x20 SWAP4 DUP4 PUSH2 0x218A JUMP JUMPDEST DUP2 ADD SUB SLT PUSH2 0x191 JUMPI SWAP1 MLOAD SWAP1 PUSH2 0x54F PUSH2 0x536 JUMP JUMPDEST RETURNDATASIZE SWAP2 POP PUSH2 0x580 JUMP JUMPDEST PUSH1 0x40 MLOAD RETURNDATASIZE PUSH0 DUP3 RETURNDATACOPY RETURNDATASIZE SWAP1 REVERT JUMPDEST PUSH4 0x4E487B71 PUSH1 0xE0 SHL PUSH0 MSTORE PUSH1 0x21 PUSH1 0x4 MSTORE PUSH1 0x24 PUSH0 REVERT JUMPDEST PUSH1 0x40 MLOAD PUSH3 0x461BCD PUSH1 0xE5 SHL DUP2 MSTORE PUSH1 0x20 PUSH1 0x4 DUP3 ADD MSTORE PUSH1 0x1E PUSH1 0x24 DUP3 ADD MSTORE PUSH32 0x496E73756666696369656E74207061796D656E7420666F722072656C69630000 PUSH1 0x44 DUP3 ADD MSTORE PUSH1 0x64 SWAP1 REVERT JUMPDEST SWAP1 POP PUSH7 0x2386F26FC10000 CALLVALUE LT PUSH2 0x78E JUMPI PUSH1 0x40 DUP1 MLOAD TIMESTAMP PUSH1 0x20 DUP3 ADD SWAP1 DUP2 MSTORE CALLER PUSH1 0x60 SHL PUSH12 0xFFFFFFFFFFFFFFFFFFFFFFFF NOT AND SWAP3 DUP3 ADD SWAP3 SWAP1 SWAP3 MSTORE PREVRANDAO PUSH1 0x54 DUP3 ADD MSTORE PUSH1 0x74 DUP2 ADD DUP4 SWAP1 MSTORE PUSH2 0x666 DUP2 PUSH1 0x94 DUP2 ADD JUMPDEST SUB PUSH1 0x1F NOT DUP2 ADD DUP4 MSTORE DUP3 PUSH2 0x218A JUMP JUMPDEST MLOAD SWAP1 KECCAK256 SWAP1 PUSH1 0xB DUP3 MOD PUSH1 0xA ADD DUP1 PUSH1 0xA GT PUSH2 0x77A JUMPI PUSH1 0xB DUP4 PUSH1 0x8 SHR MOD PUSH1 0x8 ADD SWAP1 DUP2 PUSH1 0x8 GT PUSH2 0x77A JUMPI PUSH1 0xB DUP5 PUSH1 0x10 SHR MOD PUSH1 0x9 ADD DUP1 PUSH1 0x9 GT PUSH2 0x77A JUMPI PUSH1 0xFF PUSH1 0x3 DUP7 PUSH1 0x18 SHR MOD AND PUSH1 0xFF PUSH1 0x3 DUP1 DUP9 PUSH1 0x20 SHR AND SWAP8 PUSH1 0x28 SHR MOD AND SWAP6 PUSH1 0x1 DUP1 PUSH1 0xA0 SHL SUB PUSH1 0xA SLOAD AND SWAP3 PUSH2 0x6CE DUP4 PUSH2 0x226A JUMP JUMPDEST PUSH2 0x6D7 DUP9 PUSH2 0x226A JUMP JUMPDEST PUSH1 0x4 DUP3 LT ISZERO PUSH2 0x5B3 JUMPI PUSH1 0x40 MLOAD PUSH4 0xE3BD811 PUSH1 0xE3 SHL DUP2 MSTORE SWAP8 PUSH1 0x20 SWAP7 DUP10 SWAP7 DUP8 SWAP6 PUSH0 SWAP6 DUP8 SWAP6 PUSH2 0x714 SWAP6 PUSH1 0xFF SWAP2 DUP3 AND SWAP6 DUP3 AND SWAP5 SWAP1 SWAP2 AND SWAP3 CALLER PUSH1 0x4 DUP10 ADD PUSH2 0x2274 JUMP JUMPDEST SUB SWAP3 GAS CALL SWAP2 DUP3 ISZERO PUSH2 0x5A8 JUMPI PUSH0 SWAP3 PUSH2 0x744 JUMPI JUMPDEST POP PUSH2 0x73F PUSH2 0x307 SWAP3 CALLER PUSH0 MSTORE PUSH1 0x2 PUSH1 0x20 MSTORE PUSH1 0x40 PUSH0 KECCAK256 PUSH2 0x22D4 JUMP JUMPDEST PUSH2 0x54F JUMP JUMPDEST SWAP2 POP PUSH1 0x20 DUP3 RETURNDATASIZE PUSH1 0x20 GT PUSH2 0x772 JUMPI JUMPDEST DUP2 PUSH2 0x75F PUSH1 0x20 SWAP4 DUP4 PUSH2 0x218A JUMP JUMPDEST DUP2 ADD SUB SLT PUSH2 0x191 JUMPI SWAP1 MLOAD SWAP1 PUSH2 0x73F PUSH2 0x726 JUMP JUMPDEST RETURNDATASIZE SWAP2 POP PUSH2 0x752 JUMP JUMPDEST PUSH4 0x4E487B71 PUSH1 0xE0 SHL PUSH0 MSTORE PUSH1 0x11 PUSH1 0x4 MSTORE PUSH1 0x24 PUSH0 REVERT JUMPDEST PUSH1 0x40 MLOAD PUSH3 0x461BCD PUSH1 0xE5 SHL DUP2 MSTORE PUSH1 0x20 PUSH1 0x4 DUP3 ADD MSTORE PUSH1 0x1D PUSH1 0x24 DUP3 ADD MSTORE PUSH32 0x496E73756666696369656E74207061796D656E7420666F7220756E6974000000 PUSH1 0x44 DUP3 ADD MSTORE PUSH1 0x64 SWAP1 REVERT JUMPDEST PUSH1 0x40 MLOAD PUSH3 0x461BCD PUSH1 0xE5 SHL DUP2 MSTORE PUSH1 0x20 PUSH1 0x4 DUP3 ADD MSTORE PUSH1 0xA PUSH1 0x24 DUP3 ADD MSTORE PUSH10 0x115B5C1D1E481CDB1BDD PUSH1 0xB2 SHL PUSH1 0x44 DUP3 ADD MSTORE PUSH1 0x64 SWAP1 REVERT JUMPDEST POP DUP2 MLOAD ISZERO ISZERO PUSH2 0x4BD JUMP JUMPDEST PUSH1 0x40 MLOAD PUSH3 0x461BCD PUSH1 0xE5 SHL DUP2 MSTORE PUSH1 0x20 PUSH1 0x4 DUP3 ADD MSTORE PUSH1 0xC PUSH1 0x24 DUP3 ADD MSTORE PUSH12 0x125B9D985B1A59081CDB1BDD PUSH1 0xA2 SHL PUSH1 0x44 DUP3 ADD MSTORE PUSH1 0x64 SWAP1 REVERT JUMPDEST CALLVALUE PUSH2 0x191 JUMPI PUSH1 0x20 CALLDATASIZE PUSH1 0x3 NOT ADD SLT PUSH2 0x191 JUMPI PUSH1 0x1 PUSH1 0x1 PUSH1 0xA0 SHL SUB PUSH2 0x864 PUSH2 0x1F8B JUMP JUMPDEST AND PUSH1 0x1 PUSH1 0x1 PUSH1 0x60 SHL SUB PUSH1 0xA0 SHL PUSH1 0xB SLOAD AND OR PUSH1 0xB SSTORE PUSH0 DUP1 RETURN JUMPDEST CALLVALUE PUSH2 0x191 JUMPI PUSH1 0x20 CALLDATASIZE PUSH1 0x3 NOT ADD SLT PUSH2 0x191 JUMPI PUSH2 0x895 PUSH2 0x1F8B JUMP JUMPDEST PUSH1 0x60 SWAP1 DUP2 PUSH1 0x40 MLOAD PUSH2 0x8A6 DUP3 DUP3 PUSH2 0x218A JUMP JUMPDEST CALLDATASIZE SWAP1 CALLDATACOPY PUSH1 0x1 PUSH1 0x1 PUSH1 0xA0 SHL SUB AND PUSH0 SWAP1 DUP2 MSTORE PUSH1 0x4 PUSH1 0x20 MSTORE PUSH1 0x40 DUP1 DUP3 KECCAK256 SWAP1 MLOAD SWAP2 DUP3 JUMPDEST PUSH1 0x3 DUP3 LT PUSH2 0x904 JUMPI POP POP POP PUSH2 0x8DA DUP3 DUP3 PUSH2 0x218A JUMP JUMPDEST PUSH1 0x40 MLOAD SWAP1 PUSH0 DUP3 JUMPDEST PUSH1 0x3 DUP3 LT PUSH2 0x8EE JUMPI POP POP POP RETURN JUMPDEST PUSH1 0x20 DUP1 PUSH1 0x1 SWAP3 DUP6 MLOAD DUP2 MSTORE ADD SWAP4 ADD SWAP2 ADD SWAP1 SWAP2 PUSH2 0x8E1 JUMP JUMPDEST PUSH1 0x1 PUSH1 0x20 DUP2 SWAP3 DUP6 SLOAD DUP2 MSTORE ADD SWAP4 ADD SWAP2 ADD SWAP1 SWAP2 PUSH2 0x8C5 JUMP JUMPDEST CALLVALUE PUSH2 0x191 JUMPI PUSH1 0x20 CALLDATASIZE PUSH1 0x3 NOT ADD SLT PUSH2 0x191 JUMPI PUSH1 0x1 PUSH1 0x1 PUSH1 0xA0 SHL SUB PUSH2 0x93B PUSH2 0x1F8B JUMP JUMPDEST AND PUSH0 MSTORE PUSH0 PUSH1 0x20 MSTORE PUSH1 0x20 PUSH1 0xFF PUSH1 0x40 PUSH0 KECCAK256 SLOAD AND PUSH1 0x40 MLOAD SWAP1 ISZERO ISZERO DUP2 MSTORE RETURN JUMPDEST CALLVALUE PUSH2 0x191 JUMPI PUSH1 0x20 CALLDATASIZE PUSH1 0x3 NOT ADD SLT PUSH2 0x191 JUMPI PUSH1 0x1 PUSH1 0x1 PUSH1 0xA0 SHL SUB PUSH2 0x977 PUSH2 0x1F8B JUMP JUMPDEST AND PUSH1 0x1 PUSH1 0x1 PUSH1 0x60 SHL SUB PUSH1 0xA0 SHL PUSH1 0xA SLOAD AND OR PUSH1 0xA SSTORE PUSH0 DUP1 RETURN JUMPDEST CALLVALUE PUSH2 0x191 JUMPI PUSH1 0x40 CALLDATASIZE PUSH1 0x3 NOT ADD SLT PUSH2 0x191 JUMPI PUSH2 0x9A8 PUSH2 0x1F8B JUMP JUMPDEST PUSH1 0x1 PUSH1 0x1 PUSH1 0xA0 SHL SUB AND PUSH0 SWAP1 DUP2 MSTORE PUSH1 0x8 PUSH1 0x20 MSTORE PUSH1 0x40 SWAP1 KECCAK256 DUP1 SLOAD PUSH1 0x24 CALLDATALOAD SWAP1 DUP2 LT ISZERO PUSH2 0x191 JUMPI PUSH2 0x9DA PUSH2 0xFFFF SWAP2 PUSH1 0x20 SWAP4 PUSH2 0x207C JUMP JUMPDEST SWAP1 SLOAD SWAP1 PUSH1 0x3 SHL SHR AND PUSH1 0x40 MLOAD SWAP1 DUP2 MSTORE RETURN JUMPDEST CALLVALUE PUSH2 0x191 JUMPI PUSH1 0x20 CALLDATASIZE PUSH1 0x3 NOT ADD SLT PUSH2 0x191 JUMPI PUSH1 0x1 PUSH1 0x1 PUSH1 0xA0 SHL SUB PUSH2 0xA0B PUSH2 0x1F8B JUMP JUMPDEST AND PUSH0 MSTORE PUSH1 0x2 PUSH1 0x20 MSTORE PUSH1 0x40 PUSH0 KECCAK256 PUSH1 0x40 MLOAD SWAP1 DUP2 PUSH1 0x20 DUP3 SLOAD SWAP2 DUP3 DUP2 MSTORE ADD SWAP2 PUSH0 MSTORE PUSH1 0x20 PUSH0 KECCAK256 SWAP1 PUSH0 JUMPDEST DUP2 DUP2 LT PUSH2 0xA46 JUMPI PUSH2 0x3E2 DUP6 PUSH2 0x3D6 DUP2 DUP8 SUB DUP3 PUSH2 0x218A JUMP JUMPDEST DUP3 SLOAD DUP5 MSTORE PUSH1 0x20 SWAP1 SWAP4 ADD SWAP3 PUSH1 0x1 SWAP3 DUP4 ADD SWAP3 ADD PUSH2 0xA2F JUMP JUMPDEST CALLVALUE PUSH2 0x191 JUMPI PUSH1 0x40 CALLDATASIZE PUSH1 0x3 NOT ADD SLT PUSH2 0x191 JUMPI PUSH1 0x4 CALLDATALOAD PUSH1 0x1 PUSH1 0x1 PUSH1 0x40 SHL SUB DUP2 GT PUSH2 0x191 JUMPI PUSH2 0xA8C SWAP1 CALLDATASIZE SWAP1 PUSH1 0x4 ADD PUSH2 0x20B2 JUMP JUMPDEST PUSH1 0x24 CALLDATALOAD PUSH1 0x1 PUSH1 0x1 PUSH1 0x40 SHL SUB DUP2 GT PUSH2 0x191 JUMPI PUSH2 0xAAB SWAP1 CALLDATASIZE SWAP1 PUSH1 0x4 ADD PUSH2 0x20B2 JUMP JUMPDEST SWAP1 SWAP2 CALLER PUSH0 MSTORE PUSH0 PUSH1 0x20 MSTORE PUSH2 0xAC4 PUSH1 0xFF PUSH1 0x40 PUSH0 KECCAK256 SLOAD AND PUSH2 0x21AB JUMP JUMPDEST PUSH1 0x4 DUP2 LT ISZERO DUP1 PUSH2 0x19CB JUMPI JUMPDEST ISZERO PUSH2 0x1992 JUMPI PUSH1 0x40 MLOAD SWAP3 PUSH2 0x120 PUSH2 0xAE5 DUP2 DUP7 PUSH2 0x218A JUMP JUMPDEST PUSH1 0x8 DUP6 MSTORE PUSH1 0x1F NOT ADD PUSH0 JUMPDEST DUP2 DUP2 LT PUSH2 0x197B JUMPI POP POP PUSH1 0x40 DUP1 MLOAD TIMESTAMP PUSH1 0x20 DUP3 ADD SWAP1 DUP2 MSTORE CALLER PUSH1 0x60 SHL PUSH12 0xFFFFFFFFFFFFFFFFFFFFFFFF NOT AND SWAP3 DUP3 ADD SWAP3 SWAP1 SWAP3 MSTORE PREVRANDAO PUSH1 0x54 DUP3 ADD MSTORE NUMBER PUSH1 0x74 DUP3 ADD MSTORE PUSH2 0xB37 DUP2 PUSH1 0x94 DUP2 ADD PUSH2 0x658 JUMP JUMPDEST MLOAD SWAP1 KECCAK256 SWAP2 PUSH0 JUMPDEST PUSH1 0xFF DUP2 AND PUSH1 0x8 DUP2 LT ISZERO PUSH2 0xC93 JUMPI CALLER PUSH0 SWAP1 DUP2 MSTORE PUSH1 0x1 PUSH1 0x20 MSTORE PUSH1 0x40 SWAP1 KECCAK256 SLOAD PUSH1 0x40 DUP1 MLOAD PUSH1 0x20 DUP2 ADD DUP9 DUP2 MSTORE PUSH1 0xF8 DUP7 SWAP1 SHL PUSH1 0x1 PUSH1 0x1 PUSH1 0xF8 SHL SUB NOT AND SWAP3 DUP3 ADD SWAP3 SWAP1 SWAP3 MSTORE PUSH1 0xF0 SWAP3 SWAP1 SWAP3 SHL PUSH1 0x1 PUSH1 0x1 PUSH1 0xF0 SHL SUB NOT AND PUSH1 0x41 DUP4 ADD MSTORE PUSH1 0x23 DUP3 MSTORE SWAP1 PUSH2 0xB9F PUSH1 0x43 DUP3 PUSH2 0x218A JUMP JUMPDEST MLOAD SWAP1 KECCAK256 SWAP2 PUSH1 0xFF PUSH2 0xBB1 PUSH1 0xD DUP6 MOD PUSH2 0x224F JUMP JUMPDEST AND SWAP3 PUSH1 0xC DUP2 PUSH1 0x8 SHR MOD PUSH1 0x7 ADD DUP1 PUSH1 0x7 GT PUSH2 0x77A JUMPI PUSH1 0xFF AND SWAP3 PUSH1 0xFF PUSH2 0xBDA PUSH1 0xB DUP5 PUSH1 0x10 SHR MOD PUSH2 0x224F JUMP JUMPDEST AND PUSH1 0xFF PUSH1 0x3 DUP5 PUSH1 0x18 SHR MOD AND SWAP1 PUSH1 0xFF PUSH1 0x3 DUP1 DUP7 PUSH1 0x20 SHR AND SWAP6 PUSH1 0x28 SHR MOD AND SWAP6 PUSH2 0xC00 DUP4 PUSH2 0x226A JUMP JUMPDEST PUSH2 0xC09 DUP8 PUSH2 0x226A JUMP JUMPDEST PUSH1 0x4 DUP6 LT ISZERO PUSH2 0x5B3 JUMPI PUSH1 0xFF SWAP8 PUSH2 0xC5D PUSH2 0xC8B SWAP7 PUSH1 0x1 SWAP10 PUSH1 0x40 MLOAD SWAP7 PUSH2 0xC2F PUSH2 0x140 DUP10 PUSH2 0x218A JUMP JUMPDEST PUSH0 DUP9 MSTORE PUSH0 PUSH1 0x20 DUP10 ADD MSTORE PUSH2 0xC41 DUP2 PUSH2 0x226A JUMP JUMPDEST PUSH1 0x40 DUP9 ADD MSTORE PUSH2 0xC4F DUP2 PUSH2 0x226A JUMP JUMPDEST PUSH1 0x60 DUP8 ADD MSTORE PUSH1 0x80 DUP7 ADD PUSH2 0x280F JUMP JUMPDEST PUSH1 0xA0 DUP5 ADD MSTORE PUSH1 0xC0 DUP4 ADD MSTORE PUSH1 0xE0 DUP3 ADD MSTORE PUSH0 PUSH2 0x100 DUP3 ADD MSTORE PUSH0 PUSH2 0x120 DUP3 ADD MSTORE PUSH2 0xC84 DUP3 DUP13 PUSH2 0x281B JUMP JUMPDEST MSTORE DUP10 PUSH2 0x281B JUMP JUMPDEST POP ADD AND PUSH2 0xB3D JUMP JUMPDEST POP POP PUSH1 0xA SLOAD PUSH1 0xB SLOAD CALLER PUSH0 SWAP1 DUP2 MSTORE PUSH1 0x1 PUSH1 0x20 MSTORE PUSH1 0x40 SWAP1 KECCAK256 PUSH1 0x1 PUSH1 0x1 PUSH1 0xA0 SHL SUB SWAP3 DUP4 AND SWAP5 DUP7 SWAP4 DUP9 SWAP4 AND SWAP2 DUP10 SWAP2 PUSH2 0xCDD SWAP2 PUSH2 0xCD5 SWAP1 DUP14 SWAP1 PUSH2 0xFFFF SWAP1 SLOAD AND SWAP9 CALLDATASIZE SWAP2 PUSH2 0x282F JUMP JUMPDEST SWAP5 CALLDATASIZE SWAP2 PUSH2 0x282F JUMP JUMPDEST PUSH2 0xCE5 PUSH2 0x2A64 JUMP JUMPDEST POP PUSH2 0xCF0 DUP5 MLOAD PUSH2 0x2B24 JUMP JUMPDEST SWAP5 PUSH0 JUMPDEST DUP6 MLOAD DUP2 LT ISZERO PUSH2 0xF25 JUMPI PUSH2 0xD06 DUP2 DUP8 PUSH2 0x281B JUMP JUMPDEST MLOAD SWAP1 PUSH1 0x40 MLOAD SWAP2 PUSH4 0xB2ADFDF PUSH1 0xE1 SHL DUP4 MSTORE PUSH1 0x4 DUP4 ADD MSTORE PUSH1 0xC0 DUP3 PUSH1 0x24 DUP2 DUP14 GAS STATICCALL SWAP2 DUP3 ISZERO PUSH2 0x5A8 JUMPI PUSH0 SWAP3 PUSH2 0xE5B JUMPI JUMPDEST POP PUSH1 0x20 DUP3 ADD SWAP2 PUSH2 0xD4B DUP4 MLOAD PUSH2 0xD46 DUP2 PUSH2 0x226A JUMP JUMPDEST PUSH2 0x36C3 JUMP JUMPDEST SWAP1 PUSH2 0xD5F PUSH1 0x80 DUP3 ADD SWAP3 PUSH1 0xFF DUP5 MLOAD AND SWAP1 PUSH2 0x370C JUMP JUMPDEST SWAP1 PUSH1 0xFF DUP1 PUSH1 0x60 DUP4 ADD MLOAD AND SWAP4 MLOAD AND SWAP1 PUSH1 0xA0 DUP2 ADD SWAP6 PUSH1 0xFF DUP8 MLOAD AND PUSH2 0xDA4 PUSH2 0xD8D DUP4 MLOAD PUSH2 0xD88 DUP2 PUSH2 0x226A JUMP JUMPDEST PUSH2 0x3720 JUMP JUMPDEST SWAP9 PUSH1 0xFF DUP5 MLOAD SWAP2 PUSH2 0xD9C DUP4 PUSH2 0x226A JUMP JUMPDEST MLOAD AND SWAP1 PUSH2 0x3750 JUMP JUMPDEST PUSH1 0x40 DUP5 MLOAD SWAP4 PUSH2 0xDB2 DUP6 PUSH2 0x226A JUMP JUMPDEST MLOAD SWAP5 PUSH2 0xDBD DUP7 PUSH2 0x226A JUMP JUMPDEST ADD MLOAD SWAP5 PUSH1 0x4 DUP7 LT ISZERO PUSH2 0x5B3 JUMPI PUSH1 0x1 SWAP10 PUSH2 0xFFFF PUSH2 0xE3F SWAP9 PUSH1 0xFF SWAP6 DUP7 SWAP5 PUSH2 0xDE6 SWAP13 PUSH1 0x40 MLOAD SWAP14 DUP15 PUSH2 0x216E JUMP JUMPDEST DUP14 MSTORE PUSH1 0x20 DUP14 ADD MSTORE PUSH1 0x40 DUP13 ADD MSTORE AND DUP1 PUSH1 0x60 DUP12 ADD MSTORE PUSH1 0x80 DUP11 ADD MSTORE AND PUSH1 0xA0 DUP9 ADD MSTORE AND PUSH1 0xC0 DUP7 ADD MSTORE PUSH0 PUSH1 0xE0 DUP7 ADD MSTORE PUSH0 PUSH2 0x100 DUP7 ADD MSTORE PUSH2 0xE20 DUP2 PUSH2 0x226A JUMP JUMPDEST PUSH2 0x120 DUP6 ADD MSTORE PUSH2 0xE2F DUP2 PUSH2 0x226A JUMP JUMPDEST PUSH2 0x140 DUP5 ADD MSTORE PUSH2 0x160 DUP4 ADD PUSH2 0x280F JUMP JUMPDEST PUSH2 0xE49 DUP3 DUP11 PUSH2 0x281B JUMP JUMPDEST MSTORE PUSH2 0xE54 DUP2 DUP10 PUSH2 0x281B JUMP JUMPDEST POP ADD PUSH2 0xCF3 JUMP JUMPDEST SWAP1 SWAP2 POP PUSH1 0xC0 DUP2 RETURNDATASIZE DUP3 GT PUSH2 0xF1D JUMPI JUMPDEST DUP2 PUSH2 0xE76 PUSH1 0xC0 SWAP4 DUP4 PUSH2 0x218A JUMP JUMPDEST DUP2 ADD SUB SLT PUSH2 0x191 JUMPI PUSH1 0x40 MLOAD SWAP1 PUSH1 0xC0 DUP3 ADD DUP3 DUP2 LT PUSH1 0x1 PUSH1 0x1 PUSH1 0x40 SHL SUB DUP3 GT OR PUSH2 0xF09 JUMPI PUSH1 0x40 MSTORE DUP1 MLOAD PUSH1 0x3 DUP2 LT ISZERO PUSH2 0x191 JUMPI DUP3 MSTORE PUSH1 0x20 DUP2 ADD MLOAD PUSH1 0x3 DUP2 LT ISZERO PUSH2 0x191 JUMPI PUSH1 0x20 DUP4 ADD MSTORE PUSH1 0x40 DUP2 ADD MLOAD PUSH1 0x4 DUP2 LT ISZERO PUSH2 0x191 JUMPI PUSH2 0xEFD SWAP2 PUSH1 0xA0 SWAP2 PUSH1 0x40 DUP6 ADD MSTORE PUSH2 0xEE1 PUSH1 0x60 DUP3 ADD PUSH2 0x2BBF JUMP JUMPDEST PUSH1 0x60 DUP6 ADD MSTORE PUSH2 0xEF2 PUSH1 0x80 DUP3 ADD PUSH2 0x2BBF JUMP JUMPDEST PUSH1 0x80 DUP6 ADD MSTORE ADD PUSH2 0x2BBF JUMP JUMPDEST PUSH1 0xA0 DUP3 ADD MSTORE SWAP1 DUP11 PUSH2 0xD32 JUMP JUMPDEST PUSH4 0x4E487B71 PUSH1 0xE0 SHL PUSH0 MSTORE PUSH1 0x41 PUSH1 0x4 MSTORE PUSH1 0x24 PUSH0 REVERT JUMPDEST RETURNDATASIZE SWAP2 POP PUSH2 0xE69 JUMP JUMPDEST POP DUP6 SWAP2 SWAP4 PUSH2 0xF33 DUP9 DUP5 PUSH2 0x37CA JUMP JUMPDEST PUSH0 SWAP4 JUMPDEST DUP6 MLOAD DUP6 LT ISZERO PUSH2 0x1225 JUMPI PUSH2 0xF49 DUP6 DUP8 PUSH2 0x281B JUMP JUMPDEST MLOAD ISZERO PUSH2 0x1218 JUMPI PUSH2 0xF59 DUP6 DUP8 PUSH2 0x281B JUMP JUMPDEST MLOAD SWAP6 PUSH1 0x40 MLOAD SWAP7 PUSH4 0x68972D59 PUSH1 0xE0 SHL DUP9 MSTORE PUSH1 0x4 DUP9 ADD MSTORE PUSH0 DUP8 PUSH1 0x24 DUP2 DUP7 GAS STATICCALL SWAP7 DUP8 ISZERO PUSH2 0x5A8 JUMPI PUSH0 SWAP8 PUSH2 0x113E JUMPI JUMPDEST POP PUSH0 JUMPDEST DUP6 MLOAD DUP2 LT ISZERO PUSH2 0x1129 JUMPI DUP8 MLOAD PUSH1 0x6 DUP2 LT ISZERO PUSH2 0x5B3 JUMPI PUSH2 0xFCE JUMPI PUSH1 0x1 SWAP1 PUSH1 0xFF PUSH1 0x20 DUP11 ADD MLOAD AND PUSH1 0xFF PUSH2 0xFC4 PUSH2 0xFB9 DUP5 DUP12 PUSH2 0x281B JUMP JUMPDEST MLOAD SWAP3 DUP3 DUP5 MLOAD AND PUSH2 0x2AF1 JUMP JUMPDEST AND SWAP1 MSTORE JUMPDEST ADD PUSH2 0xF87 JUMP JUMPDEST DUP8 MLOAD PUSH1 0x6 DUP2 LT ISZERO PUSH2 0x5B3 JUMPI PUSH1 0x1 SUB PUSH2 0x1011 JUMPI PUSH1 0x1 SWAP1 PUSH1 0xFF PUSH1 0x20 DUP11 ADD MLOAD AND PUSH1 0xFF PUSH2 0x1008 PUSH1 0x20 PUSH2 0xFFC DUP6 DUP13 PUSH2 0x281B JUMP JUMPDEST MLOAD ADD SWAP3 DUP3 DUP5 MLOAD AND PUSH2 0x2AF1 JUMP JUMPDEST AND SWAP1 MSTORE JUMPDEST PUSH2 0xFC8 JUMP JUMPDEST DUP8 MLOAD PUSH1 0x6 DUP2 LT ISZERO PUSH2 0x5B3 JUMPI PUSH1 0x2 SUB PUSH2 0x103F JUMPI PUSH1 0x1 SWAP1 PUSH1 0xFF PUSH1 0x20 DUP11 ADD MLOAD AND PUSH1 0xFF PUSH2 0x1008 PUSH1 0x40 PUSH2 0xFFC DUP6 DUP13 PUSH2 0x281B JUMP JUMPDEST DUP8 MLOAD PUSH1 0x6 DUP2 LT ISZERO PUSH2 0x5B3 JUMPI PUSH1 0x3 SUB PUSH2 0x10D8 JUMPI PUSH2 0xFFFF PUSH1 0x60 PUSH2 0x1060 DUP4 DUP10 PUSH2 0x281B JUMP JUMPDEST MLOAD ADD MLOAD AND SWAP1 PUSH1 0x3 PUSH1 0xFF PUSH1 0x20 DUP12 ADD MLOAD AND MUL PUSH2 0xFFFF DUP2 AND SWAP1 DUP2 SUB PUSH2 0x77A JUMPI PUSH1 0x64 ADD SWAP2 PUSH2 0xFFFF DUP4 GT PUSH2 0x77A JUMPI PUSH2 0xFFFF PUSH2 0x109A PUSH1 0x1 SWAP5 PUSH1 0x64 SWAP4 PUSH2 0x36F3 JUMP JUMPDEST AND DIV PUSH2 0xFFFF PUSH1 0x60 PUSH2 0x10AB DUP5 DUP12 PUSH2 0x281B JUMP JUMPDEST MLOAD ADD SWAP2 AND SWAP1 MSTORE PUSH2 0xFFFF PUSH1 0x60 PUSH2 0x10C0 DUP4 DUP11 PUSH2 0x281B JUMP JUMPDEST MLOAD ADD MLOAD AND PUSH1 0x80 PUSH2 0x10D0 DUP4 DUP11 PUSH2 0x281B JUMP JUMPDEST MLOAD ADD MSTORE PUSH2 0xFC8 JUMP JUMPDEST DUP8 MLOAD PUSH1 0x6 DUP2 LT ISZERO PUSH2 0x5B3 JUMPI PUSH1 0x4 SUB PUSH2 0x1106 JUMPI PUSH1 0x1 SWAP1 PUSH1 0xFF PUSH1 0x20 DUP11 ADD MLOAD AND PUSH1 0xFF PUSH2 0x1008 PUSH1 0xA0 PUSH2 0xFFC DUP6 DUP13 PUSH2 0x281B JUMP JUMPDEST DUP8 MLOAD SWAP1 PUSH1 0x6 DUP3 LT ISZERO PUSH2 0x5B3 JUMPI PUSH1 0x5 PUSH1 0x1 SWAP3 SUB PUSH2 0x100C JUMPI DUP2 PUSH1 0xE0 PUSH2 0x10D0 DUP4 DUP11 PUSH2 0x281B JUMP JUMPDEST POP SWAP3 SWAP2 SWAP6 POP SWAP4 PUSH1 0x1 SWAP1 JUMPDEST ADD SWAP4 SWAP5 SWAP1 SWAP2 SWAP5 PUSH2 0xF36 JUMP JUMPDEST SWAP1 SWAP7 POP RETURNDATASIZE DUP1 PUSH0 DUP4 RETURNDATACOPY PUSH2 0x1150 DUP2 DUP4 PUSH2 0x218A JUMP JUMPDEST DUP2 ADD SWAP1 PUSH1 0x20 DUP2 DUP4 SUB SLT PUSH2 0x191 JUMPI DUP1 MLOAD SWAP1 PUSH1 0x1 PUSH1 0x1 PUSH1 0x40 SHL SUB DUP3 GT PUSH2 0x191 JUMPI ADD SWAP1 PUSH1 0x60 DUP3 DUP3 SUB SLT PUSH2 0x191 JUMPI PUSH1 0x40 MLOAD SWAP2 PUSH2 0x1187 DUP4 PUSH2 0x211B JUMP JUMPDEST DUP1 MLOAD PUSH1 0x6 DUP2 LT ISZERO PUSH2 0x191 JUMPI DUP4 MSTORE PUSH2 0x11A0 PUSH1 0x20 DUP3 ADD PUSH2 0x2BBF JUMP JUMPDEST PUSH1 0x20 DUP5 ADD MSTORE PUSH1 0x40 DUP2 ADD MLOAD SWAP1 PUSH1 0x1 PUSH1 0x1 PUSH1 0x40 SHL SUB DUP3 GT PUSH2 0x191 JUMPI ADD DUP2 PUSH1 0x1F DUP3 ADD SLT ISZERO PUSH2 0x191 JUMPI DUP1 MLOAD SWAP1 PUSH1 0x1 PUSH1 0x1 PUSH1 0x40 SHL SUB DUP3 GT PUSH2 0xF09 JUMPI PUSH1 0x40 MLOAD SWAP3 PUSH2 0x11EE PUSH1 0x1F DUP5 ADD PUSH1 0x1F NOT AND PUSH1 0x20 ADD DUP6 PUSH2 0x218A JUMP JUMPDEST DUP3 DUP5 MSTORE PUSH1 0x20 DUP4 DUP4 ADD ADD GT PUSH2 0x191 JUMPI DUP2 PUSH0 SWAP3 PUSH1 0x20 DUP1 SWAP4 ADD DUP4 DUP7 ADD MCOPY DUP4 ADD ADD MSTORE PUSH1 0x40 DUP3 ADD MSTORE SWAP6 DUP8 PUSH2 0xF84 JUMP JUMPDEST SWAP4 PUSH1 0x1 SWAP1 SWAP6 SWAP3 SWAP2 SWAP6 PUSH2 0x1133 JUMP JUMPDEST SWAP1 POP PUSH2 0x1231 DUP2 MLOAD PUSH2 0x2B24 JUMP JUMPDEST SWAP3 PUSH0 JUMPDEST DUP3 MLOAD DUP2 LT ISZERO PUSH2 0x12FA JUMPI PUSH2 0x1247 DUP2 DUP5 PUSH2 0x281B JUMP JUMPDEST MLOAD SWAP1 PUSH1 0x60 DUP3 ADD SWAP2 PUSH2 0x125C DUP4 MLOAD PUSH2 0xD46 DUP2 PUSH2 0x226A JUMP JUMPDEST SWAP1 PUSH2 0x1270 PUSH1 0xC0 DUP3 ADD SWAP3 PUSH1 0xFF DUP5 MLOAD AND SWAP1 PUSH2 0x370C JUMP JUMPDEST SWAP1 PUSH1 0xFF DUP1 PUSH1 0xA0 DUP4 ADD MLOAD AND SWAP4 MLOAD AND SWAP1 PUSH1 0xE0 DUP2 ADD SWAP6 PUSH1 0xFF DUP8 MLOAD AND PUSH2 0x1299 PUSH2 0xD8D DUP4 MLOAD PUSH2 0xD88 DUP2 PUSH2 0x226A JUMP JUMPDEST PUSH1 0x80 PUSH1 0x40 DUP6 ADD MLOAD SWAP4 PUSH2 0x12AA DUP6 PUSH2 0x226A JUMP JUMPDEST MLOAD SWAP5 PUSH2 0x12B5 DUP7 PUSH2 0x226A JUMP JUMPDEST ADD MLOAD SWAP5 PUSH1 0x4 DUP7 LT ISZERO PUSH2 0x5B3 JUMPI PUSH1 0x1 SWAP10 PUSH2 0xFFFF PUSH2 0x12DE SWAP9 PUSH1 0xFF SWAP6 DUP7 SWAP5 PUSH2 0xDE6 SWAP13 PUSH1 0x40 MLOAD SWAP14 DUP15 PUSH2 0x216E JUMP JUMPDEST PUSH2 0x12E8 DUP3 DUP9 PUSH2 0x281B JUMP JUMPDEST MSTORE PUSH2 0x12F3 DUP2 DUP8 PUSH2 0x281B JUMP JUMPDEST POP ADD PUSH2 0x1234 JUMP JUMPDEST POP DUP3 DUP5 PUSH2 0x1306 DUP4 PUSH2 0x2BDE JUMP JUMPDEST PUSH2 0x130F DUP2 PUSH2 0x2BDE JUMP JUMPDEST PUSH2 0x1319 DUP4 MLOAD PUSH2 0x2A98 JUMP JUMPDEST SWAP1 PUSH2 0x1324 DUP2 MLOAD PUSH2 0x2A98 JUMP JUMPDEST PUSH0 JUMPDEST DUP6 MLOAD DUP2 LT ISZERO PUSH2 0x1356 JUMPI DUP1 PUSH2 0xFFFF PUSH1 0x80 PUSH2 0x1341 PUSH1 0x1 SWAP5 DUP11 PUSH2 0x281B JUMP JUMPDEST MLOAD ADD MLOAD AND PUSH2 0x134F DUP3 DUP8 PUSH2 0x281B JUMP JUMPDEST MSTORE ADD PUSH2 0x1326 JUMP JUMPDEST POP SWAP1 SWAP3 DUP5 SWAP3 PUSH0 JUMPDEST DUP6 MLOAD DUP2 LT ISZERO PUSH2 0x138D JUMPI DUP1 PUSH2 0xFFFF PUSH1 0x80 PUSH2 0x1378 PUSH1 0x1 SWAP5 DUP11 PUSH2 0x281B JUMP JUMPDEST MLOAD ADD MLOAD AND PUSH2 0x1386 DUP3 DUP8 PUSH2 0x281B JUMP JUMPDEST MSTORE ADD PUSH2 0x135D JUMP JUMPDEST POP DUP4 DUP4 DUP7 PUSH1 0x40 MLOAD SWAP5 PUSH2 0xF20 PUSH2 0x13A2 DUP2 DUP9 PUSH2 0x218A JUMP JUMPDEST PUSH1 0x78 DUP8 MSTORE PUSH1 0x1F NOT ADD PUSH0 JUMPDEST DUP2 DUP2 LT PUSH2 0x1910 JUMPI POP POP PUSH0 SWAP3 PUSH1 0x1 JUMPDEST PUSH1 0xFF DUP2 AND PUSH1 0x12 DUP2 GT PUSH2 0x14D9 JUMPI PUSH2 0x13CF DUP8 PUSH2 0x2CE5 JUMP JUMPDEST ISZERO DUP1 ISZERO PUSH2 0x1900 JUMPI JUMPDEST PUSH2 0x14D9 JUMPI PUSH1 0x3 SWAP1 PUSH2 0x13E7 DUP9 PUSH2 0x2D32 JUMP JUMPDEST PUSH2 0x13F0 DUP7 PUSH2 0x2D32 JUMP JUMPDEST MUL PUSH1 0xFF DUP2 AND SWAP1 DUP2 SUB PUSH2 0x77A JUMPI DUP4 PUSH1 0x1 SWAP2 SHR AND PUSH1 0x1 ADD PUSH1 0xFF DUP2 GT PUSH2 0x77A JUMPI PUSH1 0xFF AND PUSH0 JUMPDEST DUP2 PUSH1 0xFF DUP3 AND LT PUSH2 0x142D JUMPI JUMPDEST POP POP PUSH2 0x1428 SWAP1 PUSH2 0x2B13 JUMP JUMPDEST PUSH2 0x13BA JUMP JUMPDEST PUSH1 0x77 DUP8 LT ISZERO PUSH2 0x14C4 JUMPI PUSH2 0x143F DUP9 PUSH2 0x2CE5 JUMP JUMPDEST ISZERO DUP1 ISZERO PUSH2 0x14C9 JUMPI JUMPDEST PUSH2 0x14C4 JUMPI DUP8 DUP8 DUP12 DUP8 DUP7 DUP11 PUSH2 0x145B DUP2 DUP8 PUSH2 0x2D9B JUMP JUMPDEST SWAP2 SWAP1 ISZERO PUSH2 0x1494 JUMPI PUSH2 0x146B SWAP7 PUSH2 0x3352 JUMP JUMPDEST PUSH2 0x147D JUMPI JUMPDEST PUSH1 0x1 PUSH1 0xFF SWAP2 JUMPDEST ADD AND PUSH2 0x1412 JUMP JUMPDEST SWAP6 PUSH1 0x1 PUSH2 0x148B PUSH1 0xFF SWAP3 PUSH2 0x2B05 JUMP JUMPDEST SWAP8 SWAP2 POP POP PUSH2 0x1470 JUMP JUMPDEST SWAP6 PUSH2 0x149E SWAP7 PUSH2 0x2F74 JUMP JUMPDEST PUSH2 0x14AD JUMPI JUMPDEST PUSH1 0x1 PUSH1 0xFF SWAP2 PUSH2 0x1476 JUMP JUMPDEST SWAP6 PUSH1 0x1 PUSH2 0x14BB PUSH1 0xFF SWAP3 PUSH2 0x2B05 JUMP JUMPDEST SWAP8 SWAP2 POP POP PUSH2 0x14A3 JUMP JUMPDEST PUSH2 0x141D JUMP JUMPDEST POP PUSH2 0x14D3 DUP7 PUSH2 0x2CE5 JUMP JUMPDEST ISZERO PUSH2 0x1447 JUMP JUMPDEST POP POP SWAP4 POP POP PUSH2 0x14E7 SWAP1 PUSH2 0x2CE5 JUMP JUMPDEST ISZERO SWAP1 PUSH2 0x14F2 DUP2 PUSH2 0x27F8 JUMP JUMPDEST SWAP5 PUSH2 0x1500 PUSH1 0x40 MLOAD SWAP7 DUP8 PUSH2 0x218A JUMP JUMPDEST DUP2 DUP7 MSTORE PUSH1 0x1F NOT PUSH2 0x150F DUP4 PUSH2 0x27F8 JUMP JUMPDEST ADD PUSH0 JUMPDEST DUP2 DUP2 LT PUSH2 0x1895 JUMPI POP POP PUSH0 JUMPDEST DUP3 DUP2 LT PUSH2 0x186B JUMPI POP POP POP PUSH2 0x152F PUSH2 0x2A64 JUMP JUMPDEST SWAP1 DUP2 MSTORE PUSH1 0x20 DUP2 ADD SWAP4 DUP5 MSTORE PUSH1 0x40 DUP2 ADD SWAP3 DUP4 MSTORE PUSH1 0x60 DUP2 ADD SWAP2 DUP3 MSTORE DUP1 MLOAD ISZERO ISZERO PUSH1 0x40 MLOAD PUSH1 0x20 DUP2 ADD SWAP2 PUSH1 0x1 PUSH1 0x1 PUSH1 0x60 SHL SUB NOT CALLER PUSH1 0x60 SHL AND DUP4 MSTORE TIMESTAMP PUSH1 0x34 DUP4 ADD MSTORE PREVRANDAO PUSH1 0x54 DUP4 ADD MSTORE PUSH1 0xF8 SHL PUSH1 0x74 DUP3 ADD MSTORE PUSH1 0x55 DUP2 MSTORE PUSH2 0x1586 PUSH1 0x75 DUP3 PUSH2 0x218A JUMP JUMPDEST MLOAD SWAP1 KECCAK256 SWAP4 DUP5 PUSH1 0x9 SSTORE PUSH2 0x15B2 DUP3 MLOAD ISZERO ISZERO CALLER PUSH0 MSTORE PUSH1 0x6 PUSH1 0x20 MSTORE PUSH1 0x40 PUSH0 KECCAK256 SWAP1 PUSH1 0xFF DUP1 NOT DUP4 SLOAD AND SWAP2 ISZERO ISZERO AND OR SWAP1 SSTORE JUMP JUMPDEST CALLER PUSH0 SWAP1 DUP2 MSTORE PUSH1 0x7 PUSH1 0x20 MSTORE PUSH1 0x40 SWAP1 KECCAK256 PUSH2 0x15CE SWAP1 PUSH2 0x28A4 JUMP JUMPDEST PUSH2 0x28A4 JUMP JUMPDEST PUSH0 JUMPDEST DUP5 MLOAD MLOAD DUP2 LT ISZERO PUSH2 0x160C JUMPI CALLER PUSH0 SWAP1 DUP2 MSTORE PUSH1 0x7 PUSH1 0x20 MSTORE PUSH1 0x40 SWAP1 KECCAK256 PUSH1 0x1 SWAP2 SWAP1 PUSH2 0x1606 SWAP1 PUSH2 0xFFFF PUSH2 0x15FE DUP5 DUP11 MLOAD PUSH2 0x281B JUMP JUMPDEST MLOAD AND SWAP1 PUSH2 0x28CB JUMP JUMPDEST ADD PUSH2 0x15D0 JUMP JUMPDEST POP SWAP1 SWAP2 SWAP4 PUSH2 0x162D PUSH2 0x15C9 CALLER PUSH1 0x1 DUP1 PUSH1 0xA0 SHL SUB AND PUSH0 MSTORE PUSH1 0x8 PUSH1 0x20 MSTORE PUSH1 0x40 PUSH0 KECCAK256 SWAP1 JUMP JUMPDEST PUSH0 JUMPDEST DUP6 MLOAD MLOAD DUP2 LT ISZERO PUSH2 0x1663 JUMPI CALLER PUSH0 SWAP1 DUP2 MSTORE PUSH1 0x8 PUSH1 0x20 MSTORE PUSH1 0x40 SWAP1 KECCAK256 PUSH1 0x1 SWAP2 SWAP1 PUSH2 0x165D SWAP1 PUSH2 0xFFFF PUSH2 0x15FE DUP5 DUP12 MLOAD PUSH2 0x281B JUMP JUMPDEST ADD PUSH2 0x162F JUMP JUMPDEST POP DUP4 DUP2 PUSH32 0xC5187ED43EF6C494568F3ACE9A84A990FE330816256F8610BA7630DE7FC2A485 PUSH2 0x16BC DUP9 PUSH2 0x16AE DUP9 MLOAD ISZERO ISZERO SWAP6 MLOAD SWAP2 MLOAD SWAP2 PUSH1 0x40 MLOAD SWAP7 DUP8 MSTORE PUSH1 0x60 PUSH1 0x20 DUP9 ADD MSTORE PUSH1 0x60 DUP8 ADD SWAP1 PUSH2 0x1FC8 JUMP JUMPDEST SWAP1 DUP6 DUP3 SUB PUSH1 0x40 DUP8 ADD MSTORE PUSH2 0x1FC8 JUMP JUMPDEST SWAP3 DUP1 CALLER SWAP5 SUB SWAP1 LOG3 PUSH0 JUMPDEST DUP3 MLOAD SWAP1 DUP2 MLOAD DUP2 LT ISZERO PUSH2 0x178B JUMPI DUP3 PUSH32 0x60620DFBC2D4188642CFFA14579DA13E93400A7369BB90AAC5A983BEEF88F66A PUSH2 0x16FF DUP4 PUSH1 0x1 SWAP6 PUSH2 0x281B JUMP JUMPDEST MLOAD PUSH2 0x100 PUSH1 0xFF DUP3 MLOAD AND PUSH1 0x20 DUP1 DUP5 ADD MLOAD ISZERO ISZERO SWAP4 PUSH1 0xFF PUSH1 0x40 DUP3 ADD MLOAD AND SWAP1 PUSH1 0xFF PUSH1 0x60 DUP3 ADD MLOAD AND PUSH2 0xFFFF PUSH1 0x80 DUP4 ADD MLOAD AND SWAP1 DUP7 PUSH2 0xFFFF PUSH1 0xE0 DUP6 ADD MLOAD AND SWAP4 ADD MLOAD SWAP4 PUSH1 0x40 MLOAD SWAP9 DUP10 SWAP8 DUP9 MSTORE DUP7 DUP9 ADD MSTORE PUSH1 0x40 DUP8 ADD MSTORE PUSH1 0x60 DUP7 ADD MSTORE PUSH1 0x80 DUP6 ADD MSTORE PUSH1 0xA0 DUP5 ADD MSTORE PUSH1 0xE0 PUSH1 0xC0 DUP5 ADD MSTORE DUP1 MLOAD SWAP2 DUP3 SWAP2 DUP3 PUSH1 0xE0 DUP7 ADD MSTORE ADD DUP5 DUP5 ADD MCOPY PUSH0 DUP3 DUP3 ADD DUP5 ADD MSTORE PUSH1 0x1F ADD PUSH1 0x1F NOT AND DUP2 ADD SUB ADD SWAP1 LOG2 ADD PUSH2 0x16C5 JUMP JUMPDEST DUP5 MLOAD ISZERO ISZERO CALLER PUSH0 MSTORE PUSH1 0x1 PUSH1 0x20 MSTORE PUSH1 0x40 PUSH0 KECCAK256 SWAP1 DUP1 PUSH0 EQ PUSH2 0x1864 JUMPI PUSH1 0x19 JUMPDEST PUSH1 0xFF PUSH4 0xFFFFFFFF DUP5 SLOAD PUSH1 0x10 SHR AND SWAP2 AND ADD PUSH4 0xFFFFFFFF DUP2 GT PUSH2 0x77A JUMPI DUP3 SLOAD PUSH6 0xFFFFFFFF0000 NOT AND PUSH1 0x10 SWAP2 SWAP1 SWAP2 SHL PUSH6 0xFFFFFFFF0000 AND OR DUP3 SSTORE ISZERO PUSH2 0x184F JUMPI PUSH1 0x1 DUP2 ADD PUSH2 0x17F0 DUP2 SLOAD PUSH2 0x2B05 JUMP JUMPDEST SWAP1 SSTORE JUMPDEST DUP1 SLOAD PUSH2 0xFFFF DUP2 AND SWAP1 PUSH1 0x37 DUP3 MUL PUSH4 0xFFFFFFFF DUP2 AND SWAP1 DUP2 SUB PUSH2 0x77A JUMPI PUSH1 0x5A ADD PUSH4 0xFFFFFFFF DUP2 GT PUSH2 0x77A JUMPI PUSH4 0xFFFFFFFF DUP1 SWAP2 AND SWAP2 PUSH1 0x10 SHR AND LT ISZERO PUSH2 0x1830 JUMPI STOP JUMPDEST PUSH2 0xFFFF DUP2 EQ PUSH2 0x77A JUMPI DUP2 SLOAD PUSH2 0xFFFF NOT AND PUSH1 0x1 SWAP2 SWAP1 SWAP2 ADD PUSH2 0xFFFF AND OR SWAP1 SSTORE STOP JUMPDEST PUSH1 0x2 DUP2 ADD PUSH2 0x185D DUP2 SLOAD PUSH2 0x2B05 JUMP JUMPDEST SWAP1 SSTORE PUSH2 0x17F3 JUMP JUMPDEST PUSH1 0xA PUSH2 0x17A6 JUMP JUMPDEST DUP1 PUSH2 0x1878 PUSH1 0x1 SWAP3 DUP5 PUSH2 0x281B JUMP JUMPDEST MLOAD PUSH2 0x1883 DUP3 DUP11 PUSH2 0x281B JUMP JUMPDEST MSTORE PUSH2 0x188E DUP2 DUP10 PUSH2 0x281B JUMP JUMPDEST POP ADD PUSH2 0x151D JUMP JUMPDEST PUSH1 0x20 SWAP1 PUSH1 0x40 MLOAD PUSH2 0x18A4 DUP2 PUSH2 0x2152 JUMP JUMPDEST PUSH0 DUP2 MSTORE PUSH0 DUP4 DUP3 ADD MSTORE PUSH0 PUSH1 0x40 DUP3 ADD MSTORE PUSH0 PUSH1 0x60 DUP3 ADD MSTORE PUSH0 PUSH1 0x80 DUP3 ADD MSTORE PUSH0 PUSH1 0xA0 DUP3 ADD MSTORE PUSH0 PUSH1 0xC0 DUP3 ADD MSTORE PUSH0 PUSH1 0xE0 DUP3 ADD MSTORE PUSH1 0x60 PUSH2 0x100 DUP3 ADD MSTORE PUSH0 PUSH2 0x120 DUP3 ADD MSTORE PUSH0 PUSH2 0x140 DUP3 ADD MSTORE PUSH0 PUSH2 0x160 DUP3 ADD MSTORE PUSH0 PUSH2 0x180 DUP3 ADD MSTORE DUP3 DUP3 DUP12 ADD ADD MSTORE ADD PUSH2 0x1512 JUMP JUMPDEST POP PUSH2 0x190A DUP6 PUSH2 0x2CE5 JUMP JUMPDEST ISZERO PUSH2 0x13D7 JUMP JUMPDEST PUSH1 0x20 SWAP1 PUSH1 0x40 MLOAD PUSH2 0x191F DUP2 PUSH2 0x2152 JUMP JUMPDEST PUSH0 DUP2 MSTORE PUSH0 DUP4 DUP3 ADD MSTORE PUSH0 PUSH1 0x40 DUP3 ADD MSTORE PUSH0 PUSH1 0x60 DUP3 ADD MSTORE PUSH0 PUSH1 0x80 DUP3 ADD MSTORE PUSH0 PUSH1 0xA0 DUP3 ADD MSTORE PUSH0 PUSH1 0xC0 DUP3 ADD MSTORE PUSH0 PUSH1 0xE0 DUP3 ADD MSTORE PUSH1 0x60 PUSH2 0x100 DUP3 ADD MSTORE PUSH0 PUSH2 0x120 DUP3 ADD MSTORE PUSH0 PUSH2 0x140 DUP3 ADD MSTORE PUSH0 PUSH2 0x160 DUP3 ADD MSTORE PUSH0 PUSH2 0x180 DUP3 ADD MSTORE DUP3 DUP3 DUP12 ADD ADD MSTORE ADD PUSH2 0x13AC JUMP JUMPDEST PUSH1 0x20 SWAP1 PUSH2 0x1986 PUSH2 0x270D JUMP JUMPDEST DUP3 DUP3 DUP10 ADD ADD MSTORE ADD PUSH2 0xAEF JUMP JUMPDEST PUSH1 0x40 MLOAD PUSH3 0x461BCD PUSH1 0xE5 SHL DUP2 MSTORE PUSH1 0x20 PUSH1 0x4 DUP3 ADD MSTORE PUSH1 0x11 PUSH1 0x24 DUP3 ADD MSTORE PUSH17 0x496E76616C6964207465616D2073697A65 PUSH1 0x78 SHL PUSH1 0x44 DUP3 ADD MSTORE PUSH1 0x64 SWAP1 REVERT JUMPDEST POP PUSH1 0x8 DUP2 GT ISZERO PUSH2 0xACF JUMP JUMPDEST CALLVALUE PUSH2 0x191 JUMPI PUSH0 CALLDATASIZE PUSH1 0x3 NOT ADD SLT PUSH2 0x191 JUMPI PUSH1 0x20 PUSH1 0x9 SLOAD PUSH1 0x40 MLOAD SWAP1 DUP2 MSTORE RETURN JUMPDEST CALLVALUE PUSH2 0x191 JUMPI PUSH1 0x40 CALLDATASIZE PUSH1 0x3 NOT ADD SLT PUSH2 0x191 JUMPI PUSH2 0x1A0C PUSH2 0x1F8B JUMP JUMPDEST PUSH1 0x1 PUSH1 0x1 PUSH1 0xA0 SHL SUB AND PUSH0 SWAP1 DUP2 MSTORE PUSH1 0x2 PUSH1 0x20 MSTORE PUSH1 0x40 SWAP1 KECCAK256 DUP1 SLOAD PUSH1 0x24 CALLDATALOAD SWAP2 SWAP1 DUP3 LT ISZERO PUSH2 0x191 JUMPI PUSH1 0x20 SWAP2 PUSH2 0x182 SWAP2 PUSH2 0x209D JUMP JUMPDEST CALLVALUE PUSH2 0x191 JUMPI PUSH1 0x40 CALLDATASIZE PUSH1 0x3 NOT ADD SLT PUSH2 0x191 JUMPI PUSH2 0x1A55 PUSH2 0x1F8B JUMP JUMPDEST PUSH1 0x1 PUSH1 0x1 PUSH1 0xA0 SHL SUB AND PUSH0 SWAP1 DUP2 MSTORE PUSH1 0x7 PUSH1 0x20 MSTORE PUSH1 0x40 SWAP1 KECCAK256 DUP1 SLOAD PUSH1 0x24 CALLDATALOAD SWAP1 DUP2 LT ISZERO PUSH2 0x191 JUMPI PUSH2 0x9DA PUSH2 0xFFFF SWAP2 PUSH1 0x20 SWAP4 PUSH2 0x207C JUMP JUMPDEST CALLVALUE PUSH2 0x191 JUMPI PUSH1 0x20 CALLDATASIZE PUSH1 0x3 NOT ADD SLT PUSH2 0x191 JUMPI PUSH2 0x1AA0 PUSH2 0x1F8B JUMP JUMPDEST PUSH1 0x60 PUSH1 0x40 MLOAD PUSH2 0x1AB0 PUSH1 0x60 DUP3 PUSH2 0x218A JUMP JUMPDEST PUSH0 JUMPDEST DUP3 DUP2 LT PUSH2 0x1B32 JUMPI DUP4 PUSH1 0x1 DUP1 PUSH1 0xA0 SHL SUB AND PUSH0 MSTORE PUSH1 0x5 PUSH1 0x20 MSTORE PUSH1 0x40 PUSH0 KECCAK256 PUSH1 0x40 MLOAD SWAP1 PUSH2 0x1ADA DUP3 PUSH2 0x211B JUMP JUMPDEST PUSH0 DUP3 JUMPDEST PUSH1 0x3 DUP3 LT PUSH2 0x1B14 JUMPI PUSH1 0x40 MLOAD DUP5 PUSH0 DUP3 JUMPDEST PUSH1 0x3 DUP3 LT PUSH2 0x1AFA JUMPI PUSH2 0x3C0 DUP5 RETURN JUMPDEST PUSH1 0x20 PUSH2 0x1B09 PUSH1 0x1 SWAP3 DUP6 MLOAD PUSH2 0x1FFF JUMP JUMPDEST SWAP4 ADD SWAP2 ADD SWAP1 SWAP2 PUSH2 0x1AEC JUMP JUMPDEST PUSH1 0x3 PUSH1 0x20 PUSH1 0x1 SWAP3 PUSH2 0x1B24 DUP7 PUSH2 0x277A JUMP JUMPDEST DUP2 MSTORE ADD SWAP4 ADD SWAP2 ADD SWAP1 SWAP2 PUSH2 0x1ADD JUMP JUMPDEST PUSH1 0x20 SWAP1 PUSH2 0x1B3D PUSH2 0x270D JUMP JUMPDEST DUP2 DUP5 ADD MSTORE ADD PUSH2 0x1AB2 JUMP JUMPDEST CALLVALUE PUSH2 0x191 JUMPI PUSH1 0x20 CALLDATASIZE PUSH1 0x3 NOT ADD SLT PUSH2 0x191 JUMPI PUSH1 0x1 PUSH1 0x1 PUSH1 0xA0 SHL SUB PUSH2 0x1B68 PUSH2 0x1F8B JUMP JUMPDEST AND DUP1 PUSH0 MSTORE PUSH1 0x6 PUSH1 0x20 MSTORE PUSH1 0xFF PUSH1 0x40 PUSH0 KECCAK256 SLOAD AND DUP2 PUSH0 MSTORE PUSH1 0x7 PUSH1 0x20 MSTORE PUSH1 0x40 PUSH0 KECCAK256 SWAP2 PUSH0 MSTORE PUSH1 0x8 PUSH1 0x20 MSTORE PUSH1 0x40 PUSH0 KECCAK256 SWAP2 PUSH2 0x1BD6 PUSH2 0x1BAA PUSH2 0x1BA4 PUSH1 0x9 SLOAD SWAP4 PUSH2 0x2400 JUMP JUMPDEST SWAP5 PUSH2 0x2400 JUMP JUMPDEST PUSH2 0x1BC8 PUSH1 0x40 MLOAD SWAP6 DUP7 SWAP6 ISZERO ISZERO DUP7 MSTORE PUSH1 0x80 PUSH1 0x20 DUP8 ADD MSTORE PUSH1 0x80 DUP7 ADD SWAP1 PUSH2 0x1FC8 JUMP JUMPDEST SWAP1 DUP5 DUP3 SUB PUSH1 0x40 DUP7 ADD MSTORE PUSH2 0x1FC8 JUMP JUMPDEST SWAP1 PUSH1 0x60 DUP4 ADD MSTORE SUB SWAP1 RETURN JUMPDEST PUSH0 CALLDATASIZE PUSH1 0x3 NOT ADD SLT PUSH2 0x191 JUMPI CALLER PUSH0 MSTORE PUSH0 PUSH1 0x20 MSTORE PUSH2 0x1C02 PUSH1 0xFF PUSH1 0x40 PUSH0 KECCAK256 SLOAD AND PUSH2 0x21AB JUMP JUMPDEST PUSH2 0x1C15 PUSH7 0x11C37937E08000 CALLVALUE LT ISZERO PUSH2 0x21EE JUMP JUMPDEST PUSH0 JUMPDEST PUSH1 0x3 DUP2 LT PUSH2 0x1C21 JUMPI STOP JUMPDEST PUSH1 0x1 SWAP1 PUSH2 0x1C44 PUSH2 0x1C2F PUSH2 0x2922 JUMP JUMPDEST CALLER PUSH0 MSTORE PUSH1 0x5 PUSH1 0x20 MSTORE PUSH2 0x56C DUP4 PUSH1 0x40 PUSH0 KECCAK256 PUSH2 0x1FA1 JUMP JUMPDEST ADD PUSH2 0x1C17 JUMP JUMPDEST PUSH0 CALLDATASIZE PUSH1 0x3 NOT ADD SLT PUSH2 0x191 JUMPI CALLER PUSH0 MSTORE PUSH0 PUSH1 0x20 MSTORE PUSH2 0x1C6C PUSH1 0xFF PUSH1 0x40 PUSH0 KECCAK256 SLOAD AND PUSH2 0x21AB JUMP JUMPDEST PUSH2 0x1C7F PUSH7 0x2386F26FC10000 CALLVALUE LT ISZERO PUSH2 0x21EE JUMP JUMPDEST PUSH1 0x40 MLOAD PUSH1 0x20 DUP2 ADD SWAP1 TIMESTAMP DUP3 MSTORE CALLER PUSH1 0x60 SHL PUSH1 0x40 DUP3 ADD MSTORE PREVRANDAO PUSH1 0x54 DUP3 ADD MSTORE PUSH1 0x54 DUP2 MSTORE PUSH2 0x1CA8 PUSH1 0x74 DUP3 PUSH2 0x218A JUMP JUMPDEST MLOAD SWAP1 KECCAK256 PUSH1 0xB DUP2 MOD PUSH1 0xA ADD DUP1 PUSH1 0xA GT PUSH2 0x77A JUMPI PUSH1 0xB DUP3 PUSH1 0x8 SHR MOD PUSH1 0x8 ADD SWAP1 DUP2 PUSH1 0x8 GT PUSH2 0x77A JUMPI PUSH1 0xB DUP4 PUSH1 0x10 SHR MOD PUSH1 0x9 ADD DUP1 PUSH1 0x9 GT PUSH2 0x77A JUMPI PUSH1 0xFF PUSH1 0x3 DUP6 PUSH1 0x18 SHR MOD AND PUSH1 0xFF PUSH1 0x3 DUP1 DUP8 PUSH1 0x20 SHR AND SWAP7 PUSH1 0x28 SHR MOD AND SWAP5 PUSH1 0x1 DUP1 PUSH1 0xA0 SHL SUB PUSH1 0xA SLOAD AND SWAP3 PUSH2 0x1D0F DUP4 PUSH2 0x226A JUMP JUMPDEST PUSH2 0x1D18 DUP8 PUSH2 0x226A JUMP JUMPDEST PUSH1 0x4 DUP3 LT ISZERO PUSH2 0x5B3 JUMPI PUSH1 0x40 MLOAD PUSH4 0xE3BD811 PUSH1 0xE3 SHL DUP2 MSTORE SWAP7 PUSH1 0x20 SWAP7 DUP9 SWAP7 DUP8 SWAP6 PUSH0 SWAP6 DUP8 SWAP6 PUSH2 0x1D55 SWAP6 PUSH1 0xFF SWAP2 DUP3 AND SWAP6 DUP3 AND SWAP5 SWAP1 SWAP2 AND SWAP3 CALLER PUSH1 0x4 DUP10 ADD PUSH2 0x2274 JUMP JUMPDEST SUB SWAP3 GAS CALL DUP1 ISZERO PUSH2 0x5A8 JUMPI PUSH0 SWAP1 PUSH2 0x1D7B JUMPI JUMPDEST PUSH2 0x307 SWAP1 CALLER PUSH0 MSTORE PUSH1 0x2 PUSH1 0x20 MSTORE PUSH1 0x40 PUSH0 KECCAK256 PUSH2 0x22D4 JUMP JUMPDEST POP PUSH1 0x20 DUP2 RETURNDATASIZE PUSH1 0x20 GT PUSH2 0x1DA7 JUMPI JUMPDEST DUP2 PUSH2 0x1D95 PUSH1 0x20 SWAP4 DUP4 PUSH2 0x218A JUMP JUMPDEST DUP2 ADD SUB SLT PUSH2 0x191 JUMPI PUSH2 0x307 SWAP1 MLOAD PUSH2 0x1D66 JUMP JUMPDEST RETURNDATASIZE SWAP2 POP PUSH2 0x1D88 JUMP JUMPDEST CALLVALUE PUSH2 0x191 JUMPI PUSH1 0x40 CALLDATASIZE PUSH1 0x3 NOT ADD SLT PUSH2 0x191 JUMPI PUSH2 0x1DC8 PUSH2 0x1F8B JUMP JUMPDEST PUSH1 0x1 PUSH1 0x1 PUSH1 0xA0 SHL SUB AND PUSH0 SWAP1 DUP2 MSTORE PUSH1 0x5 PUSH1 0x20 MSTORE PUSH1 0x40 SWAP1 KECCAK256 PUSH1 0x24 CALLDATALOAD SWAP1 PUSH1 0x3 DUP3 LT ISZERO PUSH2 0x191 JUMPI PUSH2 0x140 SWAP2 PUSH2 0x1DF8 SWAP2 PUSH2 0x1FA1 JUMP JUMPDEST POP PUSH1 0xFF DUP1 DUP3 SLOAD AND SWAP2 PUSH1 0x2 PUSH1 0x1 DUP3 ADD SLOAD SWAP2 ADD SLOAD SWAP1 PUSH1 0x40 MLOAD SWAP4 ISZERO ISZERO DUP5 MSTORE PUSH1 0x20 DUP5 ADD MSTORE DUP2 DUP2 AND PUSH1 0x40 DUP5 ADD MSTORE DUP2 DUP2 PUSH1 0x8 SHR AND PUSH1 0x60 DUP5 ADD MSTORE DUP2 DUP2 PUSH1 0x10 SHR AND PUSH1 0x80 DUP5 ADD MSTORE DUP2 DUP2 PUSH1 0x18 SHR AND PUSH1 0xA0 DUP5 ADD MSTORE DUP2 DUP2 PUSH1 0x20 SHR AND PUSH1 0xC0 DUP5 ADD MSTORE DUP2 DUP2 PUSH1 0x28 SHR AND PUSH1 0xE0 DUP5 ADD MSTORE DUP2 DUP2 PUSH1 0x30 SHR AND PUSH2 0x100 DUP5 ADD MSTORE PUSH1 0x38 SHR AND PUSH2 0x120 DUP3 ADD MSTORE RETURN JUMPDEST CALLVALUE PUSH2 0x191 JUMPI PUSH0 CALLDATASIZE PUSH1 0x3 NOT ADD SLT PUSH2 0x191 JUMPI CALLER PUSH0 MSTORE PUSH0 PUSH1 0x20 MSTORE PUSH1 0xFF PUSH1 0x40 PUSH0 KECCAK256 SLOAD AND PUSH2 0x1F50 JUMPI CALLER PUSH0 MSTORE PUSH0 PUSH1 0x20 MSTORE PUSH1 0x40 PUSH0 KECCAK256 PUSH1 0x1 PUSH1 0xFF NOT DUP3 SLOAD AND OR SWAP1 SSTORE PUSH1 0x40 MLOAD PUSH1 0xA0 DUP2 ADD DUP2 DUP2 LT PUSH1 0x1 PUSH1 0x1 PUSH1 0x40 SHL SUB DUP3 GT OR PUSH2 0xF09 JUMPI PUSH1 0x40 MSTORE PUSH1 0x1 DUP2 MSTORE PUSH2 0xFFFF PUSH1 0x3 DUP2 PUSH1 0x20 DUP5 ADD PUSH0 DUP2 MSTORE PUSH1 0x40 DUP6 ADD PUSH0 DUP2 MSTORE PUSH1 0x60 DUP7 ADD SWAP1 PUSH0 DUP3 MSTORE PUSH2 0x1F30 PUSH4 0xFFFFFFFF PUSH1 0x80 DUP10 ADD SWAP5 PUSH1 0x1 DUP7 MSTORE CALLER PUSH0 MSTORE PUSH1 0x1 PUSH1 0x20 MSTORE DUP7 DUP1 PUSH1 0x40 PUSH0 KECCAK256 SWAP12 MLOAD AND AND DUP8 NOT DUP12 SLOAD AND OR DUP11 SSTORE MLOAD AND DUP9 SWAP1 PUSH6 0xFFFFFFFF0000 DUP3 SLOAD SWAP2 PUSH1 0x10 SHL AND SWAP1 PUSH6 0xFFFFFFFF0000 NOT AND OR SWAP1 SSTORE JUMP JUMPDEST MLOAD PUSH1 0x1 DUP8 ADD SSTORE MLOAD PUSH1 0x2 DUP7 ADD SSTORE MLOAD AND SWAP3 ADD SWAP2 AND PUSH2 0xFFFF NOT DUP3 SLOAD AND OR SWAP1 SSTORE PUSH0 DUP1 RETURN JUMPDEST PUSH3 0x461BCD PUSH1 0xE5 SHL DUP2 MSTORE PUSH1 0x20 PUSH1 0x4 DUP3 ADD MSTORE PUSH1 0x16 PUSH1 0x24 DUP3 ADD MSTORE PUSH22 0x50726F66696C6520616C726561647920657869737473 PUSH1 0x50 SHL PUSH1 0x44 DUP3 ADD MSTORE PUSH1 0x64 SWAP1 REVERT JUMPDEST PUSH1 0x4 CALLDATALOAD SWAP1 PUSH1 0x1 PUSH1 0x1 PUSH1 0xA0 SHL SUB DUP3 AND DUP3 SUB PUSH2 0x191 JUMPI JUMP JUMPDEST SWAP1 PUSH1 0x3 DUP2 LT ISZERO PUSH2 0x1FB4 JUMPI PUSH1 0x3 MUL ADD SWAP1 PUSH0 SWAP1 JUMP JUMPDEST PUSH4 0x4E487B71 PUSH1 0xE0 SHL PUSH0 MSTORE PUSH1 0x32 PUSH1 0x4 MSTORE PUSH1 0x24 PUSH0 REVERT JUMPDEST SWAP1 PUSH1 0x20 DUP1 DUP4 MLOAD SWAP3 DUP4 DUP2 MSTORE ADD SWAP3 ADD SWAP1 PUSH0 JUMPDEST DUP2 DUP2 LT PUSH2 0x1FE5 JUMPI POP POP POP SWAP1 JUMP JUMPDEST DUP3 MLOAD PUSH2 0xFFFF AND DUP5 MSTORE PUSH1 0x20 SWAP4 DUP5 ADD SWAP4 SWAP1 SWAP3 ADD SWAP2 PUSH1 0x1 ADD PUSH2 0x1FD8 JUMP JUMPDEST SWAP1 PUSH1 0xFF PUSH2 0x120 PUSH2 0x140 SWAP4 DUP1 MLOAD ISZERO ISZERO DUP5 MSTORE PUSH1 0x20 DUP2 ADD MLOAD PUSH1 0x20 DUP6 ADD MSTORE DUP3 PUSH1 0x40 DUP3 ADD MLOAD AND PUSH1 0x40 DUP6 ADD MSTORE DUP3 PUSH1 0x60 DUP3 ADD MLOAD AND PUSH1 0x60 DUP6 ADD MSTORE DUP3 PUSH1 0x80 DUP3 ADD MLOAD AND PUSH1 0x80 DUP6 ADD MSTORE DUP3 PUSH1 0xA0 DUP3 ADD MLOAD AND PUSH1 0xA0 DUP6 ADD MSTORE DUP3 PUSH1 0xC0 DUP3 ADD MLOAD AND PUSH1 0xC0 DUP6 ADD MSTORE DUP3 PUSH1 0xE0 DUP3 ADD MLOAD AND PUSH1 0xE0 DUP6 ADD MSTORE DUP3 PUSH2 0x100 DUP3 ADD MLOAD AND PUSH2 0x100 DUP6 ADD MSTORE ADD MLOAD AND PUSH2 0x120 DUP3 ADD MSTORE ADD SWAP1 JUMP JUMPDEST SWAP2 SWAP1 SWAP2 DUP1 SLOAD DUP4 LT ISZERO PUSH2 0x1FB4 JUMPI PUSH0 MSTORE PUSH1 0x1E PUSH1 0x20 PUSH0 KECCAK256 DUP4 PUSH1 0x4 SHR ADD SWAP3 PUSH1 0x1 SHL AND SWAP1 JUMP JUMPDEST DUP1 SLOAD DUP3 LT ISZERO PUSH2 0x1FB4 JUMPI PUSH0 MSTORE PUSH1 0x20 PUSH0 KECCAK256 ADD SWAP1 PUSH0 SWAP1 JUMP JUMPDEST SWAP2 DUP2 PUSH1 0x1F DUP5 ADD SLT ISZERO PUSH2 0x191 JUMPI DUP3 CALLDATALOAD SWAP2 PUSH1 0x1 PUSH1 0x1 PUSH1 0x40 SHL SUB DUP4 GT PUSH2 0x191 JUMPI PUSH1 0x20 DUP1 DUP6 ADD SWAP5 DUP5 PUSH1 0x5 SHL ADD ADD GT PUSH2 0x191 JUMPI JUMP JUMPDEST PUSH1 0x20 PUSH1 0x40 DUP2 DUP4 ADD SWAP3 DUP3 DUP2 MSTORE DUP5 MLOAD DUP1 SWAP5 MSTORE ADD SWAP3 ADD SWAP1 PUSH0 JUMPDEST DUP2 DUP2 LT PUSH2 0x2105 JUMPI POP POP POP SWAP1 JUMP JUMPDEST DUP3 MLOAD DUP5 MSTORE PUSH1 0x20 SWAP4 DUP5 ADD SWAP4 SWAP1 SWAP3 ADD SWAP2 PUSH1 0x1 ADD PUSH2 0x20F8 JUMP JUMPDEST PUSH1 0x60 DUP2 ADD SWAP1 DUP2 LT PUSH1 0x1 PUSH1 0x1 PUSH1 0x40 SHL SUB DUP3 GT OR PUSH2 0xF09 JUMPI PUSH1 0x40 MSTORE JUMP JUMPDEST PUSH2 0x140 DUP2 ADD SWAP1 DUP2 LT PUSH1 0x1 PUSH1 0x1 PUSH1 0x40 SHL SUB DUP3 GT OR PUSH2 0xF09 JUMPI PUSH1 0x40 MSTORE JUMP JUMPDEST PUSH2 0x1A0 DUP2 ADD SWAP1 DUP2 LT PUSH1 0x1 PUSH1 0x1 PUSH1 0x40 SHL SUB DUP3 GT OR PUSH2 0xF09 JUMPI PUSH1 0x40 MSTORE JUMP JUMPDEST PUSH2 0x180 DUP2 ADD SWAP1 DUP2 LT PUSH1 0x1 PUSH1 0x1 PUSH1 0x40 SHL SUB DUP3 GT OR PUSH2 0xF09 JUMPI PUSH1 0x40 MSTORE JUMP JUMPDEST SWAP1 PUSH1 0x1F DUP1 NOT SWAP2 ADD AND DUP2 ADD SWAP1 DUP2 LT PUSH1 0x1 PUSH1 0x1 PUSH1 0x40 SHL SUB DUP3 GT OR PUSH2 0xF09 JUMPI PUSH1 0x40 MSTORE JUMP JUMPDEST ISZERO PUSH2 0x21B2 JUMPI JUMP JUMPDEST PUSH1 0x40 MLOAD PUSH3 0x461BCD PUSH1 0xE5 SHL DUP2 MSTORE PUSH1 0x20 PUSH1 0x4 DUP3 ADD MSTORE PUSH1 0x14 PUSH1 0x24 DUP3 ADD MSTORE PUSH20 0x10DC99585D19481C1C9BD99A5B1948199A5C9CDD PUSH1 0x62 SHL PUSH1 0x44 DUP3 ADD MSTORE PUSH1 0x64 SWAP1 REVERT JUMPDEST ISZERO PUSH2 0x21F5 JUMPI JUMP JUMPDEST PUSH1 0x40 MLOAD PUSH3 0x461BCD PUSH1 0xE5 SHL DUP2 MSTORE PUSH1 0x20 PUSH1 0x4 DUP3 ADD MSTORE PUSH1 0x14 PUSH1 0x24 DUP3 ADD MSTORE PUSH20 0x125B9CDD59999A58DA595B9D081C185E5B595B9D PUSH1 0x62 SHL PUSH1 0x44 DUP3 ADD MSTORE PUSH1 0x64 SWAP1 REVERT JUMPDEST DUP2 ISZERO PUSH2 0x223B JUMPI MOD SWAP1 JUMP JUMPDEST PUSH4 0x4E487B71 PUSH1 0xE0 SHL PUSH0 MSTORE PUSH1 0x12 PUSH1 0x4 MSTORE PUSH1 0x24 PUSH0 REVERT JUMPDEST PUSH1 0x8 ADD SWAP1 DUP2 PUSH1 0x8 GT PUSH2 0x77A JUMPI JUMP JUMPDEST SWAP2 SWAP1 DUP3 ADD DUP1 SWAP3 GT PUSH2 0x77A JUMPI JUMP JUMPDEST PUSH1 0x3 GT ISZERO PUSH2 0x5B3 JUMPI JUMP JUMPDEST PUSH1 0x1 PUSH1 0x1 PUSH1 0xA0 SHL SUB SWAP1 SWAP2 AND DUP2 MSTORE PUSH1 0xE0 DUP2 ADD SWAP8 SWAP7 SWAP1 SWAP6 SWAP5 SWAP1 SWAP3 SWAP1 SWAP2 PUSH2 0x2297 DUP2 PUSH2 0x226A JUMP JUMPDEST PUSH1 0x20 DUP8 ADD MSTORE PUSH2 0x22A5 DUP2 PUSH2 0x226A JUMP JUMPDEST PUSH1 0x40 DUP7 ADD MSTORE PUSH1 0x4 DUP4 LT ISZERO PUSH2 0x5B3 JUMPI PUSH1 0xC0 SWAP4 PUSH1 0xFF DUP1 SWAP5 SWAP3 DUP2 SWAP4 PUSH1 0x60 DUP10 ADD MSTORE AND PUSH1 0x80 DUP8 ADD MSTORE AND PUSH1 0xA0 DUP6 ADD MSTORE AND SWAP2 ADD MSTORE JUMP JUMPDEST DUP1 SLOAD PUSH1 0x1 PUSH1 0x40 SHL DUP2 LT ISZERO PUSH2 0xF09 JUMPI PUSH2 0x22F1 SWAP2 PUSH1 0x1 DUP3 ADD DUP2 SSTORE PUSH2 0x209D JUMP JUMPDEST DUP2 SWAP3 SWAP2 SLOAD SWAP1 PUSH1 0x3 SHL SWAP2 DUP3 SHL SWAP2 PUSH0 NOT SWAP1 SHL NOT AND OR SWAP1 SSTORE JUMP JUMPDEST SWAP1 PUSH2 0x23ED JUMPI PUSH1 0x2 SWAP1 PUSH2 0x2329 DUP4 MLOAD ISZERO ISZERO DUP3 SWAP1 PUSH1 0xFF DUP1 NOT DUP4 SLOAD AND SWAP2 ISZERO ISZERO AND OR SWAP1 SSTORE JUMP JUMPDEST PUSH1 0x20 DUP4 ADD MLOAD PUSH1 0x1 DUP3 ADD SSTORE ADD SWAP1 PUSH1 0xFF PUSH1 0x40 DUP3 ADD MLOAD AND SWAP1 DUP3 SLOAD PUSH2 0xFF00 PUSH1 0x60 DUP4 ADD MLOAD PUSH1 0x8 SHL AND SWAP3 PUSH3 0xFF0000 PUSH1 0x80 DUP5 ADD MLOAD PUSH1 0x10 SHL AND SWAP4 PUSH4 0xFF000000 PUSH1 0xA0 DUP6 ADD MLOAD PUSH1 0x18 SHL AND SWAP1 PUSH5 0xFF00000000 PUSH1 0xC0 DUP7 ADD MLOAD PUSH1 0x20 SHL AND SWAP2 PUSH6 0xFF0000000000 PUSH1 0xE0 DUP8 ADD MLOAD PUSH1 0x28 SHL AND SWAP5 PUSH1 0xFF PUSH1 0x38 SHL PUSH2 0x120 PUSH7 0xFF000000000000 PUSH2 0x100 DUP11 ADD MLOAD PUSH1 0x30 SHL AND SWAP9 ADD MLOAD PUSH1 0x38 SHL AND SWAP8 PUSH1 0xFF PUSH1 0x38 SHL NOT SWAP6 PUSH7 0xFF000000000000 NOT SWAP5 PUSH6 0xFF0000000000 NOT SWAP4 PUSH5 0xFF00000000 NOT SWAP3 PUSH4 0xFF000000 NOT SWAP2 PUSH3 0xFFFFFF NOT AND OR AND OR AND OR AND OR AND OR AND OR OR OR SWAP1 SSTORE JUMP JUMPDEST PUSH4 0x4E487B71 PUSH1 0xE0 SHL PUSH0 MSTORE PUSH0 PUSH1 0x4 MSTORE PUSH1 0x24 PUSH0 REVERT JUMPDEST SWAP1 PUSH1 0x40 MLOAD SWAP2 DUP3 DUP2 SLOAD SWAP2 DUP3 DUP3 MSTORE PUSH1 0x20 DUP3 ADD SWAP1 PUSH0 MSTORE PUSH1 0x20 PUSH0 KECCAK256 SWAP3 PUSH0 SWAP1 JUMPDEST DUP1 PUSH1 0xF DUP4 ADD LT PUSH2 0x2625 JUMPI PUSH2 0x24B1 SWAP5 SLOAD SWAP2 DUP2 DUP2 LT PUSH2 0x2610 JUMPI JUMPDEST DUP2 DUP2 LT PUSH2 0x25F8 JUMPI JUMPDEST DUP2 DUP2 LT PUSH2 0x25E1 JUMPI JUMPDEST DUP2 DUP2 LT PUSH2 0x25C9 JUMPI JUMPDEST DUP2 DUP2 LT PUSH2 0x25B1 JUMPI JUMPDEST DUP2 DUP2 LT PUSH2 0x2599 JUMPI JUMPDEST DUP2 DUP2 LT PUSH2 0x2581 JUMPI JUMPDEST DUP2 DUP2 LT PUSH2 0x2569 JUMPI JUMPDEST DUP2 DUP2 LT PUSH2 0x2551 JUMPI JUMPDEST DUP2 DUP2 LT PUSH2 0x2539 JUMPI JUMPDEST DUP2 DUP2 LT PUSH2 0x2521 JUMPI JUMPDEST DUP2 DUP2 LT PUSH2 0x2509 JUMPI JUMPDEST DUP2 DUP2 LT PUSH2 0x24F1 JUMPI JUMPDEST DUP2 DUP2 LT PUSH2 0x24D9 JUMPI JUMPDEST DUP2 DUP2 LT PUSH2 0x24C1 JUMPI JUMPDEST LT PUSH2 0x24B3 JUMPI JUMPDEST POP SUB DUP4 PUSH2 0x218A JUMP JUMPDEST JUMP JUMPDEST PUSH1 0xF0 SHR DUP2 MSTORE PUSH1 0x20 ADD PUSH0 PUSH2 0x24A9 JUMP JUMPDEST SWAP3 PUSH1 0x20 PUSH1 0x1 SWAP2 PUSH2 0xFFFF DUP6 PUSH1 0xE0 SHR AND DUP2 MSTORE ADD SWAP4 ADD PUSH2 0x24A3 JUMP JUMPDEST SWAP3 PUSH1 0x20 PUSH1 0x1 SWAP2 PUSH2 0xFFFF DUP6 PUSH1 0xD0 SHR AND DUP2 MSTORE ADD SWAP4 ADD PUSH2 0x249B JUMP JUMPDEST SWAP3 PUSH1 0x20 PUSH1 0x1 SWAP2 PUSH2 0xFFFF DUP6 PUSH1 0xC0 SHR AND DUP2 MSTORE ADD SWAP4 ADD PUSH2 0x2493 JUMP JUMPDEST SWAP3 PUSH1 0x20 PUSH1 0x1 SWAP2 PUSH2 0xFFFF DUP6 PUSH1 0xB0 SHR AND DUP2 MSTORE ADD SWAP4 ADD PUSH2 0x248B JUMP JUMPDEST SWAP3 PUSH1 0x20 PUSH1 0x1 SWAP2 PUSH2 0xFFFF DUP6 PUSH1 0xA0 SHR AND DUP2 MSTORE ADD SWAP4 ADD PUSH2 0x2483 JUMP JUMPDEST SWAP3 PUSH1 0x20 PUSH1 0x1 SWAP2 PUSH2 0xFFFF DUP6 PUSH1 0x90 SHR AND DUP2 MSTORE ADD SWAP4 ADD PUSH2 0x247B JUMP JUMPDEST SWAP3 PUSH1 0x20 PUSH1 0x1 SWAP2 PUSH2 0xFFFF DUP6 PUSH1 0x80 SHR AND DUP2 MSTORE ADD SWAP4 ADD PUSH2 0x2473 JUMP JUMPDEST SWAP3 PUSH1 0x20 PUSH1 0x1 SWAP2 PUSH2 0xFFFF DUP6 PUSH1 0x70 SHR AND DUP2 MSTORE ADD SWAP4 ADD PUSH2 0x246B JUMP JUMPDEST SWAP3 PUSH1 0x20 PUSH1 0x1 SWAP2 PUSH2 0xFFFF DUP6 PUSH1 0x60 SHR AND DUP2 MSTORE ADD SWAP4 ADD PUSH2 0x2463 JUMP JUMPDEST SWAP3 PUSH1 0x20 PUSH1 0x1 SWAP2 PUSH2 0xFFFF DUP6 PUSH1 0x50 SHR AND DUP2 MSTORE ADD SWAP4 ADD PUSH2 0x245B JUMP JUMPDEST SWAP3 PUSH1 0x20 PUSH1 0x1 SWAP2 PUSH2 0xFFFF DUP6 PUSH1 0x40 SHR AND DUP2 MSTORE ADD SWAP4 ADD PUSH2 0x2453 JUMP JUMPDEST SWAP3 PUSH1 0x20 PUSH1 0x1 SWAP2 PUSH2 0xFFFF DUP6 PUSH1 0x30 SHR AND DUP2 MSTORE ADD SWAP4 ADD PUSH2 0x244B JUMP JUMPDEST SWAP3 PUSH1 0x20 PUSH1 0x1 SWAP2 PUSH2 0xFFFF DUP6 DUP4 SHR AND DUP2 MSTORE ADD SWAP4 ADD PUSH2 0x2443 JUMP JUMPDEST SWAP3 PUSH1 0x20 PUSH1 0x1 SWAP2 PUSH2 0xFFFF DUP6 PUSH1 0x10 SHR AND DUP2 MSTORE ADD SWAP4 ADD PUSH2 0x243B JUMP JUMPDEST SWAP3 PUSH1 0x20 PUSH1 0x1 SWAP2 PUSH2 0xFFFF DUP6 AND DUP2 MSTORE ADD SWAP4 ADD PUSH2 0x2433 JUMP JUMPDEST SWAP2 PUSH1 0x10 SWAP2 SWAP4 POP PUSH2 0x200 PUSH1 0x1 SWAP2 DUP7 SLOAD PUSH2 0xFFFF DUP2 AND DUP3 MSTORE PUSH2 0xFFFF DUP2 DUP7 SHR AND PUSH1 0x20 DUP4 ADD MSTORE PUSH2 0xFFFF DUP2 PUSH1 0x20 SHR AND PUSH1 0x40 DUP4 ADD MSTORE PUSH2 0xFFFF DUP2 PUSH1 0x30 SHR AND PUSH1 0x60 DUP4 ADD MSTORE PUSH2 0xFFFF DUP2 PUSH1 0x40 SHR AND PUSH1 0x80 DUP4 ADD MSTORE PUSH2 0xFFFF DUP2 PUSH1 0x50 SHR AND PUSH1 0xA0 DUP4 ADD MSTORE PUSH2 0xFFFF DUP2 PUSH1 0x60 SHR AND PUSH1 0xC0 DUP4 ADD MSTORE PUSH2 0xFFFF DUP2 PUSH1 0x70 SHR AND PUSH1 0xE0 DUP4 ADD MSTORE PUSH2 0xFFFF DUP2 PUSH1 0x80 SHR AND PUSH2 0x100 DUP4 ADD MSTORE PUSH2 0xFFFF DUP2 PUSH1 0x90 SHR AND PUSH2 0x120 DUP4 ADD MSTORE PUSH2 0xFFFF DUP2 PUSH1 0xA0 SHR AND PUSH2 0x140 DUP4 ADD MSTORE PUSH2 0xFFFF DUP2 PUSH1 0xB0 SHR AND PUSH2 0x160 DUP4 ADD MSTORE PUSH2 0xFFFF DUP2 PUSH1 0xC0 SHR AND PUSH2 0x180 DUP4 ADD MSTORE PUSH2 0xFFFF DUP2 PUSH1 0xD0 SHR AND PUSH2 0x1A0 DUP4 ADD MSTORE PUSH2 0xFFFF DUP2 PUSH1 0xE0 SHR AND PUSH2 0x1C0 DUP4 ADD MSTORE PUSH1 0xF0 SHR PUSH2 0x1E0 DUP3 ADD MSTORE ADD SWAP5 ADD SWAP3 ADD DUP6 SWAP3 SWAP4 SWAP2 PUSH2 0x241B JUMP JUMPDEST PUSH1 0x40 MLOAD SWAP1 PUSH2 0x271A DUP3 PUSH2 0x2136 JUMP JUMPDEST PUSH0 PUSH2 0x120 DUP4 DUP3 DUP2 MSTORE DUP3 PUSH1 0x20 DUP3 ADD MSTORE DUP3 PUSH1 0x40 DUP3 ADD MSTORE DUP3 PUSH1 0x60 DUP3 ADD MSTORE DUP3 PUSH1 0x80 DUP3 ADD MSTORE DUP3 PUSH1 0xA0 DUP3 ADD MSTORE DUP3 PUSH1 0xC0 DUP3 ADD MSTORE DUP3 PUSH1 0xE0 DUP3 ADD MSTORE DUP3 PUSH2 0x100 DUP3 ADD MSTORE ADD MSTORE JUMP JUMPDEST PUSH0 JUMPDEST DUP3 DUP2 LT PUSH2 0x2765 JUMPI POP POP POP JUMP JUMPDEST PUSH1 0x20 SWAP1 PUSH2 0x2770 PUSH2 0x270D JUMP JUMPDEST DUP2 DUP5 ADD MSTORE ADD PUSH2 0x2759 JUMP JUMPDEST SWAP1 PUSH1 0x40 MLOAD PUSH2 0x2787 DUP2 PUSH2 0x2136 JUMP JUMPDEST PUSH2 0x120 PUSH1 0xFF PUSH1 0x2 DUP4 SWAP6 DUP3 DUP2 SLOAD AND ISZERO ISZERO DUP6 MSTORE PUSH1 0x1 DUP2 ADD SLOAD PUSH1 0x20 DUP7 ADD MSTORE ADD SLOAD DUP2 DUP2 AND PUSH1 0x40 DUP6 ADD MSTORE DUP2 DUP2 PUSH1 0x8 SHR AND PUSH1 0x60 DUP6 ADD MSTORE DUP2 DUP2 PUSH1 0x10 SHR AND PUSH1 0x80 DUP6 ADD MSTORE DUP2 DUP2 PUSH1 0x18 SHR AND PUSH1 0xA0 DUP6 ADD MSTORE DUP2 DUP2 PUSH1 0x20 SHR AND PUSH1 0xC0 DUP6 ADD MSTORE DUP2 DUP2 PUSH1 0x28 SHR AND PUSH1 0xE0 DUP6 ADD MSTORE DUP2 DUP2 PUSH1 0x30 SHR AND PUSH2 0x100 DUP6 ADD MSTORE PUSH1 0x38 SHR AND SWAP2 ADD MSTORE JUMP JUMPDEST PUSH1 0x1 PUSH1 0x1 PUSH1 0x40 SHL SUB DUP2 GT PUSH2 0xF09 JUMPI PUSH1 0x5 SHL PUSH1 0x20 ADD SWAP1 JUMP JUMPDEST PUSH1 0x4 DUP3 LT ISZERO PUSH2 0x5B3 JUMPI MSTORE JUMP JUMPDEST DUP1 MLOAD DUP3 LT ISZERO PUSH2 0x1FB4 JUMPI PUSH1 0x20 SWAP2 PUSH1 0x5 SHL ADD ADD SWAP1 JUMP JUMPDEST SWAP3 SWAP2 SWAP1 PUSH2 0x283B DUP2 PUSH2 0x27F8 JUMP JUMPDEST SWAP4 PUSH2 0x2849 PUSH1 0x40 MLOAD SWAP6 DUP7 PUSH2 0x218A JUMP JUMPDEST PUSH1 0x20 DUP6 DUP4 DUP2 MSTORE ADD SWAP2 PUSH1 0x5 SHL DUP2 ADD SWAP3 DUP4 GT PUSH2 0x191 JUMPI SWAP1 JUMPDEST DUP3 DUP3 LT PUSH2 0x286B JUMPI POP POP POP JUMP JUMPDEST DUP2 CALLDATALOAD DUP2 MSTORE PUSH1 0x20 SWAP2 DUP3 ADD SWAP2 ADD PUSH2 0x285F JUMP JUMPDEST DUP2 DUP2 MUL SWAP3 SWAP2 DUP2 ISZERO SWAP2 DUP5 DIV EQ OR ISZERO PUSH2 0x77A JUMPI JUMP JUMPDEST DUP2 DUP2 LT PUSH2 0x2899 JUMPI POP POP JUMP JUMPDEST PUSH0 DUP2 SSTORE PUSH1 0x1 ADD PUSH2 0x288E JUMP JUMPDEST DUP1 SLOAD PUSH0 DUP3 SSTORE DUP1 PUSH2 0x28B2 JUMPI POP POP JUMP JUMPDEST PUSH2 0x24B1 SWAP2 PUSH0 MSTORE PUSH1 0xF PUSH1 0x20 PUSH0 KECCAK256 SWAP2 ADD PUSH1 0x4 SHR DUP2 ADD SWAP1 PUSH2 0x288E JUMP JUMPDEST DUP1 SLOAD PUSH1 0x1 PUSH1 0x40 SHL DUP2 LT ISZERO PUSH2 0xF09 JUMPI PUSH2 0x28E8 SWAP2 PUSH1 0x1 DUP3 ADD DUP2 SSTORE PUSH2 0x207C JUMP JUMPDEST PUSH2 0xFFFF DUP1 DUP4 SWAP5 SWAP4 SLOAD SWAP3 PUSH1 0x3 SHL SWAP4 AND DUP4 SHL SWAP3 SHL NOT AND OR SWAP1 SSTORE JUMP JUMPDEST DUP1 SLOAD PUSH0 DUP3 SSTORE DUP1 PUSH2 0x290F JUMPI POP POP JUMP JUMPDEST PUSH2 0x24B1 SWAP2 PUSH0 MSTORE PUSH1 0x20 PUSH0 KECCAK256 SWAP1 DUP2 ADD SWAP1 PUSH2 0x288E JUMP JUMPDEST PUSH2 0x292A PUSH2 0x270D JUMP JUMPDEST POP PUSH1 0x40 MLOAD PUSH1 0x20 DUP2 ADD SWAP1 TIMESTAMP DUP3 MSTORE PREVRANDAO PUSH1 0x40 DUP3 ADD MSTORE CALLER PUSH1 0x60 SHL PUSH1 0x60 DUP3 ADD MSTORE PUSH1 0x54 DUP2 MSTORE PUSH2 0x2954 PUSH1 0x74 DUP3 PUSH2 0x218A JUMP JUMPDEST MLOAD SWAP1 KECCAK256 PUSH1 0x28 PUSH1 0x64 DUP3 MOD LT ISZERO PUSH2 0x29C8 JUMPI PUSH1 0xD DUP2 PUSH1 0x8 SHR MOD PUSH1 0x8 ADD DUP1 PUSH1 0x8 GT PUSH2 0x77A JUMPI PUSH1 0xFF SWAP1 DUP2 PUSH1 0x6 PUSH1 0x40 MLOAD SWAP5 PUSH2 0x2988 DUP7 PUSH2 0x2136 JUMP JUMPDEST PUSH1 0x1 DUP7 MSTORE PUSH0 PUSH1 0x20 DUP8 ADD MSTORE PUSH0 PUSH1 0x40 DUP8 ADD MSTORE PUSH0 PUSH1 0x60 DUP8 ADD MSTORE PUSH0 PUSH1 0x80 DUP8 ADD MSTORE PUSH0 PUSH1 0xA0 DUP8 ADD MSTORE PUSH0 PUSH1 0xC0 DUP8 ADD MSTORE PUSH0 PUSH1 0xE0 DUP8 ADD MSTORE MOD AND PUSH2 0x100 DUP5 ADD MSTORE AND PUSH2 0x120 DUP3 ADD MSTORE SWAP1 JUMP JUMPDEST PUSH1 0xB DUP2 PUSH1 0x28 SHR MOD PUSH1 0xA ADD DUP1 PUSH1 0xA GT PUSH2 0x77A JUMPI PUSH1 0xB DUP3 PUSH1 0x30 SHR MOD PUSH1 0x8 ADD SWAP1 DUP2 PUSH1 0x8 GT PUSH2 0x77A JUMPI PUSH1 0xB DUP4 PUSH1 0x38 SHR MOD PUSH1 0x9 ADD SWAP1 DUP2 PUSH1 0x9 GT PUSH2 0x77A JUMPI PUSH1 0xFF SWAP3 DUP4 DUP1 SWAP3 PUSH1 0x3 PUSH1 0x40 MLOAD SWAP8 PUSH2 0x2A15 DUP10 PUSH2 0x2136 JUMP JUMPDEST PUSH0 DUP10 MSTORE PUSH0 PUSH1 0x20 DUP11 ADD MSTORE DUP4 DUP3 DUP3 PUSH1 0x10 SHR MOD AND PUSH1 0x40 DUP11 ADD MSTORE DUP4 DUP3 DUP3 PUSH1 0x20 SHR MOD AND PUSH1 0x60 DUP11 ADD MSTORE PUSH1 0x18 SHR AND PUSH1 0x80 DUP9 ADD MSTORE AND PUSH1 0xA0 DUP7 ADD MSTORE AND PUSH1 0xC0 DUP5 ADD MSTORE AND PUSH1 0xE0 DUP3 ADD MSTORE PUSH0 PUSH2 0x100 DUP3 ADD MSTORE PUSH0 PUSH2 0x120 DUP3 ADD MSTORE SWAP1 JUMP JUMPDEST PUSH1 0x40 MLOAD SWAP1 PUSH1 0x80 DUP3 ADD DUP3 DUP2 LT PUSH1 0x1 PUSH1 0x1 PUSH1 0x40 SHL SUB DUP3 GT OR PUSH2 0xF09 JUMPI PUSH1 0x40 MSTORE PUSH1 0x60 DUP1 DUP4 PUSH0 DUP2 MSTORE DUP2 PUSH1 0x20 DUP3 ADD MSTORE DUP2 PUSH1 0x40 DUP3 ADD MSTORE ADD MSTORE JUMP JUMPDEST SWAP1 PUSH2 0x2AA2 DUP3 PUSH2 0x27F8 JUMP JUMPDEST PUSH2 0x2AAF PUSH1 0x40 MLOAD SWAP2 DUP3 PUSH2 0x218A JUMP JUMPDEST DUP3 DUP2 MSTORE DUP1 SWAP3 PUSH2 0x2AC0 PUSH1 0x1F NOT SWAP2 PUSH2 0x27F8 JUMP JUMPDEST ADD SWAP1 PUSH1 0x20 CALLDATASIZE SWAP2 ADD CALLDATACOPY JUMP JUMPDEST PUSH1 0x2 SHL SWAP1 PUSH2 0x3FC PUSH1 0xFC DUP4 AND SWAP3 AND DUP3 SUB PUSH2 0x77A JUMPI JUMP JUMPDEST PUSH1 0xFF PUSH1 0x2 SWAP2 AND ADD SWAP1 PUSH1 0xFF DUP3 GT PUSH2 0x77A JUMPI JUMP JUMPDEST SWAP1 PUSH1 0xFF DUP1 SWAP2 AND SWAP2 AND ADD SWAP1 PUSH1 0xFF DUP3 GT PUSH2 0x77A JUMPI JUMP JUMPDEST PUSH0 NOT DUP2 EQ PUSH2 0x77A JUMPI PUSH1 0x1 ADD SWAP1 JUMP JUMPDEST PUSH1 0xFF AND PUSH1 0xFF DUP2 EQ PUSH2 0x77A JUMPI PUSH1 0x1 ADD SWAP1 JUMP JUMPDEST SWAP1 PUSH2 0x2B2E DUP3 PUSH2 0x27F8 JUMP JUMPDEST PUSH2 0x2B3B PUSH1 0x40 MLOAD SWAP2 DUP3 PUSH2 0x218A JUMP JUMPDEST DUP3 DUP2 MSTORE DUP1 SWAP3 PUSH2 0x2B4C PUSH1 0x1F NOT SWAP2 PUSH2 0x27F8 JUMP JUMPDEST ADD SWAP1 PUSH0 JUMPDEST DUP3 DUP2 LT PUSH2 0x2B5C JUMPI POP POP POP JUMP JUMPDEST PUSH1 0x20 SWAP1 PUSH1 0x40 MLOAD PUSH2 0x2B6B DUP2 PUSH2 0x216E JUMP JUMPDEST PUSH0 DUP2 MSTORE PUSH0 DUP4 DUP3 ADD MSTORE PUSH0 PUSH1 0x40 DUP3 ADD MSTORE PUSH0 PUSH1 0x60 DUP3 ADD MSTORE PUSH0 PUSH1 0x80 DUP3 ADD MSTORE PUSH0 PUSH1 0xA0 DUP3 ADD MSTORE PUSH0 PUSH1 0xC0 DUP3 ADD MSTORE PUSH0 PUSH1 0xE0 DUP3 ADD MSTORE PUSH0 PUSH2 0x100 DUP3 ADD MSTORE PUSH0 PUSH2 0x120 DUP3 ADD MSTORE PUSH0 PUSH2 0x140 DUP3 ADD MSTORE PUSH0 PUSH2 0x160 DUP3 ADD MSTORE DUP3 DUP3 DUP6 ADD ADD MSTORE ADD PUSH2 0x2B50 JUMP JUMPDEST MLOAD SWAP1 PUSH1 0xFF DUP3 AND DUP3 SUB PUSH2 0x191 JUMPI JUMP JUMPDEST SWAP1 PUSH1 0x3 DUP2 LT ISZERO PUSH2 0x1FB4 JUMPI PUSH1 0x5 SHL ADD SWAP1 JUMP JUMPDEST PUSH1 0x40 MLOAD SWAP2 SWAP1 PUSH1 0x60 PUSH2 0x2BEF DUP2 DUP6 PUSH2 0x218A JUMP JUMPDEST PUSH1 0x60 CALLDATASIZE DUP6 CALLDATACOPY PUSH0 JUMPDEST DUP3 MLOAD DUP2 LT ISZERO PUSH2 0x2C6E JUMPI DUP1 PUSH2 0xFFFF DUP4 PUSH2 0x2C10 PUSH1 0x1 SWAP5 DUP8 PUSH2 0x281B JUMP JUMPDEST MLOAD ADD MLOAD AND PUSH2 0x2C1F JUMPI JUMPDEST ADD PUSH2 0x2BF6 JUMP JUMPDEST PUSH1 0xFF PUSH2 0x120 PUSH2 0x2C2E DUP4 DUP8 PUSH2 0x281B JUMP JUMPDEST MLOAD ADD MLOAD PUSH2 0x2C3A DUP2 PUSH2 0x226A JUMP JUMPDEST PUSH2 0x2C43 DUP2 PUSH2 0x226A JUMP JUMPDEST AND PUSH1 0xFF PUSH2 0x2C65 PUSH2 0x2C5E DUP3 PUSH2 0x2C57 DUP6 DUP13 PUSH2 0x2BCD JUMP JUMPDEST MLOAD AND PUSH2 0x2B13 JUMP JUMPDEST SWAP3 DUP10 PUSH2 0x2BCD JUMP JUMPDEST SWAP2 AND SWAP1 MSTORE PUSH2 0x2C19 JUMP JUMPDEST POP POP PUSH0 JUMPDEST DUP2 MLOAD DUP2 LT ISZERO PUSH2 0x2CDF JUMPI DUP1 PUSH1 0x3 PUSH1 0xFF PUSH2 0x2CAF DUP2 PUSH2 0x120 PUSH2 0x2C93 PUSH1 0x1 SWAP8 DUP10 PUSH2 0x281B JUMP JUMPDEST MLOAD ADD MLOAD PUSH2 0x2C9F DUP2 PUSH2 0x226A JUMP JUMPDEST PUSH2 0x2CA8 DUP2 PUSH2 0x226A JUMP JUMPDEST AND DUP9 PUSH2 0x2BCD JUMP JUMPDEST MLOAD AND LT ISZERO PUSH2 0x2CBE JUMPI JUMPDEST ADD PUSH2 0x2C72 JUMP JUMPDEST PUSH2 0x2CC8 DUP2 DUP5 PUSH2 0x281B JUMP JUMPDEST MLOAD PUSH1 0xFF PUSH2 0x2CD7 DUP2 DUP4 MLOAD AND PUSH2 0x2ADF JUMP JUMPDEST AND SWAP1 MSTORE PUSH2 0x2CB8 JUMP JUMPDEST POP POP SWAP1 POP JUMP JUMPDEST PUSH0 JUMPDEST DUP2 MLOAD DUP2 LT ISZERO PUSH2 0x2D16 JUMPI PUSH2 0xFFFF PUSH1 0x60 PUSH2 0x2CFF DUP4 DUP6 PUSH2 0x281B JUMP JUMPDEST MLOAD ADD MLOAD AND PUSH2 0x2D0F JUMPI PUSH1 0x1 ADD PUSH2 0x2CE7 JUMP JUMPDEST POP POP PUSH1 0x1 SWAP1 JUMP JUMPDEST POP POP PUSH0 SWAP1 JUMP JUMPDEST SWAP1 PUSH2 0xFFFF DUP1 SWAP2 AND SWAP2 AND ADD SWAP1 PUSH2 0xFFFF DUP3 GT PUSH2 0x77A JUMPI JUMP JUMPDEST PUSH0 JUMPDEST DUP2 MLOAD DUP2 LT ISZERO PUSH2 0x2D97 JUMPI DUP1 PUSH2 0xFFFF PUSH1 0x60 PUSH2 0x2D4F PUSH1 0x1 SWAP5 DUP7 PUSH2 0x281B JUMP JUMPDEST MLOAD ADD MLOAD AND PUSH2 0x2D5E JUMPI JUMPDEST ADD PUSH2 0x2D34 JUMP JUMPDEST PUSH1 0xFF PUSH1 0x40 PUSH2 0x2D6C DUP4 DUP7 PUSH2 0x281B JUMP JUMPDEST MLOAD ADD MLOAD AND PUSH2 0xFFFF PUSH2 0x2D8F PUSH2 0x100 PUSH2 0x2D83 DUP6 DUP9 PUSH2 0x281B JUMP JUMPDEST MLOAD ADD SWAP3 DUP3 DUP5 MLOAD AND PUSH2 0x2D1C JUMP JUMPDEST AND SWAP1 MSTORE PUSH2 0x2D58 JUMP JUMPDEST POP POP JUMP JUMPDEST SWAP1 PUSH0 SWAP1 PUSH0 PUSH0 SWAP5 PUSH0 SWAP2 PUSH0 JUMPDEST DUP7 MLOAD DUP2 LT ISZERO PUSH2 0x2E2A JUMPI PUSH2 0x2DD1 PUSH2 0x2DCA PUSH1 0x60 PUSH2 0x2DC0 DUP5 DUP12 PUSH2 0x281B JUMP JUMPDEST MLOAD ADD MLOAD PUSH2 0xFFFF AND SWAP1 JUMP JUMPDEST PUSH2 0xFFFF AND SWAP1 JUMP JUMPDEST ISZERO ISZERO DUP1 PUSH2 0x2E0B JUMPI JUMPDEST PUSH2 0x2DE6 JUMPI JUMPDEST PUSH1 0x1 ADD PUSH2 0x2DA5 JUMP JUMPDEST SWAP7 POP POP SWAP3 POP PUSH2 0x2DFB PUSH2 0x100 PUSH2 0x2DC0 DUP8 DUP8 PUSH2 0x281B JUMP JUMPDEST SWAP3 PUSH1 0x1 DUP1 PUSH1 0xFF DUP9 AND SWAP8 SWAP1 POP PUSH2 0x2DDE JUMP JUMPDEST POP PUSH2 0x2E1C PUSH2 0x100 PUSH2 0x2DC0 DUP4 DUP11 PUSH2 0x281B JUMP JUMPDEST PUSH2 0xFFFF DUP1 DUP9 AND SWAP2 AND GT PUSH2 0x2DD9 JUMP JUMPDEST POP SWAP2 SWAP5 SWAP1 SWAP3 SWAP6 PUSH0 JUMPDEST DUP8 MLOAD DUP2 LT ISZERO PUSH2 0x2EA8 JUMPI PUSH2 0x2E4D PUSH2 0x2DCA PUSH1 0x60 PUSH2 0x2DC0 DUP5 DUP13 PUSH2 0x281B JUMP JUMPDEST ISZERO ISZERO DUP1 PUSH2 0x2E89 JUMPI JUMPDEST PUSH2 0x2E62 JUMPI JUMPDEST PUSH1 0x1 ADD PUSH2 0x2E32 JUMP JUMPDEST SWAP6 POP SWAP2 POP SWAP3 POP PUSH2 0x2E78 PUSH2 0x100 PUSH2 0x2DC0 DUP7 DUP9 PUSH2 0x281B JUMP JUMPDEST SWAP3 PUSH0 SWAP2 PUSH1 0x1 PUSH1 0xFF DUP8 AND SWAP7 SWAP1 POP PUSH2 0x2E5A JUMP JUMPDEST POP PUSH2 0x2E9A PUSH2 0x100 PUSH2 0x2DC0 DUP4 DUP12 PUSH2 0x281B JUMP JUMPDEST PUSH2 0xFFFF DUP1 DUP9 AND SWAP2 AND GT PUSH2 0x2E55 JUMP JUMPDEST POP SWAP2 SWAP4 PUSH2 0xFFFF SWAP1 SWAP6 SWAP2 SWAP4 SWAP6 AND ISZERO PUSH2 0x2EFE JUMPI SWAP2 PUSH2 0x100 SWAP2 PUSH0 SWAP4 DUP6 DUP6 EQ PUSH2 0x2EF6 JUMPI POP SWAP6 JUMPDEST DUP5 DUP5 EQ PUSH2 0x2EE7 JUMPI POP PUSH2 0x2EE0 SWAP1 PUSH1 0xFF DUP8 AND SWAP1 PUSH2 0x281B JUMP JUMPDEST MLOAD ADD MSTORE SWAP2 SWAP1 JUMP JUMPDEST PUSH2 0x2EE0 SWAP2 POP PUSH1 0xFF DUP8 AND SWAP1 PUSH2 0x281B JUMP JUMPDEST SWAP1 POP SWAP6 PUSH2 0x2ECA JUMP JUMPDEST POP POP PUSH2 0x2F1E SWAP3 SWAP4 SWAP2 POP PUSH2 0x2F10 DUP2 PUSH2 0x2D32 JUMP JUMPDEST PUSH2 0x2F19 DUP3 PUSH2 0x2D32 JUMP JUMPDEST PUSH2 0x2D9B JUMP JUMPDEST SWAP1 SWAP2 JUMP JUMPDEST PUSH2 0xFFFF PUSH0 NOT SWAP2 AND ADD SWAP1 PUSH2 0xFFFF DUP3 GT PUSH2 0x77A JUMPI JUMP JUMPDEST SWAP1 PUSH2 0xFFFF DUP1 SWAP2 AND SWAP2 AND SUB SWAP1 PUSH2 0xFFFF DUP3 GT PUSH2 0x77A JUMPI JUMP JUMPDEST PUSH1 0x40 MLOAD SWAP1 PUSH2 0x2F5B PUSH1 0x40 DUP4 PUSH2 0x218A JUMP JUMPDEST PUSH1 0xA DUP3 MSTORE PUSH10 0x13185CDD0814DD185B99 PUSH1 0xB2 SHL PUSH1 0x20 DUP4 ADD MSTORE JUMP JUMPDEST SWAP6 SWAP2 PUSH1 0xFF SWAP1 SWAP8 SWAP5 SWAP6 SWAP4 SWAP2 SWAP8 AND PUSH2 0xFFFF PUSH1 0x60 PUSH2 0x2F8F DUP4 DUP11 PUSH2 0x281B JUMP JUMPDEST MLOAD ADD MLOAD AND ISZERO PUSH2 0x3346 JUMPI PUSH0 SWAP6 PUSH0 JUMPDEST DUP10 MLOAD DUP2 LT ISZERO PUSH2 0x2FD9 JUMPI PUSH2 0xFFFF PUSH1 0x60 PUSH2 0x2FB4 DUP4 DUP14 PUSH2 0x281B JUMP JUMPDEST MLOAD ADD MLOAD AND PUSH2 0x2FC5 JUMPI JUMPDEST PUSH1 0x1 ADD PUSH2 0x2F9C JUMP JUMPDEST SWAP7 PUSH2 0x2FD1 PUSH1 0x1 SWAP2 PUSH2 0x2B05 JUMP JUMPDEST SWAP8 SWAP1 POP PUSH2 0x2FBD JUMP JUMPDEST POP SWAP1 SWAP3 SWAP5 SWAP8 SWAP2 SWAP4 SWAP6 SWAP7 DUP8 ISZERO PUSH2 0x333A JUMPI PUSH0 SWAP8 PUSH1 0x1 DUP2 SUB PUSH2 0x32A7 JUMPI POP PUSH0 JUMPDEST DUP4 MLOAD DUP2 LT ISZERO PUSH2 0x3299 JUMPI PUSH2 0xFFFF PUSH1 0x60 PUSH2 0x300D DUP4 DUP8 PUSH2 0x281B JUMP JUMPDEST MLOAD ADD MLOAD AND PUSH2 0x301D JUMPI PUSH1 0x1 ADD PUSH2 0x2FF5 JUMP JUMPDEST SWAP1 SWAP2 SWAP3 SWAP4 SWAP5 SWAP6 SWAP7 SWAP8 POP SWAP2 JUMPDEST PUSH2 0xFFFF PUSH1 0x60 PUSH2 0x3037 DUP6 DUP8 PUSH2 0x281B JUMP JUMPDEST MLOAD ADD MLOAD AND SWAP1 PUSH1 0xFF PUSH2 0x3048 DUP8 DUP6 PUSH2 0x281B JUMP JUMPDEST MLOAD MLOAD AND PUSH1 0xFF PUSH1 0x20 PUSH2 0x3059 DUP8 DUP10 PUSH2 0x281B JUMP JUMPDEST MLOAD ADD MLOAD AND PUSH1 0xFF PUSH1 0xA0 PUSH2 0x306B DUP11 DUP9 PUSH2 0x281B JUMP JUMPDEST MLOAD ADD MLOAD AND PUSH1 0xFF PUSH1 0xC0 PUSH2 0x307D DUP10 DUP12 PUSH2 0x281B JUMP JUMPDEST MLOAD ADD MLOAD AND SWAP2 PUSH1 0x3 DUP13 MUL SWAP5 DUP13 DUP7 DIV PUSH1 0x3 EQ DUP14 ISZERO OR ISZERO PUSH2 0x77A JUMPI PUSH2 0x30A0 SWAP6 SHR SWAP4 PUSH2 0x38D0 JUMP JUMPDEST SWAP1 DUP1 PUSH2 0xFFFF DUP1 PUSH1 0x60 PUSH2 0x30B2 DUP10 DUP12 PUSH2 0x281B JUMP JUMPDEST MLOAD ADD MLOAD AND SWAP2 AND GT PUSH2 0x3280 JUMPI JUMPDEST PUSH0 PUSH1 0xE0 PUSH2 0x30CB DUP8 DUP10 PUSH2 0x281B JUMP JUMPDEST MLOAD ADD MLOAD ISZERO ISZERO DUP1 PUSH2 0x3260 JUMPI JUMPDEST ISZERO PUSH2 0x3236 JUMPI POP POP POP PUSH2 0x30F9 PUSH2 0xFFFF PUSH1 0x60 PUSH2 0x30F0 DUP7 DUP9 PUSH2 0x281B JUMP JUMPDEST MLOAD ADD MLOAD AND PUSH2 0x2F22 JUMP JUMPDEST PUSH1 0x1 PUSH1 0x60 PUSH2 0x3107 DUP7 DUP9 PUSH2 0x281B JUMP JUMPDEST MLOAD ADD MSTORE PUSH1 0x1 SWAP2 PUSH2 0x3115 PUSH2 0x2F4C JUMP JUMPDEST SWAP3 JUMPDEST PUSH2 0x3226 JUMPI JUMPDEST PUSH2 0xFFFF PUSH1 0x60 PUSH2 0x312B DUP8 DUP10 PUSH2 0x281B JUMP JUMPDEST MLOAD ADD MLOAD AND SWAP2 PUSH2 0x160 PUSH2 0x315F DUP10 PUSH2 0x140 PUSH2 0x3144 DUP3 DUP11 PUSH2 0x281B JUMP JUMPDEST MLOAD ADD MLOAD SWAP8 PUSH2 0x3151 DUP10 PUSH2 0x226A JUMP JUMPDEST PUSH2 0x315A DUP10 PUSH2 0x226A JUMP JUMPDEST PUSH2 0x281B JUMP JUMPDEST MLOAD ADD MLOAD SWAP6 PUSH1 0x4 DUP8 LT ISZERO PUSH2 0x5B3 JUMPI PUSH2 0x160 PUSH2 0x3196 DUP3 PUSH2 0x140 PUSH2 0x3180 DUP3 DUP14 PUSH2 0x281B JUMP JUMPDEST MLOAD ADD MLOAD SWAP11 PUSH2 0x318D DUP13 PUSH2 0x226A JUMP JUMPDEST PUSH2 0x315A DUP13 PUSH2 0x226A JUMP JUMPDEST MLOAD ADD MLOAD SWAP9 PUSH1 0x4 DUP11 LT ISZERO PUSH2 0x5B3 JUMPI PUSH1 0x40 MLOAD SWAP11 PUSH2 0x31B0 DUP13 PUSH2 0x2152 JUMP JUMPDEST PUSH1 0xFF AND DUP12 MSTORE PUSH1 0x20 DUP12 ADD PUSH0 SWAP1 MSTORE PUSH1 0x40 DUP12 ADD MSTORE PUSH1 0xFF AND PUSH1 0x60 DUP11 ADD MSTORE PUSH2 0xFFFF AND DUP1 PUSH1 0x80 DUP11 ADD MSTORE PUSH1 0xA0 DUP10 ADD MSTORE PUSH1 0xC0 DUP9 ADD MSTORE PUSH1 0xE0 DUP8 ADD MSTORE PUSH2 0x100 DUP7 ADD MSTORE PUSH1 0xFF AND PUSH2 0x120 DUP6 ADD MSTORE PUSH1 0xFF AND PUSH2 0x140 DUP5 ADD MSTORE PUSH1 0xFF AND PUSH2 0x160 DUP4 ADD MSTORE PUSH1 0xFF AND PUSH2 0x180 DUP3 ADD MSTORE PUSH2 0x3216 DUP3 DUP5 PUSH2 0x281B JUMP JUMPDEST MSTORE PUSH2 0x3220 SWAP2 PUSH2 0x281B JUMP JUMPDEST POP PUSH1 0x1 SWAP1 JUMP JUMPDEST SWAP2 POP PUSH2 0x3230 PUSH2 0x2F4C JUMP JUMPDEST SWAP2 PUSH2 0x311C JUMP JUMPDEST PUSH1 0x60 PUSH2 0x3246 DUP8 DUP10 SWAP7 SWAP5 SWAP6 SWAP7 PUSH2 0x281B JUMP JUMPDEST MLOAD ADD PUSH2 0xFFFF PUSH2 0x3258 DUP6 DUP3 DUP5 MLOAD AND PUSH2 0x2F36 JUMP JUMPDEST AND SWAP1 MSTORE PUSH2 0x3117 JUMP JUMPDEST POP PUSH2 0xFFFF PUSH1 0x60 PUSH2 0x3270 DUP9 DUP11 PUSH2 0x281B JUMP JUMPDEST MLOAD ADD MLOAD AND PUSH2 0xFFFF DUP4 AND LT ISZERO PUSH2 0x30D6 JUMP JUMPDEST POP PUSH2 0xFFFF PUSH1 0x60 PUSH2 0x3290 DUP7 DUP9 PUSH2 0x281B JUMP JUMPDEST MLOAD ADD MLOAD AND PUSH2 0x30BE JUMP JUMPDEST POP SWAP1 SWAP7 SWAP2 SWAP3 SWAP4 SWAP5 SWAP6 SWAP7 PUSH2 0x3028 JUMP JUMPDEST PUSH2 0x32D0 SWAP2 SWAP9 POP DUP3 PUSH2 0x32CA DUP9 PUSH1 0xFF PUSH2 0x32C4 DUP11 SWAP10 SWAP9 SWAP8 SWAP15 SWAP13 SWAP12 SWAP11 PUSH2 0x2ACA JUMP JUMPDEST AND PUSH2 0x225D JUMP JUMPDEST SHR PUSH2 0x2231 JUMP JUMPDEST SWAP8 PUSH0 SWAP8 PUSH0 JUMPDEST DUP4 MLOAD DUP2 LT ISZERO PUSH2 0x332A JUMPI PUSH2 0xFFFF PUSH1 0x60 PUSH2 0x32ED DUP4 DUP8 PUSH2 0x281B JUMP JUMPDEST MLOAD ADD MLOAD AND PUSH2 0x32FE JUMPI JUMPDEST PUSH1 0x1 ADD PUSH2 0x32D5 JUMP JUMPDEST SWAP9 DUP11 DUP2 EQ PUSH2 0x3319 JUMPI PUSH2 0x3311 PUSH1 0x1 SWAP2 PUSH2 0x2B05 JUMP JUMPDEST SWAP10 SWAP1 POP PUSH2 0x32F6 JUMP JUMPDEST POP SWAP2 SWAP4 SWAP6 SWAP8 SWAP1 SWAP3 SWAP5 SWAP7 SWAP9 POP SWAP2 PUSH2 0x3028 JUMP JUMPDEST POP SWAP2 SWAP4 SWAP6 SWAP8 POP SWAP8 SWAP2 SWAP4 SWAP6 SWAP8 PUSH2 0x3028 JUMP JUMPDEST POP POP POP POP POP POP POP POP PUSH0 SWAP1 JUMP JUMPDEST POP POP POP POP SWAP3 POP POP POP PUSH0 SWAP1 JUMP JUMPDEST SWAP6 SWAP2 PUSH1 0xFF SWAP1 SWAP8 SWAP5 SWAP6 SWAP4 SWAP2 SWAP8 AND PUSH2 0xFFFF PUSH1 0x60 PUSH2 0x336D DUP4 DUP11 PUSH2 0x281B JUMP JUMPDEST MLOAD ADD MLOAD AND ISZERO PUSH2 0x3346 JUMPI PUSH0 SWAP6 PUSH0 JUMPDEST DUP10 MLOAD DUP2 LT ISZERO PUSH2 0x33B7 JUMPI PUSH2 0xFFFF PUSH1 0x60 PUSH2 0x3392 DUP4 DUP14 PUSH2 0x281B JUMP JUMPDEST MLOAD ADD MLOAD AND PUSH2 0x33A3 JUMPI JUMPDEST PUSH1 0x1 ADD PUSH2 0x337A JUMP JUMPDEST SWAP7 PUSH2 0x33AF PUSH1 0x1 SWAP2 PUSH2 0x2B05 JUMP JUMPDEST SWAP8 SWAP1 POP PUSH2 0x339B JUMP JUMPDEST POP SWAP1 SWAP3 SWAP5 SWAP8 SWAP2 SWAP4 SWAP6 SWAP7 DUP8 ISZERO PUSH2 0x333A JUMPI PUSH0 SWAP8 PUSH1 0x1 DUP2 SUB PUSH2 0x363C JUMPI POP PUSH0 JUMPDEST DUP4 MLOAD DUP2 LT ISZERO PUSH2 0x362E JUMPI PUSH2 0xFFFF PUSH1 0x60 PUSH2 0x33EB DUP4 DUP8 PUSH2 0x281B JUMP JUMPDEST MLOAD ADD MLOAD AND PUSH2 0x33FB JUMPI PUSH1 0x1 ADD PUSH2 0x33D3 JUMP JUMPDEST SWAP1 SWAP2 SWAP3 SWAP4 SWAP5 SWAP6 SWAP7 SWAP8 POP SWAP2 JUMPDEST PUSH2 0xFFFF PUSH1 0x60 PUSH2 0x3415 DUP6 DUP8 PUSH2 0x281B JUMP JUMPDEST MLOAD ADD MLOAD AND SWAP1 PUSH1 0xFF PUSH2 0x3426 DUP8 DUP6 PUSH2 0x281B JUMP JUMPDEST MLOAD MLOAD AND PUSH1 0xFF PUSH1 0x20 PUSH2 0x3437 DUP8 DUP10 PUSH2 0x281B JUMP JUMPDEST MLOAD ADD MLOAD AND PUSH1 0xFF PUSH1 0xA0 PUSH2 0x3449 DUP11 DUP9 PUSH2 0x281B JUMP JUMPDEST MLOAD ADD MLOAD AND PUSH1 0xFF PUSH1 0xC0 PUSH2 0x345B DUP10 DUP12 PUSH2 0x281B JUMP JUMPDEST MLOAD ADD MLOAD AND SWAP2 PUSH1 0x3 DUP13 MUL SWAP5 DUP13 DUP7 DIV PUSH1 0x3 EQ DUP14 ISZERO OR ISZERO PUSH2 0x77A JUMPI PUSH2 0x347E SWAP6 SHR SWAP4 PUSH2 0x38D0 JUMP JUMPDEST SWAP1 DUP1 PUSH2 0xFFFF DUP1 PUSH1 0x60 PUSH2 0x3490 DUP10 DUP12 PUSH2 0x281B JUMP JUMPDEST MLOAD ADD MLOAD AND SWAP2 AND GT PUSH2 0x3615 JUMPI JUMPDEST PUSH0 PUSH1 0xE0 PUSH2 0x34A9 DUP8 DUP10 PUSH2 0x281B JUMP JUMPDEST MLOAD ADD MLOAD ISZERO ISZERO DUP1 PUSH2 0x35F5 JUMPI JUMPDEST ISZERO PUSH2 0x35CB JUMPI POP POP POP PUSH2 0x34CE PUSH2 0xFFFF PUSH1 0x60 PUSH2 0x30F0 DUP7 DUP9 PUSH2 0x281B JUMP JUMPDEST PUSH1 0x1 PUSH1 0x60 PUSH2 0x34DC DUP7 DUP9 PUSH2 0x281B JUMP JUMPDEST MLOAD ADD MSTORE PUSH1 0x1 SWAP2 PUSH2 0x34EA PUSH2 0x2F4C JUMP JUMPDEST SWAP3 JUMPDEST PUSH2 0x35BB JUMPI JUMPDEST PUSH2 0xFFFF PUSH1 0x60 PUSH2 0x3500 DUP8 DUP10 PUSH2 0x281B JUMP JUMPDEST MLOAD ADD MLOAD AND SWAP2 PUSH2 0x160 PUSH2 0x3519 DUP10 PUSH2 0x140 PUSH2 0x3144 DUP3 DUP11 PUSH2 0x281B JUMP JUMPDEST MLOAD ADD MLOAD SWAP6 PUSH1 0x4 DUP8 LT ISZERO PUSH2 0x5B3 JUMPI PUSH2 0x160 PUSH2 0x353A DUP3 PUSH2 0x140 PUSH2 0x3180 DUP3 DUP14 PUSH2 0x281B JUMP JUMPDEST MLOAD ADD MLOAD SWAP9 PUSH1 0x4 DUP11 LT ISZERO PUSH2 0x5B3 JUMPI PUSH1 0x40 MLOAD SWAP11 PUSH2 0x3554 DUP13 PUSH2 0x2152 JUMP JUMPDEST PUSH1 0xFF AND DUP12 MSTORE PUSH1 0x20 DUP12 ADD PUSH1 0x1 SWAP1 MSTORE PUSH1 0x40 DUP12 ADD MSTORE PUSH1 0xFF AND PUSH1 0x60 DUP11 ADD MSTORE PUSH2 0xFFFF AND DUP1 PUSH1 0x80 DUP11 ADD MSTORE PUSH1 0xA0 DUP10 ADD MSTORE PUSH1 0xC0 DUP9 ADD MSTORE PUSH1 0xE0 DUP8 ADD MSTORE PUSH2 0x100 DUP7 ADD MSTORE PUSH1 0xFF AND PUSH2 0x120 DUP6 ADD MSTORE PUSH1 0xFF AND PUSH2 0x140 DUP5 ADD MSTORE PUSH1 0xFF AND PUSH2 0x160 DUP4 ADD MSTORE PUSH1 0xFF AND PUSH2 0x180 DUP3 ADD MSTORE PUSH2 0x3216 DUP3 DUP5 PUSH2 0x281B JUMP JUMPDEST SWAP2 POP PUSH2 0x35C5 PUSH2 0x2F4C JUMP JUMPDEST SWAP2 PUSH2 0x34F1 JUMP JUMPDEST PUSH1 0x60 PUSH2 0x35DB DUP8 DUP10 SWAP7 SWAP5 SWAP6 SWAP7 PUSH2 0x281B JUMP JUMPDEST MLOAD ADD PUSH2 0xFFFF PUSH2 0x35ED DUP6 DUP3 DUP5 MLOAD AND PUSH2 0x2F36 JUMP JUMPDEST AND SWAP1 MSTORE PUSH2 0x34EC JUMP JUMPDEST POP PUSH2 0xFFFF PUSH1 0x60 PUSH2 0x3605 DUP9 DUP11 PUSH2 0x281B JUMP JUMPDEST MLOAD ADD MLOAD AND PUSH2 0xFFFF DUP4 AND LT ISZERO PUSH2 0x34B4 JUMP JUMPDEST POP PUSH2 0xFFFF PUSH1 0x60 PUSH2 0x3625 DUP7 DUP9 PUSH2 0x281B JUMP JUMPDEST MLOAD ADD MLOAD AND PUSH2 0x349C JUMP JUMPDEST POP SWAP1 SWAP7 SWAP2 SWAP3 SWAP4 SWAP5 SWAP6 SWAP7 PUSH2 0x3406 JUMP JUMPDEST PUSH2 0x3659 SWAP2 SWAP9 POP DUP3 PUSH2 0x32CA DUP9 PUSH1 0xFF PUSH2 0x32C4 DUP11 SWAP10 SWAP9 SWAP8 SWAP15 SWAP13 SWAP12 SWAP11 PUSH2 0x2ACA JUMP JUMPDEST SWAP8 PUSH0 SWAP8 PUSH0 JUMPDEST DUP4 MLOAD DUP2 LT ISZERO PUSH2 0x36B3 JUMPI PUSH2 0xFFFF PUSH1 0x60 PUSH2 0x3676 DUP4 DUP8 PUSH2 0x281B JUMP JUMPDEST MLOAD ADD MLOAD AND PUSH2 0x3687 JUMPI JUMPDEST PUSH1 0x1 ADD PUSH2 0x365E JUMP JUMPDEST SWAP9 DUP11 DUP2 EQ PUSH2 0x36A2 JUMPI PUSH2 0x369A PUSH1 0x1 SWAP2 PUSH2 0x2B05 JUMP JUMPDEST SWAP10 SWAP1 POP PUSH2 0x367F JUMP JUMPDEST POP SWAP2 SWAP4 SWAP6 SWAP8 SWAP1 SWAP3 SWAP5 SWAP7 SWAP9 POP SWAP2 PUSH2 0x3406 JUMP JUMPDEST POP SWAP2 SWAP4 SWAP6 SWAP8 POP SWAP8 SWAP2 SWAP4 SWAP6 SWAP8 PUSH2 0x3406 JUMP JUMPDEST PUSH2 0x36CC DUP2 PUSH2 0x226A JUMP JUMPDEST DUP1 ISZERO PUSH2 0x36ED JUMPI PUSH1 0x1 SWAP1 PUSH2 0x36DE DUP2 PUSH2 0x226A JUMP JUMPDEST EQ PUSH2 0x36E8 JUMPI PUSH1 0x69 SWAP1 JUMP JUMPDEST PUSH1 0x52 SWAP1 JUMP JUMPDEST POP PUSH1 0x41 SWAP1 JUMP JUMPDEST SWAP1 PUSH2 0xFFFF DUP1 SWAP2 AND SWAP2 AND MUL SWAP1 PUSH2 0xFFFF DUP3 AND SWAP2 DUP3 SUB PUSH2 0x77A JUMPI JUMP JUMPDEST SWAP1 PUSH1 0x2 SHL PUSH2 0x3FC AND PUSH2 0x371D SWAP2 PUSH2 0x2D1C JUMP JUMPDEST SWAP1 JUMP JUMPDEST PUSH2 0x3729 DUP2 PUSH2 0x226A JUMP JUMPDEST DUP1 ISZERO PUSH2 0x374A JUMPI PUSH1 0x1 SWAP1 PUSH2 0x373B DUP2 PUSH2 0x226A JUMP JUMPDEST EQ PUSH2 0x3745 JUMPI PUSH1 0x14 SWAP1 JUMP JUMPDEST PUSH1 0xC SWAP1 JUMP JUMPDEST POP PUSH1 0x6 SWAP1 JUMP JUMPDEST SWAP1 PUSH1 0xFF PUSH1 0x16 SWAP2 AND DIV SWAP1 DUP2 PUSH2 0x3763 DUP3 PUSH2 0x226A JUMP JUMPDEST PUSH1 0x1 DUP3 EQ PUSH2 0x37B5 JUMPI JUMPDEST POP PUSH1 0x2 SWAP1 PUSH2 0x3779 DUP2 PUSH2 0x226A JUMP JUMPDEST EQ PUSH2 0x3791 JUMPI JUMPDEST PUSH1 0x12 PUSH1 0xFF DUP3 AND GT ISZERO PUSH2 0x371D JUMPI POP PUSH1 0x12 SWAP1 JUMP JUMPDEST PUSH1 0xFF PUSH1 0x4 SWAP2 AND ADD PUSH1 0xFF DUP2 GT ISZERO PUSH2 0x377F JUMPI PUSH4 0x4E487B71 PUSH1 0xE0 SHL PUSH0 MSTORE PUSH1 0x11 PUSH1 0x4 MSTORE PUSH1 0x24 PUSH0 REVERT JUMPDEST PUSH1 0x2 SWAP2 SWAP3 POP PUSH2 0x37C3 SWAP1 PUSH2 0x2ADF JUMP JUMPDEST SWAP2 SWAP1 PUSH2 0x376C JUMP JUMPDEST SWAP2 SWAP1 PUSH2 0xFFFF AND DUP1 ISZERO PUSH2 0x38CB JUMPI PUSH1 0x3 DUP2 MUL SWAP1 DUP2 DIV PUSH1 0x3 SUB PUSH2 0x77A JUMPI PUSH1 0x64 ADD SWAP2 DUP3 PUSH1 0x64 GT PUSH2 0x77A JUMPI PUSH0 JUMPDEST DUP2 MLOAD DUP2 LT ISZERO PUSH2 0x2CDF JUMPI DUP1 PUSH1 0xFF PUSH1 0x64 PUSH2 0x3819 DUP8 DUP4 PUSH2 0x3811 PUSH1 0x1 SWAP8 DUP10 PUSH2 0x281B JUMP JUMPDEST MLOAD MLOAD AND PUSH2 0x287B JUMP JUMPDEST DIV AND PUSH2 0x3825 DUP3 DUP6 PUSH2 0x281B JUMP JUMPDEST MLOAD MSTORE PUSH1 0xFF PUSH1 0x64 PUSH2 0x3845 DUP8 DUP4 PUSH1 0x20 PUSH2 0x383C DUP8 DUP11 PUSH2 0x281B JUMP JUMPDEST MLOAD ADD MLOAD AND PUSH2 0x287B JUMP JUMPDEST DIV AND PUSH1 0x20 PUSH2 0x3853 DUP4 DUP7 PUSH2 0x281B JUMP JUMPDEST MLOAD ADD MSTORE PUSH1 0xFF PUSH1 0x64 PUSH2 0x386B DUP8 DUP4 PUSH1 0x40 PUSH2 0x383C DUP8 DUP11 PUSH2 0x281B JUMP JUMPDEST DIV AND PUSH1 0x40 PUSH2 0x3879 DUP4 DUP7 PUSH2 0x281B JUMP JUMPDEST MLOAD ADD MSTORE PUSH2 0xFFFF PUSH1 0x64 PUSH2 0x3892 DUP8 DUP4 PUSH1 0x60 PUSH2 0x383C DUP8 DUP11 PUSH2 0x281B JUMP JUMPDEST DIV AND PUSH1 0x60 PUSH2 0x38A0 DUP4 DUP7 PUSH2 0x281B JUMP JUMPDEST MLOAD ADD MSTORE PUSH2 0xFFFF PUSH1 0x60 PUSH2 0x38B2 DUP4 DUP7 PUSH2 0x281B JUMP JUMPDEST MLOAD ADD MLOAD AND PUSH1 0x80 PUSH2 0x38C2 DUP4 DUP7 PUSH2 0x281B JUMP JUMPDEST MLOAD ADD MSTORE ADD PUSH2 0x37F2 JUMP JUMPDEST POP SWAP1 POP JUMP JUMPDEST PUSH1 0x60 SWAP6 SWAP5 SWAP3 SWAP4 PUSH1 0xFF AND DUP1 ISZERO DUP1 ISZERO SWAP2 SWAP1 DUP3 PUSH2 0x3A30 JUMPI JUMPDEST POP POP PUSH2 0x3A05 JUMPI PUSH1 0xFF AND SWAP1 PUSH2 0xFFFF PUSH1 0x23 DUP5 MOD AND PUSH1 0x6E ADD PUSH2 0xFFFF DUP2 GT PUSH2 0x77A JUMPI PUSH1 0xFF PUSH2 0x3911 PUSH1 0x12 SWAP3 DUP6 PUSH2 0x36F3 JUMP JUMPDEST SWAP3 AND ADD PUSH2 0xFFFF DUP2 GT PUSH2 0x77A JUMPI PUSH2 0xFFFF AND SWAP1 DUP2 ISZERO PUSH2 0x223B JUMPI PUSH2 0xFFFF AND DIV SWAP1 PUSH1 0x2 PUSH2 0xFFFF DUP4 AND LT PUSH2 0x39E8 JUMPI JUMPDEST POP PUSH2 0xFFFF PUSH1 0x25 DUP4 PUSH1 0x8 SHR MOD AND PUSH1 0x52 ADD PUSH2 0xFFFF DUP2 GT PUSH2 0x77A JUMPI PUSH2 0x3962 PUSH2 0xFFFF SWAP2 PUSH1 0x64 SWAP4 PUSH2 0x36F3 JUMP JUMPDEST AND DIV SWAP1 PUSH1 0xFF DUP3 SWAP4 AND SWAP1 DUP2 ISZERO ISZERO SWAP2 DUP3 PUSH2 0x39BF JUMPI JUMPDEST POP POP PUSH2 0x3980 JUMPI POP SWAP2 SWAP1 JUMP JUMPDEST PUSH1 0xD SWAP3 SWAP4 POP PUSH2 0xFFFF SWAP2 POP AND MUL PUSH2 0xFFFF DUP2 AND SWAP1 DUP2 SUB PUSH2 0x77A JUMPI PUSH1 0xA SWAP1 DIV SWAP1 PUSH1 0x40 MLOAD PUSH2 0x39AB PUSH1 0x40 DUP3 PUSH2 0x218A JUMP JUMPDEST PUSH1 0x4 DUP2 MSTORE PUSH4 0x10D49255 PUSH1 0xE2 SHL PUSH1 0x20 DUP3 ADD MSTORE SWAP1 JUMP JUMPDEST PUSH1 0x1C SWAP2 SWAP3 POP MUL PUSH2 0xFFFF DUP2 AND SWAP1 DUP2 SUB PUSH2 0x77A JUMPI PUSH2 0xFFFF PUSH1 0xA PUSH1 0x64 SWAP3 DIV AND SWAP2 PUSH1 0x18 SHR MOD LT PUSH0 DUP1 PUSH2 0x3975 JUMP JUMPDEST PUSH1 0xFF SWAP2 POP PUSH1 0x3 SWAP1 DIV AND PUSH1 0x2 ADD PUSH1 0xFF DUP2 GT PUSH2 0x77A JUMPI PUSH1 0xFF AND PUSH0 PUSH2 0x393B JUMP JUMPDEST POP POP POP POP SWAP1 POP PUSH0 SWAP1 PUSH1 0x40 MLOAD PUSH2 0x3A1B PUSH1 0x40 DUP3 PUSH2 0x218A JUMP JUMPDEST PUSH1 0x5 DUP2 MSTORE PUSH5 0x444F444745 PUSH1 0xD8 SHL PUSH1 0x20 DUP3 ADD MSTORE SWAP1 JUMP JUMPDEST SWAP1 SWAP2 POP PUSH1 0x19 DUP3 MUL SWAP2 DUP3 DIV PUSH1 0x19 EQ OR ISZERO PUSH2 0x77A JUMPI PUSH1 0xA SWAP1 DIV PUSH1 0x64 DUP5 MOD LT PUSH0 DUP1 PUSH2 0x38E5 JUMP INVALID LOG2 PUSH5 0x6970667358 0x22 SLT KECCAK256 PUSH9 0xAB633B3B829B107E40 0x4E 0x2E ADDMOD CODESIZE 0xC1 0xDB PUSH16 0x2FAFBD13A234866963A33758F5686F64 PUSH20 0x6F6C634300081E00330000000000000000000000 "
		},
		"gasEstimates": {
			"creation": {
				"codeDepositCost": "2997000",
				"executionCost": "infinite",
				"totalCost": "infinite"
			},
			"external": {
				"buyFromShop(uint256)": "infinite",
				"buyUnit()": "infinite",
				"clearPlayerData()": "infinite",
				"createProfile()": "109596",
				"equippedRelics(address,uint256)": "2934",
				"getCurrentAI(address)": "infinite",
				"getEquippedRelics(address)": "infinite",
				"getLastBattleResult(address)": "infinite",
				"getPlayerRelics(address)": "infinite",
				"getPlayerShop(address)": "infinite",
				"getPlayerUnits(address)": "infinite",
				"hasProfile(address)": "2703",
				"lastAIMaxHp(address,uint256)": "7050",
				"lastBattleId()": "2432",
				"lastPlayerMaxHp(address,uint256)": "6940",
				"lastPlayerWon(address)": "2792",
				"playerRelics(address,uint256)": "7324",
				"playerShop(address,uint256)": "7033",
				"playerUnits(address,uint256)": "6931",
				"profiles(address)": "9272",
				"relicContract()": "2808",
				"rerollShop()": "infinite",
				"setRelicContract(address)": "24789",
				"setUnitNFT(address)": "24723",
				"startMatch(uint256[],uint256[])": "infinite",
				"unitNFT()": "2676"
			},
			"internal": {
				"_generateShopItem()": "infinite",
				"_updateProfileAfterBattle(bool)": "infinite"
			}
		},
		"methodIdentifiers": {
			"buyFromShop(uint256)": "b654823e",
			"buyUnit()": "201738e2",
			"clearPlayerData()": "bdb729c9",
			"createProfile()": "00547664",
			"equippedRelics(address,uint256)": "c4f036c4",
			"getCurrentAI(address)": "c99ae45f",
			"getEquippedRelics(address)": "a95db7e2",
			"getLastBattleResult(address)": "2dc6d62f",
			"getPlayerRelics(address)": "bb15a3b4",
			"getPlayerShop(address)": "49c7c24a",
			"getPlayerUnits(address)": "6154ee97",
			"hasProfile(address)": "a787c80b",
			"lastAIMaxHp(address,uint256)": "732e9b85",
			"lastBattleId()": "518c83b0",
			"lastPlayerMaxHp(address,uint256)": "4e178659",
			"lastPlayerWon(address)": "b78f4c70",
			"playerRelics(address,uint256)": "f5905ca1",
			"playerShop(address,uint256)": "18dc3185",
			"playerUnits(address,uint256)": "4ef2d6c1",
			"profiles(address)": "bbe15627",
			"relicContract()": "d5654ae7",
			"rerollShop()": "29de58d1",
			"setRelicContract(address)": "b2a47500",
			"setUnitNFT(address)": "7e5c4f8b",
			"startMatch(uint256[],uint256[])": "51bdab14",
			"unitNFT()": "b92a40ad"
		}
	},
	"abi": [
		{
			"inputs": [
				{
					"internalType": "address",
					"name": "_unitNFT",
					"type": "address"
				},
				{
					"internalType": "address",
					"name": "_relic",
					"type": "address"
				}
			],
			"stateMutability": "nonpayable",
			"type": "constructor"
		},
		{
			"anonymous": false,
			"inputs": [
				{
					"indexed": true,
					"internalType": "bytes32",
					"name": "battleId",
					"type": "bytes32"
				},
				{
					"indexed": false,
					"internalType": "uint8",
					"name": "round",
					"type": "uint8"
				},
				{
					"indexed": false,
					"internalType": "bool",
					"name": "isPlayerSide",
					"type": "bool"
				},
				{
					"indexed": false,
					"internalType": "uint8",
					"name": "attackerIndex",
					"type": "uint8"
				},
				{
					"indexed": false,
					"internalType": "uint8",
					"name": "targetIndex",
					"type": "uint8"
				},
				{
					"indexed": false,
					"internalType": "uint16",
					"name": "damage",
					"type": "uint16"
				},
				{
					"indexed": false,
					"internalType": "uint16",
					"name": "remainingHp",
					"type": "uint16"
				},
				{
					"indexed": false,
					"internalType": "string",
					"name": "specialEffect",
					"type": "string"
				}
			],
			"name": "BattleEventEmitted",
			"type": "event"
		},
		{
			"anonymous": false,
			"inputs": [
				{
					"indexed": true,
					"internalType": "bytes32",
					"name": "battleId",
					"type": "bytes32"
				},
				{
					"indexed": true,
					"internalType": "address",
					"name": "player",
					"type": "address"
				},
				{
					"indexed": false,
					"internalType": "bool",
					"name": "playerWon",
					"type": "bool"
				},
				{
					"indexed": false,
					"internalType": "uint16[]",
					"name": "playerMaxHp",
					"type": "uint16[]"
				},
				{
					"indexed": false,
					"internalType": "uint16[]",
					"name": "aiMaxHp",
					"type": "uint16[]"
				}
			],
			"name": "BattleResolved",
			"type": "event"
		},
		{
			"inputs": [
				{
					"internalType": "uint256",
					"name": "slot",
					"type": "uint256"
				}
			],
			"name": "buyFromShop",
			"outputs": [],
			"stateMutability": "payable",
			"type": "function"
		},
		{
			"inputs": [],
			"name": "buyUnit",
			"outputs": [],
			"stateMutability": "payable",
			"type": "function"
		},
		{
			"inputs": [],
			"name": "clearPlayerData",
			"outputs": [],
			"stateMutability": "nonpayable",
			"type": "function"
		},
		{
			"inputs": [],
			"name": "createProfile",
			"outputs": [],
			"stateMutability": "nonpayable",
			"type": "function"
		},
		{
			"inputs": [
				{
					"internalType": "address",
					"name": "",
					"type": "address"
				},
				{
					"internalType": "uint256",
					"name": "",
					"type": "uint256"
				}
			],
			"name": "equippedRelics",
			"outputs": [
				{
					"internalType": "uint256",
					"name": "",
					"type": "uint256"
				}
			],
			"stateMutability": "view",
			"type": "function"
		},
		{
			"inputs": [
				{
					"internalType": "address",
					"name": "",
					"type": "address"
				}
			],
			"name": "getCurrentAI",
			"outputs": [
				{
					"components": [
						{
							"internalType": "bool",
							"name": "isRelic",
							"type": "bool"
						},
						{
							"internalType": "uint256",
							"name": "id",
							"type": "uint256"
						},
						{
							"internalType": "uint8",
							"name": "faction",
							"type": "uint8"
						},
						{
							"internalType": "uint8",
							"name": "rarity",
							"type": "uint8"
						},
						{
							"internalType": "uint8",
							"name": "unitClass",
							"type": "uint8"
						},
						{
							"internalType": "uint8",
							"name": "attack",
							"type": "uint8"
						},
						{
							"internalType": "uint8",
							"name": "defense",
							"type": "uint8"
						},
						{
							"internalType": "uint8",
							"name": "speed",
							"type": "uint8"
						},
						{
							"internalType": "uint8",
							"name": "relicType",
							"type": "uint8"
						},
						{
							"internalType": "uint8",
							"name": "relicValue",
							"type": "uint8"
						}
					],
					"internalType": "struct StarForgeGame.ShopItem[]",
					"name": "",
					"type": "tuple[]"
				}
			],
			"stateMutability": "pure",
			"type": "function"
		},
		{
			"inputs": [
				{
					"internalType": "address",
					"name": "player",
					"type": "address"
				}
			],
			"name": "getEquippedRelics",
			"outputs": [
				{
					"internalType": "uint256[3]",
					"name": "",
					"type": "uint256[3]"
				}
			],
			"stateMutability": "view",
			"type": "function"
		},
		{
			"inputs": [
				{
					"internalType": "address",
					"name": "player",
					"type": "address"
				}
			],
			"name": "getLastBattleResult",
			"outputs": [
				{
					"internalType": "bool",
					"name": "playerWon",
					"type": "bool"
				},
				{
					"internalType": "uint16[]",
					"name": "playerMaxHp",
					"type": "uint16[]"
				},
				{
					"internalType": "uint16[]",
					"name": "aiMaxHp",
					"type": "uint16[]"
				},
				{
					"internalType": "bytes32",
					"name": "battleId",
					"type": "bytes32"
				}
			],
			"stateMutability": "view",
			"type": "function"
		},
		{
			"inputs": [
				{
					"internalType": "address",
					"name": "player",
					"type": "address"
				}
			],
			"name": "getPlayerRelics",
			"outputs": [
				{
					"internalType": "uint256[]",
					"name": "",
					"type": "uint256[]"
				}
			],
			"stateMutability": "view",
			"type": "function"
		},
		{
			"inputs": [
				{
					"internalType": "address",
					"name": "player",
					"type": "address"
				}
			],
			"name": "getPlayerShop",
			"outputs": [
				{
					"components": [
						{
							"internalType": "bool",
							"name": "isRelic",
							"type": "bool"
						},
						{
							"internalType": "uint256",
							"name": "id",
							"type": "uint256"
						},
						{
							"internalType": "uint8",
							"name": "faction",
							"type": "uint8"
						},
						{
							"internalType": "uint8",
							"name": "rarity",
							"type": "uint8"
						},
						{
							"internalType": "uint8",
							"name": "unitClass",
							"type": "uint8"
						},
						{
							"internalType": "uint8",
							"name": "attack",
							"type": "uint8"
						},
						{
							"internalType": "uint8",
							"name": "defense",
							"type": "uint8"
						},
						{
							"internalType": "uint8",
							"name": "speed",
							"type": "uint8"
						},
						{
							"internalType": "uint8",
							"name": "relicType",
							"type": "uint8"
						},
						{
							"internalType": "uint8",
							"name": "relicValue",
							"type": "uint8"
						}
					],
					"internalType": "struct StarForgeGame.ShopItem[3]",
					"name": "",
					"type": "tuple[3]"
				}
			],
			"stateMutability": "view",
			"type": "function"
		},
		{
			"inputs": [
				{
					"internalType": "address",
					"name": "player",
					"type": "address"
				}
			],
			"name": "getPlayerUnits",
			"outputs": [
				{
					"internalType": "uint256[]",
					"name": "",
					"type": "uint256[]"
				}
			],
			"stateMutability": "view",
			"type": "function"
		},
		{
			"inputs": [
				{
					"internalType": "address",
					"name": "",
					"type": "address"
				}
			],
			"name": "hasProfile",
			"outputs": [
				{
					"internalType": "bool",
					"name": "",
					"type": "bool"
				}
			],
			"stateMutability": "view",
			"type": "function"
		},
		{
			"inputs": [
				{
					"internalType": "address",
					"name": "",
					"type": "address"
				},
				{
					"internalType": "uint256",
					"name": "",
					"type": "uint256"
				}
			],
			"name": "lastAIMaxHp",
			"outputs": [
				{
					"internalType": "uint16",
					"name": "",
					"type": "uint16"
				}
			],
			"stateMutability": "view",
			"type": "function"
		},
		{
			"inputs": [],
			"name": "lastBattleId",
			"outputs": [
				{
					"internalType": "bytes32",
					"name": "",
					"type": "bytes32"
				}
			],
			"stateMutability": "view",
			"type": "function"
		},
		{
			"inputs": [
				{
					"internalType": "address",
					"name": "",
					"type": "address"
				},
				{
					"internalType": "uint256",
					"name": "",
					"type": "uint256"
				}
			],
			"name": "lastPlayerMaxHp",
			"outputs": [
				{
					"internalType": "uint16",
					"name": "",
					"type": "uint16"
				}
			],
			"stateMutability": "view",
			"type": "function"
		},
		{
			"inputs": [
				{
					"internalType": "address",
					"name": "",
					"type": "address"
				}
			],
			"name": "lastPlayerWon",
			"outputs": [
				{
					"internalType": "bool",
					"name": "",
					"type": "bool"
				}
			],
			"stateMutability": "view",
			"type": "function"
		},
		{
			"inputs": [
				{
					"internalType": "address",
					"name": "",
					"type": "address"
				},
				{
					"internalType": "uint256",
					"name": "",
					"type": "uint256"
				}
			],
			"name": "playerRelics",
			"outputs": [
				{
					"internalType": "uint256",
					"name": "",
					"type": "uint256"
				}
			],
			"stateMutability": "view",
			"type": "function"
		},
		{
			"inputs": [
				{
					"internalType": "address",
					"name": "",
					"type": "address"
				},
				{
					"internalType": "uint256",
					"name": "",
					"type": "uint256"
				}
			],
			"name": "playerShop",
			"outputs": [
				{
					"internalType": "bool",
					"name": "isRelic",
					"type": "bool"
				},
				{
					"internalType": "uint256",
					"name": "id",
					"type": "uint256"
				},
				{
					"internalType": "uint8",
					"name": "faction",
					"type": "uint8"
				},
				{
					"internalType": "uint8",
					"name": "rarity",
					"type": "uint8"
				},
				{
					"internalType": "uint8",
					"name": "unitClass",
					"type": "uint8"
				},
				{
					"internalType": "uint8",
					"name": "attack",
					"type": "uint8"
				},
				{
					"internalType": "uint8",
					"name": "defense",
					"type": "uint8"
				},
				{
					"internalType": "uint8",
					"name": "speed",
					"type": "uint8"
				},
				{
					"internalType": "uint8",
					"name": "relicType",
					"type": "uint8"
				},
				{
					"internalType": "uint8",
					"name": "relicValue",
					"type": "uint8"
				}
			],
			"stateMutability": "view",
			"type": "function"
		},
		{
			"inputs": [
				{
					"internalType": "address",
					"name": "",
					"type": "address"
				},
				{
					"internalType": "uint256",
					"name": "",
					"type": "uint256"
				}
			],
			"name": "playerUnits",
			"outputs": [
				{
					"internalType": "uint256",
					"name": "",
					"type": "uint256"
				}
			],
			"stateMutability": "view",
			"type": "function"
		},
		{
			"inputs": [
				{
					"internalType": "address",
					"name": "",
					"type": "address"
				}
			],
			"name": "profiles",
			"outputs": [
				{
					"internalType": "uint16",
					"name": "level",
					"type": "uint16"
				},
				{
					"internalType": "uint32",
					"name": "xp",
					"type": "uint32"
				},
				{
					"internalType": "uint256",
					"name": "wins",
					"type": "uint256"
				},
				{
					"internalType": "uint256",
					"name": "losses",
					"type": "uint256"
				},
				{
					"internalType": "uint16",
					"name": "currentAITier",
					"type": "uint16"
				}
			],
			"stateMutability": "view",
			"type": "function"
		},
		{
			"inputs": [],
			"name": "relicContract",
			"outputs": [
				{
					"internalType": "contract StarForgeRelic",
					"name": "",
					"type": "address"
				}
			],
			"stateMutability": "view",
			"type": "function"
		},
		{
			"inputs": [],
			"name": "rerollShop",
			"outputs": [],
			"stateMutability": "payable",
			"type": "function"
		},
		{
			"inputs": [
				{
					"internalType": "address",
					"name": "_relic",
					"type": "address"
				}
			],
			"name": "setRelicContract",
			"outputs": [],
			"stateMutability": "nonpayable",
			"type": "function"
		},
		{
			"inputs": [
				{
					"internalType": "address",
					"name": "_unitNFT",
					"type": "address"
				}
			],
			"name": "setUnitNFT",
			"outputs": [],
			"stateMutability": "nonpayable",
			"type": "function"
		},
		{
			"inputs": [
				{
					"internalType": "uint256[]",
					"name": "team",
					"type": "uint256[]"
				},
				{
					"internalType": "uint256[]",
					"name": "equipped",
					"type": "uint256[]"
				}
			],
			"name": "startMatch",
			"outputs": [],
			"stateMutability": "nonpayable",
			"type": "function"
		},
		{
			"inputs": [],
			"name": "unitNFT",
			"outputs": [
				{
					"internalType": "contract StarForgeUnitNFT",
					"name": "",
					"type": "address"
				}
			],
			"stateMutability": "view",
			"type": "function"
		}
	]
}