{
	"data": {
		"bytecode": {
			"linkReferences": {},
			"object": "60803461010957601f61500d38819003918201601f19168301916001600160401b0383118484101761010d57808492604094855283398101031261010957610052602061004b83610121565b9201610121565b5f8054336001600160a01b0319821681178355604051949290916001600160a01b0316907f8be0079c531659141344cd1fd0a4f28419497f9722a3daafe3b4186f6b6457e09080a3600180556002805460ff19169055662386f26fc10000600f8190556611c37937e08000601055601155661c6bf526340000601255601380546001600160a01b039283166001600160a01b03199182161790915560148054939092169216919091179055614ed790816101368239f35b5f80fd5b634e487b7160e01b5f52604160045260245ffd5b51906001600160a01b03821682036101095756fe60806040526004361015610011575f80fd5b5f3560e01c806318dc318514612f86578063201738e214612e1e57806329de58d114612db45780632dc6d62f14612b03578063394861f314612ae65780633ccfd60b14612a675780633f4ba83a146129d457806349c7c24a146129145780634e178659146128c95780634ef2d6c114612880578063518c83b01461286357806351bdab141461111e5780635c975abb146110fc5780636154ee971461108a578063715018a614611033578063732e9b8514610fd85780637e5c4f8b14610f955780638456cb5914610f3c5780638b5ca78f14610f1f5780638da5cb5b14610ef85780639d980bd214610edb578063a5f968a014610d93578063a787c80b14610d56578063a95db7e214610cb8578063aeb5f76014610bb7578063b2a4750014610b74578063b654823e1461078e578063b78f4c7014610751578063b92a40ad14610729578063bb15a3b4146106ab578063bbe156271461063a578063bdb729c9146105a3578063c4f036c41461055b578063c99ae45f14610477578063d5654ae71461044f578063d8e86854146103df578063da539b0f14610310578063f2fde38b1461024a578063f5905ca1146101f25763f5e5fff2146101d1575f80fd5b346101ee575f3660031901126101ee576020601154604051908152f35b5f80fd5b346101ee5760403660031901126101ee5761020b612fca565b6001600160a01b03165f908152600660205260409020805460243591908210156101ee5760209161023b91613100565b90549060031b1c604051908152f35b346101ee5760203660031901126101ee57610263612fca565b61026b613e71565b6001600160a01b031680156102bc575f80546001600160a01b03198116831782556001600160a01b0316907f8be0079c531659141344cd1fd0a4f28419497f9722a3daafe3b4186f6b6457e09080a3005b60405162461bcd60e51b815260206004820152602660248201527f4f776e61626c653a206e6577206f776e657220697320746865207a65726f206160448201526564647265737360d01b6064820152608490fd5b346101ee5760403660031901126101ee57610329612fca565b6001600160a01b03165f90815260096020526040902060243560088110156101ee576103549161330e565b50805460018201546002909201546040805160ff9384161515815260208082019590955282841691810191909152600882901c83166060820152601082901c83166080820152601882901c831660a08201529281901c821660c0840152602881901c821660e0840152603081901c821661010084015260381c166101208201528061014081015b0390f35b346101ee5760803660031901126101ee577f6ef2ff813efc9efc76792366c4aca2677b755a5a13affc54d96ef35dc8e9bb736080600435606435604435602435610427613e71565b83600f55806010558160115582601255604051938452602084015260408301526060820152a1005b346101ee575f3660031901126101ee576014546040516001600160a01b039091168152602090f35b346101ee5760203660031901126101ee57610490612fca565b610100906040516104a1838261323e565b5f5b83811061054657505060018060a01b03165f52600960205260405f206040519182018281106001600160401b03821117610532576040525f825b6008821061051457604051845f825b600882106104fa57610a0084f35b60206105096001928551613062565b9301910190916104ec565b60036020600192610524866138b9565b8152019301910190916104dd565b634e487b7160e01b5f52604160045260245ffd5b60209061055161386f565b81840152016104a3565b346101ee5760403660031901126101ee57610574612fca565b6001600160a01b03165f9081526007602052604090206024359060038210156101ee5760209161023b916132ff565b346101ee575f3660031901126101ee576105bb613b75565b335f5260056020526105cf60405f20613b54565b335f5260066020526105e360405f20613b54565b335f5260076020526105fc60405f206003810190613a1f565b335f52600b60205261061060405f20613a35565b335f52600c60205261062460405f20613a35565b335f52600e60205261063860405f20613a92565b005b346101ee5760203660031901126101ee576001600160a01b0361065b612fca565b165f52600460205260a060405f2080549060018101549061ffff60036002830154920154169163ffffffff6040519461ffff8116865260101c166020850152604084015260608301526080820152f35b346101ee5760203660031901126101ee576001600160a01b036106cc612fca565b165f52600660205260405f206040519081602082549182815201915f5260205f20905f5b818110610713576103db856107078187038261323e565b60405191829182613145565b82548452602090930192600192830192016106f0565b346101ee575f3660031901126101ee576013546040516001600160a01b039091168152602090f35b346101ee5760203660031901126101ee576001600160a01b03610772612fca565b165f52600a602052602060ff60405f2054166040519015158152f35b60203660031901126101ee576004356107a5613b75565b6107ad613bb9565b6107b5613c0f565b6003811015610b4057335f5260086020526107dc6107d68260405f20612fe0565b506138b9565b90602082015115801590610b36575b15610b045781511561093b5760125434106108f65760018060a01b03601454169160ff6101008201511660068110156108e257606460ff610120602094015116915f604051968794859363f925b74160e01b8552336004860152602485015260448401525af19182156108d7575f926108a1575b5061087861089b92335f52600660205260405f206133f9565b610895610883613d2a565b91335f52600860205260405f20612fe0565b9061342d565b60018055005b91506020823d6020116108cf575b816108bc6020938361323e565b810103126101ee5790519061087861085f565b3d91506108af565b6040513d5f823e3d90fd5b634e487b7160e01b5f52602160045260245ffd5b60405162461bcd60e51b815260206004820152601e60248201527f496e73756666696369656e74207061796d656e7420666f722072656c696300006044820152606490fd5b90506011543410610abf576040805142602082019081523360601b6bffffffffffffffffffffffff1916928201929092524460548201526074810183905261099081609481015b03601f19810183528261323e565b51902090600b8206600a0180600a11610aab57600b8360081c066008019081600811610aab57600b8460101c066009019384600911610aab5760ff60038260181c06166109e360038360201c1692613d08565b6013546001600160a01b0316929060ff906109fd8461338f565b1696610a088861338f565b60048210156108e257604051630e3bd81160e31b815297602096899687955f958795610a459560ff91821695821694909116923360048901613399565b03925af19182156108d7575f92610a75575b50610a7061089b92335f52600560205260405f206133f9565b610878565b91506020823d602011610aa3575b81610a906020938361323e565b810103126101ee57905190610a70610a57565b3d9150610a83565b634e487b7160e01b5f52601160045260245ffd5b60405162461bcd60e51b815260206004820152601d60248201527f496e73756666696369656e74207061796d656e7420666f7220756e69740000006044820152606490fd5b60405162461bcd60e51b815260206004820152600a602482015269115b5c1d1e481cdb1bdd60b21b6044820152606490fd5b50815115156107eb565b60405162461bcd60e51b815260206004820152600c60248201526b125b9d985b1a59081cdb1bdd60a21b6044820152606490fd5b346101ee5760203660031901126101ee57610b8d612fca565b610b95613e71565b601480546001600160a01b0319166001600160a01b0392909216919091179055005b346101ee5760403660031901126101ee57610bd0612fca565b6001600160a01b03165f908152600e60205260409020805460243591908210156101ee5761ffff91610c019161317e565b5080549060ff610c886002610c186001850161325f565b930154926040519585848897168752848160081c1615156020880152848160101c166040880152848160181c166060880152818160201c166080880152818160301c1660a0880152818160401c1660c088015260501c1660e08601526101a06101008601526101a085019061303e565b91818116610120850152818160081c16610140850152818160101c1661016085015260181c166101808301520390f35b346101ee5760203660031901126101ee57610cd1612fca565b60609081604051610ce2828261323e565b3690376001600160a01b03165f90815260076020526040808220905191825b60038210610d4057505050610d16828261323e565b604051905f825b60038210610d2a57505050f35b6020806001928551815201930191019091610d1d565b6001602081928554815201930191019091610d01565b346101ee5760203660031901126101ee576001600160a01b03610d77612fca565b165f526003602052602060ff60405f2054166040519015158152f35b346101ee5760603660031901126101ee57366064116101ee57610db4613b75565b610dbc613c0f565b5f5b60038110610e2357335f52600760205260405f2060045f5b60038110610e0f576040516060600482377f189dcf2b228f6307a1c47f1ab2652fd06a5c537f8533503fd79381a0ef24b27960603392a2005b600190602083359301928185015501610dd6565b610e2c81613b31565b35610e3a575b600101610dbe565b601454610e7f91906020906001600160a01b0316610e5783613b31565b604051627eeac760e11b81523360048201529035602482015293849190829081906044820190565b03915afa9182156108d7575f92610ea6575b50610e9f6001921515613993565b9050610e32565b91506020823d8211610ed3575b81610ec06020938361323e565b810103126101ee57905190610e9f610e91565b3d9150610eb3565b346101ee575f3660031901126101ee576020601054604051908152f35b346101ee575f3660031901126101ee575f546040516001600160a01b039091168152602090f35b346101ee575f3660031901126101ee576020601254604051908152f35b346101ee575f3660031901126101ee57610f54613e71565b610f5c613b75565b600160ff1960025416176002557f62e78cea01bee320cd4e420270b5ea74000d11b0c9f74754ebdbfc544b05a2586020604051338152a1005b346101ee5760203660031901126101ee57610fae612fca565b610fb6613e71565b601380546001600160a01b0319166001600160a01b0392909216919091179055005b346101ee5760403660031901126101ee57610ff1612fca565b6001600160a01b03165f908152600c602052604090208054602435908110156101ee5761102361ffff916020936130df565b90549060031b1c16604051908152f35b346101ee575f3660031901126101ee5761104b613e71565b5f80546001600160a01b0319811682556001600160a01b03167f8be0079c531659141344cd1fd0a4f28419497f9722a3daafe3b4186f6b6457e08280a3005b346101ee5760203660031901126101ee576001600160a01b036110ab612fca565b165f52600560205260405f206040519081602082549182815201915f5260205f20905f5b8181106110e6576103db856107078187038261323e565b82548452602090930192600192830192016110cf565b346101ee575f3660031901126101ee57602060ff600254166040519015158152f35b346101ee5760403660031901126101ee576004356001600160401b0381116101ee5761114e903690600401613115565b6024356001600160401b0381116101ee5761116d903690600401613115565b9290611177613b75565b61117f613c0f565b600483101580612858575b1561281f576013546001600160a01b03165f5b8481106127495750508315938461272a576111b9368284613947565b94156126375750505f5b6003811061260757505b610120604051936111de828661323e565b60088552601f1982015f5b8181106125f05750506040805142602082019081523360601b6bffffffffffffffffffffffff1916928201929092524460548201524360748201526112318160948101610982565b519020905f5b60ff8116600881101561138257335f52600460205260405f2054604051602081019186835260ff60f81b8560f81b16604083015261ffff60f01b9060f01b1660418201526023815261128a60438261323e565b51902091600d83066008019283600811610aab57600c8160081c066007019283600711610aab57600b8260101c066008019485600811610aab5760ff60038460181c06169060ff6112e160038660201c1695613d08565b6112ea8461338f565b16966112f58861338f565b60048510156108e25760ff60019781809a9461134b61137a9983976040519961131d8b613206565b5f8b525f60208c015261132f8161338f565b60408b015261133d8161338f565b60608a0152608089016139f3565b1660a08601521660c08401521660e08201525f6101008201525f89820152611373828d6139df565b528a6139df565b500116611237565b5050838587935f5b60ff8116906008821015611634576113d06113a583896139df565b51511515335f5260096020526113be8360405f2061330e565b509060ff801983541691151516179055565b60206113dc83896139df565b510151335f52600960205260016113f68360405f2061330e565b500155604061140583896139df565b5101516114118161338f565b61141a8161338f565b335f52600960205260ff60026114338460405f2061330e565b5001911660ff19825416179055611493606061144f848a6139df565b51015161145b8161338f565b6114648161338f565b335f526009602052600261147b8460405f2061330e565b50019061ff0082549160081b169061ff001916179055565b6114a960806114a2848a6139df565b51016139ff565b9060048210156108e25761162d60ff8a6115f6866115f0846101008f829b6115b99161150260019d60026114e88f335f52600960205260405f2061330e565b50019062ff000082549160101b169062ff00001916179055565b61154a8c600261152e8860a061151888886139df565b5101511692335f52600960205260405f2061330e565b50019063ff00000082549160181b169063ff0000001916179055565b61157e8c60026115608860c061151888886139df565b50019064ff0000000082549160201b169064ff000000001916179055565b6115b48c60026115948860e061151888886139df565b50019065ff000000000082549160281b169065ff00000000001916179055565b6139df565b51015116335f52600960205260026115d48960405f2061330e565b50019060ff60301b82549160301b169060ff60301b1916179055565b8c6139df565b51015116335f52600960205260026116118460405f2061330e565b50019060ff60381b82549160381b169060ff60381b1916179055565b011661138a565b50509290939160018060a01b03601354169261166e60018060a01b036014541692335f52600460205261ffff60405f205416973691613947565b92611677613ec8565b506116828451613f88565b955f5b85518110156118a15761169881876139df565b519060405191630b2adfdf60e11b8352600483015260c0826024818b5afa80156108d7578b925f916117eb575b50602081016116dd81516116d88161338f565b614b11565b916116f1608082019360ff85511690614b5a565b9060ff806060830151169451169260a082019660ff88511693611737611720845161171b8161338f565b614b6e565b9960ff85519161172f8361338f565b511690614b9e565b60408551946117458661338f565b51956117508761338f565b01519560048710156108e25760019a61ffff60ff9485936117cf9b60206040519e8f9061177c82613222565b8152015260408d0152168060608c015260808b01521660a08901521660c08701525f60e08701525f6101008701526117b38261338f565b8501526117bf8161338f565b61014084015261016083016139f3565b6117d9828b6139df565b526117e4818a6139df565b5001611685565b92505060c0823d8211611899575b8161180660c0938361323e565b810103126101ee5760405160c081018181106001600160401b0382111761053257604052825160038110156101ee578152602083015160038110156101ee57602082015260408301519260048410156101ee5760a061188e918e95604085015261187260608201614023565b606085015261188360808201614023565b608085015201614023565b60a08201528c6116c5565b3d91506117f9565b5088938792936118b18a85614c18565b5f945b8051861015611ba6576118c786826139df565b5115611b98576118d786826139df565b5196604051976368972d5960e01b895260048901525f88602481875afa9788156108d7575f98611abe575b505f5b8651811015611aa757885160068110156108e25761194c5760019060ff60208b01511660ff611942611937848c6139df565b519282845116613f55565b1690525b01611905565b885160068110156108e25760010361198f5760019060ff60208b01511660ff611986602061197a858d6139df565b51019282845116613f55565b1690525b611946565b885160068110156108e2576002036119bd5760019060ff60208b01511660ff611986604061197a858d6139df565b885160068110156108e257600303611a565761ffff60606119de838a6139df565b5101511690600360ff60208c0151160261ffff8116908103610aab576064019161ffff8311610aab5761ffff611a18600194606493614b41565b160461ffff6060611a29848c6139df565b51019116905261ffff6060611a3e838b6139df565b510151166080611a4e838b6139df565b510152611946565b885160068110156108e257600403611a845760019060ff60208b01511660ff61198660a061197a858d6139df565b88519060068210156108e25760056001920361198a578160e0611a4e838b6139df565b509296509290946001905b019490929591956118b4565b9097503d805f833e611ad0818361323e565b8101906020818303126101ee578051906001600160401b0382116101ee5701906060828203126101ee5760405191611b07836131eb565b805160068110156101ee578352611b2060208201614023565b60208401526040810151906001600160401b0382116101ee570181601f820112156101ee578051906001600160401b0382116105325760405192611b6e601f8401601f19166020018561323e565b828452602083830101116101ee57815f9260208093018386015e8301015260408201529688611902565b929094600190969296611ab2565b5091935050611bb58151613f88565b915f5b8251811015611cd457611bcb81846139df565b51906060820191611be083516116d88161338f565b90611bf460c082019260ff84511690614b5a565b9060ff8060a0830151169351169060e081019560ff875116611c2c611c1d835161171b8161338f565b9860ff84519161172f8361338f565b6080604085015193611c3d8561338f565b5194611c488661338f565b01519460048610156108e25760019961ffff611cb89860ff958694611c719c6040519d8e613222565b8d5260208d015260408c0152168060608b015260808a01521660a08801521660c08601525f60e08601525f610100860152611cab8161338f565b8b8501526117bf8161338f565b611cc282876139df565b52611ccd81866139df565b5001611bb8565b50848484611ce184614031565b611cea81614031565b611cf48451613efc565b91611cff8251613efc565b5f5b8651811015611d31578061ffff6080611d1c6001948b6139df565b51015116611d2a82886139df565b5201611d01565b508486855f5b8651811015611d67578061ffff6080611d526001948b6139df565b51015116611d6082886139df565b5201611d37565b509194929390929060405195610f20611d80818961323e565b60788852601f19015f5b8181106125875750505f9360015b60ff811660128111611eb757611dad88614138565b158015612577575b611eb757600390611dc589614185565b611dce87614185565b0260ff8116908103610aab57846001911c1660010160ff8111610aab5760ff165f5b8160ff821610611e0b575b5050611e0690613f77565b611d98565b6077881015611ea257611e1d89614138565b158015611ea7575b611ea25788888c88868b611e3981876141ee565b919015611e7257611e49966147a0565b611e5b575b600160ff915b0116611df0565b966001611e6960ff92613f69565b98915050611e4e565b95611e7c966143c7565b611e8b575b600160ff91611e54565b966001611e9960ff92613f69565b98915050611e81565b611dfb565b50611eb187614138565b15611e25565b5050969395945091611ec99150614138565b1593611ed481613858565b92611ee2604051948561323e565b818452601f19611ef183613858565b015f5b81811061250e5750505f5b8281106124e457505050611f11613ec8565b9384526020840191825260408401948552606084019283528351151560405160208101913360601b835242603483015244605483015260f81b607482015260558152611f5e60758261323e565b5190209384600d55611f8a81511515335f52600a60205260405f209060ff801983541691151516179055565b335f52600b602052611f9e60405f20613a35565b5f5b865151811015611fd857600190335f52600b602052611fd260405f2061ffff611fca848c516139df565b511690613a5c565b01611fa0565b508594335f52600c602052611fef60405f20613a35565b5f5b85515181101561202157600190335f52600c60205261201b60405f2061ffff611fca848b516139df565b01611ff1565b5090919294335f52600e60205261203a60405f20613a92565b5f5b8651518110156122f057335f52600e60205260405f2061205d8289516139df565b51908054600160401b8110156105325761207c9160018201815561317e565b6122dd57815181546020840151604085015162ffffff1990921660ff939093169290921791151560081b61ff00169190911760109190911b62ff0000161781556060820151815463ff000000191660189190911b63ff000000161781556080820151815460a084015160c085015160e08601516bffffffffffffffff000000001990931660209490941b65ffff00000000169390931760309190911b67ffff000000000000161760409290921b69ffff0000000000000000169190911760509190911b61ffff60501b16178155610100820151805160018301916001600160401b0382116105325761216e8354613197565b601f81116122a2575b50602090601f83116001146122305761221f9460019796948460ff95610180956002955f92612225575b50505f19600383901b1c1916908a1b1790555b019282808c830151161683198554161784556121e88361014083015116859061ff0082549160081b169061ff001916179055565b610160810151845462ff0000191690841660101b62ff0000161784550151825463ff0000001916911660181b63ff00000016179055565b0161203c565b015190505f806121a1565b90601f19831691845f52815f20925f5b81811061228a5750946001856101809560029561221f9a9560ff99859e9d9b10612272575b505050811b0190556121b4565b01515f1960f88460031b161c191690555f8080612265565b92936020600181928786015181550195019301612240565b6122cd90845f5260205f20601f850160051c810191602086106122d3575b601f0160051c0190613a1f565b8c612177565b90915081906122c0565b634e487b7160e01b5f525f60045260245ffd5b50908591817fc5187ed43ef6c494568f3ace9a84a990fe330816256f8610ba7630de7fc2a4858786511515935190519361234e61233f6040519384938452606060208501526060840190613007565b82810360408401523396613007565b0390a35f5b825190815181101561240457827f60620dfbc2d4188642cffa14579da13e93400a7369bb90aac5a983beef88f66a61238d836001956139df565b5160ff8151166123fb602083015115159260ff6040820151169060ff60608201511661ffff6080830151169061010061ffff60e085015116930151936040519788978852602088015260408701526060860152608085015260a084015260e060c084015260e083019061303e565b0390a201612353565b84511515335f52600460205260405f2090805f146124dd5760195b60ff63ffffffff845460101c1691160163ffffffff8111610aab57825465ffffffff0000191660109190911b65ffffffff000016178255156124c857600181016124698154613f69565b90555b805461ffff8116906037820263ffffffff8116908103610aab57605a0163ffffffff8111610aab5763ffffffff8091169160101c1610156124a957005b61ffff8114610aab57815461ffff191660019190910161ffff16179055005b600281016124d68154613f69565b905561246c565b600a61241f565b806124f1600192846139df565b516124fc82886139df565b5261250781876139df565b5001611eff565b60209060405161251d816131cf565b5f81525f838201525f60408201525f60608201525f60808201525f60a08201525f60c08201525f60e082015260606101008201525f878201525f6101408201525f6101608201525f61018082015282828901015201611ef4565b5061258186614138565b15611db5565b602090604051612596816131cf565b5f81525f838201525f60408201525f60608201525f60808201525f60a08201525f60c08201525f60e082015260606101008201525f858201525f6101408201525f6101608201525f61018082015282828c01015201611d8a565b6020906125fb61386f565b82828a010152016111e9565b600190335f52600760205261261f8160405f206132ff565b90549060031b1c61263082876139df565b52016111c3565b90919350600381116126f3575f5b81811061265f575090612659913691613947565b916111cd565b61266a818385613937565b35612678575b600101612645565b60145461269791906020906001600160a01b0316610e57838688613937565b03915afa9182156108d7575f926126be575b506126b76001921515613993565b9050612670565b91506020823d82116126eb575b816126d86020938361323e565b810103126101ee579051906126b76126a9565b3d91506126cb565b60405162461bcd60e51b815260206004820152600f60248201526e546f6f206d616e792072656c69637360881b6044820152606490fd5b60405161273860808261323e565b6003815260603660208301376111b9565b612754818686613937565b6040516331a9108f60e11b815290356004820152602081602481865afa9081156108d7575f916127de575b50336001600160a01b03909116036127995760010161119d565b60405162461bcd60e51b815260206004820152601860248201527f596f7520646f206e6f74206f776e207468697320756e697400000000000000006044820152606490fd5b90506020813d8211612817575b816127f86020938361323e565b810103126101ee57516001600160a01b03811681036101ee578761277f565b3d91506127eb565b60405162461bcd60e51b8152602060048201526011602482015270496e76616c6964207465616d2073697a6560781b6044820152606490fd5b50600883111561118a565b346101ee575f3660031901126101ee576020600d54604051908152f35b346101ee5760403660031901126101ee57612899612fca565b6001600160a01b03165f908152600560205260409020805460243591908210156101ee5760209161023b91613100565b346101ee5760403660031901126101ee576128e2612fca565b6001600160a01b03165f908152600b602052604090208054602435908110156101ee5761102361ffff916020936130df565b346101ee5760203660031901126101ee5761292d612fca565b606060405161293d60608261323e565b5f5b8281106129bf578360018060a01b03165f52600860205260405f2060405190612967826131eb565b5f825b600382106129a157604051845f825b60038210612987576103c084f35b60206129966001928551613062565b930191019091612979565b600360206001926129b1866138b9565b81520193019101909161296a565b6020906129ca61386f565b818401520161293f565b346101ee575f3660031901126101ee576129ec613e71565b60025460ff811615612a2b5760ff19166002557f5db9ee0a495bf2e6ff9c91a7834c1ba4fdd244a5e8aa4e537bd38aeae4b073aa6020604051338152a1005b60405162461bcd60e51b815260206004820152601460248201527314185d5cd8589b194e881b9bdd081c185d5cd95960621b6044820152606490fd5b346101ee575f3660031901126101ee57612a7f613e71565b612a87613bb9565b478015612aaa575f8080809360018060a01b0382541682f1156108d75760018055005b60405162461bcd60e51b81526020600482015260146024820152734e6f2066756e647320746f20776974686472617760601b6044820152606490fd5b346101ee575f3660031901126101ee576020600f54604051908152f35b346101ee5760203660031901126101ee576001600160a01b03612b24612fca565b16805f52600a60205260ff60405f205416815f52600b60205260405f20825f52600c60205260405f2092600d54905f52600e602052612b6f612b6960405f209361354d565b9461354d565b825490612b7b82613858565b91612b89604051938461323e565b8083526020830180955f5260205f205f915b838310612ce95750505050612bd690612bc86040519788971515885260a0602089015260a0880190613007565b908682036040880152613007565b916060850152838203608085015251808252602082019160208260051b82010193925f915b838310612c085786860387f35b919395509193602080600192601f1985820301865288519060ff82511681528282015115158382015260ff604083015116604082015260ff606083015116606082015261ffff608083015116608082015261ffff60a08301511660a082015261ffff60c08301511660c082015261ffff60e08301511660e082015261018060ff81612ca66101008601516101a06101008701526101a086019061303e565b9482610120820151166101208601528261014082015116610140860152826101608201511661016086015201511691015297019301930190928695949293612bfb565b6003602060019260409c9798999a9b9c51612d03816131cf565b61ffff865460ff8116835260ff8160081c1615158584015260ff8160101c16604084015260ff8160181c1660608401528181861c166080840152818160301c1660a0840152818160401c1660c084015260501c1660e0820152612d6785870161325f565b61010082015260ff6002870154818116610120840152818160081c16610140840152818160101c1661016084015260181c1661018082015281520192019201919098979695949398612b9b565b5f3660031901126101ee57612dc7613b75565b612dcf613bb9565b612dd7613c0f565b612de5601054341015613321565b5f5b60038110612df55760018055005b600190612e18612e03613d2a565b335f5260086020526108958360405f20612fe0565b01612de7565b5f3660031901126101ee57612e31613b75565b612e39613bb9565b612e41613c0f565b612e4f600f54341015613321565b60405160208101904282523360601b604082015244605482015260548152612e7860748261323e565b519020600b8106600a0180600a11610aab57600b8260081c066008019081600811610aab57600b8360101c066009019283600911610aab5760ff60038260181c0616612eca60038360201c1692613d08565b6013546001600160a01b0316929060ff90612ee48461338f565b1695612eef8761338f565b60048210156108e257604051630e3bd81160e31b815296602096889687955f958795612f2c9560ff91821695821694909116923360048901613399565b03925af180156108d7575f90612f52575b61089b90335f52600560205260405f206133f9565b506020813d602011612f7e575b81612f6c6020938361323e565b810103126101ee5761089b9051612f3d565b3d9150612f5f565b346101ee5760403660031901126101ee57612f9f612fca565b6001600160a01b03165f90815260086020526040902060243560038110156101ee5761035491612fe0565b600435906001600160a01b03821682036101ee57565b906003811015612ff35760030201905f90565b634e487b7160e01b5f52603260045260245ffd5b90602080835192838152019201905f5b8181106130245750505090565b825161ffff16845260209384019390920191600101613017565b805180835260209291819084018484015e5f828201840152601f01601f1916010190565b9060ff61012061014093805115158452602081015160208501528260408201511660408501528260608201511660608501528260808201511660808501528260a08201511660a08501528260c08201511660c08501528260e08201511660e085015282610100820151166101008501520151166101208201520190565b9190918054831015612ff3575f52601e60205f208360041c019260011b1690565b8054821015612ff3575f5260205f2001905f90565b9181601f840112156101ee578235916001600160401b0383116101ee576020808501948460051b0101116101ee57565b60206040818301928281528451809452019201905f5b8181106131685750505090565b825184526020938401939092019160010161315b565b8054821015612ff3575f52600360205f20910201905f90565b90600182811c921680156131c5575b60208310146131b157565b634e487b7160e01b5f52602260045260245ffd5b91607f16916131a6565b6101a081019081106001600160401b0382111761053257604052565b606081019081106001600160401b0382111761053257604052565b61014081019081106001600160401b0382111761053257604052565b61018081019081106001600160401b0382111761053257604052565b90601f801991011681019081106001600160401b0382111761053257604052565b9060405191825f82549261327284613197565b80845293600181169081156132dd5750600114613299575b506132979250038361323e565b565b90505f9291925260205f20905f915b8183106132c1575050906020613297928201015f61328a565b60209193508060019154838589010152019101909184926132a8565b90506020925061329794915060ff191682840152151560051b8201015f61328a565b6003821015612ff35701905f90565b906008811015612ff35760030201905f90565b1561332857565b60405162461bcd60e51b8152602060048201526014602482015273125b9cdd59999a58da595b9d081c185e5b595b9d60621b6044820152606490fd5b811561336e570690565b634e487b7160e01b5f52601260045260245ffd5b91908201809211610aab57565b600311156108e257565b6001600160a01b03909116815260e081019796909594909290916133bc8161338f565b60208701526133ca8161338f565b604086015260048310156108e25760c09360ff809492819360608901521660808701521660a085015216910152565b8054600160401b8110156105325761341691600182018155613100565b819291549060031b91821b915f19901b1916179055565b91906122dd5760ff61012060026132979461345785511515829060ff801983541691151516179055565b602085015160018201550192828060408301511616831985541617845561349583606083015116859061ff0082549160081b169061ff001916179055565b6080810151845462ff0000191690841660101b62ff00001617845560a0810151845463ff000000191690841660181b63ff0000001617845560c0810151845464ff00000000191690841660201b64ff000000001617845560e0810151845465ff0000000000191690841660281b65ff000000000016178455610100810151845466ff000000000000191690841660301b60ff60301b161784550151825467ff000000000000001916911660381b60ff60381b16179055565b90604051918281549182825260208201905f5260205f20925f905b80600f8301106137705761329794549181811061375b575b818110613743575b81811061372c575b818110613714575b8181106136fc575b8181106136e4575b8181106136cc575b8181106136b4575b81811061369c575b818110613684575b81811061366c575b818110613654575b81811061363c575b818110613624575b81811061360c575b106135fe575b50038361323e565b60f01c81526020015f6135f6565b92602060019161ffff8560e01c1681520193016135f0565b92602060019161ffff8560d01c1681520193016135e8565b92602060019161ffff8560c01c1681520193016135e0565b92602060019161ffff8560b01c1681520193016135d8565b92602060019161ffff8560a01c1681520193016135d0565b92602060019161ffff8560901c1681520193016135c8565b92602060019161ffff8560801c1681520193016135c0565b92602060019161ffff8560701c1681520193016135b8565b92602060019161ffff8560601c1681520193016135b0565b92602060019161ffff8560501c1681520193016135a8565b92602060019161ffff8560401c1681520193016135a0565b92602060019161ffff8560301c168152019301613598565b92602060019161ffff85831c168152019301613590565b92602060019161ffff8560101c168152019301613588565b92602060019161ffff85168152019301613580565b916010919350610200600191865461ffff8116825261ffff81861c16602083015261ffff8160201c16604083015261ffff8160301c16606083015261ffff8160401c16608083015261ffff8160501c1660a083015261ffff8160601c1660c083015261ffff8160701c1660e083015261ffff8160801c1661010083015261ffff8160901c1661012083015261ffff8160a01c1661014083015261ffff8160b01c1661016083015261ffff8160c01c1661018083015261ffff8160d01c166101a083015261ffff8160e01c166101c083015260f01c6101e0820152019401920185929391613568565b6001600160401b0381116105325760051b60200190565b6040519061387c82613206565b5f610120838281528260208201528260408201528260608201528260808201528260a08201528260c08201528260e0820152826101008201520152565b906040516138c681613206565b61012060ff6002839582815416151585526001810154602086015201548181166040850152818160081c166060850152818160101c166080850152818160181c1660a0850152818160201c1660c0850152818160281c1660e0850152818160301c1661010085015260381c16910152565b9190811015612ff35760051b0190565b92919061395381613858565b93613961604051958661323e565b602085838152019160051b81019283116101ee57905b82821061398357505050565b8135815260209182019101613977565b1561399a57565b60405162461bcd60e51b815260206004820152601960248201527f596f7520646f206e6f74206f776e20746869732072656c6963000000000000006044820152606490fd5b8051821015612ff35760209160051b010190565b60048210156108e25752565b5160048110156108e25790565b81810292918115918404141715610aab57565b818110613a2a575050565b5f8155600101613a1f565b80545f825580613a43575050565b613297915f52600f60205f20910160041c810190613a1f565b8054600160401b81101561053257613a79916001820181556130df565b61ffff80839493549260031b9316831b921b1916179055565b8054905f815581613aa1575050565b81600302916003830403610aab575f5260205f20908101905b818110613ac5575050565b805f6003925560018101613ad98154613197565b9081613aee575b50505f600282015501613aba565b81601f5f9311600114613b055750555b5f80613ae0565b81835260208320613b2191601f0160051c810190600101613a1f565b8082528160208120915555613afe565b6003811015612ff35760051b60040190565b906003811015612ff35760051b0190565b80545f825580613b62575050565b613297915f5260205f2090810190613a1f565b60ff60025416613b8157565b60405162461bcd60e51b815260206004820152601060248201526f14185d5cd8589b194e881c185d5cd95960821b6044820152606490fd5b600260015414613bca576002600155565b60405162461bcd60e51b815260206004820152601f60248201527f5265656e7472616e637947756172643a207265656e7472616e742063616c6c006044820152606490fd5b335f52600360205260ff60405f20541615613c2657565b335f52600360205260405f20600160ff1982541617905560405160a081018181106001600160401b03821117610532576040526001815261ffff600381602084015f8152604085015f815260608601905f8252613cc563ffffffff608089019460018652335f526004602052868060405f209b51161687198b5416178a555116889065ffffffff000082549160101b169065ffffffff00001916179055565b51600187015551600286015551169201911661ffff19825416179055337ff10ec97e920cde75887622583772c637595a40b1f7777c18e51ea36cd127475c5f80a2565b60649006603c8110613d2557605a11613d2057600290565b600190565b505f90565b613d3261386f565b5060405160208101904282524460408201523360601b606082015260548152613d5c60748261323e565b5190206028606482061015613dd057600d8160081c0660080180600811610aab5760ff9081600660405194613d9086613206565b600186525f60208701525f60408701525f60608701525f60808701525f60a08701525f60c08701525f60e087015206166101008401521661012082015290565b613dd981613d08565b90600b8160281c06600a0180600a11610aab57600b8260301c066008019081600811610aab57600b8360381c066009019182600911610aab5760ff809492600382948360405199613e298b613206565b5f8b525f60208c015281848460101c061660408c01521660608a015260181c1660808801521660a08601521660c08401521660e08201525f6101008201525f61012082015290565b5f546001600160a01b03163303613e8457565b606460405162461bcd60e51b815260206004820152602060248201527f4f776e61626c653a2063616c6c6572206973206e6f7420746865206f776e65726044820152fd5b60405190608082018281106001600160401b0382111761053257604052606080835f81528160208201528160408201520152565b90613f0682613858565b613f13604051918261323e565b8281528092613f24601f1991613858565b0190602036910137565b60021b906103fc60fc831692168203610aab57565b60ff60029116019060ff8211610aab57565b9060ff8091169116019060ff8211610aab57565b5f198114610aab5760010190565b60ff1660ff8114610aab5760010190565b90613f9282613858565b613f9f604051918261323e565b8281528092613fb0601f1991613858565b01905f5b828110613fc057505050565b602090604051613fcf81613222565b5f81525f838201525f60408201525f60608201525f60808201525f60a08201525f60c08201525f60e08201525f6101008201525f6101208201525f6101408201525f61016082015282828501015201613fb4565b519060ff821682036101ee57565b60405191906060614042818561323e565b60603685375f5b82518110156140c1578061ffff83614063600194876139df565b51015116614072575b01614049565b60ff61012061408183876139df565b51015161408d8161338f565b6140968161338f565b1660ff6140b86140b1826140aa858c613b43565b5116613f77565b9289613b43565b9116905261406c565b50505f5b81518110156141325780600360ff614102816101206140e6600197896139df565b5101516140f28161338f565b6140fb8161338f565b1688613b43565b51161015614111575b016140c5565b61411b81846139df565b5160ff61412a81835116613f43565b16905261410b565b50509050565b5f5b81518110156141695761ffff606061415283856139df565b510151166141625760010161413a565b5050600190565b50505f90565b9061ffff8091169116019061ffff8211610aab57565b5f5b81518110156141ea578061ffff60606141a2600194866139df565b510151166141b1575b01614187565b60ff60406141bf83866139df565b5101511661ffff6141e26101006141d685886139df565b5101928284511661416f565b1690526141ab565b5050565b905f905f5f945f915f5b865181101561427d5761422461421d6060614213848b6139df565b51015161ffff1690565b61ffff1690565b15158061425e575b614239575b6001016141f8565b965050925061424e61010061421387876139df565b9260018060ff8816979050614231565b5061426f610100614213838a6139df565b61ffff80881691161161422c565b5091949092955f5b87518110156142fb576142a061421d6060614213848c6139df565b1515806142dc575b6142b5575b600101614285565b9550915092506142cb61010061421386886139df565b925f91600160ff87169690506142ad565b506142ed610100614213838b6139df565b61ffff8088169116116142a8565b50919361ffff909591939516156143515791610100915f938585146143495750955b84841461433a57506143339060ff8716906139df565b5101529190565b614333915060ff8716906139df565b90509561431d565b50506143719293915061436381614185565b61436c82614185565b6141ee565b9091565b61ffff5f199116019061ffff8211610aab57565b9061ffff8091169116039061ffff8211610aab57565b604051906143ae60408361323e565b600a82526913185cdd0814dd185b9960b21b6020830152565b959160ff909794959391971661ffff60606143e2838a6139df565b5101511615614794575f955f5b895181101561442c5761ffff6060614407838d6139df565b51015116614418575b6001016143ef565b96614424600191613f69565b979050614410565b5090929497919395968715614788575f97600181036146f557505f5b83518110156146e75761ffff606061446083876139df565b5101511661447057600101614448565b909192939495969750915b61ffff606061448a85876139df565b510151169060ff61449b87856139df565b51511660ff60206144ac87896139df565b5101511660ff60a06144be8a886139df565b5101511660ff60c06144d0898b6139df565b510151169160038c02948c86046003148d151715610aab576144f3951c93614d1e565b908061ffff806060614505898b6139df565b510151169116116146ce575b5f60e061451e87896139df565b5101511515806146ae575b156146845750505061454c61ffff606061454386886139df565b51015116614375565b6001606061455a86886139df565b51015260019161456861439f565b925b614674575b61ffff606061457e87896139df565b51015116916101606145ad89610140614597828a6139df565b510151976145a48961338f565b6115b48961338f565b5101519560048710156108e2576145e76101606114a2836101406145d1828e6139df565b5101519b6145de8d61338f565b6115b48d61338f565b9860048a10156108e2576040519a6145fe8c6131cf565b60ff168b5260208b015f905260408b015260ff1660608a015261ffff168060808a015260a089015260c088015260e087015261010086015260ff1661012085015260ff1661014084015260ff1661016083015260ff1661018082015261466482846139df565b5261466e916139df565b50600190565b915061467e61439f565b9161456f565b60606146948789969495966139df565b510161ffff6146a68582845116614389565b16905261456a565b5061ffff60606146be888a6139df565b5101511661ffff83161015614529565b5061ffff60606146de86886139df565b51015116614511565b50909691929394959661447b565b61471e919850826147188860ff6147128a9998979e9c9b9a613f2e565b16613382565b1c613364565b975f975f5b83518110156147785761ffff606061473b83876139df565b5101511661474c575b600101614723565b988a81146147675761475f600191613f69565b999050614744565b50919395979092949698509161447b565b509193959750979193959761447b565b50505050505050505f90565b50505050925050505f90565b959160ff909794959391971661ffff60606147bb838a6139df565b5101511615614794575f955f5b89518110156148055761ffff60606147e0838d6139df565b510151166147f1575b6001016147c8565b966147fd600191613f69565b9790506147e9565b5090929497919395968715614788575f9760018103614a8a57505f5b8351811015614a7c5761ffff606061483983876139df565b5101511661484957600101614821565b909192939495969750915b61ffff606061486385876139df565b510151169060ff61487487856139df565b51511660ff602061488587896139df565b5101511660ff60a06148978a886139df565b5101511660ff60c06148a9898b6139df565b510151169160038c02948c86046003148d151715610aab576148cc951c93614d1e565b908061ffff8060606148de898b6139df565b51015116911611614a63575b5f60e06148f787896139df565b510151151580614a43575b15614a195750505061491c61ffff606061454386886139df565b6001606061492a86886139df565b51015260019161493861439f565b925b614a09575b61ffff606061494e87896139df565b510151169161016061496789610140614597828a6139df565b5101519560048710156108e25761498b6101606114a2836101406145d1828e6139df565b9860048a10156108e2576040519a6149a28c6131cf565b60ff168b5260208b016001905260408b015260ff1660608a015261ffff168060808a015260a089015260c088015260e087015261010086015260ff1661012085015260ff1661014084015260ff1661016083015260ff1661018082015261466482846139df565b9150614a1361439f565b9161493f565b6060614a298789969495966139df565b510161ffff614a3b8582845116614389565b16905261493a565b5061ffff6060614a53888a6139df565b5101511661ffff83161015614902565b5061ffff6060614a7386886139df565b510151166148ea565b509096919293949596614854565b614aa7919850826147188860ff6147128a9998979e9c9b9a613f2e565b975f975f5b8351811015614b015761ffff6060614ac483876139df565b51015116614ad5575b600101614aac565b988a8114614af057614ae8600191613f69565b999050614acd565b509193959790929496985091614854565b5091939597509791939597614854565b614b1a8161338f565b8015614b3b57600190614b2c8161338f565b14614b3657606990565b605290565b50604190565b9061ffff8091169116029061ffff8216918203610aab57565b9060021b6103fc16614b6b9161416f565b90565b614b778161338f565b8015614b9857600190614b898161338f565b14614b9357601490565b600c90565b50600690565b9060ff60169116049081614bb18261338f565b60018214614c03575b50600290614bc78161338f565b14614bdf575b601260ff82161115614b6b5750601290565b60ff600491160160ff811115614bcd57634e487b7160e01b5f52601160045260245ffd5b6002919250614c1190613f43565b9190614bba565b919061ffff168015614d195760038102908104600303610aab576064019182606411610aab575f5b8151811015614132578060ff6064614c678783614c5f600197896139df565b515116613a0c565b0416614c7382856139df565b515260ff6064614c9387836020614c8a878a6139df565b51015116613a0c565b04166020614ca183866139df565b51015260ff6064614cb987836040614c8a878a6139df565b04166040614cc783866139df565b51015261ffff6064614ce087836060614c8a878a6139df565b04166060614cee83866139df565b51015261ffff6060614d0083866139df565b510151166080614d1083866139df565b51015201614c40565b509050565b60609594929360ff1680158015919082614e7e575b5050614e535760ff169061ffff6023840616606e0161ffff8111610aab5760ff614d5f60129285614b41565b92160161ffff8111610aab5761ffff1690811561336e5761ffff160490600261ffff831610614e36575b5061ffff60258360081c061660520161ffff8111610aab57614db061ffff91606493614b41565b16049060ff829316908115159182614e0d575b5050614dce57509190565b600d92935061ffff9150160261ffff8116908103610aab57600a900490604051614df960408261323e565b600481526310d4925560e21b602082015290565b601c9192500261ffff8116908103610aab5761ffff600a60649204169160181c06105f80614dc3565b60ff9150600390041660020160ff8111610aab5760ff165f614d89565b5050505090505f90604051614e6960408261323e565b6005815264444f44474560d81b602082015290565b909150601982029182046019141715610aab57600a900460648406105f80614d3356fea2646970667358221220fb8d15b84b6bd10f8ce51e050fd61ac8b12cb37ffa7cf6ee2cac455cc55b45fb64736f6c634300081e0033",
			"opcodes": "PUSH1 0x80 CALLVALUE PUSH2 0x109 JUMPI PUSH1 0x1F PUSH2 0x500D CODESIZE DUP2 SWAP1 SUB SWAP2 DUP3 ADD PUSH1 0x1F NOT AND DUP4 ADD SWAP2 PUSH1 0x1 PUSH1 0x1 PUSH1 0x40 SHL SUB DUP4 GT DUP5 DUP5 LT OR PUSH2 0x10D JUMPI DUP1 DUP5 SWAP3 PUSH1 0x40 SWAP5 DUP6 MSTORE DUP4 CODECOPY DUP2 ADD SUB SLT PUSH2 0x109 JUMPI PUSH2 0x52 PUSH1 0x20 PUSH2 0x4B DUP4 PUSH2 0x121 JUMP JUMPDEST SWAP3 ADD PUSH2 0x121 JUMP JUMPDEST PUSH0 DUP1 SLOAD CALLER PUSH1 0x1 PUSH1 0x1 PUSH1 0xA0 SHL SUB NOT DUP3 AND DUP2 OR DUP4 SSTORE PUSH1 0x40 MLOAD SWAP5 SWAP3 SWAP1 SWAP2 PUSH1 0x1 PUSH1 0x1 PUSH1 0xA0 SHL SUB AND SWAP1 PUSH32 0x8BE0079C531659141344CD1FD0A4F28419497F9722A3DAAFE3B4186F6B6457E0 SWAP1 DUP1 LOG3 PUSH1 0x1 DUP1 SSTORE PUSH1 0x2 DUP1 SLOAD PUSH1 0xFF NOT AND SWAP1 SSTORE PUSH7 0x2386F26FC10000 PUSH1 0xF DUP2 SWAP1 SSTORE PUSH7 0x11C37937E08000 PUSH1 0x10 SSTORE PUSH1 0x11 SSTORE PUSH7 0x1C6BF526340000 PUSH1 0x12 SSTORE PUSH1 0x13 DUP1 SLOAD PUSH1 0x1 PUSH1 0x1 PUSH1 0xA0 SHL SUB SWAP3 DUP4 AND PUSH1 0x1 PUSH1 0x1 PUSH1 0xA0 SHL SUB NOT SWAP2 DUP3 AND OR SWAP1 SWAP2 SSTORE PUSH1 0x14 DUP1 SLOAD SWAP4 SWAP1 SWAP3 AND SWAP3 AND SWAP2 SWAP1 SWAP2 OR SWAP1 SSTORE PUSH2 0x4ED7 SWAP1 DUP2 PUSH2 0x136 DUP3 CODECOPY RETURN JUMPDEST PUSH0 DUP1 REVERT JUMPDEST PUSH4 0x4E487B71 PUSH1 0xE0 SHL PUSH0 MSTORE PUSH1 0x41 PUSH1 0x4 MSTORE PUSH1 0x24 PUSH0 REVERT JUMPDEST MLOAD SWAP1 PUSH1 0x1 PUSH1 0x1 PUSH1 0xA0 SHL SUB DUP3 AND DUP3 SUB PUSH2 0x109 JUMPI JUMP INVALID PUSH1 0x80 PUSH1 0x40 MSTORE PUSH1 0x4 CALLDATASIZE LT ISZERO PUSH2 0x11 JUMPI PUSH0 DUP1 REVERT JUMPDEST PUSH0 CALLDATALOAD PUSH1 0xE0 SHR DUP1 PUSH4 0x18DC3185 EQ PUSH2 0x2F86 JUMPI DUP1 PUSH4 0x201738E2 EQ PUSH2 0x2E1E JUMPI DUP1 PUSH4 0x29DE58D1 EQ PUSH2 0x2DB4 JUMPI DUP1 PUSH4 0x2DC6D62F EQ PUSH2 0x2B03 JUMPI DUP1 PUSH4 0x394861F3 EQ PUSH2 0x2AE6 JUMPI DUP1 PUSH4 0x3CCFD60B EQ PUSH2 0x2A67 JUMPI DUP1 PUSH4 0x3F4BA83A EQ PUSH2 0x29D4 JUMPI DUP1 PUSH4 0x49C7C24A EQ PUSH2 0x2914 JUMPI DUP1 PUSH4 0x4E178659 EQ PUSH2 0x28C9 JUMPI DUP1 PUSH4 0x4EF2D6C1 EQ PUSH2 0x2880 JUMPI DUP1 PUSH4 0x518C83B0 EQ PUSH2 0x2863 JUMPI DUP1 PUSH4 0x51BDAB14 EQ PUSH2 0x111E JUMPI DUP1 PUSH4 0x5C975ABB EQ PUSH2 0x10FC JUMPI DUP1 PUSH4 0x6154EE97 EQ PUSH2 0x108A JUMPI DUP1 PUSH4 0x715018A6 EQ PUSH2 0x1033 JUMPI DUP1 PUSH4 0x732E9B85 EQ PUSH2 0xFD8 JUMPI DUP1 PUSH4 0x7E5C4F8B EQ PUSH2 0xF95 JUMPI DUP1 PUSH4 0x8456CB59 EQ PUSH2 0xF3C JUMPI DUP1 PUSH4 0x8B5CA78F EQ PUSH2 0xF1F JUMPI DUP1 PUSH4 0x8DA5CB5B EQ PUSH2 0xEF8 JUMPI DUP1 PUSH4 0x9D980BD2 EQ PUSH2 0xEDB JUMPI DUP1 PUSH4 0xA5F968A0 EQ PUSH2 0xD93 JUMPI DUP1 PUSH4 0xA787C80B EQ PUSH2 0xD56 JUMPI DUP1 PUSH4 0xA95DB7E2 EQ PUSH2 0xCB8 JUMPI DUP1 PUSH4 0xAEB5F760 EQ PUSH2 0xBB7 JUMPI DUP1 PUSH4 0xB2A47500 EQ PUSH2 0xB74 JUMPI DUP1 PUSH4 0xB654823E EQ PUSH2 0x78E JUMPI DUP1 PUSH4 0xB78F4C70 EQ PUSH2 0x751 JUMPI DUP1 PUSH4 0xB92A40AD EQ PUSH2 0x729 JUMPI DUP1 PUSH4 0xBB15A3B4 EQ PUSH2 0x6AB JUMPI DUP1 PUSH4 0xBBE15627 EQ PUSH2 0x63A JUMPI DUP1 PUSH4 0xBDB729C9 EQ PUSH2 0x5A3 JUMPI DUP1 PUSH4 0xC4F036C4 EQ PUSH2 0x55B JUMPI DUP1 PUSH4 0xC99AE45F EQ PUSH2 0x477 JUMPI DUP1 PUSH4 0xD5654AE7 EQ PUSH2 0x44F JUMPI DUP1 PUSH4 0xD8E86854 EQ PUSH2 0x3DF JUMPI DUP1 PUSH4 0xDA539B0F EQ PUSH2 0x310 JUMPI DUP1 PUSH4 0xF2FDE38B EQ PUSH2 0x24A JUMPI DUP1 PUSH4 0xF5905CA1 EQ PUSH2 0x1F2 JUMPI PUSH4 0xF5E5FFF2 EQ PUSH2 0x1D1 JUMPI PUSH0 DUP1 REVERT JUMPDEST CALLVALUE PUSH2 0x1EE JUMPI PUSH0 CALLDATASIZE PUSH1 0x3 NOT ADD SLT PUSH2 0x1EE JUMPI PUSH1 0x20 PUSH1 0x11 SLOAD PUSH1 0x40 MLOAD SWAP1 DUP2 MSTORE RETURN JUMPDEST PUSH0 DUP1 REVERT JUMPDEST CALLVALUE PUSH2 0x1EE JUMPI PUSH1 0x40 CALLDATASIZE PUSH1 0x3 NOT ADD SLT PUSH2 0x1EE JUMPI PUSH2 0x20B PUSH2 0x2FCA JUMP JUMPDEST PUSH1 0x1 PUSH1 0x1 PUSH1 0xA0 SHL SUB AND PUSH0 SWAP1 DUP2 MSTORE PUSH1 0x6 PUSH1 0x20 MSTORE PUSH1 0x40 SWAP1 KECCAK256 DUP1 SLOAD PUSH1 0x24 CALLDATALOAD SWAP2 SWAP1 DUP3 LT ISZERO PUSH2 0x1EE JUMPI PUSH1 0x20 SWAP2 PUSH2 0x23B SWAP2 PUSH2 0x3100 JUMP JUMPDEST SWAP1 SLOAD SWAP1 PUSH1 0x3 SHL SHR PUSH1 0x40 MLOAD SWAP1 DUP2 MSTORE RETURN JUMPDEST CALLVALUE PUSH2 0x1EE JUMPI PUSH1 0x20 CALLDATASIZE PUSH1 0x3 NOT ADD SLT PUSH2 0x1EE JUMPI PUSH2 0x263 PUSH2 0x2FCA JUMP JUMPDEST PUSH2 0x26B PUSH2 0x3E71 JUMP JUMPDEST PUSH1 0x1 PUSH1 0x1 PUSH1 0xA0 SHL SUB AND DUP1 ISZERO PUSH2 0x2BC JUMPI PUSH0 DUP1 SLOAD PUSH1 0x1 PUSH1 0x1 PUSH1 0xA0 SHL SUB NOT DUP2 AND DUP4 OR DUP3 SSTORE PUSH1 0x1 PUSH1 0x1 PUSH1 0xA0 SHL SUB AND SWAP1 PUSH32 0x8BE0079C531659141344CD1FD0A4F28419497F9722A3DAAFE3B4186F6B6457E0 SWAP1 DUP1 LOG3 STOP JUMPDEST PUSH1 0x40 MLOAD PUSH3 0x461BCD PUSH1 0xE5 SHL DUP2 MSTORE PUSH1 0x20 PUSH1 0x4 DUP3 ADD MSTORE PUSH1 0x26 PUSH1 0x24 DUP3 ADD MSTORE PUSH32 0x4F776E61626C653A206E6577206F776E657220697320746865207A65726F2061 PUSH1 0x44 DUP3 ADD MSTORE PUSH6 0x646472657373 PUSH1 0xD0 SHL PUSH1 0x64 DUP3 ADD MSTORE PUSH1 0x84 SWAP1 REVERT JUMPDEST CALLVALUE PUSH2 0x1EE JUMPI PUSH1 0x40 CALLDATASIZE PUSH1 0x3 NOT ADD SLT PUSH2 0x1EE JUMPI PUSH2 0x329 PUSH2 0x2FCA JUMP JUMPDEST PUSH1 0x1 PUSH1 0x1 PUSH1 0xA0 SHL SUB AND PUSH0 SWAP1 DUP2 MSTORE PUSH1 0x9 PUSH1 0x20 MSTORE PUSH1 0x40 SWAP1 KECCAK256 PUSH1 0x24 CALLDATALOAD PUSH1 0x8 DUP2 LT ISZERO PUSH2 0x1EE JUMPI PUSH2 0x354 SWAP2 PUSH2 0x330E JUMP JUMPDEST POP DUP1 SLOAD PUSH1 0x1 DUP3 ADD SLOAD PUSH1 0x2 SWAP1 SWAP3 ADD SLOAD PUSH1 0x40 DUP1 MLOAD PUSH1 0xFF SWAP4 DUP5 AND ISZERO ISZERO DUP2 MSTORE PUSH1 0x20 DUP1 DUP3 ADD SWAP6 SWAP1 SWAP6 MSTORE DUP3 DUP5 AND SWAP2 DUP2 ADD SWAP2 SWAP1 SWAP2 MSTORE PUSH1 0x8 DUP3 SWAP1 SHR DUP4 AND PUSH1 0x60 DUP3 ADD MSTORE PUSH1 0x10 DUP3 SWAP1 SHR DUP4 AND PUSH1 0x80 DUP3 ADD MSTORE PUSH1 0x18 DUP3 SWAP1 SHR DUP4 AND PUSH1 0xA0 DUP3 ADD MSTORE SWAP3 DUP2 SWAP1 SHR DUP3 AND PUSH1 0xC0 DUP5 ADD MSTORE PUSH1 0x28 DUP2 SWAP1 SHR DUP3 AND PUSH1 0xE0 DUP5 ADD MSTORE PUSH1 0x30 DUP2 SWAP1 SHR DUP3 AND PUSH2 0x100 DUP5 ADD MSTORE PUSH1 0x38 SHR AND PUSH2 0x120 DUP3 ADD MSTORE DUP1 PUSH2 0x140 DUP2 ADD JUMPDEST SUB SWAP1 RETURN JUMPDEST CALLVALUE PUSH2 0x1EE JUMPI PUSH1 0x80 CALLDATASIZE PUSH1 0x3 NOT ADD SLT PUSH2 0x1EE JUMPI PUSH32 0x6EF2FF813EFC9EFC76792366C4ACA2677B755A5A13AFFC54D96EF35DC8E9BB73 PUSH1 0x80 PUSH1 0x4 CALLDATALOAD PUSH1 0x64 CALLDATALOAD PUSH1 0x44 CALLDATALOAD PUSH1 0x24 CALLDATALOAD PUSH2 0x427 PUSH2 0x3E71 JUMP JUMPDEST DUP4 PUSH1 0xF SSTORE DUP1 PUSH1 0x10 SSTORE DUP2 PUSH1 0x11 SSTORE DUP3 PUSH1 0x12 SSTORE PUSH1 0x40 MLOAD SWAP4 DUP5 MSTORE PUSH1 0x20 DUP5 ADD MSTORE PUSH1 0x40 DUP4 ADD MSTORE PUSH1 0x60 DUP3 ADD MSTORE LOG1 STOP JUMPDEST CALLVALUE PUSH2 0x1EE JUMPI PUSH0 CALLDATASIZE PUSH1 0x3 NOT ADD SLT PUSH2 0x1EE JUMPI PUSH1 0x14 SLOAD PUSH1 0x40 MLOAD PUSH1 0x1 PUSH1 0x1 PUSH1 0xA0 SHL SUB SWAP1 SWAP2 AND DUP2 MSTORE PUSH1 0x20 SWAP1 RETURN JUMPDEST CALLVALUE PUSH2 0x1EE JUMPI PUSH1 0x20 CALLDATASIZE PUSH1 0x3 NOT ADD SLT PUSH2 0x1EE JUMPI PUSH2 0x490 PUSH2 0x2FCA JUMP JUMPDEST PUSH2 0x100 SWAP1 PUSH1 0x40 MLOAD PUSH2 0x4A1 DUP4 DUP3 PUSH2 0x323E JUMP JUMPDEST PUSH0 JUMPDEST DUP4 DUP2 LT PUSH2 0x546 JUMPI POP POP PUSH1 0x1 DUP1 PUSH1 0xA0 SHL SUB AND PUSH0 MSTORE PUSH1 0x9 PUSH1 0x20 MSTORE PUSH1 0x40 PUSH0 KECCAK256 PUSH1 0x40 MLOAD SWAP2 DUP3 ADD DUP3 DUP2 LT PUSH1 0x1 PUSH1 0x1 PUSH1 0x40 SHL SUB DUP3 GT OR PUSH2 0x532 JUMPI PUSH1 0x40 MSTORE PUSH0 DUP3 JUMPDEST PUSH1 0x8 DUP3 LT PUSH2 0x514 JUMPI PUSH1 0x40 MLOAD DUP5 PUSH0 DUP3 JUMPDEST PUSH1 0x8 DUP3 LT PUSH2 0x4FA JUMPI PUSH2 0xA00 DUP5 RETURN JUMPDEST PUSH1 0x20 PUSH2 0x509 PUSH1 0x1 SWAP3 DUP6 MLOAD PUSH2 0x3062 JUMP JUMPDEST SWAP4 ADD SWAP2 ADD SWAP1 SWAP2 PUSH2 0x4EC JUMP JUMPDEST PUSH1 0x3 PUSH1 0x20 PUSH1 0x1 SWAP3 PUSH2 0x524 DUP7 PUSH2 0x38B9 JUMP JUMPDEST DUP2 MSTORE ADD SWAP4 ADD SWAP2 ADD SWAP1 SWAP2 PUSH2 0x4DD JUMP JUMPDEST PUSH4 0x4E487B71 PUSH1 0xE0 SHL PUSH0 MSTORE PUSH1 0x41 PUSH1 0x4 MSTORE PUSH1 0x24 PUSH0 REVERT JUMPDEST PUSH1 0x20 SWAP1 PUSH2 0x551 PUSH2 0x386F JUMP JUMPDEST DUP2 DUP5 ADD MSTORE ADD PUSH2 0x4A3 JUMP JUMPDEST CALLVALUE PUSH2 0x1EE JUMPI PUSH1 0x40 CALLDATASIZE PUSH1 0x3 NOT ADD SLT PUSH2 0x1EE JUMPI PUSH2 0x574 PUSH2 0x2FCA JUMP JUMPDEST PUSH1 0x1 PUSH1 0x1 PUSH1 0xA0 SHL SUB AND PUSH0 SWAP1 DUP2 MSTORE PUSH1 0x7 PUSH1 0x20 MSTORE PUSH1 0x40 SWAP1 KECCAK256 PUSH1 0x24 CALLDATALOAD SWAP1 PUSH1 0x3 DUP3 LT ISZERO PUSH2 0x1EE JUMPI PUSH1 0x20 SWAP2 PUSH2 0x23B SWAP2 PUSH2 0x32FF JUMP JUMPDEST CALLVALUE PUSH2 0x1EE JUMPI PUSH0 CALLDATASIZE PUSH1 0x3 NOT ADD SLT PUSH2 0x1EE JUMPI PUSH2 0x5BB PUSH2 0x3B75 JUMP JUMPDEST CALLER PUSH0 MSTORE PUSH1 0x5 PUSH1 0x20 MSTORE PUSH2 0x5CF PUSH1 0x40 PUSH0 KECCAK256 PUSH2 0x3B54 JUMP JUMPDEST CALLER PUSH0 MSTORE PUSH1 0x6 PUSH1 0x20 MSTORE PUSH2 0x5E3 PUSH1 0x40 PUSH0 KECCAK256 PUSH2 0x3B54 JUMP JUMPDEST CALLER PUSH0 MSTORE PUSH1 0x7 PUSH1 0x20 MSTORE PUSH2 0x5FC PUSH1 0x40 PUSH0 KECCAK256 PUSH1 0x3 DUP2 ADD SWAP1 PUSH2 0x3A1F JUMP JUMPDEST CALLER PUSH0 MSTORE PUSH1 0xB PUSH1 0x20 MSTORE PUSH2 0x610 PUSH1 0x40 PUSH0 KECCAK256 PUSH2 0x3A35 JUMP JUMPDEST CALLER PUSH0 MSTORE PUSH1 0xC PUSH1 0x20 MSTORE PUSH2 0x624 PUSH1 0x40 PUSH0 KECCAK256 PUSH2 0x3A35 JUMP JUMPDEST CALLER PUSH0 MSTORE PUSH1 0xE PUSH1 0x20 MSTORE PUSH2 0x638 PUSH1 0x40 PUSH0 KECCAK256 PUSH2 0x3A92 JUMP JUMPDEST STOP JUMPDEST CALLVALUE PUSH2 0x1EE JUMPI PUSH1 0x20 CALLDATASIZE PUSH1 0x3 NOT ADD SLT PUSH2 0x1EE JUMPI PUSH1 0x1 PUSH1 0x1 PUSH1 0xA0 SHL SUB PUSH2 0x65B PUSH2 0x2FCA JUMP JUMPDEST AND PUSH0 MSTORE PUSH1 0x4 PUSH1 0x20 MSTORE PUSH1 0xA0 PUSH1 0x40 PUSH0 KECCAK256 DUP1 SLOAD SWAP1 PUSH1 0x1 DUP2 ADD SLOAD SWAP1 PUSH2 0xFFFF PUSH1 0x3 PUSH1 0x2 DUP4 ADD SLOAD SWAP3 ADD SLOAD AND SWAP2 PUSH4 0xFFFFFFFF PUSH1 0x40 MLOAD SWAP5 PUSH2 0xFFFF DUP2 AND DUP7 MSTORE PUSH1 0x10 SHR AND PUSH1 0x20 DUP6 ADD MSTORE PUSH1 0x40 DUP5 ADD MSTORE PUSH1 0x60 DUP4 ADD MSTORE PUSH1 0x80 DUP3 ADD MSTORE RETURN JUMPDEST CALLVALUE PUSH2 0x1EE JUMPI PUSH1 0x20 CALLDATASIZE PUSH1 0x3 NOT ADD SLT PUSH2 0x1EE JUMPI PUSH1 0x1 PUSH1 0x1 PUSH1 0xA0 SHL SUB PUSH2 0x6CC PUSH2 0x2FCA JUMP JUMPDEST AND PUSH0 MSTORE PUSH1 0x6 PUSH1 0x20 MSTORE PUSH1 0x40 PUSH0 KECCAK256 PUSH1 0x40 MLOAD SWAP1 DUP2 PUSH1 0x20 DUP3 SLOAD SWAP2 DUP3 DUP2 MSTORE ADD SWAP2 PUSH0 MSTORE PUSH1 0x20 PUSH0 KECCAK256 SWAP1 PUSH0 JUMPDEST DUP2 DUP2 LT PUSH2 0x713 JUMPI PUSH2 0x3DB DUP6 PUSH2 0x707 DUP2 DUP8 SUB DUP3 PUSH2 0x323E JUMP JUMPDEST PUSH1 0x40 MLOAD SWAP2 DUP3 SWAP2 DUP3 PUSH2 0x3145 JUMP JUMPDEST DUP3 SLOAD DUP5 MSTORE PUSH1 0x20 SWAP1 SWAP4 ADD SWAP3 PUSH1 0x1 SWAP3 DUP4 ADD SWAP3 ADD PUSH2 0x6F0 JUMP JUMPDEST CALLVALUE PUSH2 0x1EE JUMPI PUSH0 CALLDATASIZE PUSH1 0x3 NOT ADD SLT PUSH2 0x1EE JUMPI PUSH1 0x13 SLOAD PUSH1 0x40 MLOAD PUSH1 0x1 PUSH1 0x1 PUSH1 0xA0 SHL SUB SWAP1 SWAP2 AND DUP2 MSTORE PUSH1 0x20 SWAP1 RETURN JUMPDEST CALLVALUE PUSH2 0x1EE JUMPI PUSH1 0x20 CALLDATASIZE PUSH1 0x3 NOT ADD SLT PUSH2 0x1EE JUMPI PUSH1 0x1 PUSH1 0x1 PUSH1 0xA0 SHL SUB PUSH2 0x772 PUSH2 0x2FCA JUMP JUMPDEST AND PUSH0 MSTORE PUSH1 0xA PUSH1 0x20 MSTORE PUSH1 0x20 PUSH1 0xFF PUSH1 0x40 PUSH0 KECCAK256 SLOAD AND PUSH1 0x40 MLOAD SWAP1 ISZERO ISZERO DUP2 MSTORE RETURN JUMPDEST PUSH1 0x20 CALLDATASIZE PUSH1 0x3 NOT ADD SLT PUSH2 0x1EE JUMPI PUSH1 0x4 CALLDATALOAD PUSH2 0x7A5 PUSH2 0x3B75 JUMP JUMPDEST PUSH2 0x7AD PUSH2 0x3BB9 JUMP JUMPDEST PUSH2 0x7B5 PUSH2 0x3C0F JUMP JUMPDEST PUSH1 0x3 DUP2 LT ISZERO PUSH2 0xB40 JUMPI CALLER PUSH0 MSTORE PUSH1 0x8 PUSH1 0x20 MSTORE PUSH2 0x7DC PUSH2 0x7D6 DUP3 PUSH1 0x40 PUSH0 KECCAK256 PUSH2 0x2FE0 JUMP JUMPDEST POP PUSH2 0x38B9 JUMP JUMPDEST SWAP1 PUSH1 0x20 DUP3 ADD MLOAD ISZERO DUP1 ISZERO SWAP1 PUSH2 0xB36 JUMPI JUMPDEST ISZERO PUSH2 0xB04 JUMPI DUP2 MLOAD ISZERO PUSH2 0x93B JUMPI PUSH1 0x12 SLOAD CALLVALUE LT PUSH2 0x8F6 JUMPI PUSH1 0x1 DUP1 PUSH1 0xA0 SHL SUB PUSH1 0x14 SLOAD AND SWAP2 PUSH1 0xFF PUSH2 0x100 DUP3 ADD MLOAD AND PUSH1 0x6 DUP2 LT ISZERO PUSH2 0x8E2 JUMPI PUSH1 0x64 PUSH1 0xFF PUSH2 0x120 PUSH1 0x20 SWAP5 ADD MLOAD AND SWAP2 PUSH0 PUSH1 0x40 MLOAD SWAP7 DUP8 SWAP5 DUP6 SWAP4 PUSH4 0xF925B741 PUSH1 0xE0 SHL DUP6 MSTORE CALLER PUSH1 0x4 DUP7 ADD MSTORE PUSH1 0x24 DUP6 ADD MSTORE PUSH1 0x44 DUP5 ADD MSTORE GAS CALL SWAP2 DUP3 ISZERO PUSH2 0x8D7 JUMPI PUSH0 SWAP3 PUSH2 0x8A1 JUMPI JUMPDEST POP PUSH2 0x878 PUSH2 0x89B SWAP3 CALLER PUSH0 MSTORE PUSH1 0x6 PUSH1 0x20 MSTORE PUSH1 0x40 PUSH0 KECCAK256 PUSH2 0x33F9 JUMP JUMPDEST PUSH2 0x895 PUSH2 0x883 PUSH2 0x3D2A JUMP JUMPDEST SWAP2 CALLER PUSH0 MSTORE PUSH1 0x8 PUSH1 0x20 MSTORE PUSH1 0x40 PUSH0 KECCAK256 PUSH2 0x2FE0 JUMP JUMPDEST SWAP1 PUSH2 0x342D JUMP JUMPDEST PUSH1 0x1 DUP1 SSTORE STOP JUMPDEST SWAP2 POP PUSH1 0x20 DUP3 RETURNDATASIZE PUSH1 0x20 GT PUSH2 0x8CF JUMPI JUMPDEST DUP2 PUSH2 0x8BC PUSH1 0x20 SWAP4 DUP4 PUSH2 0x323E JUMP JUMPDEST DUP2 ADD SUB SLT PUSH2 0x1EE JUMPI SWAP1 MLOAD SWAP1 PUSH2 0x878 PUSH2 0x85F JUMP JUMPDEST RETURNDATASIZE SWAP2 POP PUSH2 0x8AF JUMP JUMPDEST PUSH1 0x40 MLOAD RETURNDATASIZE PUSH0 DUP3 RETURNDATACOPY RETURNDATASIZE SWAP1 REVERT JUMPDEST PUSH4 0x4E487B71 PUSH1 0xE0 SHL PUSH0 MSTORE PUSH1 0x21 PUSH1 0x4 MSTORE PUSH1 0x24 PUSH0 REVERT JUMPDEST PUSH1 0x40 MLOAD PUSH3 0x461BCD PUSH1 0xE5 SHL DUP2 MSTORE PUSH1 0x20 PUSH1 0x4 DUP3 ADD MSTORE PUSH1 0x1E PUSH1 0x24 DUP3 ADD MSTORE PUSH32 0x496E73756666696369656E74207061796D656E7420666F722072656C69630000 PUSH1 0x44 DUP3 ADD MSTORE PUSH1 0x64 SWAP1 REVERT JUMPDEST SWAP1 POP PUSH1 0x11 SLOAD CALLVALUE LT PUSH2 0xABF JUMPI PUSH1 0x40 DUP1 MLOAD TIMESTAMP PUSH1 0x20 DUP3 ADD SWAP1 DUP2 MSTORE CALLER PUSH1 0x60 SHL PUSH12 0xFFFFFFFFFFFFFFFFFFFFFFFF NOT AND SWAP3 DUP3 ADD SWAP3 SWAP1 SWAP3 MSTORE PREVRANDAO PUSH1 0x54 DUP3 ADD MSTORE PUSH1 0x74 DUP2 ADD DUP4 SWAP1 MSTORE PUSH2 0x990 DUP2 PUSH1 0x94 DUP2 ADD JUMPDEST SUB PUSH1 0x1F NOT DUP2 ADD DUP4 MSTORE DUP3 PUSH2 0x323E JUMP JUMPDEST MLOAD SWAP1 KECCAK256 SWAP1 PUSH1 0xB DUP3 MOD PUSH1 0xA ADD DUP1 PUSH1 0xA GT PUSH2 0xAAB JUMPI PUSH1 0xB DUP4 PUSH1 0x8 SHR MOD PUSH1 0x8 ADD SWAP1 DUP2 PUSH1 0x8 GT PUSH2 0xAAB JUMPI PUSH1 0xB DUP5 PUSH1 0x10 SHR MOD PUSH1 0x9 ADD SWAP4 DUP5 PUSH1 0x9 GT PUSH2 0xAAB JUMPI PUSH1 0xFF PUSH1 0x3 DUP3 PUSH1 0x18 SHR MOD AND PUSH2 0x9E3 PUSH1 0x3 DUP4 PUSH1 0x20 SHR AND SWAP3 PUSH2 0x3D08 JUMP JUMPDEST PUSH1 0x13 SLOAD PUSH1 0x1 PUSH1 0x1 PUSH1 0xA0 SHL SUB AND SWAP3 SWAP1 PUSH1 0xFF SWAP1 PUSH2 0x9FD DUP5 PUSH2 0x338F JUMP JUMPDEST AND SWAP7 PUSH2 0xA08 DUP9 PUSH2 0x338F JUMP JUMPDEST PUSH1 0x4 DUP3 LT ISZERO PUSH2 0x8E2 JUMPI PUSH1 0x40 MLOAD PUSH4 0xE3BD811 PUSH1 0xE3 SHL DUP2 MSTORE SWAP8 PUSH1 0x20 SWAP7 DUP10 SWAP7 DUP8 SWAP6 PUSH0 SWAP6 DUP8 SWAP6 PUSH2 0xA45 SWAP6 PUSH1 0xFF SWAP2 DUP3 AND SWAP6 DUP3 AND SWAP5 SWAP1 SWAP2 AND SWAP3 CALLER PUSH1 0x4 DUP10 ADD PUSH2 0x3399 JUMP JUMPDEST SUB SWAP3 GAS CALL SWAP2 DUP3 ISZERO PUSH2 0x8D7 JUMPI PUSH0 SWAP3 PUSH2 0xA75 JUMPI JUMPDEST POP PUSH2 0xA70 PUSH2 0x89B SWAP3 CALLER PUSH0 MSTORE PUSH1 0x5 PUSH1 0x20 MSTORE PUSH1 0x40 PUSH0 KECCAK256 PUSH2 0x33F9 JUMP JUMPDEST PUSH2 0x878 JUMP JUMPDEST SWAP2 POP PUSH1 0x20 DUP3 RETURNDATASIZE PUSH1 0x20 GT PUSH2 0xAA3 JUMPI JUMPDEST DUP2 PUSH2 0xA90 PUSH1 0x20 SWAP4 DUP4 PUSH2 0x323E JUMP JUMPDEST DUP2 ADD SUB SLT PUSH2 0x1EE JUMPI SWAP1 MLOAD SWAP1 PUSH2 0xA70 PUSH2 0xA57 JUMP JUMPDEST RETURNDATASIZE SWAP2 POP PUSH2 0xA83 JUMP JUMPDEST PUSH4 0x4E487B71 PUSH1 0xE0 SHL PUSH0 MSTORE PUSH1 0x11 PUSH1 0x4 MSTORE PUSH1 0x24 PUSH0 REVERT JUMPDEST PUSH1 0x40 MLOAD PUSH3 0x461BCD PUSH1 0xE5 SHL DUP2 MSTORE PUSH1 0x20 PUSH1 0x4 DUP3 ADD MSTORE PUSH1 0x1D PUSH1 0x24 DUP3 ADD MSTORE PUSH32 0x496E73756666696369656E74207061796D656E7420666F7220756E6974000000 PUSH1 0x44 DUP3 ADD MSTORE PUSH1 0x64 SWAP1 REVERT JUMPDEST PUSH1 0x40 MLOAD PUSH3 0x461BCD PUSH1 0xE5 SHL DUP2 MSTORE PUSH1 0x20 PUSH1 0x4 DUP3 ADD MSTORE PUSH1 0xA PUSH1 0x24 DUP3 ADD MSTORE PUSH10 0x115B5C1D1E481CDB1BDD PUSH1 0xB2 SHL PUSH1 0x44 DUP3 ADD MSTORE PUSH1 0x64 SWAP1 REVERT JUMPDEST POP DUP2 MLOAD ISZERO ISZERO PUSH2 0x7EB JUMP JUMPDEST PUSH1 0x40 MLOAD PUSH3 0x461BCD PUSH1 0xE5 SHL DUP2 MSTORE PUSH1 0x20 PUSH1 0x4 DUP3 ADD MSTORE PUSH1 0xC PUSH1 0x24 DUP3 ADD MSTORE PUSH12 0x125B9D985B1A59081CDB1BDD PUSH1 0xA2 SHL PUSH1 0x44 DUP3 ADD MSTORE PUSH1 0x64 SWAP1 REVERT JUMPDEST CALLVALUE PUSH2 0x1EE JUMPI PUSH1 0x20 CALLDATASIZE PUSH1 0x3 NOT ADD SLT PUSH2 0x1EE JUMPI PUSH2 0xB8D PUSH2 0x2FCA JUMP JUMPDEST PUSH2 0xB95 PUSH2 0x3E71 JUMP JUMPDEST PUSH1 0x14 DUP1 SLOAD PUSH1 0x1 PUSH1 0x1 PUSH1 0xA0 SHL SUB NOT AND PUSH1 0x1 PUSH1 0x1 PUSH1 0xA0 SHL SUB SWAP3 SWAP1 SWAP3 AND SWAP2 SWAP1 SWAP2 OR SWAP1 SSTORE STOP JUMPDEST CALLVALUE PUSH2 0x1EE JUMPI PUSH1 0x40 CALLDATASIZE PUSH1 0x3 NOT ADD SLT PUSH2 0x1EE JUMPI PUSH2 0xBD0 PUSH2 0x2FCA JUMP JUMPDEST PUSH1 0x1 PUSH1 0x1 PUSH1 0xA0 SHL SUB AND PUSH0 SWAP1 DUP2 MSTORE PUSH1 0xE PUSH1 0x20 MSTORE PUSH1 0x40 SWAP1 KECCAK256 DUP1 SLOAD PUSH1 0x24 CALLDATALOAD SWAP2 SWAP1 DUP3 LT ISZERO PUSH2 0x1EE JUMPI PUSH2 0xFFFF SWAP2 PUSH2 0xC01 SWAP2 PUSH2 0x317E JUMP JUMPDEST POP DUP1 SLOAD SWAP1 PUSH1 0xFF PUSH2 0xC88 PUSH1 0x2 PUSH2 0xC18 PUSH1 0x1 DUP6 ADD PUSH2 0x325F JUMP JUMPDEST SWAP4 ADD SLOAD SWAP3 PUSH1 0x40 MLOAD SWAP6 DUP6 DUP5 DUP9 SWAP8 AND DUP8 MSTORE DUP5 DUP2 PUSH1 0x8 SHR AND ISZERO ISZERO PUSH1 0x20 DUP9 ADD MSTORE DUP5 DUP2 PUSH1 0x10 SHR AND PUSH1 0x40 DUP9 ADD MSTORE DUP5 DUP2 PUSH1 0x18 SHR AND PUSH1 0x60 DUP9 ADD MSTORE DUP2 DUP2 PUSH1 0x20 SHR AND PUSH1 0x80 DUP9 ADD MSTORE DUP2 DUP2 PUSH1 0x30 SHR AND PUSH1 0xA0 DUP9 ADD MSTORE DUP2 DUP2 PUSH1 0x40 SHR AND PUSH1 0xC0 DUP9 ADD MSTORE PUSH1 0x50 SHR AND PUSH1 0xE0 DUP7 ADD MSTORE PUSH2 0x1A0 PUSH2 0x100 DUP7 ADD MSTORE PUSH2 0x1A0 DUP6 ADD SWAP1 PUSH2 0x303E JUMP JUMPDEST SWAP2 DUP2 DUP2 AND PUSH2 0x120 DUP6 ADD MSTORE DUP2 DUP2 PUSH1 0x8 SHR AND PUSH2 0x140 DUP6 ADD MSTORE DUP2 DUP2 PUSH1 0x10 SHR AND PUSH2 0x160 DUP6 ADD MSTORE PUSH1 0x18 SHR AND PUSH2 0x180 DUP4 ADD MSTORE SUB SWAP1 RETURN JUMPDEST CALLVALUE PUSH2 0x1EE JUMPI PUSH1 0x20 CALLDATASIZE PUSH1 0x3 NOT ADD SLT PUSH2 0x1EE JUMPI PUSH2 0xCD1 PUSH2 0x2FCA JUMP JUMPDEST PUSH1 0x60 SWAP1 DUP2 PUSH1 0x40 MLOAD PUSH2 0xCE2 DUP3 DUP3 PUSH2 0x323E JUMP JUMPDEST CALLDATASIZE SWAP1 CALLDATACOPY PUSH1 0x1 PUSH1 0x1 PUSH1 0xA0 SHL SUB AND PUSH0 SWAP1 DUP2 MSTORE PUSH1 0x7 PUSH1 0x20 MSTORE PUSH1 0x40 DUP1 DUP3 KECCAK256 SWAP1 MLOAD SWAP2 DUP3 JUMPDEST PUSH1 0x3 DUP3 LT PUSH2 0xD40 JUMPI POP POP POP PUSH2 0xD16 DUP3 DUP3 PUSH2 0x323E JUMP JUMPDEST PUSH1 0x40 MLOAD SWAP1 PUSH0 DUP3 JUMPDEST PUSH1 0x3 DUP3 LT PUSH2 0xD2A JUMPI POP POP POP RETURN JUMPDEST PUSH1 0x20 DUP1 PUSH1 0x1 SWAP3 DUP6 MLOAD DUP2 MSTORE ADD SWAP4 ADD SWAP2 ADD SWAP1 SWAP2 PUSH2 0xD1D JUMP JUMPDEST PUSH1 0x1 PUSH1 0x20 DUP2 SWAP3 DUP6 SLOAD DUP2 MSTORE ADD SWAP4 ADD SWAP2 ADD SWAP1 SWAP2 PUSH2 0xD01 JUMP JUMPDEST CALLVALUE PUSH2 0x1EE JUMPI PUSH1 0x20 CALLDATASIZE PUSH1 0x3 NOT ADD SLT PUSH2 0x1EE JUMPI PUSH1 0x1 PUSH1 0x1 PUSH1 0xA0 SHL SUB PUSH2 0xD77 PUSH2 0x2FCA JUMP JUMPDEST AND PUSH0 MSTORE PUSH1 0x3 PUSH1 0x20 MSTORE PUSH1 0x20 PUSH1 0xFF PUSH1 0x40 PUSH0 KECCAK256 SLOAD AND PUSH1 0x40 MLOAD SWAP1 ISZERO ISZERO DUP2 MSTORE RETURN JUMPDEST CALLVALUE PUSH2 0x1EE JUMPI PUSH1 0x60 CALLDATASIZE PUSH1 0x3 NOT ADD SLT PUSH2 0x1EE JUMPI CALLDATASIZE PUSH1 0x64 GT PUSH2 0x1EE JUMPI PUSH2 0xDB4 PUSH2 0x3B75 JUMP JUMPDEST PUSH2 0xDBC PUSH2 0x3C0F JUMP JUMPDEST PUSH0 JUMPDEST PUSH1 0x3 DUP2 LT PUSH2 0xE23 JUMPI CALLER PUSH0 MSTORE PUSH1 0x7 PUSH1 0x20 MSTORE PUSH1 0x40 PUSH0 KECCAK256 PUSH1 0x4 PUSH0 JUMPDEST PUSH1 0x3 DUP2 LT PUSH2 0xE0F JUMPI PUSH1 0x40 MLOAD PUSH1 0x60 PUSH1 0x4 DUP3 CALLDATACOPY PUSH32 0x189DCF2B228F6307A1C47F1AB2652FD06A5C537F8533503FD79381A0EF24B279 PUSH1 0x60 CALLER SWAP3 LOG2 STOP JUMPDEST PUSH1 0x1 SWAP1 PUSH1 0x20 DUP4 CALLDATALOAD SWAP4 ADD SWAP3 DUP2 DUP6 ADD SSTORE ADD PUSH2 0xDD6 JUMP JUMPDEST PUSH2 0xE2C DUP2 PUSH2 0x3B31 JUMP JUMPDEST CALLDATALOAD PUSH2 0xE3A JUMPI JUMPDEST PUSH1 0x1 ADD PUSH2 0xDBE JUMP JUMPDEST PUSH1 0x14 SLOAD PUSH2 0xE7F SWAP2 SWAP1 PUSH1 0x20 SWAP1 PUSH1 0x1 PUSH1 0x1 PUSH1 0xA0 SHL SUB AND PUSH2 0xE57 DUP4 PUSH2 0x3B31 JUMP JUMPDEST PUSH1 0x40 MLOAD PUSH3 0x7EEAC7 PUSH1 0xE1 SHL DUP2 MSTORE CALLER PUSH1 0x4 DUP3 ADD MSTORE SWAP1 CALLDATALOAD PUSH1 0x24 DUP3 ADD MSTORE SWAP4 DUP5 SWAP2 SWAP1 DUP3 SWAP1 DUP2 SWAP1 PUSH1 0x44 DUP3 ADD SWAP1 JUMP JUMPDEST SUB SWAP2 GAS STATICCALL SWAP2 DUP3 ISZERO PUSH2 0x8D7 JUMPI PUSH0 SWAP3 PUSH2 0xEA6 JUMPI JUMPDEST POP PUSH2 0xE9F PUSH1 0x1 SWAP3 ISZERO ISZERO PUSH2 0x3993 JUMP JUMPDEST SWAP1 POP PUSH2 0xE32 JUMP JUMPDEST SWAP2 POP PUSH1 0x20 DUP3 RETURNDATASIZE DUP3 GT PUSH2 0xED3 JUMPI JUMPDEST DUP2 PUSH2 0xEC0 PUSH1 0x20 SWAP4 DUP4 PUSH2 0x323E JUMP JUMPDEST DUP2 ADD SUB SLT PUSH2 0x1EE JUMPI SWAP1 MLOAD SWAP1 PUSH2 0xE9F PUSH2 0xE91 JUMP JUMPDEST RETURNDATASIZE SWAP2 POP PUSH2 0xEB3 JUMP JUMPDEST CALLVALUE PUSH2 0x1EE JUMPI PUSH0 CALLDATASIZE PUSH1 0x3 NOT ADD SLT PUSH2 0x1EE JUMPI PUSH1 0x20 PUSH1 0x10 SLOAD PUSH1 0x40 MLOAD SWAP1 DUP2 MSTORE RETURN JUMPDEST CALLVALUE PUSH2 0x1EE JUMPI PUSH0 CALLDATASIZE PUSH1 0x3 NOT ADD SLT PUSH2 0x1EE JUMPI PUSH0 SLOAD PUSH1 0x40 MLOAD PUSH1 0x1 PUSH1 0x1 PUSH1 0xA0 SHL SUB SWAP1 SWAP2 AND DUP2 MSTORE PUSH1 0x20 SWAP1 RETURN JUMPDEST CALLVALUE PUSH2 0x1EE JUMPI PUSH0 CALLDATASIZE PUSH1 0x3 NOT ADD SLT PUSH2 0x1EE JUMPI PUSH1 0x20 PUSH1 0x12 SLOAD PUSH1 0x40 MLOAD SWAP1 DUP2 MSTORE RETURN JUMPDEST CALLVALUE PUSH2 0x1EE JUMPI PUSH0 CALLDATASIZE PUSH1 0x3 NOT ADD SLT PUSH2 0x1EE JUMPI PUSH2 0xF54 PUSH2 0x3E71 JUMP JUMPDEST PUSH2 0xF5C PUSH2 0x3B75 JUMP JUMPDEST PUSH1 0x1 PUSH1 0xFF NOT PUSH1 0x2 SLOAD AND OR PUSH1 0x2 SSTORE PUSH32 0x62E78CEA01BEE320CD4E420270B5EA74000D11B0C9F74754EBDBFC544B05A258 PUSH1 0x20 PUSH1 0x40 MLOAD CALLER DUP2 MSTORE LOG1 STOP JUMPDEST CALLVALUE PUSH2 0x1EE JUMPI PUSH1 0x20 CALLDATASIZE PUSH1 0x3 NOT ADD SLT PUSH2 0x1EE JUMPI PUSH2 0xFAE PUSH2 0x2FCA JUMP JUMPDEST PUSH2 0xFB6 PUSH2 0x3E71 JUMP JUMPDEST PUSH1 0x13 DUP1 SLOAD PUSH1 0x1 PUSH1 0x1 PUSH1 0xA0 SHL SUB NOT AND PUSH1 0x1 PUSH1 0x1 PUSH1 0xA0 SHL SUB SWAP3 SWAP1 SWAP3 AND SWAP2 SWAP1 SWAP2 OR SWAP1 SSTORE STOP JUMPDEST CALLVALUE PUSH2 0x1EE JUMPI PUSH1 0x40 CALLDATASIZE PUSH1 0x3 NOT ADD SLT PUSH2 0x1EE JUMPI PUSH2 0xFF1 PUSH2 0x2FCA JUMP JUMPDEST PUSH1 0x1 PUSH1 0x1 PUSH1 0xA0 SHL SUB AND PUSH0 SWAP1 DUP2 MSTORE PUSH1 0xC PUSH1 0x20 MSTORE PUSH1 0x40 SWAP1 KECCAK256 DUP1 SLOAD PUSH1 0x24 CALLDATALOAD SWAP1 DUP2 LT ISZERO PUSH2 0x1EE JUMPI PUSH2 0x1023 PUSH2 0xFFFF SWAP2 PUSH1 0x20 SWAP4 PUSH2 0x30DF JUMP JUMPDEST SWAP1 SLOAD SWAP1 PUSH1 0x3 SHL SHR AND PUSH1 0x40 MLOAD SWAP1 DUP2 MSTORE RETURN JUMPDEST CALLVALUE PUSH2 0x1EE JUMPI PUSH0 CALLDATASIZE PUSH1 0x3 NOT ADD SLT PUSH2 0x1EE JUMPI PUSH2 0x104B PUSH2 0x3E71 JUMP JUMPDEST PUSH0 DUP1 SLOAD PUSH1 0x1 PUSH1 0x1 PUSH1 0xA0 SHL SUB NOT DUP2 AND DUP3 SSTORE PUSH1 0x1 PUSH1 0x1 PUSH1 0xA0 SHL SUB AND PUSH32 0x8BE0079C531659141344CD1FD0A4F28419497F9722A3DAAFE3B4186F6B6457E0 DUP3 DUP1 LOG3 STOP JUMPDEST CALLVALUE PUSH2 0x1EE JUMPI PUSH1 0x20 CALLDATASIZE PUSH1 0x3 NOT ADD SLT PUSH2 0x1EE JUMPI PUSH1 0x1 PUSH1 0x1 PUSH1 0xA0 SHL SUB PUSH2 0x10AB PUSH2 0x2FCA JUMP JUMPDEST AND PUSH0 MSTORE PUSH1 0x5 PUSH1 0x20 MSTORE PUSH1 0x40 PUSH0 KECCAK256 PUSH1 0x40 MLOAD SWAP1 DUP2 PUSH1 0x20 DUP3 SLOAD SWAP2 DUP3 DUP2 MSTORE ADD SWAP2 PUSH0 MSTORE PUSH1 0x20 PUSH0 KECCAK256 SWAP1 PUSH0 JUMPDEST DUP2 DUP2 LT PUSH2 0x10E6 JUMPI PUSH2 0x3DB DUP6 PUSH2 0x707 DUP2 DUP8 SUB DUP3 PUSH2 0x323E JUMP JUMPDEST DUP3 SLOAD DUP5 MSTORE PUSH1 0x20 SWAP1 SWAP4 ADD SWAP3 PUSH1 0x1 SWAP3 DUP4 ADD SWAP3 ADD PUSH2 0x10CF JUMP JUMPDEST CALLVALUE PUSH2 0x1EE JUMPI PUSH0 CALLDATASIZE PUSH1 0x3 NOT ADD SLT PUSH2 0x1EE JUMPI PUSH1 0x20 PUSH1 0xFF PUSH1 0x2 SLOAD AND PUSH1 0x40 MLOAD SWAP1 ISZERO ISZERO DUP2 MSTORE RETURN JUMPDEST CALLVALUE PUSH2 0x1EE JUMPI PUSH1 0x40 CALLDATASIZE PUSH1 0x3 NOT ADD SLT PUSH2 0x1EE JUMPI PUSH1 0x4 CALLDATALOAD PUSH1 0x1 PUSH1 0x1 PUSH1 0x40 SHL SUB DUP2 GT PUSH2 0x1EE JUMPI PUSH2 0x114E SWAP1 CALLDATASIZE SWAP1 PUSH1 0x4 ADD PUSH2 0x3115 JUMP JUMPDEST PUSH1 0x24 CALLDATALOAD PUSH1 0x1 PUSH1 0x1 PUSH1 0x40 SHL SUB DUP2 GT PUSH2 0x1EE JUMPI PUSH2 0x116D SWAP1 CALLDATASIZE SWAP1 PUSH1 0x4 ADD PUSH2 0x3115 JUMP JUMPDEST SWAP3 SWAP1 PUSH2 0x1177 PUSH2 0x3B75 JUMP JUMPDEST PUSH2 0x117F PUSH2 0x3C0F JUMP JUMPDEST PUSH1 0x4 DUP4 LT ISZERO DUP1 PUSH2 0x2858 JUMPI JUMPDEST ISZERO PUSH2 0x281F JUMPI PUSH1 0x13 SLOAD PUSH1 0x1 PUSH1 0x1 PUSH1 0xA0 SHL SUB AND PUSH0 JUMPDEST DUP5 DUP2 LT PUSH2 0x2749 JUMPI POP POP DUP4 ISZERO SWAP4 DUP5 PUSH2 0x272A JUMPI PUSH2 0x11B9 CALLDATASIZE DUP3 DUP5 PUSH2 0x3947 JUMP JUMPDEST SWAP5 ISZERO PUSH2 0x2637 JUMPI POP POP PUSH0 JUMPDEST PUSH1 0x3 DUP2 LT PUSH2 0x2607 JUMPI POP JUMPDEST PUSH2 0x120 PUSH1 0x40 MLOAD SWAP4 PUSH2 0x11DE DUP3 DUP7 PUSH2 0x323E JUMP JUMPDEST PUSH1 0x8 DUP6 MSTORE PUSH1 0x1F NOT DUP3 ADD PUSH0 JUMPDEST DUP2 DUP2 LT PUSH2 0x25F0 JUMPI POP POP PUSH1 0x40 DUP1 MLOAD TIMESTAMP PUSH1 0x20 DUP3 ADD SWAP1 DUP2 MSTORE CALLER PUSH1 0x60 SHL PUSH12 0xFFFFFFFFFFFFFFFFFFFFFFFF NOT AND SWAP3 DUP3 ADD SWAP3 SWAP1 SWAP3 MSTORE PREVRANDAO PUSH1 0x54 DUP3 ADD MSTORE NUMBER PUSH1 0x74 DUP3 ADD MSTORE PUSH2 0x1231 DUP2 PUSH1 0x94 DUP2 ADD PUSH2 0x982 JUMP JUMPDEST MLOAD SWAP1 KECCAK256 SWAP1 PUSH0 JUMPDEST PUSH1 0xFF DUP2 AND PUSH1 0x8 DUP2 LT ISZERO PUSH2 0x1382 JUMPI CALLER PUSH0 MSTORE PUSH1 0x4 PUSH1 0x20 MSTORE PUSH1 0x40 PUSH0 KECCAK256 SLOAD PUSH1 0x40 MLOAD PUSH1 0x20 DUP2 ADD SWAP2 DUP7 DUP4 MSTORE PUSH1 0xFF PUSH1 0xF8 SHL DUP6 PUSH1 0xF8 SHL AND PUSH1 0x40 DUP4 ADD MSTORE PUSH2 0xFFFF PUSH1 0xF0 SHL SWAP1 PUSH1 0xF0 SHL AND PUSH1 0x41 DUP3 ADD MSTORE PUSH1 0x23 DUP2 MSTORE PUSH2 0x128A PUSH1 0x43 DUP3 PUSH2 0x323E JUMP JUMPDEST MLOAD SWAP1 KECCAK256 SWAP2 PUSH1 0xD DUP4 MOD PUSH1 0x8 ADD SWAP3 DUP4 PUSH1 0x8 GT PUSH2 0xAAB JUMPI PUSH1 0xC DUP2 PUSH1 0x8 SHR MOD PUSH1 0x7 ADD SWAP3 DUP4 PUSH1 0x7 GT PUSH2 0xAAB JUMPI PUSH1 0xB DUP3 PUSH1 0x10 SHR MOD PUSH1 0x8 ADD SWAP5 DUP6 PUSH1 0x8 GT PUSH2 0xAAB JUMPI PUSH1 0xFF PUSH1 0x3 DUP5 PUSH1 0x18 SHR MOD AND SWAP1 PUSH1 0xFF PUSH2 0x12E1 PUSH1 0x3 DUP7 PUSH1 0x20 SHR AND SWAP6 PUSH2 0x3D08 JUMP JUMPDEST PUSH2 0x12EA DUP5 PUSH2 0x338F JUMP JUMPDEST AND SWAP7 PUSH2 0x12F5 DUP9 PUSH2 0x338F JUMP JUMPDEST PUSH1 0x4 DUP6 LT ISZERO PUSH2 0x8E2 JUMPI PUSH1 0xFF PUSH1 0x1 SWAP8 DUP2 DUP1 SWAP11 SWAP5 PUSH2 0x134B PUSH2 0x137A SWAP10 DUP4 SWAP8 PUSH1 0x40 MLOAD SWAP10 PUSH2 0x131D DUP12 PUSH2 0x3206 JUMP JUMPDEST PUSH0 DUP12 MSTORE PUSH0 PUSH1 0x20 DUP13 ADD MSTORE PUSH2 0x132F DUP2 PUSH2 0x338F JUMP JUMPDEST PUSH1 0x40 DUP12 ADD MSTORE PUSH2 0x133D DUP2 PUSH2 0x338F JUMP JUMPDEST PUSH1 0x60 DUP11 ADD MSTORE PUSH1 0x80 DUP10 ADD PUSH2 0x39F3 JUMP JUMPDEST AND PUSH1 0xA0 DUP7 ADD MSTORE AND PUSH1 0xC0 DUP5 ADD MSTORE AND PUSH1 0xE0 DUP3 ADD MSTORE PUSH0 PUSH2 0x100 DUP3 ADD MSTORE PUSH0 DUP10 DUP3 ADD MSTORE PUSH2 0x1373 DUP3 DUP14 PUSH2 0x39DF JUMP JUMPDEST MSTORE DUP11 PUSH2 0x39DF JUMP JUMPDEST POP ADD AND PUSH2 0x1237 JUMP JUMPDEST POP POP DUP4 DUP6 DUP8 SWAP4 PUSH0 JUMPDEST PUSH1 0xFF DUP2 AND SWAP1 PUSH1 0x8 DUP3 LT ISZERO PUSH2 0x1634 JUMPI PUSH2 0x13D0 PUSH2 0x13A5 DUP4 DUP10 PUSH2 0x39DF JUMP JUMPDEST MLOAD MLOAD ISZERO ISZERO CALLER PUSH0 MSTORE PUSH1 0x9 PUSH1 0x20 MSTORE PUSH2 0x13BE DUP4 PUSH1 0x40 PUSH0 KECCAK256 PUSH2 0x330E JUMP JUMPDEST POP SWAP1 PUSH1 0xFF DUP1 NOT DUP4 SLOAD AND SWAP2 ISZERO ISZERO AND OR SWAP1 SSTORE JUMP JUMPDEST PUSH1 0x20 PUSH2 0x13DC DUP4 DUP10 PUSH2 0x39DF JUMP JUMPDEST MLOAD ADD MLOAD CALLER PUSH0 MSTORE PUSH1 0x9 PUSH1 0x20 MSTORE PUSH1 0x1 PUSH2 0x13F6 DUP4 PUSH1 0x40 PUSH0 KECCAK256 PUSH2 0x330E JUMP JUMPDEST POP ADD SSTORE PUSH1 0x40 PUSH2 0x1405 DUP4 DUP10 PUSH2 0x39DF JUMP JUMPDEST MLOAD ADD MLOAD PUSH2 0x1411 DUP2 PUSH2 0x338F JUMP JUMPDEST PUSH2 0x141A DUP2 PUSH2 0x338F JUMP JUMPDEST CALLER PUSH0 MSTORE PUSH1 0x9 PUSH1 0x20 MSTORE PUSH1 0xFF PUSH1 0x2 PUSH2 0x1433 DUP5 PUSH1 0x40 PUSH0 KECCAK256 PUSH2 0x330E JUMP JUMPDEST POP ADD SWAP2 AND PUSH1 0xFF NOT DUP3 SLOAD AND OR SWAP1 SSTORE PUSH2 0x1493 PUSH1 0x60 PUSH2 0x144F DUP5 DUP11 PUSH2 0x39DF JUMP JUMPDEST MLOAD ADD MLOAD PUSH2 0x145B DUP2 PUSH2 0x338F JUMP JUMPDEST PUSH2 0x1464 DUP2 PUSH2 0x338F JUMP JUMPDEST CALLER PUSH0 MSTORE PUSH1 0x9 PUSH1 0x20 MSTORE PUSH1 0x2 PUSH2 0x147B DUP5 PUSH1 0x40 PUSH0 KECCAK256 PUSH2 0x330E JUMP JUMPDEST POP ADD SWAP1 PUSH2 0xFF00 DUP3 SLOAD SWAP2 PUSH1 0x8 SHL AND SWAP1 PUSH2 0xFF00 NOT AND OR SWAP1 SSTORE JUMP JUMPDEST PUSH2 0x14A9 PUSH1 0x80 PUSH2 0x14A2 DUP5 DUP11 PUSH2 0x39DF JUMP JUMPDEST MLOAD ADD PUSH2 0x39FF JUMP JUMPDEST SWAP1 PUSH1 0x4 DUP3 LT ISZERO PUSH2 0x8E2 JUMPI PUSH2 0x162D PUSH1 0xFF DUP11 PUSH2 0x15F6 DUP7 PUSH2 0x15F0 DUP5 PUSH2 0x100 DUP16 DUP3 SWAP12 PUSH2 0x15B9 SWAP2 PUSH2 0x1502 PUSH1 0x1 SWAP14 PUSH1 0x2 PUSH2 0x14E8 DUP16 CALLER PUSH0 MSTORE PUSH1 0x9 PUSH1 0x20 MSTORE PUSH1 0x40 PUSH0 KECCAK256 PUSH2 0x330E JUMP JUMPDEST POP ADD SWAP1 PUSH3 0xFF0000 DUP3 SLOAD SWAP2 PUSH1 0x10 SHL AND SWAP1 PUSH3 0xFF0000 NOT AND OR SWAP1 SSTORE JUMP JUMPDEST PUSH2 0x154A DUP13 PUSH1 0x2 PUSH2 0x152E DUP9 PUSH1 0xA0 PUSH2 0x1518 DUP9 DUP9 PUSH2 0x39DF JUMP JUMPDEST MLOAD ADD MLOAD AND SWAP3 CALLER PUSH0 MSTORE PUSH1 0x9 PUSH1 0x20 MSTORE PUSH1 0x40 PUSH0 KECCAK256 PUSH2 0x330E JUMP JUMPDEST POP ADD SWAP1 PUSH4 0xFF000000 DUP3 SLOAD SWAP2 PUSH1 0x18 SHL AND SWAP1 PUSH4 0xFF000000 NOT AND OR SWAP1 SSTORE JUMP JUMPDEST PUSH2 0x157E DUP13 PUSH1 0x2 PUSH2 0x1560 DUP9 PUSH1 0xC0 PUSH2 0x1518 DUP9 DUP9 PUSH2 0x39DF JUMP JUMPDEST POP ADD SWAP1 PUSH5 0xFF00000000 DUP3 SLOAD SWAP2 PUSH1 0x20 SHL AND SWAP1 PUSH5 0xFF00000000 NOT AND OR SWAP1 SSTORE JUMP JUMPDEST PUSH2 0x15B4 DUP13 PUSH1 0x2 PUSH2 0x1594 DUP9 PUSH1 0xE0 PUSH2 0x1518 DUP9 DUP9 PUSH2 0x39DF JUMP JUMPDEST POP ADD SWAP1 PUSH6 0xFF0000000000 DUP3 SLOAD SWAP2 PUSH1 0x28 SHL AND SWAP1 PUSH6 0xFF0000000000 NOT AND OR SWAP1 SSTORE JUMP JUMPDEST PUSH2 0x39DF JUMP JUMPDEST MLOAD ADD MLOAD AND CALLER PUSH0 MSTORE PUSH1 0x9 PUSH1 0x20 MSTORE PUSH1 0x2 PUSH2 0x15D4 DUP10 PUSH1 0x40 PUSH0 KECCAK256 PUSH2 0x330E JUMP JUMPDEST POP ADD SWAP1 PUSH1 0xFF PUSH1 0x30 SHL DUP3 SLOAD SWAP2 PUSH1 0x30 SHL AND SWAP1 PUSH1 0xFF PUSH1 0x30 SHL NOT AND OR SWAP1 SSTORE JUMP JUMPDEST DUP13 PUSH2 0x39DF JUMP JUMPDEST MLOAD ADD MLOAD AND CALLER PUSH0 MSTORE PUSH1 0x9 PUSH1 0x20 MSTORE PUSH1 0x2 PUSH2 0x1611 DUP5 PUSH1 0x40 PUSH0 KECCAK256 PUSH2 0x330E JUMP JUMPDEST POP ADD SWAP1 PUSH1 0xFF PUSH1 0x38 SHL DUP3 SLOAD SWAP2 PUSH1 0x38 SHL AND SWAP1 PUSH1 0xFF PUSH1 0x38 SHL NOT AND OR SWAP1 SSTORE JUMP JUMPDEST ADD AND PUSH2 0x138A JUMP JUMPDEST POP POP SWAP3 SWAP1 SWAP4 SWAP2 PUSH1 0x1 DUP1 PUSH1 0xA0 SHL SUB PUSH1 0x13 SLOAD AND SWAP3 PUSH2 0x166E PUSH1 0x1 DUP1 PUSH1 0xA0 SHL SUB PUSH1 0x14 SLOAD AND SWAP3 CALLER PUSH0 MSTORE PUSH1 0x4 PUSH1 0x20 MSTORE PUSH2 0xFFFF PUSH1 0x40 PUSH0 KECCAK256 SLOAD AND SWAP8 CALLDATASIZE SWAP2 PUSH2 0x3947 JUMP JUMPDEST SWAP3 PUSH2 0x1677 PUSH2 0x3EC8 JUMP JUMPDEST POP PUSH2 0x1682 DUP5 MLOAD PUSH2 0x3F88 JUMP JUMPDEST SWAP6 PUSH0 JUMPDEST DUP6 MLOAD DUP2 LT ISZERO PUSH2 0x18A1 JUMPI PUSH2 0x1698 DUP2 DUP8 PUSH2 0x39DF JUMP JUMPDEST MLOAD SWAP1 PUSH1 0x40 MLOAD SWAP2 PUSH4 0xB2ADFDF PUSH1 0xE1 SHL DUP4 MSTORE PUSH1 0x4 DUP4 ADD MSTORE PUSH1 0xC0 DUP3 PUSH1 0x24 DUP2 DUP12 GAS STATICCALL DUP1 ISZERO PUSH2 0x8D7 JUMPI DUP12 SWAP3 PUSH0 SWAP2 PUSH2 0x17EB JUMPI JUMPDEST POP PUSH1 0x20 DUP2 ADD PUSH2 0x16DD DUP2 MLOAD PUSH2 0x16D8 DUP2 PUSH2 0x338F JUMP JUMPDEST PUSH2 0x4B11 JUMP JUMPDEST SWAP2 PUSH2 0x16F1 PUSH1 0x80 DUP3 ADD SWAP4 PUSH1 0xFF DUP6 MLOAD AND SWAP1 PUSH2 0x4B5A JUMP JUMPDEST SWAP1 PUSH1 0xFF DUP1 PUSH1 0x60 DUP4 ADD MLOAD AND SWAP5 MLOAD AND SWAP3 PUSH1 0xA0 DUP3 ADD SWAP7 PUSH1 0xFF DUP9 MLOAD AND SWAP4 PUSH2 0x1737 PUSH2 0x1720 DUP5 MLOAD PUSH2 0x171B DUP2 PUSH2 0x338F JUMP JUMPDEST PUSH2 0x4B6E JUMP JUMPDEST SWAP10 PUSH1 0xFF DUP6 MLOAD SWAP2 PUSH2 0x172F DUP4 PUSH2 0x338F JUMP JUMPDEST MLOAD AND SWAP1 PUSH2 0x4B9E JUMP JUMPDEST PUSH1 0x40 DUP6 MLOAD SWAP5 PUSH2 0x1745 DUP7 PUSH2 0x338F JUMP JUMPDEST MLOAD SWAP6 PUSH2 0x1750 DUP8 PUSH2 0x338F JUMP JUMPDEST ADD MLOAD SWAP6 PUSH1 0x4 DUP8 LT ISZERO PUSH2 0x8E2 JUMPI PUSH1 0x1 SWAP11 PUSH2 0xFFFF PUSH1 0xFF SWAP5 DUP6 SWAP4 PUSH2 0x17CF SWAP12 PUSH1 0x20 PUSH1 0x40 MLOAD SWAP15 DUP16 SWAP1 PUSH2 0x177C DUP3 PUSH2 0x3222 JUMP JUMPDEST DUP2 MSTORE ADD MSTORE PUSH1 0x40 DUP14 ADD MSTORE AND DUP1 PUSH1 0x60 DUP13 ADD MSTORE PUSH1 0x80 DUP12 ADD MSTORE AND PUSH1 0xA0 DUP10 ADD MSTORE AND PUSH1 0xC0 DUP8 ADD MSTORE PUSH0 PUSH1 0xE0 DUP8 ADD MSTORE PUSH0 PUSH2 0x100 DUP8 ADD MSTORE PUSH2 0x17B3 DUP3 PUSH2 0x338F JUMP JUMPDEST DUP6 ADD MSTORE PUSH2 0x17BF DUP2 PUSH2 0x338F JUMP JUMPDEST PUSH2 0x140 DUP5 ADD MSTORE PUSH2 0x160 DUP4 ADD PUSH2 0x39F3 JUMP JUMPDEST PUSH2 0x17D9 DUP3 DUP12 PUSH2 0x39DF JUMP JUMPDEST MSTORE PUSH2 0x17E4 DUP2 DUP11 PUSH2 0x39DF JUMP JUMPDEST POP ADD PUSH2 0x1685 JUMP JUMPDEST SWAP3 POP POP PUSH1 0xC0 DUP3 RETURNDATASIZE DUP3 GT PUSH2 0x1899 JUMPI JUMPDEST DUP2 PUSH2 0x1806 PUSH1 0xC0 SWAP4 DUP4 PUSH2 0x323E JUMP JUMPDEST DUP2 ADD SUB SLT PUSH2 0x1EE JUMPI PUSH1 0x40 MLOAD PUSH1 0xC0 DUP2 ADD DUP2 DUP2 LT PUSH1 0x1 PUSH1 0x1 PUSH1 0x40 SHL SUB DUP3 GT OR PUSH2 0x532 JUMPI PUSH1 0x40 MSTORE DUP3 MLOAD PUSH1 0x3 DUP2 LT ISZERO PUSH2 0x1EE JUMPI DUP2 MSTORE PUSH1 0x20 DUP4 ADD MLOAD PUSH1 0x3 DUP2 LT ISZERO PUSH2 0x1EE JUMPI PUSH1 0x20 DUP3 ADD MSTORE PUSH1 0x40 DUP4 ADD MLOAD SWAP3 PUSH1 0x4 DUP5 LT ISZERO PUSH2 0x1EE JUMPI PUSH1 0xA0 PUSH2 0x188E SWAP2 DUP15 SWAP6 PUSH1 0x40 DUP6 ADD MSTORE PUSH2 0x1872 PUSH1 0x60 DUP3 ADD PUSH2 0x4023 JUMP JUMPDEST PUSH1 0x60 DUP6 ADD MSTORE PUSH2 0x1883 PUSH1 0x80 DUP3 ADD PUSH2 0x4023 JUMP JUMPDEST PUSH1 0x80 DUP6 ADD MSTORE ADD PUSH2 0x4023 JUMP JUMPDEST PUSH1 0xA0 DUP3 ADD MSTORE DUP13 PUSH2 0x16C5 JUMP JUMPDEST RETURNDATASIZE SWAP2 POP PUSH2 0x17F9 JUMP JUMPDEST POP DUP9 SWAP4 DUP8 SWAP3 SWAP4 PUSH2 0x18B1 DUP11 DUP6 PUSH2 0x4C18 JUMP JUMPDEST PUSH0 SWAP5 JUMPDEST DUP1 MLOAD DUP7 LT ISZERO PUSH2 0x1BA6 JUMPI PUSH2 0x18C7 DUP7 DUP3 PUSH2 0x39DF JUMP JUMPDEST MLOAD ISZERO PUSH2 0x1B98 JUMPI PUSH2 0x18D7 DUP7 DUP3 PUSH2 0x39DF JUMP JUMPDEST MLOAD SWAP7 PUSH1 0x40 MLOAD SWAP8 PUSH4 0x68972D59 PUSH1 0xE0 SHL DUP10 MSTORE PUSH1 0x4 DUP10 ADD MSTORE PUSH0 DUP9 PUSH1 0x24 DUP2 DUP8 GAS STATICCALL SWAP8 DUP9 ISZERO PUSH2 0x8D7 JUMPI PUSH0 SWAP9 PUSH2 0x1ABE JUMPI JUMPDEST POP PUSH0 JUMPDEST DUP7 MLOAD DUP2 LT ISZERO PUSH2 0x1AA7 JUMPI DUP9 MLOAD PUSH1 0x6 DUP2 LT ISZERO PUSH2 0x8E2 JUMPI PUSH2 0x194C JUMPI PUSH1 0x1 SWAP1 PUSH1 0xFF PUSH1 0x20 DUP12 ADD MLOAD AND PUSH1 0xFF PUSH2 0x1942 PUSH2 0x1937 DUP5 DUP13 PUSH2 0x39DF JUMP JUMPDEST MLOAD SWAP3 DUP3 DUP5 MLOAD AND PUSH2 0x3F55 JUMP JUMPDEST AND SWAP1 MSTORE JUMPDEST ADD PUSH2 0x1905 JUMP JUMPDEST DUP9 MLOAD PUSH1 0x6 DUP2 LT ISZERO PUSH2 0x8E2 JUMPI PUSH1 0x1 SUB PUSH2 0x198F JUMPI PUSH1 0x1 SWAP1 PUSH1 0xFF PUSH1 0x20 DUP12 ADD MLOAD AND PUSH1 0xFF PUSH2 0x1986 PUSH1 0x20 PUSH2 0x197A DUP6 DUP14 PUSH2 0x39DF JUMP JUMPDEST MLOAD ADD SWAP3 DUP3 DUP5 MLOAD AND PUSH2 0x3F55 JUMP JUMPDEST AND SWAP1 MSTORE JUMPDEST PUSH2 0x1946 JUMP JUMPDEST DUP9 MLOAD PUSH1 0x6 DUP2 LT ISZERO PUSH2 0x8E2 JUMPI PUSH1 0x2 SUB PUSH2 0x19BD JUMPI PUSH1 0x1 SWAP1 PUSH1 0xFF PUSH1 0x20 DUP12 ADD MLOAD AND PUSH1 0xFF PUSH2 0x1986 PUSH1 0x40 PUSH2 0x197A DUP6 DUP14 PUSH2 0x39DF JUMP JUMPDEST DUP9 MLOAD PUSH1 0x6 DUP2 LT ISZERO PUSH2 0x8E2 JUMPI PUSH1 0x3 SUB PUSH2 0x1A56 JUMPI PUSH2 0xFFFF PUSH1 0x60 PUSH2 0x19DE DUP4 DUP11 PUSH2 0x39DF JUMP JUMPDEST MLOAD ADD MLOAD AND SWAP1 PUSH1 0x3 PUSH1 0xFF PUSH1 0x20 DUP13 ADD MLOAD AND MUL PUSH2 0xFFFF DUP2 AND SWAP1 DUP2 SUB PUSH2 0xAAB JUMPI PUSH1 0x64 ADD SWAP2 PUSH2 0xFFFF DUP4 GT PUSH2 0xAAB JUMPI PUSH2 0xFFFF PUSH2 0x1A18 PUSH1 0x1 SWAP5 PUSH1 0x64 SWAP4 PUSH2 0x4B41 JUMP JUMPDEST AND DIV PUSH2 0xFFFF PUSH1 0x60 PUSH2 0x1A29 DUP5 DUP13 PUSH2 0x39DF JUMP JUMPDEST MLOAD ADD SWAP2 AND SWAP1 MSTORE PUSH2 0xFFFF PUSH1 0x60 PUSH2 0x1A3E DUP4 DUP12 PUSH2 0x39DF JUMP JUMPDEST MLOAD ADD MLOAD AND PUSH1 0x80 PUSH2 0x1A4E DUP4 DUP12 PUSH2 0x39DF JUMP JUMPDEST MLOAD ADD MSTORE PUSH2 0x1946 JUMP JUMPDEST DUP9 MLOAD PUSH1 0x6 DUP2 LT ISZERO PUSH2 0x8E2 JUMPI PUSH1 0x4 SUB PUSH2 0x1A84 JUMPI PUSH1 0x1 SWAP1 PUSH1 0xFF PUSH1 0x20 DUP12 ADD MLOAD AND PUSH1 0xFF PUSH2 0x1986 PUSH1 0xA0 PUSH2 0x197A DUP6 DUP14 PUSH2 0x39DF JUMP JUMPDEST DUP9 MLOAD SWAP1 PUSH1 0x6 DUP3 LT ISZERO PUSH2 0x8E2 JUMPI PUSH1 0x5 PUSH1 0x1 SWAP3 SUB PUSH2 0x198A JUMPI DUP2 PUSH1 0xE0 PUSH2 0x1A4E DUP4 DUP12 PUSH2 0x39DF JUMP JUMPDEST POP SWAP3 SWAP7 POP SWAP3 SWAP1 SWAP5 PUSH1 0x1 SWAP1 JUMPDEST ADD SWAP5 SWAP1 SWAP3 SWAP6 SWAP2 SWAP6 PUSH2 0x18B4 JUMP JUMPDEST SWAP1 SWAP8 POP RETURNDATASIZE DUP1 PUSH0 DUP4 RETURNDATACOPY PUSH2 0x1AD0 DUP2 DUP4 PUSH2 0x323E JUMP JUMPDEST DUP2 ADD SWAP1 PUSH1 0x20 DUP2 DUP4 SUB SLT PUSH2 0x1EE JUMPI DUP1 MLOAD SWAP1 PUSH1 0x1 PUSH1 0x1 PUSH1 0x40 SHL SUB DUP3 GT PUSH2 0x1EE JUMPI ADD SWAP1 PUSH1 0x60 DUP3 DUP3 SUB SLT PUSH2 0x1EE JUMPI PUSH1 0x40 MLOAD SWAP2 PUSH2 0x1B07 DUP4 PUSH2 0x31EB JUMP JUMPDEST DUP1 MLOAD PUSH1 0x6 DUP2 LT ISZERO PUSH2 0x1EE JUMPI DUP4 MSTORE PUSH2 0x1B20 PUSH1 0x20 DUP3 ADD PUSH2 0x4023 JUMP JUMPDEST PUSH1 0x20 DUP5 ADD MSTORE PUSH1 0x40 DUP2 ADD MLOAD SWAP1 PUSH1 0x1 PUSH1 0x1 PUSH1 0x40 SHL SUB DUP3 GT PUSH2 0x1EE JUMPI ADD DUP2 PUSH1 0x1F DUP3 ADD SLT ISZERO PUSH2 0x1EE JUMPI DUP1 MLOAD SWAP1 PUSH1 0x1 PUSH1 0x1 PUSH1 0x40 SHL SUB DUP3 GT PUSH2 0x532 JUMPI PUSH1 0x40 MLOAD SWAP3 PUSH2 0x1B6E PUSH1 0x1F DUP5 ADD PUSH1 0x1F NOT AND PUSH1 0x20 ADD DUP6 PUSH2 0x323E JUMP JUMPDEST DUP3 DUP5 MSTORE PUSH1 0x20 DUP4 DUP4 ADD ADD GT PUSH2 0x1EE JUMPI DUP2 PUSH0 SWAP3 PUSH1 0x20 DUP1 SWAP4 ADD DUP4 DUP7 ADD MCOPY DUP4 ADD ADD MSTORE PUSH1 0x40 DUP3 ADD MSTORE SWAP7 DUP9 PUSH2 0x1902 JUMP JUMPDEST SWAP3 SWAP1 SWAP5 PUSH1 0x1 SWAP1 SWAP7 SWAP3 SWAP7 PUSH2 0x1AB2 JUMP JUMPDEST POP SWAP2 SWAP4 POP POP PUSH2 0x1BB5 DUP2 MLOAD PUSH2 0x3F88 JUMP JUMPDEST SWAP2 PUSH0 JUMPDEST DUP3 MLOAD DUP2 LT ISZERO PUSH2 0x1CD4 JUMPI PUSH2 0x1BCB DUP2 DUP5 PUSH2 0x39DF JUMP JUMPDEST MLOAD SWAP1 PUSH1 0x60 DUP3 ADD SWAP2 PUSH2 0x1BE0 DUP4 MLOAD PUSH2 0x16D8 DUP2 PUSH2 0x338F JUMP JUMPDEST SWAP1 PUSH2 0x1BF4 PUSH1 0xC0 DUP3 ADD SWAP3 PUSH1 0xFF DUP5 MLOAD AND SWAP1 PUSH2 0x4B5A JUMP JUMPDEST SWAP1 PUSH1 0xFF DUP1 PUSH1 0xA0 DUP4 ADD MLOAD AND SWAP4 MLOAD AND SWAP1 PUSH1 0xE0 DUP2 ADD SWAP6 PUSH1 0xFF DUP8 MLOAD AND PUSH2 0x1C2C PUSH2 0x1C1D DUP4 MLOAD PUSH2 0x171B DUP2 PUSH2 0x338F JUMP JUMPDEST SWAP9 PUSH1 0xFF DUP5 MLOAD SWAP2 PUSH2 0x172F DUP4 PUSH2 0x338F JUMP JUMPDEST PUSH1 0x80 PUSH1 0x40 DUP6 ADD MLOAD SWAP4 PUSH2 0x1C3D DUP6 PUSH2 0x338F JUMP JUMPDEST MLOAD SWAP5 PUSH2 0x1C48 DUP7 PUSH2 0x338F JUMP JUMPDEST ADD MLOAD SWAP5 PUSH1 0x4 DUP7 LT ISZERO PUSH2 0x8E2 JUMPI PUSH1 0x1 SWAP10 PUSH2 0xFFFF PUSH2 0x1CB8 SWAP9 PUSH1 0xFF SWAP6 DUP7 SWAP5 PUSH2 0x1C71 SWAP13 PUSH1 0x40 MLOAD SWAP14 DUP15 PUSH2 0x3222 JUMP JUMPDEST DUP14 MSTORE PUSH1 0x20 DUP14 ADD MSTORE PUSH1 0x40 DUP13 ADD MSTORE AND DUP1 PUSH1 0x60 DUP12 ADD MSTORE PUSH1 0x80 DUP11 ADD MSTORE AND PUSH1 0xA0 DUP9 ADD MSTORE AND PUSH1 0xC0 DUP7 ADD MSTORE PUSH0 PUSH1 0xE0 DUP7 ADD MSTORE PUSH0 PUSH2 0x100 DUP7 ADD MSTORE PUSH2 0x1CAB DUP2 PUSH2 0x338F JUMP JUMPDEST DUP12 DUP6 ADD MSTORE PUSH2 0x17BF DUP2 PUSH2 0x338F JUMP JUMPDEST PUSH2 0x1CC2 DUP3 DUP8 PUSH2 0x39DF JUMP JUMPDEST MSTORE PUSH2 0x1CCD DUP2 DUP7 PUSH2 0x39DF JUMP JUMPDEST POP ADD PUSH2 0x1BB8 JUMP JUMPDEST POP DUP5 DUP5 DUP5 PUSH2 0x1CE1 DUP5 PUSH2 0x4031 JUMP JUMPDEST PUSH2 0x1CEA DUP2 PUSH2 0x4031 JUMP JUMPDEST PUSH2 0x1CF4 DUP5 MLOAD PUSH2 0x3EFC JUMP JUMPDEST SWAP2 PUSH2 0x1CFF DUP3 MLOAD PUSH2 0x3EFC JUMP JUMPDEST PUSH0 JUMPDEST DUP7 MLOAD DUP2 LT ISZERO PUSH2 0x1D31 JUMPI DUP1 PUSH2 0xFFFF PUSH1 0x80 PUSH2 0x1D1C PUSH1 0x1 SWAP5 DUP12 PUSH2 0x39DF JUMP JUMPDEST MLOAD ADD MLOAD AND PUSH2 0x1D2A DUP3 DUP9 PUSH2 0x39DF JUMP JUMPDEST MSTORE ADD PUSH2 0x1D01 JUMP JUMPDEST POP DUP5 DUP7 DUP6 PUSH0 JUMPDEST DUP7 MLOAD DUP2 LT ISZERO PUSH2 0x1D67 JUMPI DUP1 PUSH2 0xFFFF PUSH1 0x80 PUSH2 0x1D52 PUSH1 0x1 SWAP5 DUP12 PUSH2 0x39DF JUMP JUMPDEST MLOAD ADD MLOAD AND PUSH2 0x1D60 DUP3 DUP9 PUSH2 0x39DF JUMP JUMPDEST MSTORE ADD PUSH2 0x1D37 JUMP JUMPDEST POP SWAP2 SWAP5 SWAP3 SWAP4 SWAP1 SWAP3 SWAP1 PUSH1 0x40 MLOAD SWAP6 PUSH2 0xF20 PUSH2 0x1D80 DUP2 DUP10 PUSH2 0x323E JUMP JUMPDEST PUSH1 0x78 DUP9 MSTORE PUSH1 0x1F NOT ADD PUSH0 JUMPDEST DUP2 DUP2 LT PUSH2 0x2587 JUMPI POP POP PUSH0 SWAP4 PUSH1 0x1 JUMPDEST PUSH1 0xFF DUP2 AND PUSH1 0x12 DUP2 GT PUSH2 0x1EB7 JUMPI PUSH2 0x1DAD DUP9 PUSH2 0x4138 JUMP JUMPDEST ISZERO DUP1 ISZERO PUSH2 0x2577 JUMPI JUMPDEST PUSH2 0x1EB7 JUMPI PUSH1 0x3 SWAP1 PUSH2 0x1DC5 DUP10 PUSH2 0x4185 JUMP JUMPDEST PUSH2 0x1DCE DUP8 PUSH2 0x4185 JUMP JUMPDEST MUL PUSH1 0xFF DUP2 AND SWAP1 DUP2 SUB PUSH2 0xAAB JUMPI DUP5 PUSH1 0x1 SWAP2 SHR AND PUSH1 0x1 ADD PUSH1 0xFF DUP2 GT PUSH2 0xAAB JUMPI PUSH1 0xFF AND PUSH0 JUMPDEST DUP2 PUSH1 0xFF DUP3 AND LT PUSH2 0x1E0B JUMPI JUMPDEST POP POP PUSH2 0x1E06 SWAP1 PUSH2 0x3F77 JUMP JUMPDEST PUSH2 0x1D98 JUMP JUMPDEST PUSH1 0x77 DUP9 LT ISZERO PUSH2 0x1EA2 JUMPI PUSH2 0x1E1D DUP10 PUSH2 0x4138 JUMP JUMPDEST ISZERO DUP1 ISZERO PUSH2 0x1EA7 JUMPI JUMPDEST PUSH2 0x1EA2 JUMPI DUP9 DUP9 DUP13 DUP9 DUP7 DUP12 PUSH2 0x1E39 DUP2 DUP8 PUSH2 0x41EE JUMP JUMPDEST SWAP2 SWAP1 ISZERO PUSH2 0x1E72 JUMPI PUSH2 0x1E49 SWAP7 PUSH2 0x47A0 JUMP JUMPDEST PUSH2 0x1E5B JUMPI JUMPDEST PUSH1 0x1 PUSH1 0xFF SWAP2 JUMPDEST ADD AND PUSH2 0x1DF0 JUMP JUMPDEST SWAP7 PUSH1 0x1 PUSH2 0x1E69 PUSH1 0xFF SWAP3 PUSH2 0x3F69 JUMP JUMPDEST SWAP9 SWAP2 POP POP PUSH2 0x1E4E JUMP JUMPDEST SWAP6 PUSH2 0x1E7C SWAP7 PUSH2 0x43C7 JUMP JUMPDEST PUSH2 0x1E8B JUMPI JUMPDEST PUSH1 0x1 PUSH1 0xFF SWAP2 PUSH2 0x1E54 JUMP JUMPDEST SWAP7 PUSH1 0x1 PUSH2 0x1E99 PUSH1 0xFF SWAP3 PUSH2 0x3F69 JUMP JUMPDEST SWAP9 SWAP2 POP POP PUSH2 0x1E81 JUMP JUMPDEST PUSH2 0x1DFB JUMP JUMPDEST POP PUSH2 0x1EB1 DUP8 PUSH2 0x4138 JUMP JUMPDEST ISZERO PUSH2 0x1E25 JUMP JUMPDEST POP POP SWAP7 SWAP4 SWAP6 SWAP5 POP SWAP2 PUSH2 0x1EC9 SWAP2 POP PUSH2 0x4138 JUMP JUMPDEST ISZERO SWAP4 PUSH2 0x1ED4 DUP2 PUSH2 0x3858 JUMP JUMPDEST SWAP3 PUSH2 0x1EE2 PUSH1 0x40 MLOAD SWAP5 DUP6 PUSH2 0x323E JUMP JUMPDEST DUP2 DUP5 MSTORE PUSH1 0x1F NOT PUSH2 0x1EF1 DUP4 PUSH2 0x3858 JUMP JUMPDEST ADD PUSH0 JUMPDEST DUP2 DUP2 LT PUSH2 0x250E JUMPI POP POP PUSH0 JUMPDEST DUP3 DUP2 LT PUSH2 0x24E4 JUMPI POP POP POP PUSH2 0x1F11 PUSH2 0x3EC8 JUMP JUMPDEST SWAP4 DUP5 MSTORE PUSH1 0x20 DUP5 ADD SWAP2 DUP3 MSTORE PUSH1 0x40 DUP5 ADD SWAP5 DUP6 MSTORE PUSH1 0x60 DUP5 ADD SWAP3 DUP4 MSTORE DUP4 MLOAD ISZERO ISZERO PUSH1 0x40 MLOAD PUSH1 0x20 DUP2 ADD SWAP2 CALLER PUSH1 0x60 SHL DUP4 MSTORE TIMESTAMP PUSH1 0x34 DUP4 ADD MSTORE PREVRANDAO PUSH1 0x54 DUP4 ADD MSTORE PUSH1 0xF8 SHL PUSH1 0x74 DUP3 ADD MSTORE PUSH1 0x55 DUP2 MSTORE PUSH2 0x1F5E PUSH1 0x75 DUP3 PUSH2 0x323E JUMP JUMPDEST MLOAD SWAP1 KECCAK256 SWAP4 DUP5 PUSH1 0xD SSTORE PUSH2 0x1F8A DUP2 MLOAD ISZERO ISZERO CALLER PUSH0 MSTORE PUSH1 0xA PUSH1 0x20 MSTORE PUSH1 0x40 PUSH0 KECCAK256 SWAP1 PUSH1 0xFF DUP1 NOT DUP4 SLOAD AND SWAP2 ISZERO ISZERO AND OR SWAP1 SSTORE JUMP JUMPDEST CALLER PUSH0 MSTORE PUSH1 0xB PUSH1 0x20 MSTORE PUSH2 0x1F9E PUSH1 0x40 PUSH0 KECCAK256 PUSH2 0x3A35 JUMP JUMPDEST PUSH0 JUMPDEST DUP7 MLOAD MLOAD DUP2 LT ISZERO PUSH2 0x1FD8 JUMPI PUSH1 0x1 SWAP1 CALLER PUSH0 MSTORE PUSH1 0xB PUSH1 0x20 MSTORE PUSH2 0x1FD2 PUSH1 0x40 PUSH0 KECCAK256 PUSH2 0xFFFF PUSH2 0x1FCA DUP5 DUP13 MLOAD PUSH2 0x39DF JUMP JUMPDEST MLOAD AND SWAP1 PUSH2 0x3A5C JUMP JUMPDEST ADD PUSH2 0x1FA0 JUMP JUMPDEST POP DUP6 SWAP5 CALLER PUSH0 MSTORE PUSH1 0xC PUSH1 0x20 MSTORE PUSH2 0x1FEF PUSH1 0x40 PUSH0 KECCAK256 PUSH2 0x3A35 JUMP JUMPDEST PUSH0 JUMPDEST DUP6 MLOAD MLOAD DUP2 LT ISZERO PUSH2 0x2021 JUMPI PUSH1 0x1 SWAP1 CALLER PUSH0 MSTORE PUSH1 0xC PUSH1 0x20 MSTORE PUSH2 0x201B PUSH1 0x40 PUSH0 KECCAK256 PUSH2 0xFFFF PUSH2 0x1FCA DUP5 DUP12 MLOAD PUSH2 0x39DF JUMP JUMPDEST ADD PUSH2 0x1FF1 JUMP JUMPDEST POP SWAP1 SWAP2 SWAP3 SWAP5 CALLER PUSH0 MSTORE PUSH1 0xE PUSH1 0x20 MSTORE PUSH2 0x203A PUSH1 0x40 PUSH0 KECCAK256 PUSH2 0x3A92 JUMP JUMPDEST PUSH0 JUMPDEST DUP7 MLOAD MLOAD DUP2 LT ISZERO PUSH2 0x22F0 JUMPI CALLER PUSH0 MSTORE PUSH1 0xE PUSH1 0x20 MSTORE PUSH1 0x40 PUSH0 KECCAK256 PUSH2 0x205D DUP3 DUP10 MLOAD PUSH2 0x39DF JUMP JUMPDEST MLOAD SWAP1 DUP1 SLOAD PUSH1 0x1 PUSH1 0x40 SHL DUP2 LT ISZERO PUSH2 0x532 JUMPI PUSH2 0x207C SWAP2 PUSH1 0x1 DUP3 ADD DUP2 SSTORE PUSH2 0x317E JUMP JUMPDEST PUSH2 0x22DD JUMPI DUP2 MLOAD DUP2 SLOAD PUSH1 0x20 DUP5 ADD MLOAD PUSH1 0x40 DUP6 ADD MLOAD PUSH3 0xFFFFFF NOT SWAP1 SWAP3 AND PUSH1 0xFF SWAP4 SWAP1 SWAP4 AND SWAP3 SWAP1 SWAP3 OR SWAP2 ISZERO ISZERO PUSH1 0x8 SHL PUSH2 0xFF00 AND SWAP2 SWAP1 SWAP2 OR PUSH1 0x10 SWAP2 SWAP1 SWAP2 SHL PUSH3 0xFF0000 AND OR DUP2 SSTORE PUSH1 0x60 DUP3 ADD MLOAD DUP2 SLOAD PUSH4 0xFF000000 NOT AND PUSH1 0x18 SWAP2 SWAP1 SWAP2 SHL PUSH4 0xFF000000 AND OR DUP2 SSTORE PUSH1 0x80 DUP3 ADD MLOAD DUP2 SLOAD PUSH1 0xA0 DUP5 ADD MLOAD PUSH1 0xC0 DUP6 ADD MLOAD PUSH1 0xE0 DUP7 ADD MLOAD PUSH12 0xFFFFFFFFFFFFFFFF00000000 NOT SWAP1 SWAP4 AND PUSH1 0x20 SWAP5 SWAP1 SWAP5 SHL PUSH6 0xFFFF00000000 AND SWAP4 SWAP1 SWAP4 OR PUSH1 0x30 SWAP2 SWAP1 SWAP2 SHL PUSH8 0xFFFF000000000000 AND OR PUSH1 0x40 SWAP3 SWAP1 SWAP3 SHL PUSH10 0xFFFF0000000000000000 AND SWAP2 SWAP1 SWAP2 OR PUSH1 0x50 SWAP2 SWAP1 SWAP2 SHL PUSH2 0xFFFF PUSH1 0x50 SHL AND OR DUP2 SSTORE PUSH2 0x100 DUP3 ADD MLOAD DUP1 MLOAD PUSH1 0x1 DUP4 ADD SWAP2 PUSH1 0x1 PUSH1 0x1 PUSH1 0x40 SHL SUB DUP3 GT PUSH2 0x532 JUMPI PUSH2 0x216E DUP4 SLOAD PUSH2 0x3197 JUMP JUMPDEST PUSH1 0x1F DUP2 GT PUSH2 0x22A2 JUMPI JUMPDEST POP PUSH1 0x20 SWAP1 PUSH1 0x1F DUP4 GT PUSH1 0x1 EQ PUSH2 0x2230 JUMPI PUSH2 0x221F SWAP5 PUSH1 0x1 SWAP8 SWAP7 SWAP5 DUP5 PUSH1 0xFF SWAP6 PUSH2 0x180 SWAP6 PUSH1 0x2 SWAP6 PUSH0 SWAP3 PUSH2 0x2225 JUMPI JUMPDEST POP POP PUSH0 NOT PUSH1 0x3 DUP4 SWAP1 SHL SHR NOT AND SWAP1 DUP11 SHL OR SWAP1 SSTORE JUMPDEST ADD SWAP3 DUP3 DUP1 DUP13 DUP4 ADD MLOAD AND AND DUP4 NOT DUP6 SLOAD AND OR DUP5 SSTORE PUSH2 0x21E8 DUP4 PUSH2 0x140 DUP4 ADD MLOAD AND DUP6 SWAP1 PUSH2 0xFF00 DUP3 SLOAD SWAP2 PUSH1 0x8 SHL AND SWAP1 PUSH2 0xFF00 NOT AND OR SWAP1 SSTORE JUMP JUMPDEST PUSH2 0x160 DUP2 ADD MLOAD DUP5 SLOAD PUSH3 0xFF0000 NOT AND SWAP1 DUP5 AND PUSH1 0x10 SHL PUSH3 0xFF0000 AND OR DUP5 SSTORE ADD MLOAD DUP3 SLOAD PUSH4 0xFF000000 NOT AND SWAP2 AND PUSH1 0x18 SHL PUSH4 0xFF000000 AND OR SWAP1 SSTORE JUMP JUMPDEST ADD PUSH2 0x203C JUMP JUMPDEST ADD MLOAD SWAP1 POP PUSH0 DUP1 PUSH2 0x21A1 JUMP JUMPDEST SWAP1 PUSH1 0x1F NOT DUP4 AND SWAP2 DUP5 PUSH0 MSTORE DUP2 PUSH0 KECCAK256 SWAP3 PUSH0 JUMPDEST DUP2 DUP2 LT PUSH2 0x228A JUMPI POP SWAP5 PUSH1 0x1 DUP6 PUSH2 0x180 SWAP6 PUSH1 0x2 SWAP6 PUSH2 0x221F SWAP11 SWAP6 PUSH1 0xFF SWAP10 DUP6 SWAP15 SWAP14 SWAP12 LT PUSH2 0x2272 JUMPI JUMPDEST POP POP POP DUP2 SHL ADD SWAP1 SSTORE PUSH2 0x21B4 JUMP JUMPDEST ADD MLOAD PUSH0 NOT PUSH1 0xF8 DUP5 PUSH1 0x3 SHL AND SHR NOT AND SWAP1 SSTORE PUSH0 DUP1 DUP1 PUSH2 0x2265 JUMP JUMPDEST SWAP3 SWAP4 PUSH1 0x20 PUSH1 0x1 DUP2 SWAP3 DUP8 DUP7 ADD MLOAD DUP2 SSTORE ADD SWAP6 ADD SWAP4 ADD PUSH2 0x2240 JUMP JUMPDEST PUSH2 0x22CD SWAP1 DUP5 PUSH0 MSTORE PUSH1 0x20 PUSH0 KECCAK256 PUSH1 0x1F DUP6 ADD PUSH1 0x5 SHR DUP2 ADD SWAP2 PUSH1 0x20 DUP7 LT PUSH2 0x22D3 JUMPI JUMPDEST PUSH1 0x1F ADD PUSH1 0x5 SHR ADD SWAP1 PUSH2 0x3A1F JUMP JUMPDEST DUP13 PUSH2 0x2177 JUMP JUMPDEST SWAP1 SWAP2 POP DUP2 SWAP1 PUSH2 0x22C0 JUMP JUMPDEST PUSH4 0x4E487B71 PUSH1 0xE0 SHL PUSH0 MSTORE PUSH0 PUSH1 0x4 MSTORE PUSH1 0x24 PUSH0 REVERT JUMPDEST POP SWAP1 DUP6 SWAP2 DUP2 PUSH32 0xC5187ED43EF6C494568F3ACE9A84A990FE330816256F8610BA7630DE7FC2A485 DUP8 DUP7 MLOAD ISZERO ISZERO SWAP4 MLOAD SWAP1 MLOAD SWAP4 PUSH2 0x234E PUSH2 0x233F PUSH1 0x40 MLOAD SWAP4 DUP5 SWAP4 DUP5 MSTORE PUSH1 0x60 PUSH1 0x20 DUP6 ADD MSTORE PUSH1 0x60 DUP5 ADD SWAP1 PUSH2 0x3007 JUMP JUMPDEST DUP3 DUP2 SUB PUSH1 0x40 DUP5 ADD MSTORE CALLER SWAP7 PUSH2 0x3007 JUMP JUMPDEST SUB SWAP1 LOG3 PUSH0 JUMPDEST DUP3 MLOAD SWAP1 DUP2 MLOAD DUP2 LT ISZERO PUSH2 0x2404 JUMPI DUP3 PUSH32 0x60620DFBC2D4188642CFFA14579DA13E93400A7369BB90AAC5A983BEEF88F66A PUSH2 0x238D DUP4 PUSH1 0x1 SWAP6 PUSH2 0x39DF JUMP JUMPDEST MLOAD PUSH1 0xFF DUP2 MLOAD AND PUSH2 0x23FB PUSH1 0x20 DUP4 ADD MLOAD ISZERO ISZERO SWAP3 PUSH1 0xFF PUSH1 0x40 DUP3 ADD MLOAD AND SWAP1 PUSH1 0xFF PUSH1 0x60 DUP3 ADD MLOAD AND PUSH2 0xFFFF PUSH1 0x80 DUP4 ADD MLOAD AND SWAP1 PUSH2 0x100 PUSH2 0xFFFF PUSH1 0xE0 DUP6 ADD MLOAD AND SWAP4 ADD MLOAD SWAP4 PUSH1 0x40 MLOAD SWAP8 DUP9 SWAP8 DUP9 MSTORE PUSH1 0x20 DUP9 ADD MSTORE PUSH1 0x40 DUP8 ADD MSTORE PUSH1 0x60 DUP7 ADD MSTORE PUSH1 0x80 DUP6 ADD MSTORE PUSH1 0xA0 DUP5 ADD MSTORE PUSH1 0xE0 PUSH1 0xC0 DUP5 ADD MSTORE PUSH1 0xE0 DUP4 ADD SWAP1 PUSH2 0x303E JUMP JUMPDEST SUB SWAP1 LOG2 ADD PUSH2 0x2353 JUMP JUMPDEST DUP5 MLOAD ISZERO ISZERO CALLER PUSH0 MSTORE PUSH1 0x4 PUSH1 0x20 MSTORE PUSH1 0x40 PUSH0 KECCAK256 SWAP1 DUP1 PUSH0 EQ PUSH2 0x24DD JUMPI PUSH1 0x19 JUMPDEST PUSH1 0xFF PUSH4 0xFFFFFFFF DUP5 SLOAD PUSH1 0x10 SHR AND SWAP2 AND ADD PUSH4 0xFFFFFFFF DUP2 GT PUSH2 0xAAB JUMPI DUP3 SLOAD PUSH6 0xFFFFFFFF0000 NOT AND PUSH1 0x10 SWAP2 SWAP1 SWAP2 SHL PUSH6 0xFFFFFFFF0000 AND OR DUP3 SSTORE ISZERO PUSH2 0x24C8 JUMPI PUSH1 0x1 DUP2 ADD PUSH2 0x2469 DUP2 SLOAD PUSH2 0x3F69 JUMP JUMPDEST SWAP1 SSTORE JUMPDEST DUP1 SLOAD PUSH2 0xFFFF DUP2 AND SWAP1 PUSH1 0x37 DUP3 MUL PUSH4 0xFFFFFFFF DUP2 AND SWAP1 DUP2 SUB PUSH2 0xAAB JUMPI PUSH1 0x5A ADD PUSH4 0xFFFFFFFF DUP2 GT PUSH2 0xAAB JUMPI PUSH4 0xFFFFFFFF DUP1 SWAP2 AND SWAP2 PUSH1 0x10 SHR AND LT ISZERO PUSH2 0x24A9 JUMPI STOP JUMPDEST PUSH2 0xFFFF DUP2 EQ PUSH2 0xAAB JUMPI DUP2 SLOAD PUSH2 0xFFFF NOT AND PUSH1 0x1 SWAP2 SWAP1 SWAP2 ADD PUSH2 0xFFFF AND OR SWAP1 SSTORE STOP JUMPDEST PUSH1 0x2 DUP2 ADD PUSH2 0x24D6 DUP2 SLOAD PUSH2 0x3F69 JUMP JUMPDEST SWAP1 SSTORE PUSH2 0x246C JUMP JUMPDEST PUSH1 0xA PUSH2 0x241F JUMP JUMPDEST DUP1 PUSH2 0x24F1 PUSH1 0x1 SWAP3 DUP5 PUSH2 0x39DF JUMP JUMPDEST MLOAD PUSH2 0x24FC DUP3 DUP9 PUSH2 0x39DF JUMP JUMPDEST MSTORE PUSH2 0x2507 DUP2 DUP8 PUSH2 0x39DF JUMP JUMPDEST POP ADD PUSH2 0x1EFF JUMP JUMPDEST PUSH1 0x20 SWAP1 PUSH1 0x40 MLOAD PUSH2 0x251D DUP2 PUSH2 0x31CF JUMP JUMPDEST PUSH0 DUP2 MSTORE PUSH0 DUP4 DUP3 ADD MSTORE PUSH0 PUSH1 0x40 DUP3 ADD MSTORE PUSH0 PUSH1 0x60 DUP3 ADD MSTORE PUSH0 PUSH1 0x80 DUP3 ADD MSTORE PUSH0 PUSH1 0xA0 DUP3 ADD MSTORE PUSH0 PUSH1 0xC0 DUP3 ADD MSTORE PUSH0 PUSH1 0xE0 DUP3 ADD MSTORE PUSH1 0x60 PUSH2 0x100 DUP3 ADD MSTORE PUSH0 DUP8 DUP3 ADD MSTORE PUSH0 PUSH2 0x140 DUP3 ADD MSTORE PUSH0 PUSH2 0x160 DUP3 ADD MSTORE PUSH0 PUSH2 0x180 DUP3 ADD MSTORE DUP3 DUP3 DUP10 ADD ADD MSTORE ADD PUSH2 0x1EF4 JUMP JUMPDEST POP PUSH2 0x2581 DUP7 PUSH2 0x4138 JUMP JUMPDEST ISZERO PUSH2 0x1DB5 JUMP JUMPDEST PUSH1 0x20 SWAP1 PUSH1 0x40 MLOAD PUSH2 0x2596 DUP2 PUSH2 0x31CF JUMP JUMPDEST PUSH0 DUP2 MSTORE PUSH0 DUP4 DUP3 ADD MSTORE PUSH0 PUSH1 0x40 DUP3 ADD MSTORE PUSH0 PUSH1 0x60 DUP3 ADD MSTORE PUSH0 PUSH1 0x80 DUP3 ADD MSTORE PUSH0 PUSH1 0xA0 DUP3 ADD MSTORE PUSH0 PUSH1 0xC0 DUP3 ADD MSTORE PUSH0 PUSH1 0xE0 DUP3 ADD MSTORE PUSH1 0x60 PUSH2 0x100 DUP3 ADD MSTORE PUSH0 DUP6 DUP3 ADD MSTORE PUSH0 PUSH2 0x140 DUP3 ADD MSTORE PUSH0 PUSH2 0x160 DUP3 ADD MSTORE PUSH0 PUSH2 0x180 DUP3 ADD MSTORE DUP3 DUP3 DUP13 ADD ADD MSTORE ADD PUSH2 0x1D8A JUMP JUMPDEST PUSH1 0x20 SWAP1 PUSH2 0x25FB PUSH2 0x386F JUMP JUMPDEST DUP3 DUP3 DUP11 ADD ADD MSTORE ADD PUSH2 0x11E9 JUMP JUMPDEST PUSH1 0x1 SWAP1 CALLER PUSH0 MSTORE PUSH1 0x7 PUSH1 0x20 MSTORE PUSH2 0x261F DUP2 PUSH1 0x40 PUSH0 KECCAK256 PUSH2 0x32FF JUMP JUMPDEST SWAP1 SLOAD SWAP1 PUSH1 0x3 SHL SHR PUSH2 0x2630 DUP3 DUP8 PUSH2 0x39DF JUMP JUMPDEST MSTORE ADD PUSH2 0x11C3 JUMP JUMPDEST SWAP1 SWAP2 SWAP4 POP PUSH1 0x3 DUP2 GT PUSH2 0x26F3 JUMPI PUSH0 JUMPDEST DUP2 DUP2 LT PUSH2 0x265F JUMPI POP SWAP1 PUSH2 0x2659 SWAP2 CALLDATASIZE SWAP2 PUSH2 0x3947 JUMP JUMPDEST SWAP2 PUSH2 0x11CD JUMP JUMPDEST PUSH2 0x266A DUP2 DUP4 DUP6 PUSH2 0x3937 JUMP JUMPDEST CALLDATALOAD PUSH2 0x2678 JUMPI JUMPDEST PUSH1 0x1 ADD PUSH2 0x2645 JUMP JUMPDEST PUSH1 0x14 SLOAD PUSH2 0x2697 SWAP2 SWAP1 PUSH1 0x20 SWAP1 PUSH1 0x1 PUSH1 0x1 PUSH1 0xA0 SHL SUB AND PUSH2 0xE57 DUP4 DUP7 DUP9 PUSH2 0x3937 JUMP JUMPDEST SUB SWAP2 GAS STATICCALL SWAP2 DUP3 ISZERO PUSH2 0x8D7 JUMPI PUSH0 SWAP3 PUSH2 0x26BE JUMPI JUMPDEST POP PUSH2 0x26B7 PUSH1 0x1 SWAP3 ISZERO ISZERO PUSH2 0x3993 JUMP JUMPDEST SWAP1 POP PUSH2 0x2670 JUMP JUMPDEST SWAP2 POP PUSH1 0x20 DUP3 RETURNDATASIZE DUP3 GT PUSH2 0x26EB JUMPI JUMPDEST DUP2 PUSH2 0x26D8 PUSH1 0x20 SWAP4 DUP4 PUSH2 0x323E JUMP JUMPDEST DUP2 ADD SUB SLT PUSH2 0x1EE JUMPI SWAP1 MLOAD SWAP1 PUSH2 0x26B7 PUSH2 0x26A9 JUMP JUMPDEST RETURNDATASIZE SWAP2 POP PUSH2 0x26CB JUMP JUMPDEST PUSH1 0x40 MLOAD PUSH3 0x461BCD PUSH1 0xE5 SHL DUP2 MSTORE PUSH1 0x20 PUSH1 0x4 DUP3 ADD MSTORE PUSH1 0xF PUSH1 0x24 DUP3 ADD MSTORE PUSH15 0x546F6F206D616E792072656C696373 PUSH1 0x88 SHL PUSH1 0x44 DUP3 ADD MSTORE PUSH1 0x64 SWAP1 REVERT JUMPDEST PUSH1 0x40 MLOAD PUSH2 0x2738 PUSH1 0x80 DUP3 PUSH2 0x323E JUMP JUMPDEST PUSH1 0x3 DUP2 MSTORE PUSH1 0x60 CALLDATASIZE PUSH1 0x20 DUP4 ADD CALLDATACOPY PUSH2 0x11B9 JUMP JUMPDEST PUSH2 0x2754 DUP2 DUP7 DUP7 PUSH2 0x3937 JUMP JUMPDEST PUSH1 0x40 MLOAD PUSH4 0x31A9108F PUSH1 0xE1 SHL DUP2 MSTORE SWAP1 CALLDATALOAD PUSH1 0x4 DUP3 ADD MSTORE PUSH1 0x20 DUP2 PUSH1 0x24 DUP2 DUP7 GAS STATICCALL SWAP1 DUP2 ISZERO PUSH2 0x8D7 JUMPI PUSH0 SWAP2 PUSH2 0x27DE JUMPI JUMPDEST POP CALLER PUSH1 0x1 PUSH1 0x1 PUSH1 0xA0 SHL SUB SWAP1 SWAP2 AND SUB PUSH2 0x2799 JUMPI PUSH1 0x1 ADD PUSH2 0x119D JUMP JUMPDEST PUSH1 0x40 MLOAD PUSH3 0x461BCD PUSH1 0xE5 SHL DUP2 MSTORE PUSH1 0x20 PUSH1 0x4 DUP3 ADD MSTORE PUSH1 0x18 PUSH1 0x24 DUP3 ADD MSTORE PUSH32 0x596F7520646F206E6F74206F776E207468697320756E69740000000000000000 PUSH1 0x44 DUP3 ADD MSTORE PUSH1 0x64 SWAP1 REVERT JUMPDEST SWAP1 POP PUSH1 0x20 DUP2 RETURNDATASIZE DUP3 GT PUSH2 0x2817 JUMPI JUMPDEST DUP2 PUSH2 0x27F8 PUSH1 0x20 SWAP4 DUP4 PUSH2 0x323E JUMP JUMPDEST DUP2 ADD SUB SLT PUSH2 0x1EE JUMPI MLOAD PUSH1 0x1 PUSH1 0x1 PUSH1 0xA0 SHL SUB DUP2 AND DUP2 SUB PUSH2 0x1EE JUMPI DUP8 PUSH2 0x277F JUMP JUMPDEST RETURNDATASIZE SWAP2 POP PUSH2 0x27EB JUMP JUMPDEST PUSH1 0x40 MLOAD PUSH3 0x461BCD PUSH1 0xE5 SHL DUP2 MSTORE PUSH1 0x20 PUSH1 0x4 DUP3 ADD MSTORE PUSH1 0x11 PUSH1 0x24 DUP3 ADD MSTORE PUSH17 0x496E76616C6964207465616D2073697A65 PUSH1 0x78 SHL PUSH1 0x44 DUP3 ADD MSTORE PUSH1 0x64 SWAP1 REVERT JUMPDEST POP PUSH1 0x8 DUP4 GT ISZERO PUSH2 0x118A JUMP JUMPDEST CALLVALUE PUSH2 0x1EE JUMPI PUSH0 CALLDATASIZE PUSH1 0x3 NOT ADD SLT PUSH2 0x1EE JUMPI PUSH1 0x20 PUSH1 0xD SLOAD PUSH1 0x40 MLOAD SWAP1 DUP2 MSTORE RETURN JUMPDEST CALLVALUE PUSH2 0x1EE JUMPI PUSH1 0x40 CALLDATASIZE PUSH1 0x3 NOT ADD SLT PUSH2 0x1EE JUMPI PUSH2 0x2899 PUSH2 0x2FCA JUMP JUMPDEST PUSH1 0x1 PUSH1 0x1 PUSH1 0xA0 SHL SUB AND PUSH0 SWAP1 DUP2 MSTORE PUSH1 0x5 PUSH1 0x20 MSTORE PUSH1 0x40 SWAP1 KECCAK256 DUP1 SLOAD PUSH1 0x24 CALLDATALOAD SWAP2 SWAP1 DUP3 LT ISZERO PUSH2 0x1EE JUMPI PUSH1 0x20 SWAP2 PUSH2 0x23B SWAP2 PUSH2 0x3100 JUMP JUMPDEST CALLVALUE PUSH2 0x1EE JUMPI PUSH1 0x40 CALLDATASIZE PUSH1 0x3 NOT ADD SLT PUSH2 0x1EE JUMPI PUSH2 0x28E2 PUSH2 0x2FCA JUMP JUMPDEST PUSH1 0x1 PUSH1 0x1 PUSH1 0xA0 SHL SUB AND PUSH0 SWAP1 DUP2 MSTORE PUSH1 0xB PUSH1 0x20 MSTORE PUSH1 0x40 SWAP1 KECCAK256 DUP1 SLOAD PUSH1 0x24 CALLDATALOAD SWAP1 DUP2 LT ISZERO PUSH2 0x1EE JUMPI PUSH2 0x1023 PUSH2 0xFFFF SWAP2 PUSH1 0x20 SWAP4 PUSH2 0x30DF JUMP JUMPDEST CALLVALUE PUSH2 0x1EE JUMPI PUSH1 0x20 CALLDATASIZE PUSH1 0x3 NOT ADD SLT PUSH2 0x1EE JUMPI PUSH2 0x292D PUSH2 0x2FCA JUMP JUMPDEST PUSH1 0x60 PUSH1 0x40 MLOAD PUSH2 0x293D PUSH1 0x60 DUP3 PUSH2 0x323E JUMP JUMPDEST PUSH0 JUMPDEST DUP3 DUP2 LT PUSH2 0x29BF JUMPI DUP4 PUSH1 0x1 DUP1 PUSH1 0xA0 SHL SUB AND PUSH0 MSTORE PUSH1 0x8 PUSH1 0x20 MSTORE PUSH1 0x40 PUSH0 KECCAK256 PUSH1 0x40 MLOAD SWAP1 PUSH2 0x2967 DUP3 PUSH2 0x31EB JUMP JUMPDEST PUSH0 DUP3 JUMPDEST PUSH1 0x3 DUP3 LT PUSH2 0x29A1 JUMPI PUSH1 0x40 MLOAD DUP5 PUSH0 DUP3 JUMPDEST PUSH1 0x3 DUP3 LT PUSH2 0x2987 JUMPI PUSH2 0x3C0 DUP5 RETURN JUMPDEST PUSH1 0x20 PUSH2 0x2996 PUSH1 0x1 SWAP3 DUP6 MLOAD PUSH2 0x3062 JUMP JUMPDEST SWAP4 ADD SWAP2 ADD SWAP1 SWAP2 PUSH2 0x2979 JUMP JUMPDEST PUSH1 0x3 PUSH1 0x20 PUSH1 0x1 SWAP3 PUSH2 0x29B1 DUP7 PUSH2 0x38B9 JUMP JUMPDEST DUP2 MSTORE ADD SWAP4 ADD SWAP2 ADD SWAP1 SWAP2 PUSH2 0x296A JUMP JUMPDEST PUSH1 0x20 SWAP1 PUSH2 0x29CA PUSH2 0x386F JUMP JUMPDEST DUP2 DUP5 ADD MSTORE ADD PUSH2 0x293F JUMP JUMPDEST CALLVALUE PUSH2 0x1EE JUMPI PUSH0 CALLDATASIZE PUSH1 0x3 NOT ADD SLT PUSH2 0x1EE JUMPI PUSH2 0x29EC PUSH2 0x3E71 JUMP JUMPDEST PUSH1 0x2 SLOAD PUSH1 0xFF DUP2 AND ISZERO PUSH2 0x2A2B JUMPI PUSH1 0xFF NOT AND PUSH1 0x2 SSTORE PUSH32 0x5DB9EE0A495BF2E6FF9C91A7834C1BA4FDD244A5E8AA4E537BD38AEAE4B073AA PUSH1 0x20 PUSH1 0x40 MLOAD CALLER DUP2 MSTORE LOG1 STOP JUMPDEST PUSH1 0x40 MLOAD PUSH3 0x461BCD PUSH1 0xE5 SHL DUP2 MSTORE PUSH1 0x20 PUSH1 0x4 DUP3 ADD MSTORE PUSH1 0x14 PUSH1 0x24 DUP3 ADD MSTORE PUSH20 0x14185D5CD8589B194E881B9BDD081C185D5CD959 PUSH1 0x62 SHL PUSH1 0x44 DUP3 ADD MSTORE PUSH1 0x64 SWAP1 REVERT JUMPDEST CALLVALUE PUSH2 0x1EE JUMPI PUSH0 CALLDATASIZE PUSH1 0x3 NOT ADD SLT PUSH2 0x1EE JUMPI PUSH2 0x2A7F PUSH2 0x3E71 JUMP JUMPDEST PUSH2 0x2A87 PUSH2 0x3BB9 JUMP JUMPDEST SELFBALANCE DUP1 ISZERO PUSH2 0x2AAA JUMPI PUSH0 DUP1 DUP1 DUP1 SWAP4 PUSH1 0x1 DUP1 PUSH1 0xA0 SHL SUB DUP3 SLOAD AND DUP3 CALL ISZERO PUSH2 0x8D7 JUMPI PUSH1 0x1 DUP1 SSTORE STOP JUMPDEST PUSH1 0x40 MLOAD PUSH3 0x461BCD PUSH1 0xE5 SHL DUP2 MSTORE PUSH1 0x20 PUSH1 0x4 DUP3 ADD MSTORE PUSH1 0x14 PUSH1 0x24 DUP3 ADD MSTORE PUSH20 0x4E6F2066756E647320746F207769746864726177 PUSH1 0x60 SHL PUSH1 0x44 DUP3 ADD MSTORE PUSH1 0x64 SWAP1 REVERT JUMPDEST CALLVALUE PUSH2 0x1EE JUMPI PUSH0 CALLDATASIZE PUSH1 0x3 NOT ADD SLT PUSH2 0x1EE JUMPI PUSH1 0x20 PUSH1 0xF SLOAD PUSH1 0x40 MLOAD SWAP1 DUP2 MSTORE RETURN JUMPDEST CALLVALUE PUSH2 0x1EE JUMPI PUSH1 0x20 CALLDATASIZE PUSH1 0x3 NOT ADD SLT PUSH2 0x1EE JUMPI PUSH1 0x1 PUSH1 0x1 PUSH1 0xA0 SHL SUB PUSH2 0x2B24 PUSH2 0x2FCA JUMP JUMPDEST AND DUP1 PUSH0 MSTORE PUSH1 0xA PUSH1 0x20 MSTORE PUSH1 0xFF PUSH1 0x40 PUSH0 KECCAK256 SLOAD AND DUP2 PUSH0 MSTORE PUSH1 0xB PUSH1 0x20 MSTORE PUSH1 0x40 PUSH0 KECCAK256 DUP3 PUSH0 MSTORE PUSH1 0xC PUSH1 0x20 MSTORE PUSH1 0x40 PUSH0 KECCAK256 SWAP3 PUSH1 0xD SLOAD SWAP1 PUSH0 MSTORE PUSH1 0xE PUSH1 0x20 MSTORE PUSH2 0x2B6F PUSH2 0x2B69 PUSH1 0x40 PUSH0 KECCAK256 SWAP4 PUSH2 0x354D JUMP JUMPDEST SWAP5 PUSH2 0x354D JUMP JUMPDEST DUP3 SLOAD SWAP1 PUSH2 0x2B7B DUP3 PUSH2 0x3858 JUMP JUMPDEST SWAP2 PUSH2 0x2B89 PUSH1 0x40 MLOAD SWAP4 DUP5 PUSH2 0x323E JUMP JUMPDEST DUP1 DUP4 MSTORE PUSH1 0x20 DUP4 ADD DUP1 SWAP6 PUSH0 MSTORE PUSH1 0x20 PUSH0 KECCAK256 PUSH0 SWAP2 JUMPDEST DUP4 DUP4 LT PUSH2 0x2CE9 JUMPI POP POP POP POP PUSH2 0x2BD6 SWAP1 PUSH2 0x2BC8 PUSH1 0x40 MLOAD SWAP8 DUP9 SWAP8 ISZERO ISZERO DUP9 MSTORE PUSH1 0xA0 PUSH1 0x20 DUP10 ADD MSTORE PUSH1 0xA0 DUP9 ADD SWAP1 PUSH2 0x3007 JUMP JUMPDEST SWAP1 DUP7 DUP3 SUB PUSH1 0x40 DUP9 ADD MSTORE PUSH2 0x3007 JUMP JUMPDEST SWAP2 PUSH1 0x60 DUP6 ADD MSTORE DUP4 DUP3 SUB PUSH1 0x80 DUP6 ADD MSTORE MLOAD DUP1 DUP3 MSTORE PUSH1 0x20 DUP3 ADD SWAP2 PUSH1 0x20 DUP3 PUSH1 0x5 SHL DUP3 ADD ADD SWAP4 SWAP3 PUSH0 SWAP2 JUMPDEST DUP4 DUP4 LT PUSH2 0x2C08 JUMPI DUP7 DUP7 SUB DUP8 RETURN JUMPDEST SWAP2 SWAP4 SWAP6 POP SWAP2 SWAP4 PUSH1 0x20 DUP1 PUSH1 0x1 SWAP3 PUSH1 0x1F NOT DUP6 DUP3 SUB ADD DUP7 MSTORE DUP9 MLOAD SWAP1 PUSH1 0xFF DUP3 MLOAD AND DUP2 MSTORE DUP3 DUP3 ADD MLOAD ISZERO ISZERO DUP4 DUP3 ADD MSTORE PUSH1 0xFF PUSH1 0x40 DUP4 ADD MLOAD AND PUSH1 0x40 DUP3 ADD MSTORE PUSH1 0xFF PUSH1 0x60 DUP4 ADD MLOAD AND PUSH1 0x60 DUP3 ADD MSTORE PUSH2 0xFFFF PUSH1 0x80 DUP4 ADD MLOAD AND PUSH1 0x80 DUP3 ADD MSTORE PUSH2 0xFFFF PUSH1 0xA0 DUP4 ADD MLOAD AND PUSH1 0xA0 DUP3 ADD MSTORE PUSH2 0xFFFF PUSH1 0xC0 DUP4 ADD MLOAD AND PUSH1 0xC0 DUP3 ADD MSTORE PUSH2 0xFFFF PUSH1 0xE0 DUP4 ADD MLOAD AND PUSH1 0xE0 DUP3 ADD MSTORE PUSH2 0x180 PUSH1 0xFF DUP2 PUSH2 0x2CA6 PUSH2 0x100 DUP7 ADD MLOAD PUSH2 0x1A0 PUSH2 0x100 DUP8 ADD MSTORE PUSH2 0x1A0 DUP7 ADD SWAP1 PUSH2 0x303E JUMP JUMPDEST SWAP5 DUP3 PUSH2 0x120 DUP3 ADD MLOAD AND PUSH2 0x120 DUP7 ADD MSTORE DUP3 PUSH2 0x140 DUP3 ADD MLOAD AND PUSH2 0x140 DUP7 ADD MSTORE DUP3 PUSH2 0x160 DUP3 ADD MLOAD AND PUSH2 0x160 DUP7 ADD MSTORE ADD MLOAD AND SWAP2 ADD MSTORE SWAP8 ADD SWAP4 ADD SWAP4 ADD SWAP1 SWAP3 DUP7 SWAP6 SWAP5 SWAP3 SWAP4 PUSH2 0x2BFB JUMP JUMPDEST PUSH1 0x3 PUSH1 0x20 PUSH1 0x1 SWAP3 PUSH1 0x40 SWAP13 SWAP8 SWAP9 SWAP10 SWAP11 SWAP12 SWAP13 MLOAD PUSH2 0x2D03 DUP2 PUSH2 0x31CF JUMP JUMPDEST PUSH2 0xFFFF DUP7 SLOAD PUSH1 0xFF DUP2 AND DUP4 MSTORE PUSH1 0xFF DUP2 PUSH1 0x8 SHR AND ISZERO ISZERO DUP6 DUP5 ADD MSTORE PUSH1 0xFF DUP2 PUSH1 0x10 SHR AND PUSH1 0x40 DUP5 ADD MSTORE PUSH1 0xFF DUP2 PUSH1 0x18 SHR AND PUSH1 0x60 DUP5 ADD MSTORE DUP2 DUP2 DUP7 SHR AND PUSH1 0x80 DUP5 ADD MSTORE DUP2 DUP2 PUSH1 0x30 SHR AND PUSH1 0xA0 DUP5 ADD MSTORE DUP2 DUP2 PUSH1 0x40 SHR AND PUSH1 0xC0 DUP5 ADD MSTORE PUSH1 0x50 SHR AND PUSH1 0xE0 DUP3 ADD MSTORE PUSH2 0x2D67 DUP6 DUP8 ADD PUSH2 0x325F JUMP JUMPDEST PUSH2 0x100 DUP3 ADD MSTORE PUSH1 0xFF PUSH1 0x2 DUP8 ADD SLOAD DUP2 DUP2 AND PUSH2 0x120 DUP5 ADD MSTORE DUP2 DUP2 PUSH1 0x8 SHR AND PUSH2 0x140 DUP5 ADD MSTORE DUP2 DUP2 PUSH1 0x10 SHR AND PUSH2 0x160 DUP5 ADD MSTORE PUSH1 0x18 SHR AND PUSH2 0x180 DUP3 ADD MSTORE DUP2 MSTORE ADD SWAP3 ADD SWAP3 ADD SWAP2 SWAP1 SWAP9 SWAP8 SWAP7 SWAP6 SWAP5 SWAP4 SWAP9 PUSH2 0x2B9B JUMP JUMPDEST PUSH0 CALLDATASIZE PUSH1 0x3 NOT ADD SLT PUSH2 0x1EE JUMPI PUSH2 0x2DC7 PUSH2 0x3B75 JUMP JUMPDEST PUSH2 0x2DCF PUSH2 0x3BB9 JUMP JUMPDEST PUSH2 0x2DD7 PUSH2 0x3C0F JUMP JUMPDEST PUSH2 0x2DE5 PUSH1 0x10 SLOAD CALLVALUE LT ISZERO PUSH2 0x3321 JUMP JUMPDEST PUSH0 JUMPDEST PUSH1 0x3 DUP2 LT PUSH2 0x2DF5 JUMPI PUSH1 0x1 DUP1 SSTORE STOP JUMPDEST PUSH1 0x1 SWAP1 PUSH2 0x2E18 PUSH2 0x2E03 PUSH2 0x3D2A JUMP JUMPDEST CALLER PUSH0 MSTORE PUSH1 0x8 PUSH1 0x20 MSTORE PUSH2 0x895 DUP4 PUSH1 0x40 PUSH0 KECCAK256 PUSH2 0x2FE0 JUMP JUMPDEST ADD PUSH2 0x2DE7 JUMP JUMPDEST PUSH0 CALLDATASIZE PUSH1 0x3 NOT ADD SLT PUSH2 0x1EE JUMPI PUSH2 0x2E31 PUSH2 0x3B75 JUMP JUMPDEST PUSH2 0x2E39 PUSH2 0x3BB9 JUMP JUMPDEST PUSH2 0x2E41 PUSH2 0x3C0F JUMP JUMPDEST PUSH2 0x2E4F PUSH1 0xF SLOAD CALLVALUE LT ISZERO PUSH2 0x3321 JUMP JUMPDEST PUSH1 0x40 MLOAD PUSH1 0x20 DUP2 ADD SWAP1 TIMESTAMP DUP3 MSTORE CALLER PUSH1 0x60 SHL PUSH1 0x40 DUP3 ADD MSTORE PREVRANDAO PUSH1 0x54 DUP3 ADD MSTORE PUSH1 0x54 DUP2 MSTORE PUSH2 0x2E78 PUSH1 0x74 DUP3 PUSH2 0x323E JUMP JUMPDEST MLOAD SWAP1 KECCAK256 PUSH1 0xB DUP2 MOD PUSH1 0xA ADD DUP1 PUSH1 0xA GT PUSH2 0xAAB JUMPI PUSH1 0xB DUP3 PUSH1 0x8 SHR MOD PUSH1 0x8 ADD SWAP1 DUP2 PUSH1 0x8 GT PUSH2 0xAAB JUMPI PUSH1 0xB DUP4 PUSH1 0x10 SHR MOD PUSH1 0x9 ADD SWAP3 DUP4 PUSH1 0x9 GT PUSH2 0xAAB JUMPI PUSH1 0xFF PUSH1 0x3 DUP3 PUSH1 0x18 SHR MOD AND PUSH2 0x2ECA PUSH1 0x3 DUP4 PUSH1 0x20 SHR AND SWAP3 PUSH2 0x3D08 JUMP JUMPDEST PUSH1 0x13 SLOAD PUSH1 0x1 PUSH1 0x1 PUSH1 0xA0 SHL SUB AND SWAP3 SWAP1 PUSH1 0xFF SWAP1 PUSH2 0x2EE4 DUP5 PUSH2 0x338F JUMP JUMPDEST AND SWAP6 PUSH2 0x2EEF DUP8 PUSH2 0x338F JUMP JUMPDEST PUSH1 0x4 DUP3 LT ISZERO PUSH2 0x8E2 JUMPI PUSH1 0x40 MLOAD PUSH4 0xE3BD811 PUSH1 0xE3 SHL DUP2 MSTORE SWAP7 PUSH1 0x20 SWAP7 DUP9 SWAP7 DUP8 SWAP6 PUSH0 SWAP6 DUP8 SWAP6 PUSH2 0x2F2C SWAP6 PUSH1 0xFF SWAP2 DUP3 AND SWAP6 DUP3 AND SWAP5 SWAP1 SWAP2 AND SWAP3 CALLER PUSH1 0x4 DUP10 ADD PUSH2 0x3399 JUMP JUMPDEST SUB SWAP3 GAS CALL DUP1 ISZERO PUSH2 0x8D7 JUMPI PUSH0 SWAP1 PUSH2 0x2F52 JUMPI JUMPDEST PUSH2 0x89B SWAP1 CALLER PUSH0 MSTORE PUSH1 0x5 PUSH1 0x20 MSTORE PUSH1 0x40 PUSH0 KECCAK256 PUSH2 0x33F9 JUMP JUMPDEST POP PUSH1 0x20 DUP2 RETURNDATASIZE PUSH1 0x20 GT PUSH2 0x2F7E JUMPI JUMPDEST DUP2 PUSH2 0x2F6C PUSH1 0x20 SWAP4 DUP4 PUSH2 0x323E JUMP JUMPDEST DUP2 ADD SUB SLT PUSH2 0x1EE JUMPI PUSH2 0x89B SWAP1 MLOAD PUSH2 0x2F3D JUMP JUMPDEST RETURNDATASIZE SWAP2 POP PUSH2 0x2F5F JUMP JUMPDEST CALLVALUE PUSH2 0x1EE JUMPI PUSH1 0x40 CALLDATASIZE PUSH1 0x3 NOT ADD SLT PUSH2 0x1EE JUMPI PUSH2 0x2F9F PUSH2 0x2FCA JUMP JUMPDEST PUSH1 0x1 PUSH1 0x1 PUSH1 0xA0 SHL SUB AND PUSH0 SWAP1 DUP2 MSTORE PUSH1 0x8 PUSH1 0x20 MSTORE PUSH1 0x40 SWAP1 KECCAK256 PUSH1 0x24 CALLDATALOAD PUSH1 0x3 DUP2 LT ISZERO PUSH2 0x1EE JUMPI PUSH2 0x354 SWAP2 PUSH2 0x2FE0 JUMP JUMPDEST PUSH1 0x4 CALLDATALOAD SWAP1 PUSH1 0x1 PUSH1 0x1 PUSH1 0xA0 SHL SUB DUP3 AND DUP3 SUB PUSH2 0x1EE JUMPI JUMP JUMPDEST SWAP1 PUSH1 0x3 DUP2 LT ISZERO PUSH2 0x2FF3 JUMPI PUSH1 0x3 MUL ADD SWAP1 PUSH0 SWAP1 JUMP JUMPDEST PUSH4 0x4E487B71 PUSH1 0xE0 SHL PUSH0 MSTORE PUSH1 0x32 PUSH1 0x4 MSTORE PUSH1 0x24 PUSH0 REVERT JUMPDEST SWAP1 PUSH1 0x20 DUP1 DUP4 MLOAD SWAP3 DUP4 DUP2 MSTORE ADD SWAP3 ADD SWAP1 PUSH0 JUMPDEST DUP2 DUP2 LT PUSH2 0x3024 JUMPI POP POP POP SWAP1 JUMP JUMPDEST DUP3 MLOAD PUSH2 0xFFFF AND DUP5 MSTORE PUSH1 0x20 SWAP4 DUP5 ADD SWAP4 SWAP1 SWAP3 ADD SWAP2 PUSH1 0x1 ADD PUSH2 0x3017 JUMP JUMPDEST DUP1 MLOAD DUP1 DUP4 MSTORE PUSH1 0x20 SWAP3 SWAP2 DUP2 SWAP1 DUP5 ADD DUP5 DUP5 ADD MCOPY PUSH0 DUP3 DUP3 ADD DUP5 ADD MSTORE PUSH1 0x1F ADD PUSH1 0x1F NOT AND ADD ADD SWAP1 JUMP JUMPDEST SWAP1 PUSH1 0xFF PUSH2 0x120 PUSH2 0x140 SWAP4 DUP1 MLOAD ISZERO ISZERO DUP5 MSTORE PUSH1 0x20 DUP2 ADD MLOAD PUSH1 0x20 DUP6 ADD MSTORE DUP3 PUSH1 0x40 DUP3 ADD MLOAD AND PUSH1 0x40 DUP6 ADD MSTORE DUP3 PUSH1 0x60 DUP3 ADD MLOAD AND PUSH1 0x60 DUP6 ADD MSTORE DUP3 PUSH1 0x80 DUP3 ADD MLOAD AND PUSH1 0x80 DUP6 ADD MSTORE DUP3 PUSH1 0xA0 DUP3 ADD MLOAD AND PUSH1 0xA0 DUP6 ADD MSTORE DUP3 PUSH1 0xC0 DUP3 ADD MLOAD AND PUSH1 0xC0 DUP6 ADD MSTORE DUP3 PUSH1 0xE0 DUP3 ADD MLOAD AND PUSH1 0xE0 DUP6 ADD MSTORE DUP3 PUSH2 0x100 DUP3 ADD MLOAD AND PUSH2 0x100 DUP6 ADD MSTORE ADD MLOAD AND PUSH2 0x120 DUP3 ADD MSTORE ADD SWAP1 JUMP JUMPDEST SWAP2 SWAP1 SWAP2 DUP1 SLOAD DUP4 LT ISZERO PUSH2 0x2FF3 JUMPI PUSH0 MSTORE PUSH1 0x1E PUSH1 0x20 PUSH0 KECCAK256 DUP4 PUSH1 0x4 SHR ADD SWAP3 PUSH1 0x1 SHL AND SWAP1 JUMP JUMPDEST DUP1 SLOAD DUP3 LT ISZERO PUSH2 0x2FF3 JUMPI PUSH0 MSTORE PUSH1 0x20 PUSH0 KECCAK256 ADD SWAP1 PUSH0 SWAP1 JUMP JUMPDEST SWAP2 DUP2 PUSH1 0x1F DUP5 ADD SLT ISZERO PUSH2 0x1EE JUMPI DUP3 CALLDATALOAD SWAP2 PUSH1 0x1 PUSH1 0x1 PUSH1 0x40 SHL SUB DUP4 GT PUSH2 0x1EE JUMPI PUSH1 0x20 DUP1 DUP6 ADD SWAP5 DUP5 PUSH1 0x5 SHL ADD ADD GT PUSH2 0x1EE JUMPI JUMP JUMPDEST PUSH1 0x20 PUSH1 0x40 DUP2 DUP4 ADD SWAP3 DUP3 DUP2 MSTORE DUP5 MLOAD DUP1 SWAP5 MSTORE ADD SWAP3 ADD SWAP1 PUSH0 JUMPDEST DUP2 DUP2 LT PUSH2 0x3168 JUMPI POP POP POP SWAP1 JUMP JUMPDEST DUP3 MLOAD DUP5 MSTORE PUSH1 0x20 SWAP4 DUP5 ADD SWAP4 SWAP1 SWAP3 ADD SWAP2 PUSH1 0x1 ADD PUSH2 0x315B JUMP JUMPDEST DUP1 SLOAD DUP3 LT ISZERO PUSH2 0x2FF3 JUMPI PUSH0 MSTORE PUSH1 0x3 PUSH1 0x20 PUSH0 KECCAK256 SWAP2 MUL ADD SWAP1 PUSH0 SWAP1 JUMP JUMPDEST SWAP1 PUSH1 0x1 DUP3 DUP2 SHR SWAP3 AND DUP1 ISZERO PUSH2 0x31C5 JUMPI JUMPDEST PUSH1 0x20 DUP4 LT EQ PUSH2 0x31B1 JUMPI JUMP JUMPDEST PUSH4 0x4E487B71 PUSH1 0xE0 SHL PUSH0 MSTORE PUSH1 0x22 PUSH1 0x4 MSTORE PUSH1 0x24 PUSH0 REVERT JUMPDEST SWAP2 PUSH1 0x7F AND SWAP2 PUSH2 0x31A6 JUMP JUMPDEST PUSH2 0x1A0 DUP2 ADD SWAP1 DUP2 LT PUSH1 0x1 PUSH1 0x1 PUSH1 0x40 SHL SUB DUP3 GT OR PUSH2 0x532 JUMPI PUSH1 0x40 MSTORE JUMP JUMPDEST PUSH1 0x60 DUP2 ADD SWAP1 DUP2 LT PUSH1 0x1 PUSH1 0x1 PUSH1 0x40 SHL SUB DUP3 GT OR PUSH2 0x532 JUMPI PUSH1 0x40 MSTORE JUMP JUMPDEST PUSH2 0x140 DUP2 ADD SWAP1 DUP2 LT PUSH1 0x1 PUSH1 0x1 PUSH1 0x40 SHL SUB DUP3 GT OR PUSH2 0x532 JUMPI PUSH1 0x40 MSTORE JUMP JUMPDEST PUSH2 0x180 DUP2 ADD SWAP1 DUP2 LT PUSH1 0x1 PUSH1 0x1 PUSH1 0x40 SHL SUB DUP3 GT OR PUSH2 0x532 JUMPI PUSH1 0x40 MSTORE JUMP JUMPDEST SWAP1 PUSH1 0x1F DUP1 NOT SWAP2 ADD AND DUP2 ADD SWAP1 DUP2 LT PUSH1 0x1 PUSH1 0x1 PUSH1 0x40 SHL SUB DUP3 GT OR PUSH2 0x532 JUMPI PUSH1 0x40 MSTORE JUMP JUMPDEST SWAP1 PUSH1 0x40 MLOAD SWAP2 DUP3 PUSH0 DUP3 SLOAD SWAP3 PUSH2 0x3272 DUP5 PUSH2 0x3197 JUMP JUMPDEST DUP1 DUP5 MSTORE SWAP4 PUSH1 0x1 DUP2 AND SWAP1 DUP2 ISZERO PUSH2 0x32DD JUMPI POP PUSH1 0x1 EQ PUSH2 0x3299 JUMPI JUMPDEST POP PUSH2 0x3297 SWAP3 POP SUB DUP4 PUSH2 0x323E JUMP JUMPDEST JUMP JUMPDEST SWAP1 POP PUSH0 SWAP3 SWAP2 SWAP3 MSTORE PUSH1 0x20 PUSH0 KECCAK256 SWAP1 PUSH0 SWAP2 JUMPDEST DUP2 DUP4 LT PUSH2 0x32C1 JUMPI POP POP SWAP1 PUSH1 0x20 PUSH2 0x3297 SWAP3 DUP3 ADD ADD PUSH0 PUSH2 0x328A JUMP JUMPDEST PUSH1 0x20 SWAP2 SWAP4 POP DUP1 PUSH1 0x1 SWAP2 SLOAD DUP4 DUP6 DUP10 ADD ADD MSTORE ADD SWAP2 ADD SWAP1 SWAP2 DUP5 SWAP3 PUSH2 0x32A8 JUMP JUMPDEST SWAP1 POP PUSH1 0x20 SWAP3 POP PUSH2 0x3297 SWAP5 SWAP2 POP PUSH1 0xFF NOT AND DUP3 DUP5 ADD MSTORE ISZERO ISZERO PUSH1 0x5 SHL DUP3 ADD ADD PUSH0 PUSH2 0x328A JUMP JUMPDEST PUSH1 0x3 DUP3 LT ISZERO PUSH2 0x2FF3 JUMPI ADD SWAP1 PUSH0 SWAP1 JUMP JUMPDEST SWAP1 PUSH1 0x8 DUP2 LT ISZERO PUSH2 0x2FF3 JUMPI PUSH1 0x3 MUL ADD SWAP1 PUSH0 SWAP1 JUMP JUMPDEST ISZERO PUSH2 0x3328 JUMPI JUMP JUMPDEST PUSH1 0x40 MLOAD PUSH3 0x461BCD PUSH1 0xE5 SHL DUP2 MSTORE PUSH1 0x20 PUSH1 0x4 DUP3 ADD MSTORE PUSH1 0x14 PUSH1 0x24 DUP3 ADD MSTORE PUSH20 0x125B9CDD59999A58DA595B9D081C185E5B595B9D PUSH1 0x62 SHL PUSH1 0x44 DUP3 ADD MSTORE PUSH1 0x64 SWAP1 REVERT JUMPDEST DUP2 ISZERO PUSH2 0x336E JUMPI MOD SWAP1 JUMP JUMPDEST PUSH4 0x4E487B71 PUSH1 0xE0 SHL PUSH0 MSTORE PUSH1 0x12 PUSH1 0x4 MSTORE PUSH1 0x24 PUSH0 REVERT JUMPDEST SWAP2 SWAP1 DUP3 ADD DUP1 SWAP3 GT PUSH2 0xAAB JUMPI JUMP JUMPDEST PUSH1 0x3 GT ISZERO PUSH2 0x8E2 JUMPI JUMP JUMPDEST PUSH1 0x1 PUSH1 0x1 PUSH1 0xA0 SHL SUB SWAP1 SWAP2 AND DUP2 MSTORE PUSH1 0xE0 DUP2 ADD SWAP8 SWAP7 SWAP1 SWAP6 SWAP5 SWAP1 SWAP3 SWAP1 SWAP2 PUSH2 0x33BC DUP2 PUSH2 0x338F JUMP JUMPDEST PUSH1 0x20 DUP8 ADD MSTORE PUSH2 0x33CA DUP2 PUSH2 0x338F JUMP JUMPDEST PUSH1 0x40 DUP7 ADD MSTORE PUSH1 0x4 DUP4 LT ISZERO PUSH2 0x8E2 JUMPI PUSH1 0xC0 SWAP4 PUSH1 0xFF DUP1 SWAP5 SWAP3 DUP2 SWAP4 PUSH1 0x60 DUP10 ADD MSTORE AND PUSH1 0x80 DUP8 ADD MSTORE AND PUSH1 0xA0 DUP6 ADD MSTORE AND SWAP2 ADD MSTORE JUMP JUMPDEST DUP1 SLOAD PUSH1 0x1 PUSH1 0x40 SHL DUP2 LT ISZERO PUSH2 0x532 JUMPI PUSH2 0x3416 SWAP2 PUSH1 0x1 DUP3 ADD DUP2 SSTORE PUSH2 0x3100 JUMP JUMPDEST DUP2 SWAP3 SWAP2 SLOAD SWAP1 PUSH1 0x3 SHL SWAP2 DUP3 SHL SWAP2 PUSH0 NOT SWAP1 SHL NOT AND OR SWAP1 SSTORE JUMP JUMPDEST SWAP2 SWAP1 PUSH2 0x22DD JUMPI PUSH1 0xFF PUSH2 0x120 PUSH1 0x2 PUSH2 0x3297 SWAP5 PUSH2 0x3457 DUP6 MLOAD ISZERO ISZERO DUP3 SWAP1 PUSH1 0xFF DUP1 NOT DUP4 SLOAD AND SWAP2 ISZERO ISZERO AND OR SWAP1 SSTORE JUMP JUMPDEST PUSH1 0x20 DUP6 ADD MLOAD PUSH1 0x1 DUP3 ADD SSTORE ADD SWAP3 DUP3 DUP1 PUSH1 0x40 DUP4 ADD MLOAD AND AND DUP4 NOT DUP6 SLOAD AND OR DUP5 SSTORE PUSH2 0x3495 DUP4 PUSH1 0x60 DUP4 ADD MLOAD AND DUP6 SWAP1 PUSH2 0xFF00 DUP3 SLOAD SWAP2 PUSH1 0x8 SHL AND SWAP1 PUSH2 0xFF00 NOT AND OR SWAP1 SSTORE JUMP JUMPDEST PUSH1 0x80 DUP2 ADD MLOAD DUP5 SLOAD PUSH3 0xFF0000 NOT AND SWAP1 DUP5 AND PUSH1 0x10 SHL PUSH3 0xFF0000 AND OR DUP5 SSTORE PUSH1 0xA0 DUP2 ADD MLOAD DUP5 SLOAD PUSH4 0xFF000000 NOT AND SWAP1 DUP5 AND PUSH1 0x18 SHL PUSH4 0xFF000000 AND OR DUP5 SSTORE PUSH1 0xC0 DUP2 ADD MLOAD DUP5 SLOAD PUSH5 0xFF00000000 NOT AND SWAP1 DUP5 AND PUSH1 0x20 SHL PUSH5 0xFF00000000 AND OR DUP5 SSTORE PUSH1 0xE0 DUP2 ADD MLOAD DUP5 SLOAD PUSH6 0xFF0000000000 NOT AND SWAP1 DUP5 AND PUSH1 0x28 SHL PUSH6 0xFF0000000000 AND OR DUP5 SSTORE PUSH2 0x100 DUP2 ADD MLOAD DUP5 SLOAD PUSH7 0xFF000000000000 NOT AND SWAP1 DUP5 AND PUSH1 0x30 SHL PUSH1 0xFF PUSH1 0x30 SHL AND OR DUP5 SSTORE ADD MLOAD DUP3 SLOAD PUSH8 0xFF00000000000000 NOT AND SWAP2 AND PUSH1 0x38 SHL PUSH1 0xFF PUSH1 0x38 SHL AND OR SWAP1 SSTORE JUMP JUMPDEST SWAP1 PUSH1 0x40 MLOAD SWAP2 DUP3 DUP2 SLOAD SWAP2 DUP3 DUP3 MSTORE PUSH1 0x20 DUP3 ADD SWAP1 PUSH0 MSTORE PUSH1 0x20 PUSH0 KECCAK256 SWAP3 PUSH0 SWAP1 JUMPDEST DUP1 PUSH1 0xF DUP4 ADD LT PUSH2 0x3770 JUMPI PUSH2 0x3297 SWAP5 SLOAD SWAP2 DUP2 DUP2 LT PUSH2 0x375B JUMPI JUMPDEST DUP2 DUP2 LT PUSH2 0x3743 JUMPI JUMPDEST DUP2 DUP2 LT PUSH2 0x372C JUMPI JUMPDEST DUP2 DUP2 LT PUSH2 0x3714 JUMPI JUMPDEST DUP2 DUP2 LT PUSH2 0x36FC JUMPI JUMPDEST DUP2 DUP2 LT PUSH2 0x36E4 JUMPI JUMPDEST DUP2 DUP2 LT PUSH2 0x36CC JUMPI JUMPDEST DUP2 DUP2 LT PUSH2 0x36B4 JUMPI JUMPDEST DUP2 DUP2 LT PUSH2 0x369C JUMPI JUMPDEST DUP2 DUP2 LT PUSH2 0x3684 JUMPI JUMPDEST DUP2 DUP2 LT PUSH2 0x366C JUMPI JUMPDEST DUP2 DUP2 LT PUSH2 0x3654 JUMPI JUMPDEST DUP2 DUP2 LT PUSH2 0x363C JUMPI JUMPDEST DUP2 DUP2 LT PUSH2 0x3624 JUMPI JUMPDEST DUP2 DUP2 LT PUSH2 0x360C JUMPI JUMPDEST LT PUSH2 0x35FE JUMPI JUMPDEST POP SUB DUP4 PUSH2 0x323E JUMP JUMPDEST PUSH1 0xF0 SHR DUP2 MSTORE PUSH1 0x20 ADD PUSH0 PUSH2 0x35F6 JUMP JUMPDEST SWAP3 PUSH1 0x20 PUSH1 0x1 SWAP2 PUSH2 0xFFFF DUP6 PUSH1 0xE0 SHR AND DUP2 MSTORE ADD SWAP4 ADD PUSH2 0x35F0 JUMP JUMPDEST SWAP3 PUSH1 0x20 PUSH1 0x1 SWAP2 PUSH2 0xFFFF DUP6 PUSH1 0xD0 SHR AND DUP2 MSTORE ADD SWAP4 ADD PUSH2 0x35E8 JUMP JUMPDEST SWAP3 PUSH1 0x20 PUSH1 0x1 SWAP2 PUSH2 0xFFFF DUP6 PUSH1 0xC0 SHR AND DUP2 MSTORE ADD SWAP4 ADD PUSH2 0x35E0 JUMP JUMPDEST SWAP3 PUSH1 0x20 PUSH1 0x1 SWAP2 PUSH2 0xFFFF DUP6 PUSH1 0xB0 SHR AND DUP2 MSTORE ADD SWAP4 ADD PUSH2 0x35D8 JUMP JUMPDEST SWAP3 PUSH1 0x20 PUSH1 0x1 SWAP2 PUSH2 0xFFFF DUP6 PUSH1 0xA0 SHR AND DUP2 MSTORE ADD SWAP4 ADD PUSH2 0x35D0 JUMP JUMPDEST SWAP3 PUSH1 0x20 PUSH1 0x1 SWAP2 PUSH2 0xFFFF DUP6 PUSH1 0x90 SHR AND DUP2 MSTORE ADD SWAP4 ADD PUSH2 0x35C8 JUMP JUMPDEST SWAP3 PUSH1 0x20 PUSH1 0x1 SWAP2 PUSH2 0xFFFF DUP6 PUSH1 0x80 SHR AND DUP2 MSTORE ADD SWAP4 ADD PUSH2 0x35C0 JUMP JUMPDEST SWAP3 PUSH1 0x20 PUSH1 0x1 SWAP2 PUSH2 0xFFFF DUP6 PUSH1 0x70 SHR AND DUP2 MSTORE ADD SWAP4 ADD PUSH2 0x35B8 JUMP JUMPDEST SWAP3 PUSH1 0x20 PUSH1 0x1 SWAP2 PUSH2 0xFFFF DUP6 PUSH1 0x60 SHR AND DUP2 MSTORE ADD SWAP4 ADD PUSH2 0x35B0 JUMP JUMPDEST SWAP3 PUSH1 0x20 PUSH1 0x1 SWAP2 PUSH2 0xFFFF DUP6 PUSH1 0x50 SHR AND DUP2 MSTORE ADD SWAP4 ADD PUSH2 0x35A8 JUMP JUMPDEST SWAP3 PUSH1 0x20 PUSH1 0x1 SWAP2 PUSH2 0xFFFF DUP6 PUSH1 0x40 SHR AND DUP2 MSTORE ADD SWAP4 ADD PUSH2 0x35A0 JUMP JUMPDEST SWAP3 PUSH1 0x20 PUSH1 0x1 SWAP2 PUSH2 0xFFFF DUP6 PUSH1 0x30 SHR AND DUP2 MSTORE ADD SWAP4 ADD PUSH2 0x3598 JUMP JUMPDEST SWAP3 PUSH1 0x20 PUSH1 0x1 SWAP2 PUSH2 0xFFFF DUP6 DUP4 SHR AND DUP2 MSTORE ADD SWAP4 ADD PUSH2 0x3590 JUMP JUMPDEST SWAP3 PUSH1 0x20 PUSH1 0x1 SWAP2 PUSH2 0xFFFF DUP6 PUSH1 0x10 SHR AND DUP2 MSTORE ADD SWAP4 ADD PUSH2 0x3588 JUMP JUMPDEST SWAP3 PUSH1 0x20 PUSH1 0x1 SWAP2 PUSH2 0xFFFF DUP6 AND DUP2 MSTORE ADD SWAP4 ADD PUSH2 0x3580 JUMP JUMPDEST SWAP2 PUSH1 0x10 SWAP2 SWAP4 POP PUSH2 0x200 PUSH1 0x1 SWAP2 DUP7 SLOAD PUSH2 0xFFFF DUP2 AND DUP3 MSTORE PUSH2 0xFFFF DUP2 DUP7 SHR AND PUSH1 0x20 DUP4 ADD MSTORE PUSH2 0xFFFF DUP2 PUSH1 0x20 SHR AND PUSH1 0x40 DUP4 ADD MSTORE PUSH2 0xFFFF DUP2 PUSH1 0x30 SHR AND PUSH1 0x60 DUP4 ADD MSTORE PUSH2 0xFFFF DUP2 PUSH1 0x40 SHR AND PUSH1 0x80 DUP4 ADD MSTORE PUSH2 0xFFFF DUP2 PUSH1 0x50 SHR AND PUSH1 0xA0 DUP4 ADD MSTORE PUSH2 0xFFFF DUP2 PUSH1 0x60 SHR AND PUSH1 0xC0 DUP4 ADD MSTORE PUSH2 0xFFFF DUP2 PUSH1 0x70 SHR AND PUSH1 0xE0 DUP4 ADD MSTORE PUSH2 0xFFFF DUP2 PUSH1 0x80 SHR AND PUSH2 0x100 DUP4 ADD MSTORE PUSH2 0xFFFF DUP2 PUSH1 0x90 SHR AND PUSH2 0x120 DUP4 ADD MSTORE PUSH2 0xFFFF DUP2 PUSH1 0xA0 SHR AND PUSH2 0x140 DUP4 ADD MSTORE PUSH2 0xFFFF DUP2 PUSH1 0xB0 SHR AND PUSH2 0x160 DUP4 ADD MSTORE PUSH2 0xFFFF DUP2 PUSH1 0xC0 SHR AND PUSH2 0x180 DUP4 ADD MSTORE PUSH2 0xFFFF DUP2 PUSH1 0xD0 SHR AND PUSH2 0x1A0 DUP4 ADD MSTORE PUSH2 0xFFFF DUP2 PUSH1 0xE0 SHR AND PUSH2 0x1C0 DUP4 ADD MSTORE PUSH1 0xF0 SHR PUSH2 0x1E0 DUP3 ADD MSTORE ADD SWAP5 ADD SWAP3 ADD DUP6 SWAP3 SWAP4 SWAP2 PUSH2 0x3568 JUMP JUMPDEST PUSH1 0x1 PUSH1 0x1 PUSH1 0x40 SHL SUB DUP2 GT PUSH2 0x532 JUMPI PUSH1 0x5 SHL PUSH1 0x20 ADD SWAP1 JUMP JUMPDEST PUSH1 0x40 MLOAD SWAP1 PUSH2 0x387C DUP3 PUSH2 0x3206 JUMP JUMPDEST PUSH0 PUSH2 0x120 DUP4 DUP3 DUP2 MSTORE DUP3 PUSH1 0x20 DUP3 ADD MSTORE DUP3 PUSH1 0x40 DUP3 ADD MSTORE DUP3 PUSH1 0x60 DUP3 ADD MSTORE DUP3 PUSH1 0x80 DUP3 ADD MSTORE DUP3 PUSH1 0xA0 DUP3 ADD MSTORE DUP3 PUSH1 0xC0 DUP3 ADD MSTORE DUP3 PUSH1 0xE0 DUP3 ADD MSTORE DUP3 PUSH2 0x100 DUP3 ADD MSTORE ADD MSTORE JUMP JUMPDEST SWAP1 PUSH1 0x40 MLOAD PUSH2 0x38C6 DUP2 PUSH2 0x3206 JUMP JUMPDEST PUSH2 0x120 PUSH1 0xFF PUSH1 0x2 DUP4 SWAP6 DUP3 DUP2 SLOAD AND ISZERO ISZERO DUP6 MSTORE PUSH1 0x1 DUP2 ADD SLOAD PUSH1 0x20 DUP7 ADD MSTORE ADD SLOAD DUP2 DUP2 AND PUSH1 0x40 DUP6 ADD MSTORE DUP2 DUP2 PUSH1 0x8 SHR AND PUSH1 0x60 DUP6 ADD MSTORE DUP2 DUP2 PUSH1 0x10 SHR AND PUSH1 0x80 DUP6 ADD MSTORE DUP2 DUP2 PUSH1 0x18 SHR AND PUSH1 0xA0 DUP6 ADD MSTORE DUP2 DUP2 PUSH1 0x20 SHR AND PUSH1 0xC0 DUP6 ADD MSTORE DUP2 DUP2 PUSH1 0x28 SHR AND PUSH1 0xE0 DUP6 ADD MSTORE DUP2 DUP2 PUSH1 0x30 SHR AND PUSH2 0x100 DUP6 ADD MSTORE PUSH1 0x38 SHR AND SWAP2 ADD MSTORE JUMP JUMPDEST SWAP2 SWAP1 DUP2 LT ISZERO PUSH2 0x2FF3 JUMPI PUSH1 0x5 SHL ADD SWAP1 JUMP JUMPDEST SWAP3 SWAP2 SWAP1 PUSH2 0x3953 DUP2 PUSH2 0x3858 JUMP JUMPDEST SWAP4 PUSH2 0x3961 PUSH1 0x40 MLOAD SWAP6 DUP7 PUSH2 0x323E JUMP JUMPDEST PUSH1 0x20 DUP6 DUP4 DUP2 MSTORE ADD SWAP2 PUSH1 0x5 SHL DUP2 ADD SWAP3 DUP4 GT PUSH2 0x1EE JUMPI SWAP1 JUMPDEST DUP3 DUP3 LT PUSH2 0x3983 JUMPI POP POP POP JUMP JUMPDEST DUP2 CALLDATALOAD DUP2 MSTORE PUSH1 0x20 SWAP2 DUP3 ADD SWAP2 ADD PUSH2 0x3977 JUMP JUMPDEST ISZERO PUSH2 0x399A JUMPI JUMP JUMPDEST PUSH1 0x40 MLOAD PUSH3 0x461BCD PUSH1 0xE5 SHL DUP2 MSTORE PUSH1 0x20 PUSH1 0x4 DUP3 ADD MSTORE PUSH1 0x19 PUSH1 0x24 DUP3 ADD MSTORE PUSH32 0x596F7520646F206E6F74206F776E20746869732072656C696300000000000000 PUSH1 0x44 DUP3 ADD MSTORE PUSH1 0x64 SWAP1 REVERT JUMPDEST DUP1 MLOAD DUP3 LT ISZERO PUSH2 0x2FF3 JUMPI PUSH1 0x20 SWAP2 PUSH1 0x5 SHL ADD ADD SWAP1 JUMP JUMPDEST PUSH1 0x4 DUP3 LT ISZERO PUSH2 0x8E2 JUMPI MSTORE JUMP JUMPDEST MLOAD PUSH1 0x4 DUP2 LT ISZERO PUSH2 0x8E2 JUMPI SWAP1 JUMP JUMPDEST DUP2 DUP2 MUL SWAP3 SWAP2 DUP2 ISZERO SWAP2 DUP5 DIV EQ OR ISZERO PUSH2 0xAAB JUMPI JUMP JUMPDEST DUP2 DUP2 LT PUSH2 0x3A2A JUMPI POP POP JUMP JUMPDEST PUSH0 DUP2 SSTORE PUSH1 0x1 ADD PUSH2 0x3A1F JUMP JUMPDEST DUP1 SLOAD PUSH0 DUP3 SSTORE DUP1 PUSH2 0x3A43 JUMPI POP POP JUMP JUMPDEST PUSH2 0x3297 SWAP2 PUSH0 MSTORE PUSH1 0xF PUSH1 0x20 PUSH0 KECCAK256 SWAP2 ADD PUSH1 0x4 SHR DUP2 ADD SWAP1 PUSH2 0x3A1F JUMP JUMPDEST DUP1 SLOAD PUSH1 0x1 PUSH1 0x40 SHL DUP2 LT ISZERO PUSH2 0x532 JUMPI PUSH2 0x3A79 SWAP2 PUSH1 0x1 DUP3 ADD DUP2 SSTORE PUSH2 0x30DF JUMP JUMPDEST PUSH2 0xFFFF DUP1 DUP4 SWAP5 SWAP4 SLOAD SWAP3 PUSH1 0x3 SHL SWAP4 AND DUP4 SHL SWAP3 SHL NOT AND OR SWAP1 SSTORE JUMP JUMPDEST DUP1 SLOAD SWAP1 PUSH0 DUP2 SSTORE DUP2 PUSH2 0x3AA1 JUMPI POP POP JUMP JUMPDEST DUP2 PUSH1 0x3 MUL SWAP2 PUSH1 0x3 DUP4 DIV SUB PUSH2 0xAAB JUMPI PUSH0 MSTORE PUSH1 0x20 PUSH0 KECCAK256 SWAP1 DUP2 ADD SWAP1 JUMPDEST DUP2 DUP2 LT PUSH2 0x3AC5 JUMPI POP POP JUMP JUMPDEST DUP1 PUSH0 PUSH1 0x3 SWAP3 SSTORE PUSH1 0x1 DUP2 ADD PUSH2 0x3AD9 DUP2 SLOAD PUSH2 0x3197 JUMP JUMPDEST SWAP1 DUP2 PUSH2 0x3AEE JUMPI JUMPDEST POP POP PUSH0 PUSH1 0x2 DUP3 ADD SSTORE ADD PUSH2 0x3ABA JUMP JUMPDEST DUP2 PUSH1 0x1F PUSH0 SWAP4 GT PUSH1 0x1 EQ PUSH2 0x3B05 JUMPI POP SSTORE JUMPDEST PUSH0 DUP1 PUSH2 0x3AE0 JUMP JUMPDEST DUP2 DUP4 MSTORE PUSH1 0x20 DUP4 KECCAK256 PUSH2 0x3B21 SWAP2 PUSH1 0x1F ADD PUSH1 0x5 SHR DUP2 ADD SWAP1 PUSH1 0x1 ADD PUSH2 0x3A1F JUMP JUMPDEST DUP1 DUP3 MSTORE DUP2 PUSH1 0x20 DUP2 KECCAK256 SWAP2 SSTORE SSTORE PUSH2 0x3AFE JUMP JUMPDEST PUSH1 0x3 DUP2 LT ISZERO PUSH2 0x2FF3 JUMPI PUSH1 0x5 SHL PUSH1 0x4 ADD SWAP1 JUMP JUMPDEST SWAP1 PUSH1 0x3 DUP2 LT ISZERO PUSH2 0x2FF3 JUMPI PUSH1 0x5 SHL ADD SWAP1 JUMP JUMPDEST DUP1 SLOAD PUSH0 DUP3 SSTORE DUP1 PUSH2 0x3B62 JUMPI POP POP JUMP JUMPDEST PUSH2 0x3297 SWAP2 PUSH0 MSTORE PUSH1 0x20 PUSH0 KECCAK256 SWAP1 DUP2 ADD SWAP1 PUSH2 0x3A1F JUMP JUMPDEST PUSH1 0xFF PUSH1 0x2 SLOAD AND PUSH2 0x3B81 JUMPI JUMP JUMPDEST PUSH1 0x40 MLOAD PUSH3 0x461BCD PUSH1 0xE5 SHL DUP2 MSTORE PUSH1 0x20 PUSH1 0x4 DUP3 ADD MSTORE PUSH1 0x10 PUSH1 0x24 DUP3 ADD MSTORE PUSH16 0x14185D5CD8589B194E881C185D5CD959 PUSH1 0x82 SHL PUSH1 0x44 DUP3 ADD MSTORE PUSH1 0x64 SWAP1 REVERT JUMPDEST PUSH1 0x2 PUSH1 0x1 SLOAD EQ PUSH2 0x3BCA JUMPI PUSH1 0x2 PUSH1 0x1 SSTORE JUMP JUMPDEST PUSH1 0x40 MLOAD PUSH3 0x461BCD PUSH1 0xE5 SHL DUP2 MSTORE PUSH1 0x20 PUSH1 0x4 DUP3 ADD MSTORE PUSH1 0x1F PUSH1 0x24 DUP3 ADD MSTORE PUSH32 0x5265656E7472616E637947756172643A207265656E7472616E742063616C6C00 PUSH1 0x44 DUP3 ADD MSTORE PUSH1 0x64 SWAP1 REVERT JUMPDEST CALLER PUSH0 MSTORE PUSH1 0x3 PUSH1 0x20 MSTORE PUSH1 0xFF PUSH1 0x40 PUSH0 KECCAK256 SLOAD AND ISZERO PUSH2 0x3C26 JUMPI JUMP JUMPDEST CALLER PUSH0 MSTORE PUSH1 0x3 PUSH1 0x20 MSTORE PUSH1 0x40 PUSH0 KECCAK256 PUSH1 0x1 PUSH1 0xFF NOT DUP3 SLOAD AND OR SWAP1 SSTORE PUSH1 0x40 MLOAD PUSH1 0xA0 DUP2 ADD DUP2 DUP2 LT PUSH1 0x1 PUSH1 0x1 PUSH1 0x40 SHL SUB DUP3 GT OR PUSH2 0x532 JUMPI PUSH1 0x40 MSTORE PUSH1 0x1 DUP2 MSTORE PUSH2 0xFFFF PUSH1 0x3 DUP2 PUSH1 0x20 DUP5 ADD PUSH0 DUP2 MSTORE PUSH1 0x40 DUP6 ADD PUSH0 DUP2 MSTORE PUSH1 0x60 DUP7 ADD SWAP1 PUSH0 DUP3 MSTORE PUSH2 0x3CC5 PUSH4 0xFFFFFFFF PUSH1 0x80 DUP10 ADD SWAP5 PUSH1 0x1 DUP7 MSTORE CALLER PUSH0 MSTORE PUSH1 0x4 PUSH1 0x20 MSTORE DUP7 DUP1 PUSH1 0x40 PUSH0 KECCAK256 SWAP12 MLOAD AND AND DUP8 NOT DUP12 SLOAD AND OR DUP11 SSTORE MLOAD AND DUP9 SWAP1 PUSH6 0xFFFFFFFF0000 DUP3 SLOAD SWAP2 PUSH1 0x10 SHL AND SWAP1 PUSH6 0xFFFFFFFF0000 NOT AND OR SWAP1 SSTORE JUMP JUMPDEST MLOAD PUSH1 0x1 DUP8 ADD SSTORE MLOAD PUSH1 0x2 DUP7 ADD SSTORE MLOAD AND SWAP3 ADD SWAP2 AND PUSH2 0xFFFF NOT DUP3 SLOAD AND OR SWAP1 SSTORE CALLER PUSH32 0xF10EC97E920CDE75887622583772C637595A40B1F7777C18E51EA36CD127475C PUSH0 DUP1 LOG2 JUMP JUMPDEST PUSH1 0x64 SWAP1 MOD PUSH1 0x3C DUP2 LT PUSH2 0x3D25 JUMPI PUSH1 0x5A GT PUSH2 0x3D20 JUMPI PUSH1 0x2 SWAP1 JUMP JUMPDEST PUSH1 0x1 SWAP1 JUMP JUMPDEST POP PUSH0 SWAP1 JUMP JUMPDEST PUSH2 0x3D32 PUSH2 0x386F JUMP JUMPDEST POP PUSH1 0x40 MLOAD PUSH1 0x20 DUP2 ADD SWAP1 TIMESTAMP DUP3 MSTORE PREVRANDAO PUSH1 0x40 DUP3 ADD MSTORE CALLER PUSH1 0x60 SHL PUSH1 0x60 DUP3 ADD MSTORE PUSH1 0x54 DUP2 MSTORE PUSH2 0x3D5C PUSH1 0x74 DUP3 PUSH2 0x323E JUMP JUMPDEST MLOAD SWAP1 KECCAK256 PUSH1 0x28 PUSH1 0x64 DUP3 MOD LT ISZERO PUSH2 0x3DD0 JUMPI PUSH1 0xD DUP2 PUSH1 0x8 SHR MOD PUSH1 0x8 ADD DUP1 PUSH1 0x8 GT PUSH2 0xAAB JUMPI PUSH1 0xFF SWAP1 DUP2 PUSH1 0x6 PUSH1 0x40 MLOAD SWAP5 PUSH2 0x3D90 DUP7 PUSH2 0x3206 JUMP JUMPDEST PUSH1 0x1 DUP7 MSTORE PUSH0 PUSH1 0x20 DUP8 ADD MSTORE PUSH0 PUSH1 0x40 DUP8 ADD MSTORE PUSH0 PUSH1 0x60 DUP8 ADD MSTORE PUSH0 PUSH1 0x80 DUP8 ADD MSTORE PUSH0 PUSH1 0xA0 DUP8 ADD MSTORE PUSH0 PUSH1 0xC0 DUP8 ADD MSTORE PUSH0 PUSH1 0xE0 DUP8 ADD MSTORE MOD AND PUSH2 0x100 DUP5 ADD MSTORE AND PUSH2 0x120 DUP3 ADD MSTORE SWAP1 JUMP JUMPDEST PUSH2 0x3DD9 DUP2 PUSH2 0x3D08 JUMP JUMPDEST SWAP1 PUSH1 0xB DUP2 PUSH1 0x28 SHR MOD PUSH1 0xA ADD DUP1 PUSH1 0xA GT PUSH2 0xAAB JUMPI PUSH1 0xB DUP3 PUSH1 0x30 SHR MOD PUSH1 0x8 ADD SWAP1 DUP2 PUSH1 0x8 GT PUSH2 0xAAB JUMPI PUSH1 0xB DUP4 PUSH1 0x38 SHR MOD PUSH1 0x9 ADD SWAP2 DUP3 PUSH1 0x9 GT PUSH2 0xAAB JUMPI PUSH1 0xFF DUP1 SWAP5 SWAP3 PUSH1 0x3 DUP3 SWAP5 DUP4 PUSH1 0x40 MLOAD SWAP10 PUSH2 0x3E29 DUP12 PUSH2 0x3206 JUMP JUMPDEST PUSH0 DUP12 MSTORE PUSH0 PUSH1 0x20 DUP13 ADD MSTORE DUP2 DUP5 DUP5 PUSH1 0x10 SHR MOD AND PUSH1 0x40 DUP13 ADD MSTORE AND PUSH1 0x60 DUP11 ADD MSTORE PUSH1 0x18 SHR AND PUSH1 0x80 DUP9 ADD MSTORE AND PUSH1 0xA0 DUP7 ADD MSTORE AND PUSH1 0xC0 DUP5 ADD MSTORE AND PUSH1 0xE0 DUP3 ADD MSTORE PUSH0 PUSH2 0x100 DUP3 ADD MSTORE PUSH0 PUSH2 0x120 DUP3 ADD MSTORE SWAP1 JUMP JUMPDEST PUSH0 SLOAD PUSH1 0x1 PUSH1 0x1 PUSH1 0xA0 SHL SUB AND CALLER SUB PUSH2 0x3E84 JUMPI JUMP JUMPDEST PUSH1 0x64 PUSH1 0x40 MLOAD PUSH3 0x461BCD PUSH1 0xE5 SHL DUP2 MSTORE PUSH1 0x20 PUSH1 0x4 DUP3 ADD MSTORE PUSH1 0x20 PUSH1 0x24 DUP3 ADD MSTORE PUSH32 0x4F776E61626C653A2063616C6C6572206973206E6F7420746865206F776E6572 PUSH1 0x44 DUP3 ADD MSTORE REVERT JUMPDEST PUSH1 0x40 MLOAD SWAP1 PUSH1 0x80 DUP3 ADD DUP3 DUP2 LT PUSH1 0x1 PUSH1 0x1 PUSH1 0x40 SHL SUB DUP3 GT OR PUSH2 0x532 JUMPI PUSH1 0x40 MSTORE PUSH1 0x60 DUP1 DUP4 PUSH0 DUP2 MSTORE DUP2 PUSH1 0x20 DUP3 ADD MSTORE DUP2 PUSH1 0x40 DUP3 ADD MSTORE ADD MSTORE JUMP JUMPDEST SWAP1 PUSH2 0x3F06 DUP3 PUSH2 0x3858 JUMP JUMPDEST PUSH2 0x3F13 PUSH1 0x40 MLOAD SWAP2 DUP3 PUSH2 0x323E JUMP JUMPDEST DUP3 DUP2 MSTORE DUP1 SWAP3 PUSH2 0x3F24 PUSH1 0x1F NOT SWAP2 PUSH2 0x3858 JUMP JUMPDEST ADD SWAP1 PUSH1 0x20 CALLDATASIZE SWAP2 ADD CALLDATACOPY JUMP JUMPDEST PUSH1 0x2 SHL SWAP1 PUSH2 0x3FC PUSH1 0xFC DUP4 AND SWAP3 AND DUP3 SUB PUSH2 0xAAB JUMPI JUMP JUMPDEST PUSH1 0xFF PUSH1 0x2 SWAP2 AND ADD SWAP1 PUSH1 0xFF DUP3 GT PUSH2 0xAAB JUMPI JUMP JUMPDEST SWAP1 PUSH1 0xFF DUP1 SWAP2 AND SWAP2 AND ADD SWAP1 PUSH1 0xFF DUP3 GT PUSH2 0xAAB JUMPI JUMP JUMPDEST PUSH0 NOT DUP2 EQ PUSH2 0xAAB JUMPI PUSH1 0x1 ADD SWAP1 JUMP JUMPDEST PUSH1 0xFF AND PUSH1 0xFF DUP2 EQ PUSH2 0xAAB JUMPI PUSH1 0x1 ADD SWAP1 JUMP JUMPDEST SWAP1 PUSH2 0x3F92 DUP3 PUSH2 0x3858 JUMP JUMPDEST PUSH2 0x3F9F PUSH1 0x40 MLOAD SWAP2 DUP3 PUSH2 0x323E JUMP JUMPDEST DUP3 DUP2 MSTORE DUP1 SWAP3 PUSH2 0x3FB0 PUSH1 0x1F NOT SWAP2 PUSH2 0x3858 JUMP JUMPDEST ADD SWAP1 PUSH0 JUMPDEST DUP3 DUP2 LT PUSH2 0x3FC0 JUMPI POP POP POP JUMP JUMPDEST PUSH1 0x20 SWAP1 PUSH1 0x40 MLOAD PUSH2 0x3FCF DUP2 PUSH2 0x3222 JUMP JUMPDEST PUSH0 DUP2 MSTORE PUSH0 DUP4 DUP3 ADD MSTORE PUSH0 PUSH1 0x40 DUP3 ADD MSTORE PUSH0 PUSH1 0x60 DUP3 ADD MSTORE PUSH0 PUSH1 0x80 DUP3 ADD MSTORE PUSH0 PUSH1 0xA0 DUP3 ADD MSTORE PUSH0 PUSH1 0xC0 DUP3 ADD MSTORE PUSH0 PUSH1 0xE0 DUP3 ADD MSTORE PUSH0 PUSH2 0x100 DUP3 ADD MSTORE PUSH0 PUSH2 0x120 DUP3 ADD MSTORE PUSH0 PUSH2 0x140 DUP3 ADD MSTORE PUSH0 PUSH2 0x160 DUP3 ADD MSTORE DUP3 DUP3 DUP6 ADD ADD MSTORE ADD PUSH2 0x3FB4 JUMP JUMPDEST MLOAD SWAP1 PUSH1 0xFF DUP3 AND DUP3 SUB PUSH2 0x1EE JUMPI JUMP JUMPDEST PUSH1 0x40 MLOAD SWAP2 SWAP1 PUSH1 0x60 PUSH2 0x4042 DUP2 DUP6 PUSH2 0x323E JUMP JUMPDEST PUSH1 0x60 CALLDATASIZE DUP6 CALLDATACOPY PUSH0 JUMPDEST DUP3 MLOAD DUP2 LT ISZERO PUSH2 0x40C1 JUMPI DUP1 PUSH2 0xFFFF DUP4 PUSH2 0x4063 PUSH1 0x1 SWAP5 DUP8 PUSH2 0x39DF JUMP JUMPDEST MLOAD ADD MLOAD AND PUSH2 0x4072 JUMPI JUMPDEST ADD PUSH2 0x4049 JUMP JUMPDEST PUSH1 0xFF PUSH2 0x120 PUSH2 0x4081 DUP4 DUP8 PUSH2 0x39DF JUMP JUMPDEST MLOAD ADD MLOAD PUSH2 0x408D DUP2 PUSH2 0x338F JUMP JUMPDEST PUSH2 0x4096 DUP2 PUSH2 0x338F JUMP JUMPDEST AND PUSH1 0xFF PUSH2 0x40B8 PUSH2 0x40B1 DUP3 PUSH2 0x40AA DUP6 DUP13 PUSH2 0x3B43 JUMP JUMPDEST MLOAD AND PUSH2 0x3F77 JUMP JUMPDEST SWAP3 DUP10 PUSH2 0x3B43 JUMP JUMPDEST SWAP2 AND SWAP1 MSTORE PUSH2 0x406C JUMP JUMPDEST POP POP PUSH0 JUMPDEST DUP2 MLOAD DUP2 LT ISZERO PUSH2 0x4132 JUMPI DUP1 PUSH1 0x3 PUSH1 0xFF PUSH2 0x4102 DUP2 PUSH2 0x120 PUSH2 0x40E6 PUSH1 0x1 SWAP8 DUP10 PUSH2 0x39DF JUMP JUMPDEST MLOAD ADD MLOAD PUSH2 0x40F2 DUP2 PUSH2 0x338F JUMP JUMPDEST PUSH2 0x40FB DUP2 PUSH2 0x338F JUMP JUMPDEST AND DUP9 PUSH2 0x3B43 JUMP JUMPDEST MLOAD AND LT ISZERO PUSH2 0x4111 JUMPI JUMPDEST ADD PUSH2 0x40C5 JUMP JUMPDEST PUSH2 0x411B DUP2 DUP5 PUSH2 0x39DF JUMP JUMPDEST MLOAD PUSH1 0xFF PUSH2 0x412A DUP2 DUP4 MLOAD AND PUSH2 0x3F43 JUMP JUMPDEST AND SWAP1 MSTORE PUSH2 0x410B JUMP JUMPDEST POP POP SWAP1 POP JUMP JUMPDEST PUSH0 JUMPDEST DUP2 MLOAD DUP2 LT ISZERO PUSH2 0x4169 JUMPI PUSH2 0xFFFF PUSH1 0x60 PUSH2 0x4152 DUP4 DUP6 PUSH2 0x39DF JUMP JUMPDEST MLOAD ADD MLOAD AND PUSH2 0x4162 JUMPI PUSH1 0x1 ADD PUSH2 0x413A JUMP JUMPDEST POP POP PUSH1 0x1 SWAP1 JUMP JUMPDEST POP POP PUSH0 SWAP1 JUMP JUMPDEST SWAP1 PUSH2 0xFFFF DUP1 SWAP2 AND SWAP2 AND ADD SWAP1 PUSH2 0xFFFF DUP3 GT PUSH2 0xAAB JUMPI JUMP JUMPDEST PUSH0 JUMPDEST DUP2 MLOAD DUP2 LT ISZERO PUSH2 0x41EA JUMPI DUP1 PUSH2 0xFFFF PUSH1 0x60 PUSH2 0x41A2 PUSH1 0x1 SWAP5 DUP7 PUSH2 0x39DF JUMP JUMPDEST MLOAD ADD MLOAD AND PUSH2 0x41B1 JUMPI JUMPDEST ADD PUSH2 0x4187 JUMP JUMPDEST PUSH1 0xFF PUSH1 0x40 PUSH2 0x41BF DUP4 DUP7 PUSH2 0x39DF JUMP JUMPDEST MLOAD ADD MLOAD AND PUSH2 0xFFFF PUSH2 0x41E2 PUSH2 0x100 PUSH2 0x41D6 DUP6 DUP9 PUSH2 0x39DF JUMP JUMPDEST MLOAD ADD SWAP3 DUP3 DUP5 MLOAD AND PUSH2 0x416F JUMP JUMPDEST AND SWAP1 MSTORE PUSH2 0x41AB JUMP JUMPDEST POP POP JUMP JUMPDEST SWAP1 PUSH0 SWAP1 PUSH0 PUSH0 SWAP5 PUSH0 SWAP2 PUSH0 JUMPDEST DUP7 MLOAD DUP2 LT ISZERO PUSH2 0x427D JUMPI PUSH2 0x4224 PUSH2 0x421D PUSH1 0x60 PUSH2 0x4213 DUP5 DUP12 PUSH2 0x39DF JUMP JUMPDEST MLOAD ADD MLOAD PUSH2 0xFFFF AND SWAP1 JUMP JUMPDEST PUSH2 0xFFFF AND SWAP1 JUMP JUMPDEST ISZERO ISZERO DUP1 PUSH2 0x425E JUMPI JUMPDEST PUSH2 0x4239 JUMPI JUMPDEST PUSH1 0x1 ADD PUSH2 0x41F8 JUMP JUMPDEST SWAP7 POP POP SWAP3 POP PUSH2 0x424E PUSH2 0x100 PUSH2 0x4213 DUP8 DUP8 PUSH2 0x39DF JUMP JUMPDEST SWAP3 PUSH1 0x1 DUP1 PUSH1 0xFF DUP9 AND SWAP8 SWAP1 POP PUSH2 0x4231 JUMP JUMPDEST POP PUSH2 0x426F PUSH2 0x100 PUSH2 0x4213 DUP4 DUP11 PUSH2 0x39DF JUMP JUMPDEST PUSH2 0xFFFF DUP1 DUP9 AND SWAP2 AND GT PUSH2 0x422C JUMP JUMPDEST POP SWAP2 SWAP5 SWAP1 SWAP3 SWAP6 PUSH0 JUMPDEST DUP8 MLOAD DUP2 LT ISZERO PUSH2 0x42FB JUMPI PUSH2 0x42A0 PUSH2 0x421D PUSH1 0x60 PUSH2 0x4213 DUP5 DUP13 PUSH2 0x39DF JUMP JUMPDEST ISZERO ISZERO DUP1 PUSH2 0x42DC JUMPI JUMPDEST PUSH2 0x42B5 JUMPI JUMPDEST PUSH1 0x1 ADD PUSH2 0x4285 JUMP JUMPDEST SWAP6 POP SWAP2 POP SWAP3 POP PUSH2 0x42CB PUSH2 0x100 PUSH2 0x4213 DUP7 DUP9 PUSH2 0x39DF JUMP JUMPDEST SWAP3 PUSH0 SWAP2 PUSH1 0x1 PUSH1 0xFF DUP8 AND SWAP7 SWAP1 POP PUSH2 0x42AD JUMP JUMPDEST POP PUSH2 0x42ED PUSH2 0x100 PUSH2 0x4213 DUP4 DUP12 PUSH2 0x39DF JUMP JUMPDEST PUSH2 0xFFFF DUP1 DUP9 AND SWAP2 AND GT PUSH2 0x42A8 JUMP JUMPDEST POP SWAP2 SWAP4 PUSH2 0xFFFF SWAP1 SWAP6 SWAP2 SWAP4 SWAP6 AND ISZERO PUSH2 0x4351 JUMPI SWAP2 PUSH2 0x100 SWAP2 PUSH0 SWAP4 DUP6 DUP6 EQ PUSH2 0x4349 JUMPI POP SWAP6 JUMPDEST DUP5 DUP5 EQ PUSH2 0x433A JUMPI POP PUSH2 0x4333 SWAP1 PUSH1 0xFF DUP8 AND SWAP1 PUSH2 0x39DF JUMP JUMPDEST MLOAD ADD MSTORE SWAP2 SWAP1 JUMP JUMPDEST PUSH2 0x4333 SWAP2 POP PUSH1 0xFF DUP8 AND SWAP1 PUSH2 0x39DF JUMP JUMPDEST SWAP1 POP SWAP6 PUSH2 0x431D JUMP JUMPDEST POP POP PUSH2 0x4371 SWAP3 SWAP4 SWAP2 POP PUSH2 0x4363 DUP2 PUSH2 0x4185 JUMP JUMPDEST PUSH2 0x436C DUP3 PUSH2 0x4185 JUMP JUMPDEST PUSH2 0x41EE JUMP JUMPDEST SWAP1 SWAP2 JUMP JUMPDEST PUSH2 0xFFFF PUSH0 NOT SWAP2 AND ADD SWAP1 PUSH2 0xFFFF DUP3 GT PUSH2 0xAAB JUMPI JUMP JUMPDEST SWAP1 PUSH2 0xFFFF DUP1 SWAP2 AND SWAP2 AND SUB SWAP1 PUSH2 0xFFFF DUP3 GT PUSH2 0xAAB JUMPI JUMP JUMPDEST PUSH1 0x40 MLOAD SWAP1 PUSH2 0x43AE PUSH1 0x40 DUP4 PUSH2 0x323E JUMP JUMPDEST PUSH1 0xA DUP3 MSTORE PUSH10 0x13185CDD0814DD185B99 PUSH1 0xB2 SHL PUSH1 0x20 DUP4 ADD MSTORE JUMP JUMPDEST SWAP6 SWAP2 PUSH1 0xFF SWAP1 SWAP8 SWAP5 SWAP6 SWAP4 SWAP2 SWAP8 AND PUSH2 0xFFFF PUSH1 0x60 PUSH2 0x43E2 DUP4 DUP11 PUSH2 0x39DF JUMP JUMPDEST MLOAD ADD MLOAD AND ISZERO PUSH2 0x4794 JUMPI PUSH0 SWAP6 PUSH0 JUMPDEST DUP10 MLOAD DUP2 LT ISZERO PUSH2 0x442C JUMPI PUSH2 0xFFFF PUSH1 0x60 PUSH2 0x4407 DUP4 DUP14 PUSH2 0x39DF JUMP JUMPDEST MLOAD ADD MLOAD AND PUSH2 0x4418 JUMPI JUMPDEST PUSH1 0x1 ADD PUSH2 0x43EF JUMP JUMPDEST SWAP7 PUSH2 0x4424 PUSH1 0x1 SWAP2 PUSH2 0x3F69 JUMP JUMPDEST SWAP8 SWAP1 POP PUSH2 0x4410 JUMP JUMPDEST POP SWAP1 SWAP3 SWAP5 SWAP8 SWAP2 SWAP4 SWAP6 SWAP7 DUP8 ISZERO PUSH2 0x4788 JUMPI PUSH0 SWAP8 PUSH1 0x1 DUP2 SUB PUSH2 0x46F5 JUMPI POP PUSH0 JUMPDEST DUP4 MLOAD DUP2 LT ISZERO PUSH2 0x46E7 JUMPI PUSH2 0xFFFF PUSH1 0x60 PUSH2 0x4460 DUP4 DUP8 PUSH2 0x39DF JUMP JUMPDEST MLOAD ADD MLOAD AND PUSH2 0x4470 JUMPI PUSH1 0x1 ADD PUSH2 0x4448 JUMP JUMPDEST SWAP1 SWAP2 SWAP3 SWAP4 SWAP5 SWAP6 SWAP7 SWAP8 POP SWAP2 JUMPDEST PUSH2 0xFFFF PUSH1 0x60 PUSH2 0x448A DUP6 DUP8 PUSH2 0x39DF JUMP JUMPDEST MLOAD ADD MLOAD AND SWAP1 PUSH1 0xFF PUSH2 0x449B DUP8 DUP6 PUSH2 0x39DF JUMP JUMPDEST MLOAD MLOAD AND PUSH1 0xFF PUSH1 0x20 PUSH2 0x44AC DUP8 DUP10 PUSH2 0x39DF JUMP JUMPDEST MLOAD ADD MLOAD AND PUSH1 0xFF PUSH1 0xA0 PUSH2 0x44BE DUP11 DUP9 PUSH2 0x39DF JUMP JUMPDEST MLOAD ADD MLOAD AND PUSH1 0xFF PUSH1 0xC0 PUSH2 0x44D0 DUP10 DUP12 PUSH2 0x39DF JUMP JUMPDEST MLOAD ADD MLOAD AND SWAP2 PUSH1 0x3 DUP13 MUL SWAP5 DUP13 DUP7 DIV PUSH1 0x3 EQ DUP14 ISZERO OR ISZERO PUSH2 0xAAB JUMPI PUSH2 0x44F3 SWAP6 SHR SWAP4 PUSH2 0x4D1E JUMP JUMPDEST SWAP1 DUP1 PUSH2 0xFFFF DUP1 PUSH1 0x60 PUSH2 0x4505 DUP10 DUP12 PUSH2 0x39DF JUMP JUMPDEST MLOAD ADD MLOAD AND SWAP2 AND GT PUSH2 0x46CE JUMPI JUMPDEST PUSH0 PUSH1 0xE0 PUSH2 0x451E DUP8 DUP10 PUSH2 0x39DF JUMP JUMPDEST MLOAD ADD MLOAD ISZERO ISZERO DUP1 PUSH2 0x46AE JUMPI JUMPDEST ISZERO PUSH2 0x4684 JUMPI POP POP POP PUSH2 0x454C PUSH2 0xFFFF PUSH1 0x60 PUSH2 0x4543 DUP7 DUP9 PUSH2 0x39DF JUMP JUMPDEST MLOAD ADD MLOAD AND PUSH2 0x4375 JUMP JUMPDEST PUSH1 0x1 PUSH1 0x60 PUSH2 0x455A DUP7 DUP9 PUSH2 0x39DF JUMP JUMPDEST MLOAD ADD MSTORE PUSH1 0x1 SWAP2 PUSH2 0x4568 PUSH2 0x439F JUMP JUMPDEST SWAP3 JUMPDEST PUSH2 0x4674 JUMPI JUMPDEST PUSH2 0xFFFF PUSH1 0x60 PUSH2 0x457E DUP8 DUP10 PUSH2 0x39DF JUMP JUMPDEST MLOAD ADD MLOAD AND SWAP2 PUSH2 0x160 PUSH2 0x45AD DUP10 PUSH2 0x140 PUSH2 0x4597 DUP3 DUP11 PUSH2 0x39DF JUMP JUMPDEST MLOAD ADD MLOAD SWAP8 PUSH2 0x45A4 DUP10 PUSH2 0x338F JUMP JUMPDEST PUSH2 0x15B4 DUP10 PUSH2 0x338F JUMP JUMPDEST MLOAD ADD MLOAD SWAP6 PUSH1 0x4 DUP8 LT ISZERO PUSH2 0x8E2 JUMPI PUSH2 0x45E7 PUSH2 0x160 PUSH2 0x14A2 DUP4 PUSH2 0x140 PUSH2 0x45D1 DUP3 DUP15 PUSH2 0x39DF JUMP JUMPDEST MLOAD ADD MLOAD SWAP12 PUSH2 0x45DE DUP14 PUSH2 0x338F JUMP JUMPDEST PUSH2 0x15B4 DUP14 PUSH2 0x338F JUMP JUMPDEST SWAP9 PUSH1 0x4 DUP11 LT ISZERO PUSH2 0x8E2 JUMPI PUSH1 0x40 MLOAD SWAP11 PUSH2 0x45FE DUP13 PUSH2 0x31CF JUMP JUMPDEST PUSH1 0xFF AND DUP12 MSTORE PUSH1 0x20 DUP12 ADD PUSH0 SWAP1 MSTORE PUSH1 0x40 DUP12 ADD MSTORE PUSH1 0xFF AND PUSH1 0x60 DUP11 ADD MSTORE PUSH2 0xFFFF AND DUP1 PUSH1 0x80 DUP11 ADD MSTORE PUSH1 0xA0 DUP10 ADD MSTORE PUSH1 0xC0 DUP9 ADD MSTORE PUSH1 0xE0 DUP8 ADD MSTORE PUSH2 0x100 DUP7 ADD MSTORE PUSH1 0xFF AND PUSH2 0x120 DUP6 ADD MSTORE PUSH1 0xFF AND PUSH2 0x140 DUP5 ADD MSTORE PUSH1 0xFF AND PUSH2 0x160 DUP4 ADD MSTORE PUSH1 0xFF AND PUSH2 0x180 DUP3 ADD MSTORE PUSH2 0x4664 DUP3 DUP5 PUSH2 0x39DF JUMP JUMPDEST MSTORE PUSH2 0x466E SWAP2 PUSH2 0x39DF JUMP JUMPDEST POP PUSH1 0x1 SWAP1 JUMP JUMPDEST SWAP2 POP PUSH2 0x467E PUSH2 0x439F JUMP JUMPDEST SWAP2 PUSH2 0x456F JUMP JUMPDEST PUSH1 0x60 PUSH2 0x4694 DUP8 DUP10 SWAP7 SWAP5 SWAP6 SWAP7 PUSH2 0x39DF JUMP JUMPDEST MLOAD ADD PUSH2 0xFFFF PUSH2 0x46A6 DUP6 DUP3 DUP5 MLOAD AND PUSH2 0x4389 JUMP JUMPDEST AND SWAP1 MSTORE PUSH2 0x456A JUMP JUMPDEST POP PUSH2 0xFFFF PUSH1 0x60 PUSH2 0x46BE DUP9 DUP11 PUSH2 0x39DF JUMP JUMPDEST MLOAD ADD MLOAD AND PUSH2 0xFFFF DUP4 AND LT ISZERO PUSH2 0x4529 JUMP JUMPDEST POP PUSH2 0xFFFF PUSH1 0x60 PUSH2 0x46DE DUP7 DUP9 PUSH2 0x39DF JUMP JUMPDEST MLOAD ADD MLOAD AND PUSH2 0x4511 JUMP JUMPDEST POP SWAP1 SWAP7 SWAP2 SWAP3 SWAP4 SWAP5 SWAP6 SWAP7 PUSH2 0x447B JUMP JUMPDEST PUSH2 0x471E SWAP2 SWAP9 POP DUP3 PUSH2 0x4718 DUP9 PUSH1 0xFF PUSH2 0x4712 DUP11 SWAP10 SWAP9 SWAP8 SWAP15 SWAP13 SWAP12 SWAP11 PUSH2 0x3F2E JUMP JUMPDEST AND PUSH2 0x3382 JUMP JUMPDEST SHR PUSH2 0x3364 JUMP JUMPDEST SWAP8 PUSH0 SWAP8 PUSH0 JUMPDEST DUP4 MLOAD DUP2 LT ISZERO PUSH2 0x4778 JUMPI PUSH2 0xFFFF PUSH1 0x60 PUSH2 0x473B DUP4 DUP8 PUSH2 0x39DF JUMP JUMPDEST MLOAD ADD MLOAD AND PUSH2 0x474C JUMPI JUMPDEST PUSH1 0x1 ADD PUSH2 0x4723 JUMP JUMPDEST SWAP9 DUP11 DUP2 EQ PUSH2 0x4767 JUMPI PUSH2 0x475F PUSH1 0x1 SWAP2 PUSH2 0x3F69 JUMP JUMPDEST SWAP10 SWAP1 POP PUSH2 0x4744 JUMP JUMPDEST POP SWAP2 SWAP4 SWAP6 SWAP8 SWAP1 SWAP3 SWAP5 SWAP7 SWAP9 POP SWAP2 PUSH2 0x447B JUMP JUMPDEST POP SWAP2 SWAP4 SWAP6 SWAP8 POP SWAP8 SWAP2 SWAP4 SWAP6 SWAP8 PUSH2 0x447B JUMP JUMPDEST POP POP POP POP POP POP POP POP PUSH0 SWAP1 JUMP JUMPDEST POP POP POP POP SWAP3 POP POP POP PUSH0 SWAP1 JUMP JUMPDEST SWAP6 SWAP2 PUSH1 0xFF SWAP1 SWAP8 SWAP5 SWAP6 SWAP4 SWAP2 SWAP8 AND PUSH2 0xFFFF PUSH1 0x60 PUSH2 0x47BB DUP4 DUP11 PUSH2 0x39DF JUMP JUMPDEST MLOAD ADD MLOAD AND ISZERO PUSH2 0x4794 JUMPI PUSH0 SWAP6 PUSH0 JUMPDEST DUP10 MLOAD DUP2 LT ISZERO PUSH2 0x4805 JUMPI PUSH2 0xFFFF PUSH1 0x60 PUSH2 0x47E0 DUP4 DUP14 PUSH2 0x39DF JUMP JUMPDEST MLOAD ADD MLOAD AND PUSH2 0x47F1 JUMPI JUMPDEST PUSH1 0x1 ADD PUSH2 0x47C8 JUMP JUMPDEST SWAP7 PUSH2 0x47FD PUSH1 0x1 SWAP2 PUSH2 0x3F69 JUMP JUMPDEST SWAP8 SWAP1 POP PUSH2 0x47E9 JUMP JUMPDEST POP SWAP1 SWAP3 SWAP5 SWAP8 SWAP2 SWAP4 SWAP6 SWAP7 DUP8 ISZERO PUSH2 0x4788 JUMPI PUSH0 SWAP8 PUSH1 0x1 DUP2 SUB PUSH2 0x4A8A JUMPI POP PUSH0 JUMPDEST DUP4 MLOAD DUP2 LT ISZERO PUSH2 0x4A7C JUMPI PUSH2 0xFFFF PUSH1 0x60 PUSH2 0x4839 DUP4 DUP8 PUSH2 0x39DF JUMP JUMPDEST MLOAD ADD MLOAD AND PUSH2 0x4849 JUMPI PUSH1 0x1 ADD PUSH2 0x4821 JUMP JUMPDEST SWAP1 SWAP2 SWAP3 SWAP4 SWAP5 SWAP6 SWAP7 SWAP8 POP SWAP2 JUMPDEST PUSH2 0xFFFF PUSH1 0x60 PUSH2 0x4863 DUP6 DUP8 PUSH2 0x39DF JUMP JUMPDEST MLOAD ADD MLOAD AND SWAP1 PUSH1 0xFF PUSH2 0x4874 DUP8 DUP6 PUSH2 0x39DF JUMP JUMPDEST MLOAD MLOAD AND PUSH1 0xFF PUSH1 0x20 PUSH2 0x4885 DUP8 DUP10 PUSH2 0x39DF JUMP JUMPDEST MLOAD ADD MLOAD AND PUSH1 0xFF PUSH1 0xA0 PUSH2 0x4897 DUP11 DUP9 PUSH2 0x39DF JUMP JUMPDEST MLOAD ADD MLOAD AND PUSH1 0xFF PUSH1 0xC0 PUSH2 0x48A9 DUP10 DUP12 PUSH2 0x39DF JUMP JUMPDEST MLOAD ADD MLOAD AND SWAP2 PUSH1 0x3 DUP13 MUL SWAP5 DUP13 DUP7 DIV PUSH1 0x3 EQ DUP14 ISZERO OR ISZERO PUSH2 0xAAB JUMPI PUSH2 0x48CC SWAP6 SHR SWAP4 PUSH2 0x4D1E JUMP JUMPDEST SWAP1 DUP1 PUSH2 0xFFFF DUP1 PUSH1 0x60 PUSH2 0x48DE DUP10 DUP12 PUSH2 0x39DF JUMP JUMPDEST MLOAD ADD MLOAD AND SWAP2 AND GT PUSH2 0x4A63 JUMPI JUMPDEST PUSH0 PUSH1 0xE0 PUSH2 0x48F7 DUP8 DUP10 PUSH2 0x39DF JUMP JUMPDEST MLOAD ADD MLOAD ISZERO ISZERO DUP1 PUSH2 0x4A43 JUMPI JUMPDEST ISZERO PUSH2 0x4A19 JUMPI POP POP POP PUSH2 0x491C PUSH2 0xFFFF PUSH1 0x60 PUSH2 0x4543 DUP7 DUP9 PUSH2 0x39DF JUMP JUMPDEST PUSH1 0x1 PUSH1 0x60 PUSH2 0x492A DUP7 DUP9 PUSH2 0x39DF JUMP JUMPDEST MLOAD ADD MSTORE PUSH1 0x1 SWAP2 PUSH2 0x4938 PUSH2 0x439F JUMP JUMPDEST SWAP3 JUMPDEST PUSH2 0x4A09 JUMPI JUMPDEST PUSH2 0xFFFF PUSH1 0x60 PUSH2 0x494E DUP8 DUP10 PUSH2 0x39DF JUMP JUMPDEST MLOAD ADD MLOAD AND SWAP2 PUSH2 0x160 PUSH2 0x4967 DUP10 PUSH2 0x140 PUSH2 0x4597 DUP3 DUP11 PUSH2 0x39DF JUMP JUMPDEST MLOAD ADD MLOAD SWAP6 PUSH1 0x4 DUP8 LT ISZERO PUSH2 0x8E2 JUMPI PUSH2 0x498B PUSH2 0x160 PUSH2 0x14A2 DUP4 PUSH2 0x140 PUSH2 0x45D1 DUP3 DUP15 PUSH2 0x39DF JUMP JUMPDEST SWAP9 PUSH1 0x4 DUP11 LT ISZERO PUSH2 0x8E2 JUMPI PUSH1 0x40 MLOAD SWAP11 PUSH2 0x49A2 DUP13 PUSH2 0x31CF JUMP JUMPDEST PUSH1 0xFF AND DUP12 MSTORE PUSH1 0x20 DUP12 ADD PUSH1 0x1 SWAP1 MSTORE PUSH1 0x40 DUP12 ADD MSTORE PUSH1 0xFF AND PUSH1 0x60 DUP11 ADD MSTORE PUSH2 0xFFFF AND DUP1 PUSH1 0x80 DUP11 ADD MSTORE PUSH1 0xA0 DUP10 ADD MSTORE PUSH1 0xC0 DUP9 ADD MSTORE PUSH1 0xE0 DUP8 ADD MSTORE PUSH2 0x100 DUP7 ADD MSTORE PUSH1 0xFF AND PUSH2 0x120 DUP6 ADD MSTORE PUSH1 0xFF AND PUSH2 0x140 DUP5 ADD MSTORE PUSH1 0xFF AND PUSH2 0x160 DUP4 ADD MSTORE PUSH1 0xFF AND PUSH2 0x180 DUP3 ADD MSTORE PUSH2 0x4664 DUP3 DUP5 PUSH2 0x39DF JUMP JUMPDEST SWAP2 POP PUSH2 0x4A13 PUSH2 0x439F JUMP JUMPDEST SWAP2 PUSH2 0x493F JUMP JUMPDEST PUSH1 0x60 PUSH2 0x4A29 DUP8 DUP10 SWAP7 SWAP5 SWAP6 SWAP7 PUSH2 0x39DF JUMP JUMPDEST MLOAD ADD PUSH2 0xFFFF PUSH2 0x4A3B DUP6 DUP3 DUP5 MLOAD AND PUSH2 0x4389 JUMP JUMPDEST AND SWAP1 MSTORE PUSH2 0x493A JUMP JUMPDEST POP PUSH2 0xFFFF PUSH1 0x60 PUSH2 0x4A53 DUP9 DUP11 PUSH2 0x39DF JUMP JUMPDEST MLOAD ADD MLOAD AND PUSH2 0xFFFF DUP4 AND LT ISZERO PUSH2 0x4902 JUMP JUMPDEST POP PUSH2 0xFFFF PUSH1 0x60 PUSH2 0x4A73 DUP7 DUP9 PUSH2 0x39DF JUMP JUMPDEST MLOAD ADD MLOAD AND PUSH2 0x48EA JUMP JUMPDEST POP SWAP1 SWAP7 SWAP2 SWAP3 SWAP4 SWAP5 SWAP6 SWAP7 PUSH2 0x4854 JUMP JUMPDEST PUSH2 0x4AA7 SWAP2 SWAP9 POP DUP3 PUSH2 0x4718 DUP9 PUSH1 0xFF PUSH2 0x4712 DUP11 SWAP10 SWAP9 SWAP8 SWAP15 SWAP13 SWAP12 SWAP11 PUSH2 0x3F2E JUMP JUMPDEST SWAP8 PUSH0 SWAP8 PUSH0 JUMPDEST DUP4 MLOAD DUP2 LT ISZERO PUSH2 0x4B01 JUMPI PUSH2 0xFFFF PUSH1 0x60 PUSH2 0x4AC4 DUP4 DUP8 PUSH2 0x39DF JUMP JUMPDEST MLOAD ADD MLOAD AND PUSH2 0x4AD5 JUMPI JUMPDEST PUSH1 0x1 ADD PUSH2 0x4AAC JUMP JUMPDEST SWAP9 DUP11 DUP2 EQ PUSH2 0x4AF0 JUMPI PUSH2 0x4AE8 PUSH1 0x1 SWAP2 PUSH2 0x3F69 JUMP JUMPDEST SWAP10 SWAP1 POP PUSH2 0x4ACD JUMP JUMPDEST POP SWAP2 SWAP4 SWAP6 SWAP8 SWAP1 SWAP3 SWAP5 SWAP7 SWAP9 POP SWAP2 PUSH2 0x4854 JUMP JUMPDEST POP SWAP2 SWAP4 SWAP6 SWAP8 POP SWAP8 SWAP2 SWAP4 SWAP6 SWAP8 PUSH2 0x4854 JUMP JUMPDEST PUSH2 0x4B1A DUP2 PUSH2 0x338F JUMP JUMPDEST DUP1 ISZERO PUSH2 0x4B3B JUMPI PUSH1 0x1 SWAP1 PUSH2 0x4B2C DUP2 PUSH2 0x338F JUMP JUMPDEST EQ PUSH2 0x4B36 JUMPI PUSH1 0x69 SWAP1 JUMP JUMPDEST PUSH1 0x52 SWAP1 JUMP JUMPDEST POP PUSH1 0x41 SWAP1 JUMP JUMPDEST SWAP1 PUSH2 0xFFFF DUP1 SWAP2 AND SWAP2 AND MUL SWAP1 PUSH2 0xFFFF DUP3 AND SWAP2 DUP3 SUB PUSH2 0xAAB JUMPI JUMP JUMPDEST SWAP1 PUSH1 0x2 SHL PUSH2 0x3FC AND PUSH2 0x4B6B SWAP2 PUSH2 0x416F JUMP JUMPDEST SWAP1 JUMP JUMPDEST PUSH2 0x4B77 DUP2 PUSH2 0x338F JUMP JUMPDEST DUP1 ISZERO PUSH2 0x4B98 JUMPI PUSH1 0x1 SWAP1 PUSH2 0x4B89 DUP2 PUSH2 0x338F JUMP JUMPDEST EQ PUSH2 0x4B93 JUMPI PUSH1 0x14 SWAP1 JUMP JUMPDEST PUSH1 0xC SWAP1 JUMP JUMPDEST POP PUSH1 0x6 SWAP1 JUMP JUMPDEST SWAP1 PUSH1 0xFF PUSH1 0x16 SWAP2 AND DIV SWAP1 DUP2 PUSH2 0x4BB1 DUP3 PUSH2 0x338F JUMP JUMPDEST PUSH1 0x1 DUP3 EQ PUSH2 0x4C03 JUMPI JUMPDEST POP PUSH1 0x2 SWAP1 PUSH2 0x4BC7 DUP2 PUSH2 0x338F JUMP JUMPDEST EQ PUSH2 0x4BDF JUMPI JUMPDEST PUSH1 0x12 PUSH1 0xFF DUP3 AND GT ISZERO PUSH2 0x4B6B JUMPI POP PUSH1 0x12 SWAP1 JUMP JUMPDEST PUSH1 0xFF PUSH1 0x4 SWAP2 AND ADD PUSH1 0xFF DUP2 GT ISZERO PUSH2 0x4BCD JUMPI PUSH4 0x4E487B71 PUSH1 0xE0 SHL PUSH0 MSTORE PUSH1 0x11 PUSH1 0x4 MSTORE PUSH1 0x24 PUSH0 REVERT JUMPDEST PUSH1 0x2 SWAP2 SWAP3 POP PUSH2 0x4C11 SWAP1 PUSH2 0x3F43 JUMP JUMPDEST SWAP2 SWAP1 PUSH2 0x4BBA JUMP JUMPDEST SWAP2 SWAP1 PUSH2 0xFFFF AND DUP1 ISZERO PUSH2 0x4D19 JUMPI PUSH1 0x3 DUP2 MUL SWAP1 DUP2 DIV PUSH1 0x3 SUB PUSH2 0xAAB JUMPI PUSH1 0x64 ADD SWAP2 DUP3 PUSH1 0x64 GT PUSH2 0xAAB JUMPI PUSH0 JUMPDEST DUP2 MLOAD DUP2 LT ISZERO PUSH2 0x4132 JUMPI DUP1 PUSH1 0xFF PUSH1 0x64 PUSH2 0x4C67 DUP8 DUP4 PUSH2 0x4C5F PUSH1 0x1 SWAP8 DUP10 PUSH2 0x39DF JUMP JUMPDEST MLOAD MLOAD AND PUSH2 0x3A0C JUMP JUMPDEST DIV AND PUSH2 0x4C73 DUP3 DUP6 PUSH2 0x39DF JUMP JUMPDEST MLOAD MSTORE PUSH1 0xFF PUSH1 0x64 PUSH2 0x4C93 DUP8 DUP4 PUSH1 0x20 PUSH2 0x4C8A DUP8 DUP11 PUSH2 0x39DF JUMP JUMPDEST MLOAD ADD MLOAD AND PUSH2 0x3A0C JUMP JUMPDEST DIV AND PUSH1 0x20 PUSH2 0x4CA1 DUP4 DUP7 PUSH2 0x39DF JUMP JUMPDEST MLOAD ADD MSTORE PUSH1 0xFF PUSH1 0x64 PUSH2 0x4CB9 DUP8 DUP4 PUSH1 0x40 PUSH2 0x4C8A DUP8 DUP11 PUSH2 0x39DF JUMP JUMPDEST DIV AND PUSH1 0x40 PUSH2 0x4CC7 DUP4 DUP7 PUSH2 0x39DF JUMP JUMPDEST MLOAD ADD MSTORE PUSH2 0xFFFF PUSH1 0x64 PUSH2 0x4CE0 DUP8 DUP4 PUSH1 0x60 PUSH2 0x4C8A DUP8 DUP11 PUSH2 0x39DF JUMP JUMPDEST DIV AND PUSH1 0x60 PUSH2 0x4CEE DUP4 DUP7 PUSH2 0x39DF JUMP JUMPDEST MLOAD ADD MSTORE PUSH2 0xFFFF PUSH1 0x60 PUSH2 0x4D00 DUP4 DUP7 PUSH2 0x39DF JUMP JUMPDEST MLOAD ADD MLOAD AND PUSH1 0x80 PUSH2 0x4D10 DUP4 DUP7 PUSH2 0x39DF JUMP JUMPDEST MLOAD ADD MSTORE ADD PUSH2 0x4C40 JUMP JUMPDEST POP SWAP1 POP JUMP JUMPDEST PUSH1 0x60 SWAP6 SWAP5 SWAP3 SWAP4 PUSH1 0xFF AND DUP1 ISZERO DUP1 ISZERO SWAP2 SWAP1 DUP3 PUSH2 0x4E7E JUMPI JUMPDEST POP POP PUSH2 0x4E53 JUMPI PUSH1 0xFF AND SWAP1 PUSH2 0xFFFF PUSH1 0x23 DUP5 MOD AND PUSH1 0x6E ADD PUSH2 0xFFFF DUP2 GT PUSH2 0xAAB JUMPI PUSH1 0xFF PUSH2 0x4D5F PUSH1 0x12 SWAP3 DUP6 PUSH2 0x4B41 JUMP JUMPDEST SWAP3 AND ADD PUSH2 0xFFFF DUP2 GT PUSH2 0xAAB JUMPI PUSH2 0xFFFF AND SWAP1 DUP2 ISZERO PUSH2 0x336E JUMPI PUSH2 0xFFFF AND DIV SWAP1 PUSH1 0x2 PUSH2 0xFFFF DUP4 AND LT PUSH2 0x4E36 JUMPI JUMPDEST POP PUSH2 0xFFFF PUSH1 0x25 DUP4 PUSH1 0x8 SHR MOD AND PUSH1 0x52 ADD PUSH2 0xFFFF DUP2 GT PUSH2 0xAAB JUMPI PUSH2 0x4DB0 PUSH2 0xFFFF SWAP2 PUSH1 0x64 SWAP4 PUSH2 0x4B41 JUMP JUMPDEST AND DIV SWAP1 PUSH1 0xFF DUP3 SWAP4 AND SWAP1 DUP2 ISZERO ISZERO SWAP2 DUP3 PUSH2 0x4E0D JUMPI JUMPDEST POP POP PUSH2 0x4DCE JUMPI POP SWAP2 SWAP1 JUMP JUMPDEST PUSH1 0xD SWAP3 SWAP4 POP PUSH2 0xFFFF SWAP2 POP AND MUL PUSH2 0xFFFF DUP2 AND SWAP1 DUP2 SUB PUSH2 0xAAB JUMPI PUSH1 0xA SWAP1 DIV SWAP1 PUSH1 0x40 MLOAD PUSH2 0x4DF9 PUSH1 0x40 DUP3 PUSH2 0x323E JUMP JUMPDEST PUSH1 0x4 DUP2 MSTORE PUSH4 0x10D49255 PUSH1 0xE2 SHL PUSH1 0x20 DUP3 ADD MSTORE SWAP1 JUMP JUMPDEST PUSH1 0x1C SWAP2 SWAP3 POP MUL PUSH2 0xFFFF DUP2 AND SWAP1 DUP2 SUB PUSH2 0xAAB JUMPI PUSH2 0xFFFF PUSH1 0xA PUSH1 0x64 SWAP3 DIV AND SWAP2 PUSH1 0x18 SHR MOD LT PUSH0 DUP1 PUSH2 0x4DC3 JUMP JUMPDEST PUSH1 0xFF SWAP2 POP PUSH1 0x3 SWAP1 DIV AND PUSH1 0x2 ADD PUSH1 0xFF DUP2 GT PUSH2 0xAAB JUMPI PUSH1 0xFF AND PUSH0 PUSH2 0x4D89 JUMP JUMPDEST POP POP POP POP SWAP1 POP PUSH0 SWAP1 PUSH1 0x40 MLOAD PUSH2 0x4E69 PUSH1 0x40 DUP3 PUSH2 0x323E JUMP JUMPDEST PUSH1 0x5 DUP2 MSTORE PUSH5 0x444F444745 PUSH1 0xD8 SHL PUSH1 0x20 DUP3 ADD MSTORE SWAP1 JUMP JUMPDEST SWAP1 SWAP2 POP PUSH1 0x19 DUP3 MUL SWAP2 DUP3 DIV PUSH1 0x19 EQ OR ISZERO PUSH2 0xAAB JUMPI PUSH1 0xA SWAP1 DIV PUSH1 0x64 DUP5 MOD LT PUSH0 DUP1 PUSH2 0x4D33 JUMP INVALID LOG2 PUSH5 0x6970667358 0x22 SLT KECCAK256 EXTSTATICCALL DUP14 ISZERO 0xB8 0x4B PUSH12 0xD10F8CE51E050FD61AC8B12C 0xB3 PUSH32 0xFA7CF6EE2CAC455CC55B45FB64736F6C634300081E0033000000000000000000 "
		},
		"gasEstimates": {
			"creation": {
				"codeDepositCost": "4036600",
				"executionCost": "infinite",
				"totalCost": "infinite"
			},
			"external": {
				"buyFromShop(uint256)": "infinite",
				"buyRelicShopPrice()": "2644",
				"buyUnit()": "infinite",
				"buyUnitPrice()": "2336",
				"buyUnitShopPrice()": "3103",
				"clearPlayerData()": "infinite",
				"equipRelics(uint256[3])": "infinite",
				"equippedRelics(address,uint256)": "3224",
				"getCurrentAI(address)": "infinite",
				"getEquippedRelics(address)": "infinite",
				"getLastBattleResult(address)": "infinite",
				"getPlayerRelics(address)": "infinite",
				"getPlayerShop(address)": "infinite",
				"getPlayerUnits(address)": "infinite",
				"hasProfile(address)": "2894",
				"lastAI(address,uint256)": "7844",
				"lastAIMaxHp(address,uint256)": "7130",
				"lastBattleEvents(address,uint256)": "infinite",
				"lastBattleId()": "2468",
				"lastPlayerMaxHp(address,uint256)": "6976",
				"lastPlayerWon(address)": "3004",
				"owner()": "2689",
				"pause()": "30056",
				"paused()": "2524",
				"playerRelics(address,uint256)": "7605",
				"playerShop(address,uint256)": "7052",
				"playerUnits(address,uint256)": "6967",
				"profiles(address)": "9484",
				"relicContract()": "3020",
				"renounceOwnership()": "28350",
				"rerollPrice()": "2688",
				"rerollShop()": "infinite",
				"setPrices(uint256,uint256,uint256,uint256)": "93348",
				"setRelicContract(address)": "27176",
				"setUnitNFT(address)": "26978",
				"startMatch(uint256[],uint256[])": "infinite",
				"transferOwnership(address)": "28976",
				"unitNFT()": "2888",
				"unpause()": "27687",
				"withdraw()": "infinite"
			},
			"internal": {
				"_ensureProfile()": "infinite",
				"_generateShopItem()": "infinite",
				"_getWeightedRarity(uint256)": "68",
				"_updateProfileAfterBattle(bool)": "infinite"
			}
		},
		"methodIdentifiers": {
			"buyFromShop(uint256)": "b654823e",
			"buyRelicShopPrice()": "8b5ca78f",
			"buyUnit()": "201738e2",
			"buyUnitPrice()": "394861f3",
			"buyUnitShopPrice()": "f5e5fff2",
			"clearPlayerData()": "bdb729c9",
			"equipRelics(uint256[3])": "a5f968a0",
			"equippedRelics(address,uint256)": "c4f036c4",
			"getCurrentAI(address)": "c99ae45f",
			"getEquippedRelics(address)": "a95db7e2",
			"getLastBattleResult(address)": "2dc6d62f",
			"getPlayerRelics(address)": "bb15a3b4",
			"getPlayerShop(address)": "49c7c24a",
			"getPlayerUnits(address)": "6154ee97",
			"hasProfile(address)": "a787c80b",
			"lastAI(address,uint256)": "da539b0f",
			"lastAIMaxHp(address,uint256)": "732e9b85",
			"lastBattleEvents(address,uint256)": "aeb5f760",
			"lastBattleId()": "518c83b0",
			"lastPlayerMaxHp(address,uint256)": "4e178659",
			"lastPlayerWon(address)": "b78f4c70",
			"owner()": "8da5cb5b",
			"pause()": "8456cb59",
			"paused()": "5c975abb",
			"playerRelics(address,uint256)": "f5905ca1",
			"playerShop(address,uint256)": "18dc3185",
			"playerUnits(address,uint256)": "4ef2d6c1",
			"profiles(address)": "bbe15627",
			"relicContract()": "d5654ae7",
			"renounceOwnership()": "715018a6",
			"rerollPrice()": "9d980bd2",
			"rerollShop()": "29de58d1",
			"setPrices(uint256,uint256,uint256,uint256)": "d8e86854",
			"setRelicContract(address)": "b2a47500",
			"setUnitNFT(address)": "7e5c4f8b",
			"startMatch(uint256[],uint256[])": "51bdab14",
			"transferOwnership(address)": "f2fde38b",
			"unitNFT()": "b92a40ad",
			"unpause()": "3f4ba83a",
			"withdraw()": "3ccfd60b"
		}
	},
	"abi": [
		{
			"inputs": [
				{
					"internalType": "address",
					"name": "_unitNFT",
					"type": "address"
				},
				{
					"internalType": "address",
					"name": "_relic",
					"type": "address"
				}
			],
			"stateMutability": "nonpayable",
			"type": "constructor"
		},
		{
			"anonymous": false,
			"inputs": [
				{
					"indexed": true,
					"internalType": "bytes32",
					"name": "battleId",
					"type": "bytes32"
				},
				{
					"indexed": false,
					"internalType": "uint8",
					"name": "round",
					"type": "uint8"
				},
				{
					"indexed": false,
					"internalType": "bool",
					"name": "isPlayerSide",
					"type": "bool"
				},
				{
					"indexed": false,
					"internalType": "uint8",
					"name": "attackerIndex",
					"type": "uint8"
				},
				{
					"indexed": false,
					"internalType": "uint8",
					"name": "targetIndex",
					"type": "uint8"
				},
				{
					"indexed": false,
					"internalType": "uint16",
					"name": "damage",
					"type": "uint16"
				},
				{
					"indexed": false,
					"internalType": "uint16",
					"name": "remainingHp",
					"type": "uint16"
				},
				{
					"indexed": false,
					"internalType": "string",
					"name": "specialEffect",
					"type": "string"
				}
			],
			"name": "BattleEventEmitted",
			"type": "event"
		},
		{
			"anonymous": false,
			"inputs": [
				{
					"indexed": true,
					"internalType": "bytes32",
					"name": "battleId",
					"type": "bytes32"
				},
				{
					"indexed": true,
					"internalType": "address",
					"name": "player",
					"type": "address"
				},
				{
					"indexed": false,
					"internalType": "bool",
					"name": "playerWon",
					"type": "bool"
				},
				{
					"indexed": false,
					"internalType": "uint16[]",
					"name": "playerMaxHp",
					"type": "uint16[]"
				},
				{
					"indexed": false,
					"internalType": "uint16[]",
					"name": "aiMaxHp",
					"type": "uint16[]"
				}
			],
			"name": "BattleResolved",
			"type": "event"
		},
		{
			"anonymous": false,
			"inputs": [
				{
					"indexed": true,
					"internalType": "address",
					"name": "previousOwner",
					"type": "address"
				},
				{
					"indexed": true,
					"internalType": "address",
					"name": "newOwner",
					"type": "address"
				}
			],
			"name": "OwnershipTransferred",
			"type": "event"
		},
		{
			"anonymous": false,
			"inputs": [
				{
					"indexed": false,
					"internalType": "address",
					"name": "account",
					"type": "address"
				}
			],
			"name": "Paused",
			"type": "event"
		},
		{
			"anonymous": false,
			"inputs": [
				{
					"indexed": false,
					"internalType": "uint256",
					"name": "buyUnit",
					"type": "uint256"
				},
				{
					"indexed": false,
					"internalType": "uint256",
					"name": "reroll",
					"type": "uint256"
				},
				{
					"indexed": false,
					"internalType": "uint256",
					"name": "buyUnitShop",
					"type": "uint256"
				},
				{
					"indexed": false,
					"internalType": "uint256",
					"name": "buyRelicShop",
					"type": "uint256"
				}
			],
			"name": "PricesUpdated",
			"type": "event"
		},
		{
			"anonymous": false,
			"inputs": [
				{
					"indexed": true,
					"internalType": "address",
					"name": "player",
					"type": "address"
				}
			],
			"name": "ProfileCreated",
			"type": "event"
		},
		{
			"anonymous": false,
			"inputs": [
				{
					"indexed": true,
					"internalType": "address",
					"name": "player",
					"type": "address"
				},
				{
					"indexed": false,
					"internalType": "uint256[3]",
					"name": "relics",
					"type": "uint256[3]"
				}
			],
			"name": "RelicsEquipped",
			"type": "event"
		},
		{
			"anonymous": false,
			"inputs": [
				{
					"indexed": false,
					"internalType": "address",
					"name": "account",
					"type": "address"
				}
			],
			"name": "Unpaused",
			"type": "event"
		},
		{
			"inputs": [
				{
					"internalType": "uint256",
					"name": "slot",
					"type": "uint256"
				}
			],
			"name": "buyFromShop",
			"outputs": [],
			"stateMutability": "payable",
			"type": "function"
		},
		{
			"inputs": [],
			"name": "buyRelicShopPrice",
			"outputs": [
				{
					"internalType": "uint256",
					"name": "",
					"type": "uint256"
				}
			],
			"stateMutability": "view",
			"type": "function"
		},
		{
			"inputs": [],
			"name": "buyUnit",
			"outputs": [],
			"stateMutability": "payable",
			"type": "function"
		},
		{
			"inputs": [],
			"name": "buyUnitPrice",
			"outputs": [
				{
					"internalType": "uint256",
					"name": "",
					"type": "uint256"
				}
			],
			"stateMutability": "view",
			"type": "function"
		},
		{
			"inputs": [],
			"name": "buyUnitShopPrice",
			"outputs": [
				{
					"internalType": "uint256",
					"name": "",
					"type": "uint256"
				}
			],
			"stateMutability": "view",
			"type": "function"
		},
		{
			"inputs": [],
			"name": "clearPlayerData",
			"outputs": [],
			"stateMutability": "nonpayable",
			"type": "function"
		},
		{
			"inputs": [
				{
					"internalType": "uint256[3]",
					"name": "relics",
					"type": "uint256[3]"
				}
			],
			"name": "equipRelics",
			"outputs": [],
			"stateMutability": "nonpayable",
			"type": "function"
		},
		{
			"inputs": [
				{
					"internalType": "address",
					"name": "",
					"type": "address"
				},
				{
					"internalType": "uint256",
					"name": "",
					"type": "uint256"
				}
			],
			"name": "equippedRelics",
			"outputs": [
				{
					"internalType": "uint256",
					"name": "",
					"type": "uint256"
				}
			],
			"stateMutability": "view",
			"type": "function"
		},
		{
			"inputs": [
				{
					"internalType": "address",
					"name": "player",
					"type": "address"
				}
			],
			"name": "getCurrentAI",
			"outputs": [
				{
					"components": [
						{
							"internalType": "bool",
							"name": "isRelic",
							"type": "bool"
						},
						{
							"internalType": "uint256",
							"name": "id",
							"type": "uint256"
						},
						{
							"internalType": "uint8",
							"name": "faction",
							"type": "uint8"
						},
						{
							"internalType": "uint8",
							"name": "rarity",
							"type": "uint8"
						},
						{
							"internalType": "uint8",
							"name": "unitClass",
							"type": "uint8"
						},
						{
							"internalType": "uint8",
							"name": "attack",
							"type": "uint8"
						},
						{
							"internalType": "uint8",
							"name": "defense",
							"type": "uint8"
						},
						{
							"internalType": "uint8",
							"name": "speed",
							"type": "uint8"
						},
						{
							"internalType": "uint8",
							"name": "relicType",
							"type": "uint8"
						},
						{
							"internalType": "uint8",
							"name": "relicValue",
							"type": "uint8"
						}
					],
					"internalType": "struct StarForgeGame.ShopItem[8]",
					"name": "",
					"type": "tuple[8]"
				}
			],
			"stateMutability": "view",
			"type": "function"
		},
		{
			"inputs": [
				{
					"internalType": "address",
					"name": "player",
					"type": "address"
				}
			],
			"name": "getEquippedRelics",
			"outputs": [
				{
					"internalType": "uint256[3]",
					"name": "",
					"type": "uint256[3]"
				}
			],
			"stateMutability": "view",
			"type": "function"
		},
		{
			"inputs": [
				{
					"internalType": "address",
					"name": "player",
					"type": "address"
				}
			],
			"name": "getLastBattleResult",
			"outputs": [
				{
					"internalType": "bool",
					"name": "",
					"type": "bool"
				},
				{
					"internalType": "uint16[]",
					"name": "",
					"type": "uint16[]"
				},
				{
					"internalType": "uint16[]",
					"name": "",
					"type": "uint16[]"
				},
				{
					"internalType": "bytes32",
					"name": "",
					"type": "bytes32"
				},
				{
					"components": [
						{
							"internalType": "uint8",
							"name": "round",
							"type": "uint8"
						},
						{
							"internalType": "bool",
							"name": "isPlayerSide",
							"type": "bool"
						},
						{
							"internalType": "uint8",
							"name": "attackerIndex",
							"type": "uint8"
						},
						{
							"internalType": "uint8",
							"name": "targetIndex",
							"type": "uint8"
						},
						{
							"internalType": "uint16",
							"name": "damage",
							"type": "uint16"
						},
						{
							"internalType": "uint16",
							"name": "damageDealt",
							"type": "uint16"
						},
						{
							"internalType": "uint16",
							"name": "initialHp",
							"type": "uint16"
						},
						{
							"internalType": "uint16",
							"name": "remainingHp",
							"type": "uint16"
						},
						{
							"internalType": "string",
							"name": "specialEffect",
							"type": "string"
						},
						{
							"internalType": "uint8",
							"name": "attackerRarity",
							"type": "uint8"
						},
						{
							"internalType": "uint8",
							"name": "attackerClass",
							"type": "uint8"
						},
						{
							"internalType": "uint8",
							"name": "targetRarity",
							"type": "uint8"
						},
						{
							"internalType": "uint8",
							"name": "targetClass",
							"type": "uint8"
						}
					],
					"internalType": "struct StarForgeBattleLibrary.BattleEvent[]",
					"name": "",
					"type": "tuple[]"
				}
			],
			"stateMutability": "view",
			"type": "function"
		},
		{
			"inputs": [
				{
					"internalType": "address",
					"name": "player",
					"type": "address"
				}
			],
			"name": "getPlayerRelics",
			"outputs": [
				{
					"internalType": "uint256[]",
					"name": "",
					"type": "uint256[]"
				}
			],
			"stateMutability": "view",
			"type": "function"
		},
		{
			"inputs": [
				{
					"internalType": "address",
					"name": "player",
					"type": "address"
				}
			],
			"name": "getPlayerShop",
			"outputs": [
				{
					"components": [
						{
							"internalType": "bool",
							"name": "isRelic",
							"type": "bool"
						},
						{
							"internalType": "uint256",
							"name": "id",
							"type": "uint256"
						},
						{
							"internalType": "uint8",
							"name": "faction",
							"type": "uint8"
						},
						{
							"internalType": "uint8",
							"name": "rarity",
							"type": "uint8"
						},
						{
							"internalType": "uint8",
							"name": "unitClass",
							"type": "uint8"
						},
						{
							"internalType": "uint8",
							"name": "attack",
							"type": "uint8"
						},
						{
							"internalType": "uint8",
							"name": "defense",
							"type": "uint8"
						},
						{
							"internalType": "uint8",
							"name": "speed",
							"type": "uint8"
						},
						{
							"internalType": "uint8",
							"name": "relicType",
							"type": "uint8"
						},
						{
							"internalType": "uint8",
							"name": "relicValue",
							"type": "uint8"
						}
					],
					"internalType": "struct StarForgeGame.ShopItem[3]",
					"name": "",
					"type": "tuple[3]"
				}
			],
			"stateMutability": "view",
			"type": "function"
		},
		{
			"inputs": [
				{
					"internalType": "address",
					"name": "player",
					"type": "address"
				}
			],
			"name": "getPlayerUnits",
			"outputs": [
				{
					"internalType": "uint256[]",
					"name": "",
					"type": "uint256[]"
				}
			],
			"stateMutability": "view",
			"type": "function"
		},
		{
			"inputs": [
				{
					"internalType": "address",
					"name": "",
					"type": "address"
				}
			],
			"name": "hasProfile",
			"outputs": [
				{
					"internalType": "bool",
					"name": "",
					"type": "bool"
				}
			],
			"stateMutability": "view",
			"type": "function"
		},
		{
			"inputs": [
				{
					"internalType": "address",
					"name": "",
					"type": "address"
				},
				{
					"internalType": "uint256",
					"name": "",
					"type": "uint256"
				}
			],
			"name": "lastAI",
			"outputs": [
				{
					"internalType": "bool",
					"name": "isRelic",
					"type": "bool"
				},
				{
					"internalType": "uint256",
					"name": "id",
					"type": "uint256"
				},
				{
					"internalType": "uint8",
					"name": "faction",
					"type": "uint8"
				},
				{
					"internalType": "uint8",
					"name": "rarity",
					"type": "uint8"
				},
				{
					"internalType": "uint8",
					"name": "unitClass",
					"type": "uint8"
				},
				{
					"internalType": "uint8",
					"name": "attack",
					"type": "uint8"
				},
				{
					"internalType": "uint8",
					"name": "defense",
					"type": "uint8"
				},
				{
					"internalType": "uint8",
					"name": "speed",
					"type": "uint8"
				},
				{
					"internalType": "uint8",
					"name": "relicType",
					"type": "uint8"
				},
				{
					"internalType": "uint8",
					"name": "relicValue",
					"type": "uint8"
				}
			],
			"stateMutability": "view",
			"type": "function"
		},
		{
			"inputs": [
				{
					"internalType": "address",
					"name": "",
					"type": "address"
				},
				{
					"internalType": "uint256",
					"name": "",
					"type": "uint256"
				}
			],
			"name": "lastAIMaxHp",
			"outputs": [
				{
					"internalType": "uint16",
					"name": "",
					"type": "uint16"
				}
			],
			"stateMutability": "view",
			"type": "function"
		},
		{
			"inputs": [
				{
					"internalType": "address",
					"name": "",
					"type": "address"
				},
				{
					"internalType": "uint256",
					"name": "",
					"type": "uint256"
				}
			],
			"name": "lastBattleEvents",
			"outputs": [
				{
					"internalType": "uint8",
					"name": "round",
					"type": "uint8"
				},
				{
					"internalType": "bool",
					"name": "isPlayerSide",
					"type": "bool"
				},
				{
					"internalType": "uint8",
					"name": "attackerIndex",
					"type": "uint8"
				},
				{
					"internalType": "uint8",
					"name": "targetIndex",
					"type": "uint8"
				},
				{
					"internalType": "uint16",
					"name": "damage",
					"type": "uint16"
				},
				{
					"internalType": "uint16",
					"name": "damageDealt",
					"type": "uint16"
				},
				{
					"internalType": "uint16",
					"name": "initialHp",
					"type": "uint16"
				},
				{
					"internalType": "uint16",
					"name": "remainingHp",
					"type": "uint16"
				},
				{
					"internalType": "string",
					"name": "specialEffect",
					"type": "string"
				},
				{
					"internalType": "uint8",
					"name": "attackerRarity",
					"type": "uint8"
				},
				{
					"internalType": "uint8",
					"name": "attackerClass",
					"type": "uint8"
				},
				{
					"internalType": "uint8",
					"name": "targetRarity",
					"type": "uint8"
				},
				{
					"internalType": "uint8",
					"name": "targetClass",
					"type": "uint8"
				}
			],
			"stateMutability": "view",
			"type": "function"
		},
		{
			"inputs": [],
			"name": "lastBattleId",
			"outputs": [
				{
					"internalType": "bytes32",
					"name": "",
					"type": "bytes32"
				}
			],
			"stateMutability": "view",
			"type": "function"
		},
		{
			"inputs": [
				{
					"internalType": "address",
					"name": "",
					"type": "address"
				},
				{
					"internalType": "uint256",
					"name": "",
					"type": "uint256"
				}
			],
			"name": "lastPlayerMaxHp",
			"outputs": [
				{
					"internalType": "uint16",
					"name": "",
					"type": "uint16"
				}
			],
			"stateMutability": "view",
			"type": "function"
		},
		{
			"inputs": [
				{
					"internalType": "address",
					"name": "",
					"type": "address"
				}
			],
			"name": "lastPlayerWon",
			"outputs": [
				{
					"internalType": "bool",
					"name": "",
					"type": "bool"
				}
			],
			"stateMutability": "view",
			"type": "function"
		},
		{
			"inputs": [],
			"name": "owner",
			"outputs": [
				{
					"internalType": "address",
					"name": "",
					"type": "address"
				}
			],
			"stateMutability": "view",
			"type": "function"
		},
		{
			"inputs": [],
			"name": "pause",
			"outputs": [],
			"stateMutability": "nonpayable",
			"type": "function"
		},
		{
			"inputs": [],
			"name": "paused",
			"outputs": [
				{
					"internalType": "bool",
					"name": "",
					"type": "bool"
				}
			],
			"stateMutability": "view",
			"type": "function"
		},
		{
			"inputs": [
				{
					"internalType": "address",
					"name": "",
					"type": "address"
				},
				{
					"internalType": "uint256",
					"name": "",
					"type": "uint256"
				}
			],
			"name": "playerRelics",
			"outputs": [
				{
					"internalType": "uint256",
					"name": "",
					"type": "uint256"
				}
			],
			"stateMutability": "view",
			"type": "function"
		},
		{
			"inputs": [
				{
					"internalType": "address",
					"name": "",
					"type": "address"
				},
				{
					"internalType": "uint256",
					"name": "",
					"type": "uint256"
				}
			],
			"name": "playerShop",
			"outputs": [
				{
					"internalType": "bool",
					"name": "isRelic",
					"type": "bool"
				},
				{
					"internalType": "uint256",
					"name": "id",
					"type": "uint256"
				},
				{
					"internalType": "uint8",
					"name": "faction",
					"type": "uint8"
				},
				{
					"internalType": "uint8",
					"name": "rarity",
					"type": "uint8"
				},
				{
					"internalType": "uint8",
					"name": "unitClass",
					"type": "uint8"
				},
				{
					"internalType": "uint8",
					"name": "attack",
					"type": "uint8"
				},
				{
					"internalType": "uint8",
					"name": "defense",
					"type": "uint8"
				},
				{
					"internalType": "uint8",
					"name": "speed",
					"type": "uint8"
				},
				{
					"internalType": "uint8",
					"name": "relicType",
					"type": "uint8"
				},
				{
					"internalType": "uint8",
					"name": "relicValue",
					"type": "uint8"
				}
			],
			"stateMutability": "view",
			"type": "function"
		},
		{
			"inputs": [
				{
					"internalType": "address",
					"name": "",
					"type": "address"
				},
				{
					"internalType": "uint256",
					"name": "",
					"type": "uint256"
				}
			],
			"name": "playerUnits",
			"outputs": [
				{
					"internalType": "uint256",
					"name": "",
					"type": "uint256"
				}
			],
			"stateMutability": "view",
			"type": "function"
		},
		{
			"inputs": [
				{
					"internalType": "address",
					"name": "",
					"type": "address"
				}
			],
			"name": "profiles",
			"outputs": [
				{
					"internalType": "uint16",
					"name": "level",
					"type": "uint16"
				},
				{
					"internalType": "uint32",
					"name": "xp",
					"type": "uint32"
				},
				{
					"internalType": "uint256",
					"name": "wins",
					"type": "uint256"
				},
				{
					"internalType": "uint256",
					"name": "losses",
					"type": "uint256"
				},
				{
					"internalType": "uint16",
					"name": "currentAITier",
					"type": "uint16"
				}
			],
			"stateMutability": "view",
			"type": "function"
		},
		{
			"inputs": [],
			"name": "relicContract",
			"outputs": [
				{
					"internalType": "contract StarForgeRelic",
					"name": "",
					"type": "address"
				}
			],
			"stateMutability": "view",
			"type": "function"
		},
		{
			"inputs": [],
			"name": "renounceOwnership",
			"outputs": [],
			"stateMutability": "nonpayable",
			"type": "function"
		},
		{
			"inputs": [],
			"name": "rerollPrice",
			"outputs": [
				{
					"internalType": "uint256",
					"name": "",
					"type": "uint256"
				}
			],
			"stateMutability": "view",
			"type": "function"
		},
		{
			"inputs": [],
			"name": "rerollShop",
			"outputs": [],
			"stateMutability": "payable",
			"type": "function"
		},
		{
			"inputs": [
				{
					"internalType": "uint256",
					"name": "_buyUnitPrice",
					"type": "uint256"
				},
				{
					"internalType": "uint256",
					"name": "_rerollPrice",
					"type": "uint256"
				},
				{
					"internalType": "uint256",
					"name": "_buyUnitShopPrice",
					"type": "uint256"
				},
				{
					"internalType": "uint256",
					"name": "_buyRelicShopPrice",
					"type": "uint256"
				}
			],
			"name": "setPrices",
			"outputs": [],
			"stateMutability": "nonpayable",
			"type": "function"
		},
		{
			"inputs": [
				{
					"internalType": "address",
					"name": "_relic",
					"type": "address"
				}
			],
			"name": "setRelicContract",
			"outputs": [],
			"stateMutability": "nonpayable",
			"type": "function"
		},
		{
			"inputs": [
				{
					"internalType": "address",
					"name": "_unitNFT",
					"type": "address"
				}
			],
			"name": "setUnitNFT",
			"outputs": [],
			"stateMutability": "nonpayable",
			"type": "function"
		},
		{
			"inputs": [
				{
					"internalType": "uint256[]",
					"name": "team",
					"type": "uint256[]"
				},
				{
					"internalType": "uint256[]",
					"name": "equipped",
					"type": "uint256[]"
				}
			],
			"name": "startMatch",
			"outputs": [],
			"stateMutability": "nonpayable",
			"type": "function"
		},
		{
			"inputs": [
				{
					"internalType": "address",
					"name": "newOwner",
					"type": "address"
				}
			],
			"name": "transferOwnership",
			"outputs": [],
			"stateMutability": "nonpayable",
			"type": "function"
		},
		{
			"inputs": [],
			"name": "unitNFT",
			"outputs": [
				{
					"internalType": "contract StarForgeUnitNFT",
					"name": "",
					"type": "address"
				}
			],
			"stateMutability": "view",
			"type": "function"
		},
		{
			"inputs": [],
			"name": "unpause",
			"outputs": [],
			"stateMutability": "nonpayable",
			"type": "function"
		},
		{
			"inputs": [],
			"name": "withdraw",
			"outputs": [],
			"stateMutability": "nonpayable",
			"type": "function"
		}
	]
}