{
	"data": {
		"bytecode": {
			"linkReferences": {},
			"object": "6080346100f257601f614b0638819003918201601f19168301916001600160401b038311848410176100f6578084926020946040528339810103126100f257516001600160a01b038116908190036100f25733156100df575f8054336001600160a01b0319821681178355604051939290916001600160a01b0316907f8be0079c531659141344cd1fd0a4f28419497f9722a3daafe3b4186f6b6457e09080a360017f9b779b17422d0df92223018b32b4d1fa46e071723d6817e2486d003becc55f005560018060a01b031960015416176001556149fb908161010b8239f35b631e4fbdf760e01b5f525f60045260245ffd5b5f80fd5b634e487b7160e01b5f52604160045260245ffdfe60806040526004361015610011575f80fd5b5f3560e01c8063201738e2146123ba57806329de58d11461228b5780632dc6d62f146120ef5780633ccfd60b146120aa5780633f4ba83a1461203e57806349c7c24a14611f7e5780634e17865914611f335780634ef2d6c114611eea57806351bdab1414610c215780635c975abb14610bfd5780636154ee9714610b8b578063705fe4be146109c6578063715018a614610b34578063732e9b8514610ad95780637e5c4f8b14610a965780638456cb5914610a3657806384d38fdc146109f25780638da5cb5b146109cb5780639f51758e146109c6578063a95db7e214610928578063aeb5f76014610827578063b2a47500146107e4578063b654823e146105c8578063b78f4c701461058b578063b92a40ad14610563578063bb15a3b4146104e5578063bbe1562714610468578063c4f036c414610420578063c99ae45f14610357578063d5654ae71461032f578063d6691c271461028b578063eda3484514610270578063f2fde38b146101eb5763f5905ca11461018f575f80fd5b346101e75760403660031901126101e7576101a8612712565b6001600160a01b03165f908152600760205260409020805460243591908210156101e7576020916101d891612954565b90549060031b1c604051908152f35b5f80fd5b346101e75760203660031901126101e757610204612712565b61020c6133b6565b6001600160a01b0316801561025d575f80546001600160a01b03198116831782556001600160a01b0316907f8be0079c531659141344cd1fd0a4f28419497f9722a3daafe3b4186f6b6457e09080a3005b631e4fbdf760e01b5f525f60045260245ffd5b346101e7575f3660031901126101e757602060405160038152f35b346101e75760403660031901126101e7576102a4612712565b6001600160a01b03165f9081526005602052604090208054602435908110156101e7576102d091612a6e565b5060ff8154169061032b6002600183015492015460405193849360ff8360381c169260ff8160301c169260ff8260281c169260ff8360201c169260ff8160181c169260ff8260101c169260ff808460081c169316918b6129ff565b0390f35b346101e7575f3660031901126101e7576002546040516001600160a01b039091168152602090f35b346101e75760203660031901126101e7576001600160a01b03610378612712565b165f52600560205260405f2080549061039082612e4c565b9161039e6040519384612b2e565b8083526020830180925f5260205f205f915b838310610402578486604051918291602083019060208452518091526040830191905f5b8181106103e2575050500390f35b9193509160206103f560019286516128a2565b94019101918493926103d4565b600360206001926104128561317a565b8152019201920191906103b0565b346101e75760403660031901126101e757610439612712565b6001600160a01b03165f90815260086020526040902060243560038110156101e7576020910154604051908152f35b346101e75760203660031901126101e7576001600160a01b03610489612712565b165f52600360205260c060405f2060ff815491600181015490600360028201549101549163ffffffff6040519561ffff8116875260101c1660208601526040850152606084015261ffff8116608084015260101c1660a0820152f35b346101e75760203660031901126101e7576001600160a01b03610506612712565b165f52600760205260405f206040519081602082549182815201915f5260205f20905f5b81811061054d5761032b8561054181870382612b2e565b60405191829182612999565b825484526020909301926001928301920161052a565b346101e7575f3660031901126101e7576001546040516001600160a01b039091168152602090f35b346101e75760203660031901126101e7576001600160a01b036105ac612712565b165f52600b602052602060ff60405f2054166040519015158152f35b60203660031901126101e7576004356105df613347565b6105e7613364565b6105f13415612bef565b60038110156107b057335f5260046020526106186106128260405f206129ec565b5061317a565b9081511561077d5760018060a01b03600254169160ff610100820151166006811015610769576064610673915f60ff61012060209601511696604051978895869463f925b74160e01b8652336004870152602486019061333a565b60448401525af191821561075e575f92610728575b506106b390335f5260076020526106a28360405f20612c2f565b335f52600460205260405f206129ec565b610715575f808255600182018190556002909101556040805133815260208101929092527f79b5d5e09e50c5e7911836260a42a037177f8e4b1480cf79b3afc0abba937a039190819081015b0390a160015f5160206149a65f395f51905f5255005b634e487b7160e01b5f525f60045260245ffd5b9091506020813d602011610756575b8161074460209383612b2e565b810103126101e75751906106b3610688565b3d9150610737565b6040513d5f823e3d90fd5b634e487b7160e01b5f52602160045260245ffd5b60405162461bcd60e51b815260206004820152600b60248201526a4e6f7420612072656c696360a81b6044820152606490fd5b60405162461bcd60e51b815260206004820152600c60248201526b125b9d985b1a59081cdb1bdd60a21b6044820152606490fd5b346101e75760203660031901126101e7576107fd612712565b6108056133b6565b600280546001600160a01b0319166001600160a01b0392909216919091179055005b346101e75760403660031901126101e757610840612712565b6001600160a01b03165f908152600c60205260409020805460243591908210156101e75761ffff9161087191612a6e565b5080549060ff6108f8600261088860018501612b4f565b930154926040519585848897168752848160081c1615156020880152848160101c166040880152848160181c166060880152818160201c166080880152818160301c1660a0880152818160401c1660c088015260501c1660e08601526101a06101008601526101a0850190612728565b91818116610120850152818160081c16610140850152818160101c1661016085015260181c166101808301520390f35b346101e75760203660031901126101e757610941612712565b606090816040516109528282612b2e565b3690376001600160a01b03165f90815260086020526040808220905191825b600382106109b0575050506109868282612b2e565b604051905f825b6003821061099a57505050f35b602080600192855181520193019101909161098d565b6001602081928554815201930191019091610971565b6129d2565b346101e7575f3660031901126101e7575f546040516001600160a01b039091168152602090f35b346101e75760403660031901126101e757610a0b612712565b6001600160a01b03165f90815260046020526040902060243560038110156101e7576102d0916129ec565b346101e7575f3660031901126101e757610a4e6133b6565b610a56613347565b5f805460ff60a01b1916600160a01b1790556040513381527f62e78cea01bee320cd4e420270b5ea74000d11b0c9f74754ebdbfc544b05a25890602090a1005b346101e75760203660031901126101e757610aaf612712565b610ab76133b6565b600180546001600160a01b0319166001600160a01b0392909216919091179055005b346101e75760403660031901126101e757610af2612712565b6001600160a01b03165f908152600a602052604090208054602435908110156101e757610b2461ffff91602093612933565b90549060031b1c16604051908152f35b346101e7575f3660031901126101e757610b4c6133b6565b5f80546001600160a01b0319811682556001600160a01b03167f8be0079c531659141344cd1fd0a4f28419497f9722a3daafe3b4186f6b6457e08280a3005b346101e75760203660031901126101e7576001600160a01b03610bac612712565b165f52600660205260405f206040519081602082549182815201915f5260205f20905f5b818110610be75761032b8561054181870382612b2e565b8254845260209093019260019283019201610bd0565b346101e7575f3660031901126101e757602060ff5f5460a01c166040519015158152f35b346101e75760403660031901126101e7576004356001600160401b0381116101e757610c51903690600401612969565b906024356001600160401b0381116101e757610c71903690600401612969565b919092610c7c613347565b610c84613364565b600481101580611edf575b15611ea55760038303611e515760015492936001600160a01b03909316925f5b82811015610d78576040516331a9108f60e11b8152600582901b8501356004820152602081602481895afa90811561075e575f91610d37575b50336001600160a01b0390911603610d0257600101610caf565b60405162461bcd60e51b815260206004820152600d60248201526c139bdd081e5bdd5c881d5b9a5d609a1b6044820152606490fd5b90506020813d8211610d70575b81610d5160209383612b2e565b810103126101e757516001600160a01b03811681036101e75787610ce8565b3d9150610d44565b508285606090604051610d8b8382612b2e565b8115611e3d57843581528160011015611e3d57602085013560208201528160021015611e3d5760408501356040820152335f52600860205260405f20905f5b60038110611e29575050335f908152600560205260409020610dec9150613227565b94855115611e01575b6040805142602082019081523360601b6bffffffffffffffffffffffff191692820192909252446054820152610e3881607481015b03601f198101835282612b2e565b51902095335f526003602052610e7b61ffff60405f20541696610e7360015460018060a01b03169760025460018060a01b031695369161327d565b94369161327d565b610e83613988565b50610e8e8451613a84565b975f5b855181101561102957610ea481876132c9565b519060405191630b2adfdf60e11b8352600483015260c0826024818c5afa91821561075e575f92610ff9575b506020820191610ee98351610ee48161288b565b614615565b90610efd608082019260ff8451169061465e565b60ff808c840151169351169160a081019560ff87511692610f41610f2a8351610f258161288b565b614672565b9860ff845191610f398361288b565b5116906146a2565b6040845193610f4f8561288b565b5194610f5a8661288b565b0151946004861015610769578f9960019a61ffff60ff958694610fdd9b60206040519e8f90610f8882612b12565b8152015260408d01521680918b015260808a01521660a08801521660c08601525f60e08601525f610100860152610fbe8161288b565b610120850152610fcd8161288b565b610140840152610160830161316e565b610fe7828d6132c9565b52610ff2818c6132c9565b5001610e91565b61101b91925060c03d8111611022575b6110138183612b2e565b8101906133ea565b908b610ed0565b503d611009565b5085908992946110398a8561471c565b5f945b86518610156113575761104f86886132c9565b511561134a5761105f86886132c9565b5196604051976368972d5960e01b895260048901525f88602481865afa97881561075e575f9861125d575b505f5b86518110156112485788516006811015610769576110d45760019060ff60208b01511660ff6110ca6110bf848c6132c9565b519282845116612d23565b1690525b0161108d565b88516006811015610769576001036111175760019060ff60208b01511660ff61110e6020611102858d6132c9565b51019282845116612d23565b1690525b6110ce565b88516006811015610769576002036111455760019060ff60208b01511660ff61110e6040611102858d6132c9565b88516006811015610769576003036111f75761ffff86611165838a6132c9565b5101511690600361ffff60ff60208d015116160261ffff81169081036111e35761ffff166064019161ffff83116111e35761ffff6111a7600194606493614645565b160461ffff886111b7848c6132c9565b51019116905261ffff876111cb838b6132c9565b5101511660806111db838b6132c9565b5101526110ce565b634e487b7160e01b5f52601160045260245ffd5b88516006811015610769576004036112255760019060ff60208b01511660ff61110e60a0611102858d6132c9565b885190600682101561076957600560019203611112578160e06111db838b6132c9565b5092919650946001905b01949590919561103c565b9097503d805f833e61126f8183612b2e565b8101906020818303126101e7578051906001600160401b0382116101e757019085828203126101e757604051916112a583612adb565b805160068110156101e75783526112be602082016133dc565b60208401526040810151906001600160401b0382116101e7570181601f820112156101e7578051906001600160401b038211611336576040519261130c601f8401601f191660200185612b2e565b828452602083830101116101e757815f9260208093018386015e830101526040820152968861108a565b634e487b7160e01b5f52604160045260245ffd5b9460019096929196611252565b919450506113658151613a84565b935f5b82518110156114325761137b81846132c9565b51908482019161138f8351610ee48161288b565b906113a360c082019260ff8451169061465e565b60ff8060a0840151169351169160e081019560ff875116936113cc610f2a8351610f258161288b565b60806040850151936113dd8561288b565b51946113e88661288b565b0151946004861015610769576001998d61ffff60ff95936114169a879560206040519e8f90610f8882612b12565b61142082896132c9565b5261142b81886132c9565b5001611368565b5082848661143f82613b30565b61144881613b30565b61145282516139bc565b9361145d82516139bc565b905f5b8451811015611490578061ffff608061147b600194896132c9565b51015116611489828a6132c9565b5201611460565b50909193855f5b86518110156114c7578061ffff60806114b26001948b6132c9565b510151166114c082886132c9565b5201611497565b5091939091908560405195610f206114df8189612b2e565b60788852601f19015f5b818110611d985750505f9260015b601260ff82161115611c67575b50505061151090613c37565b159061151b81612e4c565b956115296040519788612b2e565b818752601f1961153883612e4c565b015f5b818110611bfe5750505f5b828110611bd457505050611558613988565b908152602081019485526040810191825282810193845280511515335f52600360205260405f20905f14611b7657600181016115948154613a03565b815561ffff806003808501936115cb6115b360ff875460101c16613a11565b865462ff0000191660109190911b62ff000016178655565b5404161661ffff19825416179055805490600661ffff83160263ffffffff81169081036111e35760a00163ffffffff81116111e3576116196116379163ffffffff61163c9560101c1661339c565b825465ffffffff0000191660109190911b65ffffffff000016178255565b613a22565b61166081511515335f52600b60205260405f209060ff801983541691151516179055565b335f908152600c60205260408120805491815581611ae9575b50505f5b85515181101561191857335f908152600c602052604090206116a08288516132c9565b51908054600160401b811015611336576116bf91600182018155612a6e565b61071557815181546020840151604085015162ffffff1990921660ff939093169290921791151560081b61ff00169190911760109190911b62ff00001617815581860151815463ff000000191660189190911b63ff000000161781556080820151815460a084015160c085015160e08601516bffffffffffffffff000000001990931660209490941b65ffff00000000169390931760309190911b67ffff000000000000161760409290921b69ffff0000000000000000169190911760509190911b61ffff60501b16178155610100820151805160018301916001600160401b038211611336576117b08354612a87565b601f81116118dd575b50602090601f831160011461186b5761185a9460019796948460ff95610180956002955f92611860575b50505f19600383901b1c1916908a1b1790555b6101208501519101805461014086015161016087015162ffff0019871993909316948716949094179190911660089190911b61ff00161791841660101b62ff000016919091178155920151825463ff0000001916911660181b63ff00000016179055565b0161167d565b015190505f806117e3565b90601f19831691845f52815f20925f5b8181106118c55750946001856101809560029561185a9a9560ff99859e9d9b106118ad575b505050811b0190556117f6565b01515f1960f88460031b161c191690555f80806118a0565b9293602060018192878601518155019501930161187b565b61190890845f5260205f20601f850160051c8101916020861061190e575b601f0160051c0190613211565b8b6117b9565b90915081906118fb565b50335f90815260096020526040902084908690611934906132dd565b5f5b84515181101561197257335f9081526009602052604090206001919061196c9061ffff611964848a516132c9565b511690613304565b01611936565b50335f908152600a60205260409020839061198c906132dd565b5f5b8351518110156119c257335f908152600a60205260409020600191906119bc9061ffff6119648489516132c9565b0161198e565b50908151151580611ad5575b611a42575b7fc252fe2d1dc706d4f4b52afa35c4264a4aa7002d846e033bb7f16edef409efd4611a1483511515925160405193845260406020850152604084019061274c565b918033930390a251611a34575b60015f5160206149a65f395f51905f5255005b611a3d33613489565b611a21565b60025460405163f925b74160e01b8152336004820152906001600160a01b0316816064815f602094816024840152600560448401525af1801561075e575f90611aa1575b611a9c9150335f52600760205260405f20612c2f565b6119d3565b506020813d602011611acd575b81611abb60209383612b2e565b810103126101e757611a9c9051611a86565b3d9150611aae565b506002546001600160a01b031615156119ce565b816003029160038304036111e3575f5260205f20908101905b8181101561167957805f6003925560018101611b1e8154612a87565b9081611b33575b50505f600282015501611b02565b81601f5f9311600114611b4a5750555b8880611b25565b81835260208320611b6691601f0160051c810190600101613211565b8082528160208120915555611b43565b60028101611b848154613a03565b90556003810162ff0000198154169055805490600361ffff83160263ffffffff81169081036111e35760550163ffffffff81116111e3576116196116379163ffffffff61163c9560101c1661339c565b80611be1600192846132c9565b51611bec828b6132c9565b52611bf7818a6132c9565b5001611546565b602090604051611c0d81612abf565b5f81525f838201525f60408201525f898201525f60808201525f60a08201525f60c08201525f60e0820152886101008201525f6101208201525f6101408201525f6101608201525f61018082015282828c0101520161153b565b611c7082613c37565b158015611d88575b611d8357611c8582613c84565b611c8e84613c84565b600360ff82160260ff81169081036111e35760018460ff8093161c161660010160ff81116111e35760ff165f5b8160ff821610611cd6575b5050611cd190613a11565b6114f7565b6077871015611d6e57611ce884613c37565b158015611d73575b611d6e5782878c87611d028a89613ced565b949015611d3d57611d14948b8a6142a4565b611d26575b600160ff915b0116611cbb565b956001611d3460ff92613a03565b97915050611d19565b611d4894898c613ec6565b611d57575b600160ff91611d1f565b956001611d6560ff92613a03565b97915050611d4d565b611cc6565b50611d7d86613c37565b15611cf0565b611504565b50611d9284613c37565b15611c78565b602090604051611da781612abf565b5f81525f838201525f60408201525f898201525f60808201525f60a08201525f60c08201525f60e0820152886101008201525f6101208201525f6101408201525f6101608201525f61018082015282828c010152016114e9565b9450611e0c33613489565b335f908152600560205260409020611e2390613227565b94610df5565b600190602083519301928185015501610dca565b634e487b7160e01b5f52603260045260245ffd5b60405162461bcd60e51b815260206004820152602660248201527f4d7573742065717569702065786163746c7920332072656c69637320286f7220604482015265302c302c302960d01b6064820152608490fd5b60405162461bcd60e51b81526020600482015260126024820152715465616d2073697a6520342d38206f6e6c7960701b6044820152606490fd5b506008811115610c8f565b346101e75760403660031901126101e757611f03612712565b6001600160a01b03165f908152600660205260409020805460243591908210156101e7576020916101d891612954565b346101e75760403660031901126101e757611f4c612712565b6001600160a01b03165f9081526009602052604090208054602435908110156101e757610b2461ffff91602093612933565b346101e75760203660031901126101e757611f97612712565b6060604051611fa7606082612b2e565b5f5b828110612029578360018060a01b03165f52600460205260405f2060405190611fd182612adb565b5f825b6003821061200b57604051845f825b60038210611ff1576103c084f35b602061200060019285516128a2565b930191019091611fe3565b6003602060019261201b8661317a565b815201930191019091611fd4565b602090612034612c63565b8184015201611fa9565b346101e7575f3660031901126101e7576120566133b6565b5f5460ff8160a01c161561209b5760ff60a01b19165f556040513381527f5db9ee0a495bf2e6ff9c91a7834c1ba4fdd244a5e8aa4e537bd38aeae4b073aa90602090a1005b638dfc202b60e01b5f5260045ffd5b346101e7575f3660031901126101e7576120c26133b6565b5f805481908190819047906001600160a01b03168282156120e6575bf11561075e57005b506108fc6120de565b346101e75760203660031901126101e7576001600160a01b03612110612712565b16805f52600b60205260ff60405f205416815f52600c60205260405f2091805f52600960205260405f20905f52600a60205260405f2090835461215281612e4c565b946121606040519687612b2e565b81865260208601905f5260205f205f915b8383106121ce57878761032b886121c061219361218d8b612e63565b92612e63565b916121b26040519687961515875260806020880152608087019061274c565b908582036040870152612854565b908382036060850152612854565b600360206001926040516121e181612abf565b61ffff865460ff8116835260ff8160081c1615158584015260ff8160101c16604084015260ff8160181c1660608401528181861c166080840152818160301c1660a0840152818160401c1660c084015260501c1660e0820152612245858701612b4f565b61010082015260ff6002870154818116610120840152818160081c16610140840152818160101c1661016084015260181c16610180820152815201920192019190612171565b5f3660031901126101e75761229e613347565b6122a6613364565b6122b03415612bef565b6040805142602082019081523360601b6bffffffffffffffffffffffff1916928201929092524460548201526122e98160748101610e2a565b5190205f5b60038110612333577fb1b757afec988e099a59bc127abea15824bf7acc7137103e4197ef22a9afad116020604051338152a160015f5160206149a65f395f51905f5255005b61233b612c63565b90600182525f60208301528060031b8115908281046008148217156111e35760068560ff921c06166101008401528160041b9082820460101417156111e35760019260ff612392816012886123b4961c0616612d00565b16610120820152335f5260046020526123ae8360405f206129ec565b90612d37565b016122ee565b5f3660031901126101e7576123cd613347565b6123d5613364565b6123df3415612bef565b6001546040516318160ddd60e01b81526001600160a01b0390911690602081600481855afa90811561075e575f916126e0575b5060405160208101914283523360601b604083015260548201524460748201524360948201526094815261244760b482612b2e565b5190206064810660468110156126ca57505f5b60038260081c069261246b8461288b565b60038360101c16936004851015610769576124858361288b565b8261261e5761249960038560181c16612cef565b9160ff60036124ac818860201c16612d00565b9660281c06166005019060ff82116111e35760ff60e49481602098815f96935b61250e6040519d8e9c8d9b630e3bd81160e31b8d528c6004339101526124f18161288b565b60248d01526124ff8161288b565b60448c015260648b0190612895565b1660848801521660a48601521660c48401525af190811561075e575f916125ec575b50335f5260066020526125468160405f20612c2f565b335f52600360205260405f2061ffff815416156125db575b601463ffffffff825460101c16019163ffffffff83116111e3576125c3826116377fdded256c7e86a19d1be0f3168d1ec8d5cfc9c713c96bdc10defadd014692cf92956106ff959065ffffffff000082549160101b169065ffffffff00001916179055565b60408051338152602081019290925290918291820190565b805461ffff1916600117815561255e565b90506020813d602011612616575b8161260760209383612b2e565b810103126101e7575181612530565b3d91506125fa565b6126278361288b565b600183036126765761264160ff60058660181c0616612cde565b9160038560201c166006019060ff82116111e35760ff60e494816020988161267060035f989360281c16612cde565b936124cc565b60ff60058560181c0616600b0160ff81116111e3579160ff60058660201c061660090160ff81116111e357600560ff919660281c0616600a019060ff82116111e35760ff60e49481602098815f96936124cc565b605f11156126d957600161245a565b600261245a565b90506020813d60201161270a575b816126fb60209383612b2e565b810103126101e7575182612412565b3d91506126ee565b600435906001600160a01b03821682036101e757565b805180835260209291819084018484015e5f828201840152601f01601f1916010190565b9080602083519182815201916020808360051b8301019401925f915b83831061277757505050505090565b9091929394602080600192601f1985820301865288519060ff82511681528282015115158382015260ff604083015116604082015260ff606083015116606082015261ffff608083015116608082015261ffff60a08301511660a082015261ffff60c08301511660c082015261ffff60e08301511660e082015261018060ff816128146101008601516101a06101008701526101a0860190612728565b9482610120820151166101208601528261014082015116610140860152826101608201511661016086015201511691015297019301930191939290612768565b90602080835192838152019201905f5b8181106128715750505090565b825161ffff16845260209384019390920191600101612864565b6003111561076957565b9060048210156107695752565b9060ff610120610140938051151584526020810151602085015260408101516128ca8161288b565b604085015260608101516128dd8161288b565b60608501526128f460808201516080860190612895565b8260a08201511660a08501528260c08201511660c08501528260e08201511660e085015282610100820151166101008501520151166101208201520190565b9190918054831015611e3d575f52601e60205f208360041c019260011b1690565b8054821015611e3d575f5260205f2001905f90565b9181601f840112156101e7578235916001600160401b0383116101e7576020808501948460051b0101116101e757565b60206040818301928281528451809452019201905f5b8181106129bc5750505090565b82518452602093840193909201916001016129af565b346101e7575f3660031901126101e75760206040515f8152f35b906003811015611e3d5760030201905f90565b98969492909a99979593916101408a019b15158a5260208a0152612a228161288b565b6040890152612a308161288b565b606088015260808701612a4291612895565b60ff1660a086015260ff1660c085015260ff1660e084015260ff1661010083015260ff16906101200152565b8054821015611e3d575f52600360205f20910201905f90565b90600182811c92168015612ab5575b6020831014612aa157565b634e487b7160e01b5f52602260045260245ffd5b91607f1691612a96565b6101a081019081106001600160401b0382111761133657604052565b606081019081106001600160401b0382111761133657604052565b61014081019081106001600160401b0382111761133657604052565b61018081019081106001600160401b0382111761133657604052565b90601f801991011681019081106001600160401b0382111761133657604052565b9060405191825f825492612b6284612a87565b8084529360018116908115612bcd5750600114612b89575b50612b8792500383612b2e565b565b90505f9291925260205f20905f915b818310612bb1575050906020612b87928201015f612b7a565b6020919350806001915483858901015201910190918492612b98565b905060209250612b8794915060ff191682840152151560051b8201015f612b7a565b15612bf657565b60405162461bcd60e51b8152602060048201526011602482015270125b98dbdc9c9958dd081c185e5b595b9d607a1b6044820152606490fd5b8054600160401b81101561133657612c4c91600182018155612954565b819291549060031b91821b915f19901b1916179055565b60405190612c7082612af6565b5f610120838281528260208201528260408201528260608201528260808201528260a08201528260c08201528260e0820152826101008201520152565b818102929181159184041417156111e357565b8115612cca570690565b634e487b7160e01b5f52601260045260245ffd5b60ff166007019060ff82116111e357565b60ff166004019060ff82116111e357565b60ff166003019060ff82116111e357565b60ff60029116019060ff82116111e357565b9060ff8091169116019060ff82116111e357565b9061071557600290612d5883511515829060ff801983541691151516179055565b6020830151600182015501906040810151612d728161288b565b612d7b8161288b565b8254606083015190612d8c8261288b565b612d958261288b565b60808401519060048210156107695760ff62ff000061ff009360101b1694169062ffffff1916179160081b1617178255612deb60ff60a083015116839063ff00000082549160181b169063ff0000001916179055565b60c08101519082549165ff000000000060e083015160281b169060ff60381b61012066ff00000000000061010086015160301b1694015160381b169364ff0000000060ff60381b199260201b169066ffffff00000000191617161717179055565b6001600160401b0381116113365760051b60200190565b90604051918281549182825260208201905f5260205f20925f905b80600f83011061308657612b87945491818110613071575b818110613059575b818110613042575b81811061302a575b818110613012575b818110612ffa575b818110612fe2575b818110612fca575b818110612fb2575b818110612f9a575b818110612f82575b818110612f6a575b818110612f52575b818110612f3a575b818110612f22575b10612f14575b500383612b2e565b60f01c81526020015f612f0c565b92602060019161ffff8560e01c168152019301612f06565b92602060019161ffff8560d01c168152019301612efe565b92602060019161ffff8560c01c168152019301612ef6565b92602060019161ffff8560b01c168152019301612eee565b92602060019161ffff8560a01c168152019301612ee6565b92602060019161ffff8560901c168152019301612ede565b92602060019161ffff8560801c168152019301612ed6565b92602060019161ffff8560701c168152019301612ece565b92602060019161ffff8560601c168152019301612ec6565b92602060019161ffff8560501c168152019301612ebe565b92602060019161ffff8560401c168152019301612eb6565b92602060019161ffff8560301c168152019301612eae565b92602060019161ffff85831c168152019301612ea6565b92602060019161ffff8560101c168152019301612e9e565b92602060019161ffff85168152019301612e96565b916010919350610200600191865461ffff8116825261ffff81861c16602083015261ffff8160201c16604083015261ffff8160301c16606083015261ffff8160401c16608083015261ffff8160501c1660a083015261ffff8160601c1660c083015261ffff8160701c1660e083015261ffff8160801c1661010083015261ffff8160901c1661012083015261ffff8160a01c1661014083015261ffff8160b01c1661016083015261ffff8160c01c1661018083015261ffff8160d01c166101a083015261ffff8160e01c166101c083015260f01c6101e0820152019401920185929391612e7e565b60048210156107695752565b9060405161318781612af6565b61012060ff6002839582815416151585526001810154602086015201548181166131b08161288b565b6040850152818160081c166131c48161288b565b60608501526131db828260101c166080860161316e565b818160181c1660a0850152818160201c1660c0850152818160281c1660e0850152818160301c1661010085015260381c16910152565b81811061321c575050565b5f8155600101613211565b90815461323381612e4c565b926132416040519485612b2e565b81845260208401905f5260205f205f915b83831061325f5750505050565b6003602060019261326f8561317a565b815201920192019190613252565b92919061328981612e4c565b936132976040519586612b2e565b602085838152019160051b81019283116101e757905b8282106132b957505050565b81358152602091820191016132ad565b8051821015611e3d5760209160051b010190565b80545f8255806132eb575050565b612b87915f52600f60205f20910160041c810190613211565b8054600160401b8110156113365761332191600182018155612933565b61ffff80839493549260031b9316831b921b1916179055565b9060068210156107695752565b60ff5f5460a01c1661335557565b63d93c066560e01b5f5260045ffd5b60025f5160206149a65f395f51905f52541461338d5760025f5160206149a65f395f51905f5255565b633ee5aeb560e01b5f5260045ffd5b9063ffffffff8091169116019063ffffffff82116111e357565b5f546001600160a01b031633036133c957565b63118cdaa760e01b5f523360045260245ffd5b519060ff821682036101e757565b908160c09103126101e7576040519060c082018281106001600160401b0382111761133657604052805160038110156101e7578252602081015160038110156101e7576020830152604081015160048110156101e7576134749160a0916040850152613458606082016133dc565b6060850152613469608082016133dc565b6080850152016133dc565b60a082015290565b919082018092116111e357565b60018060a01b03811691825f52600360205260405f209161ffff83541615613977575b825491600361ffff84169401549461ffff861660ff8760101c16956134d660ff6003830416612cef565b94600860ff87161161396e575b6001546040516318160ddd60e01b815290602090829060049082906001600160a01b03165afa90811561075e575f9161393c575b506040519060208201924284526bffffffffffffffffffffffff199060601b16604083015261ffff60f01b8960f01b16605483015261ffff60f01b8b60f01b166056830152605882015244607882015260788152613576609882612b2e565b51902094835f52600560205260405f208054905f815581613903575b50505f98979896845f52600660205260405f20966040519788602082549182815201915f5260205f20905f5b8181106138ed57505050886135d4910389612b2e565b6001546001600160a01b03169a5f5b895181101561368d578c60c06135f9838d6132c9565b51602460405180948193630b2adfdf60e11b835260048301525afa801561075e576020915f9161366f575b5001805160ff808e6136358461288b565b61363e8461288b565b6136478161288b565b16911611613659575b506001016135e3565b6001919b50516136688161288b565b9a90613650565b613687915060c03d8111611022576110138183612b2e565b5f613624565b5093975093979094989195995060648406906136a88161288b565b806138ae5750505f915b60078802888104600714891517156111e35760640191826064116111e3576103fc90600e1c1690808204600414901517156111e3576136f39195949561347c565b613fff5f9560021c1660ff613fff82169116955b60ff861681106137515750505050505050916060917f2a7db953326dec8a8b5d0d5576160bcd2cf173e66e4192b2cbfe4e4ab1db4eac9360405192835260208301526040820152a1565b613759612c63565b905f82528060031b8115908281046008148217156111e35760038860ff921c06166137838161288b565b61378c8161288b565b604084015261379a8661288b565b856060840152601882028281046018148217156111e357876003911c166004811015610769576137cd906080850161316e565b6137d689612cef565b908260051b8381046020148217156111e35760646138088860ff6138028160078f82981c061688612d23565b16612cad565b041660a0850152602883028381046028148217156111e357606461383a8860ff6138028160078f82981c061688612d23565b041660c0850152603083029083820460301417156111e35761386d8660ff61380281958260078e6064981c061690612d23565b041660e08301528a5f52600560205260405f20908154600160401b8110156113365760ff936123ae82600195866138a695018155612a6e565b019050613707565b6001906138ba8161288b565b036138d657604411156138d05760015b916136b2565b5f6138ca565b603411156138e6576002916136b2565b60016138ca565b82548452602090930192600192830192016135be565b816003029160038304036111e3575f5260205f20908101905b81811015613592576003905f81555f60018201555f60028201550161391c565b90506020813d602011613966575b8161395760209383612b2e565b810103126101e757515f613517565b3d915061394a565b600895506134e3565b825461ffff191660011783556134ac565b60405190608082018281106001600160401b0382111761133657604052606080835f81528160208201528160408201520152565b906139c682612e4c565b6139d36040519182612b2e565b82815280926139e4601f1991612e4c565b0190602036910137565b60021b906103fc60fc8316921682036111e357565b5f1981146111e35760010190565b60ff1660ff81146111e35760010190565b805461ffff8116906037820263ffffffff81169081036111e357605a0163ffffffff81116111e35763ffffffff8091169160101c161015613a61575050565b61ffff81146111e357815465ffffffffffff191660019190910161ffff16179055565b90613a8e82612e4c565b613a9b6040519182612b2e565b8281528092613aac601f1991612e4c565b01905f5b828110613abc57505050565b602090604051613acb81612b12565b5f81525f838201525f60408201525f60608201525f60808201525f60a08201525f60c08201525f60e08201525f6101008201525f6101208201525f6101408201525f61016082015282828501015201613ab0565b906003811015611e3d5760051b0190565b60405191906060613b418185612b2e565b60603685375f5b8251811015613bc0578061ffff83613b62600194876132c9565b51015116613b71575b01613b48565b60ff610120613b8083876132c9565b510151613b8c8161288b565b613b958161288b565b1660ff613bb7613bb082613ba9858c613b1f565b5116613a11565b9289613b1f565b91169052613b6b565b50505f5b8151811015613c315780600360ff613c0181610120613be5600197896132c9565b510151613bf18161288b565b613bfa8161288b565b1688613b1f565b51161015613c10575b01613bc4565b613c1a81846132c9565b5160ff613c2981835116612d11565b169052613c0a565b50509050565b5f5b8151811015613c685761ffff6060613c5183856132c9565b51015116613c6157600101613c39565b5050600190565b50505f90565b9061ffff8091169116019061ffff82116111e357565b5f5b8151811015613ce9578061ffff6060613ca1600194866132c9565b51015116613cb0575b01613c86565b60ff6040613cbe83866132c9565b5101511661ffff613ce1610100613cd585886132c9565b51019282845116613c6e565b169052613caa565b5050565b905f905f5f945f915f5b8651811015613d7c57613d23613d1c6060613d12848b6132c9565b51015161ffff1690565b61ffff1690565b151580613d5d575b613d38575b600101613cf7565b9650509250613d4d610100613d1287876132c9565b9260018060ff8816979050613d30565b50613d6e610100613d12838a6132c9565b61ffff808816911611613d2b565b5091949092955f5b8751811015613dfa57613d9f613d1c6060613d12848c6132c9565b151580613ddb575b613db4575b600101613d84565b955091509250613dca610100613d1286886132c9565b925f91600160ff8716969050613dac565b50613dec610100613d12838b6132c9565b61ffff808816911611613da7565b50919361ffff90959193951615613e505791610100915f93858514613e485750955b848414613e395750613e329060ff8716906132c9565b5101529190565b613e32915060ff8716906132c9565b905095613e1c565b5050613e7092939150613e6281613c84565b613e6b82613c84565b613ced565b9091565b61ffff5f199116019061ffff82116111e357565b9061ffff8091169116039061ffff82116111e357565b60405190613ead604083612b2e565b600a82526913185cdd0814dd185b9960b21b6020830152565b959160ff909794959391971661ffff6060613ee1838a6132c9565b5101511615614298575f955f5b8951811015613f2b5761ffff6060613f06838d6132c9565b51015116613f17575b600101613eee565b96613f23600191613a03565b979050613f0f565b509092949791939596871561428c575f97600181036141f957505f5b83518110156141eb5761ffff6060613f5f83876132c9565b51015116613f6f57600101613f47565b909192939495969750915b61ffff6060613f8985876132c9565b510151169060ff613f9a87856132c9565b51511660ff6020613fab87896132c9565b5101511660ff60a0613fbd8a886132c9565b5101511660ff60c0613fcf898b6132c9565b510151169160038c02948c86046003148d1517156111e357613ff2951c93614822565b908061ffff806060614004898b6132c9565b510151169116116141d2575b5f60e061401d87896132c9565b5101511515806141b2575b156141885750505061404b61ffff606061404286886132c9565b51015116613e74565b6001606061405986886132c9565b510152600191614067613e9e565b925b614178575b61ffff606061407d87896132c9565b51015116916101606140b189610140614096828a6132c9565b510151976140a38961288b565b6140ac8961288b565b6132c9565b510151956004871015610769576101606140e8826101406140d2828d6132c9565b5101519a6140df8c61288b565b6140ac8c61288b565b5101519860048a1015610769576040519a6141028c612abf565b60ff168b5260208b015f905260408b015260ff1660608a015261ffff168060808a015260a089015260c088015260e087015261010086015260ff1661012085015260ff1661014084015260ff1661016083015260ff1661018082015261416882846132c9565b52614172916132c9565b50600190565b9150614182613e9e565b9161406e565b60606141988789969495966132c9565b510161ffff6141aa8582845116613e88565b169052614069565b5061ffff60606141c2888a6132c9565b5101511661ffff83161015614028565b5061ffff60606141e286886132c9565b51015116614010565b509096919293949596613f7a565b6142229198508261421c8860ff6142168a9998979e9c9b9a6139ee565b1661347c565b1c612cc0565b975f975f5b835181101561427c5761ffff606061423f83876132c9565b51015116614250575b600101614227565b988a811461426b57614263600191613a03565b999050614248565b509193959790929496985091613f7a565b5091939597509791939597613f7a565b50505050505050505f90565b50505050925050505f90565b959160ff909794959391971661ffff60606142bf838a6132c9565b5101511615614298575f955f5b89518110156143095761ffff60606142e4838d6132c9565b510151166142f5575b6001016142cc565b96614301600191613a03565b9790506142ed565b509092949791939596871561428c575f976001810361458e57505f5b83518110156145805761ffff606061433d83876132c9565b5101511661434d57600101614325565b909192939495969750915b61ffff606061436785876132c9565b510151169060ff61437887856132c9565b51511660ff602061438987896132c9565b5101511660ff60a061439b8a886132c9565b5101511660ff60c06143ad898b6132c9565b510151169160038c02948c86046003148d1517156111e3576143d0951c93614822565b908061ffff8060606143e2898b6132c9565b51015116911611614567575b5f60e06143fb87896132c9565b510151151580614547575b1561451d5750505061442061ffff606061404286886132c9565b6001606061442e86886132c9565b51015260019161443c613e9e565b925b61450d575b61ffff606061445287896132c9565b510151169161016061446b89610140614096828a6132c9565b5101519560048710156107695761016061448c826101406140d2828d6132c9565b5101519860048a1015610769576040519a6144a68c612abf565b60ff168b5260208b016001905260408b015260ff1660608a015261ffff168060808a015260a089015260c088015260e087015261010086015260ff1661012085015260ff1661014084015260ff1661016083015260ff1661018082015261416882846132c9565b9150614517613e9e565b91614443565b606061452d8789969495966132c9565b510161ffff61453f8582845116613e88565b16905261443e565b5061ffff6060614557888a6132c9565b5101511661ffff83161015614406565b5061ffff606061457786886132c9565b510151166143ee565b509096919293949596614358565b6145ab9198508261421c8860ff6142168a9998979e9c9b9a6139ee565b975f975f5b83518110156146055761ffff60606145c883876132c9565b510151166145d9575b6001016145b0565b988a81146145f4576145ec600191613a03565b9990506145d1565b509193959790929496985091614358565b5091939597509791939597614358565b61461e8161288b565b801561463f576001906146308161288b565b1461463a57606990565b605290565b50604190565b9061ffff8091169116029061ffff82169182036111e357565b9060021b6103fc1661466f91613c6e565b90565b61467b8161288b565b801561469c5760019061468d8161288b565b1461469757601490565b600c90565b50600690565b9060ff601691160490816146b58261288b565b60018214614707575b506002906146cb8161288b565b146146e3575b601260ff8216111561466f5750601290565b60ff600491160160ff8111156146d157634e487b7160e01b5f52601160045260245ffd5b600291925061471590612d11565b91906146be565b919061ffff16801561481d57600381029081046003036111e35760640191826064116111e3575f5b8151811015613c31578060ff606461476b8783614763600197896132c9565b515116612cad565b041661477782856132c9565b515260ff60646147978783602061478e878a6132c9565b51015116612cad565b041660206147a583866132c9565b51015260ff60646147bd8783604061478e878a6132c9565b041660406147cb83866132c9565b51015261ffff60646147e48783606061478e878a6132c9565b041660606147f283866132c9565b51015261ffff606061480483866132c9565b51015116608061481483866132c9565b51015201614744565b509050565b60609594929360ff1680158015919082614982575b50506149575760ff169061ffff6023840616606e0161ffff81116111e35760ff61486360129285614645565b92160161ffff81116111e35761ffff16908115612cca5761ffff160490600261ffff83161061493a575b5061ffff60258360081c061660520161ffff81116111e3576148b461ffff91606493614645565b16049060ff829316908115159182614911575b50506148d257509190565b600d92935061ffff9150160261ffff81169081036111e357600a9004906040516148fd604082612b2e565b600481526310d4925560e21b602082015290565b601c9192500261ffff81169081036111e35761ffff600a60649204169160181c06105f806148c7565b60ff9150600390041660020160ff81116111e35760ff165f61488d565b5050505090505f9060405161496d604082612b2e565b6005815264444f44474560d81b602082015290565b9091506019820291820460191417156111e357600a900460648406105f8061483756fe9b779b17422d0df92223018b32b4d1fa46e071723d6817e2486d003becc55f00a2646970667358221220b2020726ca2d3f93f8551dcd4305aee291ac55a0e74ee7f65fe21261ee037ccb64736f6c634300081e0033",
			"opcodes": "PUSH1 0x80 CALLVALUE PUSH2 0xF2 JUMPI PUSH1 0x1F PUSH2 0x4B06 CODESIZE DUP2 SWAP1 SUB SWAP2 DUP3 ADD PUSH1 0x1F NOT AND DUP4 ADD SWAP2 PUSH1 0x1 PUSH1 0x1 PUSH1 0x40 SHL SUB DUP4 GT DUP5 DUP5 LT OR PUSH2 0xF6 JUMPI DUP1 DUP5 SWAP3 PUSH1 0x20 SWAP5 PUSH1 0x40 MSTORE DUP4 CODECOPY DUP2 ADD SUB SLT PUSH2 0xF2 JUMPI MLOAD PUSH1 0x1 PUSH1 0x1 PUSH1 0xA0 SHL SUB DUP2 AND SWAP1 DUP2 SWAP1 SUB PUSH2 0xF2 JUMPI CALLER ISZERO PUSH2 0xDF JUMPI PUSH0 DUP1 SLOAD CALLER PUSH1 0x1 PUSH1 0x1 PUSH1 0xA0 SHL SUB NOT DUP3 AND DUP2 OR DUP4 SSTORE PUSH1 0x40 MLOAD SWAP4 SWAP3 SWAP1 SWAP2 PUSH1 0x1 PUSH1 0x1 PUSH1 0xA0 SHL SUB AND SWAP1 PUSH32 0x8BE0079C531659141344CD1FD0A4F28419497F9722A3DAAFE3B4186F6B6457E0 SWAP1 DUP1 LOG3 PUSH1 0x1 PUSH32 0x9B779B17422D0DF92223018B32B4D1FA46E071723D6817E2486D003BECC55F00 SSTORE PUSH1 0x1 DUP1 PUSH1 0xA0 SHL SUB NOT PUSH1 0x1 SLOAD AND OR PUSH1 0x1 SSTORE PUSH2 0x49FB SWAP1 DUP2 PUSH2 0x10B DUP3 CODECOPY RETURN JUMPDEST PUSH4 0x1E4FBDF7 PUSH1 0xE0 SHL PUSH0 MSTORE PUSH0 PUSH1 0x4 MSTORE PUSH1 0x24 PUSH0 REVERT JUMPDEST PUSH0 DUP1 REVERT JUMPDEST PUSH4 0x4E487B71 PUSH1 0xE0 SHL PUSH0 MSTORE PUSH1 0x41 PUSH1 0x4 MSTORE PUSH1 0x24 PUSH0 REVERT INVALID PUSH1 0x80 PUSH1 0x40 MSTORE PUSH1 0x4 CALLDATASIZE LT ISZERO PUSH2 0x11 JUMPI PUSH0 DUP1 REVERT JUMPDEST PUSH0 CALLDATALOAD PUSH1 0xE0 SHR DUP1 PUSH4 0x201738E2 EQ PUSH2 0x23BA JUMPI DUP1 PUSH4 0x29DE58D1 EQ PUSH2 0x228B JUMPI DUP1 PUSH4 0x2DC6D62F EQ PUSH2 0x20EF JUMPI DUP1 PUSH4 0x3CCFD60B EQ PUSH2 0x20AA JUMPI DUP1 PUSH4 0x3F4BA83A EQ PUSH2 0x203E JUMPI DUP1 PUSH4 0x49C7C24A EQ PUSH2 0x1F7E JUMPI DUP1 PUSH4 0x4E178659 EQ PUSH2 0x1F33 JUMPI DUP1 PUSH4 0x4EF2D6C1 EQ PUSH2 0x1EEA JUMPI DUP1 PUSH4 0x51BDAB14 EQ PUSH2 0xC21 JUMPI DUP1 PUSH4 0x5C975ABB EQ PUSH2 0xBFD JUMPI DUP1 PUSH4 0x6154EE97 EQ PUSH2 0xB8B JUMPI DUP1 PUSH4 0x705FE4BE EQ PUSH2 0x9C6 JUMPI DUP1 PUSH4 0x715018A6 EQ PUSH2 0xB34 JUMPI DUP1 PUSH4 0x732E9B85 EQ PUSH2 0xAD9 JUMPI DUP1 PUSH4 0x7E5C4F8B EQ PUSH2 0xA96 JUMPI DUP1 PUSH4 0x8456CB59 EQ PUSH2 0xA36 JUMPI DUP1 PUSH4 0x84D38FDC EQ PUSH2 0x9F2 JUMPI DUP1 PUSH4 0x8DA5CB5B EQ PUSH2 0x9CB JUMPI DUP1 PUSH4 0x9F51758E EQ PUSH2 0x9C6 JUMPI DUP1 PUSH4 0xA95DB7E2 EQ PUSH2 0x928 JUMPI DUP1 PUSH4 0xAEB5F760 EQ PUSH2 0x827 JUMPI DUP1 PUSH4 0xB2A47500 EQ PUSH2 0x7E4 JUMPI DUP1 PUSH4 0xB654823E EQ PUSH2 0x5C8 JUMPI DUP1 PUSH4 0xB78F4C70 EQ PUSH2 0x58B JUMPI DUP1 PUSH4 0xB92A40AD EQ PUSH2 0x563 JUMPI DUP1 PUSH4 0xBB15A3B4 EQ PUSH2 0x4E5 JUMPI DUP1 PUSH4 0xBBE15627 EQ PUSH2 0x468 JUMPI DUP1 PUSH4 0xC4F036C4 EQ PUSH2 0x420 JUMPI DUP1 PUSH4 0xC99AE45F EQ PUSH2 0x357 JUMPI DUP1 PUSH4 0xD5654AE7 EQ PUSH2 0x32F JUMPI DUP1 PUSH4 0xD6691C27 EQ PUSH2 0x28B JUMPI DUP1 PUSH4 0xEDA34845 EQ PUSH2 0x270 JUMPI DUP1 PUSH4 0xF2FDE38B EQ PUSH2 0x1EB JUMPI PUSH4 0xF5905CA1 EQ PUSH2 0x18F JUMPI PUSH0 DUP1 REVERT JUMPDEST CALLVALUE PUSH2 0x1E7 JUMPI PUSH1 0x40 CALLDATASIZE PUSH1 0x3 NOT ADD SLT PUSH2 0x1E7 JUMPI PUSH2 0x1A8 PUSH2 0x2712 JUMP JUMPDEST PUSH1 0x1 PUSH1 0x1 PUSH1 0xA0 SHL SUB AND PUSH0 SWAP1 DUP2 MSTORE PUSH1 0x7 PUSH1 0x20 MSTORE PUSH1 0x40 SWAP1 KECCAK256 DUP1 SLOAD PUSH1 0x24 CALLDATALOAD SWAP2 SWAP1 DUP3 LT ISZERO PUSH2 0x1E7 JUMPI PUSH1 0x20 SWAP2 PUSH2 0x1D8 SWAP2 PUSH2 0x2954 JUMP JUMPDEST SWAP1 SLOAD SWAP1 PUSH1 0x3 SHL SHR PUSH1 0x40 MLOAD SWAP1 DUP2 MSTORE RETURN JUMPDEST PUSH0 DUP1 REVERT JUMPDEST CALLVALUE PUSH2 0x1E7 JUMPI PUSH1 0x20 CALLDATASIZE PUSH1 0x3 NOT ADD SLT PUSH2 0x1E7 JUMPI PUSH2 0x204 PUSH2 0x2712 JUMP JUMPDEST PUSH2 0x20C PUSH2 0x33B6 JUMP JUMPDEST PUSH1 0x1 PUSH1 0x1 PUSH1 0xA0 SHL SUB AND DUP1 ISZERO PUSH2 0x25D JUMPI PUSH0 DUP1 SLOAD PUSH1 0x1 PUSH1 0x1 PUSH1 0xA0 SHL SUB NOT DUP2 AND DUP4 OR DUP3 SSTORE PUSH1 0x1 PUSH1 0x1 PUSH1 0xA0 SHL SUB AND SWAP1 PUSH32 0x8BE0079C531659141344CD1FD0A4F28419497F9722A3DAAFE3B4186F6B6457E0 SWAP1 DUP1 LOG3 STOP JUMPDEST PUSH4 0x1E4FBDF7 PUSH1 0xE0 SHL PUSH0 MSTORE PUSH0 PUSH1 0x4 MSTORE PUSH1 0x24 PUSH0 REVERT JUMPDEST CALLVALUE PUSH2 0x1E7 JUMPI PUSH0 CALLDATASIZE PUSH1 0x3 NOT ADD SLT PUSH2 0x1E7 JUMPI PUSH1 0x20 PUSH1 0x40 MLOAD PUSH1 0x3 DUP2 MSTORE RETURN JUMPDEST CALLVALUE PUSH2 0x1E7 JUMPI PUSH1 0x40 CALLDATASIZE PUSH1 0x3 NOT ADD SLT PUSH2 0x1E7 JUMPI PUSH2 0x2A4 PUSH2 0x2712 JUMP JUMPDEST PUSH1 0x1 PUSH1 0x1 PUSH1 0xA0 SHL SUB AND PUSH0 SWAP1 DUP2 MSTORE PUSH1 0x5 PUSH1 0x20 MSTORE PUSH1 0x40 SWAP1 KECCAK256 DUP1 SLOAD PUSH1 0x24 CALLDATALOAD SWAP1 DUP2 LT ISZERO PUSH2 0x1E7 JUMPI PUSH2 0x2D0 SWAP2 PUSH2 0x2A6E JUMP JUMPDEST POP PUSH1 0xFF DUP2 SLOAD AND SWAP1 PUSH2 0x32B PUSH1 0x2 PUSH1 0x1 DUP4 ADD SLOAD SWAP3 ADD SLOAD PUSH1 0x40 MLOAD SWAP4 DUP5 SWAP4 PUSH1 0xFF DUP4 PUSH1 0x38 SHR AND SWAP3 PUSH1 0xFF DUP2 PUSH1 0x30 SHR AND SWAP3 PUSH1 0xFF DUP3 PUSH1 0x28 SHR AND SWAP3 PUSH1 0xFF DUP4 PUSH1 0x20 SHR AND SWAP3 PUSH1 0xFF DUP2 PUSH1 0x18 SHR AND SWAP3 PUSH1 0xFF DUP3 PUSH1 0x10 SHR AND SWAP3 PUSH1 0xFF DUP1 DUP5 PUSH1 0x8 SHR AND SWAP4 AND SWAP2 DUP12 PUSH2 0x29FF JUMP JUMPDEST SUB SWAP1 RETURN JUMPDEST CALLVALUE PUSH2 0x1E7 JUMPI PUSH0 CALLDATASIZE PUSH1 0x3 NOT ADD SLT PUSH2 0x1E7 JUMPI PUSH1 0x2 SLOAD PUSH1 0x40 MLOAD PUSH1 0x1 PUSH1 0x1 PUSH1 0xA0 SHL SUB SWAP1 SWAP2 AND DUP2 MSTORE PUSH1 0x20 SWAP1 RETURN JUMPDEST CALLVALUE PUSH2 0x1E7 JUMPI PUSH1 0x20 CALLDATASIZE PUSH1 0x3 NOT ADD SLT PUSH2 0x1E7 JUMPI PUSH1 0x1 PUSH1 0x1 PUSH1 0xA0 SHL SUB PUSH2 0x378 PUSH2 0x2712 JUMP JUMPDEST AND PUSH0 MSTORE PUSH1 0x5 PUSH1 0x20 MSTORE PUSH1 0x40 PUSH0 KECCAK256 DUP1 SLOAD SWAP1 PUSH2 0x390 DUP3 PUSH2 0x2E4C JUMP JUMPDEST SWAP2 PUSH2 0x39E PUSH1 0x40 MLOAD SWAP4 DUP5 PUSH2 0x2B2E JUMP JUMPDEST DUP1 DUP4 MSTORE PUSH1 0x20 DUP4 ADD DUP1 SWAP3 PUSH0 MSTORE PUSH1 0x20 PUSH0 KECCAK256 PUSH0 SWAP2 JUMPDEST DUP4 DUP4 LT PUSH2 0x402 JUMPI DUP5 DUP7 PUSH1 0x40 MLOAD SWAP2 DUP3 SWAP2 PUSH1 0x20 DUP4 ADD SWAP1 PUSH1 0x20 DUP5 MSTORE MLOAD DUP1 SWAP2 MSTORE PUSH1 0x40 DUP4 ADD SWAP2 SWAP1 PUSH0 JUMPDEST DUP2 DUP2 LT PUSH2 0x3E2 JUMPI POP POP POP SUB SWAP1 RETURN JUMPDEST SWAP2 SWAP4 POP SWAP2 PUSH1 0x20 PUSH2 0x3F5 PUSH1 0x1 SWAP3 DUP7 MLOAD PUSH2 0x28A2 JUMP JUMPDEST SWAP5 ADD SWAP2 ADD SWAP2 DUP5 SWAP4 SWAP3 PUSH2 0x3D4 JUMP JUMPDEST PUSH1 0x3 PUSH1 0x20 PUSH1 0x1 SWAP3 PUSH2 0x412 DUP6 PUSH2 0x317A JUMP JUMPDEST DUP2 MSTORE ADD SWAP3 ADD SWAP3 ADD SWAP2 SWAP1 PUSH2 0x3B0 JUMP JUMPDEST CALLVALUE PUSH2 0x1E7 JUMPI PUSH1 0x40 CALLDATASIZE PUSH1 0x3 NOT ADD SLT PUSH2 0x1E7 JUMPI PUSH2 0x439 PUSH2 0x2712 JUMP JUMPDEST PUSH1 0x1 PUSH1 0x1 PUSH1 0xA0 SHL SUB AND PUSH0 SWAP1 DUP2 MSTORE PUSH1 0x8 PUSH1 0x20 MSTORE PUSH1 0x40 SWAP1 KECCAK256 PUSH1 0x24 CALLDATALOAD PUSH1 0x3 DUP2 LT ISZERO PUSH2 0x1E7 JUMPI PUSH1 0x20 SWAP2 ADD SLOAD PUSH1 0x40 MLOAD SWAP1 DUP2 MSTORE RETURN JUMPDEST CALLVALUE PUSH2 0x1E7 JUMPI PUSH1 0x20 CALLDATASIZE PUSH1 0x3 NOT ADD SLT PUSH2 0x1E7 JUMPI PUSH1 0x1 PUSH1 0x1 PUSH1 0xA0 SHL SUB PUSH2 0x489 PUSH2 0x2712 JUMP JUMPDEST AND PUSH0 MSTORE PUSH1 0x3 PUSH1 0x20 MSTORE PUSH1 0xC0 PUSH1 0x40 PUSH0 KECCAK256 PUSH1 0xFF DUP2 SLOAD SWAP2 PUSH1 0x1 DUP2 ADD SLOAD SWAP1 PUSH1 0x3 PUSH1 0x2 DUP3 ADD SLOAD SWAP2 ADD SLOAD SWAP2 PUSH4 0xFFFFFFFF PUSH1 0x40 MLOAD SWAP6 PUSH2 0xFFFF DUP2 AND DUP8 MSTORE PUSH1 0x10 SHR AND PUSH1 0x20 DUP7 ADD MSTORE PUSH1 0x40 DUP6 ADD MSTORE PUSH1 0x60 DUP5 ADD MSTORE PUSH2 0xFFFF DUP2 AND PUSH1 0x80 DUP5 ADD MSTORE PUSH1 0x10 SHR AND PUSH1 0xA0 DUP3 ADD MSTORE RETURN JUMPDEST CALLVALUE PUSH2 0x1E7 JUMPI PUSH1 0x20 CALLDATASIZE PUSH1 0x3 NOT ADD SLT PUSH2 0x1E7 JUMPI PUSH1 0x1 PUSH1 0x1 PUSH1 0xA0 SHL SUB PUSH2 0x506 PUSH2 0x2712 JUMP JUMPDEST AND PUSH0 MSTORE PUSH1 0x7 PUSH1 0x20 MSTORE PUSH1 0x40 PUSH0 KECCAK256 PUSH1 0x40 MLOAD SWAP1 DUP2 PUSH1 0x20 DUP3 SLOAD SWAP2 DUP3 DUP2 MSTORE ADD SWAP2 PUSH0 MSTORE PUSH1 0x20 PUSH0 KECCAK256 SWAP1 PUSH0 JUMPDEST DUP2 DUP2 LT PUSH2 0x54D JUMPI PUSH2 0x32B DUP6 PUSH2 0x541 DUP2 DUP8 SUB DUP3 PUSH2 0x2B2E JUMP JUMPDEST PUSH1 0x40 MLOAD SWAP2 DUP3 SWAP2 DUP3 PUSH2 0x2999 JUMP JUMPDEST DUP3 SLOAD DUP5 MSTORE PUSH1 0x20 SWAP1 SWAP4 ADD SWAP3 PUSH1 0x1 SWAP3 DUP4 ADD SWAP3 ADD PUSH2 0x52A JUMP JUMPDEST CALLVALUE PUSH2 0x1E7 JUMPI PUSH0 CALLDATASIZE PUSH1 0x3 NOT ADD SLT PUSH2 0x1E7 JUMPI PUSH1 0x1 SLOAD PUSH1 0x40 MLOAD PUSH1 0x1 PUSH1 0x1 PUSH1 0xA0 SHL SUB SWAP1 SWAP2 AND DUP2 MSTORE PUSH1 0x20 SWAP1 RETURN JUMPDEST CALLVALUE PUSH2 0x1E7 JUMPI PUSH1 0x20 CALLDATASIZE PUSH1 0x3 NOT ADD SLT PUSH2 0x1E7 JUMPI PUSH1 0x1 PUSH1 0x1 PUSH1 0xA0 SHL SUB PUSH2 0x5AC PUSH2 0x2712 JUMP JUMPDEST AND PUSH0 MSTORE PUSH1 0xB PUSH1 0x20 MSTORE PUSH1 0x20 PUSH1 0xFF PUSH1 0x40 PUSH0 KECCAK256 SLOAD AND PUSH1 0x40 MLOAD SWAP1 ISZERO ISZERO DUP2 MSTORE RETURN JUMPDEST PUSH1 0x20 CALLDATASIZE PUSH1 0x3 NOT ADD SLT PUSH2 0x1E7 JUMPI PUSH1 0x4 CALLDATALOAD PUSH2 0x5DF PUSH2 0x3347 JUMP JUMPDEST PUSH2 0x5E7 PUSH2 0x3364 JUMP JUMPDEST PUSH2 0x5F1 CALLVALUE ISZERO PUSH2 0x2BEF JUMP JUMPDEST PUSH1 0x3 DUP2 LT ISZERO PUSH2 0x7B0 JUMPI CALLER PUSH0 MSTORE PUSH1 0x4 PUSH1 0x20 MSTORE PUSH2 0x618 PUSH2 0x612 DUP3 PUSH1 0x40 PUSH0 KECCAK256 PUSH2 0x29EC JUMP JUMPDEST POP PUSH2 0x317A JUMP JUMPDEST SWAP1 DUP2 MLOAD ISZERO PUSH2 0x77D JUMPI PUSH1 0x1 DUP1 PUSH1 0xA0 SHL SUB PUSH1 0x2 SLOAD AND SWAP2 PUSH1 0xFF PUSH2 0x100 DUP3 ADD MLOAD AND PUSH1 0x6 DUP2 LT ISZERO PUSH2 0x769 JUMPI PUSH1 0x64 PUSH2 0x673 SWAP2 PUSH0 PUSH1 0xFF PUSH2 0x120 PUSH1 0x20 SWAP7 ADD MLOAD AND SWAP7 PUSH1 0x40 MLOAD SWAP8 DUP9 SWAP6 DUP7 SWAP5 PUSH4 0xF925B741 PUSH1 0xE0 SHL DUP7 MSTORE CALLER PUSH1 0x4 DUP8 ADD MSTORE PUSH1 0x24 DUP7 ADD SWAP1 PUSH2 0x333A JUMP JUMPDEST PUSH1 0x44 DUP5 ADD MSTORE GAS CALL SWAP2 DUP3 ISZERO PUSH2 0x75E JUMPI PUSH0 SWAP3 PUSH2 0x728 JUMPI JUMPDEST POP PUSH2 0x6B3 SWAP1 CALLER PUSH0 MSTORE PUSH1 0x7 PUSH1 0x20 MSTORE PUSH2 0x6A2 DUP4 PUSH1 0x40 PUSH0 KECCAK256 PUSH2 0x2C2F JUMP JUMPDEST CALLER PUSH0 MSTORE PUSH1 0x4 PUSH1 0x20 MSTORE PUSH1 0x40 PUSH0 KECCAK256 PUSH2 0x29EC JUMP JUMPDEST PUSH2 0x715 JUMPI PUSH0 DUP1 DUP3 SSTORE PUSH1 0x1 DUP3 ADD DUP2 SWAP1 SSTORE PUSH1 0x2 SWAP1 SWAP2 ADD SSTORE PUSH1 0x40 DUP1 MLOAD CALLER DUP2 MSTORE PUSH1 0x20 DUP2 ADD SWAP3 SWAP1 SWAP3 MSTORE PUSH32 0x79B5D5E09E50C5E7911836260A42A037177F8E4B1480CF79B3AFC0ABBA937A03 SWAP2 SWAP1 DUP2 SWAP1 DUP2 ADD JUMPDEST SUB SWAP1 LOG1 PUSH1 0x1 PUSH0 MLOAD PUSH1 0x20 PUSH2 0x49A6 PUSH0 CODECOPY PUSH0 MLOAD SWAP1 PUSH0 MSTORE SSTORE STOP JUMPDEST PUSH4 0x4E487B71 PUSH1 0xE0 SHL PUSH0 MSTORE PUSH0 PUSH1 0x4 MSTORE PUSH1 0x24 PUSH0 REVERT JUMPDEST SWAP1 SWAP2 POP PUSH1 0x20 DUP2 RETURNDATASIZE PUSH1 0x20 GT PUSH2 0x756 JUMPI JUMPDEST DUP2 PUSH2 0x744 PUSH1 0x20 SWAP4 DUP4 PUSH2 0x2B2E JUMP JUMPDEST DUP2 ADD SUB SLT PUSH2 0x1E7 JUMPI MLOAD SWAP1 PUSH2 0x6B3 PUSH2 0x688 JUMP JUMPDEST RETURNDATASIZE SWAP2 POP PUSH2 0x737 JUMP JUMPDEST PUSH1 0x40 MLOAD RETURNDATASIZE PUSH0 DUP3 RETURNDATACOPY RETURNDATASIZE SWAP1 REVERT JUMPDEST PUSH4 0x4E487B71 PUSH1 0xE0 SHL PUSH0 MSTORE PUSH1 0x21 PUSH1 0x4 MSTORE PUSH1 0x24 PUSH0 REVERT JUMPDEST PUSH1 0x40 MLOAD PUSH3 0x461BCD PUSH1 0xE5 SHL DUP2 MSTORE PUSH1 0x20 PUSH1 0x4 DUP3 ADD MSTORE PUSH1 0xB PUSH1 0x24 DUP3 ADD MSTORE PUSH11 0x4E6F7420612072656C6963 PUSH1 0xA8 SHL PUSH1 0x44 DUP3 ADD MSTORE PUSH1 0x64 SWAP1 REVERT JUMPDEST PUSH1 0x40 MLOAD PUSH3 0x461BCD PUSH1 0xE5 SHL DUP2 MSTORE PUSH1 0x20 PUSH1 0x4 DUP3 ADD MSTORE PUSH1 0xC PUSH1 0x24 DUP3 ADD MSTORE PUSH12 0x125B9D985B1A59081CDB1BDD PUSH1 0xA2 SHL PUSH1 0x44 DUP3 ADD MSTORE PUSH1 0x64 SWAP1 REVERT JUMPDEST CALLVALUE PUSH2 0x1E7 JUMPI PUSH1 0x20 CALLDATASIZE PUSH1 0x3 NOT ADD SLT PUSH2 0x1E7 JUMPI PUSH2 0x7FD PUSH2 0x2712 JUMP JUMPDEST PUSH2 0x805 PUSH2 0x33B6 JUMP JUMPDEST PUSH1 0x2 DUP1 SLOAD PUSH1 0x1 PUSH1 0x1 PUSH1 0xA0 SHL SUB NOT AND PUSH1 0x1 PUSH1 0x1 PUSH1 0xA0 SHL SUB SWAP3 SWAP1 SWAP3 AND SWAP2 SWAP1 SWAP2 OR SWAP1 SSTORE STOP JUMPDEST CALLVALUE PUSH2 0x1E7 JUMPI PUSH1 0x40 CALLDATASIZE PUSH1 0x3 NOT ADD SLT PUSH2 0x1E7 JUMPI PUSH2 0x840 PUSH2 0x2712 JUMP JUMPDEST PUSH1 0x1 PUSH1 0x1 PUSH1 0xA0 SHL SUB AND PUSH0 SWAP1 DUP2 MSTORE PUSH1 0xC PUSH1 0x20 MSTORE PUSH1 0x40 SWAP1 KECCAK256 DUP1 SLOAD PUSH1 0x24 CALLDATALOAD SWAP2 SWAP1 DUP3 LT ISZERO PUSH2 0x1E7 JUMPI PUSH2 0xFFFF SWAP2 PUSH2 0x871 SWAP2 PUSH2 0x2A6E JUMP JUMPDEST POP DUP1 SLOAD SWAP1 PUSH1 0xFF PUSH2 0x8F8 PUSH1 0x2 PUSH2 0x888 PUSH1 0x1 DUP6 ADD PUSH2 0x2B4F JUMP JUMPDEST SWAP4 ADD SLOAD SWAP3 PUSH1 0x40 MLOAD SWAP6 DUP6 DUP5 DUP9 SWAP8 AND DUP8 MSTORE DUP5 DUP2 PUSH1 0x8 SHR AND ISZERO ISZERO PUSH1 0x20 DUP9 ADD MSTORE DUP5 DUP2 PUSH1 0x10 SHR AND PUSH1 0x40 DUP9 ADD MSTORE DUP5 DUP2 PUSH1 0x18 SHR AND PUSH1 0x60 DUP9 ADD MSTORE DUP2 DUP2 PUSH1 0x20 SHR AND PUSH1 0x80 DUP9 ADD MSTORE DUP2 DUP2 PUSH1 0x30 SHR AND PUSH1 0xA0 DUP9 ADD MSTORE DUP2 DUP2 PUSH1 0x40 SHR AND PUSH1 0xC0 DUP9 ADD MSTORE PUSH1 0x50 SHR AND PUSH1 0xE0 DUP7 ADD MSTORE PUSH2 0x1A0 PUSH2 0x100 DUP7 ADD MSTORE PUSH2 0x1A0 DUP6 ADD SWAP1 PUSH2 0x2728 JUMP JUMPDEST SWAP2 DUP2 DUP2 AND PUSH2 0x120 DUP6 ADD MSTORE DUP2 DUP2 PUSH1 0x8 SHR AND PUSH2 0x140 DUP6 ADD MSTORE DUP2 DUP2 PUSH1 0x10 SHR AND PUSH2 0x160 DUP6 ADD MSTORE PUSH1 0x18 SHR AND PUSH2 0x180 DUP4 ADD MSTORE SUB SWAP1 RETURN JUMPDEST CALLVALUE PUSH2 0x1E7 JUMPI PUSH1 0x20 CALLDATASIZE PUSH1 0x3 NOT ADD SLT PUSH2 0x1E7 JUMPI PUSH2 0x941 PUSH2 0x2712 JUMP JUMPDEST PUSH1 0x60 SWAP1 DUP2 PUSH1 0x40 MLOAD PUSH2 0x952 DUP3 DUP3 PUSH2 0x2B2E JUMP JUMPDEST CALLDATASIZE SWAP1 CALLDATACOPY PUSH1 0x1 PUSH1 0x1 PUSH1 0xA0 SHL SUB AND PUSH0 SWAP1 DUP2 MSTORE PUSH1 0x8 PUSH1 0x20 MSTORE PUSH1 0x40 DUP1 DUP3 KECCAK256 SWAP1 MLOAD SWAP2 DUP3 JUMPDEST PUSH1 0x3 DUP3 LT PUSH2 0x9B0 JUMPI POP POP POP PUSH2 0x986 DUP3 DUP3 PUSH2 0x2B2E JUMP JUMPDEST PUSH1 0x40 MLOAD SWAP1 PUSH0 DUP3 JUMPDEST PUSH1 0x3 DUP3 LT PUSH2 0x99A JUMPI POP POP POP RETURN JUMPDEST PUSH1 0x20 DUP1 PUSH1 0x1 SWAP3 DUP6 MLOAD DUP2 MSTORE ADD SWAP4 ADD SWAP2 ADD SWAP1 SWAP2 PUSH2 0x98D JUMP JUMPDEST PUSH1 0x1 PUSH1 0x20 DUP2 SWAP3 DUP6 SLOAD DUP2 MSTORE ADD SWAP4 ADD SWAP2 ADD SWAP1 SWAP2 PUSH2 0x971 JUMP JUMPDEST PUSH2 0x29D2 JUMP JUMPDEST CALLVALUE PUSH2 0x1E7 JUMPI PUSH0 CALLDATASIZE PUSH1 0x3 NOT ADD SLT PUSH2 0x1E7 JUMPI PUSH0 SLOAD PUSH1 0x40 MLOAD PUSH1 0x1 PUSH1 0x1 PUSH1 0xA0 SHL SUB SWAP1 SWAP2 AND DUP2 MSTORE PUSH1 0x20 SWAP1 RETURN JUMPDEST CALLVALUE PUSH2 0x1E7 JUMPI PUSH1 0x40 CALLDATASIZE PUSH1 0x3 NOT ADD SLT PUSH2 0x1E7 JUMPI PUSH2 0xA0B PUSH2 0x2712 JUMP JUMPDEST PUSH1 0x1 PUSH1 0x1 PUSH1 0xA0 SHL SUB AND PUSH0 SWAP1 DUP2 MSTORE PUSH1 0x4 PUSH1 0x20 MSTORE PUSH1 0x40 SWAP1 KECCAK256 PUSH1 0x24 CALLDATALOAD PUSH1 0x3 DUP2 LT ISZERO PUSH2 0x1E7 JUMPI PUSH2 0x2D0 SWAP2 PUSH2 0x29EC JUMP JUMPDEST CALLVALUE PUSH2 0x1E7 JUMPI PUSH0 CALLDATASIZE PUSH1 0x3 NOT ADD SLT PUSH2 0x1E7 JUMPI PUSH2 0xA4E PUSH2 0x33B6 JUMP JUMPDEST PUSH2 0xA56 PUSH2 0x3347 JUMP JUMPDEST PUSH0 DUP1 SLOAD PUSH1 0xFF PUSH1 0xA0 SHL NOT AND PUSH1 0x1 PUSH1 0xA0 SHL OR SWAP1 SSTORE PUSH1 0x40 MLOAD CALLER DUP2 MSTORE PUSH32 0x62E78CEA01BEE320CD4E420270B5EA74000D11B0C9F74754EBDBFC544B05A258 SWAP1 PUSH1 0x20 SWAP1 LOG1 STOP JUMPDEST CALLVALUE PUSH2 0x1E7 JUMPI PUSH1 0x20 CALLDATASIZE PUSH1 0x3 NOT ADD SLT PUSH2 0x1E7 JUMPI PUSH2 0xAAF PUSH2 0x2712 JUMP JUMPDEST PUSH2 0xAB7 PUSH2 0x33B6 JUMP JUMPDEST PUSH1 0x1 DUP1 SLOAD PUSH1 0x1 PUSH1 0x1 PUSH1 0xA0 SHL SUB NOT AND PUSH1 0x1 PUSH1 0x1 PUSH1 0xA0 SHL SUB SWAP3 SWAP1 SWAP3 AND SWAP2 SWAP1 SWAP2 OR SWAP1 SSTORE STOP JUMPDEST CALLVALUE PUSH2 0x1E7 JUMPI PUSH1 0x40 CALLDATASIZE PUSH1 0x3 NOT ADD SLT PUSH2 0x1E7 JUMPI PUSH2 0xAF2 PUSH2 0x2712 JUMP JUMPDEST PUSH1 0x1 PUSH1 0x1 PUSH1 0xA0 SHL SUB AND PUSH0 SWAP1 DUP2 MSTORE PUSH1 0xA PUSH1 0x20 MSTORE PUSH1 0x40 SWAP1 KECCAK256 DUP1 SLOAD PUSH1 0x24 CALLDATALOAD SWAP1 DUP2 LT ISZERO PUSH2 0x1E7 JUMPI PUSH2 0xB24 PUSH2 0xFFFF SWAP2 PUSH1 0x20 SWAP4 PUSH2 0x2933 JUMP JUMPDEST SWAP1 SLOAD SWAP1 PUSH1 0x3 SHL SHR AND PUSH1 0x40 MLOAD SWAP1 DUP2 MSTORE RETURN JUMPDEST CALLVALUE PUSH2 0x1E7 JUMPI PUSH0 CALLDATASIZE PUSH1 0x3 NOT ADD SLT PUSH2 0x1E7 JUMPI PUSH2 0xB4C PUSH2 0x33B6 JUMP JUMPDEST PUSH0 DUP1 SLOAD PUSH1 0x1 PUSH1 0x1 PUSH1 0xA0 SHL SUB NOT DUP2 AND DUP3 SSTORE PUSH1 0x1 PUSH1 0x1 PUSH1 0xA0 SHL SUB AND PUSH32 0x8BE0079C531659141344CD1FD0A4F28419497F9722A3DAAFE3B4186F6B6457E0 DUP3 DUP1 LOG3 STOP JUMPDEST CALLVALUE PUSH2 0x1E7 JUMPI PUSH1 0x20 CALLDATASIZE PUSH1 0x3 NOT ADD SLT PUSH2 0x1E7 JUMPI PUSH1 0x1 PUSH1 0x1 PUSH1 0xA0 SHL SUB PUSH2 0xBAC PUSH2 0x2712 JUMP JUMPDEST AND PUSH0 MSTORE PUSH1 0x6 PUSH1 0x20 MSTORE PUSH1 0x40 PUSH0 KECCAK256 PUSH1 0x40 MLOAD SWAP1 DUP2 PUSH1 0x20 DUP3 SLOAD SWAP2 DUP3 DUP2 MSTORE ADD SWAP2 PUSH0 MSTORE PUSH1 0x20 PUSH0 KECCAK256 SWAP1 PUSH0 JUMPDEST DUP2 DUP2 LT PUSH2 0xBE7 JUMPI PUSH2 0x32B DUP6 PUSH2 0x541 DUP2 DUP8 SUB DUP3 PUSH2 0x2B2E JUMP JUMPDEST DUP3 SLOAD DUP5 MSTORE PUSH1 0x20 SWAP1 SWAP4 ADD SWAP3 PUSH1 0x1 SWAP3 DUP4 ADD SWAP3 ADD PUSH2 0xBD0 JUMP JUMPDEST CALLVALUE PUSH2 0x1E7 JUMPI PUSH0 CALLDATASIZE PUSH1 0x3 NOT ADD SLT PUSH2 0x1E7 JUMPI PUSH1 0x20 PUSH1 0xFF PUSH0 SLOAD PUSH1 0xA0 SHR AND PUSH1 0x40 MLOAD SWAP1 ISZERO ISZERO DUP2 MSTORE RETURN JUMPDEST CALLVALUE PUSH2 0x1E7 JUMPI PUSH1 0x40 CALLDATASIZE PUSH1 0x3 NOT ADD SLT PUSH2 0x1E7 JUMPI PUSH1 0x4 CALLDATALOAD PUSH1 0x1 PUSH1 0x1 PUSH1 0x40 SHL SUB DUP2 GT PUSH2 0x1E7 JUMPI PUSH2 0xC51 SWAP1 CALLDATASIZE SWAP1 PUSH1 0x4 ADD PUSH2 0x2969 JUMP JUMPDEST SWAP1 PUSH1 0x24 CALLDATALOAD PUSH1 0x1 PUSH1 0x1 PUSH1 0x40 SHL SUB DUP2 GT PUSH2 0x1E7 JUMPI PUSH2 0xC71 SWAP1 CALLDATASIZE SWAP1 PUSH1 0x4 ADD PUSH2 0x2969 JUMP JUMPDEST SWAP2 SWAP1 SWAP3 PUSH2 0xC7C PUSH2 0x3347 JUMP JUMPDEST PUSH2 0xC84 PUSH2 0x3364 JUMP JUMPDEST PUSH1 0x4 DUP2 LT ISZERO DUP1 PUSH2 0x1EDF JUMPI JUMPDEST ISZERO PUSH2 0x1EA5 JUMPI PUSH1 0x3 DUP4 SUB PUSH2 0x1E51 JUMPI PUSH1 0x1 SLOAD SWAP3 SWAP4 PUSH1 0x1 PUSH1 0x1 PUSH1 0xA0 SHL SUB SWAP1 SWAP4 AND SWAP3 PUSH0 JUMPDEST DUP3 DUP2 LT ISZERO PUSH2 0xD78 JUMPI PUSH1 0x40 MLOAD PUSH4 0x31A9108F PUSH1 0xE1 SHL DUP2 MSTORE PUSH1 0x5 DUP3 SWAP1 SHL DUP6 ADD CALLDATALOAD PUSH1 0x4 DUP3 ADD MSTORE PUSH1 0x20 DUP2 PUSH1 0x24 DUP2 DUP10 GAS STATICCALL SWAP1 DUP2 ISZERO PUSH2 0x75E JUMPI PUSH0 SWAP2 PUSH2 0xD37 JUMPI JUMPDEST POP CALLER PUSH1 0x1 PUSH1 0x1 PUSH1 0xA0 SHL SUB SWAP1 SWAP2 AND SUB PUSH2 0xD02 JUMPI PUSH1 0x1 ADD PUSH2 0xCAF JUMP JUMPDEST PUSH1 0x40 MLOAD PUSH3 0x461BCD PUSH1 0xE5 SHL DUP2 MSTORE PUSH1 0x20 PUSH1 0x4 DUP3 ADD MSTORE PUSH1 0xD PUSH1 0x24 DUP3 ADD MSTORE PUSH13 0x139BDD081E5BDD5C881D5B9A5D PUSH1 0x9A SHL PUSH1 0x44 DUP3 ADD MSTORE PUSH1 0x64 SWAP1 REVERT JUMPDEST SWAP1 POP PUSH1 0x20 DUP2 RETURNDATASIZE DUP3 GT PUSH2 0xD70 JUMPI JUMPDEST DUP2 PUSH2 0xD51 PUSH1 0x20 SWAP4 DUP4 PUSH2 0x2B2E JUMP JUMPDEST DUP2 ADD SUB SLT PUSH2 0x1E7 JUMPI MLOAD PUSH1 0x1 PUSH1 0x1 PUSH1 0xA0 SHL SUB DUP2 AND DUP2 SUB PUSH2 0x1E7 JUMPI DUP8 PUSH2 0xCE8 JUMP JUMPDEST RETURNDATASIZE SWAP2 POP PUSH2 0xD44 JUMP JUMPDEST POP DUP3 DUP6 PUSH1 0x60 SWAP1 PUSH1 0x40 MLOAD PUSH2 0xD8B DUP4 DUP3 PUSH2 0x2B2E JUMP JUMPDEST DUP2 ISZERO PUSH2 0x1E3D JUMPI DUP5 CALLDATALOAD DUP2 MSTORE DUP2 PUSH1 0x1 LT ISZERO PUSH2 0x1E3D JUMPI PUSH1 0x20 DUP6 ADD CALLDATALOAD PUSH1 0x20 DUP3 ADD MSTORE DUP2 PUSH1 0x2 LT ISZERO PUSH2 0x1E3D JUMPI PUSH1 0x40 DUP6 ADD CALLDATALOAD PUSH1 0x40 DUP3 ADD MSTORE CALLER PUSH0 MSTORE PUSH1 0x8 PUSH1 0x20 MSTORE PUSH1 0x40 PUSH0 KECCAK256 SWAP1 PUSH0 JUMPDEST PUSH1 0x3 DUP2 LT PUSH2 0x1E29 JUMPI POP POP CALLER PUSH0 SWAP1 DUP2 MSTORE PUSH1 0x5 PUSH1 0x20 MSTORE PUSH1 0x40 SWAP1 KECCAK256 PUSH2 0xDEC SWAP2 POP PUSH2 0x3227 JUMP JUMPDEST SWAP5 DUP6 MLOAD ISZERO PUSH2 0x1E01 JUMPI JUMPDEST PUSH1 0x40 DUP1 MLOAD TIMESTAMP PUSH1 0x20 DUP3 ADD SWAP1 DUP2 MSTORE CALLER PUSH1 0x60 SHL PUSH12 0xFFFFFFFFFFFFFFFFFFFFFFFF NOT AND SWAP3 DUP3 ADD SWAP3 SWAP1 SWAP3 MSTORE PREVRANDAO PUSH1 0x54 DUP3 ADD MSTORE PUSH2 0xE38 DUP2 PUSH1 0x74 DUP2 ADD JUMPDEST SUB PUSH1 0x1F NOT DUP2 ADD DUP4 MSTORE DUP3 PUSH2 0x2B2E JUMP JUMPDEST MLOAD SWAP1 KECCAK256 SWAP6 CALLER PUSH0 MSTORE PUSH1 0x3 PUSH1 0x20 MSTORE PUSH2 0xE7B PUSH2 0xFFFF PUSH1 0x40 PUSH0 KECCAK256 SLOAD AND SWAP7 PUSH2 0xE73 PUSH1 0x1 SLOAD PUSH1 0x1 DUP1 PUSH1 0xA0 SHL SUB AND SWAP8 PUSH1 0x2 SLOAD PUSH1 0x1 DUP1 PUSH1 0xA0 SHL SUB AND SWAP6 CALLDATASIZE SWAP2 PUSH2 0x327D JUMP JUMPDEST SWAP5 CALLDATASIZE SWAP2 PUSH2 0x327D JUMP JUMPDEST PUSH2 0xE83 PUSH2 0x3988 JUMP JUMPDEST POP PUSH2 0xE8E DUP5 MLOAD PUSH2 0x3A84 JUMP JUMPDEST SWAP8 PUSH0 JUMPDEST DUP6 MLOAD DUP2 LT ISZERO PUSH2 0x1029 JUMPI PUSH2 0xEA4 DUP2 DUP8 PUSH2 0x32C9 JUMP JUMPDEST MLOAD SWAP1 PUSH1 0x40 MLOAD SWAP2 PUSH4 0xB2ADFDF PUSH1 0xE1 SHL DUP4 MSTORE PUSH1 0x4 DUP4 ADD MSTORE PUSH1 0xC0 DUP3 PUSH1 0x24 DUP2 DUP13 GAS STATICCALL SWAP2 DUP3 ISZERO PUSH2 0x75E JUMPI PUSH0 SWAP3 PUSH2 0xFF9 JUMPI JUMPDEST POP PUSH1 0x20 DUP3 ADD SWAP2 PUSH2 0xEE9 DUP4 MLOAD PUSH2 0xEE4 DUP2 PUSH2 0x288B JUMP JUMPDEST PUSH2 0x4615 JUMP JUMPDEST SWAP1 PUSH2 0xEFD PUSH1 0x80 DUP3 ADD SWAP3 PUSH1 0xFF DUP5 MLOAD AND SWAP1 PUSH2 0x465E JUMP JUMPDEST PUSH1 0xFF DUP1 DUP13 DUP5 ADD MLOAD AND SWAP4 MLOAD AND SWAP2 PUSH1 0xA0 DUP2 ADD SWAP6 PUSH1 0xFF DUP8 MLOAD AND SWAP3 PUSH2 0xF41 PUSH2 0xF2A DUP4 MLOAD PUSH2 0xF25 DUP2 PUSH2 0x288B JUMP JUMPDEST PUSH2 0x4672 JUMP JUMPDEST SWAP9 PUSH1 0xFF DUP5 MLOAD SWAP2 PUSH2 0xF39 DUP4 PUSH2 0x288B JUMP JUMPDEST MLOAD AND SWAP1 PUSH2 0x46A2 JUMP JUMPDEST PUSH1 0x40 DUP5 MLOAD SWAP4 PUSH2 0xF4F DUP6 PUSH2 0x288B JUMP JUMPDEST MLOAD SWAP5 PUSH2 0xF5A DUP7 PUSH2 0x288B JUMP JUMPDEST ADD MLOAD SWAP5 PUSH1 0x4 DUP7 LT ISZERO PUSH2 0x769 JUMPI DUP16 SWAP10 PUSH1 0x1 SWAP11 PUSH2 0xFFFF PUSH1 0xFF SWAP6 DUP7 SWAP5 PUSH2 0xFDD SWAP12 PUSH1 0x20 PUSH1 0x40 MLOAD SWAP15 DUP16 SWAP1 PUSH2 0xF88 DUP3 PUSH2 0x2B12 JUMP JUMPDEST DUP2 MSTORE ADD MSTORE PUSH1 0x40 DUP14 ADD MSTORE AND DUP1 SWAP2 DUP12 ADD MSTORE PUSH1 0x80 DUP11 ADD MSTORE AND PUSH1 0xA0 DUP9 ADD MSTORE AND PUSH1 0xC0 DUP7 ADD MSTORE PUSH0 PUSH1 0xE0 DUP7 ADD MSTORE PUSH0 PUSH2 0x100 DUP7 ADD MSTORE PUSH2 0xFBE DUP2 PUSH2 0x288B JUMP JUMPDEST PUSH2 0x120 DUP6 ADD MSTORE PUSH2 0xFCD DUP2 PUSH2 0x288B JUMP JUMPDEST PUSH2 0x140 DUP5 ADD MSTORE PUSH2 0x160 DUP4 ADD PUSH2 0x316E JUMP JUMPDEST PUSH2 0xFE7 DUP3 DUP14 PUSH2 0x32C9 JUMP JUMPDEST MSTORE PUSH2 0xFF2 DUP2 DUP13 PUSH2 0x32C9 JUMP JUMPDEST POP ADD PUSH2 0xE91 JUMP JUMPDEST PUSH2 0x101B SWAP2 SWAP3 POP PUSH1 0xC0 RETURNDATASIZE DUP2 GT PUSH2 0x1022 JUMPI JUMPDEST PUSH2 0x1013 DUP2 DUP4 PUSH2 0x2B2E JUMP JUMPDEST DUP2 ADD SWAP1 PUSH2 0x33EA JUMP JUMPDEST SWAP1 DUP12 PUSH2 0xED0 JUMP JUMPDEST POP RETURNDATASIZE PUSH2 0x1009 JUMP JUMPDEST POP DUP6 SWAP1 DUP10 SWAP3 SWAP5 PUSH2 0x1039 DUP11 DUP6 PUSH2 0x471C JUMP JUMPDEST PUSH0 SWAP5 JUMPDEST DUP7 MLOAD DUP7 LT ISZERO PUSH2 0x1357 JUMPI PUSH2 0x104F DUP7 DUP9 PUSH2 0x32C9 JUMP JUMPDEST MLOAD ISZERO PUSH2 0x134A JUMPI PUSH2 0x105F DUP7 DUP9 PUSH2 0x32C9 JUMP JUMPDEST MLOAD SWAP7 PUSH1 0x40 MLOAD SWAP8 PUSH4 0x68972D59 PUSH1 0xE0 SHL DUP10 MSTORE PUSH1 0x4 DUP10 ADD MSTORE PUSH0 DUP9 PUSH1 0x24 DUP2 DUP7 GAS STATICCALL SWAP8 DUP9 ISZERO PUSH2 0x75E JUMPI PUSH0 SWAP9 PUSH2 0x125D JUMPI JUMPDEST POP PUSH0 JUMPDEST DUP7 MLOAD DUP2 LT ISZERO PUSH2 0x1248 JUMPI DUP9 MLOAD PUSH1 0x6 DUP2 LT ISZERO PUSH2 0x769 JUMPI PUSH2 0x10D4 JUMPI PUSH1 0x1 SWAP1 PUSH1 0xFF PUSH1 0x20 DUP12 ADD MLOAD AND PUSH1 0xFF PUSH2 0x10CA PUSH2 0x10BF DUP5 DUP13 PUSH2 0x32C9 JUMP JUMPDEST MLOAD SWAP3 DUP3 DUP5 MLOAD AND PUSH2 0x2D23 JUMP JUMPDEST AND SWAP1 MSTORE JUMPDEST ADD PUSH2 0x108D JUMP JUMPDEST DUP9 MLOAD PUSH1 0x6 DUP2 LT ISZERO PUSH2 0x769 JUMPI PUSH1 0x1 SUB PUSH2 0x1117 JUMPI PUSH1 0x1 SWAP1 PUSH1 0xFF PUSH1 0x20 DUP12 ADD MLOAD AND PUSH1 0xFF PUSH2 0x110E PUSH1 0x20 PUSH2 0x1102 DUP6 DUP14 PUSH2 0x32C9 JUMP JUMPDEST MLOAD ADD SWAP3 DUP3 DUP5 MLOAD AND PUSH2 0x2D23 JUMP JUMPDEST AND SWAP1 MSTORE JUMPDEST PUSH2 0x10CE JUMP JUMPDEST DUP9 MLOAD PUSH1 0x6 DUP2 LT ISZERO PUSH2 0x769 JUMPI PUSH1 0x2 SUB PUSH2 0x1145 JUMPI PUSH1 0x1 SWAP1 PUSH1 0xFF PUSH1 0x20 DUP12 ADD MLOAD AND PUSH1 0xFF PUSH2 0x110E PUSH1 0x40 PUSH2 0x1102 DUP6 DUP14 PUSH2 0x32C9 JUMP JUMPDEST DUP9 MLOAD PUSH1 0x6 DUP2 LT ISZERO PUSH2 0x769 JUMPI PUSH1 0x3 SUB PUSH2 0x11F7 JUMPI PUSH2 0xFFFF DUP7 PUSH2 0x1165 DUP4 DUP11 PUSH2 0x32C9 JUMP JUMPDEST MLOAD ADD MLOAD AND SWAP1 PUSH1 0x3 PUSH2 0xFFFF PUSH1 0xFF PUSH1 0x20 DUP14 ADD MLOAD AND AND MUL PUSH2 0xFFFF DUP2 AND SWAP1 DUP2 SUB PUSH2 0x11E3 JUMPI PUSH2 0xFFFF AND PUSH1 0x64 ADD SWAP2 PUSH2 0xFFFF DUP4 GT PUSH2 0x11E3 JUMPI PUSH2 0xFFFF PUSH2 0x11A7 PUSH1 0x1 SWAP5 PUSH1 0x64 SWAP4 PUSH2 0x4645 JUMP JUMPDEST AND DIV PUSH2 0xFFFF DUP9 PUSH2 0x11B7 DUP5 DUP13 PUSH2 0x32C9 JUMP JUMPDEST MLOAD ADD SWAP2 AND SWAP1 MSTORE PUSH2 0xFFFF DUP8 PUSH2 0x11CB DUP4 DUP12 PUSH2 0x32C9 JUMP JUMPDEST MLOAD ADD MLOAD AND PUSH1 0x80 PUSH2 0x11DB DUP4 DUP12 PUSH2 0x32C9 JUMP JUMPDEST MLOAD ADD MSTORE PUSH2 0x10CE JUMP JUMPDEST PUSH4 0x4E487B71 PUSH1 0xE0 SHL PUSH0 MSTORE PUSH1 0x11 PUSH1 0x4 MSTORE PUSH1 0x24 PUSH0 REVERT JUMPDEST DUP9 MLOAD PUSH1 0x6 DUP2 LT ISZERO PUSH2 0x769 JUMPI PUSH1 0x4 SUB PUSH2 0x1225 JUMPI PUSH1 0x1 SWAP1 PUSH1 0xFF PUSH1 0x20 DUP12 ADD MLOAD AND PUSH1 0xFF PUSH2 0x110E PUSH1 0xA0 PUSH2 0x1102 DUP6 DUP14 PUSH2 0x32C9 JUMP JUMPDEST DUP9 MLOAD SWAP1 PUSH1 0x6 DUP3 LT ISZERO PUSH2 0x769 JUMPI PUSH1 0x5 PUSH1 0x1 SWAP3 SUB PUSH2 0x1112 JUMPI DUP2 PUSH1 0xE0 PUSH2 0x11DB DUP4 DUP12 PUSH2 0x32C9 JUMP JUMPDEST POP SWAP3 SWAP2 SWAP7 POP SWAP5 PUSH1 0x1 SWAP1 JUMPDEST ADD SWAP5 SWAP6 SWAP1 SWAP2 SWAP6 PUSH2 0x103C JUMP JUMPDEST SWAP1 SWAP8 POP RETURNDATASIZE DUP1 PUSH0 DUP4 RETURNDATACOPY PUSH2 0x126F DUP2 DUP4 PUSH2 0x2B2E JUMP JUMPDEST DUP2 ADD SWAP1 PUSH1 0x20 DUP2 DUP4 SUB SLT PUSH2 0x1E7 JUMPI DUP1 MLOAD SWAP1 PUSH1 0x1 PUSH1 0x1 PUSH1 0x40 SHL SUB DUP3 GT PUSH2 0x1E7 JUMPI ADD SWAP1 DUP6 DUP3 DUP3 SUB SLT PUSH2 0x1E7 JUMPI PUSH1 0x40 MLOAD SWAP2 PUSH2 0x12A5 DUP4 PUSH2 0x2ADB JUMP JUMPDEST DUP1 MLOAD PUSH1 0x6 DUP2 LT ISZERO PUSH2 0x1E7 JUMPI DUP4 MSTORE PUSH2 0x12BE PUSH1 0x20 DUP3 ADD PUSH2 0x33DC JUMP JUMPDEST PUSH1 0x20 DUP5 ADD MSTORE PUSH1 0x40 DUP2 ADD MLOAD SWAP1 PUSH1 0x1 PUSH1 0x1 PUSH1 0x40 SHL SUB DUP3 GT PUSH2 0x1E7 JUMPI ADD DUP2 PUSH1 0x1F DUP3 ADD SLT ISZERO PUSH2 0x1E7 JUMPI DUP1 MLOAD SWAP1 PUSH1 0x1 PUSH1 0x1 PUSH1 0x40 SHL SUB DUP3 GT PUSH2 0x1336 JUMPI PUSH1 0x40 MLOAD SWAP3 PUSH2 0x130C PUSH1 0x1F DUP5 ADD PUSH1 0x1F NOT AND PUSH1 0x20 ADD DUP6 PUSH2 0x2B2E JUMP JUMPDEST DUP3 DUP5 MSTORE PUSH1 0x20 DUP4 DUP4 ADD ADD GT PUSH2 0x1E7 JUMPI DUP2 PUSH0 SWAP3 PUSH1 0x20 DUP1 SWAP4 ADD DUP4 DUP7 ADD MCOPY DUP4 ADD ADD MSTORE PUSH1 0x40 DUP3 ADD MSTORE SWAP7 DUP9 PUSH2 0x108A JUMP JUMPDEST PUSH4 0x4E487B71 PUSH1 0xE0 SHL PUSH0 MSTORE PUSH1 0x41 PUSH1 0x4 MSTORE PUSH1 0x24 PUSH0 REVERT JUMPDEST SWAP5 PUSH1 0x1 SWAP1 SWAP7 SWAP3 SWAP2 SWAP7 PUSH2 0x1252 JUMP JUMPDEST SWAP2 SWAP5 POP POP PUSH2 0x1365 DUP2 MLOAD PUSH2 0x3A84 JUMP JUMPDEST SWAP4 PUSH0 JUMPDEST DUP3 MLOAD DUP2 LT ISZERO PUSH2 0x1432 JUMPI PUSH2 0x137B DUP2 DUP5 PUSH2 0x32C9 JUMP JUMPDEST MLOAD SWAP1 DUP5 DUP3 ADD SWAP2 PUSH2 0x138F DUP4 MLOAD PUSH2 0xEE4 DUP2 PUSH2 0x288B JUMP JUMPDEST SWAP1 PUSH2 0x13A3 PUSH1 0xC0 DUP3 ADD SWAP3 PUSH1 0xFF DUP5 MLOAD AND SWAP1 PUSH2 0x465E JUMP JUMPDEST PUSH1 0xFF DUP1 PUSH1 0xA0 DUP5 ADD MLOAD AND SWAP4 MLOAD AND SWAP2 PUSH1 0xE0 DUP2 ADD SWAP6 PUSH1 0xFF DUP8 MLOAD AND SWAP4 PUSH2 0x13CC PUSH2 0xF2A DUP4 MLOAD PUSH2 0xF25 DUP2 PUSH2 0x288B JUMP JUMPDEST PUSH1 0x80 PUSH1 0x40 DUP6 ADD MLOAD SWAP4 PUSH2 0x13DD DUP6 PUSH2 0x288B JUMP JUMPDEST MLOAD SWAP5 PUSH2 0x13E8 DUP7 PUSH2 0x288B JUMP JUMPDEST ADD MLOAD SWAP5 PUSH1 0x4 DUP7 LT ISZERO PUSH2 0x769 JUMPI PUSH1 0x1 SWAP10 DUP14 PUSH2 0xFFFF PUSH1 0xFF SWAP6 SWAP4 PUSH2 0x1416 SWAP11 DUP8 SWAP6 PUSH1 0x20 PUSH1 0x40 MLOAD SWAP15 DUP16 SWAP1 PUSH2 0xF88 DUP3 PUSH2 0x2B12 JUMP JUMPDEST PUSH2 0x1420 DUP3 DUP10 PUSH2 0x32C9 JUMP JUMPDEST MSTORE PUSH2 0x142B DUP2 DUP9 PUSH2 0x32C9 JUMP JUMPDEST POP ADD PUSH2 0x1368 JUMP JUMPDEST POP DUP3 DUP5 DUP7 PUSH2 0x143F DUP3 PUSH2 0x3B30 JUMP JUMPDEST PUSH2 0x1448 DUP2 PUSH2 0x3B30 JUMP JUMPDEST PUSH2 0x1452 DUP3 MLOAD PUSH2 0x39BC JUMP JUMPDEST SWAP4 PUSH2 0x145D DUP3 MLOAD PUSH2 0x39BC JUMP JUMPDEST SWAP1 PUSH0 JUMPDEST DUP5 MLOAD DUP2 LT ISZERO PUSH2 0x1490 JUMPI DUP1 PUSH2 0xFFFF PUSH1 0x80 PUSH2 0x147B PUSH1 0x1 SWAP5 DUP10 PUSH2 0x32C9 JUMP JUMPDEST MLOAD ADD MLOAD AND PUSH2 0x1489 DUP3 DUP11 PUSH2 0x32C9 JUMP JUMPDEST MSTORE ADD PUSH2 0x1460 JUMP JUMPDEST POP SWAP1 SWAP2 SWAP4 DUP6 PUSH0 JUMPDEST DUP7 MLOAD DUP2 LT ISZERO PUSH2 0x14C7 JUMPI DUP1 PUSH2 0xFFFF PUSH1 0x80 PUSH2 0x14B2 PUSH1 0x1 SWAP5 DUP12 PUSH2 0x32C9 JUMP JUMPDEST MLOAD ADD MLOAD AND PUSH2 0x14C0 DUP3 DUP9 PUSH2 0x32C9 JUMP JUMPDEST MSTORE ADD PUSH2 0x1497 JUMP JUMPDEST POP SWAP2 SWAP4 SWAP1 SWAP2 SWAP1 DUP6 PUSH1 0x40 MLOAD SWAP6 PUSH2 0xF20 PUSH2 0x14DF DUP2 DUP10 PUSH2 0x2B2E JUMP JUMPDEST PUSH1 0x78 DUP9 MSTORE PUSH1 0x1F NOT ADD PUSH0 JUMPDEST DUP2 DUP2 LT PUSH2 0x1D98 JUMPI POP POP PUSH0 SWAP3 PUSH1 0x1 JUMPDEST PUSH1 0x12 PUSH1 0xFF DUP3 AND GT ISZERO PUSH2 0x1C67 JUMPI JUMPDEST POP POP POP PUSH2 0x1510 SWAP1 PUSH2 0x3C37 JUMP JUMPDEST ISZERO SWAP1 PUSH2 0x151B DUP2 PUSH2 0x2E4C JUMP JUMPDEST SWAP6 PUSH2 0x1529 PUSH1 0x40 MLOAD SWAP8 DUP9 PUSH2 0x2B2E JUMP JUMPDEST DUP2 DUP8 MSTORE PUSH1 0x1F NOT PUSH2 0x1538 DUP4 PUSH2 0x2E4C JUMP JUMPDEST ADD PUSH0 JUMPDEST DUP2 DUP2 LT PUSH2 0x1BFE JUMPI POP POP PUSH0 JUMPDEST DUP3 DUP2 LT PUSH2 0x1BD4 JUMPI POP POP POP PUSH2 0x1558 PUSH2 0x3988 JUMP JUMPDEST SWAP1 DUP2 MSTORE PUSH1 0x20 DUP2 ADD SWAP5 DUP6 MSTORE PUSH1 0x40 DUP2 ADD SWAP2 DUP3 MSTORE DUP3 DUP2 ADD SWAP4 DUP5 MSTORE DUP1 MLOAD ISZERO ISZERO CALLER PUSH0 MSTORE PUSH1 0x3 PUSH1 0x20 MSTORE PUSH1 0x40 PUSH0 KECCAK256 SWAP1 PUSH0 EQ PUSH2 0x1B76 JUMPI PUSH1 0x1 DUP2 ADD PUSH2 0x1594 DUP2 SLOAD PUSH2 0x3A03 JUMP JUMPDEST DUP2 SSTORE PUSH2 0xFFFF DUP1 PUSH1 0x3 DUP1 DUP6 ADD SWAP4 PUSH2 0x15CB PUSH2 0x15B3 PUSH1 0xFF DUP8 SLOAD PUSH1 0x10 SHR AND PUSH2 0x3A11 JUMP JUMPDEST DUP7 SLOAD PUSH3 0xFF0000 NOT AND PUSH1 0x10 SWAP2 SWAP1 SWAP2 SHL PUSH3 0xFF0000 AND OR DUP7 SSTORE JUMP JUMPDEST SLOAD DIV AND AND PUSH2 0xFFFF NOT DUP3 SLOAD AND OR SWAP1 SSTORE DUP1 SLOAD SWAP1 PUSH1 0x6 PUSH2 0xFFFF DUP4 AND MUL PUSH4 0xFFFFFFFF DUP2 AND SWAP1 DUP2 SUB PUSH2 0x11E3 JUMPI PUSH1 0xA0 ADD PUSH4 0xFFFFFFFF DUP2 GT PUSH2 0x11E3 JUMPI PUSH2 0x1619 PUSH2 0x1637 SWAP2 PUSH4 0xFFFFFFFF PUSH2 0x163C SWAP6 PUSH1 0x10 SHR AND PUSH2 0x339C JUMP JUMPDEST DUP3 SLOAD PUSH6 0xFFFFFFFF0000 NOT AND PUSH1 0x10 SWAP2 SWAP1 SWAP2 SHL PUSH6 0xFFFFFFFF0000 AND OR DUP3 SSTORE JUMP JUMPDEST PUSH2 0x3A22 JUMP JUMPDEST PUSH2 0x1660 DUP2 MLOAD ISZERO ISZERO CALLER PUSH0 MSTORE PUSH1 0xB PUSH1 0x20 MSTORE PUSH1 0x40 PUSH0 KECCAK256 SWAP1 PUSH1 0xFF DUP1 NOT DUP4 SLOAD AND SWAP2 ISZERO ISZERO AND OR SWAP1 SSTORE JUMP JUMPDEST CALLER PUSH0 SWAP1 DUP2 MSTORE PUSH1 0xC PUSH1 0x20 MSTORE PUSH1 0x40 DUP2 KECCAK256 DUP1 SLOAD SWAP2 DUP2 SSTORE DUP2 PUSH2 0x1AE9 JUMPI JUMPDEST POP POP PUSH0 JUMPDEST DUP6 MLOAD MLOAD DUP2 LT ISZERO PUSH2 0x1918 JUMPI CALLER PUSH0 SWAP1 DUP2 MSTORE PUSH1 0xC PUSH1 0x20 MSTORE PUSH1 0x40 SWAP1 KECCAK256 PUSH2 0x16A0 DUP3 DUP9 MLOAD PUSH2 0x32C9 JUMP JUMPDEST MLOAD SWAP1 DUP1 SLOAD PUSH1 0x1 PUSH1 0x40 SHL DUP2 LT ISZERO PUSH2 0x1336 JUMPI PUSH2 0x16BF SWAP2 PUSH1 0x1 DUP3 ADD DUP2 SSTORE PUSH2 0x2A6E JUMP JUMPDEST PUSH2 0x715 JUMPI DUP2 MLOAD DUP2 SLOAD PUSH1 0x20 DUP5 ADD MLOAD PUSH1 0x40 DUP6 ADD MLOAD PUSH3 0xFFFFFF NOT SWAP1 SWAP3 AND PUSH1 0xFF SWAP4 SWAP1 SWAP4 AND SWAP3 SWAP1 SWAP3 OR SWAP2 ISZERO ISZERO PUSH1 0x8 SHL PUSH2 0xFF00 AND SWAP2 SWAP1 SWAP2 OR PUSH1 0x10 SWAP2 SWAP1 SWAP2 SHL PUSH3 0xFF0000 AND OR DUP2 SSTORE DUP2 DUP7 ADD MLOAD DUP2 SLOAD PUSH4 0xFF000000 NOT AND PUSH1 0x18 SWAP2 SWAP1 SWAP2 SHL PUSH4 0xFF000000 AND OR DUP2 SSTORE PUSH1 0x80 DUP3 ADD MLOAD DUP2 SLOAD PUSH1 0xA0 DUP5 ADD MLOAD PUSH1 0xC0 DUP6 ADD MLOAD PUSH1 0xE0 DUP7 ADD MLOAD PUSH12 0xFFFFFFFFFFFFFFFF00000000 NOT SWAP1 SWAP4 AND PUSH1 0x20 SWAP5 SWAP1 SWAP5 SHL PUSH6 0xFFFF00000000 AND SWAP4 SWAP1 SWAP4 OR PUSH1 0x30 SWAP2 SWAP1 SWAP2 SHL PUSH8 0xFFFF000000000000 AND OR PUSH1 0x40 SWAP3 SWAP1 SWAP3 SHL PUSH10 0xFFFF0000000000000000 AND SWAP2 SWAP1 SWAP2 OR PUSH1 0x50 SWAP2 SWAP1 SWAP2 SHL PUSH2 0xFFFF PUSH1 0x50 SHL AND OR DUP2 SSTORE PUSH2 0x100 DUP3 ADD MLOAD DUP1 MLOAD PUSH1 0x1 DUP4 ADD SWAP2 PUSH1 0x1 PUSH1 0x1 PUSH1 0x40 SHL SUB DUP3 GT PUSH2 0x1336 JUMPI PUSH2 0x17B0 DUP4 SLOAD PUSH2 0x2A87 JUMP JUMPDEST PUSH1 0x1F DUP2 GT PUSH2 0x18DD JUMPI JUMPDEST POP PUSH1 0x20 SWAP1 PUSH1 0x1F DUP4 GT PUSH1 0x1 EQ PUSH2 0x186B JUMPI PUSH2 0x185A SWAP5 PUSH1 0x1 SWAP8 SWAP7 SWAP5 DUP5 PUSH1 0xFF SWAP6 PUSH2 0x180 SWAP6 PUSH1 0x2 SWAP6 PUSH0 SWAP3 PUSH2 0x1860 JUMPI JUMPDEST POP POP PUSH0 NOT PUSH1 0x3 DUP4 SWAP1 SHL SHR NOT AND SWAP1 DUP11 SHL OR SWAP1 SSTORE JUMPDEST PUSH2 0x120 DUP6 ADD MLOAD SWAP2 ADD DUP1 SLOAD PUSH2 0x140 DUP7 ADD MLOAD PUSH2 0x160 DUP8 ADD MLOAD PUSH3 0xFFFF00 NOT DUP8 NOT SWAP4 SWAP1 SWAP4 AND SWAP5 DUP8 AND SWAP5 SWAP1 SWAP5 OR SWAP2 SWAP1 SWAP2 AND PUSH1 0x8 SWAP2 SWAP1 SWAP2 SHL PUSH2 0xFF00 AND OR SWAP2 DUP5 AND PUSH1 0x10 SHL PUSH3 0xFF0000 AND SWAP2 SWAP1 SWAP2 OR DUP2 SSTORE SWAP3 ADD MLOAD DUP3 SLOAD PUSH4 0xFF000000 NOT AND SWAP2 AND PUSH1 0x18 SHL PUSH4 0xFF000000 AND OR SWAP1 SSTORE JUMP JUMPDEST ADD PUSH2 0x167D JUMP JUMPDEST ADD MLOAD SWAP1 POP PUSH0 DUP1 PUSH2 0x17E3 JUMP JUMPDEST SWAP1 PUSH1 0x1F NOT DUP4 AND SWAP2 DUP5 PUSH0 MSTORE DUP2 PUSH0 KECCAK256 SWAP3 PUSH0 JUMPDEST DUP2 DUP2 LT PUSH2 0x18C5 JUMPI POP SWAP5 PUSH1 0x1 DUP6 PUSH2 0x180 SWAP6 PUSH1 0x2 SWAP6 PUSH2 0x185A SWAP11 SWAP6 PUSH1 0xFF SWAP10 DUP6 SWAP15 SWAP14 SWAP12 LT PUSH2 0x18AD JUMPI JUMPDEST POP POP POP DUP2 SHL ADD SWAP1 SSTORE PUSH2 0x17F6 JUMP JUMPDEST ADD MLOAD PUSH0 NOT PUSH1 0xF8 DUP5 PUSH1 0x3 SHL AND SHR NOT AND SWAP1 SSTORE PUSH0 DUP1 DUP1 PUSH2 0x18A0 JUMP JUMPDEST SWAP3 SWAP4 PUSH1 0x20 PUSH1 0x1 DUP2 SWAP3 DUP8 DUP7 ADD MLOAD DUP2 SSTORE ADD SWAP6 ADD SWAP4 ADD PUSH2 0x187B JUMP JUMPDEST PUSH2 0x1908 SWAP1 DUP5 PUSH0 MSTORE PUSH1 0x20 PUSH0 KECCAK256 PUSH1 0x1F DUP6 ADD PUSH1 0x5 SHR DUP2 ADD SWAP2 PUSH1 0x20 DUP7 LT PUSH2 0x190E JUMPI JUMPDEST PUSH1 0x1F ADD PUSH1 0x5 SHR ADD SWAP1 PUSH2 0x3211 JUMP JUMPDEST DUP12 PUSH2 0x17B9 JUMP JUMPDEST SWAP1 SWAP2 POP DUP2 SWAP1 PUSH2 0x18FB JUMP JUMPDEST POP CALLER PUSH0 SWAP1 DUP2 MSTORE PUSH1 0x9 PUSH1 0x20 MSTORE PUSH1 0x40 SWAP1 KECCAK256 DUP5 SWAP1 DUP7 SWAP1 PUSH2 0x1934 SWAP1 PUSH2 0x32DD JUMP JUMPDEST PUSH0 JUMPDEST DUP5 MLOAD MLOAD DUP2 LT ISZERO PUSH2 0x1972 JUMPI CALLER PUSH0 SWAP1 DUP2 MSTORE PUSH1 0x9 PUSH1 0x20 MSTORE PUSH1 0x40 SWAP1 KECCAK256 PUSH1 0x1 SWAP2 SWAP1 PUSH2 0x196C SWAP1 PUSH2 0xFFFF PUSH2 0x1964 DUP5 DUP11 MLOAD PUSH2 0x32C9 JUMP JUMPDEST MLOAD AND SWAP1 PUSH2 0x3304 JUMP JUMPDEST ADD PUSH2 0x1936 JUMP JUMPDEST POP CALLER PUSH0 SWAP1 DUP2 MSTORE PUSH1 0xA PUSH1 0x20 MSTORE PUSH1 0x40 SWAP1 KECCAK256 DUP4 SWAP1 PUSH2 0x198C SWAP1 PUSH2 0x32DD JUMP JUMPDEST PUSH0 JUMPDEST DUP4 MLOAD MLOAD DUP2 LT ISZERO PUSH2 0x19C2 JUMPI CALLER PUSH0 SWAP1 DUP2 MSTORE PUSH1 0xA PUSH1 0x20 MSTORE PUSH1 0x40 SWAP1 KECCAK256 PUSH1 0x1 SWAP2 SWAP1 PUSH2 0x19BC SWAP1 PUSH2 0xFFFF PUSH2 0x1964 DUP5 DUP10 MLOAD PUSH2 0x32C9 JUMP JUMPDEST ADD PUSH2 0x198E JUMP JUMPDEST POP SWAP1 DUP2 MLOAD ISZERO ISZERO DUP1 PUSH2 0x1AD5 JUMPI JUMPDEST PUSH2 0x1A42 JUMPI JUMPDEST PUSH32 0xC252FE2D1DC706D4F4B52AFA35C4264A4AA7002D846E033BB7F16EDEF409EFD4 PUSH2 0x1A14 DUP4 MLOAD ISZERO ISZERO SWAP3 MLOAD PUSH1 0x40 MLOAD SWAP4 DUP5 MSTORE PUSH1 0x40 PUSH1 0x20 DUP6 ADD MSTORE PUSH1 0x40 DUP5 ADD SWAP1 PUSH2 0x274C JUMP JUMPDEST SWAP2 DUP1 CALLER SWAP4 SUB SWAP1 LOG2 MLOAD PUSH2 0x1A34 JUMPI JUMPDEST PUSH1 0x1 PUSH0 MLOAD PUSH1 0x20 PUSH2 0x49A6 PUSH0 CODECOPY PUSH0 MLOAD SWAP1 PUSH0 MSTORE SSTORE STOP JUMPDEST PUSH2 0x1A3D CALLER PUSH2 0x3489 JUMP JUMPDEST PUSH2 0x1A21 JUMP JUMPDEST PUSH1 0x2 SLOAD PUSH1 0x40 MLOAD PUSH4 0xF925B741 PUSH1 0xE0 SHL DUP2 MSTORE CALLER PUSH1 0x4 DUP3 ADD MSTORE SWAP1 PUSH1 0x1 PUSH1 0x1 PUSH1 0xA0 SHL SUB AND DUP2 PUSH1 0x64 DUP2 PUSH0 PUSH1 0x20 SWAP5 DUP2 PUSH1 0x24 DUP5 ADD MSTORE PUSH1 0x5 PUSH1 0x44 DUP5 ADD MSTORE GAS CALL DUP1 ISZERO PUSH2 0x75E JUMPI PUSH0 SWAP1 PUSH2 0x1AA1 JUMPI JUMPDEST PUSH2 0x1A9C SWAP2 POP CALLER PUSH0 MSTORE PUSH1 0x7 PUSH1 0x20 MSTORE PUSH1 0x40 PUSH0 KECCAK256 PUSH2 0x2C2F JUMP JUMPDEST PUSH2 0x19D3 JUMP JUMPDEST POP PUSH1 0x20 DUP2 RETURNDATASIZE PUSH1 0x20 GT PUSH2 0x1ACD JUMPI JUMPDEST DUP2 PUSH2 0x1ABB PUSH1 0x20 SWAP4 DUP4 PUSH2 0x2B2E JUMP JUMPDEST DUP2 ADD SUB SLT PUSH2 0x1E7 JUMPI PUSH2 0x1A9C SWAP1 MLOAD PUSH2 0x1A86 JUMP JUMPDEST RETURNDATASIZE SWAP2 POP PUSH2 0x1AAE JUMP JUMPDEST POP PUSH1 0x2 SLOAD PUSH1 0x1 PUSH1 0x1 PUSH1 0xA0 SHL SUB AND ISZERO ISZERO PUSH2 0x19CE JUMP JUMPDEST DUP2 PUSH1 0x3 MUL SWAP2 PUSH1 0x3 DUP4 DIV SUB PUSH2 0x11E3 JUMPI PUSH0 MSTORE PUSH1 0x20 PUSH0 KECCAK256 SWAP1 DUP2 ADD SWAP1 JUMPDEST DUP2 DUP2 LT ISZERO PUSH2 0x1679 JUMPI DUP1 PUSH0 PUSH1 0x3 SWAP3 SSTORE PUSH1 0x1 DUP2 ADD PUSH2 0x1B1E DUP2 SLOAD PUSH2 0x2A87 JUMP JUMPDEST SWAP1 DUP2 PUSH2 0x1B33 JUMPI JUMPDEST POP POP PUSH0 PUSH1 0x2 DUP3 ADD SSTORE ADD PUSH2 0x1B02 JUMP JUMPDEST DUP2 PUSH1 0x1F PUSH0 SWAP4 GT PUSH1 0x1 EQ PUSH2 0x1B4A JUMPI POP SSTORE JUMPDEST DUP9 DUP1 PUSH2 0x1B25 JUMP JUMPDEST DUP2 DUP4 MSTORE PUSH1 0x20 DUP4 KECCAK256 PUSH2 0x1B66 SWAP2 PUSH1 0x1F ADD PUSH1 0x5 SHR DUP2 ADD SWAP1 PUSH1 0x1 ADD PUSH2 0x3211 JUMP JUMPDEST DUP1 DUP3 MSTORE DUP2 PUSH1 0x20 DUP2 KECCAK256 SWAP2 SSTORE SSTORE PUSH2 0x1B43 JUMP JUMPDEST PUSH1 0x2 DUP2 ADD PUSH2 0x1B84 DUP2 SLOAD PUSH2 0x3A03 JUMP JUMPDEST SWAP1 SSTORE PUSH1 0x3 DUP2 ADD PUSH3 0xFF0000 NOT DUP2 SLOAD AND SWAP1 SSTORE DUP1 SLOAD SWAP1 PUSH1 0x3 PUSH2 0xFFFF DUP4 AND MUL PUSH4 0xFFFFFFFF DUP2 AND SWAP1 DUP2 SUB PUSH2 0x11E3 JUMPI PUSH1 0x55 ADD PUSH4 0xFFFFFFFF DUP2 GT PUSH2 0x11E3 JUMPI PUSH2 0x1619 PUSH2 0x1637 SWAP2 PUSH4 0xFFFFFFFF PUSH2 0x163C SWAP6 PUSH1 0x10 SHR AND PUSH2 0x339C JUMP JUMPDEST DUP1 PUSH2 0x1BE1 PUSH1 0x1 SWAP3 DUP5 PUSH2 0x32C9 JUMP JUMPDEST MLOAD PUSH2 0x1BEC DUP3 DUP12 PUSH2 0x32C9 JUMP JUMPDEST MSTORE PUSH2 0x1BF7 DUP2 DUP11 PUSH2 0x32C9 JUMP JUMPDEST POP ADD PUSH2 0x1546 JUMP JUMPDEST PUSH1 0x20 SWAP1 PUSH1 0x40 MLOAD PUSH2 0x1C0D DUP2 PUSH2 0x2ABF JUMP JUMPDEST PUSH0 DUP2 MSTORE PUSH0 DUP4 DUP3 ADD MSTORE PUSH0 PUSH1 0x40 DUP3 ADD MSTORE PUSH0 DUP10 DUP3 ADD MSTORE PUSH0 PUSH1 0x80 DUP3 ADD MSTORE PUSH0 PUSH1 0xA0 DUP3 ADD MSTORE PUSH0 PUSH1 0xC0 DUP3 ADD MSTORE PUSH0 PUSH1 0xE0 DUP3 ADD MSTORE DUP9 PUSH2 0x100 DUP3 ADD MSTORE PUSH0 PUSH2 0x120 DUP3 ADD MSTORE PUSH0 PUSH2 0x140 DUP3 ADD MSTORE PUSH0 PUSH2 0x160 DUP3 ADD MSTORE PUSH0 PUSH2 0x180 DUP3 ADD MSTORE DUP3 DUP3 DUP13 ADD ADD MSTORE ADD PUSH2 0x153B JUMP JUMPDEST PUSH2 0x1C70 DUP3 PUSH2 0x3C37 JUMP JUMPDEST ISZERO DUP1 ISZERO PUSH2 0x1D88 JUMPI JUMPDEST PUSH2 0x1D83 JUMPI PUSH2 0x1C85 DUP3 PUSH2 0x3C84 JUMP JUMPDEST PUSH2 0x1C8E DUP5 PUSH2 0x3C84 JUMP JUMPDEST PUSH1 0x3 PUSH1 0xFF DUP3 AND MUL PUSH1 0xFF DUP2 AND SWAP1 DUP2 SUB PUSH2 0x11E3 JUMPI PUSH1 0x1 DUP5 PUSH1 0xFF DUP1 SWAP4 AND SHR AND AND PUSH1 0x1 ADD PUSH1 0xFF DUP2 GT PUSH2 0x11E3 JUMPI PUSH1 0xFF AND PUSH0 JUMPDEST DUP2 PUSH1 0xFF DUP3 AND LT PUSH2 0x1CD6 JUMPI JUMPDEST POP POP PUSH2 0x1CD1 SWAP1 PUSH2 0x3A11 JUMP JUMPDEST PUSH2 0x14F7 JUMP JUMPDEST PUSH1 0x77 DUP8 LT ISZERO PUSH2 0x1D6E JUMPI PUSH2 0x1CE8 DUP5 PUSH2 0x3C37 JUMP JUMPDEST ISZERO DUP1 ISZERO PUSH2 0x1D73 JUMPI JUMPDEST PUSH2 0x1D6E JUMPI DUP3 DUP8 DUP13 DUP8 PUSH2 0x1D02 DUP11 DUP10 PUSH2 0x3CED JUMP JUMPDEST SWAP5 SWAP1 ISZERO PUSH2 0x1D3D JUMPI PUSH2 0x1D14 SWAP5 DUP12 DUP11 PUSH2 0x42A4 JUMP JUMPDEST PUSH2 0x1D26 JUMPI JUMPDEST PUSH1 0x1 PUSH1 0xFF SWAP2 JUMPDEST ADD AND PUSH2 0x1CBB JUMP JUMPDEST SWAP6 PUSH1 0x1 PUSH2 0x1D34 PUSH1 0xFF SWAP3 PUSH2 0x3A03 JUMP JUMPDEST SWAP8 SWAP2 POP POP PUSH2 0x1D19 JUMP JUMPDEST PUSH2 0x1D48 SWAP5 DUP10 DUP13 PUSH2 0x3EC6 JUMP JUMPDEST PUSH2 0x1D57 JUMPI JUMPDEST PUSH1 0x1 PUSH1 0xFF SWAP2 PUSH2 0x1D1F JUMP JUMPDEST SWAP6 PUSH1 0x1 PUSH2 0x1D65 PUSH1 0xFF SWAP3 PUSH2 0x3A03 JUMP JUMPDEST SWAP8 SWAP2 POP POP PUSH2 0x1D4D JUMP JUMPDEST PUSH2 0x1CC6 JUMP JUMPDEST POP PUSH2 0x1D7D DUP7 PUSH2 0x3C37 JUMP JUMPDEST ISZERO PUSH2 0x1CF0 JUMP JUMPDEST PUSH2 0x1504 JUMP JUMPDEST POP PUSH2 0x1D92 DUP5 PUSH2 0x3C37 JUMP JUMPDEST ISZERO PUSH2 0x1C78 JUMP JUMPDEST PUSH1 0x20 SWAP1 PUSH1 0x40 MLOAD PUSH2 0x1DA7 DUP2 PUSH2 0x2ABF JUMP JUMPDEST PUSH0 DUP2 MSTORE PUSH0 DUP4 DUP3 ADD MSTORE PUSH0 PUSH1 0x40 DUP3 ADD MSTORE PUSH0 DUP10 DUP3 ADD MSTORE PUSH0 PUSH1 0x80 DUP3 ADD MSTORE PUSH0 PUSH1 0xA0 DUP3 ADD MSTORE PUSH0 PUSH1 0xC0 DUP3 ADD MSTORE PUSH0 PUSH1 0xE0 DUP3 ADD MSTORE DUP9 PUSH2 0x100 DUP3 ADD MSTORE PUSH0 PUSH2 0x120 DUP3 ADD MSTORE PUSH0 PUSH2 0x140 DUP3 ADD MSTORE PUSH0 PUSH2 0x160 DUP3 ADD MSTORE PUSH0 PUSH2 0x180 DUP3 ADD MSTORE DUP3 DUP3 DUP13 ADD ADD MSTORE ADD PUSH2 0x14E9 JUMP JUMPDEST SWAP5 POP PUSH2 0x1E0C CALLER PUSH2 0x3489 JUMP JUMPDEST CALLER PUSH0 SWAP1 DUP2 MSTORE PUSH1 0x5 PUSH1 0x20 MSTORE PUSH1 0x40 SWAP1 KECCAK256 PUSH2 0x1E23 SWAP1 PUSH2 0x3227 JUMP JUMPDEST SWAP5 PUSH2 0xDF5 JUMP JUMPDEST PUSH1 0x1 SWAP1 PUSH1 0x20 DUP4 MLOAD SWAP4 ADD SWAP3 DUP2 DUP6 ADD SSTORE ADD PUSH2 0xDCA JUMP JUMPDEST PUSH4 0x4E487B71 PUSH1 0xE0 SHL PUSH0 MSTORE PUSH1 0x32 PUSH1 0x4 MSTORE PUSH1 0x24 PUSH0 REVERT JUMPDEST PUSH1 0x40 MLOAD PUSH3 0x461BCD PUSH1 0xE5 SHL DUP2 MSTORE PUSH1 0x20 PUSH1 0x4 DUP3 ADD MSTORE PUSH1 0x26 PUSH1 0x24 DUP3 ADD MSTORE PUSH32 0x4D7573742065717569702065786163746C7920332072656C69637320286F7220 PUSH1 0x44 DUP3 ADD MSTORE PUSH6 0x302C302C3029 PUSH1 0xD0 SHL PUSH1 0x64 DUP3 ADD MSTORE PUSH1 0x84 SWAP1 REVERT JUMPDEST PUSH1 0x40 MLOAD PUSH3 0x461BCD PUSH1 0xE5 SHL DUP2 MSTORE PUSH1 0x20 PUSH1 0x4 DUP3 ADD MSTORE PUSH1 0x12 PUSH1 0x24 DUP3 ADD MSTORE PUSH18 0x5465616D2073697A6520342D38206F6E6C79 PUSH1 0x70 SHL PUSH1 0x44 DUP3 ADD MSTORE PUSH1 0x64 SWAP1 REVERT JUMPDEST POP PUSH1 0x8 DUP2 GT ISZERO PUSH2 0xC8F JUMP JUMPDEST CALLVALUE PUSH2 0x1E7 JUMPI PUSH1 0x40 CALLDATASIZE PUSH1 0x3 NOT ADD SLT PUSH2 0x1E7 JUMPI PUSH2 0x1F03 PUSH2 0x2712 JUMP JUMPDEST PUSH1 0x1 PUSH1 0x1 PUSH1 0xA0 SHL SUB AND PUSH0 SWAP1 DUP2 MSTORE PUSH1 0x6 PUSH1 0x20 MSTORE PUSH1 0x40 SWAP1 KECCAK256 DUP1 SLOAD PUSH1 0x24 CALLDATALOAD SWAP2 SWAP1 DUP3 LT ISZERO PUSH2 0x1E7 JUMPI PUSH1 0x20 SWAP2 PUSH2 0x1D8 SWAP2 PUSH2 0x2954 JUMP JUMPDEST CALLVALUE PUSH2 0x1E7 JUMPI PUSH1 0x40 CALLDATASIZE PUSH1 0x3 NOT ADD SLT PUSH2 0x1E7 JUMPI PUSH2 0x1F4C PUSH2 0x2712 JUMP JUMPDEST PUSH1 0x1 PUSH1 0x1 PUSH1 0xA0 SHL SUB AND PUSH0 SWAP1 DUP2 MSTORE PUSH1 0x9 PUSH1 0x20 MSTORE PUSH1 0x40 SWAP1 KECCAK256 DUP1 SLOAD PUSH1 0x24 CALLDATALOAD SWAP1 DUP2 LT ISZERO PUSH2 0x1E7 JUMPI PUSH2 0xB24 PUSH2 0xFFFF SWAP2 PUSH1 0x20 SWAP4 PUSH2 0x2933 JUMP JUMPDEST CALLVALUE PUSH2 0x1E7 JUMPI PUSH1 0x20 CALLDATASIZE PUSH1 0x3 NOT ADD SLT PUSH2 0x1E7 JUMPI PUSH2 0x1F97 PUSH2 0x2712 JUMP JUMPDEST PUSH1 0x60 PUSH1 0x40 MLOAD PUSH2 0x1FA7 PUSH1 0x60 DUP3 PUSH2 0x2B2E JUMP JUMPDEST PUSH0 JUMPDEST DUP3 DUP2 LT PUSH2 0x2029 JUMPI DUP4 PUSH1 0x1 DUP1 PUSH1 0xA0 SHL SUB AND PUSH0 MSTORE PUSH1 0x4 PUSH1 0x20 MSTORE PUSH1 0x40 PUSH0 KECCAK256 PUSH1 0x40 MLOAD SWAP1 PUSH2 0x1FD1 DUP3 PUSH2 0x2ADB JUMP JUMPDEST PUSH0 DUP3 JUMPDEST PUSH1 0x3 DUP3 LT PUSH2 0x200B JUMPI PUSH1 0x40 MLOAD DUP5 PUSH0 DUP3 JUMPDEST PUSH1 0x3 DUP3 LT PUSH2 0x1FF1 JUMPI PUSH2 0x3C0 DUP5 RETURN JUMPDEST PUSH1 0x20 PUSH2 0x2000 PUSH1 0x1 SWAP3 DUP6 MLOAD PUSH2 0x28A2 JUMP JUMPDEST SWAP4 ADD SWAP2 ADD SWAP1 SWAP2 PUSH2 0x1FE3 JUMP JUMPDEST PUSH1 0x3 PUSH1 0x20 PUSH1 0x1 SWAP3 PUSH2 0x201B DUP7 PUSH2 0x317A JUMP JUMPDEST DUP2 MSTORE ADD SWAP4 ADD SWAP2 ADD SWAP1 SWAP2 PUSH2 0x1FD4 JUMP JUMPDEST PUSH1 0x20 SWAP1 PUSH2 0x2034 PUSH2 0x2C63 JUMP JUMPDEST DUP2 DUP5 ADD MSTORE ADD PUSH2 0x1FA9 JUMP JUMPDEST CALLVALUE PUSH2 0x1E7 JUMPI PUSH0 CALLDATASIZE PUSH1 0x3 NOT ADD SLT PUSH2 0x1E7 JUMPI PUSH2 0x2056 PUSH2 0x33B6 JUMP JUMPDEST PUSH0 SLOAD PUSH1 0xFF DUP2 PUSH1 0xA0 SHR AND ISZERO PUSH2 0x209B JUMPI PUSH1 0xFF PUSH1 0xA0 SHL NOT AND PUSH0 SSTORE PUSH1 0x40 MLOAD CALLER DUP2 MSTORE PUSH32 0x5DB9EE0A495BF2E6FF9C91A7834C1BA4FDD244A5E8AA4E537BD38AEAE4B073AA SWAP1 PUSH1 0x20 SWAP1 LOG1 STOP JUMPDEST PUSH4 0x8DFC202B PUSH1 0xE0 SHL PUSH0 MSTORE PUSH1 0x4 PUSH0 REVERT JUMPDEST CALLVALUE PUSH2 0x1E7 JUMPI PUSH0 CALLDATASIZE PUSH1 0x3 NOT ADD SLT PUSH2 0x1E7 JUMPI PUSH2 0x20C2 PUSH2 0x33B6 JUMP JUMPDEST PUSH0 DUP1 SLOAD DUP2 SWAP1 DUP2 SWAP1 DUP2 SWAP1 SELFBALANCE SWAP1 PUSH1 0x1 PUSH1 0x1 PUSH1 0xA0 SHL SUB AND DUP3 DUP3 ISZERO PUSH2 0x20E6 JUMPI JUMPDEST CALL ISZERO PUSH2 0x75E JUMPI STOP JUMPDEST POP PUSH2 0x8FC PUSH2 0x20DE JUMP JUMPDEST CALLVALUE PUSH2 0x1E7 JUMPI PUSH1 0x20 CALLDATASIZE PUSH1 0x3 NOT ADD SLT PUSH2 0x1E7 JUMPI PUSH1 0x1 PUSH1 0x1 PUSH1 0xA0 SHL SUB PUSH2 0x2110 PUSH2 0x2712 JUMP JUMPDEST AND DUP1 PUSH0 MSTORE PUSH1 0xB PUSH1 0x20 MSTORE PUSH1 0xFF PUSH1 0x40 PUSH0 KECCAK256 SLOAD AND DUP2 PUSH0 MSTORE PUSH1 0xC PUSH1 0x20 MSTORE PUSH1 0x40 PUSH0 KECCAK256 SWAP2 DUP1 PUSH0 MSTORE PUSH1 0x9 PUSH1 0x20 MSTORE PUSH1 0x40 PUSH0 KECCAK256 SWAP1 PUSH0 MSTORE PUSH1 0xA PUSH1 0x20 MSTORE PUSH1 0x40 PUSH0 KECCAK256 SWAP1 DUP4 SLOAD PUSH2 0x2152 DUP2 PUSH2 0x2E4C JUMP JUMPDEST SWAP5 PUSH2 0x2160 PUSH1 0x40 MLOAD SWAP7 DUP8 PUSH2 0x2B2E JUMP JUMPDEST DUP2 DUP7 MSTORE PUSH1 0x20 DUP7 ADD SWAP1 PUSH0 MSTORE PUSH1 0x20 PUSH0 KECCAK256 PUSH0 SWAP2 JUMPDEST DUP4 DUP4 LT PUSH2 0x21CE JUMPI DUP8 DUP8 PUSH2 0x32B DUP9 PUSH2 0x21C0 PUSH2 0x2193 PUSH2 0x218D DUP12 PUSH2 0x2E63 JUMP JUMPDEST SWAP3 PUSH2 0x2E63 JUMP JUMPDEST SWAP2 PUSH2 0x21B2 PUSH1 0x40 MLOAD SWAP7 DUP8 SWAP7 ISZERO ISZERO DUP8 MSTORE PUSH1 0x80 PUSH1 0x20 DUP9 ADD MSTORE PUSH1 0x80 DUP8 ADD SWAP1 PUSH2 0x274C JUMP JUMPDEST SWAP1 DUP6 DUP3 SUB PUSH1 0x40 DUP8 ADD MSTORE PUSH2 0x2854 JUMP JUMPDEST SWAP1 DUP4 DUP3 SUB PUSH1 0x60 DUP6 ADD MSTORE PUSH2 0x2854 JUMP JUMPDEST PUSH1 0x3 PUSH1 0x20 PUSH1 0x1 SWAP3 PUSH1 0x40 MLOAD PUSH2 0x21E1 DUP2 PUSH2 0x2ABF JUMP JUMPDEST PUSH2 0xFFFF DUP7 SLOAD PUSH1 0xFF DUP2 AND DUP4 MSTORE PUSH1 0xFF DUP2 PUSH1 0x8 SHR AND ISZERO ISZERO DUP6 DUP5 ADD MSTORE PUSH1 0xFF DUP2 PUSH1 0x10 SHR AND PUSH1 0x40 DUP5 ADD MSTORE PUSH1 0xFF DUP2 PUSH1 0x18 SHR AND PUSH1 0x60 DUP5 ADD MSTORE DUP2 DUP2 DUP7 SHR AND PUSH1 0x80 DUP5 ADD MSTORE DUP2 DUP2 PUSH1 0x30 SHR AND PUSH1 0xA0 DUP5 ADD MSTORE DUP2 DUP2 PUSH1 0x40 SHR AND PUSH1 0xC0 DUP5 ADD MSTORE PUSH1 0x50 SHR AND PUSH1 0xE0 DUP3 ADD MSTORE PUSH2 0x2245 DUP6 DUP8 ADD PUSH2 0x2B4F JUMP JUMPDEST PUSH2 0x100 DUP3 ADD MSTORE PUSH1 0xFF PUSH1 0x2 DUP8 ADD SLOAD DUP2 DUP2 AND PUSH2 0x120 DUP5 ADD MSTORE DUP2 DUP2 PUSH1 0x8 SHR AND PUSH2 0x140 DUP5 ADD MSTORE DUP2 DUP2 PUSH1 0x10 SHR AND PUSH2 0x160 DUP5 ADD MSTORE PUSH1 0x18 SHR AND PUSH2 0x180 DUP3 ADD MSTORE DUP2 MSTORE ADD SWAP3 ADD SWAP3 ADD SWAP2 SWAP1 PUSH2 0x2171 JUMP JUMPDEST PUSH0 CALLDATASIZE PUSH1 0x3 NOT ADD SLT PUSH2 0x1E7 JUMPI PUSH2 0x229E PUSH2 0x3347 JUMP JUMPDEST PUSH2 0x22A6 PUSH2 0x3364 JUMP JUMPDEST PUSH2 0x22B0 CALLVALUE ISZERO PUSH2 0x2BEF JUMP JUMPDEST PUSH1 0x40 DUP1 MLOAD TIMESTAMP PUSH1 0x20 DUP3 ADD SWAP1 DUP2 MSTORE CALLER PUSH1 0x60 SHL PUSH12 0xFFFFFFFFFFFFFFFFFFFFFFFF NOT AND SWAP3 DUP3 ADD SWAP3 SWAP1 SWAP3 MSTORE PREVRANDAO PUSH1 0x54 DUP3 ADD MSTORE PUSH2 0x22E9 DUP2 PUSH1 0x74 DUP2 ADD PUSH2 0xE2A JUMP JUMPDEST MLOAD SWAP1 KECCAK256 PUSH0 JUMPDEST PUSH1 0x3 DUP2 LT PUSH2 0x2333 JUMPI PUSH32 0xB1B757AFEC988E099A59BC127ABEA15824BF7ACC7137103E4197EF22A9AFAD11 PUSH1 0x20 PUSH1 0x40 MLOAD CALLER DUP2 MSTORE LOG1 PUSH1 0x1 PUSH0 MLOAD PUSH1 0x20 PUSH2 0x49A6 PUSH0 CODECOPY PUSH0 MLOAD SWAP1 PUSH0 MSTORE SSTORE STOP JUMPDEST PUSH2 0x233B PUSH2 0x2C63 JUMP JUMPDEST SWAP1 PUSH1 0x1 DUP3 MSTORE PUSH0 PUSH1 0x20 DUP4 ADD MSTORE DUP1 PUSH1 0x3 SHL DUP2 ISZERO SWAP1 DUP3 DUP2 DIV PUSH1 0x8 EQ DUP3 OR ISZERO PUSH2 0x11E3 JUMPI PUSH1 0x6 DUP6 PUSH1 0xFF SWAP3 SHR MOD AND PUSH2 0x100 DUP5 ADD MSTORE DUP2 PUSH1 0x4 SHL SWAP1 DUP3 DUP3 DIV PUSH1 0x10 EQ OR ISZERO PUSH2 0x11E3 JUMPI PUSH1 0x1 SWAP3 PUSH1 0xFF PUSH2 0x2392 DUP2 PUSH1 0x12 DUP9 PUSH2 0x23B4 SWAP7 SHR MOD AND PUSH2 0x2D00 JUMP JUMPDEST AND PUSH2 0x120 DUP3 ADD MSTORE CALLER PUSH0 MSTORE PUSH1 0x4 PUSH1 0x20 MSTORE PUSH2 0x23AE DUP4 PUSH1 0x40 PUSH0 KECCAK256 PUSH2 0x29EC JUMP JUMPDEST SWAP1 PUSH2 0x2D37 JUMP JUMPDEST ADD PUSH2 0x22EE JUMP JUMPDEST PUSH0 CALLDATASIZE PUSH1 0x3 NOT ADD SLT PUSH2 0x1E7 JUMPI PUSH2 0x23CD PUSH2 0x3347 JUMP JUMPDEST PUSH2 0x23D5 PUSH2 0x3364 JUMP JUMPDEST PUSH2 0x23DF CALLVALUE ISZERO PUSH2 0x2BEF JUMP JUMPDEST PUSH1 0x1 SLOAD PUSH1 0x40 MLOAD PUSH4 0x18160DDD PUSH1 0xE0 SHL DUP2 MSTORE PUSH1 0x1 PUSH1 0x1 PUSH1 0xA0 SHL SUB SWAP1 SWAP2 AND SWAP1 PUSH1 0x20 DUP2 PUSH1 0x4 DUP2 DUP6 GAS STATICCALL SWAP1 DUP2 ISZERO PUSH2 0x75E JUMPI PUSH0 SWAP2 PUSH2 0x26E0 JUMPI JUMPDEST POP PUSH1 0x40 MLOAD PUSH1 0x20 DUP2 ADD SWAP2 TIMESTAMP DUP4 MSTORE CALLER PUSH1 0x60 SHL PUSH1 0x40 DUP4 ADD MSTORE PUSH1 0x54 DUP3 ADD MSTORE PREVRANDAO PUSH1 0x74 DUP3 ADD MSTORE NUMBER PUSH1 0x94 DUP3 ADD MSTORE PUSH1 0x94 DUP2 MSTORE PUSH2 0x2447 PUSH1 0xB4 DUP3 PUSH2 0x2B2E JUMP JUMPDEST MLOAD SWAP1 KECCAK256 PUSH1 0x64 DUP2 MOD PUSH1 0x46 DUP2 LT ISZERO PUSH2 0x26CA JUMPI POP PUSH0 JUMPDEST PUSH1 0x3 DUP3 PUSH1 0x8 SHR MOD SWAP3 PUSH2 0x246B DUP5 PUSH2 0x288B JUMP JUMPDEST PUSH1 0x3 DUP4 PUSH1 0x10 SHR AND SWAP4 PUSH1 0x4 DUP6 LT ISZERO PUSH2 0x769 JUMPI PUSH2 0x2485 DUP4 PUSH2 0x288B JUMP JUMPDEST DUP3 PUSH2 0x261E JUMPI PUSH2 0x2499 PUSH1 0x3 DUP6 PUSH1 0x18 SHR AND PUSH2 0x2CEF JUMP JUMPDEST SWAP2 PUSH1 0xFF PUSH1 0x3 PUSH2 0x24AC DUP2 DUP9 PUSH1 0x20 SHR AND PUSH2 0x2D00 JUMP JUMPDEST SWAP7 PUSH1 0x28 SHR MOD AND PUSH1 0x5 ADD SWAP1 PUSH1 0xFF DUP3 GT PUSH2 0x11E3 JUMPI PUSH1 0xFF PUSH1 0xE4 SWAP5 DUP2 PUSH1 0x20 SWAP9 DUP2 PUSH0 SWAP7 SWAP4 JUMPDEST PUSH2 0x250E PUSH1 0x40 MLOAD SWAP14 DUP15 SWAP13 DUP14 SWAP12 PUSH4 0xE3BD811 PUSH1 0xE3 SHL DUP14 MSTORE DUP13 PUSH1 0x4 CALLER SWAP2 ADD MSTORE PUSH2 0x24F1 DUP2 PUSH2 0x288B JUMP JUMPDEST PUSH1 0x24 DUP14 ADD MSTORE PUSH2 0x24FF DUP2 PUSH2 0x288B JUMP JUMPDEST PUSH1 0x44 DUP13 ADD MSTORE PUSH1 0x64 DUP12 ADD SWAP1 PUSH2 0x2895 JUMP JUMPDEST AND PUSH1 0x84 DUP9 ADD MSTORE AND PUSH1 0xA4 DUP7 ADD MSTORE AND PUSH1 0xC4 DUP5 ADD MSTORE GAS CALL SWAP1 DUP2 ISZERO PUSH2 0x75E JUMPI PUSH0 SWAP2 PUSH2 0x25EC JUMPI JUMPDEST POP CALLER PUSH0 MSTORE PUSH1 0x6 PUSH1 0x20 MSTORE PUSH2 0x2546 DUP2 PUSH1 0x40 PUSH0 KECCAK256 PUSH2 0x2C2F JUMP JUMPDEST CALLER PUSH0 MSTORE PUSH1 0x3 PUSH1 0x20 MSTORE PUSH1 0x40 PUSH0 KECCAK256 PUSH2 0xFFFF DUP2 SLOAD AND ISZERO PUSH2 0x25DB JUMPI JUMPDEST PUSH1 0x14 PUSH4 0xFFFFFFFF DUP3 SLOAD PUSH1 0x10 SHR AND ADD SWAP2 PUSH4 0xFFFFFFFF DUP4 GT PUSH2 0x11E3 JUMPI PUSH2 0x25C3 DUP3 PUSH2 0x1637 PUSH32 0xDDED256C7E86A19D1BE0F3168D1EC8D5CFC9C713C96BDC10DEFADD014692CF92 SWAP6 PUSH2 0x6FF SWAP6 SWAP1 PUSH6 0xFFFFFFFF0000 DUP3 SLOAD SWAP2 PUSH1 0x10 SHL AND SWAP1 PUSH6 0xFFFFFFFF0000 NOT AND OR SWAP1 SSTORE JUMP JUMPDEST PUSH1 0x40 DUP1 MLOAD CALLER DUP2 MSTORE PUSH1 0x20 DUP2 ADD SWAP3 SWAP1 SWAP3 MSTORE SWAP1 SWAP2 DUP3 SWAP2 DUP3 ADD SWAP1 JUMP JUMPDEST DUP1 SLOAD PUSH2 0xFFFF NOT AND PUSH1 0x1 OR DUP2 SSTORE PUSH2 0x255E JUMP JUMPDEST SWAP1 POP PUSH1 0x20 DUP2 RETURNDATASIZE PUSH1 0x20 GT PUSH2 0x2616 JUMPI JUMPDEST DUP2 PUSH2 0x2607 PUSH1 0x20 SWAP4 DUP4 PUSH2 0x2B2E JUMP JUMPDEST DUP2 ADD SUB SLT PUSH2 0x1E7 JUMPI MLOAD DUP2 PUSH2 0x2530 JUMP JUMPDEST RETURNDATASIZE SWAP2 POP PUSH2 0x25FA JUMP JUMPDEST PUSH2 0x2627 DUP4 PUSH2 0x288B JUMP JUMPDEST PUSH1 0x1 DUP4 SUB PUSH2 0x2676 JUMPI PUSH2 0x2641 PUSH1 0xFF PUSH1 0x5 DUP7 PUSH1 0x18 SHR MOD AND PUSH2 0x2CDE JUMP JUMPDEST SWAP2 PUSH1 0x3 DUP6 PUSH1 0x20 SHR AND PUSH1 0x6 ADD SWAP1 PUSH1 0xFF DUP3 GT PUSH2 0x11E3 JUMPI PUSH1 0xFF PUSH1 0xE4 SWAP5 DUP2 PUSH1 0x20 SWAP9 DUP2 PUSH2 0x2670 PUSH1 0x3 PUSH0 SWAP9 SWAP4 PUSH1 0x28 SHR AND PUSH2 0x2CDE JUMP JUMPDEST SWAP4 PUSH2 0x24CC JUMP JUMPDEST PUSH1 0xFF PUSH1 0x5 DUP6 PUSH1 0x18 SHR MOD AND PUSH1 0xB ADD PUSH1 0xFF DUP2 GT PUSH2 0x11E3 JUMPI SWAP2 PUSH1 0xFF PUSH1 0x5 DUP7 PUSH1 0x20 SHR MOD AND PUSH1 0x9 ADD PUSH1 0xFF DUP2 GT PUSH2 0x11E3 JUMPI PUSH1 0x5 PUSH1 0xFF SWAP2 SWAP7 PUSH1 0x28 SHR MOD AND PUSH1 0xA ADD SWAP1 PUSH1 0xFF DUP3 GT PUSH2 0x11E3 JUMPI PUSH1 0xFF PUSH1 0xE4 SWAP5 DUP2 PUSH1 0x20 SWAP9 DUP2 PUSH0 SWAP7 SWAP4 PUSH2 0x24CC JUMP JUMPDEST PUSH1 0x5F GT ISZERO PUSH2 0x26D9 JUMPI PUSH1 0x1 PUSH2 0x245A JUMP JUMPDEST PUSH1 0x2 PUSH2 0x245A JUMP JUMPDEST SWAP1 POP PUSH1 0x20 DUP2 RETURNDATASIZE PUSH1 0x20 GT PUSH2 0x270A JUMPI JUMPDEST DUP2 PUSH2 0x26FB PUSH1 0x20 SWAP4 DUP4 PUSH2 0x2B2E JUMP JUMPDEST DUP2 ADD SUB SLT PUSH2 0x1E7 JUMPI MLOAD DUP3 PUSH2 0x2412 JUMP JUMPDEST RETURNDATASIZE SWAP2 POP PUSH2 0x26EE JUMP JUMPDEST PUSH1 0x4 CALLDATALOAD SWAP1 PUSH1 0x1 PUSH1 0x1 PUSH1 0xA0 SHL SUB DUP3 AND DUP3 SUB PUSH2 0x1E7 JUMPI JUMP JUMPDEST DUP1 MLOAD DUP1 DUP4 MSTORE PUSH1 0x20 SWAP3 SWAP2 DUP2 SWAP1 DUP5 ADD DUP5 DUP5 ADD MCOPY PUSH0 DUP3 DUP3 ADD DUP5 ADD MSTORE PUSH1 0x1F ADD PUSH1 0x1F NOT AND ADD ADD SWAP1 JUMP JUMPDEST SWAP1 DUP1 PUSH1 0x20 DUP4 MLOAD SWAP2 DUP3 DUP2 MSTORE ADD SWAP2 PUSH1 0x20 DUP1 DUP4 PUSH1 0x5 SHL DUP4 ADD ADD SWAP5 ADD SWAP3 PUSH0 SWAP2 JUMPDEST DUP4 DUP4 LT PUSH2 0x2777 JUMPI POP POP POP POP POP SWAP1 JUMP JUMPDEST SWAP1 SWAP2 SWAP3 SWAP4 SWAP5 PUSH1 0x20 DUP1 PUSH1 0x1 SWAP3 PUSH1 0x1F NOT DUP6 DUP3 SUB ADD DUP7 MSTORE DUP9 MLOAD SWAP1 PUSH1 0xFF DUP3 MLOAD AND DUP2 MSTORE DUP3 DUP3 ADD MLOAD ISZERO ISZERO DUP4 DUP3 ADD MSTORE PUSH1 0xFF PUSH1 0x40 DUP4 ADD MLOAD AND PUSH1 0x40 DUP3 ADD MSTORE PUSH1 0xFF PUSH1 0x60 DUP4 ADD MLOAD AND PUSH1 0x60 DUP3 ADD MSTORE PUSH2 0xFFFF PUSH1 0x80 DUP4 ADD MLOAD AND PUSH1 0x80 DUP3 ADD MSTORE PUSH2 0xFFFF PUSH1 0xA0 DUP4 ADD MLOAD AND PUSH1 0xA0 DUP3 ADD MSTORE PUSH2 0xFFFF PUSH1 0xC0 DUP4 ADD MLOAD AND PUSH1 0xC0 DUP3 ADD MSTORE PUSH2 0xFFFF PUSH1 0xE0 DUP4 ADD MLOAD AND PUSH1 0xE0 DUP3 ADD MSTORE PUSH2 0x180 PUSH1 0xFF DUP2 PUSH2 0x2814 PUSH2 0x100 DUP7 ADD MLOAD PUSH2 0x1A0 PUSH2 0x100 DUP8 ADD MSTORE PUSH2 0x1A0 DUP7 ADD SWAP1 PUSH2 0x2728 JUMP JUMPDEST SWAP5 DUP3 PUSH2 0x120 DUP3 ADD MLOAD AND PUSH2 0x120 DUP7 ADD MSTORE DUP3 PUSH2 0x140 DUP3 ADD MLOAD AND PUSH2 0x140 DUP7 ADD MSTORE DUP3 PUSH2 0x160 DUP3 ADD MLOAD AND PUSH2 0x160 DUP7 ADD MSTORE ADD MLOAD AND SWAP2 ADD MSTORE SWAP8 ADD SWAP4 ADD SWAP4 ADD SWAP2 SWAP4 SWAP3 SWAP1 PUSH2 0x2768 JUMP JUMPDEST SWAP1 PUSH1 0x20 DUP1 DUP4 MLOAD SWAP3 DUP4 DUP2 MSTORE ADD SWAP3 ADD SWAP1 PUSH0 JUMPDEST DUP2 DUP2 LT PUSH2 0x2871 JUMPI POP POP POP SWAP1 JUMP JUMPDEST DUP3 MLOAD PUSH2 0xFFFF AND DUP5 MSTORE PUSH1 0x20 SWAP4 DUP5 ADD SWAP4 SWAP1 SWAP3 ADD SWAP2 PUSH1 0x1 ADD PUSH2 0x2864 JUMP JUMPDEST PUSH1 0x3 GT ISZERO PUSH2 0x769 JUMPI JUMP JUMPDEST SWAP1 PUSH1 0x4 DUP3 LT ISZERO PUSH2 0x769 JUMPI MSTORE JUMP JUMPDEST SWAP1 PUSH1 0xFF PUSH2 0x120 PUSH2 0x140 SWAP4 DUP1 MLOAD ISZERO ISZERO DUP5 MSTORE PUSH1 0x20 DUP2 ADD MLOAD PUSH1 0x20 DUP6 ADD MSTORE PUSH1 0x40 DUP2 ADD MLOAD PUSH2 0x28CA DUP2 PUSH2 0x288B JUMP JUMPDEST PUSH1 0x40 DUP6 ADD MSTORE PUSH1 0x60 DUP2 ADD MLOAD PUSH2 0x28DD DUP2 PUSH2 0x288B JUMP JUMPDEST PUSH1 0x60 DUP6 ADD MSTORE PUSH2 0x28F4 PUSH1 0x80 DUP3 ADD MLOAD PUSH1 0x80 DUP7 ADD SWAP1 PUSH2 0x2895 JUMP JUMPDEST DUP3 PUSH1 0xA0 DUP3 ADD MLOAD AND PUSH1 0xA0 DUP6 ADD MSTORE DUP3 PUSH1 0xC0 DUP3 ADD MLOAD AND PUSH1 0xC0 DUP6 ADD MSTORE DUP3 PUSH1 0xE0 DUP3 ADD MLOAD AND PUSH1 0xE0 DUP6 ADD MSTORE DUP3 PUSH2 0x100 DUP3 ADD MLOAD AND PUSH2 0x100 DUP6 ADD MSTORE ADD MLOAD AND PUSH2 0x120 DUP3 ADD MSTORE ADD SWAP1 JUMP JUMPDEST SWAP2 SWAP1 SWAP2 DUP1 SLOAD DUP4 LT ISZERO PUSH2 0x1E3D JUMPI PUSH0 MSTORE PUSH1 0x1E PUSH1 0x20 PUSH0 KECCAK256 DUP4 PUSH1 0x4 SHR ADD SWAP3 PUSH1 0x1 SHL AND SWAP1 JUMP JUMPDEST DUP1 SLOAD DUP3 LT ISZERO PUSH2 0x1E3D JUMPI PUSH0 MSTORE PUSH1 0x20 PUSH0 KECCAK256 ADD SWAP1 PUSH0 SWAP1 JUMP JUMPDEST SWAP2 DUP2 PUSH1 0x1F DUP5 ADD SLT ISZERO PUSH2 0x1E7 JUMPI DUP3 CALLDATALOAD SWAP2 PUSH1 0x1 PUSH1 0x1 PUSH1 0x40 SHL SUB DUP4 GT PUSH2 0x1E7 JUMPI PUSH1 0x20 DUP1 DUP6 ADD SWAP5 DUP5 PUSH1 0x5 SHL ADD ADD GT PUSH2 0x1E7 JUMPI JUMP JUMPDEST PUSH1 0x20 PUSH1 0x40 DUP2 DUP4 ADD SWAP3 DUP3 DUP2 MSTORE DUP5 MLOAD DUP1 SWAP5 MSTORE ADD SWAP3 ADD SWAP1 PUSH0 JUMPDEST DUP2 DUP2 LT PUSH2 0x29BC JUMPI POP POP POP SWAP1 JUMP JUMPDEST DUP3 MLOAD DUP5 MSTORE PUSH1 0x20 SWAP4 DUP5 ADD SWAP4 SWAP1 SWAP3 ADD SWAP2 PUSH1 0x1 ADD PUSH2 0x29AF JUMP JUMPDEST CALLVALUE PUSH2 0x1E7 JUMPI PUSH0 CALLDATASIZE PUSH1 0x3 NOT ADD SLT PUSH2 0x1E7 JUMPI PUSH1 0x20 PUSH1 0x40 MLOAD PUSH0 DUP2 MSTORE RETURN JUMPDEST SWAP1 PUSH1 0x3 DUP2 LT ISZERO PUSH2 0x1E3D JUMPI PUSH1 0x3 MUL ADD SWAP1 PUSH0 SWAP1 JUMP JUMPDEST SWAP9 SWAP7 SWAP5 SWAP3 SWAP1 SWAP11 SWAP10 SWAP8 SWAP6 SWAP4 SWAP2 PUSH2 0x140 DUP11 ADD SWAP12 ISZERO ISZERO DUP11 MSTORE PUSH1 0x20 DUP11 ADD MSTORE PUSH2 0x2A22 DUP2 PUSH2 0x288B JUMP JUMPDEST PUSH1 0x40 DUP10 ADD MSTORE PUSH2 0x2A30 DUP2 PUSH2 0x288B JUMP JUMPDEST PUSH1 0x60 DUP9 ADD MSTORE PUSH1 0x80 DUP8 ADD PUSH2 0x2A42 SWAP2 PUSH2 0x2895 JUMP JUMPDEST PUSH1 0xFF AND PUSH1 0xA0 DUP7 ADD MSTORE PUSH1 0xFF AND PUSH1 0xC0 DUP6 ADD MSTORE PUSH1 0xFF AND PUSH1 0xE0 DUP5 ADD MSTORE PUSH1 0xFF AND PUSH2 0x100 DUP4 ADD MSTORE PUSH1 0xFF AND SWAP1 PUSH2 0x120 ADD MSTORE JUMP JUMPDEST DUP1 SLOAD DUP3 LT ISZERO PUSH2 0x1E3D JUMPI PUSH0 MSTORE PUSH1 0x3 PUSH1 0x20 PUSH0 KECCAK256 SWAP2 MUL ADD SWAP1 PUSH0 SWAP1 JUMP JUMPDEST SWAP1 PUSH1 0x1 DUP3 DUP2 SHR SWAP3 AND DUP1 ISZERO PUSH2 0x2AB5 JUMPI JUMPDEST PUSH1 0x20 DUP4 LT EQ PUSH2 0x2AA1 JUMPI JUMP JUMPDEST PUSH4 0x4E487B71 PUSH1 0xE0 SHL PUSH0 MSTORE PUSH1 0x22 PUSH1 0x4 MSTORE PUSH1 0x24 PUSH0 REVERT JUMPDEST SWAP2 PUSH1 0x7F AND SWAP2 PUSH2 0x2A96 JUMP JUMPDEST PUSH2 0x1A0 DUP2 ADD SWAP1 DUP2 LT PUSH1 0x1 PUSH1 0x1 PUSH1 0x40 SHL SUB DUP3 GT OR PUSH2 0x1336 JUMPI PUSH1 0x40 MSTORE JUMP JUMPDEST PUSH1 0x60 DUP2 ADD SWAP1 DUP2 LT PUSH1 0x1 PUSH1 0x1 PUSH1 0x40 SHL SUB DUP3 GT OR PUSH2 0x1336 JUMPI PUSH1 0x40 MSTORE JUMP JUMPDEST PUSH2 0x140 DUP2 ADD SWAP1 DUP2 LT PUSH1 0x1 PUSH1 0x1 PUSH1 0x40 SHL SUB DUP3 GT OR PUSH2 0x1336 JUMPI PUSH1 0x40 MSTORE JUMP JUMPDEST PUSH2 0x180 DUP2 ADD SWAP1 DUP2 LT PUSH1 0x1 PUSH1 0x1 PUSH1 0x40 SHL SUB DUP3 GT OR PUSH2 0x1336 JUMPI PUSH1 0x40 MSTORE JUMP JUMPDEST SWAP1 PUSH1 0x1F DUP1 NOT SWAP2 ADD AND DUP2 ADD SWAP1 DUP2 LT PUSH1 0x1 PUSH1 0x1 PUSH1 0x40 SHL SUB DUP3 GT OR PUSH2 0x1336 JUMPI PUSH1 0x40 MSTORE JUMP JUMPDEST SWAP1 PUSH1 0x40 MLOAD SWAP2 DUP3 PUSH0 DUP3 SLOAD SWAP3 PUSH2 0x2B62 DUP5 PUSH2 0x2A87 JUMP JUMPDEST DUP1 DUP5 MSTORE SWAP4 PUSH1 0x1 DUP2 AND SWAP1 DUP2 ISZERO PUSH2 0x2BCD JUMPI POP PUSH1 0x1 EQ PUSH2 0x2B89 JUMPI JUMPDEST POP PUSH2 0x2B87 SWAP3 POP SUB DUP4 PUSH2 0x2B2E JUMP JUMPDEST JUMP JUMPDEST SWAP1 POP PUSH0 SWAP3 SWAP2 SWAP3 MSTORE PUSH1 0x20 PUSH0 KECCAK256 SWAP1 PUSH0 SWAP2 JUMPDEST DUP2 DUP4 LT PUSH2 0x2BB1 JUMPI POP POP SWAP1 PUSH1 0x20 PUSH2 0x2B87 SWAP3 DUP3 ADD ADD PUSH0 PUSH2 0x2B7A JUMP JUMPDEST PUSH1 0x20 SWAP2 SWAP4 POP DUP1 PUSH1 0x1 SWAP2 SLOAD DUP4 DUP6 DUP10 ADD ADD MSTORE ADD SWAP2 ADD SWAP1 SWAP2 DUP5 SWAP3 PUSH2 0x2B98 JUMP JUMPDEST SWAP1 POP PUSH1 0x20 SWAP3 POP PUSH2 0x2B87 SWAP5 SWAP2 POP PUSH1 0xFF NOT AND DUP3 DUP5 ADD MSTORE ISZERO ISZERO PUSH1 0x5 SHL DUP3 ADD ADD PUSH0 PUSH2 0x2B7A JUMP JUMPDEST ISZERO PUSH2 0x2BF6 JUMPI JUMP JUMPDEST PUSH1 0x40 MLOAD PUSH3 0x461BCD PUSH1 0xE5 SHL DUP2 MSTORE PUSH1 0x20 PUSH1 0x4 DUP3 ADD MSTORE PUSH1 0x11 PUSH1 0x24 DUP3 ADD MSTORE PUSH17 0x125B98DBDC9C9958DD081C185E5B595B9D PUSH1 0x7A SHL PUSH1 0x44 DUP3 ADD MSTORE PUSH1 0x64 SWAP1 REVERT JUMPDEST DUP1 SLOAD PUSH1 0x1 PUSH1 0x40 SHL DUP2 LT ISZERO PUSH2 0x1336 JUMPI PUSH2 0x2C4C SWAP2 PUSH1 0x1 DUP3 ADD DUP2 SSTORE PUSH2 0x2954 JUMP JUMPDEST DUP2 SWAP3 SWAP2 SLOAD SWAP1 PUSH1 0x3 SHL SWAP2 DUP3 SHL SWAP2 PUSH0 NOT SWAP1 SHL NOT AND OR SWAP1 SSTORE JUMP JUMPDEST PUSH1 0x40 MLOAD SWAP1 PUSH2 0x2C70 DUP3 PUSH2 0x2AF6 JUMP JUMPDEST PUSH0 PUSH2 0x120 DUP4 DUP3 DUP2 MSTORE DUP3 PUSH1 0x20 DUP3 ADD MSTORE DUP3 PUSH1 0x40 DUP3 ADD MSTORE DUP3 PUSH1 0x60 DUP3 ADD MSTORE DUP3 PUSH1 0x80 DUP3 ADD MSTORE DUP3 PUSH1 0xA0 DUP3 ADD MSTORE DUP3 PUSH1 0xC0 DUP3 ADD MSTORE DUP3 PUSH1 0xE0 DUP3 ADD MSTORE DUP3 PUSH2 0x100 DUP3 ADD MSTORE ADD MSTORE JUMP JUMPDEST DUP2 DUP2 MUL SWAP3 SWAP2 DUP2 ISZERO SWAP2 DUP5 DIV EQ OR ISZERO PUSH2 0x11E3 JUMPI JUMP JUMPDEST DUP2 ISZERO PUSH2 0x2CCA JUMPI MOD SWAP1 JUMP JUMPDEST PUSH4 0x4E487B71 PUSH1 0xE0 SHL PUSH0 MSTORE PUSH1 0x12 PUSH1 0x4 MSTORE PUSH1 0x24 PUSH0 REVERT JUMPDEST PUSH1 0xFF AND PUSH1 0x7 ADD SWAP1 PUSH1 0xFF DUP3 GT PUSH2 0x11E3 JUMPI JUMP JUMPDEST PUSH1 0xFF AND PUSH1 0x4 ADD SWAP1 PUSH1 0xFF DUP3 GT PUSH2 0x11E3 JUMPI JUMP JUMPDEST PUSH1 0xFF AND PUSH1 0x3 ADD SWAP1 PUSH1 0xFF DUP3 GT PUSH2 0x11E3 JUMPI JUMP JUMPDEST PUSH1 0xFF PUSH1 0x2 SWAP2 AND ADD SWAP1 PUSH1 0xFF DUP3 GT PUSH2 0x11E3 JUMPI JUMP JUMPDEST SWAP1 PUSH1 0xFF DUP1 SWAP2 AND SWAP2 AND ADD SWAP1 PUSH1 0xFF DUP3 GT PUSH2 0x11E3 JUMPI JUMP JUMPDEST SWAP1 PUSH2 0x715 JUMPI PUSH1 0x2 SWAP1 PUSH2 0x2D58 DUP4 MLOAD ISZERO ISZERO DUP3 SWAP1 PUSH1 0xFF DUP1 NOT DUP4 SLOAD AND SWAP2 ISZERO ISZERO AND OR SWAP1 SSTORE JUMP JUMPDEST PUSH1 0x20 DUP4 ADD MLOAD PUSH1 0x1 DUP3 ADD SSTORE ADD SWAP1 PUSH1 0x40 DUP2 ADD MLOAD PUSH2 0x2D72 DUP2 PUSH2 0x288B JUMP JUMPDEST PUSH2 0x2D7B DUP2 PUSH2 0x288B JUMP JUMPDEST DUP3 SLOAD PUSH1 0x60 DUP4 ADD MLOAD SWAP1 PUSH2 0x2D8C DUP3 PUSH2 0x288B JUMP JUMPDEST PUSH2 0x2D95 DUP3 PUSH2 0x288B JUMP JUMPDEST PUSH1 0x80 DUP5 ADD MLOAD SWAP1 PUSH1 0x4 DUP3 LT ISZERO PUSH2 0x769 JUMPI PUSH1 0xFF PUSH3 0xFF0000 PUSH2 0xFF00 SWAP4 PUSH1 0x10 SHL AND SWAP5 AND SWAP1 PUSH3 0xFFFFFF NOT AND OR SWAP2 PUSH1 0x8 SHL AND OR OR DUP3 SSTORE PUSH2 0x2DEB PUSH1 0xFF PUSH1 0xA0 DUP4 ADD MLOAD AND DUP4 SWAP1 PUSH4 0xFF000000 DUP3 SLOAD SWAP2 PUSH1 0x18 SHL AND SWAP1 PUSH4 0xFF000000 NOT AND OR SWAP1 SSTORE JUMP JUMPDEST PUSH1 0xC0 DUP2 ADD MLOAD SWAP1 DUP3 SLOAD SWAP2 PUSH6 0xFF0000000000 PUSH1 0xE0 DUP4 ADD MLOAD PUSH1 0x28 SHL AND SWAP1 PUSH1 0xFF PUSH1 0x38 SHL PUSH2 0x120 PUSH7 0xFF000000000000 PUSH2 0x100 DUP7 ADD MLOAD PUSH1 0x30 SHL AND SWAP5 ADD MLOAD PUSH1 0x38 SHL AND SWAP4 PUSH5 0xFF00000000 PUSH1 0xFF PUSH1 0x38 SHL NOT SWAP3 PUSH1 0x20 SHL AND SWAP1 PUSH7 0xFFFFFF00000000 NOT AND OR AND OR OR OR SWAP1 SSTORE JUMP JUMPDEST PUSH1 0x1 PUSH1 0x1 PUSH1 0x40 SHL SUB DUP2 GT PUSH2 0x1336 JUMPI PUSH1 0x5 SHL PUSH1 0x20 ADD SWAP1 JUMP JUMPDEST SWAP1 PUSH1 0x40 MLOAD SWAP2 DUP3 DUP2 SLOAD SWAP2 DUP3 DUP3 MSTORE PUSH1 0x20 DUP3 ADD SWAP1 PUSH0 MSTORE PUSH1 0x20 PUSH0 KECCAK256 SWAP3 PUSH0 SWAP1 JUMPDEST DUP1 PUSH1 0xF DUP4 ADD LT PUSH2 0x3086 JUMPI PUSH2 0x2B87 SWAP5 SLOAD SWAP2 DUP2 DUP2 LT PUSH2 0x3071 JUMPI JUMPDEST DUP2 DUP2 LT PUSH2 0x3059 JUMPI JUMPDEST DUP2 DUP2 LT PUSH2 0x3042 JUMPI JUMPDEST DUP2 DUP2 LT PUSH2 0x302A JUMPI JUMPDEST DUP2 DUP2 LT PUSH2 0x3012 JUMPI JUMPDEST DUP2 DUP2 LT PUSH2 0x2FFA JUMPI JUMPDEST DUP2 DUP2 LT PUSH2 0x2FE2 JUMPI JUMPDEST DUP2 DUP2 LT PUSH2 0x2FCA JUMPI JUMPDEST DUP2 DUP2 LT PUSH2 0x2FB2 JUMPI JUMPDEST DUP2 DUP2 LT PUSH2 0x2F9A JUMPI JUMPDEST DUP2 DUP2 LT PUSH2 0x2F82 JUMPI JUMPDEST DUP2 DUP2 LT PUSH2 0x2F6A JUMPI JUMPDEST DUP2 DUP2 LT PUSH2 0x2F52 JUMPI JUMPDEST DUP2 DUP2 LT PUSH2 0x2F3A JUMPI JUMPDEST DUP2 DUP2 LT PUSH2 0x2F22 JUMPI JUMPDEST LT PUSH2 0x2F14 JUMPI JUMPDEST POP SUB DUP4 PUSH2 0x2B2E JUMP JUMPDEST PUSH1 0xF0 SHR DUP2 MSTORE PUSH1 0x20 ADD PUSH0 PUSH2 0x2F0C JUMP JUMPDEST SWAP3 PUSH1 0x20 PUSH1 0x1 SWAP2 PUSH2 0xFFFF DUP6 PUSH1 0xE0 SHR AND DUP2 MSTORE ADD SWAP4 ADD PUSH2 0x2F06 JUMP JUMPDEST SWAP3 PUSH1 0x20 PUSH1 0x1 SWAP2 PUSH2 0xFFFF DUP6 PUSH1 0xD0 SHR AND DUP2 MSTORE ADD SWAP4 ADD PUSH2 0x2EFE JUMP JUMPDEST SWAP3 PUSH1 0x20 PUSH1 0x1 SWAP2 PUSH2 0xFFFF DUP6 PUSH1 0xC0 SHR AND DUP2 MSTORE ADD SWAP4 ADD PUSH2 0x2EF6 JUMP JUMPDEST SWAP3 PUSH1 0x20 PUSH1 0x1 SWAP2 PUSH2 0xFFFF DUP6 PUSH1 0xB0 SHR AND DUP2 MSTORE ADD SWAP4 ADD PUSH2 0x2EEE JUMP JUMPDEST SWAP3 PUSH1 0x20 PUSH1 0x1 SWAP2 PUSH2 0xFFFF DUP6 PUSH1 0xA0 SHR AND DUP2 MSTORE ADD SWAP4 ADD PUSH2 0x2EE6 JUMP JUMPDEST SWAP3 PUSH1 0x20 PUSH1 0x1 SWAP2 PUSH2 0xFFFF DUP6 PUSH1 0x90 SHR AND DUP2 MSTORE ADD SWAP4 ADD PUSH2 0x2EDE JUMP JUMPDEST SWAP3 PUSH1 0x20 PUSH1 0x1 SWAP2 PUSH2 0xFFFF DUP6 PUSH1 0x80 SHR AND DUP2 MSTORE ADD SWAP4 ADD PUSH2 0x2ED6 JUMP JUMPDEST SWAP3 PUSH1 0x20 PUSH1 0x1 SWAP2 PUSH2 0xFFFF DUP6 PUSH1 0x70 SHR AND DUP2 MSTORE ADD SWAP4 ADD PUSH2 0x2ECE JUMP JUMPDEST SWAP3 PUSH1 0x20 PUSH1 0x1 SWAP2 PUSH2 0xFFFF DUP6 PUSH1 0x60 SHR AND DUP2 MSTORE ADD SWAP4 ADD PUSH2 0x2EC6 JUMP JUMPDEST SWAP3 PUSH1 0x20 PUSH1 0x1 SWAP2 PUSH2 0xFFFF DUP6 PUSH1 0x50 SHR AND DUP2 MSTORE ADD SWAP4 ADD PUSH2 0x2EBE JUMP JUMPDEST SWAP3 PUSH1 0x20 PUSH1 0x1 SWAP2 PUSH2 0xFFFF DUP6 PUSH1 0x40 SHR AND DUP2 MSTORE ADD SWAP4 ADD PUSH2 0x2EB6 JUMP JUMPDEST SWAP3 PUSH1 0x20 PUSH1 0x1 SWAP2 PUSH2 0xFFFF DUP6 PUSH1 0x30 SHR AND DUP2 MSTORE ADD SWAP4 ADD PUSH2 0x2EAE JUMP JUMPDEST SWAP3 PUSH1 0x20 PUSH1 0x1 SWAP2 PUSH2 0xFFFF DUP6 DUP4 SHR AND DUP2 MSTORE ADD SWAP4 ADD PUSH2 0x2EA6 JUMP JUMPDEST SWAP3 PUSH1 0x20 PUSH1 0x1 SWAP2 PUSH2 0xFFFF DUP6 PUSH1 0x10 SHR AND DUP2 MSTORE ADD SWAP4 ADD PUSH2 0x2E9E JUMP JUMPDEST SWAP3 PUSH1 0x20 PUSH1 0x1 SWAP2 PUSH2 0xFFFF DUP6 AND DUP2 MSTORE ADD SWAP4 ADD PUSH2 0x2E96 JUMP JUMPDEST SWAP2 PUSH1 0x10 SWAP2 SWAP4 POP PUSH2 0x200 PUSH1 0x1 SWAP2 DUP7 SLOAD PUSH2 0xFFFF DUP2 AND DUP3 MSTORE PUSH2 0xFFFF DUP2 DUP7 SHR AND PUSH1 0x20 DUP4 ADD MSTORE PUSH2 0xFFFF DUP2 PUSH1 0x20 SHR AND PUSH1 0x40 DUP4 ADD MSTORE PUSH2 0xFFFF DUP2 PUSH1 0x30 SHR AND PUSH1 0x60 DUP4 ADD MSTORE PUSH2 0xFFFF DUP2 PUSH1 0x40 SHR AND PUSH1 0x80 DUP4 ADD MSTORE PUSH2 0xFFFF DUP2 PUSH1 0x50 SHR AND PUSH1 0xA0 DUP4 ADD MSTORE PUSH2 0xFFFF DUP2 PUSH1 0x60 SHR AND PUSH1 0xC0 DUP4 ADD MSTORE PUSH2 0xFFFF DUP2 PUSH1 0x70 SHR AND PUSH1 0xE0 DUP4 ADD MSTORE PUSH2 0xFFFF DUP2 PUSH1 0x80 SHR AND PUSH2 0x100 DUP4 ADD MSTORE PUSH2 0xFFFF DUP2 PUSH1 0x90 SHR AND PUSH2 0x120 DUP4 ADD MSTORE PUSH2 0xFFFF DUP2 PUSH1 0xA0 SHR AND PUSH2 0x140 DUP4 ADD MSTORE PUSH2 0xFFFF DUP2 PUSH1 0xB0 SHR AND PUSH2 0x160 DUP4 ADD MSTORE PUSH2 0xFFFF DUP2 PUSH1 0xC0 SHR AND PUSH2 0x180 DUP4 ADD MSTORE PUSH2 0xFFFF DUP2 PUSH1 0xD0 SHR AND PUSH2 0x1A0 DUP4 ADD MSTORE PUSH2 0xFFFF DUP2 PUSH1 0xE0 SHR AND PUSH2 0x1C0 DUP4 ADD MSTORE PUSH1 0xF0 SHR PUSH2 0x1E0 DUP3 ADD MSTORE ADD SWAP5 ADD SWAP3 ADD DUP6 SWAP3 SWAP4 SWAP2 PUSH2 0x2E7E JUMP JUMPDEST PUSH1 0x4 DUP3 LT ISZERO PUSH2 0x769 JUMPI MSTORE JUMP JUMPDEST SWAP1 PUSH1 0x40 MLOAD PUSH2 0x3187 DUP2 PUSH2 0x2AF6 JUMP JUMPDEST PUSH2 0x120 PUSH1 0xFF PUSH1 0x2 DUP4 SWAP6 DUP3 DUP2 SLOAD AND ISZERO ISZERO DUP6 MSTORE PUSH1 0x1 DUP2 ADD SLOAD PUSH1 0x20 DUP7 ADD MSTORE ADD SLOAD DUP2 DUP2 AND PUSH2 0x31B0 DUP2 PUSH2 0x288B JUMP JUMPDEST PUSH1 0x40 DUP6 ADD MSTORE DUP2 DUP2 PUSH1 0x8 SHR AND PUSH2 0x31C4 DUP2 PUSH2 0x288B JUMP JUMPDEST PUSH1 0x60 DUP6 ADD MSTORE PUSH2 0x31DB DUP3 DUP3 PUSH1 0x10 SHR AND PUSH1 0x80 DUP7 ADD PUSH2 0x316E JUMP JUMPDEST DUP2 DUP2 PUSH1 0x18 SHR AND PUSH1 0xA0 DUP6 ADD MSTORE DUP2 DUP2 PUSH1 0x20 SHR AND PUSH1 0xC0 DUP6 ADD MSTORE DUP2 DUP2 PUSH1 0x28 SHR AND PUSH1 0xE0 DUP6 ADD MSTORE DUP2 DUP2 PUSH1 0x30 SHR AND PUSH2 0x100 DUP6 ADD MSTORE PUSH1 0x38 SHR AND SWAP2 ADD MSTORE JUMP JUMPDEST DUP2 DUP2 LT PUSH2 0x321C JUMPI POP POP JUMP JUMPDEST PUSH0 DUP2 SSTORE PUSH1 0x1 ADD PUSH2 0x3211 JUMP JUMPDEST SWAP1 DUP2 SLOAD PUSH2 0x3233 DUP2 PUSH2 0x2E4C JUMP JUMPDEST SWAP3 PUSH2 0x3241 PUSH1 0x40 MLOAD SWAP5 DUP6 PUSH2 0x2B2E JUMP JUMPDEST DUP2 DUP5 MSTORE PUSH1 0x20 DUP5 ADD SWAP1 PUSH0 MSTORE PUSH1 0x20 PUSH0 KECCAK256 PUSH0 SWAP2 JUMPDEST DUP4 DUP4 LT PUSH2 0x325F JUMPI POP POP POP POP JUMP JUMPDEST PUSH1 0x3 PUSH1 0x20 PUSH1 0x1 SWAP3 PUSH2 0x326F DUP6 PUSH2 0x317A JUMP JUMPDEST DUP2 MSTORE ADD SWAP3 ADD SWAP3 ADD SWAP2 SWAP1 PUSH2 0x3252 JUMP JUMPDEST SWAP3 SWAP2 SWAP1 PUSH2 0x3289 DUP2 PUSH2 0x2E4C JUMP JUMPDEST SWAP4 PUSH2 0x3297 PUSH1 0x40 MLOAD SWAP6 DUP7 PUSH2 0x2B2E JUMP JUMPDEST PUSH1 0x20 DUP6 DUP4 DUP2 MSTORE ADD SWAP2 PUSH1 0x5 SHL DUP2 ADD SWAP3 DUP4 GT PUSH2 0x1E7 JUMPI SWAP1 JUMPDEST DUP3 DUP3 LT PUSH2 0x32B9 JUMPI POP POP POP JUMP JUMPDEST DUP2 CALLDATALOAD DUP2 MSTORE PUSH1 0x20 SWAP2 DUP3 ADD SWAP2 ADD PUSH2 0x32AD JUMP JUMPDEST DUP1 MLOAD DUP3 LT ISZERO PUSH2 0x1E3D JUMPI PUSH1 0x20 SWAP2 PUSH1 0x5 SHL ADD ADD SWAP1 JUMP JUMPDEST DUP1 SLOAD PUSH0 DUP3 SSTORE DUP1 PUSH2 0x32EB JUMPI POP POP JUMP JUMPDEST PUSH2 0x2B87 SWAP2 PUSH0 MSTORE PUSH1 0xF PUSH1 0x20 PUSH0 KECCAK256 SWAP2 ADD PUSH1 0x4 SHR DUP2 ADD SWAP1 PUSH2 0x3211 JUMP JUMPDEST DUP1 SLOAD PUSH1 0x1 PUSH1 0x40 SHL DUP2 LT ISZERO PUSH2 0x1336 JUMPI PUSH2 0x3321 SWAP2 PUSH1 0x1 DUP3 ADD DUP2 SSTORE PUSH2 0x2933 JUMP JUMPDEST PUSH2 0xFFFF DUP1 DUP4 SWAP5 SWAP4 SLOAD SWAP3 PUSH1 0x3 SHL SWAP4 AND DUP4 SHL SWAP3 SHL NOT AND OR SWAP1 SSTORE JUMP JUMPDEST SWAP1 PUSH1 0x6 DUP3 LT ISZERO PUSH2 0x769 JUMPI MSTORE JUMP JUMPDEST PUSH1 0xFF PUSH0 SLOAD PUSH1 0xA0 SHR AND PUSH2 0x3355 JUMPI JUMP JUMPDEST PUSH4 0xD93C0665 PUSH1 0xE0 SHL PUSH0 MSTORE PUSH1 0x4 PUSH0 REVERT JUMPDEST PUSH1 0x2 PUSH0 MLOAD PUSH1 0x20 PUSH2 0x49A6 PUSH0 CODECOPY PUSH0 MLOAD SWAP1 PUSH0 MSTORE SLOAD EQ PUSH2 0x338D JUMPI PUSH1 0x2 PUSH0 MLOAD PUSH1 0x20 PUSH2 0x49A6 PUSH0 CODECOPY PUSH0 MLOAD SWAP1 PUSH0 MSTORE SSTORE JUMP JUMPDEST PUSH4 0x3EE5AEB5 PUSH1 0xE0 SHL PUSH0 MSTORE PUSH1 0x4 PUSH0 REVERT JUMPDEST SWAP1 PUSH4 0xFFFFFFFF DUP1 SWAP2 AND SWAP2 AND ADD SWAP1 PUSH4 0xFFFFFFFF DUP3 GT PUSH2 0x11E3 JUMPI JUMP JUMPDEST PUSH0 SLOAD PUSH1 0x1 PUSH1 0x1 PUSH1 0xA0 SHL SUB AND CALLER SUB PUSH2 0x33C9 JUMPI JUMP JUMPDEST PUSH4 0x118CDAA7 PUSH1 0xE0 SHL PUSH0 MSTORE CALLER PUSH1 0x4 MSTORE PUSH1 0x24 PUSH0 REVERT JUMPDEST MLOAD SWAP1 PUSH1 0xFF DUP3 AND DUP3 SUB PUSH2 0x1E7 JUMPI JUMP JUMPDEST SWAP1 DUP2 PUSH1 0xC0 SWAP2 SUB SLT PUSH2 0x1E7 JUMPI PUSH1 0x40 MLOAD SWAP1 PUSH1 0xC0 DUP3 ADD DUP3 DUP2 LT PUSH1 0x1 PUSH1 0x1 PUSH1 0x40 SHL SUB DUP3 GT OR PUSH2 0x1336 JUMPI PUSH1 0x40 MSTORE DUP1 MLOAD PUSH1 0x3 DUP2 LT ISZERO PUSH2 0x1E7 JUMPI DUP3 MSTORE PUSH1 0x20 DUP2 ADD MLOAD PUSH1 0x3 DUP2 LT ISZERO PUSH2 0x1E7 JUMPI PUSH1 0x20 DUP4 ADD MSTORE PUSH1 0x40 DUP2 ADD MLOAD PUSH1 0x4 DUP2 LT ISZERO PUSH2 0x1E7 JUMPI PUSH2 0x3474 SWAP2 PUSH1 0xA0 SWAP2 PUSH1 0x40 DUP6 ADD MSTORE PUSH2 0x3458 PUSH1 0x60 DUP3 ADD PUSH2 0x33DC JUMP JUMPDEST PUSH1 0x60 DUP6 ADD MSTORE PUSH2 0x3469 PUSH1 0x80 DUP3 ADD PUSH2 0x33DC JUMP JUMPDEST PUSH1 0x80 DUP6 ADD MSTORE ADD PUSH2 0x33DC JUMP JUMPDEST PUSH1 0xA0 DUP3 ADD MSTORE SWAP1 JUMP JUMPDEST SWAP2 SWAP1 DUP3 ADD DUP1 SWAP3 GT PUSH2 0x11E3 JUMPI JUMP JUMPDEST PUSH1 0x1 DUP1 PUSH1 0xA0 SHL SUB DUP2 AND SWAP2 DUP3 PUSH0 MSTORE PUSH1 0x3 PUSH1 0x20 MSTORE PUSH1 0x40 PUSH0 KECCAK256 SWAP2 PUSH2 0xFFFF DUP4 SLOAD AND ISZERO PUSH2 0x3977 JUMPI JUMPDEST DUP3 SLOAD SWAP2 PUSH1 0x3 PUSH2 0xFFFF DUP5 AND SWAP5 ADD SLOAD SWAP5 PUSH2 0xFFFF DUP7 AND PUSH1 0xFF DUP8 PUSH1 0x10 SHR AND SWAP6 PUSH2 0x34D6 PUSH1 0xFF PUSH1 0x3 DUP4 DIV AND PUSH2 0x2CEF JUMP JUMPDEST SWAP5 PUSH1 0x8 PUSH1 0xFF DUP8 AND GT PUSH2 0x396E JUMPI JUMPDEST PUSH1 0x1 SLOAD PUSH1 0x40 MLOAD PUSH4 0x18160DDD PUSH1 0xE0 SHL DUP2 MSTORE SWAP1 PUSH1 0x20 SWAP1 DUP3 SWAP1 PUSH1 0x4 SWAP1 DUP3 SWAP1 PUSH1 0x1 PUSH1 0x1 PUSH1 0xA0 SHL SUB AND GAS STATICCALL SWAP1 DUP2 ISZERO PUSH2 0x75E JUMPI PUSH0 SWAP2 PUSH2 0x393C JUMPI JUMPDEST POP PUSH1 0x40 MLOAD SWAP1 PUSH1 0x20 DUP3 ADD SWAP3 TIMESTAMP DUP5 MSTORE PUSH12 0xFFFFFFFFFFFFFFFFFFFFFFFF NOT SWAP1 PUSH1 0x60 SHL AND PUSH1 0x40 DUP4 ADD MSTORE PUSH2 0xFFFF PUSH1 0xF0 SHL DUP10 PUSH1 0xF0 SHL AND PUSH1 0x54 DUP4 ADD MSTORE PUSH2 0xFFFF PUSH1 0xF0 SHL DUP12 PUSH1 0xF0 SHL AND PUSH1 0x56 DUP4 ADD MSTORE PUSH1 0x58 DUP3 ADD MSTORE PREVRANDAO PUSH1 0x78 DUP3 ADD MSTORE PUSH1 0x78 DUP2 MSTORE PUSH2 0x3576 PUSH1 0x98 DUP3 PUSH2 0x2B2E JUMP JUMPDEST MLOAD SWAP1 KECCAK256 SWAP5 DUP4 PUSH0 MSTORE PUSH1 0x5 PUSH1 0x20 MSTORE PUSH1 0x40 PUSH0 KECCAK256 DUP1 SLOAD SWAP1 PUSH0 DUP2 SSTORE DUP2 PUSH2 0x3903 JUMPI JUMPDEST POP POP PUSH0 SWAP9 SWAP8 SWAP9 SWAP7 DUP5 PUSH0 MSTORE PUSH1 0x6 PUSH1 0x20 MSTORE PUSH1 0x40 PUSH0 KECCAK256 SWAP7 PUSH1 0x40 MLOAD SWAP8 DUP9 PUSH1 0x20 DUP3 SLOAD SWAP2 DUP3 DUP2 MSTORE ADD SWAP2 PUSH0 MSTORE PUSH1 0x20 PUSH0 KECCAK256 SWAP1 PUSH0 JUMPDEST DUP2 DUP2 LT PUSH2 0x38ED JUMPI POP POP POP DUP9 PUSH2 0x35D4 SWAP2 SUB DUP10 PUSH2 0x2B2E JUMP JUMPDEST PUSH1 0x1 SLOAD PUSH1 0x1 PUSH1 0x1 PUSH1 0xA0 SHL SUB AND SWAP11 PUSH0 JUMPDEST DUP10 MLOAD DUP2 LT ISZERO PUSH2 0x368D JUMPI DUP13 PUSH1 0xC0 PUSH2 0x35F9 DUP4 DUP14 PUSH2 0x32C9 JUMP JUMPDEST MLOAD PUSH1 0x24 PUSH1 0x40 MLOAD DUP1 SWAP5 DUP2 SWAP4 PUSH4 0xB2ADFDF PUSH1 0xE1 SHL DUP4 MSTORE PUSH1 0x4 DUP4 ADD MSTORE GAS STATICCALL DUP1 ISZERO PUSH2 0x75E JUMPI PUSH1 0x20 SWAP2 PUSH0 SWAP2 PUSH2 0x366F JUMPI JUMPDEST POP ADD DUP1 MLOAD PUSH1 0xFF DUP1 DUP15 PUSH2 0x3635 DUP5 PUSH2 0x288B JUMP JUMPDEST PUSH2 0x363E DUP5 PUSH2 0x288B JUMP JUMPDEST PUSH2 0x3647 DUP2 PUSH2 0x288B JUMP JUMPDEST AND SWAP2 AND GT PUSH2 0x3659 JUMPI JUMPDEST POP PUSH1 0x1 ADD PUSH2 0x35E3 JUMP JUMPDEST PUSH1 0x1 SWAP2 SWAP12 POP MLOAD PUSH2 0x3668 DUP2 PUSH2 0x288B JUMP JUMPDEST SWAP11 SWAP1 PUSH2 0x3650 JUMP JUMPDEST PUSH2 0x3687 SWAP2 POP PUSH1 0xC0 RETURNDATASIZE DUP2 GT PUSH2 0x1022 JUMPI PUSH2 0x1013 DUP2 DUP4 PUSH2 0x2B2E JUMP JUMPDEST PUSH0 PUSH2 0x3624 JUMP JUMPDEST POP SWAP4 SWAP8 POP SWAP4 SWAP8 SWAP1 SWAP5 SWAP9 SWAP2 SWAP6 SWAP10 POP PUSH1 0x64 DUP5 MOD SWAP1 PUSH2 0x36A8 DUP2 PUSH2 0x288B JUMP JUMPDEST DUP1 PUSH2 0x38AE JUMPI POP POP PUSH0 SWAP2 JUMPDEST PUSH1 0x7 DUP9 MUL DUP9 DUP2 DIV PUSH1 0x7 EQ DUP10 ISZERO OR ISZERO PUSH2 0x11E3 JUMPI PUSH1 0x64 ADD SWAP2 DUP3 PUSH1 0x64 GT PUSH2 0x11E3 JUMPI PUSH2 0x3FC SWAP1 PUSH1 0xE SHR AND SWAP1 DUP1 DUP3 DIV PUSH1 0x4 EQ SWAP1 ISZERO OR ISZERO PUSH2 0x11E3 JUMPI PUSH2 0x36F3 SWAP2 SWAP6 SWAP5 SWAP6 PUSH2 0x347C JUMP JUMPDEST PUSH2 0x3FFF PUSH0 SWAP6 PUSH1 0x2 SHR AND PUSH1 0xFF PUSH2 0x3FFF DUP3 AND SWAP2 AND SWAP6 JUMPDEST PUSH1 0xFF DUP7 AND DUP2 LT PUSH2 0x3751 JUMPI POP POP POP POP POP POP POP SWAP2 PUSH1 0x60 SWAP2 PUSH32 0x2A7DB953326DEC8A8B5D0D5576160BCD2CF173E66E4192B2CBFE4E4AB1DB4EAC SWAP4 PUSH1 0x40 MLOAD SWAP3 DUP4 MSTORE PUSH1 0x20 DUP4 ADD MSTORE PUSH1 0x40 DUP3 ADD MSTORE LOG1 JUMP JUMPDEST PUSH2 0x3759 PUSH2 0x2C63 JUMP JUMPDEST SWAP1 PUSH0 DUP3 MSTORE DUP1 PUSH1 0x3 SHL DUP2 ISZERO SWAP1 DUP3 DUP2 DIV PUSH1 0x8 EQ DUP3 OR ISZERO PUSH2 0x11E3 JUMPI PUSH1 0x3 DUP9 PUSH1 0xFF SWAP3 SHR MOD AND PUSH2 0x3783 DUP2 PUSH2 0x288B JUMP JUMPDEST PUSH2 0x378C DUP2 PUSH2 0x288B JUMP JUMPDEST PUSH1 0x40 DUP5 ADD MSTORE PUSH2 0x379A DUP7 PUSH2 0x288B JUMP JUMPDEST DUP6 PUSH1 0x60 DUP5 ADD MSTORE PUSH1 0x18 DUP3 MUL DUP3 DUP2 DIV PUSH1 0x18 EQ DUP3 OR ISZERO PUSH2 0x11E3 JUMPI DUP8 PUSH1 0x3 SWAP2 SHR AND PUSH1 0x4 DUP2 LT ISZERO PUSH2 0x769 JUMPI PUSH2 0x37CD SWAP1 PUSH1 0x80 DUP6 ADD PUSH2 0x316E JUMP JUMPDEST PUSH2 0x37D6 DUP10 PUSH2 0x2CEF JUMP JUMPDEST SWAP1 DUP3 PUSH1 0x5 SHL DUP4 DUP2 DIV PUSH1 0x20 EQ DUP3 OR ISZERO PUSH2 0x11E3 JUMPI PUSH1 0x64 PUSH2 0x3808 DUP9 PUSH1 0xFF PUSH2 0x3802 DUP2 PUSH1 0x7 DUP16 DUP3 SWAP9 SHR MOD AND DUP9 PUSH2 0x2D23 JUMP JUMPDEST AND PUSH2 0x2CAD JUMP JUMPDEST DIV AND PUSH1 0xA0 DUP6 ADD MSTORE PUSH1 0x28 DUP4 MUL DUP4 DUP2 DIV PUSH1 0x28 EQ DUP3 OR ISZERO PUSH2 0x11E3 JUMPI PUSH1 0x64 PUSH2 0x383A DUP9 PUSH1 0xFF PUSH2 0x3802 DUP2 PUSH1 0x7 DUP16 DUP3 SWAP9 SHR MOD AND DUP9 PUSH2 0x2D23 JUMP JUMPDEST DIV AND PUSH1 0xC0 DUP6 ADD MSTORE PUSH1 0x30 DUP4 MUL SWAP1 DUP4 DUP3 DIV PUSH1 0x30 EQ OR ISZERO PUSH2 0x11E3 JUMPI PUSH2 0x386D DUP7 PUSH1 0xFF PUSH2 0x3802 DUP2 SWAP6 DUP3 PUSH1 0x7 DUP15 PUSH1 0x64 SWAP9 SHR MOD AND SWAP1 PUSH2 0x2D23 JUMP JUMPDEST DIV AND PUSH1 0xE0 DUP4 ADD MSTORE DUP11 PUSH0 MSTORE PUSH1 0x5 PUSH1 0x20 MSTORE PUSH1 0x40 PUSH0 KECCAK256 SWAP1 DUP2 SLOAD PUSH1 0x1 PUSH1 0x40 SHL DUP2 LT ISZERO PUSH2 0x1336 JUMPI PUSH1 0xFF SWAP4 PUSH2 0x23AE DUP3 PUSH1 0x1 SWAP6 DUP7 PUSH2 0x38A6 SWAP6 ADD DUP2 SSTORE PUSH2 0x2A6E JUMP JUMPDEST ADD SWAP1 POP PUSH2 0x3707 JUMP JUMPDEST PUSH1 0x1 SWAP1 PUSH2 0x38BA DUP2 PUSH2 0x288B JUMP JUMPDEST SUB PUSH2 0x38D6 JUMPI PUSH1 0x44 GT ISZERO PUSH2 0x38D0 JUMPI PUSH1 0x1 JUMPDEST SWAP2 PUSH2 0x36B2 JUMP JUMPDEST PUSH0 PUSH2 0x38CA JUMP JUMPDEST PUSH1 0x34 GT ISZERO PUSH2 0x38E6 JUMPI PUSH1 0x2 SWAP2 PUSH2 0x36B2 JUMP JUMPDEST PUSH1 0x1 PUSH2 0x38CA JUMP JUMPDEST DUP3 SLOAD DUP5 MSTORE PUSH1 0x20 SWAP1 SWAP4 ADD SWAP3 PUSH1 0x1 SWAP3 DUP4 ADD SWAP3 ADD PUSH2 0x35BE JUMP JUMPDEST DUP2 PUSH1 0x3 MUL SWAP2 PUSH1 0x3 DUP4 DIV SUB PUSH2 0x11E3 JUMPI PUSH0 MSTORE PUSH1 0x20 PUSH0 KECCAK256 SWAP1 DUP2 ADD SWAP1 JUMPDEST DUP2 DUP2 LT ISZERO PUSH2 0x3592 JUMPI PUSH1 0x3 SWAP1 PUSH0 DUP2 SSTORE PUSH0 PUSH1 0x1 DUP3 ADD SSTORE PUSH0 PUSH1 0x2 DUP3 ADD SSTORE ADD PUSH2 0x391C JUMP JUMPDEST SWAP1 POP PUSH1 0x20 DUP2 RETURNDATASIZE PUSH1 0x20 GT PUSH2 0x3966 JUMPI JUMPDEST DUP2 PUSH2 0x3957 PUSH1 0x20 SWAP4 DUP4 PUSH2 0x2B2E JUMP JUMPDEST DUP2 ADD SUB SLT PUSH2 0x1E7 JUMPI MLOAD PUSH0 PUSH2 0x3517 JUMP JUMPDEST RETURNDATASIZE SWAP2 POP PUSH2 0x394A JUMP JUMPDEST PUSH1 0x8 SWAP6 POP PUSH2 0x34E3 JUMP JUMPDEST DUP3 SLOAD PUSH2 0xFFFF NOT AND PUSH1 0x1 OR DUP4 SSTORE PUSH2 0x34AC JUMP JUMPDEST PUSH1 0x40 MLOAD SWAP1 PUSH1 0x80 DUP3 ADD DUP3 DUP2 LT PUSH1 0x1 PUSH1 0x1 PUSH1 0x40 SHL SUB DUP3 GT OR PUSH2 0x1336 JUMPI PUSH1 0x40 MSTORE PUSH1 0x60 DUP1 DUP4 PUSH0 DUP2 MSTORE DUP2 PUSH1 0x20 DUP3 ADD MSTORE DUP2 PUSH1 0x40 DUP3 ADD MSTORE ADD MSTORE JUMP JUMPDEST SWAP1 PUSH2 0x39C6 DUP3 PUSH2 0x2E4C JUMP JUMPDEST PUSH2 0x39D3 PUSH1 0x40 MLOAD SWAP2 DUP3 PUSH2 0x2B2E JUMP JUMPDEST DUP3 DUP2 MSTORE DUP1 SWAP3 PUSH2 0x39E4 PUSH1 0x1F NOT SWAP2 PUSH2 0x2E4C JUMP JUMPDEST ADD SWAP1 PUSH1 0x20 CALLDATASIZE SWAP2 ADD CALLDATACOPY JUMP JUMPDEST PUSH1 0x2 SHL SWAP1 PUSH2 0x3FC PUSH1 0xFC DUP4 AND SWAP3 AND DUP3 SUB PUSH2 0x11E3 JUMPI JUMP JUMPDEST PUSH0 NOT DUP2 EQ PUSH2 0x11E3 JUMPI PUSH1 0x1 ADD SWAP1 JUMP JUMPDEST PUSH1 0xFF AND PUSH1 0xFF DUP2 EQ PUSH2 0x11E3 JUMPI PUSH1 0x1 ADD SWAP1 JUMP JUMPDEST DUP1 SLOAD PUSH2 0xFFFF DUP2 AND SWAP1 PUSH1 0x37 DUP3 MUL PUSH4 0xFFFFFFFF DUP2 AND SWAP1 DUP2 SUB PUSH2 0x11E3 JUMPI PUSH1 0x5A ADD PUSH4 0xFFFFFFFF DUP2 GT PUSH2 0x11E3 JUMPI PUSH4 0xFFFFFFFF DUP1 SWAP2 AND SWAP2 PUSH1 0x10 SHR AND LT ISZERO PUSH2 0x3A61 JUMPI POP POP JUMP JUMPDEST PUSH2 0xFFFF DUP2 EQ PUSH2 0x11E3 JUMPI DUP2 SLOAD PUSH6 0xFFFFFFFFFFFF NOT AND PUSH1 0x1 SWAP2 SWAP1 SWAP2 ADD PUSH2 0xFFFF AND OR SWAP1 SSTORE JUMP JUMPDEST SWAP1 PUSH2 0x3A8E DUP3 PUSH2 0x2E4C JUMP JUMPDEST PUSH2 0x3A9B PUSH1 0x40 MLOAD SWAP2 DUP3 PUSH2 0x2B2E JUMP JUMPDEST DUP3 DUP2 MSTORE DUP1 SWAP3 PUSH2 0x3AAC PUSH1 0x1F NOT SWAP2 PUSH2 0x2E4C JUMP JUMPDEST ADD SWAP1 PUSH0 JUMPDEST DUP3 DUP2 LT PUSH2 0x3ABC JUMPI POP POP POP JUMP JUMPDEST PUSH1 0x20 SWAP1 PUSH1 0x40 MLOAD PUSH2 0x3ACB DUP2 PUSH2 0x2B12 JUMP JUMPDEST PUSH0 DUP2 MSTORE PUSH0 DUP4 DUP3 ADD MSTORE PUSH0 PUSH1 0x40 DUP3 ADD MSTORE PUSH0 PUSH1 0x60 DUP3 ADD MSTORE PUSH0 PUSH1 0x80 DUP3 ADD MSTORE PUSH0 PUSH1 0xA0 DUP3 ADD MSTORE PUSH0 PUSH1 0xC0 DUP3 ADD MSTORE PUSH0 PUSH1 0xE0 DUP3 ADD MSTORE PUSH0 PUSH2 0x100 DUP3 ADD MSTORE PUSH0 PUSH2 0x120 DUP3 ADD MSTORE PUSH0 PUSH2 0x140 DUP3 ADD MSTORE PUSH0 PUSH2 0x160 DUP3 ADD MSTORE DUP3 DUP3 DUP6 ADD ADD MSTORE ADD PUSH2 0x3AB0 JUMP JUMPDEST SWAP1 PUSH1 0x3 DUP2 LT ISZERO PUSH2 0x1E3D JUMPI PUSH1 0x5 SHL ADD SWAP1 JUMP JUMPDEST PUSH1 0x40 MLOAD SWAP2 SWAP1 PUSH1 0x60 PUSH2 0x3B41 DUP2 DUP6 PUSH2 0x2B2E JUMP JUMPDEST PUSH1 0x60 CALLDATASIZE DUP6 CALLDATACOPY PUSH0 JUMPDEST DUP3 MLOAD DUP2 LT ISZERO PUSH2 0x3BC0 JUMPI DUP1 PUSH2 0xFFFF DUP4 PUSH2 0x3B62 PUSH1 0x1 SWAP5 DUP8 PUSH2 0x32C9 JUMP JUMPDEST MLOAD ADD MLOAD AND PUSH2 0x3B71 JUMPI JUMPDEST ADD PUSH2 0x3B48 JUMP JUMPDEST PUSH1 0xFF PUSH2 0x120 PUSH2 0x3B80 DUP4 DUP8 PUSH2 0x32C9 JUMP JUMPDEST MLOAD ADD MLOAD PUSH2 0x3B8C DUP2 PUSH2 0x288B JUMP JUMPDEST PUSH2 0x3B95 DUP2 PUSH2 0x288B JUMP JUMPDEST AND PUSH1 0xFF PUSH2 0x3BB7 PUSH2 0x3BB0 DUP3 PUSH2 0x3BA9 DUP6 DUP13 PUSH2 0x3B1F JUMP JUMPDEST MLOAD AND PUSH2 0x3A11 JUMP JUMPDEST SWAP3 DUP10 PUSH2 0x3B1F JUMP JUMPDEST SWAP2 AND SWAP1 MSTORE PUSH2 0x3B6B JUMP JUMPDEST POP POP PUSH0 JUMPDEST DUP2 MLOAD DUP2 LT ISZERO PUSH2 0x3C31 JUMPI DUP1 PUSH1 0x3 PUSH1 0xFF PUSH2 0x3C01 DUP2 PUSH2 0x120 PUSH2 0x3BE5 PUSH1 0x1 SWAP8 DUP10 PUSH2 0x32C9 JUMP JUMPDEST MLOAD ADD MLOAD PUSH2 0x3BF1 DUP2 PUSH2 0x288B JUMP JUMPDEST PUSH2 0x3BFA DUP2 PUSH2 0x288B JUMP JUMPDEST AND DUP9 PUSH2 0x3B1F JUMP JUMPDEST MLOAD AND LT ISZERO PUSH2 0x3C10 JUMPI JUMPDEST ADD PUSH2 0x3BC4 JUMP JUMPDEST PUSH2 0x3C1A DUP2 DUP5 PUSH2 0x32C9 JUMP JUMPDEST MLOAD PUSH1 0xFF PUSH2 0x3C29 DUP2 DUP4 MLOAD AND PUSH2 0x2D11 JUMP JUMPDEST AND SWAP1 MSTORE PUSH2 0x3C0A JUMP JUMPDEST POP POP SWAP1 POP JUMP JUMPDEST PUSH0 JUMPDEST DUP2 MLOAD DUP2 LT ISZERO PUSH2 0x3C68 JUMPI PUSH2 0xFFFF PUSH1 0x60 PUSH2 0x3C51 DUP4 DUP6 PUSH2 0x32C9 JUMP JUMPDEST MLOAD ADD MLOAD AND PUSH2 0x3C61 JUMPI PUSH1 0x1 ADD PUSH2 0x3C39 JUMP JUMPDEST POP POP PUSH1 0x1 SWAP1 JUMP JUMPDEST POP POP PUSH0 SWAP1 JUMP JUMPDEST SWAP1 PUSH2 0xFFFF DUP1 SWAP2 AND SWAP2 AND ADD SWAP1 PUSH2 0xFFFF DUP3 GT PUSH2 0x11E3 JUMPI JUMP JUMPDEST PUSH0 JUMPDEST DUP2 MLOAD DUP2 LT ISZERO PUSH2 0x3CE9 JUMPI DUP1 PUSH2 0xFFFF PUSH1 0x60 PUSH2 0x3CA1 PUSH1 0x1 SWAP5 DUP7 PUSH2 0x32C9 JUMP JUMPDEST MLOAD ADD MLOAD AND PUSH2 0x3CB0 JUMPI JUMPDEST ADD PUSH2 0x3C86 JUMP JUMPDEST PUSH1 0xFF PUSH1 0x40 PUSH2 0x3CBE DUP4 DUP7 PUSH2 0x32C9 JUMP JUMPDEST MLOAD ADD MLOAD AND PUSH2 0xFFFF PUSH2 0x3CE1 PUSH2 0x100 PUSH2 0x3CD5 DUP6 DUP9 PUSH2 0x32C9 JUMP JUMPDEST MLOAD ADD SWAP3 DUP3 DUP5 MLOAD AND PUSH2 0x3C6E JUMP JUMPDEST AND SWAP1 MSTORE PUSH2 0x3CAA JUMP JUMPDEST POP POP JUMP JUMPDEST SWAP1 PUSH0 SWAP1 PUSH0 PUSH0 SWAP5 PUSH0 SWAP2 PUSH0 JUMPDEST DUP7 MLOAD DUP2 LT ISZERO PUSH2 0x3D7C JUMPI PUSH2 0x3D23 PUSH2 0x3D1C PUSH1 0x60 PUSH2 0x3D12 DUP5 DUP12 PUSH2 0x32C9 JUMP JUMPDEST MLOAD ADD MLOAD PUSH2 0xFFFF AND SWAP1 JUMP JUMPDEST PUSH2 0xFFFF AND SWAP1 JUMP JUMPDEST ISZERO ISZERO DUP1 PUSH2 0x3D5D JUMPI JUMPDEST PUSH2 0x3D38 JUMPI JUMPDEST PUSH1 0x1 ADD PUSH2 0x3CF7 JUMP JUMPDEST SWAP7 POP POP SWAP3 POP PUSH2 0x3D4D PUSH2 0x100 PUSH2 0x3D12 DUP8 DUP8 PUSH2 0x32C9 JUMP JUMPDEST SWAP3 PUSH1 0x1 DUP1 PUSH1 0xFF DUP9 AND SWAP8 SWAP1 POP PUSH2 0x3D30 JUMP JUMPDEST POP PUSH2 0x3D6E PUSH2 0x100 PUSH2 0x3D12 DUP4 DUP11 PUSH2 0x32C9 JUMP JUMPDEST PUSH2 0xFFFF DUP1 DUP9 AND SWAP2 AND GT PUSH2 0x3D2B JUMP JUMPDEST POP SWAP2 SWAP5 SWAP1 SWAP3 SWAP6 PUSH0 JUMPDEST DUP8 MLOAD DUP2 LT ISZERO PUSH2 0x3DFA JUMPI PUSH2 0x3D9F PUSH2 0x3D1C PUSH1 0x60 PUSH2 0x3D12 DUP5 DUP13 PUSH2 0x32C9 JUMP JUMPDEST ISZERO ISZERO DUP1 PUSH2 0x3DDB JUMPI JUMPDEST PUSH2 0x3DB4 JUMPI JUMPDEST PUSH1 0x1 ADD PUSH2 0x3D84 JUMP JUMPDEST SWAP6 POP SWAP2 POP SWAP3 POP PUSH2 0x3DCA PUSH2 0x100 PUSH2 0x3D12 DUP7 DUP9 PUSH2 0x32C9 JUMP JUMPDEST SWAP3 PUSH0 SWAP2 PUSH1 0x1 PUSH1 0xFF DUP8 AND SWAP7 SWAP1 POP PUSH2 0x3DAC JUMP JUMPDEST POP PUSH2 0x3DEC PUSH2 0x100 PUSH2 0x3D12 DUP4 DUP12 PUSH2 0x32C9 JUMP JUMPDEST PUSH2 0xFFFF DUP1 DUP9 AND SWAP2 AND GT PUSH2 0x3DA7 JUMP JUMPDEST POP SWAP2 SWAP4 PUSH2 0xFFFF SWAP1 SWAP6 SWAP2 SWAP4 SWAP6 AND ISZERO PUSH2 0x3E50 JUMPI SWAP2 PUSH2 0x100 SWAP2 PUSH0 SWAP4 DUP6 DUP6 EQ PUSH2 0x3E48 JUMPI POP SWAP6 JUMPDEST DUP5 DUP5 EQ PUSH2 0x3E39 JUMPI POP PUSH2 0x3E32 SWAP1 PUSH1 0xFF DUP8 AND SWAP1 PUSH2 0x32C9 JUMP JUMPDEST MLOAD ADD MSTORE SWAP2 SWAP1 JUMP JUMPDEST PUSH2 0x3E32 SWAP2 POP PUSH1 0xFF DUP8 AND SWAP1 PUSH2 0x32C9 JUMP JUMPDEST SWAP1 POP SWAP6 PUSH2 0x3E1C JUMP JUMPDEST POP POP PUSH2 0x3E70 SWAP3 SWAP4 SWAP2 POP PUSH2 0x3E62 DUP2 PUSH2 0x3C84 JUMP JUMPDEST PUSH2 0x3E6B DUP3 PUSH2 0x3C84 JUMP JUMPDEST PUSH2 0x3CED JUMP JUMPDEST SWAP1 SWAP2 JUMP JUMPDEST PUSH2 0xFFFF PUSH0 NOT SWAP2 AND ADD SWAP1 PUSH2 0xFFFF DUP3 GT PUSH2 0x11E3 JUMPI JUMP JUMPDEST SWAP1 PUSH2 0xFFFF DUP1 SWAP2 AND SWAP2 AND SUB SWAP1 PUSH2 0xFFFF DUP3 GT PUSH2 0x11E3 JUMPI JUMP JUMPDEST PUSH1 0x40 MLOAD SWAP1 PUSH2 0x3EAD PUSH1 0x40 DUP4 PUSH2 0x2B2E JUMP JUMPDEST PUSH1 0xA DUP3 MSTORE PUSH10 0x13185CDD0814DD185B99 PUSH1 0xB2 SHL PUSH1 0x20 DUP4 ADD MSTORE JUMP JUMPDEST SWAP6 SWAP2 PUSH1 0xFF SWAP1 SWAP8 SWAP5 SWAP6 SWAP4 SWAP2 SWAP8 AND PUSH2 0xFFFF PUSH1 0x60 PUSH2 0x3EE1 DUP4 DUP11 PUSH2 0x32C9 JUMP JUMPDEST MLOAD ADD MLOAD AND ISZERO PUSH2 0x4298 JUMPI PUSH0 SWAP6 PUSH0 JUMPDEST DUP10 MLOAD DUP2 LT ISZERO PUSH2 0x3F2B JUMPI PUSH2 0xFFFF PUSH1 0x60 PUSH2 0x3F06 DUP4 DUP14 PUSH2 0x32C9 JUMP JUMPDEST MLOAD ADD MLOAD AND PUSH2 0x3F17 JUMPI JUMPDEST PUSH1 0x1 ADD PUSH2 0x3EEE JUMP JUMPDEST SWAP7 PUSH2 0x3F23 PUSH1 0x1 SWAP2 PUSH2 0x3A03 JUMP JUMPDEST SWAP8 SWAP1 POP PUSH2 0x3F0F JUMP JUMPDEST POP SWAP1 SWAP3 SWAP5 SWAP8 SWAP2 SWAP4 SWAP6 SWAP7 DUP8 ISZERO PUSH2 0x428C JUMPI PUSH0 SWAP8 PUSH1 0x1 DUP2 SUB PUSH2 0x41F9 JUMPI POP PUSH0 JUMPDEST DUP4 MLOAD DUP2 LT ISZERO PUSH2 0x41EB JUMPI PUSH2 0xFFFF PUSH1 0x60 PUSH2 0x3F5F DUP4 DUP8 PUSH2 0x32C9 JUMP JUMPDEST MLOAD ADD MLOAD AND PUSH2 0x3F6F JUMPI PUSH1 0x1 ADD PUSH2 0x3F47 JUMP JUMPDEST SWAP1 SWAP2 SWAP3 SWAP4 SWAP5 SWAP6 SWAP7 SWAP8 POP SWAP2 JUMPDEST PUSH2 0xFFFF PUSH1 0x60 PUSH2 0x3F89 DUP6 DUP8 PUSH2 0x32C9 JUMP JUMPDEST MLOAD ADD MLOAD AND SWAP1 PUSH1 0xFF PUSH2 0x3F9A DUP8 DUP6 PUSH2 0x32C9 JUMP JUMPDEST MLOAD MLOAD AND PUSH1 0xFF PUSH1 0x20 PUSH2 0x3FAB DUP8 DUP10 PUSH2 0x32C9 JUMP JUMPDEST MLOAD ADD MLOAD AND PUSH1 0xFF PUSH1 0xA0 PUSH2 0x3FBD DUP11 DUP9 PUSH2 0x32C9 JUMP JUMPDEST MLOAD ADD MLOAD AND PUSH1 0xFF PUSH1 0xC0 PUSH2 0x3FCF DUP10 DUP12 PUSH2 0x32C9 JUMP JUMPDEST MLOAD ADD MLOAD AND SWAP2 PUSH1 0x3 DUP13 MUL SWAP5 DUP13 DUP7 DIV PUSH1 0x3 EQ DUP14 ISZERO OR ISZERO PUSH2 0x11E3 JUMPI PUSH2 0x3FF2 SWAP6 SHR SWAP4 PUSH2 0x4822 JUMP JUMPDEST SWAP1 DUP1 PUSH2 0xFFFF DUP1 PUSH1 0x60 PUSH2 0x4004 DUP10 DUP12 PUSH2 0x32C9 JUMP JUMPDEST MLOAD ADD MLOAD AND SWAP2 AND GT PUSH2 0x41D2 JUMPI JUMPDEST PUSH0 PUSH1 0xE0 PUSH2 0x401D DUP8 DUP10 PUSH2 0x32C9 JUMP JUMPDEST MLOAD ADD MLOAD ISZERO ISZERO DUP1 PUSH2 0x41B2 JUMPI JUMPDEST ISZERO PUSH2 0x4188 JUMPI POP POP POP PUSH2 0x404B PUSH2 0xFFFF PUSH1 0x60 PUSH2 0x4042 DUP7 DUP9 PUSH2 0x32C9 JUMP JUMPDEST MLOAD ADD MLOAD AND PUSH2 0x3E74 JUMP JUMPDEST PUSH1 0x1 PUSH1 0x60 PUSH2 0x4059 DUP7 DUP9 PUSH2 0x32C9 JUMP JUMPDEST MLOAD ADD MSTORE PUSH1 0x1 SWAP2 PUSH2 0x4067 PUSH2 0x3E9E JUMP JUMPDEST SWAP3 JUMPDEST PUSH2 0x4178 JUMPI JUMPDEST PUSH2 0xFFFF PUSH1 0x60 PUSH2 0x407D DUP8 DUP10 PUSH2 0x32C9 JUMP JUMPDEST MLOAD ADD MLOAD AND SWAP2 PUSH2 0x160 PUSH2 0x40B1 DUP10 PUSH2 0x140 PUSH2 0x4096 DUP3 DUP11 PUSH2 0x32C9 JUMP JUMPDEST MLOAD ADD MLOAD SWAP8 PUSH2 0x40A3 DUP10 PUSH2 0x288B JUMP JUMPDEST PUSH2 0x40AC DUP10 PUSH2 0x288B JUMP JUMPDEST PUSH2 0x32C9 JUMP JUMPDEST MLOAD ADD MLOAD SWAP6 PUSH1 0x4 DUP8 LT ISZERO PUSH2 0x769 JUMPI PUSH2 0x160 PUSH2 0x40E8 DUP3 PUSH2 0x140 PUSH2 0x40D2 DUP3 DUP14 PUSH2 0x32C9 JUMP JUMPDEST MLOAD ADD MLOAD SWAP11 PUSH2 0x40DF DUP13 PUSH2 0x288B JUMP JUMPDEST PUSH2 0x40AC DUP13 PUSH2 0x288B JUMP JUMPDEST MLOAD ADD MLOAD SWAP9 PUSH1 0x4 DUP11 LT ISZERO PUSH2 0x769 JUMPI PUSH1 0x40 MLOAD SWAP11 PUSH2 0x4102 DUP13 PUSH2 0x2ABF JUMP JUMPDEST PUSH1 0xFF AND DUP12 MSTORE PUSH1 0x20 DUP12 ADD PUSH0 SWAP1 MSTORE PUSH1 0x40 DUP12 ADD MSTORE PUSH1 0xFF AND PUSH1 0x60 DUP11 ADD MSTORE PUSH2 0xFFFF AND DUP1 PUSH1 0x80 DUP11 ADD MSTORE PUSH1 0xA0 DUP10 ADD MSTORE PUSH1 0xC0 DUP9 ADD MSTORE PUSH1 0xE0 DUP8 ADD MSTORE PUSH2 0x100 DUP7 ADD MSTORE PUSH1 0xFF AND PUSH2 0x120 DUP6 ADD MSTORE PUSH1 0xFF AND PUSH2 0x140 DUP5 ADD MSTORE PUSH1 0xFF AND PUSH2 0x160 DUP4 ADD MSTORE PUSH1 0xFF AND PUSH2 0x180 DUP3 ADD MSTORE PUSH2 0x4168 DUP3 DUP5 PUSH2 0x32C9 JUMP JUMPDEST MSTORE PUSH2 0x4172 SWAP2 PUSH2 0x32C9 JUMP JUMPDEST POP PUSH1 0x1 SWAP1 JUMP JUMPDEST SWAP2 POP PUSH2 0x4182 PUSH2 0x3E9E JUMP JUMPDEST SWAP2 PUSH2 0x406E JUMP JUMPDEST PUSH1 0x60 PUSH2 0x4198 DUP8 DUP10 SWAP7 SWAP5 SWAP6 SWAP7 PUSH2 0x32C9 JUMP JUMPDEST MLOAD ADD PUSH2 0xFFFF PUSH2 0x41AA DUP6 DUP3 DUP5 MLOAD AND PUSH2 0x3E88 JUMP JUMPDEST AND SWAP1 MSTORE PUSH2 0x4069 JUMP JUMPDEST POP PUSH2 0xFFFF PUSH1 0x60 PUSH2 0x41C2 DUP9 DUP11 PUSH2 0x32C9 JUMP JUMPDEST MLOAD ADD MLOAD AND PUSH2 0xFFFF DUP4 AND LT ISZERO PUSH2 0x4028 JUMP JUMPDEST POP PUSH2 0xFFFF PUSH1 0x60 PUSH2 0x41E2 DUP7 DUP9 PUSH2 0x32C9 JUMP JUMPDEST MLOAD ADD MLOAD AND PUSH2 0x4010 JUMP JUMPDEST POP SWAP1 SWAP7 SWAP2 SWAP3 SWAP4 SWAP5 SWAP6 SWAP7 PUSH2 0x3F7A JUMP JUMPDEST PUSH2 0x4222 SWAP2 SWAP9 POP DUP3 PUSH2 0x421C DUP9 PUSH1 0xFF PUSH2 0x4216 DUP11 SWAP10 SWAP9 SWAP8 SWAP15 SWAP13 SWAP12 SWAP11 PUSH2 0x39EE JUMP JUMPDEST AND PUSH2 0x347C JUMP JUMPDEST SHR PUSH2 0x2CC0 JUMP JUMPDEST SWAP8 PUSH0 SWAP8 PUSH0 JUMPDEST DUP4 MLOAD DUP2 LT ISZERO PUSH2 0x427C JUMPI PUSH2 0xFFFF PUSH1 0x60 PUSH2 0x423F DUP4 DUP8 PUSH2 0x32C9 JUMP JUMPDEST MLOAD ADD MLOAD AND PUSH2 0x4250 JUMPI JUMPDEST PUSH1 0x1 ADD PUSH2 0x4227 JUMP JUMPDEST SWAP9 DUP11 DUP2 EQ PUSH2 0x426B JUMPI PUSH2 0x4263 PUSH1 0x1 SWAP2 PUSH2 0x3A03 JUMP JUMPDEST SWAP10 SWAP1 POP PUSH2 0x4248 JUMP JUMPDEST POP SWAP2 SWAP4 SWAP6 SWAP8 SWAP1 SWAP3 SWAP5 SWAP7 SWAP9 POP SWAP2 PUSH2 0x3F7A JUMP JUMPDEST POP SWAP2 SWAP4 SWAP6 SWAP8 POP SWAP8 SWAP2 SWAP4 SWAP6 SWAP8 PUSH2 0x3F7A JUMP JUMPDEST POP POP POP POP POP POP POP POP PUSH0 SWAP1 JUMP JUMPDEST POP POP POP POP SWAP3 POP POP POP PUSH0 SWAP1 JUMP JUMPDEST SWAP6 SWAP2 PUSH1 0xFF SWAP1 SWAP8 SWAP5 SWAP6 SWAP4 SWAP2 SWAP8 AND PUSH2 0xFFFF PUSH1 0x60 PUSH2 0x42BF DUP4 DUP11 PUSH2 0x32C9 JUMP JUMPDEST MLOAD ADD MLOAD AND ISZERO PUSH2 0x4298 JUMPI PUSH0 SWAP6 PUSH0 JUMPDEST DUP10 MLOAD DUP2 LT ISZERO PUSH2 0x4309 JUMPI PUSH2 0xFFFF PUSH1 0x60 PUSH2 0x42E4 DUP4 DUP14 PUSH2 0x32C9 JUMP JUMPDEST MLOAD ADD MLOAD AND PUSH2 0x42F5 JUMPI JUMPDEST PUSH1 0x1 ADD PUSH2 0x42CC JUMP JUMPDEST SWAP7 PUSH2 0x4301 PUSH1 0x1 SWAP2 PUSH2 0x3A03 JUMP JUMPDEST SWAP8 SWAP1 POP PUSH2 0x42ED JUMP JUMPDEST POP SWAP1 SWAP3 SWAP5 SWAP8 SWAP2 SWAP4 SWAP6 SWAP7 DUP8 ISZERO PUSH2 0x428C JUMPI PUSH0 SWAP8 PUSH1 0x1 DUP2 SUB PUSH2 0x458E JUMPI POP PUSH0 JUMPDEST DUP4 MLOAD DUP2 LT ISZERO PUSH2 0x4580 JUMPI PUSH2 0xFFFF PUSH1 0x60 PUSH2 0x433D DUP4 DUP8 PUSH2 0x32C9 JUMP JUMPDEST MLOAD ADD MLOAD AND PUSH2 0x434D JUMPI PUSH1 0x1 ADD PUSH2 0x4325 JUMP JUMPDEST SWAP1 SWAP2 SWAP3 SWAP4 SWAP5 SWAP6 SWAP7 SWAP8 POP SWAP2 JUMPDEST PUSH2 0xFFFF PUSH1 0x60 PUSH2 0x4367 DUP6 DUP8 PUSH2 0x32C9 JUMP JUMPDEST MLOAD ADD MLOAD AND SWAP1 PUSH1 0xFF PUSH2 0x4378 DUP8 DUP6 PUSH2 0x32C9 JUMP JUMPDEST MLOAD MLOAD AND PUSH1 0xFF PUSH1 0x20 PUSH2 0x4389 DUP8 DUP10 PUSH2 0x32C9 JUMP JUMPDEST MLOAD ADD MLOAD AND PUSH1 0xFF PUSH1 0xA0 PUSH2 0x439B DUP11 DUP9 PUSH2 0x32C9 JUMP JUMPDEST MLOAD ADD MLOAD AND PUSH1 0xFF PUSH1 0xC0 PUSH2 0x43AD DUP10 DUP12 PUSH2 0x32C9 JUMP JUMPDEST MLOAD ADD MLOAD AND SWAP2 PUSH1 0x3 DUP13 MUL SWAP5 DUP13 DUP7 DIV PUSH1 0x3 EQ DUP14 ISZERO OR ISZERO PUSH2 0x11E3 JUMPI PUSH2 0x43D0 SWAP6 SHR SWAP4 PUSH2 0x4822 JUMP JUMPDEST SWAP1 DUP1 PUSH2 0xFFFF DUP1 PUSH1 0x60 PUSH2 0x43E2 DUP10 DUP12 PUSH2 0x32C9 JUMP JUMPDEST MLOAD ADD MLOAD AND SWAP2 AND GT PUSH2 0x4567 JUMPI JUMPDEST PUSH0 PUSH1 0xE0 PUSH2 0x43FB DUP8 DUP10 PUSH2 0x32C9 JUMP JUMPDEST MLOAD ADD MLOAD ISZERO ISZERO DUP1 PUSH2 0x4547 JUMPI JUMPDEST ISZERO PUSH2 0x451D JUMPI POP POP POP PUSH2 0x4420 PUSH2 0xFFFF PUSH1 0x60 PUSH2 0x4042 DUP7 DUP9 PUSH2 0x32C9 JUMP JUMPDEST PUSH1 0x1 PUSH1 0x60 PUSH2 0x442E DUP7 DUP9 PUSH2 0x32C9 JUMP JUMPDEST MLOAD ADD MSTORE PUSH1 0x1 SWAP2 PUSH2 0x443C PUSH2 0x3E9E JUMP JUMPDEST SWAP3 JUMPDEST PUSH2 0x450D JUMPI JUMPDEST PUSH2 0xFFFF PUSH1 0x60 PUSH2 0x4452 DUP8 DUP10 PUSH2 0x32C9 JUMP JUMPDEST MLOAD ADD MLOAD AND SWAP2 PUSH2 0x160 PUSH2 0x446B DUP10 PUSH2 0x140 PUSH2 0x4096 DUP3 DUP11 PUSH2 0x32C9 JUMP JUMPDEST MLOAD ADD MLOAD SWAP6 PUSH1 0x4 DUP8 LT ISZERO PUSH2 0x769 JUMPI PUSH2 0x160 PUSH2 0x448C DUP3 PUSH2 0x140 PUSH2 0x40D2 DUP3 DUP14 PUSH2 0x32C9 JUMP JUMPDEST MLOAD ADD MLOAD SWAP9 PUSH1 0x4 DUP11 LT ISZERO PUSH2 0x769 JUMPI PUSH1 0x40 MLOAD SWAP11 PUSH2 0x44A6 DUP13 PUSH2 0x2ABF JUMP JUMPDEST PUSH1 0xFF AND DUP12 MSTORE PUSH1 0x20 DUP12 ADD PUSH1 0x1 SWAP1 MSTORE PUSH1 0x40 DUP12 ADD MSTORE PUSH1 0xFF AND PUSH1 0x60 DUP11 ADD MSTORE PUSH2 0xFFFF AND DUP1 PUSH1 0x80 DUP11 ADD MSTORE PUSH1 0xA0 DUP10 ADD MSTORE PUSH1 0xC0 DUP9 ADD MSTORE PUSH1 0xE0 DUP8 ADD MSTORE PUSH2 0x100 DUP7 ADD MSTORE PUSH1 0xFF AND PUSH2 0x120 DUP6 ADD MSTORE PUSH1 0xFF AND PUSH2 0x140 DUP5 ADD MSTORE PUSH1 0xFF AND PUSH2 0x160 DUP4 ADD MSTORE PUSH1 0xFF AND PUSH2 0x180 DUP3 ADD MSTORE PUSH2 0x4168 DUP3 DUP5 PUSH2 0x32C9 JUMP JUMPDEST SWAP2 POP PUSH2 0x4517 PUSH2 0x3E9E JUMP JUMPDEST SWAP2 PUSH2 0x4443 JUMP JUMPDEST PUSH1 0x60 PUSH2 0x452D DUP8 DUP10 SWAP7 SWAP5 SWAP6 SWAP7 PUSH2 0x32C9 JUMP JUMPDEST MLOAD ADD PUSH2 0xFFFF PUSH2 0x453F DUP6 DUP3 DUP5 MLOAD AND PUSH2 0x3E88 JUMP JUMPDEST AND SWAP1 MSTORE PUSH2 0x443E JUMP JUMPDEST POP PUSH2 0xFFFF PUSH1 0x60 PUSH2 0x4557 DUP9 DUP11 PUSH2 0x32C9 JUMP JUMPDEST MLOAD ADD MLOAD AND PUSH2 0xFFFF DUP4 AND LT ISZERO PUSH2 0x4406 JUMP JUMPDEST POP PUSH2 0xFFFF PUSH1 0x60 PUSH2 0x4577 DUP7 DUP9 PUSH2 0x32C9 JUMP JUMPDEST MLOAD ADD MLOAD AND PUSH2 0x43EE JUMP JUMPDEST POP SWAP1 SWAP7 SWAP2 SWAP3 SWAP4 SWAP5 SWAP6 SWAP7 PUSH2 0x4358 JUMP JUMPDEST PUSH2 0x45AB SWAP2 SWAP9 POP DUP3 PUSH2 0x421C DUP9 PUSH1 0xFF PUSH2 0x4216 DUP11 SWAP10 SWAP9 SWAP8 SWAP15 SWAP13 SWAP12 SWAP11 PUSH2 0x39EE JUMP JUMPDEST SWAP8 PUSH0 SWAP8 PUSH0 JUMPDEST DUP4 MLOAD DUP2 LT ISZERO PUSH2 0x4605 JUMPI PUSH2 0xFFFF PUSH1 0x60 PUSH2 0x45C8 DUP4 DUP8 PUSH2 0x32C9 JUMP JUMPDEST MLOAD ADD MLOAD AND PUSH2 0x45D9 JUMPI JUMPDEST PUSH1 0x1 ADD PUSH2 0x45B0 JUMP JUMPDEST SWAP9 DUP11 DUP2 EQ PUSH2 0x45F4 JUMPI PUSH2 0x45EC PUSH1 0x1 SWAP2 PUSH2 0x3A03 JUMP JUMPDEST SWAP10 SWAP1 POP PUSH2 0x45D1 JUMP JUMPDEST POP SWAP2 SWAP4 SWAP6 SWAP8 SWAP1 SWAP3 SWAP5 SWAP7 SWAP9 POP SWAP2 PUSH2 0x4358 JUMP JUMPDEST POP SWAP2 SWAP4 SWAP6 SWAP8 POP SWAP8 SWAP2 SWAP4 SWAP6 SWAP8 PUSH2 0x4358 JUMP JUMPDEST PUSH2 0x461E DUP2 PUSH2 0x288B JUMP JUMPDEST DUP1 ISZERO PUSH2 0x463F JUMPI PUSH1 0x1 SWAP1 PUSH2 0x4630 DUP2 PUSH2 0x288B JUMP JUMPDEST EQ PUSH2 0x463A JUMPI PUSH1 0x69 SWAP1 JUMP JUMPDEST PUSH1 0x52 SWAP1 JUMP JUMPDEST POP PUSH1 0x41 SWAP1 JUMP JUMPDEST SWAP1 PUSH2 0xFFFF DUP1 SWAP2 AND SWAP2 AND MUL SWAP1 PUSH2 0xFFFF DUP3 AND SWAP2 DUP3 SUB PUSH2 0x11E3 JUMPI JUMP JUMPDEST SWAP1 PUSH1 0x2 SHL PUSH2 0x3FC AND PUSH2 0x466F SWAP2 PUSH2 0x3C6E JUMP JUMPDEST SWAP1 JUMP JUMPDEST PUSH2 0x467B DUP2 PUSH2 0x288B JUMP JUMPDEST DUP1 ISZERO PUSH2 0x469C JUMPI PUSH1 0x1 SWAP1 PUSH2 0x468D DUP2 PUSH2 0x288B JUMP JUMPDEST EQ PUSH2 0x4697 JUMPI PUSH1 0x14 SWAP1 JUMP JUMPDEST PUSH1 0xC SWAP1 JUMP JUMPDEST POP PUSH1 0x6 SWAP1 JUMP JUMPDEST SWAP1 PUSH1 0xFF PUSH1 0x16 SWAP2 AND DIV SWAP1 DUP2 PUSH2 0x46B5 DUP3 PUSH2 0x288B JUMP JUMPDEST PUSH1 0x1 DUP3 EQ PUSH2 0x4707 JUMPI JUMPDEST POP PUSH1 0x2 SWAP1 PUSH2 0x46CB DUP2 PUSH2 0x288B JUMP JUMPDEST EQ PUSH2 0x46E3 JUMPI JUMPDEST PUSH1 0x12 PUSH1 0xFF DUP3 AND GT ISZERO PUSH2 0x466F JUMPI POP PUSH1 0x12 SWAP1 JUMP JUMPDEST PUSH1 0xFF PUSH1 0x4 SWAP2 AND ADD PUSH1 0xFF DUP2 GT ISZERO PUSH2 0x46D1 JUMPI PUSH4 0x4E487B71 PUSH1 0xE0 SHL PUSH0 MSTORE PUSH1 0x11 PUSH1 0x4 MSTORE PUSH1 0x24 PUSH0 REVERT JUMPDEST PUSH1 0x2 SWAP2 SWAP3 POP PUSH2 0x4715 SWAP1 PUSH2 0x2D11 JUMP JUMPDEST SWAP2 SWAP1 PUSH2 0x46BE JUMP JUMPDEST SWAP2 SWAP1 PUSH2 0xFFFF AND DUP1 ISZERO PUSH2 0x481D JUMPI PUSH1 0x3 DUP2 MUL SWAP1 DUP2 DIV PUSH1 0x3 SUB PUSH2 0x11E3 JUMPI PUSH1 0x64 ADD SWAP2 DUP3 PUSH1 0x64 GT PUSH2 0x11E3 JUMPI PUSH0 JUMPDEST DUP2 MLOAD DUP2 LT ISZERO PUSH2 0x3C31 JUMPI DUP1 PUSH1 0xFF PUSH1 0x64 PUSH2 0x476B DUP8 DUP4 PUSH2 0x4763 PUSH1 0x1 SWAP8 DUP10 PUSH2 0x32C9 JUMP JUMPDEST MLOAD MLOAD AND PUSH2 0x2CAD JUMP JUMPDEST DIV AND PUSH2 0x4777 DUP3 DUP6 PUSH2 0x32C9 JUMP JUMPDEST MLOAD MSTORE PUSH1 0xFF PUSH1 0x64 PUSH2 0x4797 DUP8 DUP4 PUSH1 0x20 PUSH2 0x478E DUP8 DUP11 PUSH2 0x32C9 JUMP JUMPDEST MLOAD ADD MLOAD AND PUSH2 0x2CAD JUMP JUMPDEST DIV AND PUSH1 0x20 PUSH2 0x47A5 DUP4 DUP7 PUSH2 0x32C9 JUMP JUMPDEST MLOAD ADD MSTORE PUSH1 0xFF PUSH1 0x64 PUSH2 0x47BD DUP8 DUP4 PUSH1 0x40 PUSH2 0x478E DUP8 DUP11 PUSH2 0x32C9 JUMP JUMPDEST DIV AND PUSH1 0x40 PUSH2 0x47CB DUP4 DUP7 PUSH2 0x32C9 JUMP JUMPDEST MLOAD ADD MSTORE PUSH2 0xFFFF PUSH1 0x64 PUSH2 0x47E4 DUP8 DUP4 PUSH1 0x60 PUSH2 0x478E DUP8 DUP11 PUSH2 0x32C9 JUMP JUMPDEST DIV AND PUSH1 0x60 PUSH2 0x47F2 DUP4 DUP7 PUSH2 0x32C9 JUMP JUMPDEST MLOAD ADD MSTORE PUSH2 0xFFFF PUSH1 0x60 PUSH2 0x4804 DUP4 DUP7 PUSH2 0x32C9 JUMP JUMPDEST MLOAD ADD MLOAD AND PUSH1 0x80 PUSH2 0x4814 DUP4 DUP7 PUSH2 0x32C9 JUMP JUMPDEST MLOAD ADD MSTORE ADD PUSH2 0x4744 JUMP JUMPDEST POP SWAP1 POP JUMP JUMPDEST PUSH1 0x60 SWAP6 SWAP5 SWAP3 SWAP4 PUSH1 0xFF AND DUP1 ISZERO DUP1 ISZERO SWAP2 SWAP1 DUP3 PUSH2 0x4982 JUMPI JUMPDEST POP POP PUSH2 0x4957 JUMPI PUSH1 0xFF AND SWAP1 PUSH2 0xFFFF PUSH1 0x23 DUP5 MOD AND PUSH1 0x6E ADD PUSH2 0xFFFF DUP2 GT PUSH2 0x11E3 JUMPI PUSH1 0xFF PUSH2 0x4863 PUSH1 0x12 SWAP3 DUP6 PUSH2 0x4645 JUMP JUMPDEST SWAP3 AND ADD PUSH2 0xFFFF DUP2 GT PUSH2 0x11E3 JUMPI PUSH2 0xFFFF AND SWAP1 DUP2 ISZERO PUSH2 0x2CCA JUMPI PUSH2 0xFFFF AND DIV SWAP1 PUSH1 0x2 PUSH2 0xFFFF DUP4 AND LT PUSH2 0x493A JUMPI JUMPDEST POP PUSH2 0xFFFF PUSH1 0x25 DUP4 PUSH1 0x8 SHR MOD AND PUSH1 0x52 ADD PUSH2 0xFFFF DUP2 GT PUSH2 0x11E3 JUMPI PUSH2 0x48B4 PUSH2 0xFFFF SWAP2 PUSH1 0x64 SWAP4 PUSH2 0x4645 JUMP JUMPDEST AND DIV SWAP1 PUSH1 0xFF DUP3 SWAP4 AND SWAP1 DUP2 ISZERO ISZERO SWAP2 DUP3 PUSH2 0x4911 JUMPI JUMPDEST POP POP PUSH2 0x48D2 JUMPI POP SWAP2 SWAP1 JUMP JUMPDEST PUSH1 0xD SWAP3 SWAP4 POP PUSH2 0xFFFF SWAP2 POP AND MUL PUSH2 0xFFFF DUP2 AND SWAP1 DUP2 SUB PUSH2 0x11E3 JUMPI PUSH1 0xA SWAP1 DIV SWAP1 PUSH1 0x40 MLOAD PUSH2 0x48FD PUSH1 0x40 DUP3 PUSH2 0x2B2E JUMP JUMPDEST PUSH1 0x4 DUP2 MSTORE PUSH4 0x10D49255 PUSH1 0xE2 SHL PUSH1 0x20 DUP3 ADD MSTORE SWAP1 JUMP JUMPDEST PUSH1 0x1C SWAP2 SWAP3 POP MUL PUSH2 0xFFFF DUP2 AND SWAP1 DUP2 SUB PUSH2 0x11E3 JUMPI PUSH2 0xFFFF PUSH1 0xA PUSH1 0x64 SWAP3 DIV AND SWAP2 PUSH1 0x18 SHR MOD LT PUSH0 DUP1 PUSH2 0x48C7 JUMP JUMPDEST PUSH1 0xFF SWAP2 POP PUSH1 0x3 SWAP1 DIV AND PUSH1 0x2 ADD PUSH1 0xFF DUP2 GT PUSH2 0x11E3 JUMPI PUSH1 0xFF AND PUSH0 PUSH2 0x488D JUMP JUMPDEST POP POP POP POP SWAP1 POP PUSH0 SWAP1 PUSH1 0x40 MLOAD PUSH2 0x496D PUSH1 0x40 DUP3 PUSH2 0x2B2E JUMP JUMPDEST PUSH1 0x5 DUP2 MSTORE PUSH5 0x444F444745 PUSH1 0xD8 SHL PUSH1 0x20 DUP3 ADD MSTORE SWAP1 JUMP JUMPDEST SWAP1 SWAP2 POP PUSH1 0x19 DUP3 MUL SWAP2 DUP3 DIV PUSH1 0x19 EQ OR ISZERO PUSH2 0x11E3 JUMPI PUSH1 0xA SWAP1 DIV PUSH1 0x64 DUP5 MOD LT PUSH0 DUP1 PUSH2 0x4837 JUMP INVALID SWAP12 PUSH24 0x9B17422D0DF92223018B32B4D1FA46E071723D6817E2486D STOP EXTCODESIZE EOFCREATE 0xC5 PUSH0 STOP LOG2 PUSH5 0x6970667358 0x22 SLT KECCAK256 0xB2 MUL SMOD 0x26 0xCA 0x2D EXTCODEHASH SWAP4 EXTCALL SSTORE SAR 0xCD NUMBER SDIV 0xAE 0xE2 SWAP2 0xAC SSTORE LOG0 SWAPN 0x4E SWAPN 0xF6 PUSH0 0xE2 SLT PUSH2 0xEE03 PUSH29 0xCB64736F6C634300081E00330000000000000000000000000000000000 "
		},
		"gasEstimates": {
			"creation": {
				"codeDepositCost": "3787800",
				"executionCost": "infinite",
				"totalCost": "infinite"
			},
			"external": {
				"BUY_PRICE()": "398",
				"REROLL_PRICE()": "552",
				"SHOP_SLOTS()": "827",
				"buyFromShop(uint256)": "infinite",
				"buyUnit()": "infinite",
				"equippedRelics(address,uint256)": "3036",
				"getCurrentAI(address)": "infinite",
				"getEquippedRelics(address)": "infinite",
				"getLastBattleResult(address)": "infinite",
				"getPlayerRelics(address)": "infinite",
				"getPlayerShop(address)": "infinite",
				"getPlayerUnits(address)": "infinite",
				"lastAIMaxHp(address,uint256)": "7086",
				"lastBattleEvents(address,uint256)": "infinite",
				"lastPlayerMaxHp(address,uint256)": "6932",
				"lastPlayerWon(address)": "2916",
				"owner()": "2645",
				"pause()": "30037",
				"paused()": "2463",
				"playerCurrentAI(address,uint256)": "infinite",
				"playerRelics(address,uint256)": "7492",
				"playerShopPreview(address,uint256)": "infinite",
				"playerUnits(address,uint256)": "6923",
				"profiles(address)": "9426",
				"relicContract()": "2910",
				"renounceOwnership()": "28306",
				"rerollShop()": "infinite",
				"setRelicContract(address)": "27088",
				"setUnitNFT(address)": "26934",
				"startMatch(uint256[],uint256[])": "infinite",
				"transferOwnership(address)": "28866",
				"unitNFT()": "2800",
				"unpause()": "27659",
				"withdraw()": "infinite"
			},
			"internal": {
				"_generateAIOpponent(address)": "infinite",
				"_generateRandomUnit(uint256)": "infinite",
				"_levelUpIfNeeded(struct StarForgeGame.PlayerProfile storage pointer)": "26499",
				"_updateProfileBuy(address)": "infinite",
				"_updateProfileMatch(address,bool)": "infinite"
			}
		},
		"methodIdentifiers": {
			"BUY_PRICE()": "705fe4be",
			"REROLL_PRICE()": "9f51758e",
			"SHOP_SLOTS()": "eda34845",
			"buyFromShop(uint256)": "b654823e",
			"buyUnit()": "201738e2",
			"equippedRelics(address,uint256)": "c4f036c4",
			"getCurrentAI(address)": "c99ae45f",
			"getEquippedRelics(address)": "a95db7e2",
			"getLastBattleResult(address)": "2dc6d62f",
			"getPlayerRelics(address)": "bb15a3b4",
			"getPlayerShop(address)": "49c7c24a",
			"getPlayerUnits(address)": "6154ee97",
			"lastAIMaxHp(address,uint256)": "732e9b85",
			"lastBattleEvents(address,uint256)": "aeb5f760",
			"lastPlayerMaxHp(address,uint256)": "4e178659",
			"lastPlayerWon(address)": "b78f4c70",
			"owner()": "8da5cb5b",
			"pause()": "8456cb59",
			"paused()": "5c975abb",
			"playerCurrentAI(address,uint256)": "d6691c27",
			"playerRelics(address,uint256)": "f5905ca1",
			"playerShopPreview(address,uint256)": "84d38fdc",
			"playerUnits(address,uint256)": "4ef2d6c1",
			"profiles(address)": "bbe15627",
			"relicContract()": "d5654ae7",
			"renounceOwnership()": "715018a6",
			"rerollShop()": "29de58d1",
			"setRelicContract(address)": "b2a47500",
			"setUnitNFT(address)": "7e5c4f8b",
			"startMatch(uint256[],uint256[])": "51bdab14",
			"transferOwnership(address)": "f2fde38b",
			"unitNFT()": "b92a40ad",
			"unpause()": "3f4ba83a",
			"withdraw()": "3ccfd60b"
		}
	},
	"abi": [
		{
			"inputs": [
				{
					"internalType": "address",
					"name": "_unitNFT",
					"type": "address"
				}
			],
			"stateMutability": "nonpayable",
			"type": "constructor"
		},
		{
			"inputs": [],
			"name": "EnforcedPause",
			"type": "error"
		},
		{
			"inputs": [],
			"name": "ExpectedPause",
			"type": "error"
		},
		{
			"inputs": [
				{
					"internalType": "address",
					"name": "owner",
					"type": "address"
				}
			],
			"name": "OwnableInvalidOwner",
			"type": "error"
		},
		{
			"inputs": [
				{
					"internalType": "address",
					"name": "account",
					"type": "address"
				}
			],
			"name": "OwnableUnauthorizedAccount",
			"type": "error"
		},
		{
			"inputs": [],
			"name": "ReentrancyGuardReentrantCall",
			"type": "error"
		},
		{
			"anonymous": false,
			"inputs": [
				{
					"indexed": false,
					"internalType": "address",
					"name": "player",
					"type": "address"
				},
				{
					"indexed": false,
					"internalType": "uint16",
					"name": "aiLevel",
					"type": "uint16"
				},
				{
					"indexed": false,
					"internalType": "uint16",
					"name": "tier",
					"type": "uint16"
				}
			],
			"name": "AIOpponentGenerated",
			"type": "event"
		},
		{
			"anonymous": false,
			"inputs": [
				{
					"indexed": true,
					"internalType": "address",
					"name": "player",
					"type": "address"
				},
				{
					"indexed": false,
					"internalType": "bool",
					"name": "playerWon",
					"type": "bool"
				},
				{
					"components": [
						{
							"internalType": "uint8",
							"name": "round",
							"type": "uint8"
						},
						{
							"internalType": "bool",
							"name": "isPlayerSide",
							"type": "bool"
						},
						{
							"internalType": "uint8",
							"name": "attackerIndex",
							"type": "uint8"
						},
						{
							"internalType": "uint8",
							"name": "targetIndex",
							"type": "uint8"
						},
						{
							"internalType": "uint16",
							"name": "damage",
							"type": "uint16"
						},
						{
							"internalType": "uint16",
							"name": "damageDealt",
							"type": "uint16"
						},
						{
							"internalType": "uint16",
							"name": "initialHp",
							"type": "uint16"
						},
						{
							"internalType": "uint16",
							"name": "remainingHp",
							"type": "uint16"
						},
						{
							"internalType": "string",
							"name": "specialEffect",
							"type": "string"
						},
						{
							"internalType": "uint8",
							"name": "attackerRarity",
							"type": "uint8"
						},
						{
							"internalType": "uint8",
							"name": "attackerClass",
							"type": "uint8"
						},
						{
							"internalType": "uint8",
							"name": "targetRarity",
							"type": "uint8"
						},
						{
							"internalType": "uint8",
							"name": "targetClass",
							"type": "uint8"
						}
					],
					"indexed": false,
					"internalType": "struct StarForgeBattleLibrary.BattleEvent[]",
					"name": "events",
					"type": "tuple[]"
				}
			],
			"name": "MatchResolved",
			"type": "event"
		},
		{
			"anonymous": false,
			"inputs": [
				{
					"indexed": true,
					"internalType": "address",
					"name": "previousOwner",
					"type": "address"
				},
				{
					"indexed": true,
					"internalType": "address",
					"name": "newOwner",
					"type": "address"
				}
			],
			"name": "OwnershipTransferred",
			"type": "event"
		},
		{
			"anonymous": false,
			"inputs": [
				{
					"indexed": false,
					"internalType": "address",
					"name": "account",
					"type": "address"
				}
			],
			"name": "Paused",
			"type": "event"
		},
		{
			"anonymous": false,
			"inputs": [
				{
					"indexed": false,
					"internalType": "address",
					"name": "player",
					"type": "address"
				},
				{
					"indexed": false,
					"internalType": "uint256",
					"name": "relicId",
					"type": "uint256"
				}
			],
			"name": "RelicBought",
			"type": "event"
		},
		{
			"anonymous": false,
			"inputs": [
				{
					"indexed": false,
					"internalType": "address",
					"name": "player",
					"type": "address"
				}
			],
			"name": "ShopRerolled",
			"type": "event"
		},
		{
			"anonymous": false,
			"inputs": [
				{
					"indexed": false,
					"internalType": "address",
					"name": "player",
					"type": "address"
				},
				{
					"indexed": false,
					"internalType": "uint256",
					"name": "tokenId",
					"type": "uint256"
				}
			],
			"name": "UnitBought",
			"type": "event"
		},
		{
			"anonymous": false,
			"inputs": [
				{
					"indexed": false,
					"internalType": "address",
					"name": "account",
					"type": "address"
				}
			],
			"name": "Unpaused",
			"type": "event"
		},
		{
			"inputs": [],
			"name": "BUY_PRICE",
			"outputs": [
				{
					"internalType": "uint256",
					"name": "",
					"type": "uint256"
				}
			],
			"stateMutability": "view",
			"type": "function"
		},
		{
			"inputs": [],
			"name": "REROLL_PRICE",
			"outputs": [
				{
					"internalType": "uint256",
					"name": "",
					"type": "uint256"
				}
			],
			"stateMutability": "view",
			"type": "function"
		},
		{
			"inputs": [],
			"name": "SHOP_SLOTS",
			"outputs": [
				{
					"internalType": "uint8",
					"name": "",
					"type": "uint8"
				}
			],
			"stateMutability": "view",
			"type": "function"
		},
		{
			"inputs": [
				{
					"internalType": "uint256",
					"name": "slot",
					"type": "uint256"
				}
			],
			"name": "buyFromShop",
			"outputs": [],
			"stateMutability": "payable",
			"type": "function"
		},
		{
			"inputs": [],
			"name": "buyUnit",
			"outputs": [],
			"stateMutability": "payable",
			"type": "function"
		},
		{
			"inputs": [
				{
					"internalType": "address",
					"name": "",
					"type": "address"
				},
				{
					"internalType": "uint256",
					"name": "",
					"type": "uint256"
				}
			],
			"name": "equippedRelics",
			"outputs": [
				{
					"internalType": "uint256",
					"name": "",
					"type": "uint256"
				}
			],
			"stateMutability": "view",
			"type": "function"
		},
		{
			"inputs": [
				{
					"internalType": "address",
					"name": "player",
					"type": "address"
				}
			],
			"name": "getCurrentAI",
			"outputs": [
				{
					"components": [
						{
							"internalType": "bool",
							"name": "isRelic",
							"type": "bool"
						},
						{
							"internalType": "uint256",
							"name": "id",
							"type": "uint256"
						},
						{
							"internalType": "enum StarForgeUnitNFT.Faction",
							"name": "faction",
							"type": "uint8"
						},
						{
							"internalType": "enum StarForgeUnitNFT.Rarity",
							"name": "rarity",
							"type": "uint8"
						},
						{
							"internalType": "enum StarForgeUnitNFT.UnitClass",
							"name": "unitClass",
							"type": "uint8"
						},
						{
							"internalType": "uint8",
							"name": "attack",
							"type": "uint8"
						},
						{
							"internalType": "uint8",
							"name": "defense",
							"type": "uint8"
						},
						{
							"internalType": "uint8",
							"name": "speed",
							"type": "uint8"
						},
						{
							"internalType": "uint8",
							"name": "relicType",
							"type": "uint8"
						},
						{
							"internalType": "uint8",
							"name": "relicValue",
							"type": "uint8"
						}
					],
					"internalType": "struct StarForgeBattleLibrary.ShopItem[]",
					"name": "",
					"type": "tuple[]"
				}
			],
			"stateMutability": "view",
			"type": "function"
		},
		{
			"inputs": [
				{
					"internalType": "address",
					"name": "player",
					"type": "address"
				}
			],
			"name": "getEquippedRelics",
			"outputs": [
				{
					"internalType": "uint256[3]",
					"name": "",
					"type": "uint256[3]"
				}
			],
			"stateMutability": "view",
			"type": "function"
		},
		{
			"inputs": [
				{
					"internalType": "address",
					"name": "player",
					"type": "address"
				}
			],
			"name": "getLastBattleResult",
			"outputs": [
				{
					"internalType": "bool",
					"name": "playerWon",
					"type": "bool"
				},
				{
					"components": [
						{
							"internalType": "uint8",
							"name": "round",
							"type": "uint8"
						},
						{
							"internalType": "bool",
							"name": "isPlayerSide",
							"type": "bool"
						},
						{
							"internalType": "uint8",
							"name": "attackerIndex",
							"type": "uint8"
						},
						{
							"internalType": "uint8",
							"name": "targetIndex",
							"type": "uint8"
						},
						{
							"internalType": "uint16",
							"name": "damage",
							"type": "uint16"
						},
						{
							"internalType": "uint16",
							"name": "damageDealt",
							"type": "uint16"
						},
						{
							"internalType": "uint16",
							"name": "initialHp",
							"type": "uint16"
						},
						{
							"internalType": "uint16",
							"name": "remainingHp",
							"type": "uint16"
						},
						{
							"internalType": "string",
							"name": "specialEffect",
							"type": "string"
						},
						{
							"internalType": "uint8",
							"name": "attackerRarity",
							"type": "uint8"
						},
						{
							"internalType": "uint8",
							"name": "attackerClass",
							"type": "uint8"
						},
						{
							"internalType": "uint8",
							"name": "targetRarity",
							"type": "uint8"
						},
						{
							"internalType": "uint8",
							"name": "targetClass",
							"type": "uint8"
						}
					],
					"internalType": "struct StarForgeBattleLibrary.BattleEvent[]",
					"name": "events",
					"type": "tuple[]"
				},
				{
					"internalType": "uint16[]",
					"name": "playerMaxHp",
					"type": "uint16[]"
				},
				{
					"internalType": "uint16[]",
					"name": "aiMaxHp",
					"type": "uint16[]"
				}
			],
			"stateMutability": "view",
			"type": "function"
		},
		{
			"inputs": [
				{
					"internalType": "address",
					"name": "player",
					"type": "address"
				}
			],
			"name": "getPlayerRelics",
			"outputs": [
				{
					"internalType": "uint256[]",
					"name": "",
					"type": "uint256[]"
				}
			],
			"stateMutability": "view",
			"type": "function"
		},
		{
			"inputs": [
				{
					"internalType": "address",
					"name": "player",
					"type": "address"
				}
			],
			"name": "getPlayerShop",
			"outputs": [
				{
					"components": [
						{
							"internalType": "bool",
							"name": "isRelic",
							"type": "bool"
						},
						{
							"internalType": "uint256",
							"name": "id",
							"type": "uint256"
						},
						{
							"internalType": "enum StarForgeUnitNFT.Faction",
							"name": "faction",
							"type": "uint8"
						},
						{
							"internalType": "enum StarForgeUnitNFT.Rarity",
							"name": "rarity",
							"type": "uint8"
						},
						{
							"internalType": "enum StarForgeUnitNFT.UnitClass",
							"name": "unitClass",
							"type": "uint8"
						},
						{
							"internalType": "uint8",
							"name": "attack",
							"type": "uint8"
						},
						{
							"internalType": "uint8",
							"name": "defense",
							"type": "uint8"
						},
						{
							"internalType": "uint8",
							"name": "speed",
							"type": "uint8"
						},
						{
							"internalType": "uint8",
							"name": "relicType",
							"type": "uint8"
						},
						{
							"internalType": "uint8",
							"name": "relicValue",
							"type": "uint8"
						}
					],
					"internalType": "struct StarForgeBattleLibrary.ShopItem[3]",
					"name": "",
					"type": "tuple[3]"
				}
			],
			"stateMutability": "view",
			"type": "function"
		},
		{
			"inputs": [
				{
					"internalType": "address",
					"name": "player",
					"type": "address"
				}
			],
			"name": "getPlayerUnits",
			"outputs": [
				{
					"internalType": "uint256[]",
					"name": "",
					"type": "uint256[]"
				}
			],
			"stateMutability": "view",
			"type": "function"
		},
		{
			"inputs": [
				{
					"internalType": "address",
					"name": "",
					"type": "address"
				},
				{
					"internalType": "uint256",
					"name": "",
					"type": "uint256"
				}
			],
			"name": "lastAIMaxHp",
			"outputs": [
				{
					"internalType": "uint16",
					"name": "",
					"type": "uint16"
				}
			],
			"stateMutability": "view",
			"type": "function"
		},
		{
			"inputs": [
				{
					"internalType": "address",
					"name": "",
					"type": "address"
				},
				{
					"internalType": "uint256",
					"name": "",
					"type": "uint256"
				}
			],
			"name": "lastBattleEvents",
			"outputs": [
				{
					"internalType": "uint8",
					"name": "round",
					"type": "uint8"
				},
				{
					"internalType": "bool",
					"name": "isPlayerSide",
					"type": "bool"
				},
				{
					"internalType": "uint8",
					"name": "attackerIndex",
					"type": "uint8"
				},
				{
					"internalType": "uint8",
					"name": "targetIndex",
					"type": "uint8"
				},
				{
					"internalType": "uint16",
					"name": "damage",
					"type": "uint16"
				},
				{
					"internalType": "uint16",
					"name": "damageDealt",
					"type": "uint16"
				},
				{
					"internalType": "uint16",
					"name": "initialHp",
					"type": "uint16"
				},
				{
					"internalType": "uint16",
					"name": "remainingHp",
					"type": "uint16"
				},
				{
					"internalType": "string",
					"name": "specialEffect",
					"type": "string"
				},
				{
					"internalType": "uint8",
					"name": "attackerRarity",
					"type": "uint8"
				},
				{
					"internalType": "uint8",
					"name": "attackerClass",
					"type": "uint8"
				},
				{
					"internalType": "uint8",
					"name": "targetRarity",
					"type": "uint8"
				},
				{
					"internalType": "uint8",
					"name": "targetClass",
					"type": "uint8"
				}
			],
			"stateMutability": "view",
			"type": "function"
		},
		{
			"inputs": [
				{
					"internalType": "address",
					"name": "",
					"type": "address"
				},
				{
					"internalType": "uint256",
					"name": "",
					"type": "uint256"
				}
			],
			"name": "lastPlayerMaxHp",
			"outputs": [
				{
					"internalType": "uint16",
					"name": "",
					"type": "uint16"
				}
			],
			"stateMutability": "view",
			"type": "function"
		},
		{
			"inputs": [
				{
					"internalType": "address",
					"name": "",
					"type": "address"
				}
			],
			"name": "lastPlayerWon",
			"outputs": [
				{
					"internalType": "bool",
					"name": "",
					"type": "bool"
				}
			],
			"stateMutability": "view",
			"type": "function"
		},
		{
			"inputs": [],
			"name": "owner",
			"outputs": [
				{
					"internalType": "address",
					"name": "",
					"type": "address"
				}
			],
			"stateMutability": "view",
			"type": "function"
		},
		{
			"inputs": [],
			"name": "pause",
			"outputs": [],
			"stateMutability": "nonpayable",
			"type": "function"
		},
		{
			"inputs": [],
			"name": "paused",
			"outputs": [
				{
					"internalType": "bool",
					"name": "",
					"type": "bool"
				}
			],
			"stateMutability": "view",
			"type": "function"
		},
		{
			"inputs": [
				{
					"internalType": "address",
					"name": "",
					"type": "address"
				},
				{
					"internalType": "uint256",
					"name": "",
					"type": "uint256"
				}
			],
			"name": "playerCurrentAI",
			"outputs": [
				{
					"internalType": "bool",
					"name": "isRelic",
					"type": "bool"
				},
				{
					"internalType": "uint256",
					"name": "id",
					"type": "uint256"
				},
				{
					"internalType": "enum StarForgeUnitNFT.Faction",
					"name": "faction",
					"type": "uint8"
				},
				{
					"internalType": "enum StarForgeUnitNFT.Rarity",
					"name": "rarity",
					"type": "uint8"
				},
				{
					"internalType": "enum StarForgeUnitNFT.UnitClass",
					"name": "unitClass",
					"type": "uint8"
				},
				{
					"internalType": "uint8",
					"name": "attack",
					"type": "uint8"
				},
				{
					"internalType": "uint8",
					"name": "defense",
					"type": "uint8"
				},
				{
					"internalType": "uint8",
					"name": "speed",
					"type": "uint8"
				},
				{
					"internalType": "uint8",
					"name": "relicType",
					"type": "uint8"
				},
				{
					"internalType": "uint8",
					"name": "relicValue",
					"type": "uint8"
				}
			],
			"stateMutability": "view",
			"type": "function"
		},
		{
			"inputs": [
				{
					"internalType": "address",
					"name": "",
					"type": "address"
				},
				{
					"internalType": "uint256",
					"name": "",
					"type": "uint256"
				}
			],
			"name": "playerRelics",
			"outputs": [
				{
					"internalType": "uint256",
					"name": "",
					"type": "uint256"
				}
			],
			"stateMutability": "view",
			"type": "function"
		},
		{
			"inputs": [
				{
					"internalType": "address",
					"name": "",
					"type": "address"
				},
				{
					"internalType": "uint256",
					"name": "",
					"type": "uint256"
				}
			],
			"name": "playerShopPreview",
			"outputs": [
				{
					"internalType": "bool",
					"name": "isRelic",
					"type": "bool"
				},
				{
					"internalType": "uint256",
					"name": "id",
					"type": "uint256"
				},
				{
					"internalType": "enum StarForgeUnitNFT.Faction",
					"name": "faction",
					"type": "uint8"
				},
				{
					"internalType": "enum StarForgeUnitNFT.Rarity",
					"name": "rarity",
					"type": "uint8"
				},
				{
					"internalType": "enum StarForgeUnitNFT.UnitClass",
					"name": "unitClass",
					"type": "uint8"
				},
				{
					"internalType": "uint8",
					"name": "attack",
					"type": "uint8"
				},
				{
					"internalType": "uint8",
					"name": "defense",
					"type": "uint8"
				},
				{
					"internalType": "uint8",
					"name": "speed",
					"type": "uint8"
				},
				{
					"internalType": "uint8",
					"name": "relicType",
					"type": "uint8"
				},
				{
					"internalType": "uint8",
					"name": "relicValue",
					"type": "uint8"
				}
			],
			"stateMutability": "view",
			"type": "function"
		},
		{
			"inputs": [
				{
					"internalType": "address",
					"name": "",
					"type": "address"
				},
				{
					"internalType": "uint256",
					"name": "",
					"type": "uint256"
				}
			],
			"name": "playerUnits",
			"outputs": [
				{
					"internalType": "uint256",
					"name": "",
					"type": "uint256"
				}
			],
			"stateMutability": "view",
			"type": "function"
		},
		{
			"inputs": [
				{
					"internalType": "address",
					"name": "",
					"type": "address"
				}
			],
			"name": "profiles",
			"outputs": [
				{
					"internalType": "uint16",
					"name": "level",
					"type": "uint16"
				},
				{
					"internalType": "uint32",
					"name": "xp",
					"type": "uint32"
				},
				{
					"internalType": "uint256",
					"name": "wins",
					"type": "uint256"
				},
				{
					"internalType": "uint256",
					"name": "losses",
					"type": "uint256"
				},
				{
					"internalType": "uint16",
					"name": "currentAITier",
					"type": "uint16"
				},
				{
					"internalType": "uint8",
					"name": "winStreak",
					"type": "uint8"
				}
			],
			"stateMutability": "view",
			"type": "function"
		},
		{
			"inputs": [],
			"name": "relicContract",
			"outputs": [
				{
					"internalType": "contract StarForgeRelic",
					"name": "",
					"type": "address"
				}
			],
			"stateMutability": "view",
			"type": "function"
		},
		{
			"inputs": [],
			"name": "renounceOwnership",
			"outputs": [],
			"stateMutability": "nonpayable",
			"type": "function"
		},
		{
			"inputs": [],
			"name": "rerollShop",
			"outputs": [],
			"stateMutability": "payable",
			"type": "function"
		},
		{
			"inputs": [
				{
					"internalType": "address",
					"name": "_relicContract",
					"type": "address"
				}
			],
			"name": "setRelicContract",
			"outputs": [],
			"stateMutability": "nonpayable",
			"type": "function"
		},
		{
			"inputs": [
				{
					"internalType": "address",
					"name": "_unitNFT",
					"type": "address"
				}
			],
			"name": "setUnitNFT",
			"outputs": [],
			"stateMutability": "nonpayable",
			"type": "function"
		},
		{
			"inputs": [
				{
					"internalType": "uint256[]",
					"name": "team",
					"type": "uint256[]"
				},
				{
					"internalType": "uint256[]",
					"name": "equipped",
					"type": "uint256[]"
				}
			],
			"name": "startMatch",
			"outputs": [],
			"stateMutability": "nonpayable",
			"type": "function"
		},
		{
			"inputs": [
				{
					"internalType": "address",
					"name": "newOwner",
					"type": "address"
				}
			],
			"name": "transferOwnership",
			"outputs": [],
			"stateMutability": "nonpayable",
			"type": "function"
		},
		{
			"inputs": [],
			"name": "unitNFT",
			"outputs": [
				{
					"internalType": "contract StarForgeUnitNFT",
					"name": "",
					"type": "address"
				}
			],
			"stateMutability": "view",
			"type": "function"
		},
		{
			"inputs": [],
			"name": "unpause",
			"outputs": [],
			"stateMutability": "nonpayable",
			"type": "function"
		},
		{
			"inputs": [],
			"name": "withdraw",
			"outputs": [],
			"stateMutability": "nonpayable",
			"type": "function"
		}
	]
}